{
	"contracts/factory-airline.sol": {
		"AirlineTicketsManagement": {
			"abi": [
				{
					"inputs": [],
					"stateMutability": "nonpayable",
					"type": "constructor"
				},
				{
					"inputs": [],
					"name": "Business_CLASS",
					"outputs": [],
					"stateMutability": "nonpayable",
					"type": "function"
				},
				{
					"inputs": [],
					"name": "ECONOMY_CLASS",
					"outputs": [],
					"stateMutability": "nonpayable",
					"type": "function"
				},
				{
					"inputs": [],
					"name": "FIRST_CLASS",
					"outputs": [],
					"stateMutability": "nonpayable",
					"type": "function"
				},
				{
					"inputs": [
						{
							"internalType": "address",
							"name": "_user",
							"type": "address"
						},
						{
							"internalType": "string",
							"name": "_name",
							"type": "string"
						},
						{
							"internalType": "string",
							"name": "_des",
							"type": "string"
						}
					],
					"name": "addUser",
					"outputs": [],
					"stateMutability": "nonpayable",
					"type": "function"
				},
				{
					"inputs": [
						{
							"internalType": "address",
							"name": "",
							"type": "address"
						}
					],
					"name": "data",
					"outputs": [
						{
							"internalType": "string",
							"name": "name",
							"type": "string"
						},
						{
							"internalType": "string",
							"name": "des",
							"type": "string"
						},
						{
							"internalType": "address",
							"name": "pass_id",
							"type": "address"
						},
						{
							"internalType": "string",
							"name": "ticket",
							"type": "string"
						},
						{
							"internalType": "uint256",
							"name": "cost",
							"type": "uint256"
						},
						{
							"internalType": "bool",
							"name": "booked",
							"type": "bool"
						},
						{
							"internalType": "bool",
							"name": "confrim",
							"type": "bool"
						},
						{
							"internalType": "uint256",
							"name": "numberOfTicketsPaid",
							"type": "uint256"
						}
					],
					"stateMutability": "view",
					"type": "function"
				},
				{
					"inputs": [],
					"name": "getBalance",
					"outputs": [
						{
							"internalType": "uint256",
							"name": "",
							"type": "uint256"
						}
					],
					"stateMutability": "view",
					"type": "function"
				},
				{
					"inputs": [],
					"name": "owner",
					"outputs": [
						{
							"internalType": "address",
							"name": "",
							"type": "address"
						}
					],
					"stateMutability": "view",
					"type": "function"
				},
				{
					"inputs": [
						{
							"internalType": "address",
							"name": "_user",
							"type": "address"
						}
					],
					"name": "removeUser",
					"outputs": [],
					"stateMutability": "nonpayable",
					"type": "function"
				},
				{
					"inputs": [
						{
							"internalType": "string",
							"name": "_name",
							"type": "string"
						},
						{
							"internalType": "string",
							"name": "_des",
							"type": "string"
						}
					],
					"name": "setData",
					"outputs": [],
					"stateMutability": "nonpayable",
					"type": "function"
				},
				{
					"stateMutability": "payable",
					"type": "receive"
				}
			],
			"devdoc": {
				"kind": "dev",
				"methods": {},
				"version": 1
			},
			"evm": {
				"assembly": "    /* \"contracts/factory-airline.sol\":72:3829  contract AirlineTicketsManagement {\r... */\n  mstore(0x40, 0x80)\n    /* \"contracts/factory-airline.sol\":688:833  constructor() {\r... */\n  callvalue\n  dup1\n  iszero\n  tag_1\n  jumpi\n  0x00\n  dup1\n  revert\ntag_1:\n  pop\n    /* \"contracts/factory-airline.sol\":721:731  msg.sender */\n  caller\n    /* \"contracts/factory-airline.sol\":713:718  owner */\n  0x07\n  0x00\n    /* \"contracts/factory-airline.sol\":713:731  owner = msg.sender */\n  0x0100\n  exp\n  dup2\n  sload\n  dup2\n  0xffffffffffffffffffffffffffffffffffffffff\n  mul\n  not\n  and\n  swap1\n  dup4\n  0xffffffffffffffffffffffffffffffffffffffff\n  and\n  mul\n  or\n  swap1\n  sstore\n  pop\n    /* \"contracts/factory-airline.sol\":752:763  0.005 ether */\n  0x11c37937e08000\n    /* \"contracts/factory-airline.sol\":742:749  economy */\n  0x00\n    /* \"contracts/factory-airline.sol\":742:763  economy = 0.005 ether */\n  dup2\n  swap1\n  sstore\n  pop\n    /* \"contracts/factory-airline.sol\":785:796  0.007 ether */\n  0x18de76816d8000\n    /* \"contracts/factory-airline.sol\":774:782  Business */\n  0x01\n    /* \"contracts/factory-airline.sol\":774:796  Business = 0.007 ether */\n  dup2\n  swap1\n  sstore\n  pop\n    /* \"contracts/factory-airline.sol\":815:825  0.01 ether */\n  0x2386f26fc10000\n    /* \"contracts/factory-airline.sol\":807:812  first */\n  0x02\n    /* \"contracts/factory-airline.sol\":807:825  first = 0.01 ether */\n  dup2\n  swap1\n  sstore\n  pop\n    /* \"contracts/factory-airline.sol\":72:3829  contract AirlineTicketsManagement {\r... */\n  dataSize(sub_0)\n  dup1\n  dataOffset(sub_0)\n  0x00\n  codecopy\n  0x00\n  return\nstop\n\nsub_0: assembly {\n        /* \"contracts/factory-airline.sol\":72:3829  contract AirlineTicketsManagement {\r... */\n      mstore(0x40, 0x80)\n      jumpi(tag_1, lt(calldatasize, 0x04))\n      shr(0xe0, calldataload(0x00))\n      dup1\n      0x98575188\n      gt\n      tag_12\n      jumpi\n      dup1\n      0x98575188\n      eq\n      tag_7\n      jumpi\n      dup1\n      0xab1dd063\n      eq\n      tag_8\n      jumpi\n      dup1\n      0xb90d3d0c\n      eq\n      tag_9\n      jumpi\n      dup1\n      0xba03b061\n      eq\n      tag_10\n      jumpi\n      dup1\n      0xd7554a68\n      eq\n      tag_11\n      jumpi\n      jump(tag_2)\n    tag_12:\n      dup1\n      0x12065fe0\n      eq\n      tag_3\n      jumpi\n      dup1\n      0x8ca3c553\n      eq\n      tag_4\n      jumpi\n      dup1\n      0x8da5cb5b\n      eq\n      tag_5\n      jumpi\n      dup1\n      0x8e9a37dd\n      eq\n      tag_6\n      jumpi\n      jump(tag_2)\n    tag_1:\n      jumpi(tag_2, calldatasize)\n        /* \"contracts/factory-airline.sol\":1136:1140  data */\n      0x08\n        /* \"contracts/factory-airline.sol\":1136:1152  data[msg.sender] */\n      0x00\n        /* \"contracts/factory-airline.sol\":1141:1151  msg.sender */\n      caller\n        /* \"contracts/factory-airline.sol\":1136:1152  data[msg.sender] */\n      0xffffffffffffffffffffffffffffffffffffffff\n      and\n      0xffffffffffffffffffffffffffffffffffffffff\n      and\n      dup2\n      mstore\n      0x20\n      add\n      swap1\n      dup2\n      mstore\n      0x20\n      add\n      0x00\n      keccak256\n        /* \"contracts/factory-airline.sol\":1136:1160  data[msg.sender].pass_id */\n      0x02\n      add\n      0x00\n      swap1\n      sload\n      swap1\n      0x0100\n      exp\n      swap1\n      div\n      0xffffffffffffffffffffffffffffffffffffffff\n      and\n        /* \"contracts/factory-airline.sol\":1122:1160  msg.sender == data[msg.sender].pass_id */\n      0xffffffffffffffffffffffffffffffffffffffff\n      and\n        /* \"contracts/factory-airline.sol\":1122:1132  msg.sender */\n      caller\n        /* \"contracts/factory-airline.sol\":1122:1160  msg.sender == data[msg.sender].pass_id */\n      0xffffffffffffffffffffffffffffffffffffffff\n      and\n      eq\n        /* \"contracts/factory-airline.sol\":1114:1186  require(msg.sender == data[msg.sender].pass_id,\"You are not registered\") */\n      tag_15\n      jumpi\n      mload(0x40)\n      0x08c379a000000000000000000000000000000000000000000000000000000000\n      dup2\n      mstore\n      0x04\n      add\n      tag_16\n      swap1\n      tag_17\n      jump\t// in\n    tag_16:\n      mload(0x40)\n      dup1\n      swap2\n      sub\n      swap1\n      revert\n    tag_15:\n        /* \"contracts/factory-airline.sol\":1206:1210  data */\n      0x08\n        /* \"contracts/factory-airline.sol\":1206:1222  data[msg.sender] */\n      0x00\n        /* \"contracts/factory-airline.sol\":1211:1221  msg.sender */\n      caller\n        /* \"contracts/factory-airline.sol\":1206:1222  data[msg.sender] */\n      0xffffffffffffffffffffffffffffffffffffffff\n      and\n      0xffffffffffffffffffffffffffffffffffffffff\n      and\n      dup2\n      mstore\n      0x20\n      add\n      swap1\n      dup2\n      mstore\n      0x20\n      add\n      0x00\n      keccak256\n        /* \"contracts/factory-airline.sol\":1206:1230  data[msg.sender].confrim */\n      0x05\n      add\n      0x01\n      swap1\n      sload\n      swap1\n      0x0100\n      exp\n      swap1\n      div\n      0xff\n      and\n        /* \"contracts/factory-airline.sol\":1205:1230  !data[msg.sender].confrim */\n      iszero\n        /* \"contracts/factory-airline.sol\":1197:1266  require(!data[msg.sender].confrim,\"You have already paid the amount\") */\n      tag_18\n      jumpi\n      mload(0x40)\n      0x08c379a000000000000000000000000000000000000000000000000000000000\n      dup2\n      mstore\n      0x04\n      add\n      tag_19\n      swap1\n      tag_20\n      jump\t// in\n    tag_19:\n      mload(0x40)\n      dup1\n      swap2\n      sub\n      swap1\n      revert\n    tag_18:\n        /* \"contracts/factory-airline.sol\":1298:1302  data */\n      0x08\n        /* \"contracts/factory-airline.sol\":1298:1314  data[msg.sender] */\n      0x00\n        /* \"contracts/factory-airline.sol\":1303:1313  msg.sender */\n      caller\n        /* \"contracts/factory-airline.sol\":1298:1314  data[msg.sender] */\n      0xffffffffffffffffffffffffffffffffffffffff\n      and\n      0xffffffffffffffffffffffffffffffffffffffff\n      and\n      dup2\n      mstore\n      0x20\n      add\n      swap1\n      dup2\n      mstore\n      0x20\n      add\n      0x00\n      keccak256\n        /* \"contracts/factory-airline.sol\":1298:1319  data[msg.sender].cost */\n      0x04\n      add\n      sload\n        /* \"contracts/factory-airline.sol\":1285:1294  msg.value */\n      callvalue\n        /* \"contracts/factory-airline.sol\":1285:1319  msg.value == data[msg.sender].cost */\n      eq\n        /* \"contracts/factory-airline.sol\":1277:1346  require(msg.value == data[msg.sender].cost,\"payment is not balanced\") */\n      tag_21\n      jumpi\n      mload(0x40)\n      0x08c379a000000000000000000000000000000000000000000000000000000000\n      dup2\n      mstore\n      0x04\n      add\n      tag_22\n      swap1\n      tag_23\n      jump\t// in\n    tag_22:\n      mload(0x40)\n      dup1\n      swap2\n      sub\n      swap1\n      revert\n    tag_21:\n        /* \"contracts/factory-airline.sol\":1357:1385  data[msg.sender].ticket = '' */\n      mload(0x40)\n      dup1\n      0x20\n      add\n      0x40\n      mstore\n      dup1\n      0x00\n      dup2\n      mstore\n      pop\n        /* \"contracts/factory-airline.sol\":1357:1361  data */\n      0x08\n        /* \"contracts/factory-airline.sol\":1357:1373  data[msg.sender] */\n      0x00\n        /* \"contracts/factory-airline.sol\":1362:1372  msg.sender */\n      caller\n        /* \"contracts/factory-airline.sol\":1357:1373  data[msg.sender] */\n      0xffffffffffffffffffffffffffffffffffffffff\n      and\n      0xffffffffffffffffffffffffffffffffffffffff\n      and\n      dup2\n      mstore\n      0x20\n      add\n      swap1\n      dup2\n      mstore\n      0x20\n      add\n      0x00\n      keccak256\n        /* \"contracts/factory-airline.sol\":1357:1380  data[msg.sender].ticket */\n      0x03\n      add\n        /* \"contracts/factory-airline.sol\":1357:1385  data[msg.sender].ticket = '' */\n      swap1\n      dup1\n      mload\n      swap1\n      0x20\n      add\n      swap1\n      tag_24\n      swap3\n      swap2\n      swap1\n      tag_25\n      jump\t// in\n    tag_24:\n      pop\n        /* \"contracts/factory-airline.sol\":1423:1427  true */\n      0x01\n        /* \"contracts/factory-airline.sol\":1396:1400  data */\n      0x08\n        /* \"contracts/factory-airline.sol\":1396:1412  data[msg.sender] */\n      0x00\n        /* \"contracts/factory-airline.sol\":1401:1411  msg.sender */\n      caller\n        /* \"contracts/factory-airline.sol\":1396:1412  data[msg.sender] */\n      0xffffffffffffffffffffffffffffffffffffffff\n      and\n      0xffffffffffffffffffffffffffffffffffffffff\n      and\n      dup2\n      mstore\n      0x20\n      add\n      swap1\n      dup2\n      mstore\n      0x20\n      add\n      0x00\n      keccak256\n        /* \"contracts/factory-airline.sol\":1396:1420  data[msg.sender].confrim */\n      0x05\n      add\n      0x01\n        /* \"contracts/factory-airline.sol\":1396:1427  data[msg.sender].confrim = true */\n      0x0100\n      exp\n      dup2\n      sload\n      dup2\n      0xff\n      mul\n      not\n      and\n      swap1\n      dup4\n      iszero\n      iszero\n      mul\n      or\n      swap1\n      sstore\n      pop\n        /* \"contracts/factory-airline.sol\":1462:1463  0 */\n      0x00\n        /* \"contracts/factory-airline.sol\":1438:1442  data */\n      0x08\n        /* \"contracts/factory-airline.sol\":1438:1454  data[msg.sender] */\n      0x00\n        /* \"contracts/factory-airline.sol\":1443:1453  msg.sender */\n      caller\n        /* \"contracts/factory-airline.sol\":1438:1454  data[msg.sender] */\n      0xffffffffffffffffffffffffffffffffffffffff\n      and\n      0xffffffffffffffffffffffffffffffffffffffff\n      and\n      dup2\n      mstore\n      0x20\n      add\n      swap1\n      dup2\n      mstore\n      0x20\n      add\n      0x00\n      keccak256\n        /* \"contracts/factory-airline.sol\":1438:1459  data[msg.sender].cost */\n      0x04\n      add\n        /* \"contracts/factory-airline.sol\":1438:1463  data[msg.sender].cost = 0 */\n      dup2\n      swap1\n      sstore\n      pop\n        /* \"contracts/factory-airline.sol\":1500:1505  false */\n      0x00\n        /* \"contracts/factory-airline.sol\":1474:1478  data */\n      0x08\n        /* \"contracts/factory-airline.sol\":1474:1490  data[msg.sender] */\n      0x00\n        /* \"contracts/factory-airline.sol\":1479:1489  msg.sender */\n      caller\n        /* \"contracts/factory-airline.sol\":1474:1490  data[msg.sender] */\n      0xffffffffffffffffffffffffffffffffffffffff\n      and\n      0xffffffffffffffffffffffffffffffffffffffff\n      and\n      dup2\n      mstore\n      0x20\n      add\n      swap1\n      dup2\n      mstore\n      0x20\n      add\n      0x00\n      keccak256\n        /* \"contracts/factory-airline.sol\":1474:1497  data[msg.sender].booked */\n      0x05\n      add\n      0x00\n        /* \"contracts/factory-airline.sol\":1474:1505  data[msg.sender].booked = false */\n      0x0100\n      exp\n      dup2\n      sload\n      dup2\n      0xff\n      mul\n      not\n      and\n      swap1\n      dup4\n      iszero\n      iszero\n      mul\n      or\n      swap1\n      sstore\n      pop\n        /* \"contracts/factory-airline.sol\":1547:1551  true */\n      0x01\n        /* \"contracts/factory-airline.sol\":1519:1551  data[msg.sender].confrim == true */\n      iszero\n      iszero\n        /* \"contracts/factory-airline.sol\":1519:1523  data */\n      0x08\n        /* \"contracts/factory-airline.sol\":1519:1535  data[msg.sender] */\n      0x00\n        /* \"contracts/factory-airline.sol\":1524:1534  msg.sender */\n      caller\n        /* \"contracts/factory-airline.sol\":1519:1535  data[msg.sender] */\n      0xffffffffffffffffffffffffffffffffffffffff\n      and\n      0xffffffffffffffffffffffffffffffffffffffff\n      and\n      dup2\n      mstore\n      0x20\n      add\n      swap1\n      dup2\n      mstore\n      0x20\n      add\n      0x00\n      keccak256\n        /* \"contracts/factory-airline.sol\":1519:1543  data[msg.sender].confrim */\n      0x05\n      add\n      0x01\n      swap1\n      sload\n      swap1\n      0x0100\n      exp\n      swap1\n      div\n      0xff\n      and\n        /* \"contracts/factory-airline.sol\":1519:1551  data[msg.sender].confrim == true */\n      iszero\n      iszero\n      eq\n        /* \"contracts/factory-airline.sol\":1516:1664  if(data[msg.sender].confrim == true){\r... */\n      iszero\n      tag_26\n      jumpi\n        /* \"contracts/factory-airline.sol\":1567:1571  data */\n      0x08\n        /* \"contracts/factory-airline.sol\":1567:1583  data[msg.sender] */\n      0x00\n        /* \"contracts/factory-airline.sol\":1572:1582  msg.sender */\n      caller\n        /* \"contracts/factory-airline.sol\":1567:1583  data[msg.sender] */\n      0xffffffffffffffffffffffffffffffffffffffff\n      and\n      0xffffffffffffffffffffffffffffffffffffffff\n      and\n      dup2\n      mstore\n      0x20\n      add\n      swap1\n      dup2\n      mstore\n      0x20\n      add\n      0x00\n      keccak256\n        /* \"contracts/factory-airline.sol\":1567:1603  data[msg.sender].numberOfTicketsPaid */\n      0x06\n      add\n      0x00\n        /* \"contracts/factory-airline.sol\":1567:1605  data[msg.sender].numberOfTicketsPaid++ */\n      dup2\n      sload\n      dup1\n      swap3\n      swap2\n      swap1\n      tag_27\n      swap1\n      tag_28\n      jump\t// in\n    tag_27:\n      swap2\n      swap1\n      pop\n      sstore\n      pop\n        /* \"contracts/factory-airline.sol\":1647:1652  false */\n      0x00\n        /* \"contracts/factory-airline.sol\":1620:1624  data */\n      0x08\n        /* \"contracts/factory-airline.sol\":1620:1636  data[msg.sender] */\n      0x00\n        /* \"contracts/factory-airline.sol\":1625:1635  msg.sender */\n      caller\n        /* \"contracts/factory-airline.sol\":1620:1636  data[msg.sender] */\n      0xffffffffffffffffffffffffffffffffffffffff\n      and\n      0xffffffffffffffffffffffffffffffffffffffff\n      and\n      dup2\n      mstore\n      0x20\n      add\n      swap1\n      dup2\n      mstore\n      0x20\n      add\n      0x00\n      keccak256\n        /* \"contracts/factory-airline.sol\":1620:1644  data[msg.sender].confrim */\n      0x05\n      add\n      0x01\n        /* \"contracts/factory-airline.sol\":1620:1652  data[msg.sender].confrim = false */\n      0x0100\n      exp\n      dup2\n      sload\n      dup2\n      0xff\n      mul\n      not\n      and\n      swap1\n      dup4\n      iszero\n      iszero\n      mul\n      or\n      swap1\n      sstore\n      pop\n        /* \"contracts/factory-airline.sol\":1516:1664  if(data[msg.sender].confrim == true){\r... */\n    tag_26:\n        /* \"contracts/factory-airline.sol\":72:3829  contract AirlineTicketsManagement {\r... */\n      stop\n    tag_2:\n      0x00\n      dup1\n      revert\n        /* \"contracts/factory-airline.sol\":1688:1792  function getBalance() public view onlyOwner returns(uint){\r... */\n    tag_3:\n      callvalue\n      dup1\n      iszero\n      tag_29\n      jumpi\n      0x00\n      dup1\n      revert\n    tag_29:\n      pop\n      tag_30\n      tag_31\n      jump\t// in\n    tag_30:\n      mload(0x40)\n      tag_32\n      swap2\n      swap1\n      tag_33\n      jump\t// in\n    tag_32:\n      mload(0x40)\n      dup1\n      swap2\n      sub\n      swap1\n      return\n        /* \"contracts/factory-airline.sol\":1796:2053  function setData(string memory _name, string memory _des) public {\r... */\n    tag_4:\n      callvalue\n      dup1\n      iszero\n      tag_34\n      jumpi\n      0x00\n      dup1\n      revert\n    tag_34:\n      pop\n      tag_35\n      0x04\n      dup1\n      calldatasize\n      sub\n      dup2\n      add\n      swap1\n      tag_36\n      swap2\n      swap1\n      tag_37\n      jump\t// in\n    tag_36:\n      tag_38\n      jump\t// in\n    tag_35:\n      stop\n        /* \"contracts/factory-airline.sol\":302:322  address public owner */\n    tag_5:\n      callvalue\n      dup1\n      iszero\n      tag_39\n      jumpi\n      0x00\n      dup1\n      revert\n    tag_39:\n      pop\n      tag_40\n      tag_41\n      jump\t// in\n    tag_40:\n      mload(0x40)\n      tag_42\n      swap2\n      swap1\n      tag_43\n      jump\t// in\n    tag_42:\n      mload(0x40)\n      dup1\n      swap2\n      sub\n      swap1\n      return\n        /* \"contracts/factory-airline.sol\":2876:3351  function ECONOMY_CLASS() public {\r... */\n    tag_6:\n      callvalue\n      dup1\n      iszero\n      tag_44\n      jumpi\n      0x00\n      dup1\n      revert\n    tag_44:\n      pop\n      tag_45\n      tag_46\n      jump\t// in\n    tag_45:\n      stop\n        /* \"contracts/factory-airline.sol\":2332:2412  function removeUser(address _user) public onlyOwner{\r... */\n    tag_7:\n      callvalue\n      dup1\n      iszero\n      tag_47\n      jumpi\n      0x00\n      dup1\n      revert\n    tag_47:\n      pop\n      tag_48\n      0x04\n      dup1\n      calldatasize\n      sub\n      dup2\n      add\n      swap1\n      tag_49\n      swap2\n      swap1\n      tag_50\n      jump\t// in\n    tag_49:\n      tag_51\n      jump\t// in\n    tag_48:\n      stop\n        /* \"contracts/factory-airline.sol\":3358:3826  function Business_CLASS() public {\r... */\n    tag_8:\n      callvalue\n      dup1\n      iszero\n      tag_52\n      jumpi\n      0x00\n      dup1\n      revert\n    tag_52:\n      pop\n      tag_53\n      tag_54\n      jump\t// in\n    tag_53:\n      stop\n        /* \"contracts/factory-airline.sol\":551:588  mapping (address => User) public data */\n    tag_9:\n      callvalue\n      dup1\n      iszero\n      tag_55\n      jumpi\n      0x00\n      dup1\n      revert\n    tag_55:\n      pop\n      tag_56\n      0x04\n      dup1\n      calldatasize\n      sub\n      dup2\n      add\n      swap1\n      tag_57\n      swap2\n      swap1\n      tag_50\n      jump\t// in\n    tag_57:\n      tag_58\n      jump\t// in\n    tag_56:\n      mload(0x40)\n      tag_59\n      swap9\n      swap8\n      swap7\n      swap6\n      swap5\n      swap4\n      swap3\n      swap2\n      swap1\n      tag_60\n      jump\t// in\n    tag_59:\n      mload(0x40)\n      dup1\n      swap2\n      sub\n      swap1\n      return\n        /* \"contracts/factory-airline.sol\":2416:2870  function FIRST_CLASS() public {\r... */\n    tag_10:\n      callvalue\n      dup1\n      iszero\n      tag_61\n      jumpi\n      0x00\n      dup1\n      revert\n    tag_61:\n      pop\n      tag_62\n      tag_63\n      jump\t// in\n    tag_62:\n      stop\n        /* \"contracts/factory-airline.sol\":2057:2328  function addUser(address _user,string memory _name, string memory _des) public onlyOwner {\r... */\n    tag_11:\n      callvalue\n      dup1\n      iszero\n      tag_64\n      jumpi\n      0x00\n      dup1\n      revert\n    tag_64:\n      pop\n      tag_65\n      0x04\n      dup1\n      calldatasize\n      sub\n      dup2\n      add\n      swap1\n      tag_66\n      swap2\n      swap1\n      tag_67\n      jump\t// in\n    tag_66:\n      tag_68\n      jump\t// in\n    tag_65:\n      stop\n        /* \"contracts/factory-airline.sol\":1688:1792  function getBalance() public view onlyOwner returns(uint){\r... */\n    tag_31:\n        /* \"contracts/factory-airline.sol\":1740:1744  uint */\n      0x00\n        /* \"contracts/factory-airline.sol\":892:897  owner */\n      0x07\n      0x00\n      swap1\n      sload\n      swap1\n      0x0100\n      exp\n      swap1\n      div\n      0xffffffffffffffffffffffffffffffffffffffff\n      and\n        /* \"contracts/factory-airline.sol\":878:897  msg.sender == owner */\n      0xffffffffffffffffffffffffffffffffffffffff\n      and\n        /* \"contracts/factory-airline.sol\":878:888  msg.sender */\n      caller\n        /* \"contracts/factory-airline.sol\":878:897  msg.sender == owner */\n      0xffffffffffffffffffffffffffffffffffffffff\n      and\n      eq\n        /* \"contracts/factory-airline.sol\":870:931  require(msg.sender == owner,\"you are not allowed to do that\") */\n      tag_70\n      jumpi\n      mload(0x40)\n      0x08c379a000000000000000000000000000000000000000000000000000000000\n      dup2\n      mstore\n      0x04\n      add\n      tag_71\n      swap1\n      tag_72\n      jump\t// in\n    tag_71:\n      mload(0x40)\n      dup1\n      swap2\n      sub\n      swap1\n      revert\n    tag_70:\n        /* \"contracts/factory-airline.sol\":1763:1784  address(this).balance */\n      selfbalance\n        /* \"contracts/factory-airline.sol\":1756:1784  return address(this).balance */\n      swap1\n      pop\n        /* \"contracts/factory-airline.sol\":1688:1792  function getBalance() public view onlyOwner returns(uint){\r... */\n      swap1\n      jump\t// out\n        /* \"contracts/factory-airline.sol\":1796:2053  function setData(string memory _name, string memory _des) public {\r... */\n    tag_38:\n        /* \"contracts/factory-airline.sol\":1890:1894  data */\n      0x08\n        /* \"contracts/factory-airline.sol\":1890:1906  data[msg.sender] */\n      0x00\n        /* \"contracts/factory-airline.sol\":1895:1905  msg.sender */\n      caller\n        /* \"contracts/factory-airline.sol\":1890:1906  data[msg.sender] */\n      0xffffffffffffffffffffffffffffffffffffffff\n      and\n      0xffffffffffffffffffffffffffffffffffffffff\n      and\n      dup2\n      mstore\n      0x20\n      add\n      swap1\n      dup2\n      mstore\n      0x20\n      add\n      0x00\n      keccak256\n        /* \"contracts/factory-airline.sol\":1890:1914  data[msg.sender].pass_id */\n      0x02\n      add\n      0x00\n      swap1\n      sload\n      swap1\n      0x0100\n      exp\n      swap1\n      div\n      0xffffffffffffffffffffffffffffffffffffffff\n      and\n        /* \"contracts/factory-airline.sol\":1876:1914  msg.sender != data[msg.sender].pass_id */\n      0xffffffffffffffffffffffffffffffffffffffff\n      and\n        /* \"contracts/factory-airline.sol\":1876:1886  msg.sender */\n      caller\n        /* \"contracts/factory-airline.sol\":1876:1914  msg.sender != data[msg.sender].pass_id */\n      0xffffffffffffffffffffffffffffffffffffffff\n      and\n      eq\n      iszero\n        /* \"contracts/factory-airline.sol\":1868:1944  require(msg.sender != data[msg.sender].pass_id,\"You are already registered\") */\n      tag_75\n      jumpi\n      mload(0x40)\n      0x08c379a000000000000000000000000000000000000000000000000000000000\n      dup2\n      mstore\n      0x04\n      add\n      tag_76\n      swap1\n      tag_77\n      jump\t// in\n    tag_76:\n      mload(0x40)\n      dup1\n      swap2\n      sub\n      swap1\n      revert\n    tag_75:\n        /* \"contracts/factory-airline.sol\":1970:2049  User(_name,_des,msg.sender,_ticket,_cost,_booked,_confrim,_numberOfTicketsPaid) */\n      mload(0x40)\n      dup1\n      0x0100\n      add\n      0x40\n      mstore\n      dup1\n        /* \"contracts/factory-airline.sol\":1975:1980  _name */\n      dup4\n        /* \"contracts/factory-airline.sol\":1970:2049  User(_name,_des,msg.sender,_ticket,_cost,_booked,_confrim,_numberOfTicketsPaid) */\n      dup2\n      mstore\n      0x20\n      add\n        /* \"contracts/factory-airline.sol\":1981:1985  _des */\n      dup3\n        /* \"contracts/factory-airline.sol\":1970:2049  User(_name,_des,msg.sender,_ticket,_cost,_booked,_confrim,_numberOfTicketsPaid) */\n      dup2\n      mstore\n      0x20\n      add\n        /* \"contracts/factory-airline.sol\":1986:1996  msg.sender */\n      caller\n        /* \"contracts/factory-airline.sol\":1970:2049  User(_name,_des,msg.sender,_ticket,_cost,_booked,_confrim,_numberOfTicketsPaid) */\n      0xffffffffffffffffffffffffffffffffffffffff\n      and\n      dup2\n      mstore\n      0x20\n      add\n        /* \"contracts/factory-airline.sol\":1997:2004  _ticket */\n      0x03\n        /* \"contracts/factory-airline.sol\":1970:2049  User(_name,_des,msg.sender,_ticket,_cost,_booked,_confrim,_numberOfTicketsPaid) */\n      dup1\n      sload\n      tag_78\n      swap1\n      tag_79\n      jump\t// in\n    tag_78:\n      dup1\n      0x1f\n      add\n      0x20\n      dup1\n      swap2\n      div\n      mul\n      0x20\n      add\n      mload(0x40)\n      swap1\n      dup2\n      add\n      0x40\n      mstore\n      dup1\n      swap3\n      swap2\n      swap1\n      dup2\n      dup2\n      mstore\n      0x20\n      add\n      dup3\n      dup1\n      sload\n      tag_80\n      swap1\n      tag_79\n      jump\t// in\n    tag_80:\n      dup1\n      iszero\n      tag_81\n      jumpi\n      dup1\n      0x1f\n      lt\n      tag_82\n      jumpi\n      0x0100\n      dup1\n      dup4\n      sload\n      div\n      mul\n      dup4\n      mstore\n      swap2\n      0x20\n      add\n      swap2\n      jump(tag_81)\n    tag_82:\n      dup3\n      add\n      swap2\n      swap1\n      0x00\n      mstore\n      keccak256(0x00, 0x20)\n      swap1\n    tag_83:\n      dup2\n      sload\n      dup2\n      mstore\n      swap1\n      0x01\n      add\n      swap1\n      0x20\n      add\n      dup1\n      dup4\n      gt\n      tag_83\n      jumpi\n      dup3\n      swap1\n      sub\n      0x1f\n      and\n      dup3\n      add\n      swap2\n    tag_81:\n      pop\n      pop\n      pop\n      pop\n      pop\n      dup2\n      mstore\n      0x20\n      add\n        /* \"contracts/factory-airline.sol\":2005:2010  _cost */\n      sload(0x04)\n        /* \"contracts/factory-airline.sol\":1970:2049  User(_name,_des,msg.sender,_ticket,_cost,_booked,_confrim,_numberOfTicketsPaid) */\n      dup2\n      mstore\n      0x20\n      add\n        /* \"contracts/factory-airline.sol\":2011:2018  _booked */\n      0x05\n      0x00\n      swap1\n      sload\n      swap1\n      0x0100\n      exp\n      swap1\n      div\n      0xff\n      and\n        /* \"contracts/factory-airline.sol\":1970:2049  User(_name,_des,msg.sender,_ticket,_cost,_booked,_confrim,_numberOfTicketsPaid) */\n      iszero\n      iszero\n      dup2\n      mstore\n      0x20\n      add\n        /* \"contracts/factory-airline.sol\":2019:2027  _confrim */\n      0x05\n      0x01\n      swap1\n      sload\n      swap1\n      0x0100\n      exp\n      swap1\n      div\n      0xff\n      and\n        /* \"contracts/factory-airline.sol\":1970:2049  User(_name,_des,msg.sender,_ticket,_cost,_booked,_confrim,_numberOfTicketsPaid) */\n      iszero\n      iszero\n      dup2\n      mstore\n      0x20\n      add\n        /* \"contracts/factory-airline.sol\":2028:2048  _numberOfTicketsPaid */\n      sload(0x06)\n        /* \"contracts/factory-airline.sol\":1970:2049  User(_name,_des,msg.sender,_ticket,_cost,_booked,_confrim,_numberOfTicketsPaid) */\n      dup2\n      mstore\n      pop\n        /* \"contracts/factory-airline.sol\":1951:1955  data */\n      0x08\n        /* \"contracts/factory-airline.sol\":1951:1967  data[msg.sender] */\n      0x00\n        /* \"contracts/factory-airline.sol\":1956:1966  msg.sender */\n      caller\n        /* \"contracts/factory-airline.sol\":1951:1967  data[msg.sender] */\n      0xffffffffffffffffffffffffffffffffffffffff\n      and\n      0xffffffffffffffffffffffffffffffffffffffff\n      and\n      dup2\n      mstore\n      0x20\n      add\n      swap1\n      dup2\n      mstore\n      0x20\n      add\n      0x00\n      keccak256\n        /* \"contracts/factory-airline.sol\":1951:2049  data[msg.sender] = User(_name,_des,msg.sender,_ticket,_cost,_booked,_confrim,_numberOfTicketsPaid) */\n      0x00\n      dup3\n      add\n      mload\n      dup2\n      0x00\n      add\n      swap1\n      dup1\n      mload\n      swap1\n      0x20\n      add\n      swap1\n      tag_84\n      swap3\n      swap2\n      swap1\n      tag_25\n      jump\t// in\n    tag_84:\n      pop\n      0x20\n      dup3\n      add\n      mload\n      dup2\n      0x01\n      add\n      swap1\n      dup1\n      mload\n      swap1\n      0x20\n      add\n      swap1\n      tag_85\n      swap3\n      swap2\n      swap1\n      tag_25\n      jump\t// in\n    tag_85:\n      pop\n      0x40\n      dup3\n      add\n      mload\n      dup2\n      0x02\n      add\n      exp(0x0100, 0x00)\n      dup2\n      sload\n      dup2\n      0xffffffffffffffffffffffffffffffffffffffff\n      mul\n      not\n      and\n      swap1\n      dup4\n      0xffffffffffffffffffffffffffffffffffffffff\n      and\n      mul\n      or\n      swap1\n      sstore\n      pop\n      0x60\n      dup3\n      add\n      mload\n      dup2\n      0x03\n      add\n      swap1\n      dup1\n      mload\n      swap1\n      0x20\n      add\n      swap1\n      tag_86\n      swap3\n      swap2\n      swap1\n      tag_25\n      jump\t// in\n    tag_86:\n      pop\n      0x80\n      dup3\n      add\n      mload\n      dup2\n      0x04\n      add\n      sstore\n      0xa0\n      dup3\n      add\n      mload\n      dup2\n      0x05\n      add\n      exp(0x0100, 0x00)\n      dup2\n      sload\n      dup2\n      0xff\n      mul\n      not\n      and\n      swap1\n      dup4\n      iszero\n      iszero\n      mul\n      or\n      swap1\n      sstore\n      pop\n      0xc0\n      dup3\n      add\n      mload\n      dup2\n      0x05\n      add\n      exp(0x0100, 0x01)\n      dup2\n      sload\n      dup2\n      0xff\n      mul\n      not\n      and\n      swap1\n      dup4\n      iszero\n      iszero\n      mul\n      or\n      swap1\n      sstore\n      pop\n      0xe0\n      dup3\n      add\n      mload\n      dup2\n      0x06\n      add\n      sstore\n      swap1\n      pop\n      pop\n        /* \"contracts/factory-airline.sol\":1796:2053  function setData(string memory _name, string memory _des) public {\r... */\n      pop\n      pop\n      jump\t// out\n        /* \"contracts/factory-airline.sol\":302:322  address public owner */\n    tag_41:\n      0x07\n      0x00\n      swap1\n      sload\n      swap1\n      0x0100\n      exp\n      swap1\n      div\n      0xffffffffffffffffffffffffffffffffffffffff\n      and\n      dup2\n      jump\t// out\n        /* \"contracts/factory-airline.sol\":2876:3351  function ECONOMY_CLASS() public {\r... */\n    tag_46:\n        /* \"contracts/factory-airline.sol\":2943:2947  data */\n      0x08\n        /* \"contracts/factory-airline.sol\":2943:2959  data[msg.sender] */\n      0x00\n        /* \"contracts/factory-airline.sol\":2948:2958  msg.sender */\n      caller\n        /* \"contracts/factory-airline.sol\":2943:2959  data[msg.sender] */\n      0xffffffffffffffffffffffffffffffffffffffff\n      and\n      0xffffffffffffffffffffffffffffffffffffffff\n      and\n      dup2\n      mstore\n      0x20\n      add\n      swap1\n      dup2\n      mstore\n      0x20\n      add\n      0x00\n      keccak256\n        /* \"contracts/factory-airline.sol\":2943:2967  data[msg.sender].pass_id */\n      0x02\n      add\n      0x00\n      swap1\n      sload\n      swap1\n      0x0100\n      exp\n      swap1\n      div\n      0xffffffffffffffffffffffffffffffffffffffff\n      and\n        /* \"contracts/factory-airline.sol\":2929:2967  msg.sender == data[msg.sender].pass_id */\n      0xffffffffffffffffffffffffffffffffffffffff\n      and\n        /* \"contracts/factory-airline.sol\":2929:2939  msg.sender */\n      caller\n        /* \"contracts/factory-airline.sol\":2929:2967  msg.sender == data[msg.sender].pass_id */\n      0xffffffffffffffffffffffffffffffffffffffff\n      and\n      eq\n        /* \"contracts/factory-airline.sol\":2921:2993  require(msg.sender == data[msg.sender].pass_id,\"You are not registered\") */\n      tag_88\n      jumpi\n      mload(0x40)\n      0x08c379a000000000000000000000000000000000000000000000000000000000\n      dup2\n      mstore\n      0x04\n      add\n      tag_89\n      swap1\n      tag_17\n      jump\t// in\n    tag_89:\n      mload(0x40)\n      dup1\n      swap2\n      sub\n      swap1\n      revert\n    tag_88:\n        /* \"contracts/factory-airline.sol\":3013:3017  data */\n      0x08\n        /* \"contracts/factory-airline.sol\":3013:3029  data[msg.sender] */\n      0x00\n        /* \"contracts/factory-airline.sol\":3018:3028  msg.sender */\n      caller\n        /* \"contracts/factory-airline.sol\":3013:3029  data[msg.sender] */\n      0xffffffffffffffffffffffffffffffffffffffff\n      and\n      0xffffffffffffffffffffffffffffffffffffffff\n      and\n      dup2\n      mstore\n      0x20\n      add\n      swap1\n      dup2\n      mstore\n      0x20\n      add\n      0x00\n      keccak256\n        /* \"contracts/factory-airline.sol\":3013:3036  data[msg.sender].booked */\n      0x05\n      add\n      0x00\n      swap1\n      sload\n      swap1\n      0x0100\n      exp\n      swap1\n      div\n      0xff\n      and\n        /* \"contracts/factory-airline.sol\":3012:3036  !data[msg.sender].booked */\n      iszero\n        /* \"contracts/factory-airline.sol\":3004:3070  require(!data[msg.sender].booked, \"you have already book a class\") */\n      tag_90\n      jumpi\n      mload(0x40)\n      0x08c379a000000000000000000000000000000000000000000000000000000000\n      dup2\n      mstore\n      0x04\n      add\n      tag_91\n      swap1\n      tag_92\n      jump\t// in\n    tag_91:\n      mload(0x40)\n      dup1\n      swap2\n      sub\n      swap1\n      revert\n    tag_90:\n        /* \"contracts/factory-airline.sol\":3088:3112  classTypes.ECONOMY_CLASS */\n      0x01\n        /* \"contracts/factory-airline.sol\":3084:3086  u1 */\n      0x09\n      0x00\n        /* \"contracts/factory-airline.sol\":3084:3112  u1= classTypes.ECONOMY_CLASS */\n      0x0100\n      exp\n      dup2\n      sload\n      dup2\n      0xff\n      mul\n      not\n      and\n      swap1\n      dup4\n      0x02\n      dup2\n      gt\n      iszero\n      tag_93\n      jumpi\n      tag_94\n      tag_95\n      jump\t// in\n    tag_94:\n    tag_93:\n      mul\n      or\n      swap1\n      sstore\n      pop\n        /* \"contracts/factory-airline.sol\":3149:3150  1 */\n      0x01\n        /* \"contracts/factory-airline.sol\":3144:3146  u1 */\n      0x09\n      0x00\n      swap1\n      sload\n      swap1\n      0x0100\n      exp\n      swap1\n      div\n      0xff\n      and\n        /* \"contracts/factory-airline.sol\":3139:3147  uint(u1) */\n      0x02\n      dup2\n      gt\n      iszero\n      tag_96\n      jumpi\n      tag_97\n      tag_95\n      jump\t// in\n    tag_97:\n    tag_96:\n        /* \"contracts/factory-airline.sol\":3139:3150  uint(u1)==1 */\n      eq\n        /* \"contracts/factory-airline.sol\":3136:3344  if(uint(u1)==1){\r... */\n      iszero\n      tag_98\n      jumpi\n        /* \"contracts/factory-airline.sol\":3170:3211  data[msg.sender].ticket = \"Economy Class\" */\n      mload(0x40)\n      dup1\n      0x40\n      add\n      0x40\n      mstore\n      dup1\n      0x0d\n      dup2\n      mstore\n      0x20\n      add\n      0x45636f6e6f6d7920436c61737300000000000000000000000000000000000000\n      dup2\n      mstore\n      pop\n        /* \"contracts/factory-airline.sol\":3170:3174  data */\n      0x08\n        /* \"contracts/factory-airline.sol\":3170:3186  data[msg.sender] */\n      0x00\n        /* \"contracts/factory-airline.sol\":3175:3185  msg.sender */\n      caller\n        /* \"contracts/factory-airline.sol\":3170:3186  data[msg.sender] */\n      0xffffffffffffffffffffffffffffffffffffffff\n      and\n      0xffffffffffffffffffffffffffffffffffffffff\n      and\n      dup2\n      mstore\n      0x20\n      add\n      swap1\n      dup2\n      mstore\n      0x20\n      add\n      0x00\n      keccak256\n        /* \"contracts/factory-airline.sol\":3170:3193  data[msg.sender].ticket */\n      0x03\n      add\n        /* \"contracts/factory-airline.sol\":3170:3211  data[msg.sender].ticket = \"Economy Class\" */\n      swap1\n      dup1\n      mload\n      swap1\n      0x20\n      add\n      swap1\n      tag_99\n      swap3\n      swap2\n      swap1\n      tag_25\n      jump\t// in\n    tag_99:\n      pop\n        /* \"contracts/factory-airline.sol\":3255:3262  economy */\n      sload(0x00)\n        /* \"contracts/factory-airline.sol\":3231:3235  data */\n      0x08\n        /* \"contracts/factory-airline.sol\":3231:3247  data[msg.sender] */\n      0x00\n        /* \"contracts/factory-airline.sol\":3236:3246  msg.sender */\n      caller\n        /* \"contracts/factory-airline.sol\":3231:3247  data[msg.sender] */\n      0xffffffffffffffffffffffffffffffffffffffff\n      and\n      0xffffffffffffffffffffffffffffffffffffffff\n      and\n      dup2\n      mstore\n      0x20\n      add\n      swap1\n      dup2\n      mstore\n      0x20\n      add\n      0x00\n      keccak256\n        /* \"contracts/factory-airline.sol\":3231:3252  data[msg.sender].cost */\n      0x04\n      add\n        /* \"contracts/factory-airline.sol\":3231:3262  data[msg.sender].cost = economy */\n      dup2\n      swap1\n      sstore\n      pop\n        /* \"contracts/factory-airline.sol\":3308:3312  true */\n      0x01\n        /* \"contracts/factory-airline.sol\":3282:3286  data */\n      0x08\n        /* \"contracts/factory-airline.sol\":3282:3298  data[msg.sender] */\n      0x00\n        /* \"contracts/factory-airline.sol\":3287:3297  msg.sender */\n      caller\n        /* \"contracts/factory-airline.sol\":3282:3298  data[msg.sender] */\n      0xffffffffffffffffffffffffffffffffffffffff\n      and\n      0xffffffffffffffffffffffffffffffffffffffff\n      and\n      dup2\n      mstore\n      0x20\n      add\n      swap1\n      dup2\n      mstore\n      0x20\n      add\n      0x00\n      keccak256\n        /* \"contracts/factory-airline.sol\":3282:3305  data[msg.sender].booked */\n      0x05\n      add\n      0x00\n        /* \"contracts/factory-airline.sol\":3282:3312  data[msg.sender].booked = true */\n      0x0100\n      exp\n      dup2\n      sload\n      dup2\n      0xff\n      mul\n      not\n      and\n      swap1\n      dup4\n      iszero\n      iszero\n      mul\n      or\n      swap1\n      sstore\n      pop\n        /* \"contracts/factory-airline.sol\":3136:3344  if(uint(u1)==1){\r... */\n    tag_98:\n        /* \"contracts/factory-airline.sol\":2876:3351  function ECONOMY_CLASS() public {\r... */\n      jump\t// out\n        /* \"contracts/factory-airline.sol\":2332:2412  function removeUser(address _user) public onlyOwner{\r... */\n    tag_51:\n        /* \"contracts/factory-airline.sol\":892:897  owner */\n      0x07\n      0x00\n      swap1\n      sload\n      swap1\n      0x0100\n      exp\n      swap1\n      div\n      0xffffffffffffffffffffffffffffffffffffffff\n      and\n        /* \"contracts/factory-airline.sol\":878:897  msg.sender == owner */\n      0xffffffffffffffffffffffffffffffffffffffff\n      and\n        /* \"contracts/factory-airline.sol\":878:888  msg.sender */\n      caller\n        /* \"contracts/factory-airline.sol\":878:897  msg.sender == owner */\n      0xffffffffffffffffffffffffffffffffffffffff\n      and\n      eq\n        /* \"contracts/factory-airline.sol\":870:931  require(msg.sender == owner,\"you are not allowed to do that\") */\n      tag_101\n      jumpi\n      mload(0x40)\n      0x08c379a000000000000000000000000000000000000000000000000000000000\n      dup2\n      mstore\n      0x04\n      add\n      tag_102\n      swap1\n      tag_72\n      jump\t// in\n    tag_102:\n      mload(0x40)\n      dup1\n      swap2\n      sub\n      swap1\n      revert\n    tag_101:\n        /* \"contracts/factory-airline.sol\":2397:2401  data */\n      0x08\n        /* \"contracts/factory-airline.sol\":2397:2408  data[_user] */\n      0x00\n        /* \"contracts/factory-airline.sol\":2402:2407  _user */\n      dup3\n        /* \"contracts/factory-airline.sol\":2397:2408  data[_user] */\n      0xffffffffffffffffffffffffffffffffffffffff\n      and\n      0xffffffffffffffffffffffffffffffffffffffff\n      and\n      dup2\n      mstore\n      0x20\n      add\n      swap1\n      dup2\n      mstore\n      0x20\n      add\n      0x00\n      keccak256\n      0x00\n        /* \"contracts/factory-airline.sol\":2390:2408  delete data[_user] */\n      dup1\n      dup3\n      add\n      0x00\n      tag_104\n      swap2\n      swap1\n      tag_105\n      jump\t// in\n    tag_104:\n      0x01\n      dup3\n      add\n      0x00\n      tag_106\n      swap2\n      swap1\n      tag_105\n      jump\t// in\n    tag_106:\n      0x02\n      dup3\n      add\n      exp(0x0100, 0x00)\n      dup2\n      sload\n      swap1\n      0xffffffffffffffffffffffffffffffffffffffff\n      mul\n      not\n      and\n      swap1\n      sstore\n      0x03\n      dup3\n      add\n      0x00\n      tag_107\n      swap2\n      swap1\n      tag_105\n      jump\t// in\n    tag_107:\n      0x04\n      dup3\n      add\n      0x00\n      swap1\n      sstore\n      0x05\n      dup3\n      add\n      exp(0x0100, 0x00)\n      dup2\n      sload\n      swap1\n      0xff\n      mul\n      not\n      and\n      swap1\n      sstore\n      0x05\n      dup3\n      add\n      exp(0x0100, 0x01)\n      dup2\n      sload\n      swap1\n      0xff\n      mul\n      not\n      and\n      swap1\n      sstore\n      0x06\n      dup3\n      add\n      0x00\n      swap1\n      sstore\n      pop\n      pop\n        /* \"contracts/factory-airline.sol\":2332:2412  function removeUser(address _user) public onlyOwner{\r... */\n      pop\n      jump\t// out\n        /* \"contracts/factory-airline.sol\":3358:3826  function Business_CLASS() public {\r... */\n    tag_54:\n        /* \"contracts/factory-airline.sol\":3423:3427  data */\n      0x08\n        /* \"contracts/factory-airline.sol\":3423:3439  data[msg.sender] */\n      0x00\n        /* \"contracts/factory-airline.sol\":3428:3438  msg.sender */\n      caller\n        /* \"contracts/factory-airline.sol\":3423:3439  data[msg.sender] */\n      0xffffffffffffffffffffffffffffffffffffffff\n      and\n      0xffffffffffffffffffffffffffffffffffffffff\n      and\n      dup2\n      mstore\n      0x20\n      add\n      swap1\n      dup2\n      mstore\n      0x20\n      add\n      0x00\n      keccak256\n        /* \"contracts/factory-airline.sol\":3423:3447  data[msg.sender].pass_id */\n      0x02\n      add\n      0x00\n      swap1\n      sload\n      swap1\n      0x0100\n      exp\n      swap1\n      div\n      0xffffffffffffffffffffffffffffffffffffffff\n      and\n        /* \"contracts/factory-airline.sol\":3409:3447  msg.sender == data[msg.sender].pass_id */\n      0xffffffffffffffffffffffffffffffffffffffff\n      and\n        /* \"contracts/factory-airline.sol\":3409:3419  msg.sender */\n      caller\n        /* \"contracts/factory-airline.sol\":3409:3447  msg.sender == data[msg.sender].pass_id */\n      0xffffffffffffffffffffffffffffffffffffffff\n      and\n      eq\n        /* \"contracts/factory-airline.sol\":3401:3473  require(msg.sender == data[msg.sender].pass_id,\"You are not registered\") */\n      tag_109\n      jumpi\n      mload(0x40)\n      0x08c379a000000000000000000000000000000000000000000000000000000000\n      dup2\n      mstore\n      0x04\n      add\n      tag_110\n      swap1\n      tag_17\n      jump\t// in\n    tag_110:\n      mload(0x40)\n      dup1\n      swap2\n      sub\n      swap1\n      revert\n    tag_109:\n        /* \"contracts/factory-airline.sol\":3493:3497  data */\n      0x08\n        /* \"contracts/factory-airline.sol\":3493:3509  data[msg.sender] */\n      0x00\n        /* \"contracts/factory-airline.sol\":3498:3508  msg.sender */\n      caller\n        /* \"contracts/factory-airline.sol\":3493:3509  data[msg.sender] */\n      0xffffffffffffffffffffffffffffffffffffffff\n      and\n      0xffffffffffffffffffffffffffffffffffffffff\n      and\n      dup2\n      mstore\n      0x20\n      add\n      swap1\n      dup2\n      mstore\n      0x20\n      add\n      0x00\n      keccak256\n        /* \"contracts/factory-airline.sol\":3493:3516  data[msg.sender].booked */\n      0x05\n      add\n      0x00\n      swap1\n      sload\n      swap1\n      0x0100\n      exp\n      swap1\n      div\n      0xff\n      and\n        /* \"contracts/factory-airline.sol\":3492:3516  !data[msg.sender].booked */\n      iszero\n        /* \"contracts/factory-airline.sol\":3484:3550  require(!data[msg.sender].booked, \"you have already book a class\") */\n      tag_111\n      jumpi\n      mload(0x40)\n      0x08c379a000000000000000000000000000000000000000000000000000000000\n      dup2\n      mstore\n      0x04\n      add\n      tag_112\n      swap1\n      tag_92\n      jump\t// in\n    tag_112:\n      mload(0x40)\n      dup1\n      swap2\n      sub\n      swap1\n      revert\n    tag_111:\n        /* \"contracts/factory-airline.sol\":3568:3593  classTypes.Business_CLASS */\n      0x02\n        /* \"contracts/factory-airline.sol\":3564:3566  u1 */\n      0x09\n      0x00\n        /* \"contracts/factory-airline.sol\":3564:3593  u1= classTypes.Business_CLASS */\n      0x0100\n      exp\n      dup2\n      sload\n      dup2\n      0xff\n      mul\n      not\n      and\n      swap1\n      dup4\n      0x02\n      dup2\n      gt\n      iszero\n      tag_113\n      jumpi\n      tag_114\n      tag_95\n      jump\t// in\n    tag_114:\n    tag_113:\n      mul\n      or\n      swap1\n      sstore\n      pop\n        /* \"contracts/factory-airline.sol\":3632:3633  2 */\n      0x02\n        /* \"contracts/factory-airline.sol\":3627:3629  u1 */\n      0x09\n      0x00\n      swap1\n      sload\n      swap1\n      0x0100\n      exp\n      swap1\n      div\n      0xff\n      and\n        /* \"contracts/factory-airline.sol\":3622:3630  uint(u1) */\n      0x02\n      dup2\n      gt\n      iszero\n      tag_115\n      jumpi\n      tag_116\n      tag_95\n      jump\t// in\n    tag_116:\n    tag_115:\n        /* \"contracts/factory-airline.sol\":3622:3633  uint(u1)==2 */\n      eq\n        /* \"contracts/factory-airline.sol\":3619:3819  if(uint(u1)==2){\r... */\n      iszero\n      tag_117\n      jumpi\n        /* \"contracts/factory-airline.sol\":3654:3696  data[msg.sender].ticket = \"Business Class\" */\n      mload(0x40)\n      dup1\n      0x40\n      add\n      0x40\n      mstore\n      dup1\n      0x0e\n      dup2\n      mstore\n      0x20\n      add\n      0x427573696e65737320436c617373000000000000000000000000000000000000\n      dup2\n      mstore\n      pop\n        /* \"contracts/factory-airline.sol\":3654:3658  data */\n      0x08\n        /* \"contracts/factory-airline.sol\":3654:3670  data[msg.sender] */\n      0x00\n        /* \"contracts/factory-airline.sol\":3659:3669  msg.sender */\n      caller\n        /* \"contracts/factory-airline.sol\":3654:3670  data[msg.sender] */\n      0xffffffffffffffffffffffffffffffffffffffff\n      and\n      0xffffffffffffffffffffffffffffffffffffffff\n      and\n      dup2\n      mstore\n      0x20\n      add\n      swap1\n      dup2\n      mstore\n      0x20\n      add\n      0x00\n      keccak256\n        /* \"contracts/factory-airline.sol\":3654:3677  data[msg.sender].ticket */\n      0x03\n      add\n        /* \"contracts/factory-airline.sol\":3654:3696  data[msg.sender].ticket = \"Business Class\" */\n      swap1\n      dup1\n      mload\n      swap1\n      0x20\n      add\n      swap1\n      tag_118\n      swap3\n      swap2\n      swap1\n      tag_25\n      jump\t// in\n    tag_118:\n      pop\n        /* \"contracts/factory-airline.sol\":3742:3750  Business */\n      sload(0x01)\n        /* \"contracts/factory-airline.sol\":3718:3722  data */\n      0x08\n        /* \"contracts/factory-airline.sol\":3718:3734  data[msg.sender] */\n      0x00\n        /* \"contracts/factory-airline.sol\":3723:3733  msg.sender */\n      caller\n        /* \"contracts/factory-airline.sol\":3718:3734  data[msg.sender] */\n      0xffffffffffffffffffffffffffffffffffffffff\n      and\n      0xffffffffffffffffffffffffffffffffffffffff\n      and\n      dup2\n      mstore\n      0x20\n      add\n      swap1\n      dup2\n      mstore\n      0x20\n      add\n      0x00\n      keccak256\n        /* \"contracts/factory-airline.sol\":3718:3739  data[msg.sender].cost */\n      0x04\n      add\n        /* \"contracts/factory-airline.sol\":3718:3750  data[msg.sender].cost = Business */\n      dup2\n      swap1\n      sstore\n      pop\n        /* \"contracts/factory-airline.sol\":3798:3802  true */\n      0x01\n        /* \"contracts/factory-airline.sol\":3772:3776  data */\n      0x08\n        /* \"contracts/factory-airline.sol\":3772:3788  data[msg.sender] */\n      0x00\n        /* \"contracts/factory-airline.sol\":3777:3787  msg.sender */\n      caller\n        /* \"contracts/factory-airline.sol\":3772:3788  data[msg.sender] */\n      0xffffffffffffffffffffffffffffffffffffffff\n      and\n      0xffffffffffffffffffffffffffffffffffffffff\n      and\n      dup2\n      mstore\n      0x20\n      add\n      swap1\n      dup2\n      mstore\n      0x20\n      add\n      0x00\n      keccak256\n        /* \"contracts/factory-airline.sol\":3772:3795  data[msg.sender].booked */\n      0x05\n      add\n      0x00\n        /* \"contracts/factory-airline.sol\":3772:3802  data[msg.sender].booked = true */\n      0x0100\n      exp\n      dup2\n      sload\n      dup2\n      0xff\n      mul\n      not\n      and\n      swap1\n      dup4\n      iszero\n      iszero\n      mul\n      or\n      swap1\n      sstore\n      pop\n        /* \"contracts/factory-airline.sol\":3619:3819  if(uint(u1)==2){\r... */\n    tag_117:\n        /* \"contracts/factory-airline.sol\":3358:3826  function Business_CLASS() public {\r... */\n      jump\t// out\n        /* \"contracts/factory-airline.sol\":551:588  mapping (address => User) public data */\n    tag_58:\n      mstore(0x20, 0x08)\n      dup1\n      0x00\n      mstore\n      keccak256(0x00, 0x40)\n      0x00\n      swap2\n      pop\n      swap1\n      pop\n      dup1\n      0x00\n      add\n      dup1\n      sload\n      tag_119\n      swap1\n      tag_79\n      jump\t// in\n    tag_119:\n      dup1\n      0x1f\n      add\n      0x20\n      dup1\n      swap2\n      div\n      mul\n      0x20\n      add\n      mload(0x40)\n      swap1\n      dup2\n      add\n      0x40\n      mstore\n      dup1\n      swap3\n      swap2\n      swap1\n      dup2\n      dup2\n      mstore\n      0x20\n      add\n      dup3\n      dup1\n      sload\n      tag_120\n      swap1\n      tag_79\n      jump\t// in\n    tag_120:\n      dup1\n      iszero\n      tag_121\n      jumpi\n      dup1\n      0x1f\n      lt\n      tag_122\n      jumpi\n      0x0100\n      dup1\n      dup4\n      sload\n      div\n      mul\n      dup4\n      mstore\n      swap2\n      0x20\n      add\n      swap2\n      jump(tag_121)\n    tag_122:\n      dup3\n      add\n      swap2\n      swap1\n      0x00\n      mstore\n      keccak256(0x00, 0x20)\n      swap1\n    tag_123:\n      dup2\n      sload\n      dup2\n      mstore\n      swap1\n      0x01\n      add\n      swap1\n      0x20\n      add\n      dup1\n      dup4\n      gt\n      tag_123\n      jumpi\n      dup3\n      swap1\n      sub\n      0x1f\n      and\n      dup3\n      add\n      swap2\n    tag_121:\n      pop\n      pop\n      pop\n      pop\n      pop\n      swap1\n      dup1\n      0x01\n      add\n      dup1\n      sload\n      tag_124\n      swap1\n      tag_79\n      jump\t// in\n    tag_124:\n      dup1\n      0x1f\n      add\n      0x20\n      dup1\n      swap2\n      div\n      mul\n      0x20\n      add\n      mload(0x40)\n      swap1\n      dup2\n      add\n      0x40\n      mstore\n      dup1\n      swap3\n      swap2\n      swap1\n      dup2\n      dup2\n      mstore\n      0x20\n      add\n      dup3\n      dup1\n      sload\n      tag_125\n      swap1\n      tag_79\n      jump\t// in\n    tag_125:\n      dup1\n      iszero\n      tag_126\n      jumpi\n      dup1\n      0x1f\n      lt\n      tag_127\n      jumpi\n      0x0100\n      dup1\n      dup4\n      sload\n      div\n      mul\n      dup4\n      mstore\n      swap2\n      0x20\n      add\n      swap2\n      jump(tag_126)\n    tag_127:\n      dup3\n      add\n      swap2\n      swap1\n      0x00\n      mstore\n      keccak256(0x00, 0x20)\n      swap1\n    tag_128:\n      dup2\n      sload\n      dup2\n      mstore\n      swap1\n      0x01\n      add\n      swap1\n      0x20\n      add\n      dup1\n      dup4\n      gt\n      tag_128\n      jumpi\n      dup3\n      swap1\n      sub\n      0x1f\n      and\n      dup3\n      add\n      swap2\n    tag_126:\n      pop\n      pop\n      pop\n      pop\n      pop\n      swap1\n      dup1\n      0x02\n      add\n      0x00\n      swap1\n      sload\n      swap1\n      0x0100\n      exp\n      swap1\n      div\n      0xffffffffffffffffffffffffffffffffffffffff\n      and\n      swap1\n      dup1\n      0x03\n      add\n      dup1\n      sload\n      tag_129\n      swap1\n      tag_79\n      jump\t// in\n    tag_129:\n      dup1\n      0x1f\n      add\n      0x20\n      dup1\n      swap2\n      div\n      mul\n      0x20\n      add\n      mload(0x40)\n      swap1\n      dup2\n      add\n      0x40\n      mstore\n      dup1\n      swap3\n      swap2\n      swap1\n      dup2\n      dup2\n      mstore\n      0x20\n      add\n      dup3\n      dup1\n      sload\n      tag_130\n      swap1\n      tag_79\n      jump\t// in\n    tag_130:\n      dup1\n      iszero\n      tag_131\n      jumpi\n      dup1\n      0x1f\n      lt\n      tag_132\n      jumpi\n      0x0100\n      dup1\n      dup4\n      sload\n      div\n      mul\n      dup4\n      mstore\n      swap2\n      0x20\n      add\n      swap2\n      jump(tag_131)\n    tag_132:\n      dup3\n      add\n      swap2\n      swap1\n      0x00\n      mstore\n      keccak256(0x00, 0x20)\n      swap1\n    tag_133:\n      dup2\n      sload\n      dup2\n      mstore\n      swap1\n      0x01\n      add\n      swap1\n      0x20\n      add\n      dup1\n      dup4\n      gt\n      tag_133\n      jumpi\n      dup3\n      swap1\n      sub\n      0x1f\n      and\n      dup3\n      add\n      swap2\n    tag_131:\n      pop\n      pop\n      pop\n      pop\n      pop\n      swap1\n      dup1\n      0x04\n      add\n      sload\n      swap1\n      dup1\n      0x05\n      add\n      0x00\n      swap1\n      sload\n      swap1\n      0x0100\n      exp\n      swap1\n      div\n      0xff\n      and\n      swap1\n      dup1\n      0x05\n      add\n      0x01\n      swap1\n      sload\n      swap1\n      0x0100\n      exp\n      swap1\n      div\n      0xff\n      and\n      swap1\n      dup1\n      0x06\n      add\n      sload\n      swap1\n      pop\n      dup9\n      jump\t// out\n        /* \"contracts/factory-airline.sol\":2416:2870  function FIRST_CLASS() public {\r... */\n    tag_63:\n        /* \"contracts/factory-airline.sol\":2480:2484  data */\n      0x08\n        /* \"contracts/factory-airline.sol\":2480:2496  data[msg.sender] */\n      0x00\n        /* \"contracts/factory-airline.sol\":2485:2495  msg.sender */\n      caller\n        /* \"contracts/factory-airline.sol\":2480:2496  data[msg.sender] */\n      0xffffffffffffffffffffffffffffffffffffffff\n      and\n      0xffffffffffffffffffffffffffffffffffffffff\n      and\n      dup2\n      mstore\n      0x20\n      add\n      swap1\n      dup2\n      mstore\n      0x20\n      add\n      0x00\n      keccak256\n        /* \"contracts/factory-airline.sol\":2480:2504  data[msg.sender].pass_id */\n      0x02\n      add\n      0x00\n      swap1\n      sload\n      swap1\n      0x0100\n      exp\n      swap1\n      div\n      0xffffffffffffffffffffffffffffffffffffffff\n      and\n        /* \"contracts/factory-airline.sol\":2466:2504  msg.sender == data[msg.sender].pass_id */\n      0xffffffffffffffffffffffffffffffffffffffff\n      and\n        /* \"contracts/factory-airline.sol\":2466:2476  msg.sender */\n      caller\n        /* \"contracts/factory-airline.sol\":2466:2504  msg.sender == data[msg.sender].pass_id */\n      0xffffffffffffffffffffffffffffffffffffffff\n      and\n      eq\n        /* \"contracts/factory-airline.sol\":2458:2530  require(msg.sender == data[msg.sender].pass_id,\"You are not registered\") */\n      tag_135\n      jumpi\n      mload(0x40)\n      0x08c379a000000000000000000000000000000000000000000000000000000000\n      dup2\n      mstore\n      0x04\n      add\n      tag_136\n      swap1\n      tag_17\n      jump\t// in\n    tag_136:\n      mload(0x40)\n      dup1\n      swap2\n      sub\n      swap1\n      revert\n    tag_135:\n        /* \"contracts/factory-airline.sol\":2554:2558  data */\n      0x08\n        /* \"contracts/factory-airline.sol\":2554:2570  data[msg.sender] */\n      0x00\n        /* \"contracts/factory-airline.sol\":2559:2569  msg.sender */\n      caller\n        /* \"contracts/factory-airline.sol\":2554:2570  data[msg.sender] */\n      0xffffffffffffffffffffffffffffffffffffffff\n      and\n      0xffffffffffffffffffffffffffffffffffffffff\n      and\n      dup2\n      mstore\n      0x20\n      add\n      swap1\n      dup2\n      mstore\n      0x20\n      add\n      0x00\n      keccak256\n        /* \"contracts/factory-airline.sol\":2554:2577  data[msg.sender].booked */\n      0x05\n      add\n      0x00\n      swap1\n      sload\n      swap1\n      0x0100\n      exp\n      swap1\n      div\n      0xff\n      and\n        /* \"contracts/factory-airline.sol\":2553:2577  !data[msg.sender].booked */\n      iszero\n        /* \"contracts/factory-airline.sol\":2545:2611  require(!data[msg.sender].booked, \"you have already book a class\") */\n      tag_137\n      jumpi\n      mload(0x40)\n      0x08c379a000000000000000000000000000000000000000000000000000000000\n      dup2\n      mstore\n      0x04\n      add\n      tag_138\n      swap1\n      tag_92\n      jump\t// in\n    tag_138:\n      mload(0x40)\n      dup1\n      swap2\n      sub\n      swap1\n      revert\n    tag_137:\n        /* \"contracts/factory-airline.sol\":2627:2649  classTypes.FIRST_CLASS */\n      0x00\n        /* \"contracts/factory-airline.sol\":2623:2625  u1 */\n      0x09\n      0x00\n        /* \"contracts/factory-airline.sol\":2623:2649  u1= classTypes.FIRST_CLASS */\n      0x0100\n      exp\n      dup2\n      sload\n      dup2\n      0xff\n      mul\n      not\n      and\n      swap1\n      dup4\n      0x02\n      dup2\n      gt\n      iszero\n      tag_139\n      jumpi\n      tag_140\n      tag_95\n      jump\t// in\n    tag_140:\n    tag_139:\n      mul\n      or\n      swap1\n      sstore\n      pop\n        /* \"contracts/factory-airline.sol\":2687:2688  0 */\n      0x00\n        /* \"contracts/factory-airline.sol\":2682:2684  u1 */\n      0x09\n      0x00\n      swap1\n      sload\n      swap1\n      0x0100\n      exp\n      swap1\n      div\n      0xff\n      and\n        /* \"contracts/factory-airline.sol\":2677:2685  uint(u1) */\n      0x02\n      dup2\n      gt\n      iszero\n      tag_141\n      jumpi\n      tag_142\n      tag_95\n      jump\t// in\n    tag_142:\n    tag_141:\n        /* \"contracts/factory-airline.sol\":2677:2688  uint(u1)==0 */\n      eq\n        /* \"contracts/factory-airline.sol\":2674:2863  if(uint(u1)==0){\r... */\n      iszero\n      tag_143\n      jumpi\n        /* \"contracts/factory-airline.sol\":2708:2747  data[msg.sender].ticket = \"First Class\" */\n      mload(0x40)\n      dup1\n      0x40\n      add\n      0x40\n      mstore\n      dup1\n      0x0b\n      dup2\n      mstore\n      0x20\n      add\n      0x466972737420436c617373000000000000000000000000000000000000000000\n      dup2\n      mstore\n      pop\n        /* \"contracts/factory-airline.sol\":2708:2712  data */\n      0x08\n        /* \"contracts/factory-airline.sol\":2708:2724  data[msg.sender] */\n      0x00\n        /* \"contracts/factory-airline.sol\":2713:2723  msg.sender */\n      caller\n        /* \"contracts/factory-airline.sol\":2708:2724  data[msg.sender] */\n      0xffffffffffffffffffffffffffffffffffffffff\n      and\n      0xffffffffffffffffffffffffffffffffffffffff\n      and\n      dup2\n      mstore\n      0x20\n      add\n      swap1\n      dup2\n      mstore\n      0x20\n      add\n      0x00\n      keccak256\n        /* \"contracts/factory-airline.sol\":2708:2731  data[msg.sender].ticket */\n      0x03\n      add\n        /* \"contracts/factory-airline.sol\":2708:2747  data[msg.sender].ticket = \"First Class\" */\n      swap1\n      dup1\n      mload\n      swap1\n      0x20\n      add\n      swap1\n      tag_144\n      swap3\n      swap2\n      swap1\n      tag_25\n      jump\t// in\n    tag_144:\n      pop\n        /* \"contracts/factory-airline.sol\":2790:2795  first */\n      sload(0x02)\n        /* \"contracts/factory-airline.sol\":2766:2770  data */\n      0x08\n        /* \"contracts/factory-airline.sol\":2766:2782  data[msg.sender] */\n      0x00\n        /* \"contracts/factory-airline.sol\":2771:2781  msg.sender */\n      caller\n        /* \"contracts/factory-airline.sol\":2766:2782  data[msg.sender] */\n      0xffffffffffffffffffffffffffffffffffffffff\n      and\n      0xffffffffffffffffffffffffffffffffffffffff\n      and\n      dup2\n      mstore\n      0x20\n      add\n      swap1\n      dup2\n      mstore\n      0x20\n      add\n      0x00\n      keccak256\n        /* \"contracts/factory-airline.sol\":2766:2787  data[msg.sender].cost */\n      0x04\n      add\n        /* \"contracts/factory-airline.sol\":2766:2795  data[msg.sender].cost = first */\n      dup2\n      swap1\n      sstore\n      pop\n        /* \"contracts/factory-airline.sol\":2842:2846  true */\n      0x01\n        /* \"contracts/factory-airline.sol\":2815:2819  data */\n      0x08\n        /* \"contracts/factory-airline.sol\":2815:2831  data[msg.sender] */\n      0x00\n        /* \"contracts/factory-airline.sol\":2820:2830  msg.sender */\n      caller\n        /* \"contracts/factory-airline.sol\":2815:2831  data[msg.sender] */\n      0xffffffffffffffffffffffffffffffffffffffff\n      and\n      0xffffffffffffffffffffffffffffffffffffffff\n      and\n      dup2\n      mstore\n      0x20\n      add\n      swap1\n      dup2\n      mstore\n      0x20\n      add\n      0x00\n      keccak256\n        /* \"contracts/factory-airline.sol\":2815:2838  data[msg.sender].booked */\n      0x05\n      add\n      0x00\n        /* \"contracts/factory-airline.sol\":2815:2846  data[msg.sender].booked  = true */\n      0x0100\n      exp\n      dup2\n      sload\n      dup2\n      0xff\n      mul\n      not\n      and\n      swap1\n      dup4\n      iszero\n      iszero\n      mul\n      or\n      swap1\n      sstore\n      pop\n        /* \"contracts/factory-airline.sol\":2674:2863  if(uint(u1)==0){\r... */\n    tag_143:\n        /* \"contracts/factory-airline.sol\":2416:2870  function FIRST_CLASS() public {\r... */\n      jump\t// out\n        /* \"contracts/factory-airline.sol\":2057:2328  function addUser(address _user,string memory _name, string memory _des) public onlyOwner {\r... */\n    tag_68:\n        /* \"contracts/factory-airline.sol\":892:897  owner */\n      0x07\n      0x00\n      swap1\n      sload\n      swap1\n      0x0100\n      exp\n      swap1\n      div\n      0xffffffffffffffffffffffffffffffffffffffff\n      and\n        /* \"contracts/factory-airline.sol\":878:897  msg.sender == owner */\n      0xffffffffffffffffffffffffffffffffffffffff\n      and\n        /* \"contracts/factory-airline.sol\":878:888  msg.sender */\n      caller\n        /* \"contracts/factory-airline.sol\":878:897  msg.sender == owner */\n      0xffffffffffffffffffffffffffffffffffffffff\n      and\n      eq\n        /* \"contracts/factory-airline.sol\":870:931  require(msg.sender == owner,\"you are not allowed to do that\") */\n      tag_146\n      jumpi\n      mload(0x40)\n      0x08c379a000000000000000000000000000000000000000000000000000000000\n      dup2\n      mstore\n      0x04\n      add\n      tag_147\n      swap1\n      tag_72\n      jump\t// in\n    tag_147:\n      mload(0x40)\n      dup1\n      swap2\n      sub\n      swap1\n      revert\n    tag_146:\n        /* \"contracts/factory-airline.sol\":2170:2174  data */\n      0x08\n        /* \"contracts/factory-airline.sol\":2170:2181  data[_user] */\n      0x00\n        /* \"contracts/factory-airline.sol\":2175:2180  _user */\n      dup5\n        /* \"contracts/factory-airline.sol\":2170:2181  data[_user] */\n      0xffffffffffffffffffffffffffffffffffffffff\n      and\n      0xffffffffffffffffffffffffffffffffffffffff\n      and\n      dup2\n      mstore\n      0x20\n      add\n      swap1\n      dup2\n      mstore\n      0x20\n      add\n      0x00\n      keccak256\n        /* \"contracts/factory-airline.sol\":2170:2189  data[_user].pass_id */\n      0x02\n      add\n      0x00\n      swap1\n      sload\n      swap1\n      0x0100\n      exp\n      swap1\n      div\n      0xffffffffffffffffffffffffffffffffffffffff\n      and\n        /* \"contracts/factory-airline.sol\":2161:2189  _user != data[_user].pass_id */\n      0xffffffffffffffffffffffffffffffffffffffff\n      and\n        /* \"contracts/factory-airline.sol\":2161:2166  _user */\n      dup4\n        /* \"contracts/factory-airline.sol\":2161:2189  _user != data[_user].pass_id */\n      0xffffffffffffffffffffffffffffffffffffffff\n      and\n      eq\n      iszero\n        /* \"contracts/factory-airline.sol\":2153:2224  require(_user != data[_user].pass_id,\"this user is already registered\") */\n      tag_149\n      jumpi\n      mload(0x40)\n      0x08c379a000000000000000000000000000000000000000000000000000000000\n      dup2\n      mstore\n      0x04\n      add\n      tag_150\n      swap1\n      tag_151\n      jump\t// in\n    tag_150:\n      mload(0x40)\n      dup1\n      swap2\n      sub\n      swap1\n      revert\n    tag_149:\n        /* \"contracts/factory-airline.sol\":2245:2324  User(_name,_des,msg.sender,_ticket,_cost,_booked,_confrim,_numberOfTicketsPaid) */\n      mload(0x40)\n      dup1\n      0x0100\n      add\n      0x40\n      mstore\n      dup1\n        /* \"contracts/factory-airline.sol\":2250:2255  _name */\n      dup4\n        /* \"contracts/factory-airline.sol\":2245:2324  User(_name,_des,msg.sender,_ticket,_cost,_booked,_confrim,_numberOfTicketsPaid) */\n      dup2\n      mstore\n      0x20\n      add\n        /* \"contracts/factory-airline.sol\":2256:2260  _des */\n      dup3\n        /* \"contracts/factory-airline.sol\":2245:2324  User(_name,_des,msg.sender,_ticket,_cost,_booked,_confrim,_numberOfTicketsPaid) */\n      dup2\n      mstore\n      0x20\n      add\n        /* \"contracts/factory-airline.sol\":2261:2271  msg.sender */\n      caller\n        /* \"contracts/factory-airline.sol\":2245:2324  User(_name,_des,msg.sender,_ticket,_cost,_booked,_confrim,_numberOfTicketsPaid) */\n      0xffffffffffffffffffffffffffffffffffffffff\n      and\n      dup2\n      mstore\n      0x20\n      add\n        /* \"contracts/factory-airline.sol\":2272:2279  _ticket */\n      0x03\n        /* \"contracts/factory-airline.sol\":2245:2324  User(_name,_des,msg.sender,_ticket,_cost,_booked,_confrim,_numberOfTicketsPaid) */\n      dup1\n      sload\n      tag_152\n      swap1\n      tag_79\n      jump\t// in\n    tag_152:\n      dup1\n      0x1f\n      add\n      0x20\n      dup1\n      swap2\n      div\n      mul\n      0x20\n      add\n      mload(0x40)\n      swap1\n      dup2\n      add\n      0x40\n      mstore\n      dup1\n      swap3\n      swap2\n      swap1\n      dup2\n      dup2\n      mstore\n      0x20\n      add\n      dup3\n      dup1\n      sload\n      tag_153\n      swap1\n      tag_79\n      jump\t// in\n    tag_153:\n      dup1\n      iszero\n      tag_154\n      jumpi\n      dup1\n      0x1f\n      lt\n      tag_155\n      jumpi\n      0x0100\n      dup1\n      dup4\n      sload\n      div\n      mul\n      dup4\n      mstore\n      swap2\n      0x20\n      add\n      swap2\n      jump(tag_154)\n    tag_155:\n      dup3\n      add\n      swap2\n      swap1\n      0x00\n      mstore\n      keccak256(0x00, 0x20)\n      swap1\n    tag_156:\n      dup2\n      sload\n      dup2\n      mstore\n      swap1\n      0x01\n      add\n      swap1\n      0x20\n      add\n      dup1\n      dup4\n      gt\n      tag_156\n      jumpi\n      dup3\n      swap1\n      sub\n      0x1f\n      and\n      dup3\n      add\n      swap2\n    tag_154:\n      pop\n      pop\n      pop\n      pop\n      pop\n      dup2\n      mstore\n      0x20\n      add\n        /* \"contracts/factory-airline.sol\":2280:2285  _cost */\n      sload(0x04)\n        /* \"contracts/factory-airline.sol\":2245:2324  User(_name,_des,msg.sender,_ticket,_cost,_booked,_confrim,_numberOfTicketsPaid) */\n      dup2\n      mstore\n      0x20\n      add\n        /* \"contracts/factory-airline.sol\":2286:2293  _booked */\n      0x05\n      0x00\n      swap1\n      sload\n      swap1\n      0x0100\n      exp\n      swap1\n      div\n      0xff\n      and\n        /* \"contracts/factory-airline.sol\":2245:2324  User(_name,_des,msg.sender,_ticket,_cost,_booked,_confrim,_numberOfTicketsPaid) */\n      iszero\n      iszero\n      dup2\n      mstore\n      0x20\n      add\n        /* \"contracts/factory-airline.sol\":2294:2302  _confrim */\n      0x05\n      0x01\n      swap1\n      sload\n      swap1\n      0x0100\n      exp\n      swap1\n      div\n      0xff\n      and\n        /* \"contracts/factory-airline.sol\":2245:2324  User(_name,_des,msg.sender,_ticket,_cost,_booked,_confrim,_numberOfTicketsPaid) */\n      iszero\n      iszero\n      dup2\n      mstore\n      0x20\n      add\n        /* \"contracts/factory-airline.sol\":2303:2323  _numberOfTicketsPaid */\n      sload(0x06)\n        /* \"contracts/factory-airline.sol\":2245:2324  User(_name,_des,msg.sender,_ticket,_cost,_booked,_confrim,_numberOfTicketsPaid) */\n      dup2\n      mstore\n      pop\n        /* \"contracts/factory-airline.sol\":2231:2235  data */\n      0x08\n        /* \"contracts/factory-airline.sol\":2231:2242  data[_user] */\n      0x00\n        /* \"contracts/factory-airline.sol\":2236:2241  _user */\n      dup6\n        /* \"contracts/factory-airline.sol\":2231:2242  data[_user] */\n      0xffffffffffffffffffffffffffffffffffffffff\n      and\n      0xffffffffffffffffffffffffffffffffffffffff\n      and\n      dup2\n      mstore\n      0x20\n      add\n      swap1\n      dup2\n      mstore\n      0x20\n      add\n      0x00\n      keccak256\n        /* \"contracts/factory-airline.sol\":2231:2324  data[_user] = User(_name,_des,msg.sender,_ticket,_cost,_booked,_confrim,_numberOfTicketsPaid) */\n      0x00\n      dup3\n      add\n      mload\n      dup2\n      0x00\n      add\n      swap1\n      dup1\n      mload\n      swap1\n      0x20\n      add\n      swap1\n      tag_157\n      swap3\n      swap2\n      swap1\n      tag_25\n      jump\t// in\n    tag_157:\n      pop\n      0x20\n      dup3\n      add\n      mload\n      dup2\n      0x01\n      add\n      swap1\n      dup1\n      mload\n      swap1\n      0x20\n      add\n      swap1\n      tag_158\n      swap3\n      swap2\n      swap1\n      tag_25\n      jump\t// in\n    tag_158:\n      pop\n      0x40\n      dup3\n      add\n      mload\n      dup2\n      0x02\n      add\n      exp(0x0100, 0x00)\n      dup2\n      sload\n      dup2\n      0xffffffffffffffffffffffffffffffffffffffff\n      mul\n      not\n      and\n      swap1\n      dup4\n      0xffffffffffffffffffffffffffffffffffffffff\n      and\n      mul\n      or\n      swap1\n      sstore\n      pop\n      0x60\n      dup3\n      add\n      mload\n      dup2\n      0x03\n      add\n      swap1\n      dup1\n      mload\n      swap1\n      0x20\n      add\n      swap1\n      tag_159\n      swap3\n      swap2\n      swap1\n      tag_25\n      jump\t// in\n    tag_159:\n      pop\n      0x80\n      dup3\n      add\n      mload\n      dup2\n      0x04\n      add\n      sstore\n      0xa0\n      dup3\n      add\n      mload\n      dup2\n      0x05\n      add\n      exp(0x0100, 0x00)\n      dup2\n      sload\n      dup2\n      0xff\n      mul\n      not\n      and\n      swap1\n      dup4\n      iszero\n      iszero\n      mul\n      or\n      swap1\n      sstore\n      pop\n      0xc0\n      dup3\n      add\n      mload\n      dup2\n      0x05\n      add\n      exp(0x0100, 0x01)\n      dup2\n      sload\n      dup2\n      0xff\n      mul\n      not\n      and\n      swap1\n      dup4\n      iszero\n      iszero\n      mul\n      or\n      swap1\n      sstore\n      pop\n      0xe0\n      dup3\n      add\n      mload\n      dup2\n      0x06\n      add\n      sstore\n      swap1\n      pop\n      pop\n        /* \"contracts/factory-airline.sol\":2057:2328  function addUser(address _user,string memory _name, string memory _des) public onlyOwner {\r... */\n      pop\n      pop\n      pop\n      jump\t// out\n    tag_25:\n      dup3\n      dup1\n      sload\n      tag_160\n      swap1\n      tag_79\n      jump\t// in\n    tag_160:\n      swap1\n      0x00\n      mstore\n      keccak256(0x00, 0x20)\n      swap1\n      0x1f\n      add\n      0x20\n      swap1\n      div\n      dup2\n      add\n      swap3\n      dup3\n      tag_162\n      jumpi\n      0x00\n      dup6\n      sstore\n      jump(tag_161)\n    tag_162:\n      dup3\n      0x1f\n      lt\n      tag_163\n      jumpi\n      dup1\n      mload\n      not(0xff)\n      and\n      dup4\n      dup1\n      add\n      or\n      dup6\n      sstore\n      jump(tag_161)\n    tag_163:\n      dup3\n      dup1\n      add\n      0x01\n      add\n      dup6\n      sstore\n      dup3\n      iszero\n      tag_161\n      jumpi\n      swap2\n      dup3\n      add\n    tag_164:\n      dup3\n      dup2\n      gt\n      iszero\n      tag_165\n      jumpi\n      dup3\n      mload\n      dup3\n      sstore\n      swap2\n      0x20\n      add\n      swap2\n      swap1\n      0x01\n      add\n      swap1\n      jump(tag_164)\n    tag_165:\n    tag_161:\n      pop\n      swap1\n      pop\n      tag_166\n      swap2\n      swap1\n      tag_167\n      jump\t// in\n    tag_166:\n      pop\n      swap1\n      jump\t// out\n    tag_105:\n      pop\n      dup1\n      sload\n      tag_168\n      swap1\n      tag_79\n      jump\t// in\n    tag_168:\n      0x00\n      dup3\n      sstore\n      dup1\n      0x1f\n      lt\n      tag_170\n      jumpi\n      pop\n      jump(tag_169)\n    tag_170:\n      0x1f\n      add\n      0x20\n      swap1\n      div\n      swap1\n      0x00\n      mstore\n      keccak256(0x00, 0x20)\n      swap1\n      dup2\n      add\n      swap1\n      tag_171\n      swap2\n      swap1\n      tag_167\n      jump\t// in\n    tag_171:\n    tag_169:\n      pop\n      jump\t// out\n    tag_167:\n    tag_172:\n      dup1\n      dup3\n      gt\n      iszero\n      tag_173\n      jumpi\n      0x00\n      dup2\n      0x00\n      swap1\n      sstore\n      pop\n      0x01\n      add\n      jump(tag_172)\n    tag_173:\n      pop\n      swap1\n      jump\t// out\n        /* \"#utility.yul\":7:419   */\n    tag_175:\n        /* \"#utility.yul\":85:90   */\n      0x00\n        /* \"#utility.yul\":110:176   */\n      tag_177\n        /* \"#utility.yul\":126:175   */\n      tag_178\n        /* \"#utility.yul\":168:174   */\n      dup5\n        /* \"#utility.yul\":126:175   */\n      tag_179\n      jump\t// in\n    tag_178:\n        /* \"#utility.yul\":110:176   */\n      tag_180\n      jump\t// in\n    tag_177:\n        /* \"#utility.yul\":101:176   */\n      swap1\n      pop\n        /* \"#utility.yul\":199:205   */\n      dup3\n        /* \"#utility.yul\":192:197   */\n      dup2\n        /* \"#utility.yul\":185:206   */\n      mstore\n        /* \"#utility.yul\":237:241   */\n      0x20\n        /* \"#utility.yul\":230:235   */\n      dup2\n        /* \"#utility.yul\":226:242   */\n      add\n        /* \"#utility.yul\":275:278   */\n      dup5\n        /* \"#utility.yul\":266:272   */\n      dup5\n        /* \"#utility.yul\":261:264   */\n      dup5\n        /* \"#utility.yul\":257:273   */\n      add\n        /* \"#utility.yul\":254:279   */\n      gt\n        /* \"#utility.yul\":251:363   */\n      iszero\n      tag_181\n      jumpi\n        /* \"#utility.yul\":282:361   */\n      tag_182\n      tag_183\n      jump\t// in\n    tag_182:\n        /* \"#utility.yul\":251:363   */\n    tag_181:\n        /* \"#utility.yul\":372:413   */\n      tag_184\n        /* \"#utility.yul\":406:412   */\n      dup5\n        /* \"#utility.yul\":401:404   */\n      dup3\n        /* \"#utility.yul\":396:399   */\n      dup6\n        /* \"#utility.yul\":372:413   */\n      tag_185\n      jump\t// in\n    tag_184:\n        /* \"#utility.yul\":91:419   */\n      pop\n        /* \"#utility.yul\":7:419   */\n      swap4\n      swap3\n      pop\n      pop\n      pop\n      jump\t// out\n        /* \"#utility.yul\":425:564   */\n    tag_186:\n        /* \"#utility.yul\":471:476   */\n      0x00\n        /* \"#utility.yul\":509:515   */\n      dup2\n        /* \"#utility.yul\":496:516   */\n      calldataload\n        /* \"#utility.yul\":487:516   */\n      swap1\n      pop\n        /* \"#utility.yul\":525:558   */\n      tag_188\n        /* \"#utility.yul\":552:557   */\n      dup2\n        /* \"#utility.yul\":525:558   */\n      tag_189\n      jump\t// in\n    tag_188:\n        /* \"#utility.yul\":425:564   */\n      swap3\n      swap2\n      pop\n      pop\n      jump\t// out\n        /* \"#utility.yul\":584:924   */\n    tag_190:\n        /* \"#utility.yul\":640:645   */\n      0x00\n        /* \"#utility.yul\":689:692   */\n      dup3\n        /* \"#utility.yul\":682:686   */\n      0x1f\n        /* \"#utility.yul\":674:680   */\n      dup4\n        /* \"#utility.yul\":670:687   */\n      add\n        /* \"#utility.yul\":666:693   */\n      slt\n        /* \"#utility.yul\":656:778   */\n      tag_192\n      jumpi\n        /* \"#utility.yul\":697:776   */\n      tag_193\n      tag_194\n      jump\t// in\n    tag_193:\n        /* \"#utility.yul\":656:778   */\n    tag_192:\n        /* \"#utility.yul\":814:820   */\n      dup2\n        /* \"#utility.yul\":801:821   */\n      calldataload\n        /* \"#utility.yul\":839:918   */\n      tag_195\n        /* \"#utility.yul\":914:917   */\n      dup5\n        /* \"#utility.yul\":906:912   */\n      dup3\n        /* \"#utility.yul\":899:903   */\n      0x20\n        /* \"#utility.yul\":891:897   */\n      dup7\n        /* \"#utility.yul\":887:904   */\n      add\n        /* \"#utility.yul\":839:918   */\n      tag_175\n      jump\t// in\n    tag_195:\n        /* \"#utility.yul\":830:918   */\n      swap2\n      pop\n        /* \"#utility.yul\":646:924   */\n      pop\n        /* \"#utility.yul\":584:924   */\n      swap3\n      swap2\n      pop\n      pop\n      jump\t// out\n        /* \"#utility.yul\":930:1259   */\n    tag_50:\n        /* \"#utility.yul\":989:995   */\n      0x00\n        /* \"#utility.yul\":1038:1040   */\n      0x20\n        /* \"#utility.yul\":1026:1035   */\n      dup3\n        /* \"#utility.yul\":1017:1024   */\n      dup5\n        /* \"#utility.yul\":1013:1036   */\n      sub\n        /* \"#utility.yul\":1009:1041   */\n      slt\n        /* \"#utility.yul\":1006:1125   */\n      iszero\n      tag_197\n      jumpi\n        /* \"#utility.yul\":1044:1123   */\n      tag_198\n      tag_199\n      jump\t// in\n    tag_198:\n        /* \"#utility.yul\":1006:1125   */\n    tag_197:\n        /* \"#utility.yul\":1164:1165   */\n      0x00\n        /* \"#utility.yul\":1189:1242   */\n      tag_200\n        /* \"#utility.yul\":1234:1241   */\n      dup5\n        /* \"#utility.yul\":1225:1231   */\n      dup3\n        /* \"#utility.yul\":1214:1223   */\n      dup6\n        /* \"#utility.yul\":1210:1232   */\n      add\n        /* \"#utility.yul\":1189:1242   */\n      tag_186\n      jump\t// in\n    tag_200:\n        /* \"#utility.yul\":1179:1242   */\n      swap2\n      pop\n        /* \"#utility.yul\":1135:1252   */\n      pop\n        /* \"#utility.yul\":930:1259   */\n      swap3\n      swap2\n      pop\n      pop\n      jump\t// out\n        /* \"#utility.yul\":1265:2244   */\n    tag_67:\n        /* \"#utility.yul\":1362:1368   */\n      0x00\n        /* \"#utility.yul\":1370:1376   */\n      dup1\n        /* \"#utility.yul\":1378:1384   */\n      0x00\n        /* \"#utility.yul\":1427:1429   */\n      0x60\n        /* \"#utility.yul\":1415:1424   */\n      dup5\n        /* \"#utility.yul\":1406:1413   */\n      dup7\n        /* \"#utility.yul\":1402:1425   */\n      sub\n        /* \"#utility.yul\":1398:1430   */\n      slt\n        /* \"#utility.yul\":1395:1514   */\n      iszero\n      tag_202\n      jumpi\n        /* \"#utility.yul\":1433:1512   */\n      tag_203\n      tag_199\n      jump\t// in\n    tag_203:\n        /* \"#utility.yul\":1395:1514   */\n    tag_202:\n        /* \"#utility.yul\":1553:1554   */\n      0x00\n        /* \"#utility.yul\":1578:1631   */\n      tag_204\n        /* \"#utility.yul\":1623:1630   */\n      dup7\n        /* \"#utility.yul\":1614:1620   */\n      dup3\n        /* \"#utility.yul\":1603:1612   */\n      dup8\n        /* \"#utility.yul\":1599:1621   */\n      add\n        /* \"#utility.yul\":1578:1631   */\n      tag_186\n      jump\t// in\n    tag_204:\n        /* \"#utility.yul\":1568:1631   */\n      swap4\n      pop\n        /* \"#utility.yul\":1524:1641   */\n      pop\n        /* \"#utility.yul\":1708:1710   */\n      0x20\n        /* \"#utility.yul\":1697:1706   */\n      dup5\n        /* \"#utility.yul\":1693:1711   */\n      add\n        /* \"#utility.yul\":1680:1712   */\n      calldataload\n        /* \"#utility.yul\":1739:1757   */\n      0xffffffffffffffff\n        /* \"#utility.yul\":1731:1737   */\n      dup2\n        /* \"#utility.yul\":1728:1758   */\n      gt\n        /* \"#utility.yul\":1725:1842   */\n      iszero\n      tag_205\n      jumpi\n        /* \"#utility.yul\":1761:1840   */\n      tag_206\n      tag_207\n      jump\t// in\n    tag_206:\n        /* \"#utility.yul\":1725:1842   */\n    tag_205:\n        /* \"#utility.yul\":1866:1929   */\n      tag_208\n        /* \"#utility.yul\":1921:1928   */\n      dup7\n        /* \"#utility.yul\":1912:1918   */\n      dup3\n        /* \"#utility.yul\":1901:1910   */\n      dup8\n        /* \"#utility.yul\":1897:1919   */\n      add\n        /* \"#utility.yul\":1866:1929   */\n      tag_190\n      jump\t// in\n    tag_208:\n        /* \"#utility.yul\":1856:1929   */\n      swap3\n      pop\n        /* \"#utility.yul\":1651:1939   */\n      pop\n        /* \"#utility.yul\":2006:2008   */\n      0x40\n        /* \"#utility.yul\":1995:2004   */\n      dup5\n        /* \"#utility.yul\":1991:2009   */\n      add\n        /* \"#utility.yul\":1978:2010   */\n      calldataload\n        /* \"#utility.yul\":2037:2055   */\n      0xffffffffffffffff\n        /* \"#utility.yul\":2029:2035   */\n      dup2\n        /* \"#utility.yul\":2026:2056   */\n      gt\n        /* \"#utility.yul\":2023:2140   */\n      iszero\n      tag_209\n      jumpi\n        /* \"#utility.yul\":2059:2138   */\n      tag_210\n      tag_207\n      jump\t// in\n    tag_210:\n        /* \"#utility.yul\":2023:2140   */\n    tag_209:\n        /* \"#utility.yul\":2164:2227   */\n      tag_211\n        /* \"#utility.yul\":2219:2226   */\n      dup7\n        /* \"#utility.yul\":2210:2216   */\n      dup3\n        /* \"#utility.yul\":2199:2208   */\n      dup8\n        /* \"#utility.yul\":2195:2217   */\n      add\n        /* \"#utility.yul\":2164:2227   */\n      tag_190\n      jump\t// in\n    tag_211:\n        /* \"#utility.yul\":2154:2227   */\n      swap2\n      pop\n        /* \"#utility.yul\":1949:2237   */\n      pop\n        /* \"#utility.yul\":1265:2244   */\n      swap3\n      pop\n      swap3\n      pop\n      swap3\n      jump\t// out\n        /* \"#utility.yul\":2250:3084   */\n    tag_37:\n        /* \"#utility.yul\":2338:2344   */\n      0x00\n        /* \"#utility.yul\":2346:2352   */\n      dup1\n        /* \"#utility.yul\":2395:2397   */\n      0x40\n        /* \"#utility.yul\":2383:2392   */\n      dup4\n        /* \"#utility.yul\":2374:2381   */\n      dup6\n        /* \"#utility.yul\":2370:2393   */\n      sub\n        /* \"#utility.yul\":2366:2398   */\n      slt\n        /* \"#utility.yul\":2363:2482   */\n      iszero\n      tag_213\n      jumpi\n        /* \"#utility.yul\":2401:2480   */\n      tag_214\n      tag_199\n      jump\t// in\n    tag_214:\n        /* \"#utility.yul\":2363:2482   */\n    tag_213:\n        /* \"#utility.yul\":2549:2550   */\n      0x00\n        /* \"#utility.yul\":2538:2547   */\n      dup4\n        /* \"#utility.yul\":2534:2551   */\n      add\n        /* \"#utility.yul\":2521:2552   */\n      calldataload\n        /* \"#utility.yul\":2579:2597   */\n      0xffffffffffffffff\n        /* \"#utility.yul\":2571:2577   */\n      dup2\n        /* \"#utility.yul\":2568:2598   */\n      gt\n        /* \"#utility.yul\":2565:2682   */\n      iszero\n      tag_215\n      jumpi\n        /* \"#utility.yul\":2601:2680   */\n      tag_216\n      tag_207\n      jump\t// in\n    tag_216:\n        /* \"#utility.yul\":2565:2682   */\n    tag_215:\n        /* \"#utility.yul\":2706:2769   */\n      tag_217\n        /* \"#utility.yul\":2761:2768   */\n      dup6\n        /* \"#utility.yul\":2752:2758   */\n      dup3\n        /* \"#utility.yul\":2741:2750   */\n      dup7\n        /* \"#utility.yul\":2737:2759   */\n      add\n        /* \"#utility.yul\":2706:2769   */\n      tag_190\n      jump\t// in\n    tag_217:\n        /* \"#utility.yul\":2696:2769   */\n      swap3\n      pop\n        /* \"#utility.yul\":2492:2779   */\n      pop\n        /* \"#utility.yul\":2846:2848   */\n      0x20\n        /* \"#utility.yul\":2835:2844   */\n      dup4\n        /* \"#utility.yul\":2831:2849   */\n      add\n        /* \"#utility.yul\":2818:2850   */\n      calldataload\n        /* \"#utility.yul\":2877:2895   */\n      0xffffffffffffffff\n        /* \"#utility.yul\":2869:2875   */\n      dup2\n        /* \"#utility.yul\":2866:2896   */\n      gt\n        /* \"#utility.yul\":2863:2980   */\n      iszero\n      tag_218\n      jumpi\n        /* \"#utility.yul\":2899:2978   */\n      tag_219\n      tag_207\n      jump\t// in\n    tag_219:\n        /* \"#utility.yul\":2863:2980   */\n    tag_218:\n        /* \"#utility.yul\":3004:3067   */\n      tag_220\n        /* \"#utility.yul\":3059:3066   */\n      dup6\n        /* \"#utility.yul\":3050:3056   */\n      dup3\n        /* \"#utility.yul\":3039:3048   */\n      dup7\n        /* \"#utility.yul\":3035:3057   */\n      add\n        /* \"#utility.yul\":3004:3067   */\n      tag_190\n      jump\t// in\n    tag_220:\n        /* \"#utility.yul\":2994:3067   */\n      swap2\n      pop\n        /* \"#utility.yul\":2789:3077   */\n      pop\n        /* \"#utility.yul\":2250:3084   */\n      swap3\n      pop\n      swap3\n      swap1\n      pop\n      jump\t// out\n        /* \"#utility.yul\":3090:3208   */\n    tag_221:\n        /* \"#utility.yul\":3177:3201   */\n      tag_223\n        /* \"#utility.yul\":3195:3200   */\n      dup2\n        /* \"#utility.yul\":3177:3201   */\n      tag_224\n      jump\t// in\n    tag_223:\n        /* \"#utility.yul\":3172:3175   */\n      dup3\n        /* \"#utility.yul\":3165:3202   */\n      mstore\n        /* \"#utility.yul\":3090:3208   */\n      pop\n      pop\n      jump\t// out\n        /* \"#utility.yul\":3214:3323   */\n    tag_225:\n        /* \"#utility.yul\":3295:3316   */\n      tag_227\n        /* \"#utility.yul\":3310:3315   */\n      dup2\n        /* \"#utility.yul\":3295:3316   */\n      tag_228\n      jump\t// in\n    tag_227:\n        /* \"#utility.yul\":3290:3293   */\n      dup3\n        /* \"#utility.yul\":3283:3317   */\n      mstore\n        /* \"#utility.yul\":3214:3323   */\n      pop\n      pop\n      jump\t// out\n        /* \"#utility.yul\":3329:3693   */\n    tag_229:\n        /* \"#utility.yul\":3417:3420   */\n      0x00\n        /* \"#utility.yul\":3445:3484   */\n      tag_231\n        /* \"#utility.yul\":3478:3483   */\n      dup3\n        /* \"#utility.yul\":3445:3484   */\n      tag_232\n      jump\t// in\n    tag_231:\n        /* \"#utility.yul\":3500:3571   */\n      tag_233\n        /* \"#utility.yul\":3564:3570   */\n      dup2\n        /* \"#utility.yul\":3559:3562   */\n      dup6\n        /* \"#utility.yul\":3500:3571   */\n      tag_234\n      jump\t// in\n    tag_233:\n        /* \"#utility.yul\":3493:3571   */\n      swap4\n      pop\n        /* \"#utility.yul\":3580:3632   */\n      tag_235\n        /* \"#utility.yul\":3625:3631   */\n      dup2\n        /* \"#utility.yul\":3620:3623   */\n      dup6\n        /* \"#utility.yul\":3613:3617   */\n      0x20\n        /* \"#utility.yul\":3606:3611   */\n      dup7\n        /* \"#utility.yul\":3602:3618   */\n      add\n        /* \"#utility.yul\":3580:3632   */\n      tag_236\n      jump\t// in\n    tag_235:\n        /* \"#utility.yul\":3657:3686   */\n      tag_237\n        /* \"#utility.yul\":3679:3685   */\n      dup2\n        /* \"#utility.yul\":3657:3686   */\n      tag_238\n      jump\t// in\n    tag_237:\n        /* \"#utility.yul\":3652:3655   */\n      dup5\n        /* \"#utility.yul\":3648:3687   */\n      add\n        /* \"#utility.yul\":3641:3687   */\n      swap2\n      pop\n        /* \"#utility.yul\":3421:3693   */\n      pop\n        /* \"#utility.yul\":3329:3693   */\n      swap3\n      swap2\n      pop\n      pop\n      jump\t// out\n        /* \"#utility.yul\":3699:4065   */\n    tag_239:\n        /* \"#utility.yul\":3841:3844   */\n      0x00\n        /* \"#utility.yul\":3862:3929   */\n      tag_241\n        /* \"#utility.yul\":3926:3928   */\n      0x17\n        /* \"#utility.yul\":3921:3924   */\n      dup4\n        /* \"#utility.yul\":3862:3929   */\n      tag_234\n      jump\t// in\n    tag_241:\n        /* \"#utility.yul\":3855:3929   */\n      swap2\n      pop\n        /* \"#utility.yul\":3938:4031   */\n      tag_242\n        /* \"#utility.yul\":4027:4030   */\n      dup3\n        /* \"#utility.yul\":3938:4031   */\n      tag_243\n      jump\t// in\n    tag_242:\n        /* \"#utility.yul\":4056:4058   */\n      0x20\n        /* \"#utility.yul\":4051:4054   */\n      dup3\n        /* \"#utility.yul\":4047:4059   */\n      add\n        /* \"#utility.yul\":4040:4059   */\n      swap1\n      pop\n        /* \"#utility.yul\":3699:4065   */\n      swap2\n      swap1\n      pop\n      jump\t// out\n        /* \"#utility.yul\":4071:4437   */\n    tag_244:\n        /* \"#utility.yul\":4213:4216   */\n      0x00\n        /* \"#utility.yul\":4234:4301   */\n      tag_246\n        /* \"#utility.yul\":4298:4300   */\n      0x1f\n        /* \"#utility.yul\":4293:4296   */\n      dup4\n        /* \"#utility.yul\":4234:4301   */\n      tag_234\n      jump\t// in\n    tag_246:\n        /* \"#utility.yul\":4227:4301   */\n      swap2\n      pop\n        /* \"#utility.yul\":4310:4403   */\n      tag_247\n        /* \"#utility.yul\":4399:4402   */\n      dup3\n        /* \"#utility.yul\":4310:4403   */\n      tag_248\n      jump\t// in\n    tag_247:\n        /* \"#utility.yul\":4428:4430   */\n      0x20\n        /* \"#utility.yul\":4423:4426   */\n      dup3\n        /* \"#utility.yul\":4419:4431   */\n      add\n        /* \"#utility.yul\":4412:4431   */\n      swap1\n      pop\n        /* \"#utility.yul\":4071:4437   */\n      swap2\n      swap1\n      pop\n      jump\t// out\n        /* \"#utility.yul\":4443:4809   */\n    tag_249:\n        /* \"#utility.yul\":4585:4588   */\n      0x00\n        /* \"#utility.yul\":4606:4673   */\n      tag_251\n        /* \"#utility.yul\":4670:4672   */\n      0x16\n        /* \"#utility.yul\":4665:4668   */\n      dup4\n        /* \"#utility.yul\":4606:4673   */\n      tag_234\n      jump\t// in\n    tag_251:\n        /* \"#utility.yul\":4599:4673   */\n      swap2\n      pop\n        /* \"#utility.yul\":4682:4775   */\n      tag_252\n        /* \"#utility.yul\":4771:4774   */\n      dup3\n        /* \"#utility.yul\":4682:4775   */\n      tag_253\n      jump\t// in\n    tag_252:\n        /* \"#utility.yul\":4800:4802   */\n      0x20\n        /* \"#utility.yul\":4795:4798   */\n      dup3\n        /* \"#utility.yul\":4791:4803   */\n      add\n        /* \"#utility.yul\":4784:4803   */\n      swap1\n      pop\n        /* \"#utility.yul\":4443:4809   */\n      swap2\n      swap1\n      pop\n      jump\t// out\n        /* \"#utility.yul\":4815:5181   */\n    tag_254:\n        /* \"#utility.yul\":4957:4960   */\n      0x00\n        /* \"#utility.yul\":4978:5045   */\n      tag_256\n        /* \"#utility.yul\":5042:5044   */\n      0x1a\n        /* \"#utility.yul\":5037:5040   */\n      dup4\n        /* \"#utility.yul\":4978:5045   */\n      tag_234\n      jump\t// in\n    tag_256:\n        /* \"#utility.yul\":4971:5045   */\n      swap2\n      pop\n        /* \"#utility.yul\":5054:5147   */\n      tag_257\n        /* \"#utility.yul\":5143:5146   */\n      dup3\n        /* \"#utility.yul\":5054:5147   */\n      tag_258\n      jump\t// in\n    tag_257:\n        /* \"#utility.yul\":5172:5174   */\n      0x20\n        /* \"#utility.yul\":5167:5170   */\n      dup3\n        /* \"#utility.yul\":5163:5175   */\n      add\n        /* \"#utility.yul\":5156:5175   */\n      swap1\n      pop\n        /* \"#utility.yul\":4815:5181   */\n      swap2\n      swap1\n      pop\n      jump\t// out\n        /* \"#utility.yul\":5187:5553   */\n    tag_259:\n        /* \"#utility.yul\":5329:5332   */\n      0x00\n        /* \"#utility.yul\":5350:5417   */\n      tag_261\n        /* \"#utility.yul\":5414:5416   */\n      0x1d\n        /* \"#utility.yul\":5409:5412   */\n      dup4\n        /* \"#utility.yul\":5350:5417   */\n      tag_234\n      jump\t// in\n    tag_261:\n        /* \"#utility.yul\":5343:5417   */\n      swap2\n      pop\n        /* \"#utility.yul\":5426:5519   */\n      tag_262\n        /* \"#utility.yul\":5515:5518   */\n      dup3\n        /* \"#utility.yul\":5426:5519   */\n      tag_263\n      jump\t// in\n    tag_262:\n        /* \"#utility.yul\":5544:5546   */\n      0x20\n        /* \"#utility.yul\":5539:5542   */\n      dup3\n        /* \"#utility.yul\":5535:5547   */\n      add\n        /* \"#utility.yul\":5528:5547   */\n      swap1\n      pop\n        /* \"#utility.yul\":5187:5553   */\n      swap2\n      swap1\n      pop\n      jump\t// out\n        /* \"#utility.yul\":5559:5925   */\n    tag_264:\n        /* \"#utility.yul\":5701:5704   */\n      0x00\n        /* \"#utility.yul\":5722:5789   */\n      tag_266\n        /* \"#utility.yul\":5786:5788   */\n      0x1e\n        /* \"#utility.yul\":5781:5784   */\n      dup4\n        /* \"#utility.yul\":5722:5789   */\n      tag_234\n      jump\t// in\n    tag_266:\n        /* \"#utility.yul\":5715:5789   */\n      swap2\n      pop\n        /* \"#utility.yul\":5798:5891   */\n      tag_267\n        /* \"#utility.yul\":5887:5890   */\n      dup3\n        /* \"#utility.yul\":5798:5891   */\n      tag_268\n      jump\t// in\n    tag_267:\n        /* \"#utility.yul\":5916:5918   */\n      0x20\n        /* \"#utility.yul\":5911:5914   */\n      dup3\n        /* \"#utility.yul\":5907:5919   */\n      add\n        /* \"#utility.yul\":5900:5919   */\n      swap1\n      pop\n        /* \"#utility.yul\":5559:5925   */\n      swap2\n      swap1\n      pop\n      jump\t// out\n        /* \"#utility.yul\":5931:6297   */\n    tag_269:\n        /* \"#utility.yul\":6073:6076   */\n      0x00\n        /* \"#utility.yul\":6094:6161   */\n      tag_271\n        /* \"#utility.yul\":6158:6160   */\n      0x20\n        /* \"#utility.yul\":6153:6156   */\n      dup4\n        /* \"#utility.yul\":6094:6161   */\n      tag_234\n      jump\t// in\n    tag_271:\n        /* \"#utility.yul\":6087:6161   */\n      swap2\n      pop\n        /* \"#utility.yul\":6170:6263   */\n      tag_272\n        /* \"#utility.yul\":6259:6262   */\n      dup3\n        /* \"#utility.yul\":6170:6263   */\n      tag_273\n      jump\t// in\n    tag_272:\n        /* \"#utility.yul\":6288:6290   */\n      0x20\n        /* \"#utility.yul\":6283:6286   */\n      dup3\n        /* \"#utility.yul\":6279:6291   */\n      add\n        /* \"#utility.yul\":6272:6291   */\n      swap1\n      pop\n        /* \"#utility.yul\":5931:6297   */\n      swap2\n      swap1\n      pop\n      jump\t// out\n        /* \"#utility.yul\":6303:6421   */\n    tag_274:\n        /* \"#utility.yul\":6390:6414   */\n      tag_276\n        /* \"#utility.yul\":6408:6413   */\n      dup2\n        /* \"#utility.yul\":6390:6414   */\n      tag_277\n      jump\t// in\n    tag_276:\n        /* \"#utility.yul\":6385:6388   */\n      dup3\n        /* \"#utility.yul\":6378:6415   */\n      mstore\n        /* \"#utility.yul\":6303:6421   */\n      pop\n      pop\n      jump\t// out\n        /* \"#utility.yul\":6427:6649   */\n    tag_43:\n        /* \"#utility.yul\":6520:6524   */\n      0x00\n        /* \"#utility.yul\":6558:6560   */\n      0x20\n        /* \"#utility.yul\":6547:6556   */\n      dup3\n        /* \"#utility.yul\":6543:6561   */\n      add\n        /* \"#utility.yul\":6535:6561   */\n      swap1\n      pop\n        /* \"#utility.yul\":6571:6642   */\n      tag_279\n        /* \"#utility.yul\":6639:6640   */\n      0x00\n        /* \"#utility.yul\":6628:6637   */\n      dup4\n        /* \"#utility.yul\":6624:6641   */\n      add\n        /* \"#utility.yul\":6615:6621   */\n      dup5\n        /* \"#utility.yul\":6571:6642   */\n      tag_221\n      jump\t// in\n    tag_279:\n        /* \"#utility.yul\":6427:6649   */\n      swap3\n      swap2\n      pop\n      pop\n      jump\t// out\n        /* \"#utility.yul\":6655:7901   */\n    tag_60:\n        /* \"#utility.yul\":6992:6996   */\n      0x00\n        /* \"#utility.yul\":7030:7033   */\n      0x0100\n        /* \"#utility.yul\":7019:7028   */\n      dup3\n        /* \"#utility.yul\":7015:7034   */\n      add\n        /* \"#utility.yul\":7007:7034   */\n      swap1\n      pop\n        /* \"#utility.yul\":7080:7089   */\n      dup2\n        /* \"#utility.yul\":7074:7078   */\n      dup2\n        /* \"#utility.yul\":7070:7090   */\n      sub\n        /* \"#utility.yul\":7066:7067   */\n      0x00\n        /* \"#utility.yul\":7055:7064   */\n      dup4\n        /* \"#utility.yul\":7051:7068   */\n      add\n        /* \"#utility.yul\":7044:7091   */\n      mstore\n        /* \"#utility.yul\":7108:7186   */\n      tag_281\n        /* \"#utility.yul\":7181:7185   */\n      dup2\n        /* \"#utility.yul\":7172:7178   */\n      dup12\n        /* \"#utility.yul\":7108:7186   */\n      tag_229\n      jump\t// in\n    tag_281:\n        /* \"#utility.yul\":7100:7186   */\n      swap1\n      pop\n        /* \"#utility.yul\":7233:7242   */\n      dup2\n        /* \"#utility.yul\":7227:7231   */\n      dup2\n        /* \"#utility.yul\":7223:7243   */\n      sub\n        /* \"#utility.yul\":7218:7220   */\n      0x20\n        /* \"#utility.yul\":7207:7216   */\n      dup4\n        /* \"#utility.yul\":7203:7221   */\n      add\n        /* \"#utility.yul\":7196:7244   */\n      mstore\n        /* \"#utility.yul\":7261:7339   */\n      tag_282\n        /* \"#utility.yul\":7334:7338   */\n      dup2\n        /* \"#utility.yul\":7325:7331   */\n      dup11\n        /* \"#utility.yul\":7261:7339   */\n      tag_229\n      jump\t// in\n    tag_282:\n        /* \"#utility.yul\":7253:7339   */\n      swap1\n      pop\n        /* \"#utility.yul\":7349:7421   */\n      tag_283\n        /* \"#utility.yul\":7417:7419   */\n      0x40\n        /* \"#utility.yul\":7406:7415   */\n      dup4\n        /* \"#utility.yul\":7402:7420   */\n      add\n        /* \"#utility.yul\":7393:7399   */\n      dup10\n        /* \"#utility.yul\":7349:7421   */\n      tag_221\n      jump\t// in\n    tag_283:\n        /* \"#utility.yul\":7468:7477   */\n      dup2\n        /* \"#utility.yul\":7462:7466   */\n      dup2\n        /* \"#utility.yul\":7458:7478   */\n      sub\n        /* \"#utility.yul\":7453:7455   */\n      0x60\n        /* \"#utility.yul\":7442:7451   */\n      dup4\n        /* \"#utility.yul\":7438:7456   */\n      add\n        /* \"#utility.yul\":7431:7479   */\n      mstore\n        /* \"#utility.yul\":7496:7574   */\n      tag_284\n        /* \"#utility.yul\":7569:7573   */\n      dup2\n        /* \"#utility.yul\":7560:7566   */\n      dup9\n        /* \"#utility.yul\":7496:7574   */\n      tag_229\n      jump\t// in\n    tag_284:\n        /* \"#utility.yul\":7488:7574   */\n      swap1\n      pop\n        /* \"#utility.yul\":7584:7657   */\n      tag_285\n        /* \"#utility.yul\":7652:7655   */\n      0x80\n        /* \"#utility.yul\":7641:7650   */\n      dup4\n        /* \"#utility.yul\":7637:7656   */\n      add\n        /* \"#utility.yul\":7628:7634   */\n      dup8\n        /* \"#utility.yul\":7584:7657   */\n      tag_274\n      jump\t// in\n    tag_285:\n        /* \"#utility.yul\":7667:7734   */\n      tag_286\n        /* \"#utility.yul\":7729:7732   */\n      0xa0\n        /* \"#utility.yul\":7718:7727   */\n      dup4\n        /* \"#utility.yul\":7714:7733   */\n      add\n        /* \"#utility.yul\":7705:7711   */\n      dup7\n        /* \"#utility.yul\":7667:7734   */\n      tag_225\n      jump\t// in\n    tag_286:\n        /* \"#utility.yul\":7744:7811   */\n      tag_287\n        /* \"#utility.yul\":7806:7809   */\n      0xc0\n        /* \"#utility.yul\":7795:7804   */\n      dup4\n        /* \"#utility.yul\":7791:7810   */\n      add\n        /* \"#utility.yul\":7782:7788   */\n      dup6\n        /* \"#utility.yul\":7744:7811   */\n      tag_225\n      jump\t// in\n    tag_287:\n        /* \"#utility.yul\":7821:7894   */\n      tag_288\n        /* \"#utility.yul\":7889:7892   */\n      0xe0\n        /* \"#utility.yul\":7878:7887   */\n      dup4\n        /* \"#utility.yul\":7874:7893   */\n      add\n        /* \"#utility.yul\":7865:7871   */\n      dup5\n        /* \"#utility.yul\":7821:7894   */\n      tag_274\n      jump\t// in\n    tag_288:\n        /* \"#utility.yul\":6655:7901   */\n      swap10\n      swap9\n      pop\n      pop\n      pop\n      pop\n      pop\n      pop\n      pop\n      pop\n      pop\n      jump\t// out\n        /* \"#utility.yul\":7907:8326   */\n    tag_23:\n        /* \"#utility.yul\":8073:8077   */\n      0x00\n        /* \"#utility.yul\":8111:8113   */\n      0x20\n        /* \"#utility.yul\":8100:8109   */\n      dup3\n        /* \"#utility.yul\":8096:8114   */\n      add\n        /* \"#utility.yul\":8088:8114   */\n      swap1\n      pop\n        /* \"#utility.yul\":8160:8169   */\n      dup2\n        /* \"#utility.yul\":8154:8158   */\n      dup2\n        /* \"#utility.yul\":8150:8170   */\n      sub\n        /* \"#utility.yul\":8146:8147   */\n      0x00\n        /* \"#utility.yul\":8135:8144   */\n      dup4\n        /* \"#utility.yul\":8131:8148   */\n      add\n        /* \"#utility.yul\":8124:8171   */\n      mstore\n        /* \"#utility.yul\":8188:8319   */\n      tag_290\n        /* \"#utility.yul\":8314:8318   */\n      dup2\n        /* \"#utility.yul\":8188:8319   */\n      tag_239\n      jump\t// in\n    tag_290:\n        /* \"#utility.yul\":8180:8319   */\n      swap1\n      pop\n        /* \"#utility.yul\":7907:8326   */\n      swap2\n      swap1\n      pop\n      jump\t// out\n        /* \"#utility.yul\":8332:8751   */\n    tag_151:\n        /* \"#utility.yul\":8498:8502   */\n      0x00\n        /* \"#utility.yul\":8536:8538   */\n      0x20\n        /* \"#utility.yul\":8525:8534   */\n      dup3\n        /* \"#utility.yul\":8521:8539   */\n      add\n        /* \"#utility.yul\":8513:8539   */\n      swap1\n      pop\n        /* \"#utility.yul\":8585:8594   */\n      dup2\n        /* \"#utility.yul\":8579:8583   */\n      dup2\n        /* \"#utility.yul\":8575:8595   */\n      sub\n        /* \"#utility.yul\":8571:8572   */\n      0x00\n        /* \"#utility.yul\":8560:8569   */\n      dup4\n        /* \"#utility.yul\":8556:8573   */\n      add\n        /* \"#utility.yul\":8549:8596   */\n      mstore\n        /* \"#utility.yul\":8613:8744   */\n      tag_292\n        /* \"#utility.yul\":8739:8743   */\n      dup2\n        /* \"#utility.yul\":8613:8744   */\n      tag_244\n      jump\t// in\n    tag_292:\n        /* \"#utility.yul\":8605:8744   */\n      swap1\n      pop\n        /* \"#utility.yul\":8332:8751   */\n      swap2\n      swap1\n      pop\n      jump\t// out\n        /* \"#utility.yul\":8757:9176   */\n    tag_17:\n        /* \"#utility.yul\":8923:8927   */\n      0x00\n        /* \"#utility.yul\":8961:8963   */\n      0x20\n        /* \"#utility.yul\":8950:8959   */\n      dup3\n        /* \"#utility.yul\":8946:8964   */\n      add\n        /* \"#utility.yul\":8938:8964   */\n      swap1\n      pop\n        /* \"#utility.yul\":9010:9019   */\n      dup2\n        /* \"#utility.yul\":9004:9008   */\n      dup2\n        /* \"#utility.yul\":9000:9020   */\n      sub\n        /* \"#utility.yul\":8996:8997   */\n      0x00\n        /* \"#utility.yul\":8985:8994   */\n      dup4\n        /* \"#utility.yul\":8981:8998   */\n      add\n        /* \"#utility.yul\":8974:9021   */\n      mstore\n        /* \"#utility.yul\":9038:9169   */\n      tag_294\n        /* \"#utility.yul\":9164:9168   */\n      dup2\n        /* \"#utility.yul\":9038:9169   */\n      tag_249\n      jump\t// in\n    tag_294:\n        /* \"#utility.yul\":9030:9169   */\n      swap1\n      pop\n        /* \"#utility.yul\":8757:9176   */\n      swap2\n      swap1\n      pop\n      jump\t// out\n        /* \"#utility.yul\":9182:9601   */\n    tag_77:\n        /* \"#utility.yul\":9348:9352   */\n      0x00\n        /* \"#utility.yul\":9386:9388   */\n      0x20\n        /* \"#utility.yul\":9375:9384   */\n      dup3\n        /* \"#utility.yul\":9371:9389   */\n      add\n        /* \"#utility.yul\":9363:9389   */\n      swap1\n      pop\n        /* \"#utility.yul\":9435:9444   */\n      dup2\n        /* \"#utility.yul\":9429:9433   */\n      dup2\n        /* \"#utility.yul\":9425:9445   */\n      sub\n        /* \"#utility.yul\":9421:9422   */\n      0x00\n        /* \"#utility.yul\":9410:9419   */\n      dup4\n        /* \"#utility.yul\":9406:9423   */\n      add\n        /* \"#utility.yul\":9399:9446   */\n      mstore\n        /* \"#utility.yul\":9463:9594   */\n      tag_296\n        /* \"#utility.yul\":9589:9593   */\n      dup2\n        /* \"#utility.yul\":9463:9594   */\n      tag_254\n      jump\t// in\n    tag_296:\n        /* \"#utility.yul\":9455:9594   */\n      swap1\n      pop\n        /* \"#utility.yul\":9182:9601   */\n      swap2\n      swap1\n      pop\n      jump\t// out\n        /* \"#utility.yul\":9607:10026   */\n    tag_92:\n        /* \"#utility.yul\":9773:9777   */\n      0x00\n        /* \"#utility.yul\":9811:9813   */\n      0x20\n        /* \"#utility.yul\":9800:9809   */\n      dup3\n        /* \"#utility.yul\":9796:9814   */\n      add\n        /* \"#utility.yul\":9788:9814   */\n      swap1\n      pop\n        /* \"#utility.yul\":9860:9869   */\n      dup2\n        /* \"#utility.yul\":9854:9858   */\n      dup2\n        /* \"#utility.yul\":9850:9870   */\n      sub\n        /* \"#utility.yul\":9846:9847   */\n      0x00\n        /* \"#utility.yul\":9835:9844   */\n      dup4\n        /* \"#utility.yul\":9831:9848   */\n      add\n        /* \"#utility.yul\":9824:9871   */\n      mstore\n        /* \"#utility.yul\":9888:10019   */\n      tag_298\n        /* \"#utility.yul\":10014:10018   */\n      dup2\n        /* \"#utility.yul\":9888:10019   */\n      tag_259\n      jump\t// in\n    tag_298:\n        /* \"#utility.yul\":9880:10019   */\n      swap1\n      pop\n        /* \"#utility.yul\":9607:10026   */\n      swap2\n      swap1\n      pop\n      jump\t// out\n        /* \"#utility.yul\":10032:10451   */\n    tag_72:\n        /* \"#utility.yul\":10198:10202   */\n      0x00\n        /* \"#utility.yul\":10236:10238   */\n      0x20\n        /* \"#utility.yul\":10225:10234   */\n      dup3\n        /* \"#utility.yul\":10221:10239   */\n      add\n        /* \"#utility.yul\":10213:10239   */\n      swap1\n      pop\n        /* \"#utility.yul\":10285:10294   */\n      dup2\n        /* \"#utility.yul\":10279:10283   */\n      dup2\n        /* \"#utility.yul\":10275:10295   */\n      sub\n        /* \"#utility.yul\":10271:10272   */\n      0x00\n        /* \"#utility.yul\":10260:10269   */\n      dup4\n        /* \"#utility.yul\":10256:10273   */\n      add\n        /* \"#utility.yul\":10249:10296   */\n      mstore\n        /* \"#utility.yul\":10313:10444   */\n      tag_300\n        /* \"#utility.yul\":10439:10443   */\n      dup2\n        /* \"#utility.yul\":10313:10444   */\n      tag_264\n      jump\t// in\n    tag_300:\n        /* \"#utility.yul\":10305:10444   */\n      swap1\n      pop\n        /* \"#utility.yul\":10032:10451   */\n      swap2\n      swap1\n      pop\n      jump\t// out\n        /* \"#utility.yul\":10457:10876   */\n    tag_20:\n        /* \"#utility.yul\":10623:10627   */\n      0x00\n        /* \"#utility.yul\":10661:10663   */\n      0x20\n        /* \"#utility.yul\":10650:10659   */\n      dup3\n        /* \"#utility.yul\":10646:10664   */\n      add\n        /* \"#utility.yul\":10638:10664   */\n      swap1\n      pop\n        /* \"#utility.yul\":10710:10719   */\n      dup2\n        /* \"#utility.yul\":10704:10708   */\n      dup2\n        /* \"#utility.yul\":10700:10720   */\n      sub\n        /* \"#utility.yul\":10696:10697   */\n      0x00\n        /* \"#utility.yul\":10685:10694   */\n      dup4\n        /* \"#utility.yul\":10681:10698   */\n      add\n        /* \"#utility.yul\":10674:10721   */\n      mstore\n        /* \"#utility.yul\":10738:10869   */\n      tag_302\n        /* \"#utility.yul\":10864:10868   */\n      dup2\n        /* \"#utility.yul\":10738:10869   */\n      tag_269\n      jump\t// in\n    tag_302:\n        /* \"#utility.yul\":10730:10869   */\n      swap1\n      pop\n        /* \"#utility.yul\":10457:10876   */\n      swap2\n      swap1\n      pop\n      jump\t// out\n        /* \"#utility.yul\":10882:11104   */\n    tag_33:\n        /* \"#utility.yul\":10975:10979   */\n      0x00\n        /* \"#utility.yul\":11013:11015   */\n      0x20\n        /* \"#utility.yul\":11002:11011   */\n      dup3\n        /* \"#utility.yul\":10998:11016   */\n      add\n        /* \"#utility.yul\":10990:11016   */\n      swap1\n      pop\n        /* \"#utility.yul\":11026:11097   */\n      tag_304\n        /* \"#utility.yul\":11094:11095   */\n      0x00\n        /* \"#utility.yul\":11083:11092   */\n      dup4\n        /* \"#utility.yul\":11079:11096   */\n      add\n        /* \"#utility.yul\":11070:11076   */\n      dup5\n        /* \"#utility.yul\":11026:11097   */\n      tag_274\n      jump\t// in\n    tag_304:\n        /* \"#utility.yul\":10882:11104   */\n      swap3\n      swap2\n      pop\n      pop\n      jump\t// out\n        /* \"#utility.yul\":11110:11239   */\n    tag_180:\n        /* \"#utility.yul\":11144:11150   */\n      0x00\n        /* \"#utility.yul\":11171:11191   */\n      tag_306\n      tag_307\n      jump\t// in\n    tag_306:\n        /* \"#utility.yul\":11161:11191   */\n      swap1\n      pop\n        /* \"#utility.yul\":11200:11233   */\n      tag_308\n        /* \"#utility.yul\":11228:11232   */\n      dup3\n        /* \"#utility.yul\":11220:11226   */\n      dup3\n        /* \"#utility.yul\":11200:11233   */\n      tag_309\n      jump\t// in\n    tag_308:\n        /* \"#utility.yul\":11110:11239   */\n      swap2\n      swap1\n      pop\n      jump\t// out\n        /* \"#utility.yul\":11245:11320   */\n    tag_307:\n        /* \"#utility.yul\":11278:11284   */\n      0x00\n        /* \"#utility.yul\":11311:11313   */\n      0x40\n        /* \"#utility.yul\":11305:11314   */\n      mload\n        /* \"#utility.yul\":11295:11314   */\n      swap1\n      pop\n        /* \"#utility.yul\":11245:11320   */\n      swap1\n      jump\t// out\n        /* \"#utility.yul\":11326:11634   */\n    tag_179:\n        /* \"#utility.yul\":11388:11392   */\n      0x00\n        /* \"#utility.yul\":11478:11496   */\n      0xffffffffffffffff\n        /* \"#utility.yul\":11470:11476   */\n      dup3\n        /* \"#utility.yul\":11467:11497   */\n      gt\n        /* \"#utility.yul\":11464:11520   */\n      iszero\n      tag_312\n      jumpi\n        /* \"#utility.yul\":11500:11518   */\n      tag_313\n      tag_314\n      jump\t// in\n    tag_313:\n        /* \"#utility.yul\":11464:11520   */\n    tag_312:\n        /* \"#utility.yul\":11538:11567   */\n      tag_315\n        /* \"#utility.yul\":11560:11566   */\n      dup3\n        /* \"#utility.yul\":11538:11567   */\n      tag_238\n      jump\t// in\n    tag_315:\n        /* \"#utility.yul\":11530:11567   */\n      swap1\n      pop\n        /* \"#utility.yul\":11622:11626   */\n      0x20\n        /* \"#utility.yul\":11616:11620   */\n      dup2\n        /* \"#utility.yul\":11612:11627   */\n      add\n        /* \"#utility.yul\":11604:11627   */\n      swap1\n      pop\n        /* \"#utility.yul\":11326:11634   */\n      swap2\n      swap1\n      pop\n      jump\t// out\n        /* \"#utility.yul\":11640:11739   */\n    tag_232:\n        /* \"#utility.yul\":11692:11698   */\n      0x00\n        /* \"#utility.yul\":11726:11731   */\n      dup2\n        /* \"#utility.yul\":11720:11732   */\n      mload\n        /* \"#utility.yul\":11710:11732   */\n      swap1\n      pop\n        /* \"#utility.yul\":11640:11739   */\n      swap2\n      swap1\n      pop\n      jump\t// out\n        /* \"#utility.yul\":11745:11914   */\n    tag_234:\n        /* \"#utility.yul\":11829:11840   */\n      0x00\n        /* \"#utility.yul\":11863:11869   */\n      dup3\n        /* \"#utility.yul\":11858:11861   */\n      dup3\n        /* \"#utility.yul\":11851:11870   */\n      mstore\n        /* \"#utility.yul\":11903:11907   */\n      0x20\n        /* \"#utility.yul\":11898:11901   */\n      dup3\n        /* \"#utility.yul\":11894:11908   */\n      add\n        /* \"#utility.yul\":11879:11908   */\n      swap1\n      pop\n        /* \"#utility.yul\":11745:11914   */\n      swap3\n      swap2\n      pop\n      pop\n      jump\t// out\n        /* \"#utility.yul\":11920:12016   */\n    tag_224:\n        /* \"#utility.yul\":11957:11964   */\n      0x00\n        /* \"#utility.yul\":11986:12010   */\n      tag_319\n        /* \"#utility.yul\":12004:12009   */\n      dup3\n        /* \"#utility.yul\":11986:12010   */\n      tag_320\n      jump\t// in\n    tag_319:\n        /* \"#utility.yul\":11975:12010   */\n      swap1\n      pop\n        /* \"#utility.yul\":11920:12016   */\n      swap2\n      swap1\n      pop\n      jump\t// out\n        /* \"#utility.yul\":12022:12112   */\n    tag_228:\n        /* \"#utility.yul\":12056:12063   */\n      0x00\n        /* \"#utility.yul\":12099:12104   */\n      dup2\n        /* \"#utility.yul\":12092:12105   */\n      iszero\n        /* \"#utility.yul\":12085:12106   */\n      iszero\n        /* \"#utility.yul\":12074:12106   */\n      swap1\n      pop\n        /* \"#utility.yul\":12022:12112   */\n      swap2\n      swap1\n      pop\n      jump\t// out\n        /* \"#utility.yul\":12118:12244   */\n    tag_320:\n        /* \"#utility.yul\":12155:12162   */\n      0x00\n        /* \"#utility.yul\":12195:12237   */\n      0xffffffffffffffffffffffffffffffffffffffff\n        /* \"#utility.yul\":12188:12193   */\n      dup3\n        /* \"#utility.yul\":12184:12238   */\n      and\n        /* \"#utility.yul\":12173:12238   */\n      swap1\n      pop\n        /* \"#utility.yul\":12118:12244   */\n      swap2\n      swap1\n      pop\n      jump\t// out\n        /* \"#utility.yul\":12250:12327   */\n    tag_277:\n        /* \"#utility.yul\":12287:12294   */\n      0x00\n        /* \"#utility.yul\":12316:12321   */\n      dup2\n        /* \"#utility.yul\":12305:12321   */\n      swap1\n      pop\n        /* \"#utility.yul\":12250:12327   */\n      swap2\n      swap1\n      pop\n      jump\t// out\n        /* \"#utility.yul\":12333:12487   */\n    tag_185:\n        /* \"#utility.yul\":12417:12423   */\n      dup3\n        /* \"#utility.yul\":12412:12415   */\n      dup2\n        /* \"#utility.yul\":12407:12410   */\n      dup4\n        /* \"#utility.yul\":12394:12424   */\n      calldatacopy\n        /* \"#utility.yul\":12479:12480   */\n      0x00\n        /* \"#utility.yul\":12470:12476   */\n      dup4\n        /* \"#utility.yul\":12465:12468   */\n      dup4\n        /* \"#utility.yul\":12461:12477   */\n      add\n        /* \"#utility.yul\":12454:12481   */\n      mstore\n        /* \"#utility.yul\":12333:12487   */\n      pop\n      pop\n      pop\n      jump\t// out\n        /* \"#utility.yul\":12493:12800   */\n    tag_236:\n        /* \"#utility.yul\":12561:12562   */\n      0x00\n        /* \"#utility.yul\":12571:12684   */\n    tag_326:\n        /* \"#utility.yul\":12585:12591   */\n      dup4\n        /* \"#utility.yul\":12582:12583   */\n      dup2\n        /* \"#utility.yul\":12579:12592   */\n      lt\n        /* \"#utility.yul\":12571:12684   */\n      iszero\n      tag_328\n      jumpi\n        /* \"#utility.yul\":12670:12671   */\n      dup1\n        /* \"#utility.yul\":12665:12668   */\n      dup3\n        /* \"#utility.yul\":12661:12672   */\n      add\n        /* \"#utility.yul\":12655:12673   */\n      mload\n        /* \"#utility.yul\":12651:12652   */\n      dup2\n        /* \"#utility.yul\":12646:12649   */\n      dup5\n        /* \"#utility.yul\":12642:12653   */\n      add\n        /* \"#utility.yul\":12635:12674   */\n      mstore\n        /* \"#utility.yul\":12607:12609   */\n      0x20\n        /* \"#utility.yul\":12604:12605   */\n      dup2\n        /* \"#utility.yul\":12600:12610   */\n      add\n        /* \"#utility.yul\":12595:12610   */\n      swap1\n      pop\n        /* \"#utility.yul\":12571:12684   */\n      jump(tag_326)\n    tag_328:\n        /* \"#utility.yul\":12702:12708   */\n      dup4\n        /* \"#utility.yul\":12699:12700   */\n      dup2\n        /* \"#utility.yul\":12696:12709   */\n      gt\n        /* \"#utility.yul\":12693:12794   */\n      iszero\n      tag_329\n      jumpi\n        /* \"#utility.yul\":12782:12783   */\n      0x00\n        /* \"#utility.yul\":12773:12779   */\n      dup5\n        /* \"#utility.yul\":12768:12771   */\n      dup5\n        /* \"#utility.yul\":12764:12780   */\n      add\n        /* \"#utility.yul\":12757:12784   */\n      mstore\n        /* \"#utility.yul\":12693:12794   */\n    tag_329:\n        /* \"#utility.yul\":12542:12800   */\n      pop\n        /* \"#utility.yul\":12493:12800   */\n      pop\n      pop\n      pop\n      jump\t// out\n        /* \"#utility.yul\":12806:13126   */\n    tag_79:\n        /* \"#utility.yul\":12850:12856   */\n      0x00\n        /* \"#utility.yul\":12887:12888   */\n      0x02\n        /* \"#utility.yul\":12881:12885   */\n      dup3\n        /* \"#utility.yul\":12877:12889   */\n      div\n        /* \"#utility.yul\":12867:12889   */\n      swap1\n      pop\n        /* \"#utility.yul\":12934:12935   */\n      0x01\n        /* \"#utility.yul\":12928:12932   */\n      dup3\n        /* \"#utility.yul\":12924:12936   */\n      and\n        /* \"#utility.yul\":12955:12973   */\n      dup1\n        /* \"#utility.yul\":12945:13026   */\n      tag_331\n      jumpi\n        /* \"#utility.yul\":13011:13015   */\n      0x7f\n        /* \"#utility.yul\":13003:13009   */\n      dup3\n        /* \"#utility.yul\":12999:13016   */\n      and\n        /* \"#utility.yul\":12989:13016   */\n      swap2\n      pop\n        /* \"#utility.yul\":12945:13026   */\n    tag_331:\n        /* \"#utility.yul\":13073:13075   */\n      0x20\n        /* \"#utility.yul\":13065:13071   */\n      dup3\n        /* \"#utility.yul\":13062:13076   */\n      lt\n        /* \"#utility.yul\":13042:13060   */\n      dup2\n        /* \"#utility.yul\":13039:13077   */\n      eq\n        /* \"#utility.yul\":13036:13120   */\n      iszero\n      tag_332\n      jumpi\n        /* \"#utility.yul\":13092:13110   */\n      tag_333\n      tag_334\n      jump\t// in\n    tag_333:\n        /* \"#utility.yul\":13036:13120   */\n    tag_332:\n        /* \"#utility.yul\":12857:13126   */\n      pop\n        /* \"#utility.yul\":12806:13126   */\n      swap2\n      swap1\n      pop\n      jump\t// out\n        /* \"#utility.yul\":13132:13413   */\n    tag_309:\n        /* \"#utility.yul\":13215:13242   */\n      tag_336\n        /* \"#utility.yul\":13237:13241   */\n      dup3\n        /* \"#utility.yul\":13215:13242   */\n      tag_238\n      jump\t// in\n    tag_336:\n        /* \"#utility.yul\":13207:13213   */\n      dup2\n        /* \"#utility.yul\":13203:13243   */\n      add\n        /* \"#utility.yul\":13345:13351   */\n      dup2\n        /* \"#utility.yul\":13333:13343   */\n      dup2\n        /* \"#utility.yul\":13330:13352   */\n      lt\n        /* \"#utility.yul\":13309:13327   */\n      0xffffffffffffffff\n        /* \"#utility.yul\":13297:13307   */\n      dup3\n        /* \"#utility.yul\":13294:13328   */\n      gt\n        /* \"#utility.yul\":13291:13353   */\n      or\n        /* \"#utility.yul\":13288:13376   */\n      iszero\n      tag_337\n      jumpi\n        /* \"#utility.yul\":13356:13374   */\n      tag_338\n      tag_314\n      jump\t// in\n    tag_338:\n        /* \"#utility.yul\":13288:13376   */\n    tag_337:\n        /* \"#utility.yul\":13396:13406   */\n      dup1\n        /* \"#utility.yul\":13392:13394   */\n      0x40\n        /* \"#utility.yul\":13385:13407   */\n      mstore\n        /* \"#utility.yul\":13175:13413   */\n      pop\n        /* \"#utility.yul\":13132:13413   */\n      pop\n      pop\n      jump\t// out\n        /* \"#utility.yul\":13419:13652   */\n    tag_28:\n        /* \"#utility.yul\":13458:13461   */\n      0x00\n        /* \"#utility.yul\":13481:13505   */\n      tag_340\n        /* \"#utility.yul\":13499:13504   */\n      dup3\n        /* \"#utility.yul\":13481:13505   */\n      tag_277\n      jump\t// in\n    tag_340:\n        /* \"#utility.yul\":13472:13505   */\n      swap2\n      pop\n        /* \"#utility.yul\":13527:13593   */\n      0xffffffffffffffffffffffffffffffffffffffffffffffffffffffffffffffff\n        /* \"#utility.yul\":13520:13525   */\n      dup3\n        /* \"#utility.yul\":13517:13594   */\n      eq\n        /* \"#utility.yul\":13514:13617   */\n      iszero\n      tag_341\n      jumpi\n        /* \"#utility.yul\":13597:13615   */\n      tag_342\n      tag_343\n      jump\t// in\n    tag_342:\n        /* \"#utility.yul\":13514:13617   */\n    tag_341:\n        /* \"#utility.yul\":13644:13645   */\n      0x01\n        /* \"#utility.yul\":13637:13642   */\n      dup3\n        /* \"#utility.yul\":13633:13646   */\n      add\n        /* \"#utility.yul\":13626:13646   */\n      swap1\n      pop\n        /* \"#utility.yul\":13419:13652   */\n      swap2\n      swap1\n      pop\n      jump\t// out\n        /* \"#utility.yul\":13658:13838   */\n    tag_343:\n        /* \"#utility.yul\":13706:13783   */\n      0x4e487b7100000000000000000000000000000000000000000000000000000000\n        /* \"#utility.yul\":13703:13704   */\n      0x00\n        /* \"#utility.yul\":13696:13784   */\n      mstore\n        /* \"#utility.yul\":13803:13807   */\n      0x11\n        /* \"#utility.yul\":13800:13801   */\n      0x04\n        /* \"#utility.yul\":13793:13808   */\n      mstore\n        /* \"#utility.yul\":13827:13831   */\n      0x24\n        /* \"#utility.yul\":13824:13825   */\n      0x00\n        /* \"#utility.yul\":13817:13832   */\n      revert\n        /* \"#utility.yul\":13844:14024   */\n    tag_95:\n        /* \"#utility.yul\":13892:13969   */\n      0x4e487b7100000000000000000000000000000000000000000000000000000000\n        /* \"#utility.yul\":13889:13890   */\n      0x00\n        /* \"#utility.yul\":13882:13970   */\n      mstore\n        /* \"#utility.yul\":13989:13993   */\n      0x21\n        /* \"#utility.yul\":13986:13987   */\n      0x04\n        /* \"#utility.yul\":13979:13994   */\n      mstore\n        /* \"#utility.yul\":14013:14017   */\n      0x24\n        /* \"#utility.yul\":14010:14011   */\n      0x00\n        /* \"#utility.yul\":14003:14018   */\n      revert\n        /* \"#utility.yul\":14030:14210   */\n    tag_334:\n        /* \"#utility.yul\":14078:14155   */\n      0x4e487b7100000000000000000000000000000000000000000000000000000000\n        /* \"#utility.yul\":14075:14076   */\n      0x00\n        /* \"#utility.yul\":14068:14156   */\n      mstore\n        /* \"#utility.yul\":14175:14179   */\n      0x22\n        /* \"#utility.yul\":14172:14173   */\n      0x04\n        /* \"#utility.yul\":14165:14180   */\n      mstore\n        /* \"#utility.yul\":14199:14203   */\n      0x24\n        /* \"#utility.yul\":14196:14197   */\n      0x00\n        /* \"#utility.yul\":14189:14204   */\n      revert\n        /* \"#utility.yul\":14216:14396   */\n    tag_314:\n        /* \"#utility.yul\":14264:14341   */\n      0x4e487b7100000000000000000000000000000000000000000000000000000000\n        /* \"#utility.yul\":14261:14262   */\n      0x00\n        /* \"#utility.yul\":14254:14342   */\n      mstore\n        /* \"#utility.yul\":14361:14365   */\n      0x41\n        /* \"#utility.yul\":14358:14359   */\n      0x04\n        /* \"#utility.yul\":14351:14366   */\n      mstore\n        /* \"#utility.yul\":14385:14389   */\n      0x24\n        /* \"#utility.yul\":14382:14383   */\n      0x00\n        /* \"#utility.yul\":14375:14390   */\n      revert\n        /* \"#utility.yul\":14402:14519   */\n    tag_194:\n        /* \"#utility.yul\":14511:14512   */\n      0x00\n        /* \"#utility.yul\":14508:14509   */\n      dup1\n        /* \"#utility.yul\":14501:14513   */\n      revert\n        /* \"#utility.yul\":14525:14642   */\n    tag_183:\n        /* \"#utility.yul\":14634:14635   */\n      0x00\n        /* \"#utility.yul\":14631:14632   */\n      dup1\n        /* \"#utility.yul\":14624:14636   */\n      revert\n        /* \"#utility.yul\":14648:14765   */\n    tag_207:\n        /* \"#utility.yul\":14757:14758   */\n      0x00\n        /* \"#utility.yul\":14754:14755   */\n      dup1\n        /* \"#utility.yul\":14747:14759   */\n      revert\n        /* \"#utility.yul\":14771:14888   */\n    tag_199:\n        /* \"#utility.yul\":14880:14881   */\n      0x00\n        /* \"#utility.yul\":14877:14878   */\n      dup1\n        /* \"#utility.yul\":14870:14882   */\n      revert\n        /* \"#utility.yul\":14894:14996   */\n    tag_238:\n        /* \"#utility.yul\":14935:14941   */\n      0x00\n        /* \"#utility.yul\":14986:14988   */\n      0x1f\n        /* \"#utility.yul\":14982:14989   */\n      not\n        /* \"#utility.yul\":14977:14979   */\n      0x1f\n        /* \"#utility.yul\":14970:14975   */\n      dup4\n        /* \"#utility.yul\":14966:14980   */\n      add\n        /* \"#utility.yul\":14962:14990   */\n      and\n        /* \"#utility.yul\":14952:14990   */\n      swap1\n      pop\n        /* \"#utility.yul\":14894:14996   */\n      swap2\n      swap1\n      pop\n      jump\t// out\n        /* \"#utility.yul\":15002:15175   */\n    tag_243:\n        /* \"#utility.yul\":15142:15167   */\n      0x7061796d656e74206973206e6f742062616c616e636564000000000000000000\n        /* \"#utility.yul\":15138:15139   */\n      0x00\n        /* \"#utility.yul\":15130:15136   */\n      dup3\n        /* \"#utility.yul\":15126:15140   */\n      add\n        /* \"#utility.yul\":15119:15168   */\n      mstore\n        /* \"#utility.yul\":15002:15175   */\n      pop\n      jump\t// out\n        /* \"#utility.yul\":15181:15362   */\n    tag_248:\n        /* \"#utility.yul\":15321:15354   */\n      0x74686973207573657220697320616c7265616479207265676973746572656400\n        /* \"#utility.yul\":15317:15318   */\n      0x00\n        /* \"#utility.yul\":15309:15315   */\n      dup3\n        /* \"#utility.yul\":15305:15319   */\n      add\n        /* \"#utility.yul\":15298:15355   */\n      mstore\n        /* \"#utility.yul\":15181:15362   */\n      pop\n      jump\t// out\n        /* \"#utility.yul\":15368:15540   */\n    tag_253:\n        /* \"#utility.yul\":15508:15532   */\n      0x596f7520617265206e6f74207265676973746572656400000000000000000000\n        /* \"#utility.yul\":15504:15505   */\n      0x00\n        /* \"#utility.yul\":15496:15502   */\n      dup3\n        /* \"#utility.yul\":15492:15506   */\n      add\n        /* \"#utility.yul\":15485:15533   */\n      mstore\n        /* \"#utility.yul\":15368:15540   */\n      pop\n      jump\t// out\n        /* \"#utility.yul\":15546:15722   */\n    tag_258:\n        /* \"#utility.yul\":15686:15714   */\n      0x596f752061726520616c72656164792072656769737465726564000000000000\n        /* \"#utility.yul\":15682:15683   */\n      0x00\n        /* \"#utility.yul\":15674:15680   */\n      dup3\n        /* \"#utility.yul\":15670:15684   */\n      add\n        /* \"#utility.yul\":15663:15715   */\n      mstore\n        /* \"#utility.yul\":15546:15722   */\n      pop\n      jump\t// out\n        /* \"#utility.yul\":15728:15907   */\n    tag_263:\n        /* \"#utility.yul\":15868:15899   */\n      0x796f75206861766520616c726561647920626f6f6b206120636c617373000000\n        /* \"#utility.yul\":15864:15865   */\n      0x00\n        /* \"#utility.yul\":15856:15862   */\n      dup3\n        /* \"#utility.yul\":15852:15866   */\n      add\n        /* \"#utility.yul\":15845:15900   */\n      mstore\n        /* \"#utility.yul\":15728:15907   */\n      pop\n      jump\t// out\n        /* \"#utility.yul\":15913:16093   */\n    tag_268:\n        /* \"#utility.yul\":16053:16085   */\n      0x796f7520617265206e6f7420616c6c6f77656420746f20646f20746861740000\n        /* \"#utility.yul\":16049:16050   */\n      0x00\n        /* \"#utility.yul\":16041:16047   */\n      dup3\n        /* \"#utility.yul\":16037:16051   */\n      add\n        /* \"#utility.yul\":16030:16086   */\n      mstore\n        /* \"#utility.yul\":15913:16093   */\n      pop\n      jump\t// out\n        /* \"#utility.yul\":16099:16281   */\n    tag_273:\n        /* \"#utility.yul\":16239:16273   */\n      0x596f75206861766520616c726561647920706169642074686520616d6f756e74\n        /* \"#utility.yul\":16235:16236   */\n      0x00\n        /* \"#utility.yul\":16227:16233   */\n      dup3\n        /* \"#utility.yul\":16223:16237   */\n      add\n        /* \"#utility.yul\":16216:16274   */\n      mstore\n        /* \"#utility.yul\":16099:16281   */\n      pop\n      jump\t// out\n        /* \"#utility.yul\":16287:16409   */\n    tag_189:\n        /* \"#utility.yul\":16360:16384   */\n      tag_361\n        /* \"#utility.yul\":16378:16383   */\n      dup2\n        /* \"#utility.yul\":16360:16384   */\n      tag_224\n      jump\t// in\n    tag_361:\n        /* \"#utility.yul\":16353:16358   */\n      dup2\n        /* \"#utility.yul\":16350:16385   */\n      eq\n        /* \"#utility.yul\":16340:16403   */\n      tag_362\n      jumpi\n        /* \"#utility.yul\":16399:16400   */\n      0x00\n        /* \"#utility.yul\":16396:16397   */\n      dup1\n        /* \"#utility.yul\":16389:16401   */\n      revert\n        /* \"#utility.yul\":16340:16403   */\n    tag_362:\n        /* \"#utility.yul\":16287:16409   */\n      pop\n      jump\t// out\n\n    auxdata: 0xa26469706673582212206fc182a180454972e8c7f40512cd8f83c3cb5a8426015e1930c6ac6b38cc320a64736f6c63430008070033\n}\n",
				"bytecode": {
					"linkReferences": {},
					"object": "608060405234801561001057600080fd5b5033600760006101000a81548173ffffffffffffffffffffffffffffffffffffffff021916908373ffffffffffffffffffffffffffffffffffffffff1602179055506611c37937e080006000819055506618de76816d8000600181905550662386f26fc100006002819055506123708061008b6000396000f3fe60806040526004361061008a5760003560e01c806398575188116100595780639857518814610584578063ab1dd063146105ad578063b90d3d0c146105c4578063ba03b06114610608578063d7554a681461061f576104e9565b806312065fe0146104ee5780638ca3c553146105195780638da5cb5b146105425780638e9a37dd1461056d576104e9565b366104e957600860003373ffffffffffffffffffffffffffffffffffffffff1673ffffffffffffffffffffffffffffffffffffffff16815260200190815260200160002060020160009054906101000a900473ffffffffffffffffffffffffffffffffffffffff1673ffffffffffffffffffffffffffffffffffffffff163373ffffffffffffffffffffffffffffffffffffffff161461015f576040517f08c379a000000000000000000000000000000000000000000000000000000000815260040161015690611ec0565b60405180910390fd5b600860003373ffffffffffffffffffffffffffffffffffffffff1673ffffffffffffffffffffffffffffffffffffffff16815260200190815260200160002060050160019054906101000a900460ff16156101ef576040517f08c379a00000000000000000000000000000000000000000000000000000000081526004016101e690611f40565b60405180910390fd5b600860003373ffffffffffffffffffffffffffffffffffffffff1673ffffffffffffffffffffffffffffffffffffffff168152602001908152602001600020600401543414610273576040517f08c379a000000000000000000000000000000000000000000000000000000000815260040161026a90611e80565b60405180910390fd5b60405180602001604052806000815250600860003373ffffffffffffffffffffffffffffffffffffffff1673ffffffffffffffffffffffffffffffffffffffff16815260200190815260200160002060030190805190602001906102d89291906119df565b506001600860003373ffffffffffffffffffffffffffffffffffffffff1673ffffffffffffffffffffffffffffffffffffffff16815260200190815260200160002060050160016101000a81548160ff0219169083151502179055506000600860003373ffffffffffffffffffffffffffffffffffffffff1673ffffffffffffffffffffffffffffffffffffffff168152602001908152602001600020600401819055506000600860003373ffffffffffffffffffffffffffffffffffffffff1673ffffffffffffffffffffffffffffffffffffffff16815260200190815260200160002060050160006101000a81548160ff02191690831515021790555060011515600860003373ffffffffffffffffffffffffffffffffffffffff1673ffffffffffffffffffffffffffffffffffffffff16815260200190815260200160002060050160019054906101000a900460ff16151514156104e757600860003373ffffffffffffffffffffffffffffffffffffffff1673ffffffffffffffffffffffffffffffffffffffff1681526020019081526020016000206006016000815480929190610486906120da565b91905055506000600860003373ffffffffffffffffffffffffffffffffffffffff1673ffffffffffffffffffffffffffffffffffffffff16815260200190815260200160002060050160016101000a81548160ff0219169083151502179055505b005b600080fd5b3480156104fa57600080fd5b50610503610648565b6040516105109190611f60565b60405180910390f35b34801561052557600080fd5b50610540600480360381019061053b9190611bff565b6106e0565b005b34801561054e57600080fd5b506105576109e9565b6040516105649190611dd2565b60405180910390f35b34801561057957600080fd5b50610582610a0f565b005b34801561059057600080fd5b506105ab60048036038101906105a69190611b47565b610cf7565b005b3480156105b957600080fd5b506105c2610e5b565b005b3480156105d057600080fd5b506105eb60048036038101906105e69190611b47565b611143565b6040516105ff989796959493929190611ded565b60405180910390f35b34801561061457600080fd5b5061061d61135d565b005b34801561062b57600080fd5b5061064660048036038101906106419190611b74565b611645565b005b6000600760009054906101000a900473ffffffffffffffffffffffffffffffffffffffff1673ffffffffffffffffffffffffffffffffffffffff163373ffffffffffffffffffffffffffffffffffffffff16146106da576040517f08c379a00000000000000000000000000000000000000000000000000000000081526004016106d190611f20565b60405180910390fd5b47905090565b600860003373ffffffffffffffffffffffffffffffffffffffff1673ffffffffffffffffffffffffffffffffffffffff16815260200190815260200160002060020160009054906101000a900473ffffffffffffffffffffffffffffffffffffffff1673ffffffffffffffffffffffffffffffffffffffff163373ffffffffffffffffffffffffffffffffffffffff1614156107b1576040517f08c379a00000000000000000000000000000000000000000000000000000000081526004016107a890611ee0565b60405180910390fd5b6040518061010001604052808381526020018281526020013373ffffffffffffffffffffffffffffffffffffffff168152602001600380546107f290612077565b80601f016020809104026020016040519081016040528092919081815260200182805461081e90612077565b801561086b5780601f106108405761010080835404028352916020019161086b565b820191906000526020600020905b81548152906001019060200180831161084e57829003601f168201915b505050505081526020016004548152602001600560009054906101000a900460ff1615158152602001600560019054906101000a900460ff1615158152602001600654815250600860003373ffffffffffffffffffffffffffffffffffffffff1673ffffffffffffffffffffffffffffffffffffffff168152602001908152602001600020600082015181600001908051906020019061090c9291906119df565b5060208201518160010190805190602001906109299291906119df565b5060408201518160020160006101000a81548173ffffffffffffffffffffffffffffffffffffffff021916908373ffffffffffffffffffffffffffffffffffffffff160217905550606082015181600301908051906020019061098d9291906119df565b506080820151816004015560a08201518160050160006101000a81548160ff02191690831515021790555060c08201518160050160016101000a81548160ff02191690831515021790555060e082015181600601559050505050565b600760009054906101000a900473ffffffffffffffffffffffffffffffffffffffff1681565b600860003373ffffffffffffffffffffffffffffffffffffffff1673ffffffffffffffffffffffffffffffffffffffff16815260200190815260200160002060020160009054906101000a900473ffffffffffffffffffffffffffffffffffffffff1673ffffffffffffffffffffffffffffffffffffffff163373ffffffffffffffffffffffffffffffffffffffff1614610adf576040517f08c379a0000000000000000000000000000000000000000000000000000000008152600401610ad690611ec0565b60405180910390fd5b600860003373ffffffffffffffffffffffffffffffffffffffff1673ffffffffffffffffffffffffffffffffffffffff16815260200190815260200160002060050160009054906101000a900460ff1615610b6f576040517f08c379a0000000000000000000000000000000000000000000000000000000008152600401610b6690611f00565b60405180910390fd5b6001600960006101000a81548160ff02191690836002811115610b9557610b94612152565b5b02179055506001600960009054906101000a900460ff166002811115610bbe57610bbd612152565b5b1415610cf5576040518060400160405280600d81526020017f45636f6e6f6d7920436c61737300000000000000000000000000000000000000815250600860003373ffffffffffffffffffffffffffffffffffffffff1673ffffffffffffffffffffffffffffffffffffffff1681526020019081526020016000206003019080519060200190610c4f9291906119df565b50600054600860003373ffffffffffffffffffffffffffffffffffffffff1673ffffffffffffffffffffffffffffffffffffffff168152602001908152602001600020600401819055506001600860003373ffffffffffffffffffffffffffffffffffffffff1673ffffffffffffffffffffffffffffffffffffffff16815260200190815260200160002060050160006101000a81548160ff0219169083151502179055505b565b600760009054906101000a900473ffffffffffffffffffffffffffffffffffffffff1673ffffffffffffffffffffffffffffffffffffffff163373ffffffffffffffffffffffffffffffffffffffff1614610d87576040517f08c379a0000000000000000000000000000000000000000000000000000000008152600401610d7e90611f20565b60405180910390fd5b600860008273ffffffffffffffffffffffffffffffffffffffff1673ffffffffffffffffffffffffffffffffffffffff16815260200190815260200160002060008082016000610dd79190611a65565b600182016000610de79190611a65565b6002820160006101000a81549073ffffffffffffffffffffffffffffffffffffffff0219169055600382016000610e1e9190611a65565b60048201600090556005820160006101000a81549060ff02191690556005820160016101000a81549060ff02191690556006820160009055505050565b600860003373ffffffffffffffffffffffffffffffffffffffff1673ffffffffffffffffffffffffffffffffffffffff16815260200190815260200160002060020160009054906101000a900473ffffffffffffffffffffffffffffffffffffffff1673ffffffffffffffffffffffffffffffffffffffff163373ffffffffffffffffffffffffffffffffffffffff1614610f2b576040517f08c379a0000000000000000000000000000000000000000000000000000000008152600401610f2290611ec0565b60405180910390fd5b600860003373ffffffffffffffffffffffffffffffffffffffff1673ffffffffffffffffffffffffffffffffffffffff16815260200190815260200160002060050160009054906101000a900460ff1615610fbb576040517f08c379a0000000000000000000000000000000000000000000000000000000008152600401610fb290611f00565b60405180910390fd5b6002600960006101000a81548160ff02191690836002811115610fe157610fe0612152565b5b02179055506002600960009054906101000a900460ff16600281111561100a57611009612152565b5b1415611141576040518060400160405280600e81526020017f427573696e65737320436c617373000000000000000000000000000000000000815250600860003373ffffffffffffffffffffffffffffffffffffffff1673ffffffffffffffffffffffffffffffffffffffff168152602001908152602001600020600301908051906020019061109b9291906119df565b50600154600860003373ffffffffffffffffffffffffffffffffffffffff1673ffffffffffffffffffffffffffffffffffffffff168152602001908152602001600020600401819055506001600860003373ffffffffffffffffffffffffffffffffffffffff1673ffffffffffffffffffffffffffffffffffffffff16815260200190815260200160002060050160006101000a81548160ff0219169083151502179055505b565b600860205280600052604060002060009150905080600001805461116690612077565b80601f016020809104026020016040519081016040528092919081815260200182805461119290612077565b80156111df5780601f106111b4576101008083540402835291602001916111df565b820191906000526020600020905b8154815290600101906020018083116111c257829003601f168201915b5050505050908060010180546111f490612077565b80601f016020809104026020016040519081016040528092919081815260200182805461122090612077565b801561126d5780601f106112425761010080835404028352916020019161126d565b820191906000526020600020905b81548152906001019060200180831161125057829003601f168201915b5050505050908060020160009054906101000a900473ffffffffffffffffffffffffffffffffffffffff16908060030180546112a890612077565b80601f01602080910402602001604051908101604052809291908181526020018280546112d490612077565b80156113215780601f106112f657610100808354040283529160200191611321565b820191906000526020600020905b81548152906001019060200180831161130457829003601f168201915b5050505050908060040154908060050160009054906101000a900460ff16908060050160019054906101000a900460ff16908060060154905088565b600860003373ffffffffffffffffffffffffffffffffffffffff1673ffffffffffffffffffffffffffffffffffffffff16815260200190815260200160002060020160009054906101000a900473ffffffffffffffffffffffffffffffffffffffff1673ffffffffffffffffffffffffffffffffffffffff163373ffffffffffffffffffffffffffffffffffffffff161461142d576040517f08c379a000000000000000000000000000000000000000000000000000000000815260040161142490611ec0565b60405180910390fd5b600860003373ffffffffffffffffffffffffffffffffffffffff1673ffffffffffffffffffffffffffffffffffffffff16815260200190815260200160002060050160009054906101000a900460ff16156114bd576040517f08c379a00000000000000000000000000000000000000000000000000000000081526004016114b490611f00565b60405180910390fd5b6000600960006101000a81548160ff021916908360028111156114e3576114e2612152565b5b02179055506000600960009054906101000a900460ff16600281111561150c5761150b612152565b5b1415611643576040518060400160405280600b81526020017f466972737420436c617373000000000000000000000000000000000000000000815250600860003373ffffffffffffffffffffffffffffffffffffffff1673ffffffffffffffffffffffffffffffffffffffff168152602001908152602001600020600301908051906020019061159d9291906119df565b50600254600860003373ffffffffffffffffffffffffffffffffffffffff1673ffffffffffffffffffffffffffffffffffffffff168152602001908152602001600020600401819055506001600860003373ffffffffffffffffffffffffffffffffffffffff1673ffffffffffffffffffffffffffffffffffffffff16815260200190815260200160002060050160006101000a81548160ff0219169083151502179055505b565b600760009054906101000a900473ffffffffffffffffffffffffffffffffffffffff1673ffffffffffffffffffffffffffffffffffffffff163373ffffffffffffffffffffffffffffffffffffffff16146116d5576040517f08c379a00000000000000000000000000000000000000000000000000000000081526004016116cc90611f20565b60405180910390fd5b600860008473ffffffffffffffffffffffffffffffffffffffff1673ffffffffffffffffffffffffffffffffffffffff16815260200190815260200160002060020160009054906101000a900473ffffffffffffffffffffffffffffffffffffffff1673ffffffffffffffffffffffffffffffffffffffff168373ffffffffffffffffffffffffffffffffffffffff1614156117a6576040517f08c379a000000000000000000000000000000000000000000000000000000000815260040161179d90611ea0565b60405180910390fd5b6040518061010001604052808381526020018281526020013373ffffffffffffffffffffffffffffffffffffffff168152602001600380546117e790612077565b80601f016020809104026020016040519081016040528092919081815260200182805461181390612077565b80156118605780601f1061183557610100808354040283529160200191611860565b820191906000526020600020905b81548152906001019060200180831161184357829003601f168201915b505050505081526020016004548152602001600560009054906101000a900460ff1615158152602001600560019054906101000a900460ff1615158152602001600654815250600860008573ffffffffffffffffffffffffffffffffffffffff1673ffffffffffffffffffffffffffffffffffffffff16815260200190815260200160002060008201518160000190805190602001906119019291906119df565b50602082015181600101908051906020019061191e9291906119df565b5060408201518160020160006101000a81548173ffffffffffffffffffffffffffffffffffffffff021916908373ffffffffffffffffffffffffffffffffffffffff16021790555060608201518160030190805190602001906119829291906119df565b506080820151816004015560a08201518160050160006101000a81548160ff02191690831515021790555060c08201518160050160016101000a81548160ff02191690831515021790555060e08201518160060155905050505050565b8280546119eb90612077565b90600052602060002090601f016020900481019282611a0d5760008555611a54565b82601f10611a2657805160ff1916838001178555611a54565b82800160010185558215611a54579182015b82811115611a53578251825591602001919060010190611a38565b5b509050611a619190611aa5565b5090565b508054611a7190612077565b6000825580601f10611a835750611aa2565b601f016020900490600052602060002090810190611aa19190611aa5565b5b50565b5b80821115611abe576000816000905550600101611aa6565b5090565b6000611ad5611ad084611fa0565b611f7b565b905082815260208101848484011115611af157611af06121e4565b5b611afc848285612035565b509392505050565b600081359050611b1381612323565b92915050565b600082601f830112611b2e57611b2d6121df565b5b8135611b3e848260208601611ac2565b91505092915050565b600060208284031215611b5d57611b5c6121ee565b5b6000611b6b84828501611b04565b91505092915050565b600080600060608486031215611b8d57611b8c6121ee565b5b6000611b9b86828701611b04565b935050602084013567ffffffffffffffff811115611bbc57611bbb6121e9565b5b611bc886828701611b19565b925050604084013567ffffffffffffffff811115611be957611be86121e9565b5b611bf586828701611b19565b9150509250925092565b60008060408385031215611c1657611c156121ee565b5b600083013567ffffffffffffffff811115611c3457611c336121e9565b5b611c4085828601611b19565b925050602083013567ffffffffffffffff811115611c6157611c606121e9565b5b611c6d85828601611b19565b9150509250929050565b611c8081611fed565b82525050565b611c8f81611fff565b82525050565b6000611ca082611fd1565b611caa8185611fdc565b9350611cba818560208601612044565b611cc3816121f3565b840191505092915050565b6000611cdb601783611fdc565b9150611ce682612204565b602082019050919050565b6000611cfe601f83611fdc565b9150611d098261222d565b602082019050919050565b6000611d21601683611fdc565b9150611d2c82612256565b602082019050919050565b6000611d44601a83611fdc565b9150611d4f8261227f565b602082019050919050565b6000611d67601d83611fdc565b9150611d72826122a8565b602082019050919050565b6000611d8a601e83611fdc565b9150611d95826122d1565b602082019050919050565b6000611dad602083611fdc565b9150611db8826122fa565b602082019050919050565b611dcc8161202b565b82525050565b6000602082019050611de76000830184611c77565b92915050565b6000610100820190508181036000830152611e08818b611c95565b90508181036020830152611e1c818a611c95565b9050611e2b6040830189611c77565b8181036060830152611e3d8188611c95565b9050611e4c6080830187611dc3565b611e5960a0830186611c86565b611e6660c0830185611c86565b611e7360e0830184611dc3565b9998505050505050505050565b60006020820190508181036000830152611e9981611cce565b9050919050565b60006020820190508181036000830152611eb981611cf1565b9050919050565b60006020820190508181036000830152611ed981611d14565b9050919050565b60006020820190508181036000830152611ef981611d37565b9050919050565b60006020820190508181036000830152611f1981611d5a565b9050919050565b60006020820190508181036000830152611f3981611d7d565b9050919050565b60006020820190508181036000830152611f5981611da0565b9050919050565b6000602082019050611f756000830184611dc3565b92915050565b6000611f85611f96565b9050611f9182826120a9565b919050565b6000604051905090565b600067ffffffffffffffff821115611fbb57611fba6121b0565b5b611fc4826121f3565b9050602081019050919050565b600081519050919050565b600082825260208201905092915050565b6000611ff88261200b565b9050919050565b60008115159050919050565b600073ffffffffffffffffffffffffffffffffffffffff82169050919050565b6000819050919050565b82818337600083830152505050565b60005b83811015612062578082015181840152602081019050612047565b83811115612071576000848401525b50505050565b6000600282049050600182168061208f57607f821691505b602082108114156120a3576120a2612181565b5b50919050565b6120b2826121f3565b810181811067ffffffffffffffff821117156120d1576120d06121b0565b5b80604052505050565b60006120e58261202b565b91507fffffffffffffffffffffffffffffffffffffffffffffffffffffffffffffffff82141561211857612117612123565b5b600182019050919050565b7f4e487b7100000000000000000000000000000000000000000000000000000000600052601160045260246000fd5b7f4e487b7100000000000000000000000000000000000000000000000000000000600052602160045260246000fd5b7f4e487b7100000000000000000000000000000000000000000000000000000000600052602260045260246000fd5b7f4e487b7100000000000000000000000000000000000000000000000000000000600052604160045260246000fd5b600080fd5b600080fd5b600080fd5b600080fd5b6000601f19601f8301169050919050565b7f7061796d656e74206973206e6f742062616c616e636564000000000000000000600082015250565b7f74686973207573657220697320616c7265616479207265676973746572656400600082015250565b7f596f7520617265206e6f74207265676973746572656400000000000000000000600082015250565b7f596f752061726520616c72656164792072656769737465726564000000000000600082015250565b7f796f75206861766520616c726561647920626f6f6b206120636c617373000000600082015250565b7f796f7520617265206e6f7420616c6c6f77656420746f20646f20746861740000600082015250565b7f596f75206861766520616c726561647920706169642074686520616d6f756e74600082015250565b61232c81611fed565b811461233757600080fd5b5056fea26469706673582212206fc182a180454972e8c7f40512cd8f83c3cb5a8426015e1930c6ac6b38cc320a64736f6c63430008070033",
					"opcodes": "PUSH1 0x80 PUSH1 0x40 MSTORE CALLVALUE DUP1 ISZERO PUSH2 0x10 JUMPI PUSH1 0x0 DUP1 REVERT JUMPDEST POP CALLER PUSH1 0x7 PUSH1 0x0 PUSH2 0x100 EXP DUP2 SLOAD DUP2 PUSH20 0xFFFFFFFFFFFFFFFFFFFFFFFFFFFFFFFFFFFFFFFF MUL NOT AND SWAP1 DUP4 PUSH20 0xFFFFFFFFFFFFFFFFFFFFFFFFFFFFFFFFFFFFFFFF AND MUL OR SWAP1 SSTORE POP PUSH7 0x11C37937E08000 PUSH1 0x0 DUP2 SWAP1 SSTORE POP PUSH7 0x18DE76816D8000 PUSH1 0x1 DUP2 SWAP1 SSTORE POP PUSH7 0x2386F26FC10000 PUSH1 0x2 DUP2 SWAP1 SSTORE POP PUSH2 0x2370 DUP1 PUSH2 0x8B PUSH1 0x0 CODECOPY PUSH1 0x0 RETURN INVALID PUSH1 0x80 PUSH1 0x40 MSTORE PUSH1 0x4 CALLDATASIZE LT PUSH2 0x8A JUMPI PUSH1 0x0 CALLDATALOAD PUSH1 0xE0 SHR DUP1 PUSH4 0x98575188 GT PUSH2 0x59 JUMPI DUP1 PUSH4 0x98575188 EQ PUSH2 0x584 JUMPI DUP1 PUSH4 0xAB1DD063 EQ PUSH2 0x5AD JUMPI DUP1 PUSH4 0xB90D3D0C EQ PUSH2 0x5C4 JUMPI DUP1 PUSH4 0xBA03B061 EQ PUSH2 0x608 JUMPI DUP1 PUSH4 0xD7554A68 EQ PUSH2 0x61F JUMPI PUSH2 0x4E9 JUMP JUMPDEST DUP1 PUSH4 0x12065FE0 EQ PUSH2 0x4EE JUMPI DUP1 PUSH4 0x8CA3C553 EQ PUSH2 0x519 JUMPI DUP1 PUSH4 0x8DA5CB5B EQ PUSH2 0x542 JUMPI DUP1 PUSH4 0x8E9A37DD EQ PUSH2 0x56D JUMPI PUSH2 0x4E9 JUMP JUMPDEST CALLDATASIZE PUSH2 0x4E9 JUMPI PUSH1 0x8 PUSH1 0x0 CALLER PUSH20 0xFFFFFFFFFFFFFFFFFFFFFFFFFFFFFFFFFFFFFFFF AND PUSH20 0xFFFFFFFFFFFFFFFFFFFFFFFFFFFFFFFFFFFFFFFF AND DUP2 MSTORE PUSH1 0x20 ADD SWAP1 DUP2 MSTORE PUSH1 0x20 ADD PUSH1 0x0 KECCAK256 PUSH1 0x2 ADD PUSH1 0x0 SWAP1 SLOAD SWAP1 PUSH2 0x100 EXP SWAP1 DIV PUSH20 0xFFFFFFFFFFFFFFFFFFFFFFFFFFFFFFFFFFFFFFFF AND PUSH20 0xFFFFFFFFFFFFFFFFFFFFFFFFFFFFFFFFFFFFFFFF AND CALLER PUSH20 0xFFFFFFFFFFFFFFFFFFFFFFFFFFFFFFFFFFFFFFFF AND EQ PUSH2 0x15F JUMPI PUSH1 0x40 MLOAD PUSH32 0x8C379A000000000000000000000000000000000000000000000000000000000 DUP2 MSTORE PUSH1 0x4 ADD PUSH2 0x156 SWAP1 PUSH2 0x1EC0 JUMP JUMPDEST PUSH1 0x40 MLOAD DUP1 SWAP2 SUB SWAP1 REVERT JUMPDEST PUSH1 0x8 PUSH1 0x0 CALLER PUSH20 0xFFFFFFFFFFFFFFFFFFFFFFFFFFFFFFFFFFFFFFFF AND PUSH20 0xFFFFFFFFFFFFFFFFFFFFFFFFFFFFFFFFFFFFFFFF AND DUP2 MSTORE PUSH1 0x20 ADD SWAP1 DUP2 MSTORE PUSH1 0x20 ADD PUSH1 0x0 KECCAK256 PUSH1 0x5 ADD PUSH1 0x1 SWAP1 SLOAD SWAP1 PUSH2 0x100 EXP SWAP1 DIV PUSH1 0xFF AND ISZERO PUSH2 0x1EF JUMPI PUSH1 0x40 MLOAD PUSH32 0x8C379A000000000000000000000000000000000000000000000000000000000 DUP2 MSTORE PUSH1 0x4 ADD PUSH2 0x1E6 SWAP1 PUSH2 0x1F40 JUMP JUMPDEST PUSH1 0x40 MLOAD DUP1 SWAP2 SUB SWAP1 REVERT JUMPDEST PUSH1 0x8 PUSH1 0x0 CALLER PUSH20 0xFFFFFFFFFFFFFFFFFFFFFFFFFFFFFFFFFFFFFFFF AND PUSH20 0xFFFFFFFFFFFFFFFFFFFFFFFFFFFFFFFFFFFFFFFF AND DUP2 MSTORE PUSH1 0x20 ADD SWAP1 DUP2 MSTORE PUSH1 0x20 ADD PUSH1 0x0 KECCAK256 PUSH1 0x4 ADD SLOAD CALLVALUE EQ PUSH2 0x273 JUMPI PUSH1 0x40 MLOAD PUSH32 0x8C379A000000000000000000000000000000000000000000000000000000000 DUP2 MSTORE PUSH1 0x4 ADD PUSH2 0x26A SWAP1 PUSH2 0x1E80 JUMP JUMPDEST PUSH1 0x40 MLOAD DUP1 SWAP2 SUB SWAP1 REVERT JUMPDEST PUSH1 0x40 MLOAD DUP1 PUSH1 0x20 ADD PUSH1 0x40 MSTORE DUP1 PUSH1 0x0 DUP2 MSTORE POP PUSH1 0x8 PUSH1 0x0 CALLER PUSH20 0xFFFFFFFFFFFFFFFFFFFFFFFFFFFFFFFFFFFFFFFF AND PUSH20 0xFFFFFFFFFFFFFFFFFFFFFFFFFFFFFFFFFFFFFFFF AND DUP2 MSTORE PUSH1 0x20 ADD SWAP1 DUP2 MSTORE PUSH1 0x20 ADD PUSH1 0x0 KECCAK256 PUSH1 0x3 ADD SWAP1 DUP1 MLOAD SWAP1 PUSH1 0x20 ADD SWAP1 PUSH2 0x2D8 SWAP3 SWAP2 SWAP1 PUSH2 0x19DF JUMP JUMPDEST POP PUSH1 0x1 PUSH1 0x8 PUSH1 0x0 CALLER PUSH20 0xFFFFFFFFFFFFFFFFFFFFFFFFFFFFFFFFFFFFFFFF AND PUSH20 0xFFFFFFFFFFFFFFFFFFFFFFFFFFFFFFFFFFFFFFFF AND DUP2 MSTORE PUSH1 0x20 ADD SWAP1 DUP2 MSTORE PUSH1 0x20 ADD PUSH1 0x0 KECCAK256 PUSH1 0x5 ADD PUSH1 0x1 PUSH2 0x100 EXP DUP2 SLOAD DUP2 PUSH1 0xFF MUL NOT AND SWAP1 DUP4 ISZERO ISZERO MUL OR SWAP1 SSTORE POP PUSH1 0x0 PUSH1 0x8 PUSH1 0x0 CALLER PUSH20 0xFFFFFFFFFFFFFFFFFFFFFFFFFFFFFFFFFFFFFFFF AND PUSH20 0xFFFFFFFFFFFFFFFFFFFFFFFFFFFFFFFFFFFFFFFF AND DUP2 MSTORE PUSH1 0x20 ADD SWAP1 DUP2 MSTORE PUSH1 0x20 ADD PUSH1 0x0 KECCAK256 PUSH1 0x4 ADD DUP2 SWAP1 SSTORE POP PUSH1 0x0 PUSH1 0x8 PUSH1 0x0 CALLER PUSH20 0xFFFFFFFFFFFFFFFFFFFFFFFFFFFFFFFFFFFFFFFF AND PUSH20 0xFFFFFFFFFFFFFFFFFFFFFFFFFFFFFFFFFFFFFFFF AND DUP2 MSTORE PUSH1 0x20 ADD SWAP1 DUP2 MSTORE PUSH1 0x20 ADD PUSH1 0x0 KECCAK256 PUSH1 0x5 ADD PUSH1 0x0 PUSH2 0x100 EXP DUP2 SLOAD DUP2 PUSH1 0xFF MUL NOT AND SWAP1 DUP4 ISZERO ISZERO MUL OR SWAP1 SSTORE POP PUSH1 0x1 ISZERO ISZERO PUSH1 0x8 PUSH1 0x0 CALLER PUSH20 0xFFFFFFFFFFFFFFFFFFFFFFFFFFFFFFFFFFFFFFFF AND PUSH20 0xFFFFFFFFFFFFFFFFFFFFFFFFFFFFFFFFFFFFFFFF AND DUP2 MSTORE PUSH1 0x20 ADD SWAP1 DUP2 MSTORE PUSH1 0x20 ADD PUSH1 0x0 KECCAK256 PUSH1 0x5 ADD PUSH1 0x1 SWAP1 SLOAD SWAP1 PUSH2 0x100 EXP SWAP1 DIV PUSH1 0xFF AND ISZERO ISZERO EQ ISZERO PUSH2 0x4E7 JUMPI PUSH1 0x8 PUSH1 0x0 CALLER PUSH20 0xFFFFFFFFFFFFFFFFFFFFFFFFFFFFFFFFFFFFFFFF AND PUSH20 0xFFFFFFFFFFFFFFFFFFFFFFFFFFFFFFFFFFFFFFFF AND DUP2 MSTORE PUSH1 0x20 ADD SWAP1 DUP2 MSTORE PUSH1 0x20 ADD PUSH1 0x0 KECCAK256 PUSH1 0x6 ADD PUSH1 0x0 DUP2 SLOAD DUP1 SWAP3 SWAP2 SWAP1 PUSH2 0x486 SWAP1 PUSH2 0x20DA JUMP JUMPDEST SWAP2 SWAP1 POP SSTORE POP PUSH1 0x0 PUSH1 0x8 PUSH1 0x0 CALLER PUSH20 0xFFFFFFFFFFFFFFFFFFFFFFFFFFFFFFFFFFFFFFFF AND PUSH20 0xFFFFFFFFFFFFFFFFFFFFFFFFFFFFFFFFFFFFFFFF AND DUP2 MSTORE PUSH1 0x20 ADD SWAP1 DUP2 MSTORE PUSH1 0x20 ADD PUSH1 0x0 KECCAK256 PUSH1 0x5 ADD PUSH1 0x1 PUSH2 0x100 EXP DUP2 SLOAD DUP2 PUSH1 0xFF MUL NOT AND SWAP1 DUP4 ISZERO ISZERO MUL OR SWAP1 SSTORE POP JUMPDEST STOP JUMPDEST PUSH1 0x0 DUP1 REVERT JUMPDEST CALLVALUE DUP1 ISZERO PUSH2 0x4FA JUMPI PUSH1 0x0 DUP1 REVERT JUMPDEST POP PUSH2 0x503 PUSH2 0x648 JUMP JUMPDEST PUSH1 0x40 MLOAD PUSH2 0x510 SWAP2 SWAP1 PUSH2 0x1F60 JUMP JUMPDEST PUSH1 0x40 MLOAD DUP1 SWAP2 SUB SWAP1 RETURN JUMPDEST CALLVALUE DUP1 ISZERO PUSH2 0x525 JUMPI PUSH1 0x0 DUP1 REVERT JUMPDEST POP PUSH2 0x540 PUSH1 0x4 DUP1 CALLDATASIZE SUB DUP2 ADD SWAP1 PUSH2 0x53B SWAP2 SWAP1 PUSH2 0x1BFF JUMP JUMPDEST PUSH2 0x6E0 JUMP JUMPDEST STOP JUMPDEST CALLVALUE DUP1 ISZERO PUSH2 0x54E JUMPI PUSH1 0x0 DUP1 REVERT JUMPDEST POP PUSH2 0x557 PUSH2 0x9E9 JUMP JUMPDEST PUSH1 0x40 MLOAD PUSH2 0x564 SWAP2 SWAP1 PUSH2 0x1DD2 JUMP JUMPDEST PUSH1 0x40 MLOAD DUP1 SWAP2 SUB SWAP1 RETURN JUMPDEST CALLVALUE DUP1 ISZERO PUSH2 0x579 JUMPI PUSH1 0x0 DUP1 REVERT JUMPDEST POP PUSH2 0x582 PUSH2 0xA0F JUMP JUMPDEST STOP JUMPDEST CALLVALUE DUP1 ISZERO PUSH2 0x590 JUMPI PUSH1 0x0 DUP1 REVERT JUMPDEST POP PUSH2 0x5AB PUSH1 0x4 DUP1 CALLDATASIZE SUB DUP2 ADD SWAP1 PUSH2 0x5A6 SWAP2 SWAP1 PUSH2 0x1B47 JUMP JUMPDEST PUSH2 0xCF7 JUMP JUMPDEST STOP JUMPDEST CALLVALUE DUP1 ISZERO PUSH2 0x5B9 JUMPI PUSH1 0x0 DUP1 REVERT JUMPDEST POP PUSH2 0x5C2 PUSH2 0xE5B JUMP JUMPDEST STOP JUMPDEST CALLVALUE DUP1 ISZERO PUSH2 0x5D0 JUMPI PUSH1 0x0 DUP1 REVERT JUMPDEST POP PUSH2 0x5EB PUSH1 0x4 DUP1 CALLDATASIZE SUB DUP2 ADD SWAP1 PUSH2 0x5E6 SWAP2 SWAP1 PUSH2 0x1B47 JUMP JUMPDEST PUSH2 0x1143 JUMP JUMPDEST PUSH1 0x40 MLOAD PUSH2 0x5FF SWAP9 SWAP8 SWAP7 SWAP6 SWAP5 SWAP4 SWAP3 SWAP2 SWAP1 PUSH2 0x1DED JUMP JUMPDEST PUSH1 0x40 MLOAD DUP1 SWAP2 SUB SWAP1 RETURN JUMPDEST CALLVALUE DUP1 ISZERO PUSH2 0x614 JUMPI PUSH1 0x0 DUP1 REVERT JUMPDEST POP PUSH2 0x61D PUSH2 0x135D JUMP JUMPDEST STOP JUMPDEST CALLVALUE DUP1 ISZERO PUSH2 0x62B JUMPI PUSH1 0x0 DUP1 REVERT JUMPDEST POP PUSH2 0x646 PUSH1 0x4 DUP1 CALLDATASIZE SUB DUP2 ADD SWAP1 PUSH2 0x641 SWAP2 SWAP1 PUSH2 0x1B74 JUMP JUMPDEST PUSH2 0x1645 JUMP JUMPDEST STOP JUMPDEST PUSH1 0x0 PUSH1 0x7 PUSH1 0x0 SWAP1 SLOAD SWAP1 PUSH2 0x100 EXP SWAP1 DIV PUSH20 0xFFFFFFFFFFFFFFFFFFFFFFFFFFFFFFFFFFFFFFFF AND PUSH20 0xFFFFFFFFFFFFFFFFFFFFFFFFFFFFFFFFFFFFFFFF AND CALLER PUSH20 0xFFFFFFFFFFFFFFFFFFFFFFFFFFFFFFFFFFFFFFFF AND EQ PUSH2 0x6DA JUMPI PUSH1 0x40 MLOAD PUSH32 0x8C379A000000000000000000000000000000000000000000000000000000000 DUP2 MSTORE PUSH1 0x4 ADD PUSH2 0x6D1 SWAP1 PUSH2 0x1F20 JUMP JUMPDEST PUSH1 0x40 MLOAD DUP1 SWAP2 SUB SWAP1 REVERT JUMPDEST SELFBALANCE SWAP1 POP SWAP1 JUMP JUMPDEST PUSH1 0x8 PUSH1 0x0 CALLER PUSH20 0xFFFFFFFFFFFFFFFFFFFFFFFFFFFFFFFFFFFFFFFF AND PUSH20 0xFFFFFFFFFFFFFFFFFFFFFFFFFFFFFFFFFFFFFFFF AND DUP2 MSTORE PUSH1 0x20 ADD SWAP1 DUP2 MSTORE PUSH1 0x20 ADD PUSH1 0x0 KECCAK256 PUSH1 0x2 ADD PUSH1 0x0 SWAP1 SLOAD SWAP1 PUSH2 0x100 EXP SWAP1 DIV PUSH20 0xFFFFFFFFFFFFFFFFFFFFFFFFFFFFFFFFFFFFFFFF AND PUSH20 0xFFFFFFFFFFFFFFFFFFFFFFFFFFFFFFFFFFFFFFFF AND CALLER PUSH20 0xFFFFFFFFFFFFFFFFFFFFFFFFFFFFFFFFFFFFFFFF AND EQ ISZERO PUSH2 0x7B1 JUMPI PUSH1 0x40 MLOAD PUSH32 0x8C379A000000000000000000000000000000000000000000000000000000000 DUP2 MSTORE PUSH1 0x4 ADD PUSH2 0x7A8 SWAP1 PUSH2 0x1EE0 JUMP JUMPDEST PUSH1 0x40 MLOAD DUP1 SWAP2 SUB SWAP1 REVERT JUMPDEST PUSH1 0x40 MLOAD DUP1 PUSH2 0x100 ADD PUSH1 0x40 MSTORE DUP1 DUP4 DUP2 MSTORE PUSH1 0x20 ADD DUP3 DUP2 MSTORE PUSH1 0x20 ADD CALLER PUSH20 0xFFFFFFFFFFFFFFFFFFFFFFFFFFFFFFFFFFFFFFFF AND DUP2 MSTORE PUSH1 0x20 ADD PUSH1 0x3 DUP1 SLOAD PUSH2 0x7F2 SWAP1 PUSH2 0x2077 JUMP JUMPDEST DUP1 PUSH1 0x1F ADD PUSH1 0x20 DUP1 SWAP2 DIV MUL PUSH1 0x20 ADD PUSH1 0x40 MLOAD SWAP1 DUP2 ADD PUSH1 0x40 MSTORE DUP1 SWAP3 SWAP2 SWAP1 DUP2 DUP2 MSTORE PUSH1 0x20 ADD DUP3 DUP1 SLOAD PUSH2 0x81E SWAP1 PUSH2 0x2077 JUMP JUMPDEST DUP1 ISZERO PUSH2 0x86B JUMPI DUP1 PUSH1 0x1F LT PUSH2 0x840 JUMPI PUSH2 0x100 DUP1 DUP4 SLOAD DIV MUL DUP4 MSTORE SWAP2 PUSH1 0x20 ADD SWAP2 PUSH2 0x86B JUMP JUMPDEST DUP3 ADD SWAP2 SWAP1 PUSH1 0x0 MSTORE PUSH1 0x20 PUSH1 0x0 KECCAK256 SWAP1 JUMPDEST DUP2 SLOAD DUP2 MSTORE SWAP1 PUSH1 0x1 ADD SWAP1 PUSH1 0x20 ADD DUP1 DUP4 GT PUSH2 0x84E JUMPI DUP3 SWAP1 SUB PUSH1 0x1F AND DUP3 ADD SWAP2 JUMPDEST POP POP POP POP POP DUP2 MSTORE PUSH1 0x20 ADD PUSH1 0x4 SLOAD DUP2 MSTORE PUSH1 0x20 ADD PUSH1 0x5 PUSH1 0x0 SWAP1 SLOAD SWAP1 PUSH2 0x100 EXP SWAP1 DIV PUSH1 0xFF AND ISZERO ISZERO DUP2 MSTORE PUSH1 0x20 ADD PUSH1 0x5 PUSH1 0x1 SWAP1 SLOAD SWAP1 PUSH2 0x100 EXP SWAP1 DIV PUSH1 0xFF AND ISZERO ISZERO DUP2 MSTORE PUSH1 0x20 ADD PUSH1 0x6 SLOAD DUP2 MSTORE POP PUSH1 0x8 PUSH1 0x0 CALLER PUSH20 0xFFFFFFFFFFFFFFFFFFFFFFFFFFFFFFFFFFFFFFFF AND PUSH20 0xFFFFFFFFFFFFFFFFFFFFFFFFFFFFFFFFFFFFFFFF AND DUP2 MSTORE PUSH1 0x20 ADD SWAP1 DUP2 MSTORE PUSH1 0x20 ADD PUSH1 0x0 KECCAK256 PUSH1 0x0 DUP3 ADD MLOAD DUP2 PUSH1 0x0 ADD SWAP1 DUP1 MLOAD SWAP1 PUSH1 0x20 ADD SWAP1 PUSH2 0x90C SWAP3 SWAP2 SWAP1 PUSH2 0x19DF JUMP JUMPDEST POP PUSH1 0x20 DUP3 ADD MLOAD DUP2 PUSH1 0x1 ADD SWAP1 DUP1 MLOAD SWAP1 PUSH1 0x20 ADD SWAP1 PUSH2 0x929 SWAP3 SWAP2 SWAP1 PUSH2 0x19DF JUMP JUMPDEST POP PUSH1 0x40 DUP3 ADD MLOAD DUP2 PUSH1 0x2 ADD PUSH1 0x0 PUSH2 0x100 EXP DUP2 SLOAD DUP2 PUSH20 0xFFFFFFFFFFFFFFFFFFFFFFFFFFFFFFFFFFFFFFFF MUL NOT AND SWAP1 DUP4 PUSH20 0xFFFFFFFFFFFFFFFFFFFFFFFFFFFFFFFFFFFFFFFF AND MUL OR SWAP1 SSTORE POP PUSH1 0x60 DUP3 ADD MLOAD DUP2 PUSH1 0x3 ADD SWAP1 DUP1 MLOAD SWAP1 PUSH1 0x20 ADD SWAP1 PUSH2 0x98D SWAP3 SWAP2 SWAP1 PUSH2 0x19DF JUMP JUMPDEST POP PUSH1 0x80 DUP3 ADD MLOAD DUP2 PUSH1 0x4 ADD SSTORE PUSH1 0xA0 DUP3 ADD MLOAD DUP2 PUSH1 0x5 ADD PUSH1 0x0 PUSH2 0x100 EXP DUP2 SLOAD DUP2 PUSH1 0xFF MUL NOT AND SWAP1 DUP4 ISZERO ISZERO MUL OR SWAP1 SSTORE POP PUSH1 0xC0 DUP3 ADD MLOAD DUP2 PUSH1 0x5 ADD PUSH1 0x1 PUSH2 0x100 EXP DUP2 SLOAD DUP2 PUSH1 0xFF MUL NOT AND SWAP1 DUP4 ISZERO ISZERO MUL OR SWAP1 SSTORE POP PUSH1 0xE0 DUP3 ADD MLOAD DUP2 PUSH1 0x6 ADD SSTORE SWAP1 POP POP POP POP JUMP JUMPDEST PUSH1 0x7 PUSH1 0x0 SWAP1 SLOAD SWAP1 PUSH2 0x100 EXP SWAP1 DIV PUSH20 0xFFFFFFFFFFFFFFFFFFFFFFFFFFFFFFFFFFFFFFFF AND DUP2 JUMP JUMPDEST PUSH1 0x8 PUSH1 0x0 CALLER PUSH20 0xFFFFFFFFFFFFFFFFFFFFFFFFFFFFFFFFFFFFFFFF AND PUSH20 0xFFFFFFFFFFFFFFFFFFFFFFFFFFFFFFFFFFFFFFFF AND DUP2 MSTORE PUSH1 0x20 ADD SWAP1 DUP2 MSTORE PUSH1 0x20 ADD PUSH1 0x0 KECCAK256 PUSH1 0x2 ADD PUSH1 0x0 SWAP1 SLOAD SWAP1 PUSH2 0x100 EXP SWAP1 DIV PUSH20 0xFFFFFFFFFFFFFFFFFFFFFFFFFFFFFFFFFFFFFFFF AND PUSH20 0xFFFFFFFFFFFFFFFFFFFFFFFFFFFFFFFFFFFFFFFF AND CALLER PUSH20 0xFFFFFFFFFFFFFFFFFFFFFFFFFFFFFFFFFFFFFFFF AND EQ PUSH2 0xADF JUMPI PUSH1 0x40 MLOAD PUSH32 0x8C379A000000000000000000000000000000000000000000000000000000000 DUP2 MSTORE PUSH1 0x4 ADD PUSH2 0xAD6 SWAP1 PUSH2 0x1EC0 JUMP JUMPDEST PUSH1 0x40 MLOAD DUP1 SWAP2 SUB SWAP1 REVERT JUMPDEST PUSH1 0x8 PUSH1 0x0 CALLER PUSH20 0xFFFFFFFFFFFFFFFFFFFFFFFFFFFFFFFFFFFFFFFF AND PUSH20 0xFFFFFFFFFFFFFFFFFFFFFFFFFFFFFFFFFFFFFFFF AND DUP2 MSTORE PUSH1 0x20 ADD SWAP1 DUP2 MSTORE PUSH1 0x20 ADD PUSH1 0x0 KECCAK256 PUSH1 0x5 ADD PUSH1 0x0 SWAP1 SLOAD SWAP1 PUSH2 0x100 EXP SWAP1 DIV PUSH1 0xFF AND ISZERO PUSH2 0xB6F JUMPI PUSH1 0x40 MLOAD PUSH32 0x8C379A000000000000000000000000000000000000000000000000000000000 DUP2 MSTORE PUSH1 0x4 ADD PUSH2 0xB66 SWAP1 PUSH2 0x1F00 JUMP JUMPDEST PUSH1 0x40 MLOAD DUP1 SWAP2 SUB SWAP1 REVERT JUMPDEST PUSH1 0x1 PUSH1 0x9 PUSH1 0x0 PUSH2 0x100 EXP DUP2 SLOAD DUP2 PUSH1 0xFF MUL NOT AND SWAP1 DUP4 PUSH1 0x2 DUP2 GT ISZERO PUSH2 0xB95 JUMPI PUSH2 0xB94 PUSH2 0x2152 JUMP JUMPDEST JUMPDEST MUL OR SWAP1 SSTORE POP PUSH1 0x1 PUSH1 0x9 PUSH1 0x0 SWAP1 SLOAD SWAP1 PUSH2 0x100 EXP SWAP1 DIV PUSH1 0xFF AND PUSH1 0x2 DUP2 GT ISZERO PUSH2 0xBBE JUMPI PUSH2 0xBBD PUSH2 0x2152 JUMP JUMPDEST JUMPDEST EQ ISZERO PUSH2 0xCF5 JUMPI PUSH1 0x40 MLOAD DUP1 PUSH1 0x40 ADD PUSH1 0x40 MSTORE DUP1 PUSH1 0xD DUP2 MSTORE PUSH1 0x20 ADD PUSH32 0x45636F6E6F6D7920436C61737300000000000000000000000000000000000000 DUP2 MSTORE POP PUSH1 0x8 PUSH1 0x0 CALLER PUSH20 0xFFFFFFFFFFFFFFFFFFFFFFFFFFFFFFFFFFFFFFFF AND PUSH20 0xFFFFFFFFFFFFFFFFFFFFFFFFFFFFFFFFFFFFFFFF AND DUP2 MSTORE PUSH1 0x20 ADD SWAP1 DUP2 MSTORE PUSH1 0x20 ADD PUSH1 0x0 KECCAK256 PUSH1 0x3 ADD SWAP1 DUP1 MLOAD SWAP1 PUSH1 0x20 ADD SWAP1 PUSH2 0xC4F SWAP3 SWAP2 SWAP1 PUSH2 0x19DF JUMP JUMPDEST POP PUSH1 0x0 SLOAD PUSH1 0x8 PUSH1 0x0 CALLER PUSH20 0xFFFFFFFFFFFFFFFFFFFFFFFFFFFFFFFFFFFFFFFF AND PUSH20 0xFFFFFFFFFFFFFFFFFFFFFFFFFFFFFFFFFFFFFFFF AND DUP2 MSTORE PUSH1 0x20 ADD SWAP1 DUP2 MSTORE PUSH1 0x20 ADD PUSH1 0x0 KECCAK256 PUSH1 0x4 ADD DUP2 SWAP1 SSTORE POP PUSH1 0x1 PUSH1 0x8 PUSH1 0x0 CALLER PUSH20 0xFFFFFFFFFFFFFFFFFFFFFFFFFFFFFFFFFFFFFFFF AND PUSH20 0xFFFFFFFFFFFFFFFFFFFFFFFFFFFFFFFFFFFFFFFF AND DUP2 MSTORE PUSH1 0x20 ADD SWAP1 DUP2 MSTORE PUSH1 0x20 ADD PUSH1 0x0 KECCAK256 PUSH1 0x5 ADD PUSH1 0x0 PUSH2 0x100 EXP DUP2 SLOAD DUP2 PUSH1 0xFF MUL NOT AND SWAP1 DUP4 ISZERO ISZERO MUL OR SWAP1 SSTORE POP JUMPDEST JUMP JUMPDEST PUSH1 0x7 PUSH1 0x0 SWAP1 SLOAD SWAP1 PUSH2 0x100 EXP SWAP1 DIV PUSH20 0xFFFFFFFFFFFFFFFFFFFFFFFFFFFFFFFFFFFFFFFF AND PUSH20 0xFFFFFFFFFFFFFFFFFFFFFFFFFFFFFFFFFFFFFFFF AND CALLER PUSH20 0xFFFFFFFFFFFFFFFFFFFFFFFFFFFFFFFFFFFFFFFF AND EQ PUSH2 0xD87 JUMPI PUSH1 0x40 MLOAD PUSH32 0x8C379A000000000000000000000000000000000000000000000000000000000 DUP2 MSTORE PUSH1 0x4 ADD PUSH2 0xD7E SWAP1 PUSH2 0x1F20 JUMP JUMPDEST PUSH1 0x40 MLOAD DUP1 SWAP2 SUB SWAP1 REVERT JUMPDEST PUSH1 0x8 PUSH1 0x0 DUP3 PUSH20 0xFFFFFFFFFFFFFFFFFFFFFFFFFFFFFFFFFFFFFFFF AND PUSH20 0xFFFFFFFFFFFFFFFFFFFFFFFFFFFFFFFFFFFFFFFF AND DUP2 MSTORE PUSH1 0x20 ADD SWAP1 DUP2 MSTORE PUSH1 0x20 ADD PUSH1 0x0 KECCAK256 PUSH1 0x0 DUP1 DUP3 ADD PUSH1 0x0 PUSH2 0xDD7 SWAP2 SWAP1 PUSH2 0x1A65 JUMP JUMPDEST PUSH1 0x1 DUP3 ADD PUSH1 0x0 PUSH2 0xDE7 SWAP2 SWAP1 PUSH2 0x1A65 JUMP JUMPDEST PUSH1 0x2 DUP3 ADD PUSH1 0x0 PUSH2 0x100 EXP DUP2 SLOAD SWAP1 PUSH20 0xFFFFFFFFFFFFFFFFFFFFFFFFFFFFFFFFFFFFFFFF MUL NOT AND SWAP1 SSTORE PUSH1 0x3 DUP3 ADD PUSH1 0x0 PUSH2 0xE1E SWAP2 SWAP1 PUSH2 0x1A65 JUMP JUMPDEST PUSH1 0x4 DUP3 ADD PUSH1 0x0 SWAP1 SSTORE PUSH1 0x5 DUP3 ADD PUSH1 0x0 PUSH2 0x100 EXP DUP2 SLOAD SWAP1 PUSH1 0xFF MUL NOT AND SWAP1 SSTORE PUSH1 0x5 DUP3 ADD PUSH1 0x1 PUSH2 0x100 EXP DUP2 SLOAD SWAP1 PUSH1 0xFF MUL NOT AND SWAP1 SSTORE PUSH1 0x6 DUP3 ADD PUSH1 0x0 SWAP1 SSTORE POP POP POP JUMP JUMPDEST PUSH1 0x8 PUSH1 0x0 CALLER PUSH20 0xFFFFFFFFFFFFFFFFFFFFFFFFFFFFFFFFFFFFFFFF AND PUSH20 0xFFFFFFFFFFFFFFFFFFFFFFFFFFFFFFFFFFFFFFFF AND DUP2 MSTORE PUSH1 0x20 ADD SWAP1 DUP2 MSTORE PUSH1 0x20 ADD PUSH1 0x0 KECCAK256 PUSH1 0x2 ADD PUSH1 0x0 SWAP1 SLOAD SWAP1 PUSH2 0x100 EXP SWAP1 DIV PUSH20 0xFFFFFFFFFFFFFFFFFFFFFFFFFFFFFFFFFFFFFFFF AND PUSH20 0xFFFFFFFFFFFFFFFFFFFFFFFFFFFFFFFFFFFFFFFF AND CALLER PUSH20 0xFFFFFFFFFFFFFFFFFFFFFFFFFFFFFFFFFFFFFFFF AND EQ PUSH2 0xF2B JUMPI PUSH1 0x40 MLOAD PUSH32 0x8C379A000000000000000000000000000000000000000000000000000000000 DUP2 MSTORE PUSH1 0x4 ADD PUSH2 0xF22 SWAP1 PUSH2 0x1EC0 JUMP JUMPDEST PUSH1 0x40 MLOAD DUP1 SWAP2 SUB SWAP1 REVERT JUMPDEST PUSH1 0x8 PUSH1 0x0 CALLER PUSH20 0xFFFFFFFFFFFFFFFFFFFFFFFFFFFFFFFFFFFFFFFF AND PUSH20 0xFFFFFFFFFFFFFFFFFFFFFFFFFFFFFFFFFFFFFFFF AND DUP2 MSTORE PUSH1 0x20 ADD SWAP1 DUP2 MSTORE PUSH1 0x20 ADD PUSH1 0x0 KECCAK256 PUSH1 0x5 ADD PUSH1 0x0 SWAP1 SLOAD SWAP1 PUSH2 0x100 EXP SWAP1 DIV PUSH1 0xFF AND ISZERO PUSH2 0xFBB JUMPI PUSH1 0x40 MLOAD PUSH32 0x8C379A000000000000000000000000000000000000000000000000000000000 DUP2 MSTORE PUSH1 0x4 ADD PUSH2 0xFB2 SWAP1 PUSH2 0x1F00 JUMP JUMPDEST PUSH1 0x40 MLOAD DUP1 SWAP2 SUB SWAP1 REVERT JUMPDEST PUSH1 0x2 PUSH1 0x9 PUSH1 0x0 PUSH2 0x100 EXP DUP2 SLOAD DUP2 PUSH1 0xFF MUL NOT AND SWAP1 DUP4 PUSH1 0x2 DUP2 GT ISZERO PUSH2 0xFE1 JUMPI PUSH2 0xFE0 PUSH2 0x2152 JUMP JUMPDEST JUMPDEST MUL OR SWAP1 SSTORE POP PUSH1 0x2 PUSH1 0x9 PUSH1 0x0 SWAP1 SLOAD SWAP1 PUSH2 0x100 EXP SWAP1 DIV PUSH1 0xFF AND PUSH1 0x2 DUP2 GT ISZERO PUSH2 0x100A JUMPI PUSH2 0x1009 PUSH2 0x2152 JUMP JUMPDEST JUMPDEST EQ ISZERO PUSH2 0x1141 JUMPI PUSH1 0x40 MLOAD DUP1 PUSH1 0x40 ADD PUSH1 0x40 MSTORE DUP1 PUSH1 0xE DUP2 MSTORE PUSH1 0x20 ADD PUSH32 0x427573696E65737320436C617373000000000000000000000000000000000000 DUP2 MSTORE POP PUSH1 0x8 PUSH1 0x0 CALLER PUSH20 0xFFFFFFFFFFFFFFFFFFFFFFFFFFFFFFFFFFFFFFFF AND PUSH20 0xFFFFFFFFFFFFFFFFFFFFFFFFFFFFFFFFFFFFFFFF AND DUP2 MSTORE PUSH1 0x20 ADD SWAP1 DUP2 MSTORE PUSH1 0x20 ADD PUSH1 0x0 KECCAK256 PUSH1 0x3 ADD SWAP1 DUP1 MLOAD SWAP1 PUSH1 0x20 ADD SWAP1 PUSH2 0x109B SWAP3 SWAP2 SWAP1 PUSH2 0x19DF JUMP JUMPDEST POP PUSH1 0x1 SLOAD PUSH1 0x8 PUSH1 0x0 CALLER PUSH20 0xFFFFFFFFFFFFFFFFFFFFFFFFFFFFFFFFFFFFFFFF AND PUSH20 0xFFFFFFFFFFFFFFFFFFFFFFFFFFFFFFFFFFFFFFFF AND DUP2 MSTORE PUSH1 0x20 ADD SWAP1 DUP2 MSTORE PUSH1 0x20 ADD PUSH1 0x0 KECCAK256 PUSH1 0x4 ADD DUP2 SWAP1 SSTORE POP PUSH1 0x1 PUSH1 0x8 PUSH1 0x0 CALLER PUSH20 0xFFFFFFFFFFFFFFFFFFFFFFFFFFFFFFFFFFFFFFFF AND PUSH20 0xFFFFFFFFFFFFFFFFFFFFFFFFFFFFFFFFFFFFFFFF AND DUP2 MSTORE PUSH1 0x20 ADD SWAP1 DUP2 MSTORE PUSH1 0x20 ADD PUSH1 0x0 KECCAK256 PUSH1 0x5 ADD PUSH1 0x0 PUSH2 0x100 EXP DUP2 SLOAD DUP2 PUSH1 0xFF MUL NOT AND SWAP1 DUP4 ISZERO ISZERO MUL OR SWAP1 SSTORE POP JUMPDEST JUMP JUMPDEST PUSH1 0x8 PUSH1 0x20 MSTORE DUP1 PUSH1 0x0 MSTORE PUSH1 0x40 PUSH1 0x0 KECCAK256 PUSH1 0x0 SWAP2 POP SWAP1 POP DUP1 PUSH1 0x0 ADD DUP1 SLOAD PUSH2 0x1166 SWAP1 PUSH2 0x2077 JUMP JUMPDEST DUP1 PUSH1 0x1F ADD PUSH1 0x20 DUP1 SWAP2 DIV MUL PUSH1 0x20 ADD PUSH1 0x40 MLOAD SWAP1 DUP2 ADD PUSH1 0x40 MSTORE DUP1 SWAP3 SWAP2 SWAP1 DUP2 DUP2 MSTORE PUSH1 0x20 ADD DUP3 DUP1 SLOAD PUSH2 0x1192 SWAP1 PUSH2 0x2077 JUMP JUMPDEST DUP1 ISZERO PUSH2 0x11DF JUMPI DUP1 PUSH1 0x1F LT PUSH2 0x11B4 JUMPI PUSH2 0x100 DUP1 DUP4 SLOAD DIV MUL DUP4 MSTORE SWAP2 PUSH1 0x20 ADD SWAP2 PUSH2 0x11DF JUMP JUMPDEST DUP3 ADD SWAP2 SWAP1 PUSH1 0x0 MSTORE PUSH1 0x20 PUSH1 0x0 KECCAK256 SWAP1 JUMPDEST DUP2 SLOAD DUP2 MSTORE SWAP1 PUSH1 0x1 ADD SWAP1 PUSH1 0x20 ADD DUP1 DUP4 GT PUSH2 0x11C2 JUMPI DUP3 SWAP1 SUB PUSH1 0x1F AND DUP3 ADD SWAP2 JUMPDEST POP POP POP POP POP SWAP1 DUP1 PUSH1 0x1 ADD DUP1 SLOAD PUSH2 0x11F4 SWAP1 PUSH2 0x2077 JUMP JUMPDEST DUP1 PUSH1 0x1F ADD PUSH1 0x20 DUP1 SWAP2 DIV MUL PUSH1 0x20 ADD PUSH1 0x40 MLOAD SWAP1 DUP2 ADD PUSH1 0x40 MSTORE DUP1 SWAP3 SWAP2 SWAP1 DUP2 DUP2 MSTORE PUSH1 0x20 ADD DUP3 DUP1 SLOAD PUSH2 0x1220 SWAP1 PUSH2 0x2077 JUMP JUMPDEST DUP1 ISZERO PUSH2 0x126D JUMPI DUP1 PUSH1 0x1F LT PUSH2 0x1242 JUMPI PUSH2 0x100 DUP1 DUP4 SLOAD DIV MUL DUP4 MSTORE SWAP2 PUSH1 0x20 ADD SWAP2 PUSH2 0x126D JUMP JUMPDEST DUP3 ADD SWAP2 SWAP1 PUSH1 0x0 MSTORE PUSH1 0x20 PUSH1 0x0 KECCAK256 SWAP1 JUMPDEST DUP2 SLOAD DUP2 MSTORE SWAP1 PUSH1 0x1 ADD SWAP1 PUSH1 0x20 ADD DUP1 DUP4 GT PUSH2 0x1250 JUMPI DUP3 SWAP1 SUB PUSH1 0x1F AND DUP3 ADD SWAP2 JUMPDEST POP POP POP POP POP SWAP1 DUP1 PUSH1 0x2 ADD PUSH1 0x0 SWAP1 SLOAD SWAP1 PUSH2 0x100 EXP SWAP1 DIV PUSH20 0xFFFFFFFFFFFFFFFFFFFFFFFFFFFFFFFFFFFFFFFF AND SWAP1 DUP1 PUSH1 0x3 ADD DUP1 SLOAD PUSH2 0x12A8 SWAP1 PUSH2 0x2077 JUMP JUMPDEST DUP1 PUSH1 0x1F ADD PUSH1 0x20 DUP1 SWAP2 DIV MUL PUSH1 0x20 ADD PUSH1 0x40 MLOAD SWAP1 DUP2 ADD PUSH1 0x40 MSTORE DUP1 SWAP3 SWAP2 SWAP1 DUP2 DUP2 MSTORE PUSH1 0x20 ADD DUP3 DUP1 SLOAD PUSH2 0x12D4 SWAP1 PUSH2 0x2077 JUMP JUMPDEST DUP1 ISZERO PUSH2 0x1321 JUMPI DUP1 PUSH1 0x1F LT PUSH2 0x12F6 JUMPI PUSH2 0x100 DUP1 DUP4 SLOAD DIV MUL DUP4 MSTORE SWAP2 PUSH1 0x20 ADD SWAP2 PUSH2 0x1321 JUMP JUMPDEST DUP3 ADD SWAP2 SWAP1 PUSH1 0x0 MSTORE PUSH1 0x20 PUSH1 0x0 KECCAK256 SWAP1 JUMPDEST DUP2 SLOAD DUP2 MSTORE SWAP1 PUSH1 0x1 ADD SWAP1 PUSH1 0x20 ADD DUP1 DUP4 GT PUSH2 0x1304 JUMPI DUP3 SWAP1 SUB PUSH1 0x1F AND DUP3 ADD SWAP2 JUMPDEST POP POP POP POP POP SWAP1 DUP1 PUSH1 0x4 ADD SLOAD SWAP1 DUP1 PUSH1 0x5 ADD PUSH1 0x0 SWAP1 SLOAD SWAP1 PUSH2 0x100 EXP SWAP1 DIV PUSH1 0xFF AND SWAP1 DUP1 PUSH1 0x5 ADD PUSH1 0x1 SWAP1 SLOAD SWAP1 PUSH2 0x100 EXP SWAP1 DIV PUSH1 0xFF AND SWAP1 DUP1 PUSH1 0x6 ADD SLOAD SWAP1 POP DUP9 JUMP JUMPDEST PUSH1 0x8 PUSH1 0x0 CALLER PUSH20 0xFFFFFFFFFFFFFFFFFFFFFFFFFFFFFFFFFFFFFFFF AND PUSH20 0xFFFFFFFFFFFFFFFFFFFFFFFFFFFFFFFFFFFFFFFF AND DUP2 MSTORE PUSH1 0x20 ADD SWAP1 DUP2 MSTORE PUSH1 0x20 ADD PUSH1 0x0 KECCAK256 PUSH1 0x2 ADD PUSH1 0x0 SWAP1 SLOAD SWAP1 PUSH2 0x100 EXP SWAP1 DIV PUSH20 0xFFFFFFFFFFFFFFFFFFFFFFFFFFFFFFFFFFFFFFFF AND PUSH20 0xFFFFFFFFFFFFFFFFFFFFFFFFFFFFFFFFFFFFFFFF AND CALLER PUSH20 0xFFFFFFFFFFFFFFFFFFFFFFFFFFFFFFFFFFFFFFFF AND EQ PUSH2 0x142D JUMPI PUSH1 0x40 MLOAD PUSH32 0x8C379A000000000000000000000000000000000000000000000000000000000 DUP2 MSTORE PUSH1 0x4 ADD PUSH2 0x1424 SWAP1 PUSH2 0x1EC0 JUMP JUMPDEST PUSH1 0x40 MLOAD DUP1 SWAP2 SUB SWAP1 REVERT JUMPDEST PUSH1 0x8 PUSH1 0x0 CALLER PUSH20 0xFFFFFFFFFFFFFFFFFFFFFFFFFFFFFFFFFFFFFFFF AND PUSH20 0xFFFFFFFFFFFFFFFFFFFFFFFFFFFFFFFFFFFFFFFF AND DUP2 MSTORE PUSH1 0x20 ADD SWAP1 DUP2 MSTORE PUSH1 0x20 ADD PUSH1 0x0 KECCAK256 PUSH1 0x5 ADD PUSH1 0x0 SWAP1 SLOAD SWAP1 PUSH2 0x100 EXP SWAP1 DIV PUSH1 0xFF AND ISZERO PUSH2 0x14BD JUMPI PUSH1 0x40 MLOAD PUSH32 0x8C379A000000000000000000000000000000000000000000000000000000000 DUP2 MSTORE PUSH1 0x4 ADD PUSH2 0x14B4 SWAP1 PUSH2 0x1F00 JUMP JUMPDEST PUSH1 0x40 MLOAD DUP1 SWAP2 SUB SWAP1 REVERT JUMPDEST PUSH1 0x0 PUSH1 0x9 PUSH1 0x0 PUSH2 0x100 EXP DUP2 SLOAD DUP2 PUSH1 0xFF MUL NOT AND SWAP1 DUP4 PUSH1 0x2 DUP2 GT ISZERO PUSH2 0x14E3 JUMPI PUSH2 0x14E2 PUSH2 0x2152 JUMP JUMPDEST JUMPDEST MUL OR SWAP1 SSTORE POP PUSH1 0x0 PUSH1 0x9 PUSH1 0x0 SWAP1 SLOAD SWAP1 PUSH2 0x100 EXP SWAP1 DIV PUSH1 0xFF AND PUSH1 0x2 DUP2 GT ISZERO PUSH2 0x150C JUMPI PUSH2 0x150B PUSH2 0x2152 JUMP JUMPDEST JUMPDEST EQ ISZERO PUSH2 0x1643 JUMPI PUSH1 0x40 MLOAD DUP1 PUSH1 0x40 ADD PUSH1 0x40 MSTORE DUP1 PUSH1 0xB DUP2 MSTORE PUSH1 0x20 ADD PUSH32 0x466972737420436C617373000000000000000000000000000000000000000000 DUP2 MSTORE POP PUSH1 0x8 PUSH1 0x0 CALLER PUSH20 0xFFFFFFFFFFFFFFFFFFFFFFFFFFFFFFFFFFFFFFFF AND PUSH20 0xFFFFFFFFFFFFFFFFFFFFFFFFFFFFFFFFFFFFFFFF AND DUP2 MSTORE PUSH1 0x20 ADD SWAP1 DUP2 MSTORE PUSH1 0x20 ADD PUSH1 0x0 KECCAK256 PUSH1 0x3 ADD SWAP1 DUP1 MLOAD SWAP1 PUSH1 0x20 ADD SWAP1 PUSH2 0x159D SWAP3 SWAP2 SWAP1 PUSH2 0x19DF JUMP JUMPDEST POP PUSH1 0x2 SLOAD PUSH1 0x8 PUSH1 0x0 CALLER PUSH20 0xFFFFFFFFFFFFFFFFFFFFFFFFFFFFFFFFFFFFFFFF AND PUSH20 0xFFFFFFFFFFFFFFFFFFFFFFFFFFFFFFFFFFFFFFFF AND DUP2 MSTORE PUSH1 0x20 ADD SWAP1 DUP2 MSTORE PUSH1 0x20 ADD PUSH1 0x0 KECCAK256 PUSH1 0x4 ADD DUP2 SWAP1 SSTORE POP PUSH1 0x1 PUSH1 0x8 PUSH1 0x0 CALLER PUSH20 0xFFFFFFFFFFFFFFFFFFFFFFFFFFFFFFFFFFFFFFFF AND PUSH20 0xFFFFFFFFFFFFFFFFFFFFFFFFFFFFFFFFFFFFFFFF AND DUP2 MSTORE PUSH1 0x20 ADD SWAP1 DUP2 MSTORE PUSH1 0x20 ADD PUSH1 0x0 KECCAK256 PUSH1 0x5 ADD PUSH1 0x0 PUSH2 0x100 EXP DUP2 SLOAD DUP2 PUSH1 0xFF MUL NOT AND SWAP1 DUP4 ISZERO ISZERO MUL OR SWAP1 SSTORE POP JUMPDEST JUMP JUMPDEST PUSH1 0x7 PUSH1 0x0 SWAP1 SLOAD SWAP1 PUSH2 0x100 EXP SWAP1 DIV PUSH20 0xFFFFFFFFFFFFFFFFFFFFFFFFFFFFFFFFFFFFFFFF AND PUSH20 0xFFFFFFFFFFFFFFFFFFFFFFFFFFFFFFFFFFFFFFFF AND CALLER PUSH20 0xFFFFFFFFFFFFFFFFFFFFFFFFFFFFFFFFFFFFFFFF AND EQ PUSH2 0x16D5 JUMPI PUSH1 0x40 MLOAD PUSH32 0x8C379A000000000000000000000000000000000000000000000000000000000 DUP2 MSTORE PUSH1 0x4 ADD PUSH2 0x16CC SWAP1 PUSH2 0x1F20 JUMP JUMPDEST PUSH1 0x40 MLOAD DUP1 SWAP2 SUB SWAP1 REVERT JUMPDEST PUSH1 0x8 PUSH1 0x0 DUP5 PUSH20 0xFFFFFFFFFFFFFFFFFFFFFFFFFFFFFFFFFFFFFFFF AND PUSH20 0xFFFFFFFFFFFFFFFFFFFFFFFFFFFFFFFFFFFFFFFF AND DUP2 MSTORE PUSH1 0x20 ADD SWAP1 DUP2 MSTORE PUSH1 0x20 ADD PUSH1 0x0 KECCAK256 PUSH1 0x2 ADD PUSH1 0x0 SWAP1 SLOAD SWAP1 PUSH2 0x100 EXP SWAP1 DIV PUSH20 0xFFFFFFFFFFFFFFFFFFFFFFFFFFFFFFFFFFFFFFFF AND PUSH20 0xFFFFFFFFFFFFFFFFFFFFFFFFFFFFFFFFFFFFFFFF AND DUP4 PUSH20 0xFFFFFFFFFFFFFFFFFFFFFFFFFFFFFFFFFFFFFFFF AND EQ ISZERO PUSH2 0x17A6 JUMPI PUSH1 0x40 MLOAD PUSH32 0x8C379A000000000000000000000000000000000000000000000000000000000 DUP2 MSTORE PUSH1 0x4 ADD PUSH2 0x179D SWAP1 PUSH2 0x1EA0 JUMP JUMPDEST PUSH1 0x40 MLOAD DUP1 SWAP2 SUB SWAP1 REVERT JUMPDEST PUSH1 0x40 MLOAD DUP1 PUSH2 0x100 ADD PUSH1 0x40 MSTORE DUP1 DUP4 DUP2 MSTORE PUSH1 0x20 ADD DUP3 DUP2 MSTORE PUSH1 0x20 ADD CALLER PUSH20 0xFFFFFFFFFFFFFFFFFFFFFFFFFFFFFFFFFFFFFFFF AND DUP2 MSTORE PUSH1 0x20 ADD PUSH1 0x3 DUP1 SLOAD PUSH2 0x17E7 SWAP1 PUSH2 0x2077 JUMP JUMPDEST DUP1 PUSH1 0x1F ADD PUSH1 0x20 DUP1 SWAP2 DIV MUL PUSH1 0x20 ADD PUSH1 0x40 MLOAD SWAP1 DUP2 ADD PUSH1 0x40 MSTORE DUP1 SWAP3 SWAP2 SWAP1 DUP2 DUP2 MSTORE PUSH1 0x20 ADD DUP3 DUP1 SLOAD PUSH2 0x1813 SWAP1 PUSH2 0x2077 JUMP JUMPDEST DUP1 ISZERO PUSH2 0x1860 JUMPI DUP1 PUSH1 0x1F LT PUSH2 0x1835 JUMPI PUSH2 0x100 DUP1 DUP4 SLOAD DIV MUL DUP4 MSTORE SWAP2 PUSH1 0x20 ADD SWAP2 PUSH2 0x1860 JUMP JUMPDEST DUP3 ADD SWAP2 SWAP1 PUSH1 0x0 MSTORE PUSH1 0x20 PUSH1 0x0 KECCAK256 SWAP1 JUMPDEST DUP2 SLOAD DUP2 MSTORE SWAP1 PUSH1 0x1 ADD SWAP1 PUSH1 0x20 ADD DUP1 DUP4 GT PUSH2 0x1843 JUMPI DUP3 SWAP1 SUB PUSH1 0x1F AND DUP3 ADD SWAP2 JUMPDEST POP POP POP POP POP DUP2 MSTORE PUSH1 0x20 ADD PUSH1 0x4 SLOAD DUP2 MSTORE PUSH1 0x20 ADD PUSH1 0x5 PUSH1 0x0 SWAP1 SLOAD SWAP1 PUSH2 0x100 EXP SWAP1 DIV PUSH1 0xFF AND ISZERO ISZERO DUP2 MSTORE PUSH1 0x20 ADD PUSH1 0x5 PUSH1 0x1 SWAP1 SLOAD SWAP1 PUSH2 0x100 EXP SWAP1 DIV PUSH1 0xFF AND ISZERO ISZERO DUP2 MSTORE PUSH1 0x20 ADD PUSH1 0x6 SLOAD DUP2 MSTORE POP PUSH1 0x8 PUSH1 0x0 DUP6 PUSH20 0xFFFFFFFFFFFFFFFFFFFFFFFFFFFFFFFFFFFFFFFF AND PUSH20 0xFFFFFFFFFFFFFFFFFFFFFFFFFFFFFFFFFFFFFFFF AND DUP2 MSTORE PUSH1 0x20 ADD SWAP1 DUP2 MSTORE PUSH1 0x20 ADD PUSH1 0x0 KECCAK256 PUSH1 0x0 DUP3 ADD MLOAD DUP2 PUSH1 0x0 ADD SWAP1 DUP1 MLOAD SWAP1 PUSH1 0x20 ADD SWAP1 PUSH2 0x1901 SWAP3 SWAP2 SWAP1 PUSH2 0x19DF JUMP JUMPDEST POP PUSH1 0x20 DUP3 ADD MLOAD DUP2 PUSH1 0x1 ADD SWAP1 DUP1 MLOAD SWAP1 PUSH1 0x20 ADD SWAP1 PUSH2 0x191E SWAP3 SWAP2 SWAP1 PUSH2 0x19DF JUMP JUMPDEST POP PUSH1 0x40 DUP3 ADD MLOAD DUP2 PUSH1 0x2 ADD PUSH1 0x0 PUSH2 0x100 EXP DUP2 SLOAD DUP2 PUSH20 0xFFFFFFFFFFFFFFFFFFFFFFFFFFFFFFFFFFFFFFFF MUL NOT AND SWAP1 DUP4 PUSH20 0xFFFFFFFFFFFFFFFFFFFFFFFFFFFFFFFFFFFFFFFF AND MUL OR SWAP1 SSTORE POP PUSH1 0x60 DUP3 ADD MLOAD DUP2 PUSH1 0x3 ADD SWAP1 DUP1 MLOAD SWAP1 PUSH1 0x20 ADD SWAP1 PUSH2 0x1982 SWAP3 SWAP2 SWAP1 PUSH2 0x19DF JUMP JUMPDEST POP PUSH1 0x80 DUP3 ADD MLOAD DUP2 PUSH1 0x4 ADD SSTORE PUSH1 0xA0 DUP3 ADD MLOAD DUP2 PUSH1 0x5 ADD PUSH1 0x0 PUSH2 0x100 EXP DUP2 SLOAD DUP2 PUSH1 0xFF MUL NOT AND SWAP1 DUP4 ISZERO ISZERO MUL OR SWAP1 SSTORE POP PUSH1 0xC0 DUP3 ADD MLOAD DUP2 PUSH1 0x5 ADD PUSH1 0x1 PUSH2 0x100 EXP DUP2 SLOAD DUP2 PUSH1 0xFF MUL NOT AND SWAP1 DUP4 ISZERO ISZERO MUL OR SWAP1 SSTORE POP PUSH1 0xE0 DUP3 ADD MLOAD DUP2 PUSH1 0x6 ADD SSTORE SWAP1 POP POP POP POP POP JUMP JUMPDEST DUP3 DUP1 SLOAD PUSH2 0x19EB SWAP1 PUSH2 0x2077 JUMP JUMPDEST SWAP1 PUSH1 0x0 MSTORE PUSH1 0x20 PUSH1 0x0 KECCAK256 SWAP1 PUSH1 0x1F ADD PUSH1 0x20 SWAP1 DIV DUP2 ADD SWAP3 DUP3 PUSH2 0x1A0D JUMPI PUSH1 0x0 DUP6 SSTORE PUSH2 0x1A54 JUMP JUMPDEST DUP3 PUSH1 0x1F LT PUSH2 0x1A26 JUMPI DUP1 MLOAD PUSH1 0xFF NOT AND DUP4 DUP1 ADD OR DUP6 SSTORE PUSH2 0x1A54 JUMP JUMPDEST DUP3 DUP1 ADD PUSH1 0x1 ADD DUP6 SSTORE DUP3 ISZERO PUSH2 0x1A54 JUMPI SWAP2 DUP3 ADD JUMPDEST DUP3 DUP2 GT ISZERO PUSH2 0x1A53 JUMPI DUP3 MLOAD DUP3 SSTORE SWAP2 PUSH1 0x20 ADD SWAP2 SWAP1 PUSH1 0x1 ADD SWAP1 PUSH2 0x1A38 JUMP JUMPDEST JUMPDEST POP SWAP1 POP PUSH2 0x1A61 SWAP2 SWAP1 PUSH2 0x1AA5 JUMP JUMPDEST POP SWAP1 JUMP JUMPDEST POP DUP1 SLOAD PUSH2 0x1A71 SWAP1 PUSH2 0x2077 JUMP JUMPDEST PUSH1 0x0 DUP3 SSTORE DUP1 PUSH1 0x1F LT PUSH2 0x1A83 JUMPI POP PUSH2 0x1AA2 JUMP JUMPDEST PUSH1 0x1F ADD PUSH1 0x20 SWAP1 DIV SWAP1 PUSH1 0x0 MSTORE PUSH1 0x20 PUSH1 0x0 KECCAK256 SWAP1 DUP2 ADD SWAP1 PUSH2 0x1AA1 SWAP2 SWAP1 PUSH2 0x1AA5 JUMP JUMPDEST JUMPDEST POP JUMP JUMPDEST JUMPDEST DUP1 DUP3 GT ISZERO PUSH2 0x1ABE JUMPI PUSH1 0x0 DUP2 PUSH1 0x0 SWAP1 SSTORE POP PUSH1 0x1 ADD PUSH2 0x1AA6 JUMP JUMPDEST POP SWAP1 JUMP JUMPDEST PUSH1 0x0 PUSH2 0x1AD5 PUSH2 0x1AD0 DUP5 PUSH2 0x1FA0 JUMP JUMPDEST PUSH2 0x1F7B JUMP JUMPDEST SWAP1 POP DUP3 DUP2 MSTORE PUSH1 0x20 DUP2 ADD DUP5 DUP5 DUP5 ADD GT ISZERO PUSH2 0x1AF1 JUMPI PUSH2 0x1AF0 PUSH2 0x21E4 JUMP JUMPDEST JUMPDEST PUSH2 0x1AFC DUP5 DUP3 DUP6 PUSH2 0x2035 JUMP JUMPDEST POP SWAP4 SWAP3 POP POP POP JUMP JUMPDEST PUSH1 0x0 DUP2 CALLDATALOAD SWAP1 POP PUSH2 0x1B13 DUP2 PUSH2 0x2323 JUMP JUMPDEST SWAP3 SWAP2 POP POP JUMP JUMPDEST PUSH1 0x0 DUP3 PUSH1 0x1F DUP4 ADD SLT PUSH2 0x1B2E JUMPI PUSH2 0x1B2D PUSH2 0x21DF JUMP JUMPDEST JUMPDEST DUP2 CALLDATALOAD PUSH2 0x1B3E DUP5 DUP3 PUSH1 0x20 DUP7 ADD PUSH2 0x1AC2 JUMP JUMPDEST SWAP2 POP POP SWAP3 SWAP2 POP POP JUMP JUMPDEST PUSH1 0x0 PUSH1 0x20 DUP3 DUP5 SUB SLT ISZERO PUSH2 0x1B5D JUMPI PUSH2 0x1B5C PUSH2 0x21EE JUMP JUMPDEST JUMPDEST PUSH1 0x0 PUSH2 0x1B6B DUP5 DUP3 DUP6 ADD PUSH2 0x1B04 JUMP JUMPDEST SWAP2 POP POP SWAP3 SWAP2 POP POP JUMP JUMPDEST PUSH1 0x0 DUP1 PUSH1 0x0 PUSH1 0x60 DUP5 DUP7 SUB SLT ISZERO PUSH2 0x1B8D JUMPI PUSH2 0x1B8C PUSH2 0x21EE JUMP JUMPDEST JUMPDEST PUSH1 0x0 PUSH2 0x1B9B DUP7 DUP3 DUP8 ADD PUSH2 0x1B04 JUMP JUMPDEST SWAP4 POP POP PUSH1 0x20 DUP5 ADD CALLDATALOAD PUSH8 0xFFFFFFFFFFFFFFFF DUP2 GT ISZERO PUSH2 0x1BBC JUMPI PUSH2 0x1BBB PUSH2 0x21E9 JUMP JUMPDEST JUMPDEST PUSH2 0x1BC8 DUP7 DUP3 DUP8 ADD PUSH2 0x1B19 JUMP JUMPDEST SWAP3 POP POP PUSH1 0x40 DUP5 ADD CALLDATALOAD PUSH8 0xFFFFFFFFFFFFFFFF DUP2 GT ISZERO PUSH2 0x1BE9 JUMPI PUSH2 0x1BE8 PUSH2 0x21E9 JUMP JUMPDEST JUMPDEST PUSH2 0x1BF5 DUP7 DUP3 DUP8 ADD PUSH2 0x1B19 JUMP JUMPDEST SWAP2 POP POP SWAP3 POP SWAP3 POP SWAP3 JUMP JUMPDEST PUSH1 0x0 DUP1 PUSH1 0x40 DUP4 DUP6 SUB SLT ISZERO PUSH2 0x1C16 JUMPI PUSH2 0x1C15 PUSH2 0x21EE JUMP JUMPDEST JUMPDEST PUSH1 0x0 DUP4 ADD CALLDATALOAD PUSH8 0xFFFFFFFFFFFFFFFF DUP2 GT ISZERO PUSH2 0x1C34 JUMPI PUSH2 0x1C33 PUSH2 0x21E9 JUMP JUMPDEST JUMPDEST PUSH2 0x1C40 DUP6 DUP3 DUP7 ADD PUSH2 0x1B19 JUMP JUMPDEST SWAP3 POP POP PUSH1 0x20 DUP4 ADD CALLDATALOAD PUSH8 0xFFFFFFFFFFFFFFFF DUP2 GT ISZERO PUSH2 0x1C61 JUMPI PUSH2 0x1C60 PUSH2 0x21E9 JUMP JUMPDEST JUMPDEST PUSH2 0x1C6D DUP6 DUP3 DUP7 ADD PUSH2 0x1B19 JUMP JUMPDEST SWAP2 POP POP SWAP3 POP SWAP3 SWAP1 POP JUMP JUMPDEST PUSH2 0x1C80 DUP2 PUSH2 0x1FED JUMP JUMPDEST DUP3 MSTORE POP POP JUMP JUMPDEST PUSH2 0x1C8F DUP2 PUSH2 0x1FFF JUMP JUMPDEST DUP3 MSTORE POP POP JUMP JUMPDEST PUSH1 0x0 PUSH2 0x1CA0 DUP3 PUSH2 0x1FD1 JUMP JUMPDEST PUSH2 0x1CAA DUP2 DUP6 PUSH2 0x1FDC JUMP JUMPDEST SWAP4 POP PUSH2 0x1CBA DUP2 DUP6 PUSH1 0x20 DUP7 ADD PUSH2 0x2044 JUMP JUMPDEST PUSH2 0x1CC3 DUP2 PUSH2 0x21F3 JUMP JUMPDEST DUP5 ADD SWAP2 POP POP SWAP3 SWAP2 POP POP JUMP JUMPDEST PUSH1 0x0 PUSH2 0x1CDB PUSH1 0x17 DUP4 PUSH2 0x1FDC JUMP JUMPDEST SWAP2 POP PUSH2 0x1CE6 DUP3 PUSH2 0x2204 JUMP JUMPDEST PUSH1 0x20 DUP3 ADD SWAP1 POP SWAP2 SWAP1 POP JUMP JUMPDEST PUSH1 0x0 PUSH2 0x1CFE PUSH1 0x1F DUP4 PUSH2 0x1FDC JUMP JUMPDEST SWAP2 POP PUSH2 0x1D09 DUP3 PUSH2 0x222D JUMP JUMPDEST PUSH1 0x20 DUP3 ADD SWAP1 POP SWAP2 SWAP1 POP JUMP JUMPDEST PUSH1 0x0 PUSH2 0x1D21 PUSH1 0x16 DUP4 PUSH2 0x1FDC JUMP JUMPDEST SWAP2 POP PUSH2 0x1D2C DUP3 PUSH2 0x2256 JUMP JUMPDEST PUSH1 0x20 DUP3 ADD SWAP1 POP SWAP2 SWAP1 POP JUMP JUMPDEST PUSH1 0x0 PUSH2 0x1D44 PUSH1 0x1A DUP4 PUSH2 0x1FDC JUMP JUMPDEST SWAP2 POP PUSH2 0x1D4F DUP3 PUSH2 0x227F JUMP JUMPDEST PUSH1 0x20 DUP3 ADD SWAP1 POP SWAP2 SWAP1 POP JUMP JUMPDEST PUSH1 0x0 PUSH2 0x1D67 PUSH1 0x1D DUP4 PUSH2 0x1FDC JUMP JUMPDEST SWAP2 POP PUSH2 0x1D72 DUP3 PUSH2 0x22A8 JUMP JUMPDEST PUSH1 0x20 DUP3 ADD SWAP1 POP SWAP2 SWAP1 POP JUMP JUMPDEST PUSH1 0x0 PUSH2 0x1D8A PUSH1 0x1E DUP4 PUSH2 0x1FDC JUMP JUMPDEST SWAP2 POP PUSH2 0x1D95 DUP3 PUSH2 0x22D1 JUMP JUMPDEST PUSH1 0x20 DUP3 ADD SWAP1 POP SWAP2 SWAP1 POP JUMP JUMPDEST PUSH1 0x0 PUSH2 0x1DAD PUSH1 0x20 DUP4 PUSH2 0x1FDC JUMP JUMPDEST SWAP2 POP PUSH2 0x1DB8 DUP3 PUSH2 0x22FA JUMP JUMPDEST PUSH1 0x20 DUP3 ADD SWAP1 POP SWAP2 SWAP1 POP JUMP JUMPDEST PUSH2 0x1DCC DUP2 PUSH2 0x202B JUMP JUMPDEST DUP3 MSTORE POP POP JUMP JUMPDEST PUSH1 0x0 PUSH1 0x20 DUP3 ADD SWAP1 POP PUSH2 0x1DE7 PUSH1 0x0 DUP4 ADD DUP5 PUSH2 0x1C77 JUMP JUMPDEST SWAP3 SWAP2 POP POP JUMP JUMPDEST PUSH1 0x0 PUSH2 0x100 DUP3 ADD SWAP1 POP DUP2 DUP2 SUB PUSH1 0x0 DUP4 ADD MSTORE PUSH2 0x1E08 DUP2 DUP12 PUSH2 0x1C95 JUMP JUMPDEST SWAP1 POP DUP2 DUP2 SUB PUSH1 0x20 DUP4 ADD MSTORE PUSH2 0x1E1C DUP2 DUP11 PUSH2 0x1C95 JUMP JUMPDEST SWAP1 POP PUSH2 0x1E2B PUSH1 0x40 DUP4 ADD DUP10 PUSH2 0x1C77 JUMP JUMPDEST DUP2 DUP2 SUB PUSH1 0x60 DUP4 ADD MSTORE PUSH2 0x1E3D DUP2 DUP9 PUSH2 0x1C95 JUMP JUMPDEST SWAP1 POP PUSH2 0x1E4C PUSH1 0x80 DUP4 ADD DUP8 PUSH2 0x1DC3 JUMP JUMPDEST PUSH2 0x1E59 PUSH1 0xA0 DUP4 ADD DUP7 PUSH2 0x1C86 JUMP JUMPDEST PUSH2 0x1E66 PUSH1 0xC0 DUP4 ADD DUP6 PUSH2 0x1C86 JUMP JUMPDEST PUSH2 0x1E73 PUSH1 0xE0 DUP4 ADD DUP5 PUSH2 0x1DC3 JUMP JUMPDEST SWAP10 SWAP9 POP POP POP POP POP POP POP POP POP JUMP JUMPDEST PUSH1 0x0 PUSH1 0x20 DUP3 ADD SWAP1 POP DUP2 DUP2 SUB PUSH1 0x0 DUP4 ADD MSTORE PUSH2 0x1E99 DUP2 PUSH2 0x1CCE JUMP JUMPDEST SWAP1 POP SWAP2 SWAP1 POP JUMP JUMPDEST PUSH1 0x0 PUSH1 0x20 DUP3 ADD SWAP1 POP DUP2 DUP2 SUB PUSH1 0x0 DUP4 ADD MSTORE PUSH2 0x1EB9 DUP2 PUSH2 0x1CF1 JUMP JUMPDEST SWAP1 POP SWAP2 SWAP1 POP JUMP JUMPDEST PUSH1 0x0 PUSH1 0x20 DUP3 ADD SWAP1 POP DUP2 DUP2 SUB PUSH1 0x0 DUP4 ADD MSTORE PUSH2 0x1ED9 DUP2 PUSH2 0x1D14 JUMP JUMPDEST SWAP1 POP SWAP2 SWAP1 POP JUMP JUMPDEST PUSH1 0x0 PUSH1 0x20 DUP3 ADD SWAP1 POP DUP2 DUP2 SUB PUSH1 0x0 DUP4 ADD MSTORE PUSH2 0x1EF9 DUP2 PUSH2 0x1D37 JUMP JUMPDEST SWAP1 POP SWAP2 SWAP1 POP JUMP JUMPDEST PUSH1 0x0 PUSH1 0x20 DUP3 ADD SWAP1 POP DUP2 DUP2 SUB PUSH1 0x0 DUP4 ADD MSTORE PUSH2 0x1F19 DUP2 PUSH2 0x1D5A JUMP JUMPDEST SWAP1 POP SWAP2 SWAP1 POP JUMP JUMPDEST PUSH1 0x0 PUSH1 0x20 DUP3 ADD SWAP1 POP DUP2 DUP2 SUB PUSH1 0x0 DUP4 ADD MSTORE PUSH2 0x1F39 DUP2 PUSH2 0x1D7D JUMP JUMPDEST SWAP1 POP SWAP2 SWAP1 POP JUMP JUMPDEST PUSH1 0x0 PUSH1 0x20 DUP3 ADD SWAP1 POP DUP2 DUP2 SUB PUSH1 0x0 DUP4 ADD MSTORE PUSH2 0x1F59 DUP2 PUSH2 0x1DA0 JUMP JUMPDEST SWAP1 POP SWAP2 SWAP1 POP JUMP JUMPDEST PUSH1 0x0 PUSH1 0x20 DUP3 ADD SWAP1 POP PUSH2 0x1F75 PUSH1 0x0 DUP4 ADD DUP5 PUSH2 0x1DC3 JUMP JUMPDEST SWAP3 SWAP2 POP POP JUMP JUMPDEST PUSH1 0x0 PUSH2 0x1F85 PUSH2 0x1F96 JUMP JUMPDEST SWAP1 POP PUSH2 0x1F91 DUP3 DUP3 PUSH2 0x20A9 JUMP JUMPDEST SWAP2 SWAP1 POP JUMP JUMPDEST PUSH1 0x0 PUSH1 0x40 MLOAD SWAP1 POP SWAP1 JUMP JUMPDEST PUSH1 0x0 PUSH8 0xFFFFFFFFFFFFFFFF DUP3 GT ISZERO PUSH2 0x1FBB JUMPI PUSH2 0x1FBA PUSH2 0x21B0 JUMP JUMPDEST JUMPDEST PUSH2 0x1FC4 DUP3 PUSH2 0x21F3 JUMP JUMPDEST SWAP1 POP PUSH1 0x20 DUP2 ADD SWAP1 POP SWAP2 SWAP1 POP JUMP JUMPDEST PUSH1 0x0 DUP2 MLOAD SWAP1 POP SWAP2 SWAP1 POP JUMP JUMPDEST PUSH1 0x0 DUP3 DUP3 MSTORE PUSH1 0x20 DUP3 ADD SWAP1 POP SWAP3 SWAP2 POP POP JUMP JUMPDEST PUSH1 0x0 PUSH2 0x1FF8 DUP3 PUSH2 0x200B JUMP JUMPDEST SWAP1 POP SWAP2 SWAP1 POP JUMP JUMPDEST PUSH1 0x0 DUP2 ISZERO ISZERO SWAP1 POP SWAP2 SWAP1 POP JUMP JUMPDEST PUSH1 0x0 PUSH20 0xFFFFFFFFFFFFFFFFFFFFFFFFFFFFFFFFFFFFFFFF DUP3 AND SWAP1 POP SWAP2 SWAP1 POP JUMP JUMPDEST PUSH1 0x0 DUP2 SWAP1 POP SWAP2 SWAP1 POP JUMP JUMPDEST DUP3 DUP2 DUP4 CALLDATACOPY PUSH1 0x0 DUP4 DUP4 ADD MSTORE POP POP POP JUMP JUMPDEST PUSH1 0x0 JUMPDEST DUP4 DUP2 LT ISZERO PUSH2 0x2062 JUMPI DUP1 DUP3 ADD MLOAD DUP2 DUP5 ADD MSTORE PUSH1 0x20 DUP2 ADD SWAP1 POP PUSH2 0x2047 JUMP JUMPDEST DUP4 DUP2 GT ISZERO PUSH2 0x2071 JUMPI PUSH1 0x0 DUP5 DUP5 ADD MSTORE JUMPDEST POP POP POP POP JUMP JUMPDEST PUSH1 0x0 PUSH1 0x2 DUP3 DIV SWAP1 POP PUSH1 0x1 DUP3 AND DUP1 PUSH2 0x208F JUMPI PUSH1 0x7F DUP3 AND SWAP2 POP JUMPDEST PUSH1 0x20 DUP3 LT DUP2 EQ ISZERO PUSH2 0x20A3 JUMPI PUSH2 0x20A2 PUSH2 0x2181 JUMP JUMPDEST JUMPDEST POP SWAP2 SWAP1 POP JUMP JUMPDEST PUSH2 0x20B2 DUP3 PUSH2 0x21F3 JUMP JUMPDEST DUP2 ADD DUP2 DUP2 LT PUSH8 0xFFFFFFFFFFFFFFFF DUP3 GT OR ISZERO PUSH2 0x20D1 JUMPI PUSH2 0x20D0 PUSH2 0x21B0 JUMP JUMPDEST JUMPDEST DUP1 PUSH1 0x40 MSTORE POP POP POP JUMP JUMPDEST PUSH1 0x0 PUSH2 0x20E5 DUP3 PUSH2 0x202B JUMP JUMPDEST SWAP2 POP PUSH32 0xFFFFFFFFFFFFFFFFFFFFFFFFFFFFFFFFFFFFFFFFFFFFFFFFFFFFFFFFFFFFFFFF DUP3 EQ ISZERO PUSH2 0x2118 JUMPI PUSH2 0x2117 PUSH2 0x2123 JUMP JUMPDEST JUMPDEST PUSH1 0x1 DUP3 ADD SWAP1 POP SWAP2 SWAP1 POP JUMP JUMPDEST PUSH32 0x4E487B7100000000000000000000000000000000000000000000000000000000 PUSH1 0x0 MSTORE PUSH1 0x11 PUSH1 0x4 MSTORE PUSH1 0x24 PUSH1 0x0 REVERT JUMPDEST PUSH32 0x4E487B7100000000000000000000000000000000000000000000000000000000 PUSH1 0x0 MSTORE PUSH1 0x21 PUSH1 0x4 MSTORE PUSH1 0x24 PUSH1 0x0 REVERT JUMPDEST PUSH32 0x4E487B7100000000000000000000000000000000000000000000000000000000 PUSH1 0x0 MSTORE PUSH1 0x22 PUSH1 0x4 MSTORE PUSH1 0x24 PUSH1 0x0 REVERT JUMPDEST PUSH32 0x4E487B7100000000000000000000000000000000000000000000000000000000 PUSH1 0x0 MSTORE PUSH1 0x41 PUSH1 0x4 MSTORE PUSH1 0x24 PUSH1 0x0 REVERT JUMPDEST PUSH1 0x0 DUP1 REVERT JUMPDEST PUSH1 0x0 DUP1 REVERT JUMPDEST PUSH1 0x0 DUP1 REVERT JUMPDEST PUSH1 0x0 DUP1 REVERT JUMPDEST PUSH1 0x0 PUSH1 0x1F NOT PUSH1 0x1F DUP4 ADD AND SWAP1 POP SWAP2 SWAP1 POP JUMP JUMPDEST PUSH32 0x7061796D656E74206973206E6F742062616C616E636564000000000000000000 PUSH1 0x0 DUP3 ADD MSTORE POP JUMP JUMPDEST PUSH32 0x74686973207573657220697320616C7265616479207265676973746572656400 PUSH1 0x0 DUP3 ADD MSTORE POP JUMP JUMPDEST PUSH32 0x596F7520617265206E6F74207265676973746572656400000000000000000000 PUSH1 0x0 DUP3 ADD MSTORE POP JUMP JUMPDEST PUSH32 0x596F752061726520616C72656164792072656769737465726564000000000000 PUSH1 0x0 DUP3 ADD MSTORE POP JUMP JUMPDEST PUSH32 0x796F75206861766520616C726561647920626F6F6B206120636C617373000000 PUSH1 0x0 DUP3 ADD MSTORE POP JUMP JUMPDEST PUSH32 0x796F7520617265206E6F7420616C6C6F77656420746F20646F20746861740000 PUSH1 0x0 DUP3 ADD MSTORE POP JUMP JUMPDEST PUSH32 0x596F75206861766520616C726561647920706169642074686520616D6F756E74 PUSH1 0x0 DUP3 ADD MSTORE POP JUMP JUMPDEST PUSH2 0x232C DUP2 PUSH2 0x1FED JUMP JUMPDEST DUP2 EQ PUSH2 0x2337 JUMPI PUSH1 0x0 DUP1 REVERT JUMPDEST POP JUMP INVALID LOG2 PUSH5 0x6970667358 0x22 SLT KECCAK256 PUSH16 0xC182A180454972E8C7F40512CD8F83C3 0xCB GAS DUP5 0x26 ADD 0x5E NOT ADDRESS 0xC6 0xAC PUSH12 0x38CC320A64736F6C63430008 SMOD STOP CALLER "
				},
				"gasEstimates": {
					"creation": {
						"codeDepositCost": "1814400",
						"executionCost": "92520",
						"totalCost": "1906920"
					},
					"external": {
						"Business_CLASS()": "infinite",
						"ECONOMY_CLASS()": "infinite",
						"FIRST_CLASS()": "infinite",
						"addUser(address,string,string)": "infinite",
						"data(address)": "infinite",
						"getBalance()": "2607",
						"owner()": "2559",
						"removeUser(address)": "infinite",
						"setData(string,string)": "infinite"
					}
				},
				"methodIdentifiers": {
					"Business_CLASS()": "ab1dd063",
					"ECONOMY_CLASS()": "8e9a37dd",
					"FIRST_CLASS()": "ba03b061",
					"addUser(address,string,string)": "d7554a68",
					"data(address)": "b90d3d0c",
					"getBalance()": "12065fe0",
					"owner()": "8da5cb5b",
					"removeUser(address)": "98575188",
					"setData(string,string)": "8ca3c553"
				}
			},
			"userdoc": {
				"kind": "user",
				"methods": {},
				"version": 1
			}
		}
	}
}