{
	"bootcampquiz.sol": {
		"AirlineTickets": {
			"abi": [
				{
					"inputs": [],
					"name": "busnissClass",
					"outputs": [],
					"stateMutability": "nonpayable",
					"type": "function"
				},
				{
					"inputs": [
						{
							"internalType": "address",
							"name": "",
							"type": "address"
						}
					],
					"name": "data",
					"outputs": [
						{
							"internalType": "string",
							"name": "name",
							"type": "string"
						},
						{
							"internalType": "string",
							"name": "des",
							"type": "string"
						},
						{
							"internalType": "uint256",
							"name": "pass_id",
							"type": "uint256"
						},
						{
							"internalType": "string",
							"name": "ticket",
							"type": "string"
						},
						{
							"internalType": "uint256",
							"name": "cost",
							"type": "uint256"
						}
					],
					"stateMutability": "view",
					"type": "function"
				},
				{
					"inputs": [],
					"name": "economyClass",
					"outputs": [],
					"stateMutability": "nonpayable",
					"type": "function"
				},
				{
					"inputs": [],
					"name": "firstClass",
					"outputs": [],
					"stateMutability": "nonpayable",
					"type": "function"
				},
				{
					"inputs": [],
					"name": "oneEth",
					"outputs": [
						{
							"internalType": "uint256",
							"name": "",
							"type": "uint256"
						}
					],
					"stateMutability": "view",
					"type": "function"
				},
				{
					"inputs": [],
					"name": "oneWei",
					"outputs": [
						{
							"internalType": "uint256",
							"name": "",
							"type": "uint256"
						}
					],
					"stateMutability": "view",
					"type": "function"
				},
				{
					"inputs": [
						{
							"internalType": "string",
							"name": "_name",
							"type": "string"
						},
						{
							"internalType": "string",
							"name": "_des",
							"type": "string"
						},
						{
							"internalType": "uint256",
							"name": "_pass_id",
							"type": "uint256"
						}
					],
					"name": "setData",
					"outputs": [],
					"stateMutability": "nonpayable",
					"type": "function"
				},
				{
					"inputs": [],
					"name": "u1",
					"outputs": [
						{
							"internalType": "enum AirlineTickets.classTypes",
							"name": "",
							"type": "uint8"
						}
					],
					"stateMutability": "view",
					"type": "function"
				}
			],
			"devdoc": {
				"kind": "dev",
				"methods": {},
				"version": 1
			},
			"evm": {
				"assembly": "    /* \"bootcampquiz.sol\":72:1747  contract AirlineTickets {\r... */\n  mstore(0x40, 0x80)\n    /* \"bootcampquiz.sol\":259:264  false */\n  0x00\n    /* \"bootcampquiz.sol\":245:264  bool booked = false */\n  dup1\n  exp(0x0100, 0x00)\n  dup2\n  sload\n  dup2\n  0xff\n  mul\n  not\n  and\n  swap1\n  dup4\n  iszero\n  iszero\n  mul\n  or\n  swap1\n  sstore\n  pop\n    /* \"bootcampquiz.sol\":357:389  string realVal = \"Economy Class\" */\n  mload(0x40)\n  dup1\n  0x40\n  add\n  0x40\n  mstore\n  dup1\n  0x0d\n  dup2\n  mstore\n  0x20\n  add\n  0x45636f6e6f6d7920436c61737300000000000000000000000000000000000000\n  dup2\n  mstore\n  pop\n  0x02\n  swap1\n  dup1\n  mload\n  swap1\n  0x20\n  add\n  swap1\n  tag_1\n  swap3\n  swap2\n  swap1\n  tag_2\n  jump\t// in\ntag_1:\n  pop\n    /* \"bootcampquiz.sol\":432:437  1 wei */\n  0x01\n    /* \"bootcampquiz.sol\":411:437  uint public oneWei = 1 wei */\n  0x04\n  sstore\n    /* \"bootcampquiz.sol\":465:472  1 ether */\n  0x0de0b6b3a7640000\n    /* \"bootcampquiz.sol\":444:472  uint public oneEth = 1 ether */\n  0x05\n  sstore\n    /* \"bootcampquiz.sol\":545:568  classTypes.economyClass */\n  0x01\n    /* \"bootcampquiz.sol\":523:568  classTypes public u1= classTypes.economyClass */\n  0x07\n  exp(0x0100, 0x00)\n  dup2\n  sload\n  dup2\n  0xff\n  mul\n  not\n  and\n  swap1\n  dup4\n  0x02\n  dup2\n  gt\n  iszero\n  tag_3\n  jumpi\n  tag_4\n  tag_5\n  jump\t// in\ntag_4:\ntag_3:\n  mul\n  or\n  swap1\n  sstore\n  pop\n    /* \"bootcampquiz.sol\":72:1747  contract AirlineTickets {\r... */\n  callvalue\n  dup1\n  iszero\n  tag_6\n  jumpi\n  0x00\n  dup1\n  revert\ntag_6:\n  pop\n  jump(tag_7)\ntag_2:\n  dup3\n  dup1\n  sload\n  tag_8\n  swap1\n  tag_9\n  jump\t// in\ntag_8:\n  swap1\n  0x00\n  mstore\n  keccak256(0x00, 0x20)\n  swap1\n  0x1f\n  add\n  0x20\n  swap1\n  div\n  dup2\n  add\n  swap3\n  dup3\n  tag_11\n  jumpi\n  0x00\n  dup6\n  sstore\n  jump(tag_10)\ntag_11:\n  dup3\n  0x1f\n  lt\n  tag_12\n  jumpi\n  dup1\n  mload\n  not(0xff)\n  and\n  dup4\n  dup1\n  add\n  or\n  dup6\n  sstore\n  jump(tag_10)\ntag_12:\n  dup3\n  dup1\n  add\n  0x01\n  add\n  dup6\n  sstore\n  dup3\n  iszero\n  tag_10\n  jumpi\n  swap2\n  dup3\n  add\ntag_13:\n  dup3\n  dup2\n  gt\n  iszero\n  tag_14\n  jumpi\n  dup3\n  mload\n  dup3\n  sstore\n  swap2\n  0x20\n  add\n  swap2\n  swap1\n  0x01\n  add\n  swap1\n  jump(tag_13)\ntag_14:\ntag_10:\n  pop\n  swap1\n  pop\n  tag_15\n  swap2\n  swap1\n  tag_16\n  jump\t// in\ntag_15:\n  pop\n  swap1\n  jump\t// out\ntag_16:\ntag_17:\n  dup1\n  dup3\n  gt\n  iszero\n  tag_18\n  jumpi\n  0x00\n  dup2\n  0x00\n  swap1\n  sstore\n  pop\n  0x01\n  add\n  jump(tag_17)\ntag_18:\n  pop\n  swap1\n  jump\t// out\n    /* \"#utility.yul\":7:327   */\ntag_9:\n    /* \"#utility.yul\":51:57   */\n  0x00\n    /* \"#utility.yul\":88:89   */\n  0x02\n    /* \"#utility.yul\":82:86   */\n  dup3\n    /* \"#utility.yul\":78:90   */\n  div\n    /* \"#utility.yul\":68:90   */\n  swap1\n  pop\n    /* \"#utility.yul\":135:136   */\n  0x01\n    /* \"#utility.yul\":129:133   */\n  dup3\n    /* \"#utility.yul\":125:137   */\n  and\n    /* \"#utility.yul\":156:174   */\n  dup1\n    /* \"#utility.yul\":146:227   */\n  tag_21\n  jumpi\n    /* \"#utility.yul\":212:216   */\n  0x7f\n    /* \"#utility.yul\":204:210   */\n  dup3\n    /* \"#utility.yul\":200:217   */\n  and\n    /* \"#utility.yul\":190:217   */\n  swap2\n  pop\n    /* \"#utility.yul\":146:227   */\ntag_21:\n    /* \"#utility.yul\":274:276   */\n  0x20\n    /* \"#utility.yul\":266:272   */\n  dup3\n    /* \"#utility.yul\":263:277   */\n  lt\n    /* \"#utility.yul\":243:261   */\n  dup2\n    /* \"#utility.yul\":240:278   */\n  eq\n    /* \"#utility.yul\":237:321   */\n  iszero\n  tag_22\n  jumpi\n    /* \"#utility.yul\":293:311   */\n  tag_23\n  tag_24\n  jump\t// in\ntag_23:\n    /* \"#utility.yul\":237:321   */\ntag_22:\n    /* \"#utility.yul\":58:327   */\n  pop\n    /* \"#utility.yul\":7:327   */\n  swap2\n  swap1\n  pop\n  jump\t// out\n    /* \"#utility.yul\":333:513   */\ntag_5:\n    /* \"#utility.yul\":381:458   */\n  0x4e487b7100000000000000000000000000000000000000000000000000000000\n    /* \"#utility.yul\":378:379   */\n  0x00\n    /* \"#utility.yul\":371:459   */\n  mstore\n    /* \"#utility.yul\":478:482   */\n  0x21\n    /* \"#utility.yul\":475:476   */\n  0x04\n    /* \"#utility.yul\":468:483   */\n  mstore\n    /* \"#utility.yul\":502:506   */\n  0x24\n    /* \"#utility.yul\":499:500   */\n  0x00\n    /* \"#utility.yul\":492:507   */\n  revert\n    /* \"#utility.yul\":519:699   */\ntag_24:\n    /* \"#utility.yul\":567:644   */\n  0x4e487b7100000000000000000000000000000000000000000000000000000000\n    /* \"#utility.yul\":564:565   */\n  0x00\n    /* \"#utility.yul\":557:645   */\n  mstore\n    /* \"#utility.yul\":664:668   */\n  0x22\n    /* \"#utility.yul\":661:662   */\n  0x04\n    /* \"#utility.yul\":654:669   */\n  mstore\n    /* \"#utility.yul\":688:692   */\n  0x24\n    /* \"#utility.yul\":685:686   */\n  0x00\n    /* \"#utility.yul\":678:693   */\n  revert\n    /* \"bootcampquiz.sol\":72:1747  contract AirlineTickets {\r... */\ntag_7:\n  dataSize(sub_0)\n  dup1\n  dataOffset(sub_0)\n  0x00\n  codecopy\n  0x00\n  return\nstop\n\nsub_0: assembly {\n        /* \"bootcampquiz.sol\":72:1747  contract AirlineTickets {\r... */\n      mstore(0x40, 0x80)\n      callvalue\n      dup1\n      iszero\n      tag_1\n      jumpi\n      0x00\n      dup1\n      revert\n    tag_1:\n      pop\n      jumpi(tag_2, lt(calldatasize, 0x04))\n      shr(0xe0, calldataload(0x00))\n      dup1\n      0x50183507\n      gt\n      tag_11\n      jumpi\n      dup1\n      0x50183507\n      eq\n      tag_7\n      jumpi\n      dup1\n      0x7a1736d1\n      eq\n      tag_8\n      jumpi\n      dup1\n      0xb24fa0e4\n      eq\n      tag_9\n      jumpi\n      dup1\n      0xb90d3d0c\n      eq\n      tag_10\n      jumpi\n      jump(tag_2)\n    tag_11:\n      dup1\n      0x09a8d3f5\n      eq\n      tag_3\n      jumpi\n      dup1\n      0x17ae4589\n      eq\n      tag_4\n      jumpi\n      dup1\n      0x1aa35610\n      eq\n      tag_5\n      jumpi\n      dup1\n      0x4fb2e0be\n      eq\n      tag_6\n      jumpi\n    tag_2:\n      0x00\n      dup1\n      revert\n        /* \"bootcampquiz.sol\":444:472  uint public oneEth = 1 ether */\n    tag_3:\n      tag_12\n      tag_13\n      jump\t// in\n    tag_12:\n      mload(0x40)\n      tag_14\n      swap2\n      swap1\n      tag_15\n      jump\t// in\n    tag_14:\n      mload(0x40)\n      dup1\n      swap2\n      sub\n      swap1\n      return\n        /* \"bootcampquiz.sol\":1518:1738  function setData(string memory _name, string memory _des, uint _pass_id) public \r... */\n    tag_4:\n      tag_16\n      0x04\n      dup1\n      calldatasize\n      sub\n      dup2\n      add\n      swap1\n      tag_17\n      swap2\n      swap1\n      tag_18\n      jump\t// in\n    tag_17:\n      tag_19\n      jump\t// in\n    tag_16:\n      stop\n        /* \"bootcampquiz.sol\":523:568  classTypes public u1= classTypes.economyClass */\n    tag_5:\n      tag_20\n      tag_21\n      jump\t// in\n    tag_20:\n      mload(0x40)\n      tag_22\n      swap2\n      swap1\n      tag_23\n      jump\t// in\n    tag_22:\n      mload(0x40)\n      dup1\n      swap2\n      sub\n      swap1\n      return\n        /* \"bootcampquiz.sol\":411:437  uint public oneWei = 1 wei */\n    tag_6:\n      tag_24\n      tag_25\n      jump\t// in\n    tag_24:\n      mload(0x40)\n      tag_26\n      swap2\n      swap1\n      tag_15\n      jump\t// in\n    tag_26:\n      mload(0x40)\n      dup1\n      swap2\n      sub\n      swap1\n      return\n        /* \"bootcampquiz.sol\":896:1197  function firstClass() public \r... */\n    tag_7:\n      tag_27\n      tag_28\n      jump\t// in\n    tag_27:\n      stop\n        /* \"bootcampquiz.sol\":577:884  function economyClass() public \r... */\n    tag_8:\n      tag_29\n      tag_30\n      jump\t// in\n    tag_29:\n      stop\n        /* \"bootcampquiz.sol\":1205:1506  function busnissClass() public {\r... */\n    tag_9:\n      tag_31\n      tag_32\n      jump\t// in\n    tag_31:\n      stop\n        /* \"bootcampquiz.sol\":477:514  mapping (address => User) public data */\n    tag_10:\n      tag_33\n      0x04\n      dup1\n      calldatasize\n      sub\n      dup2\n      add\n      swap1\n      tag_34\n      swap2\n      swap1\n      tag_35\n      jump\t// in\n    tag_34:\n      tag_36\n      jump\t// in\n    tag_33:\n      mload(0x40)\n      tag_37\n      swap6\n      swap5\n      swap4\n      swap3\n      swap2\n      swap1\n      tag_38\n      jump\t// in\n    tag_37:\n      mload(0x40)\n      dup1\n      swap2\n      sub\n      swap1\n      return\n        /* \"bootcampquiz.sol\":444:472  uint public oneEth = 1 ether */\n    tag_13:\n      sload(0x05)\n      dup2\n      jump\t// out\n        /* \"bootcampquiz.sol\":1518:1738  function setData(string memory _name, string memory _des, uint _pass_id) public \r... */\n    tag_19:\n        /* \"bootcampquiz.sol\":1623:1629  booked */\n      0x00\n      dup1\n      sload\n      swap1\n      0x0100\n      exp\n      swap1\n      div\n      0xff\n      and\n        /* \"bootcampquiz.sol\":1615:1662  require(booked,\"please select the class first\") */\n      tag_40\n      jumpi\n      mload(0x40)\n      0x08c379a000000000000000000000000000000000000000000000000000000000\n      dup2\n      mstore\n      0x04\n      add\n      tag_41\n      swap1\n      tag_42\n      jump\t// in\n    tag_41:\n      mload(0x40)\n      dup1\n      swap2\n      sub\n      swap1\n      revert\n    tag_40:\n        /* \"bootcampquiz.sol\":1692:1730  User(_name,_des,_pass_id,realVal ,eth) */\n      mload(0x40)\n      dup1\n      0xa0\n      add\n      0x40\n      mstore\n      dup1\n        /* \"bootcampquiz.sol\":1697:1702  _name */\n      dup5\n        /* \"bootcampquiz.sol\":1692:1730  User(_name,_des,_pass_id,realVal ,eth) */\n      dup2\n      mstore\n      0x20\n      add\n        /* \"bootcampquiz.sol\":1703:1707  _des */\n      dup4\n        /* \"bootcampquiz.sol\":1692:1730  User(_name,_des,_pass_id,realVal ,eth) */\n      dup2\n      mstore\n      0x20\n      add\n        /* \"bootcampquiz.sol\":1708:1716  _pass_id */\n      dup3\n        /* \"bootcampquiz.sol\":1692:1730  User(_name,_des,_pass_id,realVal ,eth) */\n      dup2\n      mstore\n      0x20\n      add\n        /* \"bootcampquiz.sol\":1717:1724  realVal */\n      0x02\n        /* \"bootcampquiz.sol\":1692:1730  User(_name,_des,_pass_id,realVal ,eth) */\n      dup1\n      sload\n      tag_43\n      swap1\n      tag_44\n      jump\t// in\n    tag_43:\n      dup1\n      0x1f\n      add\n      0x20\n      dup1\n      swap2\n      div\n      mul\n      0x20\n      add\n      mload(0x40)\n      swap1\n      dup2\n      add\n      0x40\n      mstore\n      dup1\n      swap3\n      swap2\n      swap1\n      dup2\n      dup2\n      mstore\n      0x20\n      add\n      dup3\n      dup1\n      sload\n      tag_45\n      swap1\n      tag_44\n      jump\t// in\n    tag_45:\n      dup1\n      iszero\n      tag_46\n      jumpi\n      dup1\n      0x1f\n      lt\n      tag_47\n      jumpi\n      0x0100\n      dup1\n      dup4\n      sload\n      div\n      mul\n      dup4\n      mstore\n      swap2\n      0x20\n      add\n      swap2\n      jump(tag_46)\n    tag_47:\n      dup3\n      add\n      swap2\n      swap1\n      0x00\n      mstore\n      keccak256(0x00, 0x20)\n      swap1\n    tag_48:\n      dup2\n      sload\n      dup2\n      mstore\n      swap1\n      0x01\n      add\n      swap1\n      0x20\n      add\n      dup1\n      dup4\n      gt\n      tag_48\n      jumpi\n      dup3\n      swap1\n      sub\n      0x1f\n      and\n      dup3\n      add\n      swap2\n    tag_46:\n      pop\n      pop\n      pop\n      pop\n      pop\n      dup2\n      mstore\n      0x20\n      add\n        /* \"bootcampquiz.sol\":1726:1729  eth */\n      sload(0x03)\n        /* \"bootcampquiz.sol\":1692:1730  User(_name,_des,_pass_id,realVal ,eth) */\n      dup2\n      mstore\n      pop\n        /* \"bootcampquiz.sol\":1673:1677  data */\n      0x06\n        /* \"bootcampquiz.sol\":1673:1689  data[msg.sender] */\n      0x00\n        /* \"bootcampquiz.sol\":1678:1688  msg.sender */\n      caller\n        /* \"bootcampquiz.sol\":1673:1689  data[msg.sender] */\n      0xffffffffffffffffffffffffffffffffffffffff\n      and\n      0xffffffffffffffffffffffffffffffffffffffff\n      and\n      dup2\n      mstore\n      0x20\n      add\n      swap1\n      dup2\n      mstore\n      0x20\n      add\n      0x00\n      keccak256\n        /* \"bootcampquiz.sol\":1673:1730  data[msg.sender] = User(_name,_des,_pass_id,realVal ,eth) */\n      0x00\n      dup3\n      add\n      mload\n      dup2\n      0x00\n      add\n      swap1\n      dup1\n      mload\n      swap1\n      0x20\n      add\n      swap1\n      tag_49\n      swap3\n      swap2\n      swap1\n      tag_50\n      jump\t// in\n    tag_49:\n      pop\n      0x20\n      dup3\n      add\n      mload\n      dup2\n      0x01\n      add\n      swap1\n      dup1\n      mload\n      swap1\n      0x20\n      add\n      swap1\n      tag_51\n      swap3\n      swap2\n      swap1\n      tag_50\n      jump\t// in\n    tag_51:\n      pop\n      0x40\n      dup3\n      add\n      mload\n      dup2\n      0x02\n      add\n      sstore\n      0x60\n      dup3\n      add\n      mload\n      dup2\n      0x03\n      add\n      swap1\n      dup1\n      mload\n      swap1\n      0x20\n      add\n      swap1\n      tag_52\n      swap3\n      swap2\n      swap1\n      tag_50\n      jump\t// in\n    tag_52:\n      pop\n      0x80\n      dup3\n      add\n      mload\n      dup2\n      0x04\n      add\n      sstore\n      swap1\n      pop\n      pop\n        /* \"bootcampquiz.sol\":1518:1738  function setData(string memory _name, string memory _des, uint _pass_id) public \r... */\n      pop\n      pop\n      pop\n      jump\t// out\n        /* \"bootcampquiz.sol\":523:568  classTypes public u1= classTypes.economyClass */\n    tag_21:\n      0x07\n      0x00\n      swap1\n      sload\n      swap1\n      0x0100\n      exp\n      swap1\n      div\n      0xff\n      and\n      dup2\n      jump\t// out\n        /* \"bootcampquiz.sol\":411:437  uint public oneWei = 1 wei */\n    tag_25:\n      sload(0x04)\n      dup2\n      jump\t// out\n        /* \"bootcampquiz.sol\":896:1197  function firstClass() public \r... */\n    tag_28:\n        /* \"bootcampquiz.sol\":1009:1030  classTypes.firstClass */\n      0x00\n        /* \"bootcampquiz.sol\":1005:1007  u1 */\n      0x07\n      0x00\n        /* \"bootcampquiz.sol\":1005:1030  u1= classTypes.firstClass */\n      0x0100\n      exp\n      dup2\n      sload\n      dup2\n      0xff\n      mul\n      not\n      and\n      swap1\n      dup4\n      0x02\n      dup2\n      gt\n      iszero\n      tag_54\n      jumpi\n      tag_55\n      tag_56\n      jump\t// in\n    tag_55:\n    tag_54:\n      mul\n      or\n      swap1\n      sstore\n      pop\n        /* \"bootcampquiz.sol\":1056:1058  u1 */\n      0x07\n      0x00\n      swap1\n      sload\n      swap1\n      0x0100\n      exp\n      swap1\n      div\n      0xff\n      and\n        /* \"bootcampquiz.sol\":1051:1059  uint(u1) */\n      0x02\n      dup2\n      gt\n      iszero\n      tag_57\n      jumpi\n      tag_58\n      tag_56\n      jump\t// in\n    tag_58:\n    tag_57:\n        /* \"bootcampquiz.sol\":1041:1048  convert */\n      0x01\n        /* \"bootcampquiz.sol\":1041:1059  convert = uint(u1) */\n      dup2\n      swap1\n      sstore\n      pop\n        /* \"bootcampquiz.sol\":1082:1083  0 */\n      0x00\n        /* \"bootcampquiz.sol\":1073:1080  convert */\n      sload(0x01)\n        /* \"bootcampquiz.sol\":1073:1083  convert==0 */\n      eq\n        /* \"bootcampquiz.sol\":1070:1166  if(convert==0)\r... */\n      iszero\n      tag_59\n      jumpi\n        /* \"bootcampquiz.sol\":1109:1132  realVal = \"First Class\" */\n      mload(0x40)\n      dup1\n      0x40\n      add\n      0x40\n      mstore\n      dup1\n      0x0b\n      dup2\n      mstore\n      0x20\n      add\n      0x466972737420436c617373000000000000000000000000000000000000000000\n      dup2\n      mstore\n      pop\n        /* \"bootcampquiz.sol\":1109:1116  realVal */\n      0x02\n        /* \"bootcampquiz.sol\":1109:1132  realVal = \"First Class\" */\n      swap1\n      dup1\n      mload\n      swap1\n      0x20\n      add\n      swap1\n      tag_60\n      swap3\n      swap2\n      swap1\n      tag_50\n      jump\t// in\n    tag_60:\n      pop\n        /* \"bootcampquiz.sol\":1153:1154  2 */\n      0x02\n        /* \"bootcampquiz.sol\":1147:1150  eth */\n      0x03\n        /* \"bootcampquiz.sol\":1147:1154  eth = 2 */\n      dup2\n      swap1\n      sstore\n      pop\n        /* \"bootcampquiz.sol\":1070:1166  if(convert==0)\r... */\n    tag_59:\n        /* \"bootcampquiz.sol\":1185:1189  true */\n      0x01\n        /* \"bootcampquiz.sol\":1176:1182  booked */\n      0x00\n      dup1\n        /* \"bootcampquiz.sol\":1176:1189  booked = true */\n      0x0100\n      exp\n      dup2\n      sload\n      dup2\n      0xff\n      mul\n      not\n      and\n      swap1\n      dup4\n      iszero\n      iszero\n      mul\n      or\n      swap1\n      sstore\n      pop\n        /* \"bootcampquiz.sol\":896:1197  function firstClass() public \r... */\n      jump\t// out\n        /* \"bootcampquiz.sol\":577:884  function economyClass() public \r... */\n    tag_30:\n        /* \"bootcampquiz.sol\":692:715  classTypes.economyClass */\n      0x01\n        /* \"bootcampquiz.sol\":688:690  u1 */\n      0x07\n      0x00\n        /* \"bootcampquiz.sol\":688:715  u1= classTypes.economyClass */\n      0x0100\n      exp\n      dup2\n      sload\n      dup2\n      0xff\n      mul\n      not\n      and\n      swap1\n      dup4\n      0x02\n      dup2\n      gt\n      iszero\n      tag_62\n      jumpi\n      tag_63\n      tag_56\n      jump\t// in\n    tag_63:\n    tag_62:\n      mul\n      or\n      swap1\n      sstore\n      pop\n        /* \"bootcampquiz.sol\":741:743  u1 */\n      0x07\n      0x00\n      swap1\n      sload\n      swap1\n      0x0100\n      exp\n      swap1\n      div\n      0xff\n      and\n        /* \"bootcampquiz.sol\":736:744  uint(u1) */\n      0x02\n      dup2\n      gt\n      iszero\n      tag_64\n      jumpi\n      tag_65\n      tag_56\n      jump\t// in\n    tag_65:\n    tag_64:\n        /* \"bootcampquiz.sol\":726:733  convert */\n      0x01\n        /* \"bootcampquiz.sol\":726:744  convert = uint(u1) */\n      dup2\n      swap1\n      sstore\n      pop\n        /* \"bootcampquiz.sol\":767:768  1 */\n      0x01\n        /* \"bootcampquiz.sol\":758:765  convert */\n      dup1\n      sload\n        /* \"bootcampquiz.sol\":758:768  convert==1 */\n      eq\n        /* \"bootcampquiz.sol\":755:853  if(convert==1)\r... */\n      iszero\n      tag_66\n      jumpi\n        /* \"bootcampquiz.sol\":794:819  realVal = \"Economy Class\" */\n      mload(0x40)\n      dup1\n      0x40\n      add\n      0x40\n      mstore\n      dup1\n      0x0d\n      dup2\n      mstore\n      0x20\n      add\n      0x45636f6e6f6d7920436c61737300000000000000000000000000000000000000\n      dup2\n      mstore\n      pop\n        /* \"bootcampquiz.sol\":794:801  realVal */\n      0x02\n        /* \"bootcampquiz.sol\":794:819  realVal = \"Economy Class\" */\n      swap1\n      dup1\n      mload\n      swap1\n      0x20\n      add\n      swap1\n      tag_67\n      swap3\n      swap2\n      swap1\n      tag_50\n      jump\t// in\n    tag_67:\n      pop\n        /* \"bootcampquiz.sol\":840:841  1 */\n      0x01\n        /* \"bootcampquiz.sol\":834:837  eth */\n      0x03\n        /* \"bootcampquiz.sol\":834:841  eth = 1 */\n      dup2\n      swap1\n      sstore\n      pop\n        /* \"bootcampquiz.sol\":755:853  if(convert==1)\r... */\n    tag_66:\n        /* \"bootcampquiz.sol\":872:876  true */\n      0x01\n        /* \"bootcampquiz.sol\":863:869  booked */\n      0x00\n      dup1\n        /* \"bootcampquiz.sol\":863:876  booked = true */\n      0x0100\n      exp\n      dup2\n      sload\n      dup2\n      0xff\n      mul\n      not\n      and\n      swap1\n      dup4\n      iszero\n      iszero\n      mul\n      or\n      swap1\n      sstore\n      pop\n        /* \"bootcampquiz.sol\":577:884  function economyClass() public \r... */\n      jump\t// out\n        /* \"bootcampquiz.sol\":1205:1506  function busnissClass() public {\r... */\n    tag_32:\n        /* \"bootcampquiz.sol\":1314:1337  classTypes.busnissClass */\n      0x02\n        /* \"bootcampquiz.sol\":1310:1312  u1 */\n      0x07\n      0x00\n        /* \"bootcampquiz.sol\":1310:1337  u1= classTypes.busnissClass */\n      0x0100\n      exp\n      dup2\n      sload\n      dup2\n      0xff\n      mul\n      not\n      and\n      swap1\n      dup4\n      0x02\n      dup2\n      gt\n      iszero\n      tag_69\n      jumpi\n      tag_70\n      tag_56\n      jump\t// in\n    tag_70:\n    tag_69:\n      mul\n      or\n      swap1\n      sstore\n      pop\n        /* \"bootcampquiz.sol\":1363:1365  u1 */\n      0x07\n      0x00\n      swap1\n      sload\n      swap1\n      0x0100\n      exp\n      swap1\n      div\n      0xff\n      and\n        /* \"bootcampquiz.sol\":1358:1366  uint(u1) */\n      0x02\n      dup2\n      gt\n      iszero\n      tag_71\n      jumpi\n      tag_72\n      tag_56\n      jump\t// in\n    tag_72:\n    tag_71:\n        /* \"bootcampquiz.sol\":1348:1355  convert */\n      0x01\n        /* \"bootcampquiz.sol\":1348:1366  convert = uint(u1) */\n      dup2\n      swap1\n      sstore\n      pop\n        /* \"bootcampquiz.sol\":1389:1390  2 */\n      0x02\n        /* \"bootcampquiz.sol\":1380:1387  convert */\n      sload(0x01)\n        /* \"bootcampquiz.sol\":1380:1390  convert==2 */\n      eq\n        /* \"bootcampquiz.sol\":1377:1475  if(convert==2)\r... */\n      iszero\n      tag_73\n      jumpi\n        /* \"bootcampquiz.sol\":1416:1441  realVal = \"Busniss Class\" */\n      mload(0x40)\n      dup1\n      0x40\n      add\n      0x40\n      mstore\n      dup1\n      0x0d\n      dup2\n      mstore\n      0x20\n      add\n      0x4275736e69737320436c61737300000000000000000000000000000000000000\n      dup2\n      mstore\n      pop\n        /* \"bootcampquiz.sol\":1416:1423  realVal */\n      0x02\n        /* \"bootcampquiz.sol\":1416:1441  realVal = \"Busniss Class\" */\n      swap1\n      dup1\n      mload\n      swap1\n      0x20\n      add\n      swap1\n      tag_74\n      swap3\n      swap2\n      swap1\n      tag_50\n      jump\t// in\n    tag_74:\n      pop\n        /* \"bootcampquiz.sol\":1462:1463  3 */\n      0x03\n        /* \"bootcampquiz.sol\":1456:1459  eth */\n      dup1\n        /* \"bootcampquiz.sol\":1456:1463  eth = 3 */\n      dup2\n      swap1\n      sstore\n      pop\n        /* \"bootcampquiz.sol\":1377:1475  if(convert==2)\r... */\n    tag_73:\n        /* \"bootcampquiz.sol\":1494:1498  true */\n      0x01\n        /* \"bootcampquiz.sol\":1485:1491  booked */\n      0x00\n      dup1\n        /* \"bootcampquiz.sol\":1485:1498  booked = true */\n      0x0100\n      exp\n      dup2\n      sload\n      dup2\n      0xff\n      mul\n      not\n      and\n      swap1\n      dup4\n      iszero\n      iszero\n      mul\n      or\n      swap1\n      sstore\n      pop\n        /* \"bootcampquiz.sol\":1205:1506  function busnissClass() public {\r... */\n      jump\t// out\n        /* \"bootcampquiz.sol\":477:514  mapping (address => User) public data */\n    tag_36:\n      mstore(0x20, 0x06)\n      dup1\n      0x00\n      mstore\n      keccak256(0x00, 0x40)\n      0x00\n      swap2\n      pop\n      swap1\n      pop\n      dup1\n      0x00\n      add\n      dup1\n      sload\n      tag_75\n      swap1\n      tag_44\n      jump\t// in\n    tag_75:\n      dup1\n      0x1f\n      add\n      0x20\n      dup1\n      swap2\n      div\n      mul\n      0x20\n      add\n      mload(0x40)\n      swap1\n      dup2\n      add\n      0x40\n      mstore\n      dup1\n      swap3\n      swap2\n      swap1\n      dup2\n      dup2\n      mstore\n      0x20\n      add\n      dup3\n      dup1\n      sload\n      tag_76\n      swap1\n      tag_44\n      jump\t// in\n    tag_76:\n      dup1\n      iszero\n      tag_77\n      jumpi\n      dup1\n      0x1f\n      lt\n      tag_78\n      jumpi\n      0x0100\n      dup1\n      dup4\n      sload\n      div\n      mul\n      dup4\n      mstore\n      swap2\n      0x20\n      add\n      swap2\n      jump(tag_77)\n    tag_78:\n      dup3\n      add\n      swap2\n      swap1\n      0x00\n      mstore\n      keccak256(0x00, 0x20)\n      swap1\n    tag_79:\n      dup2\n      sload\n      dup2\n      mstore\n      swap1\n      0x01\n      add\n      swap1\n      0x20\n      add\n      dup1\n      dup4\n      gt\n      tag_79\n      jumpi\n      dup3\n      swap1\n      sub\n      0x1f\n      and\n      dup3\n      add\n      swap2\n    tag_77:\n      pop\n      pop\n      pop\n      pop\n      pop\n      swap1\n      dup1\n      0x01\n      add\n      dup1\n      sload\n      tag_80\n      swap1\n      tag_44\n      jump\t// in\n    tag_80:\n      dup1\n      0x1f\n      add\n      0x20\n      dup1\n      swap2\n      div\n      mul\n      0x20\n      add\n      mload(0x40)\n      swap1\n      dup2\n      add\n      0x40\n      mstore\n      dup1\n      swap3\n      swap2\n      swap1\n      dup2\n      dup2\n      mstore\n      0x20\n      add\n      dup3\n      dup1\n      sload\n      tag_81\n      swap1\n      tag_44\n      jump\t// in\n    tag_81:\n      dup1\n      iszero\n      tag_82\n      jumpi\n      dup1\n      0x1f\n      lt\n      tag_83\n      jumpi\n      0x0100\n      dup1\n      dup4\n      sload\n      div\n      mul\n      dup4\n      mstore\n      swap2\n      0x20\n      add\n      swap2\n      jump(tag_82)\n    tag_83:\n      dup3\n      add\n      swap2\n      swap1\n      0x00\n      mstore\n      keccak256(0x00, 0x20)\n      swap1\n    tag_84:\n      dup2\n      sload\n      dup2\n      mstore\n      swap1\n      0x01\n      add\n      swap1\n      0x20\n      add\n      dup1\n      dup4\n      gt\n      tag_84\n      jumpi\n      dup3\n      swap1\n      sub\n      0x1f\n      and\n      dup3\n      add\n      swap2\n    tag_82:\n      pop\n      pop\n      pop\n      pop\n      pop\n      swap1\n      dup1\n      0x02\n      add\n      sload\n      swap1\n      dup1\n      0x03\n      add\n      dup1\n      sload\n      tag_85\n      swap1\n      tag_44\n      jump\t// in\n    tag_85:\n      dup1\n      0x1f\n      add\n      0x20\n      dup1\n      swap2\n      div\n      mul\n      0x20\n      add\n      mload(0x40)\n      swap1\n      dup2\n      add\n      0x40\n      mstore\n      dup1\n      swap3\n      swap2\n      swap1\n      dup2\n      dup2\n      mstore\n      0x20\n      add\n      dup3\n      dup1\n      sload\n      tag_86\n      swap1\n      tag_44\n      jump\t// in\n    tag_86:\n      dup1\n      iszero\n      tag_87\n      jumpi\n      dup1\n      0x1f\n      lt\n      tag_88\n      jumpi\n      0x0100\n      dup1\n      dup4\n      sload\n      div\n      mul\n      dup4\n      mstore\n      swap2\n      0x20\n      add\n      swap2\n      jump(tag_87)\n    tag_88:\n      dup3\n      add\n      swap2\n      swap1\n      0x00\n      mstore\n      keccak256(0x00, 0x20)\n      swap1\n    tag_89:\n      dup2\n      sload\n      dup2\n      mstore\n      swap1\n      0x01\n      add\n      swap1\n      0x20\n      add\n      dup1\n      dup4\n      gt\n      tag_89\n      jumpi\n      dup3\n      swap1\n      sub\n      0x1f\n      and\n      dup3\n      add\n      swap2\n    tag_87:\n      pop\n      pop\n      pop\n      pop\n      pop\n      swap1\n      dup1\n      0x04\n      add\n      sload\n      swap1\n      pop\n      dup6\n      jump\t// out\n    tag_50:\n      dup3\n      dup1\n      sload\n      tag_90\n      swap1\n      tag_44\n      jump\t// in\n    tag_90:\n      swap1\n      0x00\n      mstore\n      keccak256(0x00, 0x20)\n      swap1\n      0x1f\n      add\n      0x20\n      swap1\n      div\n      dup2\n      add\n      swap3\n      dup3\n      tag_92\n      jumpi\n      0x00\n      dup6\n      sstore\n      jump(tag_91)\n    tag_92:\n      dup3\n      0x1f\n      lt\n      tag_93\n      jumpi\n      dup1\n      mload\n      not(0xff)\n      and\n      dup4\n      dup1\n      add\n      or\n      dup6\n      sstore\n      jump(tag_91)\n    tag_93:\n      dup3\n      dup1\n      add\n      0x01\n      add\n      dup6\n      sstore\n      dup3\n      iszero\n      tag_91\n      jumpi\n      swap2\n      dup3\n      add\n    tag_94:\n      dup3\n      dup2\n      gt\n      iszero\n      tag_95\n      jumpi\n      dup3\n      mload\n      dup3\n      sstore\n      swap2\n      0x20\n      add\n      swap2\n      swap1\n      0x01\n      add\n      swap1\n      jump(tag_94)\n    tag_95:\n    tag_91:\n      pop\n      swap1\n      pop\n      tag_96\n      swap2\n      swap1\n      tag_97\n      jump\t// in\n    tag_96:\n      pop\n      swap1\n      jump\t// out\n    tag_97:\n    tag_98:\n      dup1\n      dup3\n      gt\n      iszero\n      tag_99\n      jumpi\n      0x00\n      dup2\n      0x00\n      swap1\n      sstore\n      pop\n      0x01\n      add\n      jump(tag_98)\n    tag_99:\n      pop\n      swap1\n      jump\t// out\n        /* \"#utility.yul\":7:419   */\n    tag_101:\n        /* \"#utility.yul\":85:90   */\n      0x00\n        /* \"#utility.yul\":110:176   */\n      tag_103\n        /* \"#utility.yul\":126:175   */\n      tag_104\n        /* \"#utility.yul\":168:174   */\n      dup5\n        /* \"#utility.yul\":126:175   */\n      tag_105\n      jump\t// in\n    tag_104:\n        /* \"#utility.yul\":110:176   */\n      tag_106\n      jump\t// in\n    tag_103:\n        /* \"#utility.yul\":101:176   */\n      swap1\n      pop\n        /* \"#utility.yul\":199:205   */\n      dup3\n        /* \"#utility.yul\":192:197   */\n      dup2\n        /* \"#utility.yul\":185:206   */\n      mstore\n        /* \"#utility.yul\":237:241   */\n      0x20\n        /* \"#utility.yul\":230:235   */\n      dup2\n        /* \"#utility.yul\":226:242   */\n      add\n        /* \"#utility.yul\":275:278   */\n      dup5\n        /* \"#utility.yul\":266:272   */\n      dup5\n        /* \"#utility.yul\":261:264   */\n      dup5\n        /* \"#utility.yul\":257:273   */\n      add\n        /* \"#utility.yul\":254:279   */\n      gt\n        /* \"#utility.yul\":251:363   */\n      iszero\n      tag_107\n      jumpi\n        /* \"#utility.yul\":282:361   */\n      tag_108\n      tag_109\n      jump\t// in\n    tag_108:\n        /* \"#utility.yul\":251:363   */\n    tag_107:\n        /* \"#utility.yul\":372:413   */\n      tag_110\n        /* \"#utility.yul\":406:412   */\n      dup5\n        /* \"#utility.yul\":401:404   */\n      dup3\n        /* \"#utility.yul\":396:399   */\n      dup6\n        /* \"#utility.yul\":372:413   */\n      tag_111\n      jump\t// in\n    tag_110:\n        /* \"#utility.yul\":91:419   */\n      pop\n        /* \"#utility.yul\":7:419   */\n      swap4\n      swap3\n      pop\n      pop\n      pop\n      jump\t// out\n        /* \"#utility.yul\":425:564   */\n    tag_112:\n        /* \"#utility.yul\":471:476   */\n      0x00\n        /* \"#utility.yul\":509:515   */\n      dup2\n        /* \"#utility.yul\":496:516   */\n      calldataload\n        /* \"#utility.yul\":487:516   */\n      swap1\n      pop\n        /* \"#utility.yul\":525:558   */\n      tag_114\n        /* \"#utility.yul\":552:557   */\n      dup2\n        /* \"#utility.yul\":525:558   */\n      tag_115\n      jump\t// in\n    tag_114:\n        /* \"#utility.yul\":425:564   */\n      swap3\n      swap2\n      pop\n      pop\n      jump\t// out\n        /* \"#utility.yul\":584:924   */\n    tag_116:\n        /* \"#utility.yul\":640:645   */\n      0x00\n        /* \"#utility.yul\":689:692   */\n      dup3\n        /* \"#utility.yul\":682:686   */\n      0x1f\n        /* \"#utility.yul\":674:680   */\n      dup4\n        /* \"#utility.yul\":670:687   */\n      add\n        /* \"#utility.yul\":666:693   */\n      slt\n        /* \"#utility.yul\":656:778   */\n      tag_118\n      jumpi\n        /* \"#utility.yul\":697:776   */\n      tag_119\n      tag_120\n      jump\t// in\n    tag_119:\n        /* \"#utility.yul\":656:778   */\n    tag_118:\n        /* \"#utility.yul\":814:820   */\n      dup2\n        /* \"#utility.yul\":801:821   */\n      calldataload\n        /* \"#utility.yul\":839:918   */\n      tag_121\n        /* \"#utility.yul\":914:917   */\n      dup5\n        /* \"#utility.yul\":906:912   */\n      dup3\n        /* \"#utility.yul\":899:903   */\n      0x20\n        /* \"#utility.yul\":891:897   */\n      dup7\n        /* \"#utility.yul\":887:904   */\n      add\n        /* \"#utility.yul\":839:918   */\n      tag_101\n      jump\t// in\n    tag_121:\n        /* \"#utility.yul\":830:918   */\n      swap2\n      pop\n        /* \"#utility.yul\":646:924   */\n      pop\n        /* \"#utility.yul\":584:924   */\n      swap3\n      swap2\n      pop\n      pop\n      jump\t// out\n        /* \"#utility.yul\":930:1069   */\n    tag_122:\n        /* \"#utility.yul\":976:981   */\n      0x00\n        /* \"#utility.yul\":1014:1020   */\n      dup2\n        /* \"#utility.yul\":1001:1021   */\n      calldataload\n        /* \"#utility.yul\":992:1021   */\n      swap1\n      pop\n        /* \"#utility.yul\":1030:1063   */\n      tag_124\n        /* \"#utility.yul\":1057:1062   */\n      dup2\n        /* \"#utility.yul\":1030:1063   */\n      tag_125\n      jump\t// in\n    tag_124:\n        /* \"#utility.yul\":930:1069   */\n      swap3\n      swap2\n      pop\n      pop\n      jump\t// out\n        /* \"#utility.yul\":1075:1404   */\n    tag_35:\n        /* \"#utility.yul\":1134:1140   */\n      0x00\n        /* \"#utility.yul\":1183:1185   */\n      0x20\n        /* \"#utility.yul\":1171:1180   */\n      dup3\n        /* \"#utility.yul\":1162:1169   */\n      dup5\n        /* \"#utility.yul\":1158:1181   */\n      sub\n        /* \"#utility.yul\":1154:1186   */\n      slt\n        /* \"#utility.yul\":1151:1270   */\n      iszero\n      tag_127\n      jumpi\n        /* \"#utility.yul\":1189:1268   */\n      tag_128\n      tag_129\n      jump\t// in\n    tag_128:\n        /* \"#utility.yul\":1151:1270   */\n    tag_127:\n        /* \"#utility.yul\":1309:1310   */\n      0x00\n        /* \"#utility.yul\":1334:1387   */\n      tag_130\n        /* \"#utility.yul\":1379:1386   */\n      dup5\n        /* \"#utility.yul\":1370:1376   */\n      dup3\n        /* \"#utility.yul\":1359:1368   */\n      dup6\n        /* \"#utility.yul\":1355:1377   */\n      add\n        /* \"#utility.yul\":1334:1387   */\n      tag_112\n      jump\t// in\n    tag_130:\n        /* \"#utility.yul\":1324:1387   */\n      swap2\n      pop\n        /* \"#utility.yul\":1280:1397   */\n      pop\n        /* \"#utility.yul\":1075:1404   */\n      swap3\n      swap2\n      pop\n      pop\n      jump\t// out\n        /* \"#utility.yul\":1410:2389   */\n    tag_18:\n        /* \"#utility.yul\":1507:1513   */\n      0x00\n        /* \"#utility.yul\":1515:1521   */\n      dup1\n        /* \"#utility.yul\":1523:1529   */\n      0x00\n        /* \"#utility.yul\":1572:1574   */\n      0x60\n        /* \"#utility.yul\":1560:1569   */\n      dup5\n        /* \"#utility.yul\":1551:1558   */\n      dup7\n        /* \"#utility.yul\":1547:1570   */\n      sub\n        /* \"#utility.yul\":1543:1575   */\n      slt\n        /* \"#utility.yul\":1540:1659   */\n      iszero\n      tag_132\n      jumpi\n        /* \"#utility.yul\":1578:1657   */\n      tag_133\n      tag_129\n      jump\t// in\n    tag_133:\n        /* \"#utility.yul\":1540:1659   */\n    tag_132:\n        /* \"#utility.yul\":1726:1727   */\n      0x00\n        /* \"#utility.yul\":1715:1724   */\n      dup5\n        /* \"#utility.yul\":1711:1728   */\n      add\n        /* \"#utility.yul\":1698:1729   */\n      calldataload\n        /* \"#utility.yul\":1756:1774   */\n      0xffffffffffffffff\n        /* \"#utility.yul\":1748:1754   */\n      dup2\n        /* \"#utility.yul\":1745:1775   */\n      gt\n        /* \"#utility.yul\":1742:1859   */\n      iszero\n      tag_134\n      jumpi\n        /* \"#utility.yul\":1778:1857   */\n      tag_135\n      tag_136\n      jump\t// in\n    tag_135:\n        /* \"#utility.yul\":1742:1859   */\n    tag_134:\n        /* \"#utility.yul\":1883:1946   */\n      tag_137\n        /* \"#utility.yul\":1938:1945   */\n      dup7\n        /* \"#utility.yul\":1929:1935   */\n      dup3\n        /* \"#utility.yul\":1918:1927   */\n      dup8\n        /* \"#utility.yul\":1914:1936   */\n      add\n        /* \"#utility.yul\":1883:1946   */\n      tag_116\n      jump\t// in\n    tag_137:\n        /* \"#utility.yul\":1873:1946   */\n      swap4\n      pop\n        /* \"#utility.yul\":1669:1956   */\n      pop\n        /* \"#utility.yul\":2023:2025   */\n      0x20\n        /* \"#utility.yul\":2012:2021   */\n      dup5\n        /* \"#utility.yul\":2008:2026   */\n      add\n        /* \"#utility.yul\":1995:2027   */\n      calldataload\n        /* \"#utility.yul\":2054:2072   */\n      0xffffffffffffffff\n        /* \"#utility.yul\":2046:2052   */\n      dup2\n        /* \"#utility.yul\":2043:2073   */\n      gt\n        /* \"#utility.yul\":2040:2157   */\n      iszero\n      tag_138\n      jumpi\n        /* \"#utility.yul\":2076:2155   */\n      tag_139\n      tag_136\n      jump\t// in\n    tag_139:\n        /* \"#utility.yul\":2040:2157   */\n    tag_138:\n        /* \"#utility.yul\":2181:2244   */\n      tag_140\n        /* \"#utility.yul\":2236:2243   */\n      dup7\n        /* \"#utility.yul\":2227:2233   */\n      dup3\n        /* \"#utility.yul\":2216:2225   */\n      dup8\n        /* \"#utility.yul\":2212:2234   */\n      add\n        /* \"#utility.yul\":2181:2244   */\n      tag_116\n      jump\t// in\n    tag_140:\n        /* \"#utility.yul\":2171:2244   */\n      swap3\n      pop\n        /* \"#utility.yul\":1966:2254   */\n      pop\n        /* \"#utility.yul\":2293:2295   */\n      0x40\n        /* \"#utility.yul\":2319:2372   */\n      tag_141\n        /* \"#utility.yul\":2364:2371   */\n      dup7\n        /* \"#utility.yul\":2355:2361   */\n      dup3\n        /* \"#utility.yul\":2344:2353   */\n      dup8\n        /* \"#utility.yul\":2340:2362   */\n      add\n        /* \"#utility.yul\":2319:2372   */\n      tag_122\n      jump\t// in\n    tag_141:\n        /* \"#utility.yul\":2309:2372   */\n      swap2\n      pop\n        /* \"#utility.yul\":2264:2382   */\n      pop\n        /* \"#utility.yul\":1410:2389   */\n      swap3\n      pop\n      swap3\n      pop\n      swap3\n      jump\t// out\n        /* \"#utility.yul\":2395:2548   */\n    tag_142:\n        /* \"#utility.yul\":2493:2541   */\n      tag_144\n        /* \"#utility.yul\":2535:2540   */\n      dup2\n        /* \"#utility.yul\":2493:2541   */\n      tag_145\n      jump\t// in\n    tag_144:\n        /* \"#utility.yul\":2488:2491   */\n      dup3\n        /* \"#utility.yul\":2481:2542   */\n      mstore\n        /* \"#utility.yul\":2395:2548   */\n      pop\n      pop\n      jump\t// out\n        /* \"#utility.yul\":2554:2918   */\n    tag_146:\n        /* \"#utility.yul\":2642:2645   */\n      0x00\n        /* \"#utility.yul\":2670:2709   */\n      tag_148\n        /* \"#utility.yul\":2703:2708   */\n      dup3\n        /* \"#utility.yul\":2670:2709   */\n      tag_149\n      jump\t// in\n    tag_148:\n        /* \"#utility.yul\":2725:2796   */\n      tag_150\n        /* \"#utility.yul\":2789:2795   */\n      dup2\n        /* \"#utility.yul\":2784:2787   */\n      dup6\n        /* \"#utility.yul\":2725:2796   */\n      tag_151\n      jump\t// in\n    tag_150:\n        /* \"#utility.yul\":2718:2796   */\n      swap4\n      pop\n        /* \"#utility.yul\":2805:2857   */\n      tag_152\n        /* \"#utility.yul\":2850:2856   */\n      dup2\n        /* \"#utility.yul\":2845:2848   */\n      dup6\n        /* \"#utility.yul\":2838:2842   */\n      0x20\n        /* \"#utility.yul\":2831:2836   */\n      dup7\n        /* \"#utility.yul\":2827:2843   */\n      add\n        /* \"#utility.yul\":2805:2857   */\n      tag_153\n      jump\t// in\n    tag_152:\n        /* \"#utility.yul\":2882:2911   */\n      tag_154\n        /* \"#utility.yul\":2904:2910   */\n      dup2\n        /* \"#utility.yul\":2882:2911   */\n      tag_155\n      jump\t// in\n    tag_154:\n        /* \"#utility.yul\":2877:2880   */\n      dup5\n        /* \"#utility.yul\":2873:2912   */\n      add\n        /* \"#utility.yul\":2866:2912   */\n      swap2\n      pop\n        /* \"#utility.yul\":2646:2918   */\n      pop\n        /* \"#utility.yul\":2554:2918   */\n      swap3\n      swap2\n      pop\n      pop\n      jump\t// out\n        /* \"#utility.yul\":2924:3290   */\n    tag_156:\n        /* \"#utility.yul\":3066:3069   */\n      0x00\n        /* \"#utility.yul\":3087:3154   */\n      tag_158\n        /* \"#utility.yul\":3151:3153   */\n      0x1d\n        /* \"#utility.yul\":3146:3149   */\n      dup4\n        /* \"#utility.yul\":3087:3154   */\n      tag_151\n      jump\t// in\n    tag_158:\n        /* \"#utility.yul\":3080:3154   */\n      swap2\n      pop\n        /* \"#utility.yul\":3163:3256   */\n      tag_159\n        /* \"#utility.yul\":3252:3255   */\n      dup3\n        /* \"#utility.yul\":3163:3256   */\n      tag_160\n      jump\t// in\n    tag_159:\n        /* \"#utility.yul\":3281:3283   */\n      0x20\n        /* \"#utility.yul\":3276:3279   */\n      dup3\n        /* \"#utility.yul\":3272:3284   */\n      add\n        /* \"#utility.yul\":3265:3284   */\n      swap1\n      pop\n        /* \"#utility.yul\":2924:3290   */\n      swap2\n      swap1\n      pop\n      jump\t// out\n        /* \"#utility.yul\":3296:3414   */\n    tag_161:\n        /* \"#utility.yul\":3383:3407   */\n      tag_163\n        /* \"#utility.yul\":3401:3406   */\n      dup2\n        /* \"#utility.yul\":3383:3407   */\n      tag_164\n      jump\t// in\n    tag_163:\n        /* \"#utility.yul\":3378:3381   */\n      dup3\n        /* \"#utility.yul\":3371:3408   */\n      mstore\n        /* \"#utility.yul\":3296:3414   */\n      pop\n      pop\n      jump\t// out\n        /* \"#utility.yul\":3420:3664   */\n    tag_23:\n        /* \"#utility.yul\":3524:3528   */\n      0x00\n        /* \"#utility.yul\":3562:3564   */\n      0x20\n        /* \"#utility.yul\":3551:3560   */\n      dup3\n        /* \"#utility.yul\":3547:3565   */\n      add\n        /* \"#utility.yul\":3539:3565   */\n      swap1\n      pop\n        /* \"#utility.yul\":3575:3657   */\n      tag_166\n        /* \"#utility.yul\":3654:3655   */\n      0x00\n        /* \"#utility.yul\":3643:3652   */\n      dup4\n        /* \"#utility.yul\":3639:3656   */\n      add\n        /* \"#utility.yul\":3630:3636   */\n      dup5\n        /* \"#utility.yul\":3575:3657   */\n      tag_142\n      jump\t// in\n    tag_166:\n        /* \"#utility.yul\":3420:3664   */\n      swap3\n      swap2\n      pop\n      pop\n      jump\t// out\n        /* \"#utility.yul\":3670:4607   */\n    tag_38:\n        /* \"#utility.yul\":3935:3939   */\n      0x00\n        /* \"#utility.yul\":3973:3976   */\n      0xa0\n        /* \"#utility.yul\":3962:3971   */\n      dup3\n        /* \"#utility.yul\":3958:3977   */\n      add\n        /* \"#utility.yul\":3950:3977   */\n      swap1\n      pop\n        /* \"#utility.yul\":4023:4032   */\n      dup2\n        /* \"#utility.yul\":4017:4021   */\n      dup2\n        /* \"#utility.yul\":4013:4033   */\n      sub\n        /* \"#utility.yul\":4009:4010   */\n      0x00\n        /* \"#utility.yul\":3998:4007   */\n      dup4\n        /* \"#utility.yul\":3994:4011   */\n      add\n        /* \"#utility.yul\":3987:4034   */\n      mstore\n        /* \"#utility.yul\":4051:4129   */\n      tag_168\n        /* \"#utility.yul\":4124:4128   */\n      dup2\n        /* \"#utility.yul\":4115:4121   */\n      dup9\n        /* \"#utility.yul\":4051:4129   */\n      tag_146\n      jump\t// in\n    tag_168:\n        /* \"#utility.yul\":4043:4129   */\n      swap1\n      pop\n        /* \"#utility.yul\":4176:4185   */\n      dup2\n        /* \"#utility.yul\":4170:4174   */\n      dup2\n        /* \"#utility.yul\":4166:4186   */\n      sub\n        /* \"#utility.yul\":4161:4163   */\n      0x20\n        /* \"#utility.yul\":4150:4159   */\n      dup4\n        /* \"#utility.yul\":4146:4164   */\n      add\n        /* \"#utility.yul\":4139:4187   */\n      mstore\n        /* \"#utility.yul\":4204:4282   */\n      tag_169\n        /* \"#utility.yul\":4277:4281   */\n      dup2\n        /* \"#utility.yul\":4268:4274   */\n      dup8\n        /* \"#utility.yul\":4204:4282   */\n      tag_146\n      jump\t// in\n    tag_169:\n        /* \"#utility.yul\":4196:4282   */\n      swap1\n      pop\n        /* \"#utility.yul\":4292:4364   */\n      tag_170\n        /* \"#utility.yul\":4360:4362   */\n      0x40\n        /* \"#utility.yul\":4349:4358   */\n      dup4\n        /* \"#utility.yul\":4345:4363   */\n      add\n        /* \"#utility.yul\":4336:4342   */\n      dup7\n        /* \"#utility.yul\":4292:4364   */\n      tag_161\n      jump\t// in\n    tag_170:\n        /* \"#utility.yul\":4411:4420   */\n      dup2\n        /* \"#utility.yul\":4405:4409   */\n      dup2\n        /* \"#utility.yul\":4401:4421   */\n      sub\n        /* \"#utility.yul\":4396:4398   */\n      0x60\n        /* \"#utility.yul\":4385:4394   */\n      dup4\n        /* \"#utility.yul\":4381:4399   */\n      add\n        /* \"#utility.yul\":4374:4422   */\n      mstore\n        /* \"#utility.yul\":4439:4517   */\n      tag_171\n        /* \"#utility.yul\":4512:4516   */\n      dup2\n        /* \"#utility.yul\":4503:4509   */\n      dup6\n        /* \"#utility.yul\":4439:4517   */\n      tag_146\n      jump\t// in\n    tag_171:\n        /* \"#utility.yul\":4431:4517   */\n      swap1\n      pop\n        /* \"#utility.yul\":4527:4600   */\n      tag_172\n        /* \"#utility.yul\":4595:4598   */\n      0x80\n        /* \"#utility.yul\":4584:4593   */\n      dup4\n        /* \"#utility.yul\":4580:4599   */\n      add\n        /* \"#utility.yul\":4571:4577   */\n      dup5\n        /* \"#utility.yul\":4527:4600   */\n      tag_161\n      jump\t// in\n    tag_172:\n        /* \"#utility.yul\":3670:4607   */\n      swap7\n      swap6\n      pop\n      pop\n      pop\n      pop\n      pop\n      pop\n      jump\t// out\n        /* \"#utility.yul\":4613:5032   */\n    tag_42:\n        /* \"#utility.yul\":4779:4783   */\n      0x00\n        /* \"#utility.yul\":4817:4819   */\n      0x20\n        /* \"#utility.yul\":4806:4815   */\n      dup3\n        /* \"#utility.yul\":4802:4820   */\n      add\n        /* \"#utility.yul\":4794:4820   */\n      swap1\n      pop\n        /* \"#utility.yul\":4866:4875   */\n      dup2\n        /* \"#utility.yul\":4860:4864   */\n      dup2\n        /* \"#utility.yul\":4856:4876   */\n      sub\n        /* \"#utility.yul\":4852:4853   */\n      0x00\n        /* \"#utility.yul\":4841:4850   */\n      dup4\n        /* \"#utility.yul\":4837:4854   */\n      add\n        /* \"#utility.yul\":4830:4877   */\n      mstore\n        /* \"#utility.yul\":4894:5025   */\n      tag_174\n        /* \"#utility.yul\":5020:5024   */\n      dup2\n        /* \"#utility.yul\":4894:5025   */\n      tag_156\n      jump\t// in\n    tag_174:\n        /* \"#utility.yul\":4886:5025   */\n      swap1\n      pop\n        /* \"#utility.yul\":4613:5032   */\n      swap2\n      swap1\n      pop\n      jump\t// out\n        /* \"#utility.yul\":5038:5260   */\n    tag_15:\n        /* \"#utility.yul\":5131:5135   */\n      0x00\n        /* \"#utility.yul\":5169:5171   */\n      0x20\n        /* \"#utility.yul\":5158:5167   */\n      dup3\n        /* \"#utility.yul\":5154:5172   */\n      add\n        /* \"#utility.yul\":5146:5172   */\n      swap1\n      pop\n        /* \"#utility.yul\":5182:5253   */\n      tag_176\n        /* \"#utility.yul\":5250:5251   */\n      0x00\n        /* \"#utility.yul\":5239:5248   */\n      dup4\n        /* \"#utility.yul\":5235:5252   */\n      add\n        /* \"#utility.yul\":5226:5232   */\n      dup5\n        /* \"#utility.yul\":5182:5253   */\n      tag_161\n      jump\t// in\n    tag_176:\n        /* \"#utility.yul\":5038:5260   */\n      swap3\n      swap2\n      pop\n      pop\n      jump\t// out\n        /* \"#utility.yul\":5266:5395   */\n    tag_106:\n        /* \"#utility.yul\":5300:5306   */\n      0x00\n        /* \"#utility.yul\":5327:5347   */\n      tag_178\n      tag_179\n      jump\t// in\n    tag_178:\n        /* \"#utility.yul\":5317:5347   */\n      swap1\n      pop\n        /* \"#utility.yul\":5356:5389   */\n      tag_180\n        /* \"#utility.yul\":5384:5388   */\n      dup3\n        /* \"#utility.yul\":5376:5382   */\n      dup3\n        /* \"#utility.yul\":5356:5389   */\n      tag_181\n      jump\t// in\n    tag_180:\n        /* \"#utility.yul\":5266:5395   */\n      swap2\n      swap1\n      pop\n      jump\t// out\n        /* \"#utility.yul\":5401:5476   */\n    tag_179:\n        /* \"#utility.yul\":5434:5440   */\n      0x00\n        /* \"#utility.yul\":5467:5469   */\n      0x40\n        /* \"#utility.yul\":5461:5470   */\n      mload\n        /* \"#utility.yul\":5451:5470   */\n      swap1\n      pop\n        /* \"#utility.yul\":5401:5476   */\n      swap1\n      jump\t// out\n        /* \"#utility.yul\":5482:5790   */\n    tag_105:\n        /* \"#utility.yul\":5544:5548   */\n      0x00\n        /* \"#utility.yul\":5634:5652   */\n      0xffffffffffffffff\n        /* \"#utility.yul\":5626:5632   */\n      dup3\n        /* \"#utility.yul\":5623:5653   */\n      gt\n        /* \"#utility.yul\":5620:5676   */\n      iszero\n      tag_184\n      jumpi\n        /* \"#utility.yul\":5656:5674   */\n      tag_185\n      tag_186\n      jump\t// in\n    tag_185:\n        /* \"#utility.yul\":5620:5676   */\n    tag_184:\n        /* \"#utility.yul\":5694:5723   */\n      tag_187\n        /* \"#utility.yul\":5716:5722   */\n      dup3\n        /* \"#utility.yul\":5694:5723   */\n      tag_155\n      jump\t// in\n    tag_187:\n        /* \"#utility.yul\":5686:5723   */\n      swap1\n      pop\n        /* \"#utility.yul\":5778:5782   */\n      0x20\n        /* \"#utility.yul\":5772:5776   */\n      dup2\n        /* \"#utility.yul\":5768:5783   */\n      add\n        /* \"#utility.yul\":5760:5783   */\n      swap1\n      pop\n        /* \"#utility.yul\":5482:5790   */\n      swap2\n      swap1\n      pop\n      jump\t// out\n        /* \"#utility.yul\":5796:5895   */\n    tag_149:\n        /* \"#utility.yul\":5848:5854   */\n      0x00\n        /* \"#utility.yul\":5882:5887   */\n      dup2\n        /* \"#utility.yul\":5876:5888   */\n      mload\n        /* \"#utility.yul\":5866:5888   */\n      swap1\n      pop\n        /* \"#utility.yul\":5796:5895   */\n      swap2\n      swap1\n      pop\n      jump\t// out\n        /* \"#utility.yul\":5901:6070   */\n    tag_151:\n        /* \"#utility.yul\":5985:5996   */\n      0x00\n        /* \"#utility.yul\":6019:6025   */\n      dup3\n        /* \"#utility.yul\":6014:6017   */\n      dup3\n        /* \"#utility.yul\":6007:6026   */\n      mstore\n        /* \"#utility.yul\":6059:6063   */\n      0x20\n        /* \"#utility.yul\":6054:6057   */\n      dup3\n        /* \"#utility.yul\":6050:6064   */\n      add\n        /* \"#utility.yul\":6035:6064   */\n      swap1\n      pop\n        /* \"#utility.yul\":5901:6070   */\n      swap3\n      swap2\n      pop\n      pop\n      jump\t// out\n        /* \"#utility.yul\":6076:6172   */\n    tag_190:\n        /* \"#utility.yul\":6113:6120   */\n      0x00\n        /* \"#utility.yul\":6142:6166   */\n      tag_192\n        /* \"#utility.yul\":6160:6165   */\n      dup3\n        /* \"#utility.yul\":6142:6166   */\n      tag_193\n      jump\t// in\n    tag_192:\n        /* \"#utility.yul\":6131:6166   */\n      swap1\n      pop\n        /* \"#utility.yul\":6076:6172   */\n      swap2\n      swap1\n      pop\n      jump\t// out\n        /* \"#utility.yul\":6178:6315   */\n    tag_194:\n        /* \"#utility.yul\":6228:6235   */\n      0x00\n        /* \"#utility.yul\":6257:6262   */\n      dup2\n        /* \"#utility.yul\":6246:6262   */\n      swap1\n      pop\n        /* \"#utility.yul\":6263:6309   */\n      tag_196\n        /* \"#utility.yul\":6303:6308   */\n      dup3\n        /* \"#utility.yul\":6263:6309   */\n      tag_197\n      jump\t// in\n    tag_196:\n        /* \"#utility.yul\":6178:6315   */\n      swap2\n      swap1\n      pop\n      jump\t// out\n        /* \"#utility.yul\":6321:6447   */\n    tag_193:\n        /* \"#utility.yul\":6358:6365   */\n      0x00\n        /* \"#utility.yul\":6398:6440   */\n      0xffffffffffffffffffffffffffffffffffffffff\n        /* \"#utility.yul\":6391:6396   */\n      dup3\n        /* \"#utility.yul\":6387:6441   */\n      and\n        /* \"#utility.yul\":6376:6441   */\n      swap1\n      pop\n        /* \"#utility.yul\":6321:6447   */\n      swap2\n      swap1\n      pop\n      jump\t// out\n        /* \"#utility.yul\":6453:6530   */\n    tag_164:\n        /* \"#utility.yul\":6490:6497   */\n      0x00\n        /* \"#utility.yul\":6519:6524   */\n      dup2\n        /* \"#utility.yul\":6508:6524   */\n      swap1\n      pop\n        /* \"#utility.yul\":6453:6530   */\n      swap2\n      swap1\n      pop\n      jump\t// out\n        /* \"#utility.yul\":6536:6673   */\n    tag_145:\n        /* \"#utility.yul\":6597:6606   */\n      0x00\n        /* \"#utility.yul\":6630:6667   */\n      tag_201\n        /* \"#utility.yul\":6661:6666   */\n      dup3\n        /* \"#utility.yul\":6630:6667   */\n      tag_194\n      jump\t// in\n    tag_201:\n        /* \"#utility.yul\":6617:6667   */\n      swap1\n      pop\n        /* \"#utility.yul\":6536:6673   */\n      swap2\n      swap1\n      pop\n      jump\t// out\n        /* \"#utility.yul\":6679:6833   */\n    tag_111:\n        /* \"#utility.yul\":6763:6769   */\n      dup3\n        /* \"#utility.yul\":6758:6761   */\n      dup2\n        /* \"#utility.yul\":6753:6756   */\n      dup4\n        /* \"#utility.yul\":6740:6770   */\n      calldatacopy\n        /* \"#utility.yul\":6825:6826   */\n      0x00\n        /* \"#utility.yul\":6816:6822   */\n      dup4\n        /* \"#utility.yul\":6811:6814   */\n      dup4\n        /* \"#utility.yul\":6807:6823   */\n      add\n        /* \"#utility.yul\":6800:6827   */\n      mstore\n        /* \"#utility.yul\":6679:6833   */\n      pop\n      pop\n      pop\n      jump\t// out\n        /* \"#utility.yul\":6839:7146   */\n    tag_153:\n        /* \"#utility.yul\":6907:6908   */\n      0x00\n        /* \"#utility.yul\":6917:7030   */\n    tag_204:\n        /* \"#utility.yul\":6931:6937   */\n      dup4\n        /* \"#utility.yul\":6928:6929   */\n      dup2\n        /* \"#utility.yul\":6925:6938   */\n      lt\n        /* \"#utility.yul\":6917:7030   */\n      iszero\n      tag_206\n      jumpi\n        /* \"#utility.yul\":7016:7017   */\n      dup1\n        /* \"#utility.yul\":7011:7014   */\n      dup3\n        /* \"#utility.yul\":7007:7018   */\n      add\n        /* \"#utility.yul\":7001:7019   */\n      mload\n        /* \"#utility.yul\":6997:6998   */\n      dup2\n        /* \"#utility.yul\":6992:6995   */\n      dup5\n        /* \"#utility.yul\":6988:6999   */\n      add\n        /* \"#utility.yul\":6981:7020   */\n      mstore\n        /* \"#utility.yul\":6953:6955   */\n      0x20\n        /* \"#utility.yul\":6950:6951   */\n      dup2\n        /* \"#utility.yul\":6946:6956   */\n      add\n        /* \"#utility.yul\":6941:6956   */\n      swap1\n      pop\n        /* \"#utility.yul\":6917:7030   */\n      jump(tag_204)\n    tag_206:\n        /* \"#utility.yul\":7048:7054   */\n      dup4\n        /* \"#utility.yul\":7045:7046   */\n      dup2\n        /* \"#utility.yul\":7042:7055   */\n      gt\n        /* \"#utility.yul\":7039:7140   */\n      iszero\n      tag_207\n      jumpi\n        /* \"#utility.yul\":7128:7129   */\n      0x00\n        /* \"#utility.yul\":7119:7125   */\n      dup5\n        /* \"#utility.yul\":7114:7117   */\n      dup5\n        /* \"#utility.yul\":7110:7126   */\n      add\n        /* \"#utility.yul\":7103:7130   */\n      mstore\n        /* \"#utility.yul\":7039:7140   */\n    tag_207:\n        /* \"#utility.yul\":6888:7146   */\n      pop\n        /* \"#utility.yul\":6839:7146   */\n      pop\n      pop\n      pop\n      jump\t// out\n        /* \"#utility.yul\":7152:7472   */\n    tag_44:\n        /* \"#utility.yul\":7196:7202   */\n      0x00\n        /* \"#utility.yul\":7233:7234   */\n      0x02\n        /* \"#utility.yul\":7227:7231   */\n      dup3\n        /* \"#utility.yul\":7223:7235   */\n      div\n        /* \"#utility.yul\":7213:7235   */\n      swap1\n      pop\n        /* \"#utility.yul\":7280:7281   */\n      0x01\n        /* \"#utility.yul\":7274:7278   */\n      dup3\n        /* \"#utility.yul\":7270:7282   */\n      and\n        /* \"#utility.yul\":7301:7319   */\n      dup1\n        /* \"#utility.yul\":7291:7372   */\n      tag_209\n      jumpi\n        /* \"#utility.yul\":7357:7361   */\n      0x7f\n        /* \"#utility.yul\":7349:7355   */\n      dup3\n        /* \"#utility.yul\":7345:7362   */\n      and\n        /* \"#utility.yul\":7335:7362   */\n      swap2\n      pop\n        /* \"#utility.yul\":7291:7372   */\n    tag_209:\n        /* \"#utility.yul\":7419:7421   */\n      0x20\n        /* \"#utility.yul\":7411:7417   */\n      dup3\n        /* \"#utility.yul\":7408:7422   */\n      lt\n        /* \"#utility.yul\":7388:7406   */\n      dup2\n        /* \"#utility.yul\":7385:7423   */\n      eq\n        /* \"#utility.yul\":7382:7466   */\n      iszero\n      tag_210\n      jumpi\n        /* \"#utility.yul\":7438:7456   */\n      tag_211\n      tag_212\n      jump\t// in\n    tag_211:\n        /* \"#utility.yul\":7382:7466   */\n    tag_210:\n        /* \"#utility.yul\":7203:7472   */\n      pop\n        /* \"#utility.yul\":7152:7472   */\n      swap2\n      swap1\n      pop\n      jump\t// out\n        /* \"#utility.yul\":7478:7759   */\n    tag_181:\n        /* \"#utility.yul\":7561:7588   */\n      tag_214\n        /* \"#utility.yul\":7583:7587   */\n      dup3\n        /* \"#utility.yul\":7561:7588   */\n      tag_155\n      jump\t// in\n    tag_214:\n        /* \"#utility.yul\":7553:7559   */\n      dup2\n        /* \"#utility.yul\":7549:7589   */\n      add\n        /* \"#utility.yul\":7691:7697   */\n      dup2\n        /* \"#utility.yul\":7679:7689   */\n      dup2\n        /* \"#utility.yul\":7676:7698   */\n      lt\n        /* \"#utility.yul\":7655:7673   */\n      0xffffffffffffffff\n        /* \"#utility.yul\":7643:7653   */\n      dup3\n        /* \"#utility.yul\":7640:7674   */\n      gt\n        /* \"#utility.yul\":7637:7699   */\n      or\n        /* \"#utility.yul\":7634:7722   */\n      iszero\n      tag_215\n      jumpi\n        /* \"#utility.yul\":7702:7720   */\n      tag_216\n      tag_186\n      jump\t// in\n    tag_216:\n        /* \"#utility.yul\":7634:7722   */\n    tag_215:\n        /* \"#utility.yul\":7742:7752   */\n      dup1\n        /* \"#utility.yul\":7738:7740   */\n      0x40\n        /* \"#utility.yul\":7731:7753   */\n      mstore\n        /* \"#utility.yul\":7521:7759   */\n      pop\n        /* \"#utility.yul\":7478:7759   */\n      pop\n      pop\n      jump\t// out\n        /* \"#utility.yul\":7765:7945   */\n    tag_56:\n        /* \"#utility.yul\":7813:7890   */\n      0x4e487b7100000000000000000000000000000000000000000000000000000000\n        /* \"#utility.yul\":7810:7811   */\n      0x00\n        /* \"#utility.yul\":7803:7891   */\n      mstore\n        /* \"#utility.yul\":7910:7914   */\n      0x21\n        /* \"#utility.yul\":7907:7908   */\n      0x04\n        /* \"#utility.yul\":7900:7915   */\n      mstore\n        /* \"#utility.yul\":7934:7938   */\n      0x24\n        /* \"#utility.yul\":7931:7932   */\n      0x00\n        /* \"#utility.yul\":7924:7939   */\n      revert\n        /* \"#utility.yul\":7951:8131   */\n    tag_212:\n        /* \"#utility.yul\":7999:8076   */\n      0x4e487b7100000000000000000000000000000000000000000000000000000000\n        /* \"#utility.yul\":7996:7997   */\n      0x00\n        /* \"#utility.yul\":7989:8077   */\n      mstore\n        /* \"#utility.yul\":8096:8100   */\n      0x22\n        /* \"#utility.yul\":8093:8094   */\n      0x04\n        /* \"#utility.yul\":8086:8101   */\n      mstore\n        /* \"#utility.yul\":8120:8124   */\n      0x24\n        /* \"#utility.yul\":8117:8118   */\n      0x00\n        /* \"#utility.yul\":8110:8125   */\n      revert\n        /* \"#utility.yul\":8137:8317   */\n    tag_186:\n        /* \"#utility.yul\":8185:8262   */\n      0x4e487b7100000000000000000000000000000000000000000000000000000000\n        /* \"#utility.yul\":8182:8183   */\n      0x00\n        /* \"#utility.yul\":8175:8263   */\n      mstore\n        /* \"#utility.yul\":8282:8286   */\n      0x41\n        /* \"#utility.yul\":8279:8280   */\n      0x04\n        /* \"#utility.yul\":8272:8287   */\n      mstore\n        /* \"#utility.yul\":8306:8310   */\n      0x24\n        /* \"#utility.yul\":8303:8304   */\n      0x00\n        /* \"#utility.yul\":8296:8311   */\n      revert\n        /* \"#utility.yul\":8323:8440   */\n    tag_120:\n        /* \"#utility.yul\":8432:8433   */\n      0x00\n        /* \"#utility.yul\":8429:8430   */\n      dup1\n        /* \"#utility.yul\":8422:8434   */\n      revert\n        /* \"#utility.yul\":8446:8563   */\n    tag_109:\n        /* \"#utility.yul\":8555:8556   */\n      0x00\n        /* \"#utility.yul\":8552:8553   */\n      dup1\n        /* \"#utility.yul\":8545:8557   */\n      revert\n        /* \"#utility.yul\":8569:8686   */\n    tag_136:\n        /* \"#utility.yul\":8678:8679   */\n      0x00\n        /* \"#utility.yul\":8675:8676   */\n      dup1\n        /* \"#utility.yul\":8668:8680   */\n      revert\n        /* \"#utility.yul\":8692:8809   */\n    tag_129:\n        /* \"#utility.yul\":8801:8802   */\n      0x00\n        /* \"#utility.yul\":8798:8799   */\n      dup1\n        /* \"#utility.yul\":8791:8803   */\n      revert\n        /* \"#utility.yul\":8815:8917   */\n    tag_155:\n        /* \"#utility.yul\":8856:8862   */\n      0x00\n        /* \"#utility.yul\":8907:8909   */\n      0x1f\n        /* \"#utility.yul\":8903:8910   */\n      not\n        /* \"#utility.yul\":8898:8900   */\n      0x1f\n        /* \"#utility.yul\":8891:8896   */\n      dup4\n        /* \"#utility.yul\":8887:8901   */\n      add\n        /* \"#utility.yul\":8883:8911   */\n      and\n        /* \"#utility.yul\":8873:8911   */\n      swap1\n      pop\n        /* \"#utility.yul\":8815:8917   */\n      swap2\n      swap1\n      pop\n      jump\t// out\n        /* \"#utility.yul\":8923:9102   */\n    tag_160:\n        /* \"#utility.yul\":9063:9094   */\n      0x706c656173652073656c6563742074686520636c617373206669727374000000\n        /* \"#utility.yul\":9059:9060   */\n      0x00\n        /* \"#utility.yul\":9051:9057   */\n      dup3\n        /* \"#utility.yul\":9047:9061   */\n      add\n        /* \"#utility.yul\":9040:9095   */\n      mstore\n        /* \"#utility.yul\":8923:9102   */\n      pop\n      jump\t// out\n        /* \"#utility.yul\":9108:9226   */\n    tag_197:\n        /* \"#utility.yul\":9194:9195   */\n      0x03\n        /* \"#utility.yul\":9187:9192   */\n      dup2\n        /* \"#utility.yul\":9184:9196   */\n      lt\n        /* \"#utility.yul\":9174:9220   */\n      tag_227\n      jumpi\n        /* \"#utility.yul\":9200:9218   */\n      tag_228\n      tag_56\n      jump\t// in\n    tag_228:\n        /* \"#utility.yul\":9174:9220   */\n    tag_227:\n        /* \"#utility.yul\":9108:9226   */\n      pop\n      jump\t// out\n        /* \"#utility.yul\":9232:9354   */\n    tag_115:\n        /* \"#utility.yul\":9305:9329   */\n      tag_230\n        /* \"#utility.yul\":9323:9328   */\n      dup2\n        /* \"#utility.yul\":9305:9329   */\n      tag_190\n      jump\t// in\n    tag_230:\n        /* \"#utility.yul\":9298:9303   */\n      dup2\n        /* \"#utility.yul\":9295:9330   */\n      eq\n        /* \"#utility.yul\":9285:9348   */\n      tag_231\n      jumpi\n        /* \"#utility.yul\":9344:9345   */\n      0x00\n        /* \"#utility.yul\":9341:9342   */\n      dup1\n        /* \"#utility.yul\":9334:9346   */\n      revert\n        /* \"#utility.yul\":9285:9348   */\n    tag_231:\n        /* \"#utility.yul\":9232:9354   */\n      pop\n      jump\t// out\n        /* \"#utility.yul\":9360:9482   */\n    tag_125:\n        /* \"#utility.yul\":9433:9457   */\n      tag_233\n        /* \"#utility.yul\":9451:9456   */\n      dup2\n        /* \"#utility.yul\":9433:9457   */\n      tag_164\n      jump\t// in\n    tag_233:\n        /* \"#utility.yul\":9426:9431   */\n      dup2\n        /* \"#utility.yul\":9423:9458   */\n      eq\n        /* \"#utility.yul\":9413:9476   */\n      tag_234\n      jumpi\n        /* \"#utility.yul\":9472:9473   */\n      0x00\n        /* \"#utility.yul\":9469:9470   */\n      dup1\n        /* \"#utility.yul\":9462:9474   */\n      revert\n        /* \"#utility.yul\":9413:9476   */\n    tag_234:\n        /* \"#utility.yul\":9360:9482   */\n      pop\n      jump\t// out\n\n    auxdata: 0xa264697066735822122068ae29e2e0facc72a37fcc867a20b5fec8f114f42fa1a1df261776d62a3d138d64736f6c63430008070033\n}\n",
				"bytecode": {
					"linkReferences": {},
					"object": "608060405260008060006101000a81548160ff0219169083151502179055506040518060400160405280600d81526020017f45636f6e6f6d7920436c61737300000000000000000000000000000000000000815250600290805190602001906200006b929190620000bf565b506001600455670de0b6b3a76400006005556001600760006101000a81548160ff02191690836002811115620000a657620000a5620001a5565b5b0217905550348015620000b857600080fd5b5062000203565b828054620000cd906200016f565b90600052602060002090601f016020900481019282620000f157600085556200013d565b82601f106200010c57805160ff19168380011785556200013d565b828001600101855582156200013d579182015b828111156200013c5782518255916020019190600101906200011f565b5b5090506200014c919062000150565b5090565b5b808211156200016b57600081600090555060010162000151565b5090565b600060028204905060018216806200018857607f821691505b602082108114156200019f576200019e620001d4565b5b50919050565b7f4e487b7100000000000000000000000000000000000000000000000000000000600052602160045260246000fd5b7f4e487b7100000000000000000000000000000000000000000000000000000000600052602260045260246000fd5b610d5780620002136000396000f3fe608060405234801561001057600080fd5b50600436106100885760003560e01c8063501835071161005b57806350183507146101035780637a1736d11461010d578063b24fa0e414610117578063b90d3d0c1461012157610088565b806309a8d3f51461008d57806317ae4589146100ab5780631aa35610146100c75780634fb2e0be146100e5575b600080fd5b610095610155565b6040516100a29190610a71565b60405180910390f35b6100c560048036038101906100c091906108c9565b61015b565b005b6100cf61030d565b6040516100dc91906109ce565b60405180910390f35b6100ed610320565b6040516100fa9190610a71565b60405180910390f35b61010b610326565b005b6101156103f5565b005b61011f6104c3565b005b61013b6004803603810190610136919061089c565b610591565b60405161014c9594939291906109e9565b60405180910390f35b60055481565b60008054906101000a900460ff166101a8576040517f08c379a000000000000000000000000000000000000000000000000000000000815260040161019f90610a51565b60405180910390fd5b6040518060a00160405280848152602001838152602001828152602001600280546101d290610ba1565b80601f01602080910402602001604051908101604052809291908181526020018280546101fe90610ba1565b801561024b5780601f106102205761010080835404028352916020019161024b565b820191906000526020600020905b81548152906001019060200180831161022e57829003601f168201915b50505050508152602001600354815250600660003373ffffffffffffffffffffffffffffffffffffffff1673ffffffffffffffffffffffffffffffffffffffff16815260200190815260200160002060008201518160000190805190602001906102b692919061075f565b5060208201518160010190805190602001906102d392919061075f565b506040820151816002015560608201518160030190805190602001906102fa92919061075f565b5060808201518160040155905050505050565b600760009054906101000a900460ff1681565b60045481565b6000600760006101000a81548160ff0219169083600281111561034c5761034b610c04565b5b0217905550600760009054906101000a900460ff16600281111561037357610372610c04565b5b600181905550600060015414156103d9576040518060400160405280600b81526020017f466972737420436c617373000000000000000000000000000000000000000000815250600290805190602001906103cf92919061075f565b5060026003819055505b60016000806101000a81548160ff021916908315150217905550565b6001600760006101000a81548160ff0219169083600281111561041b5761041a610c04565b5b0217905550600760009054906101000a900460ff16600281111561044257610441610c04565b5b6001819055506001805414156104a7576040518060400160405280600d81526020017f45636f6e6f6d7920436c617373000000000000000000000000000000000000008152506002908051906020019061049d92919061075f565b5060016003819055505b60016000806101000a81548160ff021916908315150217905550565b6002600760006101000a81548160ff021916908360028111156104e9576104e8610c04565b5b0217905550600760009054906101000a900460ff1660028111156105105761050f610c04565b5b60018190555060026001541415610575576040518060400160405280600d81526020017f4275736e69737320436c617373000000000000000000000000000000000000008152506002908051906020019061056c92919061075f565b50600380819055505b60016000806101000a81548160ff021916908315150217905550565b60066020528060005260406000206000915090508060000180546105b490610ba1565b80601f01602080910402602001604051908101604052809291908181526020018280546105e090610ba1565b801561062d5780601f106106025761010080835404028352916020019161062d565b820191906000526020600020905b81548152906001019060200180831161061057829003601f168201915b50505050509080600101805461064290610ba1565b80601f016020809104026020016040519081016040528092919081815260200182805461066e90610ba1565b80156106bb5780601f10610690576101008083540402835291602001916106bb565b820191906000526020600020905b81548152906001019060200180831161069e57829003601f168201915b5050505050908060020154908060030180546106d690610ba1565b80601f016020809104026020016040519081016040528092919081815260200182805461070290610ba1565b801561074f5780601f106107245761010080835404028352916020019161074f565b820191906000526020600020905b81548152906001019060200180831161073257829003601f168201915b5050505050908060040154905085565b82805461076b90610ba1565b90600052602060002090601f01602090048101928261078d57600085556107d4565b82601f106107a657805160ff19168380011785556107d4565b828001600101855582156107d4579182015b828111156107d35782518255916020019190600101906107b8565b5b5090506107e191906107e5565b5090565b5b808211156107fe5760008160009055506001016107e6565b5090565b600061081561081084610ab1565b610a8c565b90508281526020810184848401111561083157610830610c96565b5b61083c848285610b5f565b509392505050565b60008135905061085381610cf3565b92915050565b600082601f83011261086e5761086d610c91565b5b813561087e848260208601610802565b91505092915050565b60008135905061089681610d0a565b92915050565b6000602082840312156108b2576108b1610ca0565b5b60006108c084828501610844565b91505092915050565b6000806000606084860312156108e2576108e1610ca0565b5b600084013567ffffffffffffffff811115610900576108ff610c9b565b5b61090c86828701610859565b935050602084013567ffffffffffffffff81111561092d5761092c610c9b565b5b61093986828701610859565b925050604061094a86828701610887565b9150509250925092565b61095d81610b4d565b82525050565b600061096e82610ae2565b6109788185610aed565b9350610988818560208601610b6e565b61099181610ca5565b840191505092915050565b60006109a9601d83610aed565b91506109b482610cb6565b602082019050919050565b6109c881610b43565b82525050565b60006020820190506109e36000830184610954565b92915050565b600060a0820190508181036000830152610a038188610963565b90508181036020830152610a178187610963565b9050610a2660408301866109bf565b8181036060830152610a388185610963565b9050610a4760808301846109bf565b9695505050505050565b60006020820190508181036000830152610a6a8161099c565b9050919050565b6000602082019050610a8660008301846109bf565b92915050565b6000610a96610aa7565b9050610aa28282610bd3565b919050565b6000604051905090565b600067ffffffffffffffff821115610acc57610acb610c62565b5b610ad582610ca5565b9050602081019050919050565b600081519050919050565b600082825260208201905092915050565b6000610b0982610b23565b9050919050565b6000819050610b1e82610cdf565b919050565b600073ffffffffffffffffffffffffffffffffffffffff82169050919050565b6000819050919050565b6000610b5882610b10565b9050919050565b82818337600083830152505050565b60005b83811015610b8c578082015181840152602081019050610b71565b83811115610b9b576000848401525b50505050565b60006002820490506001821680610bb957607f821691505b60208210811415610bcd57610bcc610c33565b5b50919050565b610bdc82610ca5565b810181811067ffffffffffffffff82111715610bfb57610bfa610c62565b5b80604052505050565b7f4e487b7100000000000000000000000000000000000000000000000000000000600052602160045260246000fd5b7f4e487b7100000000000000000000000000000000000000000000000000000000600052602260045260246000fd5b7f4e487b7100000000000000000000000000000000000000000000000000000000600052604160045260246000fd5b600080fd5b600080fd5b600080fd5b600080fd5b6000601f19601f8301169050919050565b7f706c656173652073656c6563742074686520636c617373206669727374000000600082015250565b60038110610cf057610cef610c04565b5b50565b610cfc81610afe565b8114610d0757600080fd5b50565b610d1381610b43565b8114610d1e57600080fd5b5056fea264697066735822122068ae29e2e0facc72a37fcc867a20b5fec8f114f42fa1a1df261776d62a3d138d64736f6c63430008070033",
					"opcodes": "PUSH1 0x80 PUSH1 0x40 MSTORE PUSH1 0x0 DUP1 PUSH1 0x0 PUSH2 0x100 EXP DUP2 SLOAD DUP2 PUSH1 0xFF MUL NOT AND SWAP1 DUP4 ISZERO ISZERO MUL OR SWAP1 SSTORE POP PUSH1 0x40 MLOAD DUP1 PUSH1 0x40 ADD PUSH1 0x40 MSTORE DUP1 PUSH1 0xD DUP2 MSTORE PUSH1 0x20 ADD PUSH32 0x45636F6E6F6D7920436C61737300000000000000000000000000000000000000 DUP2 MSTORE POP PUSH1 0x2 SWAP1 DUP1 MLOAD SWAP1 PUSH1 0x20 ADD SWAP1 PUSH3 0x6B SWAP3 SWAP2 SWAP1 PUSH3 0xBF JUMP JUMPDEST POP PUSH1 0x1 PUSH1 0x4 SSTORE PUSH8 0xDE0B6B3A7640000 PUSH1 0x5 SSTORE PUSH1 0x1 PUSH1 0x7 PUSH1 0x0 PUSH2 0x100 EXP DUP2 SLOAD DUP2 PUSH1 0xFF MUL NOT AND SWAP1 DUP4 PUSH1 0x2 DUP2 GT ISZERO PUSH3 0xA6 JUMPI PUSH3 0xA5 PUSH3 0x1A5 JUMP JUMPDEST JUMPDEST MUL OR SWAP1 SSTORE POP CALLVALUE DUP1 ISZERO PUSH3 0xB8 JUMPI PUSH1 0x0 DUP1 REVERT JUMPDEST POP PUSH3 0x203 JUMP JUMPDEST DUP3 DUP1 SLOAD PUSH3 0xCD SWAP1 PUSH3 0x16F JUMP JUMPDEST SWAP1 PUSH1 0x0 MSTORE PUSH1 0x20 PUSH1 0x0 KECCAK256 SWAP1 PUSH1 0x1F ADD PUSH1 0x20 SWAP1 DIV DUP2 ADD SWAP3 DUP3 PUSH3 0xF1 JUMPI PUSH1 0x0 DUP6 SSTORE PUSH3 0x13D JUMP JUMPDEST DUP3 PUSH1 0x1F LT PUSH3 0x10C JUMPI DUP1 MLOAD PUSH1 0xFF NOT AND DUP4 DUP1 ADD OR DUP6 SSTORE PUSH3 0x13D JUMP JUMPDEST DUP3 DUP1 ADD PUSH1 0x1 ADD DUP6 SSTORE DUP3 ISZERO PUSH3 0x13D JUMPI SWAP2 DUP3 ADD JUMPDEST DUP3 DUP2 GT ISZERO PUSH3 0x13C JUMPI DUP3 MLOAD DUP3 SSTORE SWAP2 PUSH1 0x20 ADD SWAP2 SWAP1 PUSH1 0x1 ADD SWAP1 PUSH3 0x11F JUMP JUMPDEST JUMPDEST POP SWAP1 POP PUSH3 0x14C SWAP2 SWAP1 PUSH3 0x150 JUMP JUMPDEST POP SWAP1 JUMP JUMPDEST JUMPDEST DUP1 DUP3 GT ISZERO PUSH3 0x16B JUMPI PUSH1 0x0 DUP2 PUSH1 0x0 SWAP1 SSTORE POP PUSH1 0x1 ADD PUSH3 0x151 JUMP JUMPDEST POP SWAP1 JUMP JUMPDEST PUSH1 0x0 PUSH1 0x2 DUP3 DIV SWAP1 POP PUSH1 0x1 DUP3 AND DUP1 PUSH3 0x188 JUMPI PUSH1 0x7F DUP3 AND SWAP2 POP JUMPDEST PUSH1 0x20 DUP3 LT DUP2 EQ ISZERO PUSH3 0x19F JUMPI PUSH3 0x19E PUSH3 0x1D4 JUMP JUMPDEST JUMPDEST POP SWAP2 SWAP1 POP JUMP JUMPDEST PUSH32 0x4E487B7100000000000000000000000000000000000000000000000000000000 PUSH1 0x0 MSTORE PUSH1 0x21 PUSH1 0x4 MSTORE PUSH1 0x24 PUSH1 0x0 REVERT JUMPDEST PUSH32 0x4E487B7100000000000000000000000000000000000000000000000000000000 PUSH1 0x0 MSTORE PUSH1 0x22 PUSH1 0x4 MSTORE PUSH1 0x24 PUSH1 0x0 REVERT JUMPDEST PUSH2 0xD57 DUP1 PUSH3 0x213 PUSH1 0x0 CODECOPY PUSH1 0x0 RETURN INVALID PUSH1 0x80 PUSH1 0x40 MSTORE CALLVALUE DUP1 ISZERO PUSH2 0x10 JUMPI PUSH1 0x0 DUP1 REVERT JUMPDEST POP PUSH1 0x4 CALLDATASIZE LT PUSH2 0x88 JUMPI PUSH1 0x0 CALLDATALOAD PUSH1 0xE0 SHR DUP1 PUSH4 0x50183507 GT PUSH2 0x5B JUMPI DUP1 PUSH4 0x50183507 EQ PUSH2 0x103 JUMPI DUP1 PUSH4 0x7A1736D1 EQ PUSH2 0x10D JUMPI DUP1 PUSH4 0xB24FA0E4 EQ PUSH2 0x117 JUMPI DUP1 PUSH4 0xB90D3D0C EQ PUSH2 0x121 JUMPI PUSH2 0x88 JUMP JUMPDEST DUP1 PUSH4 0x9A8D3F5 EQ PUSH2 0x8D JUMPI DUP1 PUSH4 0x17AE4589 EQ PUSH2 0xAB JUMPI DUP1 PUSH4 0x1AA35610 EQ PUSH2 0xC7 JUMPI DUP1 PUSH4 0x4FB2E0BE EQ PUSH2 0xE5 JUMPI JUMPDEST PUSH1 0x0 DUP1 REVERT JUMPDEST PUSH2 0x95 PUSH2 0x155 JUMP JUMPDEST PUSH1 0x40 MLOAD PUSH2 0xA2 SWAP2 SWAP1 PUSH2 0xA71 JUMP JUMPDEST PUSH1 0x40 MLOAD DUP1 SWAP2 SUB SWAP1 RETURN JUMPDEST PUSH2 0xC5 PUSH1 0x4 DUP1 CALLDATASIZE SUB DUP2 ADD SWAP1 PUSH2 0xC0 SWAP2 SWAP1 PUSH2 0x8C9 JUMP JUMPDEST PUSH2 0x15B JUMP JUMPDEST STOP JUMPDEST PUSH2 0xCF PUSH2 0x30D JUMP JUMPDEST PUSH1 0x40 MLOAD PUSH2 0xDC SWAP2 SWAP1 PUSH2 0x9CE JUMP JUMPDEST PUSH1 0x40 MLOAD DUP1 SWAP2 SUB SWAP1 RETURN JUMPDEST PUSH2 0xED PUSH2 0x320 JUMP JUMPDEST PUSH1 0x40 MLOAD PUSH2 0xFA SWAP2 SWAP1 PUSH2 0xA71 JUMP JUMPDEST PUSH1 0x40 MLOAD DUP1 SWAP2 SUB SWAP1 RETURN JUMPDEST PUSH2 0x10B PUSH2 0x326 JUMP JUMPDEST STOP JUMPDEST PUSH2 0x115 PUSH2 0x3F5 JUMP JUMPDEST STOP JUMPDEST PUSH2 0x11F PUSH2 0x4C3 JUMP JUMPDEST STOP JUMPDEST PUSH2 0x13B PUSH1 0x4 DUP1 CALLDATASIZE SUB DUP2 ADD SWAP1 PUSH2 0x136 SWAP2 SWAP1 PUSH2 0x89C JUMP JUMPDEST PUSH2 0x591 JUMP JUMPDEST PUSH1 0x40 MLOAD PUSH2 0x14C SWAP6 SWAP5 SWAP4 SWAP3 SWAP2 SWAP1 PUSH2 0x9E9 JUMP JUMPDEST PUSH1 0x40 MLOAD DUP1 SWAP2 SUB SWAP1 RETURN JUMPDEST PUSH1 0x5 SLOAD DUP2 JUMP JUMPDEST PUSH1 0x0 DUP1 SLOAD SWAP1 PUSH2 0x100 EXP SWAP1 DIV PUSH1 0xFF AND PUSH2 0x1A8 JUMPI PUSH1 0x40 MLOAD PUSH32 0x8C379A000000000000000000000000000000000000000000000000000000000 DUP2 MSTORE PUSH1 0x4 ADD PUSH2 0x19F SWAP1 PUSH2 0xA51 JUMP JUMPDEST PUSH1 0x40 MLOAD DUP1 SWAP2 SUB SWAP1 REVERT JUMPDEST PUSH1 0x40 MLOAD DUP1 PUSH1 0xA0 ADD PUSH1 0x40 MSTORE DUP1 DUP5 DUP2 MSTORE PUSH1 0x20 ADD DUP4 DUP2 MSTORE PUSH1 0x20 ADD DUP3 DUP2 MSTORE PUSH1 0x20 ADD PUSH1 0x2 DUP1 SLOAD PUSH2 0x1D2 SWAP1 PUSH2 0xBA1 JUMP JUMPDEST DUP1 PUSH1 0x1F ADD PUSH1 0x20 DUP1 SWAP2 DIV MUL PUSH1 0x20 ADD PUSH1 0x40 MLOAD SWAP1 DUP2 ADD PUSH1 0x40 MSTORE DUP1 SWAP3 SWAP2 SWAP1 DUP2 DUP2 MSTORE PUSH1 0x20 ADD DUP3 DUP1 SLOAD PUSH2 0x1FE SWAP1 PUSH2 0xBA1 JUMP JUMPDEST DUP1 ISZERO PUSH2 0x24B JUMPI DUP1 PUSH1 0x1F LT PUSH2 0x220 JUMPI PUSH2 0x100 DUP1 DUP4 SLOAD DIV MUL DUP4 MSTORE SWAP2 PUSH1 0x20 ADD SWAP2 PUSH2 0x24B JUMP JUMPDEST DUP3 ADD SWAP2 SWAP1 PUSH1 0x0 MSTORE PUSH1 0x20 PUSH1 0x0 KECCAK256 SWAP1 JUMPDEST DUP2 SLOAD DUP2 MSTORE SWAP1 PUSH1 0x1 ADD SWAP1 PUSH1 0x20 ADD DUP1 DUP4 GT PUSH2 0x22E JUMPI DUP3 SWAP1 SUB PUSH1 0x1F AND DUP3 ADD SWAP2 JUMPDEST POP POP POP POP POP DUP2 MSTORE PUSH1 0x20 ADD PUSH1 0x3 SLOAD DUP2 MSTORE POP PUSH1 0x6 PUSH1 0x0 CALLER PUSH20 0xFFFFFFFFFFFFFFFFFFFFFFFFFFFFFFFFFFFFFFFF AND PUSH20 0xFFFFFFFFFFFFFFFFFFFFFFFFFFFFFFFFFFFFFFFF AND DUP2 MSTORE PUSH1 0x20 ADD SWAP1 DUP2 MSTORE PUSH1 0x20 ADD PUSH1 0x0 KECCAK256 PUSH1 0x0 DUP3 ADD MLOAD DUP2 PUSH1 0x0 ADD SWAP1 DUP1 MLOAD SWAP1 PUSH1 0x20 ADD SWAP1 PUSH2 0x2B6 SWAP3 SWAP2 SWAP1 PUSH2 0x75F JUMP JUMPDEST POP PUSH1 0x20 DUP3 ADD MLOAD DUP2 PUSH1 0x1 ADD SWAP1 DUP1 MLOAD SWAP1 PUSH1 0x20 ADD SWAP1 PUSH2 0x2D3 SWAP3 SWAP2 SWAP1 PUSH2 0x75F JUMP JUMPDEST POP PUSH1 0x40 DUP3 ADD MLOAD DUP2 PUSH1 0x2 ADD SSTORE PUSH1 0x60 DUP3 ADD MLOAD DUP2 PUSH1 0x3 ADD SWAP1 DUP1 MLOAD SWAP1 PUSH1 0x20 ADD SWAP1 PUSH2 0x2FA SWAP3 SWAP2 SWAP1 PUSH2 0x75F JUMP JUMPDEST POP PUSH1 0x80 DUP3 ADD MLOAD DUP2 PUSH1 0x4 ADD SSTORE SWAP1 POP POP POP POP POP JUMP JUMPDEST PUSH1 0x7 PUSH1 0x0 SWAP1 SLOAD SWAP1 PUSH2 0x100 EXP SWAP1 DIV PUSH1 0xFF AND DUP2 JUMP JUMPDEST PUSH1 0x4 SLOAD DUP2 JUMP JUMPDEST PUSH1 0x0 PUSH1 0x7 PUSH1 0x0 PUSH2 0x100 EXP DUP2 SLOAD DUP2 PUSH1 0xFF MUL NOT AND SWAP1 DUP4 PUSH1 0x2 DUP2 GT ISZERO PUSH2 0x34C JUMPI PUSH2 0x34B PUSH2 0xC04 JUMP JUMPDEST JUMPDEST MUL OR SWAP1 SSTORE POP PUSH1 0x7 PUSH1 0x0 SWAP1 SLOAD SWAP1 PUSH2 0x100 EXP SWAP1 DIV PUSH1 0xFF AND PUSH1 0x2 DUP2 GT ISZERO PUSH2 0x373 JUMPI PUSH2 0x372 PUSH2 0xC04 JUMP JUMPDEST JUMPDEST PUSH1 0x1 DUP2 SWAP1 SSTORE POP PUSH1 0x0 PUSH1 0x1 SLOAD EQ ISZERO PUSH2 0x3D9 JUMPI PUSH1 0x40 MLOAD DUP1 PUSH1 0x40 ADD PUSH1 0x40 MSTORE DUP1 PUSH1 0xB DUP2 MSTORE PUSH1 0x20 ADD PUSH32 0x466972737420436C617373000000000000000000000000000000000000000000 DUP2 MSTORE POP PUSH1 0x2 SWAP1 DUP1 MLOAD SWAP1 PUSH1 0x20 ADD SWAP1 PUSH2 0x3CF SWAP3 SWAP2 SWAP1 PUSH2 0x75F JUMP JUMPDEST POP PUSH1 0x2 PUSH1 0x3 DUP2 SWAP1 SSTORE POP JUMPDEST PUSH1 0x1 PUSH1 0x0 DUP1 PUSH2 0x100 EXP DUP2 SLOAD DUP2 PUSH1 0xFF MUL NOT AND SWAP1 DUP4 ISZERO ISZERO MUL OR SWAP1 SSTORE POP JUMP JUMPDEST PUSH1 0x1 PUSH1 0x7 PUSH1 0x0 PUSH2 0x100 EXP DUP2 SLOAD DUP2 PUSH1 0xFF MUL NOT AND SWAP1 DUP4 PUSH1 0x2 DUP2 GT ISZERO PUSH2 0x41B JUMPI PUSH2 0x41A PUSH2 0xC04 JUMP JUMPDEST JUMPDEST MUL OR SWAP1 SSTORE POP PUSH1 0x7 PUSH1 0x0 SWAP1 SLOAD SWAP1 PUSH2 0x100 EXP SWAP1 DIV PUSH1 0xFF AND PUSH1 0x2 DUP2 GT ISZERO PUSH2 0x442 JUMPI PUSH2 0x441 PUSH2 0xC04 JUMP JUMPDEST JUMPDEST PUSH1 0x1 DUP2 SWAP1 SSTORE POP PUSH1 0x1 DUP1 SLOAD EQ ISZERO PUSH2 0x4A7 JUMPI PUSH1 0x40 MLOAD DUP1 PUSH1 0x40 ADD PUSH1 0x40 MSTORE DUP1 PUSH1 0xD DUP2 MSTORE PUSH1 0x20 ADD PUSH32 0x45636F6E6F6D7920436C61737300000000000000000000000000000000000000 DUP2 MSTORE POP PUSH1 0x2 SWAP1 DUP1 MLOAD SWAP1 PUSH1 0x20 ADD SWAP1 PUSH2 0x49D SWAP3 SWAP2 SWAP1 PUSH2 0x75F JUMP JUMPDEST POP PUSH1 0x1 PUSH1 0x3 DUP2 SWAP1 SSTORE POP JUMPDEST PUSH1 0x1 PUSH1 0x0 DUP1 PUSH2 0x100 EXP DUP2 SLOAD DUP2 PUSH1 0xFF MUL NOT AND SWAP1 DUP4 ISZERO ISZERO MUL OR SWAP1 SSTORE POP JUMP JUMPDEST PUSH1 0x2 PUSH1 0x7 PUSH1 0x0 PUSH2 0x100 EXP DUP2 SLOAD DUP2 PUSH1 0xFF MUL NOT AND SWAP1 DUP4 PUSH1 0x2 DUP2 GT ISZERO PUSH2 0x4E9 JUMPI PUSH2 0x4E8 PUSH2 0xC04 JUMP JUMPDEST JUMPDEST MUL OR SWAP1 SSTORE POP PUSH1 0x7 PUSH1 0x0 SWAP1 SLOAD SWAP1 PUSH2 0x100 EXP SWAP1 DIV PUSH1 0xFF AND PUSH1 0x2 DUP2 GT ISZERO PUSH2 0x510 JUMPI PUSH2 0x50F PUSH2 0xC04 JUMP JUMPDEST JUMPDEST PUSH1 0x1 DUP2 SWAP1 SSTORE POP PUSH1 0x2 PUSH1 0x1 SLOAD EQ ISZERO PUSH2 0x575 JUMPI PUSH1 0x40 MLOAD DUP1 PUSH1 0x40 ADD PUSH1 0x40 MSTORE DUP1 PUSH1 0xD DUP2 MSTORE PUSH1 0x20 ADD PUSH32 0x4275736E69737320436C61737300000000000000000000000000000000000000 DUP2 MSTORE POP PUSH1 0x2 SWAP1 DUP1 MLOAD SWAP1 PUSH1 0x20 ADD SWAP1 PUSH2 0x56C SWAP3 SWAP2 SWAP1 PUSH2 0x75F JUMP JUMPDEST POP PUSH1 0x3 DUP1 DUP2 SWAP1 SSTORE POP JUMPDEST PUSH1 0x1 PUSH1 0x0 DUP1 PUSH2 0x100 EXP DUP2 SLOAD DUP2 PUSH1 0xFF MUL NOT AND SWAP1 DUP4 ISZERO ISZERO MUL OR SWAP1 SSTORE POP JUMP JUMPDEST PUSH1 0x6 PUSH1 0x20 MSTORE DUP1 PUSH1 0x0 MSTORE PUSH1 0x40 PUSH1 0x0 KECCAK256 PUSH1 0x0 SWAP2 POP SWAP1 POP DUP1 PUSH1 0x0 ADD DUP1 SLOAD PUSH2 0x5B4 SWAP1 PUSH2 0xBA1 JUMP JUMPDEST DUP1 PUSH1 0x1F ADD PUSH1 0x20 DUP1 SWAP2 DIV MUL PUSH1 0x20 ADD PUSH1 0x40 MLOAD SWAP1 DUP2 ADD PUSH1 0x40 MSTORE DUP1 SWAP3 SWAP2 SWAP1 DUP2 DUP2 MSTORE PUSH1 0x20 ADD DUP3 DUP1 SLOAD PUSH2 0x5E0 SWAP1 PUSH2 0xBA1 JUMP JUMPDEST DUP1 ISZERO PUSH2 0x62D JUMPI DUP1 PUSH1 0x1F LT PUSH2 0x602 JUMPI PUSH2 0x100 DUP1 DUP4 SLOAD DIV MUL DUP4 MSTORE SWAP2 PUSH1 0x20 ADD SWAP2 PUSH2 0x62D JUMP JUMPDEST DUP3 ADD SWAP2 SWAP1 PUSH1 0x0 MSTORE PUSH1 0x20 PUSH1 0x0 KECCAK256 SWAP1 JUMPDEST DUP2 SLOAD DUP2 MSTORE SWAP1 PUSH1 0x1 ADD SWAP1 PUSH1 0x20 ADD DUP1 DUP4 GT PUSH2 0x610 JUMPI DUP3 SWAP1 SUB PUSH1 0x1F AND DUP3 ADD SWAP2 JUMPDEST POP POP POP POP POP SWAP1 DUP1 PUSH1 0x1 ADD DUP1 SLOAD PUSH2 0x642 SWAP1 PUSH2 0xBA1 JUMP JUMPDEST DUP1 PUSH1 0x1F ADD PUSH1 0x20 DUP1 SWAP2 DIV MUL PUSH1 0x20 ADD PUSH1 0x40 MLOAD SWAP1 DUP2 ADD PUSH1 0x40 MSTORE DUP1 SWAP3 SWAP2 SWAP1 DUP2 DUP2 MSTORE PUSH1 0x20 ADD DUP3 DUP1 SLOAD PUSH2 0x66E SWAP1 PUSH2 0xBA1 JUMP JUMPDEST DUP1 ISZERO PUSH2 0x6BB JUMPI DUP1 PUSH1 0x1F LT PUSH2 0x690 JUMPI PUSH2 0x100 DUP1 DUP4 SLOAD DIV MUL DUP4 MSTORE SWAP2 PUSH1 0x20 ADD SWAP2 PUSH2 0x6BB JUMP JUMPDEST DUP3 ADD SWAP2 SWAP1 PUSH1 0x0 MSTORE PUSH1 0x20 PUSH1 0x0 KECCAK256 SWAP1 JUMPDEST DUP2 SLOAD DUP2 MSTORE SWAP1 PUSH1 0x1 ADD SWAP1 PUSH1 0x20 ADD DUP1 DUP4 GT PUSH2 0x69E JUMPI DUP3 SWAP1 SUB PUSH1 0x1F AND DUP3 ADD SWAP2 JUMPDEST POP POP POP POP POP SWAP1 DUP1 PUSH1 0x2 ADD SLOAD SWAP1 DUP1 PUSH1 0x3 ADD DUP1 SLOAD PUSH2 0x6D6 SWAP1 PUSH2 0xBA1 JUMP JUMPDEST DUP1 PUSH1 0x1F ADD PUSH1 0x20 DUP1 SWAP2 DIV MUL PUSH1 0x20 ADD PUSH1 0x40 MLOAD SWAP1 DUP2 ADD PUSH1 0x40 MSTORE DUP1 SWAP3 SWAP2 SWAP1 DUP2 DUP2 MSTORE PUSH1 0x20 ADD DUP3 DUP1 SLOAD PUSH2 0x702 SWAP1 PUSH2 0xBA1 JUMP JUMPDEST DUP1 ISZERO PUSH2 0x74F JUMPI DUP1 PUSH1 0x1F LT PUSH2 0x724 JUMPI PUSH2 0x100 DUP1 DUP4 SLOAD DIV MUL DUP4 MSTORE SWAP2 PUSH1 0x20 ADD SWAP2 PUSH2 0x74F JUMP JUMPDEST DUP3 ADD SWAP2 SWAP1 PUSH1 0x0 MSTORE PUSH1 0x20 PUSH1 0x0 KECCAK256 SWAP1 JUMPDEST DUP2 SLOAD DUP2 MSTORE SWAP1 PUSH1 0x1 ADD SWAP1 PUSH1 0x20 ADD DUP1 DUP4 GT PUSH2 0x732 JUMPI DUP3 SWAP1 SUB PUSH1 0x1F AND DUP3 ADD SWAP2 JUMPDEST POP POP POP POP POP SWAP1 DUP1 PUSH1 0x4 ADD SLOAD SWAP1 POP DUP6 JUMP JUMPDEST DUP3 DUP1 SLOAD PUSH2 0x76B SWAP1 PUSH2 0xBA1 JUMP JUMPDEST SWAP1 PUSH1 0x0 MSTORE PUSH1 0x20 PUSH1 0x0 KECCAK256 SWAP1 PUSH1 0x1F ADD PUSH1 0x20 SWAP1 DIV DUP2 ADD SWAP3 DUP3 PUSH2 0x78D JUMPI PUSH1 0x0 DUP6 SSTORE PUSH2 0x7D4 JUMP JUMPDEST DUP3 PUSH1 0x1F LT PUSH2 0x7A6 JUMPI DUP1 MLOAD PUSH1 0xFF NOT AND DUP4 DUP1 ADD OR DUP6 SSTORE PUSH2 0x7D4 JUMP JUMPDEST DUP3 DUP1 ADD PUSH1 0x1 ADD DUP6 SSTORE DUP3 ISZERO PUSH2 0x7D4 JUMPI SWAP2 DUP3 ADD JUMPDEST DUP3 DUP2 GT ISZERO PUSH2 0x7D3 JUMPI DUP3 MLOAD DUP3 SSTORE SWAP2 PUSH1 0x20 ADD SWAP2 SWAP1 PUSH1 0x1 ADD SWAP1 PUSH2 0x7B8 JUMP JUMPDEST JUMPDEST POP SWAP1 POP PUSH2 0x7E1 SWAP2 SWAP1 PUSH2 0x7E5 JUMP JUMPDEST POP SWAP1 JUMP JUMPDEST JUMPDEST DUP1 DUP3 GT ISZERO PUSH2 0x7FE JUMPI PUSH1 0x0 DUP2 PUSH1 0x0 SWAP1 SSTORE POP PUSH1 0x1 ADD PUSH2 0x7E6 JUMP JUMPDEST POP SWAP1 JUMP JUMPDEST PUSH1 0x0 PUSH2 0x815 PUSH2 0x810 DUP5 PUSH2 0xAB1 JUMP JUMPDEST PUSH2 0xA8C JUMP JUMPDEST SWAP1 POP DUP3 DUP2 MSTORE PUSH1 0x20 DUP2 ADD DUP5 DUP5 DUP5 ADD GT ISZERO PUSH2 0x831 JUMPI PUSH2 0x830 PUSH2 0xC96 JUMP JUMPDEST JUMPDEST PUSH2 0x83C DUP5 DUP3 DUP6 PUSH2 0xB5F JUMP JUMPDEST POP SWAP4 SWAP3 POP POP POP JUMP JUMPDEST PUSH1 0x0 DUP2 CALLDATALOAD SWAP1 POP PUSH2 0x853 DUP2 PUSH2 0xCF3 JUMP JUMPDEST SWAP3 SWAP2 POP POP JUMP JUMPDEST PUSH1 0x0 DUP3 PUSH1 0x1F DUP4 ADD SLT PUSH2 0x86E JUMPI PUSH2 0x86D PUSH2 0xC91 JUMP JUMPDEST JUMPDEST DUP2 CALLDATALOAD PUSH2 0x87E DUP5 DUP3 PUSH1 0x20 DUP7 ADD PUSH2 0x802 JUMP JUMPDEST SWAP2 POP POP SWAP3 SWAP2 POP POP JUMP JUMPDEST PUSH1 0x0 DUP2 CALLDATALOAD SWAP1 POP PUSH2 0x896 DUP2 PUSH2 0xD0A JUMP JUMPDEST SWAP3 SWAP2 POP POP JUMP JUMPDEST PUSH1 0x0 PUSH1 0x20 DUP3 DUP5 SUB SLT ISZERO PUSH2 0x8B2 JUMPI PUSH2 0x8B1 PUSH2 0xCA0 JUMP JUMPDEST JUMPDEST PUSH1 0x0 PUSH2 0x8C0 DUP5 DUP3 DUP6 ADD PUSH2 0x844 JUMP JUMPDEST SWAP2 POP POP SWAP3 SWAP2 POP POP JUMP JUMPDEST PUSH1 0x0 DUP1 PUSH1 0x0 PUSH1 0x60 DUP5 DUP7 SUB SLT ISZERO PUSH2 0x8E2 JUMPI PUSH2 0x8E1 PUSH2 0xCA0 JUMP JUMPDEST JUMPDEST PUSH1 0x0 DUP5 ADD CALLDATALOAD PUSH8 0xFFFFFFFFFFFFFFFF DUP2 GT ISZERO PUSH2 0x900 JUMPI PUSH2 0x8FF PUSH2 0xC9B JUMP JUMPDEST JUMPDEST PUSH2 0x90C DUP7 DUP3 DUP8 ADD PUSH2 0x859 JUMP JUMPDEST SWAP4 POP POP PUSH1 0x20 DUP5 ADD CALLDATALOAD PUSH8 0xFFFFFFFFFFFFFFFF DUP2 GT ISZERO PUSH2 0x92D JUMPI PUSH2 0x92C PUSH2 0xC9B JUMP JUMPDEST JUMPDEST PUSH2 0x939 DUP7 DUP3 DUP8 ADD PUSH2 0x859 JUMP JUMPDEST SWAP3 POP POP PUSH1 0x40 PUSH2 0x94A DUP7 DUP3 DUP8 ADD PUSH2 0x887 JUMP JUMPDEST SWAP2 POP POP SWAP3 POP SWAP3 POP SWAP3 JUMP JUMPDEST PUSH2 0x95D DUP2 PUSH2 0xB4D JUMP JUMPDEST DUP3 MSTORE POP POP JUMP JUMPDEST PUSH1 0x0 PUSH2 0x96E DUP3 PUSH2 0xAE2 JUMP JUMPDEST PUSH2 0x978 DUP2 DUP6 PUSH2 0xAED JUMP JUMPDEST SWAP4 POP PUSH2 0x988 DUP2 DUP6 PUSH1 0x20 DUP7 ADD PUSH2 0xB6E JUMP JUMPDEST PUSH2 0x991 DUP2 PUSH2 0xCA5 JUMP JUMPDEST DUP5 ADD SWAP2 POP POP SWAP3 SWAP2 POP POP JUMP JUMPDEST PUSH1 0x0 PUSH2 0x9A9 PUSH1 0x1D DUP4 PUSH2 0xAED JUMP JUMPDEST SWAP2 POP PUSH2 0x9B4 DUP3 PUSH2 0xCB6 JUMP JUMPDEST PUSH1 0x20 DUP3 ADD SWAP1 POP SWAP2 SWAP1 POP JUMP JUMPDEST PUSH2 0x9C8 DUP2 PUSH2 0xB43 JUMP JUMPDEST DUP3 MSTORE POP POP JUMP JUMPDEST PUSH1 0x0 PUSH1 0x20 DUP3 ADD SWAP1 POP PUSH2 0x9E3 PUSH1 0x0 DUP4 ADD DUP5 PUSH2 0x954 JUMP JUMPDEST SWAP3 SWAP2 POP POP JUMP JUMPDEST PUSH1 0x0 PUSH1 0xA0 DUP3 ADD SWAP1 POP DUP2 DUP2 SUB PUSH1 0x0 DUP4 ADD MSTORE PUSH2 0xA03 DUP2 DUP9 PUSH2 0x963 JUMP JUMPDEST SWAP1 POP DUP2 DUP2 SUB PUSH1 0x20 DUP4 ADD MSTORE PUSH2 0xA17 DUP2 DUP8 PUSH2 0x963 JUMP JUMPDEST SWAP1 POP PUSH2 0xA26 PUSH1 0x40 DUP4 ADD DUP7 PUSH2 0x9BF JUMP JUMPDEST DUP2 DUP2 SUB PUSH1 0x60 DUP4 ADD MSTORE PUSH2 0xA38 DUP2 DUP6 PUSH2 0x963 JUMP JUMPDEST SWAP1 POP PUSH2 0xA47 PUSH1 0x80 DUP4 ADD DUP5 PUSH2 0x9BF JUMP JUMPDEST SWAP7 SWAP6 POP POP POP POP POP POP JUMP JUMPDEST PUSH1 0x0 PUSH1 0x20 DUP3 ADD SWAP1 POP DUP2 DUP2 SUB PUSH1 0x0 DUP4 ADD MSTORE PUSH2 0xA6A DUP2 PUSH2 0x99C JUMP JUMPDEST SWAP1 POP SWAP2 SWAP1 POP JUMP JUMPDEST PUSH1 0x0 PUSH1 0x20 DUP3 ADD SWAP1 POP PUSH2 0xA86 PUSH1 0x0 DUP4 ADD DUP5 PUSH2 0x9BF JUMP JUMPDEST SWAP3 SWAP2 POP POP JUMP JUMPDEST PUSH1 0x0 PUSH2 0xA96 PUSH2 0xAA7 JUMP JUMPDEST SWAP1 POP PUSH2 0xAA2 DUP3 DUP3 PUSH2 0xBD3 JUMP JUMPDEST SWAP2 SWAP1 POP JUMP JUMPDEST PUSH1 0x0 PUSH1 0x40 MLOAD SWAP1 POP SWAP1 JUMP JUMPDEST PUSH1 0x0 PUSH8 0xFFFFFFFFFFFFFFFF DUP3 GT ISZERO PUSH2 0xACC JUMPI PUSH2 0xACB PUSH2 0xC62 JUMP JUMPDEST JUMPDEST PUSH2 0xAD5 DUP3 PUSH2 0xCA5 JUMP JUMPDEST SWAP1 POP PUSH1 0x20 DUP2 ADD SWAP1 POP SWAP2 SWAP1 POP JUMP JUMPDEST PUSH1 0x0 DUP2 MLOAD SWAP1 POP SWAP2 SWAP1 POP JUMP JUMPDEST PUSH1 0x0 DUP3 DUP3 MSTORE PUSH1 0x20 DUP3 ADD SWAP1 POP SWAP3 SWAP2 POP POP JUMP JUMPDEST PUSH1 0x0 PUSH2 0xB09 DUP3 PUSH2 0xB23 JUMP JUMPDEST SWAP1 POP SWAP2 SWAP1 POP JUMP JUMPDEST PUSH1 0x0 DUP2 SWAP1 POP PUSH2 0xB1E DUP3 PUSH2 0xCDF JUMP JUMPDEST SWAP2 SWAP1 POP JUMP JUMPDEST PUSH1 0x0 PUSH20 0xFFFFFFFFFFFFFFFFFFFFFFFFFFFFFFFFFFFFFFFF DUP3 AND SWAP1 POP SWAP2 SWAP1 POP JUMP JUMPDEST PUSH1 0x0 DUP2 SWAP1 POP SWAP2 SWAP1 POP JUMP JUMPDEST PUSH1 0x0 PUSH2 0xB58 DUP3 PUSH2 0xB10 JUMP JUMPDEST SWAP1 POP SWAP2 SWAP1 POP JUMP JUMPDEST DUP3 DUP2 DUP4 CALLDATACOPY PUSH1 0x0 DUP4 DUP4 ADD MSTORE POP POP POP JUMP JUMPDEST PUSH1 0x0 JUMPDEST DUP4 DUP2 LT ISZERO PUSH2 0xB8C JUMPI DUP1 DUP3 ADD MLOAD DUP2 DUP5 ADD MSTORE PUSH1 0x20 DUP2 ADD SWAP1 POP PUSH2 0xB71 JUMP JUMPDEST DUP4 DUP2 GT ISZERO PUSH2 0xB9B JUMPI PUSH1 0x0 DUP5 DUP5 ADD MSTORE JUMPDEST POP POP POP POP JUMP JUMPDEST PUSH1 0x0 PUSH1 0x2 DUP3 DIV SWAP1 POP PUSH1 0x1 DUP3 AND DUP1 PUSH2 0xBB9 JUMPI PUSH1 0x7F DUP3 AND SWAP2 POP JUMPDEST PUSH1 0x20 DUP3 LT DUP2 EQ ISZERO PUSH2 0xBCD JUMPI PUSH2 0xBCC PUSH2 0xC33 JUMP JUMPDEST JUMPDEST POP SWAP2 SWAP1 POP JUMP JUMPDEST PUSH2 0xBDC DUP3 PUSH2 0xCA5 JUMP JUMPDEST DUP2 ADD DUP2 DUP2 LT PUSH8 0xFFFFFFFFFFFFFFFF DUP3 GT OR ISZERO PUSH2 0xBFB JUMPI PUSH2 0xBFA PUSH2 0xC62 JUMP JUMPDEST JUMPDEST DUP1 PUSH1 0x40 MSTORE POP POP POP JUMP JUMPDEST PUSH32 0x4E487B7100000000000000000000000000000000000000000000000000000000 PUSH1 0x0 MSTORE PUSH1 0x21 PUSH1 0x4 MSTORE PUSH1 0x24 PUSH1 0x0 REVERT JUMPDEST PUSH32 0x4E487B7100000000000000000000000000000000000000000000000000000000 PUSH1 0x0 MSTORE PUSH1 0x22 PUSH1 0x4 MSTORE PUSH1 0x24 PUSH1 0x0 REVERT JUMPDEST PUSH32 0x4E487B7100000000000000000000000000000000000000000000000000000000 PUSH1 0x0 MSTORE PUSH1 0x41 PUSH1 0x4 MSTORE PUSH1 0x24 PUSH1 0x0 REVERT JUMPDEST PUSH1 0x0 DUP1 REVERT JUMPDEST PUSH1 0x0 DUP1 REVERT JUMPDEST PUSH1 0x0 DUP1 REVERT JUMPDEST PUSH1 0x0 DUP1 REVERT JUMPDEST PUSH1 0x0 PUSH1 0x1F NOT PUSH1 0x1F DUP4 ADD AND SWAP1 POP SWAP2 SWAP1 POP JUMP JUMPDEST PUSH32 0x706C656173652073656C6563742074686520636C617373206669727374000000 PUSH1 0x0 DUP3 ADD MSTORE POP JUMP JUMPDEST PUSH1 0x3 DUP2 LT PUSH2 0xCF0 JUMPI PUSH2 0xCEF PUSH2 0xC04 JUMP JUMPDEST JUMPDEST POP JUMP JUMPDEST PUSH2 0xCFC DUP2 PUSH2 0xAFE JUMP JUMPDEST DUP2 EQ PUSH2 0xD07 JUMPI PUSH1 0x0 DUP1 REVERT JUMPDEST POP JUMP JUMPDEST PUSH2 0xD13 DUP2 PUSH2 0xB43 JUMP JUMPDEST DUP2 EQ PUSH2 0xD1E JUMPI PUSH1 0x0 DUP1 REVERT JUMPDEST POP JUMP INVALID LOG2 PUSH5 0x6970667358 0x22 SLT KECCAK256 PUSH9 0xAE29E2E0FACC72A37F 0xCC DUP7 PUSH27 0x20B5FEC8F114F42FA1A1DF261776D62A3D138D64736F6C63430008 SMOD STOP CALLER "
				},
				"gasEstimates": {
					"creation": {
						"codeDepositCost": "683000",
						"executionCost": "infinite",
						"totalCost": "infinite"
					},
					"external": {
						"busnissClass()": "infinite",
						"data(address)": "infinite",
						"economyClass()": "infinite",
						"firstClass()": "infinite",
						"oneEth()": "2430",
						"oneWei()": "2496",
						"setData(string,string,uint256)": "infinite",
						"u1()": "2605"
					}
				},
				"methodIdentifiers": {
					"busnissClass()": "b24fa0e4",
					"data(address)": "b90d3d0c",
					"economyClass()": "7a1736d1",
					"firstClass()": "50183507",
					"oneEth()": "09a8d3f5",
					"oneWei()": "4fb2e0be",
					"setData(string,string,uint256)": "17ae4589",
					"u1()": "1aa35610"
				}
			},
			"userdoc": {
				"kind": "user",
				"methods": {},
				"version": 1
			}
		}
	}
}