{
	"Task01(struct-map).sol": {
		"demo": {
			"abi": [
				{
					"inputs": [
						{
							"internalType": "uint256",
							"name": "",
							"type": "uint256"
						}
					],
					"name": "data",
					"outputs": [
						{
							"internalType": "string",
							"name": "name",
							"type": "string"
						},
						{
							"internalType": "string",
							"name": "destination",
							"type": "string"
						}
					],
					"stateMutability": "view",
					"type": "function"
				},
				{
					"inputs": [
						{
							"internalType": "uint256",
							"name": "_passportId",
							"type": "uint256"
						},
						{
							"internalType": "string",
							"name": "_name",
							"type": "string"
						},
						{
							"internalType": "string",
							"name": "_destination",
							"type": "string"
						}
					],
					"name": "setter",
					"outputs": [],
					"stateMutability": "nonpayable",
					"type": "function"
				}
			],
			"devdoc": {
				"kind": "dev",
				"methods": {},
				"version": 1
			},
			"evm": {
				"assembly": "    /* \"Task01(struct-map).sol\":222:457  contract demo \r... */\n  mstore(0x40, 0x80)\n  callvalue\n  dup1\n  iszero\n  tag_1\n  jumpi\n  0x00\n  dup1\n  revert\ntag_1:\n  pop\n  dataSize(sub_0)\n  dup1\n  dataOffset(sub_0)\n  0x00\n  codecopy\n  0x00\n  return\nstop\n\nsub_0: assembly {\n        /* \"Task01(struct-map).sol\":222:457  contract demo \r... */\n      mstore(0x40, 0x80)\n      callvalue\n      dup1\n      iszero\n      tag_1\n      jumpi\n      0x00\n      dup1\n      revert\n    tag_1:\n      pop\n      jumpi(tag_2, lt(calldatasize, 0x04))\n      shr(0xe0, calldataload(0x00))\n      dup1\n      0x6328feea\n      eq\n      tag_3\n      jumpi\n      dup1\n      0xf0ba8440\n      eq\n      tag_4\n      jumpi\n    tag_2:\n      0x00\n      dup1\n      revert\n        /* \"Task01(struct-map).sol\":292:454  function setter(uint _passportId, string memory _name, string memory _destination) public\r... */\n    tag_3:\n      tag_5\n      0x04\n      dup1\n      calldatasize\n      sub\n      dup2\n      add\n      swap1\n      tag_6\n      swap2\n      swap1\n      tag_7\n      jump\t// in\n    tag_6:\n      tag_8\n      jump\t// in\n    tag_5:\n      stop\n        /* \"Task01(struct-map).sol\":245:283  mapping( uint => Student ) public data */\n    tag_4:\n      tag_9\n      0x04\n      dup1\n      calldatasize\n      sub\n      dup2\n      add\n      swap1\n      tag_10\n      swap2\n      swap1\n      tag_11\n      jump\t// in\n    tag_10:\n      tag_12\n      jump\t// in\n    tag_9:\n      mload(0x40)\n      tag_13\n      swap3\n      swap2\n      swap1\n      tag_14\n      jump\t// in\n    tag_13:\n      mload(0x40)\n      dup1\n      swap2\n      sub\n      swap1\n      return\n        /* \"Task01(struct-map).sol\":292:454  function setter(uint _passportId, string memory _name, string memory _destination) public\r... */\n    tag_8:\n        /* \"Task01(struct-map).sol\":418:446  Student(_name, _destination) */\n      mload(0x40)\n      dup1\n      0x40\n      add\n      0x40\n      mstore\n      dup1\n        /* \"Task01(struct-map).sol\":426:431  _name */\n      dup4\n        /* \"Task01(struct-map).sol\":418:446  Student(_name, _destination) */\n      dup2\n      mstore\n      0x20\n      add\n        /* \"Task01(struct-map).sol\":433:445  _destination */\n      dup3\n        /* \"Task01(struct-map).sol\":418:446  Student(_name, _destination) */\n      dup2\n      mstore\n      pop\n        /* \"Task01(struct-map).sol\":398:402  data */\n      0x00\n        /* \"Task01(struct-map).sol\":398:415  data[_passportId] */\n      dup1\n        /* \"Task01(struct-map).sol\":403:414  _passportId */\n      dup6\n        /* \"Task01(struct-map).sol\":398:415  data[_passportId] */\n      dup2\n      mstore\n      0x20\n      add\n      swap1\n      dup2\n      mstore\n      0x20\n      add\n      0x00\n      keccak256\n        /* \"Task01(struct-map).sol\":398:446  data[_passportId] = Student(_name, _destination) */\n      0x00\n      dup3\n      add\n      mload\n      dup2\n      0x00\n      add\n      swap1\n      dup1\n      mload\n      swap1\n      0x20\n      add\n      swap1\n      tag_16\n      swap3\n      swap2\n      swap1\n      tag_17\n      jump\t// in\n    tag_16:\n      pop\n      0x20\n      dup3\n      add\n      mload\n      dup2\n      0x01\n      add\n      swap1\n      dup1\n      mload\n      swap1\n      0x20\n      add\n      swap1\n      tag_18\n      swap3\n      swap2\n      swap1\n      tag_17\n      jump\t// in\n    tag_18:\n      pop\n      swap1\n      pop\n      pop\n        /* \"Task01(struct-map).sol\":292:454  function setter(uint _passportId, string memory _name, string memory _destination) public\r... */\n      pop\n      pop\n      pop\n      jump\t// out\n        /* \"Task01(struct-map).sol\":245:283  mapping( uint => Student ) public data */\n    tag_12:\n      mstore(0x20, 0x00)\n      dup1\n      0x00\n      mstore\n      keccak256(0x00, 0x40)\n      0x00\n      swap2\n      pop\n      swap1\n      pop\n      dup1\n      0x00\n      add\n      dup1\n      sload\n      tag_19\n      swap1\n      tag_20\n      jump\t// in\n    tag_19:\n      dup1\n      0x1f\n      add\n      0x20\n      dup1\n      swap2\n      div\n      mul\n      0x20\n      add\n      mload(0x40)\n      swap1\n      dup2\n      add\n      0x40\n      mstore\n      dup1\n      swap3\n      swap2\n      swap1\n      dup2\n      dup2\n      mstore\n      0x20\n      add\n      dup3\n      dup1\n      sload\n      tag_21\n      swap1\n      tag_20\n      jump\t// in\n    tag_21:\n      dup1\n      iszero\n      tag_22\n      jumpi\n      dup1\n      0x1f\n      lt\n      tag_23\n      jumpi\n      0x0100\n      dup1\n      dup4\n      sload\n      div\n      mul\n      dup4\n      mstore\n      swap2\n      0x20\n      add\n      swap2\n      jump(tag_22)\n    tag_23:\n      dup3\n      add\n      swap2\n      swap1\n      0x00\n      mstore\n      keccak256(0x00, 0x20)\n      swap1\n    tag_24:\n      dup2\n      sload\n      dup2\n      mstore\n      swap1\n      0x01\n      add\n      swap1\n      0x20\n      add\n      dup1\n      dup4\n      gt\n      tag_24\n      jumpi\n      dup3\n      swap1\n      sub\n      0x1f\n      and\n      dup3\n      add\n      swap2\n    tag_22:\n      pop\n      pop\n      pop\n      pop\n      pop\n      swap1\n      dup1\n      0x01\n      add\n      dup1\n      sload\n      tag_25\n      swap1\n      tag_20\n      jump\t// in\n    tag_25:\n      dup1\n      0x1f\n      add\n      0x20\n      dup1\n      swap2\n      div\n      mul\n      0x20\n      add\n      mload(0x40)\n      swap1\n      dup2\n      add\n      0x40\n      mstore\n      dup1\n      swap3\n      swap2\n      swap1\n      dup2\n      dup2\n      mstore\n      0x20\n      add\n      dup3\n      dup1\n      sload\n      tag_26\n      swap1\n      tag_20\n      jump\t// in\n    tag_26:\n      dup1\n      iszero\n      tag_27\n      jumpi\n      dup1\n      0x1f\n      lt\n      tag_28\n      jumpi\n      0x0100\n      dup1\n      dup4\n      sload\n      div\n      mul\n      dup4\n      mstore\n      swap2\n      0x20\n      add\n      swap2\n      jump(tag_27)\n    tag_28:\n      dup3\n      add\n      swap2\n      swap1\n      0x00\n      mstore\n      keccak256(0x00, 0x20)\n      swap1\n    tag_29:\n      dup2\n      sload\n      dup2\n      mstore\n      swap1\n      0x01\n      add\n      swap1\n      0x20\n      add\n      dup1\n      dup4\n      gt\n      tag_29\n      jumpi\n      dup3\n      swap1\n      sub\n      0x1f\n      and\n      dup3\n      add\n      swap2\n    tag_27:\n      pop\n      pop\n      pop\n      pop\n      pop\n      swap1\n      pop\n      dup3\n      jump\t// out\n    tag_17:\n      dup3\n      dup1\n      sload\n      tag_30\n      swap1\n      tag_20\n      jump\t// in\n    tag_30:\n      swap1\n      0x00\n      mstore\n      keccak256(0x00, 0x20)\n      swap1\n      0x1f\n      add\n      0x20\n      swap1\n      div\n      dup2\n      add\n      swap3\n      dup3\n      tag_32\n      jumpi\n      0x00\n      dup6\n      sstore\n      jump(tag_31)\n    tag_32:\n      dup3\n      0x1f\n      lt\n      tag_33\n      jumpi\n      dup1\n      mload\n      not(0xff)\n      and\n      dup4\n      dup1\n      add\n      or\n      dup6\n      sstore\n      jump(tag_31)\n    tag_33:\n      dup3\n      dup1\n      add\n      0x01\n      add\n      dup6\n      sstore\n      dup3\n      iszero\n      tag_31\n      jumpi\n      swap2\n      dup3\n      add\n    tag_34:\n      dup3\n      dup2\n      gt\n      iszero\n      tag_35\n      jumpi\n      dup3\n      mload\n      dup3\n      sstore\n      swap2\n      0x20\n      add\n      swap2\n      swap1\n      0x01\n      add\n      swap1\n      jump(tag_34)\n    tag_35:\n    tag_31:\n      pop\n      swap1\n      pop\n      tag_36\n      swap2\n      swap1\n      tag_37\n      jump\t// in\n    tag_36:\n      pop\n      swap1\n      jump\t// out\n    tag_37:\n    tag_38:\n      dup1\n      dup3\n      gt\n      iszero\n      tag_39\n      jumpi\n      0x00\n      dup2\n      0x00\n      swap1\n      sstore\n      pop\n      0x01\n      add\n      jump(tag_38)\n    tag_39:\n      pop\n      swap1\n      jump\t// out\n        /* \"#utility.yul\":7:419   */\n    tag_41:\n        /* \"#utility.yul\":85:90   */\n      0x00\n        /* \"#utility.yul\":110:176   */\n      tag_43\n        /* \"#utility.yul\":126:175   */\n      tag_44\n        /* \"#utility.yul\":168:174   */\n      dup5\n        /* \"#utility.yul\":126:175   */\n      tag_45\n      jump\t// in\n    tag_44:\n        /* \"#utility.yul\":110:176   */\n      tag_46\n      jump\t// in\n    tag_43:\n        /* \"#utility.yul\":101:176   */\n      swap1\n      pop\n        /* \"#utility.yul\":199:205   */\n      dup3\n        /* \"#utility.yul\":192:197   */\n      dup2\n        /* \"#utility.yul\":185:206   */\n      mstore\n        /* \"#utility.yul\":237:241   */\n      0x20\n        /* \"#utility.yul\":230:235   */\n      dup2\n        /* \"#utility.yul\":226:242   */\n      add\n        /* \"#utility.yul\":275:278   */\n      dup5\n        /* \"#utility.yul\":266:272   */\n      dup5\n        /* \"#utility.yul\":261:264   */\n      dup5\n        /* \"#utility.yul\":257:273   */\n      add\n        /* \"#utility.yul\":254:279   */\n      gt\n        /* \"#utility.yul\":251:363   */\n      iszero\n      tag_47\n      jumpi\n        /* \"#utility.yul\":282:361   */\n      tag_48\n      tag_49\n      jump\t// in\n    tag_48:\n        /* \"#utility.yul\":251:363   */\n    tag_47:\n        /* \"#utility.yul\":372:413   */\n      tag_50\n        /* \"#utility.yul\":406:412   */\n      dup5\n        /* \"#utility.yul\":401:404   */\n      dup3\n        /* \"#utility.yul\":396:399   */\n      dup6\n        /* \"#utility.yul\":372:413   */\n      tag_51\n      jump\t// in\n    tag_50:\n        /* \"#utility.yul\":91:419   */\n      pop\n        /* \"#utility.yul\":7:419   */\n      swap4\n      swap3\n      pop\n      pop\n      pop\n      jump\t// out\n        /* \"#utility.yul\":439:779   */\n    tag_52:\n        /* \"#utility.yul\":495:500   */\n      0x00\n        /* \"#utility.yul\":544:547   */\n      dup3\n        /* \"#utility.yul\":537:541   */\n      0x1f\n        /* \"#utility.yul\":529:535   */\n      dup4\n        /* \"#utility.yul\":525:542   */\n      add\n        /* \"#utility.yul\":521:548   */\n      slt\n        /* \"#utility.yul\":511:633   */\n      tag_54\n      jumpi\n        /* \"#utility.yul\":552:631   */\n      tag_55\n      tag_56\n      jump\t// in\n    tag_55:\n        /* \"#utility.yul\":511:633   */\n    tag_54:\n        /* \"#utility.yul\":669:675   */\n      dup2\n        /* \"#utility.yul\":656:676   */\n      calldataload\n        /* \"#utility.yul\":694:773   */\n      tag_57\n        /* \"#utility.yul\":769:772   */\n      dup5\n        /* \"#utility.yul\":761:767   */\n      dup3\n        /* \"#utility.yul\":754:758   */\n      0x20\n        /* \"#utility.yul\":746:752   */\n      dup7\n        /* \"#utility.yul\":742:759   */\n      add\n        /* \"#utility.yul\":694:773   */\n      tag_41\n      jump\t// in\n    tag_57:\n        /* \"#utility.yul\":685:773   */\n      swap2\n      pop\n        /* \"#utility.yul\":501:779   */\n      pop\n        /* \"#utility.yul\":439:779   */\n      swap3\n      swap2\n      pop\n      pop\n      jump\t// out\n        /* \"#utility.yul\":785:924   */\n    tag_58:\n        /* \"#utility.yul\":831:836   */\n      0x00\n        /* \"#utility.yul\":869:875   */\n      dup2\n        /* \"#utility.yul\":856:876   */\n      calldataload\n        /* \"#utility.yul\":847:876   */\n      swap1\n      pop\n        /* \"#utility.yul\":885:918   */\n      tag_60\n        /* \"#utility.yul\":912:917   */\n      dup2\n        /* \"#utility.yul\":885:918   */\n      tag_61\n      jump\t// in\n    tag_60:\n        /* \"#utility.yul\":785:924   */\n      swap3\n      swap2\n      pop\n      pop\n      jump\t// out\n        /* \"#utility.yul\":930:1259   */\n    tag_11:\n        /* \"#utility.yul\":989:995   */\n      0x00\n        /* \"#utility.yul\":1038:1040   */\n      0x20\n        /* \"#utility.yul\":1026:1035   */\n      dup3\n        /* \"#utility.yul\":1017:1024   */\n      dup5\n        /* \"#utility.yul\":1013:1036   */\n      sub\n        /* \"#utility.yul\":1009:1041   */\n      slt\n        /* \"#utility.yul\":1006:1125   */\n      iszero\n      tag_63\n      jumpi\n        /* \"#utility.yul\":1044:1123   */\n      tag_64\n      tag_65\n      jump\t// in\n    tag_64:\n        /* \"#utility.yul\":1006:1125   */\n    tag_63:\n        /* \"#utility.yul\":1164:1165   */\n      0x00\n        /* \"#utility.yul\":1189:1242   */\n      tag_66\n        /* \"#utility.yul\":1234:1241   */\n      dup5\n        /* \"#utility.yul\":1225:1231   */\n      dup3\n        /* \"#utility.yul\":1214:1223   */\n      dup6\n        /* \"#utility.yul\":1210:1232   */\n      add\n        /* \"#utility.yul\":1189:1242   */\n      tag_58\n      jump\t// in\n    tag_66:\n        /* \"#utility.yul\":1179:1242   */\n      swap2\n      pop\n        /* \"#utility.yul\":1135:1252   */\n      pop\n        /* \"#utility.yul\":930:1259   */\n      swap3\n      swap2\n      pop\n      pop\n      jump\t// out\n        /* \"#utility.yul\":1265:2244   */\n    tag_7:\n        /* \"#utility.yul\":1362:1368   */\n      0x00\n        /* \"#utility.yul\":1370:1376   */\n      dup1\n        /* \"#utility.yul\":1378:1384   */\n      0x00\n        /* \"#utility.yul\":1427:1429   */\n      0x60\n        /* \"#utility.yul\":1415:1424   */\n      dup5\n        /* \"#utility.yul\":1406:1413   */\n      dup7\n        /* \"#utility.yul\":1402:1425   */\n      sub\n        /* \"#utility.yul\":1398:1430   */\n      slt\n        /* \"#utility.yul\":1395:1514   */\n      iszero\n      tag_68\n      jumpi\n        /* \"#utility.yul\":1433:1512   */\n      tag_69\n      tag_65\n      jump\t// in\n    tag_69:\n        /* \"#utility.yul\":1395:1514   */\n    tag_68:\n        /* \"#utility.yul\":1553:1554   */\n      0x00\n        /* \"#utility.yul\":1578:1631   */\n      tag_70\n        /* \"#utility.yul\":1623:1630   */\n      dup7\n        /* \"#utility.yul\":1614:1620   */\n      dup3\n        /* \"#utility.yul\":1603:1612   */\n      dup8\n        /* \"#utility.yul\":1599:1621   */\n      add\n        /* \"#utility.yul\":1578:1631   */\n      tag_58\n      jump\t// in\n    tag_70:\n        /* \"#utility.yul\":1568:1631   */\n      swap4\n      pop\n        /* \"#utility.yul\":1524:1641   */\n      pop\n        /* \"#utility.yul\":1708:1710   */\n      0x20\n        /* \"#utility.yul\":1697:1706   */\n      dup5\n        /* \"#utility.yul\":1693:1711   */\n      add\n        /* \"#utility.yul\":1680:1712   */\n      calldataload\n        /* \"#utility.yul\":1739:1757   */\n      0xffffffffffffffff\n        /* \"#utility.yul\":1731:1737   */\n      dup2\n        /* \"#utility.yul\":1728:1758   */\n      gt\n        /* \"#utility.yul\":1725:1842   */\n      iszero\n      tag_71\n      jumpi\n        /* \"#utility.yul\":1761:1840   */\n      tag_72\n      tag_73\n      jump\t// in\n    tag_72:\n        /* \"#utility.yul\":1725:1842   */\n    tag_71:\n        /* \"#utility.yul\":1866:1929   */\n      tag_74\n        /* \"#utility.yul\":1921:1928   */\n      dup7\n        /* \"#utility.yul\":1912:1918   */\n      dup3\n        /* \"#utility.yul\":1901:1910   */\n      dup8\n        /* \"#utility.yul\":1897:1919   */\n      add\n        /* \"#utility.yul\":1866:1929   */\n      tag_52\n      jump\t// in\n    tag_74:\n        /* \"#utility.yul\":1856:1929   */\n      swap3\n      pop\n        /* \"#utility.yul\":1651:1939   */\n      pop\n        /* \"#utility.yul\":2006:2008   */\n      0x40\n        /* \"#utility.yul\":1995:2004   */\n      dup5\n        /* \"#utility.yul\":1991:2009   */\n      add\n        /* \"#utility.yul\":1978:2010   */\n      calldataload\n        /* \"#utility.yul\":2037:2055   */\n      0xffffffffffffffff\n        /* \"#utility.yul\":2029:2035   */\n      dup2\n        /* \"#utility.yul\":2026:2056   */\n      gt\n        /* \"#utility.yul\":2023:2140   */\n      iszero\n      tag_75\n      jumpi\n        /* \"#utility.yul\":2059:2138   */\n      tag_76\n      tag_73\n      jump\t// in\n    tag_76:\n        /* \"#utility.yul\":2023:2140   */\n    tag_75:\n        /* \"#utility.yul\":2164:2227   */\n      tag_77\n        /* \"#utility.yul\":2219:2226   */\n      dup7\n        /* \"#utility.yul\":2210:2216   */\n      dup3\n        /* \"#utility.yul\":2199:2208   */\n      dup8\n        /* \"#utility.yul\":2195:2217   */\n      add\n        /* \"#utility.yul\":2164:2227   */\n      tag_52\n      jump\t// in\n    tag_77:\n        /* \"#utility.yul\":2154:2227   */\n      swap2\n      pop\n        /* \"#utility.yul\":1949:2237   */\n      pop\n        /* \"#utility.yul\":1265:2244   */\n      swap3\n      pop\n      swap3\n      pop\n      swap3\n      jump\t// out\n        /* \"#utility.yul\":2250:2614   */\n    tag_78:\n        /* \"#utility.yul\":2338:2341   */\n      0x00\n        /* \"#utility.yul\":2366:2405   */\n      tag_80\n        /* \"#utility.yul\":2399:2404   */\n      dup3\n        /* \"#utility.yul\":2366:2405   */\n      tag_81\n      jump\t// in\n    tag_80:\n        /* \"#utility.yul\":2421:2492   */\n      tag_82\n        /* \"#utility.yul\":2485:2491   */\n      dup2\n        /* \"#utility.yul\":2480:2483   */\n      dup6\n        /* \"#utility.yul\":2421:2492   */\n      tag_83\n      jump\t// in\n    tag_82:\n        /* \"#utility.yul\":2414:2492   */\n      swap4\n      pop\n        /* \"#utility.yul\":2501:2553   */\n      tag_84\n        /* \"#utility.yul\":2546:2552   */\n      dup2\n        /* \"#utility.yul\":2541:2544   */\n      dup6\n        /* \"#utility.yul\":2534:2538   */\n      0x20\n        /* \"#utility.yul\":2527:2532   */\n      dup7\n        /* \"#utility.yul\":2523:2539   */\n      add\n        /* \"#utility.yul\":2501:2553   */\n      tag_85\n      jump\t// in\n    tag_84:\n        /* \"#utility.yul\":2578:2607   */\n      tag_86\n        /* \"#utility.yul\":2600:2606   */\n      dup2\n        /* \"#utility.yul\":2578:2607   */\n      tag_87\n      jump\t// in\n    tag_86:\n        /* \"#utility.yul\":2573:2576   */\n      dup5\n        /* \"#utility.yul\":2569:2608   */\n      add\n        /* \"#utility.yul\":2562:2608   */\n      swap2\n      pop\n        /* \"#utility.yul\":2342:2614   */\n      pop\n        /* \"#utility.yul\":2250:2614   */\n      swap3\n      swap2\n      pop\n      pop\n      jump\t// out\n        /* \"#utility.yul\":2620:3134   */\n    tag_14:\n        /* \"#utility.yul\":2781:2785   */\n      0x00\n        /* \"#utility.yul\":2819:2821   */\n      0x40\n        /* \"#utility.yul\":2808:2817   */\n      dup3\n        /* \"#utility.yul\":2804:2822   */\n      add\n        /* \"#utility.yul\":2796:2822   */\n      swap1\n      pop\n        /* \"#utility.yul\":2868:2877   */\n      dup2\n        /* \"#utility.yul\":2862:2866   */\n      dup2\n        /* \"#utility.yul\":2858:2878   */\n      sub\n        /* \"#utility.yul\":2854:2855   */\n      0x00\n        /* \"#utility.yul\":2843:2852   */\n      dup4\n        /* \"#utility.yul\":2839:2856   */\n      add\n        /* \"#utility.yul\":2832:2879   */\n      mstore\n        /* \"#utility.yul\":2896:2974   */\n      tag_89\n        /* \"#utility.yul\":2969:2973   */\n      dup2\n        /* \"#utility.yul\":2960:2966   */\n      dup6\n        /* \"#utility.yul\":2896:2974   */\n      tag_78\n      jump\t// in\n    tag_89:\n        /* \"#utility.yul\":2888:2974   */\n      swap1\n      pop\n        /* \"#utility.yul\":3021:3030   */\n      dup2\n        /* \"#utility.yul\":3015:3019   */\n      dup2\n        /* \"#utility.yul\":3011:3031   */\n      sub\n        /* \"#utility.yul\":3006:3008   */\n      0x20\n        /* \"#utility.yul\":2995:3004   */\n      dup4\n        /* \"#utility.yul\":2991:3009   */\n      add\n        /* \"#utility.yul\":2984:3032   */\n      mstore\n        /* \"#utility.yul\":3049:3127   */\n      tag_90\n        /* \"#utility.yul\":3122:3126   */\n      dup2\n        /* \"#utility.yul\":3113:3119   */\n      dup5\n        /* \"#utility.yul\":3049:3127   */\n      tag_78\n      jump\t// in\n    tag_90:\n        /* \"#utility.yul\":3041:3127   */\n      swap1\n      pop\n        /* \"#utility.yul\":2620:3134   */\n      swap4\n      swap3\n      pop\n      pop\n      pop\n      jump\t// out\n        /* \"#utility.yul\":3140:3269   */\n    tag_46:\n        /* \"#utility.yul\":3174:3180   */\n      0x00\n        /* \"#utility.yul\":3201:3221   */\n      tag_92\n      tag_93\n      jump\t// in\n    tag_92:\n        /* \"#utility.yul\":3191:3221   */\n      swap1\n      pop\n        /* \"#utility.yul\":3230:3263   */\n      tag_94\n        /* \"#utility.yul\":3258:3262   */\n      dup3\n        /* \"#utility.yul\":3250:3256   */\n      dup3\n        /* \"#utility.yul\":3230:3263   */\n      tag_95\n      jump\t// in\n    tag_94:\n        /* \"#utility.yul\":3140:3269   */\n      swap2\n      swap1\n      pop\n      jump\t// out\n        /* \"#utility.yul\":3275:3350   */\n    tag_93:\n        /* \"#utility.yul\":3308:3314   */\n      0x00\n        /* \"#utility.yul\":3341:3343   */\n      0x40\n        /* \"#utility.yul\":3335:3344   */\n      mload\n        /* \"#utility.yul\":3325:3344   */\n      swap1\n      pop\n        /* \"#utility.yul\":3275:3350   */\n      swap1\n      jump\t// out\n        /* \"#utility.yul\":3356:3664   */\n    tag_45:\n        /* \"#utility.yul\":3418:3422   */\n      0x00\n        /* \"#utility.yul\":3508:3526   */\n      0xffffffffffffffff\n        /* \"#utility.yul\":3500:3506   */\n      dup3\n        /* \"#utility.yul\":3497:3527   */\n      gt\n        /* \"#utility.yul\":3494:3550   */\n      iszero\n      tag_98\n      jumpi\n        /* \"#utility.yul\":3530:3548   */\n      tag_99\n      tag_100\n      jump\t// in\n    tag_99:\n        /* \"#utility.yul\":3494:3550   */\n    tag_98:\n        /* \"#utility.yul\":3568:3597   */\n      tag_101\n        /* \"#utility.yul\":3590:3596   */\n      dup3\n        /* \"#utility.yul\":3568:3597   */\n      tag_87\n      jump\t// in\n    tag_101:\n        /* \"#utility.yul\":3560:3597   */\n      swap1\n      pop\n        /* \"#utility.yul\":3652:3656   */\n      0x20\n        /* \"#utility.yul\":3646:3650   */\n      dup2\n        /* \"#utility.yul\":3642:3657   */\n      add\n        /* \"#utility.yul\":3634:3657   */\n      swap1\n      pop\n        /* \"#utility.yul\":3356:3664   */\n      swap2\n      swap1\n      pop\n      jump\t// out\n        /* \"#utility.yul\":3670:3769   */\n    tag_81:\n        /* \"#utility.yul\":3722:3728   */\n      0x00\n        /* \"#utility.yul\":3756:3761   */\n      dup2\n        /* \"#utility.yul\":3750:3762   */\n      mload\n        /* \"#utility.yul\":3740:3762   */\n      swap1\n      pop\n        /* \"#utility.yul\":3670:3769   */\n      swap2\n      swap1\n      pop\n      jump\t// out\n        /* \"#utility.yul\":3775:3944   */\n    tag_83:\n        /* \"#utility.yul\":3859:3870   */\n      0x00\n        /* \"#utility.yul\":3893:3899   */\n      dup3\n        /* \"#utility.yul\":3888:3891   */\n      dup3\n        /* \"#utility.yul\":3881:3900   */\n      mstore\n        /* \"#utility.yul\":3933:3937   */\n      0x20\n        /* \"#utility.yul\":3928:3931   */\n      dup3\n        /* \"#utility.yul\":3924:3938   */\n      add\n        /* \"#utility.yul\":3909:3938   */\n      swap1\n      pop\n        /* \"#utility.yul\":3775:3944   */\n      swap3\n      swap2\n      pop\n      pop\n      jump\t// out\n        /* \"#utility.yul\":3950:4027   */\n    tag_104:\n        /* \"#utility.yul\":3987:3994   */\n      0x00\n        /* \"#utility.yul\":4016:4021   */\n      dup2\n        /* \"#utility.yul\":4005:4021   */\n      swap1\n      pop\n        /* \"#utility.yul\":3950:4027   */\n      swap2\n      swap1\n      pop\n      jump\t// out\n        /* \"#utility.yul\":4033:4187   */\n    tag_51:\n        /* \"#utility.yul\":4117:4123   */\n      dup3\n        /* \"#utility.yul\":4112:4115   */\n      dup2\n        /* \"#utility.yul\":4107:4110   */\n      dup4\n        /* \"#utility.yul\":4094:4124   */\n      calldatacopy\n        /* \"#utility.yul\":4179:4180   */\n      0x00\n        /* \"#utility.yul\":4170:4176   */\n      dup4\n        /* \"#utility.yul\":4165:4168   */\n      dup4\n        /* \"#utility.yul\":4161:4177   */\n      add\n        /* \"#utility.yul\":4154:4181   */\n      mstore\n        /* \"#utility.yul\":4033:4187   */\n      pop\n      pop\n      pop\n      jump\t// out\n        /* \"#utility.yul\":4193:4500   */\n    tag_85:\n        /* \"#utility.yul\":4261:4262   */\n      0x00\n        /* \"#utility.yul\":4271:4384   */\n    tag_108:\n        /* \"#utility.yul\":4285:4291   */\n      dup4\n        /* \"#utility.yul\":4282:4283   */\n      dup2\n        /* \"#utility.yul\":4279:4292   */\n      lt\n        /* \"#utility.yul\":4271:4384   */\n      iszero\n      tag_110\n      jumpi\n        /* \"#utility.yul\":4370:4371   */\n      dup1\n        /* \"#utility.yul\":4365:4368   */\n      dup3\n        /* \"#utility.yul\":4361:4372   */\n      add\n        /* \"#utility.yul\":4355:4373   */\n      mload\n        /* \"#utility.yul\":4351:4352   */\n      dup2\n        /* \"#utility.yul\":4346:4349   */\n      dup5\n        /* \"#utility.yul\":4342:4353   */\n      add\n        /* \"#utility.yul\":4335:4374   */\n      mstore\n        /* \"#utility.yul\":4307:4309   */\n      0x20\n        /* \"#utility.yul\":4304:4305   */\n      dup2\n        /* \"#utility.yul\":4300:4310   */\n      add\n        /* \"#utility.yul\":4295:4310   */\n      swap1\n      pop\n        /* \"#utility.yul\":4271:4384   */\n      jump(tag_108)\n    tag_110:\n        /* \"#utility.yul\":4402:4408   */\n      dup4\n        /* \"#utility.yul\":4399:4400   */\n      dup2\n        /* \"#utility.yul\":4396:4409   */\n      gt\n        /* \"#utility.yul\":4393:4494   */\n      iszero\n      tag_111\n      jumpi\n        /* \"#utility.yul\":4482:4483   */\n      0x00\n        /* \"#utility.yul\":4473:4479   */\n      dup5\n        /* \"#utility.yul\":4468:4471   */\n      dup5\n        /* \"#utility.yul\":4464:4480   */\n      add\n        /* \"#utility.yul\":4457:4484   */\n      mstore\n        /* \"#utility.yul\":4393:4494   */\n    tag_111:\n        /* \"#utility.yul\":4242:4500   */\n      pop\n        /* \"#utility.yul\":4193:4500   */\n      pop\n      pop\n      pop\n      jump\t// out\n        /* \"#utility.yul\":4506:4826   */\n    tag_20:\n        /* \"#utility.yul\":4550:4556   */\n      0x00\n        /* \"#utility.yul\":4587:4588   */\n      0x02\n        /* \"#utility.yul\":4581:4585   */\n      dup3\n        /* \"#utility.yul\":4577:4589   */\n      div\n        /* \"#utility.yul\":4567:4589   */\n      swap1\n      pop\n        /* \"#utility.yul\":4634:4635   */\n      0x01\n        /* \"#utility.yul\":4628:4632   */\n      dup3\n        /* \"#utility.yul\":4624:4636   */\n      and\n        /* \"#utility.yul\":4655:4673   */\n      dup1\n        /* \"#utility.yul\":4645:4726   */\n      tag_113\n      jumpi\n        /* \"#utility.yul\":4711:4715   */\n      0x7f\n        /* \"#utility.yul\":4703:4709   */\n      dup3\n        /* \"#utility.yul\":4699:4716   */\n      and\n        /* \"#utility.yul\":4689:4716   */\n      swap2\n      pop\n        /* \"#utility.yul\":4645:4726   */\n    tag_113:\n        /* \"#utility.yul\":4773:4775   */\n      0x20\n        /* \"#utility.yul\":4765:4771   */\n      dup3\n        /* \"#utility.yul\":4762:4776   */\n      lt\n        /* \"#utility.yul\":4742:4760   */\n      dup2\n        /* \"#utility.yul\":4739:4777   */\n      eq\n        /* \"#utility.yul\":4736:4820   */\n      iszero\n      tag_114\n      jumpi\n        /* \"#utility.yul\":4792:4810   */\n      tag_115\n      tag_116\n      jump\t// in\n    tag_115:\n        /* \"#utility.yul\":4736:4820   */\n    tag_114:\n        /* \"#utility.yul\":4557:4826   */\n      pop\n        /* \"#utility.yul\":4506:4826   */\n      swap2\n      swap1\n      pop\n      jump\t// out\n        /* \"#utility.yul\":4832:5113   */\n    tag_95:\n        /* \"#utility.yul\":4915:4942   */\n      tag_118\n        /* \"#utility.yul\":4937:4941   */\n      dup3\n        /* \"#utility.yul\":4915:4942   */\n      tag_87\n      jump\t// in\n    tag_118:\n        /* \"#utility.yul\":4907:4913   */\n      dup2\n        /* \"#utility.yul\":4903:4943   */\n      add\n        /* \"#utility.yul\":5045:5051   */\n      dup2\n        /* \"#utility.yul\":5033:5043   */\n      dup2\n        /* \"#utility.yul\":5030:5052   */\n      lt\n        /* \"#utility.yul\":5009:5027   */\n      0xffffffffffffffff\n        /* \"#utility.yul\":4997:5007   */\n      dup3\n        /* \"#utility.yul\":4994:5028   */\n      gt\n        /* \"#utility.yul\":4991:5053   */\n      or\n        /* \"#utility.yul\":4988:5076   */\n      iszero\n      tag_119\n      jumpi\n        /* \"#utility.yul\":5056:5074   */\n      tag_120\n      tag_100\n      jump\t// in\n    tag_120:\n        /* \"#utility.yul\":4988:5076   */\n    tag_119:\n        /* \"#utility.yul\":5096:5106   */\n      dup1\n        /* \"#utility.yul\":5092:5094   */\n      0x40\n        /* \"#utility.yul\":5085:5107   */\n      mstore\n        /* \"#utility.yul\":4875:5113   */\n      pop\n        /* \"#utility.yul\":4832:5113   */\n      pop\n      pop\n      jump\t// out\n        /* \"#utility.yul\":5119:5299   */\n    tag_116:\n        /* \"#utility.yul\":5167:5244   */\n      0x4e487b7100000000000000000000000000000000000000000000000000000000\n        /* \"#utility.yul\":5164:5165   */\n      0x00\n        /* \"#utility.yul\":5157:5245   */\n      mstore\n        /* \"#utility.yul\":5264:5268   */\n      0x22\n        /* \"#utility.yul\":5261:5262   */\n      0x04\n        /* \"#utility.yul\":5254:5269   */\n      mstore\n        /* \"#utility.yul\":5288:5292   */\n      0x24\n        /* \"#utility.yul\":5285:5286   */\n      0x00\n        /* \"#utility.yul\":5278:5293   */\n      revert\n        /* \"#utility.yul\":5305:5485   */\n    tag_100:\n        /* \"#utility.yul\":5353:5430   */\n      0x4e487b7100000000000000000000000000000000000000000000000000000000\n        /* \"#utility.yul\":5350:5351   */\n      0x00\n        /* \"#utility.yul\":5343:5431   */\n      mstore\n        /* \"#utility.yul\":5450:5454   */\n      0x41\n        /* \"#utility.yul\":5447:5448   */\n      0x04\n        /* \"#utility.yul\":5440:5455   */\n      mstore\n        /* \"#utility.yul\":5474:5478   */\n      0x24\n        /* \"#utility.yul\":5471:5472   */\n      0x00\n        /* \"#utility.yul\":5464:5479   */\n      revert\n        /* \"#utility.yul\":5491:5608   */\n    tag_56:\n        /* \"#utility.yul\":5600:5601   */\n      0x00\n        /* \"#utility.yul\":5597:5598   */\n      dup1\n        /* \"#utility.yul\":5590:5602   */\n      revert\n        /* \"#utility.yul\":5614:5731   */\n    tag_49:\n        /* \"#utility.yul\":5723:5724   */\n      0x00\n        /* \"#utility.yul\":5720:5721   */\n      dup1\n        /* \"#utility.yul\":5713:5725   */\n      revert\n        /* \"#utility.yul\":5737:5854   */\n    tag_73:\n        /* \"#utility.yul\":5846:5847   */\n      0x00\n        /* \"#utility.yul\":5843:5844   */\n      dup1\n        /* \"#utility.yul\":5836:5848   */\n      revert\n        /* \"#utility.yul\":5860:5977   */\n    tag_65:\n        /* \"#utility.yul\":5969:5970   */\n      0x00\n        /* \"#utility.yul\":5966:5967   */\n      dup1\n        /* \"#utility.yul\":5959:5971   */\n      revert\n        /* \"#utility.yul\":5983:6085   */\n    tag_87:\n        /* \"#utility.yul\":6024:6030   */\n      0x00\n        /* \"#utility.yul\":6075:6077   */\n      0x1f\n        /* \"#utility.yul\":6071:6078   */\n      not\n        /* \"#utility.yul\":6066:6068   */\n      0x1f\n        /* \"#utility.yul\":6059:6064   */\n      dup4\n        /* \"#utility.yul\":6055:6069   */\n      add\n        /* \"#utility.yul\":6051:6079   */\n      and\n        /* \"#utility.yul\":6041:6079   */\n      swap1\n      pop\n        /* \"#utility.yul\":5983:6085   */\n      swap2\n      swap1\n      pop\n      jump\t// out\n        /* \"#utility.yul\":6091:6213   */\n    tag_61:\n        /* \"#utility.yul\":6164:6188   */\n      tag_129\n        /* \"#utility.yul\":6182:6187   */\n      dup2\n        /* \"#utility.yul\":6164:6188   */\n      tag_104\n      jump\t// in\n    tag_129:\n        /* \"#utility.yul\":6157:6162   */\n      dup2\n        /* \"#utility.yul\":6154:6189   */\n      eq\n        /* \"#utility.yul\":6144:6207   */\n      tag_130\n      jumpi\n        /* \"#utility.yul\":6203:6204   */\n      0x00\n        /* \"#utility.yul\":6200:6201   */\n      dup1\n        /* \"#utility.yul\":6193:6205   */\n      revert\n        /* \"#utility.yul\":6144:6207   */\n    tag_130:\n        /* \"#utility.yul\":6091:6213   */\n      pop\n      jump\t// out\n\n    auxdata: 0xa2646970667358221220b0e83d0faa4e0fe760436a3da8a914dd1ab736911621108e9c4f290c327cbb5c64736f6c63430008070033\n}\n",
				"bytecode": {
					"linkReferences": {},
					"object": "608060405234801561001057600080fd5b50610666806100206000396000f3fe608060405234801561001057600080fd5b50600436106100365760003560e01c80636328feea1461003b578063f0ba844014610057575b600080fd5b6100556004803603810190610050919061037a565b610088565b005b610071600480360381019061006c919061034d565b6100f1565b60405161007f92919061043e565b60405180910390f35b60405180604001604052808381526020018281525060008085815260200190815260200160002060008201518160000190805190602001906100cb929190610225565b5060208201518160010190805190602001906100e8929190610225565b50905050505050565b600060205280600052604060002060009150905080600001805461011490610533565b80601f016020809104026020016040519081016040528092919081815260200182805461014090610533565b801561018d5780601f106101625761010080835404028352916020019161018d565b820191906000526020600020905b81548152906001019060200180831161017057829003601f168201915b5050505050908060010180546101a290610533565b80601f01602080910402602001604051908101604052809291908181526020018280546101ce90610533565b801561021b5780601f106101f05761010080835404028352916020019161021b565b820191906000526020600020905b8154815290600101906020018083116101fe57829003601f168201915b5050505050905082565b82805461023190610533565b90600052602060002090601f016020900481019282610253576000855561029a565b82601f1061026c57805160ff191683800117855561029a565b8280016001018555821561029a579182015b8281111561029957825182559160200191906001019061027e565b5b5090506102a791906102ab565b5090565b5b808211156102c45760008160009055506001016102ac565b5090565b60006102db6102d68461049a565b610475565b9050828152602081018484840111156102f7576102f66105f9565b5b6103028482856104f1565b509392505050565b600082601f83011261031f5761031e6105f4565b5b813561032f8482602086016102c8565b91505092915050565b60008135905061034781610619565b92915050565b60006020828403121561036357610362610603565b5b600061037184828501610338565b91505092915050565b60008060006060848603121561039357610392610603565b5b60006103a186828701610338565b935050602084013567ffffffffffffffff8111156103c2576103c16105fe565b5b6103ce8682870161030a565b925050604084013567ffffffffffffffff8111156103ef576103ee6105fe565b5b6103fb8682870161030a565b9150509250925092565b6000610410826104cb565b61041a81856104d6565b935061042a818560208601610500565b61043381610608565b840191505092915050565b600060408201905081810360008301526104588185610405565b9050818103602083015261046c8184610405565b90509392505050565b600061047f610490565b905061048b8282610565565b919050565b6000604051905090565b600067ffffffffffffffff8211156104b5576104b46105c5565b5b6104be82610608565b9050602081019050919050565b600081519050919050565b600082825260208201905092915050565b6000819050919050565b82818337600083830152505050565b60005b8381101561051e578082015181840152602081019050610503565b8381111561052d576000848401525b50505050565b6000600282049050600182168061054b57607f821691505b6020821081141561055f5761055e610596565b5b50919050565b61056e82610608565b810181811067ffffffffffffffff8211171561058d5761058c6105c5565b5b80604052505050565b7f4e487b7100000000000000000000000000000000000000000000000000000000600052602260045260246000fd5b7f4e487b7100000000000000000000000000000000000000000000000000000000600052604160045260246000fd5b600080fd5b600080fd5b600080fd5b600080fd5b6000601f19601f8301169050919050565b610622816104e7565b811461062d57600080fd5b5056fea2646970667358221220b0e83d0faa4e0fe760436a3da8a914dd1ab736911621108e9c4f290c327cbb5c64736f6c63430008070033",
					"opcodes": "PUSH1 0x80 PUSH1 0x40 MSTORE CALLVALUE DUP1 ISZERO PUSH2 0x10 JUMPI PUSH1 0x0 DUP1 REVERT JUMPDEST POP PUSH2 0x666 DUP1 PUSH2 0x20 PUSH1 0x0 CODECOPY PUSH1 0x0 RETURN INVALID PUSH1 0x80 PUSH1 0x40 MSTORE CALLVALUE DUP1 ISZERO PUSH2 0x10 JUMPI PUSH1 0x0 DUP1 REVERT JUMPDEST POP PUSH1 0x4 CALLDATASIZE LT PUSH2 0x36 JUMPI PUSH1 0x0 CALLDATALOAD PUSH1 0xE0 SHR DUP1 PUSH4 0x6328FEEA EQ PUSH2 0x3B JUMPI DUP1 PUSH4 0xF0BA8440 EQ PUSH2 0x57 JUMPI JUMPDEST PUSH1 0x0 DUP1 REVERT JUMPDEST PUSH2 0x55 PUSH1 0x4 DUP1 CALLDATASIZE SUB DUP2 ADD SWAP1 PUSH2 0x50 SWAP2 SWAP1 PUSH2 0x37A JUMP JUMPDEST PUSH2 0x88 JUMP JUMPDEST STOP JUMPDEST PUSH2 0x71 PUSH1 0x4 DUP1 CALLDATASIZE SUB DUP2 ADD SWAP1 PUSH2 0x6C SWAP2 SWAP1 PUSH2 0x34D JUMP JUMPDEST PUSH2 0xF1 JUMP JUMPDEST PUSH1 0x40 MLOAD PUSH2 0x7F SWAP3 SWAP2 SWAP1 PUSH2 0x43E JUMP JUMPDEST PUSH1 0x40 MLOAD DUP1 SWAP2 SUB SWAP1 RETURN JUMPDEST PUSH1 0x40 MLOAD DUP1 PUSH1 0x40 ADD PUSH1 0x40 MSTORE DUP1 DUP4 DUP2 MSTORE PUSH1 0x20 ADD DUP3 DUP2 MSTORE POP PUSH1 0x0 DUP1 DUP6 DUP2 MSTORE PUSH1 0x20 ADD SWAP1 DUP2 MSTORE PUSH1 0x20 ADD PUSH1 0x0 KECCAK256 PUSH1 0x0 DUP3 ADD MLOAD DUP2 PUSH1 0x0 ADD SWAP1 DUP1 MLOAD SWAP1 PUSH1 0x20 ADD SWAP1 PUSH2 0xCB SWAP3 SWAP2 SWAP1 PUSH2 0x225 JUMP JUMPDEST POP PUSH1 0x20 DUP3 ADD MLOAD DUP2 PUSH1 0x1 ADD SWAP1 DUP1 MLOAD SWAP1 PUSH1 0x20 ADD SWAP1 PUSH2 0xE8 SWAP3 SWAP2 SWAP1 PUSH2 0x225 JUMP JUMPDEST POP SWAP1 POP POP POP POP POP JUMP JUMPDEST PUSH1 0x0 PUSH1 0x20 MSTORE DUP1 PUSH1 0x0 MSTORE PUSH1 0x40 PUSH1 0x0 KECCAK256 PUSH1 0x0 SWAP2 POP SWAP1 POP DUP1 PUSH1 0x0 ADD DUP1 SLOAD PUSH2 0x114 SWAP1 PUSH2 0x533 JUMP JUMPDEST DUP1 PUSH1 0x1F ADD PUSH1 0x20 DUP1 SWAP2 DIV MUL PUSH1 0x20 ADD PUSH1 0x40 MLOAD SWAP1 DUP2 ADD PUSH1 0x40 MSTORE DUP1 SWAP3 SWAP2 SWAP1 DUP2 DUP2 MSTORE PUSH1 0x20 ADD DUP3 DUP1 SLOAD PUSH2 0x140 SWAP1 PUSH2 0x533 JUMP JUMPDEST DUP1 ISZERO PUSH2 0x18D JUMPI DUP1 PUSH1 0x1F LT PUSH2 0x162 JUMPI PUSH2 0x100 DUP1 DUP4 SLOAD DIV MUL DUP4 MSTORE SWAP2 PUSH1 0x20 ADD SWAP2 PUSH2 0x18D JUMP JUMPDEST DUP3 ADD SWAP2 SWAP1 PUSH1 0x0 MSTORE PUSH1 0x20 PUSH1 0x0 KECCAK256 SWAP1 JUMPDEST DUP2 SLOAD DUP2 MSTORE SWAP1 PUSH1 0x1 ADD SWAP1 PUSH1 0x20 ADD DUP1 DUP4 GT PUSH2 0x170 JUMPI DUP3 SWAP1 SUB PUSH1 0x1F AND DUP3 ADD SWAP2 JUMPDEST POP POP POP POP POP SWAP1 DUP1 PUSH1 0x1 ADD DUP1 SLOAD PUSH2 0x1A2 SWAP1 PUSH2 0x533 JUMP JUMPDEST DUP1 PUSH1 0x1F ADD PUSH1 0x20 DUP1 SWAP2 DIV MUL PUSH1 0x20 ADD PUSH1 0x40 MLOAD SWAP1 DUP2 ADD PUSH1 0x40 MSTORE DUP1 SWAP3 SWAP2 SWAP1 DUP2 DUP2 MSTORE PUSH1 0x20 ADD DUP3 DUP1 SLOAD PUSH2 0x1CE SWAP1 PUSH2 0x533 JUMP JUMPDEST DUP1 ISZERO PUSH2 0x21B JUMPI DUP1 PUSH1 0x1F LT PUSH2 0x1F0 JUMPI PUSH2 0x100 DUP1 DUP4 SLOAD DIV MUL DUP4 MSTORE SWAP2 PUSH1 0x20 ADD SWAP2 PUSH2 0x21B JUMP JUMPDEST DUP3 ADD SWAP2 SWAP1 PUSH1 0x0 MSTORE PUSH1 0x20 PUSH1 0x0 KECCAK256 SWAP1 JUMPDEST DUP2 SLOAD DUP2 MSTORE SWAP1 PUSH1 0x1 ADD SWAP1 PUSH1 0x20 ADD DUP1 DUP4 GT PUSH2 0x1FE JUMPI DUP3 SWAP1 SUB PUSH1 0x1F AND DUP3 ADD SWAP2 JUMPDEST POP POP POP POP POP SWAP1 POP DUP3 JUMP JUMPDEST DUP3 DUP1 SLOAD PUSH2 0x231 SWAP1 PUSH2 0x533 JUMP JUMPDEST SWAP1 PUSH1 0x0 MSTORE PUSH1 0x20 PUSH1 0x0 KECCAK256 SWAP1 PUSH1 0x1F ADD PUSH1 0x20 SWAP1 DIV DUP2 ADD SWAP3 DUP3 PUSH2 0x253 JUMPI PUSH1 0x0 DUP6 SSTORE PUSH2 0x29A JUMP JUMPDEST DUP3 PUSH1 0x1F LT PUSH2 0x26C JUMPI DUP1 MLOAD PUSH1 0xFF NOT AND DUP4 DUP1 ADD OR DUP6 SSTORE PUSH2 0x29A JUMP JUMPDEST DUP3 DUP1 ADD PUSH1 0x1 ADD DUP6 SSTORE DUP3 ISZERO PUSH2 0x29A JUMPI SWAP2 DUP3 ADD JUMPDEST DUP3 DUP2 GT ISZERO PUSH2 0x299 JUMPI DUP3 MLOAD DUP3 SSTORE SWAP2 PUSH1 0x20 ADD SWAP2 SWAP1 PUSH1 0x1 ADD SWAP1 PUSH2 0x27E JUMP JUMPDEST JUMPDEST POP SWAP1 POP PUSH2 0x2A7 SWAP2 SWAP1 PUSH2 0x2AB JUMP JUMPDEST POP SWAP1 JUMP JUMPDEST JUMPDEST DUP1 DUP3 GT ISZERO PUSH2 0x2C4 JUMPI PUSH1 0x0 DUP2 PUSH1 0x0 SWAP1 SSTORE POP PUSH1 0x1 ADD PUSH2 0x2AC JUMP JUMPDEST POP SWAP1 JUMP JUMPDEST PUSH1 0x0 PUSH2 0x2DB PUSH2 0x2D6 DUP5 PUSH2 0x49A JUMP JUMPDEST PUSH2 0x475 JUMP JUMPDEST SWAP1 POP DUP3 DUP2 MSTORE PUSH1 0x20 DUP2 ADD DUP5 DUP5 DUP5 ADD GT ISZERO PUSH2 0x2F7 JUMPI PUSH2 0x2F6 PUSH2 0x5F9 JUMP JUMPDEST JUMPDEST PUSH2 0x302 DUP5 DUP3 DUP6 PUSH2 0x4F1 JUMP JUMPDEST POP SWAP4 SWAP3 POP POP POP JUMP JUMPDEST PUSH1 0x0 DUP3 PUSH1 0x1F DUP4 ADD SLT PUSH2 0x31F JUMPI PUSH2 0x31E PUSH2 0x5F4 JUMP JUMPDEST JUMPDEST DUP2 CALLDATALOAD PUSH2 0x32F DUP5 DUP3 PUSH1 0x20 DUP7 ADD PUSH2 0x2C8 JUMP JUMPDEST SWAP2 POP POP SWAP3 SWAP2 POP POP JUMP JUMPDEST PUSH1 0x0 DUP2 CALLDATALOAD SWAP1 POP PUSH2 0x347 DUP2 PUSH2 0x619 JUMP JUMPDEST SWAP3 SWAP2 POP POP JUMP JUMPDEST PUSH1 0x0 PUSH1 0x20 DUP3 DUP5 SUB SLT ISZERO PUSH2 0x363 JUMPI PUSH2 0x362 PUSH2 0x603 JUMP JUMPDEST JUMPDEST PUSH1 0x0 PUSH2 0x371 DUP5 DUP3 DUP6 ADD PUSH2 0x338 JUMP JUMPDEST SWAP2 POP POP SWAP3 SWAP2 POP POP JUMP JUMPDEST PUSH1 0x0 DUP1 PUSH1 0x0 PUSH1 0x60 DUP5 DUP7 SUB SLT ISZERO PUSH2 0x393 JUMPI PUSH2 0x392 PUSH2 0x603 JUMP JUMPDEST JUMPDEST PUSH1 0x0 PUSH2 0x3A1 DUP7 DUP3 DUP8 ADD PUSH2 0x338 JUMP JUMPDEST SWAP4 POP POP PUSH1 0x20 DUP5 ADD CALLDATALOAD PUSH8 0xFFFFFFFFFFFFFFFF DUP2 GT ISZERO PUSH2 0x3C2 JUMPI PUSH2 0x3C1 PUSH2 0x5FE JUMP JUMPDEST JUMPDEST PUSH2 0x3CE DUP7 DUP3 DUP8 ADD PUSH2 0x30A JUMP JUMPDEST SWAP3 POP POP PUSH1 0x40 DUP5 ADD CALLDATALOAD PUSH8 0xFFFFFFFFFFFFFFFF DUP2 GT ISZERO PUSH2 0x3EF JUMPI PUSH2 0x3EE PUSH2 0x5FE JUMP JUMPDEST JUMPDEST PUSH2 0x3FB DUP7 DUP3 DUP8 ADD PUSH2 0x30A JUMP JUMPDEST SWAP2 POP POP SWAP3 POP SWAP3 POP SWAP3 JUMP JUMPDEST PUSH1 0x0 PUSH2 0x410 DUP3 PUSH2 0x4CB JUMP JUMPDEST PUSH2 0x41A DUP2 DUP6 PUSH2 0x4D6 JUMP JUMPDEST SWAP4 POP PUSH2 0x42A DUP2 DUP6 PUSH1 0x20 DUP7 ADD PUSH2 0x500 JUMP JUMPDEST PUSH2 0x433 DUP2 PUSH2 0x608 JUMP JUMPDEST DUP5 ADD SWAP2 POP POP SWAP3 SWAP2 POP POP JUMP JUMPDEST PUSH1 0x0 PUSH1 0x40 DUP3 ADD SWAP1 POP DUP2 DUP2 SUB PUSH1 0x0 DUP4 ADD MSTORE PUSH2 0x458 DUP2 DUP6 PUSH2 0x405 JUMP JUMPDEST SWAP1 POP DUP2 DUP2 SUB PUSH1 0x20 DUP4 ADD MSTORE PUSH2 0x46C DUP2 DUP5 PUSH2 0x405 JUMP JUMPDEST SWAP1 POP SWAP4 SWAP3 POP POP POP JUMP JUMPDEST PUSH1 0x0 PUSH2 0x47F PUSH2 0x490 JUMP JUMPDEST SWAP1 POP PUSH2 0x48B DUP3 DUP3 PUSH2 0x565 JUMP JUMPDEST SWAP2 SWAP1 POP JUMP JUMPDEST PUSH1 0x0 PUSH1 0x40 MLOAD SWAP1 POP SWAP1 JUMP JUMPDEST PUSH1 0x0 PUSH8 0xFFFFFFFFFFFFFFFF DUP3 GT ISZERO PUSH2 0x4B5 JUMPI PUSH2 0x4B4 PUSH2 0x5C5 JUMP JUMPDEST JUMPDEST PUSH2 0x4BE DUP3 PUSH2 0x608 JUMP JUMPDEST SWAP1 POP PUSH1 0x20 DUP2 ADD SWAP1 POP SWAP2 SWAP1 POP JUMP JUMPDEST PUSH1 0x0 DUP2 MLOAD SWAP1 POP SWAP2 SWAP1 POP JUMP JUMPDEST PUSH1 0x0 DUP3 DUP3 MSTORE PUSH1 0x20 DUP3 ADD SWAP1 POP SWAP3 SWAP2 POP POP JUMP JUMPDEST PUSH1 0x0 DUP2 SWAP1 POP SWAP2 SWAP1 POP JUMP JUMPDEST DUP3 DUP2 DUP4 CALLDATACOPY PUSH1 0x0 DUP4 DUP4 ADD MSTORE POP POP POP JUMP JUMPDEST PUSH1 0x0 JUMPDEST DUP4 DUP2 LT ISZERO PUSH2 0x51E JUMPI DUP1 DUP3 ADD MLOAD DUP2 DUP5 ADD MSTORE PUSH1 0x20 DUP2 ADD SWAP1 POP PUSH2 0x503 JUMP JUMPDEST DUP4 DUP2 GT ISZERO PUSH2 0x52D JUMPI PUSH1 0x0 DUP5 DUP5 ADD MSTORE JUMPDEST POP POP POP POP JUMP JUMPDEST PUSH1 0x0 PUSH1 0x2 DUP3 DIV SWAP1 POP PUSH1 0x1 DUP3 AND DUP1 PUSH2 0x54B JUMPI PUSH1 0x7F DUP3 AND SWAP2 POP JUMPDEST PUSH1 0x20 DUP3 LT DUP2 EQ ISZERO PUSH2 0x55F JUMPI PUSH2 0x55E PUSH2 0x596 JUMP JUMPDEST JUMPDEST POP SWAP2 SWAP1 POP JUMP JUMPDEST PUSH2 0x56E DUP3 PUSH2 0x608 JUMP JUMPDEST DUP2 ADD DUP2 DUP2 LT PUSH8 0xFFFFFFFFFFFFFFFF DUP3 GT OR ISZERO PUSH2 0x58D JUMPI PUSH2 0x58C PUSH2 0x5C5 JUMP JUMPDEST JUMPDEST DUP1 PUSH1 0x40 MSTORE POP POP POP JUMP JUMPDEST PUSH32 0x4E487B7100000000000000000000000000000000000000000000000000000000 PUSH1 0x0 MSTORE PUSH1 0x22 PUSH1 0x4 MSTORE PUSH1 0x24 PUSH1 0x0 REVERT JUMPDEST PUSH32 0x4E487B7100000000000000000000000000000000000000000000000000000000 PUSH1 0x0 MSTORE PUSH1 0x41 PUSH1 0x4 MSTORE PUSH1 0x24 PUSH1 0x0 REVERT JUMPDEST PUSH1 0x0 DUP1 REVERT JUMPDEST PUSH1 0x0 DUP1 REVERT JUMPDEST PUSH1 0x0 DUP1 REVERT JUMPDEST PUSH1 0x0 DUP1 REVERT JUMPDEST PUSH1 0x0 PUSH1 0x1F NOT PUSH1 0x1F DUP4 ADD AND SWAP1 POP SWAP2 SWAP1 POP JUMP JUMPDEST PUSH2 0x622 DUP2 PUSH2 0x4E7 JUMP JUMPDEST DUP2 EQ PUSH2 0x62D JUMPI PUSH1 0x0 DUP1 REVERT JUMPDEST POP JUMP INVALID LOG2 PUSH5 0x6970667358 0x22 SLT KECCAK256 0xB0 0xE8 RETURNDATASIZE 0xF 0xAA 0x4E 0xF 0xE7 PUSH1 0x43 PUSH11 0x3DA8A914DD1AB736911621 LT DUP15 SWAP13 0x4F 0x29 0xC ORIGIN PUSH29 0xBB5C64736F6C6343000807003300000000000000000000000000000000 "
				},
				"gasEstimates": {
					"creation": {
						"codeDepositCost": "327600",
						"executionCost": "368",
						"totalCost": "327968"
					},
					"external": {
						"data(uint256)": "infinite",
						"setter(uint256,string,string)": "infinite"
					}
				},
				"methodIdentifiers": {
					"data(uint256)": "f0ba8440",
					"setter(uint256,string,string)": "6328feea"
				}
			},
			"userdoc": {
				"kind": "user",
				"methods": {},
				"version": 1
			}
		}
	}
}