{
	"blockship.sol": {
		"AirlineTickets": {
			"abi": [
				{
					"inputs": [],
					"stateMutability": "nonpayable",
					"type": "constructor"
				},
				{
					"inputs": [],
					"name": "busnissClass",
					"outputs": [],
					"stateMutability": "nonpayable",
					"type": "function"
				},
				{
					"inputs": [
						{
							"internalType": "address",
							"name": "",
							"type": "address"
						}
					],
					"name": "data",
					"outputs": [
						{
							"internalType": "string",
							"name": "name",
							"type": "string"
						},
						{
							"internalType": "string",
							"name": "des",
							"type": "string"
						},
						{
							"internalType": "uint256",
							"name": "pass_id",
							"type": "uint256"
						},
						{
							"internalType": "string",
							"name": "ticket",
							"type": "string"
						},
						{
							"internalType": "uint256",
							"name": "cost",
							"type": "uint256"
						}
					],
					"stateMutability": "view",
					"type": "function"
				},
				{
					"inputs": [],
					"name": "economyClass",
					"outputs": [],
					"stateMutability": "nonpayable",
					"type": "function"
				},
				{
					"inputs": [],
					"name": "firstClass",
					"outputs": [],
					"stateMutability": "nonpayable",
					"type": "function"
				},
				{
					"inputs": [],
					"name": "oneWei",
					"outputs": [
						{
							"internalType": "uint256",
							"name": "",
							"type": "uint256"
						}
					],
					"stateMutability": "view",
					"type": "function"
				},
				{
					"inputs": [],
					"name": "owner",
					"outputs": [
						{
							"internalType": "address",
							"name": "",
							"type": "address"
						}
					],
					"stateMutability": "view",
					"type": "function"
				},
				{
					"inputs": [],
					"name": "payment",
					"outputs": [],
					"stateMutability": "payable",
					"type": "function"
				},
				{
					"inputs": [
						{
							"internalType": "string",
							"name": "_name",
							"type": "string"
						},
						{
							"internalType": "string",
							"name": "_des",
							"type": "string"
						},
						{
							"internalType": "uint256",
							"name": "_pass_id",
							"type": "uint256"
						}
					],
					"name": "setData",
					"outputs": [],
					"stateMutability": "nonpayable",
					"type": "function"
				},
				{
					"inputs": [],
					"name": "u1",
					"outputs": [
						{
							"internalType": "enum AirlineTickets.classTypes",
							"name": "",
							"type": "uint8"
						}
					],
					"stateMutability": "view",
					"type": "function"
				},
				{
					"inputs": [],
					"name": "user",
					"outputs": [
						{
							"internalType": "address",
							"name": "",
							"type": "address"
						}
					],
					"stateMutability": "view",
					"type": "function"
				}
			],
			"devdoc": {
				"kind": "dev",
				"methods": {},
				"version": 1
			},
			"evm": {
				"assembly": "    /* \"blockship.sol\":74:2187  contract AirlineTickets {\r... */\n  mstore(0x40, 0x80)\n    /* \"blockship.sol\":452:457  false */\n  0x00\n    /* \"blockship.sol\":438:457  bool booked = false */\n  0x01\n  exp(0x0100, 0x14)\n  dup2\n  sload\n  dup2\n  0xff\n  mul\n  not\n  and\n  swap1\n  dup4\n  iszero\n  iszero\n  mul\n  or\n  swap1\n  sstore\n  pop\n    /* \"blockship.sol\":550:582  string realVal = \"Economy Class\" */\n  mload(0x40)\n  dup1\n  0x40\n  add\n  0x40\n  mstore\n  dup1\n  0x0d\n  dup2\n  mstore\n  0x20\n  add\n  0x45636f6e6f6d7920436c61737300000000000000000000000000000000000000\n  dup2\n  mstore\n  pop\n  0x03\n  swap1\n  dup1\n  mload\n  swap1\n  0x20\n  add\n  swap1\n  tag_1\n  swap3\n  swap2\n  swap1\n  tag_2\n  jump\t// in\ntag_1:\n  pop\n    /* \"blockship.sol\":645:650  1 wei */\n  0x01\n    /* \"blockship.sol\":624:650  uint public oneWei = 1 wei */\n  0x05\n  sstore\n    /* \"blockship.sol\":727:750  classTypes.economyClass */\n  0x01\n    /* \"blockship.sol\":705:750  classTypes public u1= classTypes.economyClass */\n  0x07\n  exp(0x0100, 0x00)\n  dup2\n  sload\n  dup2\n  0xff\n  mul\n  not\n  and\n  swap1\n  dup4\n  0x02\n  dup2\n  gt\n  iszero\n  tag_3\n  jumpi\n  tag_4\n  tag_5\n  jump\t// in\ntag_4:\ntag_3:\n  mul\n  or\n  swap1\n  sstore\n  pop\n    /* \"blockship.sol\":166:286  constructor() {\r... */\n  callvalue\n  dup1\n  iszero\n  tag_6\n  jumpi\n  0x00\n  dup1\n  revert\ntag_6:\n  pop\n    /* \"blockship.sol\":207:249  0xdD870fA1b7C4700F2BD7f44238821C26f7392148 */\n  0xdd870fa1b7c4700f2bd7f44238821c26f7392148\n    /* \"blockship.sol\":191:196  owner */\n  0x00\n  dup1\n    /* \"blockship.sol\":191:250  owner = payable(0xdD870fA1b7C4700F2BD7f44238821C26f7392148) */\n  0x0100\n  exp\n  dup2\n  sload\n  dup2\n  0xffffffffffffffffffffffffffffffffffffffff\n  mul\n  not\n  and\n  swap1\n  dup4\n  0xffffffffffffffffffffffffffffffffffffffff\n  and\n  mul\n  or\n  swap1\n  sstore\n  pop\n    /* \"blockship.sol\":268:278  msg.sender */\n  caller\n    /* \"blockship.sol\":261:265  user */\n  0x01\n  0x00\n    /* \"blockship.sol\":261:278  user = msg.sender */\n  0x0100\n  exp\n  dup2\n  sload\n  dup2\n  0xffffffffffffffffffffffffffffffffffffffff\n  mul\n  not\n  and\n  swap1\n  dup4\n  0xffffffffffffffffffffffffffffffffffffffff\n  and\n  mul\n  or\n  swap1\n  sstore\n  pop\n    /* \"blockship.sol\":74:2187  contract AirlineTickets {\r... */\n  jump(tag_9)\ntag_2:\n  dup3\n  dup1\n  sload\n  tag_10\n  swap1\n  tag_11\n  jump\t// in\ntag_10:\n  swap1\n  0x00\n  mstore\n  keccak256(0x00, 0x20)\n  swap1\n  0x1f\n  add\n  0x20\n  swap1\n  div\n  dup2\n  add\n  swap3\n  dup3\n  tag_13\n  jumpi\n  0x00\n  dup6\n  sstore\n  jump(tag_12)\ntag_13:\n  dup3\n  0x1f\n  lt\n  tag_14\n  jumpi\n  dup1\n  mload\n  not(0xff)\n  and\n  dup4\n  dup1\n  add\n  or\n  dup6\n  sstore\n  jump(tag_12)\ntag_14:\n  dup3\n  dup1\n  add\n  0x01\n  add\n  dup6\n  sstore\n  dup3\n  iszero\n  tag_12\n  jumpi\n  swap2\n  dup3\n  add\ntag_15:\n  dup3\n  dup2\n  gt\n  iszero\n  tag_16\n  jumpi\n  dup3\n  mload\n  dup3\n  sstore\n  swap2\n  0x20\n  add\n  swap2\n  swap1\n  0x01\n  add\n  swap1\n  jump(tag_15)\ntag_16:\ntag_12:\n  pop\n  swap1\n  pop\n  tag_17\n  swap2\n  swap1\n  tag_18\n  jump\t// in\ntag_17:\n  pop\n  swap1\n  jump\t// out\ntag_18:\ntag_19:\n  dup1\n  dup3\n  gt\n  iszero\n  tag_20\n  jumpi\n  0x00\n  dup2\n  0x00\n  swap1\n  sstore\n  pop\n  0x01\n  add\n  jump(tag_19)\ntag_20:\n  pop\n  swap1\n  jump\t// out\n    /* \"#utility.yul\":7:327   */\ntag_11:\n    /* \"#utility.yul\":51:57   */\n  0x00\n    /* \"#utility.yul\":88:89   */\n  0x02\n    /* \"#utility.yul\":82:86   */\n  dup3\n    /* \"#utility.yul\":78:90   */\n  div\n    /* \"#utility.yul\":68:90   */\n  swap1\n  pop\n    /* \"#utility.yul\":135:136   */\n  0x01\n    /* \"#utility.yul\":129:133   */\n  dup3\n    /* \"#utility.yul\":125:137   */\n  and\n    /* \"#utility.yul\":156:174   */\n  dup1\n    /* \"#utility.yul\":146:227   */\n  tag_23\n  jumpi\n    /* \"#utility.yul\":212:216   */\n  0x7f\n    /* \"#utility.yul\":204:210   */\n  dup3\n    /* \"#utility.yul\":200:217   */\n  and\n    /* \"#utility.yul\":190:217   */\n  swap2\n  pop\n    /* \"#utility.yul\":146:227   */\ntag_23:\n    /* \"#utility.yul\":274:276   */\n  0x20\n    /* \"#utility.yul\":266:272   */\n  dup3\n    /* \"#utility.yul\":263:277   */\n  lt\n    /* \"#utility.yul\":243:261   */\n  dup2\n    /* \"#utility.yul\":240:278   */\n  eq\n    /* \"#utility.yul\":237:321   */\n  iszero\n  tag_24\n  jumpi\n    /* \"#utility.yul\":293:311   */\n  tag_25\n  tag_26\n  jump\t// in\ntag_25:\n    /* \"#utility.yul\":237:321   */\ntag_24:\n    /* \"#utility.yul\":58:327   */\n  pop\n    /* \"#utility.yul\":7:327   */\n  swap2\n  swap1\n  pop\n  jump\t// out\n    /* \"#utility.yul\":333:513   */\ntag_5:\n    /* \"#utility.yul\":381:458   */\n  0x4e487b7100000000000000000000000000000000000000000000000000000000\n    /* \"#utility.yul\":378:379   */\n  0x00\n    /* \"#utility.yul\":371:459   */\n  mstore\n    /* \"#utility.yul\":478:482   */\n  0x21\n    /* \"#utility.yul\":475:476   */\n  0x04\n    /* \"#utility.yul\":468:483   */\n  mstore\n    /* \"#utility.yul\":502:506   */\n  0x24\n    /* \"#utility.yul\":499:500   */\n  0x00\n    /* \"#utility.yul\":492:507   */\n  revert\n    /* \"#utility.yul\":519:699   */\ntag_26:\n    /* \"#utility.yul\":567:644   */\n  0x4e487b7100000000000000000000000000000000000000000000000000000000\n    /* \"#utility.yul\":564:565   */\n  0x00\n    /* \"#utility.yul\":557:645   */\n  mstore\n    /* \"#utility.yul\":664:668   */\n  0x22\n    /* \"#utility.yul\":661:662   */\n  0x04\n    /* \"#utility.yul\":654:669   */\n  mstore\n    /* \"#utility.yul\":688:692   */\n  0x24\n    /* \"#utility.yul\":685:686   */\n  0x00\n    /* \"#utility.yul\":678:693   */\n  revert\n    /* \"blockship.sol\":74:2187  contract AirlineTickets {\r... */\ntag_9:\n  dataSize(sub_0)\n  dup1\n  dataOffset(sub_0)\n  0x00\n  codecopy\n  0x00\n  return\nstop\n\nsub_0: assembly {\n        /* \"blockship.sol\":74:2187  contract AirlineTickets {\r... */\n      mstore(0x40, 0x80)\n      jumpi(tag_1, lt(calldatasize, 0x04))\n      shr(0xe0, calldataload(0x00))\n      dup1\n      0x50183507\n      gt\n      tag_12\n      jumpi\n      dup1\n      0x50183507\n      eq\n      tag_7\n      jumpi\n      dup1\n      0x7a1736d1\n      eq\n      tag_8\n      jumpi\n      dup1\n      0x8da5cb5b\n      eq\n      tag_9\n      jumpi\n      dup1\n      0xb24fa0e4\n      eq\n      tag_10\n      jumpi\n      dup1\n      0xb90d3d0c\n      eq\n      tag_11\n      jumpi\n      jump(tag_1)\n    tag_12:\n      dup1\n      0x17ae4589\n      eq\n      tag_2\n      jumpi\n      dup1\n      0x1aa35610\n      eq\n      tag_3\n      jumpi\n      dup1\n      0x42f6487a\n      eq\n      tag_4\n      jumpi\n      dup1\n      0x4f8632ba\n      eq\n      tag_5\n      jumpi\n      dup1\n      0x4fb2e0be\n      eq\n      tag_6\n      jumpi\n    tag_1:\n      0x00\n      dup1\n      revert\n        /* \"blockship.sol\":1957:2178  function setData(string memory _name, string memory _des, uint _pass_id) public \r... */\n    tag_2:\n      callvalue\n      dup1\n      iszero\n      tag_13\n      jumpi\n      0x00\n      dup1\n      revert\n    tag_13:\n      pop\n      tag_14\n      0x04\n      dup1\n      calldatasize\n      sub\n      dup2\n      add\n      swap1\n      tag_15\n      swap2\n      swap1\n      tag_16\n      jump\t// in\n    tag_15:\n      tag_17\n      jump\t// in\n    tag_14:\n      stop\n        /* \"blockship.sol\":705:750  classTypes public u1= classTypes.economyClass */\n    tag_3:\n      callvalue\n      dup1\n      iszero\n      tag_18\n      jumpi\n      0x00\n      dup1\n      revert\n    tag_18:\n      pop\n      tag_19\n      tag_20\n      jump\t// in\n    tag_19:\n      mload(0x40)\n      tag_21\n      swap2\n      swap1\n      tag_22\n      jump\t// in\n    tag_21:\n      mload(0x40)\n      dup1\n      swap2\n      sub\n      swap1\n      return\n        /* \"blockship.sol\":952:1158  function payment() public payable\r... */\n    tag_4:\n      tag_23\n      tag_24\n      jump\t// in\n    tag_23:\n      stop\n        /* \"blockship.sol\":134:153  address public user */\n    tag_5:\n      callvalue\n      dup1\n      iszero\n      tag_25\n      jumpi\n      0x00\n      dup1\n      revert\n    tag_25:\n      pop\n      tag_26\n      tag_27\n      jump\t// in\n    tag_26:\n      mload(0x40)\n      tag_28\n      swap2\n      swap1\n      tag_29\n      jump\t// in\n    tag_28:\n      mload(0x40)\n      dup1\n      swap2\n      sub\n      swap1\n      return\n        /* \"blockship.sol\":624:650  uint public oneWei = 1 wei */\n    tag_6:\n      callvalue\n      dup1\n      iszero\n      tag_30\n      jumpi\n      0x00\n      dup1\n      revert\n    tag_30:\n      pop\n      tag_31\n      tag_32\n      jump\t// in\n    tag_31:\n      mload(0x40)\n      tag_33\n      swap2\n      swap1\n      tag_34\n      jump\t// in\n    tag_33:\n      mload(0x40)\n      dup1\n      swap2\n      sub\n      swap1\n      return\n        /* \"blockship.sol\":1435:1686  function firstClass() public \r... */\n    tag_7:\n      callvalue\n      dup1\n      iszero\n      tag_35\n      jumpi\n      0x00\n      dup1\n      revert\n    tag_35:\n      pop\n      tag_36\n      tag_37\n      jump\t// in\n    tag_36:\n      stop\n        /* \"blockship.sol\":1166:1423  function economyClass() public \r... */\n    tag_8:\n      callvalue\n      dup1\n      iszero\n      tag_38\n      jumpi\n      0x00\n      dup1\n      revert\n    tag_38:\n      pop\n      tag_39\n      tag_40\n      jump\t// in\n    tag_39:\n      stop\n        /* \"blockship.sol\":107:127  address public owner */\n    tag_9:\n      callvalue\n      dup1\n      iszero\n      tag_41\n      jumpi\n      0x00\n      dup1\n      revert\n    tag_41:\n      pop\n      tag_42\n      tag_43\n      jump\t// in\n    tag_42:\n      mload(0x40)\n      tag_44\n      swap2\n      swap1\n      tag_29\n      jump\t// in\n    tag_44:\n      mload(0x40)\n      dup1\n      swap2\n      sub\n      swap1\n      return\n        /* \"blockship.sol\":1694:1945  function busnissClass() public {\r... */\n    tag_10:\n      callvalue\n      dup1\n      iszero\n      tag_45\n      jumpi\n      0x00\n      dup1\n      revert\n    tag_45:\n      pop\n      tag_46\n      tag_47\n      jump\t// in\n    tag_46:\n      stop\n        /* \"blockship.sol\":659:696  mapping (address => User) public data */\n    tag_11:\n      callvalue\n      dup1\n      iszero\n      tag_48\n      jumpi\n      0x00\n      dup1\n      revert\n    tag_48:\n      pop\n      tag_49\n      0x04\n      dup1\n      calldatasize\n      sub\n      dup2\n      add\n      swap1\n      tag_50\n      swap2\n      swap1\n      tag_51\n      jump\t// in\n    tag_50:\n      tag_52\n      jump\t// in\n    tag_49:\n      mload(0x40)\n      tag_53\n      swap6\n      swap5\n      swap4\n      swap3\n      swap2\n      swap1\n      tag_54\n      jump\t// in\n    tag_53:\n      mload(0x40)\n      dup1\n      swap2\n      sub\n      swap1\n      return\n        /* \"blockship.sol\":1957:2178  function setData(string memory _name, string memory _des, uint _pass_id) public \r... */\n    tag_17:\n        /* \"blockship.sol\":2062:2068  booked */\n      0x01\n      0x14\n      swap1\n      sload\n      swap1\n      0x0100\n      exp\n      swap1\n      div\n      0xff\n      and\n        /* \"blockship.sol\":2054:2101  require(booked,\"please select the class first\") */\n      tag_56\n      jumpi\n      mload(0x40)\n      0x08c379a000000000000000000000000000000000000000000000000000000000\n      dup2\n      mstore\n      0x04\n      add\n      tag_57\n      swap1\n      tag_58\n      jump\t// in\n    tag_57:\n      mload(0x40)\n      dup1\n      swap2\n      sub\n      swap1\n      revert\n    tag_56:\n        /* \"blockship.sol\":2131:2170  User(_name,_des,_pass_id,realVal ,cost) */\n      mload(0x40)\n      dup1\n      0xa0\n      add\n      0x40\n      mstore\n      dup1\n        /* \"blockship.sol\":2136:2141  _name */\n      dup5\n        /* \"blockship.sol\":2131:2170  User(_name,_des,_pass_id,realVal ,cost) */\n      dup2\n      mstore\n      0x20\n      add\n        /* \"blockship.sol\":2142:2146  _des */\n      dup4\n        /* \"blockship.sol\":2131:2170  User(_name,_des,_pass_id,realVal ,cost) */\n      dup2\n      mstore\n      0x20\n      add\n        /* \"blockship.sol\":2147:2155  _pass_id */\n      dup3\n        /* \"blockship.sol\":2131:2170  User(_name,_des,_pass_id,realVal ,cost) */\n      dup2\n      mstore\n      0x20\n      add\n        /* \"blockship.sol\":2156:2163  realVal */\n      0x03\n        /* \"blockship.sol\":2131:2170  User(_name,_des,_pass_id,realVal ,cost) */\n      dup1\n      sload\n      tag_59\n      swap1\n      tag_60\n      jump\t// in\n    tag_59:\n      dup1\n      0x1f\n      add\n      0x20\n      dup1\n      swap2\n      div\n      mul\n      0x20\n      add\n      mload(0x40)\n      swap1\n      dup2\n      add\n      0x40\n      mstore\n      dup1\n      swap3\n      swap2\n      swap1\n      dup2\n      dup2\n      mstore\n      0x20\n      add\n      dup3\n      dup1\n      sload\n      tag_61\n      swap1\n      tag_60\n      jump\t// in\n    tag_61:\n      dup1\n      iszero\n      tag_62\n      jumpi\n      dup1\n      0x1f\n      lt\n      tag_63\n      jumpi\n      0x0100\n      dup1\n      dup4\n      sload\n      div\n      mul\n      dup4\n      mstore\n      swap2\n      0x20\n      add\n      swap2\n      jump(tag_62)\n    tag_63:\n      dup3\n      add\n      swap2\n      swap1\n      0x00\n      mstore\n      keccak256(0x00, 0x20)\n      swap1\n    tag_64:\n      dup2\n      sload\n      dup2\n      mstore\n      swap1\n      0x01\n      add\n      swap1\n      0x20\n      add\n      dup1\n      dup4\n      gt\n      tag_64\n      jumpi\n      dup3\n      swap1\n      sub\n      0x1f\n      and\n      dup3\n      add\n      swap2\n    tag_62:\n      pop\n      pop\n      pop\n      pop\n      pop\n      dup2\n      mstore\n      0x20\n      add\n        /* \"blockship.sol\":2165:2169  cost */\n      sload(0x04)\n        /* \"blockship.sol\":2131:2170  User(_name,_des,_pass_id,realVal ,cost) */\n      dup2\n      mstore\n      pop\n        /* \"blockship.sol\":2112:2116  data */\n      0x06\n        /* \"blockship.sol\":2112:2128  data[msg.sender] */\n      0x00\n        /* \"blockship.sol\":2117:2127  msg.sender */\n      caller\n        /* \"blockship.sol\":2112:2128  data[msg.sender] */\n      0xffffffffffffffffffffffffffffffffffffffff\n      and\n      0xffffffffffffffffffffffffffffffffffffffff\n      and\n      dup2\n      mstore\n      0x20\n      add\n      swap1\n      dup2\n      mstore\n      0x20\n      add\n      0x00\n      keccak256\n        /* \"blockship.sol\":2112:2170  data[msg.sender] = User(_name,_des,_pass_id,realVal ,cost) */\n      0x00\n      dup3\n      add\n      mload\n      dup2\n      0x00\n      add\n      swap1\n      dup1\n      mload\n      swap1\n      0x20\n      add\n      swap1\n      tag_65\n      swap3\n      swap2\n      swap1\n      tag_66\n      jump\t// in\n    tag_65:\n      pop\n      0x20\n      dup3\n      add\n      mload\n      dup2\n      0x01\n      add\n      swap1\n      dup1\n      mload\n      swap1\n      0x20\n      add\n      swap1\n      tag_67\n      swap3\n      swap2\n      swap1\n      tag_66\n      jump\t// in\n    tag_67:\n      pop\n      0x40\n      dup3\n      add\n      mload\n      dup2\n      0x02\n      add\n      sstore\n      0x60\n      dup3\n      add\n      mload\n      dup2\n      0x03\n      add\n      swap1\n      dup1\n      mload\n      swap1\n      0x20\n      add\n      swap1\n      tag_68\n      swap3\n      swap2\n      swap1\n      tag_66\n      jump\t// in\n    tag_68:\n      pop\n      0x80\n      dup3\n      add\n      mload\n      dup2\n      0x04\n      add\n      sstore\n      swap1\n      pop\n      pop\n        /* \"blockship.sol\":1957:2178  function setData(string memory _name, string memory _des, uint _pass_id) public \r... */\n      pop\n      pop\n      pop\n      jump\t// out\n        /* \"blockship.sol\":705:750  classTypes public u1= classTypes.economyClass */\n    tag_20:\n      0x07\n      0x00\n      swap1\n      sload\n      swap1\n      0x0100\n      exp\n      swap1\n      div\n      0xff\n      and\n      dup2\n      jump\t// out\n        /* \"blockship.sol\":952:1158  function payment() public payable\r... */\n    tag_24:\n        /* \"blockship.sol\":1023:1027  data */\n      0x06\n        /* \"blockship.sol\":1023:1039  data[msg.sender] */\n      0x00\n        /* \"blockship.sol\":1028:1038  msg.sender */\n      caller\n        /* \"blockship.sol\":1023:1039  data[msg.sender] */\n      0xffffffffffffffffffffffffffffffffffffffff\n      and\n      0xffffffffffffffffffffffffffffffffffffffff\n      and\n      dup2\n      mstore\n      0x20\n      add\n      swap1\n      dup2\n      mstore\n      0x20\n      add\n      0x00\n      keccak256\n        /* \"blockship.sol\":1023:1044  data[msg.sender].cost */\n      0x04\n      add\n      sload\n        /* \"blockship.sol\":1010:1019  msg.value */\n      callvalue\n        /* \"blockship.sol\":1010:1044  msg.value >= data[msg.sender].cost */\n      lt\n      iszero\n        /* \"blockship.sol\":1002:1045  require(msg.value >= data[msg.sender].cost) */\n      tag_70\n      jumpi\n      0x00\n      dup1\n      revert\n    tag_70:\n        /* \"blockship.sol\":1089:1093  data */\n      0x06\n        /* \"blockship.sol\":1089:1099  data[user] */\n      0x00\n        /* \"blockship.sol\":1094:1098  user */\n      0x01\n      0x00\n      swap1\n      sload\n      swap1\n      0x0100\n      exp\n      swap1\n      div\n      0xffffffffffffffffffffffffffffffffffffffff\n      and\n        /* \"blockship.sol\":1089:1099  data[user] */\n      0xffffffffffffffffffffffffffffffffffffffff\n      and\n      0xffffffffffffffffffffffffffffffffffffffff\n      and\n      dup2\n      mstore\n      0x20\n      add\n      swap1\n      dup2\n      mstore\n      0x20\n      add\n      0x00\n      keccak256\n        /* \"blockship.sol\":1089:1104  data[user].cost */\n      0x04\n      add\n      sload\n        /* \"blockship.sol\":1072:1076  user */\n      0x01\n      0x00\n      swap1\n      sload\n      swap1\n      0x0100\n      exp\n      swap1\n      div\n      0xffffffffffffffffffffffffffffffffffffffff\n      and\n        /* \"blockship.sol\":1064:1085  address(user).balance */\n      0xffffffffffffffffffffffffffffffffffffffff\n      and\n      balance\n        /* \"blockship.sol\":1064:1104  address(user).balance >= data[user].cost */\n      lt\n      iszero\n        /* \"blockship.sol\":1056:1105  require(address(user).balance >= data[user].cost) */\n      tag_71\n      jumpi\n      0x00\n      dup1\n      revert\n    tag_71:\n        /* \"blockship.sol\":1124:1129  owner */\n      0x00\n      dup1\n      sload\n      swap1\n      0x0100\n      exp\n      swap1\n      div\n      0xffffffffffffffffffffffffffffffffffffffff\n      and\n        /* \"blockship.sol\":1116:1139  payable(owner).transfer */\n      0xffffffffffffffffffffffffffffffffffffffff\n      and\n        /* \"blockship.sol\":1116:1150  payable(owner).transfer(msg.value) */\n      0x08fc\n        /* \"blockship.sol\":1140:1149  msg.value */\n      callvalue\n        /* \"blockship.sol\":1116:1150  payable(owner).transfer(msg.value) */\n      swap1\n      dup2\n      iszero\n      mul\n      swap1\n      mload(0x40)\n      0x00\n      mload(0x40)\n      dup1\n      dup4\n      sub\n      dup2\n      dup6\n      dup9\n      dup9\n      call\n      swap4\n      pop\n      pop\n      pop\n      pop\n      iszero\n      dup1\n      iszero\n      tag_73\n      jumpi\n      returndatasize\n      0x00\n      dup1\n      returndatacopy\n      revert(0x00, returndatasize)\n    tag_73:\n      pop\n        /* \"blockship.sol\":952:1158  function payment() public payable\r... */\n      jump\t// out\n        /* \"blockship.sol\":134:153  address public user */\n    tag_27:\n      0x01\n      0x00\n      swap1\n      sload\n      swap1\n      0x0100\n      exp\n      swap1\n      div\n      0xffffffffffffffffffffffffffffffffffffffff\n      and\n      dup2\n      jump\t// out\n        /* \"blockship.sol\":624:650  uint public oneWei = 1 wei */\n    tag_32:\n      sload(0x05)\n      dup2\n      jump\t// out\n        /* \"blockship.sol\":1435:1686  function firstClass() public \r... */\n    tag_37:\n        /* \"blockship.sol\":1485:1506  classTypes.firstClass */\n      0x00\n        /* \"blockship.sol\":1481:1483  u1 */\n      0x07\n      0x00\n        /* \"blockship.sol\":1481:1506  u1= classTypes.firstClass */\n      0x0100\n      exp\n      dup2\n      sload\n      dup2\n      0xff\n      mul\n      not\n      and\n      swap1\n      dup4\n      0x02\n      dup2\n      gt\n      iszero\n      tag_75\n      jumpi\n      tag_76\n      tag_77\n      jump\t// in\n    tag_76:\n    tag_75:\n      mul\n      or\n      swap1\n      sstore\n      pop\n        /* \"blockship.sol\":1532:1534  u1 */\n      0x07\n      0x00\n      swap1\n      sload\n      swap1\n      0x0100\n      exp\n      swap1\n      div\n      0xff\n      and\n        /* \"blockship.sol\":1527:1535  uint(u1) */\n      0x02\n      dup2\n      gt\n      iszero\n      tag_78\n      jumpi\n      tag_79\n      tag_77\n      jump\t// in\n    tag_79:\n    tag_78:\n        /* \"blockship.sol\":1517:1524  convert */\n      0x02\n        /* \"blockship.sol\":1517:1535  convert = uint(u1) */\n      dup2\n      swap1\n      sstore\n      pop\n        /* \"blockship.sol\":1558:1559  0 */\n      0x00\n        /* \"blockship.sol\":1549:1556  convert */\n      sload(0x02)\n        /* \"blockship.sol\":1549:1559  convert==0 */\n      eq\n        /* \"blockship.sol\":1546:1655  if(convert==0)\r... */\n      iszero\n      tag_80\n      jumpi\n        /* \"blockship.sol\":1585:1608  realVal = \"First Class\" */\n      mload(0x40)\n      dup1\n      0x40\n      add\n      0x40\n      mstore\n      dup1\n      0x0b\n      dup2\n      mstore\n      0x20\n      add\n      0x466972737420436c617373000000000000000000000000000000000000000000\n      dup2\n      mstore\n      pop\n        /* \"blockship.sol\":1585:1592  realVal */\n      0x03\n        /* \"blockship.sol\":1585:1608  realVal = \"First Class\" */\n      swap1\n      dup1\n      mload\n      swap1\n      0x20\n      add\n      swap1\n      tag_81\n      swap3\n      swap2\n      swap1\n      tag_66\n      jump\t// in\n    tag_81:\n      pop\n        /* \"blockship.sol\":1639:1643  1e16 */\n      0x2386f26fc10000\n        /* \"blockship.sol\":1630:1636  oneWei */\n      sload(0x05)\n        /* \"blockship.sol\":1630:1643  oneWei * 1e16 */\n      tag_82\n      swap2\n      swap1\n      tag_83\n      jump\t// in\n    tag_82:\n        /* \"blockship.sol\":1623:1627  cost */\n      0x04\n        /* \"blockship.sol\":1623:1643  cost = oneWei * 1e16 */\n      dup2\n      swap1\n      sstore\n      pop\n        /* \"blockship.sol\":1546:1655  if(convert==0)\r... */\n    tag_80:\n        /* \"blockship.sol\":1674:1678  true */\n      0x01\n        /* \"blockship.sol\":1665:1671  booked */\n      dup1\n      0x14\n        /* \"blockship.sol\":1665:1678  booked = true */\n      0x0100\n      exp\n      dup2\n      sload\n      dup2\n      0xff\n      mul\n      not\n      and\n      swap1\n      dup4\n      iszero\n      iszero\n      mul\n      or\n      swap1\n      sstore\n      pop\n        /* \"blockship.sol\":1435:1686  function firstClass() public \r... */\n      jump\t// out\n        /* \"blockship.sol\":1166:1423  function economyClass() public \r... */\n    tag_40:\n        /* \"blockship.sol\":1218:1241  classTypes.economyClass */\n      0x01\n        /* \"blockship.sol\":1214:1216  u1 */\n      0x07\n      0x00\n        /* \"blockship.sol\":1214:1241  u1= classTypes.economyClass */\n      0x0100\n      exp\n      dup2\n      sload\n      dup2\n      0xff\n      mul\n      not\n      and\n      swap1\n      dup4\n      0x02\n      dup2\n      gt\n      iszero\n      tag_85\n      jumpi\n      tag_86\n      tag_77\n      jump\t// in\n    tag_86:\n    tag_85:\n      mul\n      or\n      swap1\n      sstore\n      pop\n        /* \"blockship.sol\":1267:1269  u1 */\n      0x07\n      0x00\n      swap1\n      sload\n      swap1\n      0x0100\n      exp\n      swap1\n      div\n      0xff\n      and\n        /* \"blockship.sol\":1262:1270  uint(u1) */\n      0x02\n      dup2\n      gt\n      iszero\n      tag_87\n      jumpi\n      tag_88\n      tag_77\n      jump\t// in\n    tag_88:\n    tag_87:\n        /* \"blockship.sol\":1252:1259  convert */\n      0x02\n        /* \"blockship.sol\":1252:1270  convert = uint(u1) */\n      dup2\n      swap1\n      sstore\n      pop\n        /* \"blockship.sol\":1293:1294  1 */\n      0x01\n        /* \"blockship.sol\":1284:1291  convert */\n      sload(0x02)\n        /* \"blockship.sol\":1284:1294  convert==1 */\n      eq\n        /* \"blockship.sol\":1281:1392  if(convert==1)\r... */\n      iszero\n      tag_89\n      jumpi\n        /* \"blockship.sol\":1320:1345  realVal = \"Economy Class\" */\n      mload(0x40)\n      dup1\n      0x40\n      add\n      0x40\n      mstore\n      dup1\n      0x0d\n      dup2\n      mstore\n      0x20\n      add\n      0x45636f6e6f6d7920436c61737300000000000000000000000000000000000000\n      dup2\n      mstore\n      pop\n        /* \"blockship.sol\":1320:1327  realVal */\n      0x03\n        /* \"blockship.sol\":1320:1345  realVal = \"Economy Class\" */\n      swap1\n      dup1\n      mload\n      swap1\n      0x20\n      add\n      swap1\n      tag_90\n      swap3\n      swap2\n      swap1\n      tag_66\n      jump\t// in\n    tag_90:\n      pop\n        /* \"blockship.sol\":1376:1380  5e15 */\n      0x11c37937e08000\n        /* \"blockship.sol\":1367:1373  oneWei */\n      sload(0x05)\n        /* \"blockship.sol\":1367:1380  oneWei * 5e15 */\n      tag_91\n      swap2\n      swap1\n      tag_83\n      jump\t// in\n    tag_91:\n        /* \"blockship.sol\":1360:1364  cost */\n      0x04\n        /* \"blockship.sol\":1360:1380  cost = oneWei * 5e15 */\n      dup2\n      swap1\n      sstore\n      pop\n        /* \"blockship.sol\":1281:1392  if(convert==1)\r... */\n    tag_89:\n        /* \"blockship.sol\":1411:1415  true */\n      0x01\n        /* \"blockship.sol\":1402:1408  booked */\n      dup1\n      0x14\n        /* \"blockship.sol\":1402:1415  booked = true */\n      0x0100\n      exp\n      dup2\n      sload\n      dup2\n      0xff\n      mul\n      not\n      and\n      swap1\n      dup4\n      iszero\n      iszero\n      mul\n      or\n      swap1\n      sstore\n      pop\n        /* \"blockship.sol\":1166:1423  function economyClass() public \r... */\n      jump\t// out\n        /* \"blockship.sol\":107:127  address public owner */\n    tag_43:\n      0x00\n      dup1\n      sload\n      swap1\n      0x0100\n      exp\n      swap1\n      div\n      0xffffffffffffffffffffffffffffffffffffffff\n      and\n      dup2\n      jump\t// out\n        /* \"blockship.sol\":1694:1945  function busnissClass() public {\r... */\n    tag_47:\n        /* \"blockship.sol\":1740:1763  classTypes.busnissClass */\n      0x02\n        /* \"blockship.sol\":1736:1738  u1 */\n      0x07\n      0x00\n        /* \"blockship.sol\":1736:1763  u1= classTypes.busnissClass */\n      0x0100\n      exp\n      dup2\n      sload\n      dup2\n      0xff\n      mul\n      not\n      and\n      swap1\n      dup4\n      0x02\n      dup2\n      gt\n      iszero\n      tag_93\n      jumpi\n      tag_94\n      tag_77\n      jump\t// in\n    tag_94:\n    tag_93:\n      mul\n      or\n      swap1\n      sstore\n      pop\n        /* \"blockship.sol\":1789:1791  u1 */\n      0x07\n      0x00\n      swap1\n      sload\n      swap1\n      0x0100\n      exp\n      swap1\n      div\n      0xff\n      and\n        /* \"blockship.sol\":1784:1792  uint(u1) */\n      0x02\n      dup2\n      gt\n      iszero\n      tag_95\n      jumpi\n      tag_96\n      tag_77\n      jump\t// in\n    tag_96:\n    tag_95:\n        /* \"blockship.sol\":1774:1781  convert */\n      0x02\n        /* \"blockship.sol\":1774:1792  convert = uint(u1) */\n      dup2\n      swap1\n      sstore\n      pop\n        /* \"blockship.sol\":1815:1816  2 */\n      0x02\n        /* \"blockship.sol\":1806:1813  convert */\n      dup1\n      sload\n        /* \"blockship.sol\":1806:1816  convert==2 */\n      eq\n        /* \"blockship.sol\":1803:1914  if(convert==2)\r... */\n      iszero\n      tag_97\n      jumpi\n        /* \"blockship.sol\":1842:1867  realVal = \"Busniss Class\" */\n      mload(0x40)\n      dup1\n      0x40\n      add\n      0x40\n      mstore\n      dup1\n      0x0d\n      dup2\n      mstore\n      0x20\n      add\n      0x4275736e69737320436c61737300000000000000000000000000000000000000\n      dup2\n      mstore\n      pop\n        /* \"blockship.sol\":1842:1849  realVal */\n      0x03\n        /* \"blockship.sol\":1842:1867  realVal = \"Busniss Class\" */\n      swap1\n      dup1\n      mload\n      swap1\n      0x20\n      add\n      swap1\n      tag_98\n      swap3\n      swap2\n      swap1\n      tag_66\n      jump\t// in\n    tag_98:\n      pop\n        /* \"blockship.sol\":1898:1902  7e15 */\n      0x18de76816d8000\n        /* \"blockship.sol\":1889:1895  oneWei */\n      sload(0x05)\n        /* \"blockship.sol\":1889:1902  oneWei * 7e15 */\n      tag_99\n      swap2\n      swap1\n      tag_83\n      jump\t// in\n    tag_99:\n        /* \"blockship.sol\":1882:1886  cost */\n      0x04\n        /* \"blockship.sol\":1882:1902  cost = oneWei * 7e15 */\n      dup2\n      swap1\n      sstore\n      pop\n        /* \"blockship.sol\":1803:1914  if(convert==2)\r... */\n    tag_97:\n        /* \"blockship.sol\":1933:1937  true */\n      0x01\n        /* \"blockship.sol\":1924:1930  booked */\n      dup1\n      0x14\n        /* \"blockship.sol\":1924:1937  booked = true */\n      0x0100\n      exp\n      dup2\n      sload\n      dup2\n      0xff\n      mul\n      not\n      and\n      swap1\n      dup4\n      iszero\n      iszero\n      mul\n      or\n      swap1\n      sstore\n      pop\n        /* \"blockship.sol\":1694:1945  function busnissClass() public {\r... */\n      jump\t// out\n        /* \"blockship.sol\":659:696  mapping (address => User) public data */\n    tag_52:\n      mstore(0x20, 0x06)\n      dup1\n      0x00\n      mstore\n      keccak256(0x00, 0x40)\n      0x00\n      swap2\n      pop\n      swap1\n      pop\n      dup1\n      0x00\n      add\n      dup1\n      sload\n      tag_100\n      swap1\n      tag_60\n      jump\t// in\n    tag_100:\n      dup1\n      0x1f\n      add\n      0x20\n      dup1\n      swap2\n      div\n      mul\n      0x20\n      add\n      mload(0x40)\n      swap1\n      dup2\n      add\n      0x40\n      mstore\n      dup1\n      swap3\n      swap2\n      swap1\n      dup2\n      dup2\n      mstore\n      0x20\n      add\n      dup3\n      dup1\n      sload\n      tag_101\n      swap1\n      tag_60\n      jump\t// in\n    tag_101:\n      dup1\n      iszero\n      tag_102\n      jumpi\n      dup1\n      0x1f\n      lt\n      tag_103\n      jumpi\n      0x0100\n      dup1\n      dup4\n      sload\n      div\n      mul\n      dup4\n      mstore\n      swap2\n      0x20\n      add\n      swap2\n      jump(tag_102)\n    tag_103:\n      dup3\n      add\n      swap2\n      swap1\n      0x00\n      mstore\n      keccak256(0x00, 0x20)\n      swap1\n    tag_104:\n      dup2\n      sload\n      dup2\n      mstore\n      swap1\n      0x01\n      add\n      swap1\n      0x20\n      add\n      dup1\n      dup4\n      gt\n      tag_104\n      jumpi\n      dup3\n      swap1\n      sub\n      0x1f\n      and\n      dup3\n      add\n      swap2\n    tag_102:\n      pop\n      pop\n      pop\n      pop\n      pop\n      swap1\n      dup1\n      0x01\n      add\n      dup1\n      sload\n      tag_105\n      swap1\n      tag_60\n      jump\t// in\n    tag_105:\n      dup1\n      0x1f\n      add\n      0x20\n      dup1\n      swap2\n      div\n      mul\n      0x20\n      add\n      mload(0x40)\n      swap1\n      dup2\n      add\n      0x40\n      mstore\n      dup1\n      swap3\n      swap2\n      swap1\n      dup2\n      dup2\n      mstore\n      0x20\n      add\n      dup3\n      dup1\n      sload\n      tag_106\n      swap1\n      tag_60\n      jump\t// in\n    tag_106:\n      dup1\n      iszero\n      tag_107\n      jumpi\n      dup1\n      0x1f\n      lt\n      tag_108\n      jumpi\n      0x0100\n      dup1\n      dup4\n      sload\n      div\n      mul\n      dup4\n      mstore\n      swap2\n      0x20\n      add\n      swap2\n      jump(tag_107)\n    tag_108:\n      dup3\n      add\n      swap2\n      swap1\n      0x00\n      mstore\n      keccak256(0x00, 0x20)\n      swap1\n    tag_109:\n      dup2\n      sload\n      dup2\n      mstore\n      swap1\n      0x01\n      add\n      swap1\n      0x20\n      add\n      dup1\n      dup4\n      gt\n      tag_109\n      jumpi\n      dup3\n      swap1\n      sub\n      0x1f\n      and\n      dup3\n      add\n      swap2\n    tag_107:\n      pop\n      pop\n      pop\n      pop\n      pop\n      swap1\n      dup1\n      0x02\n      add\n      sload\n      swap1\n      dup1\n      0x03\n      add\n      dup1\n      sload\n      tag_110\n      swap1\n      tag_60\n      jump\t// in\n    tag_110:\n      dup1\n      0x1f\n      add\n      0x20\n      dup1\n      swap2\n      div\n      mul\n      0x20\n      add\n      mload(0x40)\n      swap1\n      dup2\n      add\n      0x40\n      mstore\n      dup1\n      swap3\n      swap2\n      swap1\n      dup2\n      dup2\n      mstore\n      0x20\n      add\n      dup3\n      dup1\n      sload\n      tag_111\n      swap1\n      tag_60\n      jump\t// in\n    tag_111:\n      dup1\n      iszero\n      tag_112\n      jumpi\n      dup1\n      0x1f\n      lt\n      tag_113\n      jumpi\n      0x0100\n      dup1\n      dup4\n      sload\n      div\n      mul\n      dup4\n      mstore\n      swap2\n      0x20\n      add\n      swap2\n      jump(tag_112)\n    tag_113:\n      dup3\n      add\n      swap2\n      swap1\n      0x00\n      mstore\n      keccak256(0x00, 0x20)\n      swap1\n    tag_114:\n      dup2\n      sload\n      dup2\n      mstore\n      swap1\n      0x01\n      add\n      swap1\n      0x20\n      add\n      dup1\n      dup4\n      gt\n      tag_114\n      jumpi\n      dup3\n      swap1\n      sub\n      0x1f\n      and\n      dup3\n      add\n      swap2\n    tag_112:\n      pop\n      pop\n      pop\n      pop\n      pop\n      swap1\n      dup1\n      0x04\n      add\n      sload\n      swap1\n      pop\n      dup6\n      jump\t// out\n    tag_66:\n      dup3\n      dup1\n      sload\n      tag_115\n      swap1\n      tag_60\n      jump\t// in\n    tag_115:\n      swap1\n      0x00\n      mstore\n      keccak256(0x00, 0x20)\n      swap1\n      0x1f\n      add\n      0x20\n      swap1\n      div\n      dup2\n      add\n      swap3\n      dup3\n      tag_117\n      jumpi\n      0x00\n      dup6\n      sstore\n      jump(tag_116)\n    tag_117:\n      dup3\n      0x1f\n      lt\n      tag_118\n      jumpi\n      dup1\n      mload\n      not(0xff)\n      and\n      dup4\n      dup1\n      add\n      or\n      dup6\n      sstore\n      jump(tag_116)\n    tag_118:\n      dup3\n      dup1\n      add\n      0x01\n      add\n      dup6\n      sstore\n      dup3\n      iszero\n      tag_116\n      jumpi\n      swap2\n      dup3\n      add\n    tag_119:\n      dup3\n      dup2\n      gt\n      iszero\n      tag_120\n      jumpi\n      dup3\n      mload\n      dup3\n      sstore\n      swap2\n      0x20\n      add\n      swap2\n      swap1\n      0x01\n      add\n      swap1\n      jump(tag_119)\n    tag_120:\n    tag_116:\n      pop\n      swap1\n      pop\n      tag_121\n      swap2\n      swap1\n      tag_122\n      jump\t// in\n    tag_121:\n      pop\n      swap1\n      jump\t// out\n    tag_122:\n    tag_123:\n      dup1\n      dup3\n      gt\n      iszero\n      tag_124\n      jumpi\n      0x00\n      dup2\n      0x00\n      swap1\n      sstore\n      pop\n      0x01\n      add\n      jump(tag_123)\n    tag_124:\n      pop\n      swap1\n      jump\t// out\n        /* \"#utility.yul\":7:419   */\n    tag_126:\n        /* \"#utility.yul\":85:90   */\n      0x00\n        /* \"#utility.yul\":110:176   */\n      tag_128\n        /* \"#utility.yul\":126:175   */\n      tag_129\n        /* \"#utility.yul\":168:174   */\n      dup5\n        /* \"#utility.yul\":126:175   */\n      tag_130\n      jump\t// in\n    tag_129:\n        /* \"#utility.yul\":110:176   */\n      tag_131\n      jump\t// in\n    tag_128:\n        /* \"#utility.yul\":101:176   */\n      swap1\n      pop\n        /* \"#utility.yul\":199:205   */\n      dup3\n        /* \"#utility.yul\":192:197   */\n      dup2\n        /* \"#utility.yul\":185:206   */\n      mstore\n        /* \"#utility.yul\":237:241   */\n      0x20\n        /* \"#utility.yul\":230:235   */\n      dup2\n        /* \"#utility.yul\":226:242   */\n      add\n        /* \"#utility.yul\":275:278   */\n      dup5\n        /* \"#utility.yul\":266:272   */\n      dup5\n        /* \"#utility.yul\":261:264   */\n      dup5\n        /* \"#utility.yul\":257:273   */\n      add\n        /* \"#utility.yul\":254:279   */\n      gt\n        /* \"#utility.yul\":251:363   */\n      iszero\n      tag_132\n      jumpi\n        /* \"#utility.yul\":282:361   */\n      tag_133\n      tag_134\n      jump\t// in\n    tag_133:\n        /* \"#utility.yul\":251:363   */\n    tag_132:\n        /* \"#utility.yul\":372:413   */\n      tag_135\n        /* \"#utility.yul\":406:412   */\n      dup5\n        /* \"#utility.yul\":401:404   */\n      dup3\n        /* \"#utility.yul\":396:399   */\n      dup6\n        /* \"#utility.yul\":372:413   */\n      tag_136\n      jump\t// in\n    tag_135:\n        /* \"#utility.yul\":91:419   */\n      pop\n        /* \"#utility.yul\":7:419   */\n      swap4\n      swap3\n      pop\n      pop\n      pop\n      jump\t// out\n        /* \"#utility.yul\":425:564   */\n    tag_137:\n        /* \"#utility.yul\":471:476   */\n      0x00\n        /* \"#utility.yul\":509:515   */\n      dup2\n        /* \"#utility.yul\":496:516   */\n      calldataload\n        /* \"#utility.yul\":487:516   */\n      swap1\n      pop\n        /* \"#utility.yul\":525:558   */\n      tag_139\n        /* \"#utility.yul\":552:557   */\n      dup2\n        /* \"#utility.yul\":525:558   */\n      tag_140\n      jump\t// in\n    tag_139:\n        /* \"#utility.yul\":425:564   */\n      swap3\n      swap2\n      pop\n      pop\n      jump\t// out\n        /* \"#utility.yul\":584:924   */\n    tag_141:\n        /* \"#utility.yul\":640:645   */\n      0x00\n        /* \"#utility.yul\":689:692   */\n      dup3\n        /* \"#utility.yul\":682:686   */\n      0x1f\n        /* \"#utility.yul\":674:680   */\n      dup4\n        /* \"#utility.yul\":670:687   */\n      add\n        /* \"#utility.yul\":666:693   */\n      slt\n        /* \"#utility.yul\":656:778   */\n      tag_143\n      jumpi\n        /* \"#utility.yul\":697:776   */\n      tag_144\n      tag_145\n      jump\t// in\n    tag_144:\n        /* \"#utility.yul\":656:778   */\n    tag_143:\n        /* \"#utility.yul\":814:820   */\n      dup2\n        /* \"#utility.yul\":801:821   */\n      calldataload\n        /* \"#utility.yul\":839:918   */\n      tag_146\n        /* \"#utility.yul\":914:917   */\n      dup5\n        /* \"#utility.yul\":906:912   */\n      dup3\n        /* \"#utility.yul\":899:903   */\n      0x20\n        /* \"#utility.yul\":891:897   */\n      dup7\n        /* \"#utility.yul\":887:904   */\n      add\n        /* \"#utility.yul\":839:918   */\n      tag_126\n      jump\t// in\n    tag_146:\n        /* \"#utility.yul\":830:918   */\n      swap2\n      pop\n        /* \"#utility.yul\":646:924   */\n      pop\n        /* \"#utility.yul\":584:924   */\n      swap3\n      swap2\n      pop\n      pop\n      jump\t// out\n        /* \"#utility.yul\":930:1069   */\n    tag_147:\n        /* \"#utility.yul\":976:981   */\n      0x00\n        /* \"#utility.yul\":1014:1020   */\n      dup2\n        /* \"#utility.yul\":1001:1021   */\n      calldataload\n        /* \"#utility.yul\":992:1021   */\n      swap1\n      pop\n        /* \"#utility.yul\":1030:1063   */\n      tag_149\n        /* \"#utility.yul\":1057:1062   */\n      dup2\n        /* \"#utility.yul\":1030:1063   */\n      tag_150\n      jump\t// in\n    tag_149:\n        /* \"#utility.yul\":930:1069   */\n      swap3\n      swap2\n      pop\n      pop\n      jump\t// out\n        /* \"#utility.yul\":1075:1404   */\n    tag_51:\n        /* \"#utility.yul\":1134:1140   */\n      0x00\n        /* \"#utility.yul\":1183:1185   */\n      0x20\n        /* \"#utility.yul\":1171:1180   */\n      dup3\n        /* \"#utility.yul\":1162:1169   */\n      dup5\n        /* \"#utility.yul\":1158:1181   */\n      sub\n        /* \"#utility.yul\":1154:1186   */\n      slt\n        /* \"#utility.yul\":1151:1270   */\n      iszero\n      tag_152\n      jumpi\n        /* \"#utility.yul\":1189:1268   */\n      tag_153\n      tag_154\n      jump\t// in\n    tag_153:\n        /* \"#utility.yul\":1151:1270   */\n    tag_152:\n        /* \"#utility.yul\":1309:1310   */\n      0x00\n        /* \"#utility.yul\":1334:1387   */\n      tag_155\n        /* \"#utility.yul\":1379:1386   */\n      dup5\n        /* \"#utility.yul\":1370:1376   */\n      dup3\n        /* \"#utility.yul\":1359:1368   */\n      dup6\n        /* \"#utility.yul\":1355:1377   */\n      add\n        /* \"#utility.yul\":1334:1387   */\n      tag_137\n      jump\t// in\n    tag_155:\n        /* \"#utility.yul\":1324:1387   */\n      swap2\n      pop\n        /* \"#utility.yul\":1280:1397   */\n      pop\n        /* \"#utility.yul\":1075:1404   */\n      swap3\n      swap2\n      pop\n      pop\n      jump\t// out\n        /* \"#utility.yul\":1410:2389   */\n    tag_16:\n        /* \"#utility.yul\":1507:1513   */\n      0x00\n        /* \"#utility.yul\":1515:1521   */\n      dup1\n        /* \"#utility.yul\":1523:1529   */\n      0x00\n        /* \"#utility.yul\":1572:1574   */\n      0x60\n        /* \"#utility.yul\":1560:1569   */\n      dup5\n        /* \"#utility.yul\":1551:1558   */\n      dup7\n        /* \"#utility.yul\":1547:1570   */\n      sub\n        /* \"#utility.yul\":1543:1575   */\n      slt\n        /* \"#utility.yul\":1540:1659   */\n      iszero\n      tag_157\n      jumpi\n        /* \"#utility.yul\":1578:1657   */\n      tag_158\n      tag_154\n      jump\t// in\n    tag_158:\n        /* \"#utility.yul\":1540:1659   */\n    tag_157:\n        /* \"#utility.yul\":1726:1727   */\n      0x00\n        /* \"#utility.yul\":1715:1724   */\n      dup5\n        /* \"#utility.yul\":1711:1728   */\n      add\n        /* \"#utility.yul\":1698:1729   */\n      calldataload\n        /* \"#utility.yul\":1756:1774   */\n      0xffffffffffffffff\n        /* \"#utility.yul\":1748:1754   */\n      dup2\n        /* \"#utility.yul\":1745:1775   */\n      gt\n        /* \"#utility.yul\":1742:1859   */\n      iszero\n      tag_159\n      jumpi\n        /* \"#utility.yul\":1778:1857   */\n      tag_160\n      tag_161\n      jump\t// in\n    tag_160:\n        /* \"#utility.yul\":1742:1859   */\n    tag_159:\n        /* \"#utility.yul\":1883:1946   */\n      tag_162\n        /* \"#utility.yul\":1938:1945   */\n      dup7\n        /* \"#utility.yul\":1929:1935   */\n      dup3\n        /* \"#utility.yul\":1918:1927   */\n      dup8\n        /* \"#utility.yul\":1914:1936   */\n      add\n        /* \"#utility.yul\":1883:1946   */\n      tag_141\n      jump\t// in\n    tag_162:\n        /* \"#utility.yul\":1873:1946   */\n      swap4\n      pop\n        /* \"#utility.yul\":1669:1956   */\n      pop\n        /* \"#utility.yul\":2023:2025   */\n      0x20\n        /* \"#utility.yul\":2012:2021   */\n      dup5\n        /* \"#utility.yul\":2008:2026   */\n      add\n        /* \"#utility.yul\":1995:2027   */\n      calldataload\n        /* \"#utility.yul\":2054:2072   */\n      0xffffffffffffffff\n        /* \"#utility.yul\":2046:2052   */\n      dup2\n        /* \"#utility.yul\":2043:2073   */\n      gt\n        /* \"#utility.yul\":2040:2157   */\n      iszero\n      tag_163\n      jumpi\n        /* \"#utility.yul\":2076:2155   */\n      tag_164\n      tag_161\n      jump\t// in\n    tag_164:\n        /* \"#utility.yul\":2040:2157   */\n    tag_163:\n        /* \"#utility.yul\":2181:2244   */\n      tag_165\n        /* \"#utility.yul\":2236:2243   */\n      dup7\n        /* \"#utility.yul\":2227:2233   */\n      dup3\n        /* \"#utility.yul\":2216:2225   */\n      dup8\n        /* \"#utility.yul\":2212:2234   */\n      add\n        /* \"#utility.yul\":2181:2244   */\n      tag_141\n      jump\t// in\n    tag_165:\n        /* \"#utility.yul\":2171:2244   */\n      swap3\n      pop\n        /* \"#utility.yul\":1966:2254   */\n      pop\n        /* \"#utility.yul\":2293:2295   */\n      0x40\n        /* \"#utility.yul\":2319:2372   */\n      tag_166\n        /* \"#utility.yul\":2364:2371   */\n      dup7\n        /* \"#utility.yul\":2355:2361   */\n      dup3\n        /* \"#utility.yul\":2344:2353   */\n      dup8\n        /* \"#utility.yul\":2340:2362   */\n      add\n        /* \"#utility.yul\":2319:2372   */\n      tag_147\n      jump\t// in\n    tag_166:\n        /* \"#utility.yul\":2309:2372   */\n      swap2\n      pop\n        /* \"#utility.yul\":2264:2382   */\n      pop\n        /* \"#utility.yul\":1410:2389   */\n      swap3\n      pop\n      swap3\n      pop\n      swap3\n      jump\t// out\n        /* \"#utility.yul\":2395:2513   */\n    tag_167:\n        /* \"#utility.yul\":2482:2506   */\n      tag_169\n        /* \"#utility.yul\":2500:2505   */\n      dup2\n        /* \"#utility.yul\":2482:2506   */\n      tag_170\n      jump\t// in\n    tag_169:\n        /* \"#utility.yul\":2477:2480   */\n      dup3\n        /* \"#utility.yul\":2470:2507   */\n      mstore\n        /* \"#utility.yul\":2395:2513   */\n      pop\n      pop\n      jump\t// out\n        /* \"#utility.yul\":2519:2672   */\n    tag_171:\n        /* \"#utility.yul\":2617:2665   */\n      tag_173\n        /* \"#utility.yul\":2659:2664   */\n      dup2\n        /* \"#utility.yul\":2617:2665   */\n      tag_174\n      jump\t// in\n    tag_173:\n        /* \"#utility.yul\":2612:2615   */\n      dup3\n        /* \"#utility.yul\":2605:2666   */\n      mstore\n        /* \"#utility.yul\":2519:2672   */\n      pop\n      pop\n      jump\t// out\n        /* \"#utility.yul\":2678:3042   */\n    tag_175:\n        /* \"#utility.yul\":2766:2769   */\n      0x00\n        /* \"#utility.yul\":2794:2833   */\n      tag_177\n        /* \"#utility.yul\":2827:2832   */\n      dup3\n        /* \"#utility.yul\":2794:2833   */\n      tag_178\n      jump\t// in\n    tag_177:\n        /* \"#utility.yul\":2849:2920   */\n      tag_179\n        /* \"#utility.yul\":2913:2919   */\n      dup2\n        /* \"#utility.yul\":2908:2911   */\n      dup6\n        /* \"#utility.yul\":2849:2920   */\n      tag_180\n      jump\t// in\n    tag_179:\n        /* \"#utility.yul\":2842:2920   */\n      swap4\n      pop\n        /* \"#utility.yul\":2929:2981   */\n      tag_181\n        /* \"#utility.yul\":2974:2980   */\n      dup2\n        /* \"#utility.yul\":2969:2972   */\n      dup6\n        /* \"#utility.yul\":2962:2966   */\n      0x20\n        /* \"#utility.yul\":2955:2960   */\n      dup7\n        /* \"#utility.yul\":2951:2967   */\n      add\n        /* \"#utility.yul\":2929:2981   */\n      tag_182\n      jump\t// in\n    tag_181:\n        /* \"#utility.yul\":3006:3035   */\n      tag_183\n        /* \"#utility.yul\":3028:3034   */\n      dup2\n        /* \"#utility.yul\":3006:3035   */\n      tag_184\n      jump\t// in\n    tag_183:\n        /* \"#utility.yul\":3001:3004   */\n      dup5\n        /* \"#utility.yul\":2997:3036   */\n      add\n        /* \"#utility.yul\":2990:3036   */\n      swap2\n      pop\n        /* \"#utility.yul\":2770:3042   */\n      pop\n        /* \"#utility.yul\":2678:3042   */\n      swap3\n      swap2\n      pop\n      pop\n      jump\t// out\n        /* \"#utility.yul\":3048:3414   */\n    tag_185:\n        /* \"#utility.yul\":3190:3193   */\n      0x00\n        /* \"#utility.yul\":3211:3278   */\n      tag_187\n        /* \"#utility.yul\":3275:3277   */\n      0x1d\n        /* \"#utility.yul\":3270:3273   */\n      dup4\n        /* \"#utility.yul\":3211:3278   */\n      tag_180\n      jump\t// in\n    tag_187:\n        /* \"#utility.yul\":3204:3278   */\n      swap2\n      pop\n        /* \"#utility.yul\":3287:3380   */\n      tag_188\n        /* \"#utility.yul\":3376:3379   */\n      dup3\n        /* \"#utility.yul\":3287:3380   */\n      tag_189\n      jump\t// in\n    tag_188:\n        /* \"#utility.yul\":3405:3407   */\n      0x20\n        /* \"#utility.yul\":3400:3403   */\n      dup3\n        /* \"#utility.yul\":3396:3408   */\n      add\n        /* \"#utility.yul\":3389:3408   */\n      swap1\n      pop\n        /* \"#utility.yul\":3048:3414   */\n      swap2\n      swap1\n      pop\n      jump\t// out\n        /* \"#utility.yul\":3420:3538   */\n    tag_190:\n        /* \"#utility.yul\":3507:3531   */\n      tag_192\n        /* \"#utility.yul\":3525:3530   */\n      dup2\n        /* \"#utility.yul\":3507:3531   */\n      tag_193\n      jump\t// in\n    tag_192:\n        /* \"#utility.yul\":3502:3505   */\n      dup3\n        /* \"#utility.yul\":3495:3532   */\n      mstore\n        /* \"#utility.yul\":3420:3538   */\n      pop\n      pop\n      jump\t// out\n        /* \"#utility.yul\":3544:3766   */\n    tag_29:\n        /* \"#utility.yul\":3637:3641   */\n      0x00\n        /* \"#utility.yul\":3675:3677   */\n      0x20\n        /* \"#utility.yul\":3664:3673   */\n      dup3\n        /* \"#utility.yul\":3660:3678   */\n      add\n        /* \"#utility.yul\":3652:3678   */\n      swap1\n      pop\n        /* \"#utility.yul\":3688:3759   */\n      tag_195\n        /* \"#utility.yul\":3756:3757   */\n      0x00\n        /* \"#utility.yul\":3745:3754   */\n      dup4\n        /* \"#utility.yul\":3741:3758   */\n      add\n        /* \"#utility.yul\":3732:3738   */\n      dup5\n        /* \"#utility.yul\":3688:3759   */\n      tag_167\n      jump\t// in\n    tag_195:\n        /* \"#utility.yul\":3544:3766   */\n      swap3\n      swap2\n      pop\n      pop\n      jump\t// out\n        /* \"#utility.yul\":3772:4016   */\n    tag_22:\n        /* \"#utility.yul\":3876:3880   */\n      0x00\n        /* \"#utility.yul\":3914:3916   */\n      0x20\n        /* \"#utility.yul\":3903:3912   */\n      dup3\n        /* \"#utility.yul\":3899:3917   */\n      add\n        /* \"#utility.yul\":3891:3917   */\n      swap1\n      pop\n        /* \"#utility.yul\":3927:4009   */\n      tag_197\n        /* \"#utility.yul\":4006:4007   */\n      0x00\n        /* \"#utility.yul\":3995:4004   */\n      dup4\n        /* \"#utility.yul\":3991:4008   */\n      add\n        /* \"#utility.yul\":3982:3988   */\n      dup5\n        /* \"#utility.yul\":3927:4009   */\n      tag_171\n      jump\t// in\n    tag_197:\n        /* \"#utility.yul\":3772:4016   */\n      swap3\n      swap2\n      pop\n      pop\n      jump\t// out\n        /* \"#utility.yul\":4022:4959   */\n    tag_54:\n        /* \"#utility.yul\":4287:4291   */\n      0x00\n        /* \"#utility.yul\":4325:4328   */\n      0xa0\n        /* \"#utility.yul\":4314:4323   */\n      dup3\n        /* \"#utility.yul\":4310:4329   */\n      add\n        /* \"#utility.yul\":4302:4329   */\n      swap1\n      pop\n        /* \"#utility.yul\":4375:4384   */\n      dup2\n        /* \"#utility.yul\":4369:4373   */\n      dup2\n        /* \"#utility.yul\":4365:4385   */\n      sub\n        /* \"#utility.yul\":4361:4362   */\n      0x00\n        /* \"#utility.yul\":4350:4359   */\n      dup4\n        /* \"#utility.yul\":4346:4363   */\n      add\n        /* \"#utility.yul\":4339:4386   */\n      mstore\n        /* \"#utility.yul\":4403:4481   */\n      tag_199\n        /* \"#utility.yul\":4476:4480   */\n      dup2\n        /* \"#utility.yul\":4467:4473   */\n      dup9\n        /* \"#utility.yul\":4403:4481   */\n      tag_175\n      jump\t// in\n    tag_199:\n        /* \"#utility.yul\":4395:4481   */\n      swap1\n      pop\n        /* \"#utility.yul\":4528:4537   */\n      dup2\n        /* \"#utility.yul\":4522:4526   */\n      dup2\n        /* \"#utility.yul\":4518:4538   */\n      sub\n        /* \"#utility.yul\":4513:4515   */\n      0x20\n        /* \"#utility.yul\":4502:4511   */\n      dup4\n        /* \"#utility.yul\":4498:4516   */\n      add\n        /* \"#utility.yul\":4491:4539   */\n      mstore\n        /* \"#utility.yul\":4556:4634   */\n      tag_200\n        /* \"#utility.yul\":4629:4633   */\n      dup2\n        /* \"#utility.yul\":4620:4626   */\n      dup8\n        /* \"#utility.yul\":4556:4634   */\n      tag_175\n      jump\t// in\n    tag_200:\n        /* \"#utility.yul\":4548:4634   */\n      swap1\n      pop\n        /* \"#utility.yul\":4644:4716   */\n      tag_201\n        /* \"#utility.yul\":4712:4714   */\n      0x40\n        /* \"#utility.yul\":4701:4710   */\n      dup4\n        /* \"#utility.yul\":4697:4715   */\n      add\n        /* \"#utility.yul\":4688:4694   */\n      dup7\n        /* \"#utility.yul\":4644:4716   */\n      tag_190\n      jump\t// in\n    tag_201:\n        /* \"#utility.yul\":4763:4772   */\n      dup2\n        /* \"#utility.yul\":4757:4761   */\n      dup2\n        /* \"#utility.yul\":4753:4773   */\n      sub\n        /* \"#utility.yul\":4748:4750   */\n      0x60\n        /* \"#utility.yul\":4737:4746   */\n      dup4\n        /* \"#utility.yul\":4733:4751   */\n      add\n        /* \"#utility.yul\":4726:4774   */\n      mstore\n        /* \"#utility.yul\":4791:4869   */\n      tag_202\n        /* \"#utility.yul\":4864:4868   */\n      dup2\n        /* \"#utility.yul\":4855:4861   */\n      dup6\n        /* \"#utility.yul\":4791:4869   */\n      tag_175\n      jump\t// in\n    tag_202:\n        /* \"#utility.yul\":4783:4869   */\n      swap1\n      pop\n        /* \"#utility.yul\":4879:4952   */\n      tag_203\n        /* \"#utility.yul\":4947:4950   */\n      0x80\n        /* \"#utility.yul\":4936:4945   */\n      dup4\n        /* \"#utility.yul\":4932:4951   */\n      add\n        /* \"#utility.yul\":4923:4929   */\n      dup5\n        /* \"#utility.yul\":4879:4952   */\n      tag_190\n      jump\t// in\n    tag_203:\n        /* \"#utility.yul\":4022:4959   */\n      swap7\n      swap6\n      pop\n      pop\n      pop\n      pop\n      pop\n      pop\n      jump\t// out\n        /* \"#utility.yul\":4965:5384   */\n    tag_58:\n        /* \"#utility.yul\":5131:5135   */\n      0x00\n        /* \"#utility.yul\":5169:5171   */\n      0x20\n        /* \"#utility.yul\":5158:5167   */\n      dup3\n        /* \"#utility.yul\":5154:5172   */\n      add\n        /* \"#utility.yul\":5146:5172   */\n      swap1\n      pop\n        /* \"#utility.yul\":5218:5227   */\n      dup2\n        /* \"#utility.yul\":5212:5216   */\n      dup2\n        /* \"#utility.yul\":5208:5228   */\n      sub\n        /* \"#utility.yul\":5204:5205   */\n      0x00\n        /* \"#utility.yul\":5193:5202   */\n      dup4\n        /* \"#utility.yul\":5189:5206   */\n      add\n        /* \"#utility.yul\":5182:5229   */\n      mstore\n        /* \"#utility.yul\":5246:5377   */\n      tag_205\n        /* \"#utility.yul\":5372:5376   */\n      dup2\n        /* \"#utility.yul\":5246:5377   */\n      tag_185\n      jump\t// in\n    tag_205:\n        /* \"#utility.yul\":5238:5377   */\n      swap1\n      pop\n        /* \"#utility.yul\":4965:5384   */\n      swap2\n      swap1\n      pop\n      jump\t// out\n        /* \"#utility.yul\":5390:5612   */\n    tag_34:\n        /* \"#utility.yul\":5483:5487   */\n      0x00\n        /* \"#utility.yul\":5521:5523   */\n      0x20\n        /* \"#utility.yul\":5510:5519   */\n      dup3\n        /* \"#utility.yul\":5506:5524   */\n      add\n        /* \"#utility.yul\":5498:5524   */\n      swap1\n      pop\n        /* \"#utility.yul\":5534:5605   */\n      tag_207\n        /* \"#utility.yul\":5602:5603   */\n      0x00\n        /* \"#utility.yul\":5591:5600   */\n      dup4\n        /* \"#utility.yul\":5587:5604   */\n      add\n        /* \"#utility.yul\":5578:5584   */\n      dup5\n        /* \"#utility.yul\":5534:5605   */\n      tag_190\n      jump\t// in\n    tag_207:\n        /* \"#utility.yul\":5390:5612   */\n      swap3\n      swap2\n      pop\n      pop\n      jump\t// out\n        /* \"#utility.yul\":5618:5747   */\n    tag_131:\n        /* \"#utility.yul\":5652:5658   */\n      0x00\n        /* \"#utility.yul\":5679:5699   */\n      tag_209\n      tag_210\n      jump\t// in\n    tag_209:\n        /* \"#utility.yul\":5669:5699   */\n      swap1\n      pop\n        /* \"#utility.yul\":5708:5741   */\n      tag_211\n        /* \"#utility.yul\":5736:5740   */\n      dup3\n        /* \"#utility.yul\":5728:5734   */\n      dup3\n        /* \"#utility.yul\":5708:5741   */\n      tag_212\n      jump\t// in\n    tag_211:\n        /* \"#utility.yul\":5618:5747   */\n      swap2\n      swap1\n      pop\n      jump\t// out\n        /* \"#utility.yul\":5753:5828   */\n    tag_210:\n        /* \"#utility.yul\":5786:5792   */\n      0x00\n        /* \"#utility.yul\":5819:5821   */\n      0x40\n        /* \"#utility.yul\":5813:5822   */\n      mload\n        /* \"#utility.yul\":5803:5822   */\n      swap1\n      pop\n        /* \"#utility.yul\":5753:5828   */\n      swap1\n      jump\t// out\n        /* \"#utility.yul\":5834:6142   */\n    tag_130:\n        /* \"#utility.yul\":5896:5900   */\n      0x00\n        /* \"#utility.yul\":5986:6004   */\n      0xffffffffffffffff\n        /* \"#utility.yul\":5978:5984   */\n      dup3\n        /* \"#utility.yul\":5975:6005   */\n      gt\n        /* \"#utility.yul\":5972:6028   */\n      iszero\n      tag_215\n      jumpi\n        /* \"#utility.yul\":6008:6026   */\n      tag_216\n      tag_217\n      jump\t// in\n    tag_216:\n        /* \"#utility.yul\":5972:6028   */\n    tag_215:\n        /* \"#utility.yul\":6046:6075   */\n      tag_218\n        /* \"#utility.yul\":6068:6074   */\n      dup3\n        /* \"#utility.yul\":6046:6075   */\n      tag_184\n      jump\t// in\n    tag_218:\n        /* \"#utility.yul\":6038:6075   */\n      swap1\n      pop\n        /* \"#utility.yul\":6130:6134   */\n      0x20\n        /* \"#utility.yul\":6124:6128   */\n      dup2\n        /* \"#utility.yul\":6120:6135   */\n      add\n        /* \"#utility.yul\":6112:6135   */\n      swap1\n      pop\n        /* \"#utility.yul\":5834:6142   */\n      swap2\n      swap1\n      pop\n      jump\t// out\n        /* \"#utility.yul\":6148:6247   */\n    tag_178:\n        /* \"#utility.yul\":6200:6206   */\n      0x00\n        /* \"#utility.yul\":6234:6239   */\n      dup2\n        /* \"#utility.yul\":6228:6240   */\n      mload\n        /* \"#utility.yul\":6218:6240   */\n      swap1\n      pop\n        /* \"#utility.yul\":6148:6247   */\n      swap2\n      swap1\n      pop\n      jump\t// out\n        /* \"#utility.yul\":6253:6422   */\n    tag_180:\n        /* \"#utility.yul\":6337:6348   */\n      0x00\n        /* \"#utility.yul\":6371:6377   */\n      dup3\n        /* \"#utility.yul\":6366:6369   */\n      dup3\n        /* \"#utility.yul\":6359:6378   */\n      mstore\n        /* \"#utility.yul\":6411:6415   */\n      0x20\n        /* \"#utility.yul\":6406:6409   */\n      dup3\n        /* \"#utility.yul\":6402:6416   */\n      add\n        /* \"#utility.yul\":6387:6416   */\n      swap1\n      pop\n        /* \"#utility.yul\":6253:6422   */\n      swap3\n      swap2\n      pop\n      pop\n      jump\t// out\n        /* \"#utility.yul\":6428:6776   */\n    tag_83:\n        /* \"#utility.yul\":6468:6475   */\n      0x00\n        /* \"#utility.yul\":6491:6511   */\n      tag_222\n        /* \"#utility.yul\":6509:6510   */\n      dup3\n        /* \"#utility.yul\":6491:6511   */\n      tag_193\n      jump\t// in\n    tag_222:\n        /* \"#utility.yul\":6486:6511   */\n      swap2\n      pop\n        /* \"#utility.yul\":6525:6545   */\n      tag_223\n        /* \"#utility.yul\":6543:6544   */\n      dup4\n        /* \"#utility.yul\":6525:6545   */\n      tag_193\n      jump\t// in\n    tag_223:\n        /* \"#utility.yul\":6520:6545   */\n      swap3\n      pop\n        /* \"#utility.yul\":6713:6714   */\n      dup2\n        /* \"#utility.yul\":6645:6711   */\n      0xffffffffffffffffffffffffffffffffffffffffffffffffffffffffffffffff\n        /* \"#utility.yul\":6641:6715   */\n      div\n        /* \"#utility.yul\":6638:6639   */\n      dup4\n        /* \"#utility.yul\":6635:6716   */\n      gt\n        /* \"#utility.yul\":6630:6631   */\n      dup3\n        /* \"#utility.yul\":6623:6632   */\n      iszero\n        /* \"#utility.yul\":6616:6633   */\n      iszero\n        /* \"#utility.yul\":6612:6717   */\n      and\n        /* \"#utility.yul\":6609:6740   */\n      iszero\n      tag_224\n      jumpi\n        /* \"#utility.yul\":6720:6738   */\n      tag_225\n      tag_226\n      jump\t// in\n    tag_225:\n        /* \"#utility.yul\":6609:6740   */\n    tag_224:\n        /* \"#utility.yul\":6768:6769   */\n      dup3\n        /* \"#utility.yul\":6765:6766   */\n      dup3\n        /* \"#utility.yul\":6761:6770   */\n      mul\n        /* \"#utility.yul\":6750:6770   */\n      swap1\n      pop\n        /* \"#utility.yul\":6428:6776   */\n      swap3\n      swap2\n      pop\n      pop\n      jump\t// out\n        /* \"#utility.yul\":6782:6878   */\n    tag_170:\n        /* \"#utility.yul\":6819:6826   */\n      0x00\n        /* \"#utility.yul\":6848:6872   */\n      tag_228\n        /* \"#utility.yul\":6866:6871   */\n      dup3\n        /* \"#utility.yul\":6848:6872   */\n      tag_229\n      jump\t// in\n    tag_228:\n        /* \"#utility.yul\":6837:6872   */\n      swap1\n      pop\n        /* \"#utility.yul\":6782:6878   */\n      swap2\n      swap1\n      pop\n      jump\t// out\n        /* \"#utility.yul\":6884:7021   */\n    tag_230:\n        /* \"#utility.yul\":6934:6941   */\n      0x00\n        /* \"#utility.yul\":6963:6968   */\n      dup2\n        /* \"#utility.yul\":6952:6968   */\n      swap1\n      pop\n        /* \"#utility.yul\":6969:7015   */\n      tag_232\n        /* \"#utility.yul\":7009:7014   */\n      dup3\n        /* \"#utility.yul\":6969:7015   */\n      tag_233\n      jump\t// in\n    tag_232:\n        /* \"#utility.yul\":6884:7021   */\n      swap2\n      swap1\n      pop\n      jump\t// out\n        /* \"#utility.yul\":7027:7153   */\n    tag_229:\n        /* \"#utility.yul\":7064:7071   */\n      0x00\n        /* \"#utility.yul\":7104:7146   */\n      0xffffffffffffffffffffffffffffffffffffffff\n        /* \"#utility.yul\":7097:7102   */\n      dup3\n        /* \"#utility.yul\":7093:7147   */\n      and\n        /* \"#utility.yul\":7082:7147   */\n      swap1\n      pop\n        /* \"#utility.yul\":7027:7153   */\n      swap2\n      swap1\n      pop\n      jump\t// out\n        /* \"#utility.yul\":7159:7236   */\n    tag_193:\n        /* \"#utility.yul\":7196:7203   */\n      0x00\n        /* \"#utility.yul\":7225:7230   */\n      dup2\n        /* \"#utility.yul\":7214:7230   */\n      swap1\n      pop\n        /* \"#utility.yul\":7159:7236   */\n      swap2\n      swap1\n      pop\n      jump\t// out\n        /* \"#utility.yul\":7242:7379   */\n    tag_174:\n        /* \"#utility.yul\":7303:7312   */\n      0x00\n        /* \"#utility.yul\":7336:7373   */\n      tag_237\n        /* \"#utility.yul\":7367:7372   */\n      dup3\n        /* \"#utility.yul\":7336:7373   */\n      tag_230\n      jump\t// in\n    tag_237:\n        /* \"#utility.yul\":7323:7373   */\n      swap1\n      pop\n        /* \"#utility.yul\":7242:7379   */\n      swap2\n      swap1\n      pop\n      jump\t// out\n        /* \"#utility.yul\":7385:7539   */\n    tag_136:\n        /* \"#utility.yul\":7469:7475   */\n      dup3\n        /* \"#utility.yul\":7464:7467   */\n      dup2\n        /* \"#utility.yul\":7459:7462   */\n      dup4\n        /* \"#utility.yul\":7446:7476   */\n      calldatacopy\n        /* \"#utility.yul\":7531:7532   */\n      0x00\n        /* \"#utility.yul\":7522:7528   */\n      dup4\n        /* \"#utility.yul\":7517:7520   */\n      dup4\n        /* \"#utility.yul\":7513:7529   */\n      add\n        /* \"#utility.yul\":7506:7533   */\n      mstore\n        /* \"#utility.yul\":7385:7539   */\n      pop\n      pop\n      pop\n      jump\t// out\n        /* \"#utility.yul\":7545:7852   */\n    tag_182:\n        /* \"#utility.yul\":7613:7614   */\n      0x00\n        /* \"#utility.yul\":7623:7736   */\n    tag_240:\n        /* \"#utility.yul\":7637:7643   */\n      dup4\n        /* \"#utility.yul\":7634:7635   */\n      dup2\n        /* \"#utility.yul\":7631:7644   */\n      lt\n        /* \"#utility.yul\":7623:7736   */\n      iszero\n      tag_242\n      jumpi\n        /* \"#utility.yul\":7722:7723   */\n      dup1\n        /* \"#utility.yul\":7717:7720   */\n      dup3\n        /* \"#utility.yul\":7713:7724   */\n      add\n        /* \"#utility.yul\":7707:7725   */\n      mload\n        /* \"#utility.yul\":7703:7704   */\n      dup2\n        /* \"#utility.yul\":7698:7701   */\n      dup5\n        /* \"#utility.yul\":7694:7705   */\n      add\n        /* \"#utility.yul\":7687:7726   */\n      mstore\n        /* \"#utility.yul\":7659:7661   */\n      0x20\n        /* \"#utility.yul\":7656:7657   */\n      dup2\n        /* \"#utility.yul\":7652:7662   */\n      add\n        /* \"#utility.yul\":7647:7662   */\n      swap1\n      pop\n        /* \"#utility.yul\":7623:7736   */\n      jump(tag_240)\n    tag_242:\n        /* \"#utility.yul\":7754:7760   */\n      dup4\n        /* \"#utility.yul\":7751:7752   */\n      dup2\n        /* \"#utility.yul\":7748:7761   */\n      gt\n        /* \"#utility.yul\":7745:7846   */\n      iszero\n      tag_243\n      jumpi\n        /* \"#utility.yul\":7834:7835   */\n      0x00\n        /* \"#utility.yul\":7825:7831   */\n      dup5\n        /* \"#utility.yul\":7820:7823   */\n      dup5\n        /* \"#utility.yul\":7816:7832   */\n      add\n        /* \"#utility.yul\":7809:7836   */\n      mstore\n        /* \"#utility.yul\":7745:7846   */\n    tag_243:\n        /* \"#utility.yul\":7594:7852   */\n      pop\n        /* \"#utility.yul\":7545:7852   */\n      pop\n      pop\n      pop\n      jump\t// out\n        /* \"#utility.yul\":7858:8178   */\n    tag_60:\n        /* \"#utility.yul\":7902:7908   */\n      0x00\n        /* \"#utility.yul\":7939:7940   */\n      0x02\n        /* \"#utility.yul\":7933:7937   */\n      dup3\n        /* \"#utility.yul\":7929:7941   */\n      div\n        /* \"#utility.yul\":7919:7941   */\n      swap1\n      pop\n        /* \"#utility.yul\":7986:7987   */\n      0x01\n        /* \"#utility.yul\":7980:7984   */\n      dup3\n        /* \"#utility.yul\":7976:7988   */\n      and\n        /* \"#utility.yul\":8007:8025   */\n      dup1\n        /* \"#utility.yul\":7997:8078   */\n      tag_245\n      jumpi\n        /* \"#utility.yul\":8063:8067   */\n      0x7f\n        /* \"#utility.yul\":8055:8061   */\n      dup3\n        /* \"#utility.yul\":8051:8068   */\n      and\n        /* \"#utility.yul\":8041:8068   */\n      swap2\n      pop\n        /* \"#utility.yul\":7997:8078   */\n    tag_245:\n        /* \"#utility.yul\":8125:8127   */\n      0x20\n        /* \"#utility.yul\":8117:8123   */\n      dup3\n        /* \"#utility.yul\":8114:8128   */\n      lt\n        /* \"#utility.yul\":8094:8112   */\n      dup2\n        /* \"#utility.yul\":8091:8129   */\n      eq\n        /* \"#utility.yul\":8088:8172   */\n      iszero\n      tag_246\n      jumpi\n        /* \"#utility.yul\":8144:8162   */\n      tag_247\n      tag_248\n      jump\t// in\n    tag_247:\n        /* \"#utility.yul\":8088:8172   */\n    tag_246:\n        /* \"#utility.yul\":7909:8178   */\n      pop\n        /* \"#utility.yul\":7858:8178   */\n      swap2\n      swap1\n      pop\n      jump\t// out\n        /* \"#utility.yul\":8184:8465   */\n    tag_212:\n        /* \"#utility.yul\":8267:8294   */\n      tag_250\n        /* \"#utility.yul\":8289:8293   */\n      dup3\n        /* \"#utility.yul\":8267:8294   */\n      tag_184\n      jump\t// in\n    tag_250:\n        /* \"#utility.yul\":8259:8265   */\n      dup2\n        /* \"#utility.yul\":8255:8295   */\n      add\n        /* \"#utility.yul\":8397:8403   */\n      dup2\n        /* \"#utility.yul\":8385:8395   */\n      dup2\n        /* \"#utility.yul\":8382:8404   */\n      lt\n        /* \"#utility.yul\":8361:8379   */\n      0xffffffffffffffff\n        /* \"#utility.yul\":8349:8359   */\n      dup3\n        /* \"#utility.yul\":8346:8380   */\n      gt\n        /* \"#utility.yul\":8343:8405   */\n      or\n        /* \"#utility.yul\":8340:8428   */\n      iszero\n      tag_251\n      jumpi\n        /* \"#utility.yul\":8408:8426   */\n      tag_252\n      tag_217\n      jump\t// in\n    tag_252:\n        /* \"#utility.yul\":8340:8428   */\n    tag_251:\n        /* \"#utility.yul\":8448:8458   */\n      dup1\n        /* \"#utility.yul\":8444:8446   */\n      0x40\n        /* \"#utility.yul\":8437:8459   */\n      mstore\n        /* \"#utility.yul\":8227:8465   */\n      pop\n        /* \"#utility.yul\":8184:8465   */\n      pop\n      pop\n      jump\t// out\n        /* \"#utility.yul\":8471:8651   */\n    tag_226:\n        /* \"#utility.yul\":8519:8596   */\n      0x4e487b7100000000000000000000000000000000000000000000000000000000\n        /* \"#utility.yul\":8516:8517   */\n      0x00\n        /* \"#utility.yul\":8509:8597   */\n      mstore\n        /* \"#utility.yul\":8616:8620   */\n      0x11\n        /* \"#utility.yul\":8613:8614   */\n      0x04\n        /* \"#utility.yul\":8606:8621   */\n      mstore\n        /* \"#utility.yul\":8640:8644   */\n      0x24\n        /* \"#utility.yul\":8637:8638   */\n      0x00\n        /* \"#utility.yul\":8630:8645   */\n      revert\n        /* \"#utility.yul\":8657:8837   */\n    tag_77:\n        /* \"#utility.yul\":8705:8782   */\n      0x4e487b7100000000000000000000000000000000000000000000000000000000\n        /* \"#utility.yul\":8702:8703   */\n      0x00\n        /* \"#utility.yul\":8695:8783   */\n      mstore\n        /* \"#utility.yul\":8802:8806   */\n      0x21\n        /* \"#utility.yul\":8799:8800   */\n      0x04\n        /* \"#utility.yul\":8792:8807   */\n      mstore\n        /* \"#utility.yul\":8826:8830   */\n      0x24\n        /* \"#utility.yul\":8823:8824   */\n      0x00\n        /* \"#utility.yul\":8816:8831   */\n      revert\n        /* \"#utility.yul\":8843:9023   */\n    tag_248:\n        /* \"#utility.yul\":8891:8968   */\n      0x4e487b7100000000000000000000000000000000000000000000000000000000\n        /* \"#utility.yul\":8888:8889   */\n      0x00\n        /* \"#utility.yul\":8881:8969   */\n      mstore\n        /* \"#utility.yul\":8988:8992   */\n      0x22\n        /* \"#utility.yul\":8985:8986   */\n      0x04\n        /* \"#utility.yul\":8978:8993   */\n      mstore\n        /* \"#utility.yul\":9012:9016   */\n      0x24\n        /* \"#utility.yul\":9009:9010   */\n      0x00\n        /* \"#utility.yul\":9002:9017   */\n      revert\n        /* \"#utility.yul\":9029:9209   */\n    tag_217:\n        /* \"#utility.yul\":9077:9154   */\n      0x4e487b7100000000000000000000000000000000000000000000000000000000\n        /* \"#utility.yul\":9074:9075   */\n      0x00\n        /* \"#utility.yul\":9067:9155   */\n      mstore\n        /* \"#utility.yul\":9174:9178   */\n      0x41\n        /* \"#utility.yul\":9171:9172   */\n      0x04\n        /* \"#utility.yul\":9164:9179   */\n      mstore\n        /* \"#utility.yul\":9198:9202   */\n      0x24\n        /* \"#utility.yul\":9195:9196   */\n      0x00\n        /* \"#utility.yul\":9188:9203   */\n      revert\n        /* \"#utility.yul\":9215:9332   */\n    tag_145:\n        /* \"#utility.yul\":9324:9325   */\n      0x00\n        /* \"#utility.yul\":9321:9322   */\n      dup1\n        /* \"#utility.yul\":9314:9326   */\n      revert\n        /* \"#utility.yul\":9338:9455   */\n    tag_134:\n        /* \"#utility.yul\":9447:9448   */\n      0x00\n        /* \"#utility.yul\":9444:9445   */\n      dup1\n        /* \"#utility.yul\":9437:9449   */\n      revert\n        /* \"#utility.yul\":9461:9578   */\n    tag_161:\n        /* \"#utility.yul\":9570:9571   */\n      0x00\n        /* \"#utility.yul\":9567:9568   */\n      dup1\n        /* \"#utility.yul\":9560:9572   */\n      revert\n        /* \"#utility.yul\":9584:9701   */\n    tag_154:\n        /* \"#utility.yul\":9693:9694   */\n      0x00\n        /* \"#utility.yul\":9690:9691   */\n      dup1\n        /* \"#utility.yul\":9683:9695   */\n      revert\n        /* \"#utility.yul\":9707:9809   */\n    tag_184:\n        /* \"#utility.yul\":9748:9754   */\n      0x00\n        /* \"#utility.yul\":9799:9801   */\n      0x1f\n        /* \"#utility.yul\":9795:9802   */\n      not\n        /* \"#utility.yul\":9790:9792   */\n      0x1f\n        /* \"#utility.yul\":9783:9788   */\n      dup4\n        /* \"#utility.yul\":9779:9793   */\n      add\n        /* \"#utility.yul\":9775:9803   */\n      and\n        /* \"#utility.yul\":9765:9803   */\n      swap1\n      pop\n        /* \"#utility.yul\":9707:9809   */\n      swap2\n      swap1\n      pop\n      jump\t// out\n        /* \"#utility.yul\":9815:9994   */\n    tag_189:\n        /* \"#utility.yul\":9955:9986   */\n      0x706c656173652073656c6563742074686520636c617373206669727374000000\n        /* \"#utility.yul\":9951:9952   */\n      0x00\n        /* \"#utility.yul\":9943:9949   */\n      dup3\n        /* \"#utility.yul\":9939:9953   */\n      add\n        /* \"#utility.yul\":9932:9987   */\n      mstore\n        /* \"#utility.yul\":9815:9994   */\n      pop\n      jump\t// out\n        /* \"#utility.yul\":10000:10118   */\n    tag_233:\n        /* \"#utility.yul\":10086:10087   */\n      0x03\n        /* \"#utility.yul\":10079:10084   */\n      dup2\n        /* \"#utility.yul\":10076:10088   */\n      lt\n        /* \"#utility.yul\":10066:10112   */\n      tag_264\n      jumpi\n        /* \"#utility.yul\":10092:10110   */\n      tag_265\n      tag_77\n      jump\t// in\n    tag_265:\n        /* \"#utility.yul\":10066:10112   */\n    tag_264:\n        /* \"#utility.yul\":10000:10118   */\n      pop\n      jump\t// out\n        /* \"#utility.yul\":10124:10246   */\n    tag_140:\n        /* \"#utility.yul\":10197:10221   */\n      tag_267\n        /* \"#utility.yul\":10215:10220   */\n      dup2\n        /* \"#utility.yul\":10197:10221   */\n      tag_170\n      jump\t// in\n    tag_267:\n        /* \"#utility.yul\":10190:10195   */\n      dup2\n        /* \"#utility.yul\":10187:10222   */\n      eq\n        /* \"#utility.yul\":10177:10240   */\n      tag_268\n      jumpi\n        /* \"#utility.yul\":10236:10237   */\n      0x00\n        /* \"#utility.yul\":10233:10234   */\n      dup1\n        /* \"#utility.yul\":10226:10238   */\n      revert\n        /* \"#utility.yul\":10177:10240   */\n    tag_268:\n        /* \"#utility.yul\":10124:10246   */\n      pop\n      jump\t// out\n        /* \"#utility.yul\":10252:10374   */\n    tag_150:\n        /* \"#utility.yul\":10325:10349   */\n      tag_270\n        /* \"#utility.yul\":10343:10348   */\n      dup2\n        /* \"#utility.yul\":10325:10349   */\n      tag_193\n      jump\t// in\n    tag_270:\n        /* \"#utility.yul\":10318:10323   */\n      dup2\n        /* \"#utility.yul\":10315:10350   */\n      eq\n        /* \"#utility.yul\":10305:10368   */\n      tag_271\n      jumpi\n        /* \"#utility.yul\":10364:10365   */\n      0x00\n        /* \"#utility.yul\":10361:10362   */\n      dup1\n        /* \"#utility.yul\":10354:10366   */\n      revert\n        /* \"#utility.yul\":10305:10368   */\n    tag_271:\n        /* \"#utility.yul\":10252:10374   */\n      pop\n      jump\t// out\n\n    auxdata: 0xa26469706673582212209370bf62832b302cd55ff5130f7d1803ef843a9b53969f617b787effc5df6d1064736f6c63430008070033\n}\n",
				"bytecode": {
					"linkReferences": {},
					"object": "60806040526000600160146101000a81548160ff0219169083151502179055506040518060400160405280600d81526020017f45636f6e6f6d7920436c61737300000000000000000000000000000000000000815250600390805190602001906200006c92919062000149565b5060016005556001600760006101000a81548160ff021916908360028111156200009b576200009a6200022f565b5b0217905550348015620000ad57600080fd5b5073dd870fa1b7c4700f2bd7f44238821c26f73921486000806101000a81548173ffffffffffffffffffffffffffffffffffffffff021916908373ffffffffffffffffffffffffffffffffffffffff16021790555033600160006101000a81548173ffffffffffffffffffffffffffffffffffffffff021916908373ffffffffffffffffffffffffffffffffffffffff1602179055506200028d565b8280546200015790620001f9565b90600052602060002090601f0160209004810192826200017b5760008555620001c7565b82601f106200019657805160ff1916838001178555620001c7565b82800160010185558215620001c7579182015b82811115620001c6578251825591602001919060010190620001a9565b5b509050620001d69190620001da565b5090565b5b80821115620001f5576000816000905550600101620001db565b5090565b600060028204905060018216806200021257607f821691505b602082108114156200022957620002286200025e565b5b50919050565b7f4e487b7100000000000000000000000000000000000000000000000000000000600052602160045260246000fd5b7f4e487b7100000000000000000000000000000000000000000000000000000000600052602260045260246000fd5b611092806200029d6000396000f3fe6080604052600436106100915760003560e01c80635018350711610059578063501835071461014a5780637a1736d1146101615780638da5cb5b14610178578063b24fa0e4146101a3578063b90d3d0c146101ba57610091565b806317ae4589146100965780631aa35610146100bf57806342f6487a146100ea5780634f8632ba146100f45780634fb2e0be1461011f575b600080fd5b3480156100a257600080fd5b506100bd60048036038101906100b89190610b51565b6101fb565b005b3480156100cb57600080fd5b506100d46103af565b6040516100e19190610c80565b60405180910390f35b6100f26103c2565b005b34801561010057600080fd5b50610109610524565b6040516101169190610c65565b60405180910390f35b34801561012b57600080fd5b5061013461054a565b6040516101419190610d23565b60405180910390f35b34801561015657600080fd5b5061015f610550565b005b34801561016d57600080fd5b50610176610632565b005b34801561018457600080fd5b5061018d610714565b60405161019a9190610c65565b60405180910390f35b3480156101af57600080fd5b506101b8610738565b005b3480156101c657600080fd5b506101e160048036038101906101dc9190610b24565b610819565b6040516101f2959493929190610c9b565b60405180910390f35b600160149054906101000a900460ff1661024a576040517f08c379a000000000000000000000000000000000000000000000000000000000815260040161024190610d03565b60405180910390fd5b6040518060a001604052808481526020018381526020018281526020016003805461027490610ead565b80601f01602080910402602001604051908101604052809291908181526020018280546102a090610ead565b80156102ed5780601f106102c2576101008083540402835291602001916102ed565b820191906000526020600020905b8154815290600101906020018083116102d057829003601f168201915b50505050508152602001600454815250600660003373ffffffffffffffffffffffffffffffffffffffff1673ffffffffffffffffffffffffffffffffffffffff16815260200190815260200160002060008201518160000190805190602001906103589291906109e7565b5060208201518160010190805190602001906103759291906109e7565b5060408201518160020155606082015181600301908051906020019061039c9291906109e7565b5060808201518160040155905050505050565b600760009054906101000a900460ff1681565b600660003373ffffffffffffffffffffffffffffffffffffffff1673ffffffffffffffffffffffffffffffffffffffff1681526020019081526020016000206004015434101561041157600080fd5b60066000600160009054906101000a900473ffffffffffffffffffffffffffffffffffffffff1673ffffffffffffffffffffffffffffffffffffffff1673ffffffffffffffffffffffffffffffffffffffff16815260200190815260200160002060040154600160009054906101000a900473ffffffffffffffffffffffffffffffffffffffff1673ffffffffffffffffffffffffffffffffffffffff163110156104bb57600080fd5b60008054906101000a900473ffffffffffffffffffffffffffffffffffffffff1673ffffffffffffffffffffffffffffffffffffffff166108fc349081150290604051600060405180830381858888f19350505050158015610521573d6000803e3d6000fd5b50565b600160009054906101000a900473ffffffffffffffffffffffffffffffffffffffff1681565b60055481565b6000600760006101000a81548160ff0219169083600281111561057657610575610f3f565b5b0217905550600760009054906101000a900460ff16600281111561059d5761059c610f3f565b5b60028190555060006002541415610616576040518060400160405280600b81526020017f466972737420436c617373000000000000000000000000000000000000000000815250600390805190602001906105f99291906109e7565b50662386f26fc1000060055461060f9190610db0565b6004819055505b60018060146101000a81548160ff021916908315150217905550565b6001600760006101000a81548160ff0219169083600281111561065857610657610f3f565b5b0217905550600760009054906101000a900460ff16600281111561067f5761067e610f3f565b5b600281905550600160025414156106f8576040518060400160405280600d81526020017f45636f6e6f6d7920436c61737300000000000000000000000000000000000000815250600390805190602001906106db9291906109e7565b506611c37937e080006005546106f19190610db0565b6004819055505b60018060146101000a81548160ff021916908315150217905550565b60008054906101000a900473ffffffffffffffffffffffffffffffffffffffff1681565b6002600760006101000a81548160ff0219169083600281111561075e5761075d610f3f565b5b0217905550600760009054906101000a900460ff16600281111561078557610784610f3f565b5b6002819055506002805414156107fd576040518060400160405280600d81526020017f4275736e69737320436c61737300000000000000000000000000000000000000815250600390805190602001906107e09291906109e7565b506618de76816d80006005546107f69190610db0565b6004819055505b60018060146101000a81548160ff021916908315150217905550565b600660205280600052604060002060009150905080600001805461083c90610ead565b80601f016020809104026020016040519081016040528092919081815260200182805461086890610ead565b80156108b55780601f1061088a576101008083540402835291602001916108b5565b820191906000526020600020905b81548152906001019060200180831161089857829003601f168201915b5050505050908060010180546108ca90610ead565b80601f01602080910402602001604051908101604052809291908181526020018280546108f690610ead565b80156109435780601f1061091857610100808354040283529160200191610943565b820191906000526020600020905b81548152906001019060200180831161092657829003601f168201915b50505050509080600201549080600301805461095e90610ead565b80601f016020809104026020016040519081016040528092919081815260200182805461098a90610ead565b80156109d75780601f106109ac576101008083540402835291602001916109d7565b820191906000526020600020905b8154815290600101906020018083116109ba57829003601f168201915b5050505050908060040154905085565b8280546109f390610ead565b90600052602060002090601f016020900481019282610a155760008555610a5c565b82601f10610a2e57805160ff1916838001178555610a5c565b82800160010185558215610a5c579182015b82811115610a5b578251825591602001919060010190610a40565b5b509050610a699190610a6d565b5090565b5b80821115610a86576000816000905550600101610a6e565b5090565b6000610a9d610a9884610d63565b610d3e565b905082815260208101848484011115610ab957610ab8610fd1565b5b610ac4848285610e6b565b509392505050565b600081359050610adb8161102e565b92915050565b600082601f830112610af657610af5610fcc565b5b8135610b06848260208601610a8a565b91505092915050565b600081359050610b1e81611045565b92915050565b600060208284031215610b3a57610b39610fdb565b5b6000610b4884828501610acc565b91505092915050565b600080600060608486031215610b6a57610b69610fdb565b5b600084013567ffffffffffffffff811115610b8857610b87610fd6565b5b610b9486828701610ae1565b935050602084013567ffffffffffffffff811115610bb557610bb4610fd6565b5b610bc186828701610ae1565b9250506040610bd286828701610b0f565b9150509250925092565b610be581610e0a565b82525050565b610bf481610e59565b82525050565b6000610c0582610d94565b610c0f8185610d9f565b9350610c1f818560208601610e7a565b610c2881610fe0565b840191505092915050565b6000610c40601d83610d9f565b9150610c4b82610ff1565b602082019050919050565b610c5f81610e4f565b82525050565b6000602082019050610c7a6000830184610bdc565b92915050565b6000602082019050610c956000830184610beb565b92915050565b600060a0820190508181036000830152610cb58188610bfa565b90508181036020830152610cc98187610bfa565b9050610cd86040830186610c56565b8181036060830152610cea8185610bfa565b9050610cf96080830184610c56565b9695505050505050565b60006020820190508181036000830152610d1c81610c33565b9050919050565b6000602082019050610d386000830184610c56565b92915050565b6000610d48610d59565b9050610d548282610edf565b919050565b6000604051905090565b600067ffffffffffffffff821115610d7e57610d7d610f9d565b5b610d8782610fe0565b9050602081019050919050565b600081519050919050565b600082825260208201905092915050565b6000610dbb82610e4f565b9150610dc683610e4f565b9250817fffffffffffffffffffffffffffffffffffffffffffffffffffffffffffffffff0483118215151615610dff57610dfe610f10565b5b828202905092915050565b6000610e1582610e2f565b9050919050565b6000819050610e2a8261101a565b919050565b600073ffffffffffffffffffffffffffffffffffffffff82169050919050565b6000819050919050565b6000610e6482610e1c565b9050919050565b82818337600083830152505050565b60005b83811015610e98578082015181840152602081019050610e7d565b83811115610ea7576000848401525b50505050565b60006002820490506001821680610ec557607f821691505b60208210811415610ed957610ed8610f6e565b5b50919050565b610ee882610fe0565b810181811067ffffffffffffffff82111715610f0757610f06610f9d565b5b80604052505050565b7f4e487b7100000000000000000000000000000000000000000000000000000000600052601160045260246000fd5b7f4e487b7100000000000000000000000000000000000000000000000000000000600052602160045260246000fd5b7f4e487b7100000000000000000000000000000000000000000000000000000000600052602260045260246000fd5b7f4e487b7100000000000000000000000000000000000000000000000000000000600052604160045260246000fd5b600080fd5b600080fd5b600080fd5b600080fd5b6000601f19601f8301169050919050565b7f706c656173652073656c6563742074686520636c617373206669727374000000600082015250565b6003811061102b5761102a610f3f565b5b50565b61103781610e0a565b811461104257600080fd5b50565b61104e81610e4f565b811461105957600080fd5b5056fea26469706673582212209370bf62832b302cd55ff5130f7d1803ef843a9b53969f617b787effc5df6d1064736f6c63430008070033",
					"opcodes": "PUSH1 0x80 PUSH1 0x40 MSTORE PUSH1 0x0 PUSH1 0x1 PUSH1 0x14 PUSH2 0x100 EXP DUP2 SLOAD DUP2 PUSH1 0xFF MUL NOT AND SWAP1 DUP4 ISZERO ISZERO MUL OR SWAP1 SSTORE POP PUSH1 0x40 MLOAD DUP1 PUSH1 0x40 ADD PUSH1 0x40 MSTORE DUP1 PUSH1 0xD DUP2 MSTORE PUSH1 0x20 ADD PUSH32 0x45636F6E6F6D7920436C61737300000000000000000000000000000000000000 DUP2 MSTORE POP PUSH1 0x3 SWAP1 DUP1 MLOAD SWAP1 PUSH1 0x20 ADD SWAP1 PUSH3 0x6C SWAP3 SWAP2 SWAP1 PUSH3 0x149 JUMP JUMPDEST POP PUSH1 0x1 PUSH1 0x5 SSTORE PUSH1 0x1 PUSH1 0x7 PUSH1 0x0 PUSH2 0x100 EXP DUP2 SLOAD DUP2 PUSH1 0xFF MUL NOT AND SWAP1 DUP4 PUSH1 0x2 DUP2 GT ISZERO PUSH3 0x9B JUMPI PUSH3 0x9A PUSH3 0x22F JUMP JUMPDEST JUMPDEST MUL OR SWAP1 SSTORE POP CALLVALUE DUP1 ISZERO PUSH3 0xAD JUMPI PUSH1 0x0 DUP1 REVERT JUMPDEST POP PUSH20 0xDD870FA1B7C4700F2BD7F44238821C26F7392148 PUSH1 0x0 DUP1 PUSH2 0x100 EXP DUP2 SLOAD DUP2 PUSH20 0xFFFFFFFFFFFFFFFFFFFFFFFFFFFFFFFFFFFFFFFF MUL NOT AND SWAP1 DUP4 PUSH20 0xFFFFFFFFFFFFFFFFFFFFFFFFFFFFFFFFFFFFFFFF AND MUL OR SWAP1 SSTORE POP CALLER PUSH1 0x1 PUSH1 0x0 PUSH2 0x100 EXP DUP2 SLOAD DUP2 PUSH20 0xFFFFFFFFFFFFFFFFFFFFFFFFFFFFFFFFFFFFFFFF MUL NOT AND SWAP1 DUP4 PUSH20 0xFFFFFFFFFFFFFFFFFFFFFFFFFFFFFFFFFFFFFFFF AND MUL OR SWAP1 SSTORE POP PUSH3 0x28D JUMP JUMPDEST DUP3 DUP1 SLOAD PUSH3 0x157 SWAP1 PUSH3 0x1F9 JUMP JUMPDEST SWAP1 PUSH1 0x0 MSTORE PUSH1 0x20 PUSH1 0x0 KECCAK256 SWAP1 PUSH1 0x1F ADD PUSH1 0x20 SWAP1 DIV DUP2 ADD SWAP3 DUP3 PUSH3 0x17B JUMPI PUSH1 0x0 DUP6 SSTORE PUSH3 0x1C7 JUMP JUMPDEST DUP3 PUSH1 0x1F LT PUSH3 0x196 JUMPI DUP1 MLOAD PUSH1 0xFF NOT AND DUP4 DUP1 ADD OR DUP6 SSTORE PUSH3 0x1C7 JUMP JUMPDEST DUP3 DUP1 ADD PUSH1 0x1 ADD DUP6 SSTORE DUP3 ISZERO PUSH3 0x1C7 JUMPI SWAP2 DUP3 ADD JUMPDEST DUP3 DUP2 GT ISZERO PUSH3 0x1C6 JUMPI DUP3 MLOAD DUP3 SSTORE SWAP2 PUSH1 0x20 ADD SWAP2 SWAP1 PUSH1 0x1 ADD SWAP1 PUSH3 0x1A9 JUMP JUMPDEST JUMPDEST POP SWAP1 POP PUSH3 0x1D6 SWAP2 SWAP1 PUSH3 0x1DA JUMP JUMPDEST POP SWAP1 JUMP JUMPDEST JUMPDEST DUP1 DUP3 GT ISZERO PUSH3 0x1F5 JUMPI PUSH1 0x0 DUP2 PUSH1 0x0 SWAP1 SSTORE POP PUSH1 0x1 ADD PUSH3 0x1DB JUMP JUMPDEST POP SWAP1 JUMP JUMPDEST PUSH1 0x0 PUSH1 0x2 DUP3 DIV SWAP1 POP PUSH1 0x1 DUP3 AND DUP1 PUSH3 0x212 JUMPI PUSH1 0x7F DUP3 AND SWAP2 POP JUMPDEST PUSH1 0x20 DUP3 LT DUP2 EQ ISZERO PUSH3 0x229 JUMPI PUSH3 0x228 PUSH3 0x25E JUMP JUMPDEST JUMPDEST POP SWAP2 SWAP1 POP JUMP JUMPDEST PUSH32 0x4E487B7100000000000000000000000000000000000000000000000000000000 PUSH1 0x0 MSTORE PUSH1 0x21 PUSH1 0x4 MSTORE PUSH1 0x24 PUSH1 0x0 REVERT JUMPDEST PUSH32 0x4E487B7100000000000000000000000000000000000000000000000000000000 PUSH1 0x0 MSTORE PUSH1 0x22 PUSH1 0x4 MSTORE PUSH1 0x24 PUSH1 0x0 REVERT JUMPDEST PUSH2 0x1092 DUP1 PUSH3 0x29D PUSH1 0x0 CODECOPY PUSH1 0x0 RETURN INVALID PUSH1 0x80 PUSH1 0x40 MSTORE PUSH1 0x4 CALLDATASIZE LT PUSH2 0x91 JUMPI PUSH1 0x0 CALLDATALOAD PUSH1 0xE0 SHR DUP1 PUSH4 0x50183507 GT PUSH2 0x59 JUMPI DUP1 PUSH4 0x50183507 EQ PUSH2 0x14A JUMPI DUP1 PUSH4 0x7A1736D1 EQ PUSH2 0x161 JUMPI DUP1 PUSH4 0x8DA5CB5B EQ PUSH2 0x178 JUMPI DUP1 PUSH4 0xB24FA0E4 EQ PUSH2 0x1A3 JUMPI DUP1 PUSH4 0xB90D3D0C EQ PUSH2 0x1BA JUMPI PUSH2 0x91 JUMP JUMPDEST DUP1 PUSH4 0x17AE4589 EQ PUSH2 0x96 JUMPI DUP1 PUSH4 0x1AA35610 EQ PUSH2 0xBF JUMPI DUP1 PUSH4 0x42F6487A EQ PUSH2 0xEA JUMPI DUP1 PUSH4 0x4F8632BA EQ PUSH2 0xF4 JUMPI DUP1 PUSH4 0x4FB2E0BE EQ PUSH2 0x11F JUMPI JUMPDEST PUSH1 0x0 DUP1 REVERT JUMPDEST CALLVALUE DUP1 ISZERO PUSH2 0xA2 JUMPI PUSH1 0x0 DUP1 REVERT JUMPDEST POP PUSH2 0xBD PUSH1 0x4 DUP1 CALLDATASIZE SUB DUP2 ADD SWAP1 PUSH2 0xB8 SWAP2 SWAP1 PUSH2 0xB51 JUMP JUMPDEST PUSH2 0x1FB JUMP JUMPDEST STOP JUMPDEST CALLVALUE DUP1 ISZERO PUSH2 0xCB JUMPI PUSH1 0x0 DUP1 REVERT JUMPDEST POP PUSH2 0xD4 PUSH2 0x3AF JUMP JUMPDEST PUSH1 0x40 MLOAD PUSH2 0xE1 SWAP2 SWAP1 PUSH2 0xC80 JUMP JUMPDEST PUSH1 0x40 MLOAD DUP1 SWAP2 SUB SWAP1 RETURN JUMPDEST PUSH2 0xF2 PUSH2 0x3C2 JUMP JUMPDEST STOP JUMPDEST CALLVALUE DUP1 ISZERO PUSH2 0x100 JUMPI PUSH1 0x0 DUP1 REVERT JUMPDEST POP PUSH2 0x109 PUSH2 0x524 JUMP JUMPDEST PUSH1 0x40 MLOAD PUSH2 0x116 SWAP2 SWAP1 PUSH2 0xC65 JUMP JUMPDEST PUSH1 0x40 MLOAD DUP1 SWAP2 SUB SWAP1 RETURN JUMPDEST CALLVALUE DUP1 ISZERO PUSH2 0x12B JUMPI PUSH1 0x0 DUP1 REVERT JUMPDEST POP PUSH2 0x134 PUSH2 0x54A JUMP JUMPDEST PUSH1 0x40 MLOAD PUSH2 0x141 SWAP2 SWAP1 PUSH2 0xD23 JUMP JUMPDEST PUSH1 0x40 MLOAD DUP1 SWAP2 SUB SWAP1 RETURN JUMPDEST CALLVALUE DUP1 ISZERO PUSH2 0x156 JUMPI PUSH1 0x0 DUP1 REVERT JUMPDEST POP PUSH2 0x15F PUSH2 0x550 JUMP JUMPDEST STOP JUMPDEST CALLVALUE DUP1 ISZERO PUSH2 0x16D JUMPI PUSH1 0x0 DUP1 REVERT JUMPDEST POP PUSH2 0x176 PUSH2 0x632 JUMP JUMPDEST STOP JUMPDEST CALLVALUE DUP1 ISZERO PUSH2 0x184 JUMPI PUSH1 0x0 DUP1 REVERT JUMPDEST POP PUSH2 0x18D PUSH2 0x714 JUMP JUMPDEST PUSH1 0x40 MLOAD PUSH2 0x19A SWAP2 SWAP1 PUSH2 0xC65 JUMP JUMPDEST PUSH1 0x40 MLOAD DUP1 SWAP2 SUB SWAP1 RETURN JUMPDEST CALLVALUE DUP1 ISZERO PUSH2 0x1AF JUMPI PUSH1 0x0 DUP1 REVERT JUMPDEST POP PUSH2 0x1B8 PUSH2 0x738 JUMP JUMPDEST STOP JUMPDEST CALLVALUE DUP1 ISZERO PUSH2 0x1C6 JUMPI PUSH1 0x0 DUP1 REVERT JUMPDEST POP PUSH2 0x1E1 PUSH1 0x4 DUP1 CALLDATASIZE SUB DUP2 ADD SWAP1 PUSH2 0x1DC SWAP2 SWAP1 PUSH2 0xB24 JUMP JUMPDEST PUSH2 0x819 JUMP JUMPDEST PUSH1 0x40 MLOAD PUSH2 0x1F2 SWAP6 SWAP5 SWAP4 SWAP3 SWAP2 SWAP1 PUSH2 0xC9B JUMP JUMPDEST PUSH1 0x40 MLOAD DUP1 SWAP2 SUB SWAP1 RETURN JUMPDEST PUSH1 0x1 PUSH1 0x14 SWAP1 SLOAD SWAP1 PUSH2 0x100 EXP SWAP1 DIV PUSH1 0xFF AND PUSH2 0x24A JUMPI PUSH1 0x40 MLOAD PUSH32 0x8C379A000000000000000000000000000000000000000000000000000000000 DUP2 MSTORE PUSH1 0x4 ADD PUSH2 0x241 SWAP1 PUSH2 0xD03 JUMP JUMPDEST PUSH1 0x40 MLOAD DUP1 SWAP2 SUB SWAP1 REVERT JUMPDEST PUSH1 0x40 MLOAD DUP1 PUSH1 0xA0 ADD PUSH1 0x40 MSTORE DUP1 DUP5 DUP2 MSTORE PUSH1 0x20 ADD DUP4 DUP2 MSTORE PUSH1 0x20 ADD DUP3 DUP2 MSTORE PUSH1 0x20 ADD PUSH1 0x3 DUP1 SLOAD PUSH2 0x274 SWAP1 PUSH2 0xEAD JUMP JUMPDEST DUP1 PUSH1 0x1F ADD PUSH1 0x20 DUP1 SWAP2 DIV MUL PUSH1 0x20 ADD PUSH1 0x40 MLOAD SWAP1 DUP2 ADD PUSH1 0x40 MSTORE DUP1 SWAP3 SWAP2 SWAP1 DUP2 DUP2 MSTORE PUSH1 0x20 ADD DUP3 DUP1 SLOAD PUSH2 0x2A0 SWAP1 PUSH2 0xEAD JUMP JUMPDEST DUP1 ISZERO PUSH2 0x2ED JUMPI DUP1 PUSH1 0x1F LT PUSH2 0x2C2 JUMPI PUSH2 0x100 DUP1 DUP4 SLOAD DIV MUL DUP4 MSTORE SWAP2 PUSH1 0x20 ADD SWAP2 PUSH2 0x2ED JUMP JUMPDEST DUP3 ADD SWAP2 SWAP1 PUSH1 0x0 MSTORE PUSH1 0x20 PUSH1 0x0 KECCAK256 SWAP1 JUMPDEST DUP2 SLOAD DUP2 MSTORE SWAP1 PUSH1 0x1 ADD SWAP1 PUSH1 0x20 ADD DUP1 DUP4 GT PUSH2 0x2D0 JUMPI DUP3 SWAP1 SUB PUSH1 0x1F AND DUP3 ADD SWAP2 JUMPDEST POP POP POP POP POP DUP2 MSTORE PUSH1 0x20 ADD PUSH1 0x4 SLOAD DUP2 MSTORE POP PUSH1 0x6 PUSH1 0x0 CALLER PUSH20 0xFFFFFFFFFFFFFFFFFFFFFFFFFFFFFFFFFFFFFFFF AND PUSH20 0xFFFFFFFFFFFFFFFFFFFFFFFFFFFFFFFFFFFFFFFF AND DUP2 MSTORE PUSH1 0x20 ADD SWAP1 DUP2 MSTORE PUSH1 0x20 ADD PUSH1 0x0 KECCAK256 PUSH1 0x0 DUP3 ADD MLOAD DUP2 PUSH1 0x0 ADD SWAP1 DUP1 MLOAD SWAP1 PUSH1 0x20 ADD SWAP1 PUSH2 0x358 SWAP3 SWAP2 SWAP1 PUSH2 0x9E7 JUMP JUMPDEST POP PUSH1 0x20 DUP3 ADD MLOAD DUP2 PUSH1 0x1 ADD SWAP1 DUP1 MLOAD SWAP1 PUSH1 0x20 ADD SWAP1 PUSH2 0x375 SWAP3 SWAP2 SWAP1 PUSH2 0x9E7 JUMP JUMPDEST POP PUSH1 0x40 DUP3 ADD MLOAD DUP2 PUSH1 0x2 ADD SSTORE PUSH1 0x60 DUP3 ADD MLOAD DUP2 PUSH1 0x3 ADD SWAP1 DUP1 MLOAD SWAP1 PUSH1 0x20 ADD SWAP1 PUSH2 0x39C SWAP3 SWAP2 SWAP1 PUSH2 0x9E7 JUMP JUMPDEST POP PUSH1 0x80 DUP3 ADD MLOAD DUP2 PUSH1 0x4 ADD SSTORE SWAP1 POP POP POP POP POP JUMP JUMPDEST PUSH1 0x7 PUSH1 0x0 SWAP1 SLOAD SWAP1 PUSH2 0x100 EXP SWAP1 DIV PUSH1 0xFF AND DUP2 JUMP JUMPDEST PUSH1 0x6 PUSH1 0x0 CALLER PUSH20 0xFFFFFFFFFFFFFFFFFFFFFFFFFFFFFFFFFFFFFFFF AND PUSH20 0xFFFFFFFFFFFFFFFFFFFFFFFFFFFFFFFFFFFFFFFF AND DUP2 MSTORE PUSH1 0x20 ADD SWAP1 DUP2 MSTORE PUSH1 0x20 ADD PUSH1 0x0 KECCAK256 PUSH1 0x4 ADD SLOAD CALLVALUE LT ISZERO PUSH2 0x411 JUMPI PUSH1 0x0 DUP1 REVERT JUMPDEST PUSH1 0x6 PUSH1 0x0 PUSH1 0x1 PUSH1 0x0 SWAP1 SLOAD SWAP1 PUSH2 0x100 EXP SWAP1 DIV PUSH20 0xFFFFFFFFFFFFFFFFFFFFFFFFFFFFFFFFFFFFFFFF AND PUSH20 0xFFFFFFFFFFFFFFFFFFFFFFFFFFFFFFFFFFFFFFFF AND PUSH20 0xFFFFFFFFFFFFFFFFFFFFFFFFFFFFFFFFFFFFFFFF AND DUP2 MSTORE PUSH1 0x20 ADD SWAP1 DUP2 MSTORE PUSH1 0x20 ADD PUSH1 0x0 KECCAK256 PUSH1 0x4 ADD SLOAD PUSH1 0x1 PUSH1 0x0 SWAP1 SLOAD SWAP1 PUSH2 0x100 EXP SWAP1 DIV PUSH20 0xFFFFFFFFFFFFFFFFFFFFFFFFFFFFFFFFFFFFFFFF AND PUSH20 0xFFFFFFFFFFFFFFFFFFFFFFFFFFFFFFFFFFFFFFFF AND BALANCE LT ISZERO PUSH2 0x4BB JUMPI PUSH1 0x0 DUP1 REVERT JUMPDEST PUSH1 0x0 DUP1 SLOAD SWAP1 PUSH2 0x100 EXP SWAP1 DIV PUSH20 0xFFFFFFFFFFFFFFFFFFFFFFFFFFFFFFFFFFFFFFFF AND PUSH20 0xFFFFFFFFFFFFFFFFFFFFFFFFFFFFFFFFFFFFFFFF AND PUSH2 0x8FC CALLVALUE SWAP1 DUP2 ISZERO MUL SWAP1 PUSH1 0x40 MLOAD PUSH1 0x0 PUSH1 0x40 MLOAD DUP1 DUP4 SUB DUP2 DUP6 DUP9 DUP9 CALL SWAP4 POP POP POP POP ISZERO DUP1 ISZERO PUSH2 0x521 JUMPI RETURNDATASIZE PUSH1 0x0 DUP1 RETURNDATACOPY RETURNDATASIZE PUSH1 0x0 REVERT JUMPDEST POP JUMP JUMPDEST PUSH1 0x1 PUSH1 0x0 SWAP1 SLOAD SWAP1 PUSH2 0x100 EXP SWAP1 DIV PUSH20 0xFFFFFFFFFFFFFFFFFFFFFFFFFFFFFFFFFFFFFFFF AND DUP2 JUMP JUMPDEST PUSH1 0x5 SLOAD DUP2 JUMP JUMPDEST PUSH1 0x0 PUSH1 0x7 PUSH1 0x0 PUSH2 0x100 EXP DUP2 SLOAD DUP2 PUSH1 0xFF MUL NOT AND SWAP1 DUP4 PUSH1 0x2 DUP2 GT ISZERO PUSH2 0x576 JUMPI PUSH2 0x575 PUSH2 0xF3F JUMP JUMPDEST JUMPDEST MUL OR SWAP1 SSTORE POP PUSH1 0x7 PUSH1 0x0 SWAP1 SLOAD SWAP1 PUSH2 0x100 EXP SWAP1 DIV PUSH1 0xFF AND PUSH1 0x2 DUP2 GT ISZERO PUSH2 0x59D JUMPI PUSH2 0x59C PUSH2 0xF3F JUMP JUMPDEST JUMPDEST PUSH1 0x2 DUP2 SWAP1 SSTORE POP PUSH1 0x0 PUSH1 0x2 SLOAD EQ ISZERO PUSH2 0x616 JUMPI PUSH1 0x40 MLOAD DUP1 PUSH1 0x40 ADD PUSH1 0x40 MSTORE DUP1 PUSH1 0xB DUP2 MSTORE PUSH1 0x20 ADD PUSH32 0x466972737420436C617373000000000000000000000000000000000000000000 DUP2 MSTORE POP PUSH1 0x3 SWAP1 DUP1 MLOAD SWAP1 PUSH1 0x20 ADD SWAP1 PUSH2 0x5F9 SWAP3 SWAP2 SWAP1 PUSH2 0x9E7 JUMP JUMPDEST POP PUSH7 0x2386F26FC10000 PUSH1 0x5 SLOAD PUSH2 0x60F SWAP2 SWAP1 PUSH2 0xDB0 JUMP JUMPDEST PUSH1 0x4 DUP2 SWAP1 SSTORE POP JUMPDEST PUSH1 0x1 DUP1 PUSH1 0x14 PUSH2 0x100 EXP DUP2 SLOAD DUP2 PUSH1 0xFF MUL NOT AND SWAP1 DUP4 ISZERO ISZERO MUL OR SWAP1 SSTORE POP JUMP JUMPDEST PUSH1 0x1 PUSH1 0x7 PUSH1 0x0 PUSH2 0x100 EXP DUP2 SLOAD DUP2 PUSH1 0xFF MUL NOT AND SWAP1 DUP4 PUSH1 0x2 DUP2 GT ISZERO PUSH2 0x658 JUMPI PUSH2 0x657 PUSH2 0xF3F JUMP JUMPDEST JUMPDEST MUL OR SWAP1 SSTORE POP PUSH1 0x7 PUSH1 0x0 SWAP1 SLOAD SWAP1 PUSH2 0x100 EXP SWAP1 DIV PUSH1 0xFF AND PUSH1 0x2 DUP2 GT ISZERO PUSH2 0x67F JUMPI PUSH2 0x67E PUSH2 0xF3F JUMP JUMPDEST JUMPDEST PUSH1 0x2 DUP2 SWAP1 SSTORE POP PUSH1 0x1 PUSH1 0x2 SLOAD EQ ISZERO PUSH2 0x6F8 JUMPI PUSH1 0x40 MLOAD DUP1 PUSH1 0x40 ADD PUSH1 0x40 MSTORE DUP1 PUSH1 0xD DUP2 MSTORE PUSH1 0x20 ADD PUSH32 0x45636F6E6F6D7920436C61737300000000000000000000000000000000000000 DUP2 MSTORE POP PUSH1 0x3 SWAP1 DUP1 MLOAD SWAP1 PUSH1 0x20 ADD SWAP1 PUSH2 0x6DB SWAP3 SWAP2 SWAP1 PUSH2 0x9E7 JUMP JUMPDEST POP PUSH7 0x11C37937E08000 PUSH1 0x5 SLOAD PUSH2 0x6F1 SWAP2 SWAP1 PUSH2 0xDB0 JUMP JUMPDEST PUSH1 0x4 DUP2 SWAP1 SSTORE POP JUMPDEST PUSH1 0x1 DUP1 PUSH1 0x14 PUSH2 0x100 EXP DUP2 SLOAD DUP2 PUSH1 0xFF MUL NOT AND SWAP1 DUP4 ISZERO ISZERO MUL OR SWAP1 SSTORE POP JUMP JUMPDEST PUSH1 0x0 DUP1 SLOAD SWAP1 PUSH2 0x100 EXP SWAP1 DIV PUSH20 0xFFFFFFFFFFFFFFFFFFFFFFFFFFFFFFFFFFFFFFFF AND DUP2 JUMP JUMPDEST PUSH1 0x2 PUSH1 0x7 PUSH1 0x0 PUSH2 0x100 EXP DUP2 SLOAD DUP2 PUSH1 0xFF MUL NOT AND SWAP1 DUP4 PUSH1 0x2 DUP2 GT ISZERO PUSH2 0x75E JUMPI PUSH2 0x75D PUSH2 0xF3F JUMP JUMPDEST JUMPDEST MUL OR SWAP1 SSTORE POP PUSH1 0x7 PUSH1 0x0 SWAP1 SLOAD SWAP1 PUSH2 0x100 EXP SWAP1 DIV PUSH1 0xFF AND PUSH1 0x2 DUP2 GT ISZERO PUSH2 0x785 JUMPI PUSH2 0x784 PUSH2 0xF3F JUMP JUMPDEST JUMPDEST PUSH1 0x2 DUP2 SWAP1 SSTORE POP PUSH1 0x2 DUP1 SLOAD EQ ISZERO PUSH2 0x7FD JUMPI PUSH1 0x40 MLOAD DUP1 PUSH1 0x40 ADD PUSH1 0x40 MSTORE DUP1 PUSH1 0xD DUP2 MSTORE PUSH1 0x20 ADD PUSH32 0x4275736E69737320436C61737300000000000000000000000000000000000000 DUP2 MSTORE POP PUSH1 0x3 SWAP1 DUP1 MLOAD SWAP1 PUSH1 0x20 ADD SWAP1 PUSH2 0x7E0 SWAP3 SWAP2 SWAP1 PUSH2 0x9E7 JUMP JUMPDEST POP PUSH7 0x18DE76816D8000 PUSH1 0x5 SLOAD PUSH2 0x7F6 SWAP2 SWAP1 PUSH2 0xDB0 JUMP JUMPDEST PUSH1 0x4 DUP2 SWAP1 SSTORE POP JUMPDEST PUSH1 0x1 DUP1 PUSH1 0x14 PUSH2 0x100 EXP DUP2 SLOAD DUP2 PUSH1 0xFF MUL NOT AND SWAP1 DUP4 ISZERO ISZERO MUL OR SWAP1 SSTORE POP JUMP JUMPDEST PUSH1 0x6 PUSH1 0x20 MSTORE DUP1 PUSH1 0x0 MSTORE PUSH1 0x40 PUSH1 0x0 KECCAK256 PUSH1 0x0 SWAP2 POP SWAP1 POP DUP1 PUSH1 0x0 ADD DUP1 SLOAD PUSH2 0x83C SWAP1 PUSH2 0xEAD JUMP JUMPDEST DUP1 PUSH1 0x1F ADD PUSH1 0x20 DUP1 SWAP2 DIV MUL PUSH1 0x20 ADD PUSH1 0x40 MLOAD SWAP1 DUP2 ADD PUSH1 0x40 MSTORE DUP1 SWAP3 SWAP2 SWAP1 DUP2 DUP2 MSTORE PUSH1 0x20 ADD DUP3 DUP1 SLOAD PUSH2 0x868 SWAP1 PUSH2 0xEAD JUMP JUMPDEST DUP1 ISZERO PUSH2 0x8B5 JUMPI DUP1 PUSH1 0x1F LT PUSH2 0x88A JUMPI PUSH2 0x100 DUP1 DUP4 SLOAD DIV MUL DUP4 MSTORE SWAP2 PUSH1 0x20 ADD SWAP2 PUSH2 0x8B5 JUMP JUMPDEST DUP3 ADD SWAP2 SWAP1 PUSH1 0x0 MSTORE PUSH1 0x20 PUSH1 0x0 KECCAK256 SWAP1 JUMPDEST DUP2 SLOAD DUP2 MSTORE SWAP1 PUSH1 0x1 ADD SWAP1 PUSH1 0x20 ADD DUP1 DUP4 GT PUSH2 0x898 JUMPI DUP3 SWAP1 SUB PUSH1 0x1F AND DUP3 ADD SWAP2 JUMPDEST POP POP POP POP POP SWAP1 DUP1 PUSH1 0x1 ADD DUP1 SLOAD PUSH2 0x8CA SWAP1 PUSH2 0xEAD JUMP JUMPDEST DUP1 PUSH1 0x1F ADD PUSH1 0x20 DUP1 SWAP2 DIV MUL PUSH1 0x20 ADD PUSH1 0x40 MLOAD SWAP1 DUP2 ADD PUSH1 0x40 MSTORE DUP1 SWAP3 SWAP2 SWAP1 DUP2 DUP2 MSTORE PUSH1 0x20 ADD DUP3 DUP1 SLOAD PUSH2 0x8F6 SWAP1 PUSH2 0xEAD JUMP JUMPDEST DUP1 ISZERO PUSH2 0x943 JUMPI DUP1 PUSH1 0x1F LT PUSH2 0x918 JUMPI PUSH2 0x100 DUP1 DUP4 SLOAD DIV MUL DUP4 MSTORE SWAP2 PUSH1 0x20 ADD SWAP2 PUSH2 0x943 JUMP JUMPDEST DUP3 ADD SWAP2 SWAP1 PUSH1 0x0 MSTORE PUSH1 0x20 PUSH1 0x0 KECCAK256 SWAP1 JUMPDEST DUP2 SLOAD DUP2 MSTORE SWAP1 PUSH1 0x1 ADD SWAP1 PUSH1 0x20 ADD DUP1 DUP4 GT PUSH2 0x926 JUMPI DUP3 SWAP1 SUB PUSH1 0x1F AND DUP3 ADD SWAP2 JUMPDEST POP POP POP POP POP SWAP1 DUP1 PUSH1 0x2 ADD SLOAD SWAP1 DUP1 PUSH1 0x3 ADD DUP1 SLOAD PUSH2 0x95E SWAP1 PUSH2 0xEAD JUMP JUMPDEST DUP1 PUSH1 0x1F ADD PUSH1 0x20 DUP1 SWAP2 DIV MUL PUSH1 0x20 ADD PUSH1 0x40 MLOAD SWAP1 DUP2 ADD PUSH1 0x40 MSTORE DUP1 SWAP3 SWAP2 SWAP1 DUP2 DUP2 MSTORE PUSH1 0x20 ADD DUP3 DUP1 SLOAD PUSH2 0x98A SWAP1 PUSH2 0xEAD JUMP JUMPDEST DUP1 ISZERO PUSH2 0x9D7 JUMPI DUP1 PUSH1 0x1F LT PUSH2 0x9AC JUMPI PUSH2 0x100 DUP1 DUP4 SLOAD DIV MUL DUP4 MSTORE SWAP2 PUSH1 0x20 ADD SWAP2 PUSH2 0x9D7 JUMP JUMPDEST DUP3 ADD SWAP2 SWAP1 PUSH1 0x0 MSTORE PUSH1 0x20 PUSH1 0x0 KECCAK256 SWAP1 JUMPDEST DUP2 SLOAD DUP2 MSTORE SWAP1 PUSH1 0x1 ADD SWAP1 PUSH1 0x20 ADD DUP1 DUP4 GT PUSH2 0x9BA JUMPI DUP3 SWAP1 SUB PUSH1 0x1F AND DUP3 ADD SWAP2 JUMPDEST POP POP POP POP POP SWAP1 DUP1 PUSH1 0x4 ADD SLOAD SWAP1 POP DUP6 JUMP JUMPDEST DUP3 DUP1 SLOAD PUSH2 0x9F3 SWAP1 PUSH2 0xEAD JUMP JUMPDEST SWAP1 PUSH1 0x0 MSTORE PUSH1 0x20 PUSH1 0x0 KECCAK256 SWAP1 PUSH1 0x1F ADD PUSH1 0x20 SWAP1 DIV DUP2 ADD SWAP3 DUP3 PUSH2 0xA15 JUMPI PUSH1 0x0 DUP6 SSTORE PUSH2 0xA5C JUMP JUMPDEST DUP3 PUSH1 0x1F LT PUSH2 0xA2E JUMPI DUP1 MLOAD PUSH1 0xFF NOT AND DUP4 DUP1 ADD OR DUP6 SSTORE PUSH2 0xA5C JUMP JUMPDEST DUP3 DUP1 ADD PUSH1 0x1 ADD DUP6 SSTORE DUP3 ISZERO PUSH2 0xA5C JUMPI SWAP2 DUP3 ADD JUMPDEST DUP3 DUP2 GT ISZERO PUSH2 0xA5B JUMPI DUP3 MLOAD DUP3 SSTORE SWAP2 PUSH1 0x20 ADD SWAP2 SWAP1 PUSH1 0x1 ADD SWAP1 PUSH2 0xA40 JUMP JUMPDEST JUMPDEST POP SWAP1 POP PUSH2 0xA69 SWAP2 SWAP1 PUSH2 0xA6D JUMP JUMPDEST POP SWAP1 JUMP JUMPDEST JUMPDEST DUP1 DUP3 GT ISZERO PUSH2 0xA86 JUMPI PUSH1 0x0 DUP2 PUSH1 0x0 SWAP1 SSTORE POP PUSH1 0x1 ADD PUSH2 0xA6E JUMP JUMPDEST POP SWAP1 JUMP JUMPDEST PUSH1 0x0 PUSH2 0xA9D PUSH2 0xA98 DUP5 PUSH2 0xD63 JUMP JUMPDEST PUSH2 0xD3E JUMP JUMPDEST SWAP1 POP DUP3 DUP2 MSTORE PUSH1 0x20 DUP2 ADD DUP5 DUP5 DUP5 ADD GT ISZERO PUSH2 0xAB9 JUMPI PUSH2 0xAB8 PUSH2 0xFD1 JUMP JUMPDEST JUMPDEST PUSH2 0xAC4 DUP5 DUP3 DUP6 PUSH2 0xE6B JUMP JUMPDEST POP SWAP4 SWAP3 POP POP POP JUMP JUMPDEST PUSH1 0x0 DUP2 CALLDATALOAD SWAP1 POP PUSH2 0xADB DUP2 PUSH2 0x102E JUMP JUMPDEST SWAP3 SWAP2 POP POP JUMP JUMPDEST PUSH1 0x0 DUP3 PUSH1 0x1F DUP4 ADD SLT PUSH2 0xAF6 JUMPI PUSH2 0xAF5 PUSH2 0xFCC JUMP JUMPDEST JUMPDEST DUP2 CALLDATALOAD PUSH2 0xB06 DUP5 DUP3 PUSH1 0x20 DUP7 ADD PUSH2 0xA8A JUMP JUMPDEST SWAP2 POP POP SWAP3 SWAP2 POP POP JUMP JUMPDEST PUSH1 0x0 DUP2 CALLDATALOAD SWAP1 POP PUSH2 0xB1E DUP2 PUSH2 0x1045 JUMP JUMPDEST SWAP3 SWAP2 POP POP JUMP JUMPDEST PUSH1 0x0 PUSH1 0x20 DUP3 DUP5 SUB SLT ISZERO PUSH2 0xB3A JUMPI PUSH2 0xB39 PUSH2 0xFDB JUMP JUMPDEST JUMPDEST PUSH1 0x0 PUSH2 0xB48 DUP5 DUP3 DUP6 ADD PUSH2 0xACC JUMP JUMPDEST SWAP2 POP POP SWAP3 SWAP2 POP POP JUMP JUMPDEST PUSH1 0x0 DUP1 PUSH1 0x0 PUSH1 0x60 DUP5 DUP7 SUB SLT ISZERO PUSH2 0xB6A JUMPI PUSH2 0xB69 PUSH2 0xFDB JUMP JUMPDEST JUMPDEST PUSH1 0x0 DUP5 ADD CALLDATALOAD PUSH8 0xFFFFFFFFFFFFFFFF DUP2 GT ISZERO PUSH2 0xB88 JUMPI PUSH2 0xB87 PUSH2 0xFD6 JUMP JUMPDEST JUMPDEST PUSH2 0xB94 DUP7 DUP3 DUP8 ADD PUSH2 0xAE1 JUMP JUMPDEST SWAP4 POP POP PUSH1 0x20 DUP5 ADD CALLDATALOAD PUSH8 0xFFFFFFFFFFFFFFFF DUP2 GT ISZERO PUSH2 0xBB5 JUMPI PUSH2 0xBB4 PUSH2 0xFD6 JUMP JUMPDEST JUMPDEST PUSH2 0xBC1 DUP7 DUP3 DUP8 ADD PUSH2 0xAE1 JUMP JUMPDEST SWAP3 POP POP PUSH1 0x40 PUSH2 0xBD2 DUP7 DUP3 DUP8 ADD PUSH2 0xB0F JUMP JUMPDEST SWAP2 POP POP SWAP3 POP SWAP3 POP SWAP3 JUMP JUMPDEST PUSH2 0xBE5 DUP2 PUSH2 0xE0A JUMP JUMPDEST DUP3 MSTORE POP POP JUMP JUMPDEST PUSH2 0xBF4 DUP2 PUSH2 0xE59 JUMP JUMPDEST DUP3 MSTORE POP POP JUMP JUMPDEST PUSH1 0x0 PUSH2 0xC05 DUP3 PUSH2 0xD94 JUMP JUMPDEST PUSH2 0xC0F DUP2 DUP6 PUSH2 0xD9F JUMP JUMPDEST SWAP4 POP PUSH2 0xC1F DUP2 DUP6 PUSH1 0x20 DUP7 ADD PUSH2 0xE7A JUMP JUMPDEST PUSH2 0xC28 DUP2 PUSH2 0xFE0 JUMP JUMPDEST DUP5 ADD SWAP2 POP POP SWAP3 SWAP2 POP POP JUMP JUMPDEST PUSH1 0x0 PUSH2 0xC40 PUSH1 0x1D DUP4 PUSH2 0xD9F JUMP JUMPDEST SWAP2 POP PUSH2 0xC4B DUP3 PUSH2 0xFF1 JUMP JUMPDEST PUSH1 0x20 DUP3 ADD SWAP1 POP SWAP2 SWAP1 POP JUMP JUMPDEST PUSH2 0xC5F DUP2 PUSH2 0xE4F JUMP JUMPDEST DUP3 MSTORE POP POP JUMP JUMPDEST PUSH1 0x0 PUSH1 0x20 DUP3 ADD SWAP1 POP PUSH2 0xC7A PUSH1 0x0 DUP4 ADD DUP5 PUSH2 0xBDC JUMP JUMPDEST SWAP3 SWAP2 POP POP JUMP JUMPDEST PUSH1 0x0 PUSH1 0x20 DUP3 ADD SWAP1 POP PUSH2 0xC95 PUSH1 0x0 DUP4 ADD DUP5 PUSH2 0xBEB JUMP JUMPDEST SWAP3 SWAP2 POP POP JUMP JUMPDEST PUSH1 0x0 PUSH1 0xA0 DUP3 ADD SWAP1 POP DUP2 DUP2 SUB PUSH1 0x0 DUP4 ADD MSTORE PUSH2 0xCB5 DUP2 DUP9 PUSH2 0xBFA JUMP JUMPDEST SWAP1 POP DUP2 DUP2 SUB PUSH1 0x20 DUP4 ADD MSTORE PUSH2 0xCC9 DUP2 DUP8 PUSH2 0xBFA JUMP JUMPDEST SWAP1 POP PUSH2 0xCD8 PUSH1 0x40 DUP4 ADD DUP7 PUSH2 0xC56 JUMP JUMPDEST DUP2 DUP2 SUB PUSH1 0x60 DUP4 ADD MSTORE PUSH2 0xCEA DUP2 DUP6 PUSH2 0xBFA JUMP JUMPDEST SWAP1 POP PUSH2 0xCF9 PUSH1 0x80 DUP4 ADD DUP5 PUSH2 0xC56 JUMP JUMPDEST SWAP7 SWAP6 POP POP POP POP POP POP JUMP JUMPDEST PUSH1 0x0 PUSH1 0x20 DUP3 ADD SWAP1 POP DUP2 DUP2 SUB PUSH1 0x0 DUP4 ADD MSTORE PUSH2 0xD1C DUP2 PUSH2 0xC33 JUMP JUMPDEST SWAP1 POP SWAP2 SWAP1 POP JUMP JUMPDEST PUSH1 0x0 PUSH1 0x20 DUP3 ADD SWAP1 POP PUSH2 0xD38 PUSH1 0x0 DUP4 ADD DUP5 PUSH2 0xC56 JUMP JUMPDEST SWAP3 SWAP2 POP POP JUMP JUMPDEST PUSH1 0x0 PUSH2 0xD48 PUSH2 0xD59 JUMP JUMPDEST SWAP1 POP PUSH2 0xD54 DUP3 DUP3 PUSH2 0xEDF JUMP JUMPDEST SWAP2 SWAP1 POP JUMP JUMPDEST PUSH1 0x0 PUSH1 0x40 MLOAD SWAP1 POP SWAP1 JUMP JUMPDEST PUSH1 0x0 PUSH8 0xFFFFFFFFFFFFFFFF DUP3 GT ISZERO PUSH2 0xD7E JUMPI PUSH2 0xD7D PUSH2 0xF9D JUMP JUMPDEST JUMPDEST PUSH2 0xD87 DUP3 PUSH2 0xFE0 JUMP JUMPDEST SWAP1 POP PUSH1 0x20 DUP2 ADD SWAP1 POP SWAP2 SWAP1 POP JUMP JUMPDEST PUSH1 0x0 DUP2 MLOAD SWAP1 POP SWAP2 SWAP1 POP JUMP JUMPDEST PUSH1 0x0 DUP3 DUP3 MSTORE PUSH1 0x20 DUP3 ADD SWAP1 POP SWAP3 SWAP2 POP POP JUMP JUMPDEST PUSH1 0x0 PUSH2 0xDBB DUP3 PUSH2 0xE4F JUMP JUMPDEST SWAP2 POP PUSH2 0xDC6 DUP4 PUSH2 0xE4F JUMP JUMPDEST SWAP3 POP DUP2 PUSH32 0xFFFFFFFFFFFFFFFFFFFFFFFFFFFFFFFFFFFFFFFFFFFFFFFFFFFFFFFFFFFFFFFF DIV DUP4 GT DUP3 ISZERO ISZERO AND ISZERO PUSH2 0xDFF JUMPI PUSH2 0xDFE PUSH2 0xF10 JUMP JUMPDEST JUMPDEST DUP3 DUP3 MUL SWAP1 POP SWAP3 SWAP2 POP POP JUMP JUMPDEST PUSH1 0x0 PUSH2 0xE15 DUP3 PUSH2 0xE2F JUMP JUMPDEST SWAP1 POP SWAP2 SWAP1 POP JUMP JUMPDEST PUSH1 0x0 DUP2 SWAP1 POP PUSH2 0xE2A DUP3 PUSH2 0x101A JUMP JUMPDEST SWAP2 SWAP1 POP JUMP JUMPDEST PUSH1 0x0 PUSH20 0xFFFFFFFFFFFFFFFFFFFFFFFFFFFFFFFFFFFFFFFF DUP3 AND SWAP1 POP SWAP2 SWAP1 POP JUMP JUMPDEST PUSH1 0x0 DUP2 SWAP1 POP SWAP2 SWAP1 POP JUMP JUMPDEST PUSH1 0x0 PUSH2 0xE64 DUP3 PUSH2 0xE1C JUMP JUMPDEST SWAP1 POP SWAP2 SWAP1 POP JUMP JUMPDEST DUP3 DUP2 DUP4 CALLDATACOPY PUSH1 0x0 DUP4 DUP4 ADD MSTORE POP POP POP JUMP JUMPDEST PUSH1 0x0 JUMPDEST DUP4 DUP2 LT ISZERO PUSH2 0xE98 JUMPI DUP1 DUP3 ADD MLOAD DUP2 DUP5 ADD MSTORE PUSH1 0x20 DUP2 ADD SWAP1 POP PUSH2 0xE7D JUMP JUMPDEST DUP4 DUP2 GT ISZERO PUSH2 0xEA7 JUMPI PUSH1 0x0 DUP5 DUP5 ADD MSTORE JUMPDEST POP POP POP POP JUMP JUMPDEST PUSH1 0x0 PUSH1 0x2 DUP3 DIV SWAP1 POP PUSH1 0x1 DUP3 AND DUP1 PUSH2 0xEC5 JUMPI PUSH1 0x7F DUP3 AND SWAP2 POP JUMPDEST PUSH1 0x20 DUP3 LT DUP2 EQ ISZERO PUSH2 0xED9 JUMPI PUSH2 0xED8 PUSH2 0xF6E JUMP JUMPDEST JUMPDEST POP SWAP2 SWAP1 POP JUMP JUMPDEST PUSH2 0xEE8 DUP3 PUSH2 0xFE0 JUMP JUMPDEST DUP2 ADD DUP2 DUP2 LT PUSH8 0xFFFFFFFFFFFFFFFF DUP3 GT OR ISZERO PUSH2 0xF07 JUMPI PUSH2 0xF06 PUSH2 0xF9D JUMP JUMPDEST JUMPDEST DUP1 PUSH1 0x40 MSTORE POP POP POP JUMP JUMPDEST PUSH32 0x4E487B7100000000000000000000000000000000000000000000000000000000 PUSH1 0x0 MSTORE PUSH1 0x11 PUSH1 0x4 MSTORE PUSH1 0x24 PUSH1 0x0 REVERT JUMPDEST PUSH32 0x4E487B7100000000000000000000000000000000000000000000000000000000 PUSH1 0x0 MSTORE PUSH1 0x21 PUSH1 0x4 MSTORE PUSH1 0x24 PUSH1 0x0 REVERT JUMPDEST PUSH32 0x4E487B7100000000000000000000000000000000000000000000000000000000 PUSH1 0x0 MSTORE PUSH1 0x22 PUSH1 0x4 MSTORE PUSH1 0x24 PUSH1 0x0 REVERT JUMPDEST PUSH32 0x4E487B7100000000000000000000000000000000000000000000000000000000 PUSH1 0x0 MSTORE PUSH1 0x41 PUSH1 0x4 MSTORE PUSH1 0x24 PUSH1 0x0 REVERT JUMPDEST PUSH1 0x0 DUP1 REVERT JUMPDEST PUSH1 0x0 DUP1 REVERT JUMPDEST PUSH1 0x0 DUP1 REVERT JUMPDEST PUSH1 0x0 DUP1 REVERT JUMPDEST PUSH1 0x0 PUSH1 0x1F NOT PUSH1 0x1F DUP4 ADD AND SWAP1 POP SWAP2 SWAP1 POP JUMP JUMPDEST PUSH32 0x706C656173652073656C6563742074686520636C617373206669727374000000 PUSH1 0x0 DUP3 ADD MSTORE POP JUMP JUMPDEST PUSH1 0x3 DUP2 LT PUSH2 0x102B JUMPI PUSH2 0x102A PUSH2 0xF3F JUMP JUMPDEST JUMPDEST POP JUMP JUMPDEST PUSH2 0x1037 DUP2 PUSH2 0xE0A JUMP JUMPDEST DUP2 EQ PUSH2 0x1042 JUMPI PUSH1 0x0 DUP1 REVERT JUMPDEST POP JUMP JUMPDEST PUSH2 0x104E DUP2 PUSH2 0xE4F JUMP JUMPDEST DUP2 EQ PUSH2 0x1059 JUMPI PUSH1 0x0 DUP1 REVERT JUMPDEST POP JUMP INVALID LOG2 PUSH5 0x6970667358 0x22 SLT KECCAK256 SWAP4 PUSH17 0xBF62832B302CD55FF5130F7D1803EF843A SWAP12 MSTORE8 SWAP7 SWAP16 PUSH2 0x7B78 PUSH31 0xFFC5DF6D1064736F6C63430008070033000000000000000000000000000000 "
				},
				"gasEstimates": {
					"creation": {
						"codeDepositCost": "848400",
						"executionCost": "infinite",
						"totalCost": "infinite"
					},
					"external": {
						"busnissClass()": "infinite",
						"data(address)": "infinite",
						"economyClass()": "infinite",
						"firstClass()": "infinite",
						"oneWei()": "2518",
						"owner()": "2555",
						"payment()": "infinite",
						"setData(string,string,uint256)": "infinite",
						"u1()": "2583",
						"user()": "2581"
					}
				},
				"methodIdentifiers": {
					"busnissClass()": "b24fa0e4",
					"data(address)": "b90d3d0c",
					"economyClass()": "7a1736d1",
					"firstClass()": "50183507",
					"oneWei()": "4fb2e0be",
					"owner()": "8da5cb5b",
					"payment()": "42f6487a",
					"setData(string,string,uint256)": "17ae4589",
					"u1()": "1aa35610",
					"user()": "4f8632ba"
				}
			},
			"userdoc": {
				"kind": "user",
				"methods": {},
				"version": 1
			}
		}
	}
}