{
	"problem_2018.sol": {
		"problem": {
			"abi": [
				{
					"constant": false,
					"inputs": [],
					"name": "setter",
					"outputs": [],
					"payable": false,
					"stateMutability": "nonpayable",
					"type": "function"
				}
			],
			"devdoc": {
				"methods": {}
			},
			"evm": {
				"assembly": "    /* \"problem_2018.sol\":65:167  contract problem\r... */\n  mstore(0x40, 0x80)\n    /* \"problem_2018.sol\":103:106  255 */\n  0xff\n    /* \"problem_2018.sol\":90:106  uint money = 255 */\n  0x0\n  sstore\n    /* \"problem_2018.sol\":65:167  contract problem\r... */\n  callvalue\n    /* \"--CODEGEN--\":8:17   */\n  dup1\n    /* \"--CODEGEN--\":5:7   */\n  iszero\n  tag_1\n  jumpi\n    /* \"--CODEGEN--\":30:31   */\n  0x0\n    /* \"--CODEGEN--\":27:28   */\n  dup1\n    /* \"--CODEGEN--\":20:32   */\n  revert\n    /* \"--CODEGEN--\":5:7   */\ntag_1:\n    /* \"problem_2018.sol\":65:167  contract problem\r... */\n  pop\n  dataSize(sub_0)\n  dup1\n  dataOffset(sub_0)\n  0x0\n  codecopy\n  0x0\n  return\nstop\n\nsub_0: assembly {\n        /* \"problem_2018.sol\":65:167  contract problem\r... */\n      mstore(0x40, 0x80)\n      jumpi(tag_1, lt(calldatasize, 0x4))\n      calldataload(0x0)\n      0x100000000000000000000000000000000000000000000000000000000\n      swap1\n      div\n      0xffffffff\n      and\n      dup1\n      0x3f3108f7\n      eq\n      tag_2\n      jumpi\n    tag_1:\n      0x0\n      dup1\n      revert\n        /* \"problem_2018.sol\":116:164  function setter() public\r... */\n    tag_2:\n      callvalue\n        /* \"--CODEGEN--\":8:17   */\n      dup1\n        /* \"--CODEGEN--\":5:7   */\n      iszero\n      tag_3\n      jumpi\n        /* \"--CODEGEN--\":30:31   */\n      0x0\n        /* \"--CODEGEN--\":27:28   */\n      dup1\n        /* \"--CODEGEN--\":20:32   */\n      revert\n        /* \"--CODEGEN--\":5:7   */\n    tag_3:\n        /* \"problem_2018.sol\":116:164  function setter() public\r... */\n      pop\n      tag_4\n      jump(tag_5)\n    tag_4:\n      stop\n    tag_5:\n      jump\t// out\n\n    auxdata: 0xa165627a7a7230582023c02fb8156770f565057f9804b4405be6f8b6af94c5212771c5fb8117b9bfbb0029\n}\n",
				"bytecode": {
					"linkReferences": {},
					"object": "608060405260ff600055348015601457600080fd5b506086806100236000396000f3fe608060405260043610603f576000357c0100000000000000000000000000000000000000000000000000000000900463ffffffff1680633f3108f7146044575b600080fd5b348015604f57600080fd5b5060566058565b005b56fea165627a7a7230582023c02fb8156770f565057f9804b4405be6f8b6af94c5212771c5fb8117b9bfbb0029",
					"opcodes": "PUSH1 0x80 PUSH1 0x40 MSTORE PUSH1 0xFF PUSH1 0x0 SSTORE CALLVALUE DUP1 ISZERO PUSH1 0x14 JUMPI PUSH1 0x0 DUP1 REVERT JUMPDEST POP PUSH1 0x86 DUP1 PUSH2 0x23 PUSH1 0x0 CODECOPY PUSH1 0x0 RETURN INVALID PUSH1 0x80 PUSH1 0x40 MSTORE PUSH1 0x4 CALLDATASIZE LT PUSH1 0x3F JUMPI PUSH1 0x0 CALLDATALOAD PUSH29 0x100000000000000000000000000000000000000000000000000000000 SWAP1 DIV PUSH4 0xFFFFFFFF AND DUP1 PUSH4 0x3F3108F7 EQ PUSH1 0x44 JUMPI JUMPDEST PUSH1 0x0 DUP1 REVERT JUMPDEST CALLVALUE DUP1 ISZERO PUSH1 0x4F JUMPI PUSH1 0x0 DUP1 REVERT JUMPDEST POP PUSH1 0x56 PUSH1 0x58 JUMP JUMPDEST STOP JUMPDEST JUMP INVALID LOG1 PUSH6 0x627A7A723058 KECCAK256 0x23 0xc0 0x2f 0xb8 ISZERO PUSH8 0x70F565057F9804B4 BLOCKHASH JUMPDEST 0xe6 0xf8 0xb6 0xaf SWAP5 0xc5 0x21 0x27 PUSH18 0xC5FB8117B9BFBB0029000000000000000000 "
				},
				"gasEstimates": {
					"creation": {
						"codeDepositCost": "26800",
						"executionCost": "20087",
						"totalCost": "46887"
					},
					"external": {
						"setter()": "133"
					}
				},
				"methodIdentifiers": {
					"setter()": "3f3108f7"
				}
			},
			"userdoc": {
				"methods": {}
			}
		}
	}
}