{
	"bootcampquiz.sol": {
		"AirlineTickets": {
			"abi": [
				{
					"inputs": [],
					"name": "busnissClass",
					"outputs": [],
					"stateMutability": "nonpayable",
					"type": "function"
				},
				{
					"inputs": [
						{
							"internalType": "address",
							"name": "",
							"type": "address"
						}
					],
					"name": "data",
					"outputs": [
						{
							"internalType": "string",
							"name": "name",
							"type": "string"
						},
						{
							"internalType": "string",
							"name": "des",
							"type": "string"
						},
						{
							"internalType": "uint256",
							"name": "pass_id",
							"type": "uint256"
						},
						{
							"internalType": "string",
							"name": "ticket",
							"type": "string"
						},
						{
							"internalType": "uint256",
							"name": "cost",
							"type": "uint256"
						}
					],
					"stateMutability": "view",
					"type": "function"
				},
				{
					"inputs": [],
					"name": "economyClass",
					"outputs": [],
					"stateMutability": "nonpayable",
					"type": "function"
				},
				{
					"inputs": [],
					"name": "firstClass",
					"outputs": [],
					"stateMutability": "nonpayable",
					"type": "function"
				},
				{
					"inputs": [],
					"name": "oneEth",
					"outputs": [
						{
							"internalType": "uint256",
							"name": "",
							"type": "uint256"
						}
					],
					"stateMutability": "view",
					"type": "function"
				},
				{
					"inputs": [],
					"name": "oneWei",
					"outputs": [
						{
							"internalType": "uint256",
							"name": "",
							"type": "uint256"
						}
					],
					"stateMutability": "view",
					"type": "function"
				},
				{
					"inputs": [
						{
							"internalType": "string",
							"name": "_name",
							"type": "string"
						},
						{
							"internalType": "string",
							"name": "_des",
							"type": "string"
						},
						{
							"internalType": "uint256",
							"name": "_pass_id",
							"type": "uint256"
						}
					],
					"name": "setData",
					"outputs": [],
					"stateMutability": "nonpayable",
					"type": "function"
				},
				{
					"inputs": [],
					"name": "u1",
					"outputs": [
						{
							"internalType": "enum AirlineTickets.classTypes",
							"name": "",
							"type": "uint8"
						}
					],
					"stateMutability": "view",
					"type": "function"
				}
			],
			"devdoc": {
				"kind": "dev",
				"methods": {},
				"version": 1
			},
			"evm": {
				"assembly": "    /* \"bootcampquiz.sol\":74:2057  contract AirlineTickets {\r... */\n  mstore(0x40, 0x80)\n    /* \"bootcampquiz.sol\":265:270  false */\n  0x00\n    /* \"bootcampquiz.sol\":251:270  bool booked = false */\n  dup1\n  exp(0x0100, 0x00)\n  dup2\n  sload\n  dup2\n  0xff\n  mul\n  not\n  and\n  swap1\n  dup4\n  iszero\n  iszero\n  mul\n  or\n  swap1\n  sstore\n  pop\n    /* \"bootcampquiz.sol\":363:395  string realVal = \"Economy Class\" */\n  mload(0x40)\n  dup1\n  0x40\n  add\n  0x40\n  mstore\n  dup1\n  0x0d\n  dup2\n  mstore\n  0x20\n  add\n  0x45636f6e6f6d7920436c61737300000000000000000000000000000000000000\n  dup2\n  mstore\n  pop\n  0x02\n  swap1\n  dup1\n  mload\n  swap1\n  0x20\n  add\n  swap1\n  tag_1\n  swap3\n  swap2\n  swap1\n  tag_2\n  jump\t// in\ntag_1:\n  pop\n    /* \"bootcampquiz.sol\":471:476  1 wei */\n  0x01\n    /* \"bootcampquiz.sol\":450:476  uint public oneWei = 1 wei */\n  0x05\n  sstore\n    /* \"bootcampquiz.sol\":504:511  1 ether */\n  0x0de0b6b3a7640000\n    /* \"bootcampquiz.sol\":483:511  uint public oneEth = 1 ether */\n  0x06\n  sstore\n    /* \"bootcampquiz.sol\":740:763  classTypes.economyClass */\n  0x01\n    /* \"bootcampquiz.sol\":718:763  classTypes public u1= classTypes.economyClass */\n  0x08\n  exp(0x0100, 0x00)\n  dup2\n  sload\n  dup2\n  0xff\n  mul\n  not\n  and\n  swap1\n  dup4\n  0x02\n  dup2\n  gt\n  iszero\n  tag_3\n  jumpi\n  tag_4\n  tag_5\n  jump\t// in\ntag_4:\ntag_3:\n  mul\n  or\n  swap1\n  sstore\n  pop\n    /* \"bootcampquiz.sol\":74:2057  contract AirlineTickets {\r... */\n  callvalue\n  dup1\n  iszero\n  tag_6\n  jumpi\n  0x00\n  dup1\n  revert\ntag_6:\n  pop\n  jump(tag_7)\ntag_2:\n  dup3\n  dup1\n  sload\n  tag_8\n  swap1\n  tag_9\n  jump\t// in\ntag_8:\n  swap1\n  0x00\n  mstore\n  keccak256(0x00, 0x20)\n  swap1\n  0x1f\n  add\n  0x20\n  swap1\n  div\n  dup2\n  add\n  swap3\n  dup3\n  tag_11\n  jumpi\n  0x00\n  dup6\n  sstore\n  jump(tag_10)\ntag_11:\n  dup3\n  0x1f\n  lt\n  tag_12\n  jumpi\n  dup1\n  mload\n  not(0xff)\n  and\n  dup4\n  dup1\n  add\n  or\n  dup6\n  sstore\n  jump(tag_10)\ntag_12:\n  dup3\n  dup1\n  add\n  0x01\n  add\n  dup6\n  sstore\n  dup3\n  iszero\n  tag_10\n  jumpi\n  swap2\n  dup3\n  add\ntag_13:\n  dup3\n  dup2\n  gt\n  iszero\n  tag_14\n  jumpi\n  dup3\n  mload\n  dup3\n  sstore\n  swap2\n  0x20\n  add\n  swap2\n  swap1\n  0x01\n  add\n  swap1\n  jump(tag_13)\ntag_14:\ntag_10:\n  pop\n  swap1\n  pop\n  tag_15\n  swap2\n  swap1\n  tag_16\n  jump\t// in\ntag_15:\n  pop\n  swap1\n  jump\t// out\ntag_16:\ntag_17:\n  dup1\n  dup3\n  gt\n  iszero\n  tag_18\n  jumpi\n  0x00\n  dup2\n  0x00\n  swap1\n  sstore\n  pop\n  0x01\n  add\n  jump(tag_17)\ntag_18:\n  pop\n  swap1\n  jump\t// out\n    /* \"#utility.yul\":7:327   */\ntag_9:\n    /* \"#utility.yul\":51:57   */\n  0x00\n    /* \"#utility.yul\":88:89   */\n  0x02\n    /* \"#utility.yul\":82:86   */\n  dup3\n    /* \"#utility.yul\":78:90   */\n  div\n    /* \"#utility.yul\":68:90   */\n  swap1\n  pop\n    /* \"#utility.yul\":135:136   */\n  0x01\n    /* \"#utility.yul\":129:133   */\n  dup3\n    /* \"#utility.yul\":125:137   */\n  and\n    /* \"#utility.yul\":156:174   */\n  dup1\n    /* \"#utility.yul\":146:227   */\n  tag_21\n  jumpi\n    /* \"#utility.yul\":212:216   */\n  0x7f\n    /* \"#utility.yul\":204:210   */\n  dup3\n    /* \"#utility.yul\":200:217   */\n  and\n    /* \"#utility.yul\":190:217   */\n  swap2\n  pop\n    /* \"#utility.yul\":146:227   */\ntag_21:\n    /* \"#utility.yul\":274:276   */\n  0x20\n    /* \"#utility.yul\":266:272   */\n  dup3\n    /* \"#utility.yul\":263:277   */\n  lt\n    /* \"#utility.yul\":243:261   */\n  dup2\n    /* \"#utility.yul\":240:278   */\n  eq\n    /* \"#utility.yul\":237:321   */\n  iszero\n  tag_22\n  jumpi\n    /* \"#utility.yul\":293:311   */\n  tag_23\n  tag_24\n  jump\t// in\ntag_23:\n    /* \"#utility.yul\":237:321   */\ntag_22:\n    /* \"#utility.yul\":58:327   */\n  pop\n    /* \"#utility.yul\":7:327   */\n  swap2\n  swap1\n  pop\n  jump\t// out\n    /* \"#utility.yul\":333:513   */\ntag_5:\n    /* \"#utility.yul\":381:458   */\n  0x4e487b7100000000000000000000000000000000000000000000000000000000\n    /* \"#utility.yul\":378:379   */\n  0x00\n    /* \"#utility.yul\":371:459   */\n  mstore\n    /* \"#utility.yul\":478:482   */\n  0x21\n    /* \"#utility.yul\":475:476   */\n  0x04\n    /* \"#utility.yul\":468:483   */\n  mstore\n    /* \"#utility.yul\":502:506   */\n  0x24\n    /* \"#utility.yul\":499:500   */\n  0x00\n    /* \"#utility.yul\":492:507   */\n  revert\n    /* \"#utility.yul\":519:699   */\ntag_24:\n    /* \"#utility.yul\":567:644   */\n  0x4e487b7100000000000000000000000000000000000000000000000000000000\n    /* \"#utility.yul\":564:565   */\n  0x00\n    /* \"#utility.yul\":557:645   */\n  mstore\n    /* \"#utility.yul\":664:668   */\n  0x22\n    /* \"#utility.yul\":661:662   */\n  0x04\n    /* \"#utility.yul\":654:669   */\n  mstore\n    /* \"#utility.yul\":688:692   */\n  0x24\n    /* \"#utility.yul\":685:686   */\n  0x00\n    /* \"#utility.yul\":678:693   */\n  revert\n    /* \"bootcampquiz.sol\":74:2057  contract AirlineTickets {\r... */\ntag_7:\n  dataSize(sub_0)\n  dup1\n  dataOffset(sub_0)\n  0x00\n  codecopy\n  0x00\n  return\nstop\n\nsub_0: assembly {\n        /* \"bootcampquiz.sol\":74:2057  contract AirlineTickets {\r... */\n      mstore(0x40, 0x80)\n      callvalue\n      dup1\n      iszero\n      tag_1\n      jumpi\n      0x00\n      dup1\n      revert\n    tag_1:\n      pop\n      jumpi(tag_2, lt(calldatasize, 0x04))\n      shr(0xe0, calldataload(0x00))\n      dup1\n      0x50183507\n      gt\n      tag_11\n      jumpi\n      dup1\n      0x50183507\n      eq\n      tag_7\n      jumpi\n      dup1\n      0x7a1736d1\n      eq\n      tag_8\n      jumpi\n      dup1\n      0xb24fa0e4\n      eq\n      tag_9\n      jumpi\n      dup1\n      0xb90d3d0c\n      eq\n      tag_10\n      jumpi\n      jump(tag_2)\n    tag_11:\n      dup1\n      0x09a8d3f5\n      eq\n      tag_3\n      jumpi\n      dup1\n      0x17ae4589\n      eq\n      tag_4\n      jumpi\n      dup1\n      0x1aa35610\n      eq\n      tag_5\n      jumpi\n      dup1\n      0x4fb2e0be\n      eq\n      tag_6\n      jumpi\n    tag_2:\n      0x00\n      dup1\n      revert\n        /* \"bootcampquiz.sol\":483:511  uint public oneEth = 1 ether */\n    tag_3:\n      tag_12\n      tag_13\n      jump\t// in\n    tag_12:\n      mload(0x40)\n      tag_14\n      swap2\n      swap1\n      tag_15\n      jump\t// in\n    tag_14:\n      mload(0x40)\n      dup1\n      swap2\n      sub\n      swap1\n      return\n        /* \"bootcampquiz.sol\":1827:2048  function setData(string memory _name, string memory _des, uint _pass_id) public \r... */\n    tag_4:\n      tag_16\n      0x04\n      dup1\n      calldatasize\n      sub\n      dup2\n      add\n      swap1\n      tag_17\n      swap2\n      swap1\n      tag_18\n      jump\t// in\n    tag_17:\n      tag_19\n      jump\t// in\n    tag_16:\n      stop\n        /* \"bootcampquiz.sol\":718:763  classTypes public u1= classTypes.economyClass */\n    tag_5:\n      tag_20\n      tag_21\n      jump\t// in\n    tag_20:\n      mload(0x40)\n      tag_22\n      swap2\n      swap1\n      tag_23\n      jump\t// in\n    tag_22:\n      mload(0x40)\n      dup1\n      swap2\n      sub\n      swap1\n      return\n        /* \"bootcampquiz.sol\":450:476  uint public oneWei = 1 wei */\n    tag_6:\n      tag_24\n      tag_25\n      jump\t// in\n    tag_24:\n      mload(0x40)\n      tag_26\n      swap2\n      swap1\n      tag_15\n      jump\t// in\n    tag_26:\n      mload(0x40)\n      dup1\n      swap2\n      sub\n      swap1\n      return\n        /* \"bootcampquiz.sol\":1129:1468  function firstClass() public \r... */\n    tag_7:\n      tag_27\n      tag_28\n      jump\t// in\n    tag_27:\n      stop\n        /* \"bootcampquiz.sol\":772:1117  function economyClass() public \r... */\n    tag_8:\n      tag_29\n      tag_30\n      jump\t// in\n    tag_29:\n      stop\n        /* \"bootcampquiz.sol\":1476:1815  function busnissClass() public {\r... */\n    tag_9:\n      tag_31\n      tag_32\n      jump\t// in\n    tag_31:\n      stop\n        /* \"bootcampquiz.sol\":672:709  mapping (address => User) public data */\n    tag_10:\n      tag_33\n      0x04\n      dup1\n      calldatasize\n      sub\n      dup2\n      add\n      swap1\n      tag_34\n      swap2\n      swap1\n      tag_35\n      jump\t// in\n    tag_34:\n      tag_36\n      jump\t// in\n    tag_33:\n      mload(0x40)\n      tag_37\n      swap6\n      swap5\n      swap4\n      swap3\n      swap2\n      swap1\n      tag_38\n      jump\t// in\n    tag_37:\n      mload(0x40)\n      dup1\n      swap2\n      sub\n      swap1\n      return\n        /* \"bootcampquiz.sol\":483:511  uint public oneEth = 1 ether */\n    tag_13:\n      sload(0x06)\n      dup2\n      jump\t// out\n        /* \"bootcampquiz.sol\":1827:2048  function setData(string memory _name, string memory _des, uint _pass_id) public \r... */\n    tag_19:\n        /* \"bootcampquiz.sol\":1932:1938  booked */\n      0x00\n      dup1\n      sload\n      swap1\n      0x0100\n      exp\n      swap1\n      div\n      0xff\n      and\n        /* \"bootcampquiz.sol\":1924:1971  require(booked,\"please select the class first\") */\n      tag_40\n      jumpi\n      mload(0x40)\n      0x08c379a000000000000000000000000000000000000000000000000000000000\n      dup2\n      mstore\n      0x04\n      add\n      tag_41\n      swap1\n      tag_42\n      jump\t// in\n    tag_41:\n      mload(0x40)\n      dup1\n      swap2\n      sub\n      swap1\n      revert\n    tag_40:\n        /* \"bootcampquiz.sol\":2001:2040  User(_name,_des,_pass_id,realVal ,cost) */\n      mload(0x40)\n      dup1\n      0xa0\n      add\n      0x40\n      mstore\n      dup1\n        /* \"bootcampquiz.sol\":2006:2011  _name */\n      dup5\n        /* \"bootcampquiz.sol\":2001:2040  User(_name,_des,_pass_id,realVal ,cost) */\n      dup2\n      mstore\n      0x20\n      add\n        /* \"bootcampquiz.sol\":2012:2016  _des */\n      dup4\n        /* \"bootcampquiz.sol\":2001:2040  User(_name,_des,_pass_id,realVal ,cost) */\n      dup2\n      mstore\n      0x20\n      add\n        /* \"bootcampquiz.sol\":2017:2025  _pass_id */\n      dup3\n        /* \"bootcampquiz.sol\":2001:2040  User(_name,_des,_pass_id,realVal ,cost) */\n      dup2\n      mstore\n      0x20\n      add\n        /* \"bootcampquiz.sol\":2026:2033  realVal */\n      0x02\n        /* \"bootcampquiz.sol\":2001:2040  User(_name,_des,_pass_id,realVal ,cost) */\n      dup1\n      sload\n      tag_43\n      swap1\n      tag_44\n      jump\t// in\n    tag_43:\n      dup1\n      0x1f\n      add\n      0x20\n      dup1\n      swap2\n      div\n      mul\n      0x20\n      add\n      mload(0x40)\n      swap1\n      dup2\n      add\n      0x40\n      mstore\n      dup1\n      swap3\n      swap2\n      swap1\n      dup2\n      dup2\n      mstore\n      0x20\n      add\n      dup3\n      dup1\n      sload\n      tag_45\n      swap1\n      tag_44\n      jump\t// in\n    tag_45:\n      dup1\n      iszero\n      tag_46\n      jumpi\n      dup1\n      0x1f\n      lt\n      tag_47\n      jumpi\n      0x0100\n      dup1\n      dup4\n      sload\n      div\n      mul\n      dup4\n      mstore\n      swap2\n      0x20\n      add\n      swap2\n      jump(tag_46)\n    tag_47:\n      dup3\n      add\n      swap2\n      swap1\n      0x00\n      mstore\n      keccak256(0x00, 0x20)\n      swap1\n    tag_48:\n      dup2\n      sload\n      dup2\n      mstore\n      swap1\n      0x01\n      add\n      swap1\n      0x20\n      add\n      dup1\n      dup4\n      gt\n      tag_48\n      jumpi\n      dup3\n      swap1\n      sub\n      0x1f\n      and\n      dup3\n      add\n      swap2\n    tag_46:\n      pop\n      pop\n      pop\n      pop\n      pop\n      dup2\n      mstore\n      0x20\n      add\n        /* \"bootcampquiz.sol\":2035:2039  cost */\n      sload(0x04)\n        /* \"bootcampquiz.sol\":2001:2040  User(_name,_des,_pass_id,realVal ,cost) */\n      dup2\n      mstore\n      pop\n        /* \"bootcampquiz.sol\":1982:1986  data */\n      0x07\n        /* \"bootcampquiz.sol\":1982:1998  data[msg.sender] */\n      0x00\n        /* \"bootcampquiz.sol\":1987:1997  msg.sender */\n      caller\n        /* \"bootcampquiz.sol\":1982:1998  data[msg.sender] */\n      0xffffffffffffffffffffffffffffffffffffffff\n      and\n      0xffffffffffffffffffffffffffffffffffffffff\n      and\n      dup2\n      mstore\n      0x20\n      add\n      swap1\n      dup2\n      mstore\n      0x20\n      add\n      0x00\n      keccak256\n        /* \"bootcampquiz.sol\":1982:2040  data[msg.sender] = User(_name,_des,_pass_id,realVal ,cost) */\n      0x00\n      dup3\n      add\n      mload\n      dup2\n      0x00\n      add\n      swap1\n      dup1\n      mload\n      swap1\n      0x20\n      add\n      swap1\n      tag_49\n      swap3\n      swap2\n      swap1\n      tag_50\n      jump\t// in\n    tag_49:\n      pop\n      0x20\n      dup3\n      add\n      mload\n      dup2\n      0x01\n      add\n      swap1\n      dup1\n      mload\n      swap1\n      0x20\n      add\n      swap1\n      tag_51\n      swap3\n      swap2\n      swap1\n      tag_50\n      jump\t// in\n    tag_51:\n      pop\n      0x40\n      dup3\n      add\n      mload\n      dup2\n      0x02\n      add\n      sstore\n      0x60\n      dup3\n      add\n      mload\n      dup2\n      0x03\n      add\n      swap1\n      dup1\n      mload\n      swap1\n      0x20\n      add\n      swap1\n      tag_52\n      swap3\n      swap2\n      swap1\n      tag_50\n      jump\t// in\n    tag_52:\n      pop\n      0x80\n      dup3\n      add\n      mload\n      dup2\n      0x04\n      add\n      sstore\n      swap1\n      pop\n      pop\n        /* \"bootcampquiz.sol\":1827:2048  function setData(string memory _name, string memory _des, uint _pass_id) public \r... */\n      pop\n      pop\n      pop\n      jump\t// out\n        /* \"bootcampquiz.sol\":718:763  classTypes public u1= classTypes.economyClass */\n    tag_21:\n      0x08\n      0x00\n      swap1\n      sload\n      swap1\n      0x0100\n      exp\n      swap1\n      div\n      0xff\n      and\n      dup2\n      jump\t// out\n        /* \"bootcampquiz.sol\":450:476  uint public oneWei = 1 wei */\n    tag_25:\n      sload(0x05)\n      dup2\n      jump\t// out\n        /* \"bootcampquiz.sol\":1129:1468  function firstClass() public \r... */\n    tag_28:\n        /* \"bootcampquiz.sol\":1242:1263  classTypes.firstClass */\n      0x00\n        /* \"bootcampquiz.sol\":1238:1240  u1 */\n      0x08\n      0x00\n        /* \"bootcampquiz.sol\":1238:1263  u1= classTypes.firstClass */\n      0x0100\n      exp\n      dup2\n      sload\n      dup2\n      0xff\n      mul\n      not\n      and\n      swap1\n      dup4\n      0x02\n      dup2\n      gt\n      iszero\n      tag_54\n      jumpi\n      tag_55\n      tag_56\n      jump\t// in\n    tag_55:\n    tag_54:\n      mul\n      or\n      swap1\n      sstore\n      pop\n        /* \"bootcampquiz.sol\":1289:1291  u1 */\n      0x08\n      0x00\n      swap1\n      sload\n      swap1\n      0x0100\n      exp\n      swap1\n      div\n      0xff\n      and\n        /* \"bootcampquiz.sol\":1284:1292  uint(u1) */\n      0x02\n      dup2\n      gt\n      iszero\n      tag_57\n      jumpi\n      tag_58\n      tag_56\n      jump\t// in\n    tag_58:\n    tag_57:\n        /* \"bootcampquiz.sol\":1274:1281  convert */\n      0x01\n        /* \"bootcampquiz.sol\":1274:1292  convert = uint(u1) */\n      dup2\n      swap1\n      sstore\n      pop\n        /* \"bootcampquiz.sol\":1315:1316  0 */\n      0x00\n        /* \"bootcampquiz.sol\":1306:1313  convert */\n      sload(0x01)\n        /* \"bootcampquiz.sol\":1306:1316  convert==0 */\n      eq\n        /* \"bootcampquiz.sol\":1303:1437  if(convert==0)\r... */\n      iszero\n      tag_59\n      jumpi\n        /* \"bootcampquiz.sol\":1342:1365  realVal = \"First Class\" */\n      mload(0x40)\n      dup1\n      0x40\n      add\n      0x40\n      mstore\n      dup1\n      0x0b\n      dup2\n      mstore\n      0x20\n      add\n      0x466972737420436c617373000000000000000000000000000000000000000000\n      dup2\n      mstore\n      pop\n        /* \"bootcampquiz.sol\":1342:1349  realVal */\n      0x02\n        /* \"bootcampquiz.sol\":1342:1365  realVal = \"First Class\" */\n      swap1\n      dup1\n      mload\n      swap1\n      0x20\n      add\n      swap1\n      tag_60\n      swap3\n      swap2\n      swap1\n      tag_50\n      jump\t// in\n    tag_60:\n      pop\n        /* \"bootcampquiz.sol\":1396:1400  1e15 */\n      0x038d7ea4c68000\n        /* \"bootcampquiz.sol\":1387:1393  oneWei */\n      sload(0x05)\n        /* \"bootcampquiz.sol\":1387:1400  oneWei * 1e15 */\n      tag_61\n      swap2\n      swap1\n      tag_62\n      jump\t// in\n    tag_61:\n        /* \"bootcampquiz.sol\":1380:1384  cost */\n      0x04\n        /* \"bootcampquiz.sol\":1380:1400  cost = oneWei * 1e15 */\n      dup2\n      swap1\n      sstore\n      pop\n        /* \"bootcampquiz.sol\":1303:1437  if(convert==0)\r... */\n    tag_59:\n        /* \"bootcampquiz.sol\":1456:1460  true */\n      0x01\n        /* \"bootcampquiz.sol\":1447:1453  booked */\n      0x00\n      dup1\n        /* \"bootcampquiz.sol\":1447:1460  booked = true */\n      0x0100\n      exp\n      dup2\n      sload\n      dup2\n      0xff\n      mul\n      not\n      and\n      swap1\n      dup4\n      iszero\n      iszero\n      mul\n      or\n      swap1\n      sstore\n      pop\n        /* \"bootcampquiz.sol\":1129:1468  function firstClass() public \r... */\n      jump\t// out\n        /* \"bootcampquiz.sol\":772:1117  function economyClass() public \r... */\n    tag_30:\n        /* \"bootcampquiz.sol\":887:910  classTypes.economyClass */\n      0x01\n        /* \"bootcampquiz.sol\":883:885  u1 */\n      0x08\n      0x00\n        /* \"bootcampquiz.sol\":883:910  u1= classTypes.economyClass */\n      0x0100\n      exp\n      dup2\n      sload\n      dup2\n      0xff\n      mul\n      not\n      and\n      swap1\n      dup4\n      0x02\n      dup2\n      gt\n      iszero\n      tag_64\n      jumpi\n      tag_65\n      tag_56\n      jump\t// in\n    tag_65:\n    tag_64:\n      mul\n      or\n      swap1\n      sstore\n      pop\n        /* \"bootcampquiz.sol\":936:938  u1 */\n      0x08\n      0x00\n      swap1\n      sload\n      swap1\n      0x0100\n      exp\n      swap1\n      div\n      0xff\n      and\n        /* \"bootcampquiz.sol\":931:939  uint(u1) */\n      0x02\n      dup2\n      gt\n      iszero\n      tag_66\n      jumpi\n      tag_67\n      tag_56\n      jump\t// in\n    tag_67:\n    tag_66:\n        /* \"bootcampquiz.sol\":921:928  convert */\n      0x01\n        /* \"bootcampquiz.sol\":921:939  convert = uint(u1) */\n      dup2\n      swap1\n      sstore\n      pop\n        /* \"bootcampquiz.sol\":962:963  1 */\n      0x01\n        /* \"bootcampquiz.sol\":953:960  convert */\n      dup1\n      sload\n        /* \"bootcampquiz.sol\":953:963  convert==1 */\n      eq\n        /* \"bootcampquiz.sol\":950:1086  if(convert==1)\r... */\n      iszero\n      tag_68\n      jumpi\n        /* \"bootcampquiz.sol\":989:1014  realVal = \"Economy Class\" */\n      mload(0x40)\n      dup1\n      0x40\n      add\n      0x40\n      mstore\n      dup1\n      0x0d\n      dup2\n      mstore\n      0x20\n      add\n      0x45636f6e6f6d7920436c61737300000000000000000000000000000000000000\n      dup2\n      mstore\n      pop\n        /* \"bootcampquiz.sol\":989:996  realVal */\n      0x02\n        /* \"bootcampquiz.sol\":989:1014  realVal = \"Economy Class\" */\n      swap1\n      dup1\n      mload\n      swap1\n      0x20\n      add\n      swap1\n      tag_69\n      swap3\n      swap2\n      swap1\n      tag_50\n      jump\t// in\n    tag_69:\n      pop\n        /* \"bootcampquiz.sol\":1045:1049  5e14 */\n      0x01c6bf52634000\n        /* \"bootcampquiz.sol\":1036:1042  oneWei */\n      sload(0x05)\n        /* \"bootcampquiz.sol\":1036:1049  oneWei * 5e14 */\n      tag_70\n      swap2\n      swap1\n      tag_62\n      jump\t// in\n    tag_70:\n        /* \"bootcampquiz.sol\":1029:1033  cost */\n      0x04\n        /* \"bootcampquiz.sol\":1029:1049  cost = oneWei * 5e14 */\n      dup2\n      swap1\n      sstore\n      pop\n        /* \"bootcampquiz.sol\":950:1086  if(convert==1)\r... */\n    tag_68:\n        /* \"bootcampquiz.sol\":1105:1109  true */\n      0x01\n        /* \"bootcampquiz.sol\":1096:1102  booked */\n      0x00\n      dup1\n        /* \"bootcampquiz.sol\":1096:1109  booked = true */\n      0x0100\n      exp\n      dup2\n      sload\n      dup2\n      0xff\n      mul\n      not\n      and\n      swap1\n      dup4\n      iszero\n      iszero\n      mul\n      or\n      swap1\n      sstore\n      pop\n        /* \"bootcampquiz.sol\":772:1117  function economyClass() public \r... */\n      jump\t// out\n        /* \"bootcampquiz.sol\":1476:1815  function busnissClass() public {\r... */\n    tag_32:\n        /* \"bootcampquiz.sol\":1585:1608  classTypes.busnissClass */\n      0x02\n        /* \"bootcampquiz.sol\":1581:1583  u1 */\n      0x08\n      0x00\n        /* \"bootcampquiz.sol\":1581:1608  u1= classTypes.busnissClass */\n      0x0100\n      exp\n      dup2\n      sload\n      dup2\n      0xff\n      mul\n      not\n      and\n      swap1\n      dup4\n      0x02\n      dup2\n      gt\n      iszero\n      tag_72\n      jumpi\n      tag_73\n      tag_56\n      jump\t// in\n    tag_73:\n    tag_72:\n      mul\n      or\n      swap1\n      sstore\n      pop\n        /* \"bootcampquiz.sol\":1634:1636  u1 */\n      0x08\n      0x00\n      swap1\n      sload\n      swap1\n      0x0100\n      exp\n      swap1\n      div\n      0xff\n      and\n        /* \"bootcampquiz.sol\":1629:1637  uint(u1) */\n      0x02\n      dup2\n      gt\n      iszero\n      tag_74\n      jumpi\n      tag_75\n      tag_56\n      jump\t// in\n    tag_75:\n    tag_74:\n        /* \"bootcampquiz.sol\":1619:1626  convert */\n      0x01\n        /* \"bootcampquiz.sol\":1619:1637  convert = uint(u1) */\n      dup2\n      swap1\n      sstore\n      pop\n        /* \"bootcampquiz.sol\":1660:1661  2 */\n      0x02\n        /* \"bootcampquiz.sol\":1651:1658  convert */\n      sload(0x01)\n        /* \"bootcampquiz.sol\":1651:1661  convert==2 */\n      eq\n        /* \"bootcampquiz.sol\":1648:1784  if(convert==2)\r... */\n      iszero\n      tag_76\n      jumpi\n        /* \"bootcampquiz.sol\":1687:1712  realVal = \"Busniss Class\" */\n      mload(0x40)\n      dup1\n      0x40\n      add\n      0x40\n      mstore\n      dup1\n      0x0d\n      dup2\n      mstore\n      0x20\n      add\n      0x4275736e69737320436c61737300000000000000000000000000000000000000\n      dup2\n      mstore\n      pop\n        /* \"bootcampquiz.sol\":1687:1694  realVal */\n      0x02\n        /* \"bootcampquiz.sol\":1687:1712  realVal = \"Busniss Class\" */\n      swap1\n      dup1\n      mload\n      swap1\n      0x20\n      add\n      swap1\n      tag_77\n      swap3\n      swap2\n      swap1\n      tag_50\n      jump\t// in\n    tag_77:\n      pop\n        /* \"bootcampquiz.sol\":1743:1747  7e14 */\n      0x027ca57357c000\n        /* \"bootcampquiz.sol\":1734:1740  oneWei */\n      sload(0x05)\n        /* \"bootcampquiz.sol\":1734:1747  oneWei * 7e14 */\n      tag_78\n      swap2\n      swap1\n      tag_62\n      jump\t// in\n    tag_78:\n        /* \"bootcampquiz.sol\":1727:1731  cost */\n      0x04\n        /* \"bootcampquiz.sol\":1727:1747  cost = oneWei * 7e14 */\n      dup2\n      swap1\n      sstore\n      pop\n        /* \"bootcampquiz.sol\":1648:1784  if(convert==2)\r... */\n    tag_76:\n        /* \"bootcampquiz.sol\":1803:1807  true */\n      0x01\n        /* \"bootcampquiz.sol\":1794:1800  booked */\n      0x00\n      dup1\n        /* \"bootcampquiz.sol\":1794:1807  booked = true */\n      0x0100\n      exp\n      dup2\n      sload\n      dup2\n      0xff\n      mul\n      not\n      and\n      swap1\n      dup4\n      iszero\n      iszero\n      mul\n      or\n      swap1\n      sstore\n      pop\n        /* \"bootcampquiz.sol\":1476:1815  function busnissClass() public {\r... */\n      jump\t// out\n        /* \"bootcampquiz.sol\":672:709  mapping (address => User) public data */\n    tag_36:\n      mstore(0x20, 0x07)\n      dup1\n      0x00\n      mstore\n      keccak256(0x00, 0x40)\n      0x00\n      swap2\n      pop\n      swap1\n      pop\n      dup1\n      0x00\n      add\n      dup1\n      sload\n      tag_79\n      swap1\n      tag_44\n      jump\t// in\n    tag_79:\n      dup1\n      0x1f\n      add\n      0x20\n      dup1\n      swap2\n      div\n      mul\n      0x20\n      add\n      mload(0x40)\n      swap1\n      dup2\n      add\n      0x40\n      mstore\n      dup1\n      swap3\n      swap2\n      swap1\n      dup2\n      dup2\n      mstore\n      0x20\n      add\n      dup3\n      dup1\n      sload\n      tag_80\n      swap1\n      tag_44\n      jump\t// in\n    tag_80:\n      dup1\n      iszero\n      tag_81\n      jumpi\n      dup1\n      0x1f\n      lt\n      tag_82\n      jumpi\n      0x0100\n      dup1\n      dup4\n      sload\n      div\n      mul\n      dup4\n      mstore\n      swap2\n      0x20\n      add\n      swap2\n      jump(tag_81)\n    tag_82:\n      dup3\n      add\n      swap2\n      swap1\n      0x00\n      mstore\n      keccak256(0x00, 0x20)\n      swap1\n    tag_83:\n      dup2\n      sload\n      dup2\n      mstore\n      swap1\n      0x01\n      add\n      swap1\n      0x20\n      add\n      dup1\n      dup4\n      gt\n      tag_83\n      jumpi\n      dup3\n      swap1\n      sub\n      0x1f\n      and\n      dup3\n      add\n      swap2\n    tag_81:\n      pop\n      pop\n      pop\n      pop\n      pop\n      swap1\n      dup1\n      0x01\n      add\n      dup1\n      sload\n      tag_84\n      swap1\n      tag_44\n      jump\t// in\n    tag_84:\n      dup1\n      0x1f\n      add\n      0x20\n      dup1\n      swap2\n      div\n      mul\n      0x20\n      add\n      mload(0x40)\n      swap1\n      dup2\n      add\n      0x40\n      mstore\n      dup1\n      swap3\n      swap2\n      swap1\n      dup2\n      dup2\n      mstore\n      0x20\n      add\n      dup3\n      dup1\n      sload\n      tag_85\n      swap1\n      tag_44\n      jump\t// in\n    tag_85:\n      dup1\n      iszero\n      tag_86\n      jumpi\n      dup1\n      0x1f\n      lt\n      tag_87\n      jumpi\n      0x0100\n      dup1\n      dup4\n      sload\n      div\n      mul\n      dup4\n      mstore\n      swap2\n      0x20\n      add\n      swap2\n      jump(tag_86)\n    tag_87:\n      dup3\n      add\n      swap2\n      swap1\n      0x00\n      mstore\n      keccak256(0x00, 0x20)\n      swap1\n    tag_88:\n      dup2\n      sload\n      dup2\n      mstore\n      swap1\n      0x01\n      add\n      swap1\n      0x20\n      add\n      dup1\n      dup4\n      gt\n      tag_88\n      jumpi\n      dup3\n      swap1\n      sub\n      0x1f\n      and\n      dup3\n      add\n      swap2\n    tag_86:\n      pop\n      pop\n      pop\n      pop\n      pop\n      swap1\n      dup1\n      0x02\n      add\n      sload\n      swap1\n      dup1\n      0x03\n      add\n      dup1\n      sload\n      tag_89\n      swap1\n      tag_44\n      jump\t// in\n    tag_89:\n      dup1\n      0x1f\n      add\n      0x20\n      dup1\n      swap2\n      div\n      mul\n      0x20\n      add\n      mload(0x40)\n      swap1\n      dup2\n      add\n      0x40\n      mstore\n      dup1\n      swap3\n      swap2\n      swap1\n      dup2\n      dup2\n      mstore\n      0x20\n      add\n      dup3\n      dup1\n      sload\n      tag_90\n      swap1\n      tag_44\n      jump\t// in\n    tag_90:\n      dup1\n      iszero\n      tag_91\n      jumpi\n      dup1\n      0x1f\n      lt\n      tag_92\n      jumpi\n      0x0100\n      dup1\n      dup4\n      sload\n      div\n      mul\n      dup4\n      mstore\n      swap2\n      0x20\n      add\n      swap2\n      jump(tag_91)\n    tag_92:\n      dup3\n      add\n      swap2\n      swap1\n      0x00\n      mstore\n      keccak256(0x00, 0x20)\n      swap1\n    tag_93:\n      dup2\n      sload\n      dup2\n      mstore\n      swap1\n      0x01\n      add\n      swap1\n      0x20\n      add\n      dup1\n      dup4\n      gt\n      tag_93\n      jumpi\n      dup3\n      swap1\n      sub\n      0x1f\n      and\n      dup3\n      add\n      swap2\n    tag_91:\n      pop\n      pop\n      pop\n      pop\n      pop\n      swap1\n      dup1\n      0x04\n      add\n      sload\n      swap1\n      pop\n      dup6\n      jump\t// out\n    tag_50:\n      dup3\n      dup1\n      sload\n      tag_94\n      swap1\n      tag_44\n      jump\t// in\n    tag_94:\n      swap1\n      0x00\n      mstore\n      keccak256(0x00, 0x20)\n      swap1\n      0x1f\n      add\n      0x20\n      swap1\n      div\n      dup2\n      add\n      swap3\n      dup3\n      tag_96\n      jumpi\n      0x00\n      dup6\n      sstore\n      jump(tag_95)\n    tag_96:\n      dup3\n      0x1f\n      lt\n      tag_97\n      jumpi\n      dup1\n      mload\n      not(0xff)\n      and\n      dup4\n      dup1\n      add\n      or\n      dup6\n      sstore\n      jump(tag_95)\n    tag_97:\n      dup3\n      dup1\n      add\n      0x01\n      add\n      dup6\n      sstore\n      dup3\n      iszero\n      tag_95\n      jumpi\n      swap2\n      dup3\n      add\n    tag_98:\n      dup3\n      dup2\n      gt\n      iszero\n      tag_99\n      jumpi\n      dup3\n      mload\n      dup3\n      sstore\n      swap2\n      0x20\n      add\n      swap2\n      swap1\n      0x01\n      add\n      swap1\n      jump(tag_98)\n    tag_99:\n    tag_95:\n      pop\n      swap1\n      pop\n      tag_100\n      swap2\n      swap1\n      tag_101\n      jump\t// in\n    tag_100:\n      pop\n      swap1\n      jump\t// out\n    tag_101:\n    tag_102:\n      dup1\n      dup3\n      gt\n      iszero\n      tag_103\n      jumpi\n      0x00\n      dup2\n      0x00\n      swap1\n      sstore\n      pop\n      0x01\n      add\n      jump(tag_102)\n    tag_103:\n      pop\n      swap1\n      jump\t// out\n        /* \"#utility.yul\":7:419   */\n    tag_105:\n        /* \"#utility.yul\":85:90   */\n      0x00\n        /* \"#utility.yul\":110:176   */\n      tag_107\n        /* \"#utility.yul\":126:175   */\n      tag_108\n        /* \"#utility.yul\":168:174   */\n      dup5\n        /* \"#utility.yul\":126:175   */\n      tag_109\n      jump\t// in\n    tag_108:\n        /* \"#utility.yul\":110:176   */\n      tag_110\n      jump\t// in\n    tag_107:\n        /* \"#utility.yul\":101:176   */\n      swap1\n      pop\n        /* \"#utility.yul\":199:205   */\n      dup3\n        /* \"#utility.yul\":192:197   */\n      dup2\n        /* \"#utility.yul\":185:206   */\n      mstore\n        /* \"#utility.yul\":237:241   */\n      0x20\n        /* \"#utility.yul\":230:235   */\n      dup2\n        /* \"#utility.yul\":226:242   */\n      add\n        /* \"#utility.yul\":275:278   */\n      dup5\n        /* \"#utility.yul\":266:272   */\n      dup5\n        /* \"#utility.yul\":261:264   */\n      dup5\n        /* \"#utility.yul\":257:273   */\n      add\n        /* \"#utility.yul\":254:279   */\n      gt\n        /* \"#utility.yul\":251:363   */\n      iszero\n      tag_111\n      jumpi\n        /* \"#utility.yul\":282:361   */\n      tag_112\n      tag_113\n      jump\t// in\n    tag_112:\n        /* \"#utility.yul\":251:363   */\n    tag_111:\n        /* \"#utility.yul\":372:413   */\n      tag_114\n        /* \"#utility.yul\":406:412   */\n      dup5\n        /* \"#utility.yul\":401:404   */\n      dup3\n        /* \"#utility.yul\":396:399   */\n      dup6\n        /* \"#utility.yul\":372:413   */\n      tag_115\n      jump\t// in\n    tag_114:\n        /* \"#utility.yul\":91:419   */\n      pop\n        /* \"#utility.yul\":7:419   */\n      swap4\n      swap3\n      pop\n      pop\n      pop\n      jump\t// out\n        /* \"#utility.yul\":425:564   */\n    tag_116:\n        /* \"#utility.yul\":471:476   */\n      0x00\n        /* \"#utility.yul\":509:515   */\n      dup2\n        /* \"#utility.yul\":496:516   */\n      calldataload\n        /* \"#utility.yul\":487:516   */\n      swap1\n      pop\n        /* \"#utility.yul\":525:558   */\n      tag_118\n        /* \"#utility.yul\":552:557   */\n      dup2\n        /* \"#utility.yul\":525:558   */\n      tag_119\n      jump\t// in\n    tag_118:\n        /* \"#utility.yul\":425:564   */\n      swap3\n      swap2\n      pop\n      pop\n      jump\t// out\n        /* \"#utility.yul\":584:924   */\n    tag_120:\n        /* \"#utility.yul\":640:645   */\n      0x00\n        /* \"#utility.yul\":689:692   */\n      dup3\n        /* \"#utility.yul\":682:686   */\n      0x1f\n        /* \"#utility.yul\":674:680   */\n      dup4\n        /* \"#utility.yul\":670:687   */\n      add\n        /* \"#utility.yul\":666:693   */\n      slt\n        /* \"#utility.yul\":656:778   */\n      tag_122\n      jumpi\n        /* \"#utility.yul\":697:776   */\n      tag_123\n      tag_124\n      jump\t// in\n    tag_123:\n        /* \"#utility.yul\":656:778   */\n    tag_122:\n        /* \"#utility.yul\":814:820   */\n      dup2\n        /* \"#utility.yul\":801:821   */\n      calldataload\n        /* \"#utility.yul\":839:918   */\n      tag_125\n        /* \"#utility.yul\":914:917   */\n      dup5\n        /* \"#utility.yul\":906:912   */\n      dup3\n        /* \"#utility.yul\":899:903   */\n      0x20\n        /* \"#utility.yul\":891:897   */\n      dup7\n        /* \"#utility.yul\":887:904   */\n      add\n        /* \"#utility.yul\":839:918   */\n      tag_105\n      jump\t// in\n    tag_125:\n        /* \"#utility.yul\":830:918   */\n      swap2\n      pop\n        /* \"#utility.yul\":646:924   */\n      pop\n        /* \"#utility.yul\":584:924   */\n      swap3\n      swap2\n      pop\n      pop\n      jump\t// out\n        /* \"#utility.yul\":930:1069   */\n    tag_126:\n        /* \"#utility.yul\":976:981   */\n      0x00\n        /* \"#utility.yul\":1014:1020   */\n      dup2\n        /* \"#utility.yul\":1001:1021   */\n      calldataload\n        /* \"#utility.yul\":992:1021   */\n      swap1\n      pop\n        /* \"#utility.yul\":1030:1063   */\n      tag_128\n        /* \"#utility.yul\":1057:1062   */\n      dup2\n        /* \"#utility.yul\":1030:1063   */\n      tag_129\n      jump\t// in\n    tag_128:\n        /* \"#utility.yul\":930:1069   */\n      swap3\n      swap2\n      pop\n      pop\n      jump\t// out\n        /* \"#utility.yul\":1075:1404   */\n    tag_35:\n        /* \"#utility.yul\":1134:1140   */\n      0x00\n        /* \"#utility.yul\":1183:1185   */\n      0x20\n        /* \"#utility.yul\":1171:1180   */\n      dup3\n        /* \"#utility.yul\":1162:1169   */\n      dup5\n        /* \"#utility.yul\":1158:1181   */\n      sub\n        /* \"#utility.yul\":1154:1186   */\n      slt\n        /* \"#utility.yul\":1151:1270   */\n      iszero\n      tag_131\n      jumpi\n        /* \"#utility.yul\":1189:1268   */\n      tag_132\n      tag_133\n      jump\t// in\n    tag_132:\n        /* \"#utility.yul\":1151:1270   */\n    tag_131:\n        /* \"#utility.yul\":1309:1310   */\n      0x00\n        /* \"#utility.yul\":1334:1387   */\n      tag_134\n        /* \"#utility.yul\":1379:1386   */\n      dup5\n        /* \"#utility.yul\":1370:1376   */\n      dup3\n        /* \"#utility.yul\":1359:1368   */\n      dup6\n        /* \"#utility.yul\":1355:1377   */\n      add\n        /* \"#utility.yul\":1334:1387   */\n      tag_116\n      jump\t// in\n    tag_134:\n        /* \"#utility.yul\":1324:1387   */\n      swap2\n      pop\n        /* \"#utility.yul\":1280:1397   */\n      pop\n        /* \"#utility.yul\":1075:1404   */\n      swap3\n      swap2\n      pop\n      pop\n      jump\t// out\n        /* \"#utility.yul\":1410:2389   */\n    tag_18:\n        /* \"#utility.yul\":1507:1513   */\n      0x00\n        /* \"#utility.yul\":1515:1521   */\n      dup1\n        /* \"#utility.yul\":1523:1529   */\n      0x00\n        /* \"#utility.yul\":1572:1574   */\n      0x60\n        /* \"#utility.yul\":1560:1569   */\n      dup5\n        /* \"#utility.yul\":1551:1558   */\n      dup7\n        /* \"#utility.yul\":1547:1570   */\n      sub\n        /* \"#utility.yul\":1543:1575   */\n      slt\n        /* \"#utility.yul\":1540:1659   */\n      iszero\n      tag_136\n      jumpi\n        /* \"#utility.yul\":1578:1657   */\n      tag_137\n      tag_133\n      jump\t// in\n    tag_137:\n        /* \"#utility.yul\":1540:1659   */\n    tag_136:\n        /* \"#utility.yul\":1726:1727   */\n      0x00\n        /* \"#utility.yul\":1715:1724   */\n      dup5\n        /* \"#utility.yul\":1711:1728   */\n      add\n        /* \"#utility.yul\":1698:1729   */\n      calldataload\n        /* \"#utility.yul\":1756:1774   */\n      0xffffffffffffffff\n        /* \"#utility.yul\":1748:1754   */\n      dup2\n        /* \"#utility.yul\":1745:1775   */\n      gt\n        /* \"#utility.yul\":1742:1859   */\n      iszero\n      tag_138\n      jumpi\n        /* \"#utility.yul\":1778:1857   */\n      tag_139\n      tag_140\n      jump\t// in\n    tag_139:\n        /* \"#utility.yul\":1742:1859   */\n    tag_138:\n        /* \"#utility.yul\":1883:1946   */\n      tag_141\n        /* \"#utility.yul\":1938:1945   */\n      dup7\n        /* \"#utility.yul\":1929:1935   */\n      dup3\n        /* \"#utility.yul\":1918:1927   */\n      dup8\n        /* \"#utility.yul\":1914:1936   */\n      add\n        /* \"#utility.yul\":1883:1946   */\n      tag_120\n      jump\t// in\n    tag_141:\n        /* \"#utility.yul\":1873:1946   */\n      swap4\n      pop\n        /* \"#utility.yul\":1669:1956   */\n      pop\n        /* \"#utility.yul\":2023:2025   */\n      0x20\n        /* \"#utility.yul\":2012:2021   */\n      dup5\n        /* \"#utility.yul\":2008:2026   */\n      add\n        /* \"#utility.yul\":1995:2027   */\n      calldataload\n        /* \"#utility.yul\":2054:2072   */\n      0xffffffffffffffff\n        /* \"#utility.yul\":2046:2052   */\n      dup2\n        /* \"#utility.yul\":2043:2073   */\n      gt\n        /* \"#utility.yul\":2040:2157   */\n      iszero\n      tag_142\n      jumpi\n        /* \"#utility.yul\":2076:2155   */\n      tag_143\n      tag_140\n      jump\t// in\n    tag_143:\n        /* \"#utility.yul\":2040:2157   */\n    tag_142:\n        /* \"#utility.yul\":2181:2244   */\n      tag_144\n        /* \"#utility.yul\":2236:2243   */\n      dup7\n        /* \"#utility.yul\":2227:2233   */\n      dup3\n        /* \"#utility.yul\":2216:2225   */\n      dup8\n        /* \"#utility.yul\":2212:2234   */\n      add\n        /* \"#utility.yul\":2181:2244   */\n      tag_120\n      jump\t// in\n    tag_144:\n        /* \"#utility.yul\":2171:2244   */\n      swap3\n      pop\n        /* \"#utility.yul\":1966:2254   */\n      pop\n        /* \"#utility.yul\":2293:2295   */\n      0x40\n        /* \"#utility.yul\":2319:2372   */\n      tag_145\n        /* \"#utility.yul\":2364:2371   */\n      dup7\n        /* \"#utility.yul\":2355:2361   */\n      dup3\n        /* \"#utility.yul\":2344:2353   */\n      dup8\n        /* \"#utility.yul\":2340:2362   */\n      add\n        /* \"#utility.yul\":2319:2372   */\n      tag_126\n      jump\t// in\n    tag_145:\n        /* \"#utility.yul\":2309:2372   */\n      swap2\n      pop\n        /* \"#utility.yul\":2264:2382   */\n      pop\n        /* \"#utility.yul\":1410:2389   */\n      swap3\n      pop\n      swap3\n      pop\n      swap3\n      jump\t// out\n        /* \"#utility.yul\":2395:2548   */\n    tag_146:\n        /* \"#utility.yul\":2493:2541   */\n      tag_148\n        /* \"#utility.yul\":2535:2540   */\n      dup2\n        /* \"#utility.yul\":2493:2541   */\n      tag_149\n      jump\t// in\n    tag_148:\n        /* \"#utility.yul\":2488:2491   */\n      dup3\n        /* \"#utility.yul\":2481:2542   */\n      mstore\n        /* \"#utility.yul\":2395:2548   */\n      pop\n      pop\n      jump\t// out\n        /* \"#utility.yul\":2554:2918   */\n    tag_150:\n        /* \"#utility.yul\":2642:2645   */\n      0x00\n        /* \"#utility.yul\":2670:2709   */\n      tag_152\n        /* \"#utility.yul\":2703:2708   */\n      dup3\n        /* \"#utility.yul\":2670:2709   */\n      tag_153\n      jump\t// in\n    tag_152:\n        /* \"#utility.yul\":2725:2796   */\n      tag_154\n        /* \"#utility.yul\":2789:2795   */\n      dup2\n        /* \"#utility.yul\":2784:2787   */\n      dup6\n        /* \"#utility.yul\":2725:2796   */\n      tag_155\n      jump\t// in\n    tag_154:\n        /* \"#utility.yul\":2718:2796   */\n      swap4\n      pop\n        /* \"#utility.yul\":2805:2857   */\n      tag_156\n        /* \"#utility.yul\":2850:2856   */\n      dup2\n        /* \"#utility.yul\":2845:2848   */\n      dup6\n        /* \"#utility.yul\":2838:2842   */\n      0x20\n        /* \"#utility.yul\":2831:2836   */\n      dup7\n        /* \"#utility.yul\":2827:2843   */\n      add\n        /* \"#utility.yul\":2805:2857   */\n      tag_157\n      jump\t// in\n    tag_156:\n        /* \"#utility.yul\":2882:2911   */\n      tag_158\n        /* \"#utility.yul\":2904:2910   */\n      dup2\n        /* \"#utility.yul\":2882:2911   */\n      tag_159\n      jump\t// in\n    tag_158:\n        /* \"#utility.yul\":2877:2880   */\n      dup5\n        /* \"#utility.yul\":2873:2912   */\n      add\n        /* \"#utility.yul\":2866:2912   */\n      swap2\n      pop\n        /* \"#utility.yul\":2646:2918   */\n      pop\n        /* \"#utility.yul\":2554:2918   */\n      swap3\n      swap2\n      pop\n      pop\n      jump\t// out\n        /* \"#utility.yul\":2924:3290   */\n    tag_160:\n        /* \"#utility.yul\":3066:3069   */\n      0x00\n        /* \"#utility.yul\":3087:3154   */\n      tag_162\n        /* \"#utility.yul\":3151:3153   */\n      0x1d\n        /* \"#utility.yul\":3146:3149   */\n      dup4\n        /* \"#utility.yul\":3087:3154   */\n      tag_155\n      jump\t// in\n    tag_162:\n        /* \"#utility.yul\":3080:3154   */\n      swap2\n      pop\n        /* \"#utility.yul\":3163:3256   */\n      tag_163\n        /* \"#utility.yul\":3252:3255   */\n      dup3\n        /* \"#utility.yul\":3163:3256   */\n      tag_164\n      jump\t// in\n    tag_163:\n        /* \"#utility.yul\":3281:3283   */\n      0x20\n        /* \"#utility.yul\":3276:3279   */\n      dup3\n        /* \"#utility.yul\":3272:3284   */\n      add\n        /* \"#utility.yul\":3265:3284   */\n      swap1\n      pop\n        /* \"#utility.yul\":2924:3290   */\n      swap2\n      swap1\n      pop\n      jump\t// out\n        /* \"#utility.yul\":3296:3414   */\n    tag_165:\n        /* \"#utility.yul\":3383:3407   */\n      tag_167\n        /* \"#utility.yul\":3401:3406   */\n      dup2\n        /* \"#utility.yul\":3383:3407   */\n      tag_168\n      jump\t// in\n    tag_167:\n        /* \"#utility.yul\":3378:3381   */\n      dup3\n        /* \"#utility.yul\":3371:3408   */\n      mstore\n        /* \"#utility.yul\":3296:3414   */\n      pop\n      pop\n      jump\t// out\n        /* \"#utility.yul\":3420:3664   */\n    tag_23:\n        /* \"#utility.yul\":3524:3528   */\n      0x00\n        /* \"#utility.yul\":3562:3564   */\n      0x20\n        /* \"#utility.yul\":3551:3560   */\n      dup3\n        /* \"#utility.yul\":3547:3565   */\n      add\n        /* \"#utility.yul\":3539:3565   */\n      swap1\n      pop\n        /* \"#utility.yul\":3575:3657   */\n      tag_170\n        /* \"#utility.yul\":3654:3655   */\n      0x00\n        /* \"#utility.yul\":3643:3652   */\n      dup4\n        /* \"#utility.yul\":3639:3656   */\n      add\n        /* \"#utility.yul\":3630:3636   */\n      dup5\n        /* \"#utility.yul\":3575:3657   */\n      tag_146\n      jump\t// in\n    tag_170:\n        /* \"#utility.yul\":3420:3664   */\n      swap3\n      swap2\n      pop\n      pop\n      jump\t// out\n        /* \"#utility.yul\":3670:4607   */\n    tag_38:\n        /* \"#utility.yul\":3935:3939   */\n      0x00\n        /* \"#utility.yul\":3973:3976   */\n      0xa0\n        /* \"#utility.yul\":3962:3971   */\n      dup3\n        /* \"#utility.yul\":3958:3977   */\n      add\n        /* \"#utility.yul\":3950:3977   */\n      swap1\n      pop\n        /* \"#utility.yul\":4023:4032   */\n      dup2\n        /* \"#utility.yul\":4017:4021   */\n      dup2\n        /* \"#utility.yul\":4013:4033   */\n      sub\n        /* \"#utility.yul\":4009:4010   */\n      0x00\n        /* \"#utility.yul\":3998:4007   */\n      dup4\n        /* \"#utility.yul\":3994:4011   */\n      add\n        /* \"#utility.yul\":3987:4034   */\n      mstore\n        /* \"#utility.yul\":4051:4129   */\n      tag_172\n        /* \"#utility.yul\":4124:4128   */\n      dup2\n        /* \"#utility.yul\":4115:4121   */\n      dup9\n        /* \"#utility.yul\":4051:4129   */\n      tag_150\n      jump\t// in\n    tag_172:\n        /* \"#utility.yul\":4043:4129   */\n      swap1\n      pop\n        /* \"#utility.yul\":4176:4185   */\n      dup2\n        /* \"#utility.yul\":4170:4174   */\n      dup2\n        /* \"#utility.yul\":4166:4186   */\n      sub\n        /* \"#utility.yul\":4161:4163   */\n      0x20\n        /* \"#utility.yul\":4150:4159   */\n      dup4\n        /* \"#utility.yul\":4146:4164   */\n      add\n        /* \"#utility.yul\":4139:4187   */\n      mstore\n        /* \"#utility.yul\":4204:4282   */\n      tag_173\n        /* \"#utility.yul\":4277:4281   */\n      dup2\n        /* \"#utility.yul\":4268:4274   */\n      dup8\n        /* \"#utility.yul\":4204:4282   */\n      tag_150\n      jump\t// in\n    tag_173:\n        /* \"#utility.yul\":4196:4282   */\n      swap1\n      pop\n        /* \"#utility.yul\":4292:4364   */\n      tag_174\n        /* \"#utility.yul\":4360:4362   */\n      0x40\n        /* \"#utility.yul\":4349:4358   */\n      dup4\n        /* \"#utility.yul\":4345:4363   */\n      add\n        /* \"#utility.yul\":4336:4342   */\n      dup7\n        /* \"#utility.yul\":4292:4364   */\n      tag_165\n      jump\t// in\n    tag_174:\n        /* \"#utility.yul\":4411:4420   */\n      dup2\n        /* \"#utility.yul\":4405:4409   */\n      dup2\n        /* \"#utility.yul\":4401:4421   */\n      sub\n        /* \"#utility.yul\":4396:4398   */\n      0x60\n        /* \"#utility.yul\":4385:4394   */\n      dup4\n        /* \"#utility.yul\":4381:4399   */\n      add\n        /* \"#utility.yul\":4374:4422   */\n      mstore\n        /* \"#utility.yul\":4439:4517   */\n      tag_175\n        /* \"#utility.yul\":4512:4516   */\n      dup2\n        /* \"#utility.yul\":4503:4509   */\n      dup6\n        /* \"#utility.yul\":4439:4517   */\n      tag_150\n      jump\t// in\n    tag_175:\n        /* \"#utility.yul\":4431:4517   */\n      swap1\n      pop\n        /* \"#utility.yul\":4527:4600   */\n      tag_176\n        /* \"#utility.yul\":4595:4598   */\n      0x80\n        /* \"#utility.yul\":4584:4593   */\n      dup4\n        /* \"#utility.yul\":4580:4599   */\n      add\n        /* \"#utility.yul\":4571:4577   */\n      dup5\n        /* \"#utility.yul\":4527:4600   */\n      tag_165\n      jump\t// in\n    tag_176:\n        /* \"#utility.yul\":3670:4607   */\n      swap7\n      swap6\n      pop\n      pop\n      pop\n      pop\n      pop\n      pop\n      jump\t// out\n        /* \"#utility.yul\":4613:5032   */\n    tag_42:\n        /* \"#utility.yul\":4779:4783   */\n      0x00\n        /* \"#utility.yul\":4817:4819   */\n      0x20\n        /* \"#utility.yul\":4806:4815   */\n      dup3\n        /* \"#utility.yul\":4802:4820   */\n      add\n        /* \"#utility.yul\":4794:4820   */\n      swap1\n      pop\n        /* \"#utility.yul\":4866:4875   */\n      dup2\n        /* \"#utility.yul\":4860:4864   */\n      dup2\n        /* \"#utility.yul\":4856:4876   */\n      sub\n        /* \"#utility.yul\":4852:4853   */\n      0x00\n        /* \"#utility.yul\":4841:4850   */\n      dup4\n        /* \"#utility.yul\":4837:4854   */\n      add\n        /* \"#utility.yul\":4830:4877   */\n      mstore\n        /* \"#utility.yul\":4894:5025   */\n      tag_178\n        /* \"#utility.yul\":5020:5024   */\n      dup2\n        /* \"#utility.yul\":4894:5025   */\n      tag_160\n      jump\t// in\n    tag_178:\n        /* \"#utility.yul\":4886:5025   */\n      swap1\n      pop\n        /* \"#utility.yul\":4613:5032   */\n      swap2\n      swap1\n      pop\n      jump\t// out\n        /* \"#utility.yul\":5038:5260   */\n    tag_15:\n        /* \"#utility.yul\":5131:5135   */\n      0x00\n        /* \"#utility.yul\":5169:5171   */\n      0x20\n        /* \"#utility.yul\":5158:5167   */\n      dup3\n        /* \"#utility.yul\":5154:5172   */\n      add\n        /* \"#utility.yul\":5146:5172   */\n      swap1\n      pop\n        /* \"#utility.yul\":5182:5253   */\n      tag_180\n        /* \"#utility.yul\":5250:5251   */\n      0x00\n        /* \"#utility.yul\":5239:5248   */\n      dup4\n        /* \"#utility.yul\":5235:5252   */\n      add\n        /* \"#utility.yul\":5226:5232   */\n      dup5\n        /* \"#utility.yul\":5182:5253   */\n      tag_165\n      jump\t// in\n    tag_180:\n        /* \"#utility.yul\":5038:5260   */\n      swap3\n      swap2\n      pop\n      pop\n      jump\t// out\n        /* \"#utility.yul\":5266:5395   */\n    tag_110:\n        /* \"#utility.yul\":5300:5306   */\n      0x00\n        /* \"#utility.yul\":5327:5347   */\n      tag_182\n      tag_183\n      jump\t// in\n    tag_182:\n        /* \"#utility.yul\":5317:5347   */\n      swap1\n      pop\n        /* \"#utility.yul\":5356:5389   */\n      tag_184\n        /* \"#utility.yul\":5384:5388   */\n      dup3\n        /* \"#utility.yul\":5376:5382   */\n      dup3\n        /* \"#utility.yul\":5356:5389   */\n      tag_185\n      jump\t// in\n    tag_184:\n        /* \"#utility.yul\":5266:5395   */\n      swap2\n      swap1\n      pop\n      jump\t// out\n        /* \"#utility.yul\":5401:5476   */\n    tag_183:\n        /* \"#utility.yul\":5434:5440   */\n      0x00\n        /* \"#utility.yul\":5467:5469   */\n      0x40\n        /* \"#utility.yul\":5461:5470   */\n      mload\n        /* \"#utility.yul\":5451:5470   */\n      swap1\n      pop\n        /* \"#utility.yul\":5401:5476   */\n      swap1\n      jump\t// out\n        /* \"#utility.yul\":5482:5790   */\n    tag_109:\n        /* \"#utility.yul\":5544:5548   */\n      0x00\n        /* \"#utility.yul\":5634:5652   */\n      0xffffffffffffffff\n        /* \"#utility.yul\":5626:5632   */\n      dup3\n        /* \"#utility.yul\":5623:5653   */\n      gt\n        /* \"#utility.yul\":5620:5676   */\n      iszero\n      tag_188\n      jumpi\n        /* \"#utility.yul\":5656:5674   */\n      tag_189\n      tag_190\n      jump\t// in\n    tag_189:\n        /* \"#utility.yul\":5620:5676   */\n    tag_188:\n        /* \"#utility.yul\":5694:5723   */\n      tag_191\n        /* \"#utility.yul\":5716:5722   */\n      dup3\n        /* \"#utility.yul\":5694:5723   */\n      tag_159\n      jump\t// in\n    tag_191:\n        /* \"#utility.yul\":5686:5723   */\n      swap1\n      pop\n        /* \"#utility.yul\":5778:5782   */\n      0x20\n        /* \"#utility.yul\":5772:5776   */\n      dup2\n        /* \"#utility.yul\":5768:5783   */\n      add\n        /* \"#utility.yul\":5760:5783   */\n      swap1\n      pop\n        /* \"#utility.yul\":5482:5790   */\n      swap2\n      swap1\n      pop\n      jump\t// out\n        /* \"#utility.yul\":5796:5895   */\n    tag_153:\n        /* \"#utility.yul\":5848:5854   */\n      0x00\n        /* \"#utility.yul\":5882:5887   */\n      dup2\n        /* \"#utility.yul\":5876:5888   */\n      mload\n        /* \"#utility.yul\":5866:5888   */\n      swap1\n      pop\n        /* \"#utility.yul\":5796:5895   */\n      swap2\n      swap1\n      pop\n      jump\t// out\n        /* \"#utility.yul\":5901:6070   */\n    tag_155:\n        /* \"#utility.yul\":5985:5996   */\n      0x00\n        /* \"#utility.yul\":6019:6025   */\n      dup3\n        /* \"#utility.yul\":6014:6017   */\n      dup3\n        /* \"#utility.yul\":6007:6026   */\n      mstore\n        /* \"#utility.yul\":6059:6063   */\n      0x20\n        /* \"#utility.yul\":6054:6057   */\n      dup3\n        /* \"#utility.yul\":6050:6064   */\n      add\n        /* \"#utility.yul\":6035:6064   */\n      swap1\n      pop\n        /* \"#utility.yul\":5901:6070   */\n      swap3\n      swap2\n      pop\n      pop\n      jump\t// out\n        /* \"#utility.yul\":6076:6424   */\n    tag_62:\n        /* \"#utility.yul\":6116:6123   */\n      0x00\n        /* \"#utility.yul\":6139:6159   */\n      tag_195\n        /* \"#utility.yul\":6157:6158   */\n      dup3\n        /* \"#utility.yul\":6139:6159   */\n      tag_168\n      jump\t// in\n    tag_195:\n        /* \"#utility.yul\":6134:6159   */\n      swap2\n      pop\n        /* \"#utility.yul\":6173:6193   */\n      tag_196\n        /* \"#utility.yul\":6191:6192   */\n      dup4\n        /* \"#utility.yul\":6173:6193   */\n      tag_168\n      jump\t// in\n    tag_196:\n        /* \"#utility.yul\":6168:6193   */\n      swap3\n      pop\n        /* \"#utility.yul\":6361:6362   */\n      dup2\n        /* \"#utility.yul\":6293:6359   */\n      0xffffffffffffffffffffffffffffffffffffffffffffffffffffffffffffffff\n        /* \"#utility.yul\":6289:6363   */\n      div\n        /* \"#utility.yul\":6286:6287   */\n      dup4\n        /* \"#utility.yul\":6283:6364   */\n      gt\n        /* \"#utility.yul\":6278:6279   */\n      dup3\n        /* \"#utility.yul\":6271:6280   */\n      iszero\n        /* \"#utility.yul\":6264:6281   */\n      iszero\n        /* \"#utility.yul\":6260:6365   */\n      and\n        /* \"#utility.yul\":6257:6388   */\n      iszero\n      tag_197\n      jumpi\n        /* \"#utility.yul\":6368:6386   */\n      tag_198\n      tag_199\n      jump\t// in\n    tag_198:\n        /* \"#utility.yul\":6257:6388   */\n    tag_197:\n        /* \"#utility.yul\":6416:6417   */\n      dup3\n        /* \"#utility.yul\":6413:6414   */\n      dup3\n        /* \"#utility.yul\":6409:6418   */\n      mul\n        /* \"#utility.yul\":6398:6418   */\n      swap1\n      pop\n        /* \"#utility.yul\":6076:6424   */\n      swap3\n      swap2\n      pop\n      pop\n      jump\t// out\n        /* \"#utility.yul\":6430:6526   */\n    tag_200:\n        /* \"#utility.yul\":6467:6474   */\n      0x00\n        /* \"#utility.yul\":6496:6520   */\n      tag_202\n        /* \"#utility.yul\":6514:6519   */\n      dup3\n        /* \"#utility.yul\":6496:6520   */\n      tag_203\n      jump\t// in\n    tag_202:\n        /* \"#utility.yul\":6485:6520   */\n      swap1\n      pop\n        /* \"#utility.yul\":6430:6526   */\n      swap2\n      swap1\n      pop\n      jump\t// out\n        /* \"#utility.yul\":6532:6669   */\n    tag_204:\n        /* \"#utility.yul\":6582:6589   */\n      0x00\n        /* \"#utility.yul\":6611:6616   */\n      dup2\n        /* \"#utility.yul\":6600:6616   */\n      swap1\n      pop\n        /* \"#utility.yul\":6617:6663   */\n      tag_206\n        /* \"#utility.yul\":6657:6662   */\n      dup3\n        /* \"#utility.yul\":6617:6663   */\n      tag_207\n      jump\t// in\n    tag_206:\n        /* \"#utility.yul\":6532:6669   */\n      swap2\n      swap1\n      pop\n      jump\t// out\n        /* \"#utility.yul\":6675:6801   */\n    tag_203:\n        /* \"#utility.yul\":6712:6719   */\n      0x00\n        /* \"#utility.yul\":6752:6794   */\n      0xffffffffffffffffffffffffffffffffffffffff\n        /* \"#utility.yul\":6745:6750   */\n      dup3\n        /* \"#utility.yul\":6741:6795   */\n      and\n        /* \"#utility.yul\":6730:6795   */\n      swap1\n      pop\n        /* \"#utility.yul\":6675:6801   */\n      swap2\n      swap1\n      pop\n      jump\t// out\n        /* \"#utility.yul\":6807:6884   */\n    tag_168:\n        /* \"#utility.yul\":6844:6851   */\n      0x00\n        /* \"#utility.yul\":6873:6878   */\n      dup2\n        /* \"#utility.yul\":6862:6878   */\n      swap1\n      pop\n        /* \"#utility.yul\":6807:6884   */\n      swap2\n      swap1\n      pop\n      jump\t// out\n        /* \"#utility.yul\":6890:7027   */\n    tag_149:\n        /* \"#utility.yul\":6951:6960   */\n      0x00\n        /* \"#utility.yul\":6984:7021   */\n      tag_211\n        /* \"#utility.yul\":7015:7020   */\n      dup3\n        /* \"#utility.yul\":6984:7021   */\n      tag_204\n      jump\t// in\n    tag_211:\n        /* \"#utility.yul\":6971:7021   */\n      swap1\n      pop\n        /* \"#utility.yul\":6890:7027   */\n      swap2\n      swap1\n      pop\n      jump\t// out\n        /* \"#utility.yul\":7033:7187   */\n    tag_115:\n        /* \"#utility.yul\":7117:7123   */\n      dup3\n        /* \"#utility.yul\":7112:7115   */\n      dup2\n        /* \"#utility.yul\":7107:7110   */\n      dup4\n        /* \"#utility.yul\":7094:7124   */\n      calldatacopy\n        /* \"#utility.yul\":7179:7180   */\n      0x00\n        /* \"#utility.yul\":7170:7176   */\n      dup4\n        /* \"#utility.yul\":7165:7168   */\n      dup4\n        /* \"#utility.yul\":7161:7177   */\n      add\n        /* \"#utility.yul\":7154:7181   */\n      mstore\n        /* \"#utility.yul\":7033:7187   */\n      pop\n      pop\n      pop\n      jump\t// out\n        /* \"#utility.yul\":7193:7500   */\n    tag_157:\n        /* \"#utility.yul\":7261:7262   */\n      0x00\n        /* \"#utility.yul\":7271:7384   */\n    tag_214:\n        /* \"#utility.yul\":7285:7291   */\n      dup4\n        /* \"#utility.yul\":7282:7283   */\n      dup2\n        /* \"#utility.yul\":7279:7292   */\n      lt\n        /* \"#utility.yul\":7271:7384   */\n      iszero\n      tag_216\n      jumpi\n        /* \"#utility.yul\":7370:7371   */\n      dup1\n        /* \"#utility.yul\":7365:7368   */\n      dup3\n        /* \"#utility.yul\":7361:7372   */\n      add\n        /* \"#utility.yul\":7355:7373   */\n      mload\n        /* \"#utility.yul\":7351:7352   */\n      dup2\n        /* \"#utility.yul\":7346:7349   */\n      dup5\n        /* \"#utility.yul\":7342:7353   */\n      add\n        /* \"#utility.yul\":7335:7374   */\n      mstore\n        /* \"#utility.yul\":7307:7309   */\n      0x20\n        /* \"#utility.yul\":7304:7305   */\n      dup2\n        /* \"#utility.yul\":7300:7310   */\n      add\n        /* \"#utility.yul\":7295:7310   */\n      swap1\n      pop\n        /* \"#utility.yul\":7271:7384   */\n      jump(tag_214)\n    tag_216:\n        /* \"#utility.yul\":7402:7408   */\n      dup4\n        /* \"#utility.yul\":7399:7400   */\n      dup2\n        /* \"#utility.yul\":7396:7409   */\n      gt\n        /* \"#utility.yul\":7393:7494   */\n      iszero\n      tag_217\n      jumpi\n        /* \"#utility.yul\":7482:7483   */\n      0x00\n        /* \"#utility.yul\":7473:7479   */\n      dup5\n        /* \"#utility.yul\":7468:7471   */\n      dup5\n        /* \"#utility.yul\":7464:7480   */\n      add\n        /* \"#utility.yul\":7457:7484   */\n      mstore\n        /* \"#utility.yul\":7393:7494   */\n    tag_217:\n        /* \"#utility.yul\":7242:7500   */\n      pop\n        /* \"#utility.yul\":7193:7500   */\n      pop\n      pop\n      pop\n      jump\t// out\n        /* \"#utility.yul\":7506:7826   */\n    tag_44:\n        /* \"#utility.yul\":7550:7556   */\n      0x00\n        /* \"#utility.yul\":7587:7588   */\n      0x02\n        /* \"#utility.yul\":7581:7585   */\n      dup3\n        /* \"#utility.yul\":7577:7589   */\n      div\n        /* \"#utility.yul\":7567:7589   */\n      swap1\n      pop\n        /* \"#utility.yul\":7634:7635   */\n      0x01\n        /* \"#utility.yul\":7628:7632   */\n      dup3\n        /* \"#utility.yul\":7624:7636   */\n      and\n        /* \"#utility.yul\":7655:7673   */\n      dup1\n        /* \"#utility.yul\":7645:7726   */\n      tag_219\n      jumpi\n        /* \"#utility.yul\":7711:7715   */\n      0x7f\n        /* \"#utility.yul\":7703:7709   */\n      dup3\n        /* \"#utility.yul\":7699:7716   */\n      and\n        /* \"#utility.yul\":7689:7716   */\n      swap2\n      pop\n        /* \"#utility.yul\":7645:7726   */\n    tag_219:\n        /* \"#utility.yul\":7773:7775   */\n      0x20\n        /* \"#utility.yul\":7765:7771   */\n      dup3\n        /* \"#utility.yul\":7762:7776   */\n      lt\n        /* \"#utility.yul\":7742:7760   */\n      dup2\n        /* \"#utility.yul\":7739:7777   */\n      eq\n        /* \"#utility.yul\":7736:7820   */\n      iszero\n      tag_220\n      jumpi\n        /* \"#utility.yul\":7792:7810   */\n      tag_221\n      tag_222\n      jump\t// in\n    tag_221:\n        /* \"#utility.yul\":7736:7820   */\n    tag_220:\n        /* \"#utility.yul\":7557:7826   */\n      pop\n        /* \"#utility.yul\":7506:7826   */\n      swap2\n      swap1\n      pop\n      jump\t// out\n        /* \"#utility.yul\":7832:8113   */\n    tag_185:\n        /* \"#utility.yul\":7915:7942   */\n      tag_224\n        /* \"#utility.yul\":7937:7941   */\n      dup3\n        /* \"#utility.yul\":7915:7942   */\n      tag_159\n      jump\t// in\n    tag_224:\n        /* \"#utility.yul\":7907:7913   */\n      dup2\n        /* \"#utility.yul\":7903:7943   */\n      add\n        /* \"#utility.yul\":8045:8051   */\n      dup2\n        /* \"#utility.yul\":8033:8043   */\n      dup2\n        /* \"#utility.yul\":8030:8052   */\n      lt\n        /* \"#utility.yul\":8009:8027   */\n      0xffffffffffffffff\n        /* \"#utility.yul\":7997:8007   */\n      dup3\n        /* \"#utility.yul\":7994:8028   */\n      gt\n        /* \"#utility.yul\":7991:8053   */\n      or\n        /* \"#utility.yul\":7988:8076   */\n      iszero\n      tag_225\n      jumpi\n        /* \"#utility.yul\":8056:8074   */\n      tag_226\n      tag_190\n      jump\t// in\n    tag_226:\n        /* \"#utility.yul\":7988:8076   */\n    tag_225:\n        /* \"#utility.yul\":8096:8106   */\n      dup1\n        /* \"#utility.yul\":8092:8094   */\n      0x40\n        /* \"#utility.yul\":8085:8107   */\n      mstore\n        /* \"#utility.yul\":7875:8113   */\n      pop\n        /* \"#utility.yul\":7832:8113   */\n      pop\n      pop\n      jump\t// out\n        /* \"#utility.yul\":8119:8299   */\n    tag_199:\n        /* \"#utility.yul\":8167:8244   */\n      0x4e487b7100000000000000000000000000000000000000000000000000000000\n        /* \"#utility.yul\":8164:8165   */\n      0x00\n        /* \"#utility.yul\":8157:8245   */\n      mstore\n        /* \"#utility.yul\":8264:8268   */\n      0x11\n        /* \"#utility.yul\":8261:8262   */\n      0x04\n        /* \"#utility.yul\":8254:8269   */\n      mstore\n        /* \"#utility.yul\":8288:8292   */\n      0x24\n        /* \"#utility.yul\":8285:8286   */\n      0x00\n        /* \"#utility.yul\":8278:8293   */\n      revert\n        /* \"#utility.yul\":8305:8485   */\n    tag_56:\n        /* \"#utility.yul\":8353:8430   */\n      0x4e487b7100000000000000000000000000000000000000000000000000000000\n        /* \"#utility.yul\":8350:8351   */\n      0x00\n        /* \"#utility.yul\":8343:8431   */\n      mstore\n        /* \"#utility.yul\":8450:8454   */\n      0x21\n        /* \"#utility.yul\":8447:8448   */\n      0x04\n        /* \"#utility.yul\":8440:8455   */\n      mstore\n        /* \"#utility.yul\":8474:8478   */\n      0x24\n        /* \"#utility.yul\":8471:8472   */\n      0x00\n        /* \"#utility.yul\":8464:8479   */\n      revert\n        /* \"#utility.yul\":8491:8671   */\n    tag_222:\n        /* \"#utility.yul\":8539:8616   */\n      0x4e487b7100000000000000000000000000000000000000000000000000000000\n        /* \"#utility.yul\":8536:8537   */\n      0x00\n        /* \"#utility.yul\":8529:8617   */\n      mstore\n        /* \"#utility.yul\":8636:8640   */\n      0x22\n        /* \"#utility.yul\":8633:8634   */\n      0x04\n        /* \"#utility.yul\":8626:8641   */\n      mstore\n        /* \"#utility.yul\":8660:8664   */\n      0x24\n        /* \"#utility.yul\":8657:8658   */\n      0x00\n        /* \"#utility.yul\":8650:8665   */\n      revert\n        /* \"#utility.yul\":8677:8857   */\n    tag_190:\n        /* \"#utility.yul\":8725:8802   */\n      0x4e487b7100000000000000000000000000000000000000000000000000000000\n        /* \"#utility.yul\":8722:8723   */\n      0x00\n        /* \"#utility.yul\":8715:8803   */\n      mstore\n        /* \"#utility.yul\":8822:8826   */\n      0x41\n        /* \"#utility.yul\":8819:8820   */\n      0x04\n        /* \"#utility.yul\":8812:8827   */\n      mstore\n        /* \"#utility.yul\":8846:8850   */\n      0x24\n        /* \"#utility.yul\":8843:8844   */\n      0x00\n        /* \"#utility.yul\":8836:8851   */\n      revert\n        /* \"#utility.yul\":8863:8980   */\n    tag_124:\n        /* \"#utility.yul\":8972:8973   */\n      0x00\n        /* \"#utility.yul\":8969:8970   */\n      dup1\n        /* \"#utility.yul\":8962:8974   */\n      revert\n        /* \"#utility.yul\":8986:9103   */\n    tag_113:\n        /* \"#utility.yul\":9095:9096   */\n      0x00\n        /* \"#utility.yul\":9092:9093   */\n      dup1\n        /* \"#utility.yul\":9085:9097   */\n      revert\n        /* \"#utility.yul\":9109:9226   */\n    tag_140:\n        /* \"#utility.yul\":9218:9219   */\n      0x00\n        /* \"#utility.yul\":9215:9216   */\n      dup1\n        /* \"#utility.yul\":9208:9220   */\n      revert\n        /* \"#utility.yul\":9232:9349   */\n    tag_133:\n        /* \"#utility.yul\":9341:9342   */\n      0x00\n        /* \"#utility.yul\":9338:9339   */\n      dup1\n        /* \"#utility.yul\":9331:9343   */\n      revert\n        /* \"#utility.yul\":9355:9457   */\n    tag_159:\n        /* \"#utility.yul\":9396:9402   */\n      0x00\n        /* \"#utility.yul\":9447:9449   */\n      0x1f\n        /* \"#utility.yul\":9443:9450   */\n      not\n        /* \"#utility.yul\":9438:9440   */\n      0x1f\n        /* \"#utility.yul\":9431:9436   */\n      dup4\n        /* \"#utility.yul\":9427:9441   */\n      add\n        /* \"#utility.yul\":9423:9451   */\n      and\n        /* \"#utility.yul\":9413:9451   */\n      swap1\n      pop\n        /* \"#utility.yul\":9355:9457   */\n      swap2\n      swap1\n      pop\n      jump\t// out\n        /* \"#utility.yul\":9463:9642   */\n    tag_164:\n        /* \"#utility.yul\":9603:9634   */\n      0x706c656173652073656c6563742074686520636c617373206669727374000000\n        /* \"#utility.yul\":9599:9600   */\n      0x00\n        /* \"#utility.yul\":9591:9597   */\n      dup3\n        /* \"#utility.yul\":9587:9601   */\n      add\n        /* \"#utility.yul\":9580:9635   */\n      mstore\n        /* \"#utility.yul\":9463:9642   */\n      pop\n      jump\t// out\n        /* \"#utility.yul\":9648:9766   */\n    tag_207:\n        /* \"#utility.yul\":9734:9735   */\n      0x03\n        /* \"#utility.yul\":9727:9732   */\n      dup2\n        /* \"#utility.yul\":9724:9736   */\n      lt\n        /* \"#utility.yul\":9714:9760   */\n      tag_238\n      jumpi\n        /* \"#utility.yul\":9740:9758   */\n      tag_239\n      tag_56\n      jump\t// in\n    tag_239:\n        /* \"#utility.yul\":9714:9760   */\n    tag_238:\n        /* \"#utility.yul\":9648:9766   */\n      pop\n      jump\t// out\n        /* \"#utility.yul\":9772:9894   */\n    tag_119:\n        /* \"#utility.yul\":9845:9869   */\n      tag_241\n        /* \"#utility.yul\":9863:9868   */\n      dup2\n        /* \"#utility.yul\":9845:9869   */\n      tag_200\n      jump\t// in\n    tag_241:\n        /* \"#utility.yul\":9838:9843   */\n      dup2\n        /* \"#utility.yul\":9835:9870   */\n      eq\n        /* \"#utility.yul\":9825:9888   */\n      tag_242\n      jumpi\n        /* \"#utility.yul\":9884:9885   */\n      0x00\n        /* \"#utility.yul\":9881:9882   */\n      dup1\n        /* \"#utility.yul\":9874:9886   */\n      revert\n        /* \"#utility.yul\":9825:9888   */\n    tag_242:\n        /* \"#utility.yul\":9772:9894   */\n      pop\n      jump\t// out\n        /* \"#utility.yul\":9900:10022   */\n    tag_129:\n        /* \"#utility.yul\":9973:9997   */\n      tag_244\n        /* \"#utility.yul\":9991:9996   */\n      dup2\n        /* \"#utility.yul\":9973:9997   */\n      tag_168\n      jump\t// in\n    tag_244:\n        /* \"#utility.yul\":9966:9971   */\n      dup2\n        /* \"#utility.yul\":9963:9998   */\n      eq\n        /* \"#utility.yul\":9953:10016   */\n      tag_245\n      jumpi\n        /* \"#utility.yul\":10012:10013   */\n      0x00\n        /* \"#utility.yul\":10009:10010   */\n      dup1\n        /* \"#utility.yul\":10002:10014   */\n      revert\n        /* \"#utility.yul\":9953:10016   */\n    tag_245:\n        /* \"#utility.yul\":9900:10022   */\n      pop\n      jump\t// out\n\n    auxdata: 0xa26469706673582212209ec53ccf967019bf616675d4816a70fe990111f60f672b816d149f93c369d1b264736f6c63430008070033\n}\n",
				"bytecode": {
					"linkReferences": {},
					"object": "608060405260008060006101000a81548160ff0219169083151502179055506040518060400160405280600d81526020017f45636f6e6f6d7920436c61737300000000000000000000000000000000000000815250600290805190602001906200006b929190620000bf565b506001600555670de0b6b3a76400006006556001600860006101000a81548160ff02191690836002811115620000a657620000a5620001a5565b5b0217905550348015620000b857600080fd5b5062000203565b828054620000cd906200016f565b90600052602060002090601f016020900481019282620000f157600085556200013d565b82601f106200010c57805160ff19168380011785556200013d565b828001600101855582156200013d579182015b828111156200013c5782518255916020019190600101906200011f565b5b5090506200014c919062000150565b5090565b5b808211156200016b57600081600090555060010162000151565b5090565b600060028204905060018216806200018857607f821691505b602082108114156200019f576200019e620001d4565b5b50919050565b7f4e487b7100000000000000000000000000000000000000000000000000000000600052602160045260246000fd5b7f4e487b7100000000000000000000000000000000000000000000000000000000600052602260045260246000fd5b610e1a80620002136000396000f3fe608060405234801561001057600080fd5b50600436106100885760003560e01c8063501835071161005b57806350183507146101035780637a1736d11461010d578063b24fa0e414610117578063b90d3d0c1461012157610088565b806309a8d3f51461008d57806317ae4589146100ab5780631aa35610146100c75780634fb2e0be146100e5575b600080fd5b610095610155565b6040516100a29190610aab565b60405180910390f35b6100c560048036038101906100c09190610903565b61015b565b005b6100cf61030d565b6040516100dc9190610a08565b60405180910390f35b6100ed610320565b6040516100fa9190610aab565b60405180910390f35b61010b610326565b005b610115610408565b005b61011f6104e9565b005b61013b600480360381019061013691906108d6565b6105cb565b60405161014c959493929190610a23565b60405180910390f35b60065481565b60008054906101000a900460ff166101a8576040517f08c379a000000000000000000000000000000000000000000000000000000000815260040161019f90610a8b565b60405180910390fd5b6040518060a00160405280848152602001838152602001828152602001600280546101d290610c35565b80601f01602080910402602001604051908101604052809291908181526020018280546101fe90610c35565b801561024b5780601f106102205761010080835404028352916020019161024b565b820191906000526020600020905b81548152906001019060200180831161022e57829003601f168201915b50505050508152602001600454815250600760003373ffffffffffffffffffffffffffffffffffffffff1673ffffffffffffffffffffffffffffffffffffffff16815260200190815260200160002060008201518160000190805190602001906102b6929190610799565b5060208201518160010190805190602001906102d3929190610799565b506040820151816002015560608201518160030190805190602001906102fa929190610799565b5060808201518160040155905050505050565b600860009054906101000a900460ff1681565b60055481565b6000600860006101000a81548160ff0219169083600281111561034c5761034b610cc7565b5b0217905550600860009054906101000a900460ff16600281111561037357610372610cc7565b5b600181905550600060015414156103ec576040518060400160405280600b81526020017f466972737420436c617373000000000000000000000000000000000000000000815250600290805190602001906103cf929190610799565b5066038d7ea4c680006005546103e59190610b38565b6004819055505b60016000806101000a81548160ff021916908315150217905550565b6001600860006101000a81548160ff0219169083600281111561042e5761042d610cc7565b5b0217905550600860009054906101000a900460ff16600281111561045557610454610cc7565b5b6001819055506001805414156104cd576040518060400160405280600d81526020017f45636f6e6f6d7920436c61737300000000000000000000000000000000000000815250600290805190602001906104b0929190610799565b506601c6bf526340006005546104c69190610b38565b6004819055505b60016000806101000a81548160ff021916908315150217905550565b6002600860006101000a81548160ff0219169083600281111561050f5761050e610cc7565b5b0217905550600860009054906101000a900460ff16600281111561053657610535610cc7565b5b600181905550600260015414156105af576040518060400160405280600d81526020017f4275736e69737320436c6173730000000000000000000000000000000000000081525060029080519060200190610592929190610799565b5066027ca57357c0006005546105a89190610b38565b6004819055505b60016000806101000a81548160ff021916908315150217905550565b60076020528060005260406000206000915090508060000180546105ee90610c35565b80601f016020809104026020016040519081016040528092919081815260200182805461061a90610c35565b80156106675780601f1061063c57610100808354040283529160200191610667565b820191906000526020600020905b81548152906001019060200180831161064a57829003601f168201915b50505050509080600101805461067c90610c35565b80601f01602080910402602001604051908101604052809291908181526020018280546106a890610c35565b80156106f55780601f106106ca576101008083540402835291602001916106f5565b820191906000526020600020905b8154815290600101906020018083116106d857829003601f168201915b50505050509080600201549080600301805461071090610c35565b80601f016020809104026020016040519081016040528092919081815260200182805461073c90610c35565b80156107895780601f1061075e57610100808354040283529160200191610789565b820191906000526020600020905b81548152906001019060200180831161076c57829003601f168201915b5050505050908060040154905085565b8280546107a590610c35565b90600052602060002090601f0160209004810192826107c7576000855561080e565b82601f106107e057805160ff191683800117855561080e565b8280016001018555821561080e579182015b8281111561080d5782518255916020019190600101906107f2565b5b50905061081b919061081f565b5090565b5b80821115610838576000816000905550600101610820565b5090565b600061084f61084a84610aeb565b610ac6565b90508281526020810184848401111561086b5761086a610d59565b5b610876848285610bf3565b509392505050565b60008135905061088d81610db6565b92915050565b600082601f8301126108a8576108a7610d54565b5b81356108b884826020860161083c565b91505092915050565b6000813590506108d081610dcd565b92915050565b6000602082840312156108ec576108eb610d63565b5b60006108fa8482850161087e565b91505092915050565b60008060006060848603121561091c5761091b610d63565b5b600084013567ffffffffffffffff81111561093a57610939610d5e565b5b61094686828701610893565b935050602084013567ffffffffffffffff81111561096757610966610d5e565b5b61097386828701610893565b9250506040610984868287016108c1565b9150509250925092565b61099781610be1565b82525050565b60006109a882610b1c565b6109b28185610b27565b93506109c2818560208601610c02565b6109cb81610d68565b840191505092915050565b60006109e3601d83610b27565b91506109ee82610d79565b602082019050919050565b610a0281610bd7565b82525050565b6000602082019050610a1d600083018461098e565b92915050565b600060a0820190508181036000830152610a3d818861099d565b90508181036020830152610a51818761099d565b9050610a6060408301866109f9565b8181036060830152610a72818561099d565b9050610a8160808301846109f9565b9695505050505050565b60006020820190508181036000830152610aa4816109d6565b9050919050565b6000602082019050610ac060008301846109f9565b92915050565b6000610ad0610ae1565b9050610adc8282610c67565b919050565b6000604051905090565b600067ffffffffffffffff821115610b0657610b05610d25565b5b610b0f82610d68565b9050602081019050919050565b600081519050919050565b600082825260208201905092915050565b6000610b4382610bd7565b9150610b4e83610bd7565b9250817fffffffffffffffffffffffffffffffffffffffffffffffffffffffffffffffff0483118215151615610b8757610b86610c98565b5b828202905092915050565b6000610b9d82610bb7565b9050919050565b6000819050610bb282610da2565b919050565b600073ffffffffffffffffffffffffffffffffffffffff82169050919050565b6000819050919050565b6000610bec82610ba4565b9050919050565b82818337600083830152505050565b60005b83811015610c20578082015181840152602081019050610c05565b83811115610c2f576000848401525b50505050565b60006002820490506001821680610c4d57607f821691505b60208210811415610c6157610c60610cf6565b5b50919050565b610c7082610d68565b810181811067ffffffffffffffff82111715610c8f57610c8e610d25565b5b80604052505050565b7f4e487b7100000000000000000000000000000000000000000000000000000000600052601160045260246000fd5b7f4e487b7100000000000000000000000000000000000000000000000000000000600052602160045260246000fd5b7f4e487b7100000000000000000000000000000000000000000000000000000000600052602260045260246000fd5b7f4e487b7100000000000000000000000000000000000000000000000000000000600052604160045260246000fd5b600080fd5b600080fd5b600080fd5b600080fd5b6000601f19601f8301169050919050565b7f706c656173652073656c6563742074686520636c617373206669727374000000600082015250565b60038110610db357610db2610cc7565b5b50565b610dbf81610b92565b8114610dca57600080fd5b50565b610dd681610bd7565b8114610de157600080fd5b5056fea26469706673582212209ec53ccf967019bf616675d4816a70fe990111f60f672b816d149f93c369d1b264736f6c63430008070033",
					"opcodes": "PUSH1 0x80 PUSH1 0x40 MSTORE PUSH1 0x0 DUP1 PUSH1 0x0 PUSH2 0x100 EXP DUP2 SLOAD DUP2 PUSH1 0xFF MUL NOT AND SWAP1 DUP4 ISZERO ISZERO MUL OR SWAP1 SSTORE POP PUSH1 0x40 MLOAD DUP1 PUSH1 0x40 ADD PUSH1 0x40 MSTORE DUP1 PUSH1 0xD DUP2 MSTORE PUSH1 0x20 ADD PUSH32 0x45636F6E6F6D7920436C61737300000000000000000000000000000000000000 DUP2 MSTORE POP PUSH1 0x2 SWAP1 DUP1 MLOAD SWAP1 PUSH1 0x20 ADD SWAP1 PUSH3 0x6B SWAP3 SWAP2 SWAP1 PUSH3 0xBF JUMP JUMPDEST POP PUSH1 0x1 PUSH1 0x5 SSTORE PUSH8 0xDE0B6B3A7640000 PUSH1 0x6 SSTORE PUSH1 0x1 PUSH1 0x8 PUSH1 0x0 PUSH2 0x100 EXP DUP2 SLOAD DUP2 PUSH1 0xFF MUL NOT AND SWAP1 DUP4 PUSH1 0x2 DUP2 GT ISZERO PUSH3 0xA6 JUMPI PUSH3 0xA5 PUSH3 0x1A5 JUMP JUMPDEST JUMPDEST MUL OR SWAP1 SSTORE POP CALLVALUE DUP1 ISZERO PUSH3 0xB8 JUMPI PUSH1 0x0 DUP1 REVERT JUMPDEST POP PUSH3 0x203 JUMP JUMPDEST DUP3 DUP1 SLOAD PUSH3 0xCD SWAP1 PUSH3 0x16F JUMP JUMPDEST SWAP1 PUSH1 0x0 MSTORE PUSH1 0x20 PUSH1 0x0 KECCAK256 SWAP1 PUSH1 0x1F ADD PUSH1 0x20 SWAP1 DIV DUP2 ADD SWAP3 DUP3 PUSH3 0xF1 JUMPI PUSH1 0x0 DUP6 SSTORE PUSH3 0x13D JUMP JUMPDEST DUP3 PUSH1 0x1F LT PUSH3 0x10C JUMPI DUP1 MLOAD PUSH1 0xFF NOT AND DUP4 DUP1 ADD OR DUP6 SSTORE PUSH3 0x13D JUMP JUMPDEST DUP3 DUP1 ADD PUSH1 0x1 ADD DUP6 SSTORE DUP3 ISZERO PUSH3 0x13D JUMPI SWAP2 DUP3 ADD JUMPDEST DUP3 DUP2 GT ISZERO PUSH3 0x13C JUMPI DUP3 MLOAD DUP3 SSTORE SWAP2 PUSH1 0x20 ADD SWAP2 SWAP1 PUSH1 0x1 ADD SWAP1 PUSH3 0x11F JUMP JUMPDEST JUMPDEST POP SWAP1 POP PUSH3 0x14C SWAP2 SWAP1 PUSH3 0x150 JUMP JUMPDEST POP SWAP1 JUMP JUMPDEST JUMPDEST DUP1 DUP3 GT ISZERO PUSH3 0x16B JUMPI PUSH1 0x0 DUP2 PUSH1 0x0 SWAP1 SSTORE POP PUSH1 0x1 ADD PUSH3 0x151 JUMP JUMPDEST POP SWAP1 JUMP JUMPDEST PUSH1 0x0 PUSH1 0x2 DUP3 DIV SWAP1 POP PUSH1 0x1 DUP3 AND DUP1 PUSH3 0x188 JUMPI PUSH1 0x7F DUP3 AND SWAP2 POP JUMPDEST PUSH1 0x20 DUP3 LT DUP2 EQ ISZERO PUSH3 0x19F JUMPI PUSH3 0x19E PUSH3 0x1D4 JUMP JUMPDEST JUMPDEST POP SWAP2 SWAP1 POP JUMP JUMPDEST PUSH32 0x4E487B7100000000000000000000000000000000000000000000000000000000 PUSH1 0x0 MSTORE PUSH1 0x21 PUSH1 0x4 MSTORE PUSH1 0x24 PUSH1 0x0 REVERT JUMPDEST PUSH32 0x4E487B7100000000000000000000000000000000000000000000000000000000 PUSH1 0x0 MSTORE PUSH1 0x22 PUSH1 0x4 MSTORE PUSH1 0x24 PUSH1 0x0 REVERT JUMPDEST PUSH2 0xE1A DUP1 PUSH3 0x213 PUSH1 0x0 CODECOPY PUSH1 0x0 RETURN INVALID PUSH1 0x80 PUSH1 0x40 MSTORE CALLVALUE DUP1 ISZERO PUSH2 0x10 JUMPI PUSH1 0x0 DUP1 REVERT JUMPDEST POP PUSH1 0x4 CALLDATASIZE LT PUSH2 0x88 JUMPI PUSH1 0x0 CALLDATALOAD PUSH1 0xE0 SHR DUP1 PUSH4 0x50183507 GT PUSH2 0x5B JUMPI DUP1 PUSH4 0x50183507 EQ PUSH2 0x103 JUMPI DUP1 PUSH4 0x7A1736D1 EQ PUSH2 0x10D JUMPI DUP1 PUSH4 0xB24FA0E4 EQ PUSH2 0x117 JUMPI DUP1 PUSH4 0xB90D3D0C EQ PUSH2 0x121 JUMPI PUSH2 0x88 JUMP JUMPDEST DUP1 PUSH4 0x9A8D3F5 EQ PUSH2 0x8D JUMPI DUP1 PUSH4 0x17AE4589 EQ PUSH2 0xAB JUMPI DUP1 PUSH4 0x1AA35610 EQ PUSH2 0xC7 JUMPI DUP1 PUSH4 0x4FB2E0BE EQ PUSH2 0xE5 JUMPI JUMPDEST PUSH1 0x0 DUP1 REVERT JUMPDEST PUSH2 0x95 PUSH2 0x155 JUMP JUMPDEST PUSH1 0x40 MLOAD PUSH2 0xA2 SWAP2 SWAP1 PUSH2 0xAAB JUMP JUMPDEST PUSH1 0x40 MLOAD DUP1 SWAP2 SUB SWAP1 RETURN JUMPDEST PUSH2 0xC5 PUSH1 0x4 DUP1 CALLDATASIZE SUB DUP2 ADD SWAP1 PUSH2 0xC0 SWAP2 SWAP1 PUSH2 0x903 JUMP JUMPDEST PUSH2 0x15B JUMP JUMPDEST STOP JUMPDEST PUSH2 0xCF PUSH2 0x30D JUMP JUMPDEST PUSH1 0x40 MLOAD PUSH2 0xDC SWAP2 SWAP1 PUSH2 0xA08 JUMP JUMPDEST PUSH1 0x40 MLOAD DUP1 SWAP2 SUB SWAP1 RETURN JUMPDEST PUSH2 0xED PUSH2 0x320 JUMP JUMPDEST PUSH1 0x40 MLOAD PUSH2 0xFA SWAP2 SWAP1 PUSH2 0xAAB JUMP JUMPDEST PUSH1 0x40 MLOAD DUP1 SWAP2 SUB SWAP1 RETURN JUMPDEST PUSH2 0x10B PUSH2 0x326 JUMP JUMPDEST STOP JUMPDEST PUSH2 0x115 PUSH2 0x408 JUMP JUMPDEST STOP JUMPDEST PUSH2 0x11F PUSH2 0x4E9 JUMP JUMPDEST STOP JUMPDEST PUSH2 0x13B PUSH1 0x4 DUP1 CALLDATASIZE SUB DUP2 ADD SWAP1 PUSH2 0x136 SWAP2 SWAP1 PUSH2 0x8D6 JUMP JUMPDEST PUSH2 0x5CB JUMP JUMPDEST PUSH1 0x40 MLOAD PUSH2 0x14C SWAP6 SWAP5 SWAP4 SWAP3 SWAP2 SWAP1 PUSH2 0xA23 JUMP JUMPDEST PUSH1 0x40 MLOAD DUP1 SWAP2 SUB SWAP1 RETURN JUMPDEST PUSH1 0x6 SLOAD DUP2 JUMP JUMPDEST PUSH1 0x0 DUP1 SLOAD SWAP1 PUSH2 0x100 EXP SWAP1 DIV PUSH1 0xFF AND PUSH2 0x1A8 JUMPI PUSH1 0x40 MLOAD PUSH32 0x8C379A000000000000000000000000000000000000000000000000000000000 DUP2 MSTORE PUSH1 0x4 ADD PUSH2 0x19F SWAP1 PUSH2 0xA8B JUMP JUMPDEST PUSH1 0x40 MLOAD DUP1 SWAP2 SUB SWAP1 REVERT JUMPDEST PUSH1 0x40 MLOAD DUP1 PUSH1 0xA0 ADD PUSH1 0x40 MSTORE DUP1 DUP5 DUP2 MSTORE PUSH1 0x20 ADD DUP4 DUP2 MSTORE PUSH1 0x20 ADD DUP3 DUP2 MSTORE PUSH1 0x20 ADD PUSH1 0x2 DUP1 SLOAD PUSH2 0x1D2 SWAP1 PUSH2 0xC35 JUMP JUMPDEST DUP1 PUSH1 0x1F ADD PUSH1 0x20 DUP1 SWAP2 DIV MUL PUSH1 0x20 ADD PUSH1 0x40 MLOAD SWAP1 DUP2 ADD PUSH1 0x40 MSTORE DUP1 SWAP3 SWAP2 SWAP1 DUP2 DUP2 MSTORE PUSH1 0x20 ADD DUP3 DUP1 SLOAD PUSH2 0x1FE SWAP1 PUSH2 0xC35 JUMP JUMPDEST DUP1 ISZERO PUSH2 0x24B JUMPI DUP1 PUSH1 0x1F LT PUSH2 0x220 JUMPI PUSH2 0x100 DUP1 DUP4 SLOAD DIV MUL DUP4 MSTORE SWAP2 PUSH1 0x20 ADD SWAP2 PUSH2 0x24B JUMP JUMPDEST DUP3 ADD SWAP2 SWAP1 PUSH1 0x0 MSTORE PUSH1 0x20 PUSH1 0x0 KECCAK256 SWAP1 JUMPDEST DUP2 SLOAD DUP2 MSTORE SWAP1 PUSH1 0x1 ADD SWAP1 PUSH1 0x20 ADD DUP1 DUP4 GT PUSH2 0x22E JUMPI DUP3 SWAP1 SUB PUSH1 0x1F AND DUP3 ADD SWAP2 JUMPDEST POP POP POP POP POP DUP2 MSTORE PUSH1 0x20 ADD PUSH1 0x4 SLOAD DUP2 MSTORE POP PUSH1 0x7 PUSH1 0x0 CALLER PUSH20 0xFFFFFFFFFFFFFFFFFFFFFFFFFFFFFFFFFFFFFFFF AND PUSH20 0xFFFFFFFFFFFFFFFFFFFFFFFFFFFFFFFFFFFFFFFF AND DUP2 MSTORE PUSH1 0x20 ADD SWAP1 DUP2 MSTORE PUSH1 0x20 ADD PUSH1 0x0 KECCAK256 PUSH1 0x0 DUP3 ADD MLOAD DUP2 PUSH1 0x0 ADD SWAP1 DUP1 MLOAD SWAP1 PUSH1 0x20 ADD SWAP1 PUSH2 0x2B6 SWAP3 SWAP2 SWAP1 PUSH2 0x799 JUMP JUMPDEST POP PUSH1 0x20 DUP3 ADD MLOAD DUP2 PUSH1 0x1 ADD SWAP1 DUP1 MLOAD SWAP1 PUSH1 0x20 ADD SWAP1 PUSH2 0x2D3 SWAP3 SWAP2 SWAP1 PUSH2 0x799 JUMP JUMPDEST POP PUSH1 0x40 DUP3 ADD MLOAD DUP2 PUSH1 0x2 ADD SSTORE PUSH1 0x60 DUP3 ADD MLOAD DUP2 PUSH1 0x3 ADD SWAP1 DUP1 MLOAD SWAP1 PUSH1 0x20 ADD SWAP1 PUSH2 0x2FA SWAP3 SWAP2 SWAP1 PUSH2 0x799 JUMP JUMPDEST POP PUSH1 0x80 DUP3 ADD MLOAD DUP2 PUSH1 0x4 ADD SSTORE SWAP1 POP POP POP POP POP JUMP JUMPDEST PUSH1 0x8 PUSH1 0x0 SWAP1 SLOAD SWAP1 PUSH2 0x100 EXP SWAP1 DIV PUSH1 0xFF AND DUP2 JUMP JUMPDEST PUSH1 0x5 SLOAD DUP2 JUMP JUMPDEST PUSH1 0x0 PUSH1 0x8 PUSH1 0x0 PUSH2 0x100 EXP DUP2 SLOAD DUP2 PUSH1 0xFF MUL NOT AND SWAP1 DUP4 PUSH1 0x2 DUP2 GT ISZERO PUSH2 0x34C JUMPI PUSH2 0x34B PUSH2 0xCC7 JUMP JUMPDEST JUMPDEST MUL OR SWAP1 SSTORE POP PUSH1 0x8 PUSH1 0x0 SWAP1 SLOAD SWAP1 PUSH2 0x100 EXP SWAP1 DIV PUSH1 0xFF AND PUSH1 0x2 DUP2 GT ISZERO PUSH2 0x373 JUMPI PUSH2 0x372 PUSH2 0xCC7 JUMP JUMPDEST JUMPDEST PUSH1 0x1 DUP2 SWAP1 SSTORE POP PUSH1 0x0 PUSH1 0x1 SLOAD EQ ISZERO PUSH2 0x3EC JUMPI PUSH1 0x40 MLOAD DUP1 PUSH1 0x40 ADD PUSH1 0x40 MSTORE DUP1 PUSH1 0xB DUP2 MSTORE PUSH1 0x20 ADD PUSH32 0x466972737420436C617373000000000000000000000000000000000000000000 DUP2 MSTORE POP PUSH1 0x2 SWAP1 DUP1 MLOAD SWAP1 PUSH1 0x20 ADD SWAP1 PUSH2 0x3CF SWAP3 SWAP2 SWAP1 PUSH2 0x799 JUMP JUMPDEST POP PUSH7 0x38D7EA4C68000 PUSH1 0x5 SLOAD PUSH2 0x3E5 SWAP2 SWAP1 PUSH2 0xB38 JUMP JUMPDEST PUSH1 0x4 DUP2 SWAP1 SSTORE POP JUMPDEST PUSH1 0x1 PUSH1 0x0 DUP1 PUSH2 0x100 EXP DUP2 SLOAD DUP2 PUSH1 0xFF MUL NOT AND SWAP1 DUP4 ISZERO ISZERO MUL OR SWAP1 SSTORE POP JUMP JUMPDEST PUSH1 0x1 PUSH1 0x8 PUSH1 0x0 PUSH2 0x100 EXP DUP2 SLOAD DUP2 PUSH1 0xFF MUL NOT AND SWAP1 DUP4 PUSH1 0x2 DUP2 GT ISZERO PUSH2 0x42E JUMPI PUSH2 0x42D PUSH2 0xCC7 JUMP JUMPDEST JUMPDEST MUL OR SWAP1 SSTORE POP PUSH1 0x8 PUSH1 0x0 SWAP1 SLOAD SWAP1 PUSH2 0x100 EXP SWAP1 DIV PUSH1 0xFF AND PUSH1 0x2 DUP2 GT ISZERO PUSH2 0x455 JUMPI PUSH2 0x454 PUSH2 0xCC7 JUMP JUMPDEST JUMPDEST PUSH1 0x1 DUP2 SWAP1 SSTORE POP PUSH1 0x1 DUP1 SLOAD EQ ISZERO PUSH2 0x4CD JUMPI PUSH1 0x40 MLOAD DUP1 PUSH1 0x40 ADD PUSH1 0x40 MSTORE DUP1 PUSH1 0xD DUP2 MSTORE PUSH1 0x20 ADD PUSH32 0x45636F6E6F6D7920436C61737300000000000000000000000000000000000000 DUP2 MSTORE POP PUSH1 0x2 SWAP1 DUP1 MLOAD SWAP1 PUSH1 0x20 ADD SWAP1 PUSH2 0x4B0 SWAP3 SWAP2 SWAP1 PUSH2 0x799 JUMP JUMPDEST POP PUSH7 0x1C6BF52634000 PUSH1 0x5 SLOAD PUSH2 0x4C6 SWAP2 SWAP1 PUSH2 0xB38 JUMP JUMPDEST PUSH1 0x4 DUP2 SWAP1 SSTORE POP JUMPDEST PUSH1 0x1 PUSH1 0x0 DUP1 PUSH2 0x100 EXP DUP2 SLOAD DUP2 PUSH1 0xFF MUL NOT AND SWAP1 DUP4 ISZERO ISZERO MUL OR SWAP1 SSTORE POP JUMP JUMPDEST PUSH1 0x2 PUSH1 0x8 PUSH1 0x0 PUSH2 0x100 EXP DUP2 SLOAD DUP2 PUSH1 0xFF MUL NOT AND SWAP1 DUP4 PUSH1 0x2 DUP2 GT ISZERO PUSH2 0x50F JUMPI PUSH2 0x50E PUSH2 0xCC7 JUMP JUMPDEST JUMPDEST MUL OR SWAP1 SSTORE POP PUSH1 0x8 PUSH1 0x0 SWAP1 SLOAD SWAP1 PUSH2 0x100 EXP SWAP1 DIV PUSH1 0xFF AND PUSH1 0x2 DUP2 GT ISZERO PUSH2 0x536 JUMPI PUSH2 0x535 PUSH2 0xCC7 JUMP JUMPDEST JUMPDEST PUSH1 0x1 DUP2 SWAP1 SSTORE POP PUSH1 0x2 PUSH1 0x1 SLOAD EQ ISZERO PUSH2 0x5AF JUMPI PUSH1 0x40 MLOAD DUP1 PUSH1 0x40 ADD PUSH1 0x40 MSTORE DUP1 PUSH1 0xD DUP2 MSTORE PUSH1 0x20 ADD PUSH32 0x4275736E69737320436C61737300000000000000000000000000000000000000 DUP2 MSTORE POP PUSH1 0x2 SWAP1 DUP1 MLOAD SWAP1 PUSH1 0x20 ADD SWAP1 PUSH2 0x592 SWAP3 SWAP2 SWAP1 PUSH2 0x799 JUMP JUMPDEST POP PUSH7 0x27CA57357C000 PUSH1 0x5 SLOAD PUSH2 0x5A8 SWAP2 SWAP1 PUSH2 0xB38 JUMP JUMPDEST PUSH1 0x4 DUP2 SWAP1 SSTORE POP JUMPDEST PUSH1 0x1 PUSH1 0x0 DUP1 PUSH2 0x100 EXP DUP2 SLOAD DUP2 PUSH1 0xFF MUL NOT AND SWAP1 DUP4 ISZERO ISZERO MUL OR SWAP1 SSTORE POP JUMP JUMPDEST PUSH1 0x7 PUSH1 0x20 MSTORE DUP1 PUSH1 0x0 MSTORE PUSH1 0x40 PUSH1 0x0 KECCAK256 PUSH1 0x0 SWAP2 POP SWAP1 POP DUP1 PUSH1 0x0 ADD DUP1 SLOAD PUSH2 0x5EE SWAP1 PUSH2 0xC35 JUMP JUMPDEST DUP1 PUSH1 0x1F ADD PUSH1 0x20 DUP1 SWAP2 DIV MUL PUSH1 0x20 ADD PUSH1 0x40 MLOAD SWAP1 DUP2 ADD PUSH1 0x40 MSTORE DUP1 SWAP3 SWAP2 SWAP1 DUP2 DUP2 MSTORE PUSH1 0x20 ADD DUP3 DUP1 SLOAD PUSH2 0x61A SWAP1 PUSH2 0xC35 JUMP JUMPDEST DUP1 ISZERO PUSH2 0x667 JUMPI DUP1 PUSH1 0x1F LT PUSH2 0x63C JUMPI PUSH2 0x100 DUP1 DUP4 SLOAD DIV MUL DUP4 MSTORE SWAP2 PUSH1 0x20 ADD SWAP2 PUSH2 0x667 JUMP JUMPDEST DUP3 ADD SWAP2 SWAP1 PUSH1 0x0 MSTORE PUSH1 0x20 PUSH1 0x0 KECCAK256 SWAP1 JUMPDEST DUP2 SLOAD DUP2 MSTORE SWAP1 PUSH1 0x1 ADD SWAP1 PUSH1 0x20 ADD DUP1 DUP4 GT PUSH2 0x64A JUMPI DUP3 SWAP1 SUB PUSH1 0x1F AND DUP3 ADD SWAP2 JUMPDEST POP POP POP POP POP SWAP1 DUP1 PUSH1 0x1 ADD DUP1 SLOAD PUSH2 0x67C SWAP1 PUSH2 0xC35 JUMP JUMPDEST DUP1 PUSH1 0x1F ADD PUSH1 0x20 DUP1 SWAP2 DIV MUL PUSH1 0x20 ADD PUSH1 0x40 MLOAD SWAP1 DUP2 ADD PUSH1 0x40 MSTORE DUP1 SWAP3 SWAP2 SWAP1 DUP2 DUP2 MSTORE PUSH1 0x20 ADD DUP3 DUP1 SLOAD PUSH2 0x6A8 SWAP1 PUSH2 0xC35 JUMP JUMPDEST DUP1 ISZERO PUSH2 0x6F5 JUMPI DUP1 PUSH1 0x1F LT PUSH2 0x6CA JUMPI PUSH2 0x100 DUP1 DUP4 SLOAD DIV MUL DUP4 MSTORE SWAP2 PUSH1 0x20 ADD SWAP2 PUSH2 0x6F5 JUMP JUMPDEST DUP3 ADD SWAP2 SWAP1 PUSH1 0x0 MSTORE PUSH1 0x20 PUSH1 0x0 KECCAK256 SWAP1 JUMPDEST DUP2 SLOAD DUP2 MSTORE SWAP1 PUSH1 0x1 ADD SWAP1 PUSH1 0x20 ADD DUP1 DUP4 GT PUSH2 0x6D8 JUMPI DUP3 SWAP1 SUB PUSH1 0x1F AND DUP3 ADD SWAP2 JUMPDEST POP POP POP POP POP SWAP1 DUP1 PUSH1 0x2 ADD SLOAD SWAP1 DUP1 PUSH1 0x3 ADD DUP1 SLOAD PUSH2 0x710 SWAP1 PUSH2 0xC35 JUMP JUMPDEST DUP1 PUSH1 0x1F ADD PUSH1 0x20 DUP1 SWAP2 DIV MUL PUSH1 0x20 ADD PUSH1 0x40 MLOAD SWAP1 DUP2 ADD PUSH1 0x40 MSTORE DUP1 SWAP3 SWAP2 SWAP1 DUP2 DUP2 MSTORE PUSH1 0x20 ADD DUP3 DUP1 SLOAD PUSH2 0x73C SWAP1 PUSH2 0xC35 JUMP JUMPDEST DUP1 ISZERO PUSH2 0x789 JUMPI DUP1 PUSH1 0x1F LT PUSH2 0x75E JUMPI PUSH2 0x100 DUP1 DUP4 SLOAD DIV MUL DUP4 MSTORE SWAP2 PUSH1 0x20 ADD SWAP2 PUSH2 0x789 JUMP JUMPDEST DUP3 ADD SWAP2 SWAP1 PUSH1 0x0 MSTORE PUSH1 0x20 PUSH1 0x0 KECCAK256 SWAP1 JUMPDEST DUP2 SLOAD DUP2 MSTORE SWAP1 PUSH1 0x1 ADD SWAP1 PUSH1 0x20 ADD DUP1 DUP4 GT PUSH2 0x76C JUMPI DUP3 SWAP1 SUB PUSH1 0x1F AND DUP3 ADD SWAP2 JUMPDEST POP POP POP POP POP SWAP1 DUP1 PUSH1 0x4 ADD SLOAD SWAP1 POP DUP6 JUMP JUMPDEST DUP3 DUP1 SLOAD PUSH2 0x7A5 SWAP1 PUSH2 0xC35 JUMP JUMPDEST SWAP1 PUSH1 0x0 MSTORE PUSH1 0x20 PUSH1 0x0 KECCAK256 SWAP1 PUSH1 0x1F ADD PUSH1 0x20 SWAP1 DIV DUP2 ADD SWAP3 DUP3 PUSH2 0x7C7 JUMPI PUSH1 0x0 DUP6 SSTORE PUSH2 0x80E JUMP JUMPDEST DUP3 PUSH1 0x1F LT PUSH2 0x7E0 JUMPI DUP1 MLOAD PUSH1 0xFF NOT AND DUP4 DUP1 ADD OR DUP6 SSTORE PUSH2 0x80E JUMP JUMPDEST DUP3 DUP1 ADD PUSH1 0x1 ADD DUP6 SSTORE DUP3 ISZERO PUSH2 0x80E JUMPI SWAP2 DUP3 ADD JUMPDEST DUP3 DUP2 GT ISZERO PUSH2 0x80D JUMPI DUP3 MLOAD DUP3 SSTORE SWAP2 PUSH1 0x20 ADD SWAP2 SWAP1 PUSH1 0x1 ADD SWAP1 PUSH2 0x7F2 JUMP JUMPDEST JUMPDEST POP SWAP1 POP PUSH2 0x81B SWAP2 SWAP1 PUSH2 0x81F JUMP JUMPDEST POP SWAP1 JUMP JUMPDEST JUMPDEST DUP1 DUP3 GT ISZERO PUSH2 0x838 JUMPI PUSH1 0x0 DUP2 PUSH1 0x0 SWAP1 SSTORE POP PUSH1 0x1 ADD PUSH2 0x820 JUMP JUMPDEST POP SWAP1 JUMP JUMPDEST PUSH1 0x0 PUSH2 0x84F PUSH2 0x84A DUP5 PUSH2 0xAEB JUMP JUMPDEST PUSH2 0xAC6 JUMP JUMPDEST SWAP1 POP DUP3 DUP2 MSTORE PUSH1 0x20 DUP2 ADD DUP5 DUP5 DUP5 ADD GT ISZERO PUSH2 0x86B JUMPI PUSH2 0x86A PUSH2 0xD59 JUMP JUMPDEST JUMPDEST PUSH2 0x876 DUP5 DUP3 DUP6 PUSH2 0xBF3 JUMP JUMPDEST POP SWAP4 SWAP3 POP POP POP JUMP JUMPDEST PUSH1 0x0 DUP2 CALLDATALOAD SWAP1 POP PUSH2 0x88D DUP2 PUSH2 0xDB6 JUMP JUMPDEST SWAP3 SWAP2 POP POP JUMP JUMPDEST PUSH1 0x0 DUP3 PUSH1 0x1F DUP4 ADD SLT PUSH2 0x8A8 JUMPI PUSH2 0x8A7 PUSH2 0xD54 JUMP JUMPDEST JUMPDEST DUP2 CALLDATALOAD PUSH2 0x8B8 DUP5 DUP3 PUSH1 0x20 DUP7 ADD PUSH2 0x83C JUMP JUMPDEST SWAP2 POP POP SWAP3 SWAP2 POP POP JUMP JUMPDEST PUSH1 0x0 DUP2 CALLDATALOAD SWAP1 POP PUSH2 0x8D0 DUP2 PUSH2 0xDCD JUMP JUMPDEST SWAP3 SWAP2 POP POP JUMP JUMPDEST PUSH1 0x0 PUSH1 0x20 DUP3 DUP5 SUB SLT ISZERO PUSH2 0x8EC JUMPI PUSH2 0x8EB PUSH2 0xD63 JUMP JUMPDEST JUMPDEST PUSH1 0x0 PUSH2 0x8FA DUP5 DUP3 DUP6 ADD PUSH2 0x87E JUMP JUMPDEST SWAP2 POP POP SWAP3 SWAP2 POP POP JUMP JUMPDEST PUSH1 0x0 DUP1 PUSH1 0x0 PUSH1 0x60 DUP5 DUP7 SUB SLT ISZERO PUSH2 0x91C JUMPI PUSH2 0x91B PUSH2 0xD63 JUMP JUMPDEST JUMPDEST PUSH1 0x0 DUP5 ADD CALLDATALOAD PUSH8 0xFFFFFFFFFFFFFFFF DUP2 GT ISZERO PUSH2 0x93A JUMPI PUSH2 0x939 PUSH2 0xD5E JUMP JUMPDEST JUMPDEST PUSH2 0x946 DUP7 DUP3 DUP8 ADD PUSH2 0x893 JUMP JUMPDEST SWAP4 POP POP PUSH1 0x20 DUP5 ADD CALLDATALOAD PUSH8 0xFFFFFFFFFFFFFFFF DUP2 GT ISZERO PUSH2 0x967 JUMPI PUSH2 0x966 PUSH2 0xD5E JUMP JUMPDEST JUMPDEST PUSH2 0x973 DUP7 DUP3 DUP8 ADD PUSH2 0x893 JUMP JUMPDEST SWAP3 POP POP PUSH1 0x40 PUSH2 0x984 DUP7 DUP3 DUP8 ADD PUSH2 0x8C1 JUMP JUMPDEST SWAP2 POP POP SWAP3 POP SWAP3 POP SWAP3 JUMP JUMPDEST PUSH2 0x997 DUP2 PUSH2 0xBE1 JUMP JUMPDEST DUP3 MSTORE POP POP JUMP JUMPDEST PUSH1 0x0 PUSH2 0x9A8 DUP3 PUSH2 0xB1C JUMP JUMPDEST PUSH2 0x9B2 DUP2 DUP6 PUSH2 0xB27 JUMP JUMPDEST SWAP4 POP PUSH2 0x9C2 DUP2 DUP6 PUSH1 0x20 DUP7 ADD PUSH2 0xC02 JUMP JUMPDEST PUSH2 0x9CB DUP2 PUSH2 0xD68 JUMP JUMPDEST DUP5 ADD SWAP2 POP POP SWAP3 SWAP2 POP POP JUMP JUMPDEST PUSH1 0x0 PUSH2 0x9E3 PUSH1 0x1D DUP4 PUSH2 0xB27 JUMP JUMPDEST SWAP2 POP PUSH2 0x9EE DUP3 PUSH2 0xD79 JUMP JUMPDEST PUSH1 0x20 DUP3 ADD SWAP1 POP SWAP2 SWAP1 POP JUMP JUMPDEST PUSH2 0xA02 DUP2 PUSH2 0xBD7 JUMP JUMPDEST DUP3 MSTORE POP POP JUMP JUMPDEST PUSH1 0x0 PUSH1 0x20 DUP3 ADD SWAP1 POP PUSH2 0xA1D PUSH1 0x0 DUP4 ADD DUP5 PUSH2 0x98E JUMP JUMPDEST SWAP3 SWAP2 POP POP JUMP JUMPDEST PUSH1 0x0 PUSH1 0xA0 DUP3 ADD SWAP1 POP DUP2 DUP2 SUB PUSH1 0x0 DUP4 ADD MSTORE PUSH2 0xA3D DUP2 DUP9 PUSH2 0x99D JUMP JUMPDEST SWAP1 POP DUP2 DUP2 SUB PUSH1 0x20 DUP4 ADD MSTORE PUSH2 0xA51 DUP2 DUP8 PUSH2 0x99D JUMP JUMPDEST SWAP1 POP PUSH2 0xA60 PUSH1 0x40 DUP4 ADD DUP7 PUSH2 0x9F9 JUMP JUMPDEST DUP2 DUP2 SUB PUSH1 0x60 DUP4 ADD MSTORE PUSH2 0xA72 DUP2 DUP6 PUSH2 0x99D JUMP JUMPDEST SWAP1 POP PUSH2 0xA81 PUSH1 0x80 DUP4 ADD DUP5 PUSH2 0x9F9 JUMP JUMPDEST SWAP7 SWAP6 POP POP POP POP POP POP JUMP JUMPDEST PUSH1 0x0 PUSH1 0x20 DUP3 ADD SWAP1 POP DUP2 DUP2 SUB PUSH1 0x0 DUP4 ADD MSTORE PUSH2 0xAA4 DUP2 PUSH2 0x9D6 JUMP JUMPDEST SWAP1 POP SWAP2 SWAP1 POP JUMP JUMPDEST PUSH1 0x0 PUSH1 0x20 DUP3 ADD SWAP1 POP PUSH2 0xAC0 PUSH1 0x0 DUP4 ADD DUP5 PUSH2 0x9F9 JUMP JUMPDEST SWAP3 SWAP2 POP POP JUMP JUMPDEST PUSH1 0x0 PUSH2 0xAD0 PUSH2 0xAE1 JUMP JUMPDEST SWAP1 POP PUSH2 0xADC DUP3 DUP3 PUSH2 0xC67 JUMP JUMPDEST SWAP2 SWAP1 POP JUMP JUMPDEST PUSH1 0x0 PUSH1 0x40 MLOAD SWAP1 POP SWAP1 JUMP JUMPDEST PUSH1 0x0 PUSH8 0xFFFFFFFFFFFFFFFF DUP3 GT ISZERO PUSH2 0xB06 JUMPI PUSH2 0xB05 PUSH2 0xD25 JUMP JUMPDEST JUMPDEST PUSH2 0xB0F DUP3 PUSH2 0xD68 JUMP JUMPDEST SWAP1 POP PUSH1 0x20 DUP2 ADD SWAP1 POP SWAP2 SWAP1 POP JUMP JUMPDEST PUSH1 0x0 DUP2 MLOAD SWAP1 POP SWAP2 SWAP1 POP JUMP JUMPDEST PUSH1 0x0 DUP3 DUP3 MSTORE PUSH1 0x20 DUP3 ADD SWAP1 POP SWAP3 SWAP2 POP POP JUMP JUMPDEST PUSH1 0x0 PUSH2 0xB43 DUP3 PUSH2 0xBD7 JUMP JUMPDEST SWAP2 POP PUSH2 0xB4E DUP4 PUSH2 0xBD7 JUMP JUMPDEST SWAP3 POP DUP2 PUSH32 0xFFFFFFFFFFFFFFFFFFFFFFFFFFFFFFFFFFFFFFFFFFFFFFFFFFFFFFFFFFFFFFFF DIV DUP4 GT DUP3 ISZERO ISZERO AND ISZERO PUSH2 0xB87 JUMPI PUSH2 0xB86 PUSH2 0xC98 JUMP JUMPDEST JUMPDEST DUP3 DUP3 MUL SWAP1 POP SWAP3 SWAP2 POP POP JUMP JUMPDEST PUSH1 0x0 PUSH2 0xB9D DUP3 PUSH2 0xBB7 JUMP JUMPDEST SWAP1 POP SWAP2 SWAP1 POP JUMP JUMPDEST PUSH1 0x0 DUP2 SWAP1 POP PUSH2 0xBB2 DUP3 PUSH2 0xDA2 JUMP JUMPDEST SWAP2 SWAP1 POP JUMP JUMPDEST PUSH1 0x0 PUSH20 0xFFFFFFFFFFFFFFFFFFFFFFFFFFFFFFFFFFFFFFFF DUP3 AND SWAP1 POP SWAP2 SWAP1 POP JUMP JUMPDEST PUSH1 0x0 DUP2 SWAP1 POP SWAP2 SWAP1 POP JUMP JUMPDEST PUSH1 0x0 PUSH2 0xBEC DUP3 PUSH2 0xBA4 JUMP JUMPDEST SWAP1 POP SWAP2 SWAP1 POP JUMP JUMPDEST DUP3 DUP2 DUP4 CALLDATACOPY PUSH1 0x0 DUP4 DUP4 ADD MSTORE POP POP POP JUMP JUMPDEST PUSH1 0x0 JUMPDEST DUP4 DUP2 LT ISZERO PUSH2 0xC20 JUMPI DUP1 DUP3 ADD MLOAD DUP2 DUP5 ADD MSTORE PUSH1 0x20 DUP2 ADD SWAP1 POP PUSH2 0xC05 JUMP JUMPDEST DUP4 DUP2 GT ISZERO PUSH2 0xC2F JUMPI PUSH1 0x0 DUP5 DUP5 ADD MSTORE JUMPDEST POP POP POP POP JUMP JUMPDEST PUSH1 0x0 PUSH1 0x2 DUP3 DIV SWAP1 POP PUSH1 0x1 DUP3 AND DUP1 PUSH2 0xC4D JUMPI PUSH1 0x7F DUP3 AND SWAP2 POP JUMPDEST PUSH1 0x20 DUP3 LT DUP2 EQ ISZERO PUSH2 0xC61 JUMPI PUSH2 0xC60 PUSH2 0xCF6 JUMP JUMPDEST JUMPDEST POP SWAP2 SWAP1 POP JUMP JUMPDEST PUSH2 0xC70 DUP3 PUSH2 0xD68 JUMP JUMPDEST DUP2 ADD DUP2 DUP2 LT PUSH8 0xFFFFFFFFFFFFFFFF DUP3 GT OR ISZERO PUSH2 0xC8F JUMPI PUSH2 0xC8E PUSH2 0xD25 JUMP JUMPDEST JUMPDEST DUP1 PUSH1 0x40 MSTORE POP POP POP JUMP JUMPDEST PUSH32 0x4E487B7100000000000000000000000000000000000000000000000000000000 PUSH1 0x0 MSTORE PUSH1 0x11 PUSH1 0x4 MSTORE PUSH1 0x24 PUSH1 0x0 REVERT JUMPDEST PUSH32 0x4E487B7100000000000000000000000000000000000000000000000000000000 PUSH1 0x0 MSTORE PUSH1 0x21 PUSH1 0x4 MSTORE PUSH1 0x24 PUSH1 0x0 REVERT JUMPDEST PUSH32 0x4E487B7100000000000000000000000000000000000000000000000000000000 PUSH1 0x0 MSTORE PUSH1 0x22 PUSH1 0x4 MSTORE PUSH1 0x24 PUSH1 0x0 REVERT JUMPDEST PUSH32 0x4E487B7100000000000000000000000000000000000000000000000000000000 PUSH1 0x0 MSTORE PUSH1 0x41 PUSH1 0x4 MSTORE PUSH1 0x24 PUSH1 0x0 REVERT JUMPDEST PUSH1 0x0 DUP1 REVERT JUMPDEST PUSH1 0x0 DUP1 REVERT JUMPDEST PUSH1 0x0 DUP1 REVERT JUMPDEST PUSH1 0x0 DUP1 REVERT JUMPDEST PUSH1 0x0 PUSH1 0x1F NOT PUSH1 0x1F DUP4 ADD AND SWAP1 POP SWAP2 SWAP1 POP JUMP JUMPDEST PUSH32 0x706C656173652073656C6563742074686520636C617373206669727374000000 PUSH1 0x0 DUP3 ADD MSTORE POP JUMP JUMPDEST PUSH1 0x3 DUP2 LT PUSH2 0xDB3 JUMPI PUSH2 0xDB2 PUSH2 0xCC7 JUMP JUMPDEST JUMPDEST POP JUMP JUMPDEST PUSH2 0xDBF DUP2 PUSH2 0xB92 JUMP JUMPDEST DUP2 EQ PUSH2 0xDCA JUMPI PUSH1 0x0 DUP1 REVERT JUMPDEST POP JUMP JUMPDEST PUSH2 0xDD6 DUP2 PUSH2 0xBD7 JUMP JUMPDEST DUP2 EQ PUSH2 0xDE1 JUMPI PUSH1 0x0 DUP1 REVERT JUMPDEST POP JUMP INVALID LOG2 PUSH5 0x6970667358 0x22 SLT KECCAK256 SWAP15 0xC5 EXTCODECOPY 0xCF SWAP7 PUSH17 0x19BF616675D4816A70FE990111F60F672B DUP2 PUSH14 0x149F93C369D1B264736F6C634300 ADDMOD SMOD STOP CALLER "
				},
				"gasEstimates": {
					"creation": {
						"codeDepositCost": "722000",
						"executionCost": "infinite",
						"totalCost": "infinite"
					},
					"external": {
						"busnissClass()": "infinite",
						"data(address)": "infinite",
						"economyClass()": "infinite",
						"firstClass()": "infinite",
						"oneEth()": "2430",
						"oneWei()": "2496",
						"setData(string,string,uint256)": "infinite",
						"u1()": "2605"
					}
				},
				"methodIdentifiers": {
					"busnissClass()": "b24fa0e4",
					"data(address)": "b90d3d0c",
					"economyClass()": "7a1736d1",
					"firstClass()": "50183507",
					"oneEth()": "09a8d3f5",
					"oneWei()": "4fb2e0be",
					"setData(string,string,uint256)": "17ae4589",
					"u1()": "1aa35610"
				}
			},
			"userdoc": {
				"kind": "user",
				"methods": {},
				"version": 1
			}
		}
	}
}