{
	"blockship.sol": {
		"AirlineTickets": {
			"abi": [
				{
					"inputs": [],
					"stateMutability": "nonpayable",
					"type": "constructor"
				},
				{
					"inputs": [],
					"name": "busnissClass",
					"outputs": [],
					"stateMutability": "nonpayable",
					"type": "function"
				},
				{
					"inputs": [
						{
							"internalType": "address",
							"name": "",
							"type": "address"
						}
					],
					"name": "data",
					"outputs": [
						{
							"internalType": "string",
							"name": "name",
							"type": "string"
						},
						{
							"internalType": "string",
							"name": "des",
							"type": "string"
						},
						{
							"internalType": "uint256",
							"name": "pass_id",
							"type": "uint256"
						},
						{
							"internalType": "string",
							"name": "ticket",
							"type": "string"
						},
						{
							"internalType": "uint256",
							"name": "cost",
							"type": "uint256"
						}
					],
					"stateMutability": "view",
					"type": "function"
				},
				{
					"inputs": [],
					"name": "economyClass",
					"outputs": [],
					"stateMutability": "nonpayable",
					"type": "function"
				},
				{
					"inputs": [],
					"name": "firstClass",
					"outputs": [],
					"stateMutability": "nonpayable",
					"type": "function"
				},
				{
					"inputs": [],
					"name": "oneWei",
					"outputs": [
						{
							"internalType": "uint256",
							"name": "",
							"type": "uint256"
						}
					],
					"stateMutability": "view",
					"type": "function"
				},
				{
					"inputs": [],
					"name": "owner",
					"outputs": [
						{
							"internalType": "address",
							"name": "",
							"type": "address"
						}
					],
					"stateMutability": "view",
					"type": "function"
				},
				{
					"inputs": [],
					"name": "payabpayment",
					"outputs": [],
					"stateMutability": "nonpayable",
					"type": "function"
				},
				{
					"inputs": [
						{
							"internalType": "string",
							"name": "_name",
							"type": "string"
						},
						{
							"internalType": "string",
							"name": "_des",
							"type": "string"
						},
						{
							"internalType": "uint256",
							"name": "_pass_id",
							"type": "uint256"
						}
					],
					"name": "setData",
					"outputs": [],
					"stateMutability": "nonpayable",
					"type": "function"
				},
				{
					"inputs": [],
					"name": "u1",
					"outputs": [
						{
							"internalType": "enum AirlineTickets.classTypes",
							"name": "",
							"type": "uint8"
						}
					],
					"stateMutability": "view",
					"type": "function"
				},
				{
					"inputs": [],
					"name": "user",
					"outputs": [
						{
							"internalType": "address payable",
							"name": "",
							"type": "address"
						}
					],
					"stateMutability": "view",
					"type": "function"
				}
			],
			"devdoc": {
				"kind": "dev",
				"methods": {},
				"version": 1
			},
			"evm": {
				"assembly": "    /* \"blockship.sol\":74:2073  contract AirlineTickets {\r... */\n  mstore(0x40, 0x80)\n    /* \"blockship.sol\":460:465  false */\n  0x00\n    /* \"blockship.sol\":446:465  bool booked = false */\n  0x01\n  exp(0x0100, 0x14)\n  dup2\n  sload\n  dup2\n  0xff\n  mul\n  not\n  and\n  swap1\n  dup4\n  iszero\n  iszero\n  mul\n  or\n  swap1\n  sstore\n  pop\n    /* \"blockship.sol\":558:590  string realVal = \"Economy Class\" */\n  mload(0x40)\n  dup1\n  0x40\n  add\n  0x40\n  mstore\n  dup1\n  0x0d\n  dup2\n  mstore\n  0x20\n  add\n  0x45636f6e6f6d7920436c61737300000000000000000000000000000000000000\n  dup2\n  mstore\n  pop\n  0x03\n  swap1\n  dup1\n  mload\n  swap1\n  0x20\n  add\n  swap1\n  tag_1\n  swap3\n  swap2\n  swap1\n  tag_2\n  jump\t// in\ntag_1:\n  pop\n    /* \"blockship.sol\":653:658  1 wei */\n  0x01\n    /* \"blockship.sol\":632:658  uint public oneWei = 1 wei */\n  0x05\n  sstore\n    /* \"blockship.sol\":735:758  classTypes.economyClass */\n  0x01\n    /* \"blockship.sol\":713:758  classTypes public u1= classTypes.economyClass */\n  0x07\n  exp(0x0100, 0x00)\n  dup2\n  sload\n  dup2\n  0xff\n  mul\n  not\n  and\n  swap1\n  dup4\n  0x02\n  dup2\n  gt\n  iszero\n  tag_3\n  jumpi\n  tag_4\n  tag_5\n  jump\t// in\ntag_4:\ntag_3:\n  mul\n  or\n  swap1\n  sstore\n  pop\n    /* \"blockship.sol\":174:294  constructor() {\r... */\n  callvalue\n  dup1\n  iszero\n  tag_6\n  jumpi\n  0x00\n  dup1\n  revert\ntag_6:\n  pop\n    /* \"blockship.sol\":207:249  0xdD870fA1b7C4700F2BD7f44238821C26f7392148 */\n  0xdd870fa1b7c4700f2bd7f44238821c26f7392148\n    /* \"blockship.sol\":199:204  owner */\n  0x00\n  dup1\n    /* \"blockship.sol\":199:249  owner = 0xdD870fA1b7C4700F2BD7f44238821C26f7392148 */\n  0x0100\n  exp\n  dup2\n  sload\n  dup2\n  0xffffffffffffffffffffffffffffffffffffffff\n  mul\n  not\n  and\n  swap1\n  dup4\n  0xffffffffffffffffffffffffffffffffffffffff\n  and\n  mul\n  or\n  swap1\n  sstore\n  pop\n    /* \"blockship.sol\":275:285  msg.sender */\n  caller\n    /* \"blockship.sol\":260:264  user */\n  0x01\n  0x00\n    /* \"blockship.sol\":260:286  user = payable(msg.sender) */\n  0x0100\n  exp\n  dup2\n  sload\n  dup2\n  0xffffffffffffffffffffffffffffffffffffffff\n  mul\n  not\n  and\n  swap1\n  dup4\n  0xffffffffffffffffffffffffffffffffffffffff\n  and\n  mul\n  or\n  swap1\n  sstore\n  pop\n    /* \"blockship.sol\":74:2073  contract AirlineTickets {\r... */\n  jump(tag_9)\ntag_2:\n  dup3\n  dup1\n  sload\n  tag_10\n  swap1\n  tag_11\n  jump\t// in\ntag_10:\n  swap1\n  0x00\n  mstore\n  keccak256(0x00, 0x20)\n  swap1\n  0x1f\n  add\n  0x20\n  swap1\n  div\n  dup2\n  add\n  swap3\n  dup3\n  tag_13\n  jumpi\n  0x00\n  dup6\n  sstore\n  jump(tag_12)\ntag_13:\n  dup3\n  0x1f\n  lt\n  tag_14\n  jumpi\n  dup1\n  mload\n  not(0xff)\n  and\n  dup4\n  dup1\n  add\n  or\n  dup6\n  sstore\n  jump(tag_12)\ntag_14:\n  dup3\n  dup1\n  add\n  0x01\n  add\n  dup6\n  sstore\n  dup3\n  iszero\n  tag_12\n  jumpi\n  swap2\n  dup3\n  add\ntag_15:\n  dup3\n  dup2\n  gt\n  iszero\n  tag_16\n  jumpi\n  dup3\n  mload\n  dup3\n  sstore\n  swap2\n  0x20\n  add\n  swap2\n  swap1\n  0x01\n  add\n  swap1\n  jump(tag_15)\ntag_16:\ntag_12:\n  pop\n  swap1\n  pop\n  tag_17\n  swap2\n  swap1\n  tag_18\n  jump\t// in\ntag_17:\n  pop\n  swap1\n  jump\t// out\ntag_18:\ntag_19:\n  dup1\n  dup3\n  gt\n  iszero\n  tag_20\n  jumpi\n  0x00\n  dup2\n  0x00\n  swap1\n  sstore\n  pop\n  0x01\n  add\n  jump(tag_19)\ntag_20:\n  pop\n  swap1\n  jump\t// out\n    /* \"#utility.yul\":7:327   */\ntag_11:\n    /* \"#utility.yul\":51:57   */\n  0x00\n    /* \"#utility.yul\":88:89   */\n  0x02\n    /* \"#utility.yul\":82:86   */\n  dup3\n    /* \"#utility.yul\":78:90   */\n  div\n    /* \"#utility.yul\":68:90   */\n  swap1\n  pop\n    /* \"#utility.yul\":135:136   */\n  0x01\n    /* \"#utility.yul\":129:133   */\n  dup3\n    /* \"#utility.yul\":125:137   */\n  and\n    /* \"#utility.yul\":156:174   */\n  dup1\n    /* \"#utility.yul\":146:227   */\n  tag_23\n  jumpi\n    /* \"#utility.yul\":212:216   */\n  0x7f\n    /* \"#utility.yul\":204:210   */\n  dup3\n    /* \"#utility.yul\":200:217   */\n  and\n    /* \"#utility.yul\":190:217   */\n  swap2\n  pop\n    /* \"#utility.yul\":146:227   */\ntag_23:\n    /* \"#utility.yul\":274:276   */\n  0x20\n    /* \"#utility.yul\":266:272   */\n  dup3\n    /* \"#utility.yul\":263:277   */\n  lt\n    /* \"#utility.yul\":243:261   */\n  dup2\n    /* \"#utility.yul\":240:278   */\n  eq\n    /* \"#utility.yul\":237:321   */\n  iszero\n  tag_24\n  jumpi\n    /* \"#utility.yul\":293:311   */\n  tag_25\n  tag_26\n  jump\t// in\ntag_25:\n    /* \"#utility.yul\":237:321   */\ntag_24:\n    /* \"#utility.yul\":58:327   */\n  pop\n    /* \"#utility.yul\":7:327   */\n  swap2\n  swap1\n  pop\n  jump\t// out\n    /* \"#utility.yul\":333:513   */\ntag_5:\n    /* \"#utility.yul\":381:458   */\n  0x4e487b7100000000000000000000000000000000000000000000000000000000\n    /* \"#utility.yul\":378:379   */\n  0x00\n    /* \"#utility.yul\":371:459   */\n  mstore\n    /* \"#utility.yul\":478:482   */\n  0x21\n    /* \"#utility.yul\":475:476   */\n  0x04\n    /* \"#utility.yul\":468:483   */\n  mstore\n    /* \"#utility.yul\":502:506   */\n  0x24\n    /* \"#utility.yul\":499:500   */\n  0x00\n    /* \"#utility.yul\":492:507   */\n  revert\n    /* \"#utility.yul\":519:699   */\ntag_26:\n    /* \"#utility.yul\":567:644   */\n  0x4e487b7100000000000000000000000000000000000000000000000000000000\n    /* \"#utility.yul\":564:565   */\n  0x00\n    /* \"#utility.yul\":557:645   */\n  mstore\n    /* \"#utility.yul\":664:668   */\n  0x22\n    /* \"#utility.yul\":661:662   */\n  0x04\n    /* \"#utility.yul\":654:669   */\n  mstore\n    /* \"#utility.yul\":688:692   */\n  0x24\n    /* \"#utility.yul\":685:686   */\n  0x00\n    /* \"#utility.yul\":678:693   */\n  revert\n    /* \"blockship.sol\":74:2073  contract AirlineTickets {\r... */\ntag_9:\n  dataSize(sub_0)\n  dup1\n  dataOffset(sub_0)\n  0x00\n  codecopy\n  0x00\n  return\nstop\n\nsub_0: assembly {\n        /* \"blockship.sol\":74:2073  contract AirlineTickets {\r... */\n      mstore(0x40, 0x80)\n      callvalue\n      dup1\n      iszero\n      tag_1\n      jumpi\n      0x00\n      dup1\n      revert\n    tag_1:\n      pop\n      jumpi(tag_2, lt(calldatasize, 0x04))\n      shr(0xe0, calldataload(0x00))\n      dup1\n      0x7a1736d1\n      gt\n      tag_13\n      jumpi\n      dup1\n      0x7a1736d1\n      eq\n      tag_8\n      jumpi\n      dup1\n      0x8da5cb5b\n      eq\n      tag_9\n      jumpi\n      dup1\n      0x9e67f53e\n      eq\n      tag_10\n      jumpi\n      dup1\n      0xb24fa0e4\n      eq\n      tag_11\n      jumpi\n      dup1\n      0xb90d3d0c\n      eq\n      tag_12\n      jumpi\n      jump(tag_2)\n    tag_13:\n      dup1\n      0x17ae4589\n      eq\n      tag_3\n      jumpi\n      dup1\n      0x1aa35610\n      eq\n      tag_4\n      jumpi\n      dup1\n      0x4f8632ba\n      eq\n      tag_5\n      jumpi\n      dup1\n      0x4fb2e0be\n      eq\n      tag_6\n      jumpi\n      dup1\n      0x50183507\n      eq\n      tag_7\n      jumpi\n    tag_2:\n      0x00\n      dup1\n      revert\n        /* \"blockship.sol\":1843:2064  function setData(string memory _name, string memory _des, uint _pass_id) public \r... */\n    tag_3:\n      tag_14\n      0x04\n      dup1\n      calldatasize\n      sub\n      dup2\n      add\n      swap1\n      tag_15\n      swap2\n      swap1\n      tag_16\n      jump\t// in\n    tag_15:\n      tag_17\n      jump\t// in\n    tag_14:\n      stop\n        /* \"blockship.sol\":713:758  classTypes public u1= classTypes.economyClass */\n    tag_4:\n      tag_18\n      tag_19\n      jump\t// in\n    tag_18:\n      mload(0x40)\n      tag_20\n      swap2\n      swap1\n      tag_21\n      jump\t// in\n    tag_20:\n      mload(0x40)\n      dup1\n      swap2\n      sub\n      swap1\n      return\n        /* \"blockship.sol\":134:161  address payable public user */\n    tag_5:\n      tag_22\n      tag_23\n      jump\t// in\n    tag_22:\n      mload(0x40)\n      tag_24\n      swap2\n      swap1\n      tag_25\n      jump\t// in\n    tag_24:\n      mload(0x40)\n      dup1\n      swap2\n      sub\n      swap1\n      return\n        /* \"blockship.sol\":632:658  uint public oneWei = 1 wei */\n    tag_6:\n      tag_26\n      tag_27\n      jump\t// in\n    tag_26:\n      mload(0x40)\n      tag_28\n      swap2\n      swap1\n      tag_29\n      jump\t// in\n    tag_28:\n      mload(0x40)\n      dup1\n      swap2\n      sub\n      swap1\n      return\n        /* \"blockship.sol\":1321:1572  function firstClass() public \r... */\n    tag_7:\n      tag_30\n      tag_31\n      jump\t// in\n    tag_30:\n      stop\n        /* \"blockship.sol\":1052:1309  function economyClass() public \r... */\n    tag_8:\n      tag_32\n      tag_33\n      jump\t// in\n    tag_32:\n      stop\n        /* \"blockship.sol\":107:127  address public owner */\n    tag_9:\n      tag_34\n      tag_35\n      jump\t// in\n    tag_34:\n      mload(0x40)\n      tag_36\n      swap2\n      swap1\n      tag_37\n      jump\t// in\n    tag_36:\n      mload(0x40)\n      dup1\n      swap2\n      sub\n      swap1\n      return\n        /* \"blockship.sol\":960:1044  function payabpayment() public\r... */\n    tag_10:\n      tag_38\n      tag_39\n      jump\t// in\n    tag_38:\n      stop\n        /* \"blockship.sol\":1580:1831  function busnissClass() public {\r... */\n    tag_11:\n      tag_40\n      tag_41\n      jump\t// in\n    tag_40:\n      stop\n        /* \"blockship.sol\":667:704  mapping (address => User) public data */\n    tag_12:\n      tag_42\n      0x04\n      dup1\n      calldatasize\n      sub\n      dup2\n      add\n      swap1\n      tag_43\n      swap2\n      swap1\n      tag_44\n      jump\t// in\n    tag_43:\n      tag_45\n      jump\t// in\n    tag_42:\n      mload(0x40)\n      tag_46\n      swap6\n      swap5\n      swap4\n      swap3\n      swap2\n      swap1\n      tag_47\n      jump\t// in\n    tag_46:\n      mload(0x40)\n      dup1\n      swap2\n      sub\n      swap1\n      return\n        /* \"blockship.sol\":1843:2064  function setData(string memory _name, string memory _des, uint _pass_id) public \r... */\n    tag_17:\n        /* \"blockship.sol\":1948:1954  booked */\n      0x01\n      0x14\n      swap1\n      sload\n      swap1\n      0x0100\n      exp\n      swap1\n      div\n      0xff\n      and\n        /* \"blockship.sol\":1940:1987  require(booked,\"please select the class first\") */\n      tag_49\n      jumpi\n      mload(0x40)\n      0x08c379a000000000000000000000000000000000000000000000000000000000\n      dup2\n      mstore\n      0x04\n      add\n      tag_50\n      swap1\n      tag_51\n      jump\t// in\n    tag_50:\n      mload(0x40)\n      dup1\n      swap2\n      sub\n      swap1\n      revert\n    tag_49:\n        /* \"blockship.sol\":2017:2056  User(_name,_des,_pass_id,realVal ,cost) */\n      mload(0x40)\n      dup1\n      0xa0\n      add\n      0x40\n      mstore\n      dup1\n        /* \"blockship.sol\":2022:2027  _name */\n      dup5\n        /* \"blockship.sol\":2017:2056  User(_name,_des,_pass_id,realVal ,cost) */\n      dup2\n      mstore\n      0x20\n      add\n        /* \"blockship.sol\":2028:2032  _des */\n      dup4\n        /* \"blockship.sol\":2017:2056  User(_name,_des,_pass_id,realVal ,cost) */\n      dup2\n      mstore\n      0x20\n      add\n        /* \"blockship.sol\":2033:2041  _pass_id */\n      dup3\n        /* \"blockship.sol\":2017:2056  User(_name,_des,_pass_id,realVal ,cost) */\n      dup2\n      mstore\n      0x20\n      add\n        /* \"blockship.sol\":2042:2049  realVal */\n      0x03\n        /* \"blockship.sol\":2017:2056  User(_name,_des,_pass_id,realVal ,cost) */\n      dup1\n      sload\n      tag_52\n      swap1\n      tag_53\n      jump\t// in\n    tag_52:\n      dup1\n      0x1f\n      add\n      0x20\n      dup1\n      swap2\n      div\n      mul\n      0x20\n      add\n      mload(0x40)\n      swap1\n      dup2\n      add\n      0x40\n      mstore\n      dup1\n      swap3\n      swap2\n      swap1\n      dup2\n      dup2\n      mstore\n      0x20\n      add\n      dup3\n      dup1\n      sload\n      tag_54\n      swap1\n      tag_53\n      jump\t// in\n    tag_54:\n      dup1\n      iszero\n      tag_55\n      jumpi\n      dup1\n      0x1f\n      lt\n      tag_56\n      jumpi\n      0x0100\n      dup1\n      dup4\n      sload\n      div\n      mul\n      dup4\n      mstore\n      swap2\n      0x20\n      add\n      swap2\n      jump(tag_55)\n    tag_56:\n      dup3\n      add\n      swap2\n      swap1\n      0x00\n      mstore\n      keccak256(0x00, 0x20)\n      swap1\n    tag_57:\n      dup2\n      sload\n      dup2\n      mstore\n      swap1\n      0x01\n      add\n      swap1\n      0x20\n      add\n      dup1\n      dup4\n      gt\n      tag_57\n      jumpi\n      dup3\n      swap1\n      sub\n      0x1f\n      and\n      dup3\n      add\n      swap2\n    tag_55:\n      pop\n      pop\n      pop\n      pop\n      pop\n      dup2\n      mstore\n      0x20\n      add\n        /* \"blockship.sol\":2051:2055  cost */\n      sload(0x04)\n        /* \"blockship.sol\":2017:2056  User(_name,_des,_pass_id,realVal ,cost) */\n      dup2\n      mstore\n      pop\n        /* \"blockship.sol\":1998:2002  data */\n      0x06\n        /* \"blockship.sol\":1998:2014  data[msg.sender] */\n      0x00\n        /* \"blockship.sol\":2003:2013  msg.sender */\n      caller\n        /* \"blockship.sol\":1998:2014  data[msg.sender] */\n      0xffffffffffffffffffffffffffffffffffffffff\n      and\n      0xffffffffffffffffffffffffffffffffffffffff\n      and\n      dup2\n      mstore\n      0x20\n      add\n      swap1\n      dup2\n      mstore\n      0x20\n      add\n      0x00\n      keccak256\n        /* \"blockship.sol\":1998:2056  data[msg.sender] = User(_name,_des,_pass_id,realVal ,cost) */\n      0x00\n      dup3\n      add\n      mload\n      dup2\n      0x00\n      add\n      swap1\n      dup1\n      mload\n      swap1\n      0x20\n      add\n      swap1\n      tag_58\n      swap3\n      swap2\n      swap1\n      tag_59\n      jump\t// in\n    tag_58:\n      pop\n      0x20\n      dup3\n      add\n      mload\n      dup2\n      0x01\n      add\n      swap1\n      dup1\n      mload\n      swap1\n      0x20\n      add\n      swap1\n      tag_60\n      swap3\n      swap2\n      swap1\n      tag_59\n      jump\t// in\n    tag_60:\n      pop\n      0x40\n      dup3\n      add\n      mload\n      dup2\n      0x02\n      add\n      sstore\n      0x60\n      dup3\n      add\n      mload\n      dup2\n      0x03\n      add\n      swap1\n      dup1\n      mload\n      swap1\n      0x20\n      add\n      swap1\n      tag_61\n      swap3\n      swap2\n      swap1\n      tag_59\n      jump\t// in\n    tag_61:\n      pop\n      0x80\n      dup3\n      add\n      mload\n      dup2\n      0x04\n      add\n      sstore\n      swap1\n      pop\n      pop\n        /* \"blockship.sol\":1843:2064  function setData(string memory _name, string memory _des, uint _pass_id) public \r... */\n      pop\n      pop\n      pop\n      jump\t// out\n        /* \"blockship.sol\":713:758  classTypes public u1= classTypes.economyClass */\n    tag_19:\n      0x07\n      0x00\n      swap1\n      sload\n      swap1\n      0x0100\n      exp\n      swap1\n      div\n      0xff\n      and\n      dup2\n      jump\t// out\n        /* \"blockship.sol\":134:161  address payable public user */\n    tag_23:\n      0x01\n      0x00\n      swap1\n      sload\n      swap1\n      0x0100\n      exp\n      swap1\n      div\n      0xffffffffffffffffffffffffffffffffffffffff\n      and\n      dup2\n      jump\t// out\n        /* \"blockship.sol\":632:658  uint public oneWei = 1 wei */\n    tag_27:\n      sload(0x05)\n      dup2\n      jump\t// out\n        /* \"blockship.sol\":1321:1572  function firstClass() public \r... */\n    tag_31:\n        /* \"blockship.sol\":1371:1392  classTypes.firstClass */\n      0x00\n        /* \"blockship.sol\":1367:1369  u1 */\n      0x07\n      0x00\n        /* \"blockship.sol\":1367:1392  u1= classTypes.firstClass */\n      0x0100\n      exp\n      dup2\n      sload\n      dup2\n      0xff\n      mul\n      not\n      and\n      swap1\n      dup4\n      0x02\n      dup2\n      gt\n      iszero\n      tag_63\n      jumpi\n      tag_64\n      tag_65\n      jump\t// in\n    tag_64:\n    tag_63:\n      mul\n      or\n      swap1\n      sstore\n      pop\n        /* \"blockship.sol\":1418:1420  u1 */\n      0x07\n      0x00\n      swap1\n      sload\n      swap1\n      0x0100\n      exp\n      swap1\n      div\n      0xff\n      and\n        /* \"blockship.sol\":1413:1421  uint(u1) */\n      0x02\n      dup2\n      gt\n      iszero\n      tag_66\n      jumpi\n      tag_67\n      tag_65\n      jump\t// in\n    tag_67:\n    tag_66:\n        /* \"blockship.sol\":1403:1410  convert */\n      0x02\n        /* \"blockship.sol\":1403:1421  convert = uint(u1) */\n      dup2\n      swap1\n      sstore\n      pop\n        /* \"blockship.sol\":1444:1445  0 */\n      0x00\n        /* \"blockship.sol\":1435:1442  convert */\n      sload(0x02)\n        /* \"blockship.sol\":1435:1445  convert==0 */\n      eq\n        /* \"blockship.sol\":1432:1541  if(convert==0)\r... */\n      iszero\n      tag_68\n      jumpi\n        /* \"blockship.sol\":1471:1494  realVal = \"First Class\" */\n      mload(0x40)\n      dup1\n      0x40\n      add\n      0x40\n      mstore\n      dup1\n      0x0b\n      dup2\n      mstore\n      0x20\n      add\n      0x466972737420436c617373000000000000000000000000000000000000000000\n      dup2\n      mstore\n      pop\n        /* \"blockship.sol\":1471:1478  realVal */\n      0x03\n        /* \"blockship.sol\":1471:1494  realVal = \"First Class\" */\n      swap1\n      dup1\n      mload\n      swap1\n      0x20\n      add\n      swap1\n      tag_69\n      swap3\n      swap2\n      swap1\n      tag_59\n      jump\t// in\n    tag_69:\n      pop\n        /* \"blockship.sol\":1525:1529  1e16 */\n      0x2386f26fc10000\n        /* \"blockship.sol\":1516:1522  oneWei */\n      sload(0x05)\n        /* \"blockship.sol\":1516:1529  oneWei * 1e16 */\n      tag_70\n      swap2\n      swap1\n      tag_71\n      jump\t// in\n    tag_70:\n        /* \"blockship.sol\":1509:1513  cost */\n      0x04\n        /* \"blockship.sol\":1509:1529  cost = oneWei * 1e16 */\n      dup2\n      swap1\n      sstore\n      pop\n        /* \"blockship.sol\":1432:1541  if(convert==0)\r... */\n    tag_68:\n        /* \"blockship.sol\":1560:1564  true */\n      0x01\n        /* \"blockship.sol\":1551:1557  booked */\n      dup1\n      0x14\n        /* \"blockship.sol\":1551:1564  booked = true */\n      0x0100\n      exp\n      dup2\n      sload\n      dup2\n      0xff\n      mul\n      not\n      and\n      swap1\n      dup4\n      iszero\n      iszero\n      mul\n      or\n      swap1\n      sstore\n      pop\n        /* \"blockship.sol\":1321:1572  function firstClass() public \r... */\n      jump\t// out\n        /* \"blockship.sol\":1052:1309  function economyClass() public \r... */\n    tag_33:\n        /* \"blockship.sol\":1104:1127  classTypes.economyClass */\n      0x01\n        /* \"blockship.sol\":1100:1102  u1 */\n      0x07\n      0x00\n        /* \"blockship.sol\":1100:1127  u1= classTypes.economyClass */\n      0x0100\n      exp\n      dup2\n      sload\n      dup2\n      0xff\n      mul\n      not\n      and\n      swap1\n      dup4\n      0x02\n      dup2\n      gt\n      iszero\n      tag_73\n      jumpi\n      tag_74\n      tag_65\n      jump\t// in\n    tag_74:\n    tag_73:\n      mul\n      or\n      swap1\n      sstore\n      pop\n        /* \"blockship.sol\":1153:1155  u1 */\n      0x07\n      0x00\n      swap1\n      sload\n      swap1\n      0x0100\n      exp\n      swap1\n      div\n      0xff\n      and\n        /* \"blockship.sol\":1148:1156  uint(u1) */\n      0x02\n      dup2\n      gt\n      iszero\n      tag_75\n      jumpi\n      tag_76\n      tag_65\n      jump\t// in\n    tag_76:\n    tag_75:\n        /* \"blockship.sol\":1138:1145  convert */\n      0x02\n        /* \"blockship.sol\":1138:1156  convert = uint(u1) */\n      dup2\n      swap1\n      sstore\n      pop\n        /* \"blockship.sol\":1179:1180  1 */\n      0x01\n        /* \"blockship.sol\":1170:1177  convert */\n      sload(0x02)\n        /* \"blockship.sol\":1170:1180  convert==1 */\n      eq\n        /* \"blockship.sol\":1167:1278  if(convert==1)\r... */\n      iszero\n      tag_77\n      jumpi\n        /* \"blockship.sol\":1206:1231  realVal = \"Economy Class\" */\n      mload(0x40)\n      dup1\n      0x40\n      add\n      0x40\n      mstore\n      dup1\n      0x0d\n      dup2\n      mstore\n      0x20\n      add\n      0x45636f6e6f6d7920436c61737300000000000000000000000000000000000000\n      dup2\n      mstore\n      pop\n        /* \"blockship.sol\":1206:1213  realVal */\n      0x03\n        /* \"blockship.sol\":1206:1231  realVal = \"Economy Class\" */\n      swap1\n      dup1\n      mload\n      swap1\n      0x20\n      add\n      swap1\n      tag_78\n      swap3\n      swap2\n      swap1\n      tag_59\n      jump\t// in\n    tag_78:\n      pop\n        /* \"blockship.sol\":1262:1266  5e15 */\n      0x11c37937e08000\n        /* \"blockship.sol\":1253:1259  oneWei */\n      sload(0x05)\n        /* \"blockship.sol\":1253:1266  oneWei * 5e15 */\n      tag_79\n      swap2\n      swap1\n      tag_71\n      jump\t// in\n    tag_79:\n        /* \"blockship.sol\":1246:1250  cost */\n      0x04\n        /* \"blockship.sol\":1246:1266  cost = oneWei * 5e15 */\n      dup2\n      swap1\n      sstore\n      pop\n        /* \"blockship.sol\":1167:1278  if(convert==1)\r... */\n    tag_77:\n        /* \"blockship.sol\":1297:1301  true */\n      0x01\n        /* \"blockship.sol\":1288:1294  booked */\n      dup1\n      0x14\n        /* \"blockship.sol\":1288:1301  booked = true */\n      0x0100\n      exp\n      dup2\n      sload\n      dup2\n      0xff\n      mul\n      not\n      and\n      swap1\n      dup4\n      iszero\n      iszero\n      mul\n      or\n      swap1\n      sstore\n      pop\n        /* \"blockship.sol\":1052:1309  function economyClass() public \r... */\n      jump\t// out\n        /* \"blockship.sol\":107:127  address public owner */\n    tag_35:\n      0x00\n      dup1\n      sload\n      swap1\n      0x0100\n      exp\n      swap1\n      div\n      0xffffffffffffffffffffffffffffffffffffffff\n      and\n      dup2\n      jump\t// out\n        /* \"blockship.sol\":960:1044  function payabpayment() public\r... */\n    tag_39:\n        /* \"blockship.sol\":1017:1021  user */\n      0x01\n      0x00\n      swap1\n      sload\n      swap1\n      0x0100\n      exp\n      swap1\n      div\n      0xffffffffffffffffffffffffffffffffffffffff\n      and\n        /* \"blockship.sol\":1017:1030  user.transfer */\n      0xffffffffffffffffffffffffffffffffffffffff\n      and\n        /* \"blockship.sol\":1017:1036  user.transfer(cost) */\n      0x08fc\n        /* \"blockship.sol\":1031:1035  cost */\n      sload(0x04)\n        /* \"blockship.sol\":1017:1036  user.transfer(cost) */\n      swap1\n      dup2\n      iszero\n      mul\n      swap1\n      mload(0x40)\n      0x00\n      mload(0x40)\n      dup1\n      dup4\n      sub\n      dup2\n      dup6\n      dup9\n      dup9\n      call\n      swap4\n      pop\n      pop\n      pop\n      pop\n      iszero\n      dup1\n      iszero\n      tag_82\n      jumpi\n      returndatasize\n      0x00\n      dup1\n      returndatacopy\n      revert(0x00, returndatasize)\n    tag_82:\n      pop\n        /* \"blockship.sol\":960:1044  function payabpayment() public\r... */\n      jump\t// out\n        /* \"blockship.sol\":1580:1831  function busnissClass() public {\r... */\n    tag_41:\n        /* \"blockship.sol\":1626:1649  classTypes.busnissClass */\n      0x02\n        /* \"blockship.sol\":1622:1624  u1 */\n      0x07\n      0x00\n        /* \"blockship.sol\":1622:1649  u1= classTypes.busnissClass */\n      0x0100\n      exp\n      dup2\n      sload\n      dup2\n      0xff\n      mul\n      not\n      and\n      swap1\n      dup4\n      0x02\n      dup2\n      gt\n      iszero\n      tag_84\n      jumpi\n      tag_85\n      tag_65\n      jump\t// in\n    tag_85:\n    tag_84:\n      mul\n      or\n      swap1\n      sstore\n      pop\n        /* \"blockship.sol\":1675:1677  u1 */\n      0x07\n      0x00\n      swap1\n      sload\n      swap1\n      0x0100\n      exp\n      swap1\n      div\n      0xff\n      and\n        /* \"blockship.sol\":1670:1678  uint(u1) */\n      0x02\n      dup2\n      gt\n      iszero\n      tag_86\n      jumpi\n      tag_87\n      tag_65\n      jump\t// in\n    tag_87:\n    tag_86:\n        /* \"blockship.sol\":1660:1667  convert */\n      0x02\n        /* \"blockship.sol\":1660:1678  convert = uint(u1) */\n      dup2\n      swap1\n      sstore\n      pop\n        /* \"blockship.sol\":1701:1702  2 */\n      0x02\n        /* \"blockship.sol\":1692:1699  convert */\n      dup1\n      sload\n        /* \"blockship.sol\":1692:1702  convert==2 */\n      eq\n        /* \"blockship.sol\":1689:1800  if(convert==2)\r... */\n      iszero\n      tag_88\n      jumpi\n        /* \"blockship.sol\":1728:1753  realVal = \"Busniss Class\" */\n      mload(0x40)\n      dup1\n      0x40\n      add\n      0x40\n      mstore\n      dup1\n      0x0d\n      dup2\n      mstore\n      0x20\n      add\n      0x4275736e69737320436c61737300000000000000000000000000000000000000\n      dup2\n      mstore\n      pop\n        /* \"blockship.sol\":1728:1735  realVal */\n      0x03\n        /* \"blockship.sol\":1728:1753  realVal = \"Busniss Class\" */\n      swap1\n      dup1\n      mload\n      swap1\n      0x20\n      add\n      swap1\n      tag_89\n      swap3\n      swap2\n      swap1\n      tag_59\n      jump\t// in\n    tag_89:\n      pop\n        /* \"blockship.sol\":1784:1788  7e15 */\n      0x18de76816d8000\n        /* \"blockship.sol\":1775:1781  oneWei */\n      sload(0x05)\n        /* \"blockship.sol\":1775:1788  oneWei * 7e15 */\n      tag_90\n      swap2\n      swap1\n      tag_71\n      jump\t// in\n    tag_90:\n        /* \"blockship.sol\":1768:1772  cost */\n      0x04\n        /* \"blockship.sol\":1768:1788  cost = oneWei * 7e15 */\n      dup2\n      swap1\n      sstore\n      pop\n        /* \"blockship.sol\":1689:1800  if(convert==2)\r... */\n    tag_88:\n        /* \"blockship.sol\":1819:1823  true */\n      0x01\n        /* \"blockship.sol\":1810:1816  booked */\n      dup1\n      0x14\n        /* \"blockship.sol\":1810:1823  booked = true */\n      0x0100\n      exp\n      dup2\n      sload\n      dup2\n      0xff\n      mul\n      not\n      and\n      swap1\n      dup4\n      iszero\n      iszero\n      mul\n      or\n      swap1\n      sstore\n      pop\n        /* \"blockship.sol\":1580:1831  function busnissClass() public {\r... */\n      jump\t// out\n        /* \"blockship.sol\":667:704  mapping (address => User) public data */\n    tag_45:\n      mstore(0x20, 0x06)\n      dup1\n      0x00\n      mstore\n      keccak256(0x00, 0x40)\n      0x00\n      swap2\n      pop\n      swap1\n      pop\n      dup1\n      0x00\n      add\n      dup1\n      sload\n      tag_91\n      swap1\n      tag_53\n      jump\t// in\n    tag_91:\n      dup1\n      0x1f\n      add\n      0x20\n      dup1\n      swap2\n      div\n      mul\n      0x20\n      add\n      mload(0x40)\n      swap1\n      dup2\n      add\n      0x40\n      mstore\n      dup1\n      swap3\n      swap2\n      swap1\n      dup2\n      dup2\n      mstore\n      0x20\n      add\n      dup3\n      dup1\n      sload\n      tag_92\n      swap1\n      tag_53\n      jump\t// in\n    tag_92:\n      dup1\n      iszero\n      tag_93\n      jumpi\n      dup1\n      0x1f\n      lt\n      tag_94\n      jumpi\n      0x0100\n      dup1\n      dup4\n      sload\n      div\n      mul\n      dup4\n      mstore\n      swap2\n      0x20\n      add\n      swap2\n      jump(tag_93)\n    tag_94:\n      dup3\n      add\n      swap2\n      swap1\n      0x00\n      mstore\n      keccak256(0x00, 0x20)\n      swap1\n    tag_95:\n      dup2\n      sload\n      dup2\n      mstore\n      swap1\n      0x01\n      add\n      swap1\n      0x20\n      add\n      dup1\n      dup4\n      gt\n      tag_95\n      jumpi\n      dup3\n      swap1\n      sub\n      0x1f\n      and\n      dup3\n      add\n      swap2\n    tag_93:\n      pop\n      pop\n      pop\n      pop\n      pop\n      swap1\n      dup1\n      0x01\n      add\n      dup1\n      sload\n      tag_96\n      swap1\n      tag_53\n      jump\t// in\n    tag_96:\n      dup1\n      0x1f\n      add\n      0x20\n      dup1\n      swap2\n      div\n      mul\n      0x20\n      add\n      mload(0x40)\n      swap1\n      dup2\n      add\n      0x40\n      mstore\n      dup1\n      swap3\n      swap2\n      swap1\n      dup2\n      dup2\n      mstore\n      0x20\n      add\n      dup3\n      dup1\n      sload\n      tag_97\n      swap1\n      tag_53\n      jump\t// in\n    tag_97:\n      dup1\n      iszero\n      tag_98\n      jumpi\n      dup1\n      0x1f\n      lt\n      tag_99\n      jumpi\n      0x0100\n      dup1\n      dup4\n      sload\n      div\n      mul\n      dup4\n      mstore\n      swap2\n      0x20\n      add\n      swap2\n      jump(tag_98)\n    tag_99:\n      dup3\n      add\n      swap2\n      swap1\n      0x00\n      mstore\n      keccak256(0x00, 0x20)\n      swap1\n    tag_100:\n      dup2\n      sload\n      dup2\n      mstore\n      swap1\n      0x01\n      add\n      swap1\n      0x20\n      add\n      dup1\n      dup4\n      gt\n      tag_100\n      jumpi\n      dup3\n      swap1\n      sub\n      0x1f\n      and\n      dup3\n      add\n      swap2\n    tag_98:\n      pop\n      pop\n      pop\n      pop\n      pop\n      swap1\n      dup1\n      0x02\n      add\n      sload\n      swap1\n      dup1\n      0x03\n      add\n      dup1\n      sload\n      tag_101\n      swap1\n      tag_53\n      jump\t// in\n    tag_101:\n      dup1\n      0x1f\n      add\n      0x20\n      dup1\n      swap2\n      div\n      mul\n      0x20\n      add\n      mload(0x40)\n      swap1\n      dup2\n      add\n      0x40\n      mstore\n      dup1\n      swap3\n      swap2\n      swap1\n      dup2\n      dup2\n      mstore\n      0x20\n      add\n      dup3\n      dup1\n      sload\n      tag_102\n      swap1\n      tag_53\n      jump\t// in\n    tag_102:\n      dup1\n      iszero\n      tag_103\n      jumpi\n      dup1\n      0x1f\n      lt\n      tag_104\n      jumpi\n      0x0100\n      dup1\n      dup4\n      sload\n      div\n      mul\n      dup4\n      mstore\n      swap2\n      0x20\n      add\n      swap2\n      jump(tag_103)\n    tag_104:\n      dup3\n      add\n      swap2\n      swap1\n      0x00\n      mstore\n      keccak256(0x00, 0x20)\n      swap1\n    tag_105:\n      dup2\n      sload\n      dup2\n      mstore\n      swap1\n      0x01\n      add\n      swap1\n      0x20\n      add\n      dup1\n      dup4\n      gt\n      tag_105\n      jumpi\n      dup3\n      swap1\n      sub\n      0x1f\n      and\n      dup3\n      add\n      swap2\n    tag_103:\n      pop\n      pop\n      pop\n      pop\n      pop\n      swap1\n      dup1\n      0x04\n      add\n      sload\n      swap1\n      pop\n      dup6\n      jump\t// out\n    tag_59:\n      dup3\n      dup1\n      sload\n      tag_106\n      swap1\n      tag_53\n      jump\t// in\n    tag_106:\n      swap1\n      0x00\n      mstore\n      keccak256(0x00, 0x20)\n      swap1\n      0x1f\n      add\n      0x20\n      swap1\n      div\n      dup2\n      add\n      swap3\n      dup3\n      tag_108\n      jumpi\n      0x00\n      dup6\n      sstore\n      jump(tag_107)\n    tag_108:\n      dup3\n      0x1f\n      lt\n      tag_109\n      jumpi\n      dup1\n      mload\n      not(0xff)\n      and\n      dup4\n      dup1\n      add\n      or\n      dup6\n      sstore\n      jump(tag_107)\n    tag_109:\n      dup3\n      dup1\n      add\n      0x01\n      add\n      dup6\n      sstore\n      dup3\n      iszero\n      tag_107\n      jumpi\n      swap2\n      dup3\n      add\n    tag_110:\n      dup3\n      dup2\n      gt\n      iszero\n      tag_111\n      jumpi\n      dup3\n      mload\n      dup3\n      sstore\n      swap2\n      0x20\n      add\n      swap2\n      swap1\n      0x01\n      add\n      swap1\n      jump(tag_110)\n    tag_111:\n    tag_107:\n      pop\n      swap1\n      pop\n      tag_112\n      swap2\n      swap1\n      tag_113\n      jump\t// in\n    tag_112:\n      pop\n      swap1\n      jump\t// out\n    tag_113:\n    tag_114:\n      dup1\n      dup3\n      gt\n      iszero\n      tag_115\n      jumpi\n      0x00\n      dup2\n      0x00\n      swap1\n      sstore\n      pop\n      0x01\n      add\n      jump(tag_114)\n    tag_115:\n      pop\n      swap1\n      jump\t// out\n        /* \"#utility.yul\":7:419   */\n    tag_117:\n        /* \"#utility.yul\":85:90   */\n      0x00\n        /* \"#utility.yul\":110:176   */\n      tag_119\n        /* \"#utility.yul\":126:175   */\n      tag_120\n        /* \"#utility.yul\":168:174   */\n      dup5\n        /* \"#utility.yul\":126:175   */\n      tag_121\n      jump\t// in\n    tag_120:\n        /* \"#utility.yul\":110:176   */\n      tag_122\n      jump\t// in\n    tag_119:\n        /* \"#utility.yul\":101:176   */\n      swap1\n      pop\n        /* \"#utility.yul\":199:205   */\n      dup3\n        /* \"#utility.yul\":192:197   */\n      dup2\n        /* \"#utility.yul\":185:206   */\n      mstore\n        /* \"#utility.yul\":237:241   */\n      0x20\n        /* \"#utility.yul\":230:235   */\n      dup2\n        /* \"#utility.yul\":226:242   */\n      add\n        /* \"#utility.yul\":275:278   */\n      dup5\n        /* \"#utility.yul\":266:272   */\n      dup5\n        /* \"#utility.yul\":261:264   */\n      dup5\n        /* \"#utility.yul\":257:273   */\n      add\n        /* \"#utility.yul\":254:279   */\n      gt\n        /* \"#utility.yul\":251:363   */\n      iszero\n      tag_123\n      jumpi\n        /* \"#utility.yul\":282:361   */\n      tag_124\n      tag_125\n      jump\t// in\n    tag_124:\n        /* \"#utility.yul\":251:363   */\n    tag_123:\n        /* \"#utility.yul\":372:413   */\n      tag_126\n        /* \"#utility.yul\":406:412   */\n      dup5\n        /* \"#utility.yul\":401:404   */\n      dup3\n        /* \"#utility.yul\":396:399   */\n      dup6\n        /* \"#utility.yul\":372:413   */\n      tag_127\n      jump\t// in\n    tag_126:\n        /* \"#utility.yul\":91:419   */\n      pop\n        /* \"#utility.yul\":7:419   */\n      swap4\n      swap3\n      pop\n      pop\n      pop\n      jump\t// out\n        /* \"#utility.yul\":425:564   */\n    tag_128:\n        /* \"#utility.yul\":471:476   */\n      0x00\n        /* \"#utility.yul\":509:515   */\n      dup2\n        /* \"#utility.yul\":496:516   */\n      calldataload\n        /* \"#utility.yul\":487:516   */\n      swap1\n      pop\n        /* \"#utility.yul\":525:558   */\n      tag_130\n        /* \"#utility.yul\":552:557   */\n      dup2\n        /* \"#utility.yul\":525:558   */\n      tag_131\n      jump\t// in\n    tag_130:\n        /* \"#utility.yul\":425:564   */\n      swap3\n      swap2\n      pop\n      pop\n      jump\t// out\n        /* \"#utility.yul\":584:924   */\n    tag_132:\n        /* \"#utility.yul\":640:645   */\n      0x00\n        /* \"#utility.yul\":689:692   */\n      dup3\n        /* \"#utility.yul\":682:686   */\n      0x1f\n        /* \"#utility.yul\":674:680   */\n      dup4\n        /* \"#utility.yul\":670:687   */\n      add\n        /* \"#utility.yul\":666:693   */\n      slt\n        /* \"#utility.yul\":656:778   */\n      tag_134\n      jumpi\n        /* \"#utility.yul\":697:776   */\n      tag_135\n      tag_136\n      jump\t// in\n    tag_135:\n        /* \"#utility.yul\":656:778   */\n    tag_134:\n        /* \"#utility.yul\":814:820   */\n      dup2\n        /* \"#utility.yul\":801:821   */\n      calldataload\n        /* \"#utility.yul\":839:918   */\n      tag_137\n        /* \"#utility.yul\":914:917   */\n      dup5\n        /* \"#utility.yul\":906:912   */\n      dup3\n        /* \"#utility.yul\":899:903   */\n      0x20\n        /* \"#utility.yul\":891:897   */\n      dup7\n        /* \"#utility.yul\":887:904   */\n      add\n        /* \"#utility.yul\":839:918   */\n      tag_117\n      jump\t// in\n    tag_137:\n        /* \"#utility.yul\":830:918   */\n      swap2\n      pop\n        /* \"#utility.yul\":646:924   */\n      pop\n        /* \"#utility.yul\":584:924   */\n      swap3\n      swap2\n      pop\n      pop\n      jump\t// out\n        /* \"#utility.yul\":930:1069   */\n    tag_138:\n        /* \"#utility.yul\":976:981   */\n      0x00\n        /* \"#utility.yul\":1014:1020   */\n      dup2\n        /* \"#utility.yul\":1001:1021   */\n      calldataload\n        /* \"#utility.yul\":992:1021   */\n      swap1\n      pop\n        /* \"#utility.yul\":1030:1063   */\n      tag_140\n        /* \"#utility.yul\":1057:1062   */\n      dup2\n        /* \"#utility.yul\":1030:1063   */\n      tag_141\n      jump\t// in\n    tag_140:\n        /* \"#utility.yul\":930:1069   */\n      swap3\n      swap2\n      pop\n      pop\n      jump\t// out\n        /* \"#utility.yul\":1075:1404   */\n    tag_44:\n        /* \"#utility.yul\":1134:1140   */\n      0x00\n        /* \"#utility.yul\":1183:1185   */\n      0x20\n        /* \"#utility.yul\":1171:1180   */\n      dup3\n        /* \"#utility.yul\":1162:1169   */\n      dup5\n        /* \"#utility.yul\":1158:1181   */\n      sub\n        /* \"#utility.yul\":1154:1186   */\n      slt\n        /* \"#utility.yul\":1151:1270   */\n      iszero\n      tag_143\n      jumpi\n        /* \"#utility.yul\":1189:1268   */\n      tag_144\n      tag_145\n      jump\t// in\n    tag_144:\n        /* \"#utility.yul\":1151:1270   */\n    tag_143:\n        /* \"#utility.yul\":1309:1310   */\n      0x00\n        /* \"#utility.yul\":1334:1387   */\n      tag_146\n        /* \"#utility.yul\":1379:1386   */\n      dup5\n        /* \"#utility.yul\":1370:1376   */\n      dup3\n        /* \"#utility.yul\":1359:1368   */\n      dup6\n        /* \"#utility.yul\":1355:1377   */\n      add\n        /* \"#utility.yul\":1334:1387   */\n      tag_128\n      jump\t// in\n    tag_146:\n        /* \"#utility.yul\":1324:1387   */\n      swap2\n      pop\n        /* \"#utility.yul\":1280:1397   */\n      pop\n        /* \"#utility.yul\":1075:1404   */\n      swap3\n      swap2\n      pop\n      pop\n      jump\t// out\n        /* \"#utility.yul\":1410:2389   */\n    tag_16:\n        /* \"#utility.yul\":1507:1513   */\n      0x00\n        /* \"#utility.yul\":1515:1521   */\n      dup1\n        /* \"#utility.yul\":1523:1529   */\n      0x00\n        /* \"#utility.yul\":1572:1574   */\n      0x60\n        /* \"#utility.yul\":1560:1569   */\n      dup5\n        /* \"#utility.yul\":1551:1558   */\n      dup7\n        /* \"#utility.yul\":1547:1570   */\n      sub\n        /* \"#utility.yul\":1543:1575   */\n      slt\n        /* \"#utility.yul\":1540:1659   */\n      iszero\n      tag_148\n      jumpi\n        /* \"#utility.yul\":1578:1657   */\n      tag_149\n      tag_145\n      jump\t// in\n    tag_149:\n        /* \"#utility.yul\":1540:1659   */\n    tag_148:\n        /* \"#utility.yul\":1726:1727   */\n      0x00\n        /* \"#utility.yul\":1715:1724   */\n      dup5\n        /* \"#utility.yul\":1711:1728   */\n      add\n        /* \"#utility.yul\":1698:1729   */\n      calldataload\n        /* \"#utility.yul\":1756:1774   */\n      0xffffffffffffffff\n        /* \"#utility.yul\":1748:1754   */\n      dup2\n        /* \"#utility.yul\":1745:1775   */\n      gt\n        /* \"#utility.yul\":1742:1859   */\n      iszero\n      tag_150\n      jumpi\n        /* \"#utility.yul\":1778:1857   */\n      tag_151\n      tag_152\n      jump\t// in\n    tag_151:\n        /* \"#utility.yul\":1742:1859   */\n    tag_150:\n        /* \"#utility.yul\":1883:1946   */\n      tag_153\n        /* \"#utility.yul\":1938:1945   */\n      dup7\n        /* \"#utility.yul\":1929:1935   */\n      dup3\n        /* \"#utility.yul\":1918:1927   */\n      dup8\n        /* \"#utility.yul\":1914:1936   */\n      add\n        /* \"#utility.yul\":1883:1946   */\n      tag_132\n      jump\t// in\n    tag_153:\n        /* \"#utility.yul\":1873:1946   */\n      swap4\n      pop\n        /* \"#utility.yul\":1669:1956   */\n      pop\n        /* \"#utility.yul\":2023:2025   */\n      0x20\n        /* \"#utility.yul\":2012:2021   */\n      dup5\n        /* \"#utility.yul\":2008:2026   */\n      add\n        /* \"#utility.yul\":1995:2027   */\n      calldataload\n        /* \"#utility.yul\":2054:2072   */\n      0xffffffffffffffff\n        /* \"#utility.yul\":2046:2052   */\n      dup2\n        /* \"#utility.yul\":2043:2073   */\n      gt\n        /* \"#utility.yul\":2040:2157   */\n      iszero\n      tag_154\n      jumpi\n        /* \"#utility.yul\":2076:2155   */\n      tag_155\n      tag_152\n      jump\t// in\n    tag_155:\n        /* \"#utility.yul\":2040:2157   */\n    tag_154:\n        /* \"#utility.yul\":2181:2244   */\n      tag_156\n        /* \"#utility.yul\":2236:2243   */\n      dup7\n        /* \"#utility.yul\":2227:2233   */\n      dup3\n        /* \"#utility.yul\":2216:2225   */\n      dup8\n        /* \"#utility.yul\":2212:2234   */\n      add\n        /* \"#utility.yul\":2181:2244   */\n      tag_132\n      jump\t// in\n    tag_156:\n        /* \"#utility.yul\":2171:2244   */\n      swap3\n      pop\n        /* \"#utility.yul\":1966:2254   */\n      pop\n        /* \"#utility.yul\":2293:2295   */\n      0x40\n        /* \"#utility.yul\":2319:2372   */\n      tag_157\n        /* \"#utility.yul\":2364:2371   */\n      dup7\n        /* \"#utility.yul\":2355:2361   */\n      dup3\n        /* \"#utility.yul\":2344:2353   */\n      dup8\n        /* \"#utility.yul\":2340:2362   */\n      add\n        /* \"#utility.yul\":2319:2372   */\n      tag_138\n      jump\t// in\n    tag_157:\n        /* \"#utility.yul\":2309:2372   */\n      swap2\n      pop\n        /* \"#utility.yul\":2264:2382   */\n      pop\n        /* \"#utility.yul\":1410:2389   */\n      swap3\n      pop\n      swap3\n      pop\n      swap3\n      jump\t// out\n        /* \"#utility.yul\":2395:2537   */\n    tag_158:\n        /* \"#utility.yul\":2498:2530   */\n      tag_160\n        /* \"#utility.yul\":2524:2529   */\n      dup2\n        /* \"#utility.yul\":2498:2530   */\n      tag_161\n      jump\t// in\n    tag_160:\n        /* \"#utility.yul\":2493:2496   */\n      dup3\n        /* \"#utility.yul\":2486:2531   */\n      mstore\n        /* \"#utility.yul\":2395:2537   */\n      pop\n      pop\n      jump\t// out\n        /* \"#utility.yul\":2543:2661   */\n    tag_162:\n        /* \"#utility.yul\":2630:2654   */\n      tag_164\n        /* \"#utility.yul\":2648:2653   */\n      dup2\n        /* \"#utility.yul\":2630:2654   */\n      tag_165\n      jump\t// in\n    tag_164:\n        /* \"#utility.yul\":2625:2628   */\n      dup3\n        /* \"#utility.yul\":2618:2655   */\n      mstore\n        /* \"#utility.yul\":2543:2661   */\n      pop\n      pop\n      jump\t// out\n        /* \"#utility.yul\":2667:2820   */\n    tag_166:\n        /* \"#utility.yul\":2765:2813   */\n      tag_168\n        /* \"#utility.yul\":2807:2812   */\n      dup2\n        /* \"#utility.yul\":2765:2813   */\n      tag_169\n      jump\t// in\n    tag_168:\n        /* \"#utility.yul\":2760:2763   */\n      dup3\n        /* \"#utility.yul\":2753:2814   */\n      mstore\n        /* \"#utility.yul\":2667:2820   */\n      pop\n      pop\n      jump\t// out\n        /* \"#utility.yul\":2826:3190   */\n    tag_170:\n        /* \"#utility.yul\":2914:2917   */\n      0x00\n        /* \"#utility.yul\":2942:2981   */\n      tag_172\n        /* \"#utility.yul\":2975:2980   */\n      dup3\n        /* \"#utility.yul\":2942:2981   */\n      tag_173\n      jump\t// in\n    tag_172:\n        /* \"#utility.yul\":2997:3068   */\n      tag_174\n        /* \"#utility.yul\":3061:3067   */\n      dup2\n        /* \"#utility.yul\":3056:3059   */\n      dup6\n        /* \"#utility.yul\":2997:3068   */\n      tag_175\n      jump\t// in\n    tag_174:\n        /* \"#utility.yul\":2990:3068   */\n      swap4\n      pop\n        /* \"#utility.yul\":3077:3129   */\n      tag_176\n        /* \"#utility.yul\":3122:3128   */\n      dup2\n        /* \"#utility.yul\":3117:3120   */\n      dup6\n        /* \"#utility.yul\":3110:3114   */\n      0x20\n        /* \"#utility.yul\":3103:3108   */\n      dup7\n        /* \"#utility.yul\":3099:3115   */\n      add\n        /* \"#utility.yul\":3077:3129   */\n      tag_177\n      jump\t// in\n    tag_176:\n        /* \"#utility.yul\":3154:3183   */\n      tag_178\n        /* \"#utility.yul\":3176:3182   */\n      dup2\n        /* \"#utility.yul\":3154:3183   */\n      tag_179\n      jump\t// in\n    tag_178:\n        /* \"#utility.yul\":3149:3152   */\n      dup5\n        /* \"#utility.yul\":3145:3184   */\n      add\n        /* \"#utility.yul\":3138:3184   */\n      swap2\n      pop\n        /* \"#utility.yul\":2918:3190   */\n      pop\n        /* \"#utility.yul\":2826:3190   */\n      swap3\n      swap2\n      pop\n      pop\n      jump\t// out\n        /* \"#utility.yul\":3196:3562   */\n    tag_180:\n        /* \"#utility.yul\":3338:3341   */\n      0x00\n        /* \"#utility.yul\":3359:3426   */\n      tag_182\n        /* \"#utility.yul\":3423:3425   */\n      0x1d\n        /* \"#utility.yul\":3418:3421   */\n      dup4\n        /* \"#utility.yul\":3359:3426   */\n      tag_175\n      jump\t// in\n    tag_182:\n        /* \"#utility.yul\":3352:3426   */\n      swap2\n      pop\n        /* \"#utility.yul\":3435:3528   */\n      tag_183\n        /* \"#utility.yul\":3524:3527   */\n      dup3\n        /* \"#utility.yul\":3435:3528   */\n      tag_184\n      jump\t// in\n    tag_183:\n        /* \"#utility.yul\":3553:3555   */\n      0x20\n        /* \"#utility.yul\":3548:3551   */\n      dup3\n        /* \"#utility.yul\":3544:3556   */\n      add\n        /* \"#utility.yul\":3537:3556   */\n      swap1\n      pop\n        /* \"#utility.yul\":3196:3562   */\n      swap2\n      swap1\n      pop\n      jump\t// out\n        /* \"#utility.yul\":3568:3686   */\n    tag_185:\n        /* \"#utility.yul\":3655:3679   */\n      tag_187\n        /* \"#utility.yul\":3673:3678   */\n      dup2\n        /* \"#utility.yul\":3655:3679   */\n      tag_188\n      jump\t// in\n    tag_187:\n        /* \"#utility.yul\":3650:3653   */\n      dup3\n        /* \"#utility.yul\":3643:3680   */\n      mstore\n        /* \"#utility.yul\":3568:3686   */\n      pop\n      pop\n      jump\t// out\n        /* \"#utility.yul\":3692:3914   */\n    tag_37:\n        /* \"#utility.yul\":3785:3789   */\n      0x00\n        /* \"#utility.yul\":3823:3825   */\n      0x20\n        /* \"#utility.yul\":3812:3821   */\n      dup3\n        /* \"#utility.yul\":3808:3826   */\n      add\n        /* \"#utility.yul\":3800:3826   */\n      swap1\n      pop\n        /* \"#utility.yul\":3836:3907   */\n      tag_190\n        /* \"#utility.yul\":3904:3905   */\n      0x00\n        /* \"#utility.yul\":3893:3902   */\n      dup4\n        /* \"#utility.yul\":3889:3906   */\n      add\n        /* \"#utility.yul\":3880:3886   */\n      dup5\n        /* \"#utility.yul\":3836:3907   */\n      tag_162\n      jump\t// in\n    tag_190:\n        /* \"#utility.yul\":3692:3914   */\n      swap3\n      swap2\n      pop\n      pop\n      jump\t// out\n        /* \"#utility.yul\":3920:4174   */\n    tag_25:\n        /* \"#utility.yul\":4029:4033   */\n      0x00\n        /* \"#utility.yul\":4067:4069   */\n      0x20\n        /* \"#utility.yul\":4056:4065   */\n      dup3\n        /* \"#utility.yul\":4052:4070   */\n      add\n        /* \"#utility.yul\":4044:4070   */\n      swap1\n      pop\n        /* \"#utility.yul\":4080:4167   */\n      tag_192\n        /* \"#utility.yul\":4164:4165   */\n      0x00\n        /* \"#utility.yul\":4153:4162   */\n      dup4\n        /* \"#utility.yul\":4149:4166   */\n      add\n        /* \"#utility.yul\":4140:4146   */\n      dup5\n        /* \"#utility.yul\":4080:4167   */\n      tag_158\n      jump\t// in\n    tag_192:\n        /* \"#utility.yul\":3920:4174   */\n      swap3\n      swap2\n      pop\n      pop\n      jump\t// out\n        /* \"#utility.yul\":4180:4424   */\n    tag_21:\n        /* \"#utility.yul\":4284:4288   */\n      0x00\n        /* \"#utility.yul\":4322:4324   */\n      0x20\n        /* \"#utility.yul\":4311:4320   */\n      dup3\n        /* \"#utility.yul\":4307:4325   */\n      add\n        /* \"#utility.yul\":4299:4325   */\n      swap1\n      pop\n        /* \"#utility.yul\":4335:4417   */\n      tag_194\n        /* \"#utility.yul\":4414:4415   */\n      0x00\n        /* \"#utility.yul\":4403:4412   */\n      dup4\n        /* \"#utility.yul\":4399:4416   */\n      add\n        /* \"#utility.yul\":4390:4396   */\n      dup5\n        /* \"#utility.yul\":4335:4417   */\n      tag_166\n      jump\t// in\n    tag_194:\n        /* \"#utility.yul\":4180:4424   */\n      swap3\n      swap2\n      pop\n      pop\n      jump\t// out\n        /* \"#utility.yul\":4430:5367   */\n    tag_47:\n        /* \"#utility.yul\":4695:4699   */\n      0x00\n        /* \"#utility.yul\":4733:4736   */\n      0xa0\n        /* \"#utility.yul\":4722:4731   */\n      dup3\n        /* \"#utility.yul\":4718:4737   */\n      add\n        /* \"#utility.yul\":4710:4737   */\n      swap1\n      pop\n        /* \"#utility.yul\":4783:4792   */\n      dup2\n        /* \"#utility.yul\":4777:4781   */\n      dup2\n        /* \"#utility.yul\":4773:4793   */\n      sub\n        /* \"#utility.yul\":4769:4770   */\n      0x00\n        /* \"#utility.yul\":4758:4767   */\n      dup4\n        /* \"#utility.yul\":4754:4771   */\n      add\n        /* \"#utility.yul\":4747:4794   */\n      mstore\n        /* \"#utility.yul\":4811:4889   */\n      tag_196\n        /* \"#utility.yul\":4884:4888   */\n      dup2\n        /* \"#utility.yul\":4875:4881   */\n      dup9\n        /* \"#utility.yul\":4811:4889   */\n      tag_170\n      jump\t// in\n    tag_196:\n        /* \"#utility.yul\":4803:4889   */\n      swap1\n      pop\n        /* \"#utility.yul\":4936:4945   */\n      dup2\n        /* \"#utility.yul\":4930:4934   */\n      dup2\n        /* \"#utility.yul\":4926:4946   */\n      sub\n        /* \"#utility.yul\":4921:4923   */\n      0x20\n        /* \"#utility.yul\":4910:4919   */\n      dup4\n        /* \"#utility.yul\":4906:4924   */\n      add\n        /* \"#utility.yul\":4899:4947   */\n      mstore\n        /* \"#utility.yul\":4964:5042   */\n      tag_197\n        /* \"#utility.yul\":5037:5041   */\n      dup2\n        /* \"#utility.yul\":5028:5034   */\n      dup8\n        /* \"#utility.yul\":4964:5042   */\n      tag_170\n      jump\t// in\n    tag_197:\n        /* \"#utility.yul\":4956:5042   */\n      swap1\n      pop\n        /* \"#utility.yul\":5052:5124   */\n      tag_198\n        /* \"#utility.yul\":5120:5122   */\n      0x40\n        /* \"#utility.yul\":5109:5118   */\n      dup4\n        /* \"#utility.yul\":5105:5123   */\n      add\n        /* \"#utility.yul\":5096:5102   */\n      dup7\n        /* \"#utility.yul\":5052:5124   */\n      tag_185\n      jump\t// in\n    tag_198:\n        /* \"#utility.yul\":5171:5180   */\n      dup2\n        /* \"#utility.yul\":5165:5169   */\n      dup2\n        /* \"#utility.yul\":5161:5181   */\n      sub\n        /* \"#utility.yul\":5156:5158   */\n      0x60\n        /* \"#utility.yul\":5145:5154   */\n      dup4\n        /* \"#utility.yul\":5141:5159   */\n      add\n        /* \"#utility.yul\":5134:5182   */\n      mstore\n        /* \"#utility.yul\":5199:5277   */\n      tag_199\n        /* \"#utility.yul\":5272:5276   */\n      dup2\n        /* \"#utility.yul\":5263:5269   */\n      dup6\n        /* \"#utility.yul\":5199:5277   */\n      tag_170\n      jump\t// in\n    tag_199:\n        /* \"#utility.yul\":5191:5277   */\n      swap1\n      pop\n        /* \"#utility.yul\":5287:5360   */\n      tag_200\n        /* \"#utility.yul\":5355:5358   */\n      0x80\n        /* \"#utility.yul\":5344:5353   */\n      dup4\n        /* \"#utility.yul\":5340:5359   */\n      add\n        /* \"#utility.yul\":5331:5337   */\n      dup5\n        /* \"#utility.yul\":5287:5360   */\n      tag_185\n      jump\t// in\n    tag_200:\n        /* \"#utility.yul\":4430:5367   */\n      swap7\n      swap6\n      pop\n      pop\n      pop\n      pop\n      pop\n      pop\n      jump\t// out\n        /* \"#utility.yul\":5373:5792   */\n    tag_51:\n        /* \"#utility.yul\":5539:5543   */\n      0x00\n        /* \"#utility.yul\":5577:5579   */\n      0x20\n        /* \"#utility.yul\":5566:5575   */\n      dup3\n        /* \"#utility.yul\":5562:5580   */\n      add\n        /* \"#utility.yul\":5554:5580   */\n      swap1\n      pop\n        /* \"#utility.yul\":5626:5635   */\n      dup2\n        /* \"#utility.yul\":5620:5624   */\n      dup2\n        /* \"#utility.yul\":5616:5636   */\n      sub\n        /* \"#utility.yul\":5612:5613   */\n      0x00\n        /* \"#utility.yul\":5601:5610   */\n      dup4\n        /* \"#utility.yul\":5597:5614   */\n      add\n        /* \"#utility.yul\":5590:5637   */\n      mstore\n        /* \"#utility.yul\":5654:5785   */\n      tag_202\n        /* \"#utility.yul\":5780:5784   */\n      dup2\n        /* \"#utility.yul\":5654:5785   */\n      tag_180\n      jump\t// in\n    tag_202:\n        /* \"#utility.yul\":5646:5785   */\n      swap1\n      pop\n        /* \"#utility.yul\":5373:5792   */\n      swap2\n      swap1\n      pop\n      jump\t// out\n        /* \"#utility.yul\":5798:6020   */\n    tag_29:\n        /* \"#utility.yul\":5891:5895   */\n      0x00\n        /* \"#utility.yul\":5929:5931   */\n      0x20\n        /* \"#utility.yul\":5918:5927   */\n      dup3\n        /* \"#utility.yul\":5914:5932   */\n      add\n        /* \"#utility.yul\":5906:5932   */\n      swap1\n      pop\n        /* \"#utility.yul\":5942:6013   */\n      tag_204\n        /* \"#utility.yul\":6010:6011   */\n      0x00\n        /* \"#utility.yul\":5999:6008   */\n      dup4\n        /* \"#utility.yul\":5995:6012   */\n      add\n        /* \"#utility.yul\":5986:5992   */\n      dup5\n        /* \"#utility.yul\":5942:6013   */\n      tag_185\n      jump\t// in\n    tag_204:\n        /* \"#utility.yul\":5798:6020   */\n      swap3\n      swap2\n      pop\n      pop\n      jump\t// out\n        /* \"#utility.yul\":6026:6155   */\n    tag_122:\n        /* \"#utility.yul\":6060:6066   */\n      0x00\n        /* \"#utility.yul\":6087:6107   */\n      tag_206\n      tag_207\n      jump\t// in\n    tag_206:\n        /* \"#utility.yul\":6077:6107   */\n      swap1\n      pop\n        /* \"#utility.yul\":6116:6149   */\n      tag_208\n        /* \"#utility.yul\":6144:6148   */\n      dup3\n        /* \"#utility.yul\":6136:6142   */\n      dup3\n        /* \"#utility.yul\":6116:6149   */\n      tag_209\n      jump\t// in\n    tag_208:\n        /* \"#utility.yul\":6026:6155   */\n      swap2\n      swap1\n      pop\n      jump\t// out\n        /* \"#utility.yul\":6161:6236   */\n    tag_207:\n        /* \"#utility.yul\":6194:6200   */\n      0x00\n        /* \"#utility.yul\":6227:6229   */\n      0x40\n        /* \"#utility.yul\":6221:6230   */\n      mload\n        /* \"#utility.yul\":6211:6230   */\n      swap1\n      pop\n        /* \"#utility.yul\":6161:6236   */\n      swap1\n      jump\t// out\n        /* \"#utility.yul\":6242:6550   */\n    tag_121:\n        /* \"#utility.yul\":6304:6308   */\n      0x00\n        /* \"#utility.yul\":6394:6412   */\n      0xffffffffffffffff\n        /* \"#utility.yul\":6386:6392   */\n      dup3\n        /* \"#utility.yul\":6383:6413   */\n      gt\n        /* \"#utility.yul\":6380:6436   */\n      iszero\n      tag_212\n      jumpi\n        /* \"#utility.yul\":6416:6434   */\n      tag_213\n      tag_214\n      jump\t// in\n    tag_213:\n        /* \"#utility.yul\":6380:6436   */\n    tag_212:\n        /* \"#utility.yul\":6454:6483   */\n      tag_215\n        /* \"#utility.yul\":6476:6482   */\n      dup3\n        /* \"#utility.yul\":6454:6483   */\n      tag_179\n      jump\t// in\n    tag_215:\n        /* \"#utility.yul\":6446:6483   */\n      swap1\n      pop\n        /* \"#utility.yul\":6538:6542   */\n      0x20\n        /* \"#utility.yul\":6532:6536   */\n      dup2\n        /* \"#utility.yul\":6528:6543   */\n      add\n        /* \"#utility.yul\":6520:6543   */\n      swap1\n      pop\n        /* \"#utility.yul\":6242:6550   */\n      swap2\n      swap1\n      pop\n      jump\t// out\n        /* \"#utility.yul\":6556:6655   */\n    tag_173:\n        /* \"#utility.yul\":6608:6614   */\n      0x00\n        /* \"#utility.yul\":6642:6647   */\n      dup2\n        /* \"#utility.yul\":6636:6648   */\n      mload\n        /* \"#utility.yul\":6626:6648   */\n      swap1\n      pop\n        /* \"#utility.yul\":6556:6655   */\n      swap2\n      swap1\n      pop\n      jump\t// out\n        /* \"#utility.yul\":6661:6830   */\n    tag_175:\n        /* \"#utility.yul\":6745:6756   */\n      0x00\n        /* \"#utility.yul\":6779:6785   */\n      dup3\n        /* \"#utility.yul\":6774:6777   */\n      dup3\n        /* \"#utility.yul\":6767:6786   */\n      mstore\n        /* \"#utility.yul\":6819:6823   */\n      0x20\n        /* \"#utility.yul\":6814:6817   */\n      dup3\n        /* \"#utility.yul\":6810:6824   */\n      add\n        /* \"#utility.yul\":6795:6824   */\n      swap1\n      pop\n        /* \"#utility.yul\":6661:6830   */\n      swap3\n      swap2\n      pop\n      pop\n      jump\t// out\n        /* \"#utility.yul\":6836:7184   */\n    tag_71:\n        /* \"#utility.yul\":6876:6883   */\n      0x00\n        /* \"#utility.yul\":6899:6919   */\n      tag_219\n        /* \"#utility.yul\":6917:6918   */\n      dup3\n        /* \"#utility.yul\":6899:6919   */\n      tag_188\n      jump\t// in\n    tag_219:\n        /* \"#utility.yul\":6894:6919   */\n      swap2\n      pop\n        /* \"#utility.yul\":6933:6953   */\n      tag_220\n        /* \"#utility.yul\":6951:6952   */\n      dup4\n        /* \"#utility.yul\":6933:6953   */\n      tag_188\n      jump\t// in\n    tag_220:\n        /* \"#utility.yul\":6928:6953   */\n      swap3\n      pop\n        /* \"#utility.yul\":7121:7122   */\n      dup2\n        /* \"#utility.yul\":7053:7119   */\n      0xffffffffffffffffffffffffffffffffffffffffffffffffffffffffffffffff\n        /* \"#utility.yul\":7049:7123   */\n      div\n        /* \"#utility.yul\":7046:7047   */\n      dup4\n        /* \"#utility.yul\":7043:7124   */\n      gt\n        /* \"#utility.yul\":7038:7039   */\n      dup3\n        /* \"#utility.yul\":7031:7040   */\n      iszero\n        /* \"#utility.yul\":7024:7041   */\n      iszero\n        /* \"#utility.yul\":7020:7125   */\n      and\n        /* \"#utility.yul\":7017:7148   */\n      iszero\n      tag_221\n      jumpi\n        /* \"#utility.yul\":7128:7146   */\n      tag_222\n      tag_223\n      jump\t// in\n    tag_222:\n        /* \"#utility.yul\":7017:7148   */\n    tag_221:\n        /* \"#utility.yul\":7176:7177   */\n      dup3\n        /* \"#utility.yul\":7173:7174   */\n      dup3\n        /* \"#utility.yul\":7169:7178   */\n      mul\n        /* \"#utility.yul\":7158:7178   */\n      swap1\n      pop\n        /* \"#utility.yul\":6836:7184   */\n      swap3\n      swap2\n      pop\n      pop\n      jump\t// out\n        /* \"#utility.yul\":7190:7286   */\n    tag_165:\n        /* \"#utility.yul\":7227:7234   */\n      0x00\n        /* \"#utility.yul\":7256:7280   */\n      tag_225\n        /* \"#utility.yul\":7274:7279   */\n      dup3\n        /* \"#utility.yul\":7256:7280   */\n      tag_226\n      jump\t// in\n    tag_225:\n        /* \"#utility.yul\":7245:7280   */\n      swap1\n      pop\n        /* \"#utility.yul\":7190:7286   */\n      swap2\n      swap1\n      pop\n      jump\t// out\n        /* \"#utility.yul\":7292:7396   */\n    tag_161:\n        /* \"#utility.yul\":7337:7344   */\n      0x00\n        /* \"#utility.yul\":7366:7390   */\n      tag_228\n        /* \"#utility.yul\":7384:7389   */\n      dup3\n        /* \"#utility.yul\":7366:7390   */\n      tag_226\n      jump\t// in\n    tag_228:\n        /* \"#utility.yul\":7355:7390   */\n      swap1\n      pop\n        /* \"#utility.yul\":7292:7396   */\n      swap2\n      swap1\n      pop\n      jump\t// out\n        /* \"#utility.yul\":7402:7539   */\n    tag_229:\n        /* \"#utility.yul\":7452:7459   */\n      0x00\n        /* \"#utility.yul\":7481:7486   */\n      dup2\n        /* \"#utility.yul\":7470:7486   */\n      swap1\n      pop\n        /* \"#utility.yul\":7487:7533   */\n      tag_231\n        /* \"#utility.yul\":7527:7532   */\n      dup3\n        /* \"#utility.yul\":7487:7533   */\n      tag_232\n      jump\t// in\n    tag_231:\n        /* \"#utility.yul\":7402:7539   */\n      swap2\n      swap1\n      pop\n      jump\t// out\n        /* \"#utility.yul\":7545:7671   */\n    tag_226:\n        /* \"#utility.yul\":7582:7589   */\n      0x00\n        /* \"#utility.yul\":7622:7664   */\n      0xffffffffffffffffffffffffffffffffffffffff\n        /* \"#utility.yul\":7615:7620   */\n      dup3\n        /* \"#utility.yul\":7611:7665   */\n      and\n        /* \"#utility.yul\":7600:7665   */\n      swap1\n      pop\n        /* \"#utility.yul\":7545:7671   */\n      swap2\n      swap1\n      pop\n      jump\t// out\n        /* \"#utility.yul\":7677:7754   */\n    tag_188:\n        /* \"#utility.yul\":7714:7721   */\n      0x00\n        /* \"#utility.yul\":7743:7748   */\n      dup2\n        /* \"#utility.yul\":7732:7748   */\n      swap1\n      pop\n        /* \"#utility.yul\":7677:7754   */\n      swap2\n      swap1\n      pop\n      jump\t// out\n        /* \"#utility.yul\":7760:7897   */\n    tag_169:\n        /* \"#utility.yul\":7821:7830   */\n      0x00\n        /* \"#utility.yul\":7854:7891   */\n      tag_236\n        /* \"#utility.yul\":7885:7890   */\n      dup3\n        /* \"#utility.yul\":7854:7891   */\n      tag_229\n      jump\t// in\n    tag_236:\n        /* \"#utility.yul\":7841:7891   */\n      swap1\n      pop\n        /* \"#utility.yul\":7760:7897   */\n      swap2\n      swap1\n      pop\n      jump\t// out\n        /* \"#utility.yul\":7903:8057   */\n    tag_127:\n        /* \"#utility.yul\":7987:7993   */\n      dup3\n        /* \"#utility.yul\":7982:7985   */\n      dup2\n        /* \"#utility.yul\":7977:7980   */\n      dup4\n        /* \"#utility.yul\":7964:7994   */\n      calldatacopy\n        /* \"#utility.yul\":8049:8050   */\n      0x00\n        /* \"#utility.yul\":8040:8046   */\n      dup4\n        /* \"#utility.yul\":8035:8038   */\n      dup4\n        /* \"#utility.yul\":8031:8047   */\n      add\n        /* \"#utility.yul\":8024:8051   */\n      mstore\n        /* \"#utility.yul\":7903:8057   */\n      pop\n      pop\n      pop\n      jump\t// out\n        /* \"#utility.yul\":8063:8370   */\n    tag_177:\n        /* \"#utility.yul\":8131:8132   */\n      0x00\n        /* \"#utility.yul\":8141:8254   */\n    tag_239:\n        /* \"#utility.yul\":8155:8161   */\n      dup4\n        /* \"#utility.yul\":8152:8153   */\n      dup2\n        /* \"#utility.yul\":8149:8162   */\n      lt\n        /* \"#utility.yul\":8141:8254   */\n      iszero\n      tag_241\n      jumpi\n        /* \"#utility.yul\":8240:8241   */\n      dup1\n        /* \"#utility.yul\":8235:8238   */\n      dup3\n        /* \"#utility.yul\":8231:8242   */\n      add\n        /* \"#utility.yul\":8225:8243   */\n      mload\n        /* \"#utility.yul\":8221:8222   */\n      dup2\n        /* \"#utility.yul\":8216:8219   */\n      dup5\n        /* \"#utility.yul\":8212:8223   */\n      add\n        /* \"#utility.yul\":8205:8244   */\n      mstore\n        /* \"#utility.yul\":8177:8179   */\n      0x20\n        /* \"#utility.yul\":8174:8175   */\n      dup2\n        /* \"#utility.yul\":8170:8180   */\n      add\n        /* \"#utility.yul\":8165:8180   */\n      swap1\n      pop\n        /* \"#utility.yul\":8141:8254   */\n      jump(tag_239)\n    tag_241:\n        /* \"#utility.yul\":8272:8278   */\n      dup4\n        /* \"#utility.yul\":8269:8270   */\n      dup2\n        /* \"#utility.yul\":8266:8279   */\n      gt\n        /* \"#utility.yul\":8263:8364   */\n      iszero\n      tag_242\n      jumpi\n        /* \"#utility.yul\":8352:8353   */\n      0x00\n        /* \"#utility.yul\":8343:8349   */\n      dup5\n        /* \"#utility.yul\":8338:8341   */\n      dup5\n        /* \"#utility.yul\":8334:8350   */\n      add\n        /* \"#utility.yul\":8327:8354   */\n      mstore\n        /* \"#utility.yul\":8263:8364   */\n    tag_242:\n        /* \"#utility.yul\":8112:8370   */\n      pop\n        /* \"#utility.yul\":8063:8370   */\n      pop\n      pop\n      pop\n      jump\t// out\n        /* \"#utility.yul\":8376:8696   */\n    tag_53:\n        /* \"#utility.yul\":8420:8426   */\n      0x00\n        /* \"#utility.yul\":8457:8458   */\n      0x02\n        /* \"#utility.yul\":8451:8455   */\n      dup3\n        /* \"#utility.yul\":8447:8459   */\n      div\n        /* \"#utility.yul\":8437:8459   */\n      swap1\n      pop\n        /* \"#utility.yul\":8504:8505   */\n      0x01\n        /* \"#utility.yul\":8498:8502   */\n      dup3\n        /* \"#utility.yul\":8494:8506   */\n      and\n        /* \"#utility.yul\":8525:8543   */\n      dup1\n        /* \"#utility.yul\":8515:8596   */\n      tag_244\n      jumpi\n        /* \"#utility.yul\":8581:8585   */\n      0x7f\n        /* \"#utility.yul\":8573:8579   */\n      dup3\n        /* \"#utility.yul\":8569:8586   */\n      and\n        /* \"#utility.yul\":8559:8586   */\n      swap2\n      pop\n        /* \"#utility.yul\":8515:8596   */\n    tag_244:\n        /* \"#utility.yul\":8643:8645   */\n      0x20\n        /* \"#utility.yul\":8635:8641   */\n      dup3\n        /* \"#utility.yul\":8632:8646   */\n      lt\n        /* \"#utility.yul\":8612:8630   */\n      dup2\n        /* \"#utility.yul\":8609:8647   */\n      eq\n        /* \"#utility.yul\":8606:8690   */\n      iszero\n      tag_245\n      jumpi\n        /* \"#utility.yul\":8662:8680   */\n      tag_246\n      tag_247\n      jump\t// in\n    tag_246:\n        /* \"#utility.yul\":8606:8690   */\n    tag_245:\n        /* \"#utility.yul\":8427:8696   */\n      pop\n        /* \"#utility.yul\":8376:8696   */\n      swap2\n      swap1\n      pop\n      jump\t// out\n        /* \"#utility.yul\":8702:8983   */\n    tag_209:\n        /* \"#utility.yul\":8785:8812   */\n      tag_249\n        /* \"#utility.yul\":8807:8811   */\n      dup3\n        /* \"#utility.yul\":8785:8812   */\n      tag_179\n      jump\t// in\n    tag_249:\n        /* \"#utility.yul\":8777:8783   */\n      dup2\n        /* \"#utility.yul\":8773:8813   */\n      add\n        /* \"#utility.yul\":8915:8921   */\n      dup2\n        /* \"#utility.yul\":8903:8913   */\n      dup2\n        /* \"#utility.yul\":8900:8922   */\n      lt\n        /* \"#utility.yul\":8879:8897   */\n      0xffffffffffffffff\n        /* \"#utility.yul\":8867:8877   */\n      dup3\n        /* \"#utility.yul\":8864:8898   */\n      gt\n        /* \"#utility.yul\":8861:8923   */\n      or\n        /* \"#utility.yul\":8858:8946   */\n      iszero\n      tag_250\n      jumpi\n        /* \"#utility.yul\":8926:8944   */\n      tag_251\n      tag_214\n      jump\t// in\n    tag_251:\n        /* \"#utility.yul\":8858:8946   */\n    tag_250:\n        /* \"#utility.yul\":8966:8976   */\n      dup1\n        /* \"#utility.yul\":8962:8964   */\n      0x40\n        /* \"#utility.yul\":8955:8977   */\n      mstore\n        /* \"#utility.yul\":8745:8983   */\n      pop\n        /* \"#utility.yul\":8702:8983   */\n      pop\n      pop\n      jump\t// out\n        /* \"#utility.yul\":8989:9169   */\n    tag_223:\n        /* \"#utility.yul\":9037:9114   */\n      0x4e487b7100000000000000000000000000000000000000000000000000000000\n        /* \"#utility.yul\":9034:9035   */\n      0x00\n        /* \"#utility.yul\":9027:9115   */\n      mstore\n        /* \"#utility.yul\":9134:9138   */\n      0x11\n        /* \"#utility.yul\":9131:9132   */\n      0x04\n        /* \"#utility.yul\":9124:9139   */\n      mstore\n        /* \"#utility.yul\":9158:9162   */\n      0x24\n        /* \"#utility.yul\":9155:9156   */\n      0x00\n        /* \"#utility.yul\":9148:9163   */\n      revert\n        /* \"#utility.yul\":9175:9355   */\n    tag_65:\n        /* \"#utility.yul\":9223:9300   */\n      0x4e487b7100000000000000000000000000000000000000000000000000000000\n        /* \"#utility.yul\":9220:9221   */\n      0x00\n        /* \"#utility.yul\":9213:9301   */\n      mstore\n        /* \"#utility.yul\":9320:9324   */\n      0x21\n        /* \"#utility.yul\":9317:9318   */\n      0x04\n        /* \"#utility.yul\":9310:9325   */\n      mstore\n        /* \"#utility.yul\":9344:9348   */\n      0x24\n        /* \"#utility.yul\":9341:9342   */\n      0x00\n        /* \"#utility.yul\":9334:9349   */\n      revert\n        /* \"#utility.yul\":9361:9541   */\n    tag_247:\n        /* \"#utility.yul\":9409:9486   */\n      0x4e487b7100000000000000000000000000000000000000000000000000000000\n        /* \"#utility.yul\":9406:9407   */\n      0x00\n        /* \"#utility.yul\":9399:9487   */\n      mstore\n        /* \"#utility.yul\":9506:9510   */\n      0x22\n        /* \"#utility.yul\":9503:9504   */\n      0x04\n        /* \"#utility.yul\":9496:9511   */\n      mstore\n        /* \"#utility.yul\":9530:9534   */\n      0x24\n        /* \"#utility.yul\":9527:9528   */\n      0x00\n        /* \"#utility.yul\":9520:9535   */\n      revert\n        /* \"#utility.yul\":9547:9727   */\n    tag_214:\n        /* \"#utility.yul\":9595:9672   */\n      0x4e487b7100000000000000000000000000000000000000000000000000000000\n        /* \"#utility.yul\":9592:9593   */\n      0x00\n        /* \"#utility.yul\":9585:9673   */\n      mstore\n        /* \"#utility.yul\":9692:9696   */\n      0x41\n        /* \"#utility.yul\":9689:9690   */\n      0x04\n        /* \"#utility.yul\":9682:9697   */\n      mstore\n        /* \"#utility.yul\":9716:9720   */\n      0x24\n        /* \"#utility.yul\":9713:9714   */\n      0x00\n        /* \"#utility.yul\":9706:9721   */\n      revert\n        /* \"#utility.yul\":9733:9850   */\n    tag_136:\n        /* \"#utility.yul\":9842:9843   */\n      0x00\n        /* \"#utility.yul\":9839:9840   */\n      dup1\n        /* \"#utility.yul\":9832:9844   */\n      revert\n        /* \"#utility.yul\":9856:9973   */\n    tag_125:\n        /* \"#utility.yul\":9965:9966   */\n      0x00\n        /* \"#utility.yul\":9962:9963   */\n      dup1\n        /* \"#utility.yul\":9955:9967   */\n      revert\n        /* \"#utility.yul\":9979:10096   */\n    tag_152:\n        /* \"#utility.yul\":10088:10089   */\n      0x00\n        /* \"#utility.yul\":10085:10086   */\n      dup1\n        /* \"#utility.yul\":10078:10090   */\n      revert\n        /* \"#utility.yul\":10102:10219   */\n    tag_145:\n        /* \"#utility.yul\":10211:10212   */\n      0x00\n        /* \"#utility.yul\":10208:10209   */\n      dup1\n        /* \"#utility.yul\":10201:10213   */\n      revert\n        /* \"#utility.yul\":10225:10327   */\n    tag_179:\n        /* \"#utility.yul\":10266:10272   */\n      0x00\n        /* \"#utility.yul\":10317:10319   */\n      0x1f\n        /* \"#utility.yul\":10313:10320   */\n      not\n        /* \"#utility.yul\":10308:10310   */\n      0x1f\n        /* \"#utility.yul\":10301:10306   */\n      dup4\n        /* \"#utility.yul\":10297:10311   */\n      add\n        /* \"#utility.yul\":10293:10321   */\n      and\n        /* \"#utility.yul\":10283:10321   */\n      swap1\n      pop\n        /* \"#utility.yul\":10225:10327   */\n      swap2\n      swap1\n      pop\n      jump\t// out\n        /* \"#utility.yul\":10333:10512   */\n    tag_184:\n        /* \"#utility.yul\":10473:10504   */\n      0x706c656173652073656c6563742074686520636c617373206669727374000000\n        /* \"#utility.yul\":10469:10470   */\n      0x00\n        /* \"#utility.yul\":10461:10467   */\n      dup3\n        /* \"#utility.yul\":10457:10471   */\n      add\n        /* \"#utility.yul\":10450:10505   */\n      mstore\n        /* \"#utility.yul\":10333:10512   */\n      pop\n      jump\t// out\n        /* \"#utility.yul\":10518:10636   */\n    tag_232:\n        /* \"#utility.yul\":10604:10605   */\n      0x03\n        /* \"#utility.yul\":10597:10602   */\n      dup2\n        /* \"#utility.yul\":10594:10606   */\n      lt\n        /* \"#utility.yul\":10584:10630   */\n      tag_263\n      jumpi\n        /* \"#utility.yul\":10610:10628   */\n      tag_264\n      tag_65\n      jump\t// in\n    tag_264:\n        /* \"#utility.yul\":10584:10630   */\n    tag_263:\n        /* \"#utility.yul\":10518:10636   */\n      pop\n      jump\t// out\n        /* \"#utility.yul\":10642:10764   */\n    tag_131:\n        /* \"#utility.yul\":10715:10739   */\n      tag_266\n        /* \"#utility.yul\":10733:10738   */\n      dup2\n        /* \"#utility.yul\":10715:10739   */\n      tag_165\n      jump\t// in\n    tag_266:\n        /* \"#utility.yul\":10708:10713   */\n      dup2\n        /* \"#utility.yul\":10705:10740   */\n      eq\n        /* \"#utility.yul\":10695:10758   */\n      tag_267\n      jumpi\n        /* \"#utility.yul\":10754:10755   */\n      0x00\n        /* \"#utility.yul\":10751:10752   */\n      dup1\n        /* \"#utility.yul\":10744:10756   */\n      revert\n        /* \"#utility.yul\":10695:10758   */\n    tag_267:\n        /* \"#utility.yul\":10642:10764   */\n      pop\n      jump\t// out\n        /* \"#utility.yul\":10770:10892   */\n    tag_141:\n        /* \"#utility.yul\":10843:10867   */\n      tag_269\n        /* \"#utility.yul\":10861:10866   */\n      dup2\n        /* \"#utility.yul\":10843:10867   */\n      tag_188\n      jump\t// in\n    tag_269:\n        /* \"#utility.yul\":10836:10841   */\n      dup2\n        /* \"#utility.yul\":10833:10868   */\n      eq\n        /* \"#utility.yul\":10823:10886   */\n      tag_270\n      jumpi\n        /* \"#utility.yul\":10882:10883   */\n      0x00\n        /* \"#utility.yul\":10879:10880   */\n      dup1\n        /* \"#utility.yul\":10872:10884   */\n      revert\n        /* \"#utility.yul\":10823:10886   */\n    tag_270:\n        /* \"#utility.yul\":10770:10892   */\n      pop\n      jump\t// out\n\n    auxdata: 0xa2646970667358221220a7374dd3fcc88882b9db10d1d9cc038733680ce80b2b0c06cc2678e6167555e964736f6c63430008070033\n}\n",
				"bytecode": {
					"linkReferences": {},
					"object": "60806040526000600160146101000a81548160ff0219169083151502179055506040518060400160405280600d81526020017f45636f6e6f6d7920436c61737300000000000000000000000000000000000000815250600390805190602001906200006c92919062000149565b5060016005556001600760006101000a81548160ff021916908360028111156200009b576200009a6200022f565b5b0217905550348015620000ad57600080fd5b5073dd870fa1b7c4700f2bd7f44238821c26f73921486000806101000a81548173ffffffffffffffffffffffffffffffffffffffff021916908373ffffffffffffffffffffffffffffffffffffffff16021790555033600160006101000a81548173ffffffffffffffffffffffffffffffffffffffff021916908373ffffffffffffffffffffffffffffffffffffffff1602179055506200028d565b8280546200015790620001f9565b90600052602060002090601f0160209004810192826200017b5760008555620001c7565b82601f106200019657805160ff1916838001178555620001c7565b82800160010185558215620001c7579182015b82811115620001c6578251825591602001919060010190620001a9565b5b509050620001d69190620001da565b5090565b5b80821115620001f5576000816000905550600101620001db565b5090565b600060028204905060018216806200021257607f821691505b602082108114156200022957620002286200025e565b5b50919050565b7f4e487b7100000000000000000000000000000000000000000000000000000000600052602160045260246000fd5b7f4e487b7100000000000000000000000000000000000000000000000000000000600052602260045260246000fd5b610f71806200029d6000396000f3fe608060405234801561001057600080fd5b506004361061009e5760003560e01c80637a1736d1116100665780637a1736d1146101235780638da5cb5b1461012d5780639e67f53e1461014b578063b24fa0e414610155578063b90d3d0c1461015f5761009e565b806317ae4589146100a35780631aa35610146100bf5780634f8632ba146100dd5780634fb2e0be146100fb5780635018350714610119575b600080fd5b6100bd60048036038101906100b891906109f4565b610193565b005b6100c7610347565b6040516100d49190610b4d565b60405180910390f35b6100e561035a565b6040516100f29190610b32565b60405180910390f35b610103610380565b6040516101109190610bf0565b60405180910390f35b610121610386565b005b61012b610468565b005b61013561054a565b6040516101429190610b17565b60405180910390f35b61015361056e565b005b61015d6105db565b005b610179600480360381019061017491906109c7565b6106bc565b60405161018a959493929190610b68565b60405180910390f35b600160149054906101000a900460ff166101e2576040517f08c379a00000000000000000000000000000000000000000000000000000000081526004016101d990610bd0565b60405180910390fd5b6040518060a001604052808481526020018381526020018281526020016003805461020c90610d8c565b80601f016020809104026020016040519081016040528092919081815260200182805461023890610d8c565b80156102855780601f1061025a57610100808354040283529160200191610285565b820191906000526020600020905b81548152906001019060200180831161026857829003601f168201915b50505050508152602001600454815250600660003373ffffffffffffffffffffffffffffffffffffffff1673ffffffffffffffffffffffffffffffffffffffff16815260200190815260200160002060008201518160000190805190602001906102f092919061088a565b50602082015181600101908051906020019061030d92919061088a565b5060408201518160020155606082015181600301908051906020019061033492919061088a565b5060808201518160040155905050505050565b600760009054906101000a900460ff1681565b600160009054906101000a900473ffffffffffffffffffffffffffffffffffffffff1681565b60055481565b6000600760006101000a81548160ff021916908360028111156103ac576103ab610e1e565b5b0217905550600760009054906101000a900460ff1660028111156103d3576103d2610e1e565b5b6002819055506000600254141561044c576040518060400160405280600b81526020017f466972737420436c6173730000000000000000000000000000000000000000008152506003908051906020019061042f92919061088a565b50662386f26fc100006005546104459190610c7d565b6004819055505b60018060146101000a81548160ff021916908315150217905550565b6001600760006101000a81548160ff0219169083600281111561048e5761048d610e1e565b5b0217905550600760009054906101000a900460ff1660028111156104b5576104b4610e1e565b5b6002819055506001600254141561052e576040518060400160405280600d81526020017f45636f6e6f6d7920436c617373000000000000000000000000000000000000008152506003908051906020019061051192919061088a565b506611c37937e080006005546105279190610c7d565b6004819055505b60018060146101000a81548160ff021916908315150217905550565b60008054906101000a900473ffffffffffffffffffffffffffffffffffffffff1681565b600160009054906101000a900473ffffffffffffffffffffffffffffffffffffffff1673ffffffffffffffffffffffffffffffffffffffff166108fc6004549081150290604051600060405180830381858888f193505050501580156105d8573d6000803e3d6000fd5b50565b6002600760006101000a81548160ff0219169083600281111561060157610600610e1e565b5b0217905550600760009054906101000a900460ff16600281111561062857610627610e1e565b5b6002819055506002805414156106a0576040518060400160405280600d81526020017f4275736e69737320436c617373000000000000000000000000000000000000008152506003908051906020019061068392919061088a565b506618de76816d80006005546106999190610c7d565b6004819055505b60018060146101000a81548160ff021916908315150217905550565b60066020528060005260406000206000915090508060000180546106df90610d8c565b80601f016020809104026020016040519081016040528092919081815260200182805461070b90610d8c565b80156107585780601f1061072d57610100808354040283529160200191610758565b820191906000526020600020905b81548152906001019060200180831161073b57829003601f168201915b50505050509080600101805461076d90610d8c565b80601f016020809104026020016040519081016040528092919081815260200182805461079990610d8c565b80156107e65780601f106107bb576101008083540402835291602001916107e6565b820191906000526020600020905b8154815290600101906020018083116107c957829003601f168201915b50505050509080600201549080600301805461080190610d8c565b80601f016020809104026020016040519081016040528092919081815260200182805461082d90610d8c565b801561087a5780601f1061084f5761010080835404028352916020019161087a565b820191906000526020600020905b81548152906001019060200180831161085d57829003601f168201915b5050505050908060040154905085565b82805461089690610d8c565b90600052602060002090601f0160209004810192826108b857600085556108ff565b82601f106108d157805160ff19168380011785556108ff565b828001600101855582156108ff579182015b828111156108fe5782518255916020019190600101906108e3565b5b50905061090c9190610910565b5090565b5b80821115610929576000816000905550600101610911565b5090565b600061094061093b84610c30565b610c0b565b90508281526020810184848401111561095c5761095b610eb0565b5b610967848285610d4a565b509392505050565b60008135905061097e81610f0d565b92915050565b600082601f83011261099957610998610eab565b5b81356109a984826020860161092d565b91505092915050565b6000813590506109c181610f24565b92915050565b6000602082840312156109dd576109dc610eba565b5b60006109eb8482850161096f565b91505092915050565b600080600060608486031215610a0d57610a0c610eba565b5b600084013567ffffffffffffffff811115610a2b57610a2a610eb5565b5b610a3786828701610984565b935050602084013567ffffffffffffffff811115610a5857610a57610eb5565b5b610a6486828701610984565b9250506040610a75868287016109b2565b9150509250925092565b610a8881610ce9565b82525050565b610a9781610cd7565b82525050565b610aa681610d38565b82525050565b6000610ab782610c61565b610ac18185610c6c565b9350610ad1818560208601610d59565b610ada81610ebf565b840191505092915050565b6000610af2601d83610c6c565b9150610afd82610ed0565b602082019050919050565b610b1181610d2e565b82525050565b6000602082019050610b2c6000830184610a8e565b92915050565b6000602082019050610b476000830184610a7f565b92915050565b6000602082019050610b626000830184610a9d565b92915050565b600060a0820190508181036000830152610b828188610aac565b90508181036020830152610b968187610aac565b9050610ba56040830186610b08565b8181036060830152610bb78185610aac565b9050610bc66080830184610b08565b9695505050505050565b60006020820190508181036000830152610be981610ae5565b9050919050565b6000602082019050610c056000830184610b08565b92915050565b6000610c15610c26565b9050610c218282610dbe565b919050565b6000604051905090565b600067ffffffffffffffff821115610c4b57610c4a610e7c565b5b610c5482610ebf565b9050602081019050919050565b600081519050919050565b600082825260208201905092915050565b6000610c8882610d2e565b9150610c9383610d2e565b9250817fffffffffffffffffffffffffffffffffffffffffffffffffffffffffffffffff0483118215151615610ccc57610ccb610def565b5b828202905092915050565b6000610ce282610d0e565b9050919050565b6000610cf482610d0e565b9050919050565b6000819050610d0982610ef9565b919050565b600073ffffffffffffffffffffffffffffffffffffffff82169050919050565b6000819050919050565b6000610d4382610cfb565b9050919050565b82818337600083830152505050565b60005b83811015610d77578082015181840152602081019050610d5c565b83811115610d86576000848401525b50505050565b60006002820490506001821680610da457607f821691505b60208210811415610db857610db7610e4d565b5b50919050565b610dc782610ebf565b810181811067ffffffffffffffff82111715610de657610de5610e7c565b5b80604052505050565b7f4e487b7100000000000000000000000000000000000000000000000000000000600052601160045260246000fd5b7f4e487b7100000000000000000000000000000000000000000000000000000000600052602160045260246000fd5b7f4e487b7100000000000000000000000000000000000000000000000000000000600052602260045260246000fd5b7f4e487b7100000000000000000000000000000000000000000000000000000000600052604160045260246000fd5b600080fd5b600080fd5b600080fd5b600080fd5b6000601f19601f8301169050919050565b7f706c656173652073656c6563742074686520636c617373206669727374000000600082015250565b60038110610f0a57610f09610e1e565b5b50565b610f1681610cd7565b8114610f2157600080fd5b50565b610f2d81610d2e565b8114610f3857600080fd5b5056fea2646970667358221220a7374dd3fcc88882b9db10d1d9cc038733680ce80b2b0c06cc2678e6167555e964736f6c63430008070033",
					"opcodes": "PUSH1 0x80 PUSH1 0x40 MSTORE PUSH1 0x0 PUSH1 0x1 PUSH1 0x14 PUSH2 0x100 EXP DUP2 SLOAD DUP2 PUSH1 0xFF MUL NOT AND SWAP1 DUP4 ISZERO ISZERO MUL OR SWAP1 SSTORE POP PUSH1 0x40 MLOAD DUP1 PUSH1 0x40 ADD PUSH1 0x40 MSTORE DUP1 PUSH1 0xD DUP2 MSTORE PUSH1 0x20 ADD PUSH32 0x45636F6E6F6D7920436C61737300000000000000000000000000000000000000 DUP2 MSTORE POP PUSH1 0x3 SWAP1 DUP1 MLOAD SWAP1 PUSH1 0x20 ADD SWAP1 PUSH3 0x6C SWAP3 SWAP2 SWAP1 PUSH3 0x149 JUMP JUMPDEST POP PUSH1 0x1 PUSH1 0x5 SSTORE PUSH1 0x1 PUSH1 0x7 PUSH1 0x0 PUSH2 0x100 EXP DUP2 SLOAD DUP2 PUSH1 0xFF MUL NOT AND SWAP1 DUP4 PUSH1 0x2 DUP2 GT ISZERO PUSH3 0x9B JUMPI PUSH3 0x9A PUSH3 0x22F JUMP JUMPDEST JUMPDEST MUL OR SWAP1 SSTORE POP CALLVALUE DUP1 ISZERO PUSH3 0xAD JUMPI PUSH1 0x0 DUP1 REVERT JUMPDEST POP PUSH20 0xDD870FA1B7C4700F2BD7F44238821C26F7392148 PUSH1 0x0 DUP1 PUSH2 0x100 EXP DUP2 SLOAD DUP2 PUSH20 0xFFFFFFFFFFFFFFFFFFFFFFFFFFFFFFFFFFFFFFFF MUL NOT AND SWAP1 DUP4 PUSH20 0xFFFFFFFFFFFFFFFFFFFFFFFFFFFFFFFFFFFFFFFF AND MUL OR SWAP1 SSTORE POP CALLER PUSH1 0x1 PUSH1 0x0 PUSH2 0x100 EXP DUP2 SLOAD DUP2 PUSH20 0xFFFFFFFFFFFFFFFFFFFFFFFFFFFFFFFFFFFFFFFF MUL NOT AND SWAP1 DUP4 PUSH20 0xFFFFFFFFFFFFFFFFFFFFFFFFFFFFFFFFFFFFFFFF AND MUL OR SWAP1 SSTORE POP PUSH3 0x28D JUMP JUMPDEST DUP3 DUP1 SLOAD PUSH3 0x157 SWAP1 PUSH3 0x1F9 JUMP JUMPDEST SWAP1 PUSH1 0x0 MSTORE PUSH1 0x20 PUSH1 0x0 KECCAK256 SWAP1 PUSH1 0x1F ADD PUSH1 0x20 SWAP1 DIV DUP2 ADD SWAP3 DUP3 PUSH3 0x17B JUMPI PUSH1 0x0 DUP6 SSTORE PUSH3 0x1C7 JUMP JUMPDEST DUP3 PUSH1 0x1F LT PUSH3 0x196 JUMPI DUP1 MLOAD PUSH1 0xFF NOT AND DUP4 DUP1 ADD OR DUP6 SSTORE PUSH3 0x1C7 JUMP JUMPDEST DUP3 DUP1 ADD PUSH1 0x1 ADD DUP6 SSTORE DUP3 ISZERO PUSH3 0x1C7 JUMPI SWAP2 DUP3 ADD JUMPDEST DUP3 DUP2 GT ISZERO PUSH3 0x1C6 JUMPI DUP3 MLOAD DUP3 SSTORE SWAP2 PUSH1 0x20 ADD SWAP2 SWAP1 PUSH1 0x1 ADD SWAP1 PUSH3 0x1A9 JUMP JUMPDEST JUMPDEST POP SWAP1 POP PUSH3 0x1D6 SWAP2 SWAP1 PUSH3 0x1DA JUMP JUMPDEST POP SWAP1 JUMP JUMPDEST JUMPDEST DUP1 DUP3 GT ISZERO PUSH3 0x1F5 JUMPI PUSH1 0x0 DUP2 PUSH1 0x0 SWAP1 SSTORE POP PUSH1 0x1 ADD PUSH3 0x1DB JUMP JUMPDEST POP SWAP1 JUMP JUMPDEST PUSH1 0x0 PUSH1 0x2 DUP3 DIV SWAP1 POP PUSH1 0x1 DUP3 AND DUP1 PUSH3 0x212 JUMPI PUSH1 0x7F DUP3 AND SWAP2 POP JUMPDEST PUSH1 0x20 DUP3 LT DUP2 EQ ISZERO PUSH3 0x229 JUMPI PUSH3 0x228 PUSH3 0x25E JUMP JUMPDEST JUMPDEST POP SWAP2 SWAP1 POP JUMP JUMPDEST PUSH32 0x4E487B7100000000000000000000000000000000000000000000000000000000 PUSH1 0x0 MSTORE PUSH1 0x21 PUSH1 0x4 MSTORE PUSH1 0x24 PUSH1 0x0 REVERT JUMPDEST PUSH32 0x4E487B7100000000000000000000000000000000000000000000000000000000 PUSH1 0x0 MSTORE PUSH1 0x22 PUSH1 0x4 MSTORE PUSH1 0x24 PUSH1 0x0 REVERT JUMPDEST PUSH2 0xF71 DUP1 PUSH3 0x29D PUSH1 0x0 CODECOPY PUSH1 0x0 RETURN INVALID PUSH1 0x80 PUSH1 0x40 MSTORE CALLVALUE DUP1 ISZERO PUSH2 0x10 JUMPI PUSH1 0x0 DUP1 REVERT JUMPDEST POP PUSH1 0x4 CALLDATASIZE LT PUSH2 0x9E JUMPI PUSH1 0x0 CALLDATALOAD PUSH1 0xE0 SHR DUP1 PUSH4 0x7A1736D1 GT PUSH2 0x66 JUMPI DUP1 PUSH4 0x7A1736D1 EQ PUSH2 0x123 JUMPI DUP1 PUSH4 0x8DA5CB5B EQ PUSH2 0x12D JUMPI DUP1 PUSH4 0x9E67F53E EQ PUSH2 0x14B JUMPI DUP1 PUSH4 0xB24FA0E4 EQ PUSH2 0x155 JUMPI DUP1 PUSH4 0xB90D3D0C EQ PUSH2 0x15F JUMPI PUSH2 0x9E JUMP JUMPDEST DUP1 PUSH4 0x17AE4589 EQ PUSH2 0xA3 JUMPI DUP1 PUSH4 0x1AA35610 EQ PUSH2 0xBF JUMPI DUP1 PUSH4 0x4F8632BA EQ PUSH2 0xDD JUMPI DUP1 PUSH4 0x4FB2E0BE EQ PUSH2 0xFB JUMPI DUP1 PUSH4 0x50183507 EQ PUSH2 0x119 JUMPI JUMPDEST PUSH1 0x0 DUP1 REVERT JUMPDEST PUSH2 0xBD PUSH1 0x4 DUP1 CALLDATASIZE SUB DUP2 ADD SWAP1 PUSH2 0xB8 SWAP2 SWAP1 PUSH2 0x9F4 JUMP JUMPDEST PUSH2 0x193 JUMP JUMPDEST STOP JUMPDEST PUSH2 0xC7 PUSH2 0x347 JUMP JUMPDEST PUSH1 0x40 MLOAD PUSH2 0xD4 SWAP2 SWAP1 PUSH2 0xB4D JUMP JUMPDEST PUSH1 0x40 MLOAD DUP1 SWAP2 SUB SWAP1 RETURN JUMPDEST PUSH2 0xE5 PUSH2 0x35A JUMP JUMPDEST PUSH1 0x40 MLOAD PUSH2 0xF2 SWAP2 SWAP1 PUSH2 0xB32 JUMP JUMPDEST PUSH1 0x40 MLOAD DUP1 SWAP2 SUB SWAP1 RETURN JUMPDEST PUSH2 0x103 PUSH2 0x380 JUMP JUMPDEST PUSH1 0x40 MLOAD PUSH2 0x110 SWAP2 SWAP1 PUSH2 0xBF0 JUMP JUMPDEST PUSH1 0x40 MLOAD DUP1 SWAP2 SUB SWAP1 RETURN JUMPDEST PUSH2 0x121 PUSH2 0x386 JUMP JUMPDEST STOP JUMPDEST PUSH2 0x12B PUSH2 0x468 JUMP JUMPDEST STOP JUMPDEST PUSH2 0x135 PUSH2 0x54A JUMP JUMPDEST PUSH1 0x40 MLOAD PUSH2 0x142 SWAP2 SWAP1 PUSH2 0xB17 JUMP JUMPDEST PUSH1 0x40 MLOAD DUP1 SWAP2 SUB SWAP1 RETURN JUMPDEST PUSH2 0x153 PUSH2 0x56E JUMP JUMPDEST STOP JUMPDEST PUSH2 0x15D PUSH2 0x5DB JUMP JUMPDEST STOP JUMPDEST PUSH2 0x179 PUSH1 0x4 DUP1 CALLDATASIZE SUB DUP2 ADD SWAP1 PUSH2 0x174 SWAP2 SWAP1 PUSH2 0x9C7 JUMP JUMPDEST PUSH2 0x6BC JUMP JUMPDEST PUSH1 0x40 MLOAD PUSH2 0x18A SWAP6 SWAP5 SWAP4 SWAP3 SWAP2 SWAP1 PUSH2 0xB68 JUMP JUMPDEST PUSH1 0x40 MLOAD DUP1 SWAP2 SUB SWAP1 RETURN JUMPDEST PUSH1 0x1 PUSH1 0x14 SWAP1 SLOAD SWAP1 PUSH2 0x100 EXP SWAP1 DIV PUSH1 0xFF AND PUSH2 0x1E2 JUMPI PUSH1 0x40 MLOAD PUSH32 0x8C379A000000000000000000000000000000000000000000000000000000000 DUP2 MSTORE PUSH1 0x4 ADD PUSH2 0x1D9 SWAP1 PUSH2 0xBD0 JUMP JUMPDEST PUSH1 0x40 MLOAD DUP1 SWAP2 SUB SWAP1 REVERT JUMPDEST PUSH1 0x40 MLOAD DUP1 PUSH1 0xA0 ADD PUSH1 0x40 MSTORE DUP1 DUP5 DUP2 MSTORE PUSH1 0x20 ADD DUP4 DUP2 MSTORE PUSH1 0x20 ADD DUP3 DUP2 MSTORE PUSH1 0x20 ADD PUSH1 0x3 DUP1 SLOAD PUSH2 0x20C SWAP1 PUSH2 0xD8C JUMP JUMPDEST DUP1 PUSH1 0x1F ADD PUSH1 0x20 DUP1 SWAP2 DIV MUL PUSH1 0x20 ADD PUSH1 0x40 MLOAD SWAP1 DUP2 ADD PUSH1 0x40 MSTORE DUP1 SWAP3 SWAP2 SWAP1 DUP2 DUP2 MSTORE PUSH1 0x20 ADD DUP3 DUP1 SLOAD PUSH2 0x238 SWAP1 PUSH2 0xD8C JUMP JUMPDEST DUP1 ISZERO PUSH2 0x285 JUMPI DUP1 PUSH1 0x1F LT PUSH2 0x25A JUMPI PUSH2 0x100 DUP1 DUP4 SLOAD DIV MUL DUP4 MSTORE SWAP2 PUSH1 0x20 ADD SWAP2 PUSH2 0x285 JUMP JUMPDEST DUP3 ADD SWAP2 SWAP1 PUSH1 0x0 MSTORE PUSH1 0x20 PUSH1 0x0 KECCAK256 SWAP1 JUMPDEST DUP2 SLOAD DUP2 MSTORE SWAP1 PUSH1 0x1 ADD SWAP1 PUSH1 0x20 ADD DUP1 DUP4 GT PUSH2 0x268 JUMPI DUP3 SWAP1 SUB PUSH1 0x1F AND DUP3 ADD SWAP2 JUMPDEST POP POP POP POP POP DUP2 MSTORE PUSH1 0x20 ADD PUSH1 0x4 SLOAD DUP2 MSTORE POP PUSH1 0x6 PUSH1 0x0 CALLER PUSH20 0xFFFFFFFFFFFFFFFFFFFFFFFFFFFFFFFFFFFFFFFF AND PUSH20 0xFFFFFFFFFFFFFFFFFFFFFFFFFFFFFFFFFFFFFFFF AND DUP2 MSTORE PUSH1 0x20 ADD SWAP1 DUP2 MSTORE PUSH1 0x20 ADD PUSH1 0x0 KECCAK256 PUSH1 0x0 DUP3 ADD MLOAD DUP2 PUSH1 0x0 ADD SWAP1 DUP1 MLOAD SWAP1 PUSH1 0x20 ADD SWAP1 PUSH2 0x2F0 SWAP3 SWAP2 SWAP1 PUSH2 0x88A JUMP JUMPDEST POP PUSH1 0x20 DUP3 ADD MLOAD DUP2 PUSH1 0x1 ADD SWAP1 DUP1 MLOAD SWAP1 PUSH1 0x20 ADD SWAP1 PUSH2 0x30D SWAP3 SWAP2 SWAP1 PUSH2 0x88A JUMP JUMPDEST POP PUSH1 0x40 DUP3 ADD MLOAD DUP2 PUSH1 0x2 ADD SSTORE PUSH1 0x60 DUP3 ADD MLOAD DUP2 PUSH1 0x3 ADD SWAP1 DUP1 MLOAD SWAP1 PUSH1 0x20 ADD SWAP1 PUSH2 0x334 SWAP3 SWAP2 SWAP1 PUSH2 0x88A JUMP JUMPDEST POP PUSH1 0x80 DUP3 ADD MLOAD DUP2 PUSH1 0x4 ADD SSTORE SWAP1 POP POP POP POP POP JUMP JUMPDEST PUSH1 0x7 PUSH1 0x0 SWAP1 SLOAD SWAP1 PUSH2 0x100 EXP SWAP1 DIV PUSH1 0xFF AND DUP2 JUMP JUMPDEST PUSH1 0x1 PUSH1 0x0 SWAP1 SLOAD SWAP1 PUSH2 0x100 EXP SWAP1 DIV PUSH20 0xFFFFFFFFFFFFFFFFFFFFFFFFFFFFFFFFFFFFFFFF AND DUP2 JUMP JUMPDEST PUSH1 0x5 SLOAD DUP2 JUMP JUMPDEST PUSH1 0x0 PUSH1 0x7 PUSH1 0x0 PUSH2 0x100 EXP DUP2 SLOAD DUP2 PUSH1 0xFF MUL NOT AND SWAP1 DUP4 PUSH1 0x2 DUP2 GT ISZERO PUSH2 0x3AC JUMPI PUSH2 0x3AB PUSH2 0xE1E JUMP JUMPDEST JUMPDEST MUL OR SWAP1 SSTORE POP PUSH1 0x7 PUSH1 0x0 SWAP1 SLOAD SWAP1 PUSH2 0x100 EXP SWAP1 DIV PUSH1 0xFF AND PUSH1 0x2 DUP2 GT ISZERO PUSH2 0x3D3 JUMPI PUSH2 0x3D2 PUSH2 0xE1E JUMP JUMPDEST JUMPDEST PUSH1 0x2 DUP2 SWAP1 SSTORE POP PUSH1 0x0 PUSH1 0x2 SLOAD EQ ISZERO PUSH2 0x44C JUMPI PUSH1 0x40 MLOAD DUP1 PUSH1 0x40 ADD PUSH1 0x40 MSTORE DUP1 PUSH1 0xB DUP2 MSTORE PUSH1 0x20 ADD PUSH32 0x466972737420436C617373000000000000000000000000000000000000000000 DUP2 MSTORE POP PUSH1 0x3 SWAP1 DUP1 MLOAD SWAP1 PUSH1 0x20 ADD SWAP1 PUSH2 0x42F SWAP3 SWAP2 SWAP1 PUSH2 0x88A JUMP JUMPDEST POP PUSH7 0x2386F26FC10000 PUSH1 0x5 SLOAD PUSH2 0x445 SWAP2 SWAP1 PUSH2 0xC7D JUMP JUMPDEST PUSH1 0x4 DUP2 SWAP1 SSTORE POP JUMPDEST PUSH1 0x1 DUP1 PUSH1 0x14 PUSH2 0x100 EXP DUP2 SLOAD DUP2 PUSH1 0xFF MUL NOT AND SWAP1 DUP4 ISZERO ISZERO MUL OR SWAP1 SSTORE POP JUMP JUMPDEST PUSH1 0x1 PUSH1 0x7 PUSH1 0x0 PUSH2 0x100 EXP DUP2 SLOAD DUP2 PUSH1 0xFF MUL NOT AND SWAP1 DUP4 PUSH1 0x2 DUP2 GT ISZERO PUSH2 0x48E JUMPI PUSH2 0x48D PUSH2 0xE1E JUMP JUMPDEST JUMPDEST MUL OR SWAP1 SSTORE POP PUSH1 0x7 PUSH1 0x0 SWAP1 SLOAD SWAP1 PUSH2 0x100 EXP SWAP1 DIV PUSH1 0xFF AND PUSH1 0x2 DUP2 GT ISZERO PUSH2 0x4B5 JUMPI PUSH2 0x4B4 PUSH2 0xE1E JUMP JUMPDEST JUMPDEST PUSH1 0x2 DUP2 SWAP1 SSTORE POP PUSH1 0x1 PUSH1 0x2 SLOAD EQ ISZERO PUSH2 0x52E JUMPI PUSH1 0x40 MLOAD DUP1 PUSH1 0x40 ADD PUSH1 0x40 MSTORE DUP1 PUSH1 0xD DUP2 MSTORE PUSH1 0x20 ADD PUSH32 0x45636F6E6F6D7920436C61737300000000000000000000000000000000000000 DUP2 MSTORE POP PUSH1 0x3 SWAP1 DUP1 MLOAD SWAP1 PUSH1 0x20 ADD SWAP1 PUSH2 0x511 SWAP3 SWAP2 SWAP1 PUSH2 0x88A JUMP JUMPDEST POP PUSH7 0x11C37937E08000 PUSH1 0x5 SLOAD PUSH2 0x527 SWAP2 SWAP1 PUSH2 0xC7D JUMP JUMPDEST PUSH1 0x4 DUP2 SWAP1 SSTORE POP JUMPDEST PUSH1 0x1 DUP1 PUSH1 0x14 PUSH2 0x100 EXP DUP2 SLOAD DUP2 PUSH1 0xFF MUL NOT AND SWAP1 DUP4 ISZERO ISZERO MUL OR SWAP1 SSTORE POP JUMP JUMPDEST PUSH1 0x0 DUP1 SLOAD SWAP1 PUSH2 0x100 EXP SWAP1 DIV PUSH20 0xFFFFFFFFFFFFFFFFFFFFFFFFFFFFFFFFFFFFFFFF AND DUP2 JUMP JUMPDEST PUSH1 0x1 PUSH1 0x0 SWAP1 SLOAD SWAP1 PUSH2 0x100 EXP SWAP1 DIV PUSH20 0xFFFFFFFFFFFFFFFFFFFFFFFFFFFFFFFFFFFFFFFF AND PUSH20 0xFFFFFFFFFFFFFFFFFFFFFFFFFFFFFFFFFFFFFFFF AND PUSH2 0x8FC PUSH1 0x4 SLOAD SWAP1 DUP2 ISZERO MUL SWAP1 PUSH1 0x40 MLOAD PUSH1 0x0 PUSH1 0x40 MLOAD DUP1 DUP4 SUB DUP2 DUP6 DUP9 DUP9 CALL SWAP4 POP POP POP POP ISZERO DUP1 ISZERO PUSH2 0x5D8 JUMPI RETURNDATASIZE PUSH1 0x0 DUP1 RETURNDATACOPY RETURNDATASIZE PUSH1 0x0 REVERT JUMPDEST POP JUMP JUMPDEST PUSH1 0x2 PUSH1 0x7 PUSH1 0x0 PUSH2 0x100 EXP DUP2 SLOAD DUP2 PUSH1 0xFF MUL NOT AND SWAP1 DUP4 PUSH1 0x2 DUP2 GT ISZERO PUSH2 0x601 JUMPI PUSH2 0x600 PUSH2 0xE1E JUMP JUMPDEST JUMPDEST MUL OR SWAP1 SSTORE POP PUSH1 0x7 PUSH1 0x0 SWAP1 SLOAD SWAP1 PUSH2 0x100 EXP SWAP1 DIV PUSH1 0xFF AND PUSH1 0x2 DUP2 GT ISZERO PUSH2 0x628 JUMPI PUSH2 0x627 PUSH2 0xE1E JUMP JUMPDEST JUMPDEST PUSH1 0x2 DUP2 SWAP1 SSTORE POP PUSH1 0x2 DUP1 SLOAD EQ ISZERO PUSH2 0x6A0 JUMPI PUSH1 0x40 MLOAD DUP1 PUSH1 0x40 ADD PUSH1 0x40 MSTORE DUP1 PUSH1 0xD DUP2 MSTORE PUSH1 0x20 ADD PUSH32 0x4275736E69737320436C61737300000000000000000000000000000000000000 DUP2 MSTORE POP PUSH1 0x3 SWAP1 DUP1 MLOAD SWAP1 PUSH1 0x20 ADD SWAP1 PUSH2 0x683 SWAP3 SWAP2 SWAP1 PUSH2 0x88A JUMP JUMPDEST POP PUSH7 0x18DE76816D8000 PUSH1 0x5 SLOAD PUSH2 0x699 SWAP2 SWAP1 PUSH2 0xC7D JUMP JUMPDEST PUSH1 0x4 DUP2 SWAP1 SSTORE POP JUMPDEST PUSH1 0x1 DUP1 PUSH1 0x14 PUSH2 0x100 EXP DUP2 SLOAD DUP2 PUSH1 0xFF MUL NOT AND SWAP1 DUP4 ISZERO ISZERO MUL OR SWAP1 SSTORE POP JUMP JUMPDEST PUSH1 0x6 PUSH1 0x20 MSTORE DUP1 PUSH1 0x0 MSTORE PUSH1 0x40 PUSH1 0x0 KECCAK256 PUSH1 0x0 SWAP2 POP SWAP1 POP DUP1 PUSH1 0x0 ADD DUP1 SLOAD PUSH2 0x6DF SWAP1 PUSH2 0xD8C JUMP JUMPDEST DUP1 PUSH1 0x1F ADD PUSH1 0x20 DUP1 SWAP2 DIV MUL PUSH1 0x20 ADD PUSH1 0x40 MLOAD SWAP1 DUP2 ADD PUSH1 0x40 MSTORE DUP1 SWAP3 SWAP2 SWAP1 DUP2 DUP2 MSTORE PUSH1 0x20 ADD DUP3 DUP1 SLOAD PUSH2 0x70B SWAP1 PUSH2 0xD8C JUMP JUMPDEST DUP1 ISZERO PUSH2 0x758 JUMPI DUP1 PUSH1 0x1F LT PUSH2 0x72D JUMPI PUSH2 0x100 DUP1 DUP4 SLOAD DIV MUL DUP4 MSTORE SWAP2 PUSH1 0x20 ADD SWAP2 PUSH2 0x758 JUMP JUMPDEST DUP3 ADD SWAP2 SWAP1 PUSH1 0x0 MSTORE PUSH1 0x20 PUSH1 0x0 KECCAK256 SWAP1 JUMPDEST DUP2 SLOAD DUP2 MSTORE SWAP1 PUSH1 0x1 ADD SWAP1 PUSH1 0x20 ADD DUP1 DUP4 GT PUSH2 0x73B JUMPI DUP3 SWAP1 SUB PUSH1 0x1F AND DUP3 ADD SWAP2 JUMPDEST POP POP POP POP POP SWAP1 DUP1 PUSH1 0x1 ADD DUP1 SLOAD PUSH2 0x76D SWAP1 PUSH2 0xD8C JUMP JUMPDEST DUP1 PUSH1 0x1F ADD PUSH1 0x20 DUP1 SWAP2 DIV MUL PUSH1 0x20 ADD PUSH1 0x40 MLOAD SWAP1 DUP2 ADD PUSH1 0x40 MSTORE DUP1 SWAP3 SWAP2 SWAP1 DUP2 DUP2 MSTORE PUSH1 0x20 ADD DUP3 DUP1 SLOAD PUSH2 0x799 SWAP1 PUSH2 0xD8C JUMP JUMPDEST DUP1 ISZERO PUSH2 0x7E6 JUMPI DUP1 PUSH1 0x1F LT PUSH2 0x7BB JUMPI PUSH2 0x100 DUP1 DUP4 SLOAD DIV MUL DUP4 MSTORE SWAP2 PUSH1 0x20 ADD SWAP2 PUSH2 0x7E6 JUMP JUMPDEST DUP3 ADD SWAP2 SWAP1 PUSH1 0x0 MSTORE PUSH1 0x20 PUSH1 0x0 KECCAK256 SWAP1 JUMPDEST DUP2 SLOAD DUP2 MSTORE SWAP1 PUSH1 0x1 ADD SWAP1 PUSH1 0x20 ADD DUP1 DUP4 GT PUSH2 0x7C9 JUMPI DUP3 SWAP1 SUB PUSH1 0x1F AND DUP3 ADD SWAP2 JUMPDEST POP POP POP POP POP SWAP1 DUP1 PUSH1 0x2 ADD SLOAD SWAP1 DUP1 PUSH1 0x3 ADD DUP1 SLOAD PUSH2 0x801 SWAP1 PUSH2 0xD8C JUMP JUMPDEST DUP1 PUSH1 0x1F ADD PUSH1 0x20 DUP1 SWAP2 DIV MUL PUSH1 0x20 ADD PUSH1 0x40 MLOAD SWAP1 DUP2 ADD PUSH1 0x40 MSTORE DUP1 SWAP3 SWAP2 SWAP1 DUP2 DUP2 MSTORE PUSH1 0x20 ADD DUP3 DUP1 SLOAD PUSH2 0x82D SWAP1 PUSH2 0xD8C JUMP JUMPDEST DUP1 ISZERO PUSH2 0x87A JUMPI DUP1 PUSH1 0x1F LT PUSH2 0x84F JUMPI PUSH2 0x100 DUP1 DUP4 SLOAD DIV MUL DUP4 MSTORE SWAP2 PUSH1 0x20 ADD SWAP2 PUSH2 0x87A JUMP JUMPDEST DUP3 ADD SWAP2 SWAP1 PUSH1 0x0 MSTORE PUSH1 0x20 PUSH1 0x0 KECCAK256 SWAP1 JUMPDEST DUP2 SLOAD DUP2 MSTORE SWAP1 PUSH1 0x1 ADD SWAP1 PUSH1 0x20 ADD DUP1 DUP4 GT PUSH2 0x85D JUMPI DUP3 SWAP1 SUB PUSH1 0x1F AND DUP3 ADD SWAP2 JUMPDEST POP POP POP POP POP SWAP1 DUP1 PUSH1 0x4 ADD SLOAD SWAP1 POP DUP6 JUMP JUMPDEST DUP3 DUP1 SLOAD PUSH2 0x896 SWAP1 PUSH2 0xD8C JUMP JUMPDEST SWAP1 PUSH1 0x0 MSTORE PUSH1 0x20 PUSH1 0x0 KECCAK256 SWAP1 PUSH1 0x1F ADD PUSH1 0x20 SWAP1 DIV DUP2 ADD SWAP3 DUP3 PUSH2 0x8B8 JUMPI PUSH1 0x0 DUP6 SSTORE PUSH2 0x8FF JUMP JUMPDEST DUP3 PUSH1 0x1F LT PUSH2 0x8D1 JUMPI DUP1 MLOAD PUSH1 0xFF NOT AND DUP4 DUP1 ADD OR DUP6 SSTORE PUSH2 0x8FF JUMP JUMPDEST DUP3 DUP1 ADD PUSH1 0x1 ADD DUP6 SSTORE DUP3 ISZERO PUSH2 0x8FF JUMPI SWAP2 DUP3 ADD JUMPDEST DUP3 DUP2 GT ISZERO PUSH2 0x8FE JUMPI DUP3 MLOAD DUP3 SSTORE SWAP2 PUSH1 0x20 ADD SWAP2 SWAP1 PUSH1 0x1 ADD SWAP1 PUSH2 0x8E3 JUMP JUMPDEST JUMPDEST POP SWAP1 POP PUSH2 0x90C SWAP2 SWAP1 PUSH2 0x910 JUMP JUMPDEST POP SWAP1 JUMP JUMPDEST JUMPDEST DUP1 DUP3 GT ISZERO PUSH2 0x929 JUMPI PUSH1 0x0 DUP2 PUSH1 0x0 SWAP1 SSTORE POP PUSH1 0x1 ADD PUSH2 0x911 JUMP JUMPDEST POP SWAP1 JUMP JUMPDEST PUSH1 0x0 PUSH2 0x940 PUSH2 0x93B DUP5 PUSH2 0xC30 JUMP JUMPDEST PUSH2 0xC0B JUMP JUMPDEST SWAP1 POP DUP3 DUP2 MSTORE PUSH1 0x20 DUP2 ADD DUP5 DUP5 DUP5 ADD GT ISZERO PUSH2 0x95C JUMPI PUSH2 0x95B PUSH2 0xEB0 JUMP JUMPDEST JUMPDEST PUSH2 0x967 DUP5 DUP3 DUP6 PUSH2 0xD4A JUMP JUMPDEST POP SWAP4 SWAP3 POP POP POP JUMP JUMPDEST PUSH1 0x0 DUP2 CALLDATALOAD SWAP1 POP PUSH2 0x97E DUP2 PUSH2 0xF0D JUMP JUMPDEST SWAP3 SWAP2 POP POP JUMP JUMPDEST PUSH1 0x0 DUP3 PUSH1 0x1F DUP4 ADD SLT PUSH2 0x999 JUMPI PUSH2 0x998 PUSH2 0xEAB JUMP JUMPDEST JUMPDEST DUP2 CALLDATALOAD PUSH2 0x9A9 DUP5 DUP3 PUSH1 0x20 DUP7 ADD PUSH2 0x92D JUMP JUMPDEST SWAP2 POP POP SWAP3 SWAP2 POP POP JUMP JUMPDEST PUSH1 0x0 DUP2 CALLDATALOAD SWAP1 POP PUSH2 0x9C1 DUP2 PUSH2 0xF24 JUMP JUMPDEST SWAP3 SWAP2 POP POP JUMP JUMPDEST PUSH1 0x0 PUSH1 0x20 DUP3 DUP5 SUB SLT ISZERO PUSH2 0x9DD JUMPI PUSH2 0x9DC PUSH2 0xEBA JUMP JUMPDEST JUMPDEST PUSH1 0x0 PUSH2 0x9EB DUP5 DUP3 DUP6 ADD PUSH2 0x96F JUMP JUMPDEST SWAP2 POP POP SWAP3 SWAP2 POP POP JUMP JUMPDEST PUSH1 0x0 DUP1 PUSH1 0x0 PUSH1 0x60 DUP5 DUP7 SUB SLT ISZERO PUSH2 0xA0D JUMPI PUSH2 0xA0C PUSH2 0xEBA JUMP JUMPDEST JUMPDEST PUSH1 0x0 DUP5 ADD CALLDATALOAD PUSH8 0xFFFFFFFFFFFFFFFF DUP2 GT ISZERO PUSH2 0xA2B JUMPI PUSH2 0xA2A PUSH2 0xEB5 JUMP JUMPDEST JUMPDEST PUSH2 0xA37 DUP7 DUP3 DUP8 ADD PUSH2 0x984 JUMP JUMPDEST SWAP4 POP POP PUSH1 0x20 DUP5 ADD CALLDATALOAD PUSH8 0xFFFFFFFFFFFFFFFF DUP2 GT ISZERO PUSH2 0xA58 JUMPI PUSH2 0xA57 PUSH2 0xEB5 JUMP JUMPDEST JUMPDEST PUSH2 0xA64 DUP7 DUP3 DUP8 ADD PUSH2 0x984 JUMP JUMPDEST SWAP3 POP POP PUSH1 0x40 PUSH2 0xA75 DUP7 DUP3 DUP8 ADD PUSH2 0x9B2 JUMP JUMPDEST SWAP2 POP POP SWAP3 POP SWAP3 POP SWAP3 JUMP JUMPDEST PUSH2 0xA88 DUP2 PUSH2 0xCE9 JUMP JUMPDEST DUP3 MSTORE POP POP JUMP JUMPDEST PUSH2 0xA97 DUP2 PUSH2 0xCD7 JUMP JUMPDEST DUP3 MSTORE POP POP JUMP JUMPDEST PUSH2 0xAA6 DUP2 PUSH2 0xD38 JUMP JUMPDEST DUP3 MSTORE POP POP JUMP JUMPDEST PUSH1 0x0 PUSH2 0xAB7 DUP3 PUSH2 0xC61 JUMP JUMPDEST PUSH2 0xAC1 DUP2 DUP6 PUSH2 0xC6C JUMP JUMPDEST SWAP4 POP PUSH2 0xAD1 DUP2 DUP6 PUSH1 0x20 DUP7 ADD PUSH2 0xD59 JUMP JUMPDEST PUSH2 0xADA DUP2 PUSH2 0xEBF JUMP JUMPDEST DUP5 ADD SWAP2 POP POP SWAP3 SWAP2 POP POP JUMP JUMPDEST PUSH1 0x0 PUSH2 0xAF2 PUSH1 0x1D DUP4 PUSH2 0xC6C JUMP JUMPDEST SWAP2 POP PUSH2 0xAFD DUP3 PUSH2 0xED0 JUMP JUMPDEST PUSH1 0x20 DUP3 ADD SWAP1 POP SWAP2 SWAP1 POP JUMP JUMPDEST PUSH2 0xB11 DUP2 PUSH2 0xD2E JUMP JUMPDEST DUP3 MSTORE POP POP JUMP JUMPDEST PUSH1 0x0 PUSH1 0x20 DUP3 ADD SWAP1 POP PUSH2 0xB2C PUSH1 0x0 DUP4 ADD DUP5 PUSH2 0xA8E JUMP JUMPDEST SWAP3 SWAP2 POP POP JUMP JUMPDEST PUSH1 0x0 PUSH1 0x20 DUP3 ADD SWAP1 POP PUSH2 0xB47 PUSH1 0x0 DUP4 ADD DUP5 PUSH2 0xA7F JUMP JUMPDEST SWAP3 SWAP2 POP POP JUMP JUMPDEST PUSH1 0x0 PUSH1 0x20 DUP3 ADD SWAP1 POP PUSH2 0xB62 PUSH1 0x0 DUP4 ADD DUP5 PUSH2 0xA9D JUMP JUMPDEST SWAP3 SWAP2 POP POP JUMP JUMPDEST PUSH1 0x0 PUSH1 0xA0 DUP3 ADD SWAP1 POP DUP2 DUP2 SUB PUSH1 0x0 DUP4 ADD MSTORE PUSH2 0xB82 DUP2 DUP9 PUSH2 0xAAC JUMP JUMPDEST SWAP1 POP DUP2 DUP2 SUB PUSH1 0x20 DUP4 ADD MSTORE PUSH2 0xB96 DUP2 DUP8 PUSH2 0xAAC JUMP JUMPDEST SWAP1 POP PUSH2 0xBA5 PUSH1 0x40 DUP4 ADD DUP7 PUSH2 0xB08 JUMP JUMPDEST DUP2 DUP2 SUB PUSH1 0x60 DUP4 ADD MSTORE PUSH2 0xBB7 DUP2 DUP6 PUSH2 0xAAC JUMP JUMPDEST SWAP1 POP PUSH2 0xBC6 PUSH1 0x80 DUP4 ADD DUP5 PUSH2 0xB08 JUMP JUMPDEST SWAP7 SWAP6 POP POP POP POP POP POP JUMP JUMPDEST PUSH1 0x0 PUSH1 0x20 DUP3 ADD SWAP1 POP DUP2 DUP2 SUB PUSH1 0x0 DUP4 ADD MSTORE PUSH2 0xBE9 DUP2 PUSH2 0xAE5 JUMP JUMPDEST SWAP1 POP SWAP2 SWAP1 POP JUMP JUMPDEST PUSH1 0x0 PUSH1 0x20 DUP3 ADD SWAP1 POP PUSH2 0xC05 PUSH1 0x0 DUP4 ADD DUP5 PUSH2 0xB08 JUMP JUMPDEST SWAP3 SWAP2 POP POP JUMP JUMPDEST PUSH1 0x0 PUSH2 0xC15 PUSH2 0xC26 JUMP JUMPDEST SWAP1 POP PUSH2 0xC21 DUP3 DUP3 PUSH2 0xDBE JUMP JUMPDEST SWAP2 SWAP1 POP JUMP JUMPDEST PUSH1 0x0 PUSH1 0x40 MLOAD SWAP1 POP SWAP1 JUMP JUMPDEST PUSH1 0x0 PUSH8 0xFFFFFFFFFFFFFFFF DUP3 GT ISZERO PUSH2 0xC4B JUMPI PUSH2 0xC4A PUSH2 0xE7C JUMP JUMPDEST JUMPDEST PUSH2 0xC54 DUP3 PUSH2 0xEBF JUMP JUMPDEST SWAP1 POP PUSH1 0x20 DUP2 ADD SWAP1 POP SWAP2 SWAP1 POP JUMP JUMPDEST PUSH1 0x0 DUP2 MLOAD SWAP1 POP SWAP2 SWAP1 POP JUMP JUMPDEST PUSH1 0x0 DUP3 DUP3 MSTORE PUSH1 0x20 DUP3 ADD SWAP1 POP SWAP3 SWAP2 POP POP JUMP JUMPDEST PUSH1 0x0 PUSH2 0xC88 DUP3 PUSH2 0xD2E JUMP JUMPDEST SWAP2 POP PUSH2 0xC93 DUP4 PUSH2 0xD2E JUMP JUMPDEST SWAP3 POP DUP2 PUSH32 0xFFFFFFFFFFFFFFFFFFFFFFFFFFFFFFFFFFFFFFFFFFFFFFFFFFFFFFFFFFFFFFFF DIV DUP4 GT DUP3 ISZERO ISZERO AND ISZERO PUSH2 0xCCC JUMPI PUSH2 0xCCB PUSH2 0xDEF JUMP JUMPDEST JUMPDEST DUP3 DUP3 MUL SWAP1 POP SWAP3 SWAP2 POP POP JUMP JUMPDEST PUSH1 0x0 PUSH2 0xCE2 DUP3 PUSH2 0xD0E JUMP JUMPDEST SWAP1 POP SWAP2 SWAP1 POP JUMP JUMPDEST PUSH1 0x0 PUSH2 0xCF4 DUP3 PUSH2 0xD0E JUMP JUMPDEST SWAP1 POP SWAP2 SWAP1 POP JUMP JUMPDEST PUSH1 0x0 DUP2 SWAP1 POP PUSH2 0xD09 DUP3 PUSH2 0xEF9 JUMP JUMPDEST SWAP2 SWAP1 POP JUMP JUMPDEST PUSH1 0x0 PUSH20 0xFFFFFFFFFFFFFFFFFFFFFFFFFFFFFFFFFFFFFFFF DUP3 AND SWAP1 POP SWAP2 SWAP1 POP JUMP JUMPDEST PUSH1 0x0 DUP2 SWAP1 POP SWAP2 SWAP1 POP JUMP JUMPDEST PUSH1 0x0 PUSH2 0xD43 DUP3 PUSH2 0xCFB JUMP JUMPDEST SWAP1 POP SWAP2 SWAP1 POP JUMP JUMPDEST DUP3 DUP2 DUP4 CALLDATACOPY PUSH1 0x0 DUP4 DUP4 ADD MSTORE POP POP POP JUMP JUMPDEST PUSH1 0x0 JUMPDEST DUP4 DUP2 LT ISZERO PUSH2 0xD77 JUMPI DUP1 DUP3 ADD MLOAD DUP2 DUP5 ADD MSTORE PUSH1 0x20 DUP2 ADD SWAP1 POP PUSH2 0xD5C JUMP JUMPDEST DUP4 DUP2 GT ISZERO PUSH2 0xD86 JUMPI PUSH1 0x0 DUP5 DUP5 ADD MSTORE JUMPDEST POP POP POP POP JUMP JUMPDEST PUSH1 0x0 PUSH1 0x2 DUP3 DIV SWAP1 POP PUSH1 0x1 DUP3 AND DUP1 PUSH2 0xDA4 JUMPI PUSH1 0x7F DUP3 AND SWAP2 POP JUMPDEST PUSH1 0x20 DUP3 LT DUP2 EQ ISZERO PUSH2 0xDB8 JUMPI PUSH2 0xDB7 PUSH2 0xE4D JUMP JUMPDEST JUMPDEST POP SWAP2 SWAP1 POP JUMP JUMPDEST PUSH2 0xDC7 DUP3 PUSH2 0xEBF JUMP JUMPDEST DUP2 ADD DUP2 DUP2 LT PUSH8 0xFFFFFFFFFFFFFFFF DUP3 GT OR ISZERO PUSH2 0xDE6 JUMPI PUSH2 0xDE5 PUSH2 0xE7C JUMP JUMPDEST JUMPDEST DUP1 PUSH1 0x40 MSTORE POP POP POP JUMP JUMPDEST PUSH32 0x4E487B7100000000000000000000000000000000000000000000000000000000 PUSH1 0x0 MSTORE PUSH1 0x11 PUSH1 0x4 MSTORE PUSH1 0x24 PUSH1 0x0 REVERT JUMPDEST PUSH32 0x4E487B7100000000000000000000000000000000000000000000000000000000 PUSH1 0x0 MSTORE PUSH1 0x21 PUSH1 0x4 MSTORE PUSH1 0x24 PUSH1 0x0 REVERT JUMPDEST PUSH32 0x4E487B7100000000000000000000000000000000000000000000000000000000 PUSH1 0x0 MSTORE PUSH1 0x22 PUSH1 0x4 MSTORE PUSH1 0x24 PUSH1 0x0 REVERT JUMPDEST PUSH32 0x4E487B7100000000000000000000000000000000000000000000000000000000 PUSH1 0x0 MSTORE PUSH1 0x41 PUSH1 0x4 MSTORE PUSH1 0x24 PUSH1 0x0 REVERT JUMPDEST PUSH1 0x0 DUP1 REVERT JUMPDEST PUSH1 0x0 DUP1 REVERT JUMPDEST PUSH1 0x0 DUP1 REVERT JUMPDEST PUSH1 0x0 DUP1 REVERT JUMPDEST PUSH1 0x0 PUSH1 0x1F NOT PUSH1 0x1F DUP4 ADD AND SWAP1 POP SWAP2 SWAP1 POP JUMP JUMPDEST PUSH32 0x706C656173652073656C6563742074686520636C617373206669727374000000 PUSH1 0x0 DUP3 ADD MSTORE POP JUMP JUMPDEST PUSH1 0x3 DUP2 LT PUSH2 0xF0A JUMPI PUSH2 0xF09 PUSH2 0xE1E JUMP JUMPDEST JUMPDEST POP JUMP JUMPDEST PUSH2 0xF16 DUP2 PUSH2 0xCD7 JUMP JUMPDEST DUP2 EQ PUSH2 0xF21 JUMPI PUSH1 0x0 DUP1 REVERT JUMPDEST POP JUMP JUMPDEST PUSH2 0xF2D DUP2 PUSH2 0xD2E JUMP JUMPDEST DUP2 EQ PUSH2 0xF38 JUMPI PUSH1 0x0 DUP1 REVERT JUMPDEST POP JUMP INVALID LOG2 PUSH5 0x6970667358 0x22 SLT KECCAK256 0xA7 CALLDATACOPY 0x4D 0xD3 0xFC 0xC8 DUP9 DUP3 0xB9 0xDB LT 0xD1 0xD9 0xCC SUB DUP8 CALLER PUSH9 0xCE80B2B0C06CC2678 0xE6 AND PUSH22 0x55E964736F6C63430008070033000000000000000000 "
				},
				"gasEstimates": {
					"creation": {
						"codeDepositCost": "790600",
						"executionCost": "infinite",
						"totalCost": "infinite"
					},
					"external": {
						"busnissClass()": "infinite",
						"data(address)": "infinite",
						"economyClass()": "infinite",
						"firstClass()": "infinite",
						"oneWei()": "2496",
						"owner()": "2533",
						"payabpayment()": "infinite",
						"setData(string,string,uint256)": "infinite",
						"u1()": "2583",
						"user()": "2559"
					}
				},
				"methodIdentifiers": {
					"busnissClass()": "b24fa0e4",
					"data(address)": "b90d3d0c",
					"economyClass()": "7a1736d1",
					"firstClass()": "50183507",
					"oneWei()": "4fb2e0be",
					"owner()": "8da5cb5b",
					"payabpayment()": "9e67f53e",
					"setData(string,string,uint256)": "17ae4589",
					"u1()": "1aa35610",
					"user()": "4f8632ba"
				}
			},
			"userdoc": {
				"kind": "user",
				"methods": {},
				"version": 1
			}
		}
	}
}