{
	"blockship.sol": {
		"AirlineTickets": {
			"abi": [
				{
					"inputs": [],
					"stateMutability": "nonpayable",
					"type": "constructor"
				},
				{
					"inputs": [],
					"name": "busnissClass",
					"outputs": [],
					"stateMutability": "nonpayable",
					"type": "function"
				},
				{
					"inputs": [
						{
							"internalType": "address",
							"name": "",
							"type": "address"
						}
					],
					"name": "data",
					"outputs": [
						{
							"internalType": "string",
							"name": "name",
							"type": "string"
						},
						{
							"internalType": "string",
							"name": "des",
							"type": "string"
						},
						{
							"internalType": "uint256",
							"name": "pass_id",
							"type": "uint256"
						},
						{
							"internalType": "string",
							"name": "ticket",
							"type": "string"
						},
						{
							"internalType": "uint256",
							"name": "cost",
							"type": "uint256"
						}
					],
					"stateMutability": "view",
					"type": "function"
				},
				{
					"inputs": [],
					"name": "economyClass",
					"outputs": [],
					"stateMutability": "nonpayable",
					"type": "function"
				},
				{
					"inputs": [],
					"name": "firstClass",
					"outputs": [],
					"stateMutability": "nonpayable",
					"type": "function"
				},
				{
					"inputs": [],
					"name": "getter",
					"outputs": [
						{
							"internalType": "uint256",
							"name": "block_no",
							"type": "uint256"
						},
						{
							"internalType": "uint256",
							"name": "timestamp",
							"type": "uint256"
						},
						{
							"internalType": "address",
							"name": "msgSender",
							"type": "address"
						}
					],
					"stateMutability": "view",
					"type": "function"
				},
				{
					"inputs": [],
					"name": "owner",
					"outputs": [
						{
							"internalType": "address",
							"name": "",
							"type": "address"
						}
					],
					"stateMutability": "view",
					"type": "function"
				},
				{
					"inputs": [],
					"name": "payment",
					"outputs": [],
					"stateMutability": "nonpayable",
					"type": "function"
				},
				{
					"inputs": [
						{
							"internalType": "string",
							"name": "_name",
							"type": "string"
						},
						{
							"internalType": "string",
							"name": "_des",
							"type": "string"
						},
						{
							"internalType": "uint256",
							"name": "_pass_id",
							"type": "uint256"
						}
					],
					"name": "setData",
					"outputs": [],
					"stateMutability": "nonpayable",
					"type": "function"
				},
				{
					"inputs": [],
					"name": "u1",
					"outputs": [
						{
							"internalType": "enum AirlineTickets.classTypes",
							"name": "",
							"type": "uint8"
						}
					],
					"stateMutability": "view",
					"type": "function"
				},
				{
					"inputs": [],
					"name": "user",
					"outputs": [
						{
							"internalType": "address payable",
							"name": "",
							"type": "address"
						}
					],
					"stateMutability": "view",
					"type": "function"
				}
			],
			"devdoc": {
				"kind": "dev",
				"methods": {},
				"version": 1
			},
			"evm": {
				"assembly": "    /* \"blockship.sol\":74:2040  contract AirlineTickets {\r... */\n  mstore(0x40, 0x80)\n    /* \"blockship.sol\":460:465  false */\n  0x00\n    /* \"blockship.sol\":446:465  bool booked = false */\n  0x01\n  exp(0x0100, 0x14)\n  dup2\n  sload\n  dup2\n  0xff\n  mul\n  not\n  and\n  swap1\n  dup4\n  iszero\n  iszero\n  mul\n  or\n  swap1\n  sstore\n  pop\n    /* \"blockship.sol\":558:590  string realVal = \"Economy Class\" */\n  mload(0x40)\n  dup1\n  0x40\n  add\n  0x40\n  mstore\n  dup1\n  0x0d\n  dup2\n  mstore\n  0x20\n  add\n  0x45636f6e6f6d7920436c61737300000000000000000000000000000000000000\n  dup2\n  mstore\n  pop\n  0x03\n  swap1\n  dup1\n  mload\n  swap1\n  0x20\n  add\n  swap1\n  tag_1\n  swap3\n  swap2\n  swap1\n  tag_2\n  jump\t// in\ntag_1:\n  pop\n    /* \"blockship.sol\":647:652  1 wei */\n  0x01\n    /* \"blockship.sol\":632:652  uint  oneWei = 1 wei */\n  0x05\n  sstore\n    /* \"blockship.sol\":729:752  classTypes.economyClass */\n  0x01\n    /* \"blockship.sol\":707:752  classTypes public u1= classTypes.economyClass */\n  0x07\n  exp(0x0100, 0x00)\n  dup2\n  sload\n  dup2\n  0xff\n  mul\n  not\n  and\n  swap1\n  dup4\n  0x02\n  dup2\n  gt\n  iszero\n  tag_3\n  jumpi\n  tag_4\n  tag_5\n  jump\t// in\ntag_4:\ntag_3:\n  mul\n  or\n  swap1\n  sstore\n  pop\n    /* \"blockship.sol\":174:294  constructor() {\r... */\n  callvalue\n  dup1\n  iszero\n  tag_6\n  jumpi\n  0x00\n  dup1\n  revert\ntag_6:\n  pop\n    /* \"blockship.sol\":207:249  0xdD870fA1b7C4700F2BD7f44238821C26f7392148 */\n  0xdd870fa1b7c4700f2bd7f44238821c26f7392148\n    /* \"blockship.sol\":199:204  owner */\n  0x00\n  dup1\n    /* \"blockship.sol\":199:249  owner = 0xdD870fA1b7C4700F2BD7f44238821C26f7392148 */\n  0x0100\n  exp\n  dup2\n  sload\n  dup2\n  0xffffffffffffffffffffffffffffffffffffffff\n  mul\n  not\n  and\n  swap1\n  dup4\n  0xffffffffffffffffffffffffffffffffffffffff\n  and\n  mul\n  or\n  swap1\n  sstore\n  pop\n    /* \"blockship.sol\":275:285  msg.sender */\n  caller\n    /* \"blockship.sol\":260:264  user */\n  0x01\n  0x00\n    /* \"blockship.sol\":260:286  user = payable(msg.sender) */\n  0x0100\n  exp\n  dup2\n  sload\n  dup2\n  0xffffffffffffffffffffffffffffffffffffffff\n  mul\n  not\n  and\n  swap1\n  dup4\n  0xffffffffffffffffffffffffffffffffffffffff\n  and\n  mul\n  or\n  swap1\n  sstore\n  pop\n    /* \"blockship.sol\":74:2040  contract AirlineTickets {\r... */\n  jump(tag_9)\ntag_2:\n  dup3\n  dup1\n  sload\n  tag_10\n  swap1\n  tag_11\n  jump\t// in\ntag_10:\n  swap1\n  0x00\n  mstore\n  keccak256(0x00, 0x20)\n  swap1\n  0x1f\n  add\n  0x20\n  swap1\n  div\n  dup2\n  add\n  swap3\n  dup3\n  tag_13\n  jumpi\n  0x00\n  dup6\n  sstore\n  jump(tag_12)\ntag_13:\n  dup3\n  0x1f\n  lt\n  tag_14\n  jumpi\n  dup1\n  mload\n  not(0xff)\n  and\n  dup4\n  dup1\n  add\n  or\n  dup6\n  sstore\n  jump(tag_12)\ntag_14:\n  dup3\n  dup1\n  add\n  0x01\n  add\n  dup6\n  sstore\n  dup3\n  iszero\n  tag_12\n  jumpi\n  swap2\n  dup3\n  add\ntag_15:\n  dup3\n  dup2\n  gt\n  iszero\n  tag_16\n  jumpi\n  dup3\n  mload\n  dup3\n  sstore\n  swap2\n  0x20\n  add\n  swap2\n  swap1\n  0x01\n  add\n  swap1\n  jump(tag_15)\ntag_16:\ntag_12:\n  pop\n  swap1\n  pop\n  tag_17\n  swap2\n  swap1\n  tag_18\n  jump\t// in\ntag_17:\n  pop\n  swap1\n  jump\t// out\ntag_18:\ntag_19:\n  dup1\n  dup3\n  gt\n  iszero\n  tag_20\n  jumpi\n  0x00\n  dup2\n  0x00\n  swap1\n  sstore\n  pop\n  0x01\n  add\n  jump(tag_19)\ntag_20:\n  pop\n  swap1\n  jump\t// out\n    /* \"#utility.yul\":7:327   */\ntag_11:\n    /* \"#utility.yul\":51:57   */\n  0x00\n    /* \"#utility.yul\":88:89   */\n  0x02\n    /* \"#utility.yul\":82:86   */\n  dup3\n    /* \"#utility.yul\":78:90   */\n  div\n    /* \"#utility.yul\":68:90   */\n  swap1\n  pop\n    /* \"#utility.yul\":135:136   */\n  0x01\n    /* \"#utility.yul\":129:133   */\n  dup3\n    /* \"#utility.yul\":125:137   */\n  and\n    /* \"#utility.yul\":156:174   */\n  dup1\n    /* \"#utility.yul\":146:227   */\n  tag_23\n  jumpi\n    /* \"#utility.yul\":212:216   */\n  0x7f\n    /* \"#utility.yul\":204:210   */\n  dup3\n    /* \"#utility.yul\":200:217   */\n  and\n    /* \"#utility.yul\":190:217   */\n  swap2\n  pop\n    /* \"#utility.yul\":146:227   */\ntag_23:\n    /* \"#utility.yul\":274:276   */\n  0x20\n    /* \"#utility.yul\":266:272   */\n  dup3\n    /* \"#utility.yul\":263:277   */\n  lt\n    /* \"#utility.yul\":243:261   */\n  dup2\n    /* \"#utility.yul\":240:278   */\n  eq\n    /* \"#utility.yul\":237:321   */\n  iszero\n  tag_24\n  jumpi\n    /* \"#utility.yul\":293:311   */\n  tag_25\n  tag_26\n  jump\t// in\ntag_25:\n    /* \"#utility.yul\":237:321   */\ntag_24:\n    /* \"#utility.yul\":58:327   */\n  pop\n    /* \"#utility.yul\":7:327   */\n  swap2\n  swap1\n  pop\n  jump\t// out\n    /* \"#utility.yul\":333:513   */\ntag_5:\n    /* \"#utility.yul\":381:458   */\n  0x4e487b7100000000000000000000000000000000000000000000000000000000\n    /* \"#utility.yul\":378:379   */\n  0x00\n    /* \"#utility.yul\":371:459   */\n  mstore\n    /* \"#utility.yul\":478:482   */\n  0x21\n    /* \"#utility.yul\":475:476   */\n  0x04\n    /* \"#utility.yul\":468:483   */\n  mstore\n    /* \"#utility.yul\":502:506   */\n  0x24\n    /* \"#utility.yul\":499:500   */\n  0x00\n    /* \"#utility.yul\":492:507   */\n  revert\n    /* \"#utility.yul\":519:699   */\ntag_26:\n    /* \"#utility.yul\":567:644   */\n  0x4e487b7100000000000000000000000000000000000000000000000000000000\n    /* \"#utility.yul\":564:565   */\n  0x00\n    /* \"#utility.yul\":557:645   */\n  mstore\n    /* \"#utility.yul\":664:668   */\n  0x22\n    /* \"#utility.yul\":661:662   */\n  0x04\n    /* \"#utility.yul\":654:669   */\n  mstore\n    /* \"#utility.yul\":688:692   */\n  0x24\n    /* \"#utility.yul\":685:686   */\n  0x00\n    /* \"#utility.yul\":678:693   */\n  revert\n    /* \"blockship.sol\":74:2040  contract AirlineTickets {\r... */\ntag_9:\n  dataSize(sub_0)\n  dup1\n  dataOffset(sub_0)\n  0x00\n  codecopy\n  0x00\n  return\nstop\n\nsub_0: assembly {\n        /* \"blockship.sol\":74:2040  contract AirlineTickets {\r... */\n      mstore(0x40, 0x80)\n      callvalue\n      dup1\n      iszero\n      tag_1\n      jumpi\n      0x00\n      dup1\n      revert\n    tag_1:\n      pop\n      jumpi(tag_2, lt(calldatasize, 0x04))\n      shr(0xe0, calldataload(0x00))\n      dup1\n      0x7a1736d1\n      gt\n      tag_13\n      jumpi\n      dup1\n      0x7a1736d1\n      eq\n      tag_8\n      jumpi\n      dup1\n      0x8da5cb5b\n      eq\n      tag_9\n      jumpi\n      dup1\n      0x993a04b7\n      eq\n      tag_10\n      jumpi\n      dup1\n      0xb24fa0e4\n      eq\n      tag_11\n      jumpi\n      dup1\n      0xb90d3d0c\n      eq\n      tag_12\n      jumpi\n      jump(tag_2)\n    tag_13:\n      dup1\n      0x17ae4589\n      eq\n      tag_3\n      jumpi\n      dup1\n      0x1aa35610\n      eq\n      tag_4\n      jumpi\n      dup1\n      0x42f6487a\n      eq\n      tag_5\n      jumpi\n      dup1\n      0x4f8632ba\n      eq\n      tag_6\n      jumpi\n      dup1\n      0x50183507\n      eq\n      tag_7\n      jumpi\n    tag_2:\n      0x00\n      dup1\n      revert\n        /* \"blockship.sol\":1810:2031  function setData(string memory _name, string memory _des, uint _pass_id) public \r... */\n    tag_3:\n      tag_14\n      0x04\n      dup1\n      calldatasize\n      sub\n      dup2\n      add\n      swap1\n      tag_15\n      swap2\n      swap1\n      tag_16\n      jump\t// in\n    tag_15:\n      tag_17\n      jump\t// in\n    tag_14:\n      stop\n        /* \"blockship.sol\":707:752  classTypes public u1= classTypes.economyClass */\n    tag_4:\n      tag_18\n      tag_19\n      jump\t// in\n    tag_18:\n      mload(0x40)\n      tag_20\n      swap2\n      swap1\n      tag_21\n      jump\t// in\n    tag_20:\n      mload(0x40)\n      dup1\n      swap2\n      sub\n      swap1\n      return\n        /* \"blockship.sol\":942:1011  function payment() public\r... */\n    tag_5:\n      tag_22\n      tag_23\n      jump\t// in\n    tag_22:\n      stop\n        /* \"blockship.sol\":134:161  address payable public user */\n    tag_6:\n      tag_24\n      tag_25\n      jump\t// in\n    tag_24:\n      mload(0x40)\n      tag_26\n      swap2\n      swap1\n      tag_27\n      jump\t// in\n    tag_26:\n      mload(0x40)\n      dup1\n      swap2\n      sub\n      swap1\n      return\n        /* \"blockship.sol\":1288:1539  function firstClass() public \r... */\n    tag_7:\n      tag_28\n      tag_29\n      jump\t// in\n    tag_28:\n      stop\n        /* \"blockship.sol\":1019:1276  function economyClass() public \r... */\n    tag_8:\n      tag_30\n      tag_31\n      jump\t// in\n    tag_30:\n      stop\n        /* \"blockship.sol\":107:127  address public owner */\n    tag_9:\n      tag_32\n      tag_33\n      jump\t// in\n    tag_32:\n      mload(0x40)\n      tag_34\n      swap2\n      swap1\n      tag_35\n      jump\t// in\n    tag_34:\n      mload(0x40)\n      dup1\n      swap2\n      sub\n      swap1\n      return\n        /* \"blockship.sol\":763:934  function getter() public view returns(uint block_no, uint timestamp, address msgSender)\r... */\n    tag_10:\n      tag_36\n      tag_37\n      jump\t// in\n    tag_36:\n      mload(0x40)\n      tag_38\n      swap4\n      swap3\n      swap2\n      swap1\n      tag_39\n      jump\t// in\n    tag_38:\n      mload(0x40)\n      dup1\n      swap2\n      sub\n      swap1\n      return\n        /* \"blockship.sol\":1547:1798  function busnissClass() public {\r... */\n    tag_11:\n      tag_40\n      tag_41\n      jump\t// in\n    tag_40:\n      stop\n        /* \"blockship.sol\":661:698  mapping (address => User) public data */\n    tag_12:\n      tag_42\n      0x04\n      dup1\n      calldatasize\n      sub\n      dup2\n      add\n      swap1\n      tag_43\n      swap2\n      swap1\n      tag_44\n      jump\t// in\n    tag_43:\n      tag_45\n      jump\t// in\n    tag_42:\n      mload(0x40)\n      tag_46\n      swap6\n      swap5\n      swap4\n      swap3\n      swap2\n      swap1\n      tag_47\n      jump\t// in\n    tag_46:\n      mload(0x40)\n      dup1\n      swap2\n      sub\n      swap1\n      return\n        /* \"blockship.sol\":1810:2031  function setData(string memory _name, string memory _des, uint _pass_id) public \r... */\n    tag_17:\n        /* \"blockship.sol\":1915:1921  booked */\n      0x01\n      0x14\n      swap1\n      sload\n      swap1\n      0x0100\n      exp\n      swap1\n      div\n      0xff\n      and\n        /* \"blockship.sol\":1907:1954  require(booked,\"please select the class first\") */\n      tag_49\n      jumpi\n      mload(0x40)\n      0x08c379a000000000000000000000000000000000000000000000000000000000\n      dup2\n      mstore\n      0x04\n      add\n      tag_50\n      swap1\n      tag_51\n      jump\t// in\n    tag_50:\n      mload(0x40)\n      dup1\n      swap2\n      sub\n      swap1\n      revert\n    tag_49:\n        /* \"blockship.sol\":1984:2023  User(_name,_des,_pass_id,realVal ,cost) */\n      mload(0x40)\n      dup1\n      0xa0\n      add\n      0x40\n      mstore\n      dup1\n        /* \"blockship.sol\":1989:1994  _name */\n      dup5\n        /* \"blockship.sol\":1984:2023  User(_name,_des,_pass_id,realVal ,cost) */\n      dup2\n      mstore\n      0x20\n      add\n        /* \"blockship.sol\":1995:1999  _des */\n      dup4\n        /* \"blockship.sol\":1984:2023  User(_name,_des,_pass_id,realVal ,cost) */\n      dup2\n      mstore\n      0x20\n      add\n        /* \"blockship.sol\":2000:2008  _pass_id */\n      dup3\n        /* \"blockship.sol\":1984:2023  User(_name,_des,_pass_id,realVal ,cost) */\n      dup2\n      mstore\n      0x20\n      add\n        /* \"blockship.sol\":2009:2016  realVal */\n      0x03\n        /* \"blockship.sol\":1984:2023  User(_name,_des,_pass_id,realVal ,cost) */\n      dup1\n      sload\n      tag_52\n      swap1\n      tag_53\n      jump\t// in\n    tag_52:\n      dup1\n      0x1f\n      add\n      0x20\n      dup1\n      swap2\n      div\n      mul\n      0x20\n      add\n      mload(0x40)\n      swap1\n      dup2\n      add\n      0x40\n      mstore\n      dup1\n      swap3\n      swap2\n      swap1\n      dup2\n      dup2\n      mstore\n      0x20\n      add\n      dup3\n      dup1\n      sload\n      tag_54\n      swap1\n      tag_53\n      jump\t// in\n    tag_54:\n      dup1\n      iszero\n      tag_55\n      jumpi\n      dup1\n      0x1f\n      lt\n      tag_56\n      jumpi\n      0x0100\n      dup1\n      dup4\n      sload\n      div\n      mul\n      dup4\n      mstore\n      swap2\n      0x20\n      add\n      swap2\n      jump(tag_55)\n    tag_56:\n      dup3\n      add\n      swap2\n      swap1\n      0x00\n      mstore\n      keccak256(0x00, 0x20)\n      swap1\n    tag_57:\n      dup2\n      sload\n      dup2\n      mstore\n      swap1\n      0x01\n      add\n      swap1\n      0x20\n      add\n      dup1\n      dup4\n      gt\n      tag_57\n      jumpi\n      dup3\n      swap1\n      sub\n      0x1f\n      and\n      dup3\n      add\n      swap2\n    tag_55:\n      pop\n      pop\n      pop\n      pop\n      pop\n      dup2\n      mstore\n      0x20\n      add\n        /* \"blockship.sol\":2018:2022  cost */\n      sload(0x04)\n        /* \"blockship.sol\":1984:2023  User(_name,_des,_pass_id,realVal ,cost) */\n      dup2\n      mstore\n      pop\n        /* \"blockship.sol\":1965:1969  data */\n      0x06\n        /* \"blockship.sol\":1965:1981  data[msg.sender] */\n      0x00\n        /* \"blockship.sol\":1970:1980  msg.sender */\n      caller\n        /* \"blockship.sol\":1965:1981  data[msg.sender] */\n      0xffffffffffffffffffffffffffffffffffffffff\n      and\n      0xffffffffffffffffffffffffffffffffffffffff\n      and\n      dup2\n      mstore\n      0x20\n      add\n      swap1\n      dup2\n      mstore\n      0x20\n      add\n      0x00\n      keccak256\n        /* \"blockship.sol\":1965:2023  data[msg.sender] = User(_name,_des,_pass_id,realVal ,cost) */\n      0x00\n      dup3\n      add\n      mload\n      dup2\n      0x00\n      add\n      swap1\n      dup1\n      mload\n      swap1\n      0x20\n      add\n      swap1\n      tag_58\n      swap3\n      swap2\n      swap1\n      tag_59\n      jump\t// in\n    tag_58:\n      pop\n      0x20\n      dup3\n      add\n      mload\n      dup2\n      0x01\n      add\n      swap1\n      dup1\n      mload\n      swap1\n      0x20\n      add\n      swap1\n      tag_60\n      swap3\n      swap2\n      swap1\n      tag_59\n      jump\t// in\n    tag_60:\n      pop\n      0x40\n      dup3\n      add\n      mload\n      dup2\n      0x02\n      add\n      sstore\n      0x60\n      dup3\n      add\n      mload\n      dup2\n      0x03\n      add\n      swap1\n      dup1\n      mload\n      swap1\n      0x20\n      add\n      swap1\n      tag_61\n      swap3\n      swap2\n      swap1\n      tag_59\n      jump\t// in\n    tag_61:\n      pop\n      0x80\n      dup3\n      add\n      mload\n      dup2\n      0x04\n      add\n      sstore\n      swap1\n      pop\n      pop\n        /* \"blockship.sol\":1810:2031  function setData(string memory _name, string memory _des, uint _pass_id) public \r... */\n      pop\n      pop\n      pop\n      jump\t// out\n        /* \"blockship.sol\":707:752  classTypes public u1= classTypes.economyClass */\n    tag_19:\n      0x07\n      0x00\n      swap1\n      sload\n      swap1\n      0x0100\n      exp\n      swap1\n      div\n      0xff\n      and\n      dup2\n      jump\t// out\n        /* \"blockship.sol\":942:1011  function payment() public\r... */\n    tag_23:\n        /* \"blockship.sol\":984:988  user */\n      0x01\n      0x00\n      swap1\n      sload\n      swap1\n      0x0100\n      exp\n      swap1\n      div\n      0xffffffffffffffffffffffffffffffffffffffff\n      and\n        /* \"blockship.sol\":984:997  user.transfer */\n      0xffffffffffffffffffffffffffffffffffffffff\n      and\n        /* \"blockship.sol\":984:1003  user.transfer(cost) */\n      0x08fc\n        /* \"blockship.sol\":998:1002  cost */\n      sload(0x04)\n        /* \"blockship.sol\":984:1003  user.transfer(cost) */\n      swap1\n      dup2\n      iszero\n      mul\n      swap1\n      mload(0x40)\n      0x00\n      mload(0x40)\n      dup1\n      dup4\n      sub\n      dup2\n      dup6\n      dup9\n      dup9\n      call\n      swap4\n      pop\n      pop\n      pop\n      pop\n      iszero\n      dup1\n      iszero\n      tag_64\n      jumpi\n      returndatasize\n      0x00\n      dup1\n      returndatacopy\n      revert(0x00, returndatasize)\n    tag_64:\n      pop\n        /* \"blockship.sol\":942:1011  function payment() public\r... */\n      jump\t// out\n        /* \"blockship.sol\":134:161  address payable public user */\n    tag_25:\n      0x01\n      0x00\n      swap1\n      sload\n      swap1\n      0x0100\n      exp\n      swap1\n      div\n      0xffffffffffffffffffffffffffffffffffffffff\n      and\n      dup2\n      jump\t// out\n        /* \"blockship.sol\":1288:1539  function firstClass() public \r... */\n    tag_29:\n        /* \"blockship.sol\":1338:1359  classTypes.firstClass */\n      0x00\n        /* \"blockship.sol\":1334:1336  u1 */\n      0x07\n      0x00\n        /* \"blockship.sol\":1334:1359  u1= classTypes.firstClass */\n      0x0100\n      exp\n      dup2\n      sload\n      dup2\n      0xff\n      mul\n      not\n      and\n      swap1\n      dup4\n      0x02\n      dup2\n      gt\n      iszero\n      tag_66\n      jumpi\n      tag_67\n      tag_68\n      jump\t// in\n    tag_67:\n    tag_66:\n      mul\n      or\n      swap1\n      sstore\n      pop\n        /* \"blockship.sol\":1385:1387  u1 */\n      0x07\n      0x00\n      swap1\n      sload\n      swap1\n      0x0100\n      exp\n      swap1\n      div\n      0xff\n      and\n        /* \"blockship.sol\":1380:1388  uint(u1) */\n      0x02\n      dup2\n      gt\n      iszero\n      tag_69\n      jumpi\n      tag_70\n      tag_68\n      jump\t// in\n    tag_70:\n    tag_69:\n        /* \"blockship.sol\":1370:1377  convert */\n      0x02\n        /* \"blockship.sol\":1370:1388  convert = uint(u1) */\n      dup2\n      swap1\n      sstore\n      pop\n        /* \"blockship.sol\":1411:1412  0 */\n      0x00\n        /* \"blockship.sol\":1402:1409  convert */\n      sload(0x02)\n        /* \"blockship.sol\":1402:1412  convert==0 */\n      eq\n        /* \"blockship.sol\":1399:1508  if(convert==0)\r... */\n      iszero\n      tag_71\n      jumpi\n        /* \"blockship.sol\":1438:1461  realVal = \"First Class\" */\n      mload(0x40)\n      dup1\n      0x40\n      add\n      0x40\n      mstore\n      dup1\n      0x0b\n      dup2\n      mstore\n      0x20\n      add\n      0x466972737420436c617373000000000000000000000000000000000000000000\n      dup2\n      mstore\n      pop\n        /* \"blockship.sol\":1438:1445  realVal */\n      0x03\n        /* \"blockship.sol\":1438:1461  realVal = \"First Class\" */\n      swap1\n      dup1\n      mload\n      swap1\n      0x20\n      add\n      swap1\n      tag_72\n      swap3\n      swap2\n      swap1\n      tag_59\n      jump\t// in\n    tag_72:\n      pop\n        /* \"blockship.sol\":1492:1496  1e16 */\n      0x2386f26fc10000\n        /* \"blockship.sol\":1483:1489  oneWei */\n      sload(0x05)\n        /* \"blockship.sol\":1483:1496  oneWei * 1e16 */\n      tag_73\n      swap2\n      swap1\n      tag_74\n      jump\t// in\n    tag_73:\n        /* \"blockship.sol\":1476:1480  cost */\n      0x04\n        /* \"blockship.sol\":1476:1496  cost = oneWei * 1e16 */\n      dup2\n      swap1\n      sstore\n      pop\n        /* \"blockship.sol\":1399:1508  if(convert==0)\r... */\n    tag_71:\n        /* \"blockship.sol\":1527:1531  true */\n      0x01\n        /* \"blockship.sol\":1518:1524  booked */\n      dup1\n      0x14\n        /* \"blockship.sol\":1518:1531  booked = true */\n      0x0100\n      exp\n      dup2\n      sload\n      dup2\n      0xff\n      mul\n      not\n      and\n      swap1\n      dup4\n      iszero\n      iszero\n      mul\n      or\n      swap1\n      sstore\n      pop\n        /* \"blockship.sol\":1288:1539  function firstClass() public \r... */\n      jump\t// out\n        /* \"blockship.sol\":1019:1276  function economyClass() public \r... */\n    tag_31:\n        /* \"blockship.sol\":1071:1094  classTypes.economyClass */\n      0x01\n        /* \"blockship.sol\":1067:1069  u1 */\n      0x07\n      0x00\n        /* \"blockship.sol\":1067:1094  u1= classTypes.economyClass */\n      0x0100\n      exp\n      dup2\n      sload\n      dup2\n      0xff\n      mul\n      not\n      and\n      swap1\n      dup4\n      0x02\n      dup2\n      gt\n      iszero\n      tag_76\n      jumpi\n      tag_77\n      tag_68\n      jump\t// in\n    tag_77:\n    tag_76:\n      mul\n      or\n      swap1\n      sstore\n      pop\n        /* \"blockship.sol\":1120:1122  u1 */\n      0x07\n      0x00\n      swap1\n      sload\n      swap1\n      0x0100\n      exp\n      swap1\n      div\n      0xff\n      and\n        /* \"blockship.sol\":1115:1123  uint(u1) */\n      0x02\n      dup2\n      gt\n      iszero\n      tag_78\n      jumpi\n      tag_79\n      tag_68\n      jump\t// in\n    tag_79:\n    tag_78:\n        /* \"blockship.sol\":1105:1112  convert */\n      0x02\n        /* \"blockship.sol\":1105:1123  convert = uint(u1) */\n      dup2\n      swap1\n      sstore\n      pop\n        /* \"blockship.sol\":1146:1147  1 */\n      0x01\n        /* \"blockship.sol\":1137:1144  convert */\n      sload(0x02)\n        /* \"blockship.sol\":1137:1147  convert==1 */\n      eq\n        /* \"blockship.sol\":1134:1245  if(convert==1)\r... */\n      iszero\n      tag_80\n      jumpi\n        /* \"blockship.sol\":1173:1198  realVal = \"Economy Class\" */\n      mload(0x40)\n      dup1\n      0x40\n      add\n      0x40\n      mstore\n      dup1\n      0x0d\n      dup2\n      mstore\n      0x20\n      add\n      0x45636f6e6f6d7920436c61737300000000000000000000000000000000000000\n      dup2\n      mstore\n      pop\n        /* \"blockship.sol\":1173:1180  realVal */\n      0x03\n        /* \"blockship.sol\":1173:1198  realVal = \"Economy Class\" */\n      swap1\n      dup1\n      mload\n      swap1\n      0x20\n      add\n      swap1\n      tag_81\n      swap3\n      swap2\n      swap1\n      tag_59\n      jump\t// in\n    tag_81:\n      pop\n        /* \"blockship.sol\":1229:1233  5e15 */\n      0x11c37937e08000\n        /* \"blockship.sol\":1220:1226  oneWei */\n      sload(0x05)\n        /* \"blockship.sol\":1220:1233  oneWei * 5e15 */\n      tag_82\n      swap2\n      swap1\n      tag_74\n      jump\t// in\n    tag_82:\n        /* \"blockship.sol\":1213:1217  cost */\n      0x04\n        /* \"blockship.sol\":1213:1233  cost = oneWei * 5e15 */\n      dup2\n      swap1\n      sstore\n      pop\n        /* \"blockship.sol\":1134:1245  if(convert==1)\r... */\n    tag_80:\n        /* \"blockship.sol\":1264:1268  true */\n      0x01\n        /* \"blockship.sol\":1255:1261  booked */\n      dup1\n      0x14\n        /* \"blockship.sol\":1255:1268  booked = true */\n      0x0100\n      exp\n      dup2\n      sload\n      dup2\n      0xff\n      mul\n      not\n      and\n      swap1\n      dup4\n      iszero\n      iszero\n      mul\n      or\n      swap1\n      sstore\n      pop\n        /* \"blockship.sol\":1019:1276  function economyClass() public \r... */\n      jump\t// out\n        /* \"blockship.sol\":107:127  address public owner */\n    tag_33:\n      0x00\n      dup1\n      sload\n      swap1\n      0x0100\n      exp\n      swap1\n      div\n      0xffffffffffffffffffffffffffffffffffffffff\n      and\n      dup2\n      jump\t// out\n        /* \"blockship.sol\":763:934  function getter() public view returns(uint block_no, uint timestamp, address msgSender)\r... */\n    tag_37:\n        /* \"blockship.sol\":801:814  uint block_no */\n      0x00\n        /* \"blockship.sol\":816:830  uint timestamp */\n      dup1\n        /* \"blockship.sol\":832:849  address msgSender */\n      0x00\n        /* \"blockship.sol\":874:886  block.number */\n      number\n        /* \"blockship.sol\":888:903  block.timestamp */\n      timestamp\n        /* \"blockship.sol\":905:915  msg.sender */\n      caller\n        /* \"blockship.sol\":867:916  return(block.number, block.timestamp, msg.sender) */\n      swap3\n      pop\n      swap3\n      pop\n      swap3\n      pop\n        /* \"blockship.sol\":763:934  function getter() public view returns(uint block_no, uint timestamp, address msgSender)\r... */\n      swap1\n      swap2\n      swap3\n      jump\t// out\n        /* \"blockship.sol\":1547:1798  function busnissClass() public {\r... */\n    tag_41:\n        /* \"blockship.sol\":1593:1616  classTypes.busnissClass */\n      0x02\n        /* \"blockship.sol\":1589:1591  u1 */\n      0x07\n      0x00\n        /* \"blockship.sol\":1589:1616  u1= classTypes.busnissClass */\n      0x0100\n      exp\n      dup2\n      sload\n      dup2\n      0xff\n      mul\n      not\n      and\n      swap1\n      dup4\n      0x02\n      dup2\n      gt\n      iszero\n      tag_85\n      jumpi\n      tag_86\n      tag_68\n      jump\t// in\n    tag_86:\n    tag_85:\n      mul\n      or\n      swap1\n      sstore\n      pop\n        /* \"blockship.sol\":1642:1644  u1 */\n      0x07\n      0x00\n      swap1\n      sload\n      swap1\n      0x0100\n      exp\n      swap1\n      div\n      0xff\n      and\n        /* \"blockship.sol\":1637:1645  uint(u1) */\n      0x02\n      dup2\n      gt\n      iszero\n      tag_87\n      jumpi\n      tag_88\n      tag_68\n      jump\t// in\n    tag_88:\n    tag_87:\n        /* \"blockship.sol\":1627:1634  convert */\n      0x02\n        /* \"blockship.sol\":1627:1645  convert = uint(u1) */\n      dup2\n      swap1\n      sstore\n      pop\n        /* \"blockship.sol\":1668:1669  2 */\n      0x02\n        /* \"blockship.sol\":1659:1666  convert */\n      dup1\n      sload\n        /* \"blockship.sol\":1659:1669  convert==2 */\n      eq\n        /* \"blockship.sol\":1656:1767  if(convert==2)\r... */\n      iszero\n      tag_89\n      jumpi\n        /* \"blockship.sol\":1695:1720  realVal = \"Busniss Class\" */\n      mload(0x40)\n      dup1\n      0x40\n      add\n      0x40\n      mstore\n      dup1\n      0x0d\n      dup2\n      mstore\n      0x20\n      add\n      0x4275736e69737320436c61737300000000000000000000000000000000000000\n      dup2\n      mstore\n      pop\n        /* \"blockship.sol\":1695:1702  realVal */\n      0x03\n        /* \"blockship.sol\":1695:1720  realVal = \"Busniss Class\" */\n      swap1\n      dup1\n      mload\n      swap1\n      0x20\n      add\n      swap1\n      tag_90\n      swap3\n      swap2\n      swap1\n      tag_59\n      jump\t// in\n    tag_90:\n      pop\n        /* \"blockship.sol\":1751:1755  7e15 */\n      0x18de76816d8000\n        /* \"blockship.sol\":1742:1748  oneWei */\n      sload(0x05)\n        /* \"blockship.sol\":1742:1755  oneWei * 7e15 */\n      tag_91\n      swap2\n      swap1\n      tag_74\n      jump\t// in\n    tag_91:\n        /* \"blockship.sol\":1735:1739  cost */\n      0x04\n        /* \"blockship.sol\":1735:1755  cost = oneWei * 7e15 */\n      dup2\n      swap1\n      sstore\n      pop\n        /* \"blockship.sol\":1656:1767  if(convert==2)\r... */\n    tag_89:\n        /* \"blockship.sol\":1786:1790  true */\n      0x01\n        /* \"blockship.sol\":1777:1783  booked */\n      dup1\n      0x14\n        /* \"blockship.sol\":1777:1790  booked = true */\n      0x0100\n      exp\n      dup2\n      sload\n      dup2\n      0xff\n      mul\n      not\n      and\n      swap1\n      dup4\n      iszero\n      iszero\n      mul\n      or\n      swap1\n      sstore\n      pop\n        /* \"blockship.sol\":1547:1798  function busnissClass() public {\r... */\n      jump\t// out\n        /* \"blockship.sol\":661:698  mapping (address => User) public data */\n    tag_45:\n      mstore(0x20, 0x06)\n      dup1\n      0x00\n      mstore\n      keccak256(0x00, 0x40)\n      0x00\n      swap2\n      pop\n      swap1\n      pop\n      dup1\n      0x00\n      add\n      dup1\n      sload\n      tag_92\n      swap1\n      tag_53\n      jump\t// in\n    tag_92:\n      dup1\n      0x1f\n      add\n      0x20\n      dup1\n      swap2\n      div\n      mul\n      0x20\n      add\n      mload(0x40)\n      swap1\n      dup2\n      add\n      0x40\n      mstore\n      dup1\n      swap3\n      swap2\n      swap1\n      dup2\n      dup2\n      mstore\n      0x20\n      add\n      dup3\n      dup1\n      sload\n      tag_93\n      swap1\n      tag_53\n      jump\t// in\n    tag_93:\n      dup1\n      iszero\n      tag_94\n      jumpi\n      dup1\n      0x1f\n      lt\n      tag_95\n      jumpi\n      0x0100\n      dup1\n      dup4\n      sload\n      div\n      mul\n      dup4\n      mstore\n      swap2\n      0x20\n      add\n      swap2\n      jump(tag_94)\n    tag_95:\n      dup3\n      add\n      swap2\n      swap1\n      0x00\n      mstore\n      keccak256(0x00, 0x20)\n      swap1\n    tag_96:\n      dup2\n      sload\n      dup2\n      mstore\n      swap1\n      0x01\n      add\n      swap1\n      0x20\n      add\n      dup1\n      dup4\n      gt\n      tag_96\n      jumpi\n      dup3\n      swap1\n      sub\n      0x1f\n      and\n      dup3\n      add\n      swap2\n    tag_94:\n      pop\n      pop\n      pop\n      pop\n      pop\n      swap1\n      dup1\n      0x01\n      add\n      dup1\n      sload\n      tag_97\n      swap1\n      tag_53\n      jump\t// in\n    tag_97:\n      dup1\n      0x1f\n      add\n      0x20\n      dup1\n      swap2\n      div\n      mul\n      0x20\n      add\n      mload(0x40)\n      swap1\n      dup2\n      add\n      0x40\n      mstore\n      dup1\n      swap3\n      swap2\n      swap1\n      dup2\n      dup2\n      mstore\n      0x20\n      add\n      dup3\n      dup1\n      sload\n      tag_98\n      swap1\n      tag_53\n      jump\t// in\n    tag_98:\n      dup1\n      iszero\n      tag_99\n      jumpi\n      dup1\n      0x1f\n      lt\n      tag_100\n      jumpi\n      0x0100\n      dup1\n      dup4\n      sload\n      div\n      mul\n      dup4\n      mstore\n      swap2\n      0x20\n      add\n      swap2\n      jump(tag_99)\n    tag_100:\n      dup3\n      add\n      swap2\n      swap1\n      0x00\n      mstore\n      keccak256(0x00, 0x20)\n      swap1\n    tag_101:\n      dup2\n      sload\n      dup2\n      mstore\n      swap1\n      0x01\n      add\n      swap1\n      0x20\n      add\n      dup1\n      dup4\n      gt\n      tag_101\n      jumpi\n      dup3\n      swap1\n      sub\n      0x1f\n      and\n      dup3\n      add\n      swap2\n    tag_99:\n      pop\n      pop\n      pop\n      pop\n      pop\n      swap1\n      dup1\n      0x02\n      add\n      sload\n      swap1\n      dup1\n      0x03\n      add\n      dup1\n      sload\n      tag_102\n      swap1\n      tag_53\n      jump\t// in\n    tag_102:\n      dup1\n      0x1f\n      add\n      0x20\n      dup1\n      swap2\n      div\n      mul\n      0x20\n      add\n      mload(0x40)\n      swap1\n      dup2\n      add\n      0x40\n      mstore\n      dup1\n      swap3\n      swap2\n      swap1\n      dup2\n      dup2\n      mstore\n      0x20\n      add\n      dup3\n      dup1\n      sload\n      tag_103\n      swap1\n      tag_53\n      jump\t// in\n    tag_103:\n      dup1\n      iszero\n      tag_104\n      jumpi\n      dup1\n      0x1f\n      lt\n      tag_105\n      jumpi\n      0x0100\n      dup1\n      dup4\n      sload\n      div\n      mul\n      dup4\n      mstore\n      swap2\n      0x20\n      add\n      swap2\n      jump(tag_104)\n    tag_105:\n      dup3\n      add\n      swap2\n      swap1\n      0x00\n      mstore\n      keccak256(0x00, 0x20)\n      swap1\n    tag_106:\n      dup2\n      sload\n      dup2\n      mstore\n      swap1\n      0x01\n      add\n      swap1\n      0x20\n      add\n      dup1\n      dup4\n      gt\n      tag_106\n      jumpi\n      dup3\n      swap1\n      sub\n      0x1f\n      and\n      dup3\n      add\n      swap2\n    tag_104:\n      pop\n      pop\n      pop\n      pop\n      pop\n      swap1\n      dup1\n      0x04\n      add\n      sload\n      swap1\n      pop\n      dup6\n      jump\t// out\n    tag_59:\n      dup3\n      dup1\n      sload\n      tag_107\n      swap1\n      tag_53\n      jump\t// in\n    tag_107:\n      swap1\n      0x00\n      mstore\n      keccak256(0x00, 0x20)\n      swap1\n      0x1f\n      add\n      0x20\n      swap1\n      div\n      dup2\n      add\n      swap3\n      dup3\n      tag_109\n      jumpi\n      0x00\n      dup6\n      sstore\n      jump(tag_108)\n    tag_109:\n      dup3\n      0x1f\n      lt\n      tag_110\n      jumpi\n      dup1\n      mload\n      not(0xff)\n      and\n      dup4\n      dup1\n      add\n      or\n      dup6\n      sstore\n      jump(tag_108)\n    tag_110:\n      dup3\n      dup1\n      add\n      0x01\n      add\n      dup6\n      sstore\n      dup3\n      iszero\n      tag_108\n      jumpi\n      swap2\n      dup3\n      add\n    tag_111:\n      dup3\n      dup2\n      gt\n      iszero\n      tag_112\n      jumpi\n      dup3\n      mload\n      dup3\n      sstore\n      swap2\n      0x20\n      add\n      swap2\n      swap1\n      0x01\n      add\n      swap1\n      jump(tag_111)\n    tag_112:\n    tag_108:\n      pop\n      swap1\n      pop\n      tag_113\n      swap2\n      swap1\n      tag_114\n      jump\t// in\n    tag_113:\n      pop\n      swap1\n      jump\t// out\n    tag_114:\n    tag_115:\n      dup1\n      dup3\n      gt\n      iszero\n      tag_116\n      jumpi\n      0x00\n      dup2\n      0x00\n      swap1\n      sstore\n      pop\n      0x01\n      add\n      jump(tag_115)\n    tag_116:\n      pop\n      swap1\n      jump\t// out\n        /* \"#utility.yul\":7:419   */\n    tag_118:\n        /* \"#utility.yul\":85:90   */\n      0x00\n        /* \"#utility.yul\":110:176   */\n      tag_120\n        /* \"#utility.yul\":126:175   */\n      tag_121\n        /* \"#utility.yul\":168:174   */\n      dup5\n        /* \"#utility.yul\":126:175   */\n      tag_122\n      jump\t// in\n    tag_121:\n        /* \"#utility.yul\":110:176   */\n      tag_123\n      jump\t// in\n    tag_120:\n        /* \"#utility.yul\":101:176   */\n      swap1\n      pop\n        /* \"#utility.yul\":199:205   */\n      dup3\n        /* \"#utility.yul\":192:197   */\n      dup2\n        /* \"#utility.yul\":185:206   */\n      mstore\n        /* \"#utility.yul\":237:241   */\n      0x20\n        /* \"#utility.yul\":230:235   */\n      dup2\n        /* \"#utility.yul\":226:242   */\n      add\n        /* \"#utility.yul\":275:278   */\n      dup5\n        /* \"#utility.yul\":266:272   */\n      dup5\n        /* \"#utility.yul\":261:264   */\n      dup5\n        /* \"#utility.yul\":257:273   */\n      add\n        /* \"#utility.yul\":254:279   */\n      gt\n        /* \"#utility.yul\":251:363   */\n      iszero\n      tag_124\n      jumpi\n        /* \"#utility.yul\":282:361   */\n      tag_125\n      tag_126\n      jump\t// in\n    tag_125:\n        /* \"#utility.yul\":251:363   */\n    tag_124:\n        /* \"#utility.yul\":372:413   */\n      tag_127\n        /* \"#utility.yul\":406:412   */\n      dup5\n        /* \"#utility.yul\":401:404   */\n      dup3\n        /* \"#utility.yul\":396:399   */\n      dup6\n        /* \"#utility.yul\":372:413   */\n      tag_128\n      jump\t// in\n    tag_127:\n        /* \"#utility.yul\":91:419   */\n      pop\n        /* \"#utility.yul\":7:419   */\n      swap4\n      swap3\n      pop\n      pop\n      pop\n      jump\t// out\n        /* \"#utility.yul\":425:564   */\n    tag_129:\n        /* \"#utility.yul\":471:476   */\n      0x00\n        /* \"#utility.yul\":509:515   */\n      dup2\n        /* \"#utility.yul\":496:516   */\n      calldataload\n        /* \"#utility.yul\":487:516   */\n      swap1\n      pop\n        /* \"#utility.yul\":525:558   */\n      tag_131\n        /* \"#utility.yul\":552:557   */\n      dup2\n        /* \"#utility.yul\":525:558   */\n      tag_132\n      jump\t// in\n    tag_131:\n        /* \"#utility.yul\":425:564   */\n      swap3\n      swap2\n      pop\n      pop\n      jump\t// out\n        /* \"#utility.yul\":584:924   */\n    tag_133:\n        /* \"#utility.yul\":640:645   */\n      0x00\n        /* \"#utility.yul\":689:692   */\n      dup3\n        /* \"#utility.yul\":682:686   */\n      0x1f\n        /* \"#utility.yul\":674:680   */\n      dup4\n        /* \"#utility.yul\":670:687   */\n      add\n        /* \"#utility.yul\":666:693   */\n      slt\n        /* \"#utility.yul\":656:778   */\n      tag_135\n      jumpi\n        /* \"#utility.yul\":697:776   */\n      tag_136\n      tag_137\n      jump\t// in\n    tag_136:\n        /* \"#utility.yul\":656:778   */\n    tag_135:\n        /* \"#utility.yul\":814:820   */\n      dup2\n        /* \"#utility.yul\":801:821   */\n      calldataload\n        /* \"#utility.yul\":839:918   */\n      tag_138\n        /* \"#utility.yul\":914:917   */\n      dup5\n        /* \"#utility.yul\":906:912   */\n      dup3\n        /* \"#utility.yul\":899:903   */\n      0x20\n        /* \"#utility.yul\":891:897   */\n      dup7\n        /* \"#utility.yul\":887:904   */\n      add\n        /* \"#utility.yul\":839:918   */\n      tag_118\n      jump\t// in\n    tag_138:\n        /* \"#utility.yul\":830:918   */\n      swap2\n      pop\n        /* \"#utility.yul\":646:924   */\n      pop\n        /* \"#utility.yul\":584:924   */\n      swap3\n      swap2\n      pop\n      pop\n      jump\t// out\n        /* \"#utility.yul\":930:1069   */\n    tag_139:\n        /* \"#utility.yul\":976:981   */\n      0x00\n        /* \"#utility.yul\":1014:1020   */\n      dup2\n        /* \"#utility.yul\":1001:1021   */\n      calldataload\n        /* \"#utility.yul\":992:1021   */\n      swap1\n      pop\n        /* \"#utility.yul\":1030:1063   */\n      tag_141\n        /* \"#utility.yul\":1057:1062   */\n      dup2\n        /* \"#utility.yul\":1030:1063   */\n      tag_142\n      jump\t// in\n    tag_141:\n        /* \"#utility.yul\":930:1069   */\n      swap3\n      swap2\n      pop\n      pop\n      jump\t// out\n        /* \"#utility.yul\":1075:1404   */\n    tag_44:\n        /* \"#utility.yul\":1134:1140   */\n      0x00\n        /* \"#utility.yul\":1183:1185   */\n      0x20\n        /* \"#utility.yul\":1171:1180   */\n      dup3\n        /* \"#utility.yul\":1162:1169   */\n      dup5\n        /* \"#utility.yul\":1158:1181   */\n      sub\n        /* \"#utility.yul\":1154:1186   */\n      slt\n        /* \"#utility.yul\":1151:1270   */\n      iszero\n      tag_144\n      jumpi\n        /* \"#utility.yul\":1189:1268   */\n      tag_145\n      tag_146\n      jump\t// in\n    tag_145:\n        /* \"#utility.yul\":1151:1270   */\n    tag_144:\n        /* \"#utility.yul\":1309:1310   */\n      0x00\n        /* \"#utility.yul\":1334:1387   */\n      tag_147\n        /* \"#utility.yul\":1379:1386   */\n      dup5\n        /* \"#utility.yul\":1370:1376   */\n      dup3\n        /* \"#utility.yul\":1359:1368   */\n      dup6\n        /* \"#utility.yul\":1355:1377   */\n      add\n        /* \"#utility.yul\":1334:1387   */\n      tag_129\n      jump\t// in\n    tag_147:\n        /* \"#utility.yul\":1324:1387   */\n      swap2\n      pop\n        /* \"#utility.yul\":1280:1397   */\n      pop\n        /* \"#utility.yul\":1075:1404   */\n      swap3\n      swap2\n      pop\n      pop\n      jump\t// out\n        /* \"#utility.yul\":1410:2389   */\n    tag_16:\n        /* \"#utility.yul\":1507:1513   */\n      0x00\n        /* \"#utility.yul\":1515:1521   */\n      dup1\n        /* \"#utility.yul\":1523:1529   */\n      0x00\n        /* \"#utility.yul\":1572:1574   */\n      0x60\n        /* \"#utility.yul\":1560:1569   */\n      dup5\n        /* \"#utility.yul\":1551:1558   */\n      dup7\n        /* \"#utility.yul\":1547:1570   */\n      sub\n        /* \"#utility.yul\":1543:1575   */\n      slt\n        /* \"#utility.yul\":1540:1659   */\n      iszero\n      tag_149\n      jumpi\n        /* \"#utility.yul\":1578:1657   */\n      tag_150\n      tag_146\n      jump\t// in\n    tag_150:\n        /* \"#utility.yul\":1540:1659   */\n    tag_149:\n        /* \"#utility.yul\":1726:1727   */\n      0x00\n        /* \"#utility.yul\":1715:1724   */\n      dup5\n        /* \"#utility.yul\":1711:1728   */\n      add\n        /* \"#utility.yul\":1698:1729   */\n      calldataload\n        /* \"#utility.yul\":1756:1774   */\n      0xffffffffffffffff\n        /* \"#utility.yul\":1748:1754   */\n      dup2\n        /* \"#utility.yul\":1745:1775   */\n      gt\n        /* \"#utility.yul\":1742:1859   */\n      iszero\n      tag_151\n      jumpi\n        /* \"#utility.yul\":1778:1857   */\n      tag_152\n      tag_153\n      jump\t// in\n    tag_152:\n        /* \"#utility.yul\":1742:1859   */\n    tag_151:\n        /* \"#utility.yul\":1883:1946   */\n      tag_154\n        /* \"#utility.yul\":1938:1945   */\n      dup7\n        /* \"#utility.yul\":1929:1935   */\n      dup3\n        /* \"#utility.yul\":1918:1927   */\n      dup8\n        /* \"#utility.yul\":1914:1936   */\n      add\n        /* \"#utility.yul\":1883:1946   */\n      tag_133\n      jump\t// in\n    tag_154:\n        /* \"#utility.yul\":1873:1946   */\n      swap4\n      pop\n        /* \"#utility.yul\":1669:1956   */\n      pop\n        /* \"#utility.yul\":2023:2025   */\n      0x20\n        /* \"#utility.yul\":2012:2021   */\n      dup5\n        /* \"#utility.yul\":2008:2026   */\n      add\n        /* \"#utility.yul\":1995:2027   */\n      calldataload\n        /* \"#utility.yul\":2054:2072   */\n      0xffffffffffffffff\n        /* \"#utility.yul\":2046:2052   */\n      dup2\n        /* \"#utility.yul\":2043:2073   */\n      gt\n        /* \"#utility.yul\":2040:2157   */\n      iszero\n      tag_155\n      jumpi\n        /* \"#utility.yul\":2076:2155   */\n      tag_156\n      tag_153\n      jump\t// in\n    tag_156:\n        /* \"#utility.yul\":2040:2157   */\n    tag_155:\n        /* \"#utility.yul\":2181:2244   */\n      tag_157\n        /* \"#utility.yul\":2236:2243   */\n      dup7\n        /* \"#utility.yul\":2227:2233   */\n      dup3\n        /* \"#utility.yul\":2216:2225   */\n      dup8\n        /* \"#utility.yul\":2212:2234   */\n      add\n        /* \"#utility.yul\":2181:2244   */\n      tag_133\n      jump\t// in\n    tag_157:\n        /* \"#utility.yul\":2171:2244   */\n      swap3\n      pop\n        /* \"#utility.yul\":1966:2254   */\n      pop\n        /* \"#utility.yul\":2293:2295   */\n      0x40\n        /* \"#utility.yul\":2319:2372   */\n      tag_158\n        /* \"#utility.yul\":2364:2371   */\n      dup7\n        /* \"#utility.yul\":2355:2361   */\n      dup3\n        /* \"#utility.yul\":2344:2353   */\n      dup8\n        /* \"#utility.yul\":2340:2362   */\n      add\n        /* \"#utility.yul\":2319:2372   */\n      tag_139\n      jump\t// in\n    tag_158:\n        /* \"#utility.yul\":2309:2372   */\n      swap2\n      pop\n        /* \"#utility.yul\":2264:2382   */\n      pop\n        /* \"#utility.yul\":1410:2389   */\n      swap3\n      pop\n      swap3\n      pop\n      swap3\n      jump\t// out\n        /* \"#utility.yul\":2395:2537   */\n    tag_159:\n        /* \"#utility.yul\":2498:2530   */\n      tag_161\n        /* \"#utility.yul\":2524:2529   */\n      dup2\n        /* \"#utility.yul\":2498:2530   */\n      tag_162\n      jump\t// in\n    tag_161:\n        /* \"#utility.yul\":2493:2496   */\n      dup3\n        /* \"#utility.yul\":2486:2531   */\n      mstore\n        /* \"#utility.yul\":2395:2537   */\n      pop\n      pop\n      jump\t// out\n        /* \"#utility.yul\":2543:2661   */\n    tag_163:\n        /* \"#utility.yul\":2630:2654   */\n      tag_165\n        /* \"#utility.yul\":2648:2653   */\n      dup2\n        /* \"#utility.yul\":2630:2654   */\n      tag_166\n      jump\t// in\n    tag_165:\n        /* \"#utility.yul\":2625:2628   */\n      dup3\n        /* \"#utility.yul\":2618:2655   */\n      mstore\n        /* \"#utility.yul\":2543:2661   */\n      pop\n      pop\n      jump\t// out\n        /* \"#utility.yul\":2667:2820   */\n    tag_167:\n        /* \"#utility.yul\":2765:2813   */\n      tag_169\n        /* \"#utility.yul\":2807:2812   */\n      dup2\n        /* \"#utility.yul\":2765:2813   */\n      tag_170\n      jump\t// in\n    tag_169:\n        /* \"#utility.yul\":2760:2763   */\n      dup3\n        /* \"#utility.yul\":2753:2814   */\n      mstore\n        /* \"#utility.yul\":2667:2820   */\n      pop\n      pop\n      jump\t// out\n        /* \"#utility.yul\":2826:3190   */\n    tag_171:\n        /* \"#utility.yul\":2914:2917   */\n      0x00\n        /* \"#utility.yul\":2942:2981   */\n      tag_173\n        /* \"#utility.yul\":2975:2980   */\n      dup3\n        /* \"#utility.yul\":2942:2981   */\n      tag_174\n      jump\t// in\n    tag_173:\n        /* \"#utility.yul\":2997:3068   */\n      tag_175\n        /* \"#utility.yul\":3061:3067   */\n      dup2\n        /* \"#utility.yul\":3056:3059   */\n      dup6\n        /* \"#utility.yul\":2997:3068   */\n      tag_176\n      jump\t// in\n    tag_175:\n        /* \"#utility.yul\":2990:3068   */\n      swap4\n      pop\n        /* \"#utility.yul\":3077:3129   */\n      tag_177\n        /* \"#utility.yul\":3122:3128   */\n      dup2\n        /* \"#utility.yul\":3117:3120   */\n      dup6\n        /* \"#utility.yul\":3110:3114   */\n      0x20\n        /* \"#utility.yul\":3103:3108   */\n      dup7\n        /* \"#utility.yul\":3099:3115   */\n      add\n        /* \"#utility.yul\":3077:3129   */\n      tag_178\n      jump\t// in\n    tag_177:\n        /* \"#utility.yul\":3154:3183   */\n      tag_179\n        /* \"#utility.yul\":3176:3182   */\n      dup2\n        /* \"#utility.yul\":3154:3183   */\n      tag_180\n      jump\t// in\n    tag_179:\n        /* \"#utility.yul\":3149:3152   */\n      dup5\n        /* \"#utility.yul\":3145:3184   */\n      add\n        /* \"#utility.yul\":3138:3184   */\n      swap2\n      pop\n        /* \"#utility.yul\":2918:3190   */\n      pop\n        /* \"#utility.yul\":2826:3190   */\n      swap3\n      swap2\n      pop\n      pop\n      jump\t// out\n        /* \"#utility.yul\":3196:3562   */\n    tag_181:\n        /* \"#utility.yul\":3338:3341   */\n      0x00\n        /* \"#utility.yul\":3359:3426   */\n      tag_183\n        /* \"#utility.yul\":3423:3425   */\n      0x1d\n        /* \"#utility.yul\":3418:3421   */\n      dup4\n        /* \"#utility.yul\":3359:3426   */\n      tag_176\n      jump\t// in\n    tag_183:\n        /* \"#utility.yul\":3352:3426   */\n      swap2\n      pop\n        /* \"#utility.yul\":3435:3528   */\n      tag_184\n        /* \"#utility.yul\":3524:3527   */\n      dup3\n        /* \"#utility.yul\":3435:3528   */\n      tag_185\n      jump\t// in\n    tag_184:\n        /* \"#utility.yul\":3553:3555   */\n      0x20\n        /* \"#utility.yul\":3548:3551   */\n      dup3\n        /* \"#utility.yul\":3544:3556   */\n      add\n        /* \"#utility.yul\":3537:3556   */\n      swap1\n      pop\n        /* \"#utility.yul\":3196:3562   */\n      swap2\n      swap1\n      pop\n      jump\t// out\n        /* \"#utility.yul\":3568:3686   */\n    tag_186:\n        /* \"#utility.yul\":3655:3679   */\n      tag_188\n        /* \"#utility.yul\":3673:3678   */\n      dup2\n        /* \"#utility.yul\":3655:3679   */\n      tag_189\n      jump\t// in\n    tag_188:\n        /* \"#utility.yul\":3650:3653   */\n      dup3\n        /* \"#utility.yul\":3643:3680   */\n      mstore\n        /* \"#utility.yul\":3568:3686   */\n      pop\n      pop\n      jump\t// out\n        /* \"#utility.yul\":3692:3914   */\n    tag_35:\n        /* \"#utility.yul\":3785:3789   */\n      0x00\n        /* \"#utility.yul\":3823:3825   */\n      0x20\n        /* \"#utility.yul\":3812:3821   */\n      dup3\n        /* \"#utility.yul\":3808:3826   */\n      add\n        /* \"#utility.yul\":3800:3826   */\n      swap1\n      pop\n        /* \"#utility.yul\":3836:3907   */\n      tag_191\n        /* \"#utility.yul\":3904:3905   */\n      0x00\n        /* \"#utility.yul\":3893:3902   */\n      dup4\n        /* \"#utility.yul\":3889:3906   */\n      add\n        /* \"#utility.yul\":3880:3886   */\n      dup5\n        /* \"#utility.yul\":3836:3907   */\n      tag_163\n      jump\t// in\n    tag_191:\n        /* \"#utility.yul\":3692:3914   */\n      swap3\n      swap2\n      pop\n      pop\n      jump\t// out\n        /* \"#utility.yul\":3920:4174   */\n    tag_27:\n        /* \"#utility.yul\":4029:4033   */\n      0x00\n        /* \"#utility.yul\":4067:4069   */\n      0x20\n        /* \"#utility.yul\":4056:4065   */\n      dup3\n        /* \"#utility.yul\":4052:4070   */\n      add\n        /* \"#utility.yul\":4044:4070   */\n      swap1\n      pop\n        /* \"#utility.yul\":4080:4167   */\n      tag_193\n        /* \"#utility.yul\":4164:4165   */\n      0x00\n        /* \"#utility.yul\":4153:4162   */\n      dup4\n        /* \"#utility.yul\":4149:4166   */\n      add\n        /* \"#utility.yul\":4140:4146   */\n      dup5\n        /* \"#utility.yul\":4080:4167   */\n      tag_159\n      jump\t// in\n    tag_193:\n        /* \"#utility.yul\":3920:4174   */\n      swap3\n      swap2\n      pop\n      pop\n      jump\t// out\n        /* \"#utility.yul\":4180:4424   */\n    tag_21:\n        /* \"#utility.yul\":4284:4288   */\n      0x00\n        /* \"#utility.yul\":4322:4324   */\n      0x20\n        /* \"#utility.yul\":4311:4320   */\n      dup3\n        /* \"#utility.yul\":4307:4325   */\n      add\n        /* \"#utility.yul\":4299:4325   */\n      swap1\n      pop\n        /* \"#utility.yul\":4335:4417   */\n      tag_195\n        /* \"#utility.yul\":4414:4415   */\n      0x00\n        /* \"#utility.yul\":4403:4412   */\n      dup4\n        /* \"#utility.yul\":4399:4416   */\n      add\n        /* \"#utility.yul\":4390:4396   */\n      dup5\n        /* \"#utility.yul\":4335:4417   */\n      tag_167\n      jump\t// in\n    tag_195:\n        /* \"#utility.yul\":4180:4424   */\n      swap3\n      swap2\n      pop\n      pop\n      jump\t// out\n        /* \"#utility.yul\":4430:5367   */\n    tag_47:\n        /* \"#utility.yul\":4695:4699   */\n      0x00\n        /* \"#utility.yul\":4733:4736   */\n      0xa0\n        /* \"#utility.yul\":4722:4731   */\n      dup3\n        /* \"#utility.yul\":4718:4737   */\n      add\n        /* \"#utility.yul\":4710:4737   */\n      swap1\n      pop\n        /* \"#utility.yul\":4783:4792   */\n      dup2\n        /* \"#utility.yul\":4777:4781   */\n      dup2\n        /* \"#utility.yul\":4773:4793   */\n      sub\n        /* \"#utility.yul\":4769:4770   */\n      0x00\n        /* \"#utility.yul\":4758:4767   */\n      dup4\n        /* \"#utility.yul\":4754:4771   */\n      add\n        /* \"#utility.yul\":4747:4794   */\n      mstore\n        /* \"#utility.yul\":4811:4889   */\n      tag_197\n        /* \"#utility.yul\":4884:4888   */\n      dup2\n        /* \"#utility.yul\":4875:4881   */\n      dup9\n        /* \"#utility.yul\":4811:4889   */\n      tag_171\n      jump\t// in\n    tag_197:\n        /* \"#utility.yul\":4803:4889   */\n      swap1\n      pop\n        /* \"#utility.yul\":4936:4945   */\n      dup2\n        /* \"#utility.yul\":4930:4934   */\n      dup2\n        /* \"#utility.yul\":4926:4946   */\n      sub\n        /* \"#utility.yul\":4921:4923   */\n      0x20\n        /* \"#utility.yul\":4910:4919   */\n      dup4\n        /* \"#utility.yul\":4906:4924   */\n      add\n        /* \"#utility.yul\":4899:4947   */\n      mstore\n        /* \"#utility.yul\":4964:5042   */\n      tag_198\n        /* \"#utility.yul\":5037:5041   */\n      dup2\n        /* \"#utility.yul\":5028:5034   */\n      dup8\n        /* \"#utility.yul\":4964:5042   */\n      tag_171\n      jump\t// in\n    tag_198:\n        /* \"#utility.yul\":4956:5042   */\n      swap1\n      pop\n        /* \"#utility.yul\":5052:5124   */\n      tag_199\n        /* \"#utility.yul\":5120:5122   */\n      0x40\n        /* \"#utility.yul\":5109:5118   */\n      dup4\n        /* \"#utility.yul\":5105:5123   */\n      add\n        /* \"#utility.yul\":5096:5102   */\n      dup7\n        /* \"#utility.yul\":5052:5124   */\n      tag_186\n      jump\t// in\n    tag_199:\n        /* \"#utility.yul\":5171:5180   */\n      dup2\n        /* \"#utility.yul\":5165:5169   */\n      dup2\n        /* \"#utility.yul\":5161:5181   */\n      sub\n        /* \"#utility.yul\":5156:5158   */\n      0x60\n        /* \"#utility.yul\":5145:5154   */\n      dup4\n        /* \"#utility.yul\":5141:5159   */\n      add\n        /* \"#utility.yul\":5134:5182   */\n      mstore\n        /* \"#utility.yul\":5199:5277   */\n      tag_200\n        /* \"#utility.yul\":5272:5276   */\n      dup2\n        /* \"#utility.yul\":5263:5269   */\n      dup6\n        /* \"#utility.yul\":5199:5277   */\n      tag_171\n      jump\t// in\n    tag_200:\n        /* \"#utility.yul\":5191:5277   */\n      swap1\n      pop\n        /* \"#utility.yul\":5287:5360   */\n      tag_201\n        /* \"#utility.yul\":5355:5358   */\n      0x80\n        /* \"#utility.yul\":5344:5353   */\n      dup4\n        /* \"#utility.yul\":5340:5359   */\n      add\n        /* \"#utility.yul\":5331:5337   */\n      dup5\n        /* \"#utility.yul\":5287:5360   */\n      tag_186\n      jump\t// in\n    tag_201:\n        /* \"#utility.yul\":4430:5367   */\n      swap7\n      swap6\n      pop\n      pop\n      pop\n      pop\n      pop\n      pop\n      jump\t// out\n        /* \"#utility.yul\":5373:5792   */\n    tag_51:\n        /* \"#utility.yul\":5539:5543   */\n      0x00\n        /* \"#utility.yul\":5577:5579   */\n      0x20\n        /* \"#utility.yul\":5566:5575   */\n      dup3\n        /* \"#utility.yul\":5562:5580   */\n      add\n        /* \"#utility.yul\":5554:5580   */\n      swap1\n      pop\n        /* \"#utility.yul\":5626:5635   */\n      dup2\n        /* \"#utility.yul\":5620:5624   */\n      dup2\n        /* \"#utility.yul\":5616:5636   */\n      sub\n        /* \"#utility.yul\":5612:5613   */\n      0x00\n        /* \"#utility.yul\":5601:5610   */\n      dup4\n        /* \"#utility.yul\":5597:5614   */\n      add\n        /* \"#utility.yul\":5590:5637   */\n      mstore\n        /* \"#utility.yul\":5654:5785   */\n      tag_203\n        /* \"#utility.yul\":5780:5784   */\n      dup2\n        /* \"#utility.yul\":5654:5785   */\n      tag_181\n      jump\t// in\n    tag_203:\n        /* \"#utility.yul\":5646:5785   */\n      swap1\n      pop\n        /* \"#utility.yul\":5373:5792   */\n      swap2\n      swap1\n      pop\n      jump\t// out\n        /* \"#utility.yul\":5798:6240   */\n    tag_39:\n        /* \"#utility.yul\":5947:5951   */\n      0x00\n        /* \"#utility.yul\":5985:5987   */\n      0x60\n        /* \"#utility.yul\":5974:5983   */\n      dup3\n        /* \"#utility.yul\":5970:5988   */\n      add\n        /* \"#utility.yul\":5962:5988   */\n      swap1\n      pop\n        /* \"#utility.yul\":5998:6069   */\n      tag_205\n        /* \"#utility.yul\":6066:6067   */\n      0x00\n        /* \"#utility.yul\":6055:6064   */\n      dup4\n        /* \"#utility.yul\":6051:6068   */\n      add\n        /* \"#utility.yul\":6042:6048   */\n      dup7\n        /* \"#utility.yul\":5998:6069   */\n      tag_186\n      jump\t// in\n    tag_205:\n        /* \"#utility.yul\":6079:6151   */\n      tag_206\n        /* \"#utility.yul\":6147:6149   */\n      0x20\n        /* \"#utility.yul\":6136:6145   */\n      dup4\n        /* \"#utility.yul\":6132:6150   */\n      add\n        /* \"#utility.yul\":6123:6129   */\n      dup6\n        /* \"#utility.yul\":6079:6151   */\n      tag_186\n      jump\t// in\n    tag_206:\n        /* \"#utility.yul\":6161:6233   */\n      tag_207\n        /* \"#utility.yul\":6229:6231   */\n      0x40\n        /* \"#utility.yul\":6218:6227   */\n      dup4\n        /* \"#utility.yul\":6214:6232   */\n      add\n        /* \"#utility.yul\":6205:6211   */\n      dup5\n        /* \"#utility.yul\":6161:6233   */\n      tag_163\n      jump\t// in\n    tag_207:\n        /* \"#utility.yul\":5798:6240   */\n      swap5\n      swap4\n      pop\n      pop\n      pop\n      pop\n      jump\t// out\n        /* \"#utility.yul\":6246:6375   */\n    tag_123:\n        /* \"#utility.yul\":6280:6286   */\n      0x00\n        /* \"#utility.yul\":6307:6327   */\n      tag_209\n      tag_210\n      jump\t// in\n    tag_209:\n        /* \"#utility.yul\":6297:6327   */\n      swap1\n      pop\n        /* \"#utility.yul\":6336:6369   */\n      tag_211\n        /* \"#utility.yul\":6364:6368   */\n      dup3\n        /* \"#utility.yul\":6356:6362   */\n      dup3\n        /* \"#utility.yul\":6336:6369   */\n      tag_212\n      jump\t// in\n    tag_211:\n        /* \"#utility.yul\":6246:6375   */\n      swap2\n      swap1\n      pop\n      jump\t// out\n        /* \"#utility.yul\":6381:6456   */\n    tag_210:\n        /* \"#utility.yul\":6414:6420   */\n      0x00\n        /* \"#utility.yul\":6447:6449   */\n      0x40\n        /* \"#utility.yul\":6441:6450   */\n      mload\n        /* \"#utility.yul\":6431:6450   */\n      swap1\n      pop\n        /* \"#utility.yul\":6381:6456   */\n      swap1\n      jump\t// out\n        /* \"#utility.yul\":6462:6770   */\n    tag_122:\n        /* \"#utility.yul\":6524:6528   */\n      0x00\n        /* \"#utility.yul\":6614:6632   */\n      0xffffffffffffffff\n        /* \"#utility.yul\":6606:6612   */\n      dup3\n        /* \"#utility.yul\":6603:6633   */\n      gt\n        /* \"#utility.yul\":6600:6656   */\n      iszero\n      tag_215\n      jumpi\n        /* \"#utility.yul\":6636:6654   */\n      tag_216\n      tag_217\n      jump\t// in\n    tag_216:\n        /* \"#utility.yul\":6600:6656   */\n    tag_215:\n        /* \"#utility.yul\":6674:6703   */\n      tag_218\n        /* \"#utility.yul\":6696:6702   */\n      dup3\n        /* \"#utility.yul\":6674:6703   */\n      tag_180\n      jump\t// in\n    tag_218:\n        /* \"#utility.yul\":6666:6703   */\n      swap1\n      pop\n        /* \"#utility.yul\":6758:6762   */\n      0x20\n        /* \"#utility.yul\":6752:6756   */\n      dup2\n        /* \"#utility.yul\":6748:6763   */\n      add\n        /* \"#utility.yul\":6740:6763   */\n      swap1\n      pop\n        /* \"#utility.yul\":6462:6770   */\n      swap2\n      swap1\n      pop\n      jump\t// out\n        /* \"#utility.yul\":6776:6875   */\n    tag_174:\n        /* \"#utility.yul\":6828:6834   */\n      0x00\n        /* \"#utility.yul\":6862:6867   */\n      dup2\n        /* \"#utility.yul\":6856:6868   */\n      mload\n        /* \"#utility.yul\":6846:6868   */\n      swap1\n      pop\n        /* \"#utility.yul\":6776:6875   */\n      swap2\n      swap1\n      pop\n      jump\t// out\n        /* \"#utility.yul\":6881:7050   */\n    tag_176:\n        /* \"#utility.yul\":6965:6976   */\n      0x00\n        /* \"#utility.yul\":6999:7005   */\n      dup3\n        /* \"#utility.yul\":6994:6997   */\n      dup3\n        /* \"#utility.yul\":6987:7006   */\n      mstore\n        /* \"#utility.yul\":7039:7043   */\n      0x20\n        /* \"#utility.yul\":7034:7037   */\n      dup3\n        /* \"#utility.yul\":7030:7044   */\n      add\n        /* \"#utility.yul\":7015:7044   */\n      swap1\n      pop\n        /* \"#utility.yul\":6881:7050   */\n      swap3\n      swap2\n      pop\n      pop\n      jump\t// out\n        /* \"#utility.yul\":7056:7404   */\n    tag_74:\n        /* \"#utility.yul\":7096:7103   */\n      0x00\n        /* \"#utility.yul\":7119:7139   */\n      tag_222\n        /* \"#utility.yul\":7137:7138   */\n      dup3\n        /* \"#utility.yul\":7119:7139   */\n      tag_189\n      jump\t// in\n    tag_222:\n        /* \"#utility.yul\":7114:7139   */\n      swap2\n      pop\n        /* \"#utility.yul\":7153:7173   */\n      tag_223\n        /* \"#utility.yul\":7171:7172   */\n      dup4\n        /* \"#utility.yul\":7153:7173   */\n      tag_189\n      jump\t// in\n    tag_223:\n        /* \"#utility.yul\":7148:7173   */\n      swap3\n      pop\n        /* \"#utility.yul\":7341:7342   */\n      dup2\n        /* \"#utility.yul\":7273:7339   */\n      0xffffffffffffffffffffffffffffffffffffffffffffffffffffffffffffffff\n        /* \"#utility.yul\":7269:7343   */\n      div\n        /* \"#utility.yul\":7266:7267   */\n      dup4\n        /* \"#utility.yul\":7263:7344   */\n      gt\n        /* \"#utility.yul\":7258:7259   */\n      dup3\n        /* \"#utility.yul\":7251:7260   */\n      iszero\n        /* \"#utility.yul\":7244:7261   */\n      iszero\n        /* \"#utility.yul\":7240:7345   */\n      and\n        /* \"#utility.yul\":7237:7368   */\n      iszero\n      tag_224\n      jumpi\n        /* \"#utility.yul\":7348:7366   */\n      tag_225\n      tag_226\n      jump\t// in\n    tag_225:\n        /* \"#utility.yul\":7237:7368   */\n    tag_224:\n        /* \"#utility.yul\":7396:7397   */\n      dup3\n        /* \"#utility.yul\":7393:7394   */\n      dup3\n        /* \"#utility.yul\":7389:7398   */\n      mul\n        /* \"#utility.yul\":7378:7398   */\n      swap1\n      pop\n        /* \"#utility.yul\":7056:7404   */\n      swap3\n      swap2\n      pop\n      pop\n      jump\t// out\n        /* \"#utility.yul\":7410:7506   */\n    tag_166:\n        /* \"#utility.yul\":7447:7454   */\n      0x00\n        /* \"#utility.yul\":7476:7500   */\n      tag_228\n        /* \"#utility.yul\":7494:7499   */\n      dup3\n        /* \"#utility.yul\":7476:7500   */\n      tag_229\n      jump\t// in\n    tag_228:\n        /* \"#utility.yul\":7465:7500   */\n      swap1\n      pop\n        /* \"#utility.yul\":7410:7506   */\n      swap2\n      swap1\n      pop\n      jump\t// out\n        /* \"#utility.yul\":7512:7616   */\n    tag_162:\n        /* \"#utility.yul\":7557:7564   */\n      0x00\n        /* \"#utility.yul\":7586:7610   */\n      tag_231\n        /* \"#utility.yul\":7604:7609   */\n      dup3\n        /* \"#utility.yul\":7586:7610   */\n      tag_229\n      jump\t// in\n    tag_231:\n        /* \"#utility.yul\":7575:7610   */\n      swap1\n      pop\n        /* \"#utility.yul\":7512:7616   */\n      swap2\n      swap1\n      pop\n      jump\t// out\n        /* \"#utility.yul\":7622:7759   */\n    tag_232:\n        /* \"#utility.yul\":7672:7679   */\n      0x00\n        /* \"#utility.yul\":7701:7706   */\n      dup2\n        /* \"#utility.yul\":7690:7706   */\n      swap1\n      pop\n        /* \"#utility.yul\":7707:7753   */\n      tag_234\n        /* \"#utility.yul\":7747:7752   */\n      dup3\n        /* \"#utility.yul\":7707:7753   */\n      tag_235\n      jump\t// in\n    tag_234:\n        /* \"#utility.yul\":7622:7759   */\n      swap2\n      swap1\n      pop\n      jump\t// out\n        /* \"#utility.yul\":7765:7891   */\n    tag_229:\n        /* \"#utility.yul\":7802:7809   */\n      0x00\n        /* \"#utility.yul\":7842:7884   */\n      0xffffffffffffffffffffffffffffffffffffffff\n        /* \"#utility.yul\":7835:7840   */\n      dup3\n        /* \"#utility.yul\":7831:7885   */\n      and\n        /* \"#utility.yul\":7820:7885   */\n      swap1\n      pop\n        /* \"#utility.yul\":7765:7891   */\n      swap2\n      swap1\n      pop\n      jump\t// out\n        /* \"#utility.yul\":7897:7974   */\n    tag_189:\n        /* \"#utility.yul\":7934:7941   */\n      0x00\n        /* \"#utility.yul\":7963:7968   */\n      dup2\n        /* \"#utility.yul\":7952:7968   */\n      swap1\n      pop\n        /* \"#utility.yul\":7897:7974   */\n      swap2\n      swap1\n      pop\n      jump\t// out\n        /* \"#utility.yul\":7980:8117   */\n    tag_170:\n        /* \"#utility.yul\":8041:8050   */\n      0x00\n        /* \"#utility.yul\":8074:8111   */\n      tag_239\n        /* \"#utility.yul\":8105:8110   */\n      dup3\n        /* \"#utility.yul\":8074:8111   */\n      tag_232\n      jump\t// in\n    tag_239:\n        /* \"#utility.yul\":8061:8111   */\n      swap1\n      pop\n        /* \"#utility.yul\":7980:8117   */\n      swap2\n      swap1\n      pop\n      jump\t// out\n        /* \"#utility.yul\":8123:8277   */\n    tag_128:\n        /* \"#utility.yul\":8207:8213   */\n      dup3\n        /* \"#utility.yul\":8202:8205   */\n      dup2\n        /* \"#utility.yul\":8197:8200   */\n      dup4\n        /* \"#utility.yul\":8184:8214   */\n      calldatacopy\n        /* \"#utility.yul\":8269:8270   */\n      0x00\n        /* \"#utility.yul\":8260:8266   */\n      dup4\n        /* \"#utility.yul\":8255:8258   */\n      dup4\n        /* \"#utility.yul\":8251:8267   */\n      add\n        /* \"#utility.yul\":8244:8271   */\n      mstore\n        /* \"#utility.yul\":8123:8277   */\n      pop\n      pop\n      pop\n      jump\t// out\n        /* \"#utility.yul\":8283:8590   */\n    tag_178:\n        /* \"#utility.yul\":8351:8352   */\n      0x00\n        /* \"#utility.yul\":8361:8474   */\n    tag_242:\n        /* \"#utility.yul\":8375:8381   */\n      dup4\n        /* \"#utility.yul\":8372:8373   */\n      dup2\n        /* \"#utility.yul\":8369:8382   */\n      lt\n        /* \"#utility.yul\":8361:8474   */\n      iszero\n      tag_244\n      jumpi\n        /* \"#utility.yul\":8460:8461   */\n      dup1\n        /* \"#utility.yul\":8455:8458   */\n      dup3\n        /* \"#utility.yul\":8451:8462   */\n      add\n        /* \"#utility.yul\":8445:8463   */\n      mload\n        /* \"#utility.yul\":8441:8442   */\n      dup2\n        /* \"#utility.yul\":8436:8439   */\n      dup5\n        /* \"#utility.yul\":8432:8443   */\n      add\n        /* \"#utility.yul\":8425:8464   */\n      mstore\n        /* \"#utility.yul\":8397:8399   */\n      0x20\n        /* \"#utility.yul\":8394:8395   */\n      dup2\n        /* \"#utility.yul\":8390:8400   */\n      add\n        /* \"#utility.yul\":8385:8400   */\n      swap1\n      pop\n        /* \"#utility.yul\":8361:8474   */\n      jump(tag_242)\n    tag_244:\n        /* \"#utility.yul\":8492:8498   */\n      dup4\n        /* \"#utility.yul\":8489:8490   */\n      dup2\n        /* \"#utility.yul\":8486:8499   */\n      gt\n        /* \"#utility.yul\":8483:8584   */\n      iszero\n      tag_245\n      jumpi\n        /* \"#utility.yul\":8572:8573   */\n      0x00\n        /* \"#utility.yul\":8563:8569   */\n      dup5\n        /* \"#utility.yul\":8558:8561   */\n      dup5\n        /* \"#utility.yul\":8554:8570   */\n      add\n        /* \"#utility.yul\":8547:8574   */\n      mstore\n        /* \"#utility.yul\":8483:8584   */\n    tag_245:\n        /* \"#utility.yul\":8332:8590   */\n      pop\n        /* \"#utility.yul\":8283:8590   */\n      pop\n      pop\n      pop\n      jump\t// out\n        /* \"#utility.yul\":8596:8916   */\n    tag_53:\n        /* \"#utility.yul\":8640:8646   */\n      0x00\n        /* \"#utility.yul\":8677:8678   */\n      0x02\n        /* \"#utility.yul\":8671:8675   */\n      dup3\n        /* \"#utility.yul\":8667:8679   */\n      div\n        /* \"#utility.yul\":8657:8679   */\n      swap1\n      pop\n        /* \"#utility.yul\":8724:8725   */\n      0x01\n        /* \"#utility.yul\":8718:8722   */\n      dup3\n        /* \"#utility.yul\":8714:8726   */\n      and\n        /* \"#utility.yul\":8745:8763   */\n      dup1\n        /* \"#utility.yul\":8735:8816   */\n      tag_247\n      jumpi\n        /* \"#utility.yul\":8801:8805   */\n      0x7f\n        /* \"#utility.yul\":8793:8799   */\n      dup3\n        /* \"#utility.yul\":8789:8806   */\n      and\n        /* \"#utility.yul\":8779:8806   */\n      swap2\n      pop\n        /* \"#utility.yul\":8735:8816   */\n    tag_247:\n        /* \"#utility.yul\":8863:8865   */\n      0x20\n        /* \"#utility.yul\":8855:8861   */\n      dup3\n        /* \"#utility.yul\":8852:8866   */\n      lt\n        /* \"#utility.yul\":8832:8850   */\n      dup2\n        /* \"#utility.yul\":8829:8867   */\n      eq\n        /* \"#utility.yul\":8826:8910   */\n      iszero\n      tag_248\n      jumpi\n        /* \"#utility.yul\":8882:8900   */\n      tag_249\n      tag_250\n      jump\t// in\n    tag_249:\n        /* \"#utility.yul\":8826:8910   */\n    tag_248:\n        /* \"#utility.yul\":8647:8916   */\n      pop\n        /* \"#utility.yul\":8596:8916   */\n      swap2\n      swap1\n      pop\n      jump\t// out\n        /* \"#utility.yul\":8922:9203   */\n    tag_212:\n        /* \"#utility.yul\":9005:9032   */\n      tag_252\n        /* \"#utility.yul\":9027:9031   */\n      dup3\n        /* \"#utility.yul\":9005:9032   */\n      tag_180\n      jump\t// in\n    tag_252:\n        /* \"#utility.yul\":8997:9003   */\n      dup2\n        /* \"#utility.yul\":8993:9033   */\n      add\n        /* \"#utility.yul\":9135:9141   */\n      dup2\n        /* \"#utility.yul\":9123:9133   */\n      dup2\n        /* \"#utility.yul\":9120:9142   */\n      lt\n        /* \"#utility.yul\":9099:9117   */\n      0xffffffffffffffff\n        /* \"#utility.yul\":9087:9097   */\n      dup3\n        /* \"#utility.yul\":9084:9118   */\n      gt\n        /* \"#utility.yul\":9081:9143   */\n      or\n        /* \"#utility.yul\":9078:9166   */\n      iszero\n      tag_253\n      jumpi\n        /* \"#utility.yul\":9146:9164   */\n      tag_254\n      tag_217\n      jump\t// in\n    tag_254:\n        /* \"#utility.yul\":9078:9166   */\n    tag_253:\n        /* \"#utility.yul\":9186:9196   */\n      dup1\n        /* \"#utility.yul\":9182:9184   */\n      0x40\n        /* \"#utility.yul\":9175:9197   */\n      mstore\n        /* \"#utility.yul\":8965:9203   */\n      pop\n        /* \"#utility.yul\":8922:9203   */\n      pop\n      pop\n      jump\t// out\n        /* \"#utility.yul\":9209:9389   */\n    tag_226:\n        /* \"#utility.yul\":9257:9334   */\n      0x4e487b7100000000000000000000000000000000000000000000000000000000\n        /* \"#utility.yul\":9254:9255   */\n      0x00\n        /* \"#utility.yul\":9247:9335   */\n      mstore\n        /* \"#utility.yul\":9354:9358   */\n      0x11\n        /* \"#utility.yul\":9351:9352   */\n      0x04\n        /* \"#utility.yul\":9344:9359   */\n      mstore\n        /* \"#utility.yul\":9378:9382   */\n      0x24\n        /* \"#utility.yul\":9375:9376   */\n      0x00\n        /* \"#utility.yul\":9368:9383   */\n      revert\n        /* \"#utility.yul\":9395:9575   */\n    tag_68:\n        /* \"#utility.yul\":9443:9520   */\n      0x4e487b7100000000000000000000000000000000000000000000000000000000\n        /* \"#utility.yul\":9440:9441   */\n      0x00\n        /* \"#utility.yul\":9433:9521   */\n      mstore\n        /* \"#utility.yul\":9540:9544   */\n      0x21\n        /* \"#utility.yul\":9537:9538   */\n      0x04\n        /* \"#utility.yul\":9530:9545   */\n      mstore\n        /* \"#utility.yul\":9564:9568   */\n      0x24\n        /* \"#utility.yul\":9561:9562   */\n      0x00\n        /* \"#utility.yul\":9554:9569   */\n      revert\n        /* \"#utility.yul\":9581:9761   */\n    tag_250:\n        /* \"#utility.yul\":9629:9706   */\n      0x4e487b7100000000000000000000000000000000000000000000000000000000\n        /* \"#utility.yul\":9626:9627   */\n      0x00\n        /* \"#utility.yul\":9619:9707   */\n      mstore\n        /* \"#utility.yul\":9726:9730   */\n      0x22\n        /* \"#utility.yul\":9723:9724   */\n      0x04\n        /* \"#utility.yul\":9716:9731   */\n      mstore\n        /* \"#utility.yul\":9750:9754   */\n      0x24\n        /* \"#utility.yul\":9747:9748   */\n      0x00\n        /* \"#utility.yul\":9740:9755   */\n      revert\n        /* \"#utility.yul\":9767:9947   */\n    tag_217:\n        /* \"#utility.yul\":9815:9892   */\n      0x4e487b7100000000000000000000000000000000000000000000000000000000\n        /* \"#utility.yul\":9812:9813   */\n      0x00\n        /* \"#utility.yul\":9805:9893   */\n      mstore\n        /* \"#utility.yul\":9912:9916   */\n      0x41\n        /* \"#utility.yul\":9909:9910   */\n      0x04\n        /* \"#utility.yul\":9902:9917   */\n      mstore\n        /* \"#utility.yul\":9936:9940   */\n      0x24\n        /* \"#utility.yul\":9933:9934   */\n      0x00\n        /* \"#utility.yul\":9926:9941   */\n      revert\n        /* \"#utility.yul\":9953:10070   */\n    tag_137:\n        /* \"#utility.yul\":10062:10063   */\n      0x00\n        /* \"#utility.yul\":10059:10060   */\n      dup1\n        /* \"#utility.yul\":10052:10064   */\n      revert\n        /* \"#utility.yul\":10076:10193   */\n    tag_126:\n        /* \"#utility.yul\":10185:10186   */\n      0x00\n        /* \"#utility.yul\":10182:10183   */\n      dup1\n        /* \"#utility.yul\":10175:10187   */\n      revert\n        /* \"#utility.yul\":10199:10316   */\n    tag_153:\n        /* \"#utility.yul\":10308:10309   */\n      0x00\n        /* \"#utility.yul\":10305:10306   */\n      dup1\n        /* \"#utility.yul\":10298:10310   */\n      revert\n        /* \"#utility.yul\":10322:10439   */\n    tag_146:\n        /* \"#utility.yul\":10431:10432   */\n      0x00\n        /* \"#utility.yul\":10428:10429   */\n      dup1\n        /* \"#utility.yul\":10421:10433   */\n      revert\n        /* \"#utility.yul\":10445:10547   */\n    tag_180:\n        /* \"#utility.yul\":10486:10492   */\n      0x00\n        /* \"#utility.yul\":10537:10539   */\n      0x1f\n        /* \"#utility.yul\":10533:10540   */\n      not\n        /* \"#utility.yul\":10528:10530   */\n      0x1f\n        /* \"#utility.yul\":10521:10526   */\n      dup4\n        /* \"#utility.yul\":10517:10531   */\n      add\n        /* \"#utility.yul\":10513:10541   */\n      and\n        /* \"#utility.yul\":10503:10541   */\n      swap1\n      pop\n        /* \"#utility.yul\":10445:10547   */\n      swap2\n      swap1\n      pop\n      jump\t// out\n        /* \"#utility.yul\":10553:10732   */\n    tag_185:\n        /* \"#utility.yul\":10693:10724   */\n      0x706c656173652073656c6563742074686520636c617373206669727374000000\n        /* \"#utility.yul\":10689:10690   */\n      0x00\n        /* \"#utility.yul\":10681:10687   */\n      dup3\n        /* \"#utility.yul\":10677:10691   */\n      add\n        /* \"#utility.yul\":10670:10725   */\n      mstore\n        /* \"#utility.yul\":10553:10732   */\n      pop\n      jump\t// out\n        /* \"#utility.yul\":10738:10856   */\n    tag_235:\n        /* \"#utility.yul\":10824:10825   */\n      0x03\n        /* \"#utility.yul\":10817:10822   */\n      dup2\n        /* \"#utility.yul\":10814:10826   */\n      lt\n        /* \"#utility.yul\":10804:10850   */\n      tag_266\n      jumpi\n        /* \"#utility.yul\":10830:10848   */\n      tag_267\n      tag_68\n      jump\t// in\n    tag_267:\n        /* \"#utility.yul\":10804:10850   */\n    tag_266:\n        /* \"#utility.yul\":10738:10856   */\n      pop\n      jump\t// out\n        /* \"#utility.yul\":10862:10984   */\n    tag_132:\n        /* \"#utility.yul\":10935:10959   */\n      tag_269\n        /* \"#utility.yul\":10953:10958   */\n      dup2\n        /* \"#utility.yul\":10935:10959   */\n      tag_166\n      jump\t// in\n    tag_269:\n        /* \"#utility.yul\":10928:10933   */\n      dup2\n        /* \"#utility.yul\":10925:10960   */\n      eq\n        /* \"#utility.yul\":10915:10978   */\n      tag_270\n      jumpi\n        /* \"#utility.yul\":10974:10975   */\n      0x00\n        /* \"#utility.yul\":10971:10972   */\n      dup1\n        /* \"#utility.yul\":10964:10976   */\n      revert\n        /* \"#utility.yul\":10915:10978   */\n    tag_270:\n        /* \"#utility.yul\":10862:10984   */\n      pop\n      jump\t// out\n        /* \"#utility.yul\":10990:11112   */\n    tag_142:\n        /* \"#utility.yul\":11063:11087   */\n      tag_272\n        /* \"#utility.yul\":11081:11086   */\n      dup2\n        /* \"#utility.yul\":11063:11087   */\n      tag_189\n      jump\t// in\n    tag_272:\n        /* \"#utility.yul\":11056:11061   */\n      dup2\n        /* \"#utility.yul\":11053:11088   */\n      eq\n        /* \"#utility.yul\":11043:11106   */\n      tag_273\n      jumpi\n        /* \"#utility.yul\":11102:11103   */\n      0x00\n        /* \"#utility.yul\":11099:11100   */\n      dup1\n        /* \"#utility.yul\":11092:11104   */\n      revert\n        /* \"#utility.yul\":11043:11106   */\n    tag_273:\n        /* \"#utility.yul\":10990:11112   */\n      pop\n      jump\t// out\n\n    auxdata: 0xa264697066735822122000d533f80e643bb459b4ec359ffe09738b97432f4819ad9eaa33adac677c1c2064736f6c63430008070033\n}\n",
				"bytecode": {
					"linkReferences": {},
					"object": "60806040526000600160146101000a81548160ff0219169083151502179055506040518060400160405280600d81526020017f45636f6e6f6d7920436c61737300000000000000000000000000000000000000815250600390805190602001906200006c92919062000149565b5060016005556001600760006101000a81548160ff021916908360028111156200009b576200009a6200022f565b5b0217905550348015620000ad57600080fd5b5073dd870fa1b7c4700f2bd7f44238821c26f73921486000806101000a81548173ffffffffffffffffffffffffffffffffffffffff021916908373ffffffffffffffffffffffffffffffffffffffff16021790555033600160006101000a81548173ffffffffffffffffffffffffffffffffffffffff021916908373ffffffffffffffffffffffffffffffffffffffff1602179055506200028d565b8280546200015790620001f9565b90600052602060002090601f0160209004810192826200017b5760008555620001c7565b82601f106200019657805160ff1916838001178555620001c7565b82800160010185558215620001c7579182015b82811115620001c6578251825591602001919060010190620001a9565b5b509050620001d69190620001da565b5090565b5b80821115620001f5576000816000905550600101620001db565b5090565b600060028204905060018216806200021257607f821691505b602082108114156200022957620002286200025e565b5b50919050565b7f4e487b7100000000000000000000000000000000000000000000000000000000600052602160045260246000fd5b7f4e487b7100000000000000000000000000000000000000000000000000000000600052602260045260246000fd5b610f9c806200029d6000396000f3fe608060405234801561001057600080fd5b506004361061009e5760003560e01c80637a1736d1116100665780637a1736d11461010f5780638da5cb5b14610119578063993a04b714610137578063b24fa0e414610157578063b90d3d0c146101615761009e565b806317ae4589146100a35780631aa35610146100bf57806342f6487a146100dd5780634f8632ba146100e75780635018350714610105575b600080fd5b6100bd60048036038101906100b89190610a03565b610195565b005b6100c7610349565b6040516100d49190610b5c565b60405180910390f35b6100e561035c565b005b6100ef6103c9565b6040516100fc9190610b41565b60405180910390f35b61010d6103ef565b005b6101176104d1565b005b6101216105b3565b60405161012e9190610b26565b60405180910390f35b61013f6105d7565b60405161014e93929190610bff565b60405180910390f35b61015f6105ea565b005b61017b600480360381019061017691906109d6565b6106cb565b60405161018c959493929190610b77565b60405180910390f35b600160149054906101000a900460ff166101e4576040517f08c379a00000000000000000000000000000000000000000000000000000000081526004016101db90610bdf565b60405180910390fd5b6040518060a001604052808481526020018381526020018281526020016003805461020e90610db7565b80601f016020809104026020016040519081016040528092919081815260200182805461023a90610db7565b80156102875780601f1061025c57610100808354040283529160200191610287565b820191906000526020600020905b81548152906001019060200180831161026a57829003601f168201915b50505050508152602001600454815250600660003373ffffffffffffffffffffffffffffffffffffffff1673ffffffffffffffffffffffffffffffffffffffff16815260200190815260200160002060008201518160000190805190602001906102f2929190610899565b50602082015181600101908051906020019061030f929190610899565b50604082015181600201556060820151816003019080519060200190610336929190610899565b5060808201518160040155905050505050565b600760009054906101000a900460ff1681565b600160009054906101000a900473ffffffffffffffffffffffffffffffffffffffff1673ffffffffffffffffffffffffffffffffffffffff166108fc6004549081150290604051600060405180830381858888f193505050501580156103c6573d6000803e3d6000fd5b50565b600160009054906101000a900473ffffffffffffffffffffffffffffffffffffffff1681565b6000600760006101000a81548160ff0219169083600281111561041557610414610e49565b5b0217905550600760009054906101000a900460ff16600281111561043c5761043b610e49565b5b600281905550600060025414156104b5576040518060400160405280600b81526020017f466972737420436c61737300000000000000000000000000000000000000000081525060039080519060200190610498929190610899565b50662386f26fc100006005546104ae9190610ca8565b6004819055505b60018060146101000a81548160ff021916908315150217905550565b6001600760006101000a81548160ff021916908360028111156104f7576104f6610e49565b5b0217905550600760009054906101000a900460ff16600281111561051e5761051d610e49565b5b60028190555060016002541415610597576040518060400160405280600d81526020017f45636f6e6f6d7920436c617373000000000000000000000000000000000000008152506003908051906020019061057a929190610899565b506611c37937e080006005546105909190610ca8565b6004819055505b60018060146101000a81548160ff021916908315150217905550565b60008054906101000a900473ffffffffffffffffffffffffffffffffffffffff1681565b6000806000434233925092509250909192565b6002600760006101000a81548160ff021916908360028111156106105761060f610e49565b5b0217905550600760009054906101000a900460ff16600281111561063757610636610e49565b5b6002819055506002805414156106af576040518060400160405280600d81526020017f4275736e69737320436c6173730000000000000000000000000000000000000081525060039080519060200190610692929190610899565b506618de76816d80006005546106a89190610ca8565b6004819055505b60018060146101000a81548160ff021916908315150217905550565b60066020528060005260406000206000915090508060000180546106ee90610db7565b80601f016020809104026020016040519081016040528092919081815260200182805461071a90610db7565b80156107675780601f1061073c57610100808354040283529160200191610767565b820191906000526020600020905b81548152906001019060200180831161074a57829003601f168201915b50505050509080600101805461077c90610db7565b80601f01602080910402602001604051908101604052809291908181526020018280546107a890610db7565b80156107f55780601f106107ca576101008083540402835291602001916107f5565b820191906000526020600020905b8154815290600101906020018083116107d857829003601f168201915b50505050509080600201549080600301805461081090610db7565b80601f016020809104026020016040519081016040528092919081815260200182805461083c90610db7565b80156108895780601f1061085e57610100808354040283529160200191610889565b820191906000526020600020905b81548152906001019060200180831161086c57829003601f168201915b5050505050908060040154905085565b8280546108a590610db7565b90600052602060002090601f0160209004810192826108c7576000855561090e565b82601f106108e057805160ff191683800117855561090e565b8280016001018555821561090e579182015b8281111561090d5782518255916020019190600101906108f2565b5b50905061091b919061091f565b5090565b5b80821115610938576000816000905550600101610920565b5090565b600061094f61094a84610c5b565b610c36565b90508281526020810184848401111561096b5761096a610edb565b5b610976848285610d75565b509392505050565b60008135905061098d81610f38565b92915050565b600082601f8301126109a8576109a7610ed6565b5b81356109b884826020860161093c565b91505092915050565b6000813590506109d081610f4f565b92915050565b6000602082840312156109ec576109eb610ee5565b5b60006109fa8482850161097e565b91505092915050565b600080600060608486031215610a1c57610a1b610ee5565b5b600084013567ffffffffffffffff811115610a3a57610a39610ee0565b5b610a4686828701610993565b935050602084013567ffffffffffffffff811115610a6757610a66610ee0565b5b610a7386828701610993565b9250506040610a84868287016109c1565b9150509250925092565b610a9781610d14565b82525050565b610aa681610d02565b82525050565b610ab581610d63565b82525050565b6000610ac682610c8c565b610ad08185610c97565b9350610ae0818560208601610d84565b610ae981610eea565b840191505092915050565b6000610b01601d83610c97565b9150610b0c82610efb565b602082019050919050565b610b2081610d59565b82525050565b6000602082019050610b3b6000830184610a9d565b92915050565b6000602082019050610b566000830184610a8e565b92915050565b6000602082019050610b716000830184610aac565b92915050565b600060a0820190508181036000830152610b918188610abb565b90508181036020830152610ba58187610abb565b9050610bb46040830186610b17565b8181036060830152610bc68185610abb565b9050610bd56080830184610b17565b9695505050505050565b60006020820190508181036000830152610bf881610af4565b9050919050565b6000606082019050610c146000830186610b17565b610c216020830185610b17565b610c2e6040830184610a9d565b949350505050565b6000610c40610c51565b9050610c4c8282610de9565b919050565b6000604051905090565b600067ffffffffffffffff821115610c7657610c75610ea7565b5b610c7f82610eea565b9050602081019050919050565b600081519050919050565b600082825260208201905092915050565b6000610cb382610d59565b9150610cbe83610d59565b9250817fffffffffffffffffffffffffffffffffffffffffffffffffffffffffffffffff0483118215151615610cf757610cf6610e1a565b5b828202905092915050565b6000610d0d82610d39565b9050919050565b6000610d1f82610d39565b9050919050565b6000819050610d3482610f24565b919050565b600073ffffffffffffffffffffffffffffffffffffffff82169050919050565b6000819050919050565b6000610d6e82610d26565b9050919050565b82818337600083830152505050565b60005b83811015610da2578082015181840152602081019050610d87565b83811115610db1576000848401525b50505050565b60006002820490506001821680610dcf57607f821691505b60208210811415610de357610de2610e78565b5b50919050565b610df282610eea565b810181811067ffffffffffffffff82111715610e1157610e10610ea7565b5b80604052505050565b7f4e487b7100000000000000000000000000000000000000000000000000000000600052601160045260246000fd5b7f4e487b7100000000000000000000000000000000000000000000000000000000600052602160045260246000fd5b7f4e487b7100000000000000000000000000000000000000000000000000000000600052602260045260246000fd5b7f4e487b7100000000000000000000000000000000000000000000000000000000600052604160045260246000fd5b600080fd5b600080fd5b600080fd5b600080fd5b6000601f19601f8301169050919050565b7f706c656173652073656c6563742074686520636c617373206669727374000000600082015250565b60038110610f3557610f34610e49565b5b50565b610f4181610d02565b8114610f4c57600080fd5b50565b610f5881610d59565b8114610f6357600080fd5b5056fea264697066735822122000d533f80e643bb459b4ec359ffe09738b97432f4819ad9eaa33adac677c1c2064736f6c63430008070033",
					"opcodes": "PUSH1 0x80 PUSH1 0x40 MSTORE PUSH1 0x0 PUSH1 0x1 PUSH1 0x14 PUSH2 0x100 EXP DUP2 SLOAD DUP2 PUSH1 0xFF MUL NOT AND SWAP1 DUP4 ISZERO ISZERO MUL OR SWAP1 SSTORE POP PUSH1 0x40 MLOAD DUP1 PUSH1 0x40 ADD PUSH1 0x40 MSTORE DUP1 PUSH1 0xD DUP2 MSTORE PUSH1 0x20 ADD PUSH32 0x45636F6E6F6D7920436C61737300000000000000000000000000000000000000 DUP2 MSTORE POP PUSH1 0x3 SWAP1 DUP1 MLOAD SWAP1 PUSH1 0x20 ADD SWAP1 PUSH3 0x6C SWAP3 SWAP2 SWAP1 PUSH3 0x149 JUMP JUMPDEST POP PUSH1 0x1 PUSH1 0x5 SSTORE PUSH1 0x1 PUSH1 0x7 PUSH1 0x0 PUSH2 0x100 EXP DUP2 SLOAD DUP2 PUSH1 0xFF MUL NOT AND SWAP1 DUP4 PUSH1 0x2 DUP2 GT ISZERO PUSH3 0x9B JUMPI PUSH3 0x9A PUSH3 0x22F JUMP JUMPDEST JUMPDEST MUL OR SWAP1 SSTORE POP CALLVALUE DUP1 ISZERO PUSH3 0xAD JUMPI PUSH1 0x0 DUP1 REVERT JUMPDEST POP PUSH20 0xDD870FA1B7C4700F2BD7F44238821C26F7392148 PUSH1 0x0 DUP1 PUSH2 0x100 EXP DUP2 SLOAD DUP2 PUSH20 0xFFFFFFFFFFFFFFFFFFFFFFFFFFFFFFFFFFFFFFFF MUL NOT AND SWAP1 DUP4 PUSH20 0xFFFFFFFFFFFFFFFFFFFFFFFFFFFFFFFFFFFFFFFF AND MUL OR SWAP1 SSTORE POP CALLER PUSH1 0x1 PUSH1 0x0 PUSH2 0x100 EXP DUP2 SLOAD DUP2 PUSH20 0xFFFFFFFFFFFFFFFFFFFFFFFFFFFFFFFFFFFFFFFF MUL NOT AND SWAP1 DUP4 PUSH20 0xFFFFFFFFFFFFFFFFFFFFFFFFFFFFFFFFFFFFFFFF AND MUL OR SWAP1 SSTORE POP PUSH3 0x28D JUMP JUMPDEST DUP3 DUP1 SLOAD PUSH3 0x157 SWAP1 PUSH3 0x1F9 JUMP JUMPDEST SWAP1 PUSH1 0x0 MSTORE PUSH1 0x20 PUSH1 0x0 KECCAK256 SWAP1 PUSH1 0x1F ADD PUSH1 0x20 SWAP1 DIV DUP2 ADD SWAP3 DUP3 PUSH3 0x17B JUMPI PUSH1 0x0 DUP6 SSTORE PUSH3 0x1C7 JUMP JUMPDEST DUP3 PUSH1 0x1F LT PUSH3 0x196 JUMPI DUP1 MLOAD PUSH1 0xFF NOT AND DUP4 DUP1 ADD OR DUP6 SSTORE PUSH3 0x1C7 JUMP JUMPDEST DUP3 DUP1 ADD PUSH1 0x1 ADD DUP6 SSTORE DUP3 ISZERO PUSH3 0x1C7 JUMPI SWAP2 DUP3 ADD JUMPDEST DUP3 DUP2 GT ISZERO PUSH3 0x1C6 JUMPI DUP3 MLOAD DUP3 SSTORE SWAP2 PUSH1 0x20 ADD SWAP2 SWAP1 PUSH1 0x1 ADD SWAP1 PUSH3 0x1A9 JUMP JUMPDEST JUMPDEST POP SWAP1 POP PUSH3 0x1D6 SWAP2 SWAP1 PUSH3 0x1DA JUMP JUMPDEST POP SWAP1 JUMP JUMPDEST JUMPDEST DUP1 DUP3 GT ISZERO PUSH3 0x1F5 JUMPI PUSH1 0x0 DUP2 PUSH1 0x0 SWAP1 SSTORE POP PUSH1 0x1 ADD PUSH3 0x1DB JUMP JUMPDEST POP SWAP1 JUMP JUMPDEST PUSH1 0x0 PUSH1 0x2 DUP3 DIV SWAP1 POP PUSH1 0x1 DUP3 AND DUP1 PUSH3 0x212 JUMPI PUSH1 0x7F DUP3 AND SWAP2 POP JUMPDEST PUSH1 0x20 DUP3 LT DUP2 EQ ISZERO PUSH3 0x229 JUMPI PUSH3 0x228 PUSH3 0x25E JUMP JUMPDEST JUMPDEST POP SWAP2 SWAP1 POP JUMP JUMPDEST PUSH32 0x4E487B7100000000000000000000000000000000000000000000000000000000 PUSH1 0x0 MSTORE PUSH1 0x21 PUSH1 0x4 MSTORE PUSH1 0x24 PUSH1 0x0 REVERT JUMPDEST PUSH32 0x4E487B7100000000000000000000000000000000000000000000000000000000 PUSH1 0x0 MSTORE PUSH1 0x22 PUSH1 0x4 MSTORE PUSH1 0x24 PUSH1 0x0 REVERT JUMPDEST PUSH2 0xF9C DUP1 PUSH3 0x29D PUSH1 0x0 CODECOPY PUSH1 0x0 RETURN INVALID PUSH1 0x80 PUSH1 0x40 MSTORE CALLVALUE DUP1 ISZERO PUSH2 0x10 JUMPI PUSH1 0x0 DUP1 REVERT JUMPDEST POP PUSH1 0x4 CALLDATASIZE LT PUSH2 0x9E JUMPI PUSH1 0x0 CALLDATALOAD PUSH1 0xE0 SHR DUP1 PUSH4 0x7A1736D1 GT PUSH2 0x66 JUMPI DUP1 PUSH4 0x7A1736D1 EQ PUSH2 0x10F JUMPI DUP1 PUSH4 0x8DA5CB5B EQ PUSH2 0x119 JUMPI DUP1 PUSH4 0x993A04B7 EQ PUSH2 0x137 JUMPI DUP1 PUSH4 0xB24FA0E4 EQ PUSH2 0x157 JUMPI DUP1 PUSH4 0xB90D3D0C EQ PUSH2 0x161 JUMPI PUSH2 0x9E JUMP JUMPDEST DUP1 PUSH4 0x17AE4589 EQ PUSH2 0xA3 JUMPI DUP1 PUSH4 0x1AA35610 EQ PUSH2 0xBF JUMPI DUP1 PUSH4 0x42F6487A EQ PUSH2 0xDD JUMPI DUP1 PUSH4 0x4F8632BA EQ PUSH2 0xE7 JUMPI DUP1 PUSH4 0x50183507 EQ PUSH2 0x105 JUMPI JUMPDEST PUSH1 0x0 DUP1 REVERT JUMPDEST PUSH2 0xBD PUSH1 0x4 DUP1 CALLDATASIZE SUB DUP2 ADD SWAP1 PUSH2 0xB8 SWAP2 SWAP1 PUSH2 0xA03 JUMP JUMPDEST PUSH2 0x195 JUMP JUMPDEST STOP JUMPDEST PUSH2 0xC7 PUSH2 0x349 JUMP JUMPDEST PUSH1 0x40 MLOAD PUSH2 0xD4 SWAP2 SWAP1 PUSH2 0xB5C JUMP JUMPDEST PUSH1 0x40 MLOAD DUP1 SWAP2 SUB SWAP1 RETURN JUMPDEST PUSH2 0xE5 PUSH2 0x35C JUMP JUMPDEST STOP JUMPDEST PUSH2 0xEF PUSH2 0x3C9 JUMP JUMPDEST PUSH1 0x40 MLOAD PUSH2 0xFC SWAP2 SWAP1 PUSH2 0xB41 JUMP JUMPDEST PUSH1 0x40 MLOAD DUP1 SWAP2 SUB SWAP1 RETURN JUMPDEST PUSH2 0x10D PUSH2 0x3EF JUMP JUMPDEST STOP JUMPDEST PUSH2 0x117 PUSH2 0x4D1 JUMP JUMPDEST STOP JUMPDEST PUSH2 0x121 PUSH2 0x5B3 JUMP JUMPDEST PUSH1 0x40 MLOAD PUSH2 0x12E SWAP2 SWAP1 PUSH2 0xB26 JUMP JUMPDEST PUSH1 0x40 MLOAD DUP1 SWAP2 SUB SWAP1 RETURN JUMPDEST PUSH2 0x13F PUSH2 0x5D7 JUMP JUMPDEST PUSH1 0x40 MLOAD PUSH2 0x14E SWAP4 SWAP3 SWAP2 SWAP1 PUSH2 0xBFF JUMP JUMPDEST PUSH1 0x40 MLOAD DUP1 SWAP2 SUB SWAP1 RETURN JUMPDEST PUSH2 0x15F PUSH2 0x5EA JUMP JUMPDEST STOP JUMPDEST PUSH2 0x17B PUSH1 0x4 DUP1 CALLDATASIZE SUB DUP2 ADD SWAP1 PUSH2 0x176 SWAP2 SWAP1 PUSH2 0x9D6 JUMP JUMPDEST PUSH2 0x6CB JUMP JUMPDEST PUSH1 0x40 MLOAD PUSH2 0x18C SWAP6 SWAP5 SWAP4 SWAP3 SWAP2 SWAP1 PUSH2 0xB77 JUMP JUMPDEST PUSH1 0x40 MLOAD DUP1 SWAP2 SUB SWAP1 RETURN JUMPDEST PUSH1 0x1 PUSH1 0x14 SWAP1 SLOAD SWAP1 PUSH2 0x100 EXP SWAP1 DIV PUSH1 0xFF AND PUSH2 0x1E4 JUMPI PUSH1 0x40 MLOAD PUSH32 0x8C379A000000000000000000000000000000000000000000000000000000000 DUP2 MSTORE PUSH1 0x4 ADD PUSH2 0x1DB SWAP1 PUSH2 0xBDF JUMP JUMPDEST PUSH1 0x40 MLOAD DUP1 SWAP2 SUB SWAP1 REVERT JUMPDEST PUSH1 0x40 MLOAD DUP1 PUSH1 0xA0 ADD PUSH1 0x40 MSTORE DUP1 DUP5 DUP2 MSTORE PUSH1 0x20 ADD DUP4 DUP2 MSTORE PUSH1 0x20 ADD DUP3 DUP2 MSTORE PUSH1 0x20 ADD PUSH1 0x3 DUP1 SLOAD PUSH2 0x20E SWAP1 PUSH2 0xDB7 JUMP JUMPDEST DUP1 PUSH1 0x1F ADD PUSH1 0x20 DUP1 SWAP2 DIV MUL PUSH1 0x20 ADD PUSH1 0x40 MLOAD SWAP1 DUP2 ADD PUSH1 0x40 MSTORE DUP1 SWAP3 SWAP2 SWAP1 DUP2 DUP2 MSTORE PUSH1 0x20 ADD DUP3 DUP1 SLOAD PUSH2 0x23A SWAP1 PUSH2 0xDB7 JUMP JUMPDEST DUP1 ISZERO PUSH2 0x287 JUMPI DUP1 PUSH1 0x1F LT PUSH2 0x25C JUMPI PUSH2 0x100 DUP1 DUP4 SLOAD DIV MUL DUP4 MSTORE SWAP2 PUSH1 0x20 ADD SWAP2 PUSH2 0x287 JUMP JUMPDEST DUP3 ADD SWAP2 SWAP1 PUSH1 0x0 MSTORE PUSH1 0x20 PUSH1 0x0 KECCAK256 SWAP1 JUMPDEST DUP2 SLOAD DUP2 MSTORE SWAP1 PUSH1 0x1 ADD SWAP1 PUSH1 0x20 ADD DUP1 DUP4 GT PUSH2 0x26A JUMPI DUP3 SWAP1 SUB PUSH1 0x1F AND DUP3 ADD SWAP2 JUMPDEST POP POP POP POP POP DUP2 MSTORE PUSH1 0x20 ADD PUSH1 0x4 SLOAD DUP2 MSTORE POP PUSH1 0x6 PUSH1 0x0 CALLER PUSH20 0xFFFFFFFFFFFFFFFFFFFFFFFFFFFFFFFFFFFFFFFF AND PUSH20 0xFFFFFFFFFFFFFFFFFFFFFFFFFFFFFFFFFFFFFFFF AND DUP2 MSTORE PUSH1 0x20 ADD SWAP1 DUP2 MSTORE PUSH1 0x20 ADD PUSH1 0x0 KECCAK256 PUSH1 0x0 DUP3 ADD MLOAD DUP2 PUSH1 0x0 ADD SWAP1 DUP1 MLOAD SWAP1 PUSH1 0x20 ADD SWAP1 PUSH2 0x2F2 SWAP3 SWAP2 SWAP1 PUSH2 0x899 JUMP JUMPDEST POP PUSH1 0x20 DUP3 ADD MLOAD DUP2 PUSH1 0x1 ADD SWAP1 DUP1 MLOAD SWAP1 PUSH1 0x20 ADD SWAP1 PUSH2 0x30F SWAP3 SWAP2 SWAP1 PUSH2 0x899 JUMP JUMPDEST POP PUSH1 0x40 DUP3 ADD MLOAD DUP2 PUSH1 0x2 ADD SSTORE PUSH1 0x60 DUP3 ADD MLOAD DUP2 PUSH1 0x3 ADD SWAP1 DUP1 MLOAD SWAP1 PUSH1 0x20 ADD SWAP1 PUSH2 0x336 SWAP3 SWAP2 SWAP1 PUSH2 0x899 JUMP JUMPDEST POP PUSH1 0x80 DUP3 ADD MLOAD DUP2 PUSH1 0x4 ADD SSTORE SWAP1 POP POP POP POP POP JUMP JUMPDEST PUSH1 0x7 PUSH1 0x0 SWAP1 SLOAD SWAP1 PUSH2 0x100 EXP SWAP1 DIV PUSH1 0xFF AND DUP2 JUMP JUMPDEST PUSH1 0x1 PUSH1 0x0 SWAP1 SLOAD SWAP1 PUSH2 0x100 EXP SWAP1 DIV PUSH20 0xFFFFFFFFFFFFFFFFFFFFFFFFFFFFFFFFFFFFFFFF AND PUSH20 0xFFFFFFFFFFFFFFFFFFFFFFFFFFFFFFFFFFFFFFFF AND PUSH2 0x8FC PUSH1 0x4 SLOAD SWAP1 DUP2 ISZERO MUL SWAP1 PUSH1 0x40 MLOAD PUSH1 0x0 PUSH1 0x40 MLOAD DUP1 DUP4 SUB DUP2 DUP6 DUP9 DUP9 CALL SWAP4 POP POP POP POP ISZERO DUP1 ISZERO PUSH2 0x3C6 JUMPI RETURNDATASIZE PUSH1 0x0 DUP1 RETURNDATACOPY RETURNDATASIZE PUSH1 0x0 REVERT JUMPDEST POP JUMP JUMPDEST PUSH1 0x1 PUSH1 0x0 SWAP1 SLOAD SWAP1 PUSH2 0x100 EXP SWAP1 DIV PUSH20 0xFFFFFFFFFFFFFFFFFFFFFFFFFFFFFFFFFFFFFFFF AND DUP2 JUMP JUMPDEST PUSH1 0x0 PUSH1 0x7 PUSH1 0x0 PUSH2 0x100 EXP DUP2 SLOAD DUP2 PUSH1 0xFF MUL NOT AND SWAP1 DUP4 PUSH1 0x2 DUP2 GT ISZERO PUSH2 0x415 JUMPI PUSH2 0x414 PUSH2 0xE49 JUMP JUMPDEST JUMPDEST MUL OR SWAP1 SSTORE POP PUSH1 0x7 PUSH1 0x0 SWAP1 SLOAD SWAP1 PUSH2 0x100 EXP SWAP1 DIV PUSH1 0xFF AND PUSH1 0x2 DUP2 GT ISZERO PUSH2 0x43C JUMPI PUSH2 0x43B PUSH2 0xE49 JUMP JUMPDEST JUMPDEST PUSH1 0x2 DUP2 SWAP1 SSTORE POP PUSH1 0x0 PUSH1 0x2 SLOAD EQ ISZERO PUSH2 0x4B5 JUMPI PUSH1 0x40 MLOAD DUP1 PUSH1 0x40 ADD PUSH1 0x40 MSTORE DUP1 PUSH1 0xB DUP2 MSTORE PUSH1 0x20 ADD PUSH32 0x466972737420436C617373000000000000000000000000000000000000000000 DUP2 MSTORE POP PUSH1 0x3 SWAP1 DUP1 MLOAD SWAP1 PUSH1 0x20 ADD SWAP1 PUSH2 0x498 SWAP3 SWAP2 SWAP1 PUSH2 0x899 JUMP JUMPDEST POP PUSH7 0x2386F26FC10000 PUSH1 0x5 SLOAD PUSH2 0x4AE SWAP2 SWAP1 PUSH2 0xCA8 JUMP JUMPDEST PUSH1 0x4 DUP2 SWAP1 SSTORE POP JUMPDEST PUSH1 0x1 DUP1 PUSH1 0x14 PUSH2 0x100 EXP DUP2 SLOAD DUP2 PUSH1 0xFF MUL NOT AND SWAP1 DUP4 ISZERO ISZERO MUL OR SWAP1 SSTORE POP JUMP JUMPDEST PUSH1 0x1 PUSH1 0x7 PUSH1 0x0 PUSH2 0x100 EXP DUP2 SLOAD DUP2 PUSH1 0xFF MUL NOT AND SWAP1 DUP4 PUSH1 0x2 DUP2 GT ISZERO PUSH2 0x4F7 JUMPI PUSH2 0x4F6 PUSH2 0xE49 JUMP JUMPDEST JUMPDEST MUL OR SWAP1 SSTORE POP PUSH1 0x7 PUSH1 0x0 SWAP1 SLOAD SWAP1 PUSH2 0x100 EXP SWAP1 DIV PUSH1 0xFF AND PUSH1 0x2 DUP2 GT ISZERO PUSH2 0x51E JUMPI PUSH2 0x51D PUSH2 0xE49 JUMP JUMPDEST JUMPDEST PUSH1 0x2 DUP2 SWAP1 SSTORE POP PUSH1 0x1 PUSH1 0x2 SLOAD EQ ISZERO PUSH2 0x597 JUMPI PUSH1 0x40 MLOAD DUP1 PUSH1 0x40 ADD PUSH1 0x40 MSTORE DUP1 PUSH1 0xD DUP2 MSTORE PUSH1 0x20 ADD PUSH32 0x45636F6E6F6D7920436C61737300000000000000000000000000000000000000 DUP2 MSTORE POP PUSH1 0x3 SWAP1 DUP1 MLOAD SWAP1 PUSH1 0x20 ADD SWAP1 PUSH2 0x57A SWAP3 SWAP2 SWAP1 PUSH2 0x899 JUMP JUMPDEST POP PUSH7 0x11C37937E08000 PUSH1 0x5 SLOAD PUSH2 0x590 SWAP2 SWAP1 PUSH2 0xCA8 JUMP JUMPDEST PUSH1 0x4 DUP2 SWAP1 SSTORE POP JUMPDEST PUSH1 0x1 DUP1 PUSH1 0x14 PUSH2 0x100 EXP DUP2 SLOAD DUP2 PUSH1 0xFF MUL NOT AND SWAP1 DUP4 ISZERO ISZERO MUL OR SWAP1 SSTORE POP JUMP JUMPDEST PUSH1 0x0 DUP1 SLOAD SWAP1 PUSH2 0x100 EXP SWAP1 DIV PUSH20 0xFFFFFFFFFFFFFFFFFFFFFFFFFFFFFFFFFFFFFFFF AND DUP2 JUMP JUMPDEST PUSH1 0x0 DUP1 PUSH1 0x0 NUMBER TIMESTAMP CALLER SWAP3 POP SWAP3 POP SWAP3 POP SWAP1 SWAP2 SWAP3 JUMP JUMPDEST PUSH1 0x2 PUSH1 0x7 PUSH1 0x0 PUSH2 0x100 EXP DUP2 SLOAD DUP2 PUSH1 0xFF MUL NOT AND SWAP1 DUP4 PUSH1 0x2 DUP2 GT ISZERO PUSH2 0x610 JUMPI PUSH2 0x60F PUSH2 0xE49 JUMP JUMPDEST JUMPDEST MUL OR SWAP1 SSTORE POP PUSH1 0x7 PUSH1 0x0 SWAP1 SLOAD SWAP1 PUSH2 0x100 EXP SWAP1 DIV PUSH1 0xFF AND PUSH1 0x2 DUP2 GT ISZERO PUSH2 0x637 JUMPI PUSH2 0x636 PUSH2 0xE49 JUMP JUMPDEST JUMPDEST PUSH1 0x2 DUP2 SWAP1 SSTORE POP PUSH1 0x2 DUP1 SLOAD EQ ISZERO PUSH2 0x6AF JUMPI PUSH1 0x40 MLOAD DUP1 PUSH1 0x40 ADD PUSH1 0x40 MSTORE DUP1 PUSH1 0xD DUP2 MSTORE PUSH1 0x20 ADD PUSH32 0x4275736E69737320436C61737300000000000000000000000000000000000000 DUP2 MSTORE POP PUSH1 0x3 SWAP1 DUP1 MLOAD SWAP1 PUSH1 0x20 ADD SWAP1 PUSH2 0x692 SWAP3 SWAP2 SWAP1 PUSH2 0x899 JUMP JUMPDEST POP PUSH7 0x18DE76816D8000 PUSH1 0x5 SLOAD PUSH2 0x6A8 SWAP2 SWAP1 PUSH2 0xCA8 JUMP JUMPDEST PUSH1 0x4 DUP2 SWAP1 SSTORE POP JUMPDEST PUSH1 0x1 DUP1 PUSH1 0x14 PUSH2 0x100 EXP DUP2 SLOAD DUP2 PUSH1 0xFF MUL NOT AND SWAP1 DUP4 ISZERO ISZERO MUL OR SWAP1 SSTORE POP JUMP JUMPDEST PUSH1 0x6 PUSH1 0x20 MSTORE DUP1 PUSH1 0x0 MSTORE PUSH1 0x40 PUSH1 0x0 KECCAK256 PUSH1 0x0 SWAP2 POP SWAP1 POP DUP1 PUSH1 0x0 ADD DUP1 SLOAD PUSH2 0x6EE SWAP1 PUSH2 0xDB7 JUMP JUMPDEST DUP1 PUSH1 0x1F ADD PUSH1 0x20 DUP1 SWAP2 DIV MUL PUSH1 0x20 ADD PUSH1 0x40 MLOAD SWAP1 DUP2 ADD PUSH1 0x40 MSTORE DUP1 SWAP3 SWAP2 SWAP1 DUP2 DUP2 MSTORE PUSH1 0x20 ADD DUP3 DUP1 SLOAD PUSH2 0x71A SWAP1 PUSH2 0xDB7 JUMP JUMPDEST DUP1 ISZERO PUSH2 0x767 JUMPI DUP1 PUSH1 0x1F LT PUSH2 0x73C JUMPI PUSH2 0x100 DUP1 DUP4 SLOAD DIV MUL DUP4 MSTORE SWAP2 PUSH1 0x20 ADD SWAP2 PUSH2 0x767 JUMP JUMPDEST DUP3 ADD SWAP2 SWAP1 PUSH1 0x0 MSTORE PUSH1 0x20 PUSH1 0x0 KECCAK256 SWAP1 JUMPDEST DUP2 SLOAD DUP2 MSTORE SWAP1 PUSH1 0x1 ADD SWAP1 PUSH1 0x20 ADD DUP1 DUP4 GT PUSH2 0x74A JUMPI DUP3 SWAP1 SUB PUSH1 0x1F AND DUP3 ADD SWAP2 JUMPDEST POP POP POP POP POP SWAP1 DUP1 PUSH1 0x1 ADD DUP1 SLOAD PUSH2 0x77C SWAP1 PUSH2 0xDB7 JUMP JUMPDEST DUP1 PUSH1 0x1F ADD PUSH1 0x20 DUP1 SWAP2 DIV MUL PUSH1 0x20 ADD PUSH1 0x40 MLOAD SWAP1 DUP2 ADD PUSH1 0x40 MSTORE DUP1 SWAP3 SWAP2 SWAP1 DUP2 DUP2 MSTORE PUSH1 0x20 ADD DUP3 DUP1 SLOAD PUSH2 0x7A8 SWAP1 PUSH2 0xDB7 JUMP JUMPDEST DUP1 ISZERO PUSH2 0x7F5 JUMPI DUP1 PUSH1 0x1F LT PUSH2 0x7CA JUMPI PUSH2 0x100 DUP1 DUP4 SLOAD DIV MUL DUP4 MSTORE SWAP2 PUSH1 0x20 ADD SWAP2 PUSH2 0x7F5 JUMP JUMPDEST DUP3 ADD SWAP2 SWAP1 PUSH1 0x0 MSTORE PUSH1 0x20 PUSH1 0x0 KECCAK256 SWAP1 JUMPDEST DUP2 SLOAD DUP2 MSTORE SWAP1 PUSH1 0x1 ADD SWAP1 PUSH1 0x20 ADD DUP1 DUP4 GT PUSH2 0x7D8 JUMPI DUP3 SWAP1 SUB PUSH1 0x1F AND DUP3 ADD SWAP2 JUMPDEST POP POP POP POP POP SWAP1 DUP1 PUSH1 0x2 ADD SLOAD SWAP1 DUP1 PUSH1 0x3 ADD DUP1 SLOAD PUSH2 0x810 SWAP1 PUSH2 0xDB7 JUMP JUMPDEST DUP1 PUSH1 0x1F ADD PUSH1 0x20 DUP1 SWAP2 DIV MUL PUSH1 0x20 ADD PUSH1 0x40 MLOAD SWAP1 DUP2 ADD PUSH1 0x40 MSTORE DUP1 SWAP3 SWAP2 SWAP1 DUP2 DUP2 MSTORE PUSH1 0x20 ADD DUP3 DUP1 SLOAD PUSH2 0x83C SWAP1 PUSH2 0xDB7 JUMP JUMPDEST DUP1 ISZERO PUSH2 0x889 JUMPI DUP1 PUSH1 0x1F LT PUSH2 0x85E JUMPI PUSH2 0x100 DUP1 DUP4 SLOAD DIV MUL DUP4 MSTORE SWAP2 PUSH1 0x20 ADD SWAP2 PUSH2 0x889 JUMP JUMPDEST DUP3 ADD SWAP2 SWAP1 PUSH1 0x0 MSTORE PUSH1 0x20 PUSH1 0x0 KECCAK256 SWAP1 JUMPDEST DUP2 SLOAD DUP2 MSTORE SWAP1 PUSH1 0x1 ADD SWAP1 PUSH1 0x20 ADD DUP1 DUP4 GT PUSH2 0x86C JUMPI DUP3 SWAP1 SUB PUSH1 0x1F AND DUP3 ADD SWAP2 JUMPDEST POP POP POP POP POP SWAP1 DUP1 PUSH1 0x4 ADD SLOAD SWAP1 POP DUP6 JUMP JUMPDEST DUP3 DUP1 SLOAD PUSH2 0x8A5 SWAP1 PUSH2 0xDB7 JUMP JUMPDEST SWAP1 PUSH1 0x0 MSTORE PUSH1 0x20 PUSH1 0x0 KECCAK256 SWAP1 PUSH1 0x1F ADD PUSH1 0x20 SWAP1 DIV DUP2 ADD SWAP3 DUP3 PUSH2 0x8C7 JUMPI PUSH1 0x0 DUP6 SSTORE PUSH2 0x90E JUMP JUMPDEST DUP3 PUSH1 0x1F LT PUSH2 0x8E0 JUMPI DUP1 MLOAD PUSH1 0xFF NOT AND DUP4 DUP1 ADD OR DUP6 SSTORE PUSH2 0x90E JUMP JUMPDEST DUP3 DUP1 ADD PUSH1 0x1 ADD DUP6 SSTORE DUP3 ISZERO PUSH2 0x90E JUMPI SWAP2 DUP3 ADD JUMPDEST DUP3 DUP2 GT ISZERO PUSH2 0x90D JUMPI DUP3 MLOAD DUP3 SSTORE SWAP2 PUSH1 0x20 ADD SWAP2 SWAP1 PUSH1 0x1 ADD SWAP1 PUSH2 0x8F2 JUMP JUMPDEST JUMPDEST POP SWAP1 POP PUSH2 0x91B SWAP2 SWAP1 PUSH2 0x91F JUMP JUMPDEST POP SWAP1 JUMP JUMPDEST JUMPDEST DUP1 DUP3 GT ISZERO PUSH2 0x938 JUMPI PUSH1 0x0 DUP2 PUSH1 0x0 SWAP1 SSTORE POP PUSH1 0x1 ADD PUSH2 0x920 JUMP JUMPDEST POP SWAP1 JUMP JUMPDEST PUSH1 0x0 PUSH2 0x94F PUSH2 0x94A DUP5 PUSH2 0xC5B JUMP JUMPDEST PUSH2 0xC36 JUMP JUMPDEST SWAP1 POP DUP3 DUP2 MSTORE PUSH1 0x20 DUP2 ADD DUP5 DUP5 DUP5 ADD GT ISZERO PUSH2 0x96B JUMPI PUSH2 0x96A PUSH2 0xEDB JUMP JUMPDEST JUMPDEST PUSH2 0x976 DUP5 DUP3 DUP6 PUSH2 0xD75 JUMP JUMPDEST POP SWAP4 SWAP3 POP POP POP JUMP JUMPDEST PUSH1 0x0 DUP2 CALLDATALOAD SWAP1 POP PUSH2 0x98D DUP2 PUSH2 0xF38 JUMP JUMPDEST SWAP3 SWAP2 POP POP JUMP JUMPDEST PUSH1 0x0 DUP3 PUSH1 0x1F DUP4 ADD SLT PUSH2 0x9A8 JUMPI PUSH2 0x9A7 PUSH2 0xED6 JUMP JUMPDEST JUMPDEST DUP2 CALLDATALOAD PUSH2 0x9B8 DUP5 DUP3 PUSH1 0x20 DUP7 ADD PUSH2 0x93C JUMP JUMPDEST SWAP2 POP POP SWAP3 SWAP2 POP POP JUMP JUMPDEST PUSH1 0x0 DUP2 CALLDATALOAD SWAP1 POP PUSH2 0x9D0 DUP2 PUSH2 0xF4F JUMP JUMPDEST SWAP3 SWAP2 POP POP JUMP JUMPDEST PUSH1 0x0 PUSH1 0x20 DUP3 DUP5 SUB SLT ISZERO PUSH2 0x9EC JUMPI PUSH2 0x9EB PUSH2 0xEE5 JUMP JUMPDEST JUMPDEST PUSH1 0x0 PUSH2 0x9FA DUP5 DUP3 DUP6 ADD PUSH2 0x97E JUMP JUMPDEST SWAP2 POP POP SWAP3 SWAP2 POP POP JUMP JUMPDEST PUSH1 0x0 DUP1 PUSH1 0x0 PUSH1 0x60 DUP5 DUP7 SUB SLT ISZERO PUSH2 0xA1C JUMPI PUSH2 0xA1B PUSH2 0xEE5 JUMP JUMPDEST JUMPDEST PUSH1 0x0 DUP5 ADD CALLDATALOAD PUSH8 0xFFFFFFFFFFFFFFFF DUP2 GT ISZERO PUSH2 0xA3A JUMPI PUSH2 0xA39 PUSH2 0xEE0 JUMP JUMPDEST JUMPDEST PUSH2 0xA46 DUP7 DUP3 DUP8 ADD PUSH2 0x993 JUMP JUMPDEST SWAP4 POP POP PUSH1 0x20 DUP5 ADD CALLDATALOAD PUSH8 0xFFFFFFFFFFFFFFFF DUP2 GT ISZERO PUSH2 0xA67 JUMPI PUSH2 0xA66 PUSH2 0xEE0 JUMP JUMPDEST JUMPDEST PUSH2 0xA73 DUP7 DUP3 DUP8 ADD PUSH2 0x993 JUMP JUMPDEST SWAP3 POP POP PUSH1 0x40 PUSH2 0xA84 DUP7 DUP3 DUP8 ADD PUSH2 0x9C1 JUMP JUMPDEST SWAP2 POP POP SWAP3 POP SWAP3 POP SWAP3 JUMP JUMPDEST PUSH2 0xA97 DUP2 PUSH2 0xD14 JUMP JUMPDEST DUP3 MSTORE POP POP JUMP JUMPDEST PUSH2 0xAA6 DUP2 PUSH2 0xD02 JUMP JUMPDEST DUP3 MSTORE POP POP JUMP JUMPDEST PUSH2 0xAB5 DUP2 PUSH2 0xD63 JUMP JUMPDEST DUP3 MSTORE POP POP JUMP JUMPDEST PUSH1 0x0 PUSH2 0xAC6 DUP3 PUSH2 0xC8C JUMP JUMPDEST PUSH2 0xAD0 DUP2 DUP6 PUSH2 0xC97 JUMP JUMPDEST SWAP4 POP PUSH2 0xAE0 DUP2 DUP6 PUSH1 0x20 DUP7 ADD PUSH2 0xD84 JUMP JUMPDEST PUSH2 0xAE9 DUP2 PUSH2 0xEEA JUMP JUMPDEST DUP5 ADD SWAP2 POP POP SWAP3 SWAP2 POP POP JUMP JUMPDEST PUSH1 0x0 PUSH2 0xB01 PUSH1 0x1D DUP4 PUSH2 0xC97 JUMP JUMPDEST SWAP2 POP PUSH2 0xB0C DUP3 PUSH2 0xEFB JUMP JUMPDEST PUSH1 0x20 DUP3 ADD SWAP1 POP SWAP2 SWAP1 POP JUMP JUMPDEST PUSH2 0xB20 DUP2 PUSH2 0xD59 JUMP JUMPDEST DUP3 MSTORE POP POP JUMP JUMPDEST PUSH1 0x0 PUSH1 0x20 DUP3 ADD SWAP1 POP PUSH2 0xB3B PUSH1 0x0 DUP4 ADD DUP5 PUSH2 0xA9D JUMP JUMPDEST SWAP3 SWAP2 POP POP JUMP JUMPDEST PUSH1 0x0 PUSH1 0x20 DUP3 ADD SWAP1 POP PUSH2 0xB56 PUSH1 0x0 DUP4 ADD DUP5 PUSH2 0xA8E JUMP JUMPDEST SWAP3 SWAP2 POP POP JUMP JUMPDEST PUSH1 0x0 PUSH1 0x20 DUP3 ADD SWAP1 POP PUSH2 0xB71 PUSH1 0x0 DUP4 ADD DUP5 PUSH2 0xAAC JUMP JUMPDEST SWAP3 SWAP2 POP POP JUMP JUMPDEST PUSH1 0x0 PUSH1 0xA0 DUP3 ADD SWAP1 POP DUP2 DUP2 SUB PUSH1 0x0 DUP4 ADD MSTORE PUSH2 0xB91 DUP2 DUP9 PUSH2 0xABB JUMP JUMPDEST SWAP1 POP DUP2 DUP2 SUB PUSH1 0x20 DUP4 ADD MSTORE PUSH2 0xBA5 DUP2 DUP8 PUSH2 0xABB JUMP JUMPDEST SWAP1 POP PUSH2 0xBB4 PUSH1 0x40 DUP4 ADD DUP7 PUSH2 0xB17 JUMP JUMPDEST DUP2 DUP2 SUB PUSH1 0x60 DUP4 ADD MSTORE PUSH2 0xBC6 DUP2 DUP6 PUSH2 0xABB JUMP JUMPDEST SWAP1 POP PUSH2 0xBD5 PUSH1 0x80 DUP4 ADD DUP5 PUSH2 0xB17 JUMP JUMPDEST SWAP7 SWAP6 POP POP POP POP POP POP JUMP JUMPDEST PUSH1 0x0 PUSH1 0x20 DUP3 ADD SWAP1 POP DUP2 DUP2 SUB PUSH1 0x0 DUP4 ADD MSTORE PUSH2 0xBF8 DUP2 PUSH2 0xAF4 JUMP JUMPDEST SWAP1 POP SWAP2 SWAP1 POP JUMP JUMPDEST PUSH1 0x0 PUSH1 0x60 DUP3 ADD SWAP1 POP PUSH2 0xC14 PUSH1 0x0 DUP4 ADD DUP7 PUSH2 0xB17 JUMP JUMPDEST PUSH2 0xC21 PUSH1 0x20 DUP4 ADD DUP6 PUSH2 0xB17 JUMP JUMPDEST PUSH2 0xC2E PUSH1 0x40 DUP4 ADD DUP5 PUSH2 0xA9D JUMP JUMPDEST SWAP5 SWAP4 POP POP POP POP JUMP JUMPDEST PUSH1 0x0 PUSH2 0xC40 PUSH2 0xC51 JUMP JUMPDEST SWAP1 POP PUSH2 0xC4C DUP3 DUP3 PUSH2 0xDE9 JUMP JUMPDEST SWAP2 SWAP1 POP JUMP JUMPDEST PUSH1 0x0 PUSH1 0x40 MLOAD SWAP1 POP SWAP1 JUMP JUMPDEST PUSH1 0x0 PUSH8 0xFFFFFFFFFFFFFFFF DUP3 GT ISZERO PUSH2 0xC76 JUMPI PUSH2 0xC75 PUSH2 0xEA7 JUMP JUMPDEST JUMPDEST PUSH2 0xC7F DUP3 PUSH2 0xEEA JUMP JUMPDEST SWAP1 POP PUSH1 0x20 DUP2 ADD SWAP1 POP SWAP2 SWAP1 POP JUMP JUMPDEST PUSH1 0x0 DUP2 MLOAD SWAP1 POP SWAP2 SWAP1 POP JUMP JUMPDEST PUSH1 0x0 DUP3 DUP3 MSTORE PUSH1 0x20 DUP3 ADD SWAP1 POP SWAP3 SWAP2 POP POP JUMP JUMPDEST PUSH1 0x0 PUSH2 0xCB3 DUP3 PUSH2 0xD59 JUMP JUMPDEST SWAP2 POP PUSH2 0xCBE DUP4 PUSH2 0xD59 JUMP JUMPDEST SWAP3 POP DUP2 PUSH32 0xFFFFFFFFFFFFFFFFFFFFFFFFFFFFFFFFFFFFFFFFFFFFFFFFFFFFFFFFFFFFFFFF DIV DUP4 GT DUP3 ISZERO ISZERO AND ISZERO PUSH2 0xCF7 JUMPI PUSH2 0xCF6 PUSH2 0xE1A JUMP JUMPDEST JUMPDEST DUP3 DUP3 MUL SWAP1 POP SWAP3 SWAP2 POP POP JUMP JUMPDEST PUSH1 0x0 PUSH2 0xD0D DUP3 PUSH2 0xD39 JUMP JUMPDEST SWAP1 POP SWAP2 SWAP1 POP JUMP JUMPDEST PUSH1 0x0 PUSH2 0xD1F DUP3 PUSH2 0xD39 JUMP JUMPDEST SWAP1 POP SWAP2 SWAP1 POP JUMP JUMPDEST PUSH1 0x0 DUP2 SWAP1 POP PUSH2 0xD34 DUP3 PUSH2 0xF24 JUMP JUMPDEST SWAP2 SWAP1 POP JUMP JUMPDEST PUSH1 0x0 PUSH20 0xFFFFFFFFFFFFFFFFFFFFFFFFFFFFFFFFFFFFFFFF DUP3 AND SWAP1 POP SWAP2 SWAP1 POP JUMP JUMPDEST PUSH1 0x0 DUP2 SWAP1 POP SWAP2 SWAP1 POP JUMP JUMPDEST PUSH1 0x0 PUSH2 0xD6E DUP3 PUSH2 0xD26 JUMP JUMPDEST SWAP1 POP SWAP2 SWAP1 POP JUMP JUMPDEST DUP3 DUP2 DUP4 CALLDATACOPY PUSH1 0x0 DUP4 DUP4 ADD MSTORE POP POP POP JUMP JUMPDEST PUSH1 0x0 JUMPDEST DUP4 DUP2 LT ISZERO PUSH2 0xDA2 JUMPI DUP1 DUP3 ADD MLOAD DUP2 DUP5 ADD MSTORE PUSH1 0x20 DUP2 ADD SWAP1 POP PUSH2 0xD87 JUMP JUMPDEST DUP4 DUP2 GT ISZERO PUSH2 0xDB1 JUMPI PUSH1 0x0 DUP5 DUP5 ADD MSTORE JUMPDEST POP POP POP POP JUMP JUMPDEST PUSH1 0x0 PUSH1 0x2 DUP3 DIV SWAP1 POP PUSH1 0x1 DUP3 AND DUP1 PUSH2 0xDCF JUMPI PUSH1 0x7F DUP3 AND SWAP2 POP JUMPDEST PUSH1 0x20 DUP3 LT DUP2 EQ ISZERO PUSH2 0xDE3 JUMPI PUSH2 0xDE2 PUSH2 0xE78 JUMP JUMPDEST JUMPDEST POP SWAP2 SWAP1 POP JUMP JUMPDEST PUSH2 0xDF2 DUP3 PUSH2 0xEEA JUMP JUMPDEST DUP2 ADD DUP2 DUP2 LT PUSH8 0xFFFFFFFFFFFFFFFF DUP3 GT OR ISZERO PUSH2 0xE11 JUMPI PUSH2 0xE10 PUSH2 0xEA7 JUMP JUMPDEST JUMPDEST DUP1 PUSH1 0x40 MSTORE POP POP POP JUMP JUMPDEST PUSH32 0x4E487B7100000000000000000000000000000000000000000000000000000000 PUSH1 0x0 MSTORE PUSH1 0x11 PUSH1 0x4 MSTORE PUSH1 0x24 PUSH1 0x0 REVERT JUMPDEST PUSH32 0x4E487B7100000000000000000000000000000000000000000000000000000000 PUSH1 0x0 MSTORE PUSH1 0x21 PUSH1 0x4 MSTORE PUSH1 0x24 PUSH1 0x0 REVERT JUMPDEST PUSH32 0x4E487B7100000000000000000000000000000000000000000000000000000000 PUSH1 0x0 MSTORE PUSH1 0x22 PUSH1 0x4 MSTORE PUSH1 0x24 PUSH1 0x0 REVERT JUMPDEST PUSH32 0x4E487B7100000000000000000000000000000000000000000000000000000000 PUSH1 0x0 MSTORE PUSH1 0x41 PUSH1 0x4 MSTORE PUSH1 0x24 PUSH1 0x0 REVERT JUMPDEST PUSH1 0x0 DUP1 REVERT JUMPDEST PUSH1 0x0 DUP1 REVERT JUMPDEST PUSH1 0x0 DUP1 REVERT JUMPDEST PUSH1 0x0 DUP1 REVERT JUMPDEST PUSH1 0x0 PUSH1 0x1F NOT PUSH1 0x1F DUP4 ADD AND SWAP1 POP SWAP2 SWAP1 POP JUMP JUMPDEST PUSH32 0x706C656173652073656C6563742074686520636C617373206669727374000000 PUSH1 0x0 DUP3 ADD MSTORE POP JUMP JUMPDEST PUSH1 0x3 DUP2 LT PUSH2 0xF35 JUMPI PUSH2 0xF34 PUSH2 0xE49 JUMP JUMPDEST JUMPDEST POP JUMP JUMPDEST PUSH2 0xF41 DUP2 PUSH2 0xD02 JUMP JUMPDEST DUP2 EQ PUSH2 0xF4C JUMPI PUSH1 0x0 DUP1 REVERT JUMPDEST POP JUMP JUMPDEST PUSH2 0xF58 DUP2 PUSH2 0xD59 JUMP JUMPDEST DUP2 EQ PUSH2 0xF63 JUMPI PUSH1 0x0 DUP1 REVERT JUMPDEST POP JUMP INVALID LOG2 PUSH5 0x6970667358 0x22 SLT KECCAK256 STOP 0xD5 CALLER 0xF8 0xE PUSH5 0x3BB459B4EC CALLDATALOAD SWAP16 INVALID MULMOD PUSH20 0x8B97432F4819AD9EAA33ADAC677C1C2064736F6C PUSH4 0x43000807 STOP CALLER "
				},
				"gasEstimates": {
					"creation": {
						"codeDepositCost": "799200",
						"executionCost": "infinite",
						"totalCost": "infinite"
					},
					"external": {
						"busnissClass()": "infinite",
						"data(address)": "infinite",
						"economyClass()": "infinite",
						"firstClass()": "infinite",
						"getter()": "infinite",
						"owner()": "2533",
						"payment()": "infinite",
						"setData(string,string,uint256)": "infinite",
						"u1()": "2583",
						"user()": "2581"
					}
				},
				"methodIdentifiers": {
					"busnissClass()": "b24fa0e4",
					"data(address)": "b90d3d0c",
					"economyClass()": "7a1736d1",
					"firstClass()": "50183507",
					"getter()": "993a04b7",
					"owner()": "8da5cb5b",
					"payment()": "42f6487a",
					"setData(string,string,uint256)": "17ae4589",
					"u1()": "1aa35610",
					"user()": "4f8632ba"
				}
			},
			"userdoc": {
				"kind": "user",
				"methods": {},
				"version": 1
			}
		}
	}
}