{
	"bootcampquiz.sol": {
		"AirlineTickets": {
			"abi": [
				{
					"inputs": [],
					"name": "busnissClass",
					"outputs": [],
					"stateMutability": "nonpayable",
					"type": "function"
				},
				{
					"inputs": [],
					"name": "costTry",
					"outputs": [
						{
							"internalType": "uint256",
							"name": "",
							"type": "uint256"
						}
					],
					"stateMutability": "view",
					"type": "function"
				},
				{
					"inputs": [
						{
							"internalType": "address",
							"name": "",
							"type": "address"
						}
					],
					"name": "data",
					"outputs": [
						{
							"internalType": "string",
							"name": "name",
							"type": "string"
						},
						{
							"internalType": "string",
							"name": "des",
							"type": "string"
						},
						{
							"internalType": "uint256",
							"name": "pass_id",
							"type": "uint256"
						},
						{
							"internalType": "string",
							"name": "ticket",
							"type": "string"
						},
						{
							"internalType": "uint256",
							"name": "cost",
							"type": "uint256"
						}
					],
					"stateMutability": "view",
					"type": "function"
				},
				{
					"inputs": [],
					"name": "economyClass",
					"outputs": [],
					"stateMutability": "nonpayable",
					"type": "function"
				},
				{
					"inputs": [],
					"name": "firstClass",
					"outputs": [],
					"stateMutability": "nonpayable",
					"type": "function"
				},
				{
					"inputs": [],
					"name": "oneEth",
					"outputs": [
						{
							"internalType": "uint256",
							"name": "",
							"type": "uint256"
						}
					],
					"stateMutability": "view",
					"type": "function"
				},
				{
					"inputs": [],
					"name": "oneWei",
					"outputs": [
						{
							"internalType": "uint256",
							"name": "",
							"type": "uint256"
						}
					],
					"stateMutability": "view",
					"type": "function"
				},
				{
					"inputs": [
						{
							"internalType": "string",
							"name": "_name",
							"type": "string"
						},
						{
							"internalType": "string",
							"name": "_des",
							"type": "string"
						},
						{
							"internalType": "uint256",
							"name": "_pass_id",
							"type": "uint256"
						}
					],
					"name": "setData",
					"outputs": [],
					"stateMutability": "nonpayable",
					"type": "function"
				},
				{
					"inputs": [],
					"name": "u1",
					"outputs": [
						{
							"internalType": "enum AirlineTickets.classTypes",
							"name": "",
							"type": "uint8"
						}
					],
					"stateMutability": "view",
					"type": "function"
				}
			],
			"devdoc": {
				"kind": "dev",
				"methods": {},
				"version": 1
			},
			"evm": {
				"assembly": "    /* \"bootcampquiz.sol\":74:2102  contract AirlineTickets {\r... */\n  mstore(0x40, 0x80)\n    /* \"bootcampquiz.sol\":265:270  false */\n  0x00\n    /* \"bootcampquiz.sol\":251:270  bool booked = false */\n  dup1\n  exp(0x0100, 0x00)\n  dup2\n  sload\n  dup2\n  0xff\n  mul\n  not\n  and\n  swap1\n  dup4\n  iszero\n  iszero\n  mul\n  or\n  swap1\n  sstore\n  pop\n    /* \"bootcampquiz.sol\":363:395  string realVal = \"Economy Class\" */\n  mload(0x40)\n  dup1\n  0x40\n  add\n  0x40\n  mstore\n  dup1\n  0x0d\n  dup2\n  mstore\n  0x20\n  add\n  0x45636f6e6f6d7920436c61737300000000000000000000000000000000000000\n  dup2\n  mstore\n  pop\n  0x02\n  swap1\n  dup1\n  mload\n  swap1\n  0x20\n  add\n  swap1\n  tag_1\n  swap3\n  swap2\n  swap1\n  tag_2\n  jump\t// in\ntag_1:\n  pop\n    /* \"bootcampquiz.sol\":471:476  1 wei */\n  0x01\n    /* \"bootcampquiz.sol\":450:476  uint public oneWei = 1 wei */\n  0x05\n  sstore\n    /* \"bootcampquiz.sol\":504:516  1 ether/1e18 */\n  0x01\n    /* \"bootcampquiz.sol\":483:516  uint public oneEth = 1 ether/1e18 */\n  0x06\n  sstore\n    /* \"bootcampquiz.sol\":552:556  5e14 */\n  0x01c6bf52634000\n    /* \"bootcampquiz.sol\":545:551  oneEth */\n  sload(0x06)\n    /* \"bootcampquiz.sol\":545:556  oneEth/5e14 */\n  tag_3\n  swap2\n  swap1\n  tag_4\n  jump\t// in\ntag_3:\n    /* \"bootcampquiz.sol\":523:556  uint public costTry = oneEth/5e14 */\n  0x07\n  sstore\n    /* \"bootcampquiz.sol\":785:808  classTypes.economyClass */\n  0x01\n    /* \"bootcampquiz.sol\":763:808  classTypes public u1= classTypes.economyClass */\n  0x09\n  exp(0x0100, 0x00)\n  dup2\n  sload\n  dup2\n  0xff\n  mul\n  not\n  and\n  swap1\n  dup4\n  0x02\n  dup2\n  gt\n  iszero\n  tag_5\n  jumpi\n  tag_6\n  tag_7\n  jump\t// in\ntag_6:\ntag_5:\n  mul\n  or\n  swap1\n  sstore\n  pop\n    /* \"bootcampquiz.sol\":74:2102  contract AirlineTickets {\r... */\n  callvalue\n  dup1\n  iszero\n  tag_8\n  jumpi\n  0x00\n  dup1\n  revert\ntag_8:\n  pop\n  jump(tag_9)\ntag_2:\n  dup3\n  dup1\n  sload\n  tag_10\n  swap1\n  tag_11\n  jump\t// in\ntag_10:\n  swap1\n  0x00\n  mstore\n  keccak256(0x00, 0x20)\n  swap1\n  0x1f\n  add\n  0x20\n  swap1\n  div\n  dup2\n  add\n  swap3\n  dup3\n  tag_13\n  jumpi\n  0x00\n  dup6\n  sstore\n  jump(tag_12)\ntag_13:\n  dup3\n  0x1f\n  lt\n  tag_14\n  jumpi\n  dup1\n  mload\n  not(0xff)\n  and\n  dup4\n  dup1\n  add\n  or\n  dup6\n  sstore\n  jump(tag_12)\ntag_14:\n  dup3\n  dup1\n  add\n  0x01\n  add\n  dup6\n  sstore\n  dup3\n  iszero\n  tag_12\n  jumpi\n  swap2\n  dup3\n  add\ntag_15:\n  dup3\n  dup2\n  gt\n  iszero\n  tag_16\n  jumpi\n  dup3\n  mload\n  dup3\n  sstore\n  swap2\n  0x20\n  add\n  swap2\n  swap1\n  0x01\n  add\n  swap1\n  jump(tag_15)\ntag_16:\ntag_12:\n  pop\n  swap1\n  pop\n  tag_17\n  swap2\n  swap1\n  tag_18\n  jump\t// in\ntag_17:\n  pop\n  swap1\n  jump\t// out\ntag_18:\ntag_19:\n  dup1\n  dup3\n  gt\n  iszero\n  tag_20\n  jumpi\n  0x00\n  dup2\n  0x00\n  swap1\n  sstore\n  pop\n  0x01\n  add\n  jump(tag_19)\ntag_20:\n  pop\n  swap1\n  jump\t// out\n    /* \"#utility.yul\":7:192   */\ntag_4:\n    /* \"#utility.yul\":47:48   */\n  0x00\n    /* \"#utility.yul\":64:84   */\n  tag_23\n    /* \"#utility.yul\":82:83   */\n  dup3\n    /* \"#utility.yul\":64:84   */\n  tag_24\n  jump\t// in\ntag_23:\n    /* \"#utility.yul\":59:84   */\n  swap2\n  pop\n    /* \"#utility.yul\":98:118   */\n  tag_25\n    /* \"#utility.yul\":116:117   */\n  dup4\n    /* \"#utility.yul\":98:118   */\n  tag_24\n  jump\t// in\ntag_25:\n    /* \"#utility.yul\":93:118   */\n  swap3\n  pop\n    /* \"#utility.yul\":137:138   */\n  dup3\n    /* \"#utility.yul\":127:162   */\n  tag_26\n  jumpi\n    /* \"#utility.yul\":142:160   */\n  tag_27\n  tag_28\n  jump\t// in\ntag_27:\n    /* \"#utility.yul\":127:162   */\ntag_26:\n    /* \"#utility.yul\":184:185   */\n  dup3\n    /* \"#utility.yul\":181:182   */\n  dup3\n    /* \"#utility.yul\":177:186   */\n  div\n    /* \"#utility.yul\":172:186   */\n  swap1\n  pop\n    /* \"#utility.yul\":7:192   */\n  swap3\n  swap2\n  pop\n  pop\n  jump\t// out\n    /* \"#utility.yul\":198:275   */\ntag_24:\n    /* \"#utility.yul\":235:242   */\n  0x00\n    /* \"#utility.yul\":264:269   */\n  dup2\n    /* \"#utility.yul\":253:269   */\n  swap1\n  pop\n    /* \"#utility.yul\":198:275   */\n  swap2\n  swap1\n  pop\n  jump\t// out\n    /* \"#utility.yul\":281:601   */\ntag_11:\n    /* \"#utility.yul\":325:331   */\n  0x00\n    /* \"#utility.yul\":362:363   */\n  0x02\n    /* \"#utility.yul\":356:360   */\n  dup3\n    /* \"#utility.yul\":352:364   */\n  div\n    /* \"#utility.yul\":342:364   */\n  swap1\n  pop\n    /* \"#utility.yul\":409:410   */\n  0x01\n    /* \"#utility.yul\":403:407   */\n  dup3\n    /* \"#utility.yul\":399:411   */\n  and\n    /* \"#utility.yul\":430:448   */\n  dup1\n    /* \"#utility.yul\":420:501   */\n  tag_31\n  jumpi\n    /* \"#utility.yul\":486:490   */\n  0x7f\n    /* \"#utility.yul\":478:484   */\n  dup3\n    /* \"#utility.yul\":474:491   */\n  and\n    /* \"#utility.yul\":464:491   */\n  swap2\n  pop\n    /* \"#utility.yul\":420:501   */\ntag_31:\n    /* \"#utility.yul\":548:550   */\n  0x20\n    /* \"#utility.yul\":540:546   */\n  dup3\n    /* \"#utility.yul\":537:551   */\n  lt\n    /* \"#utility.yul\":517:535   */\n  dup2\n    /* \"#utility.yul\":514:552   */\n  eq\n    /* \"#utility.yul\":511:595   */\n  iszero\n  tag_32\n  jumpi\n    /* \"#utility.yul\":567:585   */\n  tag_33\n  tag_34\n  jump\t// in\ntag_33:\n    /* \"#utility.yul\":511:595   */\ntag_32:\n    /* \"#utility.yul\":332:601   */\n  pop\n    /* \"#utility.yul\":281:601   */\n  swap2\n  swap1\n  pop\n  jump\t// out\n    /* \"#utility.yul\":793:973   */\ntag_28:\n    /* \"#utility.yul\":841:918   */\n  0x4e487b7100000000000000000000000000000000000000000000000000000000\n    /* \"#utility.yul\":838:839   */\n  0x00\n    /* \"#utility.yul\":831:919   */\n  mstore\n    /* \"#utility.yul\":938:942   */\n  0x12\n    /* \"#utility.yul\":935:936   */\n  0x04\n    /* \"#utility.yul\":928:943   */\n  mstore\n    /* \"#utility.yul\":962:966   */\n  0x24\n    /* \"#utility.yul\":959:960   */\n  0x00\n    /* \"#utility.yul\":952:967   */\n  revert\n    /* \"#utility.yul\":979:1159   */\ntag_7:\n    /* \"#utility.yul\":1027:1104   */\n  0x4e487b7100000000000000000000000000000000000000000000000000000000\n    /* \"#utility.yul\":1024:1025   */\n  0x00\n    /* \"#utility.yul\":1017:1105   */\n  mstore\n    /* \"#utility.yul\":1124:1128   */\n  0x21\n    /* \"#utility.yul\":1121:1122   */\n  0x04\n    /* \"#utility.yul\":1114:1129   */\n  mstore\n    /* \"#utility.yul\":1148:1152   */\n  0x24\n    /* \"#utility.yul\":1145:1146   */\n  0x00\n    /* \"#utility.yul\":1138:1153   */\n  revert\n    /* \"#utility.yul\":1165:1345   */\ntag_34:\n    /* \"#utility.yul\":1213:1290   */\n  0x4e487b7100000000000000000000000000000000000000000000000000000000\n    /* \"#utility.yul\":1210:1211   */\n  0x00\n    /* \"#utility.yul\":1203:1291   */\n  mstore\n    /* \"#utility.yul\":1310:1314   */\n  0x22\n    /* \"#utility.yul\":1307:1308   */\n  0x04\n    /* \"#utility.yul\":1300:1315   */\n  mstore\n    /* \"#utility.yul\":1334:1338   */\n  0x24\n    /* \"#utility.yul\":1331:1332   */\n  0x00\n    /* \"#utility.yul\":1324:1339   */\n  revert\n    /* \"bootcampquiz.sol\":74:2102  contract AirlineTickets {\r... */\ntag_9:\n  dataSize(sub_0)\n  dup1\n  dataOffset(sub_0)\n  0x00\n  codecopy\n  0x00\n  return\nstop\n\nsub_0: assembly {\n        /* \"bootcampquiz.sol\":74:2102  contract AirlineTickets {\r... */\n      mstore(0x40, 0x80)\n      callvalue\n      dup1\n      iszero\n      tag_1\n      jumpi\n      0x00\n      dup1\n      revert\n    tag_1:\n      pop\n      jumpi(tag_2, lt(calldatasize, 0x04))\n      shr(0xe0, calldataload(0x00))\n      dup1\n      0x50183507\n      gt\n      tag_12\n      jumpi\n      dup1\n      0x50183507\n      eq\n      tag_7\n      jumpi\n      dup1\n      0x7a1736d1\n      eq\n      tag_8\n      jumpi\n      dup1\n      0xb24fa0e4\n      eq\n      tag_9\n      jumpi\n      dup1\n      0xb3abc739\n      eq\n      tag_10\n      jumpi\n      dup1\n      0xb90d3d0c\n      eq\n      tag_11\n      jumpi\n      jump(tag_2)\n    tag_12:\n      dup1\n      0x09a8d3f5\n      eq\n      tag_3\n      jumpi\n      dup1\n      0x17ae4589\n      eq\n      tag_4\n      jumpi\n      dup1\n      0x1aa35610\n      eq\n      tag_5\n      jumpi\n      dup1\n      0x4fb2e0be\n      eq\n      tag_6\n      jumpi\n    tag_2:\n      0x00\n      dup1\n      revert\n        /* \"bootcampquiz.sol\":483:516  uint public oneEth = 1 ether/1e18 */\n    tag_3:\n      tag_13\n      tag_14\n      jump\t// in\n    tag_13:\n      mload(0x40)\n      tag_15\n      swap2\n      swap1\n      tag_16\n      jump\t// in\n    tag_15:\n      mload(0x40)\n      dup1\n      swap2\n      sub\n      swap1\n      return\n        /* \"bootcampquiz.sol\":1872:2093  function setData(string memory _name, string memory _des, uint _pass_id) public \r... */\n    tag_4:\n      tag_17\n      0x04\n      dup1\n      calldatasize\n      sub\n      dup2\n      add\n      swap1\n      tag_18\n      swap2\n      swap1\n      tag_19\n      jump\t// in\n    tag_18:\n      tag_20\n      jump\t// in\n    tag_17:\n      stop\n        /* \"bootcampquiz.sol\":763:808  classTypes public u1= classTypes.economyClass */\n    tag_5:\n      tag_21\n      tag_22\n      jump\t// in\n    tag_21:\n      mload(0x40)\n      tag_23\n      swap2\n      swap1\n      tag_24\n      jump\t// in\n    tag_23:\n      mload(0x40)\n      dup1\n      swap2\n      sub\n      swap1\n      return\n        /* \"bootcampquiz.sol\":450:476  uint public oneWei = 1 wei */\n    tag_6:\n      tag_25\n      tag_26\n      jump\t// in\n    tag_25:\n      mload(0x40)\n      tag_27\n      swap2\n      swap1\n      tag_16\n      jump\t// in\n    tag_27:\n      mload(0x40)\n      dup1\n      swap2\n      sub\n      swap1\n      return\n        /* \"bootcampquiz.sol\":1174:1513  function firstClass() public \r... */\n    tag_7:\n      tag_28\n      tag_29\n      jump\t// in\n    tag_28:\n      stop\n        /* \"bootcampquiz.sol\":817:1162  function economyClass() public \r... */\n    tag_8:\n      tag_30\n      tag_31\n      jump\t// in\n    tag_30:\n      stop\n        /* \"bootcampquiz.sol\":1521:1860  function busnissClass() public {\r... */\n    tag_9:\n      tag_32\n      tag_33\n      jump\t// in\n    tag_32:\n      stop\n        /* \"bootcampquiz.sol\":523:556  uint public costTry = oneEth/5e14 */\n    tag_10:\n      tag_34\n      tag_35\n      jump\t// in\n    tag_34:\n      mload(0x40)\n      tag_36\n      swap2\n      swap1\n      tag_16\n      jump\t// in\n    tag_36:\n      mload(0x40)\n      dup1\n      swap2\n      sub\n      swap1\n      return\n        /* \"bootcampquiz.sol\":717:754  mapping (address => User) public data */\n    tag_11:\n      tag_37\n      0x04\n      dup1\n      calldatasize\n      sub\n      dup2\n      add\n      swap1\n      tag_38\n      swap2\n      swap1\n      tag_39\n      jump\t// in\n    tag_38:\n      tag_40\n      jump\t// in\n    tag_37:\n      mload(0x40)\n      tag_41\n      swap6\n      swap5\n      swap4\n      swap3\n      swap2\n      swap1\n      tag_42\n      jump\t// in\n    tag_41:\n      mload(0x40)\n      dup1\n      swap2\n      sub\n      swap1\n      return\n        /* \"bootcampquiz.sol\":483:516  uint public oneEth = 1 ether/1e18 */\n    tag_14:\n      sload(0x06)\n      dup2\n      jump\t// out\n        /* \"bootcampquiz.sol\":1872:2093  function setData(string memory _name, string memory _des, uint _pass_id) public \r... */\n    tag_20:\n        /* \"bootcampquiz.sol\":1977:1983  booked */\n      0x00\n      dup1\n      sload\n      swap1\n      0x0100\n      exp\n      swap1\n      div\n      0xff\n      and\n        /* \"bootcampquiz.sol\":1969:2016  require(booked,\"please select the class first\") */\n      tag_44\n      jumpi\n      mload(0x40)\n      0x08c379a000000000000000000000000000000000000000000000000000000000\n      dup2\n      mstore\n      0x04\n      add\n      tag_45\n      swap1\n      tag_46\n      jump\t// in\n    tag_45:\n      mload(0x40)\n      dup1\n      swap2\n      sub\n      swap1\n      revert\n    tag_44:\n        /* \"bootcampquiz.sol\":2046:2085  User(_name,_des,_pass_id,realVal ,cost) */\n      mload(0x40)\n      dup1\n      0xa0\n      add\n      0x40\n      mstore\n      dup1\n        /* \"bootcampquiz.sol\":2051:2056  _name */\n      dup5\n        /* \"bootcampquiz.sol\":2046:2085  User(_name,_des,_pass_id,realVal ,cost) */\n      dup2\n      mstore\n      0x20\n      add\n        /* \"bootcampquiz.sol\":2057:2061  _des */\n      dup4\n        /* \"bootcampquiz.sol\":2046:2085  User(_name,_des,_pass_id,realVal ,cost) */\n      dup2\n      mstore\n      0x20\n      add\n        /* \"bootcampquiz.sol\":2062:2070  _pass_id */\n      dup3\n        /* \"bootcampquiz.sol\":2046:2085  User(_name,_des,_pass_id,realVal ,cost) */\n      dup2\n      mstore\n      0x20\n      add\n        /* \"bootcampquiz.sol\":2071:2078  realVal */\n      0x02\n        /* \"bootcampquiz.sol\":2046:2085  User(_name,_des,_pass_id,realVal ,cost) */\n      dup1\n      sload\n      tag_47\n      swap1\n      tag_48\n      jump\t// in\n    tag_47:\n      dup1\n      0x1f\n      add\n      0x20\n      dup1\n      swap2\n      div\n      mul\n      0x20\n      add\n      mload(0x40)\n      swap1\n      dup2\n      add\n      0x40\n      mstore\n      dup1\n      swap3\n      swap2\n      swap1\n      dup2\n      dup2\n      mstore\n      0x20\n      add\n      dup3\n      dup1\n      sload\n      tag_49\n      swap1\n      tag_48\n      jump\t// in\n    tag_49:\n      dup1\n      iszero\n      tag_50\n      jumpi\n      dup1\n      0x1f\n      lt\n      tag_51\n      jumpi\n      0x0100\n      dup1\n      dup4\n      sload\n      div\n      mul\n      dup4\n      mstore\n      swap2\n      0x20\n      add\n      swap2\n      jump(tag_50)\n    tag_51:\n      dup3\n      add\n      swap2\n      swap1\n      0x00\n      mstore\n      keccak256(0x00, 0x20)\n      swap1\n    tag_52:\n      dup2\n      sload\n      dup2\n      mstore\n      swap1\n      0x01\n      add\n      swap1\n      0x20\n      add\n      dup1\n      dup4\n      gt\n      tag_52\n      jumpi\n      dup3\n      swap1\n      sub\n      0x1f\n      and\n      dup3\n      add\n      swap2\n    tag_50:\n      pop\n      pop\n      pop\n      pop\n      pop\n      dup2\n      mstore\n      0x20\n      add\n        /* \"bootcampquiz.sol\":2080:2084  cost */\n      sload(0x04)\n        /* \"bootcampquiz.sol\":2046:2085  User(_name,_des,_pass_id,realVal ,cost) */\n      dup2\n      mstore\n      pop\n        /* \"bootcampquiz.sol\":2027:2031  data */\n      0x08\n        /* \"bootcampquiz.sol\":2027:2043  data[msg.sender] */\n      0x00\n        /* \"bootcampquiz.sol\":2032:2042  msg.sender */\n      caller\n        /* \"bootcampquiz.sol\":2027:2043  data[msg.sender] */\n      0xffffffffffffffffffffffffffffffffffffffff\n      and\n      0xffffffffffffffffffffffffffffffffffffffff\n      and\n      dup2\n      mstore\n      0x20\n      add\n      swap1\n      dup2\n      mstore\n      0x20\n      add\n      0x00\n      keccak256\n        /* \"bootcampquiz.sol\":2027:2085  data[msg.sender] = User(_name,_des,_pass_id,realVal ,cost) */\n      0x00\n      dup3\n      add\n      mload\n      dup2\n      0x00\n      add\n      swap1\n      dup1\n      mload\n      swap1\n      0x20\n      add\n      swap1\n      tag_53\n      swap3\n      swap2\n      swap1\n      tag_54\n      jump\t// in\n    tag_53:\n      pop\n      0x20\n      dup3\n      add\n      mload\n      dup2\n      0x01\n      add\n      swap1\n      dup1\n      mload\n      swap1\n      0x20\n      add\n      swap1\n      tag_55\n      swap3\n      swap2\n      swap1\n      tag_54\n      jump\t// in\n    tag_55:\n      pop\n      0x40\n      dup3\n      add\n      mload\n      dup2\n      0x02\n      add\n      sstore\n      0x60\n      dup3\n      add\n      mload\n      dup2\n      0x03\n      add\n      swap1\n      dup1\n      mload\n      swap1\n      0x20\n      add\n      swap1\n      tag_56\n      swap3\n      swap2\n      swap1\n      tag_54\n      jump\t// in\n    tag_56:\n      pop\n      0x80\n      dup3\n      add\n      mload\n      dup2\n      0x04\n      add\n      sstore\n      swap1\n      pop\n      pop\n        /* \"bootcampquiz.sol\":1872:2093  function setData(string memory _name, string memory _des, uint _pass_id) public \r... */\n      pop\n      pop\n      pop\n      jump\t// out\n        /* \"bootcampquiz.sol\":763:808  classTypes public u1= classTypes.economyClass */\n    tag_22:\n      0x09\n      0x00\n      swap1\n      sload\n      swap1\n      0x0100\n      exp\n      swap1\n      div\n      0xff\n      and\n      dup2\n      jump\t// out\n        /* \"bootcampquiz.sol\":450:476  uint public oneWei = 1 wei */\n    tag_26:\n      sload(0x05)\n      dup2\n      jump\t// out\n        /* \"bootcampquiz.sol\":1174:1513  function firstClass() public \r... */\n    tag_29:\n        /* \"bootcampquiz.sol\":1287:1308  classTypes.firstClass */\n      0x00\n        /* \"bootcampquiz.sol\":1283:1285  u1 */\n      0x09\n      0x00\n        /* \"bootcampquiz.sol\":1283:1308  u1= classTypes.firstClass */\n      0x0100\n      exp\n      dup2\n      sload\n      dup2\n      0xff\n      mul\n      not\n      and\n      swap1\n      dup4\n      0x02\n      dup2\n      gt\n      iszero\n      tag_58\n      jumpi\n      tag_59\n      tag_60\n      jump\t// in\n    tag_59:\n    tag_58:\n      mul\n      or\n      swap1\n      sstore\n      pop\n        /* \"bootcampquiz.sol\":1334:1336  u1 */\n      0x09\n      0x00\n      swap1\n      sload\n      swap1\n      0x0100\n      exp\n      swap1\n      div\n      0xff\n      and\n        /* \"bootcampquiz.sol\":1329:1337  uint(u1) */\n      0x02\n      dup2\n      gt\n      iszero\n      tag_61\n      jumpi\n      tag_62\n      tag_60\n      jump\t// in\n    tag_62:\n    tag_61:\n        /* \"bootcampquiz.sol\":1319:1326  convert */\n      0x01\n        /* \"bootcampquiz.sol\":1319:1337  convert = uint(u1) */\n      dup2\n      swap1\n      sstore\n      pop\n        /* \"bootcampquiz.sol\":1360:1361  0 */\n      0x00\n        /* \"bootcampquiz.sol\":1351:1358  convert */\n      sload(0x01)\n        /* \"bootcampquiz.sol\":1351:1361  convert==0 */\n      eq\n        /* \"bootcampquiz.sol\":1348:1482  if(convert==0)\r... */\n      iszero\n      tag_63\n      jumpi\n        /* \"bootcampquiz.sol\":1387:1410  realVal = \"First Class\" */\n      mload(0x40)\n      dup1\n      0x40\n      add\n      0x40\n      mstore\n      dup1\n      0x0b\n      dup2\n      mstore\n      0x20\n      add\n      0x466972737420436c617373000000000000000000000000000000000000000000\n      dup2\n      mstore\n      pop\n        /* \"bootcampquiz.sol\":1387:1394  realVal */\n      0x02\n        /* \"bootcampquiz.sol\":1387:1410  realVal = \"First Class\" */\n      swap1\n      dup1\n      mload\n      swap1\n      0x20\n      add\n      swap1\n      tag_64\n      swap3\n      swap2\n      swap1\n      tag_54\n      jump\t// in\n    tag_64:\n      pop\n        /* \"bootcampquiz.sol\":1441:1445  1e15 */\n      0x038d7ea4c68000\n        /* \"bootcampquiz.sol\":1432:1438  oneWei */\n      sload(0x05)\n        /* \"bootcampquiz.sol\":1432:1445  oneWei * 1e15 */\n      tag_65\n      swap2\n      swap1\n      tag_66\n      jump\t// in\n    tag_65:\n        /* \"bootcampquiz.sol\":1425:1429  cost */\n      0x04\n        /* \"bootcampquiz.sol\":1425:1445  cost = oneWei * 1e15 */\n      dup2\n      swap1\n      sstore\n      pop\n        /* \"bootcampquiz.sol\":1348:1482  if(convert==0)\r... */\n    tag_63:\n        /* \"bootcampquiz.sol\":1501:1505  true */\n      0x01\n        /* \"bootcampquiz.sol\":1492:1498  booked */\n      0x00\n      dup1\n        /* \"bootcampquiz.sol\":1492:1505  booked = true */\n      0x0100\n      exp\n      dup2\n      sload\n      dup2\n      0xff\n      mul\n      not\n      and\n      swap1\n      dup4\n      iszero\n      iszero\n      mul\n      or\n      swap1\n      sstore\n      pop\n        /* \"bootcampquiz.sol\":1174:1513  function firstClass() public \r... */\n      jump\t// out\n        /* \"bootcampquiz.sol\":817:1162  function economyClass() public \r... */\n    tag_31:\n        /* \"bootcampquiz.sol\":932:955  classTypes.economyClass */\n      0x01\n        /* \"bootcampquiz.sol\":928:930  u1 */\n      0x09\n      0x00\n        /* \"bootcampquiz.sol\":928:955  u1= classTypes.economyClass */\n      0x0100\n      exp\n      dup2\n      sload\n      dup2\n      0xff\n      mul\n      not\n      and\n      swap1\n      dup4\n      0x02\n      dup2\n      gt\n      iszero\n      tag_68\n      jumpi\n      tag_69\n      tag_60\n      jump\t// in\n    tag_69:\n    tag_68:\n      mul\n      or\n      swap1\n      sstore\n      pop\n        /* \"bootcampquiz.sol\":981:983  u1 */\n      0x09\n      0x00\n      swap1\n      sload\n      swap1\n      0x0100\n      exp\n      swap1\n      div\n      0xff\n      and\n        /* \"bootcampquiz.sol\":976:984  uint(u1) */\n      0x02\n      dup2\n      gt\n      iszero\n      tag_70\n      jumpi\n      tag_71\n      tag_60\n      jump\t// in\n    tag_71:\n    tag_70:\n        /* \"bootcampquiz.sol\":966:973  convert */\n      0x01\n        /* \"bootcampquiz.sol\":966:984  convert = uint(u1) */\n      dup2\n      swap1\n      sstore\n      pop\n        /* \"bootcampquiz.sol\":1007:1008  1 */\n      0x01\n        /* \"bootcampquiz.sol\":998:1005  convert */\n      dup1\n      sload\n        /* \"bootcampquiz.sol\":998:1008  convert==1 */\n      eq\n        /* \"bootcampquiz.sol\":995:1131  if(convert==1)\r... */\n      iszero\n      tag_72\n      jumpi\n        /* \"bootcampquiz.sol\":1034:1059  realVal = \"Economy Class\" */\n      mload(0x40)\n      dup1\n      0x40\n      add\n      0x40\n      mstore\n      dup1\n      0x0d\n      dup2\n      mstore\n      0x20\n      add\n      0x45636f6e6f6d7920436c61737300000000000000000000000000000000000000\n      dup2\n      mstore\n      pop\n        /* \"bootcampquiz.sol\":1034:1041  realVal */\n      0x02\n        /* \"bootcampquiz.sol\":1034:1059  realVal = \"Economy Class\" */\n      swap1\n      dup1\n      mload\n      swap1\n      0x20\n      add\n      swap1\n      tag_73\n      swap3\n      swap2\n      swap1\n      tag_54\n      jump\t// in\n    tag_73:\n      pop\n        /* \"bootcampquiz.sol\":1090:1094  5e14 */\n      0x01c6bf52634000\n        /* \"bootcampquiz.sol\":1081:1087  oneWei */\n      sload(0x05)\n        /* \"bootcampquiz.sol\":1081:1094  oneWei * 5e14 */\n      tag_74\n      swap2\n      swap1\n      tag_66\n      jump\t// in\n    tag_74:\n        /* \"bootcampquiz.sol\":1074:1078  cost */\n      0x04\n        /* \"bootcampquiz.sol\":1074:1094  cost = oneWei * 5e14 */\n      dup2\n      swap1\n      sstore\n      pop\n        /* \"bootcampquiz.sol\":995:1131  if(convert==1)\r... */\n    tag_72:\n        /* \"bootcampquiz.sol\":1150:1154  true */\n      0x01\n        /* \"bootcampquiz.sol\":1141:1147  booked */\n      0x00\n      dup1\n        /* \"bootcampquiz.sol\":1141:1154  booked = true */\n      0x0100\n      exp\n      dup2\n      sload\n      dup2\n      0xff\n      mul\n      not\n      and\n      swap1\n      dup4\n      iszero\n      iszero\n      mul\n      or\n      swap1\n      sstore\n      pop\n        /* \"bootcampquiz.sol\":817:1162  function economyClass() public \r... */\n      jump\t// out\n        /* \"bootcampquiz.sol\":1521:1860  function busnissClass() public {\r... */\n    tag_33:\n        /* \"bootcampquiz.sol\":1630:1653  classTypes.busnissClass */\n      0x02\n        /* \"bootcampquiz.sol\":1626:1628  u1 */\n      0x09\n      0x00\n        /* \"bootcampquiz.sol\":1626:1653  u1= classTypes.busnissClass */\n      0x0100\n      exp\n      dup2\n      sload\n      dup2\n      0xff\n      mul\n      not\n      and\n      swap1\n      dup4\n      0x02\n      dup2\n      gt\n      iszero\n      tag_76\n      jumpi\n      tag_77\n      tag_60\n      jump\t// in\n    tag_77:\n    tag_76:\n      mul\n      or\n      swap1\n      sstore\n      pop\n        /* \"bootcampquiz.sol\":1679:1681  u1 */\n      0x09\n      0x00\n      swap1\n      sload\n      swap1\n      0x0100\n      exp\n      swap1\n      div\n      0xff\n      and\n        /* \"bootcampquiz.sol\":1674:1682  uint(u1) */\n      0x02\n      dup2\n      gt\n      iszero\n      tag_78\n      jumpi\n      tag_79\n      tag_60\n      jump\t// in\n    tag_79:\n    tag_78:\n        /* \"bootcampquiz.sol\":1664:1671  convert */\n      0x01\n        /* \"bootcampquiz.sol\":1664:1682  convert = uint(u1) */\n      dup2\n      swap1\n      sstore\n      pop\n        /* \"bootcampquiz.sol\":1705:1706  2 */\n      0x02\n        /* \"bootcampquiz.sol\":1696:1703  convert */\n      sload(0x01)\n        /* \"bootcampquiz.sol\":1696:1706  convert==2 */\n      eq\n        /* \"bootcampquiz.sol\":1693:1829  if(convert==2)\r... */\n      iszero\n      tag_80\n      jumpi\n        /* \"bootcampquiz.sol\":1732:1757  realVal = \"Busniss Class\" */\n      mload(0x40)\n      dup1\n      0x40\n      add\n      0x40\n      mstore\n      dup1\n      0x0d\n      dup2\n      mstore\n      0x20\n      add\n      0x4275736e69737320436c61737300000000000000000000000000000000000000\n      dup2\n      mstore\n      pop\n        /* \"bootcampquiz.sol\":1732:1739  realVal */\n      0x02\n        /* \"bootcampquiz.sol\":1732:1757  realVal = \"Busniss Class\" */\n      swap1\n      dup1\n      mload\n      swap1\n      0x20\n      add\n      swap1\n      tag_81\n      swap3\n      swap2\n      swap1\n      tag_54\n      jump\t// in\n    tag_81:\n      pop\n        /* \"bootcampquiz.sol\":1788:1792  7e14 */\n      0x027ca57357c000\n        /* \"bootcampquiz.sol\":1779:1785  oneWei */\n      sload(0x05)\n        /* \"bootcampquiz.sol\":1779:1792  oneWei * 7e14 */\n      tag_82\n      swap2\n      swap1\n      tag_66\n      jump\t// in\n    tag_82:\n        /* \"bootcampquiz.sol\":1772:1776  cost */\n      0x04\n        /* \"bootcampquiz.sol\":1772:1792  cost = oneWei * 7e14 */\n      dup2\n      swap1\n      sstore\n      pop\n        /* \"bootcampquiz.sol\":1693:1829  if(convert==2)\r... */\n    tag_80:\n        /* \"bootcampquiz.sol\":1848:1852  true */\n      0x01\n        /* \"bootcampquiz.sol\":1839:1845  booked */\n      0x00\n      dup1\n        /* \"bootcampquiz.sol\":1839:1852  booked = true */\n      0x0100\n      exp\n      dup2\n      sload\n      dup2\n      0xff\n      mul\n      not\n      and\n      swap1\n      dup4\n      iszero\n      iszero\n      mul\n      or\n      swap1\n      sstore\n      pop\n        /* \"bootcampquiz.sol\":1521:1860  function busnissClass() public {\r... */\n      jump\t// out\n        /* \"bootcampquiz.sol\":523:556  uint public costTry = oneEth/5e14 */\n    tag_35:\n      sload(0x07)\n      dup2\n      jump\t// out\n        /* \"bootcampquiz.sol\":717:754  mapping (address => User) public data */\n    tag_40:\n      mstore(0x20, 0x08)\n      dup1\n      0x00\n      mstore\n      keccak256(0x00, 0x40)\n      0x00\n      swap2\n      pop\n      swap1\n      pop\n      dup1\n      0x00\n      add\n      dup1\n      sload\n      tag_83\n      swap1\n      tag_48\n      jump\t// in\n    tag_83:\n      dup1\n      0x1f\n      add\n      0x20\n      dup1\n      swap2\n      div\n      mul\n      0x20\n      add\n      mload(0x40)\n      swap1\n      dup2\n      add\n      0x40\n      mstore\n      dup1\n      swap3\n      swap2\n      swap1\n      dup2\n      dup2\n      mstore\n      0x20\n      add\n      dup3\n      dup1\n      sload\n      tag_84\n      swap1\n      tag_48\n      jump\t// in\n    tag_84:\n      dup1\n      iszero\n      tag_85\n      jumpi\n      dup1\n      0x1f\n      lt\n      tag_86\n      jumpi\n      0x0100\n      dup1\n      dup4\n      sload\n      div\n      mul\n      dup4\n      mstore\n      swap2\n      0x20\n      add\n      swap2\n      jump(tag_85)\n    tag_86:\n      dup3\n      add\n      swap2\n      swap1\n      0x00\n      mstore\n      keccak256(0x00, 0x20)\n      swap1\n    tag_87:\n      dup2\n      sload\n      dup2\n      mstore\n      swap1\n      0x01\n      add\n      swap1\n      0x20\n      add\n      dup1\n      dup4\n      gt\n      tag_87\n      jumpi\n      dup3\n      swap1\n      sub\n      0x1f\n      and\n      dup3\n      add\n      swap2\n    tag_85:\n      pop\n      pop\n      pop\n      pop\n      pop\n      swap1\n      dup1\n      0x01\n      add\n      dup1\n      sload\n      tag_88\n      swap1\n      tag_48\n      jump\t// in\n    tag_88:\n      dup1\n      0x1f\n      add\n      0x20\n      dup1\n      swap2\n      div\n      mul\n      0x20\n      add\n      mload(0x40)\n      swap1\n      dup2\n      add\n      0x40\n      mstore\n      dup1\n      swap3\n      swap2\n      swap1\n      dup2\n      dup2\n      mstore\n      0x20\n      add\n      dup3\n      dup1\n      sload\n      tag_89\n      swap1\n      tag_48\n      jump\t// in\n    tag_89:\n      dup1\n      iszero\n      tag_90\n      jumpi\n      dup1\n      0x1f\n      lt\n      tag_91\n      jumpi\n      0x0100\n      dup1\n      dup4\n      sload\n      div\n      mul\n      dup4\n      mstore\n      swap2\n      0x20\n      add\n      swap2\n      jump(tag_90)\n    tag_91:\n      dup3\n      add\n      swap2\n      swap1\n      0x00\n      mstore\n      keccak256(0x00, 0x20)\n      swap1\n    tag_92:\n      dup2\n      sload\n      dup2\n      mstore\n      swap1\n      0x01\n      add\n      swap1\n      0x20\n      add\n      dup1\n      dup4\n      gt\n      tag_92\n      jumpi\n      dup3\n      swap1\n      sub\n      0x1f\n      and\n      dup3\n      add\n      swap2\n    tag_90:\n      pop\n      pop\n      pop\n      pop\n      pop\n      swap1\n      dup1\n      0x02\n      add\n      sload\n      swap1\n      dup1\n      0x03\n      add\n      dup1\n      sload\n      tag_93\n      swap1\n      tag_48\n      jump\t// in\n    tag_93:\n      dup1\n      0x1f\n      add\n      0x20\n      dup1\n      swap2\n      div\n      mul\n      0x20\n      add\n      mload(0x40)\n      swap1\n      dup2\n      add\n      0x40\n      mstore\n      dup1\n      swap3\n      swap2\n      swap1\n      dup2\n      dup2\n      mstore\n      0x20\n      add\n      dup3\n      dup1\n      sload\n      tag_94\n      swap1\n      tag_48\n      jump\t// in\n    tag_94:\n      dup1\n      iszero\n      tag_95\n      jumpi\n      dup1\n      0x1f\n      lt\n      tag_96\n      jumpi\n      0x0100\n      dup1\n      dup4\n      sload\n      div\n      mul\n      dup4\n      mstore\n      swap2\n      0x20\n      add\n      swap2\n      jump(tag_95)\n    tag_96:\n      dup3\n      add\n      swap2\n      swap1\n      0x00\n      mstore\n      keccak256(0x00, 0x20)\n      swap1\n    tag_97:\n      dup2\n      sload\n      dup2\n      mstore\n      swap1\n      0x01\n      add\n      swap1\n      0x20\n      add\n      dup1\n      dup4\n      gt\n      tag_97\n      jumpi\n      dup3\n      swap1\n      sub\n      0x1f\n      and\n      dup3\n      add\n      swap2\n    tag_95:\n      pop\n      pop\n      pop\n      pop\n      pop\n      swap1\n      dup1\n      0x04\n      add\n      sload\n      swap1\n      pop\n      dup6\n      jump\t// out\n    tag_54:\n      dup3\n      dup1\n      sload\n      tag_98\n      swap1\n      tag_48\n      jump\t// in\n    tag_98:\n      swap1\n      0x00\n      mstore\n      keccak256(0x00, 0x20)\n      swap1\n      0x1f\n      add\n      0x20\n      swap1\n      div\n      dup2\n      add\n      swap3\n      dup3\n      tag_100\n      jumpi\n      0x00\n      dup6\n      sstore\n      jump(tag_99)\n    tag_100:\n      dup3\n      0x1f\n      lt\n      tag_101\n      jumpi\n      dup1\n      mload\n      not(0xff)\n      and\n      dup4\n      dup1\n      add\n      or\n      dup6\n      sstore\n      jump(tag_99)\n    tag_101:\n      dup3\n      dup1\n      add\n      0x01\n      add\n      dup6\n      sstore\n      dup3\n      iszero\n      tag_99\n      jumpi\n      swap2\n      dup3\n      add\n    tag_102:\n      dup3\n      dup2\n      gt\n      iszero\n      tag_103\n      jumpi\n      dup3\n      mload\n      dup3\n      sstore\n      swap2\n      0x20\n      add\n      swap2\n      swap1\n      0x01\n      add\n      swap1\n      jump(tag_102)\n    tag_103:\n    tag_99:\n      pop\n      swap1\n      pop\n      tag_104\n      swap2\n      swap1\n      tag_105\n      jump\t// in\n    tag_104:\n      pop\n      swap1\n      jump\t// out\n    tag_105:\n    tag_106:\n      dup1\n      dup3\n      gt\n      iszero\n      tag_107\n      jumpi\n      0x00\n      dup2\n      0x00\n      swap1\n      sstore\n      pop\n      0x01\n      add\n      jump(tag_106)\n    tag_107:\n      pop\n      swap1\n      jump\t// out\n        /* \"#utility.yul\":7:419   */\n    tag_109:\n        /* \"#utility.yul\":85:90   */\n      0x00\n        /* \"#utility.yul\":110:176   */\n      tag_111\n        /* \"#utility.yul\":126:175   */\n      tag_112\n        /* \"#utility.yul\":168:174   */\n      dup5\n        /* \"#utility.yul\":126:175   */\n      tag_113\n      jump\t// in\n    tag_112:\n        /* \"#utility.yul\":110:176   */\n      tag_114\n      jump\t// in\n    tag_111:\n        /* \"#utility.yul\":101:176   */\n      swap1\n      pop\n        /* \"#utility.yul\":199:205   */\n      dup3\n        /* \"#utility.yul\":192:197   */\n      dup2\n        /* \"#utility.yul\":185:206   */\n      mstore\n        /* \"#utility.yul\":237:241   */\n      0x20\n        /* \"#utility.yul\":230:235   */\n      dup2\n        /* \"#utility.yul\":226:242   */\n      add\n        /* \"#utility.yul\":275:278   */\n      dup5\n        /* \"#utility.yul\":266:272   */\n      dup5\n        /* \"#utility.yul\":261:264   */\n      dup5\n        /* \"#utility.yul\":257:273   */\n      add\n        /* \"#utility.yul\":254:279   */\n      gt\n        /* \"#utility.yul\":251:363   */\n      iszero\n      tag_115\n      jumpi\n        /* \"#utility.yul\":282:361   */\n      tag_116\n      tag_117\n      jump\t// in\n    tag_116:\n        /* \"#utility.yul\":251:363   */\n    tag_115:\n        /* \"#utility.yul\":372:413   */\n      tag_118\n        /* \"#utility.yul\":406:412   */\n      dup5\n        /* \"#utility.yul\":401:404   */\n      dup3\n        /* \"#utility.yul\":396:399   */\n      dup6\n        /* \"#utility.yul\":372:413   */\n      tag_119\n      jump\t// in\n    tag_118:\n        /* \"#utility.yul\":91:419   */\n      pop\n        /* \"#utility.yul\":7:419   */\n      swap4\n      swap3\n      pop\n      pop\n      pop\n      jump\t// out\n        /* \"#utility.yul\":425:564   */\n    tag_120:\n        /* \"#utility.yul\":471:476   */\n      0x00\n        /* \"#utility.yul\":509:515   */\n      dup2\n        /* \"#utility.yul\":496:516   */\n      calldataload\n        /* \"#utility.yul\":487:516   */\n      swap1\n      pop\n        /* \"#utility.yul\":525:558   */\n      tag_122\n        /* \"#utility.yul\":552:557   */\n      dup2\n        /* \"#utility.yul\":525:558   */\n      tag_123\n      jump\t// in\n    tag_122:\n        /* \"#utility.yul\":425:564   */\n      swap3\n      swap2\n      pop\n      pop\n      jump\t// out\n        /* \"#utility.yul\":584:924   */\n    tag_124:\n        /* \"#utility.yul\":640:645   */\n      0x00\n        /* \"#utility.yul\":689:692   */\n      dup3\n        /* \"#utility.yul\":682:686   */\n      0x1f\n        /* \"#utility.yul\":674:680   */\n      dup4\n        /* \"#utility.yul\":670:687   */\n      add\n        /* \"#utility.yul\":666:693   */\n      slt\n        /* \"#utility.yul\":656:778   */\n      tag_126\n      jumpi\n        /* \"#utility.yul\":697:776   */\n      tag_127\n      tag_128\n      jump\t// in\n    tag_127:\n        /* \"#utility.yul\":656:778   */\n    tag_126:\n        /* \"#utility.yul\":814:820   */\n      dup2\n        /* \"#utility.yul\":801:821   */\n      calldataload\n        /* \"#utility.yul\":839:918   */\n      tag_129\n        /* \"#utility.yul\":914:917   */\n      dup5\n        /* \"#utility.yul\":906:912   */\n      dup3\n        /* \"#utility.yul\":899:903   */\n      0x20\n        /* \"#utility.yul\":891:897   */\n      dup7\n        /* \"#utility.yul\":887:904   */\n      add\n        /* \"#utility.yul\":839:918   */\n      tag_109\n      jump\t// in\n    tag_129:\n        /* \"#utility.yul\":830:918   */\n      swap2\n      pop\n        /* \"#utility.yul\":646:924   */\n      pop\n        /* \"#utility.yul\":584:924   */\n      swap3\n      swap2\n      pop\n      pop\n      jump\t// out\n        /* \"#utility.yul\":930:1069   */\n    tag_130:\n        /* \"#utility.yul\":976:981   */\n      0x00\n        /* \"#utility.yul\":1014:1020   */\n      dup2\n        /* \"#utility.yul\":1001:1021   */\n      calldataload\n        /* \"#utility.yul\":992:1021   */\n      swap1\n      pop\n        /* \"#utility.yul\":1030:1063   */\n      tag_132\n        /* \"#utility.yul\":1057:1062   */\n      dup2\n        /* \"#utility.yul\":1030:1063   */\n      tag_133\n      jump\t// in\n    tag_132:\n        /* \"#utility.yul\":930:1069   */\n      swap3\n      swap2\n      pop\n      pop\n      jump\t// out\n        /* \"#utility.yul\":1075:1404   */\n    tag_39:\n        /* \"#utility.yul\":1134:1140   */\n      0x00\n        /* \"#utility.yul\":1183:1185   */\n      0x20\n        /* \"#utility.yul\":1171:1180   */\n      dup3\n        /* \"#utility.yul\":1162:1169   */\n      dup5\n        /* \"#utility.yul\":1158:1181   */\n      sub\n        /* \"#utility.yul\":1154:1186   */\n      slt\n        /* \"#utility.yul\":1151:1270   */\n      iszero\n      tag_135\n      jumpi\n        /* \"#utility.yul\":1189:1268   */\n      tag_136\n      tag_137\n      jump\t// in\n    tag_136:\n        /* \"#utility.yul\":1151:1270   */\n    tag_135:\n        /* \"#utility.yul\":1309:1310   */\n      0x00\n        /* \"#utility.yul\":1334:1387   */\n      tag_138\n        /* \"#utility.yul\":1379:1386   */\n      dup5\n        /* \"#utility.yul\":1370:1376   */\n      dup3\n        /* \"#utility.yul\":1359:1368   */\n      dup6\n        /* \"#utility.yul\":1355:1377   */\n      add\n        /* \"#utility.yul\":1334:1387   */\n      tag_120\n      jump\t// in\n    tag_138:\n        /* \"#utility.yul\":1324:1387   */\n      swap2\n      pop\n        /* \"#utility.yul\":1280:1397   */\n      pop\n        /* \"#utility.yul\":1075:1404   */\n      swap3\n      swap2\n      pop\n      pop\n      jump\t// out\n        /* \"#utility.yul\":1410:2389   */\n    tag_19:\n        /* \"#utility.yul\":1507:1513   */\n      0x00\n        /* \"#utility.yul\":1515:1521   */\n      dup1\n        /* \"#utility.yul\":1523:1529   */\n      0x00\n        /* \"#utility.yul\":1572:1574   */\n      0x60\n        /* \"#utility.yul\":1560:1569   */\n      dup5\n        /* \"#utility.yul\":1551:1558   */\n      dup7\n        /* \"#utility.yul\":1547:1570   */\n      sub\n        /* \"#utility.yul\":1543:1575   */\n      slt\n        /* \"#utility.yul\":1540:1659   */\n      iszero\n      tag_140\n      jumpi\n        /* \"#utility.yul\":1578:1657   */\n      tag_141\n      tag_137\n      jump\t// in\n    tag_141:\n        /* \"#utility.yul\":1540:1659   */\n    tag_140:\n        /* \"#utility.yul\":1726:1727   */\n      0x00\n        /* \"#utility.yul\":1715:1724   */\n      dup5\n        /* \"#utility.yul\":1711:1728   */\n      add\n        /* \"#utility.yul\":1698:1729   */\n      calldataload\n        /* \"#utility.yul\":1756:1774   */\n      0xffffffffffffffff\n        /* \"#utility.yul\":1748:1754   */\n      dup2\n        /* \"#utility.yul\":1745:1775   */\n      gt\n        /* \"#utility.yul\":1742:1859   */\n      iszero\n      tag_142\n      jumpi\n        /* \"#utility.yul\":1778:1857   */\n      tag_143\n      tag_144\n      jump\t// in\n    tag_143:\n        /* \"#utility.yul\":1742:1859   */\n    tag_142:\n        /* \"#utility.yul\":1883:1946   */\n      tag_145\n        /* \"#utility.yul\":1938:1945   */\n      dup7\n        /* \"#utility.yul\":1929:1935   */\n      dup3\n        /* \"#utility.yul\":1918:1927   */\n      dup8\n        /* \"#utility.yul\":1914:1936   */\n      add\n        /* \"#utility.yul\":1883:1946   */\n      tag_124\n      jump\t// in\n    tag_145:\n        /* \"#utility.yul\":1873:1946   */\n      swap4\n      pop\n        /* \"#utility.yul\":1669:1956   */\n      pop\n        /* \"#utility.yul\":2023:2025   */\n      0x20\n        /* \"#utility.yul\":2012:2021   */\n      dup5\n        /* \"#utility.yul\":2008:2026   */\n      add\n        /* \"#utility.yul\":1995:2027   */\n      calldataload\n        /* \"#utility.yul\":2054:2072   */\n      0xffffffffffffffff\n        /* \"#utility.yul\":2046:2052   */\n      dup2\n        /* \"#utility.yul\":2043:2073   */\n      gt\n        /* \"#utility.yul\":2040:2157   */\n      iszero\n      tag_146\n      jumpi\n        /* \"#utility.yul\":2076:2155   */\n      tag_147\n      tag_144\n      jump\t// in\n    tag_147:\n        /* \"#utility.yul\":2040:2157   */\n    tag_146:\n        /* \"#utility.yul\":2181:2244   */\n      tag_148\n        /* \"#utility.yul\":2236:2243   */\n      dup7\n        /* \"#utility.yul\":2227:2233   */\n      dup3\n        /* \"#utility.yul\":2216:2225   */\n      dup8\n        /* \"#utility.yul\":2212:2234   */\n      add\n        /* \"#utility.yul\":2181:2244   */\n      tag_124\n      jump\t// in\n    tag_148:\n        /* \"#utility.yul\":2171:2244   */\n      swap3\n      pop\n        /* \"#utility.yul\":1966:2254   */\n      pop\n        /* \"#utility.yul\":2293:2295   */\n      0x40\n        /* \"#utility.yul\":2319:2372   */\n      tag_149\n        /* \"#utility.yul\":2364:2371   */\n      dup7\n        /* \"#utility.yul\":2355:2361   */\n      dup3\n        /* \"#utility.yul\":2344:2353   */\n      dup8\n        /* \"#utility.yul\":2340:2362   */\n      add\n        /* \"#utility.yul\":2319:2372   */\n      tag_130\n      jump\t// in\n    tag_149:\n        /* \"#utility.yul\":2309:2372   */\n      swap2\n      pop\n        /* \"#utility.yul\":2264:2382   */\n      pop\n        /* \"#utility.yul\":1410:2389   */\n      swap3\n      pop\n      swap3\n      pop\n      swap3\n      jump\t// out\n        /* \"#utility.yul\":2395:2548   */\n    tag_150:\n        /* \"#utility.yul\":2493:2541   */\n      tag_152\n        /* \"#utility.yul\":2535:2540   */\n      dup2\n        /* \"#utility.yul\":2493:2541   */\n      tag_153\n      jump\t// in\n    tag_152:\n        /* \"#utility.yul\":2488:2491   */\n      dup3\n        /* \"#utility.yul\":2481:2542   */\n      mstore\n        /* \"#utility.yul\":2395:2548   */\n      pop\n      pop\n      jump\t// out\n        /* \"#utility.yul\":2554:2918   */\n    tag_154:\n        /* \"#utility.yul\":2642:2645   */\n      0x00\n        /* \"#utility.yul\":2670:2709   */\n      tag_156\n        /* \"#utility.yul\":2703:2708   */\n      dup3\n        /* \"#utility.yul\":2670:2709   */\n      tag_157\n      jump\t// in\n    tag_156:\n        /* \"#utility.yul\":2725:2796   */\n      tag_158\n        /* \"#utility.yul\":2789:2795   */\n      dup2\n        /* \"#utility.yul\":2784:2787   */\n      dup6\n        /* \"#utility.yul\":2725:2796   */\n      tag_159\n      jump\t// in\n    tag_158:\n        /* \"#utility.yul\":2718:2796   */\n      swap4\n      pop\n        /* \"#utility.yul\":2805:2857   */\n      tag_160\n        /* \"#utility.yul\":2850:2856   */\n      dup2\n        /* \"#utility.yul\":2845:2848   */\n      dup6\n        /* \"#utility.yul\":2838:2842   */\n      0x20\n        /* \"#utility.yul\":2831:2836   */\n      dup7\n        /* \"#utility.yul\":2827:2843   */\n      add\n        /* \"#utility.yul\":2805:2857   */\n      tag_161\n      jump\t// in\n    tag_160:\n        /* \"#utility.yul\":2882:2911   */\n      tag_162\n        /* \"#utility.yul\":2904:2910   */\n      dup2\n        /* \"#utility.yul\":2882:2911   */\n      tag_163\n      jump\t// in\n    tag_162:\n        /* \"#utility.yul\":2877:2880   */\n      dup5\n        /* \"#utility.yul\":2873:2912   */\n      add\n        /* \"#utility.yul\":2866:2912   */\n      swap2\n      pop\n        /* \"#utility.yul\":2646:2918   */\n      pop\n        /* \"#utility.yul\":2554:2918   */\n      swap3\n      swap2\n      pop\n      pop\n      jump\t// out\n        /* \"#utility.yul\":2924:3290   */\n    tag_164:\n        /* \"#utility.yul\":3066:3069   */\n      0x00\n        /* \"#utility.yul\":3087:3154   */\n      tag_166\n        /* \"#utility.yul\":3151:3153   */\n      0x1d\n        /* \"#utility.yul\":3146:3149   */\n      dup4\n        /* \"#utility.yul\":3087:3154   */\n      tag_159\n      jump\t// in\n    tag_166:\n        /* \"#utility.yul\":3080:3154   */\n      swap2\n      pop\n        /* \"#utility.yul\":3163:3256   */\n      tag_167\n        /* \"#utility.yul\":3252:3255   */\n      dup3\n        /* \"#utility.yul\":3163:3256   */\n      tag_168\n      jump\t// in\n    tag_167:\n        /* \"#utility.yul\":3281:3283   */\n      0x20\n        /* \"#utility.yul\":3276:3279   */\n      dup3\n        /* \"#utility.yul\":3272:3284   */\n      add\n        /* \"#utility.yul\":3265:3284   */\n      swap1\n      pop\n        /* \"#utility.yul\":2924:3290   */\n      swap2\n      swap1\n      pop\n      jump\t// out\n        /* \"#utility.yul\":3296:3414   */\n    tag_169:\n        /* \"#utility.yul\":3383:3407   */\n      tag_171\n        /* \"#utility.yul\":3401:3406   */\n      dup2\n        /* \"#utility.yul\":3383:3407   */\n      tag_172\n      jump\t// in\n    tag_171:\n        /* \"#utility.yul\":3378:3381   */\n      dup3\n        /* \"#utility.yul\":3371:3408   */\n      mstore\n        /* \"#utility.yul\":3296:3414   */\n      pop\n      pop\n      jump\t// out\n        /* \"#utility.yul\":3420:3664   */\n    tag_24:\n        /* \"#utility.yul\":3524:3528   */\n      0x00\n        /* \"#utility.yul\":3562:3564   */\n      0x20\n        /* \"#utility.yul\":3551:3560   */\n      dup3\n        /* \"#utility.yul\":3547:3565   */\n      add\n        /* \"#utility.yul\":3539:3565   */\n      swap1\n      pop\n        /* \"#utility.yul\":3575:3657   */\n      tag_174\n        /* \"#utility.yul\":3654:3655   */\n      0x00\n        /* \"#utility.yul\":3643:3652   */\n      dup4\n        /* \"#utility.yul\":3639:3656   */\n      add\n        /* \"#utility.yul\":3630:3636   */\n      dup5\n        /* \"#utility.yul\":3575:3657   */\n      tag_150\n      jump\t// in\n    tag_174:\n        /* \"#utility.yul\":3420:3664   */\n      swap3\n      swap2\n      pop\n      pop\n      jump\t// out\n        /* \"#utility.yul\":3670:4607   */\n    tag_42:\n        /* \"#utility.yul\":3935:3939   */\n      0x00\n        /* \"#utility.yul\":3973:3976   */\n      0xa0\n        /* \"#utility.yul\":3962:3971   */\n      dup3\n        /* \"#utility.yul\":3958:3977   */\n      add\n        /* \"#utility.yul\":3950:3977   */\n      swap1\n      pop\n        /* \"#utility.yul\":4023:4032   */\n      dup2\n        /* \"#utility.yul\":4017:4021   */\n      dup2\n        /* \"#utility.yul\":4013:4033   */\n      sub\n        /* \"#utility.yul\":4009:4010   */\n      0x00\n        /* \"#utility.yul\":3998:4007   */\n      dup4\n        /* \"#utility.yul\":3994:4011   */\n      add\n        /* \"#utility.yul\":3987:4034   */\n      mstore\n        /* \"#utility.yul\":4051:4129   */\n      tag_176\n        /* \"#utility.yul\":4124:4128   */\n      dup2\n        /* \"#utility.yul\":4115:4121   */\n      dup9\n        /* \"#utility.yul\":4051:4129   */\n      tag_154\n      jump\t// in\n    tag_176:\n        /* \"#utility.yul\":4043:4129   */\n      swap1\n      pop\n        /* \"#utility.yul\":4176:4185   */\n      dup2\n        /* \"#utility.yul\":4170:4174   */\n      dup2\n        /* \"#utility.yul\":4166:4186   */\n      sub\n        /* \"#utility.yul\":4161:4163   */\n      0x20\n        /* \"#utility.yul\":4150:4159   */\n      dup4\n        /* \"#utility.yul\":4146:4164   */\n      add\n        /* \"#utility.yul\":4139:4187   */\n      mstore\n        /* \"#utility.yul\":4204:4282   */\n      tag_177\n        /* \"#utility.yul\":4277:4281   */\n      dup2\n        /* \"#utility.yul\":4268:4274   */\n      dup8\n        /* \"#utility.yul\":4204:4282   */\n      tag_154\n      jump\t// in\n    tag_177:\n        /* \"#utility.yul\":4196:4282   */\n      swap1\n      pop\n        /* \"#utility.yul\":4292:4364   */\n      tag_178\n        /* \"#utility.yul\":4360:4362   */\n      0x40\n        /* \"#utility.yul\":4349:4358   */\n      dup4\n        /* \"#utility.yul\":4345:4363   */\n      add\n        /* \"#utility.yul\":4336:4342   */\n      dup7\n        /* \"#utility.yul\":4292:4364   */\n      tag_169\n      jump\t// in\n    tag_178:\n        /* \"#utility.yul\":4411:4420   */\n      dup2\n        /* \"#utility.yul\":4405:4409   */\n      dup2\n        /* \"#utility.yul\":4401:4421   */\n      sub\n        /* \"#utility.yul\":4396:4398   */\n      0x60\n        /* \"#utility.yul\":4385:4394   */\n      dup4\n        /* \"#utility.yul\":4381:4399   */\n      add\n        /* \"#utility.yul\":4374:4422   */\n      mstore\n        /* \"#utility.yul\":4439:4517   */\n      tag_179\n        /* \"#utility.yul\":4512:4516   */\n      dup2\n        /* \"#utility.yul\":4503:4509   */\n      dup6\n        /* \"#utility.yul\":4439:4517   */\n      tag_154\n      jump\t// in\n    tag_179:\n        /* \"#utility.yul\":4431:4517   */\n      swap1\n      pop\n        /* \"#utility.yul\":4527:4600   */\n      tag_180\n        /* \"#utility.yul\":4595:4598   */\n      0x80\n        /* \"#utility.yul\":4584:4593   */\n      dup4\n        /* \"#utility.yul\":4580:4599   */\n      add\n        /* \"#utility.yul\":4571:4577   */\n      dup5\n        /* \"#utility.yul\":4527:4600   */\n      tag_169\n      jump\t// in\n    tag_180:\n        /* \"#utility.yul\":3670:4607   */\n      swap7\n      swap6\n      pop\n      pop\n      pop\n      pop\n      pop\n      pop\n      jump\t// out\n        /* \"#utility.yul\":4613:5032   */\n    tag_46:\n        /* \"#utility.yul\":4779:4783   */\n      0x00\n        /* \"#utility.yul\":4817:4819   */\n      0x20\n        /* \"#utility.yul\":4806:4815   */\n      dup3\n        /* \"#utility.yul\":4802:4820   */\n      add\n        /* \"#utility.yul\":4794:4820   */\n      swap1\n      pop\n        /* \"#utility.yul\":4866:4875   */\n      dup2\n        /* \"#utility.yul\":4860:4864   */\n      dup2\n        /* \"#utility.yul\":4856:4876   */\n      sub\n        /* \"#utility.yul\":4852:4853   */\n      0x00\n        /* \"#utility.yul\":4841:4850   */\n      dup4\n        /* \"#utility.yul\":4837:4854   */\n      add\n        /* \"#utility.yul\":4830:4877   */\n      mstore\n        /* \"#utility.yul\":4894:5025   */\n      tag_182\n        /* \"#utility.yul\":5020:5024   */\n      dup2\n        /* \"#utility.yul\":4894:5025   */\n      tag_164\n      jump\t// in\n    tag_182:\n        /* \"#utility.yul\":4886:5025   */\n      swap1\n      pop\n        /* \"#utility.yul\":4613:5032   */\n      swap2\n      swap1\n      pop\n      jump\t// out\n        /* \"#utility.yul\":5038:5260   */\n    tag_16:\n        /* \"#utility.yul\":5131:5135   */\n      0x00\n        /* \"#utility.yul\":5169:5171   */\n      0x20\n        /* \"#utility.yul\":5158:5167   */\n      dup3\n        /* \"#utility.yul\":5154:5172   */\n      add\n        /* \"#utility.yul\":5146:5172   */\n      swap1\n      pop\n        /* \"#utility.yul\":5182:5253   */\n      tag_184\n        /* \"#utility.yul\":5250:5251   */\n      0x00\n        /* \"#utility.yul\":5239:5248   */\n      dup4\n        /* \"#utility.yul\":5235:5252   */\n      add\n        /* \"#utility.yul\":5226:5232   */\n      dup5\n        /* \"#utility.yul\":5182:5253   */\n      tag_169\n      jump\t// in\n    tag_184:\n        /* \"#utility.yul\":5038:5260   */\n      swap3\n      swap2\n      pop\n      pop\n      jump\t// out\n        /* \"#utility.yul\":5266:5395   */\n    tag_114:\n        /* \"#utility.yul\":5300:5306   */\n      0x00\n        /* \"#utility.yul\":5327:5347   */\n      tag_186\n      tag_187\n      jump\t// in\n    tag_186:\n        /* \"#utility.yul\":5317:5347   */\n      swap1\n      pop\n        /* \"#utility.yul\":5356:5389   */\n      tag_188\n        /* \"#utility.yul\":5384:5388   */\n      dup3\n        /* \"#utility.yul\":5376:5382   */\n      dup3\n        /* \"#utility.yul\":5356:5389   */\n      tag_189\n      jump\t// in\n    tag_188:\n        /* \"#utility.yul\":5266:5395   */\n      swap2\n      swap1\n      pop\n      jump\t// out\n        /* \"#utility.yul\":5401:5476   */\n    tag_187:\n        /* \"#utility.yul\":5434:5440   */\n      0x00\n        /* \"#utility.yul\":5467:5469   */\n      0x40\n        /* \"#utility.yul\":5461:5470   */\n      mload\n        /* \"#utility.yul\":5451:5470   */\n      swap1\n      pop\n        /* \"#utility.yul\":5401:5476   */\n      swap1\n      jump\t// out\n        /* \"#utility.yul\":5482:5790   */\n    tag_113:\n        /* \"#utility.yul\":5544:5548   */\n      0x00\n        /* \"#utility.yul\":5634:5652   */\n      0xffffffffffffffff\n        /* \"#utility.yul\":5626:5632   */\n      dup3\n        /* \"#utility.yul\":5623:5653   */\n      gt\n        /* \"#utility.yul\":5620:5676   */\n      iszero\n      tag_192\n      jumpi\n        /* \"#utility.yul\":5656:5674   */\n      tag_193\n      tag_194\n      jump\t// in\n    tag_193:\n        /* \"#utility.yul\":5620:5676   */\n    tag_192:\n        /* \"#utility.yul\":5694:5723   */\n      tag_195\n        /* \"#utility.yul\":5716:5722   */\n      dup3\n        /* \"#utility.yul\":5694:5723   */\n      tag_163\n      jump\t// in\n    tag_195:\n        /* \"#utility.yul\":5686:5723   */\n      swap1\n      pop\n        /* \"#utility.yul\":5778:5782   */\n      0x20\n        /* \"#utility.yul\":5772:5776   */\n      dup2\n        /* \"#utility.yul\":5768:5783   */\n      add\n        /* \"#utility.yul\":5760:5783   */\n      swap1\n      pop\n        /* \"#utility.yul\":5482:5790   */\n      swap2\n      swap1\n      pop\n      jump\t// out\n        /* \"#utility.yul\":5796:5895   */\n    tag_157:\n        /* \"#utility.yul\":5848:5854   */\n      0x00\n        /* \"#utility.yul\":5882:5887   */\n      dup2\n        /* \"#utility.yul\":5876:5888   */\n      mload\n        /* \"#utility.yul\":5866:5888   */\n      swap1\n      pop\n        /* \"#utility.yul\":5796:5895   */\n      swap2\n      swap1\n      pop\n      jump\t// out\n        /* \"#utility.yul\":5901:6070   */\n    tag_159:\n        /* \"#utility.yul\":5985:5996   */\n      0x00\n        /* \"#utility.yul\":6019:6025   */\n      dup3\n        /* \"#utility.yul\":6014:6017   */\n      dup3\n        /* \"#utility.yul\":6007:6026   */\n      mstore\n        /* \"#utility.yul\":6059:6063   */\n      0x20\n        /* \"#utility.yul\":6054:6057   */\n      dup3\n        /* \"#utility.yul\":6050:6064   */\n      add\n        /* \"#utility.yul\":6035:6064   */\n      swap1\n      pop\n        /* \"#utility.yul\":5901:6070   */\n      swap3\n      swap2\n      pop\n      pop\n      jump\t// out\n        /* \"#utility.yul\":6076:6424   */\n    tag_66:\n        /* \"#utility.yul\":6116:6123   */\n      0x00\n        /* \"#utility.yul\":6139:6159   */\n      tag_199\n        /* \"#utility.yul\":6157:6158   */\n      dup3\n        /* \"#utility.yul\":6139:6159   */\n      tag_172\n      jump\t// in\n    tag_199:\n        /* \"#utility.yul\":6134:6159   */\n      swap2\n      pop\n        /* \"#utility.yul\":6173:6193   */\n      tag_200\n        /* \"#utility.yul\":6191:6192   */\n      dup4\n        /* \"#utility.yul\":6173:6193   */\n      tag_172\n      jump\t// in\n    tag_200:\n        /* \"#utility.yul\":6168:6193   */\n      swap3\n      pop\n        /* \"#utility.yul\":6361:6362   */\n      dup2\n        /* \"#utility.yul\":6293:6359   */\n      0xffffffffffffffffffffffffffffffffffffffffffffffffffffffffffffffff\n        /* \"#utility.yul\":6289:6363   */\n      div\n        /* \"#utility.yul\":6286:6287   */\n      dup4\n        /* \"#utility.yul\":6283:6364   */\n      gt\n        /* \"#utility.yul\":6278:6279   */\n      dup3\n        /* \"#utility.yul\":6271:6280   */\n      iszero\n        /* \"#utility.yul\":6264:6281   */\n      iszero\n        /* \"#utility.yul\":6260:6365   */\n      and\n        /* \"#utility.yul\":6257:6388   */\n      iszero\n      tag_201\n      jumpi\n        /* \"#utility.yul\":6368:6386   */\n      tag_202\n      tag_203\n      jump\t// in\n    tag_202:\n        /* \"#utility.yul\":6257:6388   */\n    tag_201:\n        /* \"#utility.yul\":6416:6417   */\n      dup3\n        /* \"#utility.yul\":6413:6414   */\n      dup3\n        /* \"#utility.yul\":6409:6418   */\n      mul\n        /* \"#utility.yul\":6398:6418   */\n      swap1\n      pop\n        /* \"#utility.yul\":6076:6424   */\n      swap3\n      swap2\n      pop\n      pop\n      jump\t// out\n        /* \"#utility.yul\":6430:6526   */\n    tag_204:\n        /* \"#utility.yul\":6467:6474   */\n      0x00\n        /* \"#utility.yul\":6496:6520   */\n      tag_206\n        /* \"#utility.yul\":6514:6519   */\n      dup3\n        /* \"#utility.yul\":6496:6520   */\n      tag_207\n      jump\t// in\n    tag_206:\n        /* \"#utility.yul\":6485:6520   */\n      swap1\n      pop\n        /* \"#utility.yul\":6430:6526   */\n      swap2\n      swap1\n      pop\n      jump\t// out\n        /* \"#utility.yul\":6532:6669   */\n    tag_208:\n        /* \"#utility.yul\":6582:6589   */\n      0x00\n        /* \"#utility.yul\":6611:6616   */\n      dup2\n        /* \"#utility.yul\":6600:6616   */\n      swap1\n      pop\n        /* \"#utility.yul\":6617:6663   */\n      tag_210\n        /* \"#utility.yul\":6657:6662   */\n      dup3\n        /* \"#utility.yul\":6617:6663   */\n      tag_211\n      jump\t// in\n    tag_210:\n        /* \"#utility.yul\":6532:6669   */\n      swap2\n      swap1\n      pop\n      jump\t// out\n        /* \"#utility.yul\":6675:6801   */\n    tag_207:\n        /* \"#utility.yul\":6712:6719   */\n      0x00\n        /* \"#utility.yul\":6752:6794   */\n      0xffffffffffffffffffffffffffffffffffffffff\n        /* \"#utility.yul\":6745:6750   */\n      dup3\n        /* \"#utility.yul\":6741:6795   */\n      and\n        /* \"#utility.yul\":6730:6795   */\n      swap1\n      pop\n        /* \"#utility.yul\":6675:6801   */\n      swap2\n      swap1\n      pop\n      jump\t// out\n        /* \"#utility.yul\":6807:6884   */\n    tag_172:\n        /* \"#utility.yul\":6844:6851   */\n      0x00\n        /* \"#utility.yul\":6873:6878   */\n      dup2\n        /* \"#utility.yul\":6862:6878   */\n      swap1\n      pop\n        /* \"#utility.yul\":6807:6884   */\n      swap2\n      swap1\n      pop\n      jump\t// out\n        /* \"#utility.yul\":6890:7027   */\n    tag_153:\n        /* \"#utility.yul\":6951:6960   */\n      0x00\n        /* \"#utility.yul\":6984:7021   */\n      tag_215\n        /* \"#utility.yul\":7015:7020   */\n      dup3\n        /* \"#utility.yul\":6984:7021   */\n      tag_208\n      jump\t// in\n    tag_215:\n        /* \"#utility.yul\":6971:7021   */\n      swap1\n      pop\n        /* \"#utility.yul\":6890:7027   */\n      swap2\n      swap1\n      pop\n      jump\t// out\n        /* \"#utility.yul\":7033:7187   */\n    tag_119:\n        /* \"#utility.yul\":7117:7123   */\n      dup3\n        /* \"#utility.yul\":7112:7115   */\n      dup2\n        /* \"#utility.yul\":7107:7110   */\n      dup4\n        /* \"#utility.yul\":7094:7124   */\n      calldatacopy\n        /* \"#utility.yul\":7179:7180   */\n      0x00\n        /* \"#utility.yul\":7170:7176   */\n      dup4\n        /* \"#utility.yul\":7165:7168   */\n      dup4\n        /* \"#utility.yul\":7161:7177   */\n      add\n        /* \"#utility.yul\":7154:7181   */\n      mstore\n        /* \"#utility.yul\":7033:7187   */\n      pop\n      pop\n      pop\n      jump\t// out\n        /* \"#utility.yul\":7193:7500   */\n    tag_161:\n        /* \"#utility.yul\":7261:7262   */\n      0x00\n        /* \"#utility.yul\":7271:7384   */\n    tag_218:\n        /* \"#utility.yul\":7285:7291   */\n      dup4\n        /* \"#utility.yul\":7282:7283   */\n      dup2\n        /* \"#utility.yul\":7279:7292   */\n      lt\n        /* \"#utility.yul\":7271:7384   */\n      iszero\n      tag_220\n      jumpi\n        /* \"#utility.yul\":7370:7371   */\n      dup1\n        /* \"#utility.yul\":7365:7368   */\n      dup3\n        /* \"#utility.yul\":7361:7372   */\n      add\n        /* \"#utility.yul\":7355:7373   */\n      mload\n        /* \"#utility.yul\":7351:7352   */\n      dup2\n        /* \"#utility.yul\":7346:7349   */\n      dup5\n        /* \"#utility.yul\":7342:7353   */\n      add\n        /* \"#utility.yul\":7335:7374   */\n      mstore\n        /* \"#utility.yul\":7307:7309   */\n      0x20\n        /* \"#utility.yul\":7304:7305   */\n      dup2\n        /* \"#utility.yul\":7300:7310   */\n      add\n        /* \"#utility.yul\":7295:7310   */\n      swap1\n      pop\n        /* \"#utility.yul\":7271:7384   */\n      jump(tag_218)\n    tag_220:\n        /* \"#utility.yul\":7402:7408   */\n      dup4\n        /* \"#utility.yul\":7399:7400   */\n      dup2\n        /* \"#utility.yul\":7396:7409   */\n      gt\n        /* \"#utility.yul\":7393:7494   */\n      iszero\n      tag_221\n      jumpi\n        /* \"#utility.yul\":7482:7483   */\n      0x00\n        /* \"#utility.yul\":7473:7479   */\n      dup5\n        /* \"#utility.yul\":7468:7471   */\n      dup5\n        /* \"#utility.yul\":7464:7480   */\n      add\n        /* \"#utility.yul\":7457:7484   */\n      mstore\n        /* \"#utility.yul\":7393:7494   */\n    tag_221:\n        /* \"#utility.yul\":7242:7500   */\n      pop\n        /* \"#utility.yul\":7193:7500   */\n      pop\n      pop\n      pop\n      jump\t// out\n        /* \"#utility.yul\":7506:7826   */\n    tag_48:\n        /* \"#utility.yul\":7550:7556   */\n      0x00\n        /* \"#utility.yul\":7587:7588   */\n      0x02\n        /* \"#utility.yul\":7581:7585   */\n      dup3\n        /* \"#utility.yul\":7577:7589   */\n      div\n        /* \"#utility.yul\":7567:7589   */\n      swap1\n      pop\n        /* \"#utility.yul\":7634:7635   */\n      0x01\n        /* \"#utility.yul\":7628:7632   */\n      dup3\n        /* \"#utility.yul\":7624:7636   */\n      and\n        /* \"#utility.yul\":7655:7673   */\n      dup1\n        /* \"#utility.yul\":7645:7726   */\n      tag_223\n      jumpi\n        /* \"#utility.yul\":7711:7715   */\n      0x7f\n        /* \"#utility.yul\":7703:7709   */\n      dup3\n        /* \"#utility.yul\":7699:7716   */\n      and\n        /* \"#utility.yul\":7689:7716   */\n      swap2\n      pop\n        /* \"#utility.yul\":7645:7726   */\n    tag_223:\n        /* \"#utility.yul\":7773:7775   */\n      0x20\n        /* \"#utility.yul\":7765:7771   */\n      dup3\n        /* \"#utility.yul\":7762:7776   */\n      lt\n        /* \"#utility.yul\":7742:7760   */\n      dup2\n        /* \"#utility.yul\":7739:7777   */\n      eq\n        /* \"#utility.yul\":7736:7820   */\n      iszero\n      tag_224\n      jumpi\n        /* \"#utility.yul\":7792:7810   */\n      tag_225\n      tag_226\n      jump\t// in\n    tag_225:\n        /* \"#utility.yul\":7736:7820   */\n    tag_224:\n        /* \"#utility.yul\":7557:7826   */\n      pop\n        /* \"#utility.yul\":7506:7826   */\n      swap2\n      swap1\n      pop\n      jump\t// out\n        /* \"#utility.yul\":7832:8113   */\n    tag_189:\n        /* \"#utility.yul\":7915:7942   */\n      tag_228\n        /* \"#utility.yul\":7937:7941   */\n      dup3\n        /* \"#utility.yul\":7915:7942   */\n      tag_163\n      jump\t// in\n    tag_228:\n        /* \"#utility.yul\":7907:7913   */\n      dup2\n        /* \"#utility.yul\":7903:7943   */\n      add\n        /* \"#utility.yul\":8045:8051   */\n      dup2\n        /* \"#utility.yul\":8033:8043   */\n      dup2\n        /* \"#utility.yul\":8030:8052   */\n      lt\n        /* \"#utility.yul\":8009:8027   */\n      0xffffffffffffffff\n        /* \"#utility.yul\":7997:8007   */\n      dup3\n        /* \"#utility.yul\":7994:8028   */\n      gt\n        /* \"#utility.yul\":7991:8053   */\n      or\n        /* \"#utility.yul\":7988:8076   */\n      iszero\n      tag_229\n      jumpi\n        /* \"#utility.yul\":8056:8074   */\n      tag_230\n      tag_194\n      jump\t// in\n    tag_230:\n        /* \"#utility.yul\":7988:8076   */\n    tag_229:\n        /* \"#utility.yul\":8096:8106   */\n      dup1\n        /* \"#utility.yul\":8092:8094   */\n      0x40\n        /* \"#utility.yul\":8085:8107   */\n      mstore\n        /* \"#utility.yul\":7875:8113   */\n      pop\n        /* \"#utility.yul\":7832:8113   */\n      pop\n      pop\n      jump\t// out\n        /* \"#utility.yul\":8119:8299   */\n    tag_203:\n        /* \"#utility.yul\":8167:8244   */\n      0x4e487b7100000000000000000000000000000000000000000000000000000000\n        /* \"#utility.yul\":8164:8165   */\n      0x00\n        /* \"#utility.yul\":8157:8245   */\n      mstore\n        /* \"#utility.yul\":8264:8268   */\n      0x11\n        /* \"#utility.yul\":8261:8262   */\n      0x04\n        /* \"#utility.yul\":8254:8269   */\n      mstore\n        /* \"#utility.yul\":8288:8292   */\n      0x24\n        /* \"#utility.yul\":8285:8286   */\n      0x00\n        /* \"#utility.yul\":8278:8293   */\n      revert\n        /* \"#utility.yul\":8305:8485   */\n    tag_60:\n        /* \"#utility.yul\":8353:8430   */\n      0x4e487b7100000000000000000000000000000000000000000000000000000000\n        /* \"#utility.yul\":8350:8351   */\n      0x00\n        /* \"#utility.yul\":8343:8431   */\n      mstore\n        /* \"#utility.yul\":8450:8454   */\n      0x21\n        /* \"#utility.yul\":8447:8448   */\n      0x04\n        /* \"#utility.yul\":8440:8455   */\n      mstore\n        /* \"#utility.yul\":8474:8478   */\n      0x24\n        /* \"#utility.yul\":8471:8472   */\n      0x00\n        /* \"#utility.yul\":8464:8479   */\n      revert\n        /* \"#utility.yul\":8491:8671   */\n    tag_226:\n        /* \"#utility.yul\":8539:8616   */\n      0x4e487b7100000000000000000000000000000000000000000000000000000000\n        /* \"#utility.yul\":8536:8537   */\n      0x00\n        /* \"#utility.yul\":8529:8617   */\n      mstore\n        /* \"#utility.yul\":8636:8640   */\n      0x22\n        /* \"#utility.yul\":8633:8634   */\n      0x04\n        /* \"#utility.yul\":8626:8641   */\n      mstore\n        /* \"#utility.yul\":8660:8664   */\n      0x24\n        /* \"#utility.yul\":8657:8658   */\n      0x00\n        /* \"#utility.yul\":8650:8665   */\n      revert\n        /* \"#utility.yul\":8677:8857   */\n    tag_194:\n        /* \"#utility.yul\":8725:8802   */\n      0x4e487b7100000000000000000000000000000000000000000000000000000000\n        /* \"#utility.yul\":8722:8723   */\n      0x00\n        /* \"#utility.yul\":8715:8803   */\n      mstore\n        /* \"#utility.yul\":8822:8826   */\n      0x41\n        /* \"#utility.yul\":8819:8820   */\n      0x04\n        /* \"#utility.yul\":8812:8827   */\n      mstore\n        /* \"#utility.yul\":8846:8850   */\n      0x24\n        /* \"#utility.yul\":8843:8844   */\n      0x00\n        /* \"#utility.yul\":8836:8851   */\n      revert\n        /* \"#utility.yul\":8863:8980   */\n    tag_128:\n        /* \"#utility.yul\":8972:8973   */\n      0x00\n        /* \"#utility.yul\":8969:8970   */\n      dup1\n        /* \"#utility.yul\":8962:8974   */\n      revert\n        /* \"#utility.yul\":8986:9103   */\n    tag_117:\n        /* \"#utility.yul\":9095:9096   */\n      0x00\n        /* \"#utility.yul\":9092:9093   */\n      dup1\n        /* \"#utility.yul\":9085:9097   */\n      revert\n        /* \"#utility.yul\":9109:9226   */\n    tag_144:\n        /* \"#utility.yul\":9218:9219   */\n      0x00\n        /* \"#utility.yul\":9215:9216   */\n      dup1\n        /* \"#utility.yul\":9208:9220   */\n      revert\n        /* \"#utility.yul\":9232:9349   */\n    tag_137:\n        /* \"#utility.yul\":9341:9342   */\n      0x00\n        /* \"#utility.yul\":9338:9339   */\n      dup1\n        /* \"#utility.yul\":9331:9343   */\n      revert\n        /* \"#utility.yul\":9355:9457   */\n    tag_163:\n        /* \"#utility.yul\":9396:9402   */\n      0x00\n        /* \"#utility.yul\":9447:9449   */\n      0x1f\n        /* \"#utility.yul\":9443:9450   */\n      not\n        /* \"#utility.yul\":9438:9440   */\n      0x1f\n        /* \"#utility.yul\":9431:9436   */\n      dup4\n        /* \"#utility.yul\":9427:9441   */\n      add\n        /* \"#utility.yul\":9423:9451   */\n      and\n        /* \"#utility.yul\":9413:9451   */\n      swap1\n      pop\n        /* \"#utility.yul\":9355:9457   */\n      swap2\n      swap1\n      pop\n      jump\t// out\n        /* \"#utility.yul\":9463:9642   */\n    tag_168:\n        /* \"#utility.yul\":9603:9634   */\n      0x706c656173652073656c6563742074686520636c617373206669727374000000\n        /* \"#utility.yul\":9599:9600   */\n      0x00\n        /* \"#utility.yul\":9591:9597   */\n      dup3\n        /* \"#utility.yul\":9587:9601   */\n      add\n        /* \"#utility.yul\":9580:9635   */\n      mstore\n        /* \"#utility.yul\":9463:9642   */\n      pop\n      jump\t// out\n        /* \"#utility.yul\":9648:9766   */\n    tag_211:\n        /* \"#utility.yul\":9734:9735   */\n      0x03\n        /* \"#utility.yul\":9727:9732   */\n      dup2\n        /* \"#utility.yul\":9724:9736   */\n      lt\n        /* \"#utility.yul\":9714:9760   */\n      tag_242\n      jumpi\n        /* \"#utility.yul\":9740:9758   */\n      tag_243\n      tag_60\n      jump\t// in\n    tag_243:\n        /* \"#utility.yul\":9714:9760   */\n    tag_242:\n        /* \"#utility.yul\":9648:9766   */\n      pop\n      jump\t// out\n        /* \"#utility.yul\":9772:9894   */\n    tag_123:\n        /* \"#utility.yul\":9845:9869   */\n      tag_245\n        /* \"#utility.yul\":9863:9868   */\n      dup2\n        /* \"#utility.yul\":9845:9869   */\n      tag_204\n      jump\t// in\n    tag_245:\n        /* \"#utility.yul\":9838:9843   */\n      dup2\n        /* \"#utility.yul\":9835:9870   */\n      eq\n        /* \"#utility.yul\":9825:9888   */\n      tag_246\n      jumpi\n        /* \"#utility.yul\":9884:9885   */\n      0x00\n        /* \"#utility.yul\":9881:9882   */\n      dup1\n        /* \"#utility.yul\":9874:9886   */\n      revert\n        /* \"#utility.yul\":9825:9888   */\n    tag_246:\n        /* \"#utility.yul\":9772:9894   */\n      pop\n      jump\t// out\n        /* \"#utility.yul\":9900:10022   */\n    tag_133:\n        /* \"#utility.yul\":9973:9997   */\n      tag_248\n        /* \"#utility.yul\":9991:9996   */\n      dup2\n        /* \"#utility.yul\":9973:9997   */\n      tag_172\n      jump\t// in\n    tag_248:\n        /* \"#utility.yul\":9966:9971   */\n      dup2\n        /* \"#utility.yul\":9963:9998   */\n      eq\n        /* \"#utility.yul\":9953:10016   */\n      tag_249\n      jumpi\n        /* \"#utility.yul\":10012:10013   */\n      0x00\n        /* \"#utility.yul\":10009:10010   */\n      dup1\n        /* \"#utility.yul\":10002:10014   */\n      revert\n        /* \"#utility.yul\":9953:10016   */\n    tag_249:\n        /* \"#utility.yul\":9900:10022   */\n      pop\n      jump\t// out\n\n    auxdata: 0xa26469706673582212202985302efb7704c20411e6d5a0331e14f264f175da478a53a0cdd6f296e9148864736f6c63430008070033\n}\n",
				"bytecode": {
					"linkReferences": {},
					"object": "608060405260008060006101000a81548160ff0219169083151502179055506040518060400160405280600d81526020017f45636f6e6f6d7920436c61737300000000000000000000000000000000000000815250600290805190602001906200006b929190620000d2565b50600160055560016006556601c6bf526340006006546200008d919062000182565b6007556001600960006101000a81548160ff02191690836002811115620000b957620000b862000229565b5b0217905550348015620000cb57600080fd5b5062000287565b828054620000e090620001c4565b90600052602060002090601f01602090048101928262000104576000855562000150565b82601f106200011f57805160ff191683800117855562000150565b8280016001018555821562000150579182015b828111156200014f57825182559160200191906001019062000132565b5b5090506200015f919062000163565b5090565b5b808211156200017e57600081600090555060010162000164565b5090565b60006200018f82620001ba565b91506200019c83620001ba565b925082620001af57620001ae620001fa565b5b828204905092915050565b6000819050919050565b60006002820490506001821680620001dd57607f821691505b60208210811415620001f457620001f362000258565b5b50919050565b7f4e487b7100000000000000000000000000000000000000000000000000000000600052601260045260246000fd5b7f4e487b7100000000000000000000000000000000000000000000000000000000600052602160045260246000fd5b7f4e487b7100000000000000000000000000000000000000000000000000000000600052602260045260246000fd5b610e4980620002976000396000f3fe608060405234801561001057600080fd5b50600436106100935760003560e01c80635018350711610066578063501835071461010e5780637a1736d114610118578063b24fa0e414610122578063b3abc7391461012c578063b90d3d0c1461014a57610093565b806309a8d3f51461009857806317ae4589146100b65780631aa35610146100d25780634fb2e0be146100f0575b600080fd5b6100a061017e565b6040516100ad9190610ada565b60405180910390f35b6100d060048036038101906100cb9190610932565b610184565b005b6100da610336565b6040516100e79190610a37565b60405180910390f35b6100f8610349565b6040516101059190610ada565b60405180910390f35b61011661034f565b005b610120610431565b005b61012a610512565b005b6101346105f4565b6040516101419190610ada565b60405180910390f35b610164600480360381019061015f9190610905565b6105fa565b604051610175959493929190610a52565b60405180910390f35b60065481565b60008054906101000a900460ff166101d1576040517f08c379a00000000000000000000000000000000000000000000000000000000081526004016101c890610aba565b60405180910390fd5b6040518060a00160405280848152602001838152602001828152602001600280546101fb90610c64565b80601f016020809104026020016040519081016040528092919081815260200182805461022790610c64565b80156102745780601f1061024957610100808354040283529160200191610274565b820191906000526020600020905b81548152906001019060200180831161025757829003601f168201915b50505050508152602001600454815250600860003373ffffffffffffffffffffffffffffffffffffffff1673ffffffffffffffffffffffffffffffffffffffff16815260200190815260200160002060008201518160000190805190602001906102df9291906107c8565b5060208201518160010190805190602001906102fc9291906107c8565b506040820151816002015560608201518160030190805190602001906103239291906107c8565b5060808201518160040155905050505050565b600960009054906101000a900460ff1681565b60055481565b6000600960006101000a81548160ff0219169083600281111561037557610374610cf6565b5b0217905550600960009054906101000a900460ff16600281111561039c5761039b610cf6565b5b60018190555060006001541415610415576040518060400160405280600b81526020017f466972737420436c617373000000000000000000000000000000000000000000815250600290805190602001906103f89291906107c8565b5066038d7ea4c6800060055461040e9190610b67565b6004819055505b60016000806101000a81548160ff021916908315150217905550565b6001600960006101000a81548160ff0219169083600281111561045757610456610cf6565b5b0217905550600960009054906101000a900460ff16600281111561047e5761047d610cf6565b5b6001819055506001805414156104f6576040518060400160405280600d81526020017f45636f6e6f6d7920436c61737300000000000000000000000000000000000000815250600290805190602001906104d99291906107c8565b506601c6bf526340006005546104ef9190610b67565b6004819055505b60016000806101000a81548160ff021916908315150217905550565b6002600960006101000a81548160ff0219169083600281111561053857610537610cf6565b5b0217905550600960009054906101000a900460ff16600281111561055f5761055e610cf6565b5b600181905550600260015414156105d8576040518060400160405280600d81526020017f4275736e69737320436c61737300000000000000000000000000000000000000815250600290805190602001906105bb9291906107c8565b5066027ca57357c0006005546105d19190610b67565b6004819055505b60016000806101000a81548160ff021916908315150217905550565b60075481565b600860205280600052604060002060009150905080600001805461061d90610c64565b80601f016020809104026020016040519081016040528092919081815260200182805461064990610c64565b80156106965780601f1061066b57610100808354040283529160200191610696565b820191906000526020600020905b81548152906001019060200180831161067957829003601f168201915b5050505050908060010180546106ab90610c64565b80601f01602080910402602001604051908101604052809291908181526020018280546106d790610c64565b80156107245780601f106106f957610100808354040283529160200191610724565b820191906000526020600020905b81548152906001019060200180831161070757829003601f168201915b50505050509080600201549080600301805461073f90610c64565b80601f016020809104026020016040519081016040528092919081815260200182805461076b90610c64565b80156107b85780601f1061078d576101008083540402835291602001916107b8565b820191906000526020600020905b81548152906001019060200180831161079b57829003601f168201915b5050505050908060040154905085565b8280546107d490610c64565b90600052602060002090601f0160209004810192826107f6576000855561083d565b82601f1061080f57805160ff191683800117855561083d565b8280016001018555821561083d579182015b8281111561083c578251825591602001919060010190610821565b5b50905061084a919061084e565b5090565b5b8082111561086757600081600090555060010161084f565b5090565b600061087e61087984610b1a565b610af5565b90508281526020810184848401111561089a57610899610d88565b5b6108a5848285610c22565b509392505050565b6000813590506108bc81610de5565b92915050565b600082601f8301126108d7576108d6610d83565b5b81356108e784826020860161086b565b91505092915050565b6000813590506108ff81610dfc565b92915050565b60006020828403121561091b5761091a610d92565b5b6000610929848285016108ad565b91505092915050565b60008060006060848603121561094b5761094a610d92565b5b600084013567ffffffffffffffff81111561096957610968610d8d565b5b610975868287016108c2565b935050602084013567ffffffffffffffff81111561099657610995610d8d565b5b6109a2868287016108c2565b92505060406109b3868287016108f0565b9150509250925092565b6109c681610c10565b82525050565b60006109d782610b4b565b6109e18185610b56565b93506109f1818560208601610c31565b6109fa81610d97565b840191505092915050565b6000610a12601d83610b56565b9150610a1d82610da8565b602082019050919050565b610a3181610c06565b82525050565b6000602082019050610a4c60008301846109bd565b92915050565b600060a0820190508181036000830152610a6c81886109cc565b90508181036020830152610a8081876109cc565b9050610a8f6040830186610a28565b8181036060830152610aa181856109cc565b9050610ab06080830184610a28565b9695505050505050565b60006020820190508181036000830152610ad381610a05565b9050919050565b6000602082019050610aef6000830184610a28565b92915050565b6000610aff610b10565b9050610b0b8282610c96565b919050565b6000604051905090565b600067ffffffffffffffff821115610b3557610b34610d54565b5b610b3e82610d97565b9050602081019050919050565b600081519050919050565b600082825260208201905092915050565b6000610b7282610c06565b9150610b7d83610c06565b9250817fffffffffffffffffffffffffffffffffffffffffffffffffffffffffffffffff0483118215151615610bb657610bb5610cc7565b5b828202905092915050565b6000610bcc82610be6565b9050919050565b6000819050610be182610dd1565b919050565b600073ffffffffffffffffffffffffffffffffffffffff82169050919050565b6000819050919050565b6000610c1b82610bd3565b9050919050565b82818337600083830152505050565b60005b83811015610c4f578082015181840152602081019050610c34565b83811115610c5e576000848401525b50505050565b60006002820490506001821680610c7c57607f821691505b60208210811415610c9057610c8f610d25565b5b50919050565b610c9f82610d97565b810181811067ffffffffffffffff82111715610cbe57610cbd610d54565b5b80604052505050565b7f4e487b7100000000000000000000000000000000000000000000000000000000600052601160045260246000fd5b7f4e487b7100000000000000000000000000000000000000000000000000000000600052602160045260246000fd5b7f4e487b7100000000000000000000000000000000000000000000000000000000600052602260045260246000fd5b7f4e487b7100000000000000000000000000000000000000000000000000000000600052604160045260246000fd5b600080fd5b600080fd5b600080fd5b600080fd5b6000601f19601f8301169050919050565b7f706c656173652073656c6563742074686520636c617373206669727374000000600082015250565b60038110610de257610de1610cf6565b5b50565b610dee81610bc1565b8114610df957600080fd5b50565b610e0581610c06565b8114610e1057600080fd5b5056fea26469706673582212202985302efb7704c20411e6d5a0331e14f264f175da478a53a0cdd6f296e9148864736f6c63430008070033",
					"opcodes": "PUSH1 0x80 PUSH1 0x40 MSTORE PUSH1 0x0 DUP1 PUSH1 0x0 PUSH2 0x100 EXP DUP2 SLOAD DUP2 PUSH1 0xFF MUL NOT AND SWAP1 DUP4 ISZERO ISZERO MUL OR SWAP1 SSTORE POP PUSH1 0x40 MLOAD DUP1 PUSH1 0x40 ADD PUSH1 0x40 MSTORE DUP1 PUSH1 0xD DUP2 MSTORE PUSH1 0x20 ADD PUSH32 0x45636F6E6F6D7920436C61737300000000000000000000000000000000000000 DUP2 MSTORE POP PUSH1 0x2 SWAP1 DUP1 MLOAD SWAP1 PUSH1 0x20 ADD SWAP1 PUSH3 0x6B SWAP3 SWAP2 SWAP1 PUSH3 0xD2 JUMP JUMPDEST POP PUSH1 0x1 PUSH1 0x5 SSTORE PUSH1 0x1 PUSH1 0x6 SSTORE PUSH7 0x1C6BF52634000 PUSH1 0x6 SLOAD PUSH3 0x8D SWAP2 SWAP1 PUSH3 0x182 JUMP JUMPDEST PUSH1 0x7 SSTORE PUSH1 0x1 PUSH1 0x9 PUSH1 0x0 PUSH2 0x100 EXP DUP2 SLOAD DUP2 PUSH1 0xFF MUL NOT AND SWAP1 DUP4 PUSH1 0x2 DUP2 GT ISZERO PUSH3 0xB9 JUMPI PUSH3 0xB8 PUSH3 0x229 JUMP JUMPDEST JUMPDEST MUL OR SWAP1 SSTORE POP CALLVALUE DUP1 ISZERO PUSH3 0xCB JUMPI PUSH1 0x0 DUP1 REVERT JUMPDEST POP PUSH3 0x287 JUMP JUMPDEST DUP3 DUP1 SLOAD PUSH3 0xE0 SWAP1 PUSH3 0x1C4 JUMP JUMPDEST SWAP1 PUSH1 0x0 MSTORE PUSH1 0x20 PUSH1 0x0 KECCAK256 SWAP1 PUSH1 0x1F ADD PUSH1 0x20 SWAP1 DIV DUP2 ADD SWAP3 DUP3 PUSH3 0x104 JUMPI PUSH1 0x0 DUP6 SSTORE PUSH3 0x150 JUMP JUMPDEST DUP3 PUSH1 0x1F LT PUSH3 0x11F JUMPI DUP1 MLOAD PUSH1 0xFF NOT AND DUP4 DUP1 ADD OR DUP6 SSTORE PUSH3 0x150 JUMP JUMPDEST DUP3 DUP1 ADD PUSH1 0x1 ADD DUP6 SSTORE DUP3 ISZERO PUSH3 0x150 JUMPI SWAP2 DUP3 ADD JUMPDEST DUP3 DUP2 GT ISZERO PUSH3 0x14F JUMPI DUP3 MLOAD DUP3 SSTORE SWAP2 PUSH1 0x20 ADD SWAP2 SWAP1 PUSH1 0x1 ADD SWAP1 PUSH3 0x132 JUMP JUMPDEST JUMPDEST POP SWAP1 POP PUSH3 0x15F SWAP2 SWAP1 PUSH3 0x163 JUMP JUMPDEST POP SWAP1 JUMP JUMPDEST JUMPDEST DUP1 DUP3 GT ISZERO PUSH3 0x17E JUMPI PUSH1 0x0 DUP2 PUSH1 0x0 SWAP1 SSTORE POP PUSH1 0x1 ADD PUSH3 0x164 JUMP JUMPDEST POP SWAP1 JUMP JUMPDEST PUSH1 0x0 PUSH3 0x18F DUP3 PUSH3 0x1BA JUMP JUMPDEST SWAP2 POP PUSH3 0x19C DUP4 PUSH3 0x1BA JUMP JUMPDEST SWAP3 POP DUP3 PUSH3 0x1AF JUMPI PUSH3 0x1AE PUSH3 0x1FA JUMP JUMPDEST JUMPDEST DUP3 DUP3 DIV SWAP1 POP SWAP3 SWAP2 POP POP JUMP JUMPDEST PUSH1 0x0 DUP2 SWAP1 POP SWAP2 SWAP1 POP JUMP JUMPDEST PUSH1 0x0 PUSH1 0x2 DUP3 DIV SWAP1 POP PUSH1 0x1 DUP3 AND DUP1 PUSH3 0x1DD JUMPI PUSH1 0x7F DUP3 AND SWAP2 POP JUMPDEST PUSH1 0x20 DUP3 LT DUP2 EQ ISZERO PUSH3 0x1F4 JUMPI PUSH3 0x1F3 PUSH3 0x258 JUMP JUMPDEST JUMPDEST POP SWAP2 SWAP1 POP JUMP JUMPDEST PUSH32 0x4E487B7100000000000000000000000000000000000000000000000000000000 PUSH1 0x0 MSTORE PUSH1 0x12 PUSH1 0x4 MSTORE PUSH1 0x24 PUSH1 0x0 REVERT JUMPDEST PUSH32 0x4E487B7100000000000000000000000000000000000000000000000000000000 PUSH1 0x0 MSTORE PUSH1 0x21 PUSH1 0x4 MSTORE PUSH1 0x24 PUSH1 0x0 REVERT JUMPDEST PUSH32 0x4E487B7100000000000000000000000000000000000000000000000000000000 PUSH1 0x0 MSTORE PUSH1 0x22 PUSH1 0x4 MSTORE PUSH1 0x24 PUSH1 0x0 REVERT JUMPDEST PUSH2 0xE49 DUP1 PUSH3 0x297 PUSH1 0x0 CODECOPY PUSH1 0x0 RETURN INVALID PUSH1 0x80 PUSH1 0x40 MSTORE CALLVALUE DUP1 ISZERO PUSH2 0x10 JUMPI PUSH1 0x0 DUP1 REVERT JUMPDEST POP PUSH1 0x4 CALLDATASIZE LT PUSH2 0x93 JUMPI PUSH1 0x0 CALLDATALOAD PUSH1 0xE0 SHR DUP1 PUSH4 0x50183507 GT PUSH2 0x66 JUMPI DUP1 PUSH4 0x50183507 EQ PUSH2 0x10E JUMPI DUP1 PUSH4 0x7A1736D1 EQ PUSH2 0x118 JUMPI DUP1 PUSH4 0xB24FA0E4 EQ PUSH2 0x122 JUMPI DUP1 PUSH4 0xB3ABC739 EQ PUSH2 0x12C JUMPI DUP1 PUSH4 0xB90D3D0C EQ PUSH2 0x14A JUMPI PUSH2 0x93 JUMP JUMPDEST DUP1 PUSH4 0x9A8D3F5 EQ PUSH2 0x98 JUMPI DUP1 PUSH4 0x17AE4589 EQ PUSH2 0xB6 JUMPI DUP1 PUSH4 0x1AA35610 EQ PUSH2 0xD2 JUMPI DUP1 PUSH4 0x4FB2E0BE EQ PUSH2 0xF0 JUMPI JUMPDEST PUSH1 0x0 DUP1 REVERT JUMPDEST PUSH2 0xA0 PUSH2 0x17E JUMP JUMPDEST PUSH1 0x40 MLOAD PUSH2 0xAD SWAP2 SWAP1 PUSH2 0xADA JUMP JUMPDEST PUSH1 0x40 MLOAD DUP1 SWAP2 SUB SWAP1 RETURN JUMPDEST PUSH2 0xD0 PUSH1 0x4 DUP1 CALLDATASIZE SUB DUP2 ADD SWAP1 PUSH2 0xCB SWAP2 SWAP1 PUSH2 0x932 JUMP JUMPDEST PUSH2 0x184 JUMP JUMPDEST STOP JUMPDEST PUSH2 0xDA PUSH2 0x336 JUMP JUMPDEST PUSH1 0x40 MLOAD PUSH2 0xE7 SWAP2 SWAP1 PUSH2 0xA37 JUMP JUMPDEST PUSH1 0x40 MLOAD DUP1 SWAP2 SUB SWAP1 RETURN JUMPDEST PUSH2 0xF8 PUSH2 0x349 JUMP JUMPDEST PUSH1 0x40 MLOAD PUSH2 0x105 SWAP2 SWAP1 PUSH2 0xADA JUMP JUMPDEST PUSH1 0x40 MLOAD DUP1 SWAP2 SUB SWAP1 RETURN JUMPDEST PUSH2 0x116 PUSH2 0x34F JUMP JUMPDEST STOP JUMPDEST PUSH2 0x120 PUSH2 0x431 JUMP JUMPDEST STOP JUMPDEST PUSH2 0x12A PUSH2 0x512 JUMP JUMPDEST STOP JUMPDEST PUSH2 0x134 PUSH2 0x5F4 JUMP JUMPDEST PUSH1 0x40 MLOAD PUSH2 0x141 SWAP2 SWAP1 PUSH2 0xADA JUMP JUMPDEST PUSH1 0x40 MLOAD DUP1 SWAP2 SUB SWAP1 RETURN JUMPDEST PUSH2 0x164 PUSH1 0x4 DUP1 CALLDATASIZE SUB DUP2 ADD SWAP1 PUSH2 0x15F SWAP2 SWAP1 PUSH2 0x905 JUMP JUMPDEST PUSH2 0x5FA JUMP JUMPDEST PUSH1 0x40 MLOAD PUSH2 0x175 SWAP6 SWAP5 SWAP4 SWAP3 SWAP2 SWAP1 PUSH2 0xA52 JUMP JUMPDEST PUSH1 0x40 MLOAD DUP1 SWAP2 SUB SWAP1 RETURN JUMPDEST PUSH1 0x6 SLOAD DUP2 JUMP JUMPDEST PUSH1 0x0 DUP1 SLOAD SWAP1 PUSH2 0x100 EXP SWAP1 DIV PUSH1 0xFF AND PUSH2 0x1D1 JUMPI PUSH1 0x40 MLOAD PUSH32 0x8C379A000000000000000000000000000000000000000000000000000000000 DUP2 MSTORE PUSH1 0x4 ADD PUSH2 0x1C8 SWAP1 PUSH2 0xABA JUMP JUMPDEST PUSH1 0x40 MLOAD DUP1 SWAP2 SUB SWAP1 REVERT JUMPDEST PUSH1 0x40 MLOAD DUP1 PUSH1 0xA0 ADD PUSH1 0x40 MSTORE DUP1 DUP5 DUP2 MSTORE PUSH1 0x20 ADD DUP4 DUP2 MSTORE PUSH1 0x20 ADD DUP3 DUP2 MSTORE PUSH1 0x20 ADD PUSH1 0x2 DUP1 SLOAD PUSH2 0x1FB SWAP1 PUSH2 0xC64 JUMP JUMPDEST DUP1 PUSH1 0x1F ADD PUSH1 0x20 DUP1 SWAP2 DIV MUL PUSH1 0x20 ADD PUSH1 0x40 MLOAD SWAP1 DUP2 ADD PUSH1 0x40 MSTORE DUP1 SWAP3 SWAP2 SWAP1 DUP2 DUP2 MSTORE PUSH1 0x20 ADD DUP3 DUP1 SLOAD PUSH2 0x227 SWAP1 PUSH2 0xC64 JUMP JUMPDEST DUP1 ISZERO PUSH2 0x274 JUMPI DUP1 PUSH1 0x1F LT PUSH2 0x249 JUMPI PUSH2 0x100 DUP1 DUP4 SLOAD DIV MUL DUP4 MSTORE SWAP2 PUSH1 0x20 ADD SWAP2 PUSH2 0x274 JUMP JUMPDEST DUP3 ADD SWAP2 SWAP1 PUSH1 0x0 MSTORE PUSH1 0x20 PUSH1 0x0 KECCAK256 SWAP1 JUMPDEST DUP2 SLOAD DUP2 MSTORE SWAP1 PUSH1 0x1 ADD SWAP1 PUSH1 0x20 ADD DUP1 DUP4 GT PUSH2 0x257 JUMPI DUP3 SWAP1 SUB PUSH1 0x1F AND DUP3 ADD SWAP2 JUMPDEST POP POP POP POP POP DUP2 MSTORE PUSH1 0x20 ADD PUSH1 0x4 SLOAD DUP2 MSTORE POP PUSH1 0x8 PUSH1 0x0 CALLER PUSH20 0xFFFFFFFFFFFFFFFFFFFFFFFFFFFFFFFFFFFFFFFF AND PUSH20 0xFFFFFFFFFFFFFFFFFFFFFFFFFFFFFFFFFFFFFFFF AND DUP2 MSTORE PUSH1 0x20 ADD SWAP1 DUP2 MSTORE PUSH1 0x20 ADD PUSH1 0x0 KECCAK256 PUSH1 0x0 DUP3 ADD MLOAD DUP2 PUSH1 0x0 ADD SWAP1 DUP1 MLOAD SWAP1 PUSH1 0x20 ADD SWAP1 PUSH2 0x2DF SWAP3 SWAP2 SWAP1 PUSH2 0x7C8 JUMP JUMPDEST POP PUSH1 0x20 DUP3 ADD MLOAD DUP2 PUSH1 0x1 ADD SWAP1 DUP1 MLOAD SWAP1 PUSH1 0x20 ADD SWAP1 PUSH2 0x2FC SWAP3 SWAP2 SWAP1 PUSH2 0x7C8 JUMP JUMPDEST POP PUSH1 0x40 DUP3 ADD MLOAD DUP2 PUSH1 0x2 ADD SSTORE PUSH1 0x60 DUP3 ADD MLOAD DUP2 PUSH1 0x3 ADD SWAP1 DUP1 MLOAD SWAP1 PUSH1 0x20 ADD SWAP1 PUSH2 0x323 SWAP3 SWAP2 SWAP1 PUSH2 0x7C8 JUMP JUMPDEST POP PUSH1 0x80 DUP3 ADD MLOAD DUP2 PUSH1 0x4 ADD SSTORE SWAP1 POP POP POP POP POP JUMP JUMPDEST PUSH1 0x9 PUSH1 0x0 SWAP1 SLOAD SWAP1 PUSH2 0x100 EXP SWAP1 DIV PUSH1 0xFF AND DUP2 JUMP JUMPDEST PUSH1 0x5 SLOAD DUP2 JUMP JUMPDEST PUSH1 0x0 PUSH1 0x9 PUSH1 0x0 PUSH2 0x100 EXP DUP2 SLOAD DUP2 PUSH1 0xFF MUL NOT AND SWAP1 DUP4 PUSH1 0x2 DUP2 GT ISZERO PUSH2 0x375 JUMPI PUSH2 0x374 PUSH2 0xCF6 JUMP JUMPDEST JUMPDEST MUL OR SWAP1 SSTORE POP PUSH1 0x9 PUSH1 0x0 SWAP1 SLOAD SWAP1 PUSH2 0x100 EXP SWAP1 DIV PUSH1 0xFF AND PUSH1 0x2 DUP2 GT ISZERO PUSH2 0x39C JUMPI PUSH2 0x39B PUSH2 0xCF6 JUMP JUMPDEST JUMPDEST PUSH1 0x1 DUP2 SWAP1 SSTORE POP PUSH1 0x0 PUSH1 0x1 SLOAD EQ ISZERO PUSH2 0x415 JUMPI PUSH1 0x40 MLOAD DUP1 PUSH1 0x40 ADD PUSH1 0x40 MSTORE DUP1 PUSH1 0xB DUP2 MSTORE PUSH1 0x20 ADD PUSH32 0x466972737420436C617373000000000000000000000000000000000000000000 DUP2 MSTORE POP PUSH1 0x2 SWAP1 DUP1 MLOAD SWAP1 PUSH1 0x20 ADD SWAP1 PUSH2 0x3F8 SWAP3 SWAP2 SWAP1 PUSH2 0x7C8 JUMP JUMPDEST POP PUSH7 0x38D7EA4C68000 PUSH1 0x5 SLOAD PUSH2 0x40E SWAP2 SWAP1 PUSH2 0xB67 JUMP JUMPDEST PUSH1 0x4 DUP2 SWAP1 SSTORE POP JUMPDEST PUSH1 0x1 PUSH1 0x0 DUP1 PUSH2 0x100 EXP DUP2 SLOAD DUP2 PUSH1 0xFF MUL NOT AND SWAP1 DUP4 ISZERO ISZERO MUL OR SWAP1 SSTORE POP JUMP JUMPDEST PUSH1 0x1 PUSH1 0x9 PUSH1 0x0 PUSH2 0x100 EXP DUP2 SLOAD DUP2 PUSH1 0xFF MUL NOT AND SWAP1 DUP4 PUSH1 0x2 DUP2 GT ISZERO PUSH2 0x457 JUMPI PUSH2 0x456 PUSH2 0xCF6 JUMP JUMPDEST JUMPDEST MUL OR SWAP1 SSTORE POP PUSH1 0x9 PUSH1 0x0 SWAP1 SLOAD SWAP1 PUSH2 0x100 EXP SWAP1 DIV PUSH1 0xFF AND PUSH1 0x2 DUP2 GT ISZERO PUSH2 0x47E JUMPI PUSH2 0x47D PUSH2 0xCF6 JUMP JUMPDEST JUMPDEST PUSH1 0x1 DUP2 SWAP1 SSTORE POP PUSH1 0x1 DUP1 SLOAD EQ ISZERO PUSH2 0x4F6 JUMPI PUSH1 0x40 MLOAD DUP1 PUSH1 0x40 ADD PUSH1 0x40 MSTORE DUP1 PUSH1 0xD DUP2 MSTORE PUSH1 0x20 ADD PUSH32 0x45636F6E6F6D7920436C61737300000000000000000000000000000000000000 DUP2 MSTORE POP PUSH1 0x2 SWAP1 DUP1 MLOAD SWAP1 PUSH1 0x20 ADD SWAP1 PUSH2 0x4D9 SWAP3 SWAP2 SWAP1 PUSH2 0x7C8 JUMP JUMPDEST POP PUSH7 0x1C6BF52634000 PUSH1 0x5 SLOAD PUSH2 0x4EF SWAP2 SWAP1 PUSH2 0xB67 JUMP JUMPDEST PUSH1 0x4 DUP2 SWAP1 SSTORE POP JUMPDEST PUSH1 0x1 PUSH1 0x0 DUP1 PUSH2 0x100 EXP DUP2 SLOAD DUP2 PUSH1 0xFF MUL NOT AND SWAP1 DUP4 ISZERO ISZERO MUL OR SWAP1 SSTORE POP JUMP JUMPDEST PUSH1 0x2 PUSH1 0x9 PUSH1 0x0 PUSH2 0x100 EXP DUP2 SLOAD DUP2 PUSH1 0xFF MUL NOT AND SWAP1 DUP4 PUSH1 0x2 DUP2 GT ISZERO PUSH2 0x538 JUMPI PUSH2 0x537 PUSH2 0xCF6 JUMP JUMPDEST JUMPDEST MUL OR SWAP1 SSTORE POP PUSH1 0x9 PUSH1 0x0 SWAP1 SLOAD SWAP1 PUSH2 0x100 EXP SWAP1 DIV PUSH1 0xFF AND PUSH1 0x2 DUP2 GT ISZERO PUSH2 0x55F JUMPI PUSH2 0x55E PUSH2 0xCF6 JUMP JUMPDEST JUMPDEST PUSH1 0x1 DUP2 SWAP1 SSTORE POP PUSH1 0x2 PUSH1 0x1 SLOAD EQ ISZERO PUSH2 0x5D8 JUMPI PUSH1 0x40 MLOAD DUP1 PUSH1 0x40 ADD PUSH1 0x40 MSTORE DUP1 PUSH1 0xD DUP2 MSTORE PUSH1 0x20 ADD PUSH32 0x4275736E69737320436C61737300000000000000000000000000000000000000 DUP2 MSTORE POP PUSH1 0x2 SWAP1 DUP1 MLOAD SWAP1 PUSH1 0x20 ADD SWAP1 PUSH2 0x5BB SWAP3 SWAP2 SWAP1 PUSH2 0x7C8 JUMP JUMPDEST POP PUSH7 0x27CA57357C000 PUSH1 0x5 SLOAD PUSH2 0x5D1 SWAP2 SWAP1 PUSH2 0xB67 JUMP JUMPDEST PUSH1 0x4 DUP2 SWAP1 SSTORE POP JUMPDEST PUSH1 0x1 PUSH1 0x0 DUP1 PUSH2 0x100 EXP DUP2 SLOAD DUP2 PUSH1 0xFF MUL NOT AND SWAP1 DUP4 ISZERO ISZERO MUL OR SWAP1 SSTORE POP JUMP JUMPDEST PUSH1 0x7 SLOAD DUP2 JUMP JUMPDEST PUSH1 0x8 PUSH1 0x20 MSTORE DUP1 PUSH1 0x0 MSTORE PUSH1 0x40 PUSH1 0x0 KECCAK256 PUSH1 0x0 SWAP2 POP SWAP1 POP DUP1 PUSH1 0x0 ADD DUP1 SLOAD PUSH2 0x61D SWAP1 PUSH2 0xC64 JUMP JUMPDEST DUP1 PUSH1 0x1F ADD PUSH1 0x20 DUP1 SWAP2 DIV MUL PUSH1 0x20 ADD PUSH1 0x40 MLOAD SWAP1 DUP2 ADD PUSH1 0x40 MSTORE DUP1 SWAP3 SWAP2 SWAP1 DUP2 DUP2 MSTORE PUSH1 0x20 ADD DUP3 DUP1 SLOAD PUSH2 0x649 SWAP1 PUSH2 0xC64 JUMP JUMPDEST DUP1 ISZERO PUSH2 0x696 JUMPI DUP1 PUSH1 0x1F LT PUSH2 0x66B JUMPI PUSH2 0x100 DUP1 DUP4 SLOAD DIV MUL DUP4 MSTORE SWAP2 PUSH1 0x20 ADD SWAP2 PUSH2 0x696 JUMP JUMPDEST DUP3 ADD SWAP2 SWAP1 PUSH1 0x0 MSTORE PUSH1 0x20 PUSH1 0x0 KECCAK256 SWAP1 JUMPDEST DUP2 SLOAD DUP2 MSTORE SWAP1 PUSH1 0x1 ADD SWAP1 PUSH1 0x20 ADD DUP1 DUP4 GT PUSH2 0x679 JUMPI DUP3 SWAP1 SUB PUSH1 0x1F AND DUP3 ADD SWAP2 JUMPDEST POP POP POP POP POP SWAP1 DUP1 PUSH1 0x1 ADD DUP1 SLOAD PUSH2 0x6AB SWAP1 PUSH2 0xC64 JUMP JUMPDEST DUP1 PUSH1 0x1F ADD PUSH1 0x20 DUP1 SWAP2 DIV MUL PUSH1 0x20 ADD PUSH1 0x40 MLOAD SWAP1 DUP2 ADD PUSH1 0x40 MSTORE DUP1 SWAP3 SWAP2 SWAP1 DUP2 DUP2 MSTORE PUSH1 0x20 ADD DUP3 DUP1 SLOAD PUSH2 0x6D7 SWAP1 PUSH2 0xC64 JUMP JUMPDEST DUP1 ISZERO PUSH2 0x724 JUMPI DUP1 PUSH1 0x1F LT PUSH2 0x6F9 JUMPI PUSH2 0x100 DUP1 DUP4 SLOAD DIV MUL DUP4 MSTORE SWAP2 PUSH1 0x20 ADD SWAP2 PUSH2 0x724 JUMP JUMPDEST DUP3 ADD SWAP2 SWAP1 PUSH1 0x0 MSTORE PUSH1 0x20 PUSH1 0x0 KECCAK256 SWAP1 JUMPDEST DUP2 SLOAD DUP2 MSTORE SWAP1 PUSH1 0x1 ADD SWAP1 PUSH1 0x20 ADD DUP1 DUP4 GT PUSH2 0x707 JUMPI DUP3 SWAP1 SUB PUSH1 0x1F AND DUP3 ADD SWAP2 JUMPDEST POP POP POP POP POP SWAP1 DUP1 PUSH1 0x2 ADD SLOAD SWAP1 DUP1 PUSH1 0x3 ADD DUP1 SLOAD PUSH2 0x73F SWAP1 PUSH2 0xC64 JUMP JUMPDEST DUP1 PUSH1 0x1F ADD PUSH1 0x20 DUP1 SWAP2 DIV MUL PUSH1 0x20 ADD PUSH1 0x40 MLOAD SWAP1 DUP2 ADD PUSH1 0x40 MSTORE DUP1 SWAP3 SWAP2 SWAP1 DUP2 DUP2 MSTORE PUSH1 0x20 ADD DUP3 DUP1 SLOAD PUSH2 0x76B SWAP1 PUSH2 0xC64 JUMP JUMPDEST DUP1 ISZERO PUSH2 0x7B8 JUMPI DUP1 PUSH1 0x1F LT PUSH2 0x78D JUMPI PUSH2 0x100 DUP1 DUP4 SLOAD DIV MUL DUP4 MSTORE SWAP2 PUSH1 0x20 ADD SWAP2 PUSH2 0x7B8 JUMP JUMPDEST DUP3 ADD SWAP2 SWAP1 PUSH1 0x0 MSTORE PUSH1 0x20 PUSH1 0x0 KECCAK256 SWAP1 JUMPDEST DUP2 SLOAD DUP2 MSTORE SWAP1 PUSH1 0x1 ADD SWAP1 PUSH1 0x20 ADD DUP1 DUP4 GT PUSH2 0x79B JUMPI DUP3 SWAP1 SUB PUSH1 0x1F AND DUP3 ADD SWAP2 JUMPDEST POP POP POP POP POP SWAP1 DUP1 PUSH1 0x4 ADD SLOAD SWAP1 POP DUP6 JUMP JUMPDEST DUP3 DUP1 SLOAD PUSH2 0x7D4 SWAP1 PUSH2 0xC64 JUMP JUMPDEST SWAP1 PUSH1 0x0 MSTORE PUSH1 0x20 PUSH1 0x0 KECCAK256 SWAP1 PUSH1 0x1F ADD PUSH1 0x20 SWAP1 DIV DUP2 ADD SWAP3 DUP3 PUSH2 0x7F6 JUMPI PUSH1 0x0 DUP6 SSTORE PUSH2 0x83D JUMP JUMPDEST DUP3 PUSH1 0x1F LT PUSH2 0x80F JUMPI DUP1 MLOAD PUSH1 0xFF NOT AND DUP4 DUP1 ADD OR DUP6 SSTORE PUSH2 0x83D JUMP JUMPDEST DUP3 DUP1 ADD PUSH1 0x1 ADD DUP6 SSTORE DUP3 ISZERO PUSH2 0x83D JUMPI SWAP2 DUP3 ADD JUMPDEST DUP3 DUP2 GT ISZERO PUSH2 0x83C JUMPI DUP3 MLOAD DUP3 SSTORE SWAP2 PUSH1 0x20 ADD SWAP2 SWAP1 PUSH1 0x1 ADD SWAP1 PUSH2 0x821 JUMP JUMPDEST JUMPDEST POP SWAP1 POP PUSH2 0x84A SWAP2 SWAP1 PUSH2 0x84E JUMP JUMPDEST POP SWAP1 JUMP JUMPDEST JUMPDEST DUP1 DUP3 GT ISZERO PUSH2 0x867 JUMPI PUSH1 0x0 DUP2 PUSH1 0x0 SWAP1 SSTORE POP PUSH1 0x1 ADD PUSH2 0x84F JUMP JUMPDEST POP SWAP1 JUMP JUMPDEST PUSH1 0x0 PUSH2 0x87E PUSH2 0x879 DUP5 PUSH2 0xB1A JUMP JUMPDEST PUSH2 0xAF5 JUMP JUMPDEST SWAP1 POP DUP3 DUP2 MSTORE PUSH1 0x20 DUP2 ADD DUP5 DUP5 DUP5 ADD GT ISZERO PUSH2 0x89A JUMPI PUSH2 0x899 PUSH2 0xD88 JUMP JUMPDEST JUMPDEST PUSH2 0x8A5 DUP5 DUP3 DUP6 PUSH2 0xC22 JUMP JUMPDEST POP SWAP4 SWAP3 POP POP POP JUMP JUMPDEST PUSH1 0x0 DUP2 CALLDATALOAD SWAP1 POP PUSH2 0x8BC DUP2 PUSH2 0xDE5 JUMP JUMPDEST SWAP3 SWAP2 POP POP JUMP JUMPDEST PUSH1 0x0 DUP3 PUSH1 0x1F DUP4 ADD SLT PUSH2 0x8D7 JUMPI PUSH2 0x8D6 PUSH2 0xD83 JUMP JUMPDEST JUMPDEST DUP2 CALLDATALOAD PUSH2 0x8E7 DUP5 DUP3 PUSH1 0x20 DUP7 ADD PUSH2 0x86B JUMP JUMPDEST SWAP2 POP POP SWAP3 SWAP2 POP POP JUMP JUMPDEST PUSH1 0x0 DUP2 CALLDATALOAD SWAP1 POP PUSH2 0x8FF DUP2 PUSH2 0xDFC JUMP JUMPDEST SWAP3 SWAP2 POP POP JUMP JUMPDEST PUSH1 0x0 PUSH1 0x20 DUP3 DUP5 SUB SLT ISZERO PUSH2 0x91B JUMPI PUSH2 0x91A PUSH2 0xD92 JUMP JUMPDEST JUMPDEST PUSH1 0x0 PUSH2 0x929 DUP5 DUP3 DUP6 ADD PUSH2 0x8AD JUMP JUMPDEST SWAP2 POP POP SWAP3 SWAP2 POP POP JUMP JUMPDEST PUSH1 0x0 DUP1 PUSH1 0x0 PUSH1 0x60 DUP5 DUP7 SUB SLT ISZERO PUSH2 0x94B JUMPI PUSH2 0x94A PUSH2 0xD92 JUMP JUMPDEST JUMPDEST PUSH1 0x0 DUP5 ADD CALLDATALOAD PUSH8 0xFFFFFFFFFFFFFFFF DUP2 GT ISZERO PUSH2 0x969 JUMPI PUSH2 0x968 PUSH2 0xD8D JUMP JUMPDEST JUMPDEST PUSH2 0x975 DUP7 DUP3 DUP8 ADD PUSH2 0x8C2 JUMP JUMPDEST SWAP4 POP POP PUSH1 0x20 DUP5 ADD CALLDATALOAD PUSH8 0xFFFFFFFFFFFFFFFF DUP2 GT ISZERO PUSH2 0x996 JUMPI PUSH2 0x995 PUSH2 0xD8D JUMP JUMPDEST JUMPDEST PUSH2 0x9A2 DUP7 DUP3 DUP8 ADD PUSH2 0x8C2 JUMP JUMPDEST SWAP3 POP POP PUSH1 0x40 PUSH2 0x9B3 DUP7 DUP3 DUP8 ADD PUSH2 0x8F0 JUMP JUMPDEST SWAP2 POP POP SWAP3 POP SWAP3 POP SWAP3 JUMP JUMPDEST PUSH2 0x9C6 DUP2 PUSH2 0xC10 JUMP JUMPDEST DUP3 MSTORE POP POP JUMP JUMPDEST PUSH1 0x0 PUSH2 0x9D7 DUP3 PUSH2 0xB4B JUMP JUMPDEST PUSH2 0x9E1 DUP2 DUP6 PUSH2 0xB56 JUMP JUMPDEST SWAP4 POP PUSH2 0x9F1 DUP2 DUP6 PUSH1 0x20 DUP7 ADD PUSH2 0xC31 JUMP JUMPDEST PUSH2 0x9FA DUP2 PUSH2 0xD97 JUMP JUMPDEST DUP5 ADD SWAP2 POP POP SWAP3 SWAP2 POP POP JUMP JUMPDEST PUSH1 0x0 PUSH2 0xA12 PUSH1 0x1D DUP4 PUSH2 0xB56 JUMP JUMPDEST SWAP2 POP PUSH2 0xA1D DUP3 PUSH2 0xDA8 JUMP JUMPDEST PUSH1 0x20 DUP3 ADD SWAP1 POP SWAP2 SWAP1 POP JUMP JUMPDEST PUSH2 0xA31 DUP2 PUSH2 0xC06 JUMP JUMPDEST DUP3 MSTORE POP POP JUMP JUMPDEST PUSH1 0x0 PUSH1 0x20 DUP3 ADD SWAP1 POP PUSH2 0xA4C PUSH1 0x0 DUP4 ADD DUP5 PUSH2 0x9BD JUMP JUMPDEST SWAP3 SWAP2 POP POP JUMP JUMPDEST PUSH1 0x0 PUSH1 0xA0 DUP3 ADD SWAP1 POP DUP2 DUP2 SUB PUSH1 0x0 DUP4 ADD MSTORE PUSH2 0xA6C DUP2 DUP9 PUSH2 0x9CC JUMP JUMPDEST SWAP1 POP DUP2 DUP2 SUB PUSH1 0x20 DUP4 ADD MSTORE PUSH2 0xA80 DUP2 DUP8 PUSH2 0x9CC JUMP JUMPDEST SWAP1 POP PUSH2 0xA8F PUSH1 0x40 DUP4 ADD DUP7 PUSH2 0xA28 JUMP JUMPDEST DUP2 DUP2 SUB PUSH1 0x60 DUP4 ADD MSTORE PUSH2 0xAA1 DUP2 DUP6 PUSH2 0x9CC JUMP JUMPDEST SWAP1 POP PUSH2 0xAB0 PUSH1 0x80 DUP4 ADD DUP5 PUSH2 0xA28 JUMP JUMPDEST SWAP7 SWAP6 POP POP POP POP POP POP JUMP JUMPDEST PUSH1 0x0 PUSH1 0x20 DUP3 ADD SWAP1 POP DUP2 DUP2 SUB PUSH1 0x0 DUP4 ADD MSTORE PUSH2 0xAD3 DUP2 PUSH2 0xA05 JUMP JUMPDEST SWAP1 POP SWAP2 SWAP1 POP JUMP JUMPDEST PUSH1 0x0 PUSH1 0x20 DUP3 ADD SWAP1 POP PUSH2 0xAEF PUSH1 0x0 DUP4 ADD DUP5 PUSH2 0xA28 JUMP JUMPDEST SWAP3 SWAP2 POP POP JUMP JUMPDEST PUSH1 0x0 PUSH2 0xAFF PUSH2 0xB10 JUMP JUMPDEST SWAP1 POP PUSH2 0xB0B DUP3 DUP3 PUSH2 0xC96 JUMP JUMPDEST SWAP2 SWAP1 POP JUMP JUMPDEST PUSH1 0x0 PUSH1 0x40 MLOAD SWAP1 POP SWAP1 JUMP JUMPDEST PUSH1 0x0 PUSH8 0xFFFFFFFFFFFFFFFF DUP3 GT ISZERO PUSH2 0xB35 JUMPI PUSH2 0xB34 PUSH2 0xD54 JUMP JUMPDEST JUMPDEST PUSH2 0xB3E DUP3 PUSH2 0xD97 JUMP JUMPDEST SWAP1 POP PUSH1 0x20 DUP2 ADD SWAP1 POP SWAP2 SWAP1 POP JUMP JUMPDEST PUSH1 0x0 DUP2 MLOAD SWAP1 POP SWAP2 SWAP1 POP JUMP JUMPDEST PUSH1 0x0 DUP3 DUP3 MSTORE PUSH1 0x20 DUP3 ADD SWAP1 POP SWAP3 SWAP2 POP POP JUMP JUMPDEST PUSH1 0x0 PUSH2 0xB72 DUP3 PUSH2 0xC06 JUMP JUMPDEST SWAP2 POP PUSH2 0xB7D DUP4 PUSH2 0xC06 JUMP JUMPDEST SWAP3 POP DUP2 PUSH32 0xFFFFFFFFFFFFFFFFFFFFFFFFFFFFFFFFFFFFFFFFFFFFFFFFFFFFFFFFFFFFFFFF DIV DUP4 GT DUP3 ISZERO ISZERO AND ISZERO PUSH2 0xBB6 JUMPI PUSH2 0xBB5 PUSH2 0xCC7 JUMP JUMPDEST JUMPDEST DUP3 DUP3 MUL SWAP1 POP SWAP3 SWAP2 POP POP JUMP JUMPDEST PUSH1 0x0 PUSH2 0xBCC DUP3 PUSH2 0xBE6 JUMP JUMPDEST SWAP1 POP SWAP2 SWAP1 POP JUMP JUMPDEST PUSH1 0x0 DUP2 SWAP1 POP PUSH2 0xBE1 DUP3 PUSH2 0xDD1 JUMP JUMPDEST SWAP2 SWAP1 POP JUMP JUMPDEST PUSH1 0x0 PUSH20 0xFFFFFFFFFFFFFFFFFFFFFFFFFFFFFFFFFFFFFFFF DUP3 AND SWAP1 POP SWAP2 SWAP1 POP JUMP JUMPDEST PUSH1 0x0 DUP2 SWAP1 POP SWAP2 SWAP1 POP JUMP JUMPDEST PUSH1 0x0 PUSH2 0xC1B DUP3 PUSH2 0xBD3 JUMP JUMPDEST SWAP1 POP SWAP2 SWAP1 POP JUMP JUMPDEST DUP3 DUP2 DUP4 CALLDATACOPY PUSH1 0x0 DUP4 DUP4 ADD MSTORE POP POP POP JUMP JUMPDEST PUSH1 0x0 JUMPDEST DUP4 DUP2 LT ISZERO PUSH2 0xC4F JUMPI DUP1 DUP3 ADD MLOAD DUP2 DUP5 ADD MSTORE PUSH1 0x20 DUP2 ADD SWAP1 POP PUSH2 0xC34 JUMP JUMPDEST DUP4 DUP2 GT ISZERO PUSH2 0xC5E JUMPI PUSH1 0x0 DUP5 DUP5 ADD MSTORE JUMPDEST POP POP POP POP JUMP JUMPDEST PUSH1 0x0 PUSH1 0x2 DUP3 DIV SWAP1 POP PUSH1 0x1 DUP3 AND DUP1 PUSH2 0xC7C JUMPI PUSH1 0x7F DUP3 AND SWAP2 POP JUMPDEST PUSH1 0x20 DUP3 LT DUP2 EQ ISZERO PUSH2 0xC90 JUMPI PUSH2 0xC8F PUSH2 0xD25 JUMP JUMPDEST JUMPDEST POP SWAP2 SWAP1 POP JUMP JUMPDEST PUSH2 0xC9F DUP3 PUSH2 0xD97 JUMP JUMPDEST DUP2 ADD DUP2 DUP2 LT PUSH8 0xFFFFFFFFFFFFFFFF DUP3 GT OR ISZERO PUSH2 0xCBE JUMPI PUSH2 0xCBD PUSH2 0xD54 JUMP JUMPDEST JUMPDEST DUP1 PUSH1 0x40 MSTORE POP POP POP JUMP JUMPDEST PUSH32 0x4E487B7100000000000000000000000000000000000000000000000000000000 PUSH1 0x0 MSTORE PUSH1 0x11 PUSH1 0x4 MSTORE PUSH1 0x24 PUSH1 0x0 REVERT JUMPDEST PUSH32 0x4E487B7100000000000000000000000000000000000000000000000000000000 PUSH1 0x0 MSTORE PUSH1 0x21 PUSH1 0x4 MSTORE PUSH1 0x24 PUSH1 0x0 REVERT JUMPDEST PUSH32 0x4E487B7100000000000000000000000000000000000000000000000000000000 PUSH1 0x0 MSTORE PUSH1 0x22 PUSH1 0x4 MSTORE PUSH1 0x24 PUSH1 0x0 REVERT JUMPDEST PUSH32 0x4E487B7100000000000000000000000000000000000000000000000000000000 PUSH1 0x0 MSTORE PUSH1 0x41 PUSH1 0x4 MSTORE PUSH1 0x24 PUSH1 0x0 REVERT JUMPDEST PUSH1 0x0 DUP1 REVERT JUMPDEST PUSH1 0x0 DUP1 REVERT JUMPDEST PUSH1 0x0 DUP1 REVERT JUMPDEST PUSH1 0x0 DUP1 REVERT JUMPDEST PUSH1 0x0 PUSH1 0x1F NOT PUSH1 0x1F DUP4 ADD AND SWAP1 POP SWAP2 SWAP1 POP JUMP JUMPDEST PUSH32 0x706C656173652073656C6563742074686520636C617373206669727374000000 PUSH1 0x0 DUP3 ADD MSTORE POP JUMP JUMPDEST PUSH1 0x3 DUP2 LT PUSH2 0xDE2 JUMPI PUSH2 0xDE1 PUSH2 0xCF6 JUMP JUMPDEST JUMPDEST POP JUMP JUMPDEST PUSH2 0xDEE DUP2 PUSH2 0xBC1 JUMP JUMPDEST DUP2 EQ PUSH2 0xDF9 JUMPI PUSH1 0x0 DUP1 REVERT JUMPDEST POP JUMP JUMPDEST PUSH2 0xE05 DUP2 PUSH2 0xC06 JUMP JUMPDEST DUP2 EQ PUSH2 0xE10 JUMPI PUSH1 0x0 DUP1 REVERT JUMPDEST POP JUMP INVALID LOG2 PUSH5 0x6970667358 0x22 SLT KECCAK256 0x29 DUP6 ADDRESS 0x2E 0xFB PUSH24 0x4C20411E6D5A0331E14F264F175DA478A53A0CDD6F296E9 EQ DUP9 PUSH5 0x736F6C6343 STOP ADDMOD SMOD STOP CALLER "
				},
				"gasEstimates": {
					"creation": {
						"codeDepositCost": "731400",
						"executionCost": "infinite",
						"totalCost": "infinite"
					},
					"external": {
						"busnissClass()": "infinite",
						"costTry()": "2495",
						"data(address)": "infinite",
						"economyClass()": "infinite",
						"firstClass()": "infinite",
						"oneEth()": "2430",
						"oneWei()": "2496",
						"setData(string,string,uint256)": "infinite",
						"u1()": "2605"
					}
				},
				"methodIdentifiers": {
					"busnissClass()": "b24fa0e4",
					"costTry()": "b3abc739",
					"data(address)": "b90d3d0c",
					"economyClass()": "7a1736d1",
					"firstClass()": "50183507",
					"oneEth()": "09a8d3f5",
					"oneWei()": "4fb2e0be",
					"setData(string,string,uint256)": "17ae4589",
					"u1()": "1aa35610"
				}
			},
			"userdoc": {
				"kind": "user",
				"methods": {},
				"version": 1
			}
		}
	}
}