{
	"Task01(struct-map).sol": {
		"demo": {
			"abi": [
				{
					"inputs": [
						{
							"internalType": "uint256",
							"name": "",
							"type": "uint256"
						}
					],
					"name": "data",
					"outputs": [
						{
							"internalType": "string",
							"name": "name",
							"type": "string"
						},
						{
							"internalType": "string",
							"name": "destination",
							"type": "string"
						}
					],
					"stateMutability": "view",
					"type": "function"
				},
				{
					"inputs": [
						{
							"internalType": "uint256",
							"name": "_passportId",
							"type": "uint256"
						},
						{
							"internalType": "string",
							"name": "_name",
							"type": "string"
						},
						{
							"internalType": "string",
							"name": "_destination",
							"type": "string"
						}
					],
					"name": "setter",
					"outputs": [],
					"stateMutability": "nonpayable",
					"type": "function"
				},
				{
					"inputs": [],
					"name": "u1",
					"outputs": [
						{
							"internalType": "enum class",
							"name": "",
							"type": "uint8"
						}
					],
					"stateMutability": "view",
					"type": "function"
				}
			],
			"devdoc": {
				"kind": "dev",
				"methods": {},
				"version": 1
			},
			"evm": {
				"assembly": "    /* \"Task01(struct-map).sol\":239:520  contract demo \r... */\n  mstore(0x40, 0x80)\n    /* \"Task01(struct-map).sol\":280:299  class.economy_class */\n  0x02\n    /* \"Task01(struct-map).sol\":262:299  class public u1 = class.economy_class */\n  0x00\n  dup1\n  0x0100\n  exp\n  dup2\n  sload\n  dup2\n  0xff\n  mul\n  not\n  and\n  swap1\n  dup4\n  0x02\n  dup2\n  gt\n  iszero\n  tag_1\n  jumpi\n  tag_2\n  tag_3\n  jump\t// in\ntag_2:\ntag_1:\n  mul\n  or\n  swap1\n  sstore\n  pop\n    /* \"Task01(struct-map).sol\":239:520  contract demo \r... */\n  callvalue\n  dup1\n  iszero\n  tag_4\n  jumpi\n  0x00\n  dup1\n  revert\ntag_4:\n  pop\n  jump(tag_5)\n    /* \"#utility.yul\":7:187   */\ntag_3:\n    /* \"#utility.yul\":55:132   */\n  0x4e487b7100000000000000000000000000000000000000000000000000000000\n    /* \"#utility.yul\":52:53   */\n  0x00\n    /* \"#utility.yul\":45:133   */\n  mstore\n    /* \"#utility.yul\":152:156   */\n  0x21\n    /* \"#utility.yul\":149:150   */\n  0x04\n    /* \"#utility.yul\":142:157   */\n  mstore\n    /* \"#utility.yul\":176:180   */\n  0x24\n    /* \"#utility.yul\":173:174   */\n  0x00\n    /* \"#utility.yul\":166:181   */\n  revert\n    /* \"Task01(struct-map).sol\":239:520  contract demo \r... */\ntag_5:\n  dataSize(sub_0)\n  dup1\n  dataOffset(sub_0)\n  0x00\n  codecopy\n  0x00\n  return\nstop\n\nsub_0: assembly {\n        /* \"Task01(struct-map).sol\":239:520  contract demo \r... */\n      mstore(0x40, 0x80)\n      callvalue\n      dup1\n      iszero\n      tag_1\n      jumpi\n      0x00\n      dup1\n      revert\n    tag_1:\n      pop\n      jumpi(tag_2, lt(calldatasize, 0x04))\n      shr(0xe0, calldataload(0x00))\n      dup1\n      0x1aa35610\n      eq\n      tag_3\n      jumpi\n      dup1\n      0x6328feea\n      eq\n      tag_4\n      jumpi\n      dup1\n      0xf0ba8440\n      eq\n      tag_5\n      jumpi\n    tag_2:\n      0x00\n      dup1\n      revert\n        /* \"Task01(struct-map).sol\":262:299  class public u1 = class.economy_class */\n    tag_3:\n      tag_6\n      tag_7\n      jump\t// in\n    tag_6:\n      mload(0x40)\n      tag_8\n      swap2\n      swap1\n      tag_9\n      jump\t// in\n    tag_8:\n      mload(0x40)\n      dup1\n      swap2\n      sub\n      swap1\n      return\n        /* \"Task01(struct-map).sol\":355:517  function setter(uint _passportId, string memory _name, string memory _destination) public\r... */\n    tag_4:\n      tag_10\n      0x04\n      dup1\n      calldatasize\n      sub\n      dup2\n      add\n      swap1\n      tag_11\n      swap2\n      swap1\n      tag_12\n      jump\t// in\n    tag_11:\n      tag_13\n      jump\t// in\n    tag_10:\n      stop\n        /* \"Task01(struct-map).sol\":308:346  mapping( uint => Student ) public data */\n    tag_5:\n      tag_14\n      0x04\n      dup1\n      calldatasize\n      sub\n      dup2\n      add\n      swap1\n      tag_15\n      swap2\n      swap1\n      tag_16\n      jump\t// in\n    tag_15:\n      tag_17\n      jump\t// in\n    tag_14:\n      mload(0x40)\n      tag_18\n      swap3\n      swap2\n      swap1\n      tag_19\n      jump\t// in\n    tag_18:\n      mload(0x40)\n      dup1\n      swap2\n      sub\n      swap1\n      return\n        /* \"Task01(struct-map).sol\":262:299  class public u1 = class.economy_class */\n    tag_7:\n      0x00\n      dup1\n      sload\n      swap1\n      0x0100\n      exp\n      swap1\n      div\n      0xff\n      and\n      dup2\n      jump\t// out\n        /* \"Task01(struct-map).sol\":355:517  function setter(uint _passportId, string memory _name, string memory _destination) public\r... */\n    tag_13:\n        /* \"Task01(struct-map).sol\":481:509  Student(_name, _destination) */\n      mload(0x40)\n      dup1\n      0x40\n      add\n      0x40\n      mstore\n      dup1\n        /* \"Task01(struct-map).sol\":489:494  _name */\n      dup4\n        /* \"Task01(struct-map).sol\":481:509  Student(_name, _destination) */\n      dup2\n      mstore\n      0x20\n      add\n        /* \"Task01(struct-map).sol\":496:508  _destination */\n      dup3\n        /* \"Task01(struct-map).sol\":481:509  Student(_name, _destination) */\n      dup2\n      mstore\n      pop\n        /* \"Task01(struct-map).sol\":461:465  data */\n      0x01\n        /* \"Task01(struct-map).sol\":461:478  data[_passportId] */\n      0x00\n        /* \"Task01(struct-map).sol\":466:477  _passportId */\n      dup6\n        /* \"Task01(struct-map).sol\":461:478  data[_passportId] */\n      dup2\n      mstore\n      0x20\n      add\n      swap1\n      dup2\n      mstore\n      0x20\n      add\n      0x00\n      keccak256\n        /* \"Task01(struct-map).sol\":461:509  data[_passportId] = Student(_name, _destination) */\n      0x00\n      dup3\n      add\n      mload\n      dup2\n      0x00\n      add\n      swap1\n      dup1\n      mload\n      swap1\n      0x20\n      add\n      swap1\n      tag_21\n      swap3\n      swap2\n      swap1\n      tag_22\n      jump\t// in\n    tag_21:\n      pop\n      0x20\n      dup3\n      add\n      mload\n      dup2\n      0x01\n      add\n      swap1\n      dup1\n      mload\n      swap1\n      0x20\n      add\n      swap1\n      tag_23\n      swap3\n      swap2\n      swap1\n      tag_22\n      jump\t// in\n    tag_23:\n      pop\n      swap1\n      pop\n      pop\n        /* \"Task01(struct-map).sol\":355:517  function setter(uint _passportId, string memory _name, string memory _destination) public\r... */\n      pop\n      pop\n      pop\n      jump\t// out\n        /* \"Task01(struct-map).sol\":308:346  mapping( uint => Student ) public data */\n    tag_17:\n      mstore(0x20, 0x01)\n      dup1\n      0x00\n      mstore\n      keccak256(0x00, 0x40)\n      0x00\n      swap2\n      pop\n      swap1\n      pop\n      dup1\n      0x00\n      add\n      dup1\n      sload\n      tag_24\n      swap1\n      tag_25\n      jump\t// in\n    tag_24:\n      dup1\n      0x1f\n      add\n      0x20\n      dup1\n      swap2\n      div\n      mul\n      0x20\n      add\n      mload(0x40)\n      swap1\n      dup2\n      add\n      0x40\n      mstore\n      dup1\n      swap3\n      swap2\n      swap1\n      dup2\n      dup2\n      mstore\n      0x20\n      add\n      dup3\n      dup1\n      sload\n      tag_26\n      swap1\n      tag_25\n      jump\t// in\n    tag_26:\n      dup1\n      iszero\n      tag_27\n      jumpi\n      dup1\n      0x1f\n      lt\n      tag_28\n      jumpi\n      0x0100\n      dup1\n      dup4\n      sload\n      div\n      mul\n      dup4\n      mstore\n      swap2\n      0x20\n      add\n      swap2\n      jump(tag_27)\n    tag_28:\n      dup3\n      add\n      swap2\n      swap1\n      0x00\n      mstore\n      keccak256(0x00, 0x20)\n      swap1\n    tag_29:\n      dup2\n      sload\n      dup2\n      mstore\n      swap1\n      0x01\n      add\n      swap1\n      0x20\n      add\n      dup1\n      dup4\n      gt\n      tag_29\n      jumpi\n      dup3\n      swap1\n      sub\n      0x1f\n      and\n      dup3\n      add\n      swap2\n    tag_27:\n      pop\n      pop\n      pop\n      pop\n      pop\n      swap1\n      dup1\n      0x01\n      add\n      dup1\n      sload\n      tag_30\n      swap1\n      tag_25\n      jump\t// in\n    tag_30:\n      dup1\n      0x1f\n      add\n      0x20\n      dup1\n      swap2\n      div\n      mul\n      0x20\n      add\n      mload(0x40)\n      swap1\n      dup2\n      add\n      0x40\n      mstore\n      dup1\n      swap3\n      swap2\n      swap1\n      dup2\n      dup2\n      mstore\n      0x20\n      add\n      dup3\n      dup1\n      sload\n      tag_31\n      swap1\n      tag_25\n      jump\t// in\n    tag_31:\n      dup1\n      iszero\n      tag_32\n      jumpi\n      dup1\n      0x1f\n      lt\n      tag_33\n      jumpi\n      0x0100\n      dup1\n      dup4\n      sload\n      div\n      mul\n      dup4\n      mstore\n      swap2\n      0x20\n      add\n      swap2\n      jump(tag_32)\n    tag_33:\n      dup3\n      add\n      swap2\n      swap1\n      0x00\n      mstore\n      keccak256(0x00, 0x20)\n      swap1\n    tag_34:\n      dup2\n      sload\n      dup2\n      mstore\n      swap1\n      0x01\n      add\n      swap1\n      0x20\n      add\n      dup1\n      dup4\n      gt\n      tag_34\n      jumpi\n      dup3\n      swap1\n      sub\n      0x1f\n      and\n      dup3\n      add\n      swap2\n    tag_32:\n      pop\n      pop\n      pop\n      pop\n      pop\n      swap1\n      pop\n      dup3\n      jump\t// out\n    tag_22:\n      dup3\n      dup1\n      sload\n      tag_35\n      swap1\n      tag_25\n      jump\t// in\n    tag_35:\n      swap1\n      0x00\n      mstore\n      keccak256(0x00, 0x20)\n      swap1\n      0x1f\n      add\n      0x20\n      swap1\n      div\n      dup2\n      add\n      swap3\n      dup3\n      tag_37\n      jumpi\n      0x00\n      dup6\n      sstore\n      jump(tag_36)\n    tag_37:\n      dup3\n      0x1f\n      lt\n      tag_38\n      jumpi\n      dup1\n      mload\n      not(0xff)\n      and\n      dup4\n      dup1\n      add\n      or\n      dup6\n      sstore\n      jump(tag_36)\n    tag_38:\n      dup3\n      dup1\n      add\n      0x01\n      add\n      dup6\n      sstore\n      dup3\n      iszero\n      tag_36\n      jumpi\n      swap2\n      dup3\n      add\n    tag_39:\n      dup3\n      dup2\n      gt\n      iszero\n      tag_40\n      jumpi\n      dup3\n      mload\n      dup3\n      sstore\n      swap2\n      0x20\n      add\n      swap2\n      swap1\n      0x01\n      add\n      swap1\n      jump(tag_39)\n    tag_40:\n    tag_36:\n      pop\n      swap1\n      pop\n      tag_41\n      swap2\n      swap1\n      tag_42\n      jump\t// in\n    tag_41:\n      pop\n      swap1\n      jump\t// out\n    tag_42:\n    tag_43:\n      dup1\n      dup3\n      gt\n      iszero\n      tag_44\n      jumpi\n      0x00\n      dup2\n      0x00\n      swap1\n      sstore\n      pop\n      0x01\n      add\n      jump(tag_43)\n    tag_44:\n      pop\n      swap1\n      jump\t// out\n        /* \"#utility.yul\":7:419   */\n    tag_46:\n        /* \"#utility.yul\":85:90   */\n      0x00\n        /* \"#utility.yul\":110:176   */\n      tag_48\n        /* \"#utility.yul\":126:175   */\n      tag_49\n        /* \"#utility.yul\":168:174   */\n      dup5\n        /* \"#utility.yul\":126:175   */\n      tag_50\n      jump\t// in\n    tag_49:\n        /* \"#utility.yul\":110:176   */\n      tag_51\n      jump\t// in\n    tag_48:\n        /* \"#utility.yul\":101:176   */\n      swap1\n      pop\n        /* \"#utility.yul\":199:205   */\n      dup3\n        /* \"#utility.yul\":192:197   */\n      dup2\n        /* \"#utility.yul\":185:206   */\n      mstore\n        /* \"#utility.yul\":237:241   */\n      0x20\n        /* \"#utility.yul\":230:235   */\n      dup2\n        /* \"#utility.yul\":226:242   */\n      add\n        /* \"#utility.yul\":275:278   */\n      dup5\n        /* \"#utility.yul\":266:272   */\n      dup5\n        /* \"#utility.yul\":261:264   */\n      dup5\n        /* \"#utility.yul\":257:273   */\n      add\n        /* \"#utility.yul\":254:279   */\n      gt\n        /* \"#utility.yul\":251:363   */\n      iszero\n      tag_52\n      jumpi\n        /* \"#utility.yul\":282:361   */\n      tag_53\n      tag_54\n      jump\t// in\n    tag_53:\n        /* \"#utility.yul\":251:363   */\n    tag_52:\n        /* \"#utility.yul\":372:413   */\n      tag_55\n        /* \"#utility.yul\":406:412   */\n      dup5\n        /* \"#utility.yul\":401:404   */\n      dup3\n        /* \"#utility.yul\":396:399   */\n      dup6\n        /* \"#utility.yul\":372:413   */\n      tag_56\n      jump\t// in\n    tag_55:\n        /* \"#utility.yul\":91:419   */\n      pop\n        /* \"#utility.yul\":7:419   */\n      swap4\n      swap3\n      pop\n      pop\n      pop\n      jump\t// out\n        /* \"#utility.yul\":439:779   */\n    tag_57:\n        /* \"#utility.yul\":495:500   */\n      0x00\n        /* \"#utility.yul\":544:547   */\n      dup3\n        /* \"#utility.yul\":537:541   */\n      0x1f\n        /* \"#utility.yul\":529:535   */\n      dup4\n        /* \"#utility.yul\":525:542   */\n      add\n        /* \"#utility.yul\":521:548   */\n      slt\n        /* \"#utility.yul\":511:633   */\n      tag_59\n      jumpi\n        /* \"#utility.yul\":552:631   */\n      tag_60\n      tag_61\n      jump\t// in\n    tag_60:\n        /* \"#utility.yul\":511:633   */\n    tag_59:\n        /* \"#utility.yul\":669:675   */\n      dup2\n        /* \"#utility.yul\":656:676   */\n      calldataload\n        /* \"#utility.yul\":694:773   */\n      tag_62\n        /* \"#utility.yul\":769:772   */\n      dup5\n        /* \"#utility.yul\":761:767   */\n      dup3\n        /* \"#utility.yul\":754:758   */\n      0x20\n        /* \"#utility.yul\":746:752   */\n      dup7\n        /* \"#utility.yul\":742:759   */\n      add\n        /* \"#utility.yul\":694:773   */\n      tag_46\n      jump\t// in\n    tag_62:\n        /* \"#utility.yul\":685:773   */\n      swap2\n      pop\n        /* \"#utility.yul\":501:779   */\n      pop\n        /* \"#utility.yul\":439:779   */\n      swap3\n      swap2\n      pop\n      pop\n      jump\t// out\n        /* \"#utility.yul\":785:924   */\n    tag_63:\n        /* \"#utility.yul\":831:836   */\n      0x00\n        /* \"#utility.yul\":869:875   */\n      dup2\n        /* \"#utility.yul\":856:876   */\n      calldataload\n        /* \"#utility.yul\":847:876   */\n      swap1\n      pop\n        /* \"#utility.yul\":885:918   */\n      tag_65\n        /* \"#utility.yul\":912:917   */\n      dup2\n        /* \"#utility.yul\":885:918   */\n      tag_66\n      jump\t// in\n    tag_65:\n        /* \"#utility.yul\":785:924   */\n      swap3\n      swap2\n      pop\n      pop\n      jump\t// out\n        /* \"#utility.yul\":930:1259   */\n    tag_16:\n        /* \"#utility.yul\":989:995   */\n      0x00\n        /* \"#utility.yul\":1038:1040   */\n      0x20\n        /* \"#utility.yul\":1026:1035   */\n      dup3\n        /* \"#utility.yul\":1017:1024   */\n      dup5\n        /* \"#utility.yul\":1013:1036   */\n      sub\n        /* \"#utility.yul\":1009:1041   */\n      slt\n        /* \"#utility.yul\":1006:1125   */\n      iszero\n      tag_68\n      jumpi\n        /* \"#utility.yul\":1044:1123   */\n      tag_69\n      tag_70\n      jump\t// in\n    tag_69:\n        /* \"#utility.yul\":1006:1125   */\n    tag_68:\n        /* \"#utility.yul\":1164:1165   */\n      0x00\n        /* \"#utility.yul\":1189:1242   */\n      tag_71\n        /* \"#utility.yul\":1234:1241   */\n      dup5\n        /* \"#utility.yul\":1225:1231   */\n      dup3\n        /* \"#utility.yul\":1214:1223   */\n      dup6\n        /* \"#utility.yul\":1210:1232   */\n      add\n        /* \"#utility.yul\":1189:1242   */\n      tag_63\n      jump\t// in\n    tag_71:\n        /* \"#utility.yul\":1179:1242   */\n      swap2\n      pop\n        /* \"#utility.yul\":1135:1252   */\n      pop\n        /* \"#utility.yul\":930:1259   */\n      swap3\n      swap2\n      pop\n      pop\n      jump\t// out\n        /* \"#utility.yul\":1265:2244   */\n    tag_12:\n        /* \"#utility.yul\":1362:1368   */\n      0x00\n        /* \"#utility.yul\":1370:1376   */\n      dup1\n        /* \"#utility.yul\":1378:1384   */\n      0x00\n        /* \"#utility.yul\":1427:1429   */\n      0x60\n        /* \"#utility.yul\":1415:1424   */\n      dup5\n        /* \"#utility.yul\":1406:1413   */\n      dup7\n        /* \"#utility.yul\":1402:1425   */\n      sub\n        /* \"#utility.yul\":1398:1430   */\n      slt\n        /* \"#utility.yul\":1395:1514   */\n      iszero\n      tag_73\n      jumpi\n        /* \"#utility.yul\":1433:1512   */\n      tag_74\n      tag_70\n      jump\t// in\n    tag_74:\n        /* \"#utility.yul\":1395:1514   */\n    tag_73:\n        /* \"#utility.yul\":1553:1554   */\n      0x00\n        /* \"#utility.yul\":1578:1631   */\n      tag_75\n        /* \"#utility.yul\":1623:1630   */\n      dup7\n        /* \"#utility.yul\":1614:1620   */\n      dup3\n        /* \"#utility.yul\":1603:1612   */\n      dup8\n        /* \"#utility.yul\":1599:1621   */\n      add\n        /* \"#utility.yul\":1578:1631   */\n      tag_63\n      jump\t// in\n    tag_75:\n        /* \"#utility.yul\":1568:1631   */\n      swap4\n      pop\n        /* \"#utility.yul\":1524:1641   */\n      pop\n        /* \"#utility.yul\":1708:1710   */\n      0x20\n        /* \"#utility.yul\":1697:1706   */\n      dup5\n        /* \"#utility.yul\":1693:1711   */\n      add\n        /* \"#utility.yul\":1680:1712   */\n      calldataload\n        /* \"#utility.yul\":1739:1757   */\n      0xffffffffffffffff\n        /* \"#utility.yul\":1731:1737   */\n      dup2\n        /* \"#utility.yul\":1728:1758   */\n      gt\n        /* \"#utility.yul\":1725:1842   */\n      iszero\n      tag_76\n      jumpi\n        /* \"#utility.yul\":1761:1840   */\n      tag_77\n      tag_78\n      jump\t// in\n    tag_77:\n        /* \"#utility.yul\":1725:1842   */\n    tag_76:\n        /* \"#utility.yul\":1866:1929   */\n      tag_79\n        /* \"#utility.yul\":1921:1928   */\n      dup7\n        /* \"#utility.yul\":1912:1918   */\n      dup3\n        /* \"#utility.yul\":1901:1910   */\n      dup8\n        /* \"#utility.yul\":1897:1919   */\n      add\n        /* \"#utility.yul\":1866:1929   */\n      tag_57\n      jump\t// in\n    tag_79:\n        /* \"#utility.yul\":1856:1929   */\n      swap3\n      pop\n        /* \"#utility.yul\":1651:1939   */\n      pop\n        /* \"#utility.yul\":2006:2008   */\n      0x40\n        /* \"#utility.yul\":1995:2004   */\n      dup5\n        /* \"#utility.yul\":1991:2009   */\n      add\n        /* \"#utility.yul\":1978:2010   */\n      calldataload\n        /* \"#utility.yul\":2037:2055   */\n      0xffffffffffffffff\n        /* \"#utility.yul\":2029:2035   */\n      dup2\n        /* \"#utility.yul\":2026:2056   */\n      gt\n        /* \"#utility.yul\":2023:2140   */\n      iszero\n      tag_80\n      jumpi\n        /* \"#utility.yul\":2059:2138   */\n      tag_81\n      tag_78\n      jump\t// in\n    tag_81:\n        /* \"#utility.yul\":2023:2140   */\n    tag_80:\n        /* \"#utility.yul\":2164:2227   */\n      tag_82\n        /* \"#utility.yul\":2219:2226   */\n      dup7\n        /* \"#utility.yul\":2210:2216   */\n      dup3\n        /* \"#utility.yul\":2199:2208   */\n      dup8\n        /* \"#utility.yul\":2195:2217   */\n      add\n        /* \"#utility.yul\":2164:2227   */\n      tag_57\n      jump\t// in\n    tag_82:\n        /* \"#utility.yul\":2154:2227   */\n      swap2\n      pop\n        /* \"#utility.yul\":1949:2237   */\n      pop\n        /* \"#utility.yul\":1265:2244   */\n      swap3\n      pop\n      swap3\n      pop\n      swap3\n      jump\t// out\n        /* \"#utility.yul\":2250:2391   */\n    tag_83:\n        /* \"#utility.yul\":2342:2384   */\n      tag_85\n        /* \"#utility.yul\":2378:2383   */\n      dup2\n        /* \"#utility.yul\":2342:2384   */\n      tag_86\n      jump\t// in\n    tag_85:\n        /* \"#utility.yul\":2337:2340   */\n      dup3\n        /* \"#utility.yul\":2330:2385   */\n      mstore\n        /* \"#utility.yul\":2250:2391   */\n      pop\n      pop\n      jump\t// out\n        /* \"#utility.yul\":2397:2761   */\n    tag_87:\n        /* \"#utility.yul\":2485:2488   */\n      0x00\n        /* \"#utility.yul\":2513:2552   */\n      tag_89\n        /* \"#utility.yul\":2546:2551   */\n      dup3\n        /* \"#utility.yul\":2513:2552   */\n      tag_90\n      jump\t// in\n    tag_89:\n        /* \"#utility.yul\":2568:2639   */\n      tag_91\n        /* \"#utility.yul\":2632:2638   */\n      dup2\n        /* \"#utility.yul\":2627:2630   */\n      dup6\n        /* \"#utility.yul\":2568:2639   */\n      tag_92\n      jump\t// in\n    tag_91:\n        /* \"#utility.yul\":2561:2639   */\n      swap4\n      pop\n        /* \"#utility.yul\":2648:2700   */\n      tag_93\n        /* \"#utility.yul\":2693:2699   */\n      dup2\n        /* \"#utility.yul\":2688:2691   */\n      dup6\n        /* \"#utility.yul\":2681:2685   */\n      0x20\n        /* \"#utility.yul\":2674:2679   */\n      dup7\n        /* \"#utility.yul\":2670:2686   */\n      add\n        /* \"#utility.yul\":2648:2700   */\n      tag_94\n      jump\t// in\n    tag_93:\n        /* \"#utility.yul\":2725:2754   */\n      tag_95\n        /* \"#utility.yul\":2747:2753   */\n      dup2\n        /* \"#utility.yul\":2725:2754   */\n      tag_96\n      jump\t// in\n    tag_95:\n        /* \"#utility.yul\":2720:2723   */\n      dup5\n        /* \"#utility.yul\":2716:2755   */\n      add\n        /* \"#utility.yul\":2709:2755   */\n      swap2\n      pop\n        /* \"#utility.yul\":2489:2761   */\n      pop\n        /* \"#utility.yul\":2397:2761   */\n      swap3\n      swap2\n      pop\n      pop\n      jump\t// out\n        /* \"#utility.yul\":2767:2999   */\n    tag_9:\n        /* \"#utility.yul\":2865:2869   */\n      0x00\n        /* \"#utility.yul\":2903:2905   */\n      0x20\n        /* \"#utility.yul\":2892:2901   */\n      dup3\n        /* \"#utility.yul\":2888:2906   */\n      add\n        /* \"#utility.yul\":2880:2906   */\n      swap1\n      pop\n        /* \"#utility.yul\":2916:2992   */\n      tag_98\n        /* \"#utility.yul\":2989:2990   */\n      0x00\n        /* \"#utility.yul\":2978:2987   */\n      dup4\n        /* \"#utility.yul\":2974:2991   */\n      add\n        /* \"#utility.yul\":2965:2971   */\n      dup5\n        /* \"#utility.yul\":2916:2992   */\n      tag_83\n      jump\t// in\n    tag_98:\n        /* \"#utility.yul\":2767:2999   */\n      swap3\n      swap2\n      pop\n      pop\n      jump\t// out\n        /* \"#utility.yul\":3005:3519   */\n    tag_19:\n        /* \"#utility.yul\":3166:3170   */\n      0x00\n        /* \"#utility.yul\":3204:3206   */\n      0x40\n        /* \"#utility.yul\":3193:3202   */\n      dup3\n        /* \"#utility.yul\":3189:3207   */\n      add\n        /* \"#utility.yul\":3181:3207   */\n      swap1\n      pop\n        /* \"#utility.yul\":3253:3262   */\n      dup2\n        /* \"#utility.yul\":3247:3251   */\n      dup2\n        /* \"#utility.yul\":3243:3263   */\n      sub\n        /* \"#utility.yul\":3239:3240   */\n      0x00\n        /* \"#utility.yul\":3228:3237   */\n      dup4\n        /* \"#utility.yul\":3224:3241   */\n      add\n        /* \"#utility.yul\":3217:3264   */\n      mstore\n        /* \"#utility.yul\":3281:3359   */\n      tag_100\n        /* \"#utility.yul\":3354:3358   */\n      dup2\n        /* \"#utility.yul\":3345:3351   */\n      dup6\n        /* \"#utility.yul\":3281:3359   */\n      tag_87\n      jump\t// in\n    tag_100:\n        /* \"#utility.yul\":3273:3359   */\n      swap1\n      pop\n        /* \"#utility.yul\":3406:3415   */\n      dup2\n        /* \"#utility.yul\":3400:3404   */\n      dup2\n        /* \"#utility.yul\":3396:3416   */\n      sub\n        /* \"#utility.yul\":3391:3393   */\n      0x20\n        /* \"#utility.yul\":3380:3389   */\n      dup4\n        /* \"#utility.yul\":3376:3394   */\n      add\n        /* \"#utility.yul\":3369:3417   */\n      mstore\n        /* \"#utility.yul\":3434:3512   */\n      tag_101\n        /* \"#utility.yul\":3507:3511   */\n      dup2\n        /* \"#utility.yul\":3498:3504   */\n      dup5\n        /* \"#utility.yul\":3434:3512   */\n      tag_87\n      jump\t// in\n    tag_101:\n        /* \"#utility.yul\":3426:3512   */\n      swap1\n      pop\n        /* \"#utility.yul\":3005:3519   */\n      swap4\n      swap3\n      pop\n      pop\n      pop\n      jump\t// out\n        /* \"#utility.yul\":3525:3654   */\n    tag_51:\n        /* \"#utility.yul\":3559:3565   */\n      0x00\n        /* \"#utility.yul\":3586:3606   */\n      tag_103\n      tag_104\n      jump\t// in\n    tag_103:\n        /* \"#utility.yul\":3576:3606   */\n      swap1\n      pop\n        /* \"#utility.yul\":3615:3648   */\n      tag_105\n        /* \"#utility.yul\":3643:3647   */\n      dup3\n        /* \"#utility.yul\":3635:3641   */\n      dup3\n        /* \"#utility.yul\":3615:3648   */\n      tag_106\n      jump\t// in\n    tag_105:\n        /* \"#utility.yul\":3525:3654   */\n      swap2\n      swap1\n      pop\n      jump\t// out\n        /* \"#utility.yul\":3660:3735   */\n    tag_104:\n        /* \"#utility.yul\":3693:3699   */\n      0x00\n        /* \"#utility.yul\":3726:3728   */\n      0x40\n        /* \"#utility.yul\":3720:3729   */\n      mload\n        /* \"#utility.yul\":3710:3729   */\n      swap1\n      pop\n        /* \"#utility.yul\":3660:3735   */\n      swap1\n      jump\t// out\n        /* \"#utility.yul\":3741:4049   */\n    tag_50:\n        /* \"#utility.yul\":3803:3807   */\n      0x00\n        /* \"#utility.yul\":3893:3911   */\n      0xffffffffffffffff\n        /* \"#utility.yul\":3885:3891   */\n      dup3\n        /* \"#utility.yul\":3882:3912   */\n      gt\n        /* \"#utility.yul\":3879:3935   */\n      iszero\n      tag_109\n      jumpi\n        /* \"#utility.yul\":3915:3933   */\n      tag_110\n      tag_111\n      jump\t// in\n    tag_110:\n        /* \"#utility.yul\":3879:3935   */\n    tag_109:\n        /* \"#utility.yul\":3953:3982   */\n      tag_112\n        /* \"#utility.yul\":3975:3981   */\n      dup3\n        /* \"#utility.yul\":3953:3982   */\n      tag_96\n      jump\t// in\n    tag_112:\n        /* \"#utility.yul\":3945:3982   */\n      swap1\n      pop\n        /* \"#utility.yul\":4037:4041   */\n      0x20\n        /* \"#utility.yul\":4031:4035   */\n      dup2\n        /* \"#utility.yul\":4027:4042   */\n      add\n        /* \"#utility.yul\":4019:4042   */\n      swap1\n      pop\n        /* \"#utility.yul\":3741:4049   */\n      swap2\n      swap1\n      pop\n      jump\t// out\n        /* \"#utility.yul\":4055:4154   */\n    tag_90:\n        /* \"#utility.yul\":4107:4113   */\n      0x00\n        /* \"#utility.yul\":4141:4146   */\n      dup2\n        /* \"#utility.yul\":4135:4147   */\n      mload\n        /* \"#utility.yul\":4125:4147   */\n      swap1\n      pop\n        /* \"#utility.yul\":4055:4154   */\n      swap2\n      swap1\n      pop\n      jump\t// out\n        /* \"#utility.yul\":4160:4329   */\n    tag_92:\n        /* \"#utility.yul\":4244:4255   */\n      0x00\n        /* \"#utility.yul\":4278:4284   */\n      dup3\n        /* \"#utility.yul\":4273:4276   */\n      dup3\n        /* \"#utility.yul\":4266:4285   */\n      mstore\n        /* \"#utility.yul\":4318:4322   */\n      0x20\n        /* \"#utility.yul\":4313:4316   */\n      dup3\n        /* \"#utility.yul\":4309:4323   */\n      add\n        /* \"#utility.yul\":4294:4323   */\n      swap1\n      pop\n        /* \"#utility.yul\":4160:4329   */\n      swap3\n      swap2\n      pop\n      pop\n      jump\t// out\n        /* \"#utility.yul\":4335:4460   */\n    tag_115:\n        /* \"#utility.yul\":4379:4386   */\n      0x00\n        /* \"#utility.yul\":4408:4413   */\n      dup2\n        /* \"#utility.yul\":4397:4413   */\n      swap1\n      pop\n        /* \"#utility.yul\":4414:4454   */\n      tag_117\n        /* \"#utility.yul\":4448:4453   */\n      dup3\n        /* \"#utility.yul\":4414:4454   */\n      tag_118\n      jump\t// in\n    tag_117:\n        /* \"#utility.yul\":4335:4460   */\n      swap2\n      swap1\n      pop\n      jump\t// out\n        /* \"#utility.yul\":4466:4543   */\n    tag_119:\n        /* \"#utility.yul\":4503:4510   */\n      0x00\n        /* \"#utility.yul\":4532:4537   */\n      dup2\n        /* \"#utility.yul\":4521:4537   */\n      swap1\n      pop\n        /* \"#utility.yul\":4466:4543   */\n      swap2\n      swap1\n      pop\n      jump\t// out\n        /* \"#utility.yul\":4549:4674   */\n    tag_86:\n        /* \"#utility.yul\":4604:4613   */\n      0x00\n        /* \"#utility.yul\":4637:4668   */\n      tag_122\n        /* \"#utility.yul\":4662:4667   */\n      dup3\n        /* \"#utility.yul\":4637:4668   */\n      tag_115\n      jump\t// in\n    tag_122:\n        /* \"#utility.yul\":4624:4668   */\n      swap1\n      pop\n        /* \"#utility.yul\":4549:4674   */\n      swap2\n      swap1\n      pop\n      jump\t// out\n        /* \"#utility.yul\":4680:4834   */\n    tag_56:\n        /* \"#utility.yul\":4764:4770   */\n      dup3\n        /* \"#utility.yul\":4759:4762   */\n      dup2\n        /* \"#utility.yul\":4754:4757   */\n      dup4\n        /* \"#utility.yul\":4741:4771   */\n      calldatacopy\n        /* \"#utility.yul\":4826:4827   */\n      0x00\n        /* \"#utility.yul\":4817:4823   */\n      dup4\n        /* \"#utility.yul\":4812:4815   */\n      dup4\n        /* \"#utility.yul\":4808:4824   */\n      add\n        /* \"#utility.yul\":4801:4828   */\n      mstore\n        /* \"#utility.yul\":4680:4834   */\n      pop\n      pop\n      pop\n      jump\t// out\n        /* \"#utility.yul\":4840:5147   */\n    tag_94:\n        /* \"#utility.yul\":4908:4909   */\n      0x00\n        /* \"#utility.yul\":4918:5031   */\n    tag_125:\n        /* \"#utility.yul\":4932:4938   */\n      dup4\n        /* \"#utility.yul\":4929:4930   */\n      dup2\n        /* \"#utility.yul\":4926:4939   */\n      lt\n        /* \"#utility.yul\":4918:5031   */\n      iszero\n      tag_127\n      jumpi\n        /* \"#utility.yul\":5017:5018   */\n      dup1\n        /* \"#utility.yul\":5012:5015   */\n      dup3\n        /* \"#utility.yul\":5008:5019   */\n      add\n        /* \"#utility.yul\":5002:5020   */\n      mload\n        /* \"#utility.yul\":4998:4999   */\n      dup2\n        /* \"#utility.yul\":4993:4996   */\n      dup5\n        /* \"#utility.yul\":4989:5000   */\n      add\n        /* \"#utility.yul\":4982:5021   */\n      mstore\n        /* \"#utility.yul\":4954:4956   */\n      0x20\n        /* \"#utility.yul\":4951:4952   */\n      dup2\n        /* \"#utility.yul\":4947:4957   */\n      add\n        /* \"#utility.yul\":4942:4957   */\n      swap1\n      pop\n        /* \"#utility.yul\":4918:5031   */\n      jump(tag_125)\n    tag_127:\n        /* \"#utility.yul\":5049:5055   */\n      dup4\n        /* \"#utility.yul\":5046:5047   */\n      dup2\n        /* \"#utility.yul\":5043:5056   */\n      gt\n        /* \"#utility.yul\":5040:5141   */\n      iszero\n      tag_128\n      jumpi\n        /* \"#utility.yul\":5129:5130   */\n      0x00\n        /* \"#utility.yul\":5120:5126   */\n      dup5\n        /* \"#utility.yul\":5115:5118   */\n      dup5\n        /* \"#utility.yul\":5111:5127   */\n      add\n        /* \"#utility.yul\":5104:5131   */\n      mstore\n        /* \"#utility.yul\":5040:5141   */\n    tag_128:\n        /* \"#utility.yul\":4889:5147   */\n      pop\n        /* \"#utility.yul\":4840:5147   */\n      pop\n      pop\n      pop\n      jump\t// out\n        /* \"#utility.yul\":5153:5473   */\n    tag_25:\n        /* \"#utility.yul\":5197:5203   */\n      0x00\n        /* \"#utility.yul\":5234:5235   */\n      0x02\n        /* \"#utility.yul\":5228:5232   */\n      dup3\n        /* \"#utility.yul\":5224:5236   */\n      div\n        /* \"#utility.yul\":5214:5236   */\n      swap1\n      pop\n        /* \"#utility.yul\":5281:5282   */\n      0x01\n        /* \"#utility.yul\":5275:5279   */\n      dup3\n        /* \"#utility.yul\":5271:5283   */\n      and\n        /* \"#utility.yul\":5302:5320   */\n      dup1\n        /* \"#utility.yul\":5292:5373   */\n      tag_130\n      jumpi\n        /* \"#utility.yul\":5358:5362   */\n      0x7f\n        /* \"#utility.yul\":5350:5356   */\n      dup3\n        /* \"#utility.yul\":5346:5363   */\n      and\n        /* \"#utility.yul\":5336:5363   */\n      swap2\n      pop\n        /* \"#utility.yul\":5292:5373   */\n    tag_130:\n        /* \"#utility.yul\":5420:5422   */\n      0x20\n        /* \"#utility.yul\":5412:5418   */\n      dup3\n        /* \"#utility.yul\":5409:5423   */\n      lt\n        /* \"#utility.yul\":5389:5407   */\n      dup2\n        /* \"#utility.yul\":5386:5424   */\n      eq\n        /* \"#utility.yul\":5383:5467   */\n      iszero\n      tag_131\n      jumpi\n        /* \"#utility.yul\":5439:5457   */\n      tag_132\n      tag_133\n      jump\t// in\n    tag_132:\n        /* \"#utility.yul\":5383:5467   */\n    tag_131:\n        /* \"#utility.yul\":5204:5473   */\n      pop\n        /* \"#utility.yul\":5153:5473   */\n      swap2\n      swap1\n      pop\n      jump\t// out\n        /* \"#utility.yul\":5479:5760   */\n    tag_106:\n        /* \"#utility.yul\":5562:5589   */\n      tag_135\n        /* \"#utility.yul\":5584:5588   */\n      dup3\n        /* \"#utility.yul\":5562:5589   */\n      tag_96\n      jump\t// in\n    tag_135:\n        /* \"#utility.yul\":5554:5560   */\n      dup2\n        /* \"#utility.yul\":5550:5590   */\n      add\n        /* \"#utility.yul\":5692:5698   */\n      dup2\n        /* \"#utility.yul\":5680:5690   */\n      dup2\n        /* \"#utility.yul\":5677:5699   */\n      lt\n        /* \"#utility.yul\":5656:5674   */\n      0xffffffffffffffff\n        /* \"#utility.yul\":5644:5654   */\n      dup3\n        /* \"#utility.yul\":5641:5675   */\n      gt\n        /* \"#utility.yul\":5638:5700   */\n      or\n        /* \"#utility.yul\":5635:5723   */\n      iszero\n      tag_136\n      jumpi\n        /* \"#utility.yul\":5703:5721   */\n      tag_137\n      tag_111\n      jump\t// in\n    tag_137:\n        /* \"#utility.yul\":5635:5723   */\n    tag_136:\n        /* \"#utility.yul\":5743:5753   */\n      dup1\n        /* \"#utility.yul\":5739:5741   */\n      0x40\n        /* \"#utility.yul\":5732:5754   */\n      mstore\n        /* \"#utility.yul\":5522:5760   */\n      pop\n        /* \"#utility.yul\":5479:5760   */\n      pop\n      pop\n      jump\t// out\n        /* \"#utility.yul\":5766:5946   */\n    tag_138:\n        /* \"#utility.yul\":5814:5891   */\n      0x4e487b7100000000000000000000000000000000000000000000000000000000\n        /* \"#utility.yul\":5811:5812   */\n      0x00\n        /* \"#utility.yul\":5804:5892   */\n      mstore\n        /* \"#utility.yul\":5911:5915   */\n      0x21\n        /* \"#utility.yul\":5908:5909   */\n      0x04\n        /* \"#utility.yul\":5901:5916   */\n      mstore\n        /* \"#utility.yul\":5935:5939   */\n      0x24\n        /* \"#utility.yul\":5932:5933   */\n      0x00\n        /* \"#utility.yul\":5925:5940   */\n      revert\n        /* \"#utility.yul\":5952:6132   */\n    tag_133:\n        /* \"#utility.yul\":6000:6077   */\n      0x4e487b7100000000000000000000000000000000000000000000000000000000\n        /* \"#utility.yul\":5997:5998   */\n      0x00\n        /* \"#utility.yul\":5990:6078   */\n      mstore\n        /* \"#utility.yul\":6097:6101   */\n      0x22\n        /* \"#utility.yul\":6094:6095   */\n      0x04\n        /* \"#utility.yul\":6087:6102   */\n      mstore\n        /* \"#utility.yul\":6121:6125   */\n      0x24\n        /* \"#utility.yul\":6118:6119   */\n      0x00\n        /* \"#utility.yul\":6111:6126   */\n      revert\n        /* \"#utility.yul\":6138:6318   */\n    tag_111:\n        /* \"#utility.yul\":6186:6263   */\n      0x4e487b7100000000000000000000000000000000000000000000000000000000\n        /* \"#utility.yul\":6183:6184   */\n      0x00\n        /* \"#utility.yul\":6176:6264   */\n      mstore\n        /* \"#utility.yul\":6283:6287   */\n      0x41\n        /* \"#utility.yul\":6280:6281   */\n      0x04\n        /* \"#utility.yul\":6273:6288   */\n      mstore\n        /* \"#utility.yul\":6307:6311   */\n      0x24\n        /* \"#utility.yul\":6304:6305   */\n      0x00\n        /* \"#utility.yul\":6297:6312   */\n      revert\n        /* \"#utility.yul\":6324:6441   */\n    tag_61:\n        /* \"#utility.yul\":6433:6434   */\n      0x00\n        /* \"#utility.yul\":6430:6431   */\n      dup1\n        /* \"#utility.yul\":6423:6435   */\n      revert\n        /* \"#utility.yul\":6447:6564   */\n    tag_54:\n        /* \"#utility.yul\":6556:6557   */\n      0x00\n        /* \"#utility.yul\":6553:6554   */\n      dup1\n        /* \"#utility.yul\":6546:6558   */\n      revert\n        /* \"#utility.yul\":6570:6687   */\n    tag_78:\n        /* \"#utility.yul\":6679:6680   */\n      0x00\n        /* \"#utility.yul\":6676:6677   */\n      dup1\n        /* \"#utility.yul\":6669:6681   */\n      revert\n        /* \"#utility.yul\":6693:6810   */\n    tag_70:\n        /* \"#utility.yul\":6802:6803   */\n      0x00\n        /* \"#utility.yul\":6799:6800   */\n      dup1\n        /* \"#utility.yul\":6792:6804   */\n      revert\n        /* \"#utility.yul\":6816:6918   */\n    tag_96:\n        /* \"#utility.yul\":6857:6863   */\n      0x00\n        /* \"#utility.yul\":6908:6910   */\n      0x1f\n        /* \"#utility.yul\":6904:6911   */\n      not\n        /* \"#utility.yul\":6899:6901   */\n      0x1f\n        /* \"#utility.yul\":6892:6897   */\n      dup4\n        /* \"#utility.yul\":6888:6902   */\n      add\n        /* \"#utility.yul\":6884:6912   */\n      and\n        /* \"#utility.yul\":6874:6912   */\n      swap1\n      pop\n        /* \"#utility.yul\":6816:6918   */\n      swap2\n      swap1\n      pop\n      jump\t// out\n        /* \"#utility.yul\":6924:7036   */\n    tag_118:\n        /* \"#utility.yul\":7004:7005   */\n      0x03\n        /* \"#utility.yul\":6997:7002   */\n      dup2\n        /* \"#utility.yul\":6994:7006   */\n      lt\n        /* \"#utility.yul\":6984:7030   */\n      tag_148\n      jumpi\n        /* \"#utility.yul\":7010:7028   */\n      tag_149\n      tag_138\n      jump\t// in\n    tag_149:\n        /* \"#utility.yul\":6984:7030   */\n    tag_148:\n        /* \"#utility.yul\":6924:7036   */\n      pop\n      jump\t// out\n        /* \"#utility.yul\":7042:7164   */\n    tag_66:\n        /* \"#utility.yul\":7115:7139   */\n      tag_151\n        /* \"#utility.yul\":7133:7138   */\n      dup2\n        /* \"#utility.yul\":7115:7139   */\n      tag_119\n      jump\t// in\n    tag_151:\n        /* \"#utility.yul\":7108:7113   */\n      dup2\n        /* \"#utility.yul\":7105:7140   */\n      eq\n        /* \"#utility.yul\":7095:7158   */\n      tag_152\n      jumpi\n        /* \"#utility.yul\":7154:7155   */\n      0x00\n        /* \"#utility.yul\":7151:7152   */\n      dup1\n        /* \"#utility.yul\":7144:7156   */\n      revert\n        /* \"#utility.yul\":7095:7158   */\n    tag_152:\n        /* \"#utility.yul\":7042:7164   */\n      pop\n      jump\t// out\n\n    auxdata: 0xa2646970667358221220948c97eabad4f16791f54cb115f6a69c9fdad8d405b8f12caa6e99c8f5b6d92564736f6c63430008070033\n}\n",
				"bytecode": {
					"linkReferences": {},
					"object": "608060405260026000806101000a81548160ff0219169083600281111561002957610028610040565b5b021790555034801561003a57600080fd5b5061006f565b7f4e487b7100000000000000000000000000000000000000000000000000000000600052602160045260246000fd5b6107338061007e6000396000f3fe608060405234801561001057600080fd5b50600436106100415760003560e01c80631aa35610146100465780636328feea14610064578063f0ba844014610080575b600080fd5b61004e6100b1565b60405161005b9190610488565b60405180910390f35b61007e600480360381019061007991906103b5565b6100c2565b005b61009a60048036038101906100959190610388565b61012c565b6040516100a89291906104a3565b60405180910390f35b60008054906101000a900460ff1681565b604051806040016040528083815260200182815250600160008581526020019081526020016000206000820151816000019080519060200190610106929190610260565b506020820151816001019080519060200190610123929190610260565b50905050505050565b600160205280600052604060002060009150905080600001805461014f906105bd565b80601f016020809104026020016040519081016040528092919081815260200182805461017b906105bd565b80156101c85780601f1061019d576101008083540402835291602001916101c8565b820191906000526020600020905b8154815290600101906020018083116101ab57829003601f168201915b5050505050908060010180546101dd906105bd565b80601f0160208091040260200160405190810160405280929190818152602001828054610209906105bd565b80156102565780601f1061022b57610100808354040283529160200191610256565b820191906000526020600020905b81548152906001019060200180831161023957829003601f168201915b5050505050905082565b82805461026c906105bd565b90600052602060002090601f01602090048101928261028e57600085556102d5565b82601f106102a757805160ff19168380011785556102d5565b828001600101855582156102d5579182015b828111156102d45782518255916020019190600101906102b9565b5b5090506102e291906102e6565b5090565b5b808211156102ff5760008160009055506001016102e7565b5090565b6000610316610311846104ff565b6104da565b905082815260208101848484011115610332576103316106b2565b5b61033d84828561057b565b509392505050565b600082601f83011261035a576103596106ad565b5b813561036a848260208601610303565b91505092915050565b600081359050610382816106e6565b92915050565b60006020828403121561039e5761039d6106bc565b5b60006103ac84828501610373565b91505092915050565b6000806000606084860312156103ce576103cd6106bc565b5b60006103dc86828701610373565b935050602084013567ffffffffffffffff8111156103fd576103fc6106b7565b5b61040986828701610345565b925050604084013567ffffffffffffffff81111561042a576104296106b7565b5b61043686828701610345565b9150509250925092565b61044981610569565b82525050565b600061045a82610530565b610464818561053b565b935061047481856020860161058a565b61047d816106c1565b840191505092915050565b600060208201905061049d6000830184610440565b92915050565b600060408201905081810360008301526104bd818561044f565b905081810360208301526104d1818461044f565b90509392505050565b60006104e46104f5565b90506104f082826105ef565b919050565b6000604051905090565b600067ffffffffffffffff82111561051a5761051961067e565b5b610523826106c1565b9050602081019050919050565b600081519050919050565b600082825260208201905092915050565b600081905061055a826106d2565b919050565b6000819050919050565b60006105748261054c565b9050919050565b82818337600083830152505050565b60005b838110156105a857808201518184015260208101905061058d565b838111156105b7576000848401525b50505050565b600060028204905060018216806105d557607f821691505b602082108114156105e9576105e861064f565b5b50919050565b6105f8826106c1565b810181811067ffffffffffffffff821117156106175761061661067e565b5b80604052505050565b7f4e487b7100000000000000000000000000000000000000000000000000000000600052602160045260246000fd5b7f4e487b7100000000000000000000000000000000000000000000000000000000600052602260045260246000fd5b7f4e487b7100000000000000000000000000000000000000000000000000000000600052604160045260246000fd5b600080fd5b600080fd5b600080fd5b600080fd5b6000601f19601f8301169050919050565b600381106106e3576106e2610620565b5b50565b6106ef8161055f565b81146106fa57600080fd5b5056fea2646970667358221220948c97eabad4f16791f54cb115f6a69c9fdad8d405b8f12caa6e99c8f5b6d92564736f6c63430008070033",
					"opcodes": "PUSH1 0x80 PUSH1 0x40 MSTORE PUSH1 0x2 PUSH1 0x0 DUP1 PUSH2 0x100 EXP DUP2 SLOAD DUP2 PUSH1 0xFF MUL NOT AND SWAP1 DUP4 PUSH1 0x2 DUP2 GT ISZERO PUSH2 0x29 JUMPI PUSH2 0x28 PUSH2 0x40 JUMP JUMPDEST JUMPDEST MUL OR SWAP1 SSTORE POP CALLVALUE DUP1 ISZERO PUSH2 0x3A JUMPI PUSH1 0x0 DUP1 REVERT JUMPDEST POP PUSH2 0x6F JUMP JUMPDEST PUSH32 0x4E487B7100000000000000000000000000000000000000000000000000000000 PUSH1 0x0 MSTORE PUSH1 0x21 PUSH1 0x4 MSTORE PUSH1 0x24 PUSH1 0x0 REVERT JUMPDEST PUSH2 0x733 DUP1 PUSH2 0x7E PUSH1 0x0 CODECOPY PUSH1 0x0 RETURN INVALID PUSH1 0x80 PUSH1 0x40 MSTORE CALLVALUE DUP1 ISZERO PUSH2 0x10 JUMPI PUSH1 0x0 DUP1 REVERT JUMPDEST POP PUSH1 0x4 CALLDATASIZE LT PUSH2 0x41 JUMPI PUSH1 0x0 CALLDATALOAD PUSH1 0xE0 SHR DUP1 PUSH4 0x1AA35610 EQ PUSH2 0x46 JUMPI DUP1 PUSH4 0x6328FEEA EQ PUSH2 0x64 JUMPI DUP1 PUSH4 0xF0BA8440 EQ PUSH2 0x80 JUMPI JUMPDEST PUSH1 0x0 DUP1 REVERT JUMPDEST PUSH2 0x4E PUSH2 0xB1 JUMP JUMPDEST PUSH1 0x40 MLOAD PUSH2 0x5B SWAP2 SWAP1 PUSH2 0x488 JUMP JUMPDEST PUSH1 0x40 MLOAD DUP1 SWAP2 SUB SWAP1 RETURN JUMPDEST PUSH2 0x7E PUSH1 0x4 DUP1 CALLDATASIZE SUB DUP2 ADD SWAP1 PUSH2 0x79 SWAP2 SWAP1 PUSH2 0x3B5 JUMP JUMPDEST PUSH2 0xC2 JUMP JUMPDEST STOP JUMPDEST PUSH2 0x9A PUSH1 0x4 DUP1 CALLDATASIZE SUB DUP2 ADD SWAP1 PUSH2 0x95 SWAP2 SWAP1 PUSH2 0x388 JUMP JUMPDEST PUSH2 0x12C JUMP JUMPDEST PUSH1 0x40 MLOAD PUSH2 0xA8 SWAP3 SWAP2 SWAP1 PUSH2 0x4A3 JUMP JUMPDEST PUSH1 0x40 MLOAD DUP1 SWAP2 SUB SWAP1 RETURN JUMPDEST PUSH1 0x0 DUP1 SLOAD SWAP1 PUSH2 0x100 EXP SWAP1 DIV PUSH1 0xFF AND DUP2 JUMP JUMPDEST PUSH1 0x40 MLOAD DUP1 PUSH1 0x40 ADD PUSH1 0x40 MSTORE DUP1 DUP4 DUP2 MSTORE PUSH1 0x20 ADD DUP3 DUP2 MSTORE POP PUSH1 0x1 PUSH1 0x0 DUP6 DUP2 MSTORE PUSH1 0x20 ADD SWAP1 DUP2 MSTORE PUSH1 0x20 ADD PUSH1 0x0 KECCAK256 PUSH1 0x0 DUP3 ADD MLOAD DUP2 PUSH1 0x0 ADD SWAP1 DUP1 MLOAD SWAP1 PUSH1 0x20 ADD SWAP1 PUSH2 0x106 SWAP3 SWAP2 SWAP1 PUSH2 0x260 JUMP JUMPDEST POP PUSH1 0x20 DUP3 ADD MLOAD DUP2 PUSH1 0x1 ADD SWAP1 DUP1 MLOAD SWAP1 PUSH1 0x20 ADD SWAP1 PUSH2 0x123 SWAP3 SWAP2 SWAP1 PUSH2 0x260 JUMP JUMPDEST POP SWAP1 POP POP POP POP POP JUMP JUMPDEST PUSH1 0x1 PUSH1 0x20 MSTORE DUP1 PUSH1 0x0 MSTORE PUSH1 0x40 PUSH1 0x0 KECCAK256 PUSH1 0x0 SWAP2 POP SWAP1 POP DUP1 PUSH1 0x0 ADD DUP1 SLOAD PUSH2 0x14F SWAP1 PUSH2 0x5BD JUMP JUMPDEST DUP1 PUSH1 0x1F ADD PUSH1 0x20 DUP1 SWAP2 DIV MUL PUSH1 0x20 ADD PUSH1 0x40 MLOAD SWAP1 DUP2 ADD PUSH1 0x40 MSTORE DUP1 SWAP3 SWAP2 SWAP1 DUP2 DUP2 MSTORE PUSH1 0x20 ADD DUP3 DUP1 SLOAD PUSH2 0x17B SWAP1 PUSH2 0x5BD JUMP JUMPDEST DUP1 ISZERO PUSH2 0x1C8 JUMPI DUP1 PUSH1 0x1F LT PUSH2 0x19D JUMPI PUSH2 0x100 DUP1 DUP4 SLOAD DIV MUL DUP4 MSTORE SWAP2 PUSH1 0x20 ADD SWAP2 PUSH2 0x1C8 JUMP JUMPDEST DUP3 ADD SWAP2 SWAP1 PUSH1 0x0 MSTORE PUSH1 0x20 PUSH1 0x0 KECCAK256 SWAP1 JUMPDEST DUP2 SLOAD DUP2 MSTORE SWAP1 PUSH1 0x1 ADD SWAP1 PUSH1 0x20 ADD DUP1 DUP4 GT PUSH2 0x1AB JUMPI DUP3 SWAP1 SUB PUSH1 0x1F AND DUP3 ADD SWAP2 JUMPDEST POP POP POP POP POP SWAP1 DUP1 PUSH1 0x1 ADD DUP1 SLOAD PUSH2 0x1DD SWAP1 PUSH2 0x5BD JUMP JUMPDEST DUP1 PUSH1 0x1F ADD PUSH1 0x20 DUP1 SWAP2 DIV MUL PUSH1 0x20 ADD PUSH1 0x40 MLOAD SWAP1 DUP2 ADD PUSH1 0x40 MSTORE DUP1 SWAP3 SWAP2 SWAP1 DUP2 DUP2 MSTORE PUSH1 0x20 ADD DUP3 DUP1 SLOAD PUSH2 0x209 SWAP1 PUSH2 0x5BD JUMP JUMPDEST DUP1 ISZERO PUSH2 0x256 JUMPI DUP1 PUSH1 0x1F LT PUSH2 0x22B JUMPI PUSH2 0x100 DUP1 DUP4 SLOAD DIV MUL DUP4 MSTORE SWAP2 PUSH1 0x20 ADD SWAP2 PUSH2 0x256 JUMP JUMPDEST DUP3 ADD SWAP2 SWAP1 PUSH1 0x0 MSTORE PUSH1 0x20 PUSH1 0x0 KECCAK256 SWAP1 JUMPDEST DUP2 SLOAD DUP2 MSTORE SWAP1 PUSH1 0x1 ADD SWAP1 PUSH1 0x20 ADD DUP1 DUP4 GT PUSH2 0x239 JUMPI DUP3 SWAP1 SUB PUSH1 0x1F AND DUP3 ADD SWAP2 JUMPDEST POP POP POP POP POP SWAP1 POP DUP3 JUMP JUMPDEST DUP3 DUP1 SLOAD PUSH2 0x26C SWAP1 PUSH2 0x5BD JUMP JUMPDEST SWAP1 PUSH1 0x0 MSTORE PUSH1 0x20 PUSH1 0x0 KECCAK256 SWAP1 PUSH1 0x1F ADD PUSH1 0x20 SWAP1 DIV DUP2 ADD SWAP3 DUP3 PUSH2 0x28E JUMPI PUSH1 0x0 DUP6 SSTORE PUSH2 0x2D5 JUMP JUMPDEST DUP3 PUSH1 0x1F LT PUSH2 0x2A7 JUMPI DUP1 MLOAD PUSH1 0xFF NOT AND DUP4 DUP1 ADD OR DUP6 SSTORE PUSH2 0x2D5 JUMP JUMPDEST DUP3 DUP1 ADD PUSH1 0x1 ADD DUP6 SSTORE DUP3 ISZERO PUSH2 0x2D5 JUMPI SWAP2 DUP3 ADD JUMPDEST DUP3 DUP2 GT ISZERO PUSH2 0x2D4 JUMPI DUP3 MLOAD DUP3 SSTORE SWAP2 PUSH1 0x20 ADD SWAP2 SWAP1 PUSH1 0x1 ADD SWAP1 PUSH2 0x2B9 JUMP JUMPDEST JUMPDEST POP SWAP1 POP PUSH2 0x2E2 SWAP2 SWAP1 PUSH2 0x2E6 JUMP JUMPDEST POP SWAP1 JUMP JUMPDEST JUMPDEST DUP1 DUP3 GT ISZERO PUSH2 0x2FF JUMPI PUSH1 0x0 DUP2 PUSH1 0x0 SWAP1 SSTORE POP PUSH1 0x1 ADD PUSH2 0x2E7 JUMP JUMPDEST POP SWAP1 JUMP JUMPDEST PUSH1 0x0 PUSH2 0x316 PUSH2 0x311 DUP5 PUSH2 0x4FF JUMP JUMPDEST PUSH2 0x4DA JUMP JUMPDEST SWAP1 POP DUP3 DUP2 MSTORE PUSH1 0x20 DUP2 ADD DUP5 DUP5 DUP5 ADD GT ISZERO PUSH2 0x332 JUMPI PUSH2 0x331 PUSH2 0x6B2 JUMP JUMPDEST JUMPDEST PUSH2 0x33D DUP5 DUP3 DUP6 PUSH2 0x57B JUMP JUMPDEST POP SWAP4 SWAP3 POP POP POP JUMP JUMPDEST PUSH1 0x0 DUP3 PUSH1 0x1F DUP4 ADD SLT PUSH2 0x35A JUMPI PUSH2 0x359 PUSH2 0x6AD JUMP JUMPDEST JUMPDEST DUP2 CALLDATALOAD PUSH2 0x36A DUP5 DUP3 PUSH1 0x20 DUP7 ADD PUSH2 0x303 JUMP JUMPDEST SWAP2 POP POP SWAP3 SWAP2 POP POP JUMP JUMPDEST PUSH1 0x0 DUP2 CALLDATALOAD SWAP1 POP PUSH2 0x382 DUP2 PUSH2 0x6E6 JUMP JUMPDEST SWAP3 SWAP2 POP POP JUMP JUMPDEST PUSH1 0x0 PUSH1 0x20 DUP3 DUP5 SUB SLT ISZERO PUSH2 0x39E JUMPI PUSH2 0x39D PUSH2 0x6BC JUMP JUMPDEST JUMPDEST PUSH1 0x0 PUSH2 0x3AC DUP5 DUP3 DUP6 ADD PUSH2 0x373 JUMP JUMPDEST SWAP2 POP POP SWAP3 SWAP2 POP POP JUMP JUMPDEST PUSH1 0x0 DUP1 PUSH1 0x0 PUSH1 0x60 DUP5 DUP7 SUB SLT ISZERO PUSH2 0x3CE JUMPI PUSH2 0x3CD PUSH2 0x6BC JUMP JUMPDEST JUMPDEST PUSH1 0x0 PUSH2 0x3DC DUP7 DUP3 DUP8 ADD PUSH2 0x373 JUMP JUMPDEST SWAP4 POP POP PUSH1 0x20 DUP5 ADD CALLDATALOAD PUSH8 0xFFFFFFFFFFFFFFFF DUP2 GT ISZERO PUSH2 0x3FD JUMPI PUSH2 0x3FC PUSH2 0x6B7 JUMP JUMPDEST JUMPDEST PUSH2 0x409 DUP7 DUP3 DUP8 ADD PUSH2 0x345 JUMP JUMPDEST SWAP3 POP POP PUSH1 0x40 DUP5 ADD CALLDATALOAD PUSH8 0xFFFFFFFFFFFFFFFF DUP2 GT ISZERO PUSH2 0x42A JUMPI PUSH2 0x429 PUSH2 0x6B7 JUMP JUMPDEST JUMPDEST PUSH2 0x436 DUP7 DUP3 DUP8 ADD PUSH2 0x345 JUMP JUMPDEST SWAP2 POP POP SWAP3 POP SWAP3 POP SWAP3 JUMP JUMPDEST PUSH2 0x449 DUP2 PUSH2 0x569 JUMP JUMPDEST DUP3 MSTORE POP POP JUMP JUMPDEST PUSH1 0x0 PUSH2 0x45A DUP3 PUSH2 0x530 JUMP JUMPDEST PUSH2 0x464 DUP2 DUP6 PUSH2 0x53B JUMP JUMPDEST SWAP4 POP PUSH2 0x474 DUP2 DUP6 PUSH1 0x20 DUP7 ADD PUSH2 0x58A JUMP JUMPDEST PUSH2 0x47D DUP2 PUSH2 0x6C1 JUMP JUMPDEST DUP5 ADD SWAP2 POP POP SWAP3 SWAP2 POP POP JUMP JUMPDEST PUSH1 0x0 PUSH1 0x20 DUP3 ADD SWAP1 POP PUSH2 0x49D PUSH1 0x0 DUP4 ADD DUP5 PUSH2 0x440 JUMP JUMPDEST SWAP3 SWAP2 POP POP JUMP JUMPDEST PUSH1 0x0 PUSH1 0x40 DUP3 ADD SWAP1 POP DUP2 DUP2 SUB PUSH1 0x0 DUP4 ADD MSTORE PUSH2 0x4BD DUP2 DUP6 PUSH2 0x44F JUMP JUMPDEST SWAP1 POP DUP2 DUP2 SUB PUSH1 0x20 DUP4 ADD MSTORE PUSH2 0x4D1 DUP2 DUP5 PUSH2 0x44F JUMP JUMPDEST SWAP1 POP SWAP4 SWAP3 POP POP POP JUMP JUMPDEST PUSH1 0x0 PUSH2 0x4E4 PUSH2 0x4F5 JUMP JUMPDEST SWAP1 POP PUSH2 0x4F0 DUP3 DUP3 PUSH2 0x5EF JUMP JUMPDEST SWAP2 SWAP1 POP JUMP JUMPDEST PUSH1 0x0 PUSH1 0x40 MLOAD SWAP1 POP SWAP1 JUMP JUMPDEST PUSH1 0x0 PUSH8 0xFFFFFFFFFFFFFFFF DUP3 GT ISZERO PUSH2 0x51A JUMPI PUSH2 0x519 PUSH2 0x67E JUMP JUMPDEST JUMPDEST PUSH2 0x523 DUP3 PUSH2 0x6C1 JUMP JUMPDEST SWAP1 POP PUSH1 0x20 DUP2 ADD SWAP1 POP SWAP2 SWAP1 POP JUMP JUMPDEST PUSH1 0x0 DUP2 MLOAD SWAP1 POP SWAP2 SWAP1 POP JUMP JUMPDEST PUSH1 0x0 DUP3 DUP3 MSTORE PUSH1 0x20 DUP3 ADD SWAP1 POP SWAP3 SWAP2 POP POP JUMP JUMPDEST PUSH1 0x0 DUP2 SWAP1 POP PUSH2 0x55A DUP3 PUSH2 0x6D2 JUMP JUMPDEST SWAP2 SWAP1 POP JUMP JUMPDEST PUSH1 0x0 DUP2 SWAP1 POP SWAP2 SWAP1 POP JUMP JUMPDEST PUSH1 0x0 PUSH2 0x574 DUP3 PUSH2 0x54C JUMP JUMPDEST SWAP1 POP SWAP2 SWAP1 POP JUMP JUMPDEST DUP3 DUP2 DUP4 CALLDATACOPY PUSH1 0x0 DUP4 DUP4 ADD MSTORE POP POP POP JUMP JUMPDEST PUSH1 0x0 JUMPDEST DUP4 DUP2 LT ISZERO PUSH2 0x5A8 JUMPI DUP1 DUP3 ADD MLOAD DUP2 DUP5 ADD MSTORE PUSH1 0x20 DUP2 ADD SWAP1 POP PUSH2 0x58D JUMP JUMPDEST DUP4 DUP2 GT ISZERO PUSH2 0x5B7 JUMPI PUSH1 0x0 DUP5 DUP5 ADD MSTORE JUMPDEST POP POP POP POP JUMP JUMPDEST PUSH1 0x0 PUSH1 0x2 DUP3 DIV SWAP1 POP PUSH1 0x1 DUP3 AND DUP1 PUSH2 0x5D5 JUMPI PUSH1 0x7F DUP3 AND SWAP2 POP JUMPDEST PUSH1 0x20 DUP3 LT DUP2 EQ ISZERO PUSH2 0x5E9 JUMPI PUSH2 0x5E8 PUSH2 0x64F JUMP JUMPDEST JUMPDEST POP SWAP2 SWAP1 POP JUMP JUMPDEST PUSH2 0x5F8 DUP3 PUSH2 0x6C1 JUMP JUMPDEST DUP2 ADD DUP2 DUP2 LT PUSH8 0xFFFFFFFFFFFFFFFF DUP3 GT OR ISZERO PUSH2 0x617 JUMPI PUSH2 0x616 PUSH2 0x67E JUMP JUMPDEST JUMPDEST DUP1 PUSH1 0x40 MSTORE POP POP POP JUMP JUMPDEST PUSH32 0x4E487B7100000000000000000000000000000000000000000000000000000000 PUSH1 0x0 MSTORE PUSH1 0x21 PUSH1 0x4 MSTORE PUSH1 0x24 PUSH1 0x0 REVERT JUMPDEST PUSH32 0x4E487B7100000000000000000000000000000000000000000000000000000000 PUSH1 0x0 MSTORE PUSH1 0x22 PUSH1 0x4 MSTORE PUSH1 0x24 PUSH1 0x0 REVERT JUMPDEST PUSH32 0x4E487B7100000000000000000000000000000000000000000000000000000000 PUSH1 0x0 MSTORE PUSH1 0x41 PUSH1 0x4 MSTORE PUSH1 0x24 PUSH1 0x0 REVERT JUMPDEST PUSH1 0x0 DUP1 REVERT JUMPDEST PUSH1 0x0 DUP1 REVERT JUMPDEST PUSH1 0x0 DUP1 REVERT JUMPDEST PUSH1 0x0 DUP1 REVERT JUMPDEST PUSH1 0x0 PUSH1 0x1F NOT PUSH1 0x1F DUP4 ADD AND SWAP1 POP SWAP2 SWAP1 POP JUMP JUMPDEST PUSH1 0x3 DUP2 LT PUSH2 0x6E3 JUMPI PUSH2 0x6E2 PUSH2 0x620 JUMP JUMPDEST JUMPDEST POP JUMP JUMPDEST PUSH2 0x6EF DUP2 PUSH2 0x55F JUMP JUMPDEST DUP2 EQ PUSH2 0x6FA JUMPI PUSH1 0x0 DUP1 REVERT JUMPDEST POP JUMP INVALID LOG2 PUSH5 0x6970667358 0x22 SLT KECCAK256 SWAP5 DUP13 SWAP8 0xEA 0xBA 0xD4 CALL PUSH8 0x91F54CB115F6A69C SWAP16 0xDA 0xD8 0xD4 SDIV 0xB8 CALL 0x2C 0xAA PUSH15 0x99C8F5B6D92564736F6C6343000807 STOP CALLER "
				},
				"gasEstimates": {
					"creation": {
						"codeDepositCost": "368600",
						"executionCost": "24704",
						"totalCost": "393304"
					},
					"external": {
						"data(uint256)": "infinite",
						"setter(uint256,string,string)": "infinite",
						"u1()": "2535"
					}
				},
				"methodIdentifiers": {
					"data(uint256)": "f0ba8440",
					"setter(uint256,string,string)": "6328feea",
					"u1()": "1aa35610"
				}
			},
			"userdoc": {
				"kind": "user",
				"methods": {},
				"version": 1
			}
		}
	}
}