{
	"Task01(struct-map).sol": {
		"demo": {
			"abi": [
				{
					"inputs": [],
					"name": "changeClassToBusiness",
					"outputs": [],
					"stateMutability": "nonpayable",
					"type": "function"
				},
				{
					"inputs": [],
					"name": "changeClassToEcomomic",
					"outputs": [],
					"stateMutability": "nonpayable",
					"type": "function"
				},
				{
					"inputs": [],
					"name": "changeClassToFirst",
					"outputs": [],
					"stateMutability": "nonpayable",
					"type": "function"
				},
				{
					"inputs": [
						{
							"internalType": "uint256",
							"name": "",
							"type": "uint256"
						}
					],
					"name": "data",
					"outputs": [
						{
							"internalType": "string",
							"name": "name",
							"type": "string"
						},
						{
							"internalType": "string",
							"name": "destination",
							"type": "string"
						},
						{
							"internalType": "string",
							"name": "class",
							"type": "string"
						}
					],
					"stateMutability": "view",
					"type": "function"
				},
				{
					"inputs": [
						{
							"internalType": "uint256",
							"name": "_passportId",
							"type": "uint256"
						},
						{
							"internalType": "string",
							"name": "_name",
							"type": "string"
						},
						{
							"internalType": "string",
							"name": "_destination",
							"type": "string"
						}
					],
					"name": "setter",
					"outputs": [],
					"stateMutability": "nonpayable",
					"type": "function"
				}
			],
			"devdoc": {
				"kind": "dev",
				"methods": {},
				"version": 1
			},
			"evm": {
				"assembly": "    /* \"Task01(struct-map).sol\":182:802  contract demo  \r... */\n  mstore(0x40, 0x80)\n    /* \"Task01(struct-map).sol\":208:242  string classType = \"Economy Class\" */\n  mload(0x40)\n  dup1\n  0x40\n  add\n  0x40\n  mstore\n  dup1\n  0x0d\n  dup2\n  mstore\n  0x20\n  add\n  0x45636f6e6f6d7920436c61737300000000000000000000000000000000000000\n  dup2\n  mstore\n  pop\n  0x00\n  swap1\n  dup1\n  mload\n  swap1\n  0x20\n  add\n  swap1\n  tag_1\n  swap3\n  swap2\n  swap1\n  tag_2\n  jump\t// in\ntag_1:\n  pop\n    /* \"Task01(struct-map).sol\":182:802  contract demo  \r... */\n  callvalue\n  dup1\n  iszero\n  tag_3\n  jumpi\n  0x00\n  dup1\n  revert\ntag_3:\n  pop\n  jump(tag_4)\ntag_2:\n  dup3\n  dup1\n  sload\n  tag_5\n  swap1\n  tag_6\n  jump\t// in\ntag_5:\n  swap1\n  0x00\n  mstore\n  keccak256(0x00, 0x20)\n  swap1\n  0x1f\n  add\n  0x20\n  swap1\n  div\n  dup2\n  add\n  swap3\n  dup3\n  tag_8\n  jumpi\n  0x00\n  dup6\n  sstore\n  jump(tag_7)\ntag_8:\n  dup3\n  0x1f\n  lt\n  tag_9\n  jumpi\n  dup1\n  mload\n  not(0xff)\n  and\n  dup4\n  dup1\n  add\n  or\n  dup6\n  sstore\n  jump(tag_7)\ntag_9:\n  dup3\n  dup1\n  add\n  0x01\n  add\n  dup6\n  sstore\n  dup3\n  iszero\n  tag_7\n  jumpi\n  swap2\n  dup3\n  add\ntag_10:\n  dup3\n  dup2\n  gt\n  iszero\n  tag_11\n  jumpi\n  dup3\n  mload\n  dup3\n  sstore\n  swap2\n  0x20\n  add\n  swap2\n  swap1\n  0x01\n  add\n  swap1\n  jump(tag_10)\ntag_11:\ntag_7:\n  pop\n  swap1\n  pop\n  tag_12\n  swap2\n  swap1\n  tag_13\n  jump\t// in\ntag_12:\n  pop\n  swap1\n  jump\t// out\ntag_13:\ntag_14:\n  dup1\n  dup3\n  gt\n  iszero\n  tag_15\n  jumpi\n  0x00\n  dup2\n  0x00\n  swap1\n  sstore\n  pop\n  0x01\n  add\n  jump(tag_14)\ntag_15:\n  pop\n  swap1\n  jump\t// out\n    /* \"#utility.yul\":7:327   */\ntag_6:\n    /* \"#utility.yul\":51:57   */\n  0x00\n    /* \"#utility.yul\":88:89   */\n  0x02\n    /* \"#utility.yul\":82:86   */\n  dup3\n    /* \"#utility.yul\":78:90   */\n  div\n    /* \"#utility.yul\":68:90   */\n  swap1\n  pop\n    /* \"#utility.yul\":135:136   */\n  0x01\n    /* \"#utility.yul\":129:133   */\n  dup3\n    /* \"#utility.yul\":125:137   */\n  and\n    /* \"#utility.yul\":156:174   */\n  dup1\n    /* \"#utility.yul\":146:227   */\n  tag_18\n  jumpi\n    /* \"#utility.yul\":212:216   */\n  0x7f\n    /* \"#utility.yul\":204:210   */\n  dup3\n    /* \"#utility.yul\":200:217   */\n  and\n    /* \"#utility.yul\":190:217   */\n  swap2\n  pop\n    /* \"#utility.yul\":146:227   */\ntag_18:\n    /* \"#utility.yul\":274:276   */\n  0x20\n    /* \"#utility.yul\":266:272   */\n  dup3\n    /* \"#utility.yul\":263:277   */\n  lt\n    /* \"#utility.yul\":243:261   */\n  dup2\n    /* \"#utility.yul\":240:278   */\n  eq\n    /* \"#utility.yul\":237:321   */\n  iszero\n  tag_19\n  jumpi\n    /* \"#utility.yul\":293:311   */\n  tag_20\n  tag_21\n  jump\t// in\ntag_20:\n    /* \"#utility.yul\":237:321   */\ntag_19:\n    /* \"#utility.yul\":58:327   */\n  pop\n    /* \"#utility.yul\":7:327   */\n  swap2\n  swap1\n  pop\n  jump\t// out\n    /* \"#utility.yul\":333:513   */\ntag_21:\n    /* \"#utility.yul\":381:458   */\n  0x4e487b7100000000000000000000000000000000000000000000000000000000\n    /* \"#utility.yul\":378:379   */\n  0x00\n    /* \"#utility.yul\":371:459   */\n  mstore\n    /* \"#utility.yul\":478:482   */\n  0x22\n    /* \"#utility.yul\":475:476   */\n  0x04\n    /* \"#utility.yul\":468:483   */\n  mstore\n    /* \"#utility.yul\":502:506   */\n  0x24\n    /* \"#utility.yul\":499:500   */\n  0x00\n    /* \"#utility.yul\":492:507   */\n  revert\n    /* \"Task01(struct-map).sol\":182:802  contract demo  \r... */\ntag_4:\n  dataSize(sub_0)\n  dup1\n  dataOffset(sub_0)\n  0x00\n  codecopy\n  0x00\n  return\nstop\n\nsub_0: assembly {\n        /* \"Task01(struct-map).sol\":182:802  contract demo  \r... */\n      mstore(0x40, 0x80)\n      callvalue\n      dup1\n      iszero\n      tag_1\n      jumpi\n      0x00\n      dup1\n      revert\n    tag_1:\n      pop\n      jumpi(tag_2, lt(calldatasize, 0x04))\n      shr(0xe0, calldataload(0x00))\n      dup1\n      0x6328feea\n      eq\n      tag_3\n      jumpi\n      dup1\n      0x84a739cf\n      eq\n      tag_4\n      jumpi\n      dup1\n      0x8a3d49c6\n      eq\n      tag_5\n      jumpi\n      dup1\n      0xc84d106d\n      eq\n      tag_6\n      jumpi\n      dup1\n      0xf0ba8440\n      eq\n      tag_7\n      jumpi\n    tag_2:\n      0x00\n      dup1\n      revert\n        /* \"Task01(struct-map).sol\":626:799  function setter(uint _passportId, string memory _name, string memory _destination) public\r... */\n    tag_3:\n      tag_8\n      0x04\n      dup1\n      calldatasize\n      sub\n      dup2\n      add\n      swap1\n      tag_9\n      swap2\n      swap1\n      tag_10\n      jump\t// in\n    tag_9:\n      tag_11\n      jump\t// in\n    tag_8:\n      stop\n        /* \"Task01(struct-map).sol\":489:581  function changeClassToBusiness() public\r... */\n    tag_4:\n      tag_12\n      tag_13\n      jump\t// in\n    tag_12:\n      stop\n        /* \"Task01(struct-map).sol\":298:387  function changeClassToEcomomic() public\r... */\n    tag_5:\n      tag_14\n      tag_15\n      jump\t// in\n    tag_14:\n      stop\n        /* \"Task01(struct-map).sol\":395:481  function changeClassToFirst() public\r... */\n    tag_6:\n      tag_16\n      tag_17\n      jump\t// in\n    tag_16:\n      stop\n        /* \"Task01(struct-map).sol\":251:289  mapping( uint => Student ) public data */\n    tag_7:\n      tag_18\n      0x04\n      dup1\n      calldatasize\n      sub\n      dup2\n      add\n      swap1\n      tag_19\n      swap2\n      swap1\n      tag_20\n      jump\t// in\n    tag_19:\n      tag_21\n      jump\t// in\n    tag_18:\n      mload(0x40)\n      tag_22\n      swap4\n      swap3\n      swap2\n      swap1\n      tag_23\n      jump\t// in\n    tag_22:\n      mload(0x40)\n      dup1\n      swap2\n      sub\n      swap1\n      return\n        /* \"Task01(struct-map).sol\":626:799  function setter(uint _passportId, string memory _name, string memory _destination) public\r... */\n    tag_11:\n        /* \"Task01(struct-map).sol\":752:791  Student(_name, _destination, classType) */\n      mload(0x40)\n      dup1\n      0x60\n      add\n      0x40\n      mstore\n      dup1\n        /* \"Task01(struct-map).sol\":760:765  _name */\n      dup4\n        /* \"Task01(struct-map).sol\":752:791  Student(_name, _destination, classType) */\n      dup2\n      mstore\n      0x20\n      add\n        /* \"Task01(struct-map).sol\":767:779  _destination */\n      dup3\n        /* \"Task01(struct-map).sol\":752:791  Student(_name, _destination, classType) */\n      dup2\n      mstore\n      0x20\n      add\n        /* \"Task01(struct-map).sol\":781:790  classType */\n      0x00\n        /* \"Task01(struct-map).sol\":752:791  Student(_name, _destination, classType) */\n      dup1\n      sload\n      tag_25\n      swap1\n      tag_26\n      jump\t// in\n    tag_25:\n      dup1\n      0x1f\n      add\n      0x20\n      dup1\n      swap2\n      div\n      mul\n      0x20\n      add\n      mload(0x40)\n      swap1\n      dup2\n      add\n      0x40\n      mstore\n      dup1\n      swap3\n      swap2\n      swap1\n      dup2\n      dup2\n      mstore\n      0x20\n      add\n      dup3\n      dup1\n      sload\n      tag_27\n      swap1\n      tag_26\n      jump\t// in\n    tag_27:\n      dup1\n      iszero\n      tag_28\n      jumpi\n      dup1\n      0x1f\n      lt\n      tag_29\n      jumpi\n      0x0100\n      dup1\n      dup4\n      sload\n      div\n      mul\n      dup4\n      mstore\n      swap2\n      0x20\n      add\n      swap2\n      jump(tag_28)\n    tag_29:\n      dup3\n      add\n      swap2\n      swap1\n      0x00\n      mstore\n      keccak256(0x00, 0x20)\n      swap1\n    tag_30:\n      dup2\n      sload\n      dup2\n      mstore\n      swap1\n      0x01\n      add\n      swap1\n      0x20\n      add\n      dup1\n      dup4\n      gt\n      tag_30\n      jumpi\n      dup3\n      swap1\n      sub\n      0x1f\n      and\n      dup3\n      add\n      swap2\n    tag_28:\n      pop\n      pop\n      pop\n      pop\n      pop\n      dup2\n      mstore\n      pop\n        /* \"Task01(struct-map).sol\":732:736  data */\n      0x01\n        /* \"Task01(struct-map).sol\":732:749  data[_passportId] */\n      0x00\n        /* \"Task01(struct-map).sol\":737:748  _passportId */\n      dup6\n        /* \"Task01(struct-map).sol\":732:749  data[_passportId] */\n      dup2\n      mstore\n      0x20\n      add\n      swap1\n      dup2\n      mstore\n      0x20\n      add\n      0x00\n      keccak256\n        /* \"Task01(struct-map).sol\":732:791  data[_passportId] = Student(_name, _destination, classType) */\n      0x00\n      dup3\n      add\n      mload\n      dup2\n      0x00\n      add\n      swap1\n      dup1\n      mload\n      swap1\n      0x20\n      add\n      swap1\n      tag_31\n      swap3\n      swap2\n      swap1\n      tag_32\n      jump\t// in\n    tag_31:\n      pop\n      0x20\n      dup3\n      add\n      mload\n      dup2\n      0x01\n      add\n      swap1\n      dup1\n      mload\n      swap1\n      0x20\n      add\n      swap1\n      tag_33\n      swap3\n      swap2\n      swap1\n      tag_32\n      jump\t// in\n    tag_33:\n      pop\n      0x40\n      dup3\n      add\n      mload\n      dup2\n      0x02\n      add\n      swap1\n      dup1\n      mload\n      swap1\n      0x20\n      add\n      swap1\n      tag_34\n      swap3\n      swap2\n      swap1\n      tag_32\n      jump\t// in\n    tag_34:\n      pop\n      swap1\n      pop\n      pop\n        /* \"Task01(struct-map).sol\":626:799  function setter(uint _passportId, string memory _name, string memory _destination) public\r... */\n      pop\n      pop\n      pop\n      jump\t// out\n        /* \"Task01(struct-map).sol\":489:581  function changeClassToBusiness() public\r... */\n    tag_13:\n        /* \"Task01(struct-map).sol\":545:573  classType = \"Business Class\" */\n      mload(0x40)\n      dup1\n      0x40\n      add\n      0x40\n      mstore\n      dup1\n      0x0e\n      dup2\n      mstore\n      0x20\n      add\n      0x427573696e65737320436c617373000000000000000000000000000000000000\n      dup2\n      mstore\n      pop\n        /* \"Task01(struct-map).sol\":545:554  classType */\n      0x00\n        /* \"Task01(struct-map).sol\":545:573  classType = \"Business Class\" */\n      swap1\n      dup1\n      mload\n      swap1\n      0x20\n      add\n      swap1\n      tag_36\n      swap3\n      swap2\n      swap1\n      tag_32\n      jump\t// in\n    tag_36:\n      pop\n        /* \"Task01(struct-map).sol\":489:581  function changeClassToBusiness() public\r... */\n      jump\t// out\n        /* \"Task01(struct-map).sol\":298:387  function changeClassToEcomomic() public\r... */\n    tag_15:\n        /* \"Task01(struct-map).sol\":354:379  classType = \"First Class\" */\n      mload(0x40)\n      dup1\n      0x40\n      add\n      0x40\n      mstore\n      dup1\n      0x0b\n      dup2\n      mstore\n      0x20\n      add\n      0x466972737420436c617373000000000000000000000000000000000000000000\n      dup2\n      mstore\n      pop\n        /* \"Task01(struct-map).sol\":354:363  classType */\n      0x00\n        /* \"Task01(struct-map).sol\":354:379  classType = \"First Class\" */\n      swap1\n      dup1\n      mload\n      swap1\n      0x20\n      add\n      swap1\n      tag_38\n      swap3\n      swap2\n      swap1\n      tag_32\n      jump\t// in\n    tag_38:\n      pop\n        /* \"Task01(struct-map).sol\":298:387  function changeClassToEcomomic() public\r... */\n      jump\t// out\n        /* \"Task01(struct-map).sol\":395:481  function changeClassToFirst() public\r... */\n    tag_17:\n        /* \"Task01(struct-map).sol\":448:473  classType = \"First Class\" */\n      mload(0x40)\n      dup1\n      0x40\n      add\n      0x40\n      mstore\n      dup1\n      0x0b\n      dup2\n      mstore\n      0x20\n      add\n      0x466972737420436c617373000000000000000000000000000000000000000000\n      dup2\n      mstore\n      pop\n        /* \"Task01(struct-map).sol\":448:457  classType */\n      0x00\n        /* \"Task01(struct-map).sol\":448:473  classType = \"First Class\" */\n      swap1\n      dup1\n      mload\n      swap1\n      0x20\n      add\n      swap1\n      tag_40\n      swap3\n      swap2\n      swap1\n      tag_32\n      jump\t// in\n    tag_40:\n      pop\n        /* \"Task01(struct-map).sol\":395:481  function changeClassToFirst() public\r... */\n      jump\t// out\n        /* \"Task01(struct-map).sol\":251:289  mapping( uint => Student ) public data */\n    tag_21:\n      mstore(0x20, 0x01)\n      dup1\n      0x00\n      mstore\n      keccak256(0x00, 0x40)\n      0x00\n      swap2\n      pop\n      swap1\n      pop\n      dup1\n      0x00\n      add\n      dup1\n      sload\n      tag_41\n      swap1\n      tag_26\n      jump\t// in\n    tag_41:\n      dup1\n      0x1f\n      add\n      0x20\n      dup1\n      swap2\n      div\n      mul\n      0x20\n      add\n      mload(0x40)\n      swap1\n      dup2\n      add\n      0x40\n      mstore\n      dup1\n      swap3\n      swap2\n      swap1\n      dup2\n      dup2\n      mstore\n      0x20\n      add\n      dup3\n      dup1\n      sload\n      tag_42\n      swap1\n      tag_26\n      jump\t// in\n    tag_42:\n      dup1\n      iszero\n      tag_43\n      jumpi\n      dup1\n      0x1f\n      lt\n      tag_44\n      jumpi\n      0x0100\n      dup1\n      dup4\n      sload\n      div\n      mul\n      dup4\n      mstore\n      swap2\n      0x20\n      add\n      swap2\n      jump(tag_43)\n    tag_44:\n      dup3\n      add\n      swap2\n      swap1\n      0x00\n      mstore\n      keccak256(0x00, 0x20)\n      swap1\n    tag_45:\n      dup2\n      sload\n      dup2\n      mstore\n      swap1\n      0x01\n      add\n      swap1\n      0x20\n      add\n      dup1\n      dup4\n      gt\n      tag_45\n      jumpi\n      dup3\n      swap1\n      sub\n      0x1f\n      and\n      dup3\n      add\n      swap2\n    tag_43:\n      pop\n      pop\n      pop\n      pop\n      pop\n      swap1\n      dup1\n      0x01\n      add\n      dup1\n      sload\n      tag_46\n      swap1\n      tag_26\n      jump\t// in\n    tag_46:\n      dup1\n      0x1f\n      add\n      0x20\n      dup1\n      swap2\n      div\n      mul\n      0x20\n      add\n      mload(0x40)\n      swap1\n      dup2\n      add\n      0x40\n      mstore\n      dup1\n      swap3\n      swap2\n      swap1\n      dup2\n      dup2\n      mstore\n      0x20\n      add\n      dup3\n      dup1\n      sload\n      tag_47\n      swap1\n      tag_26\n      jump\t// in\n    tag_47:\n      dup1\n      iszero\n      tag_48\n      jumpi\n      dup1\n      0x1f\n      lt\n      tag_49\n      jumpi\n      0x0100\n      dup1\n      dup4\n      sload\n      div\n      mul\n      dup4\n      mstore\n      swap2\n      0x20\n      add\n      swap2\n      jump(tag_48)\n    tag_49:\n      dup3\n      add\n      swap2\n      swap1\n      0x00\n      mstore\n      keccak256(0x00, 0x20)\n      swap1\n    tag_50:\n      dup2\n      sload\n      dup2\n      mstore\n      swap1\n      0x01\n      add\n      swap1\n      0x20\n      add\n      dup1\n      dup4\n      gt\n      tag_50\n      jumpi\n      dup3\n      swap1\n      sub\n      0x1f\n      and\n      dup3\n      add\n      swap2\n    tag_48:\n      pop\n      pop\n      pop\n      pop\n      pop\n      swap1\n      dup1\n      0x02\n      add\n      dup1\n      sload\n      tag_51\n      swap1\n      tag_26\n      jump\t// in\n    tag_51:\n      dup1\n      0x1f\n      add\n      0x20\n      dup1\n      swap2\n      div\n      mul\n      0x20\n      add\n      mload(0x40)\n      swap1\n      dup2\n      add\n      0x40\n      mstore\n      dup1\n      swap3\n      swap2\n      swap1\n      dup2\n      dup2\n      mstore\n      0x20\n      add\n      dup3\n      dup1\n      sload\n      tag_52\n      swap1\n      tag_26\n      jump\t// in\n    tag_52:\n      dup1\n      iszero\n      tag_53\n      jumpi\n      dup1\n      0x1f\n      lt\n      tag_54\n      jumpi\n      0x0100\n      dup1\n      dup4\n      sload\n      div\n      mul\n      dup4\n      mstore\n      swap2\n      0x20\n      add\n      swap2\n      jump(tag_53)\n    tag_54:\n      dup3\n      add\n      swap2\n      swap1\n      0x00\n      mstore\n      keccak256(0x00, 0x20)\n      swap1\n    tag_55:\n      dup2\n      sload\n      dup2\n      mstore\n      swap1\n      0x01\n      add\n      swap1\n      0x20\n      add\n      dup1\n      dup4\n      gt\n      tag_55\n      jumpi\n      dup3\n      swap1\n      sub\n      0x1f\n      and\n      dup3\n      add\n      swap2\n    tag_53:\n      pop\n      pop\n      pop\n      pop\n      pop\n      swap1\n      pop\n      dup4\n      jump\t// out\n    tag_32:\n      dup3\n      dup1\n      sload\n      tag_56\n      swap1\n      tag_26\n      jump\t// in\n    tag_56:\n      swap1\n      0x00\n      mstore\n      keccak256(0x00, 0x20)\n      swap1\n      0x1f\n      add\n      0x20\n      swap1\n      div\n      dup2\n      add\n      swap3\n      dup3\n      tag_58\n      jumpi\n      0x00\n      dup6\n      sstore\n      jump(tag_57)\n    tag_58:\n      dup3\n      0x1f\n      lt\n      tag_59\n      jumpi\n      dup1\n      mload\n      not(0xff)\n      and\n      dup4\n      dup1\n      add\n      or\n      dup6\n      sstore\n      jump(tag_57)\n    tag_59:\n      dup3\n      dup1\n      add\n      0x01\n      add\n      dup6\n      sstore\n      dup3\n      iszero\n      tag_57\n      jumpi\n      swap2\n      dup3\n      add\n    tag_60:\n      dup3\n      dup2\n      gt\n      iszero\n      tag_61\n      jumpi\n      dup3\n      mload\n      dup3\n      sstore\n      swap2\n      0x20\n      add\n      swap2\n      swap1\n      0x01\n      add\n      swap1\n      jump(tag_60)\n    tag_61:\n    tag_57:\n      pop\n      swap1\n      pop\n      tag_62\n      swap2\n      swap1\n      tag_63\n      jump\t// in\n    tag_62:\n      pop\n      swap1\n      jump\t// out\n    tag_63:\n    tag_64:\n      dup1\n      dup3\n      gt\n      iszero\n      tag_65\n      jumpi\n      0x00\n      dup2\n      0x00\n      swap1\n      sstore\n      pop\n      0x01\n      add\n      jump(tag_64)\n    tag_65:\n      pop\n      swap1\n      jump\t// out\n        /* \"#utility.yul\":7:419   */\n    tag_67:\n        /* \"#utility.yul\":85:90   */\n      0x00\n        /* \"#utility.yul\":110:176   */\n      tag_69\n        /* \"#utility.yul\":126:175   */\n      tag_70\n        /* \"#utility.yul\":168:174   */\n      dup5\n        /* \"#utility.yul\":126:175   */\n      tag_71\n      jump\t// in\n    tag_70:\n        /* \"#utility.yul\":110:176   */\n      tag_72\n      jump\t// in\n    tag_69:\n        /* \"#utility.yul\":101:176   */\n      swap1\n      pop\n        /* \"#utility.yul\":199:205   */\n      dup3\n        /* \"#utility.yul\":192:197   */\n      dup2\n        /* \"#utility.yul\":185:206   */\n      mstore\n        /* \"#utility.yul\":237:241   */\n      0x20\n        /* \"#utility.yul\":230:235   */\n      dup2\n        /* \"#utility.yul\":226:242   */\n      add\n        /* \"#utility.yul\":275:278   */\n      dup5\n        /* \"#utility.yul\":266:272   */\n      dup5\n        /* \"#utility.yul\":261:264   */\n      dup5\n        /* \"#utility.yul\":257:273   */\n      add\n        /* \"#utility.yul\":254:279   */\n      gt\n        /* \"#utility.yul\":251:363   */\n      iszero\n      tag_73\n      jumpi\n        /* \"#utility.yul\":282:361   */\n      tag_74\n      tag_75\n      jump\t// in\n    tag_74:\n        /* \"#utility.yul\":251:363   */\n    tag_73:\n        /* \"#utility.yul\":372:413   */\n      tag_76\n        /* \"#utility.yul\":406:412   */\n      dup5\n        /* \"#utility.yul\":401:404   */\n      dup3\n        /* \"#utility.yul\":396:399   */\n      dup6\n        /* \"#utility.yul\":372:413   */\n      tag_77\n      jump\t// in\n    tag_76:\n        /* \"#utility.yul\":91:419   */\n      pop\n        /* \"#utility.yul\":7:419   */\n      swap4\n      swap3\n      pop\n      pop\n      pop\n      jump\t// out\n        /* \"#utility.yul\":439:779   */\n    tag_78:\n        /* \"#utility.yul\":495:500   */\n      0x00\n        /* \"#utility.yul\":544:547   */\n      dup3\n        /* \"#utility.yul\":537:541   */\n      0x1f\n        /* \"#utility.yul\":529:535   */\n      dup4\n        /* \"#utility.yul\":525:542   */\n      add\n        /* \"#utility.yul\":521:548   */\n      slt\n        /* \"#utility.yul\":511:633   */\n      tag_80\n      jumpi\n        /* \"#utility.yul\":552:631   */\n      tag_81\n      tag_82\n      jump\t// in\n    tag_81:\n        /* \"#utility.yul\":511:633   */\n    tag_80:\n        /* \"#utility.yul\":669:675   */\n      dup2\n        /* \"#utility.yul\":656:676   */\n      calldataload\n        /* \"#utility.yul\":694:773   */\n      tag_83\n        /* \"#utility.yul\":769:772   */\n      dup5\n        /* \"#utility.yul\":761:767   */\n      dup3\n        /* \"#utility.yul\":754:758   */\n      0x20\n        /* \"#utility.yul\":746:752   */\n      dup7\n        /* \"#utility.yul\":742:759   */\n      add\n        /* \"#utility.yul\":694:773   */\n      tag_67\n      jump\t// in\n    tag_83:\n        /* \"#utility.yul\":685:773   */\n      swap2\n      pop\n        /* \"#utility.yul\":501:779   */\n      pop\n        /* \"#utility.yul\":439:779   */\n      swap3\n      swap2\n      pop\n      pop\n      jump\t// out\n        /* \"#utility.yul\":785:924   */\n    tag_84:\n        /* \"#utility.yul\":831:836   */\n      0x00\n        /* \"#utility.yul\":869:875   */\n      dup2\n        /* \"#utility.yul\":856:876   */\n      calldataload\n        /* \"#utility.yul\":847:876   */\n      swap1\n      pop\n        /* \"#utility.yul\":885:918   */\n      tag_86\n        /* \"#utility.yul\":912:917   */\n      dup2\n        /* \"#utility.yul\":885:918   */\n      tag_87\n      jump\t// in\n    tag_86:\n        /* \"#utility.yul\":785:924   */\n      swap3\n      swap2\n      pop\n      pop\n      jump\t// out\n        /* \"#utility.yul\":930:1259   */\n    tag_20:\n        /* \"#utility.yul\":989:995   */\n      0x00\n        /* \"#utility.yul\":1038:1040   */\n      0x20\n        /* \"#utility.yul\":1026:1035   */\n      dup3\n        /* \"#utility.yul\":1017:1024   */\n      dup5\n        /* \"#utility.yul\":1013:1036   */\n      sub\n        /* \"#utility.yul\":1009:1041   */\n      slt\n        /* \"#utility.yul\":1006:1125   */\n      iszero\n      tag_89\n      jumpi\n        /* \"#utility.yul\":1044:1123   */\n      tag_90\n      tag_91\n      jump\t// in\n    tag_90:\n        /* \"#utility.yul\":1006:1125   */\n    tag_89:\n        /* \"#utility.yul\":1164:1165   */\n      0x00\n        /* \"#utility.yul\":1189:1242   */\n      tag_92\n        /* \"#utility.yul\":1234:1241   */\n      dup5\n        /* \"#utility.yul\":1225:1231   */\n      dup3\n        /* \"#utility.yul\":1214:1223   */\n      dup6\n        /* \"#utility.yul\":1210:1232   */\n      add\n        /* \"#utility.yul\":1189:1242   */\n      tag_84\n      jump\t// in\n    tag_92:\n        /* \"#utility.yul\":1179:1242   */\n      swap2\n      pop\n        /* \"#utility.yul\":1135:1252   */\n      pop\n        /* \"#utility.yul\":930:1259   */\n      swap3\n      swap2\n      pop\n      pop\n      jump\t// out\n        /* \"#utility.yul\":1265:2244   */\n    tag_10:\n        /* \"#utility.yul\":1362:1368   */\n      0x00\n        /* \"#utility.yul\":1370:1376   */\n      dup1\n        /* \"#utility.yul\":1378:1384   */\n      0x00\n        /* \"#utility.yul\":1427:1429   */\n      0x60\n        /* \"#utility.yul\":1415:1424   */\n      dup5\n        /* \"#utility.yul\":1406:1413   */\n      dup7\n        /* \"#utility.yul\":1402:1425   */\n      sub\n        /* \"#utility.yul\":1398:1430   */\n      slt\n        /* \"#utility.yul\":1395:1514   */\n      iszero\n      tag_94\n      jumpi\n        /* \"#utility.yul\":1433:1512   */\n      tag_95\n      tag_91\n      jump\t// in\n    tag_95:\n        /* \"#utility.yul\":1395:1514   */\n    tag_94:\n        /* \"#utility.yul\":1553:1554   */\n      0x00\n        /* \"#utility.yul\":1578:1631   */\n      tag_96\n        /* \"#utility.yul\":1623:1630   */\n      dup7\n        /* \"#utility.yul\":1614:1620   */\n      dup3\n        /* \"#utility.yul\":1603:1612   */\n      dup8\n        /* \"#utility.yul\":1599:1621   */\n      add\n        /* \"#utility.yul\":1578:1631   */\n      tag_84\n      jump\t// in\n    tag_96:\n        /* \"#utility.yul\":1568:1631   */\n      swap4\n      pop\n        /* \"#utility.yul\":1524:1641   */\n      pop\n        /* \"#utility.yul\":1708:1710   */\n      0x20\n        /* \"#utility.yul\":1697:1706   */\n      dup5\n        /* \"#utility.yul\":1693:1711   */\n      add\n        /* \"#utility.yul\":1680:1712   */\n      calldataload\n        /* \"#utility.yul\":1739:1757   */\n      0xffffffffffffffff\n        /* \"#utility.yul\":1731:1737   */\n      dup2\n        /* \"#utility.yul\":1728:1758   */\n      gt\n        /* \"#utility.yul\":1725:1842   */\n      iszero\n      tag_97\n      jumpi\n        /* \"#utility.yul\":1761:1840   */\n      tag_98\n      tag_99\n      jump\t// in\n    tag_98:\n        /* \"#utility.yul\":1725:1842   */\n    tag_97:\n        /* \"#utility.yul\":1866:1929   */\n      tag_100\n        /* \"#utility.yul\":1921:1928   */\n      dup7\n        /* \"#utility.yul\":1912:1918   */\n      dup3\n        /* \"#utility.yul\":1901:1910   */\n      dup8\n        /* \"#utility.yul\":1897:1919   */\n      add\n        /* \"#utility.yul\":1866:1929   */\n      tag_78\n      jump\t// in\n    tag_100:\n        /* \"#utility.yul\":1856:1929   */\n      swap3\n      pop\n        /* \"#utility.yul\":1651:1939   */\n      pop\n        /* \"#utility.yul\":2006:2008   */\n      0x40\n        /* \"#utility.yul\":1995:2004   */\n      dup5\n        /* \"#utility.yul\":1991:2009   */\n      add\n        /* \"#utility.yul\":1978:2010   */\n      calldataload\n        /* \"#utility.yul\":2037:2055   */\n      0xffffffffffffffff\n        /* \"#utility.yul\":2029:2035   */\n      dup2\n        /* \"#utility.yul\":2026:2056   */\n      gt\n        /* \"#utility.yul\":2023:2140   */\n      iszero\n      tag_101\n      jumpi\n        /* \"#utility.yul\":2059:2138   */\n      tag_102\n      tag_99\n      jump\t// in\n    tag_102:\n        /* \"#utility.yul\":2023:2140   */\n    tag_101:\n        /* \"#utility.yul\":2164:2227   */\n      tag_103\n        /* \"#utility.yul\":2219:2226   */\n      dup7\n        /* \"#utility.yul\":2210:2216   */\n      dup3\n        /* \"#utility.yul\":2199:2208   */\n      dup8\n        /* \"#utility.yul\":2195:2217   */\n      add\n        /* \"#utility.yul\":2164:2227   */\n      tag_78\n      jump\t// in\n    tag_103:\n        /* \"#utility.yul\":2154:2227   */\n      swap2\n      pop\n        /* \"#utility.yul\":1949:2237   */\n      pop\n        /* \"#utility.yul\":1265:2244   */\n      swap3\n      pop\n      swap3\n      pop\n      swap3\n      jump\t// out\n        /* \"#utility.yul\":2250:2614   */\n    tag_104:\n        /* \"#utility.yul\":2338:2341   */\n      0x00\n        /* \"#utility.yul\":2366:2405   */\n      tag_106\n        /* \"#utility.yul\":2399:2404   */\n      dup3\n        /* \"#utility.yul\":2366:2405   */\n      tag_107\n      jump\t// in\n    tag_106:\n        /* \"#utility.yul\":2421:2492   */\n      tag_108\n        /* \"#utility.yul\":2485:2491   */\n      dup2\n        /* \"#utility.yul\":2480:2483   */\n      dup6\n        /* \"#utility.yul\":2421:2492   */\n      tag_109\n      jump\t// in\n    tag_108:\n        /* \"#utility.yul\":2414:2492   */\n      swap4\n      pop\n        /* \"#utility.yul\":2501:2553   */\n      tag_110\n        /* \"#utility.yul\":2546:2552   */\n      dup2\n        /* \"#utility.yul\":2541:2544   */\n      dup6\n        /* \"#utility.yul\":2534:2538   */\n      0x20\n        /* \"#utility.yul\":2527:2532   */\n      dup7\n        /* \"#utility.yul\":2523:2539   */\n      add\n        /* \"#utility.yul\":2501:2553   */\n      tag_111\n      jump\t// in\n    tag_110:\n        /* \"#utility.yul\":2578:2607   */\n      tag_112\n        /* \"#utility.yul\":2600:2606   */\n      dup2\n        /* \"#utility.yul\":2578:2607   */\n      tag_113\n      jump\t// in\n    tag_112:\n        /* \"#utility.yul\":2573:2576   */\n      dup5\n        /* \"#utility.yul\":2569:2608   */\n      add\n        /* \"#utility.yul\":2562:2608   */\n      swap2\n      pop\n        /* \"#utility.yul\":2342:2614   */\n      pop\n        /* \"#utility.yul\":2250:2614   */\n      swap3\n      swap2\n      pop\n      pop\n      jump\t// out\n        /* \"#utility.yul\":2620:3335   */\n    tag_23:\n        /* \"#utility.yul\":2829:2833   */\n      0x00\n        /* \"#utility.yul\":2867:2869   */\n      0x60\n        /* \"#utility.yul\":2856:2865   */\n      dup3\n        /* \"#utility.yul\":2852:2870   */\n      add\n        /* \"#utility.yul\":2844:2870   */\n      swap1\n      pop\n        /* \"#utility.yul\":2916:2925   */\n      dup2\n        /* \"#utility.yul\":2910:2914   */\n      dup2\n        /* \"#utility.yul\":2906:2926   */\n      sub\n        /* \"#utility.yul\":2902:2903   */\n      0x00\n        /* \"#utility.yul\":2891:2900   */\n      dup4\n        /* \"#utility.yul\":2887:2904   */\n      add\n        /* \"#utility.yul\":2880:2927   */\n      mstore\n        /* \"#utility.yul\":2944:3022   */\n      tag_115\n        /* \"#utility.yul\":3017:3021   */\n      dup2\n        /* \"#utility.yul\":3008:3014   */\n      dup7\n        /* \"#utility.yul\":2944:3022   */\n      tag_104\n      jump\t// in\n    tag_115:\n        /* \"#utility.yul\":2936:3022   */\n      swap1\n      pop\n        /* \"#utility.yul\":3069:3078   */\n      dup2\n        /* \"#utility.yul\":3063:3067   */\n      dup2\n        /* \"#utility.yul\":3059:3079   */\n      sub\n        /* \"#utility.yul\":3054:3056   */\n      0x20\n        /* \"#utility.yul\":3043:3052   */\n      dup4\n        /* \"#utility.yul\":3039:3057   */\n      add\n        /* \"#utility.yul\":3032:3080   */\n      mstore\n        /* \"#utility.yul\":3097:3175   */\n      tag_116\n        /* \"#utility.yul\":3170:3174   */\n      dup2\n        /* \"#utility.yul\":3161:3167   */\n      dup6\n        /* \"#utility.yul\":3097:3175   */\n      tag_104\n      jump\t// in\n    tag_116:\n        /* \"#utility.yul\":3089:3175   */\n      swap1\n      pop\n        /* \"#utility.yul\":3222:3231   */\n      dup2\n        /* \"#utility.yul\":3216:3220   */\n      dup2\n        /* \"#utility.yul\":3212:3232   */\n      sub\n        /* \"#utility.yul\":3207:3209   */\n      0x40\n        /* \"#utility.yul\":3196:3205   */\n      dup4\n        /* \"#utility.yul\":3192:3210   */\n      add\n        /* \"#utility.yul\":3185:3233   */\n      mstore\n        /* \"#utility.yul\":3250:3328   */\n      tag_117\n        /* \"#utility.yul\":3323:3327   */\n      dup2\n        /* \"#utility.yul\":3314:3320   */\n      dup5\n        /* \"#utility.yul\":3250:3328   */\n      tag_104\n      jump\t// in\n    tag_117:\n        /* \"#utility.yul\":3242:3328   */\n      swap1\n      pop\n        /* \"#utility.yul\":2620:3335   */\n      swap5\n      swap4\n      pop\n      pop\n      pop\n      pop\n      jump\t// out\n        /* \"#utility.yul\":3341:3470   */\n    tag_72:\n        /* \"#utility.yul\":3375:3381   */\n      0x00\n        /* \"#utility.yul\":3402:3422   */\n      tag_119\n      tag_120\n      jump\t// in\n    tag_119:\n        /* \"#utility.yul\":3392:3422   */\n      swap1\n      pop\n        /* \"#utility.yul\":3431:3464   */\n      tag_121\n        /* \"#utility.yul\":3459:3463   */\n      dup3\n        /* \"#utility.yul\":3451:3457   */\n      dup3\n        /* \"#utility.yul\":3431:3464   */\n      tag_122\n      jump\t// in\n    tag_121:\n        /* \"#utility.yul\":3341:3470   */\n      swap2\n      swap1\n      pop\n      jump\t// out\n        /* \"#utility.yul\":3476:3551   */\n    tag_120:\n        /* \"#utility.yul\":3509:3515   */\n      0x00\n        /* \"#utility.yul\":3542:3544   */\n      0x40\n        /* \"#utility.yul\":3536:3545   */\n      mload\n        /* \"#utility.yul\":3526:3545   */\n      swap1\n      pop\n        /* \"#utility.yul\":3476:3551   */\n      swap1\n      jump\t// out\n        /* \"#utility.yul\":3557:3865   */\n    tag_71:\n        /* \"#utility.yul\":3619:3623   */\n      0x00\n        /* \"#utility.yul\":3709:3727   */\n      0xffffffffffffffff\n        /* \"#utility.yul\":3701:3707   */\n      dup3\n        /* \"#utility.yul\":3698:3728   */\n      gt\n        /* \"#utility.yul\":3695:3751   */\n      iszero\n      tag_125\n      jumpi\n        /* \"#utility.yul\":3731:3749   */\n      tag_126\n      tag_127\n      jump\t// in\n    tag_126:\n        /* \"#utility.yul\":3695:3751   */\n    tag_125:\n        /* \"#utility.yul\":3769:3798   */\n      tag_128\n        /* \"#utility.yul\":3791:3797   */\n      dup3\n        /* \"#utility.yul\":3769:3798   */\n      tag_113\n      jump\t// in\n    tag_128:\n        /* \"#utility.yul\":3761:3798   */\n      swap1\n      pop\n        /* \"#utility.yul\":3853:3857   */\n      0x20\n        /* \"#utility.yul\":3847:3851   */\n      dup2\n        /* \"#utility.yul\":3843:3858   */\n      add\n        /* \"#utility.yul\":3835:3858   */\n      swap1\n      pop\n        /* \"#utility.yul\":3557:3865   */\n      swap2\n      swap1\n      pop\n      jump\t// out\n        /* \"#utility.yul\":3871:3970   */\n    tag_107:\n        /* \"#utility.yul\":3923:3929   */\n      0x00\n        /* \"#utility.yul\":3957:3962   */\n      dup2\n        /* \"#utility.yul\":3951:3963   */\n      mload\n        /* \"#utility.yul\":3941:3963   */\n      swap1\n      pop\n        /* \"#utility.yul\":3871:3970   */\n      swap2\n      swap1\n      pop\n      jump\t// out\n        /* \"#utility.yul\":3976:4145   */\n    tag_109:\n        /* \"#utility.yul\":4060:4071   */\n      0x00\n        /* \"#utility.yul\":4094:4100   */\n      dup3\n        /* \"#utility.yul\":4089:4092   */\n      dup3\n        /* \"#utility.yul\":4082:4101   */\n      mstore\n        /* \"#utility.yul\":4134:4138   */\n      0x20\n        /* \"#utility.yul\":4129:4132   */\n      dup3\n        /* \"#utility.yul\":4125:4139   */\n      add\n        /* \"#utility.yul\":4110:4139   */\n      swap1\n      pop\n        /* \"#utility.yul\":3976:4145   */\n      swap3\n      swap2\n      pop\n      pop\n      jump\t// out\n        /* \"#utility.yul\":4151:4228   */\n    tag_131:\n        /* \"#utility.yul\":4188:4195   */\n      0x00\n        /* \"#utility.yul\":4217:4222   */\n      dup2\n        /* \"#utility.yul\":4206:4222   */\n      swap1\n      pop\n        /* \"#utility.yul\":4151:4228   */\n      swap2\n      swap1\n      pop\n      jump\t// out\n        /* \"#utility.yul\":4234:4388   */\n    tag_77:\n        /* \"#utility.yul\":4318:4324   */\n      dup3\n        /* \"#utility.yul\":4313:4316   */\n      dup2\n        /* \"#utility.yul\":4308:4311   */\n      dup4\n        /* \"#utility.yul\":4295:4325   */\n      calldatacopy\n        /* \"#utility.yul\":4380:4381   */\n      0x00\n        /* \"#utility.yul\":4371:4377   */\n      dup4\n        /* \"#utility.yul\":4366:4369   */\n      dup4\n        /* \"#utility.yul\":4362:4378   */\n      add\n        /* \"#utility.yul\":4355:4382   */\n      mstore\n        /* \"#utility.yul\":4234:4388   */\n      pop\n      pop\n      pop\n      jump\t// out\n        /* \"#utility.yul\":4394:4701   */\n    tag_111:\n        /* \"#utility.yul\":4462:4463   */\n      0x00\n        /* \"#utility.yul\":4472:4585   */\n    tag_135:\n        /* \"#utility.yul\":4486:4492   */\n      dup4\n        /* \"#utility.yul\":4483:4484   */\n      dup2\n        /* \"#utility.yul\":4480:4493   */\n      lt\n        /* \"#utility.yul\":4472:4585   */\n      iszero\n      tag_137\n      jumpi\n        /* \"#utility.yul\":4571:4572   */\n      dup1\n        /* \"#utility.yul\":4566:4569   */\n      dup3\n        /* \"#utility.yul\":4562:4573   */\n      add\n        /* \"#utility.yul\":4556:4574   */\n      mload\n        /* \"#utility.yul\":4552:4553   */\n      dup2\n        /* \"#utility.yul\":4547:4550   */\n      dup5\n        /* \"#utility.yul\":4543:4554   */\n      add\n        /* \"#utility.yul\":4536:4575   */\n      mstore\n        /* \"#utility.yul\":4508:4510   */\n      0x20\n        /* \"#utility.yul\":4505:4506   */\n      dup2\n        /* \"#utility.yul\":4501:4511   */\n      add\n        /* \"#utility.yul\":4496:4511   */\n      swap1\n      pop\n        /* \"#utility.yul\":4472:4585   */\n      jump(tag_135)\n    tag_137:\n        /* \"#utility.yul\":4603:4609   */\n      dup4\n        /* \"#utility.yul\":4600:4601   */\n      dup2\n        /* \"#utility.yul\":4597:4610   */\n      gt\n        /* \"#utility.yul\":4594:4695   */\n      iszero\n      tag_138\n      jumpi\n        /* \"#utility.yul\":4683:4684   */\n      0x00\n        /* \"#utility.yul\":4674:4680   */\n      dup5\n        /* \"#utility.yul\":4669:4672   */\n      dup5\n        /* \"#utility.yul\":4665:4681   */\n      add\n        /* \"#utility.yul\":4658:4685   */\n      mstore\n        /* \"#utility.yul\":4594:4695   */\n    tag_138:\n        /* \"#utility.yul\":4443:4701   */\n      pop\n        /* \"#utility.yul\":4394:4701   */\n      pop\n      pop\n      pop\n      jump\t// out\n        /* \"#utility.yul\":4707:5027   */\n    tag_26:\n        /* \"#utility.yul\":4751:4757   */\n      0x00\n        /* \"#utility.yul\":4788:4789   */\n      0x02\n        /* \"#utility.yul\":4782:4786   */\n      dup3\n        /* \"#utility.yul\":4778:4790   */\n      div\n        /* \"#utility.yul\":4768:4790   */\n      swap1\n      pop\n        /* \"#utility.yul\":4835:4836   */\n      0x01\n        /* \"#utility.yul\":4829:4833   */\n      dup3\n        /* \"#utility.yul\":4825:4837   */\n      and\n        /* \"#utility.yul\":4856:4874   */\n      dup1\n        /* \"#utility.yul\":4846:4927   */\n      tag_140\n      jumpi\n        /* \"#utility.yul\":4912:4916   */\n      0x7f\n        /* \"#utility.yul\":4904:4910   */\n      dup3\n        /* \"#utility.yul\":4900:4917   */\n      and\n        /* \"#utility.yul\":4890:4917   */\n      swap2\n      pop\n        /* \"#utility.yul\":4846:4927   */\n    tag_140:\n        /* \"#utility.yul\":4974:4976   */\n      0x20\n        /* \"#utility.yul\":4966:4972   */\n      dup3\n        /* \"#utility.yul\":4963:4977   */\n      lt\n        /* \"#utility.yul\":4943:4961   */\n      dup2\n        /* \"#utility.yul\":4940:4978   */\n      eq\n        /* \"#utility.yul\":4937:5021   */\n      iszero\n      tag_141\n      jumpi\n        /* \"#utility.yul\":4993:5011   */\n      tag_142\n      tag_143\n      jump\t// in\n    tag_142:\n        /* \"#utility.yul\":4937:5021   */\n    tag_141:\n        /* \"#utility.yul\":4758:5027   */\n      pop\n        /* \"#utility.yul\":4707:5027   */\n      swap2\n      swap1\n      pop\n      jump\t// out\n        /* \"#utility.yul\":5033:5314   */\n    tag_122:\n        /* \"#utility.yul\":5116:5143   */\n      tag_145\n        /* \"#utility.yul\":5138:5142   */\n      dup3\n        /* \"#utility.yul\":5116:5143   */\n      tag_113\n      jump\t// in\n    tag_145:\n        /* \"#utility.yul\":5108:5114   */\n      dup2\n        /* \"#utility.yul\":5104:5144   */\n      add\n        /* \"#utility.yul\":5246:5252   */\n      dup2\n        /* \"#utility.yul\":5234:5244   */\n      dup2\n        /* \"#utility.yul\":5231:5253   */\n      lt\n        /* \"#utility.yul\":5210:5228   */\n      0xffffffffffffffff\n        /* \"#utility.yul\":5198:5208   */\n      dup3\n        /* \"#utility.yul\":5195:5229   */\n      gt\n        /* \"#utility.yul\":5192:5254   */\n      or\n        /* \"#utility.yul\":5189:5277   */\n      iszero\n      tag_146\n      jumpi\n        /* \"#utility.yul\":5257:5275   */\n      tag_147\n      tag_127\n      jump\t// in\n    tag_147:\n        /* \"#utility.yul\":5189:5277   */\n    tag_146:\n        /* \"#utility.yul\":5297:5307   */\n      dup1\n        /* \"#utility.yul\":5293:5295   */\n      0x40\n        /* \"#utility.yul\":5286:5308   */\n      mstore\n        /* \"#utility.yul\":5076:5314   */\n      pop\n        /* \"#utility.yul\":5033:5314   */\n      pop\n      pop\n      jump\t// out\n        /* \"#utility.yul\":5320:5500   */\n    tag_143:\n        /* \"#utility.yul\":5368:5445   */\n      0x4e487b7100000000000000000000000000000000000000000000000000000000\n        /* \"#utility.yul\":5365:5366   */\n      0x00\n        /* \"#utility.yul\":5358:5446   */\n      mstore\n        /* \"#utility.yul\":5465:5469   */\n      0x22\n        /* \"#utility.yul\":5462:5463   */\n      0x04\n        /* \"#utility.yul\":5455:5470   */\n      mstore\n        /* \"#utility.yul\":5489:5493   */\n      0x24\n        /* \"#utility.yul\":5486:5487   */\n      0x00\n        /* \"#utility.yul\":5479:5494   */\n      revert\n        /* \"#utility.yul\":5506:5686   */\n    tag_127:\n        /* \"#utility.yul\":5554:5631   */\n      0x4e487b7100000000000000000000000000000000000000000000000000000000\n        /* \"#utility.yul\":5551:5552   */\n      0x00\n        /* \"#utility.yul\":5544:5632   */\n      mstore\n        /* \"#utility.yul\":5651:5655   */\n      0x41\n        /* \"#utility.yul\":5648:5649   */\n      0x04\n        /* \"#utility.yul\":5641:5656   */\n      mstore\n        /* \"#utility.yul\":5675:5679   */\n      0x24\n        /* \"#utility.yul\":5672:5673   */\n      0x00\n        /* \"#utility.yul\":5665:5680   */\n      revert\n        /* \"#utility.yul\":5692:5809   */\n    tag_82:\n        /* \"#utility.yul\":5801:5802   */\n      0x00\n        /* \"#utility.yul\":5798:5799   */\n      dup1\n        /* \"#utility.yul\":5791:5803   */\n      revert\n        /* \"#utility.yul\":5815:5932   */\n    tag_75:\n        /* \"#utility.yul\":5924:5925   */\n      0x00\n        /* \"#utility.yul\":5921:5922   */\n      dup1\n        /* \"#utility.yul\":5914:5926   */\n      revert\n        /* \"#utility.yul\":5938:6055   */\n    tag_99:\n        /* \"#utility.yul\":6047:6048   */\n      0x00\n        /* \"#utility.yul\":6044:6045   */\n      dup1\n        /* \"#utility.yul\":6037:6049   */\n      revert\n        /* \"#utility.yul\":6061:6178   */\n    tag_91:\n        /* \"#utility.yul\":6170:6171   */\n      0x00\n        /* \"#utility.yul\":6167:6168   */\n      dup1\n        /* \"#utility.yul\":6160:6172   */\n      revert\n        /* \"#utility.yul\":6184:6286   */\n    tag_113:\n        /* \"#utility.yul\":6225:6231   */\n      0x00\n        /* \"#utility.yul\":6276:6278   */\n      0x1f\n        /* \"#utility.yul\":6272:6279   */\n      not\n        /* \"#utility.yul\":6267:6269   */\n      0x1f\n        /* \"#utility.yul\":6260:6265   */\n      dup4\n        /* \"#utility.yul\":6256:6270   */\n      add\n        /* \"#utility.yul\":6252:6280   */\n      and\n        /* \"#utility.yul\":6242:6280   */\n      swap1\n      pop\n        /* \"#utility.yul\":6184:6286   */\n      swap2\n      swap1\n      pop\n      jump\t// out\n        /* \"#utility.yul\":6292:6414   */\n    tag_87:\n        /* \"#utility.yul\":6365:6389   */\n      tag_156\n        /* \"#utility.yul\":6383:6388   */\n      dup2\n        /* \"#utility.yul\":6365:6389   */\n      tag_131\n      jump\t// in\n    tag_156:\n        /* \"#utility.yul\":6358:6363   */\n      dup2\n        /* \"#utility.yul\":6355:6390   */\n      eq\n        /* \"#utility.yul\":6345:6408   */\n      tag_157\n      jumpi\n        /* \"#utility.yul\":6404:6405   */\n      0x00\n        /* \"#utility.yul\":6401:6402   */\n      dup1\n        /* \"#utility.yul\":6394:6406   */\n      revert\n        /* \"#utility.yul\":6345:6408   */\n    tag_157:\n        /* \"#utility.yul\":6292:6414   */\n      pop\n      jump\t// out\n\n    auxdata: 0xa2646970667358221220ccfde476413d8eccb7a9a2372666efeb87c8ddfcedde9089a87ee0f82c8b96e664736f6c63430008070033\n}\n",
				"bytecode": {
					"linkReferences": {},
					"object": "60806040526040518060400160405280600d81526020017f45636f6e6f6d7920436c617373000000000000000000000000000000000000008152506000908051906020019061004f929190610062565b5034801561005c57600080fd5b50610166565b82805461006e90610105565b90600052602060002090601f01602090048101928261009057600085556100d7565b82601f106100a957805160ff19168380011785556100d7565b828001600101855582156100d7579182015b828111156100d65782518255916020019190600101906100bb565b5b5090506100e491906100e8565b5090565b5b808211156101015760008160009055506001016100e9565b5090565b6000600282049050600182168061011d57607f821691505b6020821081141561013157610130610137565b5b50919050565b7f4e487b7100000000000000000000000000000000000000000000000000000000600052602260045260246000fd5b6108e1806101756000396000f3fe608060405234801561001057600080fd5b50600436106100575760003560e01c80636328feea1461005c57806384a739cf146100785780638a3d49c614610082578063c84d106d1461008c578063f0ba844014610096575b600080fd5b610076600480360381019061007191906105e0565b6100c8565b005b6100806101df565b005b61008a61022d565b005b61009461027b565b005b6100b060048036038101906100ab91906105b3565b6102c9565b6040516100bf939291906106a4565b60405180910390f35b6040518060600160405280838152602001828152602001600080546100ec906107ae565b80601f0160208091040260200160405190810160405280929190818152602001828054610118906107ae565b80156101655780601f1061013a57610100808354040283529160200191610165565b820191906000526020600020905b81548152906001019060200180831161014857829003601f168201915b505050505081525060016000858152602001908152602001600020600082015181600001908051906020019061019c92919061048b565b5060208201518160010190805190602001906101b992919061048b565b5060408201518160020190805190602001906101d692919061048b565b50905050505050565b6040518060400160405280600e81526020017f427573696e65737320436c6173730000000000000000000000000000000000008152506000908051906020019061022a92919061048b565b50565b6040518060400160405280600b81526020017f466972737420436c6173730000000000000000000000000000000000000000008152506000908051906020019061027892919061048b565b50565b6040518060400160405280600b81526020017f466972737420436c617373000000000000000000000000000000000000000000815250600090805190602001906102c692919061048b565b50565b60016020528060005260406000206000915090508060000180546102ec906107ae565b80601f0160208091040260200160405190810160405280929190818152602001828054610318906107ae565b80156103655780601f1061033a57610100808354040283529160200191610365565b820191906000526020600020905b81548152906001019060200180831161034857829003601f168201915b50505050509080600101805461037a906107ae565b80601f01602080910402602001604051908101604052809291908181526020018280546103a6906107ae565b80156103f35780601f106103c8576101008083540402835291602001916103f3565b820191906000526020600020905b8154815290600101906020018083116103d657829003601f168201915b505050505090806002018054610408906107ae565b80601f0160208091040260200160405190810160405280929190818152602001828054610434906107ae565b80156104815780601f1061045657610100808354040283529160200191610481565b820191906000526020600020905b81548152906001019060200180831161046457829003601f168201915b5050505050905083565b828054610497906107ae565b90600052602060002090601f0160209004810192826104b95760008555610500565b82601f106104d257805160ff1916838001178555610500565b82800160010185558215610500579182015b828111156104ff5782518255916020019190600101906104e4565b5b50905061050d9190610511565b5090565b5b8082111561052a576000816000905550600101610512565b5090565b600061054161053c84610715565b6106f0565b90508281526020810184848401111561055d5761055c610874565b5b61056884828561076c565b509392505050565b600082601f8301126105855761058461086f565b5b813561059584826020860161052e565b91505092915050565b6000813590506105ad81610894565b92915050565b6000602082840312156105c9576105c861087e565b5b60006105d78482850161059e565b91505092915050565b6000806000606084860312156105f9576105f861087e565b5b60006106078682870161059e565b935050602084013567ffffffffffffffff81111561062857610627610879565b5b61063486828701610570565b925050604084013567ffffffffffffffff81111561065557610654610879565b5b61066186828701610570565b9150509250925092565b600061067682610746565b6106808185610751565b935061069081856020860161077b565b61069981610883565b840191505092915050565b600060608201905081810360008301526106be818661066b565b905081810360208301526106d2818561066b565b905081810360408301526106e6818461066b565b9050949350505050565b60006106fa61070b565b905061070682826107e0565b919050565b6000604051905090565b600067ffffffffffffffff8211156107305761072f610840565b5b61073982610883565b9050602081019050919050565b600081519050919050565b600082825260208201905092915050565b6000819050919050565b82818337600083830152505050565b60005b8381101561079957808201518184015260208101905061077e565b838111156107a8576000848401525b50505050565b600060028204905060018216806107c657607f821691505b602082108114156107da576107d9610811565b5b50919050565b6107e982610883565b810181811067ffffffffffffffff8211171561080857610807610840565b5b80604052505050565b7f4e487b7100000000000000000000000000000000000000000000000000000000600052602260045260246000fd5b7f4e487b7100000000000000000000000000000000000000000000000000000000600052604160045260246000fd5b600080fd5b600080fd5b600080fd5b600080fd5b6000601f19601f8301169050919050565b61089d81610762565b81146108a857600080fd5b5056fea2646970667358221220ccfde476413d8eccb7a9a2372666efeb87c8ddfcedde9089a87ee0f82c8b96e664736f6c63430008070033",
					"opcodes": "PUSH1 0x80 PUSH1 0x40 MSTORE PUSH1 0x40 MLOAD DUP1 PUSH1 0x40 ADD PUSH1 0x40 MSTORE DUP1 PUSH1 0xD DUP2 MSTORE PUSH1 0x20 ADD PUSH32 0x45636F6E6F6D7920436C61737300000000000000000000000000000000000000 DUP2 MSTORE POP PUSH1 0x0 SWAP1 DUP1 MLOAD SWAP1 PUSH1 0x20 ADD SWAP1 PUSH2 0x4F SWAP3 SWAP2 SWAP1 PUSH2 0x62 JUMP JUMPDEST POP CALLVALUE DUP1 ISZERO PUSH2 0x5C JUMPI PUSH1 0x0 DUP1 REVERT JUMPDEST POP PUSH2 0x166 JUMP JUMPDEST DUP3 DUP1 SLOAD PUSH2 0x6E SWAP1 PUSH2 0x105 JUMP JUMPDEST SWAP1 PUSH1 0x0 MSTORE PUSH1 0x20 PUSH1 0x0 KECCAK256 SWAP1 PUSH1 0x1F ADD PUSH1 0x20 SWAP1 DIV DUP2 ADD SWAP3 DUP3 PUSH2 0x90 JUMPI PUSH1 0x0 DUP6 SSTORE PUSH2 0xD7 JUMP JUMPDEST DUP3 PUSH1 0x1F LT PUSH2 0xA9 JUMPI DUP1 MLOAD PUSH1 0xFF NOT AND DUP4 DUP1 ADD OR DUP6 SSTORE PUSH2 0xD7 JUMP JUMPDEST DUP3 DUP1 ADD PUSH1 0x1 ADD DUP6 SSTORE DUP3 ISZERO PUSH2 0xD7 JUMPI SWAP2 DUP3 ADD JUMPDEST DUP3 DUP2 GT ISZERO PUSH2 0xD6 JUMPI DUP3 MLOAD DUP3 SSTORE SWAP2 PUSH1 0x20 ADD SWAP2 SWAP1 PUSH1 0x1 ADD SWAP1 PUSH2 0xBB JUMP JUMPDEST JUMPDEST POP SWAP1 POP PUSH2 0xE4 SWAP2 SWAP1 PUSH2 0xE8 JUMP JUMPDEST POP SWAP1 JUMP JUMPDEST JUMPDEST DUP1 DUP3 GT ISZERO PUSH2 0x101 JUMPI PUSH1 0x0 DUP2 PUSH1 0x0 SWAP1 SSTORE POP PUSH1 0x1 ADD PUSH2 0xE9 JUMP JUMPDEST POP SWAP1 JUMP JUMPDEST PUSH1 0x0 PUSH1 0x2 DUP3 DIV SWAP1 POP PUSH1 0x1 DUP3 AND DUP1 PUSH2 0x11D JUMPI PUSH1 0x7F DUP3 AND SWAP2 POP JUMPDEST PUSH1 0x20 DUP3 LT DUP2 EQ ISZERO PUSH2 0x131 JUMPI PUSH2 0x130 PUSH2 0x137 JUMP JUMPDEST JUMPDEST POP SWAP2 SWAP1 POP JUMP JUMPDEST PUSH32 0x4E487B7100000000000000000000000000000000000000000000000000000000 PUSH1 0x0 MSTORE PUSH1 0x22 PUSH1 0x4 MSTORE PUSH1 0x24 PUSH1 0x0 REVERT JUMPDEST PUSH2 0x8E1 DUP1 PUSH2 0x175 PUSH1 0x0 CODECOPY PUSH1 0x0 RETURN INVALID PUSH1 0x80 PUSH1 0x40 MSTORE CALLVALUE DUP1 ISZERO PUSH2 0x10 JUMPI PUSH1 0x0 DUP1 REVERT JUMPDEST POP PUSH1 0x4 CALLDATASIZE LT PUSH2 0x57 JUMPI PUSH1 0x0 CALLDATALOAD PUSH1 0xE0 SHR DUP1 PUSH4 0x6328FEEA EQ PUSH2 0x5C JUMPI DUP1 PUSH4 0x84A739CF EQ PUSH2 0x78 JUMPI DUP1 PUSH4 0x8A3D49C6 EQ PUSH2 0x82 JUMPI DUP1 PUSH4 0xC84D106D EQ PUSH2 0x8C JUMPI DUP1 PUSH4 0xF0BA8440 EQ PUSH2 0x96 JUMPI JUMPDEST PUSH1 0x0 DUP1 REVERT JUMPDEST PUSH2 0x76 PUSH1 0x4 DUP1 CALLDATASIZE SUB DUP2 ADD SWAP1 PUSH2 0x71 SWAP2 SWAP1 PUSH2 0x5E0 JUMP JUMPDEST PUSH2 0xC8 JUMP JUMPDEST STOP JUMPDEST PUSH2 0x80 PUSH2 0x1DF JUMP JUMPDEST STOP JUMPDEST PUSH2 0x8A PUSH2 0x22D JUMP JUMPDEST STOP JUMPDEST PUSH2 0x94 PUSH2 0x27B JUMP JUMPDEST STOP JUMPDEST PUSH2 0xB0 PUSH1 0x4 DUP1 CALLDATASIZE SUB DUP2 ADD SWAP1 PUSH2 0xAB SWAP2 SWAP1 PUSH2 0x5B3 JUMP JUMPDEST PUSH2 0x2C9 JUMP JUMPDEST PUSH1 0x40 MLOAD PUSH2 0xBF SWAP4 SWAP3 SWAP2 SWAP1 PUSH2 0x6A4 JUMP JUMPDEST PUSH1 0x40 MLOAD DUP1 SWAP2 SUB SWAP1 RETURN JUMPDEST PUSH1 0x40 MLOAD DUP1 PUSH1 0x60 ADD PUSH1 0x40 MSTORE DUP1 DUP4 DUP2 MSTORE PUSH1 0x20 ADD DUP3 DUP2 MSTORE PUSH1 0x20 ADD PUSH1 0x0 DUP1 SLOAD PUSH2 0xEC SWAP1 PUSH2 0x7AE JUMP JUMPDEST DUP1 PUSH1 0x1F ADD PUSH1 0x20 DUP1 SWAP2 DIV MUL PUSH1 0x20 ADD PUSH1 0x40 MLOAD SWAP1 DUP2 ADD PUSH1 0x40 MSTORE DUP1 SWAP3 SWAP2 SWAP1 DUP2 DUP2 MSTORE PUSH1 0x20 ADD DUP3 DUP1 SLOAD PUSH2 0x118 SWAP1 PUSH2 0x7AE JUMP JUMPDEST DUP1 ISZERO PUSH2 0x165 JUMPI DUP1 PUSH1 0x1F LT PUSH2 0x13A JUMPI PUSH2 0x100 DUP1 DUP4 SLOAD DIV MUL DUP4 MSTORE SWAP2 PUSH1 0x20 ADD SWAP2 PUSH2 0x165 JUMP JUMPDEST DUP3 ADD SWAP2 SWAP1 PUSH1 0x0 MSTORE PUSH1 0x20 PUSH1 0x0 KECCAK256 SWAP1 JUMPDEST DUP2 SLOAD DUP2 MSTORE SWAP1 PUSH1 0x1 ADD SWAP1 PUSH1 0x20 ADD DUP1 DUP4 GT PUSH2 0x148 JUMPI DUP3 SWAP1 SUB PUSH1 0x1F AND DUP3 ADD SWAP2 JUMPDEST POP POP POP POP POP DUP2 MSTORE POP PUSH1 0x1 PUSH1 0x0 DUP6 DUP2 MSTORE PUSH1 0x20 ADD SWAP1 DUP2 MSTORE PUSH1 0x20 ADD PUSH1 0x0 KECCAK256 PUSH1 0x0 DUP3 ADD MLOAD DUP2 PUSH1 0x0 ADD SWAP1 DUP1 MLOAD SWAP1 PUSH1 0x20 ADD SWAP1 PUSH2 0x19C SWAP3 SWAP2 SWAP1 PUSH2 0x48B JUMP JUMPDEST POP PUSH1 0x20 DUP3 ADD MLOAD DUP2 PUSH1 0x1 ADD SWAP1 DUP1 MLOAD SWAP1 PUSH1 0x20 ADD SWAP1 PUSH2 0x1B9 SWAP3 SWAP2 SWAP1 PUSH2 0x48B JUMP JUMPDEST POP PUSH1 0x40 DUP3 ADD MLOAD DUP2 PUSH1 0x2 ADD SWAP1 DUP1 MLOAD SWAP1 PUSH1 0x20 ADD SWAP1 PUSH2 0x1D6 SWAP3 SWAP2 SWAP1 PUSH2 0x48B JUMP JUMPDEST POP SWAP1 POP POP POP POP POP JUMP JUMPDEST PUSH1 0x40 MLOAD DUP1 PUSH1 0x40 ADD PUSH1 0x40 MSTORE DUP1 PUSH1 0xE DUP2 MSTORE PUSH1 0x20 ADD PUSH32 0x427573696E65737320436C617373000000000000000000000000000000000000 DUP2 MSTORE POP PUSH1 0x0 SWAP1 DUP1 MLOAD SWAP1 PUSH1 0x20 ADD SWAP1 PUSH2 0x22A SWAP3 SWAP2 SWAP1 PUSH2 0x48B JUMP JUMPDEST POP JUMP JUMPDEST PUSH1 0x40 MLOAD DUP1 PUSH1 0x40 ADD PUSH1 0x40 MSTORE DUP1 PUSH1 0xB DUP2 MSTORE PUSH1 0x20 ADD PUSH32 0x466972737420436C617373000000000000000000000000000000000000000000 DUP2 MSTORE POP PUSH1 0x0 SWAP1 DUP1 MLOAD SWAP1 PUSH1 0x20 ADD SWAP1 PUSH2 0x278 SWAP3 SWAP2 SWAP1 PUSH2 0x48B JUMP JUMPDEST POP JUMP JUMPDEST PUSH1 0x40 MLOAD DUP1 PUSH1 0x40 ADD PUSH1 0x40 MSTORE DUP1 PUSH1 0xB DUP2 MSTORE PUSH1 0x20 ADD PUSH32 0x466972737420436C617373000000000000000000000000000000000000000000 DUP2 MSTORE POP PUSH1 0x0 SWAP1 DUP1 MLOAD SWAP1 PUSH1 0x20 ADD SWAP1 PUSH2 0x2C6 SWAP3 SWAP2 SWAP1 PUSH2 0x48B JUMP JUMPDEST POP JUMP JUMPDEST PUSH1 0x1 PUSH1 0x20 MSTORE DUP1 PUSH1 0x0 MSTORE PUSH1 0x40 PUSH1 0x0 KECCAK256 PUSH1 0x0 SWAP2 POP SWAP1 POP DUP1 PUSH1 0x0 ADD DUP1 SLOAD PUSH2 0x2EC SWAP1 PUSH2 0x7AE JUMP JUMPDEST DUP1 PUSH1 0x1F ADD PUSH1 0x20 DUP1 SWAP2 DIV MUL PUSH1 0x20 ADD PUSH1 0x40 MLOAD SWAP1 DUP2 ADD PUSH1 0x40 MSTORE DUP1 SWAP3 SWAP2 SWAP1 DUP2 DUP2 MSTORE PUSH1 0x20 ADD DUP3 DUP1 SLOAD PUSH2 0x318 SWAP1 PUSH2 0x7AE JUMP JUMPDEST DUP1 ISZERO PUSH2 0x365 JUMPI DUP1 PUSH1 0x1F LT PUSH2 0x33A JUMPI PUSH2 0x100 DUP1 DUP4 SLOAD DIV MUL DUP4 MSTORE SWAP2 PUSH1 0x20 ADD SWAP2 PUSH2 0x365 JUMP JUMPDEST DUP3 ADD SWAP2 SWAP1 PUSH1 0x0 MSTORE PUSH1 0x20 PUSH1 0x0 KECCAK256 SWAP1 JUMPDEST DUP2 SLOAD DUP2 MSTORE SWAP1 PUSH1 0x1 ADD SWAP1 PUSH1 0x20 ADD DUP1 DUP4 GT PUSH2 0x348 JUMPI DUP3 SWAP1 SUB PUSH1 0x1F AND DUP3 ADD SWAP2 JUMPDEST POP POP POP POP POP SWAP1 DUP1 PUSH1 0x1 ADD DUP1 SLOAD PUSH2 0x37A SWAP1 PUSH2 0x7AE JUMP JUMPDEST DUP1 PUSH1 0x1F ADD PUSH1 0x20 DUP1 SWAP2 DIV MUL PUSH1 0x20 ADD PUSH1 0x40 MLOAD SWAP1 DUP2 ADD PUSH1 0x40 MSTORE DUP1 SWAP3 SWAP2 SWAP1 DUP2 DUP2 MSTORE PUSH1 0x20 ADD DUP3 DUP1 SLOAD PUSH2 0x3A6 SWAP1 PUSH2 0x7AE JUMP JUMPDEST DUP1 ISZERO PUSH2 0x3F3 JUMPI DUP1 PUSH1 0x1F LT PUSH2 0x3C8 JUMPI PUSH2 0x100 DUP1 DUP4 SLOAD DIV MUL DUP4 MSTORE SWAP2 PUSH1 0x20 ADD SWAP2 PUSH2 0x3F3 JUMP JUMPDEST DUP3 ADD SWAP2 SWAP1 PUSH1 0x0 MSTORE PUSH1 0x20 PUSH1 0x0 KECCAK256 SWAP1 JUMPDEST DUP2 SLOAD DUP2 MSTORE SWAP1 PUSH1 0x1 ADD SWAP1 PUSH1 0x20 ADD DUP1 DUP4 GT PUSH2 0x3D6 JUMPI DUP3 SWAP1 SUB PUSH1 0x1F AND DUP3 ADD SWAP2 JUMPDEST POP POP POP POP POP SWAP1 DUP1 PUSH1 0x2 ADD DUP1 SLOAD PUSH2 0x408 SWAP1 PUSH2 0x7AE JUMP JUMPDEST DUP1 PUSH1 0x1F ADD PUSH1 0x20 DUP1 SWAP2 DIV MUL PUSH1 0x20 ADD PUSH1 0x40 MLOAD SWAP1 DUP2 ADD PUSH1 0x40 MSTORE DUP1 SWAP3 SWAP2 SWAP1 DUP2 DUP2 MSTORE PUSH1 0x20 ADD DUP3 DUP1 SLOAD PUSH2 0x434 SWAP1 PUSH2 0x7AE JUMP JUMPDEST DUP1 ISZERO PUSH2 0x481 JUMPI DUP1 PUSH1 0x1F LT PUSH2 0x456 JUMPI PUSH2 0x100 DUP1 DUP4 SLOAD DIV MUL DUP4 MSTORE SWAP2 PUSH1 0x20 ADD SWAP2 PUSH2 0x481 JUMP JUMPDEST DUP3 ADD SWAP2 SWAP1 PUSH1 0x0 MSTORE PUSH1 0x20 PUSH1 0x0 KECCAK256 SWAP1 JUMPDEST DUP2 SLOAD DUP2 MSTORE SWAP1 PUSH1 0x1 ADD SWAP1 PUSH1 0x20 ADD DUP1 DUP4 GT PUSH2 0x464 JUMPI DUP3 SWAP1 SUB PUSH1 0x1F AND DUP3 ADD SWAP2 JUMPDEST POP POP POP POP POP SWAP1 POP DUP4 JUMP JUMPDEST DUP3 DUP1 SLOAD PUSH2 0x497 SWAP1 PUSH2 0x7AE JUMP JUMPDEST SWAP1 PUSH1 0x0 MSTORE PUSH1 0x20 PUSH1 0x0 KECCAK256 SWAP1 PUSH1 0x1F ADD PUSH1 0x20 SWAP1 DIV DUP2 ADD SWAP3 DUP3 PUSH2 0x4B9 JUMPI PUSH1 0x0 DUP6 SSTORE PUSH2 0x500 JUMP JUMPDEST DUP3 PUSH1 0x1F LT PUSH2 0x4D2 JUMPI DUP1 MLOAD PUSH1 0xFF NOT AND DUP4 DUP1 ADD OR DUP6 SSTORE PUSH2 0x500 JUMP JUMPDEST DUP3 DUP1 ADD PUSH1 0x1 ADD DUP6 SSTORE DUP3 ISZERO PUSH2 0x500 JUMPI SWAP2 DUP3 ADD JUMPDEST DUP3 DUP2 GT ISZERO PUSH2 0x4FF JUMPI DUP3 MLOAD DUP3 SSTORE SWAP2 PUSH1 0x20 ADD SWAP2 SWAP1 PUSH1 0x1 ADD SWAP1 PUSH2 0x4E4 JUMP JUMPDEST JUMPDEST POP SWAP1 POP PUSH2 0x50D SWAP2 SWAP1 PUSH2 0x511 JUMP JUMPDEST POP SWAP1 JUMP JUMPDEST JUMPDEST DUP1 DUP3 GT ISZERO PUSH2 0x52A JUMPI PUSH1 0x0 DUP2 PUSH1 0x0 SWAP1 SSTORE POP PUSH1 0x1 ADD PUSH2 0x512 JUMP JUMPDEST POP SWAP1 JUMP JUMPDEST PUSH1 0x0 PUSH2 0x541 PUSH2 0x53C DUP5 PUSH2 0x715 JUMP JUMPDEST PUSH2 0x6F0 JUMP JUMPDEST SWAP1 POP DUP3 DUP2 MSTORE PUSH1 0x20 DUP2 ADD DUP5 DUP5 DUP5 ADD GT ISZERO PUSH2 0x55D JUMPI PUSH2 0x55C PUSH2 0x874 JUMP JUMPDEST JUMPDEST PUSH2 0x568 DUP5 DUP3 DUP6 PUSH2 0x76C JUMP JUMPDEST POP SWAP4 SWAP3 POP POP POP JUMP JUMPDEST PUSH1 0x0 DUP3 PUSH1 0x1F DUP4 ADD SLT PUSH2 0x585 JUMPI PUSH2 0x584 PUSH2 0x86F JUMP JUMPDEST JUMPDEST DUP2 CALLDATALOAD PUSH2 0x595 DUP5 DUP3 PUSH1 0x20 DUP7 ADD PUSH2 0x52E JUMP JUMPDEST SWAP2 POP POP SWAP3 SWAP2 POP POP JUMP JUMPDEST PUSH1 0x0 DUP2 CALLDATALOAD SWAP1 POP PUSH2 0x5AD DUP2 PUSH2 0x894 JUMP JUMPDEST SWAP3 SWAP2 POP POP JUMP JUMPDEST PUSH1 0x0 PUSH1 0x20 DUP3 DUP5 SUB SLT ISZERO PUSH2 0x5C9 JUMPI PUSH2 0x5C8 PUSH2 0x87E JUMP JUMPDEST JUMPDEST PUSH1 0x0 PUSH2 0x5D7 DUP5 DUP3 DUP6 ADD PUSH2 0x59E JUMP JUMPDEST SWAP2 POP POP SWAP3 SWAP2 POP POP JUMP JUMPDEST PUSH1 0x0 DUP1 PUSH1 0x0 PUSH1 0x60 DUP5 DUP7 SUB SLT ISZERO PUSH2 0x5F9 JUMPI PUSH2 0x5F8 PUSH2 0x87E JUMP JUMPDEST JUMPDEST PUSH1 0x0 PUSH2 0x607 DUP7 DUP3 DUP8 ADD PUSH2 0x59E JUMP JUMPDEST SWAP4 POP POP PUSH1 0x20 DUP5 ADD CALLDATALOAD PUSH8 0xFFFFFFFFFFFFFFFF DUP2 GT ISZERO PUSH2 0x628 JUMPI PUSH2 0x627 PUSH2 0x879 JUMP JUMPDEST JUMPDEST PUSH2 0x634 DUP7 DUP3 DUP8 ADD PUSH2 0x570 JUMP JUMPDEST SWAP3 POP POP PUSH1 0x40 DUP5 ADD CALLDATALOAD PUSH8 0xFFFFFFFFFFFFFFFF DUP2 GT ISZERO PUSH2 0x655 JUMPI PUSH2 0x654 PUSH2 0x879 JUMP JUMPDEST JUMPDEST PUSH2 0x661 DUP7 DUP3 DUP8 ADD PUSH2 0x570 JUMP JUMPDEST SWAP2 POP POP SWAP3 POP SWAP3 POP SWAP3 JUMP JUMPDEST PUSH1 0x0 PUSH2 0x676 DUP3 PUSH2 0x746 JUMP JUMPDEST PUSH2 0x680 DUP2 DUP6 PUSH2 0x751 JUMP JUMPDEST SWAP4 POP PUSH2 0x690 DUP2 DUP6 PUSH1 0x20 DUP7 ADD PUSH2 0x77B JUMP JUMPDEST PUSH2 0x699 DUP2 PUSH2 0x883 JUMP JUMPDEST DUP5 ADD SWAP2 POP POP SWAP3 SWAP2 POP POP JUMP JUMPDEST PUSH1 0x0 PUSH1 0x60 DUP3 ADD SWAP1 POP DUP2 DUP2 SUB PUSH1 0x0 DUP4 ADD MSTORE PUSH2 0x6BE DUP2 DUP7 PUSH2 0x66B JUMP JUMPDEST SWAP1 POP DUP2 DUP2 SUB PUSH1 0x20 DUP4 ADD MSTORE PUSH2 0x6D2 DUP2 DUP6 PUSH2 0x66B JUMP JUMPDEST SWAP1 POP DUP2 DUP2 SUB PUSH1 0x40 DUP4 ADD MSTORE PUSH2 0x6E6 DUP2 DUP5 PUSH2 0x66B JUMP JUMPDEST SWAP1 POP SWAP5 SWAP4 POP POP POP POP JUMP JUMPDEST PUSH1 0x0 PUSH2 0x6FA PUSH2 0x70B JUMP JUMPDEST SWAP1 POP PUSH2 0x706 DUP3 DUP3 PUSH2 0x7E0 JUMP JUMPDEST SWAP2 SWAP1 POP JUMP JUMPDEST PUSH1 0x0 PUSH1 0x40 MLOAD SWAP1 POP SWAP1 JUMP JUMPDEST PUSH1 0x0 PUSH8 0xFFFFFFFFFFFFFFFF DUP3 GT ISZERO PUSH2 0x730 JUMPI PUSH2 0x72F PUSH2 0x840 JUMP JUMPDEST JUMPDEST PUSH2 0x739 DUP3 PUSH2 0x883 JUMP JUMPDEST SWAP1 POP PUSH1 0x20 DUP2 ADD SWAP1 POP SWAP2 SWAP1 POP JUMP JUMPDEST PUSH1 0x0 DUP2 MLOAD SWAP1 POP SWAP2 SWAP1 POP JUMP JUMPDEST PUSH1 0x0 DUP3 DUP3 MSTORE PUSH1 0x20 DUP3 ADD SWAP1 POP SWAP3 SWAP2 POP POP JUMP JUMPDEST PUSH1 0x0 DUP2 SWAP1 POP SWAP2 SWAP1 POP JUMP JUMPDEST DUP3 DUP2 DUP4 CALLDATACOPY PUSH1 0x0 DUP4 DUP4 ADD MSTORE POP POP POP JUMP JUMPDEST PUSH1 0x0 JUMPDEST DUP4 DUP2 LT ISZERO PUSH2 0x799 JUMPI DUP1 DUP3 ADD MLOAD DUP2 DUP5 ADD MSTORE PUSH1 0x20 DUP2 ADD SWAP1 POP PUSH2 0x77E JUMP JUMPDEST DUP4 DUP2 GT ISZERO PUSH2 0x7A8 JUMPI PUSH1 0x0 DUP5 DUP5 ADD MSTORE JUMPDEST POP POP POP POP JUMP JUMPDEST PUSH1 0x0 PUSH1 0x2 DUP3 DIV SWAP1 POP PUSH1 0x1 DUP3 AND DUP1 PUSH2 0x7C6 JUMPI PUSH1 0x7F DUP3 AND SWAP2 POP JUMPDEST PUSH1 0x20 DUP3 LT DUP2 EQ ISZERO PUSH2 0x7DA JUMPI PUSH2 0x7D9 PUSH2 0x811 JUMP JUMPDEST JUMPDEST POP SWAP2 SWAP1 POP JUMP JUMPDEST PUSH2 0x7E9 DUP3 PUSH2 0x883 JUMP JUMPDEST DUP2 ADD DUP2 DUP2 LT PUSH8 0xFFFFFFFFFFFFFFFF DUP3 GT OR ISZERO PUSH2 0x808 JUMPI PUSH2 0x807 PUSH2 0x840 JUMP JUMPDEST JUMPDEST DUP1 PUSH1 0x40 MSTORE POP POP POP JUMP JUMPDEST PUSH32 0x4E487B7100000000000000000000000000000000000000000000000000000000 PUSH1 0x0 MSTORE PUSH1 0x22 PUSH1 0x4 MSTORE PUSH1 0x24 PUSH1 0x0 REVERT JUMPDEST PUSH32 0x4E487B7100000000000000000000000000000000000000000000000000000000 PUSH1 0x0 MSTORE PUSH1 0x41 PUSH1 0x4 MSTORE PUSH1 0x24 PUSH1 0x0 REVERT JUMPDEST PUSH1 0x0 DUP1 REVERT JUMPDEST PUSH1 0x0 DUP1 REVERT JUMPDEST PUSH1 0x0 DUP1 REVERT JUMPDEST PUSH1 0x0 DUP1 REVERT JUMPDEST PUSH1 0x0 PUSH1 0x1F NOT PUSH1 0x1F DUP4 ADD AND SWAP1 POP SWAP2 SWAP1 POP JUMP JUMPDEST PUSH2 0x89D DUP2 PUSH2 0x762 JUMP JUMPDEST DUP2 EQ PUSH2 0x8A8 JUMPI PUSH1 0x0 DUP1 REVERT JUMPDEST POP JUMP INVALID LOG2 PUSH5 0x6970667358 0x22 SLT KECCAK256 0xCC REVERT 0xE4 PUSH23 0x413D8ECCB7A9A2372666EFEB87C8DDFCEDDE9089A87EE0 0xF8 0x2C DUP12 SWAP7 0xE6 PUSH5 0x736F6C6343 STOP ADDMOD SMOD STOP CALLER "
				},
				"gasEstimates": {
					"creation": {
						"codeDepositCost": "454600",
						"executionCost": "infinite",
						"totalCost": "infinite"
					},
					"external": {
						"changeClassToBusiness()": "infinite",
						"changeClassToEcomomic()": "infinite",
						"changeClassToFirst()": "infinite",
						"data(uint256)": "infinite",
						"setter(uint256,string,string)": "infinite"
					}
				},
				"methodIdentifiers": {
					"changeClassToBusiness()": "84a739cf",
					"changeClassToEcomomic()": "8a3d49c6",
					"changeClassToFirst()": "c84d106d",
					"data(uint256)": "f0ba8440",
					"setter(uint256,string,string)": "6328feea"
				}
			},
			"userdoc": {
				"kind": "user",
				"methods": {},
				"version": 1
			}
		}
	}
}