{
	"Task01(struct-map).sol": {
		"demo": {
			"abi": [
				{
					"inputs": [],
					"name": "changeClassToBusiness",
					"outputs": [],
					"stateMutability": "nonpayable",
					"type": "function"
				},
				{
					"inputs": [],
					"name": "changeClassToEcomomic",
					"outputs": [],
					"stateMutability": "nonpayable",
					"type": "function"
				},
				{
					"inputs": [],
					"name": "changeClassToFirst",
					"outputs": [],
					"stateMutability": "nonpayable",
					"type": "function"
				},
				{
					"inputs": [
						{
							"internalType": "uint256",
							"name": "",
							"type": "uint256"
						}
					],
					"name": "data",
					"outputs": [
						{
							"internalType": "string",
							"name": "name",
							"type": "string"
						},
						{
							"internalType": "string",
							"name": "destination",
							"type": "string"
						},
						{
							"internalType": "string",
							"name": "class",
							"type": "string"
						}
					],
					"stateMutability": "view",
					"type": "function"
				},
				{
					"inputs": [
						{
							"internalType": "uint256",
							"name": "_passportId",
							"type": "uint256"
						},
						{
							"internalType": "string",
							"name": "_name",
							"type": "string"
						},
						{
							"internalType": "string",
							"name": "_destination",
							"type": "string"
						}
					],
					"name": "setter",
					"outputs": [],
					"stateMutability": "nonpayable",
					"type": "function"
				},
				{
					"inputs": [],
					"name": "u1",
					"outputs": [
						{
							"internalType": "enum class",
							"name": "",
							"type": "uint8"
						}
					],
					"stateMutability": "view",
					"type": "function"
				}
			],
			"devdoc": {
				"kind": "dev",
				"methods": {},
				"version": 1
			},
			"evm": {
				"assembly": "    /* \"Task01(struct-map).sol\":341:1009  contract demo  \r... */\n  mstore(0x40, 0x80)\n    /* \"Task01(struct-map).sol\":387:406  class.economy_class */\n  0x00\n    /* \"Task01(struct-map).sol\":369:406  class public u1 = class.economy_class */\n  dup1\n  exp(0x0100, 0x00)\n  dup2\n  sload\n  dup2\n  0xff\n  mul\n  not\n  and\n  swap1\n  dup4\n  0x02\n  dup2\n  gt\n  iszero\n  tag_1\n  jumpi\n  tag_2\n  tag_3\n  jump\t// in\ntag_2:\ntag_1:\n  mul\n  or\n  swap1\n  sstore\n  pop\n    /* \"Task01(struct-map).sol\":415:449  string classType = \"Economy Class\" */\n  mload(0x40)\n  dup1\n  0x40\n  add\n  0x40\n  mstore\n  dup1\n  0x0d\n  dup2\n  mstore\n  0x20\n  add\n  0x45636f6e6f6d7920436c61737300000000000000000000000000000000000000\n  dup2\n  mstore\n  pop\n  0x01\n  swap1\n  dup1\n  mload\n  swap1\n  0x20\n  add\n  swap1\n  tag_4\n  swap3\n  swap2\n  swap1\n  tag_5\n  jump\t// in\ntag_4:\n  pop\n    /* \"Task01(struct-map).sol\":341:1009  contract demo  \r... */\n  callvalue\n  dup1\n  iszero\n  tag_6\n  jumpi\n  0x00\n  dup1\n  revert\ntag_6:\n  pop\n  jump(tag_7)\ntag_5:\n  dup3\n  dup1\n  sload\n  tag_8\n  swap1\n  tag_9\n  jump\t// in\ntag_8:\n  swap1\n  0x00\n  mstore\n  keccak256(0x00, 0x20)\n  swap1\n  0x1f\n  add\n  0x20\n  swap1\n  div\n  dup2\n  add\n  swap3\n  dup3\n  tag_11\n  jumpi\n  0x00\n  dup6\n  sstore\n  jump(tag_10)\ntag_11:\n  dup3\n  0x1f\n  lt\n  tag_12\n  jumpi\n  dup1\n  mload\n  not(0xff)\n  and\n  dup4\n  dup1\n  add\n  or\n  dup6\n  sstore\n  jump(tag_10)\ntag_12:\n  dup3\n  dup1\n  add\n  0x01\n  add\n  dup6\n  sstore\n  dup3\n  iszero\n  tag_10\n  jumpi\n  swap2\n  dup3\n  add\ntag_13:\n  dup3\n  dup2\n  gt\n  iszero\n  tag_14\n  jumpi\n  dup3\n  mload\n  dup3\n  sstore\n  swap2\n  0x20\n  add\n  swap2\n  swap1\n  0x01\n  add\n  swap1\n  jump(tag_13)\ntag_14:\ntag_10:\n  pop\n  swap1\n  pop\n  tag_15\n  swap2\n  swap1\n  tag_16\n  jump\t// in\ntag_15:\n  pop\n  swap1\n  jump\t// out\ntag_16:\ntag_17:\n  dup1\n  dup3\n  gt\n  iszero\n  tag_18\n  jumpi\n  0x00\n  dup2\n  0x00\n  swap1\n  sstore\n  pop\n  0x01\n  add\n  jump(tag_17)\ntag_18:\n  pop\n  swap1\n  jump\t// out\n    /* \"#utility.yul\":7:327   */\ntag_9:\n    /* \"#utility.yul\":51:57   */\n  0x00\n    /* \"#utility.yul\":88:89   */\n  0x02\n    /* \"#utility.yul\":82:86   */\n  dup3\n    /* \"#utility.yul\":78:90   */\n  div\n    /* \"#utility.yul\":68:90   */\n  swap1\n  pop\n    /* \"#utility.yul\":135:136   */\n  0x01\n    /* \"#utility.yul\":129:133   */\n  dup3\n    /* \"#utility.yul\":125:137   */\n  and\n    /* \"#utility.yul\":156:174   */\n  dup1\n    /* \"#utility.yul\":146:227   */\n  tag_21\n  jumpi\n    /* \"#utility.yul\":212:216   */\n  0x7f\n    /* \"#utility.yul\":204:210   */\n  dup3\n    /* \"#utility.yul\":200:217   */\n  and\n    /* \"#utility.yul\":190:217   */\n  swap2\n  pop\n    /* \"#utility.yul\":146:227   */\ntag_21:\n    /* \"#utility.yul\":274:276   */\n  0x20\n    /* \"#utility.yul\":266:272   */\n  dup3\n    /* \"#utility.yul\":263:277   */\n  lt\n    /* \"#utility.yul\":243:261   */\n  dup2\n    /* \"#utility.yul\":240:278   */\n  eq\n    /* \"#utility.yul\":237:321   */\n  iszero\n  tag_22\n  jumpi\n    /* \"#utility.yul\":293:311   */\n  tag_23\n  tag_24\n  jump\t// in\ntag_23:\n    /* \"#utility.yul\":237:321   */\ntag_22:\n    /* \"#utility.yul\":58:327   */\n  pop\n    /* \"#utility.yul\":7:327   */\n  swap2\n  swap1\n  pop\n  jump\t// out\n    /* \"#utility.yul\":333:513   */\ntag_3:\n    /* \"#utility.yul\":381:458   */\n  0x4e487b7100000000000000000000000000000000000000000000000000000000\n    /* \"#utility.yul\":378:379   */\n  0x00\n    /* \"#utility.yul\":371:459   */\n  mstore\n    /* \"#utility.yul\":478:482   */\n  0x21\n    /* \"#utility.yul\":475:476   */\n  0x04\n    /* \"#utility.yul\":468:483   */\n  mstore\n    /* \"#utility.yul\":502:506   */\n  0x24\n    /* \"#utility.yul\":499:500   */\n  0x00\n    /* \"#utility.yul\":492:507   */\n  revert\n    /* \"#utility.yul\":519:699   */\ntag_24:\n    /* \"#utility.yul\":567:644   */\n  0x4e487b7100000000000000000000000000000000000000000000000000000000\n    /* \"#utility.yul\":564:565   */\n  0x00\n    /* \"#utility.yul\":557:645   */\n  mstore\n    /* \"#utility.yul\":664:668   */\n  0x22\n    /* \"#utility.yul\":661:662   */\n  0x04\n    /* \"#utility.yul\":654:669   */\n  mstore\n    /* \"#utility.yul\":688:692   */\n  0x24\n    /* \"#utility.yul\":685:686   */\n  0x00\n    /* \"#utility.yul\":678:693   */\n  revert\n    /* \"Task01(struct-map).sol\":341:1009  contract demo  \r... */\ntag_7:\n  dataSize(sub_0)\n  dup1\n  dataOffset(sub_0)\n  0x00\n  codecopy\n  0x00\n  return\nstop\n\nsub_0: assembly {\n        /* \"Task01(struct-map).sol\":341:1009  contract demo  \r... */\n      mstore(0x40, 0x80)\n      callvalue\n      dup1\n      iszero\n      tag_1\n      jumpi\n      0x00\n      dup1\n      revert\n    tag_1:\n      pop\n      jumpi(tag_2, lt(calldatasize, 0x04))\n      shr(0xe0, calldataload(0x00))\n      dup1\n      0x1aa35610\n      eq\n      tag_3\n      jumpi\n      dup1\n      0x6328feea\n      eq\n      tag_4\n      jumpi\n      dup1\n      0x84a739cf\n      eq\n      tag_5\n      jumpi\n      dup1\n      0x8a3d49c6\n      eq\n      tag_6\n      jumpi\n      dup1\n      0xc84d106d\n      eq\n      tag_7\n      jumpi\n      dup1\n      0xf0ba8440\n      eq\n      tag_8\n      jumpi\n    tag_2:\n      0x00\n      dup1\n      revert\n        /* \"Task01(struct-map).sol\":369:406  class public u1 = class.economy_class */\n    tag_3:\n      tag_9\n      tag_10\n      jump\t// in\n    tag_9:\n      mload(0x40)\n      tag_11\n      swap2\n      swap1\n      tag_12\n      jump\t// in\n    tag_11:\n      mload(0x40)\n      dup1\n      swap2\n      sub\n      swap1\n      return\n        /* \"Task01(struct-map).sol\":833:1006  function setter(uint _passportId, string memory _name, string memory _destination) public\r... */\n    tag_4:\n      tag_13\n      0x04\n      dup1\n      calldatasize\n      sub\n      dup2\n      add\n      swap1\n      tag_14\n      swap2\n      swap1\n      tag_15\n      jump\t// in\n    tag_14:\n      tag_16\n      jump\t// in\n    tag_13:\n      stop\n        /* \"Task01(struct-map).sol\":696:788  function changeClassToBusiness() public\r... */\n    tag_5:\n      tag_17\n      tag_18\n      jump\t// in\n    tag_17:\n      stop\n        /* \"Task01(struct-map).sol\":505:594  function changeClassToEcomomic() public\r... */\n    tag_6:\n      tag_19\n      tag_20\n      jump\t// in\n    tag_19:\n      stop\n        /* \"Task01(struct-map).sol\":602:688  function changeClassToFirst() public\r... */\n    tag_7:\n      tag_21\n      tag_22\n      jump\t// in\n    tag_21:\n      stop\n        /* \"Task01(struct-map).sol\":458:496  mapping( uint => Student ) public data */\n    tag_8:\n      tag_23\n      0x04\n      dup1\n      calldatasize\n      sub\n      dup2\n      add\n      swap1\n      tag_24\n      swap2\n      swap1\n      tag_25\n      jump\t// in\n    tag_24:\n      tag_26\n      jump\t// in\n    tag_23:\n      mload(0x40)\n      tag_27\n      swap4\n      swap3\n      swap2\n      swap1\n      tag_28\n      jump\t// in\n    tag_27:\n      mload(0x40)\n      dup1\n      swap2\n      sub\n      swap1\n      return\n        /* \"Task01(struct-map).sol\":369:406  class public u1 = class.economy_class */\n    tag_10:\n      0x00\n      dup1\n      sload\n      swap1\n      0x0100\n      exp\n      swap1\n      div\n      0xff\n      and\n      dup2\n      jump\t// out\n        /* \"Task01(struct-map).sol\":833:1006  function setter(uint _passportId, string memory _name, string memory _destination) public\r... */\n    tag_16:\n        /* \"Task01(struct-map).sol\":959:998  Student(_name, _destination, classType) */\n      mload(0x40)\n      dup1\n      0x60\n      add\n      0x40\n      mstore\n      dup1\n        /* \"Task01(struct-map).sol\":967:972  _name */\n      dup4\n        /* \"Task01(struct-map).sol\":959:998  Student(_name, _destination, classType) */\n      dup2\n      mstore\n      0x20\n      add\n        /* \"Task01(struct-map).sol\":974:986  _destination */\n      dup3\n        /* \"Task01(struct-map).sol\":959:998  Student(_name, _destination, classType) */\n      dup2\n      mstore\n      0x20\n      add\n        /* \"Task01(struct-map).sol\":988:997  classType */\n      0x01\n        /* \"Task01(struct-map).sol\":959:998  Student(_name, _destination, classType) */\n      dup1\n      sload\n      tag_30\n      swap1\n      tag_31\n      jump\t// in\n    tag_30:\n      dup1\n      0x1f\n      add\n      0x20\n      dup1\n      swap2\n      div\n      mul\n      0x20\n      add\n      mload(0x40)\n      swap1\n      dup2\n      add\n      0x40\n      mstore\n      dup1\n      swap3\n      swap2\n      swap1\n      dup2\n      dup2\n      mstore\n      0x20\n      add\n      dup3\n      dup1\n      sload\n      tag_32\n      swap1\n      tag_31\n      jump\t// in\n    tag_32:\n      dup1\n      iszero\n      tag_33\n      jumpi\n      dup1\n      0x1f\n      lt\n      tag_34\n      jumpi\n      0x0100\n      dup1\n      dup4\n      sload\n      div\n      mul\n      dup4\n      mstore\n      swap2\n      0x20\n      add\n      swap2\n      jump(tag_33)\n    tag_34:\n      dup3\n      add\n      swap2\n      swap1\n      0x00\n      mstore\n      keccak256(0x00, 0x20)\n      swap1\n    tag_35:\n      dup2\n      sload\n      dup2\n      mstore\n      swap1\n      0x01\n      add\n      swap1\n      0x20\n      add\n      dup1\n      dup4\n      gt\n      tag_35\n      jumpi\n      dup3\n      swap1\n      sub\n      0x1f\n      and\n      dup3\n      add\n      swap2\n    tag_33:\n      pop\n      pop\n      pop\n      pop\n      pop\n      dup2\n      mstore\n      pop\n        /* \"Task01(struct-map).sol\":939:943  data */\n      0x02\n        /* \"Task01(struct-map).sol\":939:956  data[_passportId] */\n      0x00\n        /* \"Task01(struct-map).sol\":944:955  _passportId */\n      dup6\n        /* \"Task01(struct-map).sol\":939:956  data[_passportId] */\n      dup2\n      mstore\n      0x20\n      add\n      swap1\n      dup2\n      mstore\n      0x20\n      add\n      0x00\n      keccak256\n        /* \"Task01(struct-map).sol\":939:998  data[_passportId] = Student(_name, _destination, classType) */\n      0x00\n      dup3\n      add\n      mload\n      dup2\n      0x00\n      add\n      swap1\n      dup1\n      mload\n      swap1\n      0x20\n      add\n      swap1\n      tag_36\n      swap3\n      swap2\n      swap1\n      tag_37\n      jump\t// in\n    tag_36:\n      pop\n      0x20\n      dup3\n      add\n      mload\n      dup2\n      0x01\n      add\n      swap1\n      dup1\n      mload\n      swap1\n      0x20\n      add\n      swap1\n      tag_38\n      swap3\n      swap2\n      swap1\n      tag_37\n      jump\t// in\n    tag_38:\n      pop\n      0x40\n      dup3\n      add\n      mload\n      dup2\n      0x02\n      add\n      swap1\n      dup1\n      mload\n      swap1\n      0x20\n      add\n      swap1\n      tag_39\n      swap3\n      swap2\n      swap1\n      tag_37\n      jump\t// in\n    tag_39:\n      pop\n      swap1\n      pop\n      pop\n        /* \"Task01(struct-map).sol\":833:1006  function setter(uint _passportId, string memory _name, string memory _destination) public\r... */\n      pop\n      pop\n      pop\n      jump\t// out\n        /* \"Task01(struct-map).sol\":696:788  function changeClassToBusiness() public\r... */\n    tag_18:\n        /* \"Task01(struct-map).sol\":752:780  classType = \"Business Class\" */\n      mload(0x40)\n      dup1\n      0x40\n      add\n      0x40\n      mstore\n      dup1\n      0x0e\n      dup2\n      mstore\n      0x20\n      add\n      0x427573696e65737320436c617373000000000000000000000000000000000000\n      dup2\n      mstore\n      pop\n        /* \"Task01(struct-map).sol\":752:761  classType */\n      0x01\n        /* \"Task01(struct-map).sol\":752:780  classType = \"Business Class\" */\n      swap1\n      dup1\n      mload\n      swap1\n      0x20\n      add\n      swap1\n      tag_41\n      swap3\n      swap2\n      swap1\n      tag_37\n      jump\t// in\n    tag_41:\n      pop\n        /* \"Task01(struct-map).sol\":696:788  function changeClassToBusiness() public\r... */\n      jump\t// out\n        /* \"Task01(struct-map).sol\":505:594  function changeClassToEcomomic() public\r... */\n    tag_20:\n        /* \"Task01(struct-map).sol\":561:586  classType = \"First Class\" */\n      mload(0x40)\n      dup1\n      0x40\n      add\n      0x40\n      mstore\n      dup1\n      0x0b\n      dup2\n      mstore\n      0x20\n      add\n      0x466972737420436c617373000000000000000000000000000000000000000000\n      dup2\n      mstore\n      pop\n        /* \"Task01(struct-map).sol\":561:570  classType */\n      0x01\n        /* \"Task01(struct-map).sol\":561:586  classType = \"First Class\" */\n      swap1\n      dup1\n      mload\n      swap1\n      0x20\n      add\n      swap1\n      tag_43\n      swap3\n      swap2\n      swap1\n      tag_37\n      jump\t// in\n    tag_43:\n      pop\n        /* \"Task01(struct-map).sol\":505:594  function changeClassToEcomomic() public\r... */\n      jump\t// out\n        /* \"Task01(struct-map).sol\":602:688  function changeClassToFirst() public\r... */\n    tag_22:\n        /* \"Task01(struct-map).sol\":655:680  classType = \"First Class\" */\n      mload(0x40)\n      dup1\n      0x40\n      add\n      0x40\n      mstore\n      dup1\n      0x0b\n      dup2\n      mstore\n      0x20\n      add\n      0x466972737420436c617373000000000000000000000000000000000000000000\n      dup2\n      mstore\n      pop\n        /* \"Task01(struct-map).sol\":655:664  classType */\n      0x01\n        /* \"Task01(struct-map).sol\":655:680  classType = \"First Class\" */\n      swap1\n      dup1\n      mload\n      swap1\n      0x20\n      add\n      swap1\n      tag_45\n      swap3\n      swap2\n      swap1\n      tag_37\n      jump\t// in\n    tag_45:\n      pop\n        /* \"Task01(struct-map).sol\":602:688  function changeClassToFirst() public\r... */\n      jump\t// out\n        /* \"Task01(struct-map).sol\":458:496  mapping( uint => Student ) public data */\n    tag_26:\n      mstore(0x20, 0x02)\n      dup1\n      0x00\n      mstore\n      keccak256(0x00, 0x40)\n      0x00\n      swap2\n      pop\n      swap1\n      pop\n      dup1\n      0x00\n      add\n      dup1\n      sload\n      tag_46\n      swap1\n      tag_31\n      jump\t// in\n    tag_46:\n      dup1\n      0x1f\n      add\n      0x20\n      dup1\n      swap2\n      div\n      mul\n      0x20\n      add\n      mload(0x40)\n      swap1\n      dup2\n      add\n      0x40\n      mstore\n      dup1\n      swap3\n      swap2\n      swap1\n      dup2\n      dup2\n      mstore\n      0x20\n      add\n      dup3\n      dup1\n      sload\n      tag_47\n      swap1\n      tag_31\n      jump\t// in\n    tag_47:\n      dup1\n      iszero\n      tag_48\n      jumpi\n      dup1\n      0x1f\n      lt\n      tag_49\n      jumpi\n      0x0100\n      dup1\n      dup4\n      sload\n      div\n      mul\n      dup4\n      mstore\n      swap2\n      0x20\n      add\n      swap2\n      jump(tag_48)\n    tag_49:\n      dup3\n      add\n      swap2\n      swap1\n      0x00\n      mstore\n      keccak256(0x00, 0x20)\n      swap1\n    tag_50:\n      dup2\n      sload\n      dup2\n      mstore\n      swap1\n      0x01\n      add\n      swap1\n      0x20\n      add\n      dup1\n      dup4\n      gt\n      tag_50\n      jumpi\n      dup3\n      swap1\n      sub\n      0x1f\n      and\n      dup3\n      add\n      swap2\n    tag_48:\n      pop\n      pop\n      pop\n      pop\n      pop\n      swap1\n      dup1\n      0x01\n      add\n      dup1\n      sload\n      tag_51\n      swap1\n      tag_31\n      jump\t// in\n    tag_51:\n      dup1\n      0x1f\n      add\n      0x20\n      dup1\n      swap2\n      div\n      mul\n      0x20\n      add\n      mload(0x40)\n      swap1\n      dup2\n      add\n      0x40\n      mstore\n      dup1\n      swap3\n      swap2\n      swap1\n      dup2\n      dup2\n      mstore\n      0x20\n      add\n      dup3\n      dup1\n      sload\n      tag_52\n      swap1\n      tag_31\n      jump\t// in\n    tag_52:\n      dup1\n      iszero\n      tag_53\n      jumpi\n      dup1\n      0x1f\n      lt\n      tag_54\n      jumpi\n      0x0100\n      dup1\n      dup4\n      sload\n      div\n      mul\n      dup4\n      mstore\n      swap2\n      0x20\n      add\n      swap2\n      jump(tag_53)\n    tag_54:\n      dup3\n      add\n      swap2\n      swap1\n      0x00\n      mstore\n      keccak256(0x00, 0x20)\n      swap1\n    tag_55:\n      dup2\n      sload\n      dup2\n      mstore\n      swap1\n      0x01\n      add\n      swap1\n      0x20\n      add\n      dup1\n      dup4\n      gt\n      tag_55\n      jumpi\n      dup3\n      swap1\n      sub\n      0x1f\n      and\n      dup3\n      add\n      swap2\n    tag_53:\n      pop\n      pop\n      pop\n      pop\n      pop\n      swap1\n      dup1\n      0x02\n      add\n      dup1\n      sload\n      tag_56\n      swap1\n      tag_31\n      jump\t// in\n    tag_56:\n      dup1\n      0x1f\n      add\n      0x20\n      dup1\n      swap2\n      div\n      mul\n      0x20\n      add\n      mload(0x40)\n      swap1\n      dup2\n      add\n      0x40\n      mstore\n      dup1\n      swap3\n      swap2\n      swap1\n      dup2\n      dup2\n      mstore\n      0x20\n      add\n      dup3\n      dup1\n      sload\n      tag_57\n      swap1\n      tag_31\n      jump\t// in\n    tag_57:\n      dup1\n      iszero\n      tag_58\n      jumpi\n      dup1\n      0x1f\n      lt\n      tag_59\n      jumpi\n      0x0100\n      dup1\n      dup4\n      sload\n      div\n      mul\n      dup4\n      mstore\n      swap2\n      0x20\n      add\n      swap2\n      jump(tag_58)\n    tag_59:\n      dup3\n      add\n      swap2\n      swap1\n      0x00\n      mstore\n      keccak256(0x00, 0x20)\n      swap1\n    tag_60:\n      dup2\n      sload\n      dup2\n      mstore\n      swap1\n      0x01\n      add\n      swap1\n      0x20\n      add\n      dup1\n      dup4\n      gt\n      tag_60\n      jumpi\n      dup3\n      swap1\n      sub\n      0x1f\n      and\n      dup3\n      add\n      swap2\n    tag_58:\n      pop\n      pop\n      pop\n      pop\n      pop\n      swap1\n      pop\n      dup4\n      jump\t// out\n    tag_37:\n      dup3\n      dup1\n      sload\n      tag_61\n      swap1\n      tag_31\n      jump\t// in\n    tag_61:\n      swap1\n      0x00\n      mstore\n      keccak256(0x00, 0x20)\n      swap1\n      0x1f\n      add\n      0x20\n      swap1\n      div\n      dup2\n      add\n      swap3\n      dup3\n      tag_63\n      jumpi\n      0x00\n      dup6\n      sstore\n      jump(tag_62)\n    tag_63:\n      dup3\n      0x1f\n      lt\n      tag_64\n      jumpi\n      dup1\n      mload\n      not(0xff)\n      and\n      dup4\n      dup1\n      add\n      or\n      dup6\n      sstore\n      jump(tag_62)\n    tag_64:\n      dup3\n      dup1\n      add\n      0x01\n      add\n      dup6\n      sstore\n      dup3\n      iszero\n      tag_62\n      jumpi\n      swap2\n      dup3\n      add\n    tag_65:\n      dup3\n      dup2\n      gt\n      iszero\n      tag_66\n      jumpi\n      dup3\n      mload\n      dup3\n      sstore\n      swap2\n      0x20\n      add\n      swap2\n      swap1\n      0x01\n      add\n      swap1\n      jump(tag_65)\n    tag_66:\n    tag_62:\n      pop\n      swap1\n      pop\n      tag_67\n      swap2\n      swap1\n      tag_68\n      jump\t// in\n    tag_67:\n      pop\n      swap1\n      jump\t// out\n    tag_68:\n    tag_69:\n      dup1\n      dup3\n      gt\n      iszero\n      tag_70\n      jumpi\n      0x00\n      dup2\n      0x00\n      swap1\n      sstore\n      pop\n      0x01\n      add\n      jump(tag_69)\n    tag_70:\n      pop\n      swap1\n      jump\t// out\n        /* \"#utility.yul\":7:419   */\n    tag_72:\n        /* \"#utility.yul\":85:90   */\n      0x00\n        /* \"#utility.yul\":110:176   */\n      tag_74\n        /* \"#utility.yul\":126:175   */\n      tag_75\n        /* \"#utility.yul\":168:174   */\n      dup5\n        /* \"#utility.yul\":126:175   */\n      tag_76\n      jump\t// in\n    tag_75:\n        /* \"#utility.yul\":110:176   */\n      tag_77\n      jump\t// in\n    tag_74:\n        /* \"#utility.yul\":101:176   */\n      swap1\n      pop\n        /* \"#utility.yul\":199:205   */\n      dup3\n        /* \"#utility.yul\":192:197   */\n      dup2\n        /* \"#utility.yul\":185:206   */\n      mstore\n        /* \"#utility.yul\":237:241   */\n      0x20\n        /* \"#utility.yul\":230:235   */\n      dup2\n        /* \"#utility.yul\":226:242   */\n      add\n        /* \"#utility.yul\":275:278   */\n      dup5\n        /* \"#utility.yul\":266:272   */\n      dup5\n        /* \"#utility.yul\":261:264   */\n      dup5\n        /* \"#utility.yul\":257:273   */\n      add\n        /* \"#utility.yul\":254:279   */\n      gt\n        /* \"#utility.yul\":251:363   */\n      iszero\n      tag_78\n      jumpi\n        /* \"#utility.yul\":282:361   */\n      tag_79\n      tag_80\n      jump\t// in\n    tag_79:\n        /* \"#utility.yul\":251:363   */\n    tag_78:\n        /* \"#utility.yul\":372:413   */\n      tag_81\n        /* \"#utility.yul\":406:412   */\n      dup5\n        /* \"#utility.yul\":401:404   */\n      dup3\n        /* \"#utility.yul\":396:399   */\n      dup6\n        /* \"#utility.yul\":372:413   */\n      tag_82\n      jump\t// in\n    tag_81:\n        /* \"#utility.yul\":91:419   */\n      pop\n        /* \"#utility.yul\":7:419   */\n      swap4\n      swap3\n      pop\n      pop\n      pop\n      jump\t// out\n        /* \"#utility.yul\":439:779   */\n    tag_83:\n        /* \"#utility.yul\":495:500   */\n      0x00\n        /* \"#utility.yul\":544:547   */\n      dup3\n        /* \"#utility.yul\":537:541   */\n      0x1f\n        /* \"#utility.yul\":529:535   */\n      dup4\n        /* \"#utility.yul\":525:542   */\n      add\n        /* \"#utility.yul\":521:548   */\n      slt\n        /* \"#utility.yul\":511:633   */\n      tag_85\n      jumpi\n        /* \"#utility.yul\":552:631   */\n      tag_86\n      tag_87\n      jump\t// in\n    tag_86:\n        /* \"#utility.yul\":511:633   */\n    tag_85:\n        /* \"#utility.yul\":669:675   */\n      dup2\n        /* \"#utility.yul\":656:676   */\n      calldataload\n        /* \"#utility.yul\":694:773   */\n      tag_88\n        /* \"#utility.yul\":769:772   */\n      dup5\n        /* \"#utility.yul\":761:767   */\n      dup3\n        /* \"#utility.yul\":754:758   */\n      0x20\n        /* \"#utility.yul\":746:752   */\n      dup7\n        /* \"#utility.yul\":742:759   */\n      add\n        /* \"#utility.yul\":694:773   */\n      tag_72\n      jump\t// in\n    tag_88:\n        /* \"#utility.yul\":685:773   */\n      swap2\n      pop\n        /* \"#utility.yul\":501:779   */\n      pop\n        /* \"#utility.yul\":439:779   */\n      swap3\n      swap2\n      pop\n      pop\n      jump\t// out\n        /* \"#utility.yul\":785:924   */\n    tag_89:\n        /* \"#utility.yul\":831:836   */\n      0x00\n        /* \"#utility.yul\":869:875   */\n      dup2\n        /* \"#utility.yul\":856:876   */\n      calldataload\n        /* \"#utility.yul\":847:876   */\n      swap1\n      pop\n        /* \"#utility.yul\":885:918   */\n      tag_91\n        /* \"#utility.yul\":912:917   */\n      dup2\n        /* \"#utility.yul\":885:918   */\n      tag_92\n      jump\t// in\n    tag_91:\n        /* \"#utility.yul\":785:924   */\n      swap3\n      swap2\n      pop\n      pop\n      jump\t// out\n        /* \"#utility.yul\":930:1259   */\n    tag_25:\n        /* \"#utility.yul\":989:995   */\n      0x00\n        /* \"#utility.yul\":1038:1040   */\n      0x20\n        /* \"#utility.yul\":1026:1035   */\n      dup3\n        /* \"#utility.yul\":1017:1024   */\n      dup5\n        /* \"#utility.yul\":1013:1036   */\n      sub\n        /* \"#utility.yul\":1009:1041   */\n      slt\n        /* \"#utility.yul\":1006:1125   */\n      iszero\n      tag_94\n      jumpi\n        /* \"#utility.yul\":1044:1123   */\n      tag_95\n      tag_96\n      jump\t// in\n    tag_95:\n        /* \"#utility.yul\":1006:1125   */\n    tag_94:\n        /* \"#utility.yul\":1164:1165   */\n      0x00\n        /* \"#utility.yul\":1189:1242   */\n      tag_97\n        /* \"#utility.yul\":1234:1241   */\n      dup5\n        /* \"#utility.yul\":1225:1231   */\n      dup3\n        /* \"#utility.yul\":1214:1223   */\n      dup6\n        /* \"#utility.yul\":1210:1232   */\n      add\n        /* \"#utility.yul\":1189:1242   */\n      tag_89\n      jump\t// in\n    tag_97:\n        /* \"#utility.yul\":1179:1242   */\n      swap2\n      pop\n        /* \"#utility.yul\":1135:1252   */\n      pop\n        /* \"#utility.yul\":930:1259   */\n      swap3\n      swap2\n      pop\n      pop\n      jump\t// out\n        /* \"#utility.yul\":1265:2244   */\n    tag_15:\n        /* \"#utility.yul\":1362:1368   */\n      0x00\n        /* \"#utility.yul\":1370:1376   */\n      dup1\n        /* \"#utility.yul\":1378:1384   */\n      0x00\n        /* \"#utility.yul\":1427:1429   */\n      0x60\n        /* \"#utility.yul\":1415:1424   */\n      dup5\n        /* \"#utility.yul\":1406:1413   */\n      dup7\n        /* \"#utility.yul\":1402:1425   */\n      sub\n        /* \"#utility.yul\":1398:1430   */\n      slt\n        /* \"#utility.yul\":1395:1514   */\n      iszero\n      tag_99\n      jumpi\n        /* \"#utility.yul\":1433:1512   */\n      tag_100\n      tag_96\n      jump\t// in\n    tag_100:\n        /* \"#utility.yul\":1395:1514   */\n    tag_99:\n        /* \"#utility.yul\":1553:1554   */\n      0x00\n        /* \"#utility.yul\":1578:1631   */\n      tag_101\n        /* \"#utility.yul\":1623:1630   */\n      dup7\n        /* \"#utility.yul\":1614:1620   */\n      dup3\n        /* \"#utility.yul\":1603:1612   */\n      dup8\n        /* \"#utility.yul\":1599:1621   */\n      add\n        /* \"#utility.yul\":1578:1631   */\n      tag_89\n      jump\t// in\n    tag_101:\n        /* \"#utility.yul\":1568:1631   */\n      swap4\n      pop\n        /* \"#utility.yul\":1524:1641   */\n      pop\n        /* \"#utility.yul\":1708:1710   */\n      0x20\n        /* \"#utility.yul\":1697:1706   */\n      dup5\n        /* \"#utility.yul\":1693:1711   */\n      add\n        /* \"#utility.yul\":1680:1712   */\n      calldataload\n        /* \"#utility.yul\":1739:1757   */\n      0xffffffffffffffff\n        /* \"#utility.yul\":1731:1737   */\n      dup2\n        /* \"#utility.yul\":1728:1758   */\n      gt\n        /* \"#utility.yul\":1725:1842   */\n      iszero\n      tag_102\n      jumpi\n        /* \"#utility.yul\":1761:1840   */\n      tag_103\n      tag_104\n      jump\t// in\n    tag_103:\n        /* \"#utility.yul\":1725:1842   */\n    tag_102:\n        /* \"#utility.yul\":1866:1929   */\n      tag_105\n        /* \"#utility.yul\":1921:1928   */\n      dup7\n        /* \"#utility.yul\":1912:1918   */\n      dup3\n        /* \"#utility.yul\":1901:1910   */\n      dup8\n        /* \"#utility.yul\":1897:1919   */\n      add\n        /* \"#utility.yul\":1866:1929   */\n      tag_83\n      jump\t// in\n    tag_105:\n        /* \"#utility.yul\":1856:1929   */\n      swap3\n      pop\n        /* \"#utility.yul\":1651:1939   */\n      pop\n        /* \"#utility.yul\":2006:2008   */\n      0x40\n        /* \"#utility.yul\":1995:2004   */\n      dup5\n        /* \"#utility.yul\":1991:2009   */\n      add\n        /* \"#utility.yul\":1978:2010   */\n      calldataload\n        /* \"#utility.yul\":2037:2055   */\n      0xffffffffffffffff\n        /* \"#utility.yul\":2029:2035   */\n      dup2\n        /* \"#utility.yul\":2026:2056   */\n      gt\n        /* \"#utility.yul\":2023:2140   */\n      iszero\n      tag_106\n      jumpi\n        /* \"#utility.yul\":2059:2138   */\n      tag_107\n      tag_104\n      jump\t// in\n    tag_107:\n        /* \"#utility.yul\":2023:2140   */\n    tag_106:\n        /* \"#utility.yul\":2164:2227   */\n      tag_108\n        /* \"#utility.yul\":2219:2226   */\n      dup7\n        /* \"#utility.yul\":2210:2216   */\n      dup3\n        /* \"#utility.yul\":2199:2208   */\n      dup8\n        /* \"#utility.yul\":2195:2217   */\n      add\n        /* \"#utility.yul\":2164:2227   */\n      tag_83\n      jump\t// in\n    tag_108:\n        /* \"#utility.yul\":2154:2227   */\n      swap2\n      pop\n        /* \"#utility.yul\":1949:2237   */\n      pop\n        /* \"#utility.yul\":1265:2244   */\n      swap3\n      pop\n      swap3\n      pop\n      swap3\n      jump\t// out\n        /* \"#utility.yul\":2250:2395   */\n    tag_109:\n        /* \"#utility.yul\":2344:2388   */\n      tag_111\n        /* \"#utility.yul\":2382:2387   */\n      dup2\n        /* \"#utility.yul\":2344:2388   */\n      tag_112\n      jump\t// in\n    tag_111:\n        /* \"#utility.yul\":2339:2342   */\n      dup3\n        /* \"#utility.yul\":2332:2389   */\n      mstore\n        /* \"#utility.yul\":2250:2395   */\n      pop\n      pop\n      jump\t// out\n        /* \"#utility.yul\":2401:2765   */\n    tag_113:\n        /* \"#utility.yul\":2489:2492   */\n      0x00\n        /* \"#utility.yul\":2517:2556   */\n      tag_115\n        /* \"#utility.yul\":2550:2555   */\n      dup3\n        /* \"#utility.yul\":2517:2556   */\n      tag_116\n      jump\t// in\n    tag_115:\n        /* \"#utility.yul\":2572:2643   */\n      tag_117\n        /* \"#utility.yul\":2636:2642   */\n      dup2\n        /* \"#utility.yul\":2631:2634   */\n      dup6\n        /* \"#utility.yul\":2572:2643   */\n      tag_118\n      jump\t// in\n    tag_117:\n        /* \"#utility.yul\":2565:2643   */\n      swap4\n      pop\n        /* \"#utility.yul\":2652:2704   */\n      tag_119\n        /* \"#utility.yul\":2697:2703   */\n      dup2\n        /* \"#utility.yul\":2692:2695   */\n      dup6\n        /* \"#utility.yul\":2685:2689   */\n      0x20\n        /* \"#utility.yul\":2678:2683   */\n      dup7\n        /* \"#utility.yul\":2674:2690   */\n      add\n        /* \"#utility.yul\":2652:2704   */\n      tag_120\n      jump\t// in\n    tag_119:\n        /* \"#utility.yul\":2729:2758   */\n      tag_121\n        /* \"#utility.yul\":2751:2757   */\n      dup2\n        /* \"#utility.yul\":2729:2758   */\n      tag_122\n      jump\t// in\n    tag_121:\n        /* \"#utility.yul\":2724:2727   */\n      dup5\n        /* \"#utility.yul\":2720:2759   */\n      add\n        /* \"#utility.yul\":2713:2759   */\n      swap2\n      pop\n        /* \"#utility.yul\":2493:2765   */\n      pop\n        /* \"#utility.yul\":2401:2765   */\n      swap3\n      swap2\n      pop\n      pop\n      jump\t// out\n        /* \"#utility.yul\":2771:3007   */\n    tag_12:\n        /* \"#utility.yul\":2871:2875   */\n      0x00\n        /* \"#utility.yul\":2909:2911   */\n      0x20\n        /* \"#utility.yul\":2898:2907   */\n      dup3\n        /* \"#utility.yul\":2894:2912   */\n      add\n        /* \"#utility.yul\":2886:2912   */\n      swap1\n      pop\n        /* \"#utility.yul\":2922:3000   */\n      tag_124\n        /* \"#utility.yul\":2997:2998   */\n      0x00\n        /* \"#utility.yul\":2986:2995   */\n      dup4\n        /* \"#utility.yul\":2982:2999   */\n      add\n        /* \"#utility.yul\":2973:2979   */\n      dup5\n        /* \"#utility.yul\":2922:3000   */\n      tag_109\n      jump\t// in\n    tag_124:\n        /* \"#utility.yul\":2771:3007   */\n      swap3\n      swap2\n      pop\n      pop\n      jump\t// out\n        /* \"#utility.yul\":3013:3728   */\n    tag_28:\n        /* \"#utility.yul\":3222:3226   */\n      0x00\n        /* \"#utility.yul\":3260:3262   */\n      0x60\n        /* \"#utility.yul\":3249:3258   */\n      dup3\n        /* \"#utility.yul\":3245:3263   */\n      add\n        /* \"#utility.yul\":3237:3263   */\n      swap1\n      pop\n        /* \"#utility.yul\":3309:3318   */\n      dup2\n        /* \"#utility.yul\":3303:3307   */\n      dup2\n        /* \"#utility.yul\":3299:3319   */\n      sub\n        /* \"#utility.yul\":3295:3296   */\n      0x00\n        /* \"#utility.yul\":3284:3293   */\n      dup4\n        /* \"#utility.yul\":3280:3297   */\n      add\n        /* \"#utility.yul\":3273:3320   */\n      mstore\n        /* \"#utility.yul\":3337:3415   */\n      tag_126\n        /* \"#utility.yul\":3410:3414   */\n      dup2\n        /* \"#utility.yul\":3401:3407   */\n      dup7\n        /* \"#utility.yul\":3337:3415   */\n      tag_113\n      jump\t// in\n    tag_126:\n        /* \"#utility.yul\":3329:3415   */\n      swap1\n      pop\n        /* \"#utility.yul\":3462:3471   */\n      dup2\n        /* \"#utility.yul\":3456:3460   */\n      dup2\n        /* \"#utility.yul\":3452:3472   */\n      sub\n        /* \"#utility.yul\":3447:3449   */\n      0x20\n        /* \"#utility.yul\":3436:3445   */\n      dup4\n        /* \"#utility.yul\":3432:3450   */\n      add\n        /* \"#utility.yul\":3425:3473   */\n      mstore\n        /* \"#utility.yul\":3490:3568   */\n      tag_127\n        /* \"#utility.yul\":3563:3567   */\n      dup2\n        /* \"#utility.yul\":3554:3560   */\n      dup6\n        /* \"#utility.yul\":3490:3568   */\n      tag_113\n      jump\t// in\n    tag_127:\n        /* \"#utility.yul\":3482:3568   */\n      swap1\n      pop\n        /* \"#utility.yul\":3615:3624   */\n      dup2\n        /* \"#utility.yul\":3609:3613   */\n      dup2\n        /* \"#utility.yul\":3605:3625   */\n      sub\n        /* \"#utility.yul\":3600:3602   */\n      0x40\n        /* \"#utility.yul\":3589:3598   */\n      dup4\n        /* \"#utility.yul\":3585:3603   */\n      add\n        /* \"#utility.yul\":3578:3626   */\n      mstore\n        /* \"#utility.yul\":3643:3721   */\n      tag_128\n        /* \"#utility.yul\":3716:3720   */\n      dup2\n        /* \"#utility.yul\":3707:3713   */\n      dup5\n        /* \"#utility.yul\":3643:3721   */\n      tag_113\n      jump\t// in\n    tag_128:\n        /* \"#utility.yul\":3635:3721   */\n      swap1\n      pop\n        /* \"#utility.yul\":3013:3728   */\n      swap5\n      swap4\n      pop\n      pop\n      pop\n      pop\n      jump\t// out\n        /* \"#utility.yul\":3734:3863   */\n    tag_77:\n        /* \"#utility.yul\":3768:3774   */\n      0x00\n        /* \"#utility.yul\":3795:3815   */\n      tag_130\n      tag_131\n      jump\t// in\n    tag_130:\n        /* \"#utility.yul\":3785:3815   */\n      swap1\n      pop\n        /* \"#utility.yul\":3824:3857   */\n      tag_132\n        /* \"#utility.yul\":3852:3856   */\n      dup3\n        /* \"#utility.yul\":3844:3850   */\n      dup3\n        /* \"#utility.yul\":3824:3857   */\n      tag_133\n      jump\t// in\n    tag_132:\n        /* \"#utility.yul\":3734:3863   */\n      swap2\n      swap1\n      pop\n      jump\t// out\n        /* \"#utility.yul\":3869:3944   */\n    tag_131:\n        /* \"#utility.yul\":3902:3908   */\n      0x00\n        /* \"#utility.yul\":3935:3937   */\n      0x40\n        /* \"#utility.yul\":3929:3938   */\n      mload\n        /* \"#utility.yul\":3919:3938   */\n      swap1\n      pop\n        /* \"#utility.yul\":3869:3944   */\n      swap1\n      jump\t// out\n        /* \"#utility.yul\":3950:4258   */\n    tag_76:\n        /* \"#utility.yul\":4012:4016   */\n      0x00\n        /* \"#utility.yul\":4102:4120   */\n      0xffffffffffffffff\n        /* \"#utility.yul\":4094:4100   */\n      dup3\n        /* \"#utility.yul\":4091:4121   */\n      gt\n        /* \"#utility.yul\":4088:4144   */\n      iszero\n      tag_136\n      jumpi\n        /* \"#utility.yul\":4124:4142   */\n      tag_137\n      tag_138\n      jump\t// in\n    tag_137:\n        /* \"#utility.yul\":4088:4144   */\n    tag_136:\n        /* \"#utility.yul\":4162:4191   */\n      tag_139\n        /* \"#utility.yul\":4184:4190   */\n      dup3\n        /* \"#utility.yul\":4162:4191   */\n      tag_122\n      jump\t// in\n    tag_139:\n        /* \"#utility.yul\":4154:4191   */\n      swap1\n      pop\n        /* \"#utility.yul\":4246:4250   */\n      0x20\n        /* \"#utility.yul\":4240:4244   */\n      dup2\n        /* \"#utility.yul\":4236:4251   */\n      add\n        /* \"#utility.yul\":4228:4251   */\n      swap1\n      pop\n        /* \"#utility.yul\":3950:4258   */\n      swap2\n      swap1\n      pop\n      jump\t// out\n        /* \"#utility.yul\":4264:4363   */\n    tag_116:\n        /* \"#utility.yul\":4316:4322   */\n      0x00\n        /* \"#utility.yul\":4350:4355   */\n      dup2\n        /* \"#utility.yul\":4344:4356   */\n      mload\n        /* \"#utility.yul\":4334:4356   */\n      swap1\n      pop\n        /* \"#utility.yul\":4264:4363   */\n      swap2\n      swap1\n      pop\n      jump\t// out\n        /* \"#utility.yul\":4369:4538   */\n    tag_118:\n        /* \"#utility.yul\":4453:4464   */\n      0x00\n        /* \"#utility.yul\":4487:4493   */\n      dup3\n        /* \"#utility.yul\":4482:4485   */\n      dup3\n        /* \"#utility.yul\":4475:4494   */\n      mstore\n        /* \"#utility.yul\":4527:4531   */\n      0x20\n        /* \"#utility.yul\":4522:4525   */\n      dup3\n        /* \"#utility.yul\":4518:4532   */\n      add\n        /* \"#utility.yul\":4503:4532   */\n      swap1\n      pop\n        /* \"#utility.yul\":4369:4538   */\n      swap3\n      swap2\n      pop\n      pop\n      jump\t// out\n        /* \"#utility.yul\":4544:4673   */\n    tag_142:\n        /* \"#utility.yul\":4590:4597   */\n      0x00\n        /* \"#utility.yul\":4619:4624   */\n      dup2\n        /* \"#utility.yul\":4608:4624   */\n      swap1\n      pop\n        /* \"#utility.yul\":4625:4667   */\n      tag_144\n        /* \"#utility.yul\":4661:4666   */\n      dup3\n        /* \"#utility.yul\":4625:4667   */\n      tag_145\n      jump\t// in\n    tag_144:\n        /* \"#utility.yul\":4544:4673   */\n      swap2\n      swap1\n      pop\n      jump\t// out\n        /* \"#utility.yul\":4679:4756   */\n    tag_146:\n        /* \"#utility.yul\":4716:4723   */\n      0x00\n        /* \"#utility.yul\":4745:4750   */\n      dup2\n        /* \"#utility.yul\":4734:4750   */\n      swap1\n      pop\n        /* \"#utility.yul\":4679:4756   */\n      swap2\n      swap1\n      pop\n      jump\t// out\n        /* \"#utility.yul\":4762:4891   */\n    tag_112:\n        /* \"#utility.yul\":4819:4828   */\n      0x00\n        /* \"#utility.yul\":4852:4885   */\n      tag_149\n        /* \"#utility.yul\":4879:4884   */\n      dup3\n        /* \"#utility.yul\":4852:4885   */\n      tag_142\n      jump\t// in\n    tag_149:\n        /* \"#utility.yul\":4839:4885   */\n      swap1\n      pop\n        /* \"#utility.yul\":4762:4891   */\n      swap2\n      swap1\n      pop\n      jump\t// out\n        /* \"#utility.yul\":4897:5051   */\n    tag_82:\n        /* \"#utility.yul\":4981:4987   */\n      dup3\n        /* \"#utility.yul\":4976:4979   */\n      dup2\n        /* \"#utility.yul\":4971:4974   */\n      dup4\n        /* \"#utility.yul\":4958:4988   */\n      calldatacopy\n        /* \"#utility.yul\":5043:5044   */\n      0x00\n        /* \"#utility.yul\":5034:5040   */\n      dup4\n        /* \"#utility.yul\":5029:5032   */\n      dup4\n        /* \"#utility.yul\":5025:5041   */\n      add\n        /* \"#utility.yul\":5018:5045   */\n      mstore\n        /* \"#utility.yul\":4897:5051   */\n      pop\n      pop\n      pop\n      jump\t// out\n        /* \"#utility.yul\":5057:5364   */\n    tag_120:\n        /* \"#utility.yul\":5125:5126   */\n      0x00\n        /* \"#utility.yul\":5135:5248   */\n    tag_152:\n        /* \"#utility.yul\":5149:5155   */\n      dup4\n        /* \"#utility.yul\":5146:5147   */\n      dup2\n        /* \"#utility.yul\":5143:5156   */\n      lt\n        /* \"#utility.yul\":5135:5248   */\n      iszero\n      tag_154\n      jumpi\n        /* \"#utility.yul\":5234:5235   */\n      dup1\n        /* \"#utility.yul\":5229:5232   */\n      dup3\n        /* \"#utility.yul\":5225:5236   */\n      add\n        /* \"#utility.yul\":5219:5237   */\n      mload\n        /* \"#utility.yul\":5215:5216   */\n      dup2\n        /* \"#utility.yul\":5210:5213   */\n      dup5\n        /* \"#utility.yul\":5206:5217   */\n      add\n        /* \"#utility.yul\":5199:5238   */\n      mstore\n        /* \"#utility.yul\":5171:5173   */\n      0x20\n        /* \"#utility.yul\":5168:5169   */\n      dup2\n        /* \"#utility.yul\":5164:5174   */\n      add\n        /* \"#utility.yul\":5159:5174   */\n      swap1\n      pop\n        /* \"#utility.yul\":5135:5248   */\n      jump(tag_152)\n    tag_154:\n        /* \"#utility.yul\":5266:5272   */\n      dup4\n        /* \"#utility.yul\":5263:5264   */\n      dup2\n        /* \"#utility.yul\":5260:5273   */\n      gt\n        /* \"#utility.yul\":5257:5358   */\n      iszero\n      tag_155\n      jumpi\n        /* \"#utility.yul\":5346:5347   */\n      0x00\n        /* \"#utility.yul\":5337:5343   */\n      dup5\n        /* \"#utility.yul\":5332:5335   */\n      dup5\n        /* \"#utility.yul\":5328:5344   */\n      add\n        /* \"#utility.yul\":5321:5348   */\n      mstore\n        /* \"#utility.yul\":5257:5358   */\n    tag_155:\n        /* \"#utility.yul\":5106:5364   */\n      pop\n        /* \"#utility.yul\":5057:5364   */\n      pop\n      pop\n      pop\n      jump\t// out\n        /* \"#utility.yul\":5370:5690   */\n    tag_31:\n        /* \"#utility.yul\":5414:5420   */\n      0x00\n        /* \"#utility.yul\":5451:5452   */\n      0x02\n        /* \"#utility.yul\":5445:5449   */\n      dup3\n        /* \"#utility.yul\":5441:5453   */\n      div\n        /* \"#utility.yul\":5431:5453   */\n      swap1\n      pop\n        /* \"#utility.yul\":5498:5499   */\n      0x01\n        /* \"#utility.yul\":5492:5496   */\n      dup3\n        /* \"#utility.yul\":5488:5500   */\n      and\n        /* \"#utility.yul\":5519:5537   */\n      dup1\n        /* \"#utility.yul\":5509:5590   */\n      tag_157\n      jumpi\n        /* \"#utility.yul\":5575:5579   */\n      0x7f\n        /* \"#utility.yul\":5567:5573   */\n      dup3\n        /* \"#utility.yul\":5563:5580   */\n      and\n        /* \"#utility.yul\":5553:5580   */\n      swap2\n      pop\n        /* \"#utility.yul\":5509:5590   */\n    tag_157:\n        /* \"#utility.yul\":5637:5639   */\n      0x20\n        /* \"#utility.yul\":5629:5635   */\n      dup3\n        /* \"#utility.yul\":5626:5640   */\n      lt\n        /* \"#utility.yul\":5606:5624   */\n      dup2\n        /* \"#utility.yul\":5603:5641   */\n      eq\n        /* \"#utility.yul\":5600:5684   */\n      iszero\n      tag_158\n      jumpi\n        /* \"#utility.yul\":5656:5674   */\n      tag_159\n      tag_160\n      jump\t// in\n    tag_159:\n        /* \"#utility.yul\":5600:5684   */\n    tag_158:\n        /* \"#utility.yul\":5421:5690   */\n      pop\n        /* \"#utility.yul\":5370:5690   */\n      swap2\n      swap1\n      pop\n      jump\t// out\n        /* \"#utility.yul\":5696:5977   */\n    tag_133:\n        /* \"#utility.yul\":5779:5806   */\n      tag_162\n        /* \"#utility.yul\":5801:5805   */\n      dup3\n        /* \"#utility.yul\":5779:5806   */\n      tag_122\n      jump\t// in\n    tag_162:\n        /* \"#utility.yul\":5771:5777   */\n      dup2\n        /* \"#utility.yul\":5767:5807   */\n      add\n        /* \"#utility.yul\":5909:5915   */\n      dup2\n        /* \"#utility.yul\":5897:5907   */\n      dup2\n        /* \"#utility.yul\":5894:5916   */\n      lt\n        /* \"#utility.yul\":5873:5891   */\n      0xffffffffffffffff\n        /* \"#utility.yul\":5861:5871   */\n      dup3\n        /* \"#utility.yul\":5858:5892   */\n      gt\n        /* \"#utility.yul\":5855:5917   */\n      or\n        /* \"#utility.yul\":5852:5940   */\n      iszero\n      tag_163\n      jumpi\n        /* \"#utility.yul\":5920:5938   */\n      tag_164\n      tag_138\n      jump\t// in\n    tag_164:\n        /* \"#utility.yul\":5852:5940   */\n    tag_163:\n        /* \"#utility.yul\":5960:5970   */\n      dup1\n        /* \"#utility.yul\":5956:5958   */\n      0x40\n        /* \"#utility.yul\":5949:5971   */\n      mstore\n        /* \"#utility.yul\":5739:5977   */\n      pop\n        /* \"#utility.yul\":5696:5977   */\n      pop\n      pop\n      jump\t// out\n        /* \"#utility.yul\":5983:6163   */\n    tag_165:\n        /* \"#utility.yul\":6031:6108   */\n      0x4e487b7100000000000000000000000000000000000000000000000000000000\n        /* \"#utility.yul\":6028:6029   */\n      0x00\n        /* \"#utility.yul\":6021:6109   */\n      mstore\n        /* \"#utility.yul\":6128:6132   */\n      0x21\n        /* \"#utility.yul\":6125:6126   */\n      0x04\n        /* \"#utility.yul\":6118:6133   */\n      mstore\n        /* \"#utility.yul\":6152:6156   */\n      0x24\n        /* \"#utility.yul\":6149:6150   */\n      0x00\n        /* \"#utility.yul\":6142:6157   */\n      revert\n        /* \"#utility.yul\":6169:6349   */\n    tag_160:\n        /* \"#utility.yul\":6217:6294   */\n      0x4e487b7100000000000000000000000000000000000000000000000000000000\n        /* \"#utility.yul\":6214:6215   */\n      0x00\n        /* \"#utility.yul\":6207:6295   */\n      mstore\n        /* \"#utility.yul\":6314:6318   */\n      0x22\n        /* \"#utility.yul\":6311:6312   */\n      0x04\n        /* \"#utility.yul\":6304:6319   */\n      mstore\n        /* \"#utility.yul\":6338:6342   */\n      0x24\n        /* \"#utility.yul\":6335:6336   */\n      0x00\n        /* \"#utility.yul\":6328:6343   */\n      revert\n        /* \"#utility.yul\":6355:6535   */\n    tag_138:\n        /* \"#utility.yul\":6403:6480   */\n      0x4e487b7100000000000000000000000000000000000000000000000000000000\n        /* \"#utility.yul\":6400:6401   */\n      0x00\n        /* \"#utility.yul\":6393:6481   */\n      mstore\n        /* \"#utility.yul\":6500:6504   */\n      0x41\n        /* \"#utility.yul\":6497:6498   */\n      0x04\n        /* \"#utility.yul\":6490:6505   */\n      mstore\n        /* \"#utility.yul\":6524:6528   */\n      0x24\n        /* \"#utility.yul\":6521:6522   */\n      0x00\n        /* \"#utility.yul\":6514:6529   */\n      revert\n        /* \"#utility.yul\":6541:6658   */\n    tag_87:\n        /* \"#utility.yul\":6650:6651   */\n      0x00\n        /* \"#utility.yul\":6647:6648   */\n      dup1\n        /* \"#utility.yul\":6640:6652   */\n      revert\n        /* \"#utility.yul\":6664:6781   */\n    tag_80:\n        /* \"#utility.yul\":6773:6774   */\n      0x00\n        /* \"#utility.yul\":6770:6771   */\n      dup1\n        /* \"#utility.yul\":6763:6775   */\n      revert\n        /* \"#utility.yul\":6787:6904   */\n    tag_104:\n        /* \"#utility.yul\":6896:6897   */\n      0x00\n        /* \"#utility.yul\":6893:6894   */\n      dup1\n        /* \"#utility.yul\":6886:6898   */\n      revert\n        /* \"#utility.yul\":6910:7027   */\n    tag_96:\n        /* \"#utility.yul\":7019:7020   */\n      0x00\n        /* \"#utility.yul\":7016:7017   */\n      dup1\n        /* \"#utility.yul\":7009:7021   */\n      revert\n        /* \"#utility.yul\":7033:7135   */\n    tag_122:\n        /* \"#utility.yul\":7074:7080   */\n      0x00\n        /* \"#utility.yul\":7125:7127   */\n      0x1f\n        /* \"#utility.yul\":7121:7128   */\n      not\n        /* \"#utility.yul\":7116:7118   */\n      0x1f\n        /* \"#utility.yul\":7109:7114   */\n      dup4\n        /* \"#utility.yul\":7105:7119   */\n      add\n        /* \"#utility.yul\":7101:7129   */\n      and\n        /* \"#utility.yul\":7091:7129   */\n      swap1\n      pop\n        /* \"#utility.yul\":7033:7135   */\n      swap2\n      swap1\n      pop\n      jump\t// out\n        /* \"#utility.yul\":7141:7255   */\n    tag_145:\n        /* \"#utility.yul\":7223:7224   */\n      0x03\n        /* \"#utility.yul\":7216:7221   */\n      dup2\n        /* \"#utility.yul\":7213:7225   */\n      lt\n        /* \"#utility.yul\":7203:7249   */\n      tag_175\n      jumpi\n        /* \"#utility.yul\":7229:7247   */\n      tag_176\n      tag_165\n      jump\t// in\n    tag_176:\n        /* \"#utility.yul\":7203:7249   */\n    tag_175:\n        /* \"#utility.yul\":7141:7255   */\n      pop\n      jump\t// out\n        /* \"#utility.yul\":7261:7383   */\n    tag_92:\n        /* \"#utility.yul\":7334:7358   */\n      tag_178\n        /* \"#utility.yul\":7352:7357   */\n      dup2\n        /* \"#utility.yul\":7334:7358   */\n      tag_146\n      jump\t// in\n    tag_178:\n        /* \"#utility.yul\":7327:7332   */\n      dup2\n        /* \"#utility.yul\":7324:7359   */\n      eq\n        /* \"#utility.yul\":7314:7377   */\n      tag_179\n      jumpi\n        /* \"#utility.yul\":7373:7374   */\n      0x00\n        /* \"#utility.yul\":7370:7371   */\n      dup1\n        /* \"#utility.yul\":7363:7375   */\n      revert\n        /* \"#utility.yul\":7314:7377   */\n    tag_179:\n        /* \"#utility.yul\":7261:7383   */\n      pop\n      jump\t// out\n\n    auxdata: 0xa26469706673582212200ee73a70289f63944ac49d461b0b81e00faa3ca504e965ef4db29d84ec78902664736f6c63430008070033\n}\n",
				"bytecode": {
					"linkReferences": {},
					"object": "608060405260008060006101000a81548160ff0219169083600281111561002957610028610161565b5b02179055506040518060400160405280600d81526020017f45636f6e6f6d7920436c617373000000000000000000000000000000000000008152506001908051906020019061007992919061008c565b5034801561008657600080fd5b506101bf565b8280546100989061012f565b90600052602060002090601f0160209004810192826100ba5760008555610101565b82601f106100d357805160ff1916838001178555610101565b82800160010185558215610101579182015b828111156101005782518255916020019190600101906100e5565b5b50905061010e9190610112565b5090565b5b8082111561012b576000816000905550600101610113565b5090565b6000600282049050600182168061014757607f821691505b6020821081141561015b5761015a610190565b5b50919050565b7f4e487b7100000000000000000000000000000000000000000000000000000000600052602160045260246000fd5b7f4e487b7100000000000000000000000000000000000000000000000000000000600052602260045260246000fd5b6109ad806101ce6000396000f3fe608060405234801561001057600080fd5b50600436106100625760003560e01c80631aa35610146100675780636328feea1461008557806384a739cf146100a15780638a3d49c6146100ab578063c84d106d146100b5578063f0ba8440146100bf575b600080fd5b61006f6100f1565b60405161007c91906106ed565b60405180910390f35b61009f600480360381019061009a919061061a565b610102565b005b6100a9610219565b005b6100b3610267565b005b6100bd6102b5565b005b6100d960048036038101906100d491906105ed565b610303565b6040516100e893929190610708565b60405180910390f35b60008054906101000a900460ff1681565b60405180606001604052808381526020018281526020016001805461012690610837565b80601f016020809104026020016040519081016040528092919081815260200182805461015290610837565b801561019f5780601f106101745761010080835404028352916020019161019f565b820191906000526020600020905b81548152906001019060200180831161018257829003601f168201915b50505050508152506002600085815260200190815260200160002060008201518160000190805190602001906101d69291906104c5565b5060208201518160010190805190602001906101f39291906104c5565b5060408201518160020190805190602001906102109291906104c5565b50905050505050565b6040518060400160405280600e81526020017f427573696e65737320436c617373000000000000000000000000000000000000815250600190805190602001906102649291906104c5565b50565b6040518060400160405280600b81526020017f466972737420436c617373000000000000000000000000000000000000000000815250600190805190602001906102b29291906104c5565b50565b6040518060400160405280600b81526020017f466972737420436c617373000000000000000000000000000000000000000000815250600190805190602001906103009291906104c5565b50565b600260205280600052604060002060009150905080600001805461032690610837565b80601f016020809104026020016040519081016040528092919081815260200182805461035290610837565b801561039f5780601f106103745761010080835404028352916020019161039f565b820191906000526020600020905b81548152906001019060200180831161038257829003601f168201915b5050505050908060010180546103b490610837565b80601f01602080910402602001604051908101604052809291908181526020018280546103e090610837565b801561042d5780601f106104025761010080835404028352916020019161042d565b820191906000526020600020905b81548152906001019060200180831161041057829003601f168201915b50505050509080600201805461044290610837565b80601f016020809104026020016040519081016040528092919081815260200182805461046e90610837565b80156104bb5780601f10610490576101008083540402835291602001916104bb565b820191906000526020600020905b81548152906001019060200180831161049e57829003601f168201915b5050505050905083565b8280546104d190610837565b90600052602060002090601f0160209004810192826104f3576000855561053a565b82601f1061050c57805160ff191683800117855561053a565b8280016001018555821561053a579182015b8281111561053957825182559160200191906001019061051e565b5b509050610547919061054b565b5090565b5b8082111561056457600081600090555060010161054c565b5090565b600061057b61057684610779565b610754565b9050828152602081018484840111156105975761059661092c565b5b6105a28482856107f5565b509392505050565b600082601f8301126105bf576105be610927565b5b81356105cf848260208601610568565b91505092915050565b6000813590506105e781610960565b92915050565b60006020828403121561060357610602610936565b5b6000610611848285016105d8565b91505092915050565b60008060006060848603121561063357610632610936565b5b6000610641868287016105d8565b935050602084013567ffffffffffffffff81111561066257610661610931565b5b61066e868287016105aa565b925050604084013567ffffffffffffffff81111561068f5761068e610931565b5b61069b868287016105aa565b9150509250925092565b6106ae816107e3565b82525050565b60006106bf826107aa565b6106c981856107b5565b93506106d9818560208601610804565b6106e28161093b565b840191505092915050565b600060208201905061070260008301846106a5565b92915050565b6000606082019050818103600083015261072281866106b4565b9050818103602083015261073681856106b4565b9050818103604083015261074a81846106b4565b9050949350505050565b600061075e61076f565b905061076a8282610869565b919050565b6000604051905090565b600067ffffffffffffffff821115610794576107936108f8565b5b61079d8261093b565b9050602081019050919050565b600081519050919050565b600082825260208201905092915050565b60008190506107d48261094c565b919050565b6000819050919050565b60006107ee826107c6565b9050919050565b82818337600083830152505050565b60005b83811015610822578082015181840152602081019050610807565b83811115610831576000848401525b50505050565b6000600282049050600182168061084f57607f821691505b60208210811415610863576108626108c9565b5b50919050565b6108728261093b565b810181811067ffffffffffffffff82111715610891576108906108f8565b5b80604052505050565b7f4e487b7100000000000000000000000000000000000000000000000000000000600052602160045260246000fd5b7f4e487b7100000000000000000000000000000000000000000000000000000000600052602260045260246000fd5b7f4e487b7100000000000000000000000000000000000000000000000000000000600052604160045260246000fd5b600080fd5b600080fd5b600080fd5b600080fd5b6000601f19601f8301169050919050565b6003811061095d5761095c61089a565b5b50565b610969816107d9565b811461097457600080fd5b5056fea26469706673582212200ee73a70289f63944ac49d461b0b81e00faa3ca504e965ef4db29d84ec78902664736f6c63430008070033",
					"opcodes": "PUSH1 0x80 PUSH1 0x40 MSTORE PUSH1 0x0 DUP1 PUSH1 0x0 PUSH2 0x100 EXP DUP2 SLOAD DUP2 PUSH1 0xFF MUL NOT AND SWAP1 DUP4 PUSH1 0x2 DUP2 GT ISZERO PUSH2 0x29 JUMPI PUSH2 0x28 PUSH2 0x161 JUMP JUMPDEST JUMPDEST MUL OR SWAP1 SSTORE POP PUSH1 0x40 MLOAD DUP1 PUSH1 0x40 ADD PUSH1 0x40 MSTORE DUP1 PUSH1 0xD DUP2 MSTORE PUSH1 0x20 ADD PUSH32 0x45636F6E6F6D7920436C61737300000000000000000000000000000000000000 DUP2 MSTORE POP PUSH1 0x1 SWAP1 DUP1 MLOAD SWAP1 PUSH1 0x20 ADD SWAP1 PUSH2 0x79 SWAP3 SWAP2 SWAP1 PUSH2 0x8C JUMP JUMPDEST POP CALLVALUE DUP1 ISZERO PUSH2 0x86 JUMPI PUSH1 0x0 DUP1 REVERT JUMPDEST POP PUSH2 0x1BF JUMP JUMPDEST DUP3 DUP1 SLOAD PUSH2 0x98 SWAP1 PUSH2 0x12F JUMP JUMPDEST SWAP1 PUSH1 0x0 MSTORE PUSH1 0x20 PUSH1 0x0 KECCAK256 SWAP1 PUSH1 0x1F ADD PUSH1 0x20 SWAP1 DIV DUP2 ADD SWAP3 DUP3 PUSH2 0xBA JUMPI PUSH1 0x0 DUP6 SSTORE PUSH2 0x101 JUMP JUMPDEST DUP3 PUSH1 0x1F LT PUSH2 0xD3 JUMPI DUP1 MLOAD PUSH1 0xFF NOT AND DUP4 DUP1 ADD OR DUP6 SSTORE PUSH2 0x101 JUMP JUMPDEST DUP3 DUP1 ADD PUSH1 0x1 ADD DUP6 SSTORE DUP3 ISZERO PUSH2 0x101 JUMPI SWAP2 DUP3 ADD JUMPDEST DUP3 DUP2 GT ISZERO PUSH2 0x100 JUMPI DUP3 MLOAD DUP3 SSTORE SWAP2 PUSH1 0x20 ADD SWAP2 SWAP1 PUSH1 0x1 ADD SWAP1 PUSH2 0xE5 JUMP JUMPDEST JUMPDEST POP SWAP1 POP PUSH2 0x10E SWAP2 SWAP1 PUSH2 0x112 JUMP JUMPDEST POP SWAP1 JUMP JUMPDEST JUMPDEST DUP1 DUP3 GT ISZERO PUSH2 0x12B JUMPI PUSH1 0x0 DUP2 PUSH1 0x0 SWAP1 SSTORE POP PUSH1 0x1 ADD PUSH2 0x113 JUMP JUMPDEST POP SWAP1 JUMP JUMPDEST PUSH1 0x0 PUSH1 0x2 DUP3 DIV SWAP1 POP PUSH1 0x1 DUP3 AND DUP1 PUSH2 0x147 JUMPI PUSH1 0x7F DUP3 AND SWAP2 POP JUMPDEST PUSH1 0x20 DUP3 LT DUP2 EQ ISZERO PUSH2 0x15B JUMPI PUSH2 0x15A PUSH2 0x190 JUMP JUMPDEST JUMPDEST POP SWAP2 SWAP1 POP JUMP JUMPDEST PUSH32 0x4E487B7100000000000000000000000000000000000000000000000000000000 PUSH1 0x0 MSTORE PUSH1 0x21 PUSH1 0x4 MSTORE PUSH1 0x24 PUSH1 0x0 REVERT JUMPDEST PUSH32 0x4E487B7100000000000000000000000000000000000000000000000000000000 PUSH1 0x0 MSTORE PUSH1 0x22 PUSH1 0x4 MSTORE PUSH1 0x24 PUSH1 0x0 REVERT JUMPDEST PUSH2 0x9AD DUP1 PUSH2 0x1CE PUSH1 0x0 CODECOPY PUSH1 0x0 RETURN INVALID PUSH1 0x80 PUSH1 0x40 MSTORE CALLVALUE DUP1 ISZERO PUSH2 0x10 JUMPI PUSH1 0x0 DUP1 REVERT JUMPDEST POP PUSH1 0x4 CALLDATASIZE LT PUSH2 0x62 JUMPI PUSH1 0x0 CALLDATALOAD PUSH1 0xE0 SHR DUP1 PUSH4 0x1AA35610 EQ PUSH2 0x67 JUMPI DUP1 PUSH4 0x6328FEEA EQ PUSH2 0x85 JUMPI DUP1 PUSH4 0x84A739CF EQ PUSH2 0xA1 JUMPI DUP1 PUSH4 0x8A3D49C6 EQ PUSH2 0xAB JUMPI DUP1 PUSH4 0xC84D106D EQ PUSH2 0xB5 JUMPI DUP1 PUSH4 0xF0BA8440 EQ PUSH2 0xBF JUMPI JUMPDEST PUSH1 0x0 DUP1 REVERT JUMPDEST PUSH2 0x6F PUSH2 0xF1 JUMP JUMPDEST PUSH1 0x40 MLOAD PUSH2 0x7C SWAP2 SWAP1 PUSH2 0x6ED JUMP JUMPDEST PUSH1 0x40 MLOAD DUP1 SWAP2 SUB SWAP1 RETURN JUMPDEST PUSH2 0x9F PUSH1 0x4 DUP1 CALLDATASIZE SUB DUP2 ADD SWAP1 PUSH2 0x9A SWAP2 SWAP1 PUSH2 0x61A JUMP JUMPDEST PUSH2 0x102 JUMP JUMPDEST STOP JUMPDEST PUSH2 0xA9 PUSH2 0x219 JUMP JUMPDEST STOP JUMPDEST PUSH2 0xB3 PUSH2 0x267 JUMP JUMPDEST STOP JUMPDEST PUSH2 0xBD PUSH2 0x2B5 JUMP JUMPDEST STOP JUMPDEST PUSH2 0xD9 PUSH1 0x4 DUP1 CALLDATASIZE SUB DUP2 ADD SWAP1 PUSH2 0xD4 SWAP2 SWAP1 PUSH2 0x5ED JUMP JUMPDEST PUSH2 0x303 JUMP JUMPDEST PUSH1 0x40 MLOAD PUSH2 0xE8 SWAP4 SWAP3 SWAP2 SWAP1 PUSH2 0x708 JUMP JUMPDEST PUSH1 0x40 MLOAD DUP1 SWAP2 SUB SWAP1 RETURN JUMPDEST PUSH1 0x0 DUP1 SLOAD SWAP1 PUSH2 0x100 EXP SWAP1 DIV PUSH1 0xFF AND DUP2 JUMP JUMPDEST PUSH1 0x40 MLOAD DUP1 PUSH1 0x60 ADD PUSH1 0x40 MSTORE DUP1 DUP4 DUP2 MSTORE PUSH1 0x20 ADD DUP3 DUP2 MSTORE PUSH1 0x20 ADD PUSH1 0x1 DUP1 SLOAD PUSH2 0x126 SWAP1 PUSH2 0x837 JUMP JUMPDEST DUP1 PUSH1 0x1F ADD PUSH1 0x20 DUP1 SWAP2 DIV MUL PUSH1 0x20 ADD PUSH1 0x40 MLOAD SWAP1 DUP2 ADD PUSH1 0x40 MSTORE DUP1 SWAP3 SWAP2 SWAP1 DUP2 DUP2 MSTORE PUSH1 0x20 ADD DUP3 DUP1 SLOAD PUSH2 0x152 SWAP1 PUSH2 0x837 JUMP JUMPDEST DUP1 ISZERO PUSH2 0x19F JUMPI DUP1 PUSH1 0x1F LT PUSH2 0x174 JUMPI PUSH2 0x100 DUP1 DUP4 SLOAD DIV MUL DUP4 MSTORE SWAP2 PUSH1 0x20 ADD SWAP2 PUSH2 0x19F JUMP JUMPDEST DUP3 ADD SWAP2 SWAP1 PUSH1 0x0 MSTORE PUSH1 0x20 PUSH1 0x0 KECCAK256 SWAP1 JUMPDEST DUP2 SLOAD DUP2 MSTORE SWAP1 PUSH1 0x1 ADD SWAP1 PUSH1 0x20 ADD DUP1 DUP4 GT PUSH2 0x182 JUMPI DUP3 SWAP1 SUB PUSH1 0x1F AND DUP3 ADD SWAP2 JUMPDEST POP POP POP POP POP DUP2 MSTORE POP PUSH1 0x2 PUSH1 0x0 DUP6 DUP2 MSTORE PUSH1 0x20 ADD SWAP1 DUP2 MSTORE PUSH1 0x20 ADD PUSH1 0x0 KECCAK256 PUSH1 0x0 DUP3 ADD MLOAD DUP2 PUSH1 0x0 ADD SWAP1 DUP1 MLOAD SWAP1 PUSH1 0x20 ADD SWAP1 PUSH2 0x1D6 SWAP3 SWAP2 SWAP1 PUSH2 0x4C5 JUMP JUMPDEST POP PUSH1 0x20 DUP3 ADD MLOAD DUP2 PUSH1 0x1 ADD SWAP1 DUP1 MLOAD SWAP1 PUSH1 0x20 ADD SWAP1 PUSH2 0x1F3 SWAP3 SWAP2 SWAP1 PUSH2 0x4C5 JUMP JUMPDEST POP PUSH1 0x40 DUP3 ADD MLOAD DUP2 PUSH1 0x2 ADD SWAP1 DUP1 MLOAD SWAP1 PUSH1 0x20 ADD SWAP1 PUSH2 0x210 SWAP3 SWAP2 SWAP1 PUSH2 0x4C5 JUMP JUMPDEST POP SWAP1 POP POP POP POP POP JUMP JUMPDEST PUSH1 0x40 MLOAD DUP1 PUSH1 0x40 ADD PUSH1 0x40 MSTORE DUP1 PUSH1 0xE DUP2 MSTORE PUSH1 0x20 ADD PUSH32 0x427573696E65737320436C617373000000000000000000000000000000000000 DUP2 MSTORE POP PUSH1 0x1 SWAP1 DUP1 MLOAD SWAP1 PUSH1 0x20 ADD SWAP1 PUSH2 0x264 SWAP3 SWAP2 SWAP1 PUSH2 0x4C5 JUMP JUMPDEST POP JUMP JUMPDEST PUSH1 0x40 MLOAD DUP1 PUSH1 0x40 ADD PUSH1 0x40 MSTORE DUP1 PUSH1 0xB DUP2 MSTORE PUSH1 0x20 ADD PUSH32 0x466972737420436C617373000000000000000000000000000000000000000000 DUP2 MSTORE POP PUSH1 0x1 SWAP1 DUP1 MLOAD SWAP1 PUSH1 0x20 ADD SWAP1 PUSH2 0x2B2 SWAP3 SWAP2 SWAP1 PUSH2 0x4C5 JUMP JUMPDEST POP JUMP JUMPDEST PUSH1 0x40 MLOAD DUP1 PUSH1 0x40 ADD PUSH1 0x40 MSTORE DUP1 PUSH1 0xB DUP2 MSTORE PUSH1 0x20 ADD PUSH32 0x466972737420436C617373000000000000000000000000000000000000000000 DUP2 MSTORE POP PUSH1 0x1 SWAP1 DUP1 MLOAD SWAP1 PUSH1 0x20 ADD SWAP1 PUSH2 0x300 SWAP3 SWAP2 SWAP1 PUSH2 0x4C5 JUMP JUMPDEST POP JUMP JUMPDEST PUSH1 0x2 PUSH1 0x20 MSTORE DUP1 PUSH1 0x0 MSTORE PUSH1 0x40 PUSH1 0x0 KECCAK256 PUSH1 0x0 SWAP2 POP SWAP1 POP DUP1 PUSH1 0x0 ADD DUP1 SLOAD PUSH2 0x326 SWAP1 PUSH2 0x837 JUMP JUMPDEST DUP1 PUSH1 0x1F ADD PUSH1 0x20 DUP1 SWAP2 DIV MUL PUSH1 0x20 ADD PUSH1 0x40 MLOAD SWAP1 DUP2 ADD PUSH1 0x40 MSTORE DUP1 SWAP3 SWAP2 SWAP1 DUP2 DUP2 MSTORE PUSH1 0x20 ADD DUP3 DUP1 SLOAD PUSH2 0x352 SWAP1 PUSH2 0x837 JUMP JUMPDEST DUP1 ISZERO PUSH2 0x39F JUMPI DUP1 PUSH1 0x1F LT PUSH2 0x374 JUMPI PUSH2 0x100 DUP1 DUP4 SLOAD DIV MUL DUP4 MSTORE SWAP2 PUSH1 0x20 ADD SWAP2 PUSH2 0x39F JUMP JUMPDEST DUP3 ADD SWAP2 SWAP1 PUSH1 0x0 MSTORE PUSH1 0x20 PUSH1 0x0 KECCAK256 SWAP1 JUMPDEST DUP2 SLOAD DUP2 MSTORE SWAP1 PUSH1 0x1 ADD SWAP1 PUSH1 0x20 ADD DUP1 DUP4 GT PUSH2 0x382 JUMPI DUP3 SWAP1 SUB PUSH1 0x1F AND DUP3 ADD SWAP2 JUMPDEST POP POP POP POP POP SWAP1 DUP1 PUSH1 0x1 ADD DUP1 SLOAD PUSH2 0x3B4 SWAP1 PUSH2 0x837 JUMP JUMPDEST DUP1 PUSH1 0x1F ADD PUSH1 0x20 DUP1 SWAP2 DIV MUL PUSH1 0x20 ADD PUSH1 0x40 MLOAD SWAP1 DUP2 ADD PUSH1 0x40 MSTORE DUP1 SWAP3 SWAP2 SWAP1 DUP2 DUP2 MSTORE PUSH1 0x20 ADD DUP3 DUP1 SLOAD PUSH2 0x3E0 SWAP1 PUSH2 0x837 JUMP JUMPDEST DUP1 ISZERO PUSH2 0x42D JUMPI DUP1 PUSH1 0x1F LT PUSH2 0x402 JUMPI PUSH2 0x100 DUP1 DUP4 SLOAD DIV MUL DUP4 MSTORE SWAP2 PUSH1 0x20 ADD SWAP2 PUSH2 0x42D JUMP JUMPDEST DUP3 ADD SWAP2 SWAP1 PUSH1 0x0 MSTORE PUSH1 0x20 PUSH1 0x0 KECCAK256 SWAP1 JUMPDEST DUP2 SLOAD DUP2 MSTORE SWAP1 PUSH1 0x1 ADD SWAP1 PUSH1 0x20 ADD DUP1 DUP4 GT PUSH2 0x410 JUMPI DUP3 SWAP1 SUB PUSH1 0x1F AND DUP3 ADD SWAP2 JUMPDEST POP POP POP POP POP SWAP1 DUP1 PUSH1 0x2 ADD DUP1 SLOAD PUSH2 0x442 SWAP1 PUSH2 0x837 JUMP JUMPDEST DUP1 PUSH1 0x1F ADD PUSH1 0x20 DUP1 SWAP2 DIV MUL PUSH1 0x20 ADD PUSH1 0x40 MLOAD SWAP1 DUP2 ADD PUSH1 0x40 MSTORE DUP1 SWAP3 SWAP2 SWAP1 DUP2 DUP2 MSTORE PUSH1 0x20 ADD DUP3 DUP1 SLOAD PUSH2 0x46E SWAP1 PUSH2 0x837 JUMP JUMPDEST DUP1 ISZERO PUSH2 0x4BB JUMPI DUP1 PUSH1 0x1F LT PUSH2 0x490 JUMPI PUSH2 0x100 DUP1 DUP4 SLOAD DIV MUL DUP4 MSTORE SWAP2 PUSH1 0x20 ADD SWAP2 PUSH2 0x4BB JUMP JUMPDEST DUP3 ADD SWAP2 SWAP1 PUSH1 0x0 MSTORE PUSH1 0x20 PUSH1 0x0 KECCAK256 SWAP1 JUMPDEST DUP2 SLOAD DUP2 MSTORE SWAP1 PUSH1 0x1 ADD SWAP1 PUSH1 0x20 ADD DUP1 DUP4 GT PUSH2 0x49E JUMPI DUP3 SWAP1 SUB PUSH1 0x1F AND DUP3 ADD SWAP2 JUMPDEST POP POP POP POP POP SWAP1 POP DUP4 JUMP JUMPDEST DUP3 DUP1 SLOAD PUSH2 0x4D1 SWAP1 PUSH2 0x837 JUMP JUMPDEST SWAP1 PUSH1 0x0 MSTORE PUSH1 0x20 PUSH1 0x0 KECCAK256 SWAP1 PUSH1 0x1F ADD PUSH1 0x20 SWAP1 DIV DUP2 ADD SWAP3 DUP3 PUSH2 0x4F3 JUMPI PUSH1 0x0 DUP6 SSTORE PUSH2 0x53A JUMP JUMPDEST DUP3 PUSH1 0x1F LT PUSH2 0x50C JUMPI DUP1 MLOAD PUSH1 0xFF NOT AND DUP4 DUP1 ADD OR DUP6 SSTORE PUSH2 0x53A JUMP JUMPDEST DUP3 DUP1 ADD PUSH1 0x1 ADD DUP6 SSTORE DUP3 ISZERO PUSH2 0x53A JUMPI SWAP2 DUP3 ADD JUMPDEST DUP3 DUP2 GT ISZERO PUSH2 0x539 JUMPI DUP3 MLOAD DUP3 SSTORE SWAP2 PUSH1 0x20 ADD SWAP2 SWAP1 PUSH1 0x1 ADD SWAP1 PUSH2 0x51E JUMP JUMPDEST JUMPDEST POP SWAP1 POP PUSH2 0x547 SWAP2 SWAP1 PUSH2 0x54B JUMP JUMPDEST POP SWAP1 JUMP JUMPDEST JUMPDEST DUP1 DUP3 GT ISZERO PUSH2 0x564 JUMPI PUSH1 0x0 DUP2 PUSH1 0x0 SWAP1 SSTORE POP PUSH1 0x1 ADD PUSH2 0x54C JUMP JUMPDEST POP SWAP1 JUMP JUMPDEST PUSH1 0x0 PUSH2 0x57B PUSH2 0x576 DUP5 PUSH2 0x779 JUMP JUMPDEST PUSH2 0x754 JUMP JUMPDEST SWAP1 POP DUP3 DUP2 MSTORE PUSH1 0x20 DUP2 ADD DUP5 DUP5 DUP5 ADD GT ISZERO PUSH2 0x597 JUMPI PUSH2 0x596 PUSH2 0x92C JUMP JUMPDEST JUMPDEST PUSH2 0x5A2 DUP5 DUP3 DUP6 PUSH2 0x7F5 JUMP JUMPDEST POP SWAP4 SWAP3 POP POP POP JUMP JUMPDEST PUSH1 0x0 DUP3 PUSH1 0x1F DUP4 ADD SLT PUSH2 0x5BF JUMPI PUSH2 0x5BE PUSH2 0x927 JUMP JUMPDEST JUMPDEST DUP2 CALLDATALOAD PUSH2 0x5CF DUP5 DUP3 PUSH1 0x20 DUP7 ADD PUSH2 0x568 JUMP JUMPDEST SWAP2 POP POP SWAP3 SWAP2 POP POP JUMP JUMPDEST PUSH1 0x0 DUP2 CALLDATALOAD SWAP1 POP PUSH2 0x5E7 DUP2 PUSH2 0x960 JUMP JUMPDEST SWAP3 SWAP2 POP POP JUMP JUMPDEST PUSH1 0x0 PUSH1 0x20 DUP3 DUP5 SUB SLT ISZERO PUSH2 0x603 JUMPI PUSH2 0x602 PUSH2 0x936 JUMP JUMPDEST JUMPDEST PUSH1 0x0 PUSH2 0x611 DUP5 DUP3 DUP6 ADD PUSH2 0x5D8 JUMP JUMPDEST SWAP2 POP POP SWAP3 SWAP2 POP POP JUMP JUMPDEST PUSH1 0x0 DUP1 PUSH1 0x0 PUSH1 0x60 DUP5 DUP7 SUB SLT ISZERO PUSH2 0x633 JUMPI PUSH2 0x632 PUSH2 0x936 JUMP JUMPDEST JUMPDEST PUSH1 0x0 PUSH2 0x641 DUP7 DUP3 DUP8 ADD PUSH2 0x5D8 JUMP JUMPDEST SWAP4 POP POP PUSH1 0x20 DUP5 ADD CALLDATALOAD PUSH8 0xFFFFFFFFFFFFFFFF DUP2 GT ISZERO PUSH2 0x662 JUMPI PUSH2 0x661 PUSH2 0x931 JUMP JUMPDEST JUMPDEST PUSH2 0x66E DUP7 DUP3 DUP8 ADD PUSH2 0x5AA JUMP JUMPDEST SWAP3 POP POP PUSH1 0x40 DUP5 ADD CALLDATALOAD PUSH8 0xFFFFFFFFFFFFFFFF DUP2 GT ISZERO PUSH2 0x68F JUMPI PUSH2 0x68E PUSH2 0x931 JUMP JUMPDEST JUMPDEST PUSH2 0x69B DUP7 DUP3 DUP8 ADD PUSH2 0x5AA JUMP JUMPDEST SWAP2 POP POP SWAP3 POP SWAP3 POP SWAP3 JUMP JUMPDEST PUSH2 0x6AE DUP2 PUSH2 0x7E3 JUMP JUMPDEST DUP3 MSTORE POP POP JUMP JUMPDEST PUSH1 0x0 PUSH2 0x6BF DUP3 PUSH2 0x7AA JUMP JUMPDEST PUSH2 0x6C9 DUP2 DUP6 PUSH2 0x7B5 JUMP JUMPDEST SWAP4 POP PUSH2 0x6D9 DUP2 DUP6 PUSH1 0x20 DUP7 ADD PUSH2 0x804 JUMP JUMPDEST PUSH2 0x6E2 DUP2 PUSH2 0x93B JUMP JUMPDEST DUP5 ADD SWAP2 POP POP SWAP3 SWAP2 POP POP JUMP JUMPDEST PUSH1 0x0 PUSH1 0x20 DUP3 ADD SWAP1 POP PUSH2 0x702 PUSH1 0x0 DUP4 ADD DUP5 PUSH2 0x6A5 JUMP JUMPDEST SWAP3 SWAP2 POP POP JUMP JUMPDEST PUSH1 0x0 PUSH1 0x60 DUP3 ADD SWAP1 POP DUP2 DUP2 SUB PUSH1 0x0 DUP4 ADD MSTORE PUSH2 0x722 DUP2 DUP7 PUSH2 0x6B4 JUMP JUMPDEST SWAP1 POP DUP2 DUP2 SUB PUSH1 0x20 DUP4 ADD MSTORE PUSH2 0x736 DUP2 DUP6 PUSH2 0x6B4 JUMP JUMPDEST SWAP1 POP DUP2 DUP2 SUB PUSH1 0x40 DUP4 ADD MSTORE PUSH2 0x74A DUP2 DUP5 PUSH2 0x6B4 JUMP JUMPDEST SWAP1 POP SWAP5 SWAP4 POP POP POP POP JUMP JUMPDEST PUSH1 0x0 PUSH2 0x75E PUSH2 0x76F JUMP JUMPDEST SWAP1 POP PUSH2 0x76A DUP3 DUP3 PUSH2 0x869 JUMP JUMPDEST SWAP2 SWAP1 POP JUMP JUMPDEST PUSH1 0x0 PUSH1 0x40 MLOAD SWAP1 POP SWAP1 JUMP JUMPDEST PUSH1 0x0 PUSH8 0xFFFFFFFFFFFFFFFF DUP3 GT ISZERO PUSH2 0x794 JUMPI PUSH2 0x793 PUSH2 0x8F8 JUMP JUMPDEST JUMPDEST PUSH2 0x79D DUP3 PUSH2 0x93B JUMP JUMPDEST SWAP1 POP PUSH1 0x20 DUP2 ADD SWAP1 POP SWAP2 SWAP1 POP JUMP JUMPDEST PUSH1 0x0 DUP2 MLOAD SWAP1 POP SWAP2 SWAP1 POP JUMP JUMPDEST PUSH1 0x0 DUP3 DUP3 MSTORE PUSH1 0x20 DUP3 ADD SWAP1 POP SWAP3 SWAP2 POP POP JUMP JUMPDEST PUSH1 0x0 DUP2 SWAP1 POP PUSH2 0x7D4 DUP3 PUSH2 0x94C JUMP JUMPDEST SWAP2 SWAP1 POP JUMP JUMPDEST PUSH1 0x0 DUP2 SWAP1 POP SWAP2 SWAP1 POP JUMP JUMPDEST PUSH1 0x0 PUSH2 0x7EE DUP3 PUSH2 0x7C6 JUMP JUMPDEST SWAP1 POP SWAP2 SWAP1 POP JUMP JUMPDEST DUP3 DUP2 DUP4 CALLDATACOPY PUSH1 0x0 DUP4 DUP4 ADD MSTORE POP POP POP JUMP JUMPDEST PUSH1 0x0 JUMPDEST DUP4 DUP2 LT ISZERO PUSH2 0x822 JUMPI DUP1 DUP3 ADD MLOAD DUP2 DUP5 ADD MSTORE PUSH1 0x20 DUP2 ADD SWAP1 POP PUSH2 0x807 JUMP JUMPDEST DUP4 DUP2 GT ISZERO PUSH2 0x831 JUMPI PUSH1 0x0 DUP5 DUP5 ADD MSTORE JUMPDEST POP POP POP POP JUMP JUMPDEST PUSH1 0x0 PUSH1 0x2 DUP3 DIV SWAP1 POP PUSH1 0x1 DUP3 AND DUP1 PUSH2 0x84F JUMPI PUSH1 0x7F DUP3 AND SWAP2 POP JUMPDEST PUSH1 0x20 DUP3 LT DUP2 EQ ISZERO PUSH2 0x863 JUMPI PUSH2 0x862 PUSH2 0x8C9 JUMP JUMPDEST JUMPDEST POP SWAP2 SWAP1 POP JUMP JUMPDEST PUSH2 0x872 DUP3 PUSH2 0x93B JUMP JUMPDEST DUP2 ADD DUP2 DUP2 LT PUSH8 0xFFFFFFFFFFFFFFFF DUP3 GT OR ISZERO PUSH2 0x891 JUMPI PUSH2 0x890 PUSH2 0x8F8 JUMP JUMPDEST JUMPDEST DUP1 PUSH1 0x40 MSTORE POP POP POP JUMP JUMPDEST PUSH32 0x4E487B7100000000000000000000000000000000000000000000000000000000 PUSH1 0x0 MSTORE PUSH1 0x21 PUSH1 0x4 MSTORE PUSH1 0x24 PUSH1 0x0 REVERT JUMPDEST PUSH32 0x4E487B7100000000000000000000000000000000000000000000000000000000 PUSH1 0x0 MSTORE PUSH1 0x22 PUSH1 0x4 MSTORE PUSH1 0x24 PUSH1 0x0 REVERT JUMPDEST PUSH32 0x4E487B7100000000000000000000000000000000000000000000000000000000 PUSH1 0x0 MSTORE PUSH1 0x41 PUSH1 0x4 MSTORE PUSH1 0x24 PUSH1 0x0 REVERT JUMPDEST PUSH1 0x0 DUP1 REVERT JUMPDEST PUSH1 0x0 DUP1 REVERT JUMPDEST PUSH1 0x0 DUP1 REVERT JUMPDEST PUSH1 0x0 DUP1 REVERT JUMPDEST PUSH1 0x0 PUSH1 0x1F NOT PUSH1 0x1F DUP4 ADD AND SWAP1 POP SWAP2 SWAP1 POP JUMP JUMPDEST PUSH1 0x3 DUP2 LT PUSH2 0x95D JUMPI PUSH2 0x95C PUSH2 0x89A JUMP JUMPDEST JUMPDEST POP JUMP JUMPDEST PUSH2 0x969 DUP2 PUSH2 0x7D9 JUMP JUMPDEST DUP2 EQ PUSH2 0x974 JUMPI PUSH1 0x0 DUP1 REVERT JUMPDEST POP JUMP INVALID LOG2 PUSH5 0x6970667358 0x22 SLT KECCAK256 0xE 0xE7 GASPRICE PUSH17 0x289F63944AC49D461B0B81E00FAA3CA504 0xE9 PUSH6 0xEF4DB29D84EC PUSH25 0x902664736F6C63430008070033000000000000000000000000 "
				},
				"gasEstimates": {
					"creation": {
						"codeDepositCost": "495400",
						"executionCost": "infinite",
						"totalCost": "infinite"
					},
					"external": {
						"changeClassToBusiness()": "infinite",
						"changeClassToEcomomic()": "infinite",
						"changeClassToFirst()": "infinite",
						"data(uint256)": "infinite",
						"setter(uint256,string,string)": "infinite",
						"u1()": "2535"
					}
				},
				"methodIdentifiers": {
					"changeClassToBusiness()": "84a739cf",
					"changeClassToEcomomic()": "8a3d49c6",
					"changeClassToFirst()": "c84d106d",
					"data(uint256)": "f0ba8440",
					"setter(uint256,string,string)": "6328feea",
					"u1()": "1aa35610"
				}
			},
			"userdoc": {
				"kind": "user",
				"methods": {},
				"version": 1
			}
		}
	}
}