{
	"bootcampquiz.sol": {
		"AirlineTickets": {
			"abi": [
				{
					"inputs": [],
					"name": "busnissClass",
					"outputs": [],
					"stateMutability": "nonpayable",
					"type": "function"
				},
				{
					"inputs": [
						{
							"internalType": "address",
							"name": "",
							"type": "address"
						}
					],
					"name": "data",
					"outputs": [
						{
							"internalType": "string",
							"name": "name",
							"type": "string"
						},
						{
							"internalType": "string",
							"name": "des",
							"type": "string"
						},
						{
							"internalType": "uint256",
							"name": "pass_id",
							"type": "uint256"
						},
						{
							"internalType": "string",
							"name": "ticket",
							"type": "string"
						}
					],
					"stateMutability": "view",
					"type": "function"
				},
				{
					"inputs": [],
					"name": "economyClass",
					"outputs": [],
					"stateMutability": "nonpayable",
					"type": "function"
				},
				{
					"inputs": [],
					"name": "firstClass",
					"outputs": [],
					"stateMutability": "nonpayable",
					"type": "function"
				},
				{
					"inputs": [
						{
							"internalType": "string",
							"name": "_name",
							"type": "string"
						},
						{
							"internalType": "string",
							"name": "_des",
							"type": "string"
						},
						{
							"internalType": "uint256",
							"name": "_pass_id",
							"type": "uint256"
						}
					],
					"name": "setData",
					"outputs": [],
					"stateMutability": "nonpayable",
					"type": "function"
				}
			],
			"devdoc": {
				"kind": "dev",
				"methods": {},
				"version": 1
			},
			"evm": {
				"assembly": "    /* \"bootcampquiz.sol\":72:1509  contract AirlineTickets {\r... */\n  mstore(0x40, 0x80)\n    /* \"bootcampquiz.sol\":233:238  false */\n  0x00\n    /* \"bootcampquiz.sol\":219:238  bool booked = false */\n  dup1\n  exp(0x0100, 0x00)\n  dup2\n  sload\n  dup2\n  0xff\n  mul\n  not\n  and\n  swap1\n  dup4\n  iszero\n  iszero\n  mul\n  or\n  swap1\n  sstore\n  pop\n    /* \"bootcampquiz.sol\":72:1509  contract AirlineTickets {\r... */\n  callvalue\n  dup1\n  iszero\n  tag_1\n  jumpi\n  0x00\n  dup1\n  revert\ntag_1:\n  pop\n  dataSize(sub_0)\n  dup1\n  dataOffset(sub_0)\n  0x00\n  codecopy\n  0x00\n  return\nstop\n\nsub_0: assembly {\n        /* \"bootcampquiz.sol\":72:1509  contract AirlineTickets {\r... */\n      mstore(0x40, 0x80)\n      callvalue\n      dup1\n      iszero\n      tag_1\n      jumpi\n      0x00\n      dup1\n      revert\n    tag_1:\n      pop\n      jumpi(tag_2, lt(calldatasize, 0x04))\n      shr(0xe0, calldataload(0x00))\n      dup1\n      0x17ae4589\n      eq\n      tag_3\n      jumpi\n      dup1\n      0x50183507\n      eq\n      tag_4\n      jumpi\n      dup1\n      0x7a1736d1\n      eq\n      tag_5\n      jumpi\n      dup1\n      0xb24fa0e4\n      eq\n      tag_6\n      jumpi\n      dup1\n      0xb90d3d0c\n      eq\n      tag_7\n      jumpi\n    tag_2:\n      0x00\n      dup1\n      revert\n        /* \"bootcampquiz.sol\":1288:1506  function setData(string memory _name, string memory _des, uint _pass_id) public {\r... */\n    tag_3:\n      tag_8\n      0x04\n      dup1\n      calldatasize\n      sub\n      dup2\n      add\n      swap1\n      tag_9\n      swap2\n      swap1\n      tag_10\n      jump\t// in\n    tag_9:\n      tag_11\n      jump\t// in\n    tag_8:\n      stop\n        /* \"bootcampquiz.sol\":705:984  function firstClass() public {\r... */\n    tag_4:\n      tag_12\n      tag_13\n      jump\t// in\n    tag_12:\n      stop\n        /* \"bootcampquiz.sol\":420:695  function economyClass() public {\r... */\n    tag_5:\n      tag_14\n      tag_15\n      jump\t// in\n    tag_14:\n      stop\n        /* \"bootcampquiz.sol\":991:1276  function busnissClass() public {\r... */\n    tag_6:\n      tag_16\n      tag_17\n      jump\t// in\n    tag_16:\n      stop\n        /* \"bootcampquiz.sol\":376:413  mapping (address => User) public data */\n    tag_7:\n      tag_18\n      0x04\n      dup1\n      calldatasize\n      sub\n      dup2\n      add\n      swap1\n      tag_19\n      swap2\n      swap1\n      tag_20\n      jump\t// in\n    tag_19:\n      tag_21\n      jump\t// in\n    tag_18:\n      mload(0x40)\n      tag_22\n      swap5\n      swap4\n      swap3\n      swap2\n      swap1\n      tag_23\n      jump\t// in\n    tag_22:\n      mload(0x40)\n      dup1\n      swap2\n      sub\n      swap1\n      return\n        /* \"bootcampquiz.sol\":1288:1506  function setData(string memory _name, string memory _des, uint _pass_id) public {\r... */\n    tag_11:\n        /* \"bootcampquiz.sol\":1397:1403  booked */\n      0x00\n      dup1\n      sload\n      swap1\n      0x0100\n      exp\n      swap1\n      div\n      0xff\n      and\n        /* \"bootcampquiz.sol\":1389:1436  require(booked,\"please select the class first\") */\n      tag_25\n      jumpi\n      mload(0x40)\n      0x08c379a000000000000000000000000000000000000000000000000000000000\n      dup2\n      mstore\n      0x04\n      add\n      tag_26\n      swap1\n      tag_27\n      jump\t// in\n    tag_26:\n      mload(0x40)\n      dup1\n      swap2\n      sub\n      swap1\n      revert\n    tag_25:\n        /* \"bootcampquiz.sol\":1465:1498  User(_name,_des,_pass_id,realVal) */\n      mload(0x40)\n      dup1\n      0x80\n      add\n      0x40\n      mstore\n      dup1\n        /* \"bootcampquiz.sol\":1470:1475  _name */\n      dup5\n        /* \"bootcampquiz.sol\":1465:1498  User(_name,_des,_pass_id,realVal) */\n      dup2\n      mstore\n      0x20\n      add\n        /* \"bootcampquiz.sol\":1476:1480  _des */\n      dup4\n        /* \"bootcampquiz.sol\":1465:1498  User(_name,_des,_pass_id,realVal) */\n      dup2\n      mstore\n      0x20\n      add\n        /* \"bootcampquiz.sol\":1481:1489  _pass_id */\n      dup3\n        /* \"bootcampquiz.sol\":1465:1498  User(_name,_des,_pass_id,realVal) */\n      dup2\n      mstore\n      0x20\n      add\n        /* \"bootcampquiz.sol\":1490:1497  realVal */\n      0x02\n        /* \"bootcampquiz.sol\":1465:1498  User(_name,_des,_pass_id,realVal) */\n      dup1\n      sload\n      tag_28\n      swap1\n      tag_29\n      jump\t// in\n    tag_28:\n      dup1\n      0x1f\n      add\n      0x20\n      dup1\n      swap2\n      div\n      mul\n      0x20\n      add\n      mload(0x40)\n      swap1\n      dup2\n      add\n      0x40\n      mstore\n      dup1\n      swap3\n      swap2\n      swap1\n      dup2\n      dup2\n      mstore\n      0x20\n      add\n      dup3\n      dup1\n      sload\n      tag_30\n      swap1\n      tag_29\n      jump\t// in\n    tag_30:\n      dup1\n      iszero\n      tag_31\n      jumpi\n      dup1\n      0x1f\n      lt\n      tag_32\n      jumpi\n      0x0100\n      dup1\n      dup4\n      sload\n      div\n      mul\n      dup4\n      mstore\n      swap2\n      0x20\n      add\n      swap2\n      jump(tag_31)\n    tag_32:\n      dup3\n      add\n      swap2\n      swap1\n      0x00\n      mstore\n      keccak256(0x00, 0x20)\n      swap1\n    tag_33:\n      dup2\n      sload\n      dup2\n      mstore\n      swap1\n      0x01\n      add\n      swap1\n      0x20\n      add\n      dup1\n      dup4\n      gt\n      tag_33\n      jumpi\n      dup3\n      swap1\n      sub\n      0x1f\n      and\n      dup3\n      add\n      swap2\n    tag_31:\n      pop\n      pop\n      pop\n      pop\n      pop\n      dup2\n      mstore\n      pop\n        /* \"bootcampquiz.sol\":1446:1450  data */\n      0x03\n        /* \"bootcampquiz.sol\":1446:1462  data[msg.sender] */\n      0x00\n        /* \"bootcampquiz.sol\":1451:1461  msg.sender */\n      caller\n        /* \"bootcampquiz.sol\":1446:1462  data[msg.sender] */\n      0xffffffffffffffffffffffffffffffffffffffff\n      and\n      0xffffffffffffffffffffffffffffffffffffffff\n      and\n      dup2\n      mstore\n      0x20\n      add\n      swap1\n      dup2\n      mstore\n      0x20\n      add\n      0x00\n      keccak256\n        /* \"bootcampquiz.sol\":1446:1498  data[msg.sender] = User(_name,_des,_pass_id,realVal) */\n      0x00\n      dup3\n      add\n      mload\n      dup2\n      0x00\n      add\n      swap1\n      dup1\n      mload\n      swap1\n      0x20\n      add\n      swap1\n      tag_34\n      swap3\n      swap2\n      swap1\n      tag_35\n      jump\t// in\n    tag_34:\n      pop\n      0x20\n      dup3\n      add\n      mload\n      dup2\n      0x01\n      add\n      swap1\n      dup1\n      mload\n      swap1\n      0x20\n      add\n      swap1\n      tag_36\n      swap3\n      swap2\n      swap1\n      tag_35\n      jump\t// in\n    tag_36:\n      pop\n      0x40\n      dup3\n      add\n      mload\n      dup2\n      0x02\n      add\n      sstore\n      0x60\n      dup3\n      add\n      mload\n      dup2\n      0x03\n      add\n      swap1\n      dup1\n      mload\n      swap1\n      0x20\n      add\n      swap1\n      tag_37\n      swap3\n      swap2\n      swap1\n      tag_35\n      jump\t// in\n    tag_37:\n      pop\n      swap1\n      pop\n      pop\n        /* \"bootcampquiz.sol\":1288:1506  function setData(string memory _name, string memory _des, uint _pass_id) public {\r... */\n      pop\n      pop\n      pop\n      jump\t// out\n        /* \"bootcampquiz.sol\":705:984  function firstClass() public {\r... */\n    tag_13:\n        /* \"bootcampquiz.sol\":813:834  classTypes.firstClass */\n      0x00\n        /* \"bootcampquiz.sol\":809:811  u1 */\n      dup1\n      0x01\n        /* \"bootcampquiz.sol\":809:834  u1= classTypes.firstClass */\n      0x0100\n      exp\n      dup2\n      sload\n      dup2\n      0xff\n      mul\n      not\n      and\n      swap1\n      dup4\n      0x02\n      dup2\n      gt\n      iszero\n      tag_39\n      jumpi\n      tag_40\n      tag_41\n      jump\t// in\n    tag_40:\n    tag_39:\n      mul\n      or\n      swap1\n      sstore\n      pop\n        /* \"bootcampquiz.sol\":865:867  u1 */\n      0x00\n      0x01\n      swap1\n      sload\n      swap1\n      0x0100\n      exp\n      swap1\n      div\n      0xff\n      and\n        /* \"bootcampquiz.sol\":860:868  uint(u1) */\n      0x02\n      dup2\n      gt\n      iszero\n      tag_42\n      jumpi\n      tag_43\n      tag_41\n      jump\t// in\n    tag_43:\n    tag_42:\n        /* \"bootcampquiz.sol\":850:857  convert */\n      0x01\n        /* \"bootcampquiz.sol\":850:868  convert = uint(u1) */\n      dup2\n      swap1\n      sstore\n      pop\n        /* \"bootcampquiz.sol\":896:897  0 */\n      0x00\n        /* \"bootcampquiz.sol\":887:894  convert */\n      sload(0x01)\n        /* \"bootcampquiz.sol\":887:897  convert==0 */\n      eq\n        /* \"bootcampquiz.sol\":884:957  if(convert==0){\r... */\n      iszero\n      tag_44\n      jumpi\n        /* \"bootcampquiz.sol\":917:940  realVal = \"First Class\" */\n      mload(0x40)\n      dup1\n      0x40\n      add\n      0x40\n      mstore\n      dup1\n      0x0b\n      dup2\n      mstore\n      0x20\n      add\n      0x466972737420436c617373000000000000000000000000000000000000000000\n      dup2\n      mstore\n      pop\n        /* \"bootcampquiz.sol\":917:924  realVal */\n      0x02\n        /* \"bootcampquiz.sol\":917:940  realVal = \"First Class\" */\n      swap1\n      dup1\n      mload\n      swap1\n      0x20\n      add\n      swap1\n      tag_45\n      swap3\n      swap2\n      swap1\n      tag_35\n      jump\t// in\n    tag_45:\n      pop\n        /* \"bootcampquiz.sol\":884:957  if(convert==0){\r... */\n    tag_44:\n        /* \"bootcampquiz.sol\":972:976  true */\n      0x01\n        /* \"bootcampquiz.sol\":963:969  booked */\n      0x00\n      dup1\n        /* \"bootcampquiz.sol\":963:976  booked = true */\n      0x0100\n      exp\n      dup2\n      sload\n      dup2\n      0xff\n      mul\n      not\n      and\n      swap1\n      dup4\n      iszero\n      iszero\n      mul\n      or\n      swap1\n      sstore\n      pop\n        /* \"bootcampquiz.sol\":705:984  function firstClass() public {\r... */\n      jump\t// out\n        /* \"bootcampquiz.sol\":420:695  function economyClass() public {\r... */\n    tag_15:\n        /* \"bootcampquiz.sol\":529:552  classTypes.economyClass */\n      0x01\n        /* \"bootcampquiz.sol\":525:527  u1 */\n      0x00\n      0x01\n        /* \"bootcampquiz.sol\":525:552  u1= classTypes.economyClass */\n      0x0100\n      exp\n      dup2\n      sload\n      dup2\n      0xff\n      mul\n      not\n      and\n      swap1\n      dup4\n      0x02\n      dup2\n      gt\n      iszero\n      tag_47\n      jumpi\n      tag_48\n      tag_41\n      jump\t// in\n    tag_48:\n    tag_47:\n      mul\n      or\n      swap1\n      sstore\n      pop\n        /* \"bootcampquiz.sol\":578:580  u1 */\n      0x00\n      0x01\n      swap1\n      sload\n      swap1\n      0x0100\n      exp\n      swap1\n      div\n      0xff\n      and\n        /* \"bootcampquiz.sol\":573:581  uint(u1) */\n      0x02\n      dup2\n      gt\n      iszero\n      tag_49\n      jumpi\n      tag_50\n      tag_41\n      jump\t// in\n    tag_50:\n    tag_49:\n        /* \"bootcampquiz.sol\":563:570  convert */\n      0x01\n        /* \"bootcampquiz.sol\":563:581  convert = uint(u1) */\n      dup2\n      swap1\n      sstore\n      pop\n        /* \"bootcampquiz.sol\":604:605  1 */\n      0x01\n        /* \"bootcampquiz.sol\":595:602  convert */\n      dup1\n      sload\n        /* \"bootcampquiz.sol\":595:605  convert==1 */\n      eq\n        /* \"bootcampquiz.sol\":592:663  if(convert==1){\r... */\n      iszero\n      tag_51\n      jumpi\n        /* \"bootcampquiz.sol\":621:646  realVal = \"Economy Class\" */\n      mload(0x40)\n      dup1\n      0x40\n      add\n      0x40\n      mstore\n      dup1\n      0x0d\n      dup2\n      mstore\n      0x20\n      add\n      0x45636f6e6f6d7920436c61737300000000000000000000000000000000000000\n      dup2\n      mstore\n      pop\n        /* \"bootcampquiz.sol\":621:628  realVal */\n      0x02\n        /* \"bootcampquiz.sol\":621:646  realVal = \"Economy Class\" */\n      swap1\n      dup1\n      mload\n      swap1\n      0x20\n      add\n      swap1\n      tag_52\n      swap3\n      swap2\n      swap1\n      tag_35\n      jump\t// in\n    tag_52:\n      pop\n        /* \"bootcampquiz.sol\":592:663  if(convert==1){\r... */\n    tag_51:\n        /* \"bootcampquiz.sol\":683:687  true */\n      0x01\n        /* \"bootcampquiz.sol\":674:680  booked */\n      0x00\n      dup1\n        /* \"bootcampquiz.sol\":674:687  booked = true */\n      0x0100\n      exp\n      dup2\n      sload\n      dup2\n      0xff\n      mul\n      not\n      and\n      swap1\n      dup4\n      iszero\n      iszero\n      mul\n      or\n      swap1\n      sstore\n      pop\n        /* \"bootcampquiz.sol\":420:695  function economyClass() public {\r... */\n      jump\t// out\n        /* \"bootcampquiz.sol\":991:1276  function busnissClass() public {\r... */\n    tag_17:\n        /* \"bootcampquiz.sol\":1101:1124  classTypes.busnissClass */\n      0x02\n        /* \"bootcampquiz.sol\":1097:1099  u1 */\n      0x00\n      0x01\n        /* \"bootcampquiz.sol\":1097:1124  u1= classTypes.busnissClass */\n      0x0100\n      exp\n      dup2\n      sload\n      dup2\n      0xff\n      mul\n      not\n      and\n      swap1\n      dup4\n      0x02\n      dup2\n      gt\n      iszero\n      tag_54\n      jumpi\n      tag_55\n      tag_41\n      jump\t// in\n    tag_55:\n    tag_54:\n      mul\n      or\n      swap1\n      sstore\n      pop\n        /* \"bootcampquiz.sol\":1155:1157  u1 */\n      0x00\n      0x01\n      swap1\n      sload\n      swap1\n      0x0100\n      exp\n      swap1\n      div\n      0xff\n      and\n        /* \"bootcampquiz.sol\":1150:1158  uint(u1) */\n      0x02\n      dup2\n      gt\n      iszero\n      tag_56\n      jumpi\n      tag_57\n      tag_41\n      jump\t// in\n    tag_57:\n    tag_56:\n        /* \"bootcampquiz.sol\":1140:1147  convert */\n      0x01\n        /* \"bootcampquiz.sol\":1140:1158  convert = uint(u1) */\n      dup2\n      swap1\n      sstore\n      pop\n        /* \"bootcampquiz.sol\":1186:1187  2 */\n      0x02\n        /* \"bootcampquiz.sol\":1177:1184  convert */\n      sload(0x01)\n        /* \"bootcampquiz.sol\":1177:1187  convert==2 */\n      eq\n        /* \"bootcampquiz.sol\":1174:1249  if(convert==2){\r... */\n      iszero\n      tag_58\n      jumpi\n        /* \"bootcampquiz.sol\":1207:1232  realVal = \"Busniss Class\" */\n      mload(0x40)\n      dup1\n      0x40\n      add\n      0x40\n      mstore\n      dup1\n      0x0d\n      dup2\n      mstore\n      0x20\n      add\n      0x4275736e69737320436c61737300000000000000000000000000000000000000\n      dup2\n      mstore\n      pop\n        /* \"bootcampquiz.sol\":1207:1214  realVal */\n      0x02\n        /* \"bootcampquiz.sol\":1207:1232  realVal = \"Busniss Class\" */\n      swap1\n      dup1\n      mload\n      swap1\n      0x20\n      add\n      swap1\n      tag_59\n      swap3\n      swap2\n      swap1\n      tag_35\n      jump\t// in\n    tag_59:\n      pop\n        /* \"bootcampquiz.sol\":1174:1249  if(convert==2){\r... */\n    tag_58:\n        /* \"bootcampquiz.sol\":1264:1268  true */\n      0x01\n        /* \"bootcampquiz.sol\":1255:1261  booked */\n      0x00\n      dup1\n        /* \"bootcampquiz.sol\":1255:1268  booked = true */\n      0x0100\n      exp\n      dup2\n      sload\n      dup2\n      0xff\n      mul\n      not\n      and\n      swap1\n      dup4\n      iszero\n      iszero\n      mul\n      or\n      swap1\n      sstore\n      pop\n        /* \"bootcampquiz.sol\":991:1276  function busnissClass() public {\r... */\n      jump\t// out\n        /* \"bootcampquiz.sol\":376:413  mapping (address => User) public data */\n    tag_21:\n      mstore(0x20, 0x03)\n      dup1\n      0x00\n      mstore\n      keccak256(0x00, 0x40)\n      0x00\n      swap2\n      pop\n      swap1\n      pop\n      dup1\n      0x00\n      add\n      dup1\n      sload\n      tag_60\n      swap1\n      tag_29\n      jump\t// in\n    tag_60:\n      dup1\n      0x1f\n      add\n      0x20\n      dup1\n      swap2\n      div\n      mul\n      0x20\n      add\n      mload(0x40)\n      swap1\n      dup2\n      add\n      0x40\n      mstore\n      dup1\n      swap3\n      swap2\n      swap1\n      dup2\n      dup2\n      mstore\n      0x20\n      add\n      dup3\n      dup1\n      sload\n      tag_61\n      swap1\n      tag_29\n      jump\t// in\n    tag_61:\n      dup1\n      iszero\n      tag_62\n      jumpi\n      dup1\n      0x1f\n      lt\n      tag_63\n      jumpi\n      0x0100\n      dup1\n      dup4\n      sload\n      div\n      mul\n      dup4\n      mstore\n      swap2\n      0x20\n      add\n      swap2\n      jump(tag_62)\n    tag_63:\n      dup3\n      add\n      swap2\n      swap1\n      0x00\n      mstore\n      keccak256(0x00, 0x20)\n      swap1\n    tag_64:\n      dup2\n      sload\n      dup2\n      mstore\n      swap1\n      0x01\n      add\n      swap1\n      0x20\n      add\n      dup1\n      dup4\n      gt\n      tag_64\n      jumpi\n      dup3\n      swap1\n      sub\n      0x1f\n      and\n      dup3\n      add\n      swap2\n    tag_62:\n      pop\n      pop\n      pop\n      pop\n      pop\n      swap1\n      dup1\n      0x01\n      add\n      dup1\n      sload\n      tag_65\n      swap1\n      tag_29\n      jump\t// in\n    tag_65:\n      dup1\n      0x1f\n      add\n      0x20\n      dup1\n      swap2\n      div\n      mul\n      0x20\n      add\n      mload(0x40)\n      swap1\n      dup2\n      add\n      0x40\n      mstore\n      dup1\n      swap3\n      swap2\n      swap1\n      dup2\n      dup2\n      mstore\n      0x20\n      add\n      dup3\n      dup1\n      sload\n      tag_66\n      swap1\n      tag_29\n      jump\t// in\n    tag_66:\n      dup1\n      iszero\n      tag_67\n      jumpi\n      dup1\n      0x1f\n      lt\n      tag_68\n      jumpi\n      0x0100\n      dup1\n      dup4\n      sload\n      div\n      mul\n      dup4\n      mstore\n      swap2\n      0x20\n      add\n      swap2\n      jump(tag_67)\n    tag_68:\n      dup3\n      add\n      swap2\n      swap1\n      0x00\n      mstore\n      keccak256(0x00, 0x20)\n      swap1\n    tag_69:\n      dup2\n      sload\n      dup2\n      mstore\n      swap1\n      0x01\n      add\n      swap1\n      0x20\n      add\n      dup1\n      dup4\n      gt\n      tag_69\n      jumpi\n      dup3\n      swap1\n      sub\n      0x1f\n      and\n      dup3\n      add\n      swap2\n    tag_67:\n      pop\n      pop\n      pop\n      pop\n      pop\n      swap1\n      dup1\n      0x02\n      add\n      sload\n      swap1\n      dup1\n      0x03\n      add\n      dup1\n      sload\n      tag_70\n      swap1\n      tag_29\n      jump\t// in\n    tag_70:\n      dup1\n      0x1f\n      add\n      0x20\n      dup1\n      swap2\n      div\n      mul\n      0x20\n      add\n      mload(0x40)\n      swap1\n      dup2\n      add\n      0x40\n      mstore\n      dup1\n      swap3\n      swap2\n      swap1\n      dup2\n      dup2\n      mstore\n      0x20\n      add\n      dup3\n      dup1\n      sload\n      tag_71\n      swap1\n      tag_29\n      jump\t// in\n    tag_71:\n      dup1\n      iszero\n      tag_72\n      jumpi\n      dup1\n      0x1f\n      lt\n      tag_73\n      jumpi\n      0x0100\n      dup1\n      dup4\n      sload\n      div\n      mul\n      dup4\n      mstore\n      swap2\n      0x20\n      add\n      swap2\n      jump(tag_72)\n    tag_73:\n      dup3\n      add\n      swap2\n      swap1\n      0x00\n      mstore\n      keccak256(0x00, 0x20)\n      swap1\n    tag_74:\n      dup2\n      sload\n      dup2\n      mstore\n      swap1\n      0x01\n      add\n      swap1\n      0x20\n      add\n      dup1\n      dup4\n      gt\n      tag_74\n      jumpi\n      dup3\n      swap1\n      sub\n      0x1f\n      and\n      dup3\n      add\n      swap2\n    tag_72:\n      pop\n      pop\n      pop\n      pop\n      pop\n      swap1\n      pop\n      dup5\n      jump\t// out\n    tag_35:\n      dup3\n      dup1\n      sload\n      tag_75\n      swap1\n      tag_29\n      jump\t// in\n    tag_75:\n      swap1\n      0x00\n      mstore\n      keccak256(0x00, 0x20)\n      swap1\n      0x1f\n      add\n      0x20\n      swap1\n      div\n      dup2\n      add\n      swap3\n      dup3\n      tag_77\n      jumpi\n      0x00\n      dup6\n      sstore\n      jump(tag_76)\n    tag_77:\n      dup3\n      0x1f\n      lt\n      tag_78\n      jumpi\n      dup1\n      mload\n      not(0xff)\n      and\n      dup4\n      dup1\n      add\n      or\n      dup6\n      sstore\n      jump(tag_76)\n    tag_78:\n      dup3\n      dup1\n      add\n      0x01\n      add\n      dup6\n      sstore\n      dup3\n      iszero\n      tag_76\n      jumpi\n      swap2\n      dup3\n      add\n    tag_79:\n      dup3\n      dup2\n      gt\n      iszero\n      tag_80\n      jumpi\n      dup3\n      mload\n      dup3\n      sstore\n      swap2\n      0x20\n      add\n      swap2\n      swap1\n      0x01\n      add\n      swap1\n      jump(tag_79)\n    tag_80:\n    tag_76:\n      pop\n      swap1\n      pop\n      tag_81\n      swap2\n      swap1\n      tag_82\n      jump\t// in\n    tag_81:\n      pop\n      swap1\n      jump\t// out\n    tag_82:\n    tag_83:\n      dup1\n      dup3\n      gt\n      iszero\n      tag_84\n      jumpi\n      0x00\n      dup2\n      0x00\n      swap1\n      sstore\n      pop\n      0x01\n      add\n      jump(tag_83)\n    tag_84:\n      pop\n      swap1\n      jump\t// out\n        /* \"#utility.yul\":7:419   */\n    tag_86:\n        /* \"#utility.yul\":85:90   */\n      0x00\n        /* \"#utility.yul\":110:176   */\n      tag_88\n        /* \"#utility.yul\":126:175   */\n      tag_89\n        /* \"#utility.yul\":168:174   */\n      dup5\n        /* \"#utility.yul\":126:175   */\n      tag_90\n      jump\t// in\n    tag_89:\n        /* \"#utility.yul\":110:176   */\n      tag_91\n      jump\t// in\n    tag_88:\n        /* \"#utility.yul\":101:176   */\n      swap1\n      pop\n        /* \"#utility.yul\":199:205   */\n      dup3\n        /* \"#utility.yul\":192:197   */\n      dup2\n        /* \"#utility.yul\":185:206   */\n      mstore\n        /* \"#utility.yul\":237:241   */\n      0x20\n        /* \"#utility.yul\":230:235   */\n      dup2\n        /* \"#utility.yul\":226:242   */\n      add\n        /* \"#utility.yul\":275:278   */\n      dup5\n        /* \"#utility.yul\":266:272   */\n      dup5\n        /* \"#utility.yul\":261:264   */\n      dup5\n        /* \"#utility.yul\":257:273   */\n      add\n        /* \"#utility.yul\":254:279   */\n      gt\n        /* \"#utility.yul\":251:363   */\n      iszero\n      tag_92\n      jumpi\n        /* \"#utility.yul\":282:361   */\n      tag_93\n      tag_94\n      jump\t// in\n    tag_93:\n        /* \"#utility.yul\":251:363   */\n    tag_92:\n        /* \"#utility.yul\":372:413   */\n      tag_95\n        /* \"#utility.yul\":406:412   */\n      dup5\n        /* \"#utility.yul\":401:404   */\n      dup3\n        /* \"#utility.yul\":396:399   */\n      dup6\n        /* \"#utility.yul\":372:413   */\n      tag_96\n      jump\t// in\n    tag_95:\n        /* \"#utility.yul\":91:419   */\n      pop\n        /* \"#utility.yul\":7:419   */\n      swap4\n      swap3\n      pop\n      pop\n      pop\n      jump\t// out\n        /* \"#utility.yul\":425:564   */\n    tag_97:\n        /* \"#utility.yul\":471:476   */\n      0x00\n        /* \"#utility.yul\":509:515   */\n      dup2\n        /* \"#utility.yul\":496:516   */\n      calldataload\n        /* \"#utility.yul\":487:516   */\n      swap1\n      pop\n        /* \"#utility.yul\":525:558   */\n      tag_99\n        /* \"#utility.yul\":552:557   */\n      dup2\n        /* \"#utility.yul\":525:558   */\n      tag_100\n      jump\t// in\n    tag_99:\n        /* \"#utility.yul\":425:564   */\n      swap3\n      swap2\n      pop\n      pop\n      jump\t// out\n        /* \"#utility.yul\":584:924   */\n    tag_101:\n        /* \"#utility.yul\":640:645   */\n      0x00\n        /* \"#utility.yul\":689:692   */\n      dup3\n        /* \"#utility.yul\":682:686   */\n      0x1f\n        /* \"#utility.yul\":674:680   */\n      dup4\n        /* \"#utility.yul\":670:687   */\n      add\n        /* \"#utility.yul\":666:693   */\n      slt\n        /* \"#utility.yul\":656:778   */\n      tag_103\n      jumpi\n        /* \"#utility.yul\":697:776   */\n      tag_104\n      tag_105\n      jump\t// in\n    tag_104:\n        /* \"#utility.yul\":656:778   */\n    tag_103:\n        /* \"#utility.yul\":814:820   */\n      dup2\n        /* \"#utility.yul\":801:821   */\n      calldataload\n        /* \"#utility.yul\":839:918   */\n      tag_106\n        /* \"#utility.yul\":914:917   */\n      dup5\n        /* \"#utility.yul\":906:912   */\n      dup3\n        /* \"#utility.yul\":899:903   */\n      0x20\n        /* \"#utility.yul\":891:897   */\n      dup7\n        /* \"#utility.yul\":887:904   */\n      add\n        /* \"#utility.yul\":839:918   */\n      tag_86\n      jump\t// in\n    tag_106:\n        /* \"#utility.yul\":830:918   */\n      swap2\n      pop\n        /* \"#utility.yul\":646:924   */\n      pop\n        /* \"#utility.yul\":584:924   */\n      swap3\n      swap2\n      pop\n      pop\n      jump\t// out\n        /* \"#utility.yul\":930:1069   */\n    tag_107:\n        /* \"#utility.yul\":976:981   */\n      0x00\n        /* \"#utility.yul\":1014:1020   */\n      dup2\n        /* \"#utility.yul\":1001:1021   */\n      calldataload\n        /* \"#utility.yul\":992:1021   */\n      swap1\n      pop\n        /* \"#utility.yul\":1030:1063   */\n      tag_109\n        /* \"#utility.yul\":1057:1062   */\n      dup2\n        /* \"#utility.yul\":1030:1063   */\n      tag_110\n      jump\t// in\n    tag_109:\n        /* \"#utility.yul\":930:1069   */\n      swap3\n      swap2\n      pop\n      pop\n      jump\t// out\n        /* \"#utility.yul\":1075:1404   */\n    tag_20:\n        /* \"#utility.yul\":1134:1140   */\n      0x00\n        /* \"#utility.yul\":1183:1185   */\n      0x20\n        /* \"#utility.yul\":1171:1180   */\n      dup3\n        /* \"#utility.yul\":1162:1169   */\n      dup5\n        /* \"#utility.yul\":1158:1181   */\n      sub\n        /* \"#utility.yul\":1154:1186   */\n      slt\n        /* \"#utility.yul\":1151:1270   */\n      iszero\n      tag_112\n      jumpi\n        /* \"#utility.yul\":1189:1268   */\n      tag_113\n      tag_114\n      jump\t// in\n    tag_113:\n        /* \"#utility.yul\":1151:1270   */\n    tag_112:\n        /* \"#utility.yul\":1309:1310   */\n      0x00\n        /* \"#utility.yul\":1334:1387   */\n      tag_115\n        /* \"#utility.yul\":1379:1386   */\n      dup5\n        /* \"#utility.yul\":1370:1376   */\n      dup3\n        /* \"#utility.yul\":1359:1368   */\n      dup6\n        /* \"#utility.yul\":1355:1377   */\n      add\n        /* \"#utility.yul\":1334:1387   */\n      tag_97\n      jump\t// in\n    tag_115:\n        /* \"#utility.yul\":1324:1387   */\n      swap2\n      pop\n        /* \"#utility.yul\":1280:1397   */\n      pop\n        /* \"#utility.yul\":1075:1404   */\n      swap3\n      swap2\n      pop\n      pop\n      jump\t// out\n        /* \"#utility.yul\":1410:2389   */\n    tag_10:\n        /* \"#utility.yul\":1507:1513   */\n      0x00\n        /* \"#utility.yul\":1515:1521   */\n      dup1\n        /* \"#utility.yul\":1523:1529   */\n      0x00\n        /* \"#utility.yul\":1572:1574   */\n      0x60\n        /* \"#utility.yul\":1560:1569   */\n      dup5\n        /* \"#utility.yul\":1551:1558   */\n      dup7\n        /* \"#utility.yul\":1547:1570   */\n      sub\n        /* \"#utility.yul\":1543:1575   */\n      slt\n        /* \"#utility.yul\":1540:1659   */\n      iszero\n      tag_117\n      jumpi\n        /* \"#utility.yul\":1578:1657   */\n      tag_118\n      tag_114\n      jump\t// in\n    tag_118:\n        /* \"#utility.yul\":1540:1659   */\n    tag_117:\n        /* \"#utility.yul\":1726:1727   */\n      0x00\n        /* \"#utility.yul\":1715:1724   */\n      dup5\n        /* \"#utility.yul\":1711:1728   */\n      add\n        /* \"#utility.yul\":1698:1729   */\n      calldataload\n        /* \"#utility.yul\":1756:1774   */\n      0xffffffffffffffff\n        /* \"#utility.yul\":1748:1754   */\n      dup2\n        /* \"#utility.yul\":1745:1775   */\n      gt\n        /* \"#utility.yul\":1742:1859   */\n      iszero\n      tag_119\n      jumpi\n        /* \"#utility.yul\":1778:1857   */\n      tag_120\n      tag_121\n      jump\t// in\n    tag_120:\n        /* \"#utility.yul\":1742:1859   */\n    tag_119:\n        /* \"#utility.yul\":1883:1946   */\n      tag_122\n        /* \"#utility.yul\":1938:1945   */\n      dup7\n        /* \"#utility.yul\":1929:1935   */\n      dup3\n        /* \"#utility.yul\":1918:1927   */\n      dup8\n        /* \"#utility.yul\":1914:1936   */\n      add\n        /* \"#utility.yul\":1883:1946   */\n      tag_101\n      jump\t// in\n    tag_122:\n        /* \"#utility.yul\":1873:1946   */\n      swap4\n      pop\n        /* \"#utility.yul\":1669:1956   */\n      pop\n        /* \"#utility.yul\":2023:2025   */\n      0x20\n        /* \"#utility.yul\":2012:2021   */\n      dup5\n        /* \"#utility.yul\":2008:2026   */\n      add\n        /* \"#utility.yul\":1995:2027   */\n      calldataload\n        /* \"#utility.yul\":2054:2072   */\n      0xffffffffffffffff\n        /* \"#utility.yul\":2046:2052   */\n      dup2\n        /* \"#utility.yul\":2043:2073   */\n      gt\n        /* \"#utility.yul\":2040:2157   */\n      iszero\n      tag_123\n      jumpi\n        /* \"#utility.yul\":2076:2155   */\n      tag_124\n      tag_121\n      jump\t// in\n    tag_124:\n        /* \"#utility.yul\":2040:2157   */\n    tag_123:\n        /* \"#utility.yul\":2181:2244   */\n      tag_125\n        /* \"#utility.yul\":2236:2243   */\n      dup7\n        /* \"#utility.yul\":2227:2233   */\n      dup3\n        /* \"#utility.yul\":2216:2225   */\n      dup8\n        /* \"#utility.yul\":2212:2234   */\n      add\n        /* \"#utility.yul\":2181:2244   */\n      tag_101\n      jump\t// in\n    tag_125:\n        /* \"#utility.yul\":2171:2244   */\n      swap3\n      pop\n        /* \"#utility.yul\":1966:2254   */\n      pop\n        /* \"#utility.yul\":2293:2295   */\n      0x40\n        /* \"#utility.yul\":2319:2372   */\n      tag_126\n        /* \"#utility.yul\":2364:2371   */\n      dup7\n        /* \"#utility.yul\":2355:2361   */\n      dup3\n        /* \"#utility.yul\":2344:2353   */\n      dup8\n        /* \"#utility.yul\":2340:2362   */\n      add\n        /* \"#utility.yul\":2319:2372   */\n      tag_107\n      jump\t// in\n    tag_126:\n        /* \"#utility.yul\":2309:2372   */\n      swap2\n      pop\n        /* \"#utility.yul\":2264:2382   */\n      pop\n        /* \"#utility.yul\":1410:2389   */\n      swap3\n      pop\n      swap3\n      pop\n      swap3\n      jump\t// out\n        /* \"#utility.yul\":2395:2759   */\n    tag_127:\n        /* \"#utility.yul\":2483:2486   */\n      0x00\n        /* \"#utility.yul\":2511:2550   */\n      tag_129\n        /* \"#utility.yul\":2544:2549   */\n      dup3\n        /* \"#utility.yul\":2511:2550   */\n      tag_130\n      jump\t// in\n    tag_129:\n        /* \"#utility.yul\":2566:2637   */\n      tag_131\n        /* \"#utility.yul\":2630:2636   */\n      dup2\n        /* \"#utility.yul\":2625:2628   */\n      dup6\n        /* \"#utility.yul\":2566:2637   */\n      tag_132\n      jump\t// in\n    tag_131:\n        /* \"#utility.yul\":2559:2637   */\n      swap4\n      pop\n        /* \"#utility.yul\":2646:2698   */\n      tag_133\n        /* \"#utility.yul\":2691:2697   */\n      dup2\n        /* \"#utility.yul\":2686:2689   */\n      dup6\n        /* \"#utility.yul\":2679:2683   */\n      0x20\n        /* \"#utility.yul\":2672:2677   */\n      dup7\n        /* \"#utility.yul\":2668:2684   */\n      add\n        /* \"#utility.yul\":2646:2698   */\n      tag_134\n      jump\t// in\n    tag_133:\n        /* \"#utility.yul\":2723:2752   */\n      tag_135\n        /* \"#utility.yul\":2745:2751   */\n      dup2\n        /* \"#utility.yul\":2723:2752   */\n      tag_136\n      jump\t// in\n    tag_135:\n        /* \"#utility.yul\":2718:2721   */\n      dup5\n        /* \"#utility.yul\":2714:2753   */\n      add\n        /* \"#utility.yul\":2707:2753   */\n      swap2\n      pop\n        /* \"#utility.yul\":2487:2759   */\n      pop\n        /* \"#utility.yul\":2395:2759   */\n      swap3\n      swap2\n      pop\n      pop\n      jump\t// out\n        /* \"#utility.yul\":2765:3131   */\n    tag_137:\n        /* \"#utility.yul\":2907:2910   */\n      0x00\n        /* \"#utility.yul\":2928:2995   */\n      tag_139\n        /* \"#utility.yul\":2992:2994   */\n      0x1d\n        /* \"#utility.yul\":2987:2990   */\n      dup4\n        /* \"#utility.yul\":2928:2995   */\n      tag_132\n      jump\t// in\n    tag_139:\n        /* \"#utility.yul\":2921:2995   */\n      swap2\n      pop\n        /* \"#utility.yul\":3004:3097   */\n      tag_140\n        /* \"#utility.yul\":3093:3096   */\n      dup3\n        /* \"#utility.yul\":3004:3097   */\n      tag_141\n      jump\t// in\n    tag_140:\n        /* \"#utility.yul\":3122:3124   */\n      0x20\n        /* \"#utility.yul\":3117:3120   */\n      dup3\n        /* \"#utility.yul\":3113:3125   */\n      add\n        /* \"#utility.yul\":3106:3125   */\n      swap1\n      pop\n        /* \"#utility.yul\":2765:3131   */\n      swap2\n      swap1\n      pop\n      jump\t// out\n        /* \"#utility.yul\":3137:3255   */\n    tag_142:\n        /* \"#utility.yul\":3224:3248   */\n      tag_144\n        /* \"#utility.yul\":3242:3247   */\n      dup2\n        /* \"#utility.yul\":3224:3248   */\n      tag_145\n      jump\t// in\n    tag_144:\n        /* \"#utility.yul\":3219:3222   */\n      dup3\n        /* \"#utility.yul\":3212:3249   */\n      mstore\n        /* \"#utility.yul\":3137:3255   */\n      pop\n      pop\n      jump\t// out\n        /* \"#utility.yul\":3261:4087   */\n    tag_23:\n        /* \"#utility.yul\":3498:3502   */\n      0x00\n        /* \"#utility.yul\":3536:3539   */\n      0x80\n        /* \"#utility.yul\":3525:3534   */\n      dup3\n        /* \"#utility.yul\":3521:3540   */\n      add\n        /* \"#utility.yul\":3513:3540   */\n      swap1\n      pop\n        /* \"#utility.yul\":3586:3595   */\n      dup2\n        /* \"#utility.yul\":3580:3584   */\n      dup2\n        /* \"#utility.yul\":3576:3596   */\n      sub\n        /* \"#utility.yul\":3572:3573   */\n      0x00\n        /* \"#utility.yul\":3561:3570   */\n      dup4\n        /* \"#utility.yul\":3557:3574   */\n      add\n        /* \"#utility.yul\":3550:3597   */\n      mstore\n        /* \"#utility.yul\":3614:3692   */\n      tag_147\n        /* \"#utility.yul\":3687:3691   */\n      dup2\n        /* \"#utility.yul\":3678:3684   */\n      dup8\n        /* \"#utility.yul\":3614:3692   */\n      tag_127\n      jump\t// in\n    tag_147:\n        /* \"#utility.yul\":3606:3692   */\n      swap1\n      pop\n        /* \"#utility.yul\":3739:3748   */\n      dup2\n        /* \"#utility.yul\":3733:3737   */\n      dup2\n        /* \"#utility.yul\":3729:3749   */\n      sub\n        /* \"#utility.yul\":3724:3726   */\n      0x20\n        /* \"#utility.yul\":3713:3722   */\n      dup4\n        /* \"#utility.yul\":3709:3727   */\n      add\n        /* \"#utility.yul\":3702:3750   */\n      mstore\n        /* \"#utility.yul\":3767:3845   */\n      tag_148\n        /* \"#utility.yul\":3840:3844   */\n      dup2\n        /* \"#utility.yul\":3831:3837   */\n      dup7\n        /* \"#utility.yul\":3767:3845   */\n      tag_127\n      jump\t// in\n    tag_148:\n        /* \"#utility.yul\":3759:3845   */\n      swap1\n      pop\n        /* \"#utility.yul\":3855:3927   */\n      tag_149\n        /* \"#utility.yul\":3923:3925   */\n      0x40\n        /* \"#utility.yul\":3912:3921   */\n      dup4\n        /* \"#utility.yul\":3908:3926   */\n      add\n        /* \"#utility.yul\":3899:3905   */\n      dup6\n        /* \"#utility.yul\":3855:3927   */\n      tag_142\n      jump\t// in\n    tag_149:\n        /* \"#utility.yul\":3974:3983   */\n      dup2\n        /* \"#utility.yul\":3968:3972   */\n      dup2\n        /* \"#utility.yul\":3964:3984   */\n      sub\n        /* \"#utility.yul\":3959:3961   */\n      0x60\n        /* \"#utility.yul\":3948:3957   */\n      dup4\n        /* \"#utility.yul\":3944:3962   */\n      add\n        /* \"#utility.yul\":3937:3985   */\n      mstore\n        /* \"#utility.yul\":4002:4080   */\n      tag_150\n        /* \"#utility.yul\":4075:4079   */\n      dup2\n        /* \"#utility.yul\":4066:4072   */\n      dup5\n        /* \"#utility.yul\":4002:4080   */\n      tag_127\n      jump\t// in\n    tag_150:\n        /* \"#utility.yul\":3994:4080   */\n      swap1\n      pop\n        /* \"#utility.yul\":3261:4087   */\n      swap6\n      swap5\n      pop\n      pop\n      pop\n      pop\n      pop\n      jump\t// out\n        /* \"#utility.yul\":4093:4512   */\n    tag_27:\n        /* \"#utility.yul\":4259:4263   */\n      0x00\n        /* \"#utility.yul\":4297:4299   */\n      0x20\n        /* \"#utility.yul\":4286:4295   */\n      dup3\n        /* \"#utility.yul\":4282:4300   */\n      add\n        /* \"#utility.yul\":4274:4300   */\n      swap1\n      pop\n        /* \"#utility.yul\":4346:4355   */\n      dup2\n        /* \"#utility.yul\":4340:4344   */\n      dup2\n        /* \"#utility.yul\":4336:4356   */\n      sub\n        /* \"#utility.yul\":4332:4333   */\n      0x00\n        /* \"#utility.yul\":4321:4330   */\n      dup4\n        /* \"#utility.yul\":4317:4334   */\n      add\n        /* \"#utility.yul\":4310:4357   */\n      mstore\n        /* \"#utility.yul\":4374:4505   */\n      tag_152\n        /* \"#utility.yul\":4500:4504   */\n      dup2\n        /* \"#utility.yul\":4374:4505   */\n      tag_137\n      jump\t// in\n    tag_152:\n        /* \"#utility.yul\":4366:4505   */\n      swap1\n      pop\n        /* \"#utility.yul\":4093:4512   */\n      swap2\n      swap1\n      pop\n      jump\t// out\n        /* \"#utility.yul\":4518:4647   */\n    tag_91:\n        /* \"#utility.yul\":4552:4558   */\n      0x00\n        /* \"#utility.yul\":4579:4599   */\n      tag_154\n      tag_155\n      jump\t// in\n    tag_154:\n        /* \"#utility.yul\":4569:4599   */\n      swap1\n      pop\n        /* \"#utility.yul\":4608:4641   */\n      tag_156\n        /* \"#utility.yul\":4636:4640   */\n      dup3\n        /* \"#utility.yul\":4628:4634   */\n      dup3\n        /* \"#utility.yul\":4608:4641   */\n      tag_157\n      jump\t// in\n    tag_156:\n        /* \"#utility.yul\":4518:4647   */\n      swap2\n      swap1\n      pop\n      jump\t// out\n        /* \"#utility.yul\":4653:4728   */\n    tag_155:\n        /* \"#utility.yul\":4686:4692   */\n      0x00\n        /* \"#utility.yul\":4719:4721   */\n      0x40\n        /* \"#utility.yul\":4713:4722   */\n      mload\n        /* \"#utility.yul\":4703:4722   */\n      swap1\n      pop\n        /* \"#utility.yul\":4653:4728   */\n      swap1\n      jump\t// out\n        /* \"#utility.yul\":4734:5042   */\n    tag_90:\n        /* \"#utility.yul\":4796:4800   */\n      0x00\n        /* \"#utility.yul\":4886:4904   */\n      0xffffffffffffffff\n        /* \"#utility.yul\":4878:4884   */\n      dup3\n        /* \"#utility.yul\":4875:4905   */\n      gt\n        /* \"#utility.yul\":4872:4928   */\n      iszero\n      tag_160\n      jumpi\n        /* \"#utility.yul\":4908:4926   */\n      tag_161\n      tag_162\n      jump\t// in\n    tag_161:\n        /* \"#utility.yul\":4872:4928   */\n    tag_160:\n        /* \"#utility.yul\":4946:4975   */\n      tag_163\n        /* \"#utility.yul\":4968:4974   */\n      dup3\n        /* \"#utility.yul\":4946:4975   */\n      tag_136\n      jump\t// in\n    tag_163:\n        /* \"#utility.yul\":4938:4975   */\n      swap1\n      pop\n        /* \"#utility.yul\":5030:5034   */\n      0x20\n        /* \"#utility.yul\":5024:5028   */\n      dup2\n        /* \"#utility.yul\":5020:5035   */\n      add\n        /* \"#utility.yul\":5012:5035   */\n      swap1\n      pop\n        /* \"#utility.yul\":4734:5042   */\n      swap2\n      swap1\n      pop\n      jump\t// out\n        /* \"#utility.yul\":5048:5147   */\n    tag_130:\n        /* \"#utility.yul\":5100:5106   */\n      0x00\n        /* \"#utility.yul\":5134:5139   */\n      dup2\n        /* \"#utility.yul\":5128:5140   */\n      mload\n        /* \"#utility.yul\":5118:5140   */\n      swap1\n      pop\n        /* \"#utility.yul\":5048:5147   */\n      swap2\n      swap1\n      pop\n      jump\t// out\n        /* \"#utility.yul\":5153:5322   */\n    tag_132:\n        /* \"#utility.yul\":5237:5248   */\n      0x00\n        /* \"#utility.yul\":5271:5277   */\n      dup3\n        /* \"#utility.yul\":5266:5269   */\n      dup3\n        /* \"#utility.yul\":5259:5278   */\n      mstore\n        /* \"#utility.yul\":5311:5315   */\n      0x20\n        /* \"#utility.yul\":5306:5309   */\n      dup3\n        /* \"#utility.yul\":5302:5316   */\n      add\n        /* \"#utility.yul\":5287:5316   */\n      swap1\n      pop\n        /* \"#utility.yul\":5153:5322   */\n      swap3\n      swap2\n      pop\n      pop\n      jump\t// out\n        /* \"#utility.yul\":5328:5424   */\n    tag_166:\n        /* \"#utility.yul\":5365:5372   */\n      0x00\n        /* \"#utility.yul\":5394:5418   */\n      tag_168\n        /* \"#utility.yul\":5412:5417   */\n      dup3\n        /* \"#utility.yul\":5394:5418   */\n      tag_169\n      jump\t// in\n    tag_168:\n        /* \"#utility.yul\":5383:5418   */\n      swap1\n      pop\n        /* \"#utility.yul\":5328:5424   */\n      swap2\n      swap1\n      pop\n      jump\t// out\n        /* \"#utility.yul\":5430:5556   */\n    tag_169:\n        /* \"#utility.yul\":5467:5474   */\n      0x00\n        /* \"#utility.yul\":5507:5549   */\n      0xffffffffffffffffffffffffffffffffffffffff\n        /* \"#utility.yul\":5500:5505   */\n      dup3\n        /* \"#utility.yul\":5496:5550   */\n      and\n        /* \"#utility.yul\":5485:5550   */\n      swap1\n      pop\n        /* \"#utility.yul\":5430:5556   */\n      swap2\n      swap1\n      pop\n      jump\t// out\n        /* \"#utility.yul\":5562:5639   */\n    tag_145:\n        /* \"#utility.yul\":5599:5606   */\n      0x00\n        /* \"#utility.yul\":5628:5633   */\n      dup2\n        /* \"#utility.yul\":5617:5633   */\n      swap1\n      pop\n        /* \"#utility.yul\":5562:5639   */\n      swap2\n      swap1\n      pop\n      jump\t// out\n        /* \"#utility.yul\":5645:5799   */\n    tag_96:\n        /* \"#utility.yul\":5729:5735   */\n      dup3\n        /* \"#utility.yul\":5724:5727   */\n      dup2\n        /* \"#utility.yul\":5719:5722   */\n      dup4\n        /* \"#utility.yul\":5706:5736   */\n      calldatacopy\n        /* \"#utility.yul\":5791:5792   */\n      0x00\n        /* \"#utility.yul\":5782:5788   */\n      dup4\n        /* \"#utility.yul\":5777:5780   */\n      dup4\n        /* \"#utility.yul\":5773:5789   */\n      add\n        /* \"#utility.yul\":5766:5793   */\n      mstore\n        /* \"#utility.yul\":5645:5799   */\n      pop\n      pop\n      pop\n      jump\t// out\n        /* \"#utility.yul\":5805:6112   */\n    tag_134:\n        /* \"#utility.yul\":5873:5874   */\n      0x00\n        /* \"#utility.yul\":5883:5996   */\n    tag_174:\n        /* \"#utility.yul\":5897:5903   */\n      dup4\n        /* \"#utility.yul\":5894:5895   */\n      dup2\n        /* \"#utility.yul\":5891:5904   */\n      lt\n        /* \"#utility.yul\":5883:5996   */\n      iszero\n      tag_176\n      jumpi\n        /* \"#utility.yul\":5982:5983   */\n      dup1\n        /* \"#utility.yul\":5977:5980   */\n      dup3\n        /* \"#utility.yul\":5973:5984   */\n      add\n        /* \"#utility.yul\":5967:5985   */\n      mload\n        /* \"#utility.yul\":5963:5964   */\n      dup2\n        /* \"#utility.yul\":5958:5961   */\n      dup5\n        /* \"#utility.yul\":5954:5965   */\n      add\n        /* \"#utility.yul\":5947:5986   */\n      mstore\n        /* \"#utility.yul\":5919:5921   */\n      0x20\n        /* \"#utility.yul\":5916:5917   */\n      dup2\n        /* \"#utility.yul\":5912:5922   */\n      add\n        /* \"#utility.yul\":5907:5922   */\n      swap1\n      pop\n        /* \"#utility.yul\":5883:5996   */\n      jump(tag_174)\n    tag_176:\n        /* \"#utility.yul\":6014:6020   */\n      dup4\n        /* \"#utility.yul\":6011:6012   */\n      dup2\n        /* \"#utility.yul\":6008:6021   */\n      gt\n        /* \"#utility.yul\":6005:6106   */\n      iszero\n      tag_177\n      jumpi\n        /* \"#utility.yul\":6094:6095   */\n      0x00\n        /* \"#utility.yul\":6085:6091   */\n      dup5\n        /* \"#utility.yul\":6080:6083   */\n      dup5\n        /* \"#utility.yul\":6076:6092   */\n      add\n        /* \"#utility.yul\":6069:6096   */\n      mstore\n        /* \"#utility.yul\":6005:6106   */\n    tag_177:\n        /* \"#utility.yul\":5854:6112   */\n      pop\n        /* \"#utility.yul\":5805:6112   */\n      pop\n      pop\n      pop\n      jump\t// out\n        /* \"#utility.yul\":6118:6438   */\n    tag_29:\n        /* \"#utility.yul\":6162:6168   */\n      0x00\n        /* \"#utility.yul\":6199:6200   */\n      0x02\n        /* \"#utility.yul\":6193:6197   */\n      dup3\n        /* \"#utility.yul\":6189:6201   */\n      div\n        /* \"#utility.yul\":6179:6201   */\n      swap1\n      pop\n        /* \"#utility.yul\":6246:6247   */\n      0x01\n        /* \"#utility.yul\":6240:6244   */\n      dup3\n        /* \"#utility.yul\":6236:6248   */\n      and\n        /* \"#utility.yul\":6267:6285   */\n      dup1\n        /* \"#utility.yul\":6257:6338   */\n      tag_179\n      jumpi\n        /* \"#utility.yul\":6323:6327   */\n      0x7f\n        /* \"#utility.yul\":6315:6321   */\n      dup3\n        /* \"#utility.yul\":6311:6328   */\n      and\n        /* \"#utility.yul\":6301:6328   */\n      swap2\n      pop\n        /* \"#utility.yul\":6257:6338   */\n    tag_179:\n        /* \"#utility.yul\":6385:6387   */\n      0x20\n        /* \"#utility.yul\":6377:6383   */\n      dup3\n        /* \"#utility.yul\":6374:6388   */\n      lt\n        /* \"#utility.yul\":6354:6372   */\n      dup2\n        /* \"#utility.yul\":6351:6389   */\n      eq\n        /* \"#utility.yul\":6348:6432   */\n      iszero\n      tag_180\n      jumpi\n        /* \"#utility.yul\":6404:6422   */\n      tag_181\n      tag_182\n      jump\t// in\n    tag_181:\n        /* \"#utility.yul\":6348:6432   */\n    tag_180:\n        /* \"#utility.yul\":6169:6438   */\n      pop\n        /* \"#utility.yul\":6118:6438   */\n      swap2\n      swap1\n      pop\n      jump\t// out\n        /* \"#utility.yul\":6444:6725   */\n    tag_157:\n        /* \"#utility.yul\":6527:6554   */\n      tag_184\n        /* \"#utility.yul\":6549:6553   */\n      dup3\n        /* \"#utility.yul\":6527:6554   */\n      tag_136\n      jump\t// in\n    tag_184:\n        /* \"#utility.yul\":6519:6525   */\n      dup2\n        /* \"#utility.yul\":6515:6555   */\n      add\n        /* \"#utility.yul\":6657:6663   */\n      dup2\n        /* \"#utility.yul\":6645:6655   */\n      dup2\n        /* \"#utility.yul\":6642:6664   */\n      lt\n        /* \"#utility.yul\":6621:6639   */\n      0xffffffffffffffff\n        /* \"#utility.yul\":6609:6619   */\n      dup3\n        /* \"#utility.yul\":6606:6640   */\n      gt\n        /* \"#utility.yul\":6603:6665   */\n      or\n        /* \"#utility.yul\":6600:6688   */\n      iszero\n      tag_185\n      jumpi\n        /* \"#utility.yul\":6668:6686   */\n      tag_186\n      tag_162\n      jump\t// in\n    tag_186:\n        /* \"#utility.yul\":6600:6688   */\n    tag_185:\n        /* \"#utility.yul\":6708:6718   */\n      dup1\n        /* \"#utility.yul\":6704:6706   */\n      0x40\n        /* \"#utility.yul\":6697:6719   */\n      mstore\n        /* \"#utility.yul\":6487:6725   */\n      pop\n        /* \"#utility.yul\":6444:6725   */\n      pop\n      pop\n      jump\t// out\n        /* \"#utility.yul\":6731:6911   */\n    tag_41:\n        /* \"#utility.yul\":6779:6856   */\n      0x4e487b7100000000000000000000000000000000000000000000000000000000\n        /* \"#utility.yul\":6776:6777   */\n      0x00\n        /* \"#utility.yul\":6769:6857   */\n      mstore\n        /* \"#utility.yul\":6876:6880   */\n      0x21\n        /* \"#utility.yul\":6873:6874   */\n      0x04\n        /* \"#utility.yul\":6866:6881   */\n      mstore\n        /* \"#utility.yul\":6900:6904   */\n      0x24\n        /* \"#utility.yul\":6897:6898   */\n      0x00\n        /* \"#utility.yul\":6890:6905   */\n      revert\n        /* \"#utility.yul\":6917:7097   */\n    tag_182:\n        /* \"#utility.yul\":6965:7042   */\n      0x4e487b7100000000000000000000000000000000000000000000000000000000\n        /* \"#utility.yul\":6962:6963   */\n      0x00\n        /* \"#utility.yul\":6955:7043   */\n      mstore\n        /* \"#utility.yul\":7062:7066   */\n      0x22\n        /* \"#utility.yul\":7059:7060   */\n      0x04\n        /* \"#utility.yul\":7052:7067   */\n      mstore\n        /* \"#utility.yul\":7086:7090   */\n      0x24\n        /* \"#utility.yul\":7083:7084   */\n      0x00\n        /* \"#utility.yul\":7076:7091   */\n      revert\n        /* \"#utility.yul\":7103:7283   */\n    tag_162:\n        /* \"#utility.yul\":7151:7228   */\n      0x4e487b7100000000000000000000000000000000000000000000000000000000\n        /* \"#utility.yul\":7148:7149   */\n      0x00\n        /* \"#utility.yul\":7141:7229   */\n      mstore\n        /* \"#utility.yul\":7248:7252   */\n      0x41\n        /* \"#utility.yul\":7245:7246   */\n      0x04\n        /* \"#utility.yul\":7238:7253   */\n      mstore\n        /* \"#utility.yul\":7272:7276   */\n      0x24\n        /* \"#utility.yul\":7269:7270   */\n      0x00\n        /* \"#utility.yul\":7262:7277   */\n      revert\n        /* \"#utility.yul\":7289:7406   */\n    tag_105:\n        /* \"#utility.yul\":7398:7399   */\n      0x00\n        /* \"#utility.yul\":7395:7396   */\n      dup1\n        /* \"#utility.yul\":7388:7400   */\n      revert\n        /* \"#utility.yul\":7412:7529   */\n    tag_94:\n        /* \"#utility.yul\":7521:7522   */\n      0x00\n        /* \"#utility.yul\":7518:7519   */\n      dup1\n        /* \"#utility.yul\":7511:7523   */\n      revert\n        /* \"#utility.yul\":7535:7652   */\n    tag_121:\n        /* \"#utility.yul\":7644:7645   */\n      0x00\n        /* \"#utility.yul\":7641:7642   */\n      dup1\n        /* \"#utility.yul\":7634:7646   */\n      revert\n        /* \"#utility.yul\":7658:7775   */\n    tag_114:\n        /* \"#utility.yul\":7767:7768   */\n      0x00\n        /* \"#utility.yul\":7764:7765   */\n      dup1\n        /* \"#utility.yul\":7757:7769   */\n      revert\n        /* \"#utility.yul\":7781:7883   */\n    tag_136:\n        /* \"#utility.yul\":7822:7828   */\n      0x00\n        /* \"#utility.yul\":7873:7875   */\n      0x1f\n        /* \"#utility.yul\":7869:7876   */\n      not\n        /* \"#utility.yul\":7864:7866   */\n      0x1f\n        /* \"#utility.yul\":7857:7862   */\n      dup4\n        /* \"#utility.yul\":7853:7867   */\n      add\n        /* \"#utility.yul\":7849:7877   */\n      and\n        /* \"#utility.yul\":7839:7877   */\n      swap1\n      pop\n        /* \"#utility.yul\":7781:7883   */\n      swap2\n      swap1\n      pop\n      jump\t// out\n        /* \"#utility.yul\":7889:8068   */\n    tag_141:\n        /* \"#utility.yul\":8029:8060   */\n      0x706c656173652073656c6563742074686520636c617373206669727374000000\n        /* \"#utility.yul\":8025:8026   */\n      0x00\n        /* \"#utility.yul\":8017:8023   */\n      dup3\n        /* \"#utility.yul\":8013:8027   */\n      add\n        /* \"#utility.yul\":8006:8061   */\n      mstore\n        /* \"#utility.yul\":7889:8068   */\n      pop\n      jump\t// out\n        /* \"#utility.yul\":8074:8196   */\n    tag_100:\n        /* \"#utility.yul\":8147:8171   */\n      tag_197\n        /* \"#utility.yul\":8165:8170   */\n      dup2\n        /* \"#utility.yul\":8147:8171   */\n      tag_166\n      jump\t// in\n    tag_197:\n        /* \"#utility.yul\":8140:8145   */\n      dup2\n        /* \"#utility.yul\":8137:8172   */\n      eq\n        /* \"#utility.yul\":8127:8190   */\n      tag_198\n      jumpi\n        /* \"#utility.yul\":8186:8187   */\n      0x00\n        /* \"#utility.yul\":8183:8184   */\n      dup1\n        /* \"#utility.yul\":8176:8188   */\n      revert\n        /* \"#utility.yul\":8127:8190   */\n    tag_198:\n        /* \"#utility.yul\":8074:8196   */\n      pop\n      jump\t// out\n        /* \"#utility.yul\":8202:8324   */\n    tag_110:\n        /* \"#utility.yul\":8275:8299   */\n      tag_200\n        /* \"#utility.yul\":8293:8298   */\n      dup2\n        /* \"#utility.yul\":8275:8299   */\n      tag_145\n      jump\t// in\n    tag_200:\n        /* \"#utility.yul\":8268:8273   */\n      dup2\n        /* \"#utility.yul\":8265:8300   */\n      eq\n        /* \"#utility.yul\":8255:8318   */\n      tag_201\n      jumpi\n        /* \"#utility.yul\":8314:8315   */\n      0x00\n        /* \"#utility.yul\":8311:8312   */\n      dup1\n        /* \"#utility.yul\":8304:8316   */\n      revert\n        /* \"#utility.yul\":8255:8318   */\n    tag_201:\n        /* \"#utility.yul\":8202:8324   */\n      pop\n      jump\t// out\n\n    auxdata: 0xa2646970667358221220275bf7049763b46566730fb284551eac224466d56f461dbca05c29e84b7df71464736f6c63430008070033\n}\n",
				"bytecode": {
					"linkReferences": {},
					"object": "608060405260008060006101000a81548160ff02191690831515021790555034801561002a57600080fd5b50610bf08061003a6000396000f3fe608060405234801561001057600080fd5b50600436106100575760003560e01c806317ae45891461005c57806350183507146100785780637a1736d114610082578063b24fa0e41461008c578063b90d3d0c14610096575b600080fd5b610076600480360381019061007191906107ee565b6100c9565b005b610080610269565b005b61008a61032f565b005b6100946103f5565b005b6100b060048036038101906100ab91906107c1565b6104bc565b6040516100c094939291906108e4565b60405180910390f35b60008054906101000a900460ff16610116576040517f08c379a000000000000000000000000000000000000000000000000000000000815260040161010d9061093e565b60405180910390fd5b60405180608001604052808481526020018381526020018281526020016002805461014090610a4e565b80601f016020809104026020016040519081016040528092919081815260200182805461016c90610a4e565b80156101b95780601f1061018e576101008083540402835291602001916101b9565b820191906000526020600020905b81548152906001019060200180831161019c57829003601f168201915b5050505050815250600360003373ffffffffffffffffffffffffffffffffffffffff1673ffffffffffffffffffffffffffffffffffffffff168152602001908152602001600020600082015181600001908051906020019061021c929190610684565b506020820151816001019080519060200190610239929190610684565b50604082015181600201556060820151816003019080519060200190610260929190610684565b50905050505050565b60008060016101000a81548160ff0219169083600281111561028e5761028d610ab1565b5b0217905550600060019054906101000a900460ff1660028111156102b5576102b4610ab1565b5b60018190555060006001541415610313576040518060400160405280600b81526020017f466972737420436c61737300000000000000000000000000000000000000000081525060029080519060200190610311929190610684565b505b60016000806101000a81548160ff021916908315150217905550565b6001600060016101000a81548160ff0219169083600281111561035557610354610ab1565b5b0217905550600060019054906101000a900460ff16600281111561037c5761037b610ab1565b5b6001819055506001805414156103d9576040518060400160405280600d81526020017f45636f6e6f6d7920436c61737300000000000000000000000000000000000000815250600290805190602001906103d7929190610684565b505b60016000806101000a81548160ff021916908315150217905550565b6002600060016101000a81548160ff0219169083600281111561041b5761041a610ab1565b5b0217905550600060019054906101000a900460ff16600281111561044257610441610ab1565b5b600181905550600260015414156104a0576040518060400160405280600d81526020017f4275736e69737320436c617373000000000000000000000000000000000000008152506002908051906020019061049e929190610684565b505b60016000806101000a81548160ff021916908315150217905550565b60036020528060005260406000206000915090508060000180546104df90610a4e565b80601f016020809104026020016040519081016040528092919081815260200182805461050b90610a4e565b80156105585780601f1061052d57610100808354040283529160200191610558565b820191906000526020600020905b81548152906001019060200180831161053b57829003601f168201915b50505050509080600101805461056d90610a4e565b80601f016020809104026020016040519081016040528092919081815260200182805461059990610a4e565b80156105e65780601f106105bb576101008083540402835291602001916105e6565b820191906000526020600020905b8154815290600101906020018083116105c957829003601f168201915b50505050509080600201549080600301805461060190610a4e565b80601f016020809104026020016040519081016040528092919081815260200182805461062d90610a4e565b801561067a5780601f1061064f5761010080835404028352916020019161067a565b820191906000526020600020905b81548152906001019060200180831161065d57829003601f168201915b5050505050905084565b82805461069090610a4e565b90600052602060002090601f0160209004810192826106b257600085556106f9565b82601f106106cb57805160ff19168380011785556106f9565b828001600101855582156106f9579182015b828111156106f85782518255916020019190600101906106dd565b5b509050610706919061070a565b5090565b5b8082111561072357600081600090555060010161070b565b5090565b600061073a61073584610983565b61095e565b90508281526020810184848401111561075657610755610b43565b5b610761848285610a0c565b509392505050565b60008135905061077881610b8c565b92915050565b600082601f83011261079357610792610b3e565b5b81356107a3848260208601610727565b91505092915050565b6000813590506107bb81610ba3565b92915050565b6000602082840312156107d7576107d6610b4d565b5b60006107e584828501610769565b91505092915050565b60008060006060848603121561080757610806610b4d565b5b600084013567ffffffffffffffff81111561082557610824610b48565b5b6108318682870161077e565b935050602084013567ffffffffffffffff81111561085257610851610b48565b5b61085e8682870161077e565b925050604061086f868287016107ac565b9150509250925092565b6000610884826109b4565b61088e81856109bf565b935061089e818560208601610a1b565b6108a781610b52565b840191505092915050565b60006108bf601d836109bf565b91506108ca82610b63565b602082019050919050565b6108de81610a02565b82525050565b600060808201905081810360008301526108fe8187610879565b905081810360208301526109128186610879565b905061092160408301856108d5565b81810360608301526109338184610879565b905095945050505050565b60006020820190508181036000830152610957816108b2565b9050919050565b6000610968610979565b90506109748282610a80565b919050565b6000604051905090565b600067ffffffffffffffff82111561099e5761099d610b0f565b5b6109a782610b52565b9050602081019050919050565b600081519050919050565b600082825260208201905092915050565b60006109db826109e2565b9050919050565b600073ffffffffffffffffffffffffffffffffffffffff82169050919050565b6000819050919050565b82818337600083830152505050565b60005b83811015610a39578082015181840152602081019050610a1e565b83811115610a48576000848401525b50505050565b60006002820490506001821680610a6657607f821691505b60208210811415610a7a57610a79610ae0565b5b50919050565b610a8982610b52565b810181811067ffffffffffffffff82111715610aa857610aa7610b0f565b5b80604052505050565b7f4e487b7100000000000000000000000000000000000000000000000000000000600052602160045260246000fd5b7f4e487b7100000000000000000000000000000000000000000000000000000000600052602260045260246000fd5b7f4e487b7100000000000000000000000000000000000000000000000000000000600052604160045260246000fd5b600080fd5b600080fd5b600080fd5b600080fd5b6000601f19601f8301169050919050565b7f706c656173652073656c6563742074686520636c617373206669727374000000600082015250565b610b95816109d0565b8114610ba057600080fd5b50565b610bac81610a02565b8114610bb757600080fd5b5056fea2646970667358221220275bf7049763b46566730fb284551eac224466d56f461dbca05c29e84b7df71464736f6c63430008070033",
					"opcodes": "PUSH1 0x80 PUSH1 0x40 MSTORE PUSH1 0x0 DUP1 PUSH1 0x0 PUSH2 0x100 EXP DUP2 SLOAD DUP2 PUSH1 0xFF MUL NOT AND SWAP1 DUP4 ISZERO ISZERO MUL OR SWAP1 SSTORE POP CALLVALUE DUP1 ISZERO PUSH2 0x2A JUMPI PUSH1 0x0 DUP1 REVERT JUMPDEST POP PUSH2 0xBF0 DUP1 PUSH2 0x3A PUSH1 0x0 CODECOPY PUSH1 0x0 RETURN INVALID PUSH1 0x80 PUSH1 0x40 MSTORE CALLVALUE DUP1 ISZERO PUSH2 0x10 JUMPI PUSH1 0x0 DUP1 REVERT JUMPDEST POP PUSH1 0x4 CALLDATASIZE LT PUSH2 0x57 JUMPI PUSH1 0x0 CALLDATALOAD PUSH1 0xE0 SHR DUP1 PUSH4 0x17AE4589 EQ PUSH2 0x5C JUMPI DUP1 PUSH4 0x50183507 EQ PUSH2 0x78 JUMPI DUP1 PUSH4 0x7A1736D1 EQ PUSH2 0x82 JUMPI DUP1 PUSH4 0xB24FA0E4 EQ PUSH2 0x8C JUMPI DUP1 PUSH4 0xB90D3D0C EQ PUSH2 0x96 JUMPI JUMPDEST PUSH1 0x0 DUP1 REVERT JUMPDEST PUSH2 0x76 PUSH1 0x4 DUP1 CALLDATASIZE SUB DUP2 ADD SWAP1 PUSH2 0x71 SWAP2 SWAP1 PUSH2 0x7EE JUMP JUMPDEST PUSH2 0xC9 JUMP JUMPDEST STOP JUMPDEST PUSH2 0x80 PUSH2 0x269 JUMP JUMPDEST STOP JUMPDEST PUSH2 0x8A PUSH2 0x32F JUMP JUMPDEST STOP JUMPDEST PUSH2 0x94 PUSH2 0x3F5 JUMP JUMPDEST STOP JUMPDEST PUSH2 0xB0 PUSH1 0x4 DUP1 CALLDATASIZE SUB DUP2 ADD SWAP1 PUSH2 0xAB SWAP2 SWAP1 PUSH2 0x7C1 JUMP JUMPDEST PUSH2 0x4BC JUMP JUMPDEST PUSH1 0x40 MLOAD PUSH2 0xC0 SWAP5 SWAP4 SWAP3 SWAP2 SWAP1 PUSH2 0x8E4 JUMP JUMPDEST PUSH1 0x40 MLOAD DUP1 SWAP2 SUB SWAP1 RETURN JUMPDEST PUSH1 0x0 DUP1 SLOAD SWAP1 PUSH2 0x100 EXP SWAP1 DIV PUSH1 0xFF AND PUSH2 0x116 JUMPI PUSH1 0x40 MLOAD PUSH32 0x8C379A000000000000000000000000000000000000000000000000000000000 DUP2 MSTORE PUSH1 0x4 ADD PUSH2 0x10D SWAP1 PUSH2 0x93E JUMP JUMPDEST PUSH1 0x40 MLOAD DUP1 SWAP2 SUB SWAP1 REVERT JUMPDEST PUSH1 0x40 MLOAD DUP1 PUSH1 0x80 ADD PUSH1 0x40 MSTORE DUP1 DUP5 DUP2 MSTORE PUSH1 0x20 ADD DUP4 DUP2 MSTORE PUSH1 0x20 ADD DUP3 DUP2 MSTORE PUSH1 0x20 ADD PUSH1 0x2 DUP1 SLOAD PUSH2 0x140 SWAP1 PUSH2 0xA4E JUMP JUMPDEST DUP1 PUSH1 0x1F ADD PUSH1 0x20 DUP1 SWAP2 DIV MUL PUSH1 0x20 ADD PUSH1 0x40 MLOAD SWAP1 DUP2 ADD PUSH1 0x40 MSTORE DUP1 SWAP3 SWAP2 SWAP1 DUP2 DUP2 MSTORE PUSH1 0x20 ADD DUP3 DUP1 SLOAD PUSH2 0x16C SWAP1 PUSH2 0xA4E JUMP JUMPDEST DUP1 ISZERO PUSH2 0x1B9 JUMPI DUP1 PUSH1 0x1F LT PUSH2 0x18E JUMPI PUSH2 0x100 DUP1 DUP4 SLOAD DIV MUL DUP4 MSTORE SWAP2 PUSH1 0x20 ADD SWAP2 PUSH2 0x1B9 JUMP JUMPDEST DUP3 ADD SWAP2 SWAP1 PUSH1 0x0 MSTORE PUSH1 0x20 PUSH1 0x0 KECCAK256 SWAP1 JUMPDEST DUP2 SLOAD DUP2 MSTORE SWAP1 PUSH1 0x1 ADD SWAP1 PUSH1 0x20 ADD DUP1 DUP4 GT PUSH2 0x19C JUMPI DUP3 SWAP1 SUB PUSH1 0x1F AND DUP3 ADD SWAP2 JUMPDEST POP POP POP POP POP DUP2 MSTORE POP PUSH1 0x3 PUSH1 0x0 CALLER PUSH20 0xFFFFFFFFFFFFFFFFFFFFFFFFFFFFFFFFFFFFFFFF AND PUSH20 0xFFFFFFFFFFFFFFFFFFFFFFFFFFFFFFFFFFFFFFFF AND DUP2 MSTORE PUSH1 0x20 ADD SWAP1 DUP2 MSTORE PUSH1 0x20 ADD PUSH1 0x0 KECCAK256 PUSH1 0x0 DUP3 ADD MLOAD DUP2 PUSH1 0x0 ADD SWAP1 DUP1 MLOAD SWAP1 PUSH1 0x20 ADD SWAP1 PUSH2 0x21C SWAP3 SWAP2 SWAP1 PUSH2 0x684 JUMP JUMPDEST POP PUSH1 0x20 DUP3 ADD MLOAD DUP2 PUSH1 0x1 ADD SWAP1 DUP1 MLOAD SWAP1 PUSH1 0x20 ADD SWAP1 PUSH2 0x239 SWAP3 SWAP2 SWAP1 PUSH2 0x684 JUMP JUMPDEST POP PUSH1 0x40 DUP3 ADD MLOAD DUP2 PUSH1 0x2 ADD SSTORE PUSH1 0x60 DUP3 ADD MLOAD DUP2 PUSH1 0x3 ADD SWAP1 DUP1 MLOAD SWAP1 PUSH1 0x20 ADD SWAP1 PUSH2 0x260 SWAP3 SWAP2 SWAP1 PUSH2 0x684 JUMP JUMPDEST POP SWAP1 POP POP POP POP POP JUMP JUMPDEST PUSH1 0x0 DUP1 PUSH1 0x1 PUSH2 0x100 EXP DUP2 SLOAD DUP2 PUSH1 0xFF MUL NOT AND SWAP1 DUP4 PUSH1 0x2 DUP2 GT ISZERO PUSH2 0x28E JUMPI PUSH2 0x28D PUSH2 0xAB1 JUMP JUMPDEST JUMPDEST MUL OR SWAP1 SSTORE POP PUSH1 0x0 PUSH1 0x1 SWAP1 SLOAD SWAP1 PUSH2 0x100 EXP SWAP1 DIV PUSH1 0xFF AND PUSH1 0x2 DUP2 GT ISZERO PUSH2 0x2B5 JUMPI PUSH2 0x2B4 PUSH2 0xAB1 JUMP JUMPDEST JUMPDEST PUSH1 0x1 DUP2 SWAP1 SSTORE POP PUSH1 0x0 PUSH1 0x1 SLOAD EQ ISZERO PUSH2 0x313 JUMPI PUSH1 0x40 MLOAD DUP1 PUSH1 0x40 ADD PUSH1 0x40 MSTORE DUP1 PUSH1 0xB DUP2 MSTORE PUSH1 0x20 ADD PUSH32 0x466972737420436C617373000000000000000000000000000000000000000000 DUP2 MSTORE POP PUSH1 0x2 SWAP1 DUP1 MLOAD SWAP1 PUSH1 0x20 ADD SWAP1 PUSH2 0x311 SWAP3 SWAP2 SWAP1 PUSH2 0x684 JUMP JUMPDEST POP JUMPDEST PUSH1 0x1 PUSH1 0x0 DUP1 PUSH2 0x100 EXP DUP2 SLOAD DUP2 PUSH1 0xFF MUL NOT AND SWAP1 DUP4 ISZERO ISZERO MUL OR SWAP1 SSTORE POP JUMP JUMPDEST PUSH1 0x1 PUSH1 0x0 PUSH1 0x1 PUSH2 0x100 EXP DUP2 SLOAD DUP2 PUSH1 0xFF MUL NOT AND SWAP1 DUP4 PUSH1 0x2 DUP2 GT ISZERO PUSH2 0x355 JUMPI PUSH2 0x354 PUSH2 0xAB1 JUMP JUMPDEST JUMPDEST MUL OR SWAP1 SSTORE POP PUSH1 0x0 PUSH1 0x1 SWAP1 SLOAD SWAP1 PUSH2 0x100 EXP SWAP1 DIV PUSH1 0xFF AND PUSH1 0x2 DUP2 GT ISZERO PUSH2 0x37C JUMPI PUSH2 0x37B PUSH2 0xAB1 JUMP JUMPDEST JUMPDEST PUSH1 0x1 DUP2 SWAP1 SSTORE POP PUSH1 0x1 DUP1 SLOAD EQ ISZERO PUSH2 0x3D9 JUMPI PUSH1 0x40 MLOAD DUP1 PUSH1 0x40 ADD PUSH1 0x40 MSTORE DUP1 PUSH1 0xD DUP2 MSTORE PUSH1 0x20 ADD PUSH32 0x45636F6E6F6D7920436C61737300000000000000000000000000000000000000 DUP2 MSTORE POP PUSH1 0x2 SWAP1 DUP1 MLOAD SWAP1 PUSH1 0x20 ADD SWAP1 PUSH2 0x3D7 SWAP3 SWAP2 SWAP1 PUSH2 0x684 JUMP JUMPDEST POP JUMPDEST PUSH1 0x1 PUSH1 0x0 DUP1 PUSH2 0x100 EXP DUP2 SLOAD DUP2 PUSH1 0xFF MUL NOT AND SWAP1 DUP4 ISZERO ISZERO MUL OR SWAP1 SSTORE POP JUMP JUMPDEST PUSH1 0x2 PUSH1 0x0 PUSH1 0x1 PUSH2 0x100 EXP DUP2 SLOAD DUP2 PUSH1 0xFF MUL NOT AND SWAP1 DUP4 PUSH1 0x2 DUP2 GT ISZERO PUSH2 0x41B JUMPI PUSH2 0x41A PUSH2 0xAB1 JUMP JUMPDEST JUMPDEST MUL OR SWAP1 SSTORE POP PUSH1 0x0 PUSH1 0x1 SWAP1 SLOAD SWAP1 PUSH2 0x100 EXP SWAP1 DIV PUSH1 0xFF AND PUSH1 0x2 DUP2 GT ISZERO PUSH2 0x442 JUMPI PUSH2 0x441 PUSH2 0xAB1 JUMP JUMPDEST JUMPDEST PUSH1 0x1 DUP2 SWAP1 SSTORE POP PUSH1 0x2 PUSH1 0x1 SLOAD EQ ISZERO PUSH2 0x4A0 JUMPI PUSH1 0x40 MLOAD DUP1 PUSH1 0x40 ADD PUSH1 0x40 MSTORE DUP1 PUSH1 0xD DUP2 MSTORE PUSH1 0x20 ADD PUSH32 0x4275736E69737320436C61737300000000000000000000000000000000000000 DUP2 MSTORE POP PUSH1 0x2 SWAP1 DUP1 MLOAD SWAP1 PUSH1 0x20 ADD SWAP1 PUSH2 0x49E SWAP3 SWAP2 SWAP1 PUSH2 0x684 JUMP JUMPDEST POP JUMPDEST PUSH1 0x1 PUSH1 0x0 DUP1 PUSH2 0x100 EXP DUP2 SLOAD DUP2 PUSH1 0xFF MUL NOT AND SWAP1 DUP4 ISZERO ISZERO MUL OR SWAP1 SSTORE POP JUMP JUMPDEST PUSH1 0x3 PUSH1 0x20 MSTORE DUP1 PUSH1 0x0 MSTORE PUSH1 0x40 PUSH1 0x0 KECCAK256 PUSH1 0x0 SWAP2 POP SWAP1 POP DUP1 PUSH1 0x0 ADD DUP1 SLOAD PUSH2 0x4DF SWAP1 PUSH2 0xA4E JUMP JUMPDEST DUP1 PUSH1 0x1F ADD PUSH1 0x20 DUP1 SWAP2 DIV MUL PUSH1 0x20 ADD PUSH1 0x40 MLOAD SWAP1 DUP2 ADD PUSH1 0x40 MSTORE DUP1 SWAP3 SWAP2 SWAP1 DUP2 DUP2 MSTORE PUSH1 0x20 ADD DUP3 DUP1 SLOAD PUSH2 0x50B SWAP1 PUSH2 0xA4E JUMP JUMPDEST DUP1 ISZERO PUSH2 0x558 JUMPI DUP1 PUSH1 0x1F LT PUSH2 0x52D JUMPI PUSH2 0x100 DUP1 DUP4 SLOAD DIV MUL DUP4 MSTORE SWAP2 PUSH1 0x20 ADD SWAP2 PUSH2 0x558 JUMP JUMPDEST DUP3 ADD SWAP2 SWAP1 PUSH1 0x0 MSTORE PUSH1 0x20 PUSH1 0x0 KECCAK256 SWAP1 JUMPDEST DUP2 SLOAD DUP2 MSTORE SWAP1 PUSH1 0x1 ADD SWAP1 PUSH1 0x20 ADD DUP1 DUP4 GT PUSH2 0x53B JUMPI DUP3 SWAP1 SUB PUSH1 0x1F AND DUP3 ADD SWAP2 JUMPDEST POP POP POP POP POP SWAP1 DUP1 PUSH1 0x1 ADD DUP1 SLOAD PUSH2 0x56D SWAP1 PUSH2 0xA4E JUMP JUMPDEST DUP1 PUSH1 0x1F ADD PUSH1 0x20 DUP1 SWAP2 DIV MUL PUSH1 0x20 ADD PUSH1 0x40 MLOAD SWAP1 DUP2 ADD PUSH1 0x40 MSTORE DUP1 SWAP3 SWAP2 SWAP1 DUP2 DUP2 MSTORE PUSH1 0x20 ADD DUP3 DUP1 SLOAD PUSH2 0x599 SWAP1 PUSH2 0xA4E JUMP JUMPDEST DUP1 ISZERO PUSH2 0x5E6 JUMPI DUP1 PUSH1 0x1F LT PUSH2 0x5BB JUMPI PUSH2 0x100 DUP1 DUP4 SLOAD DIV MUL DUP4 MSTORE SWAP2 PUSH1 0x20 ADD SWAP2 PUSH2 0x5E6 JUMP JUMPDEST DUP3 ADD SWAP2 SWAP1 PUSH1 0x0 MSTORE PUSH1 0x20 PUSH1 0x0 KECCAK256 SWAP1 JUMPDEST DUP2 SLOAD DUP2 MSTORE SWAP1 PUSH1 0x1 ADD SWAP1 PUSH1 0x20 ADD DUP1 DUP4 GT PUSH2 0x5C9 JUMPI DUP3 SWAP1 SUB PUSH1 0x1F AND DUP3 ADD SWAP2 JUMPDEST POP POP POP POP POP SWAP1 DUP1 PUSH1 0x2 ADD SLOAD SWAP1 DUP1 PUSH1 0x3 ADD DUP1 SLOAD PUSH2 0x601 SWAP1 PUSH2 0xA4E JUMP JUMPDEST DUP1 PUSH1 0x1F ADD PUSH1 0x20 DUP1 SWAP2 DIV MUL PUSH1 0x20 ADD PUSH1 0x40 MLOAD SWAP1 DUP2 ADD PUSH1 0x40 MSTORE DUP1 SWAP3 SWAP2 SWAP1 DUP2 DUP2 MSTORE PUSH1 0x20 ADD DUP3 DUP1 SLOAD PUSH2 0x62D SWAP1 PUSH2 0xA4E JUMP JUMPDEST DUP1 ISZERO PUSH2 0x67A JUMPI DUP1 PUSH1 0x1F LT PUSH2 0x64F JUMPI PUSH2 0x100 DUP1 DUP4 SLOAD DIV MUL DUP4 MSTORE SWAP2 PUSH1 0x20 ADD SWAP2 PUSH2 0x67A JUMP JUMPDEST DUP3 ADD SWAP2 SWAP1 PUSH1 0x0 MSTORE PUSH1 0x20 PUSH1 0x0 KECCAK256 SWAP1 JUMPDEST DUP2 SLOAD DUP2 MSTORE SWAP1 PUSH1 0x1 ADD SWAP1 PUSH1 0x20 ADD DUP1 DUP4 GT PUSH2 0x65D JUMPI DUP3 SWAP1 SUB PUSH1 0x1F AND DUP3 ADD SWAP2 JUMPDEST POP POP POP POP POP SWAP1 POP DUP5 JUMP JUMPDEST DUP3 DUP1 SLOAD PUSH2 0x690 SWAP1 PUSH2 0xA4E JUMP JUMPDEST SWAP1 PUSH1 0x0 MSTORE PUSH1 0x20 PUSH1 0x0 KECCAK256 SWAP1 PUSH1 0x1F ADD PUSH1 0x20 SWAP1 DIV DUP2 ADD SWAP3 DUP3 PUSH2 0x6B2 JUMPI PUSH1 0x0 DUP6 SSTORE PUSH2 0x6F9 JUMP JUMPDEST DUP3 PUSH1 0x1F LT PUSH2 0x6CB JUMPI DUP1 MLOAD PUSH1 0xFF NOT AND DUP4 DUP1 ADD OR DUP6 SSTORE PUSH2 0x6F9 JUMP JUMPDEST DUP3 DUP1 ADD PUSH1 0x1 ADD DUP6 SSTORE DUP3 ISZERO PUSH2 0x6F9 JUMPI SWAP2 DUP3 ADD JUMPDEST DUP3 DUP2 GT ISZERO PUSH2 0x6F8 JUMPI DUP3 MLOAD DUP3 SSTORE SWAP2 PUSH1 0x20 ADD SWAP2 SWAP1 PUSH1 0x1 ADD SWAP1 PUSH2 0x6DD JUMP JUMPDEST JUMPDEST POP SWAP1 POP PUSH2 0x706 SWAP2 SWAP1 PUSH2 0x70A JUMP JUMPDEST POP SWAP1 JUMP JUMPDEST JUMPDEST DUP1 DUP3 GT ISZERO PUSH2 0x723 JUMPI PUSH1 0x0 DUP2 PUSH1 0x0 SWAP1 SSTORE POP PUSH1 0x1 ADD PUSH2 0x70B JUMP JUMPDEST POP SWAP1 JUMP JUMPDEST PUSH1 0x0 PUSH2 0x73A PUSH2 0x735 DUP5 PUSH2 0x983 JUMP JUMPDEST PUSH2 0x95E JUMP JUMPDEST SWAP1 POP DUP3 DUP2 MSTORE PUSH1 0x20 DUP2 ADD DUP5 DUP5 DUP5 ADD GT ISZERO PUSH2 0x756 JUMPI PUSH2 0x755 PUSH2 0xB43 JUMP JUMPDEST JUMPDEST PUSH2 0x761 DUP5 DUP3 DUP6 PUSH2 0xA0C JUMP JUMPDEST POP SWAP4 SWAP3 POP POP POP JUMP JUMPDEST PUSH1 0x0 DUP2 CALLDATALOAD SWAP1 POP PUSH2 0x778 DUP2 PUSH2 0xB8C JUMP JUMPDEST SWAP3 SWAP2 POP POP JUMP JUMPDEST PUSH1 0x0 DUP3 PUSH1 0x1F DUP4 ADD SLT PUSH2 0x793 JUMPI PUSH2 0x792 PUSH2 0xB3E JUMP JUMPDEST JUMPDEST DUP2 CALLDATALOAD PUSH2 0x7A3 DUP5 DUP3 PUSH1 0x20 DUP7 ADD PUSH2 0x727 JUMP JUMPDEST SWAP2 POP POP SWAP3 SWAP2 POP POP JUMP JUMPDEST PUSH1 0x0 DUP2 CALLDATALOAD SWAP1 POP PUSH2 0x7BB DUP2 PUSH2 0xBA3 JUMP JUMPDEST SWAP3 SWAP2 POP POP JUMP JUMPDEST PUSH1 0x0 PUSH1 0x20 DUP3 DUP5 SUB SLT ISZERO PUSH2 0x7D7 JUMPI PUSH2 0x7D6 PUSH2 0xB4D JUMP JUMPDEST JUMPDEST PUSH1 0x0 PUSH2 0x7E5 DUP5 DUP3 DUP6 ADD PUSH2 0x769 JUMP JUMPDEST SWAP2 POP POP SWAP3 SWAP2 POP POP JUMP JUMPDEST PUSH1 0x0 DUP1 PUSH1 0x0 PUSH1 0x60 DUP5 DUP7 SUB SLT ISZERO PUSH2 0x807 JUMPI PUSH2 0x806 PUSH2 0xB4D JUMP JUMPDEST JUMPDEST PUSH1 0x0 DUP5 ADD CALLDATALOAD PUSH8 0xFFFFFFFFFFFFFFFF DUP2 GT ISZERO PUSH2 0x825 JUMPI PUSH2 0x824 PUSH2 0xB48 JUMP JUMPDEST JUMPDEST PUSH2 0x831 DUP7 DUP3 DUP8 ADD PUSH2 0x77E JUMP JUMPDEST SWAP4 POP POP PUSH1 0x20 DUP5 ADD CALLDATALOAD PUSH8 0xFFFFFFFFFFFFFFFF DUP2 GT ISZERO PUSH2 0x852 JUMPI PUSH2 0x851 PUSH2 0xB48 JUMP JUMPDEST JUMPDEST PUSH2 0x85E DUP7 DUP3 DUP8 ADD PUSH2 0x77E JUMP JUMPDEST SWAP3 POP POP PUSH1 0x40 PUSH2 0x86F DUP7 DUP3 DUP8 ADD PUSH2 0x7AC JUMP JUMPDEST SWAP2 POP POP SWAP3 POP SWAP3 POP SWAP3 JUMP JUMPDEST PUSH1 0x0 PUSH2 0x884 DUP3 PUSH2 0x9B4 JUMP JUMPDEST PUSH2 0x88E DUP2 DUP6 PUSH2 0x9BF JUMP JUMPDEST SWAP4 POP PUSH2 0x89E DUP2 DUP6 PUSH1 0x20 DUP7 ADD PUSH2 0xA1B JUMP JUMPDEST PUSH2 0x8A7 DUP2 PUSH2 0xB52 JUMP JUMPDEST DUP5 ADD SWAP2 POP POP SWAP3 SWAP2 POP POP JUMP JUMPDEST PUSH1 0x0 PUSH2 0x8BF PUSH1 0x1D DUP4 PUSH2 0x9BF JUMP JUMPDEST SWAP2 POP PUSH2 0x8CA DUP3 PUSH2 0xB63 JUMP JUMPDEST PUSH1 0x20 DUP3 ADD SWAP1 POP SWAP2 SWAP1 POP JUMP JUMPDEST PUSH2 0x8DE DUP2 PUSH2 0xA02 JUMP JUMPDEST DUP3 MSTORE POP POP JUMP JUMPDEST PUSH1 0x0 PUSH1 0x80 DUP3 ADD SWAP1 POP DUP2 DUP2 SUB PUSH1 0x0 DUP4 ADD MSTORE PUSH2 0x8FE DUP2 DUP8 PUSH2 0x879 JUMP JUMPDEST SWAP1 POP DUP2 DUP2 SUB PUSH1 0x20 DUP4 ADD MSTORE PUSH2 0x912 DUP2 DUP7 PUSH2 0x879 JUMP JUMPDEST SWAP1 POP PUSH2 0x921 PUSH1 0x40 DUP4 ADD DUP6 PUSH2 0x8D5 JUMP JUMPDEST DUP2 DUP2 SUB PUSH1 0x60 DUP4 ADD MSTORE PUSH2 0x933 DUP2 DUP5 PUSH2 0x879 JUMP JUMPDEST SWAP1 POP SWAP6 SWAP5 POP POP POP POP POP JUMP JUMPDEST PUSH1 0x0 PUSH1 0x20 DUP3 ADD SWAP1 POP DUP2 DUP2 SUB PUSH1 0x0 DUP4 ADD MSTORE PUSH2 0x957 DUP2 PUSH2 0x8B2 JUMP JUMPDEST SWAP1 POP SWAP2 SWAP1 POP JUMP JUMPDEST PUSH1 0x0 PUSH2 0x968 PUSH2 0x979 JUMP JUMPDEST SWAP1 POP PUSH2 0x974 DUP3 DUP3 PUSH2 0xA80 JUMP JUMPDEST SWAP2 SWAP1 POP JUMP JUMPDEST PUSH1 0x0 PUSH1 0x40 MLOAD SWAP1 POP SWAP1 JUMP JUMPDEST PUSH1 0x0 PUSH8 0xFFFFFFFFFFFFFFFF DUP3 GT ISZERO PUSH2 0x99E JUMPI PUSH2 0x99D PUSH2 0xB0F JUMP JUMPDEST JUMPDEST PUSH2 0x9A7 DUP3 PUSH2 0xB52 JUMP JUMPDEST SWAP1 POP PUSH1 0x20 DUP2 ADD SWAP1 POP SWAP2 SWAP1 POP JUMP JUMPDEST PUSH1 0x0 DUP2 MLOAD SWAP1 POP SWAP2 SWAP1 POP JUMP JUMPDEST PUSH1 0x0 DUP3 DUP3 MSTORE PUSH1 0x20 DUP3 ADD SWAP1 POP SWAP3 SWAP2 POP POP JUMP JUMPDEST PUSH1 0x0 PUSH2 0x9DB DUP3 PUSH2 0x9E2 JUMP JUMPDEST SWAP1 POP SWAP2 SWAP1 POP JUMP JUMPDEST PUSH1 0x0 PUSH20 0xFFFFFFFFFFFFFFFFFFFFFFFFFFFFFFFFFFFFFFFF DUP3 AND SWAP1 POP SWAP2 SWAP1 POP JUMP JUMPDEST PUSH1 0x0 DUP2 SWAP1 POP SWAP2 SWAP1 POP JUMP JUMPDEST DUP3 DUP2 DUP4 CALLDATACOPY PUSH1 0x0 DUP4 DUP4 ADD MSTORE POP POP POP JUMP JUMPDEST PUSH1 0x0 JUMPDEST DUP4 DUP2 LT ISZERO PUSH2 0xA39 JUMPI DUP1 DUP3 ADD MLOAD DUP2 DUP5 ADD MSTORE PUSH1 0x20 DUP2 ADD SWAP1 POP PUSH2 0xA1E JUMP JUMPDEST DUP4 DUP2 GT ISZERO PUSH2 0xA48 JUMPI PUSH1 0x0 DUP5 DUP5 ADD MSTORE JUMPDEST POP POP POP POP JUMP JUMPDEST PUSH1 0x0 PUSH1 0x2 DUP3 DIV SWAP1 POP PUSH1 0x1 DUP3 AND DUP1 PUSH2 0xA66 JUMPI PUSH1 0x7F DUP3 AND SWAP2 POP JUMPDEST PUSH1 0x20 DUP3 LT DUP2 EQ ISZERO PUSH2 0xA7A JUMPI PUSH2 0xA79 PUSH2 0xAE0 JUMP JUMPDEST JUMPDEST POP SWAP2 SWAP1 POP JUMP JUMPDEST PUSH2 0xA89 DUP3 PUSH2 0xB52 JUMP JUMPDEST DUP2 ADD DUP2 DUP2 LT PUSH8 0xFFFFFFFFFFFFFFFF DUP3 GT OR ISZERO PUSH2 0xAA8 JUMPI PUSH2 0xAA7 PUSH2 0xB0F JUMP JUMPDEST JUMPDEST DUP1 PUSH1 0x40 MSTORE POP POP POP JUMP JUMPDEST PUSH32 0x4E487B7100000000000000000000000000000000000000000000000000000000 PUSH1 0x0 MSTORE PUSH1 0x21 PUSH1 0x4 MSTORE PUSH1 0x24 PUSH1 0x0 REVERT JUMPDEST PUSH32 0x4E487B7100000000000000000000000000000000000000000000000000000000 PUSH1 0x0 MSTORE PUSH1 0x22 PUSH1 0x4 MSTORE PUSH1 0x24 PUSH1 0x0 REVERT JUMPDEST PUSH32 0x4E487B7100000000000000000000000000000000000000000000000000000000 PUSH1 0x0 MSTORE PUSH1 0x41 PUSH1 0x4 MSTORE PUSH1 0x24 PUSH1 0x0 REVERT JUMPDEST PUSH1 0x0 DUP1 REVERT JUMPDEST PUSH1 0x0 DUP1 REVERT JUMPDEST PUSH1 0x0 DUP1 REVERT JUMPDEST PUSH1 0x0 DUP1 REVERT JUMPDEST PUSH1 0x0 PUSH1 0x1F NOT PUSH1 0x1F DUP4 ADD AND SWAP1 POP SWAP2 SWAP1 POP JUMP JUMPDEST PUSH32 0x706C656173652073656C6563742074686520636C617373206669727374000000 PUSH1 0x0 DUP3 ADD MSTORE POP JUMP JUMPDEST PUSH2 0xB95 DUP2 PUSH2 0x9D0 JUMP JUMPDEST DUP2 EQ PUSH2 0xBA0 JUMPI PUSH1 0x0 DUP1 REVERT JUMPDEST POP JUMP JUMPDEST PUSH2 0xBAC DUP2 PUSH2 0xA02 JUMP JUMPDEST DUP2 EQ PUSH2 0xBB7 JUMPI PUSH1 0x0 DUP1 REVERT JUMPDEST POP JUMP INVALID LOG2 PUSH5 0x6970667358 0x22 SLT KECCAK256 0x27 JUMPDEST 0xF7 DIV SWAP8 PUSH4 0xB4656673 0xF 0xB2 DUP5 SSTORE 0x1E 0xAC 0x22 DIFFICULTY PUSH7 0xD56F461DBCA05C 0x29 0xE8 0x4B PUSH30 0xF71464736F6C634300080700330000000000000000000000000000000000 "
				},
				"gasEstimates": {
					"creation": {
						"codeDepositCost": "611200",
						"executionCost": "24912",
						"totalCost": "636112"
					},
					"external": {
						"busnissClass()": "infinite",
						"data(address)": "infinite",
						"economyClass()": "infinite",
						"firstClass()": "infinite",
						"setData(string,string,uint256)": "infinite"
					}
				},
				"methodIdentifiers": {
					"busnissClass()": "b24fa0e4",
					"data(address)": "b90d3d0c",
					"economyClass()": "7a1736d1",
					"firstClass()": "50183507",
					"setData(string,string,uint256)": "17ae4589"
				}
			},
			"userdoc": {
				"kind": "user",
				"methods": {},
				"version": 1
			}
		}
	}
}