{
	"bootcampquiz.sol": {
		"AirlineTickets": {
			"abi": [
				{
					"inputs": [],
					"name": "busnissClass",
					"outputs": [],
					"stateMutability": "nonpayable",
					"type": "function"
				},
				{
					"inputs": [
						{
							"internalType": "address",
							"name": "",
							"type": "address"
						}
					],
					"name": "data",
					"outputs": [
						{
							"internalType": "string",
							"name": "name",
							"type": "string"
						},
						{
							"internalType": "string",
							"name": "des",
							"type": "string"
						},
						{
							"internalType": "uint256",
							"name": "pass_id",
							"type": "uint256"
						},
						{
							"internalType": "string",
							"name": "ticket",
							"type": "string"
						},
						{
							"internalType": "uint256",
							"name": "cost",
							"type": "uint256"
						}
					],
					"stateMutability": "view",
					"type": "function"
				},
				{
					"inputs": [],
					"name": "economyClass",
					"outputs": [],
					"stateMutability": "nonpayable",
					"type": "function"
				},
				{
					"inputs": [],
					"name": "firstClass",
					"outputs": [],
					"stateMutability": "nonpayable",
					"type": "function"
				},
				{
					"inputs": [
						{
							"internalType": "string",
							"name": "_name",
							"type": "string"
						},
						{
							"internalType": "string",
							"name": "_des",
							"type": "string"
						},
						{
							"internalType": "uint256",
							"name": "_pass_id",
							"type": "uint256"
						}
					],
					"name": "setData",
					"outputs": [],
					"stateMutability": "nonpayable",
					"type": "function"
				},
				{
					"inputs": [],
					"name": "u1",
					"outputs": [
						{
							"internalType": "enum AirlineTickets.classTypes",
							"name": "",
							"type": "uint8"
						}
					],
					"stateMutability": "view",
					"type": "function"
				}
			],
			"devdoc": {
				"kind": "dev",
				"methods": {},
				"version": 1
			},
			"evm": {
				"assembly": "    /* \"bootcampquiz.sol\":72:1733  contract AirlineTickets {\r... */\n  mstore(0x40, 0x80)\n    /* \"bootcampquiz.sol\":259:264  false */\n  0x00\n    /* \"bootcampquiz.sol\":245:264  bool booked = false */\n  dup1\n  exp(0x0100, 0x00)\n  dup2\n  sload\n  dup2\n  0xff\n  mul\n  not\n  and\n  swap1\n  dup4\n  iszero\n  iszero\n  mul\n  or\n  swap1\n  sstore\n  pop\n    /* \"bootcampquiz.sol\":357:389  string realVal = \"Economy Class\" */\n  mload(0x40)\n  dup1\n  0x40\n  add\n  0x40\n  mstore\n  dup1\n  0x0d\n  dup2\n  mstore\n  0x20\n  add\n  0x45636f6e6f6d7920436c61737300000000000000000000000000000000000000\n  dup2\n  mstore\n  pop\n  0x02\n  swap1\n  dup1\n  mload\n  swap1\n  0x20\n  add\n  swap1\n  tag_1\n  swap3\n  swap2\n  swap1\n  tag_2\n  jump\t// in\ntag_1:\n  pop\n    /* \"bootcampquiz.sol\":425:430  1 wei */\n  0x01\n    /* \"bootcampquiz.sol\":411:430  uint oneWei = 1 wei */\n  0x04\n  sstore\n    /* \"bootcampquiz.sol\":451:458  1 ether */\n  0x0de0b6b3a7640000\n    /* \"bootcampquiz.sol\":437:458  uint oneEth = 1 ether */\n  0x05\n  sstore\n    /* \"bootcampquiz.sol\":531:554  classTypes.economyClass */\n  0x01\n    /* \"bootcampquiz.sol\":509:554  classTypes public u1= classTypes.economyClass */\n  0x07\n  exp(0x0100, 0x00)\n  dup2\n  sload\n  dup2\n  0xff\n  mul\n  not\n  and\n  swap1\n  dup4\n  0x02\n  dup2\n  gt\n  iszero\n  tag_3\n  jumpi\n  tag_4\n  tag_5\n  jump\t// in\ntag_4:\ntag_3:\n  mul\n  or\n  swap1\n  sstore\n  pop\n    /* \"bootcampquiz.sol\":72:1733  contract AirlineTickets {\r... */\n  callvalue\n  dup1\n  iszero\n  tag_6\n  jumpi\n  0x00\n  dup1\n  revert\ntag_6:\n  pop\n  jump(tag_7)\ntag_2:\n  dup3\n  dup1\n  sload\n  tag_8\n  swap1\n  tag_9\n  jump\t// in\ntag_8:\n  swap1\n  0x00\n  mstore\n  keccak256(0x00, 0x20)\n  swap1\n  0x1f\n  add\n  0x20\n  swap1\n  div\n  dup2\n  add\n  swap3\n  dup3\n  tag_11\n  jumpi\n  0x00\n  dup6\n  sstore\n  jump(tag_10)\ntag_11:\n  dup3\n  0x1f\n  lt\n  tag_12\n  jumpi\n  dup1\n  mload\n  not(0xff)\n  and\n  dup4\n  dup1\n  add\n  or\n  dup6\n  sstore\n  jump(tag_10)\ntag_12:\n  dup3\n  dup1\n  add\n  0x01\n  add\n  dup6\n  sstore\n  dup3\n  iszero\n  tag_10\n  jumpi\n  swap2\n  dup3\n  add\ntag_13:\n  dup3\n  dup2\n  gt\n  iszero\n  tag_14\n  jumpi\n  dup3\n  mload\n  dup3\n  sstore\n  swap2\n  0x20\n  add\n  swap2\n  swap1\n  0x01\n  add\n  swap1\n  jump(tag_13)\ntag_14:\ntag_10:\n  pop\n  swap1\n  pop\n  tag_15\n  swap2\n  swap1\n  tag_16\n  jump\t// in\ntag_15:\n  pop\n  swap1\n  jump\t// out\ntag_16:\ntag_17:\n  dup1\n  dup3\n  gt\n  iszero\n  tag_18\n  jumpi\n  0x00\n  dup2\n  0x00\n  swap1\n  sstore\n  pop\n  0x01\n  add\n  jump(tag_17)\ntag_18:\n  pop\n  swap1\n  jump\t// out\n    /* \"#utility.yul\":7:327   */\ntag_9:\n    /* \"#utility.yul\":51:57   */\n  0x00\n    /* \"#utility.yul\":88:89   */\n  0x02\n    /* \"#utility.yul\":82:86   */\n  dup3\n    /* \"#utility.yul\":78:90   */\n  div\n    /* \"#utility.yul\":68:90   */\n  swap1\n  pop\n    /* \"#utility.yul\":135:136   */\n  0x01\n    /* \"#utility.yul\":129:133   */\n  dup3\n    /* \"#utility.yul\":125:137   */\n  and\n    /* \"#utility.yul\":156:174   */\n  dup1\n    /* \"#utility.yul\":146:227   */\n  tag_21\n  jumpi\n    /* \"#utility.yul\":212:216   */\n  0x7f\n    /* \"#utility.yul\":204:210   */\n  dup3\n    /* \"#utility.yul\":200:217   */\n  and\n    /* \"#utility.yul\":190:217   */\n  swap2\n  pop\n    /* \"#utility.yul\":146:227   */\ntag_21:\n    /* \"#utility.yul\":274:276   */\n  0x20\n    /* \"#utility.yul\":266:272   */\n  dup3\n    /* \"#utility.yul\":263:277   */\n  lt\n    /* \"#utility.yul\":243:261   */\n  dup2\n    /* \"#utility.yul\":240:278   */\n  eq\n    /* \"#utility.yul\":237:321   */\n  iszero\n  tag_22\n  jumpi\n    /* \"#utility.yul\":293:311   */\n  tag_23\n  tag_24\n  jump\t// in\ntag_23:\n    /* \"#utility.yul\":237:321   */\ntag_22:\n    /* \"#utility.yul\":58:327   */\n  pop\n    /* \"#utility.yul\":7:327   */\n  swap2\n  swap1\n  pop\n  jump\t// out\n    /* \"#utility.yul\":333:513   */\ntag_5:\n    /* \"#utility.yul\":381:458   */\n  0x4e487b7100000000000000000000000000000000000000000000000000000000\n    /* \"#utility.yul\":378:379   */\n  0x00\n    /* \"#utility.yul\":371:459   */\n  mstore\n    /* \"#utility.yul\":478:482   */\n  0x21\n    /* \"#utility.yul\":475:476   */\n  0x04\n    /* \"#utility.yul\":468:483   */\n  mstore\n    /* \"#utility.yul\":502:506   */\n  0x24\n    /* \"#utility.yul\":499:500   */\n  0x00\n    /* \"#utility.yul\":492:507   */\n  revert\n    /* \"#utility.yul\":519:699   */\ntag_24:\n    /* \"#utility.yul\":567:644   */\n  0x4e487b7100000000000000000000000000000000000000000000000000000000\n    /* \"#utility.yul\":564:565   */\n  0x00\n    /* \"#utility.yul\":557:645   */\n  mstore\n    /* \"#utility.yul\":664:668   */\n  0x22\n    /* \"#utility.yul\":661:662   */\n  0x04\n    /* \"#utility.yul\":654:669   */\n  mstore\n    /* \"#utility.yul\":688:692   */\n  0x24\n    /* \"#utility.yul\":685:686   */\n  0x00\n    /* \"#utility.yul\":678:693   */\n  revert\n    /* \"bootcampquiz.sol\":72:1733  contract AirlineTickets {\r... */\ntag_7:\n  dataSize(sub_0)\n  dup1\n  dataOffset(sub_0)\n  0x00\n  codecopy\n  0x00\n  return\nstop\n\nsub_0: assembly {\n        /* \"bootcampquiz.sol\":72:1733  contract AirlineTickets {\r... */\n      mstore(0x40, 0x80)\n      callvalue\n      dup1\n      iszero\n      tag_1\n      jumpi\n      0x00\n      dup1\n      revert\n    tag_1:\n      pop\n      jumpi(tag_2, lt(calldatasize, 0x04))\n      shr(0xe0, calldataload(0x00))\n      dup1\n      0x17ae4589\n      eq\n      tag_3\n      jumpi\n      dup1\n      0x1aa35610\n      eq\n      tag_4\n      jumpi\n      dup1\n      0x50183507\n      eq\n      tag_5\n      jumpi\n      dup1\n      0x7a1736d1\n      eq\n      tag_6\n      jumpi\n      dup1\n      0xb24fa0e4\n      eq\n      tag_7\n      jumpi\n      dup1\n      0xb90d3d0c\n      eq\n      tag_8\n      jumpi\n    tag_2:\n      0x00\n      dup1\n      revert\n        /* \"bootcampquiz.sol\":1504:1724  function setData(string memory _name, string memory _des, uint _pass_id) public \r... */\n    tag_3:\n      tag_9\n      0x04\n      dup1\n      calldatasize\n      sub\n      dup2\n      add\n      swap1\n      tag_10\n      swap2\n      swap1\n      tag_11\n      jump\t// in\n    tag_10:\n      tag_12\n      jump\t// in\n    tag_9:\n      stop\n        /* \"bootcampquiz.sol\":509:554  classTypes public u1= classTypes.economyClass */\n    tag_4:\n      tag_13\n      tag_14\n      jump\t// in\n    tag_13:\n      mload(0x40)\n      tag_15\n      swap2\n      swap1\n      tag_16\n      jump\t// in\n    tag_15:\n      mload(0x40)\n      dup1\n      swap2\n      sub\n      swap1\n      return\n        /* \"bootcampquiz.sol\":882:1183  function firstClass() public \r... */\n    tag_5:\n      tag_17\n      tag_18\n      jump\t// in\n    tag_17:\n      stop\n        /* \"bootcampquiz.sol\":563:870  function economyClass() public \r... */\n    tag_6:\n      tag_19\n      tag_20\n      jump\t// in\n    tag_19:\n      stop\n        /* \"bootcampquiz.sol\":1191:1492  function busnissClass() public {\r... */\n    tag_7:\n      tag_21\n      tag_22\n      jump\t// in\n    tag_21:\n      stop\n        /* \"bootcampquiz.sol\":463:500  mapping (address => User) public data */\n    tag_8:\n      tag_23\n      0x04\n      dup1\n      calldatasize\n      sub\n      dup2\n      add\n      swap1\n      tag_24\n      swap2\n      swap1\n      tag_25\n      jump\t// in\n    tag_24:\n      tag_26\n      jump\t// in\n    tag_23:\n      mload(0x40)\n      tag_27\n      swap6\n      swap5\n      swap4\n      swap3\n      swap2\n      swap1\n      tag_28\n      jump\t// in\n    tag_27:\n      mload(0x40)\n      dup1\n      swap2\n      sub\n      swap1\n      return\n        /* \"bootcampquiz.sol\":1504:1724  function setData(string memory _name, string memory _des, uint _pass_id) public \r... */\n    tag_12:\n        /* \"bootcampquiz.sol\":1609:1615  booked */\n      0x00\n      dup1\n      sload\n      swap1\n      0x0100\n      exp\n      swap1\n      div\n      0xff\n      and\n        /* \"bootcampquiz.sol\":1601:1648  require(booked,\"please select the class first\") */\n      tag_30\n      jumpi\n      mload(0x40)\n      0x08c379a000000000000000000000000000000000000000000000000000000000\n      dup2\n      mstore\n      0x04\n      add\n      tag_31\n      swap1\n      tag_32\n      jump\t// in\n    tag_31:\n      mload(0x40)\n      dup1\n      swap2\n      sub\n      swap1\n      revert\n    tag_30:\n        /* \"bootcampquiz.sol\":1678:1716  User(_name,_des,_pass_id,realVal ,eth) */\n      mload(0x40)\n      dup1\n      0xa0\n      add\n      0x40\n      mstore\n      dup1\n        /* \"bootcampquiz.sol\":1683:1688  _name */\n      dup5\n        /* \"bootcampquiz.sol\":1678:1716  User(_name,_des,_pass_id,realVal ,eth) */\n      dup2\n      mstore\n      0x20\n      add\n        /* \"bootcampquiz.sol\":1689:1693  _des */\n      dup4\n        /* \"bootcampquiz.sol\":1678:1716  User(_name,_des,_pass_id,realVal ,eth) */\n      dup2\n      mstore\n      0x20\n      add\n        /* \"bootcampquiz.sol\":1694:1702  _pass_id */\n      dup3\n        /* \"bootcampquiz.sol\":1678:1716  User(_name,_des,_pass_id,realVal ,eth) */\n      dup2\n      mstore\n      0x20\n      add\n        /* \"bootcampquiz.sol\":1703:1710  realVal */\n      0x02\n        /* \"bootcampquiz.sol\":1678:1716  User(_name,_des,_pass_id,realVal ,eth) */\n      dup1\n      sload\n      tag_33\n      swap1\n      tag_34\n      jump\t// in\n    tag_33:\n      dup1\n      0x1f\n      add\n      0x20\n      dup1\n      swap2\n      div\n      mul\n      0x20\n      add\n      mload(0x40)\n      swap1\n      dup2\n      add\n      0x40\n      mstore\n      dup1\n      swap3\n      swap2\n      swap1\n      dup2\n      dup2\n      mstore\n      0x20\n      add\n      dup3\n      dup1\n      sload\n      tag_35\n      swap1\n      tag_34\n      jump\t// in\n    tag_35:\n      dup1\n      iszero\n      tag_36\n      jumpi\n      dup1\n      0x1f\n      lt\n      tag_37\n      jumpi\n      0x0100\n      dup1\n      dup4\n      sload\n      div\n      mul\n      dup4\n      mstore\n      swap2\n      0x20\n      add\n      swap2\n      jump(tag_36)\n    tag_37:\n      dup3\n      add\n      swap2\n      swap1\n      0x00\n      mstore\n      keccak256(0x00, 0x20)\n      swap1\n    tag_38:\n      dup2\n      sload\n      dup2\n      mstore\n      swap1\n      0x01\n      add\n      swap1\n      0x20\n      add\n      dup1\n      dup4\n      gt\n      tag_38\n      jumpi\n      dup3\n      swap1\n      sub\n      0x1f\n      and\n      dup3\n      add\n      swap2\n    tag_36:\n      pop\n      pop\n      pop\n      pop\n      pop\n      dup2\n      mstore\n      0x20\n      add\n        /* \"bootcampquiz.sol\":1712:1715  eth */\n      sload(0x03)\n        /* \"bootcampquiz.sol\":1678:1716  User(_name,_des,_pass_id,realVal ,eth) */\n      dup2\n      mstore\n      pop\n        /* \"bootcampquiz.sol\":1659:1663  data */\n      0x06\n        /* \"bootcampquiz.sol\":1659:1675  data[msg.sender] */\n      0x00\n        /* \"bootcampquiz.sol\":1664:1674  msg.sender */\n      caller\n        /* \"bootcampquiz.sol\":1659:1675  data[msg.sender] */\n      0xffffffffffffffffffffffffffffffffffffffff\n      and\n      0xffffffffffffffffffffffffffffffffffffffff\n      and\n      dup2\n      mstore\n      0x20\n      add\n      swap1\n      dup2\n      mstore\n      0x20\n      add\n      0x00\n      keccak256\n        /* \"bootcampquiz.sol\":1659:1716  data[msg.sender] = User(_name,_des,_pass_id,realVal ,eth) */\n      0x00\n      dup3\n      add\n      mload\n      dup2\n      0x00\n      add\n      swap1\n      dup1\n      mload\n      swap1\n      0x20\n      add\n      swap1\n      tag_39\n      swap3\n      swap2\n      swap1\n      tag_40\n      jump\t// in\n    tag_39:\n      pop\n      0x20\n      dup3\n      add\n      mload\n      dup2\n      0x01\n      add\n      swap1\n      dup1\n      mload\n      swap1\n      0x20\n      add\n      swap1\n      tag_41\n      swap3\n      swap2\n      swap1\n      tag_40\n      jump\t// in\n    tag_41:\n      pop\n      0x40\n      dup3\n      add\n      mload\n      dup2\n      0x02\n      add\n      sstore\n      0x60\n      dup3\n      add\n      mload\n      dup2\n      0x03\n      add\n      swap1\n      dup1\n      mload\n      swap1\n      0x20\n      add\n      swap1\n      tag_42\n      swap3\n      swap2\n      swap1\n      tag_40\n      jump\t// in\n    tag_42:\n      pop\n      0x80\n      dup3\n      add\n      mload\n      dup2\n      0x04\n      add\n      sstore\n      swap1\n      pop\n      pop\n        /* \"bootcampquiz.sol\":1504:1724  function setData(string memory _name, string memory _des, uint _pass_id) public \r... */\n      pop\n      pop\n      pop\n      jump\t// out\n        /* \"bootcampquiz.sol\":509:554  classTypes public u1= classTypes.economyClass */\n    tag_14:\n      0x07\n      0x00\n      swap1\n      sload\n      swap1\n      0x0100\n      exp\n      swap1\n      div\n      0xff\n      and\n      dup2\n      jump\t// out\n        /* \"bootcampquiz.sol\":882:1183  function firstClass() public \r... */\n    tag_18:\n        /* \"bootcampquiz.sol\":995:1016  classTypes.firstClass */\n      0x00\n        /* \"bootcampquiz.sol\":991:993  u1 */\n      0x07\n      0x00\n        /* \"bootcampquiz.sol\":991:1016  u1= classTypes.firstClass */\n      0x0100\n      exp\n      dup2\n      sload\n      dup2\n      0xff\n      mul\n      not\n      and\n      swap1\n      dup4\n      0x02\n      dup2\n      gt\n      iszero\n      tag_44\n      jumpi\n      tag_45\n      tag_46\n      jump\t// in\n    tag_45:\n    tag_44:\n      mul\n      or\n      swap1\n      sstore\n      pop\n        /* \"bootcampquiz.sol\":1042:1044  u1 */\n      0x07\n      0x00\n      swap1\n      sload\n      swap1\n      0x0100\n      exp\n      swap1\n      div\n      0xff\n      and\n        /* \"bootcampquiz.sol\":1037:1045  uint(u1) */\n      0x02\n      dup2\n      gt\n      iszero\n      tag_47\n      jumpi\n      tag_48\n      tag_46\n      jump\t// in\n    tag_48:\n    tag_47:\n        /* \"bootcampquiz.sol\":1027:1034  convert */\n      0x01\n        /* \"bootcampquiz.sol\":1027:1045  convert = uint(u1) */\n      dup2\n      swap1\n      sstore\n      pop\n        /* \"bootcampquiz.sol\":1068:1069  0 */\n      0x00\n        /* \"bootcampquiz.sol\":1059:1066  convert */\n      sload(0x01)\n        /* \"bootcampquiz.sol\":1059:1069  convert==0 */\n      eq\n        /* \"bootcampquiz.sol\":1056:1152  if(convert==0)\r... */\n      iszero\n      tag_49\n      jumpi\n        /* \"bootcampquiz.sol\":1095:1118  realVal = \"First Class\" */\n      mload(0x40)\n      dup1\n      0x40\n      add\n      0x40\n      mstore\n      dup1\n      0x0b\n      dup2\n      mstore\n      0x20\n      add\n      0x466972737420436c617373000000000000000000000000000000000000000000\n      dup2\n      mstore\n      pop\n        /* \"bootcampquiz.sol\":1095:1102  realVal */\n      0x02\n        /* \"bootcampquiz.sol\":1095:1118  realVal = \"First Class\" */\n      swap1\n      dup1\n      mload\n      swap1\n      0x20\n      add\n      swap1\n      tag_50\n      swap3\n      swap2\n      swap1\n      tag_40\n      jump\t// in\n    tag_50:\n      pop\n        /* \"bootcampquiz.sol\":1139:1140  2 */\n      0x02\n        /* \"bootcampquiz.sol\":1133:1136  eth */\n      0x03\n        /* \"bootcampquiz.sol\":1133:1140  eth = 2 */\n      dup2\n      swap1\n      sstore\n      pop\n        /* \"bootcampquiz.sol\":1056:1152  if(convert==0)\r... */\n    tag_49:\n        /* \"bootcampquiz.sol\":1171:1175  true */\n      0x01\n        /* \"bootcampquiz.sol\":1162:1168  booked */\n      0x00\n      dup1\n        /* \"bootcampquiz.sol\":1162:1175  booked = true */\n      0x0100\n      exp\n      dup2\n      sload\n      dup2\n      0xff\n      mul\n      not\n      and\n      swap1\n      dup4\n      iszero\n      iszero\n      mul\n      or\n      swap1\n      sstore\n      pop\n        /* \"bootcampquiz.sol\":882:1183  function firstClass() public \r... */\n      jump\t// out\n        /* \"bootcampquiz.sol\":563:870  function economyClass() public \r... */\n    tag_20:\n        /* \"bootcampquiz.sol\":678:701  classTypes.economyClass */\n      0x01\n        /* \"bootcampquiz.sol\":674:676  u1 */\n      0x07\n      0x00\n        /* \"bootcampquiz.sol\":674:701  u1= classTypes.economyClass */\n      0x0100\n      exp\n      dup2\n      sload\n      dup2\n      0xff\n      mul\n      not\n      and\n      swap1\n      dup4\n      0x02\n      dup2\n      gt\n      iszero\n      tag_52\n      jumpi\n      tag_53\n      tag_46\n      jump\t// in\n    tag_53:\n    tag_52:\n      mul\n      or\n      swap1\n      sstore\n      pop\n        /* \"bootcampquiz.sol\":727:729  u1 */\n      0x07\n      0x00\n      swap1\n      sload\n      swap1\n      0x0100\n      exp\n      swap1\n      div\n      0xff\n      and\n        /* \"bootcampquiz.sol\":722:730  uint(u1) */\n      0x02\n      dup2\n      gt\n      iszero\n      tag_54\n      jumpi\n      tag_55\n      tag_46\n      jump\t// in\n    tag_55:\n    tag_54:\n        /* \"bootcampquiz.sol\":712:719  convert */\n      0x01\n        /* \"bootcampquiz.sol\":712:730  convert = uint(u1) */\n      dup2\n      swap1\n      sstore\n      pop\n        /* \"bootcampquiz.sol\":753:754  1 */\n      0x01\n        /* \"bootcampquiz.sol\":744:751  convert */\n      dup1\n      sload\n        /* \"bootcampquiz.sol\":744:754  convert==1 */\n      eq\n        /* \"bootcampquiz.sol\":741:839  if(convert==1)\r... */\n      iszero\n      tag_56\n      jumpi\n        /* \"bootcampquiz.sol\":780:805  realVal = \"Economy Class\" */\n      mload(0x40)\n      dup1\n      0x40\n      add\n      0x40\n      mstore\n      dup1\n      0x0d\n      dup2\n      mstore\n      0x20\n      add\n      0x45636f6e6f6d7920436c61737300000000000000000000000000000000000000\n      dup2\n      mstore\n      pop\n        /* \"bootcampquiz.sol\":780:787  realVal */\n      0x02\n        /* \"bootcampquiz.sol\":780:805  realVal = \"Economy Class\" */\n      swap1\n      dup1\n      mload\n      swap1\n      0x20\n      add\n      swap1\n      tag_57\n      swap3\n      swap2\n      swap1\n      tag_40\n      jump\t// in\n    tag_57:\n      pop\n        /* \"bootcampquiz.sol\":826:827  1 */\n      0x01\n        /* \"bootcampquiz.sol\":820:823  eth */\n      0x03\n        /* \"bootcampquiz.sol\":820:827  eth = 1 */\n      dup2\n      swap1\n      sstore\n      pop\n        /* \"bootcampquiz.sol\":741:839  if(convert==1)\r... */\n    tag_56:\n        /* \"bootcampquiz.sol\":858:862  true */\n      0x01\n        /* \"bootcampquiz.sol\":849:855  booked */\n      0x00\n      dup1\n        /* \"bootcampquiz.sol\":849:862  booked = true */\n      0x0100\n      exp\n      dup2\n      sload\n      dup2\n      0xff\n      mul\n      not\n      and\n      swap1\n      dup4\n      iszero\n      iszero\n      mul\n      or\n      swap1\n      sstore\n      pop\n        /* \"bootcampquiz.sol\":563:870  function economyClass() public \r... */\n      jump\t// out\n        /* \"bootcampquiz.sol\":1191:1492  function busnissClass() public {\r... */\n    tag_22:\n        /* \"bootcampquiz.sol\":1300:1323  classTypes.busnissClass */\n      0x02\n        /* \"bootcampquiz.sol\":1296:1298  u1 */\n      0x07\n      0x00\n        /* \"bootcampquiz.sol\":1296:1323  u1= classTypes.busnissClass */\n      0x0100\n      exp\n      dup2\n      sload\n      dup2\n      0xff\n      mul\n      not\n      and\n      swap1\n      dup4\n      0x02\n      dup2\n      gt\n      iszero\n      tag_59\n      jumpi\n      tag_60\n      tag_46\n      jump\t// in\n    tag_60:\n    tag_59:\n      mul\n      or\n      swap1\n      sstore\n      pop\n        /* \"bootcampquiz.sol\":1349:1351  u1 */\n      0x07\n      0x00\n      swap1\n      sload\n      swap1\n      0x0100\n      exp\n      swap1\n      div\n      0xff\n      and\n        /* \"bootcampquiz.sol\":1344:1352  uint(u1) */\n      0x02\n      dup2\n      gt\n      iszero\n      tag_61\n      jumpi\n      tag_62\n      tag_46\n      jump\t// in\n    tag_62:\n    tag_61:\n        /* \"bootcampquiz.sol\":1334:1341  convert */\n      0x01\n        /* \"bootcampquiz.sol\":1334:1352  convert = uint(u1) */\n      dup2\n      swap1\n      sstore\n      pop\n        /* \"bootcampquiz.sol\":1375:1376  2 */\n      0x02\n        /* \"bootcampquiz.sol\":1366:1373  convert */\n      sload(0x01)\n        /* \"bootcampquiz.sol\":1366:1376  convert==2 */\n      eq\n        /* \"bootcampquiz.sol\":1363:1461  if(convert==2)\r... */\n      iszero\n      tag_63\n      jumpi\n        /* \"bootcampquiz.sol\":1402:1427  realVal = \"Busniss Class\" */\n      mload(0x40)\n      dup1\n      0x40\n      add\n      0x40\n      mstore\n      dup1\n      0x0d\n      dup2\n      mstore\n      0x20\n      add\n      0x4275736e69737320436c61737300000000000000000000000000000000000000\n      dup2\n      mstore\n      pop\n        /* \"bootcampquiz.sol\":1402:1409  realVal */\n      0x02\n        /* \"bootcampquiz.sol\":1402:1427  realVal = \"Busniss Class\" */\n      swap1\n      dup1\n      mload\n      swap1\n      0x20\n      add\n      swap1\n      tag_64\n      swap3\n      swap2\n      swap1\n      tag_40\n      jump\t// in\n    tag_64:\n      pop\n        /* \"bootcampquiz.sol\":1448:1449  3 */\n      0x03\n        /* \"bootcampquiz.sol\":1442:1445  eth */\n      dup1\n        /* \"bootcampquiz.sol\":1442:1449  eth = 3 */\n      dup2\n      swap1\n      sstore\n      pop\n        /* \"bootcampquiz.sol\":1363:1461  if(convert==2)\r... */\n    tag_63:\n        /* \"bootcampquiz.sol\":1480:1484  true */\n      0x01\n        /* \"bootcampquiz.sol\":1471:1477  booked */\n      0x00\n      dup1\n        /* \"bootcampquiz.sol\":1471:1484  booked = true */\n      0x0100\n      exp\n      dup2\n      sload\n      dup2\n      0xff\n      mul\n      not\n      and\n      swap1\n      dup4\n      iszero\n      iszero\n      mul\n      or\n      swap1\n      sstore\n      pop\n        /* \"bootcampquiz.sol\":1191:1492  function busnissClass() public {\r... */\n      jump\t// out\n        /* \"bootcampquiz.sol\":463:500  mapping (address => User) public data */\n    tag_26:\n      mstore(0x20, 0x06)\n      dup1\n      0x00\n      mstore\n      keccak256(0x00, 0x40)\n      0x00\n      swap2\n      pop\n      swap1\n      pop\n      dup1\n      0x00\n      add\n      dup1\n      sload\n      tag_65\n      swap1\n      tag_34\n      jump\t// in\n    tag_65:\n      dup1\n      0x1f\n      add\n      0x20\n      dup1\n      swap2\n      div\n      mul\n      0x20\n      add\n      mload(0x40)\n      swap1\n      dup2\n      add\n      0x40\n      mstore\n      dup1\n      swap3\n      swap2\n      swap1\n      dup2\n      dup2\n      mstore\n      0x20\n      add\n      dup3\n      dup1\n      sload\n      tag_66\n      swap1\n      tag_34\n      jump\t// in\n    tag_66:\n      dup1\n      iszero\n      tag_67\n      jumpi\n      dup1\n      0x1f\n      lt\n      tag_68\n      jumpi\n      0x0100\n      dup1\n      dup4\n      sload\n      div\n      mul\n      dup4\n      mstore\n      swap2\n      0x20\n      add\n      swap2\n      jump(tag_67)\n    tag_68:\n      dup3\n      add\n      swap2\n      swap1\n      0x00\n      mstore\n      keccak256(0x00, 0x20)\n      swap1\n    tag_69:\n      dup2\n      sload\n      dup2\n      mstore\n      swap1\n      0x01\n      add\n      swap1\n      0x20\n      add\n      dup1\n      dup4\n      gt\n      tag_69\n      jumpi\n      dup3\n      swap1\n      sub\n      0x1f\n      and\n      dup3\n      add\n      swap2\n    tag_67:\n      pop\n      pop\n      pop\n      pop\n      pop\n      swap1\n      dup1\n      0x01\n      add\n      dup1\n      sload\n      tag_70\n      swap1\n      tag_34\n      jump\t// in\n    tag_70:\n      dup1\n      0x1f\n      add\n      0x20\n      dup1\n      swap2\n      div\n      mul\n      0x20\n      add\n      mload(0x40)\n      swap1\n      dup2\n      add\n      0x40\n      mstore\n      dup1\n      swap3\n      swap2\n      swap1\n      dup2\n      dup2\n      mstore\n      0x20\n      add\n      dup3\n      dup1\n      sload\n      tag_71\n      swap1\n      tag_34\n      jump\t// in\n    tag_71:\n      dup1\n      iszero\n      tag_72\n      jumpi\n      dup1\n      0x1f\n      lt\n      tag_73\n      jumpi\n      0x0100\n      dup1\n      dup4\n      sload\n      div\n      mul\n      dup4\n      mstore\n      swap2\n      0x20\n      add\n      swap2\n      jump(tag_72)\n    tag_73:\n      dup3\n      add\n      swap2\n      swap1\n      0x00\n      mstore\n      keccak256(0x00, 0x20)\n      swap1\n    tag_74:\n      dup2\n      sload\n      dup2\n      mstore\n      swap1\n      0x01\n      add\n      swap1\n      0x20\n      add\n      dup1\n      dup4\n      gt\n      tag_74\n      jumpi\n      dup3\n      swap1\n      sub\n      0x1f\n      and\n      dup3\n      add\n      swap2\n    tag_72:\n      pop\n      pop\n      pop\n      pop\n      pop\n      swap1\n      dup1\n      0x02\n      add\n      sload\n      swap1\n      dup1\n      0x03\n      add\n      dup1\n      sload\n      tag_75\n      swap1\n      tag_34\n      jump\t// in\n    tag_75:\n      dup1\n      0x1f\n      add\n      0x20\n      dup1\n      swap2\n      div\n      mul\n      0x20\n      add\n      mload(0x40)\n      swap1\n      dup2\n      add\n      0x40\n      mstore\n      dup1\n      swap3\n      swap2\n      swap1\n      dup2\n      dup2\n      mstore\n      0x20\n      add\n      dup3\n      dup1\n      sload\n      tag_76\n      swap1\n      tag_34\n      jump\t// in\n    tag_76:\n      dup1\n      iszero\n      tag_77\n      jumpi\n      dup1\n      0x1f\n      lt\n      tag_78\n      jumpi\n      0x0100\n      dup1\n      dup4\n      sload\n      div\n      mul\n      dup4\n      mstore\n      swap2\n      0x20\n      add\n      swap2\n      jump(tag_77)\n    tag_78:\n      dup3\n      add\n      swap2\n      swap1\n      0x00\n      mstore\n      keccak256(0x00, 0x20)\n      swap1\n    tag_79:\n      dup2\n      sload\n      dup2\n      mstore\n      swap1\n      0x01\n      add\n      swap1\n      0x20\n      add\n      dup1\n      dup4\n      gt\n      tag_79\n      jumpi\n      dup3\n      swap1\n      sub\n      0x1f\n      and\n      dup3\n      add\n      swap2\n    tag_77:\n      pop\n      pop\n      pop\n      pop\n      pop\n      swap1\n      dup1\n      0x04\n      add\n      sload\n      swap1\n      pop\n      dup6\n      jump\t// out\n    tag_40:\n      dup3\n      dup1\n      sload\n      tag_80\n      swap1\n      tag_34\n      jump\t// in\n    tag_80:\n      swap1\n      0x00\n      mstore\n      keccak256(0x00, 0x20)\n      swap1\n      0x1f\n      add\n      0x20\n      swap1\n      div\n      dup2\n      add\n      swap3\n      dup3\n      tag_82\n      jumpi\n      0x00\n      dup6\n      sstore\n      jump(tag_81)\n    tag_82:\n      dup3\n      0x1f\n      lt\n      tag_83\n      jumpi\n      dup1\n      mload\n      not(0xff)\n      and\n      dup4\n      dup1\n      add\n      or\n      dup6\n      sstore\n      jump(tag_81)\n    tag_83:\n      dup3\n      dup1\n      add\n      0x01\n      add\n      dup6\n      sstore\n      dup3\n      iszero\n      tag_81\n      jumpi\n      swap2\n      dup3\n      add\n    tag_84:\n      dup3\n      dup2\n      gt\n      iszero\n      tag_85\n      jumpi\n      dup3\n      mload\n      dup3\n      sstore\n      swap2\n      0x20\n      add\n      swap2\n      swap1\n      0x01\n      add\n      swap1\n      jump(tag_84)\n    tag_85:\n    tag_81:\n      pop\n      swap1\n      pop\n      tag_86\n      swap2\n      swap1\n      tag_87\n      jump\t// in\n    tag_86:\n      pop\n      swap1\n      jump\t// out\n    tag_87:\n    tag_88:\n      dup1\n      dup3\n      gt\n      iszero\n      tag_89\n      jumpi\n      0x00\n      dup2\n      0x00\n      swap1\n      sstore\n      pop\n      0x01\n      add\n      jump(tag_88)\n    tag_89:\n      pop\n      swap1\n      jump\t// out\n        /* \"#utility.yul\":7:419   */\n    tag_91:\n        /* \"#utility.yul\":85:90   */\n      0x00\n        /* \"#utility.yul\":110:176   */\n      tag_93\n        /* \"#utility.yul\":126:175   */\n      tag_94\n        /* \"#utility.yul\":168:174   */\n      dup5\n        /* \"#utility.yul\":126:175   */\n      tag_95\n      jump\t// in\n    tag_94:\n        /* \"#utility.yul\":110:176   */\n      tag_96\n      jump\t// in\n    tag_93:\n        /* \"#utility.yul\":101:176   */\n      swap1\n      pop\n        /* \"#utility.yul\":199:205   */\n      dup3\n        /* \"#utility.yul\":192:197   */\n      dup2\n        /* \"#utility.yul\":185:206   */\n      mstore\n        /* \"#utility.yul\":237:241   */\n      0x20\n        /* \"#utility.yul\":230:235   */\n      dup2\n        /* \"#utility.yul\":226:242   */\n      add\n        /* \"#utility.yul\":275:278   */\n      dup5\n        /* \"#utility.yul\":266:272   */\n      dup5\n        /* \"#utility.yul\":261:264   */\n      dup5\n        /* \"#utility.yul\":257:273   */\n      add\n        /* \"#utility.yul\":254:279   */\n      gt\n        /* \"#utility.yul\":251:363   */\n      iszero\n      tag_97\n      jumpi\n        /* \"#utility.yul\":282:361   */\n      tag_98\n      tag_99\n      jump\t// in\n    tag_98:\n        /* \"#utility.yul\":251:363   */\n    tag_97:\n        /* \"#utility.yul\":372:413   */\n      tag_100\n        /* \"#utility.yul\":406:412   */\n      dup5\n        /* \"#utility.yul\":401:404   */\n      dup3\n        /* \"#utility.yul\":396:399   */\n      dup6\n        /* \"#utility.yul\":372:413   */\n      tag_101\n      jump\t// in\n    tag_100:\n        /* \"#utility.yul\":91:419   */\n      pop\n        /* \"#utility.yul\":7:419   */\n      swap4\n      swap3\n      pop\n      pop\n      pop\n      jump\t// out\n        /* \"#utility.yul\":425:564   */\n    tag_102:\n        /* \"#utility.yul\":471:476   */\n      0x00\n        /* \"#utility.yul\":509:515   */\n      dup2\n        /* \"#utility.yul\":496:516   */\n      calldataload\n        /* \"#utility.yul\":487:516   */\n      swap1\n      pop\n        /* \"#utility.yul\":525:558   */\n      tag_104\n        /* \"#utility.yul\":552:557   */\n      dup2\n        /* \"#utility.yul\":525:558   */\n      tag_105\n      jump\t// in\n    tag_104:\n        /* \"#utility.yul\":425:564   */\n      swap3\n      swap2\n      pop\n      pop\n      jump\t// out\n        /* \"#utility.yul\":584:924   */\n    tag_106:\n        /* \"#utility.yul\":640:645   */\n      0x00\n        /* \"#utility.yul\":689:692   */\n      dup3\n        /* \"#utility.yul\":682:686   */\n      0x1f\n        /* \"#utility.yul\":674:680   */\n      dup4\n        /* \"#utility.yul\":670:687   */\n      add\n        /* \"#utility.yul\":666:693   */\n      slt\n        /* \"#utility.yul\":656:778   */\n      tag_108\n      jumpi\n        /* \"#utility.yul\":697:776   */\n      tag_109\n      tag_110\n      jump\t// in\n    tag_109:\n        /* \"#utility.yul\":656:778   */\n    tag_108:\n        /* \"#utility.yul\":814:820   */\n      dup2\n        /* \"#utility.yul\":801:821   */\n      calldataload\n        /* \"#utility.yul\":839:918   */\n      tag_111\n        /* \"#utility.yul\":914:917   */\n      dup5\n        /* \"#utility.yul\":906:912   */\n      dup3\n        /* \"#utility.yul\":899:903   */\n      0x20\n        /* \"#utility.yul\":891:897   */\n      dup7\n        /* \"#utility.yul\":887:904   */\n      add\n        /* \"#utility.yul\":839:918   */\n      tag_91\n      jump\t// in\n    tag_111:\n        /* \"#utility.yul\":830:918   */\n      swap2\n      pop\n        /* \"#utility.yul\":646:924   */\n      pop\n        /* \"#utility.yul\":584:924   */\n      swap3\n      swap2\n      pop\n      pop\n      jump\t// out\n        /* \"#utility.yul\":930:1069   */\n    tag_112:\n        /* \"#utility.yul\":976:981   */\n      0x00\n        /* \"#utility.yul\":1014:1020   */\n      dup2\n        /* \"#utility.yul\":1001:1021   */\n      calldataload\n        /* \"#utility.yul\":992:1021   */\n      swap1\n      pop\n        /* \"#utility.yul\":1030:1063   */\n      tag_114\n        /* \"#utility.yul\":1057:1062   */\n      dup2\n        /* \"#utility.yul\":1030:1063   */\n      tag_115\n      jump\t// in\n    tag_114:\n        /* \"#utility.yul\":930:1069   */\n      swap3\n      swap2\n      pop\n      pop\n      jump\t// out\n        /* \"#utility.yul\":1075:1404   */\n    tag_25:\n        /* \"#utility.yul\":1134:1140   */\n      0x00\n        /* \"#utility.yul\":1183:1185   */\n      0x20\n        /* \"#utility.yul\":1171:1180   */\n      dup3\n        /* \"#utility.yul\":1162:1169   */\n      dup5\n        /* \"#utility.yul\":1158:1181   */\n      sub\n        /* \"#utility.yul\":1154:1186   */\n      slt\n        /* \"#utility.yul\":1151:1270   */\n      iszero\n      tag_117\n      jumpi\n        /* \"#utility.yul\":1189:1268   */\n      tag_118\n      tag_119\n      jump\t// in\n    tag_118:\n        /* \"#utility.yul\":1151:1270   */\n    tag_117:\n        /* \"#utility.yul\":1309:1310   */\n      0x00\n        /* \"#utility.yul\":1334:1387   */\n      tag_120\n        /* \"#utility.yul\":1379:1386   */\n      dup5\n        /* \"#utility.yul\":1370:1376   */\n      dup3\n        /* \"#utility.yul\":1359:1368   */\n      dup6\n        /* \"#utility.yul\":1355:1377   */\n      add\n        /* \"#utility.yul\":1334:1387   */\n      tag_102\n      jump\t// in\n    tag_120:\n        /* \"#utility.yul\":1324:1387   */\n      swap2\n      pop\n        /* \"#utility.yul\":1280:1397   */\n      pop\n        /* \"#utility.yul\":1075:1404   */\n      swap3\n      swap2\n      pop\n      pop\n      jump\t// out\n        /* \"#utility.yul\":1410:2389   */\n    tag_11:\n        /* \"#utility.yul\":1507:1513   */\n      0x00\n        /* \"#utility.yul\":1515:1521   */\n      dup1\n        /* \"#utility.yul\":1523:1529   */\n      0x00\n        /* \"#utility.yul\":1572:1574   */\n      0x60\n        /* \"#utility.yul\":1560:1569   */\n      dup5\n        /* \"#utility.yul\":1551:1558   */\n      dup7\n        /* \"#utility.yul\":1547:1570   */\n      sub\n        /* \"#utility.yul\":1543:1575   */\n      slt\n        /* \"#utility.yul\":1540:1659   */\n      iszero\n      tag_122\n      jumpi\n        /* \"#utility.yul\":1578:1657   */\n      tag_123\n      tag_119\n      jump\t// in\n    tag_123:\n        /* \"#utility.yul\":1540:1659   */\n    tag_122:\n        /* \"#utility.yul\":1726:1727   */\n      0x00\n        /* \"#utility.yul\":1715:1724   */\n      dup5\n        /* \"#utility.yul\":1711:1728   */\n      add\n        /* \"#utility.yul\":1698:1729   */\n      calldataload\n        /* \"#utility.yul\":1756:1774   */\n      0xffffffffffffffff\n        /* \"#utility.yul\":1748:1754   */\n      dup2\n        /* \"#utility.yul\":1745:1775   */\n      gt\n        /* \"#utility.yul\":1742:1859   */\n      iszero\n      tag_124\n      jumpi\n        /* \"#utility.yul\":1778:1857   */\n      tag_125\n      tag_126\n      jump\t// in\n    tag_125:\n        /* \"#utility.yul\":1742:1859   */\n    tag_124:\n        /* \"#utility.yul\":1883:1946   */\n      tag_127\n        /* \"#utility.yul\":1938:1945   */\n      dup7\n        /* \"#utility.yul\":1929:1935   */\n      dup3\n        /* \"#utility.yul\":1918:1927   */\n      dup8\n        /* \"#utility.yul\":1914:1936   */\n      add\n        /* \"#utility.yul\":1883:1946   */\n      tag_106\n      jump\t// in\n    tag_127:\n        /* \"#utility.yul\":1873:1946   */\n      swap4\n      pop\n        /* \"#utility.yul\":1669:1956   */\n      pop\n        /* \"#utility.yul\":2023:2025   */\n      0x20\n        /* \"#utility.yul\":2012:2021   */\n      dup5\n        /* \"#utility.yul\":2008:2026   */\n      add\n        /* \"#utility.yul\":1995:2027   */\n      calldataload\n        /* \"#utility.yul\":2054:2072   */\n      0xffffffffffffffff\n        /* \"#utility.yul\":2046:2052   */\n      dup2\n        /* \"#utility.yul\":2043:2073   */\n      gt\n        /* \"#utility.yul\":2040:2157   */\n      iszero\n      tag_128\n      jumpi\n        /* \"#utility.yul\":2076:2155   */\n      tag_129\n      tag_126\n      jump\t// in\n    tag_129:\n        /* \"#utility.yul\":2040:2157   */\n    tag_128:\n        /* \"#utility.yul\":2181:2244   */\n      tag_130\n        /* \"#utility.yul\":2236:2243   */\n      dup7\n        /* \"#utility.yul\":2227:2233   */\n      dup3\n        /* \"#utility.yul\":2216:2225   */\n      dup8\n        /* \"#utility.yul\":2212:2234   */\n      add\n        /* \"#utility.yul\":2181:2244   */\n      tag_106\n      jump\t// in\n    tag_130:\n        /* \"#utility.yul\":2171:2244   */\n      swap3\n      pop\n        /* \"#utility.yul\":1966:2254   */\n      pop\n        /* \"#utility.yul\":2293:2295   */\n      0x40\n        /* \"#utility.yul\":2319:2372   */\n      tag_131\n        /* \"#utility.yul\":2364:2371   */\n      dup7\n        /* \"#utility.yul\":2355:2361   */\n      dup3\n        /* \"#utility.yul\":2344:2353   */\n      dup8\n        /* \"#utility.yul\":2340:2362   */\n      add\n        /* \"#utility.yul\":2319:2372   */\n      tag_112\n      jump\t// in\n    tag_131:\n        /* \"#utility.yul\":2309:2372   */\n      swap2\n      pop\n        /* \"#utility.yul\":2264:2382   */\n      pop\n        /* \"#utility.yul\":1410:2389   */\n      swap3\n      pop\n      swap3\n      pop\n      swap3\n      jump\t// out\n        /* \"#utility.yul\":2395:2548   */\n    tag_132:\n        /* \"#utility.yul\":2493:2541   */\n      tag_134\n        /* \"#utility.yul\":2535:2540   */\n      dup2\n        /* \"#utility.yul\":2493:2541   */\n      tag_135\n      jump\t// in\n    tag_134:\n        /* \"#utility.yul\":2488:2491   */\n      dup3\n        /* \"#utility.yul\":2481:2542   */\n      mstore\n        /* \"#utility.yul\":2395:2548   */\n      pop\n      pop\n      jump\t// out\n        /* \"#utility.yul\":2554:2918   */\n    tag_136:\n        /* \"#utility.yul\":2642:2645   */\n      0x00\n        /* \"#utility.yul\":2670:2709   */\n      tag_138\n        /* \"#utility.yul\":2703:2708   */\n      dup3\n        /* \"#utility.yul\":2670:2709   */\n      tag_139\n      jump\t// in\n    tag_138:\n        /* \"#utility.yul\":2725:2796   */\n      tag_140\n        /* \"#utility.yul\":2789:2795   */\n      dup2\n        /* \"#utility.yul\":2784:2787   */\n      dup6\n        /* \"#utility.yul\":2725:2796   */\n      tag_141\n      jump\t// in\n    tag_140:\n        /* \"#utility.yul\":2718:2796   */\n      swap4\n      pop\n        /* \"#utility.yul\":2805:2857   */\n      tag_142\n        /* \"#utility.yul\":2850:2856   */\n      dup2\n        /* \"#utility.yul\":2845:2848   */\n      dup6\n        /* \"#utility.yul\":2838:2842   */\n      0x20\n        /* \"#utility.yul\":2831:2836   */\n      dup7\n        /* \"#utility.yul\":2827:2843   */\n      add\n        /* \"#utility.yul\":2805:2857   */\n      tag_143\n      jump\t// in\n    tag_142:\n        /* \"#utility.yul\":2882:2911   */\n      tag_144\n        /* \"#utility.yul\":2904:2910   */\n      dup2\n        /* \"#utility.yul\":2882:2911   */\n      tag_145\n      jump\t// in\n    tag_144:\n        /* \"#utility.yul\":2877:2880   */\n      dup5\n        /* \"#utility.yul\":2873:2912   */\n      add\n        /* \"#utility.yul\":2866:2912   */\n      swap2\n      pop\n        /* \"#utility.yul\":2646:2918   */\n      pop\n        /* \"#utility.yul\":2554:2918   */\n      swap3\n      swap2\n      pop\n      pop\n      jump\t// out\n        /* \"#utility.yul\":2924:3290   */\n    tag_146:\n        /* \"#utility.yul\":3066:3069   */\n      0x00\n        /* \"#utility.yul\":3087:3154   */\n      tag_148\n        /* \"#utility.yul\":3151:3153   */\n      0x1d\n        /* \"#utility.yul\":3146:3149   */\n      dup4\n        /* \"#utility.yul\":3087:3154   */\n      tag_141\n      jump\t// in\n    tag_148:\n        /* \"#utility.yul\":3080:3154   */\n      swap2\n      pop\n        /* \"#utility.yul\":3163:3256   */\n      tag_149\n        /* \"#utility.yul\":3252:3255   */\n      dup3\n        /* \"#utility.yul\":3163:3256   */\n      tag_150\n      jump\t// in\n    tag_149:\n        /* \"#utility.yul\":3281:3283   */\n      0x20\n        /* \"#utility.yul\":3276:3279   */\n      dup3\n        /* \"#utility.yul\":3272:3284   */\n      add\n        /* \"#utility.yul\":3265:3284   */\n      swap1\n      pop\n        /* \"#utility.yul\":2924:3290   */\n      swap2\n      swap1\n      pop\n      jump\t// out\n        /* \"#utility.yul\":3296:3414   */\n    tag_151:\n        /* \"#utility.yul\":3383:3407   */\n      tag_153\n        /* \"#utility.yul\":3401:3406   */\n      dup2\n        /* \"#utility.yul\":3383:3407   */\n      tag_154\n      jump\t// in\n    tag_153:\n        /* \"#utility.yul\":3378:3381   */\n      dup3\n        /* \"#utility.yul\":3371:3408   */\n      mstore\n        /* \"#utility.yul\":3296:3414   */\n      pop\n      pop\n      jump\t// out\n        /* \"#utility.yul\":3420:3664   */\n    tag_16:\n        /* \"#utility.yul\":3524:3528   */\n      0x00\n        /* \"#utility.yul\":3562:3564   */\n      0x20\n        /* \"#utility.yul\":3551:3560   */\n      dup3\n        /* \"#utility.yul\":3547:3565   */\n      add\n        /* \"#utility.yul\":3539:3565   */\n      swap1\n      pop\n        /* \"#utility.yul\":3575:3657   */\n      tag_156\n        /* \"#utility.yul\":3654:3655   */\n      0x00\n        /* \"#utility.yul\":3643:3652   */\n      dup4\n        /* \"#utility.yul\":3639:3656   */\n      add\n        /* \"#utility.yul\":3630:3636   */\n      dup5\n        /* \"#utility.yul\":3575:3657   */\n      tag_132\n      jump\t// in\n    tag_156:\n        /* \"#utility.yul\":3420:3664   */\n      swap3\n      swap2\n      pop\n      pop\n      jump\t// out\n        /* \"#utility.yul\":3670:4607   */\n    tag_28:\n        /* \"#utility.yul\":3935:3939   */\n      0x00\n        /* \"#utility.yul\":3973:3976   */\n      0xa0\n        /* \"#utility.yul\":3962:3971   */\n      dup3\n        /* \"#utility.yul\":3958:3977   */\n      add\n        /* \"#utility.yul\":3950:3977   */\n      swap1\n      pop\n        /* \"#utility.yul\":4023:4032   */\n      dup2\n        /* \"#utility.yul\":4017:4021   */\n      dup2\n        /* \"#utility.yul\":4013:4033   */\n      sub\n        /* \"#utility.yul\":4009:4010   */\n      0x00\n        /* \"#utility.yul\":3998:4007   */\n      dup4\n        /* \"#utility.yul\":3994:4011   */\n      add\n        /* \"#utility.yul\":3987:4034   */\n      mstore\n        /* \"#utility.yul\":4051:4129   */\n      tag_158\n        /* \"#utility.yul\":4124:4128   */\n      dup2\n        /* \"#utility.yul\":4115:4121   */\n      dup9\n        /* \"#utility.yul\":4051:4129   */\n      tag_136\n      jump\t// in\n    tag_158:\n        /* \"#utility.yul\":4043:4129   */\n      swap1\n      pop\n        /* \"#utility.yul\":4176:4185   */\n      dup2\n        /* \"#utility.yul\":4170:4174   */\n      dup2\n        /* \"#utility.yul\":4166:4186   */\n      sub\n        /* \"#utility.yul\":4161:4163   */\n      0x20\n        /* \"#utility.yul\":4150:4159   */\n      dup4\n        /* \"#utility.yul\":4146:4164   */\n      add\n        /* \"#utility.yul\":4139:4187   */\n      mstore\n        /* \"#utility.yul\":4204:4282   */\n      tag_159\n        /* \"#utility.yul\":4277:4281   */\n      dup2\n        /* \"#utility.yul\":4268:4274   */\n      dup8\n        /* \"#utility.yul\":4204:4282   */\n      tag_136\n      jump\t// in\n    tag_159:\n        /* \"#utility.yul\":4196:4282   */\n      swap1\n      pop\n        /* \"#utility.yul\":4292:4364   */\n      tag_160\n        /* \"#utility.yul\":4360:4362   */\n      0x40\n        /* \"#utility.yul\":4349:4358   */\n      dup4\n        /* \"#utility.yul\":4345:4363   */\n      add\n        /* \"#utility.yul\":4336:4342   */\n      dup7\n        /* \"#utility.yul\":4292:4364   */\n      tag_151\n      jump\t// in\n    tag_160:\n        /* \"#utility.yul\":4411:4420   */\n      dup2\n        /* \"#utility.yul\":4405:4409   */\n      dup2\n        /* \"#utility.yul\":4401:4421   */\n      sub\n        /* \"#utility.yul\":4396:4398   */\n      0x60\n        /* \"#utility.yul\":4385:4394   */\n      dup4\n        /* \"#utility.yul\":4381:4399   */\n      add\n        /* \"#utility.yul\":4374:4422   */\n      mstore\n        /* \"#utility.yul\":4439:4517   */\n      tag_161\n        /* \"#utility.yul\":4512:4516   */\n      dup2\n        /* \"#utility.yul\":4503:4509   */\n      dup6\n        /* \"#utility.yul\":4439:4517   */\n      tag_136\n      jump\t// in\n    tag_161:\n        /* \"#utility.yul\":4431:4517   */\n      swap1\n      pop\n        /* \"#utility.yul\":4527:4600   */\n      tag_162\n        /* \"#utility.yul\":4595:4598   */\n      0x80\n        /* \"#utility.yul\":4584:4593   */\n      dup4\n        /* \"#utility.yul\":4580:4599   */\n      add\n        /* \"#utility.yul\":4571:4577   */\n      dup5\n        /* \"#utility.yul\":4527:4600   */\n      tag_151\n      jump\t// in\n    tag_162:\n        /* \"#utility.yul\":3670:4607   */\n      swap7\n      swap6\n      pop\n      pop\n      pop\n      pop\n      pop\n      pop\n      jump\t// out\n        /* \"#utility.yul\":4613:5032   */\n    tag_32:\n        /* \"#utility.yul\":4779:4783   */\n      0x00\n        /* \"#utility.yul\":4817:4819   */\n      0x20\n        /* \"#utility.yul\":4806:4815   */\n      dup3\n        /* \"#utility.yul\":4802:4820   */\n      add\n        /* \"#utility.yul\":4794:4820   */\n      swap1\n      pop\n        /* \"#utility.yul\":4866:4875   */\n      dup2\n        /* \"#utility.yul\":4860:4864   */\n      dup2\n        /* \"#utility.yul\":4856:4876   */\n      sub\n        /* \"#utility.yul\":4852:4853   */\n      0x00\n        /* \"#utility.yul\":4841:4850   */\n      dup4\n        /* \"#utility.yul\":4837:4854   */\n      add\n        /* \"#utility.yul\":4830:4877   */\n      mstore\n        /* \"#utility.yul\":4894:5025   */\n      tag_164\n        /* \"#utility.yul\":5020:5024   */\n      dup2\n        /* \"#utility.yul\":4894:5025   */\n      tag_146\n      jump\t// in\n    tag_164:\n        /* \"#utility.yul\":4886:5025   */\n      swap1\n      pop\n        /* \"#utility.yul\":4613:5032   */\n      swap2\n      swap1\n      pop\n      jump\t// out\n        /* \"#utility.yul\":5038:5167   */\n    tag_96:\n        /* \"#utility.yul\":5072:5078   */\n      0x00\n        /* \"#utility.yul\":5099:5119   */\n      tag_166\n      tag_167\n      jump\t// in\n    tag_166:\n        /* \"#utility.yul\":5089:5119   */\n      swap1\n      pop\n        /* \"#utility.yul\":5128:5161   */\n      tag_168\n        /* \"#utility.yul\":5156:5160   */\n      dup3\n        /* \"#utility.yul\":5148:5154   */\n      dup3\n        /* \"#utility.yul\":5128:5161   */\n      tag_169\n      jump\t// in\n    tag_168:\n        /* \"#utility.yul\":5038:5167   */\n      swap2\n      swap1\n      pop\n      jump\t// out\n        /* \"#utility.yul\":5173:5248   */\n    tag_167:\n        /* \"#utility.yul\":5206:5212   */\n      0x00\n        /* \"#utility.yul\":5239:5241   */\n      0x40\n        /* \"#utility.yul\":5233:5242   */\n      mload\n        /* \"#utility.yul\":5223:5242   */\n      swap1\n      pop\n        /* \"#utility.yul\":5173:5248   */\n      swap1\n      jump\t// out\n        /* \"#utility.yul\":5254:5562   */\n    tag_95:\n        /* \"#utility.yul\":5316:5320   */\n      0x00\n        /* \"#utility.yul\":5406:5424   */\n      0xffffffffffffffff\n        /* \"#utility.yul\":5398:5404   */\n      dup3\n        /* \"#utility.yul\":5395:5425   */\n      gt\n        /* \"#utility.yul\":5392:5448   */\n      iszero\n      tag_172\n      jumpi\n        /* \"#utility.yul\":5428:5446   */\n      tag_173\n      tag_174\n      jump\t// in\n    tag_173:\n        /* \"#utility.yul\":5392:5448   */\n    tag_172:\n        /* \"#utility.yul\":5466:5495   */\n      tag_175\n        /* \"#utility.yul\":5488:5494   */\n      dup3\n        /* \"#utility.yul\":5466:5495   */\n      tag_145\n      jump\t// in\n    tag_175:\n        /* \"#utility.yul\":5458:5495   */\n      swap1\n      pop\n        /* \"#utility.yul\":5550:5554   */\n      0x20\n        /* \"#utility.yul\":5544:5548   */\n      dup2\n        /* \"#utility.yul\":5540:5555   */\n      add\n        /* \"#utility.yul\":5532:5555   */\n      swap1\n      pop\n        /* \"#utility.yul\":5254:5562   */\n      swap2\n      swap1\n      pop\n      jump\t// out\n        /* \"#utility.yul\":5568:5667   */\n    tag_139:\n        /* \"#utility.yul\":5620:5626   */\n      0x00\n        /* \"#utility.yul\":5654:5659   */\n      dup2\n        /* \"#utility.yul\":5648:5660   */\n      mload\n        /* \"#utility.yul\":5638:5660   */\n      swap1\n      pop\n        /* \"#utility.yul\":5568:5667   */\n      swap2\n      swap1\n      pop\n      jump\t// out\n        /* \"#utility.yul\":5673:5842   */\n    tag_141:\n        /* \"#utility.yul\":5757:5768   */\n      0x00\n        /* \"#utility.yul\":5791:5797   */\n      dup3\n        /* \"#utility.yul\":5786:5789   */\n      dup3\n        /* \"#utility.yul\":5779:5798   */\n      mstore\n        /* \"#utility.yul\":5831:5835   */\n      0x20\n        /* \"#utility.yul\":5826:5829   */\n      dup3\n        /* \"#utility.yul\":5822:5836   */\n      add\n        /* \"#utility.yul\":5807:5836   */\n      swap1\n      pop\n        /* \"#utility.yul\":5673:5842   */\n      swap3\n      swap2\n      pop\n      pop\n      jump\t// out\n        /* \"#utility.yul\":5848:5944   */\n    tag_178:\n        /* \"#utility.yul\":5885:5892   */\n      0x00\n        /* \"#utility.yul\":5914:5938   */\n      tag_180\n        /* \"#utility.yul\":5932:5937   */\n      dup3\n        /* \"#utility.yul\":5914:5938   */\n      tag_181\n      jump\t// in\n    tag_180:\n        /* \"#utility.yul\":5903:5938   */\n      swap1\n      pop\n        /* \"#utility.yul\":5848:5944   */\n      swap2\n      swap1\n      pop\n      jump\t// out\n        /* \"#utility.yul\":5950:6087   */\n    tag_182:\n        /* \"#utility.yul\":6000:6007   */\n      0x00\n        /* \"#utility.yul\":6029:6034   */\n      dup2\n        /* \"#utility.yul\":6018:6034   */\n      swap1\n      pop\n        /* \"#utility.yul\":6035:6081   */\n      tag_184\n        /* \"#utility.yul\":6075:6080   */\n      dup3\n        /* \"#utility.yul\":6035:6081   */\n      tag_185\n      jump\t// in\n    tag_184:\n        /* \"#utility.yul\":5950:6087   */\n      swap2\n      swap1\n      pop\n      jump\t// out\n        /* \"#utility.yul\":6093:6219   */\n    tag_181:\n        /* \"#utility.yul\":6130:6137   */\n      0x00\n        /* \"#utility.yul\":6170:6212   */\n      0xffffffffffffffffffffffffffffffffffffffff\n        /* \"#utility.yul\":6163:6168   */\n      dup3\n        /* \"#utility.yul\":6159:6213   */\n      and\n        /* \"#utility.yul\":6148:6213   */\n      swap1\n      pop\n        /* \"#utility.yul\":6093:6219   */\n      swap2\n      swap1\n      pop\n      jump\t// out\n        /* \"#utility.yul\":6225:6302   */\n    tag_154:\n        /* \"#utility.yul\":6262:6269   */\n      0x00\n        /* \"#utility.yul\":6291:6296   */\n      dup2\n        /* \"#utility.yul\":6280:6296   */\n      swap1\n      pop\n        /* \"#utility.yul\":6225:6302   */\n      swap2\n      swap1\n      pop\n      jump\t// out\n        /* \"#utility.yul\":6308:6445   */\n    tag_135:\n        /* \"#utility.yul\":6369:6378   */\n      0x00\n        /* \"#utility.yul\":6402:6439   */\n      tag_189\n        /* \"#utility.yul\":6433:6438   */\n      dup3\n        /* \"#utility.yul\":6402:6439   */\n      tag_182\n      jump\t// in\n    tag_189:\n        /* \"#utility.yul\":6389:6439   */\n      swap1\n      pop\n        /* \"#utility.yul\":6308:6445   */\n      swap2\n      swap1\n      pop\n      jump\t// out\n        /* \"#utility.yul\":6451:6605   */\n    tag_101:\n        /* \"#utility.yul\":6535:6541   */\n      dup3\n        /* \"#utility.yul\":6530:6533   */\n      dup2\n        /* \"#utility.yul\":6525:6528   */\n      dup4\n        /* \"#utility.yul\":6512:6542   */\n      calldatacopy\n        /* \"#utility.yul\":6597:6598   */\n      0x00\n        /* \"#utility.yul\":6588:6594   */\n      dup4\n        /* \"#utility.yul\":6583:6586   */\n      dup4\n        /* \"#utility.yul\":6579:6595   */\n      add\n        /* \"#utility.yul\":6572:6599   */\n      mstore\n        /* \"#utility.yul\":6451:6605   */\n      pop\n      pop\n      pop\n      jump\t// out\n        /* \"#utility.yul\":6611:6918   */\n    tag_143:\n        /* \"#utility.yul\":6679:6680   */\n      0x00\n        /* \"#utility.yul\":6689:6802   */\n    tag_192:\n        /* \"#utility.yul\":6703:6709   */\n      dup4\n        /* \"#utility.yul\":6700:6701   */\n      dup2\n        /* \"#utility.yul\":6697:6710   */\n      lt\n        /* \"#utility.yul\":6689:6802   */\n      iszero\n      tag_194\n      jumpi\n        /* \"#utility.yul\":6788:6789   */\n      dup1\n        /* \"#utility.yul\":6783:6786   */\n      dup3\n        /* \"#utility.yul\":6779:6790   */\n      add\n        /* \"#utility.yul\":6773:6791   */\n      mload\n        /* \"#utility.yul\":6769:6770   */\n      dup2\n        /* \"#utility.yul\":6764:6767   */\n      dup5\n        /* \"#utility.yul\":6760:6771   */\n      add\n        /* \"#utility.yul\":6753:6792   */\n      mstore\n        /* \"#utility.yul\":6725:6727   */\n      0x20\n        /* \"#utility.yul\":6722:6723   */\n      dup2\n        /* \"#utility.yul\":6718:6728   */\n      add\n        /* \"#utility.yul\":6713:6728   */\n      swap1\n      pop\n        /* \"#utility.yul\":6689:6802   */\n      jump(tag_192)\n    tag_194:\n        /* \"#utility.yul\":6820:6826   */\n      dup4\n        /* \"#utility.yul\":6817:6818   */\n      dup2\n        /* \"#utility.yul\":6814:6827   */\n      gt\n        /* \"#utility.yul\":6811:6912   */\n      iszero\n      tag_195\n      jumpi\n        /* \"#utility.yul\":6900:6901   */\n      0x00\n        /* \"#utility.yul\":6891:6897   */\n      dup5\n        /* \"#utility.yul\":6886:6889   */\n      dup5\n        /* \"#utility.yul\":6882:6898   */\n      add\n        /* \"#utility.yul\":6875:6902   */\n      mstore\n        /* \"#utility.yul\":6811:6912   */\n    tag_195:\n        /* \"#utility.yul\":6660:6918   */\n      pop\n        /* \"#utility.yul\":6611:6918   */\n      pop\n      pop\n      pop\n      jump\t// out\n        /* \"#utility.yul\":6924:7244   */\n    tag_34:\n        /* \"#utility.yul\":6968:6974   */\n      0x00\n        /* \"#utility.yul\":7005:7006   */\n      0x02\n        /* \"#utility.yul\":6999:7003   */\n      dup3\n        /* \"#utility.yul\":6995:7007   */\n      div\n        /* \"#utility.yul\":6985:7007   */\n      swap1\n      pop\n        /* \"#utility.yul\":7052:7053   */\n      0x01\n        /* \"#utility.yul\":7046:7050   */\n      dup3\n        /* \"#utility.yul\":7042:7054   */\n      and\n        /* \"#utility.yul\":7073:7091   */\n      dup1\n        /* \"#utility.yul\":7063:7144   */\n      tag_197\n      jumpi\n        /* \"#utility.yul\":7129:7133   */\n      0x7f\n        /* \"#utility.yul\":7121:7127   */\n      dup3\n        /* \"#utility.yul\":7117:7134   */\n      and\n        /* \"#utility.yul\":7107:7134   */\n      swap2\n      pop\n        /* \"#utility.yul\":7063:7144   */\n    tag_197:\n        /* \"#utility.yul\":7191:7193   */\n      0x20\n        /* \"#utility.yul\":7183:7189   */\n      dup3\n        /* \"#utility.yul\":7180:7194   */\n      lt\n        /* \"#utility.yul\":7160:7178   */\n      dup2\n        /* \"#utility.yul\":7157:7195   */\n      eq\n        /* \"#utility.yul\":7154:7238   */\n      iszero\n      tag_198\n      jumpi\n        /* \"#utility.yul\":7210:7228   */\n      tag_199\n      tag_200\n      jump\t// in\n    tag_199:\n        /* \"#utility.yul\":7154:7238   */\n    tag_198:\n        /* \"#utility.yul\":6975:7244   */\n      pop\n        /* \"#utility.yul\":6924:7244   */\n      swap2\n      swap1\n      pop\n      jump\t// out\n        /* \"#utility.yul\":7250:7531   */\n    tag_169:\n        /* \"#utility.yul\":7333:7360   */\n      tag_202\n        /* \"#utility.yul\":7355:7359   */\n      dup3\n        /* \"#utility.yul\":7333:7360   */\n      tag_145\n      jump\t// in\n    tag_202:\n        /* \"#utility.yul\":7325:7331   */\n      dup2\n        /* \"#utility.yul\":7321:7361   */\n      add\n        /* \"#utility.yul\":7463:7469   */\n      dup2\n        /* \"#utility.yul\":7451:7461   */\n      dup2\n        /* \"#utility.yul\":7448:7470   */\n      lt\n        /* \"#utility.yul\":7427:7445   */\n      0xffffffffffffffff\n        /* \"#utility.yul\":7415:7425   */\n      dup3\n        /* \"#utility.yul\":7412:7446   */\n      gt\n        /* \"#utility.yul\":7409:7471   */\n      or\n        /* \"#utility.yul\":7406:7494   */\n      iszero\n      tag_203\n      jumpi\n        /* \"#utility.yul\":7474:7492   */\n      tag_204\n      tag_174\n      jump\t// in\n    tag_204:\n        /* \"#utility.yul\":7406:7494   */\n    tag_203:\n        /* \"#utility.yul\":7514:7524   */\n      dup1\n        /* \"#utility.yul\":7510:7512   */\n      0x40\n        /* \"#utility.yul\":7503:7525   */\n      mstore\n        /* \"#utility.yul\":7293:7531   */\n      pop\n        /* \"#utility.yul\":7250:7531   */\n      pop\n      pop\n      jump\t// out\n        /* \"#utility.yul\":7537:7717   */\n    tag_46:\n        /* \"#utility.yul\":7585:7662   */\n      0x4e487b7100000000000000000000000000000000000000000000000000000000\n        /* \"#utility.yul\":7582:7583   */\n      0x00\n        /* \"#utility.yul\":7575:7663   */\n      mstore\n        /* \"#utility.yul\":7682:7686   */\n      0x21\n        /* \"#utility.yul\":7679:7680   */\n      0x04\n        /* \"#utility.yul\":7672:7687   */\n      mstore\n        /* \"#utility.yul\":7706:7710   */\n      0x24\n        /* \"#utility.yul\":7703:7704   */\n      0x00\n        /* \"#utility.yul\":7696:7711   */\n      revert\n        /* \"#utility.yul\":7723:7903   */\n    tag_200:\n        /* \"#utility.yul\":7771:7848   */\n      0x4e487b7100000000000000000000000000000000000000000000000000000000\n        /* \"#utility.yul\":7768:7769   */\n      0x00\n        /* \"#utility.yul\":7761:7849   */\n      mstore\n        /* \"#utility.yul\":7868:7872   */\n      0x22\n        /* \"#utility.yul\":7865:7866   */\n      0x04\n        /* \"#utility.yul\":7858:7873   */\n      mstore\n        /* \"#utility.yul\":7892:7896   */\n      0x24\n        /* \"#utility.yul\":7889:7890   */\n      0x00\n        /* \"#utility.yul\":7882:7897   */\n      revert\n        /* \"#utility.yul\":7909:8089   */\n    tag_174:\n        /* \"#utility.yul\":7957:8034   */\n      0x4e487b7100000000000000000000000000000000000000000000000000000000\n        /* \"#utility.yul\":7954:7955   */\n      0x00\n        /* \"#utility.yul\":7947:8035   */\n      mstore\n        /* \"#utility.yul\":8054:8058   */\n      0x41\n        /* \"#utility.yul\":8051:8052   */\n      0x04\n        /* \"#utility.yul\":8044:8059   */\n      mstore\n        /* \"#utility.yul\":8078:8082   */\n      0x24\n        /* \"#utility.yul\":8075:8076   */\n      0x00\n        /* \"#utility.yul\":8068:8083   */\n      revert\n        /* \"#utility.yul\":8095:8212   */\n    tag_110:\n        /* \"#utility.yul\":8204:8205   */\n      0x00\n        /* \"#utility.yul\":8201:8202   */\n      dup1\n        /* \"#utility.yul\":8194:8206   */\n      revert\n        /* \"#utility.yul\":8218:8335   */\n    tag_99:\n        /* \"#utility.yul\":8327:8328   */\n      0x00\n        /* \"#utility.yul\":8324:8325   */\n      dup1\n        /* \"#utility.yul\":8317:8329   */\n      revert\n        /* \"#utility.yul\":8341:8458   */\n    tag_126:\n        /* \"#utility.yul\":8450:8451   */\n      0x00\n        /* \"#utility.yul\":8447:8448   */\n      dup1\n        /* \"#utility.yul\":8440:8452   */\n      revert\n        /* \"#utility.yul\":8464:8581   */\n    tag_119:\n        /* \"#utility.yul\":8573:8574   */\n      0x00\n        /* \"#utility.yul\":8570:8571   */\n      dup1\n        /* \"#utility.yul\":8563:8575   */\n      revert\n        /* \"#utility.yul\":8587:8689   */\n    tag_145:\n        /* \"#utility.yul\":8628:8634   */\n      0x00\n        /* \"#utility.yul\":8679:8681   */\n      0x1f\n        /* \"#utility.yul\":8675:8682   */\n      not\n        /* \"#utility.yul\":8670:8672   */\n      0x1f\n        /* \"#utility.yul\":8663:8668   */\n      dup4\n        /* \"#utility.yul\":8659:8673   */\n      add\n        /* \"#utility.yul\":8655:8683   */\n      and\n        /* \"#utility.yul\":8645:8683   */\n      swap1\n      pop\n        /* \"#utility.yul\":8587:8689   */\n      swap2\n      swap1\n      pop\n      jump\t// out\n        /* \"#utility.yul\":8695:8874   */\n    tag_150:\n        /* \"#utility.yul\":8835:8866   */\n      0x706c656173652073656c6563742074686520636c617373206669727374000000\n        /* \"#utility.yul\":8831:8832   */\n      0x00\n        /* \"#utility.yul\":8823:8829   */\n      dup3\n        /* \"#utility.yul\":8819:8833   */\n      add\n        /* \"#utility.yul\":8812:8867   */\n      mstore\n        /* \"#utility.yul\":8695:8874   */\n      pop\n      jump\t// out\n        /* \"#utility.yul\":8880:8998   */\n    tag_185:\n        /* \"#utility.yul\":8966:8967   */\n      0x03\n        /* \"#utility.yul\":8959:8964   */\n      dup2\n        /* \"#utility.yul\":8956:8968   */\n      lt\n        /* \"#utility.yul\":8946:8992   */\n      tag_215\n      jumpi\n        /* \"#utility.yul\":8972:8990   */\n      tag_216\n      tag_46\n      jump\t// in\n    tag_216:\n        /* \"#utility.yul\":8946:8992   */\n    tag_215:\n        /* \"#utility.yul\":8880:8998   */\n      pop\n      jump\t// out\n        /* \"#utility.yul\":9004:9126   */\n    tag_105:\n        /* \"#utility.yul\":9077:9101   */\n      tag_218\n        /* \"#utility.yul\":9095:9100   */\n      dup2\n        /* \"#utility.yul\":9077:9101   */\n      tag_178\n      jump\t// in\n    tag_218:\n        /* \"#utility.yul\":9070:9075   */\n      dup2\n        /* \"#utility.yul\":9067:9102   */\n      eq\n        /* \"#utility.yul\":9057:9120   */\n      tag_219\n      jumpi\n        /* \"#utility.yul\":9116:9117   */\n      0x00\n        /* \"#utility.yul\":9113:9114   */\n      dup1\n        /* \"#utility.yul\":9106:9118   */\n      revert\n        /* \"#utility.yul\":9057:9120   */\n    tag_219:\n        /* \"#utility.yul\":9004:9126   */\n      pop\n      jump\t// out\n        /* \"#utility.yul\":9132:9254   */\n    tag_115:\n        /* \"#utility.yul\":9205:9229   */\n      tag_221\n        /* \"#utility.yul\":9223:9228   */\n      dup2\n        /* \"#utility.yul\":9205:9229   */\n      tag_154\n      jump\t// in\n    tag_221:\n        /* \"#utility.yul\":9198:9203   */\n      dup2\n        /* \"#utility.yul\":9195:9230   */\n      eq\n        /* \"#utility.yul\":9185:9248   */\n      tag_222\n      jumpi\n        /* \"#utility.yul\":9244:9245   */\n      0x00\n        /* \"#utility.yul\":9241:9242   */\n      dup1\n        /* \"#utility.yul\":9234:9246   */\n      revert\n        /* \"#utility.yul\":9185:9248   */\n    tag_222:\n        /* \"#utility.yul\":9132:9254   */\n      pop\n      jump\t// out\n\n    auxdata: 0xa2646970667358221220d70c956a6774f361823b6a90ebb8e61bdff1369a322fbd3bde6c854fd935960d64736f6c63430008070033\n}\n",
				"bytecode": {
					"linkReferences": {},
					"object": "608060405260008060006101000a81548160ff0219169083151502179055506040518060400160405280600d81526020017f45636f6e6f6d7920436c61737300000000000000000000000000000000000000815250600290805190602001906200006b929190620000bf565b506001600455670de0b6b3a76400006005556001600760006101000a81548160ff02191690836002811115620000a657620000a5620001a5565b5b0217905550348015620000b857600080fd5b5062000203565b828054620000cd906200016f565b90600052602060002090601f016020900481019282620000f157600085556200013d565b82601f106200010c57805160ff19168380011785556200013d565b828001600101855582156200013d579182015b828111156200013c5782518255916020019190600101906200011f565b5b5090506200014c919062000150565b5090565b5b808211156200016b57600081600090555060010162000151565b5090565b600060028204905060018216806200018857607f821691505b602082108114156200019f576200019e620001d4565b5b50919050565b7f4e487b7100000000000000000000000000000000000000000000000000000000600052602160045260246000fd5b7f4e487b7100000000000000000000000000000000000000000000000000000000600052602260045260246000fd5b610cce80620002136000396000f3fe608060405234801561001057600080fd5b50600436106100625760003560e01c806317ae4589146100675780631aa356101461008357806350183507146100a15780637a1736d1146100ab578063b24fa0e4146100b5578063b90d3d0c146100bf575b600080fd5b610081600480360381019061007c919061085b565b6100f3565b005b61008b6102a5565b6040516100989190610960565b60405180910390f35b6100a96102b8565b005b6100b3610387565b005b6100bd610455565b005b6100d960048036038101906100d4919061082e565b610523565b6040516100ea95949392919061097b565b60405180910390f35b60008054906101000a900460ff16610140576040517f08c379a0000000000000000000000000000000000000000000000000000000008152600401610137906109e3565b60405180910390fd5b6040518060a001604052808481526020018381526020018281526020016002805461016a90610b18565b80601f016020809104026020016040519081016040528092919081815260200182805461019690610b18565b80156101e35780601f106101b8576101008083540402835291602001916101e3565b820191906000526020600020905b8154815290600101906020018083116101c657829003601f168201915b50505050508152602001600354815250600660003373ffffffffffffffffffffffffffffffffffffffff1673ffffffffffffffffffffffffffffffffffffffff168152602001908152602001600020600082015181600001908051906020019061024e9291906106f1565b50602082015181600101908051906020019061026b9291906106f1565b506040820151816002015560608201518160030190805190602001906102929291906106f1565b5060808201518160040155905050505050565b600760009054906101000a900460ff1681565b6000600760006101000a81548160ff021916908360028111156102de576102dd610b7b565b5b0217905550600760009054906101000a900460ff16600281111561030557610304610b7b565b5b6001819055506000600154141561036b576040518060400160405280600b81526020017f466972737420436c617373000000000000000000000000000000000000000000815250600290805190602001906103619291906106f1565b5060026003819055505b60016000806101000a81548160ff021916908315150217905550565b6001600760006101000a81548160ff021916908360028111156103ad576103ac610b7b565b5b0217905550600760009054906101000a900460ff1660028111156103d4576103d3610b7b565b5b600181905550600180541415610439576040518060400160405280600d81526020017f45636f6e6f6d7920436c617373000000000000000000000000000000000000008152506002908051906020019061042f9291906106f1565b5060016003819055505b60016000806101000a81548160ff021916908315150217905550565b6002600760006101000a81548160ff0219169083600281111561047b5761047a610b7b565b5b0217905550600760009054906101000a900460ff1660028111156104a2576104a1610b7b565b5b60018190555060026001541415610507576040518060400160405280600d81526020017f4275736e69737320436c61737300000000000000000000000000000000000000815250600290805190602001906104fe9291906106f1565b50600380819055505b60016000806101000a81548160ff021916908315150217905550565b600660205280600052604060002060009150905080600001805461054690610b18565b80601f016020809104026020016040519081016040528092919081815260200182805461057290610b18565b80156105bf5780601f10610594576101008083540402835291602001916105bf565b820191906000526020600020905b8154815290600101906020018083116105a257829003601f168201915b5050505050908060010180546105d490610b18565b80601f016020809104026020016040519081016040528092919081815260200182805461060090610b18565b801561064d5780601f106106225761010080835404028352916020019161064d565b820191906000526020600020905b81548152906001019060200180831161063057829003601f168201915b50505050509080600201549080600301805461066890610b18565b80601f016020809104026020016040519081016040528092919081815260200182805461069490610b18565b80156106e15780601f106106b6576101008083540402835291602001916106e1565b820191906000526020600020905b8154815290600101906020018083116106c457829003601f168201915b5050505050908060040154905085565b8280546106fd90610b18565b90600052602060002090601f01602090048101928261071f5760008555610766565b82601f1061073857805160ff1916838001178555610766565b82800160010185558215610766579182015b8281111561076557825182559160200191906001019061074a565b5b5090506107739190610777565b5090565b5b80821115610790576000816000905550600101610778565b5090565b60006107a76107a284610a28565b610a03565b9050828152602081018484840111156107c3576107c2610c0d565b5b6107ce848285610ad6565b509392505050565b6000813590506107e581610c6a565b92915050565b600082601f830112610800576107ff610c08565b5b8135610810848260208601610794565b91505092915050565b60008135905061082881610c81565b92915050565b60006020828403121561084457610843610c17565b5b6000610852848285016107d6565b91505092915050565b60008060006060848603121561087457610873610c17565b5b600084013567ffffffffffffffff81111561089257610891610c12565b5b61089e868287016107eb565b935050602084013567ffffffffffffffff8111156108bf576108be610c12565b5b6108cb868287016107eb565b92505060406108dc86828701610819565b9150509250925092565b6108ef81610ac4565b82525050565b600061090082610a59565b61090a8185610a64565b935061091a818560208601610ae5565b61092381610c1c565b840191505092915050565b600061093b601d83610a64565b915061094682610c2d565b602082019050919050565b61095a81610aba565b82525050565b600060208201905061097560008301846108e6565b92915050565b600060a082019050818103600083015261099581886108f5565b905081810360208301526109a981876108f5565b90506109b86040830186610951565b81810360608301526109ca81856108f5565b90506109d96080830184610951565b9695505050505050565b600060208201905081810360008301526109fc8161092e565b9050919050565b6000610a0d610a1e565b9050610a198282610b4a565b919050565b6000604051905090565b600067ffffffffffffffff821115610a4357610a42610bd9565b5b610a4c82610c1c565b9050602081019050919050565b600081519050919050565b600082825260208201905092915050565b6000610a8082610a9a565b9050919050565b6000819050610a9582610c56565b919050565b600073ffffffffffffffffffffffffffffffffffffffff82169050919050565b6000819050919050565b6000610acf82610a87565b9050919050565b82818337600083830152505050565b60005b83811015610b03578082015181840152602081019050610ae8565b83811115610b12576000848401525b50505050565b60006002820490506001821680610b3057607f821691505b60208210811415610b4457610b43610baa565b5b50919050565b610b5382610c1c565b810181811067ffffffffffffffff82111715610b7257610b71610bd9565b5b80604052505050565b7f4e487b7100000000000000000000000000000000000000000000000000000000600052602160045260246000fd5b7f4e487b7100000000000000000000000000000000000000000000000000000000600052602260045260246000fd5b7f4e487b7100000000000000000000000000000000000000000000000000000000600052604160045260246000fd5b600080fd5b600080fd5b600080fd5b600080fd5b6000601f19601f8301169050919050565b7f706c656173652073656c6563742074686520636c617373206669727374000000600082015250565b60038110610c6757610c66610b7b565b5b50565b610c7381610a75565b8114610c7e57600080fd5b50565b610c8a81610aba565b8114610c9557600080fd5b5056fea2646970667358221220d70c956a6774f361823b6a90ebb8e61bdff1369a322fbd3bde6c854fd935960d64736f6c63430008070033",
					"opcodes": "PUSH1 0x80 PUSH1 0x40 MSTORE PUSH1 0x0 DUP1 PUSH1 0x0 PUSH2 0x100 EXP DUP2 SLOAD DUP2 PUSH1 0xFF MUL NOT AND SWAP1 DUP4 ISZERO ISZERO MUL OR SWAP1 SSTORE POP PUSH1 0x40 MLOAD DUP1 PUSH1 0x40 ADD PUSH1 0x40 MSTORE DUP1 PUSH1 0xD DUP2 MSTORE PUSH1 0x20 ADD PUSH32 0x45636F6E6F6D7920436C61737300000000000000000000000000000000000000 DUP2 MSTORE POP PUSH1 0x2 SWAP1 DUP1 MLOAD SWAP1 PUSH1 0x20 ADD SWAP1 PUSH3 0x6B SWAP3 SWAP2 SWAP1 PUSH3 0xBF JUMP JUMPDEST POP PUSH1 0x1 PUSH1 0x4 SSTORE PUSH8 0xDE0B6B3A7640000 PUSH1 0x5 SSTORE PUSH1 0x1 PUSH1 0x7 PUSH1 0x0 PUSH2 0x100 EXP DUP2 SLOAD DUP2 PUSH1 0xFF MUL NOT AND SWAP1 DUP4 PUSH1 0x2 DUP2 GT ISZERO PUSH3 0xA6 JUMPI PUSH3 0xA5 PUSH3 0x1A5 JUMP JUMPDEST JUMPDEST MUL OR SWAP1 SSTORE POP CALLVALUE DUP1 ISZERO PUSH3 0xB8 JUMPI PUSH1 0x0 DUP1 REVERT JUMPDEST POP PUSH3 0x203 JUMP JUMPDEST DUP3 DUP1 SLOAD PUSH3 0xCD SWAP1 PUSH3 0x16F JUMP JUMPDEST SWAP1 PUSH1 0x0 MSTORE PUSH1 0x20 PUSH1 0x0 KECCAK256 SWAP1 PUSH1 0x1F ADD PUSH1 0x20 SWAP1 DIV DUP2 ADD SWAP3 DUP3 PUSH3 0xF1 JUMPI PUSH1 0x0 DUP6 SSTORE PUSH3 0x13D JUMP JUMPDEST DUP3 PUSH1 0x1F LT PUSH3 0x10C JUMPI DUP1 MLOAD PUSH1 0xFF NOT AND DUP4 DUP1 ADD OR DUP6 SSTORE PUSH3 0x13D JUMP JUMPDEST DUP3 DUP1 ADD PUSH1 0x1 ADD DUP6 SSTORE DUP3 ISZERO PUSH3 0x13D JUMPI SWAP2 DUP3 ADD JUMPDEST DUP3 DUP2 GT ISZERO PUSH3 0x13C JUMPI DUP3 MLOAD DUP3 SSTORE SWAP2 PUSH1 0x20 ADD SWAP2 SWAP1 PUSH1 0x1 ADD SWAP1 PUSH3 0x11F JUMP JUMPDEST JUMPDEST POP SWAP1 POP PUSH3 0x14C SWAP2 SWAP1 PUSH3 0x150 JUMP JUMPDEST POP SWAP1 JUMP JUMPDEST JUMPDEST DUP1 DUP3 GT ISZERO PUSH3 0x16B JUMPI PUSH1 0x0 DUP2 PUSH1 0x0 SWAP1 SSTORE POP PUSH1 0x1 ADD PUSH3 0x151 JUMP JUMPDEST POP SWAP1 JUMP JUMPDEST PUSH1 0x0 PUSH1 0x2 DUP3 DIV SWAP1 POP PUSH1 0x1 DUP3 AND DUP1 PUSH3 0x188 JUMPI PUSH1 0x7F DUP3 AND SWAP2 POP JUMPDEST PUSH1 0x20 DUP3 LT DUP2 EQ ISZERO PUSH3 0x19F JUMPI PUSH3 0x19E PUSH3 0x1D4 JUMP JUMPDEST JUMPDEST POP SWAP2 SWAP1 POP JUMP JUMPDEST PUSH32 0x4E487B7100000000000000000000000000000000000000000000000000000000 PUSH1 0x0 MSTORE PUSH1 0x21 PUSH1 0x4 MSTORE PUSH1 0x24 PUSH1 0x0 REVERT JUMPDEST PUSH32 0x4E487B7100000000000000000000000000000000000000000000000000000000 PUSH1 0x0 MSTORE PUSH1 0x22 PUSH1 0x4 MSTORE PUSH1 0x24 PUSH1 0x0 REVERT JUMPDEST PUSH2 0xCCE DUP1 PUSH3 0x213 PUSH1 0x0 CODECOPY PUSH1 0x0 RETURN INVALID PUSH1 0x80 PUSH1 0x40 MSTORE CALLVALUE DUP1 ISZERO PUSH2 0x10 JUMPI PUSH1 0x0 DUP1 REVERT JUMPDEST POP PUSH1 0x4 CALLDATASIZE LT PUSH2 0x62 JUMPI PUSH1 0x0 CALLDATALOAD PUSH1 0xE0 SHR DUP1 PUSH4 0x17AE4589 EQ PUSH2 0x67 JUMPI DUP1 PUSH4 0x1AA35610 EQ PUSH2 0x83 JUMPI DUP1 PUSH4 0x50183507 EQ PUSH2 0xA1 JUMPI DUP1 PUSH4 0x7A1736D1 EQ PUSH2 0xAB JUMPI DUP1 PUSH4 0xB24FA0E4 EQ PUSH2 0xB5 JUMPI DUP1 PUSH4 0xB90D3D0C EQ PUSH2 0xBF JUMPI JUMPDEST PUSH1 0x0 DUP1 REVERT JUMPDEST PUSH2 0x81 PUSH1 0x4 DUP1 CALLDATASIZE SUB DUP2 ADD SWAP1 PUSH2 0x7C SWAP2 SWAP1 PUSH2 0x85B JUMP JUMPDEST PUSH2 0xF3 JUMP JUMPDEST STOP JUMPDEST PUSH2 0x8B PUSH2 0x2A5 JUMP JUMPDEST PUSH1 0x40 MLOAD PUSH2 0x98 SWAP2 SWAP1 PUSH2 0x960 JUMP JUMPDEST PUSH1 0x40 MLOAD DUP1 SWAP2 SUB SWAP1 RETURN JUMPDEST PUSH2 0xA9 PUSH2 0x2B8 JUMP JUMPDEST STOP JUMPDEST PUSH2 0xB3 PUSH2 0x387 JUMP JUMPDEST STOP JUMPDEST PUSH2 0xBD PUSH2 0x455 JUMP JUMPDEST STOP JUMPDEST PUSH2 0xD9 PUSH1 0x4 DUP1 CALLDATASIZE SUB DUP2 ADD SWAP1 PUSH2 0xD4 SWAP2 SWAP1 PUSH2 0x82E JUMP JUMPDEST PUSH2 0x523 JUMP JUMPDEST PUSH1 0x40 MLOAD PUSH2 0xEA SWAP6 SWAP5 SWAP4 SWAP3 SWAP2 SWAP1 PUSH2 0x97B JUMP JUMPDEST PUSH1 0x40 MLOAD DUP1 SWAP2 SUB SWAP1 RETURN JUMPDEST PUSH1 0x0 DUP1 SLOAD SWAP1 PUSH2 0x100 EXP SWAP1 DIV PUSH1 0xFF AND PUSH2 0x140 JUMPI PUSH1 0x40 MLOAD PUSH32 0x8C379A000000000000000000000000000000000000000000000000000000000 DUP2 MSTORE PUSH1 0x4 ADD PUSH2 0x137 SWAP1 PUSH2 0x9E3 JUMP JUMPDEST PUSH1 0x40 MLOAD DUP1 SWAP2 SUB SWAP1 REVERT JUMPDEST PUSH1 0x40 MLOAD DUP1 PUSH1 0xA0 ADD PUSH1 0x40 MSTORE DUP1 DUP5 DUP2 MSTORE PUSH1 0x20 ADD DUP4 DUP2 MSTORE PUSH1 0x20 ADD DUP3 DUP2 MSTORE PUSH1 0x20 ADD PUSH1 0x2 DUP1 SLOAD PUSH2 0x16A SWAP1 PUSH2 0xB18 JUMP JUMPDEST DUP1 PUSH1 0x1F ADD PUSH1 0x20 DUP1 SWAP2 DIV MUL PUSH1 0x20 ADD PUSH1 0x40 MLOAD SWAP1 DUP2 ADD PUSH1 0x40 MSTORE DUP1 SWAP3 SWAP2 SWAP1 DUP2 DUP2 MSTORE PUSH1 0x20 ADD DUP3 DUP1 SLOAD PUSH2 0x196 SWAP1 PUSH2 0xB18 JUMP JUMPDEST DUP1 ISZERO PUSH2 0x1E3 JUMPI DUP1 PUSH1 0x1F LT PUSH2 0x1B8 JUMPI PUSH2 0x100 DUP1 DUP4 SLOAD DIV MUL DUP4 MSTORE SWAP2 PUSH1 0x20 ADD SWAP2 PUSH2 0x1E3 JUMP JUMPDEST DUP3 ADD SWAP2 SWAP1 PUSH1 0x0 MSTORE PUSH1 0x20 PUSH1 0x0 KECCAK256 SWAP1 JUMPDEST DUP2 SLOAD DUP2 MSTORE SWAP1 PUSH1 0x1 ADD SWAP1 PUSH1 0x20 ADD DUP1 DUP4 GT PUSH2 0x1C6 JUMPI DUP3 SWAP1 SUB PUSH1 0x1F AND DUP3 ADD SWAP2 JUMPDEST POP POP POP POP POP DUP2 MSTORE PUSH1 0x20 ADD PUSH1 0x3 SLOAD DUP2 MSTORE POP PUSH1 0x6 PUSH1 0x0 CALLER PUSH20 0xFFFFFFFFFFFFFFFFFFFFFFFFFFFFFFFFFFFFFFFF AND PUSH20 0xFFFFFFFFFFFFFFFFFFFFFFFFFFFFFFFFFFFFFFFF AND DUP2 MSTORE PUSH1 0x20 ADD SWAP1 DUP2 MSTORE PUSH1 0x20 ADD PUSH1 0x0 KECCAK256 PUSH1 0x0 DUP3 ADD MLOAD DUP2 PUSH1 0x0 ADD SWAP1 DUP1 MLOAD SWAP1 PUSH1 0x20 ADD SWAP1 PUSH2 0x24E SWAP3 SWAP2 SWAP1 PUSH2 0x6F1 JUMP JUMPDEST POP PUSH1 0x20 DUP3 ADD MLOAD DUP2 PUSH1 0x1 ADD SWAP1 DUP1 MLOAD SWAP1 PUSH1 0x20 ADD SWAP1 PUSH2 0x26B SWAP3 SWAP2 SWAP1 PUSH2 0x6F1 JUMP JUMPDEST POP PUSH1 0x40 DUP3 ADD MLOAD DUP2 PUSH1 0x2 ADD SSTORE PUSH1 0x60 DUP3 ADD MLOAD DUP2 PUSH1 0x3 ADD SWAP1 DUP1 MLOAD SWAP1 PUSH1 0x20 ADD SWAP1 PUSH2 0x292 SWAP3 SWAP2 SWAP1 PUSH2 0x6F1 JUMP JUMPDEST POP PUSH1 0x80 DUP3 ADD MLOAD DUP2 PUSH1 0x4 ADD SSTORE SWAP1 POP POP POP POP POP JUMP JUMPDEST PUSH1 0x7 PUSH1 0x0 SWAP1 SLOAD SWAP1 PUSH2 0x100 EXP SWAP1 DIV PUSH1 0xFF AND DUP2 JUMP JUMPDEST PUSH1 0x0 PUSH1 0x7 PUSH1 0x0 PUSH2 0x100 EXP DUP2 SLOAD DUP2 PUSH1 0xFF MUL NOT AND SWAP1 DUP4 PUSH1 0x2 DUP2 GT ISZERO PUSH2 0x2DE JUMPI PUSH2 0x2DD PUSH2 0xB7B JUMP JUMPDEST JUMPDEST MUL OR SWAP1 SSTORE POP PUSH1 0x7 PUSH1 0x0 SWAP1 SLOAD SWAP1 PUSH2 0x100 EXP SWAP1 DIV PUSH1 0xFF AND PUSH1 0x2 DUP2 GT ISZERO PUSH2 0x305 JUMPI PUSH2 0x304 PUSH2 0xB7B JUMP JUMPDEST JUMPDEST PUSH1 0x1 DUP2 SWAP1 SSTORE POP PUSH1 0x0 PUSH1 0x1 SLOAD EQ ISZERO PUSH2 0x36B JUMPI PUSH1 0x40 MLOAD DUP1 PUSH1 0x40 ADD PUSH1 0x40 MSTORE DUP1 PUSH1 0xB DUP2 MSTORE PUSH1 0x20 ADD PUSH32 0x466972737420436C617373000000000000000000000000000000000000000000 DUP2 MSTORE POP PUSH1 0x2 SWAP1 DUP1 MLOAD SWAP1 PUSH1 0x20 ADD SWAP1 PUSH2 0x361 SWAP3 SWAP2 SWAP1 PUSH2 0x6F1 JUMP JUMPDEST POP PUSH1 0x2 PUSH1 0x3 DUP2 SWAP1 SSTORE POP JUMPDEST PUSH1 0x1 PUSH1 0x0 DUP1 PUSH2 0x100 EXP DUP2 SLOAD DUP2 PUSH1 0xFF MUL NOT AND SWAP1 DUP4 ISZERO ISZERO MUL OR SWAP1 SSTORE POP JUMP JUMPDEST PUSH1 0x1 PUSH1 0x7 PUSH1 0x0 PUSH2 0x100 EXP DUP2 SLOAD DUP2 PUSH1 0xFF MUL NOT AND SWAP1 DUP4 PUSH1 0x2 DUP2 GT ISZERO PUSH2 0x3AD JUMPI PUSH2 0x3AC PUSH2 0xB7B JUMP JUMPDEST JUMPDEST MUL OR SWAP1 SSTORE POP PUSH1 0x7 PUSH1 0x0 SWAP1 SLOAD SWAP1 PUSH2 0x100 EXP SWAP1 DIV PUSH1 0xFF AND PUSH1 0x2 DUP2 GT ISZERO PUSH2 0x3D4 JUMPI PUSH2 0x3D3 PUSH2 0xB7B JUMP JUMPDEST JUMPDEST PUSH1 0x1 DUP2 SWAP1 SSTORE POP PUSH1 0x1 DUP1 SLOAD EQ ISZERO PUSH2 0x439 JUMPI PUSH1 0x40 MLOAD DUP1 PUSH1 0x40 ADD PUSH1 0x40 MSTORE DUP1 PUSH1 0xD DUP2 MSTORE PUSH1 0x20 ADD PUSH32 0x45636F6E6F6D7920436C61737300000000000000000000000000000000000000 DUP2 MSTORE POP PUSH1 0x2 SWAP1 DUP1 MLOAD SWAP1 PUSH1 0x20 ADD SWAP1 PUSH2 0x42F SWAP3 SWAP2 SWAP1 PUSH2 0x6F1 JUMP JUMPDEST POP PUSH1 0x1 PUSH1 0x3 DUP2 SWAP1 SSTORE POP JUMPDEST PUSH1 0x1 PUSH1 0x0 DUP1 PUSH2 0x100 EXP DUP2 SLOAD DUP2 PUSH1 0xFF MUL NOT AND SWAP1 DUP4 ISZERO ISZERO MUL OR SWAP1 SSTORE POP JUMP JUMPDEST PUSH1 0x2 PUSH1 0x7 PUSH1 0x0 PUSH2 0x100 EXP DUP2 SLOAD DUP2 PUSH1 0xFF MUL NOT AND SWAP1 DUP4 PUSH1 0x2 DUP2 GT ISZERO PUSH2 0x47B JUMPI PUSH2 0x47A PUSH2 0xB7B JUMP JUMPDEST JUMPDEST MUL OR SWAP1 SSTORE POP PUSH1 0x7 PUSH1 0x0 SWAP1 SLOAD SWAP1 PUSH2 0x100 EXP SWAP1 DIV PUSH1 0xFF AND PUSH1 0x2 DUP2 GT ISZERO PUSH2 0x4A2 JUMPI PUSH2 0x4A1 PUSH2 0xB7B JUMP JUMPDEST JUMPDEST PUSH1 0x1 DUP2 SWAP1 SSTORE POP PUSH1 0x2 PUSH1 0x1 SLOAD EQ ISZERO PUSH2 0x507 JUMPI PUSH1 0x40 MLOAD DUP1 PUSH1 0x40 ADD PUSH1 0x40 MSTORE DUP1 PUSH1 0xD DUP2 MSTORE PUSH1 0x20 ADD PUSH32 0x4275736E69737320436C61737300000000000000000000000000000000000000 DUP2 MSTORE POP PUSH1 0x2 SWAP1 DUP1 MLOAD SWAP1 PUSH1 0x20 ADD SWAP1 PUSH2 0x4FE SWAP3 SWAP2 SWAP1 PUSH2 0x6F1 JUMP JUMPDEST POP PUSH1 0x3 DUP1 DUP2 SWAP1 SSTORE POP JUMPDEST PUSH1 0x1 PUSH1 0x0 DUP1 PUSH2 0x100 EXP DUP2 SLOAD DUP2 PUSH1 0xFF MUL NOT AND SWAP1 DUP4 ISZERO ISZERO MUL OR SWAP1 SSTORE POP JUMP JUMPDEST PUSH1 0x6 PUSH1 0x20 MSTORE DUP1 PUSH1 0x0 MSTORE PUSH1 0x40 PUSH1 0x0 KECCAK256 PUSH1 0x0 SWAP2 POP SWAP1 POP DUP1 PUSH1 0x0 ADD DUP1 SLOAD PUSH2 0x546 SWAP1 PUSH2 0xB18 JUMP JUMPDEST DUP1 PUSH1 0x1F ADD PUSH1 0x20 DUP1 SWAP2 DIV MUL PUSH1 0x20 ADD PUSH1 0x40 MLOAD SWAP1 DUP2 ADD PUSH1 0x40 MSTORE DUP1 SWAP3 SWAP2 SWAP1 DUP2 DUP2 MSTORE PUSH1 0x20 ADD DUP3 DUP1 SLOAD PUSH2 0x572 SWAP1 PUSH2 0xB18 JUMP JUMPDEST DUP1 ISZERO PUSH2 0x5BF JUMPI DUP1 PUSH1 0x1F LT PUSH2 0x594 JUMPI PUSH2 0x100 DUP1 DUP4 SLOAD DIV MUL DUP4 MSTORE SWAP2 PUSH1 0x20 ADD SWAP2 PUSH2 0x5BF JUMP JUMPDEST DUP3 ADD SWAP2 SWAP1 PUSH1 0x0 MSTORE PUSH1 0x20 PUSH1 0x0 KECCAK256 SWAP1 JUMPDEST DUP2 SLOAD DUP2 MSTORE SWAP1 PUSH1 0x1 ADD SWAP1 PUSH1 0x20 ADD DUP1 DUP4 GT PUSH2 0x5A2 JUMPI DUP3 SWAP1 SUB PUSH1 0x1F AND DUP3 ADD SWAP2 JUMPDEST POP POP POP POP POP SWAP1 DUP1 PUSH1 0x1 ADD DUP1 SLOAD PUSH2 0x5D4 SWAP1 PUSH2 0xB18 JUMP JUMPDEST DUP1 PUSH1 0x1F ADD PUSH1 0x20 DUP1 SWAP2 DIV MUL PUSH1 0x20 ADD PUSH1 0x40 MLOAD SWAP1 DUP2 ADD PUSH1 0x40 MSTORE DUP1 SWAP3 SWAP2 SWAP1 DUP2 DUP2 MSTORE PUSH1 0x20 ADD DUP3 DUP1 SLOAD PUSH2 0x600 SWAP1 PUSH2 0xB18 JUMP JUMPDEST DUP1 ISZERO PUSH2 0x64D JUMPI DUP1 PUSH1 0x1F LT PUSH2 0x622 JUMPI PUSH2 0x100 DUP1 DUP4 SLOAD DIV MUL DUP4 MSTORE SWAP2 PUSH1 0x20 ADD SWAP2 PUSH2 0x64D JUMP JUMPDEST DUP3 ADD SWAP2 SWAP1 PUSH1 0x0 MSTORE PUSH1 0x20 PUSH1 0x0 KECCAK256 SWAP1 JUMPDEST DUP2 SLOAD DUP2 MSTORE SWAP1 PUSH1 0x1 ADD SWAP1 PUSH1 0x20 ADD DUP1 DUP4 GT PUSH2 0x630 JUMPI DUP3 SWAP1 SUB PUSH1 0x1F AND DUP3 ADD SWAP2 JUMPDEST POP POP POP POP POP SWAP1 DUP1 PUSH1 0x2 ADD SLOAD SWAP1 DUP1 PUSH1 0x3 ADD DUP1 SLOAD PUSH2 0x668 SWAP1 PUSH2 0xB18 JUMP JUMPDEST DUP1 PUSH1 0x1F ADD PUSH1 0x20 DUP1 SWAP2 DIV MUL PUSH1 0x20 ADD PUSH1 0x40 MLOAD SWAP1 DUP2 ADD PUSH1 0x40 MSTORE DUP1 SWAP3 SWAP2 SWAP1 DUP2 DUP2 MSTORE PUSH1 0x20 ADD DUP3 DUP1 SLOAD PUSH2 0x694 SWAP1 PUSH2 0xB18 JUMP JUMPDEST DUP1 ISZERO PUSH2 0x6E1 JUMPI DUP1 PUSH1 0x1F LT PUSH2 0x6B6 JUMPI PUSH2 0x100 DUP1 DUP4 SLOAD DIV MUL DUP4 MSTORE SWAP2 PUSH1 0x20 ADD SWAP2 PUSH2 0x6E1 JUMP JUMPDEST DUP3 ADD SWAP2 SWAP1 PUSH1 0x0 MSTORE PUSH1 0x20 PUSH1 0x0 KECCAK256 SWAP1 JUMPDEST DUP2 SLOAD DUP2 MSTORE SWAP1 PUSH1 0x1 ADD SWAP1 PUSH1 0x20 ADD DUP1 DUP4 GT PUSH2 0x6C4 JUMPI DUP3 SWAP1 SUB PUSH1 0x1F AND DUP3 ADD SWAP2 JUMPDEST POP POP POP POP POP SWAP1 DUP1 PUSH1 0x4 ADD SLOAD SWAP1 POP DUP6 JUMP JUMPDEST DUP3 DUP1 SLOAD PUSH2 0x6FD SWAP1 PUSH2 0xB18 JUMP JUMPDEST SWAP1 PUSH1 0x0 MSTORE PUSH1 0x20 PUSH1 0x0 KECCAK256 SWAP1 PUSH1 0x1F ADD PUSH1 0x20 SWAP1 DIV DUP2 ADD SWAP3 DUP3 PUSH2 0x71F JUMPI PUSH1 0x0 DUP6 SSTORE PUSH2 0x766 JUMP JUMPDEST DUP3 PUSH1 0x1F LT PUSH2 0x738 JUMPI DUP1 MLOAD PUSH1 0xFF NOT AND DUP4 DUP1 ADD OR DUP6 SSTORE PUSH2 0x766 JUMP JUMPDEST DUP3 DUP1 ADD PUSH1 0x1 ADD DUP6 SSTORE DUP3 ISZERO PUSH2 0x766 JUMPI SWAP2 DUP3 ADD JUMPDEST DUP3 DUP2 GT ISZERO PUSH2 0x765 JUMPI DUP3 MLOAD DUP3 SSTORE SWAP2 PUSH1 0x20 ADD SWAP2 SWAP1 PUSH1 0x1 ADD SWAP1 PUSH2 0x74A JUMP JUMPDEST JUMPDEST POP SWAP1 POP PUSH2 0x773 SWAP2 SWAP1 PUSH2 0x777 JUMP JUMPDEST POP SWAP1 JUMP JUMPDEST JUMPDEST DUP1 DUP3 GT ISZERO PUSH2 0x790 JUMPI PUSH1 0x0 DUP2 PUSH1 0x0 SWAP1 SSTORE POP PUSH1 0x1 ADD PUSH2 0x778 JUMP JUMPDEST POP SWAP1 JUMP JUMPDEST PUSH1 0x0 PUSH2 0x7A7 PUSH2 0x7A2 DUP5 PUSH2 0xA28 JUMP JUMPDEST PUSH2 0xA03 JUMP JUMPDEST SWAP1 POP DUP3 DUP2 MSTORE PUSH1 0x20 DUP2 ADD DUP5 DUP5 DUP5 ADD GT ISZERO PUSH2 0x7C3 JUMPI PUSH2 0x7C2 PUSH2 0xC0D JUMP JUMPDEST JUMPDEST PUSH2 0x7CE DUP5 DUP3 DUP6 PUSH2 0xAD6 JUMP JUMPDEST POP SWAP4 SWAP3 POP POP POP JUMP JUMPDEST PUSH1 0x0 DUP2 CALLDATALOAD SWAP1 POP PUSH2 0x7E5 DUP2 PUSH2 0xC6A JUMP JUMPDEST SWAP3 SWAP2 POP POP JUMP JUMPDEST PUSH1 0x0 DUP3 PUSH1 0x1F DUP4 ADD SLT PUSH2 0x800 JUMPI PUSH2 0x7FF PUSH2 0xC08 JUMP JUMPDEST JUMPDEST DUP2 CALLDATALOAD PUSH2 0x810 DUP5 DUP3 PUSH1 0x20 DUP7 ADD PUSH2 0x794 JUMP JUMPDEST SWAP2 POP POP SWAP3 SWAP2 POP POP JUMP JUMPDEST PUSH1 0x0 DUP2 CALLDATALOAD SWAP1 POP PUSH2 0x828 DUP2 PUSH2 0xC81 JUMP JUMPDEST SWAP3 SWAP2 POP POP JUMP JUMPDEST PUSH1 0x0 PUSH1 0x20 DUP3 DUP5 SUB SLT ISZERO PUSH2 0x844 JUMPI PUSH2 0x843 PUSH2 0xC17 JUMP JUMPDEST JUMPDEST PUSH1 0x0 PUSH2 0x852 DUP5 DUP3 DUP6 ADD PUSH2 0x7D6 JUMP JUMPDEST SWAP2 POP POP SWAP3 SWAP2 POP POP JUMP JUMPDEST PUSH1 0x0 DUP1 PUSH1 0x0 PUSH1 0x60 DUP5 DUP7 SUB SLT ISZERO PUSH2 0x874 JUMPI PUSH2 0x873 PUSH2 0xC17 JUMP JUMPDEST JUMPDEST PUSH1 0x0 DUP5 ADD CALLDATALOAD PUSH8 0xFFFFFFFFFFFFFFFF DUP2 GT ISZERO PUSH2 0x892 JUMPI PUSH2 0x891 PUSH2 0xC12 JUMP JUMPDEST JUMPDEST PUSH2 0x89E DUP7 DUP3 DUP8 ADD PUSH2 0x7EB JUMP JUMPDEST SWAP4 POP POP PUSH1 0x20 DUP5 ADD CALLDATALOAD PUSH8 0xFFFFFFFFFFFFFFFF DUP2 GT ISZERO PUSH2 0x8BF JUMPI PUSH2 0x8BE PUSH2 0xC12 JUMP JUMPDEST JUMPDEST PUSH2 0x8CB DUP7 DUP3 DUP8 ADD PUSH2 0x7EB JUMP JUMPDEST SWAP3 POP POP PUSH1 0x40 PUSH2 0x8DC DUP7 DUP3 DUP8 ADD PUSH2 0x819 JUMP JUMPDEST SWAP2 POP POP SWAP3 POP SWAP3 POP SWAP3 JUMP JUMPDEST PUSH2 0x8EF DUP2 PUSH2 0xAC4 JUMP JUMPDEST DUP3 MSTORE POP POP JUMP JUMPDEST PUSH1 0x0 PUSH2 0x900 DUP3 PUSH2 0xA59 JUMP JUMPDEST PUSH2 0x90A DUP2 DUP6 PUSH2 0xA64 JUMP JUMPDEST SWAP4 POP PUSH2 0x91A DUP2 DUP6 PUSH1 0x20 DUP7 ADD PUSH2 0xAE5 JUMP JUMPDEST PUSH2 0x923 DUP2 PUSH2 0xC1C JUMP JUMPDEST DUP5 ADD SWAP2 POP POP SWAP3 SWAP2 POP POP JUMP JUMPDEST PUSH1 0x0 PUSH2 0x93B PUSH1 0x1D DUP4 PUSH2 0xA64 JUMP JUMPDEST SWAP2 POP PUSH2 0x946 DUP3 PUSH2 0xC2D JUMP JUMPDEST PUSH1 0x20 DUP3 ADD SWAP1 POP SWAP2 SWAP1 POP JUMP JUMPDEST PUSH2 0x95A DUP2 PUSH2 0xABA JUMP JUMPDEST DUP3 MSTORE POP POP JUMP JUMPDEST PUSH1 0x0 PUSH1 0x20 DUP3 ADD SWAP1 POP PUSH2 0x975 PUSH1 0x0 DUP4 ADD DUP5 PUSH2 0x8E6 JUMP JUMPDEST SWAP3 SWAP2 POP POP JUMP JUMPDEST PUSH1 0x0 PUSH1 0xA0 DUP3 ADD SWAP1 POP DUP2 DUP2 SUB PUSH1 0x0 DUP4 ADD MSTORE PUSH2 0x995 DUP2 DUP9 PUSH2 0x8F5 JUMP JUMPDEST SWAP1 POP DUP2 DUP2 SUB PUSH1 0x20 DUP4 ADD MSTORE PUSH2 0x9A9 DUP2 DUP8 PUSH2 0x8F5 JUMP JUMPDEST SWAP1 POP PUSH2 0x9B8 PUSH1 0x40 DUP4 ADD DUP7 PUSH2 0x951 JUMP JUMPDEST DUP2 DUP2 SUB PUSH1 0x60 DUP4 ADD MSTORE PUSH2 0x9CA DUP2 DUP6 PUSH2 0x8F5 JUMP JUMPDEST SWAP1 POP PUSH2 0x9D9 PUSH1 0x80 DUP4 ADD DUP5 PUSH2 0x951 JUMP JUMPDEST SWAP7 SWAP6 POP POP POP POP POP POP JUMP JUMPDEST PUSH1 0x0 PUSH1 0x20 DUP3 ADD SWAP1 POP DUP2 DUP2 SUB PUSH1 0x0 DUP4 ADD MSTORE PUSH2 0x9FC DUP2 PUSH2 0x92E JUMP JUMPDEST SWAP1 POP SWAP2 SWAP1 POP JUMP JUMPDEST PUSH1 0x0 PUSH2 0xA0D PUSH2 0xA1E JUMP JUMPDEST SWAP1 POP PUSH2 0xA19 DUP3 DUP3 PUSH2 0xB4A JUMP JUMPDEST SWAP2 SWAP1 POP JUMP JUMPDEST PUSH1 0x0 PUSH1 0x40 MLOAD SWAP1 POP SWAP1 JUMP JUMPDEST PUSH1 0x0 PUSH8 0xFFFFFFFFFFFFFFFF DUP3 GT ISZERO PUSH2 0xA43 JUMPI PUSH2 0xA42 PUSH2 0xBD9 JUMP JUMPDEST JUMPDEST PUSH2 0xA4C DUP3 PUSH2 0xC1C JUMP JUMPDEST SWAP1 POP PUSH1 0x20 DUP2 ADD SWAP1 POP SWAP2 SWAP1 POP JUMP JUMPDEST PUSH1 0x0 DUP2 MLOAD SWAP1 POP SWAP2 SWAP1 POP JUMP JUMPDEST PUSH1 0x0 DUP3 DUP3 MSTORE PUSH1 0x20 DUP3 ADD SWAP1 POP SWAP3 SWAP2 POP POP JUMP JUMPDEST PUSH1 0x0 PUSH2 0xA80 DUP3 PUSH2 0xA9A JUMP JUMPDEST SWAP1 POP SWAP2 SWAP1 POP JUMP JUMPDEST PUSH1 0x0 DUP2 SWAP1 POP PUSH2 0xA95 DUP3 PUSH2 0xC56 JUMP JUMPDEST SWAP2 SWAP1 POP JUMP JUMPDEST PUSH1 0x0 PUSH20 0xFFFFFFFFFFFFFFFFFFFFFFFFFFFFFFFFFFFFFFFF DUP3 AND SWAP1 POP SWAP2 SWAP1 POP JUMP JUMPDEST PUSH1 0x0 DUP2 SWAP1 POP SWAP2 SWAP1 POP JUMP JUMPDEST PUSH1 0x0 PUSH2 0xACF DUP3 PUSH2 0xA87 JUMP JUMPDEST SWAP1 POP SWAP2 SWAP1 POP JUMP JUMPDEST DUP3 DUP2 DUP4 CALLDATACOPY PUSH1 0x0 DUP4 DUP4 ADD MSTORE POP POP POP JUMP JUMPDEST PUSH1 0x0 JUMPDEST DUP4 DUP2 LT ISZERO PUSH2 0xB03 JUMPI DUP1 DUP3 ADD MLOAD DUP2 DUP5 ADD MSTORE PUSH1 0x20 DUP2 ADD SWAP1 POP PUSH2 0xAE8 JUMP JUMPDEST DUP4 DUP2 GT ISZERO PUSH2 0xB12 JUMPI PUSH1 0x0 DUP5 DUP5 ADD MSTORE JUMPDEST POP POP POP POP JUMP JUMPDEST PUSH1 0x0 PUSH1 0x2 DUP3 DIV SWAP1 POP PUSH1 0x1 DUP3 AND DUP1 PUSH2 0xB30 JUMPI PUSH1 0x7F DUP3 AND SWAP2 POP JUMPDEST PUSH1 0x20 DUP3 LT DUP2 EQ ISZERO PUSH2 0xB44 JUMPI PUSH2 0xB43 PUSH2 0xBAA JUMP JUMPDEST JUMPDEST POP SWAP2 SWAP1 POP JUMP JUMPDEST PUSH2 0xB53 DUP3 PUSH2 0xC1C JUMP JUMPDEST DUP2 ADD DUP2 DUP2 LT PUSH8 0xFFFFFFFFFFFFFFFF DUP3 GT OR ISZERO PUSH2 0xB72 JUMPI PUSH2 0xB71 PUSH2 0xBD9 JUMP JUMPDEST JUMPDEST DUP1 PUSH1 0x40 MSTORE POP POP POP JUMP JUMPDEST PUSH32 0x4E487B7100000000000000000000000000000000000000000000000000000000 PUSH1 0x0 MSTORE PUSH1 0x21 PUSH1 0x4 MSTORE PUSH1 0x24 PUSH1 0x0 REVERT JUMPDEST PUSH32 0x4E487B7100000000000000000000000000000000000000000000000000000000 PUSH1 0x0 MSTORE PUSH1 0x22 PUSH1 0x4 MSTORE PUSH1 0x24 PUSH1 0x0 REVERT JUMPDEST PUSH32 0x4E487B7100000000000000000000000000000000000000000000000000000000 PUSH1 0x0 MSTORE PUSH1 0x41 PUSH1 0x4 MSTORE PUSH1 0x24 PUSH1 0x0 REVERT JUMPDEST PUSH1 0x0 DUP1 REVERT JUMPDEST PUSH1 0x0 DUP1 REVERT JUMPDEST PUSH1 0x0 DUP1 REVERT JUMPDEST PUSH1 0x0 DUP1 REVERT JUMPDEST PUSH1 0x0 PUSH1 0x1F NOT PUSH1 0x1F DUP4 ADD AND SWAP1 POP SWAP2 SWAP1 POP JUMP JUMPDEST PUSH32 0x706C656173652073656C6563742074686520636C617373206669727374000000 PUSH1 0x0 DUP3 ADD MSTORE POP JUMP JUMPDEST PUSH1 0x3 DUP2 LT PUSH2 0xC67 JUMPI PUSH2 0xC66 PUSH2 0xB7B JUMP JUMPDEST JUMPDEST POP JUMP JUMPDEST PUSH2 0xC73 DUP2 PUSH2 0xA75 JUMP JUMPDEST DUP2 EQ PUSH2 0xC7E JUMPI PUSH1 0x0 DUP1 REVERT JUMPDEST POP JUMP JUMPDEST PUSH2 0xC8A DUP2 PUSH2 0xABA JUMP JUMPDEST DUP2 EQ PUSH2 0xC95 JUMPI PUSH1 0x0 DUP1 REVERT JUMPDEST POP JUMP INVALID LOG2 PUSH5 0x6970667358 0x22 SLT KECCAK256 0xD7 0xC SWAP6 PUSH11 0x6774F361823B6A90EBB8E6 SHL 0xDF CALL CALLDATASIZE SWAP11 ORIGIN 0x2F 0xBD EXTCODESIZE 0xDE PUSH13 0x854FD935960D64736F6C634300 ADDMOD SMOD STOP CALLER "
				},
				"gasEstimates": {
					"creation": {
						"codeDepositCost": "655600",
						"executionCost": "infinite",
						"totalCost": "infinite"
					},
					"external": {
						"busnissClass()": "infinite",
						"data(address)": "infinite",
						"economyClass()": "infinite",
						"firstClass()": "infinite",
						"setData(string,string,uint256)": "infinite",
						"u1()": "2560"
					}
				},
				"methodIdentifiers": {
					"busnissClass()": "b24fa0e4",
					"data(address)": "b90d3d0c",
					"economyClass()": "7a1736d1",
					"firstClass()": "50183507",
					"setData(string,string,uint256)": "17ae4589",
					"u1()": "1aa35610"
				}
			},
			"userdoc": {
				"kind": "user",
				"methods": {},
				"version": 1
			}
		}
	}
}