{
	"blockship.sol": {
		"AirlineTickets": {
			"abi": [
				{
					"inputs": [],
					"stateMutability": "nonpayable",
					"type": "constructor"
				},
				{
					"inputs": [],
					"name": "busnissClass",
					"outputs": [],
					"stateMutability": "nonpayable",
					"type": "function"
				},
				{
					"inputs": [
						{
							"internalType": "address",
							"name": "",
							"type": "address"
						}
					],
					"name": "data",
					"outputs": [
						{
							"internalType": "string",
							"name": "name",
							"type": "string"
						},
						{
							"internalType": "string",
							"name": "des",
							"type": "string"
						},
						{
							"internalType": "uint256",
							"name": "pass_id",
							"type": "uint256"
						},
						{
							"internalType": "string",
							"name": "ticket",
							"type": "string"
						},
						{
							"internalType": "uint256",
							"name": "cost",
							"type": "uint256"
						}
					],
					"stateMutability": "view",
					"type": "function"
				},
				{
					"inputs": [],
					"name": "economyClass",
					"outputs": [],
					"stateMutability": "nonpayable",
					"type": "function"
				},
				{
					"inputs": [],
					"name": "firstClass",
					"outputs": [],
					"stateMutability": "nonpayable",
					"type": "function"
				},
				{
					"inputs": [],
					"name": "getter",
					"outputs": [
						{
							"internalType": "uint256",
							"name": "block_no",
							"type": "uint256"
						},
						{
							"internalType": "uint256",
							"name": "timestamp",
							"type": "uint256"
						},
						{
							"internalType": "address",
							"name": "msgSender",
							"type": "address"
						}
					],
					"stateMutability": "view",
					"type": "function"
				},
				{
					"inputs": [],
					"name": "oneWei",
					"outputs": [
						{
							"internalType": "uint256",
							"name": "",
							"type": "uint256"
						}
					],
					"stateMutability": "view",
					"type": "function"
				},
				{
					"inputs": [],
					"name": "owner",
					"outputs": [
						{
							"internalType": "address",
							"name": "",
							"type": "address"
						}
					],
					"stateMutability": "view",
					"type": "function"
				},
				{
					"inputs": [],
					"name": "payment",
					"outputs": [],
					"stateMutability": "nonpayable",
					"type": "function"
				},
				{
					"inputs": [
						{
							"internalType": "string",
							"name": "_name",
							"type": "string"
						},
						{
							"internalType": "string",
							"name": "_des",
							"type": "string"
						},
						{
							"internalType": "uint256",
							"name": "_pass_id",
							"type": "uint256"
						}
					],
					"name": "setData",
					"outputs": [],
					"stateMutability": "nonpayable",
					"type": "function"
				},
				{
					"inputs": [],
					"name": "u1",
					"outputs": [
						{
							"internalType": "enum AirlineTickets.classTypes",
							"name": "",
							"type": "uint8"
						}
					],
					"stateMutability": "view",
					"type": "function"
				},
				{
					"inputs": [],
					"name": "user",
					"outputs": [
						{
							"internalType": "address payable",
							"name": "",
							"type": "address"
						}
					],
					"stateMutability": "view",
					"type": "function"
				}
			],
			"devdoc": {
				"kind": "dev",
				"methods": {},
				"version": 1
			},
			"evm": {
				"assembly": "    /* \"blockship.sol\":74:2056  contract AirlineTickets {\r... */\n  mstore(0x40, 0x80)\n    /* \"blockship.sol\":460:465  false */\n  0x00\n    /* \"blockship.sol\":446:465  bool booked = false */\n  0x01\n  exp(0x0100, 0x14)\n  dup2\n  sload\n  dup2\n  0xff\n  mul\n  not\n  and\n  swap1\n  dup4\n  iszero\n  iszero\n  mul\n  or\n  swap1\n  sstore\n  pop\n    /* \"blockship.sol\":558:590  string realVal = \"Economy Class\" */\n  mload(0x40)\n  dup1\n  0x40\n  add\n  0x40\n  mstore\n  dup1\n  0x0d\n  dup2\n  mstore\n  0x20\n  add\n  0x45636f6e6f6d7920436c61737300000000000000000000000000000000000000\n  dup2\n  mstore\n  pop\n  0x03\n  swap1\n  dup1\n  mload\n  swap1\n  0x20\n  add\n  swap1\n  tag_1\n  swap3\n  swap2\n  swap1\n  tag_2\n  jump\t// in\ntag_1:\n  pop\n    /* \"blockship.sol\":653:658  1 wei */\n  0x01\n    /* \"blockship.sol\":632:658  uint public oneWei = 1 wei */\n  0x05\n  sstore\n    /* \"blockship.sol\":735:758  classTypes.economyClass */\n  0x01\n    /* \"blockship.sol\":713:758  classTypes public u1= classTypes.economyClass */\n  0x07\n  exp(0x0100, 0x00)\n  dup2\n  sload\n  dup2\n  0xff\n  mul\n  not\n  and\n  swap1\n  dup4\n  0x02\n  dup2\n  gt\n  iszero\n  tag_3\n  jumpi\n  tag_4\n  tag_5\n  jump\t// in\ntag_4:\ntag_3:\n  mul\n  or\n  swap1\n  sstore\n  pop\n    /* \"blockship.sol\":174:294  constructor() {\r... */\n  callvalue\n  dup1\n  iszero\n  tag_6\n  jumpi\n  0x00\n  dup1\n  revert\ntag_6:\n  pop\n    /* \"blockship.sol\":207:249  0xdD870fA1b7C4700F2BD7f44238821C26f7392148 */\n  0xdd870fa1b7c4700f2bd7f44238821c26f7392148\n    /* \"blockship.sol\":199:204  owner */\n  0x00\n  dup1\n    /* \"blockship.sol\":199:249  owner = 0xdD870fA1b7C4700F2BD7f44238821C26f7392148 */\n  0x0100\n  exp\n  dup2\n  sload\n  dup2\n  0xffffffffffffffffffffffffffffffffffffffff\n  mul\n  not\n  and\n  swap1\n  dup4\n  0xffffffffffffffffffffffffffffffffffffffff\n  and\n  mul\n  or\n  swap1\n  sstore\n  pop\n    /* \"blockship.sol\":275:285  msg.sender */\n  caller\n    /* \"blockship.sol\":260:264  user */\n  0x01\n  0x00\n    /* \"blockship.sol\":260:286  user = payable(msg.sender) */\n  0x0100\n  exp\n  dup2\n  sload\n  dup2\n  0xffffffffffffffffffffffffffffffffffffffff\n  mul\n  not\n  and\n  swap1\n  dup4\n  0xffffffffffffffffffffffffffffffffffffffff\n  and\n  mul\n  or\n  swap1\n  sstore\n  pop\n    /* \"blockship.sol\":74:2056  contract AirlineTickets {\r... */\n  jump(tag_9)\ntag_2:\n  dup3\n  dup1\n  sload\n  tag_10\n  swap1\n  tag_11\n  jump\t// in\ntag_10:\n  swap1\n  0x00\n  mstore\n  keccak256(0x00, 0x20)\n  swap1\n  0x1f\n  add\n  0x20\n  swap1\n  div\n  dup2\n  add\n  swap3\n  dup3\n  tag_13\n  jumpi\n  0x00\n  dup6\n  sstore\n  jump(tag_12)\ntag_13:\n  dup3\n  0x1f\n  lt\n  tag_14\n  jumpi\n  dup1\n  mload\n  not(0xff)\n  and\n  dup4\n  dup1\n  add\n  or\n  dup6\n  sstore\n  jump(tag_12)\ntag_14:\n  dup3\n  dup1\n  add\n  0x01\n  add\n  dup6\n  sstore\n  dup3\n  iszero\n  tag_12\n  jumpi\n  swap2\n  dup3\n  add\ntag_15:\n  dup3\n  dup2\n  gt\n  iszero\n  tag_16\n  jumpi\n  dup3\n  mload\n  dup3\n  sstore\n  swap2\n  0x20\n  add\n  swap2\n  swap1\n  0x01\n  add\n  swap1\n  jump(tag_15)\ntag_16:\ntag_12:\n  pop\n  swap1\n  pop\n  tag_17\n  swap2\n  swap1\n  tag_18\n  jump\t// in\ntag_17:\n  pop\n  swap1\n  jump\t// out\ntag_18:\ntag_19:\n  dup1\n  dup3\n  gt\n  iszero\n  tag_20\n  jumpi\n  0x00\n  dup2\n  0x00\n  swap1\n  sstore\n  pop\n  0x01\n  add\n  jump(tag_19)\ntag_20:\n  pop\n  swap1\n  jump\t// out\n    /* \"#utility.yul\":7:327   */\ntag_11:\n    /* \"#utility.yul\":51:57   */\n  0x00\n    /* \"#utility.yul\":88:89   */\n  0x02\n    /* \"#utility.yul\":82:86   */\n  dup3\n    /* \"#utility.yul\":78:90   */\n  div\n    /* \"#utility.yul\":68:90   */\n  swap1\n  pop\n    /* \"#utility.yul\":135:136   */\n  0x01\n    /* \"#utility.yul\":129:133   */\n  dup3\n    /* \"#utility.yul\":125:137   */\n  and\n    /* \"#utility.yul\":156:174   */\n  dup1\n    /* \"#utility.yul\":146:227   */\n  tag_23\n  jumpi\n    /* \"#utility.yul\":212:216   */\n  0x7f\n    /* \"#utility.yul\":204:210   */\n  dup3\n    /* \"#utility.yul\":200:217   */\n  and\n    /* \"#utility.yul\":190:217   */\n  swap2\n  pop\n    /* \"#utility.yul\":146:227   */\ntag_23:\n    /* \"#utility.yul\":274:276   */\n  0x20\n    /* \"#utility.yul\":266:272   */\n  dup3\n    /* \"#utility.yul\":263:277   */\n  lt\n    /* \"#utility.yul\":243:261   */\n  dup2\n    /* \"#utility.yul\":240:278   */\n  eq\n    /* \"#utility.yul\":237:321   */\n  iszero\n  tag_24\n  jumpi\n    /* \"#utility.yul\":293:311   */\n  tag_25\n  tag_26\n  jump\t// in\ntag_25:\n    /* \"#utility.yul\":237:321   */\ntag_24:\n    /* \"#utility.yul\":58:327   */\n  pop\n    /* \"#utility.yul\":7:327   */\n  swap2\n  swap1\n  pop\n  jump\t// out\n    /* \"#utility.yul\":333:513   */\ntag_5:\n    /* \"#utility.yul\":381:458   */\n  0x4e487b7100000000000000000000000000000000000000000000000000000000\n    /* \"#utility.yul\":378:379   */\n  0x00\n    /* \"#utility.yul\":371:459   */\n  mstore\n    /* \"#utility.yul\":478:482   */\n  0x21\n    /* \"#utility.yul\":475:476   */\n  0x04\n    /* \"#utility.yul\":468:483   */\n  mstore\n    /* \"#utility.yul\":502:506   */\n  0x24\n    /* \"#utility.yul\":499:500   */\n  0x00\n    /* \"#utility.yul\":492:507   */\n  revert\n    /* \"#utility.yul\":519:699   */\ntag_26:\n    /* \"#utility.yul\":567:644   */\n  0x4e487b7100000000000000000000000000000000000000000000000000000000\n    /* \"#utility.yul\":564:565   */\n  0x00\n    /* \"#utility.yul\":557:645   */\n  mstore\n    /* \"#utility.yul\":664:668   */\n  0x22\n    /* \"#utility.yul\":661:662   */\n  0x04\n    /* \"#utility.yul\":654:669   */\n  mstore\n    /* \"#utility.yul\":688:692   */\n  0x24\n    /* \"#utility.yul\":685:686   */\n  0x00\n    /* \"#utility.yul\":678:693   */\n  revert\n    /* \"blockship.sol\":74:2056  contract AirlineTickets {\r... */\ntag_9:\n  dataSize(sub_0)\n  dup1\n  dataOffset(sub_0)\n  0x00\n  codecopy\n  0x00\n  return\nstop\n\nsub_0: assembly {\n        /* \"blockship.sol\":74:2056  contract AirlineTickets {\r... */\n      mstore(0x40, 0x80)\n      callvalue\n      dup1\n      iszero\n      tag_1\n      jumpi\n      0x00\n      dup1\n      revert\n    tag_1:\n      pop\n      jumpi(tag_2, lt(calldatasize, 0x04))\n      shr(0xe0, calldataload(0x00))\n      dup1\n      0x50183507\n      gt\n      tag_14\n      jumpi\n      dup1\n      0x50183507\n      eq\n      tag_8\n      jumpi\n      dup1\n      0x7a1736d1\n      eq\n      tag_9\n      jumpi\n      dup1\n      0x8da5cb5b\n      eq\n      tag_10\n      jumpi\n      dup1\n      0x993a04b7\n      eq\n      tag_11\n      jumpi\n      dup1\n      0xb24fa0e4\n      eq\n      tag_12\n      jumpi\n      dup1\n      0xb90d3d0c\n      eq\n      tag_13\n      jumpi\n      jump(tag_2)\n    tag_14:\n      dup1\n      0x17ae4589\n      eq\n      tag_3\n      jumpi\n      dup1\n      0x1aa35610\n      eq\n      tag_4\n      jumpi\n      dup1\n      0x42f6487a\n      eq\n      tag_5\n      jumpi\n      dup1\n      0x4f8632ba\n      eq\n      tag_6\n      jumpi\n      dup1\n      0x4fb2e0be\n      eq\n      tag_7\n      jumpi\n    tag_2:\n      0x00\n      dup1\n      revert\n        /* \"blockship.sol\":1826:2047  function setData(string memory _name, string memory _des, uint _pass_id) public \r... */\n    tag_3:\n      tag_15\n      0x04\n      dup1\n      calldatasize\n      sub\n      dup2\n      add\n      swap1\n      tag_16\n      swap2\n      swap1\n      tag_17\n      jump\t// in\n    tag_16:\n      tag_18\n      jump\t// in\n    tag_15:\n      stop\n        /* \"blockship.sol\":713:758  classTypes public u1= classTypes.economyClass */\n    tag_4:\n      tag_19\n      tag_20\n      jump\t// in\n    tag_19:\n      mload(0x40)\n      tag_21\n      swap2\n      swap1\n      tag_22\n      jump\t// in\n    tag_21:\n      mload(0x40)\n      dup1\n      swap2\n      sub\n      swap1\n      return\n        /* \"blockship.sol\":948:1027  function payment() public\r... */\n    tag_5:\n      tag_23\n      tag_24\n      jump\t// in\n    tag_23:\n      stop\n        /* \"blockship.sol\":134:161  address payable public user */\n    tag_6:\n      tag_25\n      tag_26\n      jump\t// in\n    tag_25:\n      mload(0x40)\n      tag_27\n      swap2\n      swap1\n      tag_28\n      jump\t// in\n    tag_27:\n      mload(0x40)\n      dup1\n      swap2\n      sub\n      swap1\n      return\n        /* \"blockship.sol\":632:658  uint public oneWei = 1 wei */\n    tag_7:\n      tag_29\n      tag_30\n      jump\t// in\n    tag_29:\n      mload(0x40)\n      tag_31\n      swap2\n      swap1\n      tag_32\n      jump\t// in\n    tag_31:\n      mload(0x40)\n      dup1\n      swap2\n      sub\n      swap1\n      return\n        /* \"blockship.sol\":1304:1555  function firstClass() public \r... */\n    tag_8:\n      tag_33\n      tag_34\n      jump\t// in\n    tag_33:\n      stop\n        /* \"blockship.sol\":1035:1292  function economyClass() public \r... */\n    tag_9:\n      tag_35\n      tag_36\n      jump\t// in\n    tag_35:\n      stop\n        /* \"blockship.sol\":107:127  address public owner */\n    tag_10:\n      tag_37\n      tag_38\n      jump\t// in\n    tag_37:\n      mload(0x40)\n      tag_39\n      swap2\n      swap1\n      tag_40\n      jump\t// in\n    tag_39:\n      mload(0x40)\n      dup1\n      swap2\n      sub\n      swap1\n      return\n        /* \"blockship.sol\":769:940  function getter() public view returns(uint block_no, uint timestamp, address msgSender)\r... */\n    tag_11:\n      tag_41\n      tag_42\n      jump\t// in\n    tag_41:\n      mload(0x40)\n      tag_43\n      swap4\n      swap3\n      swap2\n      swap1\n      tag_44\n      jump\t// in\n    tag_43:\n      mload(0x40)\n      dup1\n      swap2\n      sub\n      swap1\n      return\n        /* \"blockship.sol\":1563:1814  function busnissClass() public {\r... */\n    tag_12:\n      tag_45\n      tag_46\n      jump\t// in\n    tag_45:\n      stop\n        /* \"blockship.sol\":667:704  mapping (address => User) public data */\n    tag_13:\n      tag_47\n      0x04\n      dup1\n      calldatasize\n      sub\n      dup2\n      add\n      swap1\n      tag_48\n      swap2\n      swap1\n      tag_49\n      jump\t// in\n    tag_48:\n      tag_50\n      jump\t// in\n    tag_47:\n      mload(0x40)\n      tag_51\n      swap6\n      swap5\n      swap4\n      swap3\n      swap2\n      swap1\n      tag_52\n      jump\t// in\n    tag_51:\n      mload(0x40)\n      dup1\n      swap2\n      sub\n      swap1\n      return\n        /* \"blockship.sol\":1826:2047  function setData(string memory _name, string memory _des, uint _pass_id) public \r... */\n    tag_18:\n        /* \"blockship.sol\":1931:1937  booked */\n      0x01\n      0x14\n      swap1\n      sload\n      swap1\n      0x0100\n      exp\n      swap1\n      div\n      0xff\n      and\n        /* \"blockship.sol\":1923:1970  require(booked,\"please select the class first\") */\n      tag_54\n      jumpi\n      mload(0x40)\n      0x08c379a000000000000000000000000000000000000000000000000000000000\n      dup2\n      mstore\n      0x04\n      add\n      tag_55\n      swap1\n      tag_56\n      jump\t// in\n    tag_55:\n      mload(0x40)\n      dup1\n      swap2\n      sub\n      swap1\n      revert\n    tag_54:\n        /* \"blockship.sol\":2000:2039  User(_name,_des,_pass_id,realVal ,cost) */\n      mload(0x40)\n      dup1\n      0xa0\n      add\n      0x40\n      mstore\n      dup1\n        /* \"blockship.sol\":2005:2010  _name */\n      dup5\n        /* \"blockship.sol\":2000:2039  User(_name,_des,_pass_id,realVal ,cost) */\n      dup2\n      mstore\n      0x20\n      add\n        /* \"blockship.sol\":2011:2015  _des */\n      dup4\n        /* \"blockship.sol\":2000:2039  User(_name,_des,_pass_id,realVal ,cost) */\n      dup2\n      mstore\n      0x20\n      add\n        /* \"blockship.sol\":2016:2024  _pass_id */\n      dup3\n        /* \"blockship.sol\":2000:2039  User(_name,_des,_pass_id,realVal ,cost) */\n      dup2\n      mstore\n      0x20\n      add\n        /* \"blockship.sol\":2025:2032  realVal */\n      0x03\n        /* \"blockship.sol\":2000:2039  User(_name,_des,_pass_id,realVal ,cost) */\n      dup1\n      sload\n      tag_57\n      swap1\n      tag_58\n      jump\t// in\n    tag_57:\n      dup1\n      0x1f\n      add\n      0x20\n      dup1\n      swap2\n      div\n      mul\n      0x20\n      add\n      mload(0x40)\n      swap1\n      dup2\n      add\n      0x40\n      mstore\n      dup1\n      swap3\n      swap2\n      swap1\n      dup2\n      dup2\n      mstore\n      0x20\n      add\n      dup3\n      dup1\n      sload\n      tag_59\n      swap1\n      tag_58\n      jump\t// in\n    tag_59:\n      dup1\n      iszero\n      tag_60\n      jumpi\n      dup1\n      0x1f\n      lt\n      tag_61\n      jumpi\n      0x0100\n      dup1\n      dup4\n      sload\n      div\n      mul\n      dup4\n      mstore\n      swap2\n      0x20\n      add\n      swap2\n      jump(tag_60)\n    tag_61:\n      dup3\n      add\n      swap2\n      swap1\n      0x00\n      mstore\n      keccak256(0x00, 0x20)\n      swap1\n    tag_62:\n      dup2\n      sload\n      dup2\n      mstore\n      swap1\n      0x01\n      add\n      swap1\n      0x20\n      add\n      dup1\n      dup4\n      gt\n      tag_62\n      jumpi\n      dup3\n      swap1\n      sub\n      0x1f\n      and\n      dup3\n      add\n      swap2\n    tag_60:\n      pop\n      pop\n      pop\n      pop\n      pop\n      dup2\n      mstore\n      0x20\n      add\n        /* \"blockship.sol\":2034:2038  cost */\n      sload(0x04)\n        /* \"blockship.sol\":2000:2039  User(_name,_des,_pass_id,realVal ,cost) */\n      dup2\n      mstore\n      pop\n        /* \"blockship.sol\":1981:1985  data */\n      0x06\n        /* \"blockship.sol\":1981:1997  data[msg.sender] */\n      0x00\n        /* \"blockship.sol\":1986:1996  msg.sender */\n      caller\n        /* \"blockship.sol\":1981:1997  data[msg.sender] */\n      0xffffffffffffffffffffffffffffffffffffffff\n      and\n      0xffffffffffffffffffffffffffffffffffffffff\n      and\n      dup2\n      mstore\n      0x20\n      add\n      swap1\n      dup2\n      mstore\n      0x20\n      add\n      0x00\n      keccak256\n        /* \"blockship.sol\":1981:2039  data[msg.sender] = User(_name,_des,_pass_id,realVal ,cost) */\n      0x00\n      dup3\n      add\n      mload\n      dup2\n      0x00\n      add\n      swap1\n      dup1\n      mload\n      swap1\n      0x20\n      add\n      swap1\n      tag_63\n      swap3\n      swap2\n      swap1\n      tag_64\n      jump\t// in\n    tag_63:\n      pop\n      0x20\n      dup3\n      add\n      mload\n      dup2\n      0x01\n      add\n      swap1\n      dup1\n      mload\n      swap1\n      0x20\n      add\n      swap1\n      tag_65\n      swap3\n      swap2\n      swap1\n      tag_64\n      jump\t// in\n    tag_65:\n      pop\n      0x40\n      dup3\n      add\n      mload\n      dup2\n      0x02\n      add\n      sstore\n      0x60\n      dup3\n      add\n      mload\n      dup2\n      0x03\n      add\n      swap1\n      dup1\n      mload\n      swap1\n      0x20\n      add\n      swap1\n      tag_66\n      swap3\n      swap2\n      swap1\n      tag_64\n      jump\t// in\n    tag_66:\n      pop\n      0x80\n      dup3\n      add\n      mload\n      dup2\n      0x04\n      add\n      sstore\n      swap1\n      pop\n      pop\n        /* \"blockship.sol\":1826:2047  function setData(string memory _name, string memory _des, uint _pass_id) public \r... */\n      pop\n      pop\n      pop\n      jump\t// out\n        /* \"blockship.sol\":713:758  classTypes public u1= classTypes.economyClass */\n    tag_20:\n      0x07\n      0x00\n      swap1\n      sload\n      swap1\n      0x0100\n      exp\n      swap1\n      div\n      0xff\n      and\n      dup2\n      jump\t// out\n        /* \"blockship.sol\":948:1027  function payment() public\r... */\n    tag_24:\n        /* \"blockship.sol\":1000:1004  user */\n      0x01\n      0x00\n      swap1\n      sload\n      swap1\n      0x0100\n      exp\n      swap1\n      div\n      0xffffffffffffffffffffffffffffffffffffffff\n      and\n        /* \"blockship.sol\":1000:1013  user.transfer */\n      0xffffffffffffffffffffffffffffffffffffffff\n      and\n        /* \"blockship.sol\":1000:1019  user.transfer(cost) */\n      0x08fc\n        /* \"blockship.sol\":1014:1018  cost */\n      sload(0x04)\n        /* \"blockship.sol\":1000:1019  user.transfer(cost) */\n      swap1\n      dup2\n      iszero\n      mul\n      swap1\n      mload(0x40)\n      0x00\n      mload(0x40)\n      dup1\n      dup4\n      sub\n      dup2\n      dup6\n      dup9\n      dup9\n      call\n      swap4\n      pop\n      pop\n      pop\n      pop\n      iszero\n      dup1\n      iszero\n      tag_69\n      jumpi\n      returndatasize\n      0x00\n      dup1\n      returndatacopy\n      revert(0x00, returndatasize)\n    tag_69:\n      pop\n        /* \"blockship.sol\":948:1027  function payment() public\r... */\n      jump\t// out\n        /* \"blockship.sol\":134:161  address payable public user */\n    tag_26:\n      0x01\n      0x00\n      swap1\n      sload\n      swap1\n      0x0100\n      exp\n      swap1\n      div\n      0xffffffffffffffffffffffffffffffffffffffff\n      and\n      dup2\n      jump\t// out\n        /* \"blockship.sol\":632:658  uint public oneWei = 1 wei */\n    tag_30:\n      sload(0x05)\n      dup2\n      jump\t// out\n        /* \"blockship.sol\":1304:1555  function firstClass() public \r... */\n    tag_34:\n        /* \"blockship.sol\":1354:1375  classTypes.firstClass */\n      0x00\n        /* \"blockship.sol\":1350:1352  u1 */\n      0x07\n      0x00\n        /* \"blockship.sol\":1350:1375  u1= classTypes.firstClass */\n      0x0100\n      exp\n      dup2\n      sload\n      dup2\n      0xff\n      mul\n      not\n      and\n      swap1\n      dup4\n      0x02\n      dup2\n      gt\n      iszero\n      tag_71\n      jumpi\n      tag_72\n      tag_73\n      jump\t// in\n    tag_72:\n    tag_71:\n      mul\n      or\n      swap1\n      sstore\n      pop\n        /* \"blockship.sol\":1401:1403  u1 */\n      0x07\n      0x00\n      swap1\n      sload\n      swap1\n      0x0100\n      exp\n      swap1\n      div\n      0xff\n      and\n        /* \"blockship.sol\":1396:1404  uint(u1) */\n      0x02\n      dup2\n      gt\n      iszero\n      tag_74\n      jumpi\n      tag_75\n      tag_73\n      jump\t// in\n    tag_75:\n    tag_74:\n        /* \"blockship.sol\":1386:1393  convert */\n      0x02\n        /* \"blockship.sol\":1386:1404  convert = uint(u1) */\n      dup2\n      swap1\n      sstore\n      pop\n        /* \"blockship.sol\":1427:1428  0 */\n      0x00\n        /* \"blockship.sol\":1418:1425  convert */\n      sload(0x02)\n        /* \"blockship.sol\":1418:1428  convert==0 */\n      eq\n        /* \"blockship.sol\":1415:1524  if(convert==0)\r... */\n      iszero\n      tag_76\n      jumpi\n        /* \"blockship.sol\":1454:1477  realVal = \"First Class\" */\n      mload(0x40)\n      dup1\n      0x40\n      add\n      0x40\n      mstore\n      dup1\n      0x0b\n      dup2\n      mstore\n      0x20\n      add\n      0x466972737420436c617373000000000000000000000000000000000000000000\n      dup2\n      mstore\n      pop\n        /* \"blockship.sol\":1454:1461  realVal */\n      0x03\n        /* \"blockship.sol\":1454:1477  realVal = \"First Class\" */\n      swap1\n      dup1\n      mload\n      swap1\n      0x20\n      add\n      swap1\n      tag_77\n      swap3\n      swap2\n      swap1\n      tag_64\n      jump\t// in\n    tag_77:\n      pop\n        /* \"blockship.sol\":1508:1512  1e16 */\n      0x2386f26fc10000\n        /* \"blockship.sol\":1499:1505  oneWei */\n      sload(0x05)\n        /* \"blockship.sol\":1499:1512  oneWei * 1e16 */\n      tag_78\n      swap2\n      swap1\n      tag_79\n      jump\t// in\n    tag_78:\n        /* \"blockship.sol\":1492:1496  cost */\n      0x04\n        /* \"blockship.sol\":1492:1512  cost = oneWei * 1e16 */\n      dup2\n      swap1\n      sstore\n      pop\n        /* \"blockship.sol\":1415:1524  if(convert==0)\r... */\n    tag_76:\n        /* \"blockship.sol\":1543:1547  true */\n      0x01\n        /* \"blockship.sol\":1534:1540  booked */\n      dup1\n      0x14\n        /* \"blockship.sol\":1534:1547  booked = true */\n      0x0100\n      exp\n      dup2\n      sload\n      dup2\n      0xff\n      mul\n      not\n      and\n      swap1\n      dup4\n      iszero\n      iszero\n      mul\n      or\n      swap1\n      sstore\n      pop\n        /* \"blockship.sol\":1304:1555  function firstClass() public \r... */\n      jump\t// out\n        /* \"blockship.sol\":1035:1292  function economyClass() public \r... */\n    tag_36:\n        /* \"blockship.sol\":1087:1110  classTypes.economyClass */\n      0x01\n        /* \"blockship.sol\":1083:1085  u1 */\n      0x07\n      0x00\n        /* \"blockship.sol\":1083:1110  u1= classTypes.economyClass */\n      0x0100\n      exp\n      dup2\n      sload\n      dup2\n      0xff\n      mul\n      not\n      and\n      swap1\n      dup4\n      0x02\n      dup2\n      gt\n      iszero\n      tag_81\n      jumpi\n      tag_82\n      tag_73\n      jump\t// in\n    tag_82:\n    tag_81:\n      mul\n      or\n      swap1\n      sstore\n      pop\n        /* \"blockship.sol\":1136:1138  u1 */\n      0x07\n      0x00\n      swap1\n      sload\n      swap1\n      0x0100\n      exp\n      swap1\n      div\n      0xff\n      and\n        /* \"blockship.sol\":1131:1139  uint(u1) */\n      0x02\n      dup2\n      gt\n      iszero\n      tag_83\n      jumpi\n      tag_84\n      tag_73\n      jump\t// in\n    tag_84:\n    tag_83:\n        /* \"blockship.sol\":1121:1128  convert */\n      0x02\n        /* \"blockship.sol\":1121:1139  convert = uint(u1) */\n      dup2\n      swap1\n      sstore\n      pop\n        /* \"blockship.sol\":1162:1163  1 */\n      0x01\n        /* \"blockship.sol\":1153:1160  convert */\n      sload(0x02)\n        /* \"blockship.sol\":1153:1163  convert==1 */\n      eq\n        /* \"blockship.sol\":1150:1261  if(convert==1)\r... */\n      iszero\n      tag_85\n      jumpi\n        /* \"blockship.sol\":1189:1214  realVal = \"Economy Class\" */\n      mload(0x40)\n      dup1\n      0x40\n      add\n      0x40\n      mstore\n      dup1\n      0x0d\n      dup2\n      mstore\n      0x20\n      add\n      0x45636f6e6f6d7920436c61737300000000000000000000000000000000000000\n      dup2\n      mstore\n      pop\n        /* \"blockship.sol\":1189:1196  realVal */\n      0x03\n        /* \"blockship.sol\":1189:1214  realVal = \"Economy Class\" */\n      swap1\n      dup1\n      mload\n      swap1\n      0x20\n      add\n      swap1\n      tag_86\n      swap3\n      swap2\n      swap1\n      tag_64\n      jump\t// in\n    tag_86:\n      pop\n        /* \"blockship.sol\":1245:1249  5e15 */\n      0x11c37937e08000\n        /* \"blockship.sol\":1236:1242  oneWei */\n      sload(0x05)\n        /* \"blockship.sol\":1236:1249  oneWei * 5e15 */\n      tag_87\n      swap2\n      swap1\n      tag_79\n      jump\t// in\n    tag_87:\n        /* \"blockship.sol\":1229:1233  cost */\n      0x04\n        /* \"blockship.sol\":1229:1249  cost = oneWei * 5e15 */\n      dup2\n      swap1\n      sstore\n      pop\n        /* \"blockship.sol\":1150:1261  if(convert==1)\r... */\n    tag_85:\n        /* \"blockship.sol\":1280:1284  true */\n      0x01\n        /* \"blockship.sol\":1271:1277  booked */\n      dup1\n      0x14\n        /* \"blockship.sol\":1271:1284  booked = true */\n      0x0100\n      exp\n      dup2\n      sload\n      dup2\n      0xff\n      mul\n      not\n      and\n      swap1\n      dup4\n      iszero\n      iszero\n      mul\n      or\n      swap1\n      sstore\n      pop\n        /* \"blockship.sol\":1035:1292  function economyClass() public \r... */\n      jump\t// out\n        /* \"blockship.sol\":107:127  address public owner */\n    tag_38:\n      0x00\n      dup1\n      sload\n      swap1\n      0x0100\n      exp\n      swap1\n      div\n      0xffffffffffffffffffffffffffffffffffffffff\n      and\n      dup2\n      jump\t// out\n        /* \"blockship.sol\":769:940  function getter() public view returns(uint block_no, uint timestamp, address msgSender)\r... */\n    tag_42:\n        /* \"blockship.sol\":807:820  uint block_no */\n      0x00\n        /* \"blockship.sol\":822:836  uint timestamp */\n      dup1\n        /* \"blockship.sol\":838:855  address msgSender */\n      0x00\n        /* \"blockship.sol\":880:892  block.number */\n      number\n        /* \"blockship.sol\":894:909  block.timestamp */\n      timestamp\n        /* \"blockship.sol\":911:921  msg.sender */\n      caller\n        /* \"blockship.sol\":873:922  return(block.number, block.timestamp, msg.sender) */\n      swap3\n      pop\n      swap3\n      pop\n      swap3\n      pop\n        /* \"blockship.sol\":769:940  function getter() public view returns(uint block_no, uint timestamp, address msgSender)\r... */\n      swap1\n      swap2\n      swap3\n      jump\t// out\n        /* \"blockship.sol\":1563:1814  function busnissClass() public {\r... */\n    tag_46:\n        /* \"blockship.sol\":1609:1632  classTypes.busnissClass */\n      0x02\n        /* \"blockship.sol\":1605:1607  u1 */\n      0x07\n      0x00\n        /* \"blockship.sol\":1605:1632  u1= classTypes.busnissClass */\n      0x0100\n      exp\n      dup2\n      sload\n      dup2\n      0xff\n      mul\n      not\n      and\n      swap1\n      dup4\n      0x02\n      dup2\n      gt\n      iszero\n      tag_90\n      jumpi\n      tag_91\n      tag_73\n      jump\t// in\n    tag_91:\n    tag_90:\n      mul\n      or\n      swap1\n      sstore\n      pop\n        /* \"blockship.sol\":1658:1660  u1 */\n      0x07\n      0x00\n      swap1\n      sload\n      swap1\n      0x0100\n      exp\n      swap1\n      div\n      0xff\n      and\n        /* \"blockship.sol\":1653:1661  uint(u1) */\n      0x02\n      dup2\n      gt\n      iszero\n      tag_92\n      jumpi\n      tag_93\n      tag_73\n      jump\t// in\n    tag_93:\n    tag_92:\n        /* \"blockship.sol\":1643:1650  convert */\n      0x02\n        /* \"blockship.sol\":1643:1661  convert = uint(u1) */\n      dup2\n      swap1\n      sstore\n      pop\n        /* \"blockship.sol\":1684:1685  2 */\n      0x02\n        /* \"blockship.sol\":1675:1682  convert */\n      dup1\n      sload\n        /* \"blockship.sol\":1675:1685  convert==2 */\n      eq\n        /* \"blockship.sol\":1672:1783  if(convert==2)\r... */\n      iszero\n      tag_94\n      jumpi\n        /* \"blockship.sol\":1711:1736  realVal = \"Busniss Class\" */\n      mload(0x40)\n      dup1\n      0x40\n      add\n      0x40\n      mstore\n      dup1\n      0x0d\n      dup2\n      mstore\n      0x20\n      add\n      0x4275736e69737320436c61737300000000000000000000000000000000000000\n      dup2\n      mstore\n      pop\n        /* \"blockship.sol\":1711:1718  realVal */\n      0x03\n        /* \"blockship.sol\":1711:1736  realVal = \"Busniss Class\" */\n      swap1\n      dup1\n      mload\n      swap1\n      0x20\n      add\n      swap1\n      tag_95\n      swap3\n      swap2\n      swap1\n      tag_64\n      jump\t// in\n    tag_95:\n      pop\n        /* \"blockship.sol\":1767:1771  7e15 */\n      0x18de76816d8000\n        /* \"blockship.sol\":1758:1764  oneWei */\n      sload(0x05)\n        /* \"blockship.sol\":1758:1771  oneWei * 7e15 */\n      tag_96\n      swap2\n      swap1\n      tag_79\n      jump\t// in\n    tag_96:\n        /* \"blockship.sol\":1751:1755  cost */\n      0x04\n        /* \"blockship.sol\":1751:1771  cost = oneWei * 7e15 */\n      dup2\n      swap1\n      sstore\n      pop\n        /* \"blockship.sol\":1672:1783  if(convert==2)\r... */\n    tag_94:\n        /* \"blockship.sol\":1802:1806  true */\n      0x01\n        /* \"blockship.sol\":1793:1799  booked */\n      dup1\n      0x14\n        /* \"blockship.sol\":1793:1806  booked = true */\n      0x0100\n      exp\n      dup2\n      sload\n      dup2\n      0xff\n      mul\n      not\n      and\n      swap1\n      dup4\n      iszero\n      iszero\n      mul\n      or\n      swap1\n      sstore\n      pop\n        /* \"blockship.sol\":1563:1814  function busnissClass() public {\r... */\n      jump\t// out\n        /* \"blockship.sol\":667:704  mapping (address => User) public data */\n    tag_50:\n      mstore(0x20, 0x06)\n      dup1\n      0x00\n      mstore\n      keccak256(0x00, 0x40)\n      0x00\n      swap2\n      pop\n      swap1\n      pop\n      dup1\n      0x00\n      add\n      dup1\n      sload\n      tag_97\n      swap1\n      tag_58\n      jump\t// in\n    tag_97:\n      dup1\n      0x1f\n      add\n      0x20\n      dup1\n      swap2\n      div\n      mul\n      0x20\n      add\n      mload(0x40)\n      swap1\n      dup2\n      add\n      0x40\n      mstore\n      dup1\n      swap3\n      swap2\n      swap1\n      dup2\n      dup2\n      mstore\n      0x20\n      add\n      dup3\n      dup1\n      sload\n      tag_98\n      swap1\n      tag_58\n      jump\t// in\n    tag_98:\n      dup1\n      iszero\n      tag_99\n      jumpi\n      dup1\n      0x1f\n      lt\n      tag_100\n      jumpi\n      0x0100\n      dup1\n      dup4\n      sload\n      div\n      mul\n      dup4\n      mstore\n      swap2\n      0x20\n      add\n      swap2\n      jump(tag_99)\n    tag_100:\n      dup3\n      add\n      swap2\n      swap1\n      0x00\n      mstore\n      keccak256(0x00, 0x20)\n      swap1\n    tag_101:\n      dup2\n      sload\n      dup2\n      mstore\n      swap1\n      0x01\n      add\n      swap1\n      0x20\n      add\n      dup1\n      dup4\n      gt\n      tag_101\n      jumpi\n      dup3\n      swap1\n      sub\n      0x1f\n      and\n      dup3\n      add\n      swap2\n    tag_99:\n      pop\n      pop\n      pop\n      pop\n      pop\n      swap1\n      dup1\n      0x01\n      add\n      dup1\n      sload\n      tag_102\n      swap1\n      tag_58\n      jump\t// in\n    tag_102:\n      dup1\n      0x1f\n      add\n      0x20\n      dup1\n      swap2\n      div\n      mul\n      0x20\n      add\n      mload(0x40)\n      swap1\n      dup2\n      add\n      0x40\n      mstore\n      dup1\n      swap3\n      swap2\n      swap1\n      dup2\n      dup2\n      mstore\n      0x20\n      add\n      dup3\n      dup1\n      sload\n      tag_103\n      swap1\n      tag_58\n      jump\t// in\n    tag_103:\n      dup1\n      iszero\n      tag_104\n      jumpi\n      dup1\n      0x1f\n      lt\n      tag_105\n      jumpi\n      0x0100\n      dup1\n      dup4\n      sload\n      div\n      mul\n      dup4\n      mstore\n      swap2\n      0x20\n      add\n      swap2\n      jump(tag_104)\n    tag_105:\n      dup3\n      add\n      swap2\n      swap1\n      0x00\n      mstore\n      keccak256(0x00, 0x20)\n      swap1\n    tag_106:\n      dup2\n      sload\n      dup2\n      mstore\n      swap1\n      0x01\n      add\n      swap1\n      0x20\n      add\n      dup1\n      dup4\n      gt\n      tag_106\n      jumpi\n      dup3\n      swap1\n      sub\n      0x1f\n      and\n      dup3\n      add\n      swap2\n    tag_104:\n      pop\n      pop\n      pop\n      pop\n      pop\n      swap1\n      dup1\n      0x02\n      add\n      sload\n      swap1\n      dup1\n      0x03\n      add\n      dup1\n      sload\n      tag_107\n      swap1\n      tag_58\n      jump\t// in\n    tag_107:\n      dup1\n      0x1f\n      add\n      0x20\n      dup1\n      swap2\n      div\n      mul\n      0x20\n      add\n      mload(0x40)\n      swap1\n      dup2\n      add\n      0x40\n      mstore\n      dup1\n      swap3\n      swap2\n      swap1\n      dup2\n      dup2\n      mstore\n      0x20\n      add\n      dup3\n      dup1\n      sload\n      tag_108\n      swap1\n      tag_58\n      jump\t// in\n    tag_108:\n      dup1\n      iszero\n      tag_109\n      jumpi\n      dup1\n      0x1f\n      lt\n      tag_110\n      jumpi\n      0x0100\n      dup1\n      dup4\n      sload\n      div\n      mul\n      dup4\n      mstore\n      swap2\n      0x20\n      add\n      swap2\n      jump(tag_109)\n    tag_110:\n      dup3\n      add\n      swap2\n      swap1\n      0x00\n      mstore\n      keccak256(0x00, 0x20)\n      swap1\n    tag_111:\n      dup2\n      sload\n      dup2\n      mstore\n      swap1\n      0x01\n      add\n      swap1\n      0x20\n      add\n      dup1\n      dup4\n      gt\n      tag_111\n      jumpi\n      dup3\n      swap1\n      sub\n      0x1f\n      and\n      dup3\n      add\n      swap2\n    tag_109:\n      pop\n      pop\n      pop\n      pop\n      pop\n      swap1\n      dup1\n      0x04\n      add\n      sload\n      swap1\n      pop\n      dup6\n      jump\t// out\n    tag_64:\n      dup3\n      dup1\n      sload\n      tag_112\n      swap1\n      tag_58\n      jump\t// in\n    tag_112:\n      swap1\n      0x00\n      mstore\n      keccak256(0x00, 0x20)\n      swap1\n      0x1f\n      add\n      0x20\n      swap1\n      div\n      dup2\n      add\n      swap3\n      dup3\n      tag_114\n      jumpi\n      0x00\n      dup6\n      sstore\n      jump(tag_113)\n    tag_114:\n      dup3\n      0x1f\n      lt\n      tag_115\n      jumpi\n      dup1\n      mload\n      not(0xff)\n      and\n      dup4\n      dup1\n      add\n      or\n      dup6\n      sstore\n      jump(tag_113)\n    tag_115:\n      dup3\n      dup1\n      add\n      0x01\n      add\n      dup6\n      sstore\n      dup3\n      iszero\n      tag_113\n      jumpi\n      swap2\n      dup3\n      add\n    tag_116:\n      dup3\n      dup2\n      gt\n      iszero\n      tag_117\n      jumpi\n      dup3\n      mload\n      dup3\n      sstore\n      swap2\n      0x20\n      add\n      swap2\n      swap1\n      0x01\n      add\n      swap1\n      jump(tag_116)\n    tag_117:\n    tag_113:\n      pop\n      swap1\n      pop\n      tag_118\n      swap2\n      swap1\n      tag_119\n      jump\t// in\n    tag_118:\n      pop\n      swap1\n      jump\t// out\n    tag_119:\n    tag_120:\n      dup1\n      dup3\n      gt\n      iszero\n      tag_121\n      jumpi\n      0x00\n      dup2\n      0x00\n      swap1\n      sstore\n      pop\n      0x01\n      add\n      jump(tag_120)\n    tag_121:\n      pop\n      swap1\n      jump\t// out\n        /* \"#utility.yul\":7:419   */\n    tag_123:\n        /* \"#utility.yul\":85:90   */\n      0x00\n        /* \"#utility.yul\":110:176   */\n      tag_125\n        /* \"#utility.yul\":126:175   */\n      tag_126\n        /* \"#utility.yul\":168:174   */\n      dup5\n        /* \"#utility.yul\":126:175   */\n      tag_127\n      jump\t// in\n    tag_126:\n        /* \"#utility.yul\":110:176   */\n      tag_128\n      jump\t// in\n    tag_125:\n        /* \"#utility.yul\":101:176   */\n      swap1\n      pop\n        /* \"#utility.yul\":199:205   */\n      dup3\n        /* \"#utility.yul\":192:197   */\n      dup2\n        /* \"#utility.yul\":185:206   */\n      mstore\n        /* \"#utility.yul\":237:241   */\n      0x20\n        /* \"#utility.yul\":230:235   */\n      dup2\n        /* \"#utility.yul\":226:242   */\n      add\n        /* \"#utility.yul\":275:278   */\n      dup5\n        /* \"#utility.yul\":266:272   */\n      dup5\n        /* \"#utility.yul\":261:264   */\n      dup5\n        /* \"#utility.yul\":257:273   */\n      add\n        /* \"#utility.yul\":254:279   */\n      gt\n        /* \"#utility.yul\":251:363   */\n      iszero\n      tag_129\n      jumpi\n        /* \"#utility.yul\":282:361   */\n      tag_130\n      tag_131\n      jump\t// in\n    tag_130:\n        /* \"#utility.yul\":251:363   */\n    tag_129:\n        /* \"#utility.yul\":372:413   */\n      tag_132\n        /* \"#utility.yul\":406:412   */\n      dup5\n        /* \"#utility.yul\":401:404   */\n      dup3\n        /* \"#utility.yul\":396:399   */\n      dup6\n        /* \"#utility.yul\":372:413   */\n      tag_133\n      jump\t// in\n    tag_132:\n        /* \"#utility.yul\":91:419   */\n      pop\n        /* \"#utility.yul\":7:419   */\n      swap4\n      swap3\n      pop\n      pop\n      pop\n      jump\t// out\n        /* \"#utility.yul\":425:564   */\n    tag_134:\n        /* \"#utility.yul\":471:476   */\n      0x00\n        /* \"#utility.yul\":509:515   */\n      dup2\n        /* \"#utility.yul\":496:516   */\n      calldataload\n        /* \"#utility.yul\":487:516   */\n      swap1\n      pop\n        /* \"#utility.yul\":525:558   */\n      tag_136\n        /* \"#utility.yul\":552:557   */\n      dup2\n        /* \"#utility.yul\":525:558   */\n      tag_137\n      jump\t// in\n    tag_136:\n        /* \"#utility.yul\":425:564   */\n      swap3\n      swap2\n      pop\n      pop\n      jump\t// out\n        /* \"#utility.yul\":584:924   */\n    tag_138:\n        /* \"#utility.yul\":640:645   */\n      0x00\n        /* \"#utility.yul\":689:692   */\n      dup3\n        /* \"#utility.yul\":682:686   */\n      0x1f\n        /* \"#utility.yul\":674:680   */\n      dup4\n        /* \"#utility.yul\":670:687   */\n      add\n        /* \"#utility.yul\":666:693   */\n      slt\n        /* \"#utility.yul\":656:778   */\n      tag_140\n      jumpi\n        /* \"#utility.yul\":697:776   */\n      tag_141\n      tag_142\n      jump\t// in\n    tag_141:\n        /* \"#utility.yul\":656:778   */\n    tag_140:\n        /* \"#utility.yul\":814:820   */\n      dup2\n        /* \"#utility.yul\":801:821   */\n      calldataload\n        /* \"#utility.yul\":839:918   */\n      tag_143\n        /* \"#utility.yul\":914:917   */\n      dup5\n        /* \"#utility.yul\":906:912   */\n      dup3\n        /* \"#utility.yul\":899:903   */\n      0x20\n        /* \"#utility.yul\":891:897   */\n      dup7\n        /* \"#utility.yul\":887:904   */\n      add\n        /* \"#utility.yul\":839:918   */\n      tag_123\n      jump\t// in\n    tag_143:\n        /* \"#utility.yul\":830:918   */\n      swap2\n      pop\n        /* \"#utility.yul\":646:924   */\n      pop\n        /* \"#utility.yul\":584:924   */\n      swap3\n      swap2\n      pop\n      pop\n      jump\t// out\n        /* \"#utility.yul\":930:1069   */\n    tag_144:\n        /* \"#utility.yul\":976:981   */\n      0x00\n        /* \"#utility.yul\":1014:1020   */\n      dup2\n        /* \"#utility.yul\":1001:1021   */\n      calldataload\n        /* \"#utility.yul\":992:1021   */\n      swap1\n      pop\n        /* \"#utility.yul\":1030:1063   */\n      tag_146\n        /* \"#utility.yul\":1057:1062   */\n      dup2\n        /* \"#utility.yul\":1030:1063   */\n      tag_147\n      jump\t// in\n    tag_146:\n        /* \"#utility.yul\":930:1069   */\n      swap3\n      swap2\n      pop\n      pop\n      jump\t// out\n        /* \"#utility.yul\":1075:1404   */\n    tag_49:\n        /* \"#utility.yul\":1134:1140   */\n      0x00\n        /* \"#utility.yul\":1183:1185   */\n      0x20\n        /* \"#utility.yul\":1171:1180   */\n      dup3\n        /* \"#utility.yul\":1162:1169   */\n      dup5\n        /* \"#utility.yul\":1158:1181   */\n      sub\n        /* \"#utility.yul\":1154:1186   */\n      slt\n        /* \"#utility.yul\":1151:1270   */\n      iszero\n      tag_149\n      jumpi\n        /* \"#utility.yul\":1189:1268   */\n      tag_150\n      tag_151\n      jump\t// in\n    tag_150:\n        /* \"#utility.yul\":1151:1270   */\n    tag_149:\n        /* \"#utility.yul\":1309:1310   */\n      0x00\n        /* \"#utility.yul\":1334:1387   */\n      tag_152\n        /* \"#utility.yul\":1379:1386   */\n      dup5\n        /* \"#utility.yul\":1370:1376   */\n      dup3\n        /* \"#utility.yul\":1359:1368   */\n      dup6\n        /* \"#utility.yul\":1355:1377   */\n      add\n        /* \"#utility.yul\":1334:1387   */\n      tag_134\n      jump\t// in\n    tag_152:\n        /* \"#utility.yul\":1324:1387   */\n      swap2\n      pop\n        /* \"#utility.yul\":1280:1397   */\n      pop\n        /* \"#utility.yul\":1075:1404   */\n      swap3\n      swap2\n      pop\n      pop\n      jump\t// out\n        /* \"#utility.yul\":1410:2389   */\n    tag_17:\n        /* \"#utility.yul\":1507:1513   */\n      0x00\n        /* \"#utility.yul\":1515:1521   */\n      dup1\n        /* \"#utility.yul\":1523:1529   */\n      0x00\n        /* \"#utility.yul\":1572:1574   */\n      0x60\n        /* \"#utility.yul\":1560:1569   */\n      dup5\n        /* \"#utility.yul\":1551:1558   */\n      dup7\n        /* \"#utility.yul\":1547:1570   */\n      sub\n        /* \"#utility.yul\":1543:1575   */\n      slt\n        /* \"#utility.yul\":1540:1659   */\n      iszero\n      tag_154\n      jumpi\n        /* \"#utility.yul\":1578:1657   */\n      tag_155\n      tag_151\n      jump\t// in\n    tag_155:\n        /* \"#utility.yul\":1540:1659   */\n    tag_154:\n        /* \"#utility.yul\":1726:1727   */\n      0x00\n        /* \"#utility.yul\":1715:1724   */\n      dup5\n        /* \"#utility.yul\":1711:1728   */\n      add\n        /* \"#utility.yul\":1698:1729   */\n      calldataload\n        /* \"#utility.yul\":1756:1774   */\n      0xffffffffffffffff\n        /* \"#utility.yul\":1748:1754   */\n      dup2\n        /* \"#utility.yul\":1745:1775   */\n      gt\n        /* \"#utility.yul\":1742:1859   */\n      iszero\n      tag_156\n      jumpi\n        /* \"#utility.yul\":1778:1857   */\n      tag_157\n      tag_158\n      jump\t// in\n    tag_157:\n        /* \"#utility.yul\":1742:1859   */\n    tag_156:\n        /* \"#utility.yul\":1883:1946   */\n      tag_159\n        /* \"#utility.yul\":1938:1945   */\n      dup7\n        /* \"#utility.yul\":1929:1935   */\n      dup3\n        /* \"#utility.yul\":1918:1927   */\n      dup8\n        /* \"#utility.yul\":1914:1936   */\n      add\n        /* \"#utility.yul\":1883:1946   */\n      tag_138\n      jump\t// in\n    tag_159:\n        /* \"#utility.yul\":1873:1946   */\n      swap4\n      pop\n        /* \"#utility.yul\":1669:1956   */\n      pop\n        /* \"#utility.yul\":2023:2025   */\n      0x20\n        /* \"#utility.yul\":2012:2021   */\n      dup5\n        /* \"#utility.yul\":2008:2026   */\n      add\n        /* \"#utility.yul\":1995:2027   */\n      calldataload\n        /* \"#utility.yul\":2054:2072   */\n      0xffffffffffffffff\n        /* \"#utility.yul\":2046:2052   */\n      dup2\n        /* \"#utility.yul\":2043:2073   */\n      gt\n        /* \"#utility.yul\":2040:2157   */\n      iszero\n      tag_160\n      jumpi\n        /* \"#utility.yul\":2076:2155   */\n      tag_161\n      tag_158\n      jump\t// in\n    tag_161:\n        /* \"#utility.yul\":2040:2157   */\n    tag_160:\n        /* \"#utility.yul\":2181:2244   */\n      tag_162\n        /* \"#utility.yul\":2236:2243   */\n      dup7\n        /* \"#utility.yul\":2227:2233   */\n      dup3\n        /* \"#utility.yul\":2216:2225   */\n      dup8\n        /* \"#utility.yul\":2212:2234   */\n      add\n        /* \"#utility.yul\":2181:2244   */\n      tag_138\n      jump\t// in\n    tag_162:\n        /* \"#utility.yul\":2171:2244   */\n      swap3\n      pop\n        /* \"#utility.yul\":1966:2254   */\n      pop\n        /* \"#utility.yul\":2293:2295   */\n      0x40\n        /* \"#utility.yul\":2319:2372   */\n      tag_163\n        /* \"#utility.yul\":2364:2371   */\n      dup7\n        /* \"#utility.yul\":2355:2361   */\n      dup3\n        /* \"#utility.yul\":2344:2353   */\n      dup8\n        /* \"#utility.yul\":2340:2362   */\n      add\n        /* \"#utility.yul\":2319:2372   */\n      tag_144\n      jump\t// in\n    tag_163:\n        /* \"#utility.yul\":2309:2372   */\n      swap2\n      pop\n        /* \"#utility.yul\":2264:2382   */\n      pop\n        /* \"#utility.yul\":1410:2389   */\n      swap3\n      pop\n      swap3\n      pop\n      swap3\n      jump\t// out\n        /* \"#utility.yul\":2395:2537   */\n    tag_164:\n        /* \"#utility.yul\":2498:2530   */\n      tag_166\n        /* \"#utility.yul\":2524:2529   */\n      dup2\n        /* \"#utility.yul\":2498:2530   */\n      tag_167\n      jump\t// in\n    tag_166:\n        /* \"#utility.yul\":2493:2496   */\n      dup3\n        /* \"#utility.yul\":2486:2531   */\n      mstore\n        /* \"#utility.yul\":2395:2537   */\n      pop\n      pop\n      jump\t// out\n        /* \"#utility.yul\":2543:2661   */\n    tag_168:\n        /* \"#utility.yul\":2630:2654   */\n      tag_170\n        /* \"#utility.yul\":2648:2653   */\n      dup2\n        /* \"#utility.yul\":2630:2654   */\n      tag_171\n      jump\t// in\n    tag_170:\n        /* \"#utility.yul\":2625:2628   */\n      dup3\n        /* \"#utility.yul\":2618:2655   */\n      mstore\n        /* \"#utility.yul\":2543:2661   */\n      pop\n      pop\n      jump\t// out\n        /* \"#utility.yul\":2667:2820   */\n    tag_172:\n        /* \"#utility.yul\":2765:2813   */\n      tag_174\n        /* \"#utility.yul\":2807:2812   */\n      dup2\n        /* \"#utility.yul\":2765:2813   */\n      tag_175\n      jump\t// in\n    tag_174:\n        /* \"#utility.yul\":2760:2763   */\n      dup3\n        /* \"#utility.yul\":2753:2814   */\n      mstore\n        /* \"#utility.yul\":2667:2820   */\n      pop\n      pop\n      jump\t// out\n        /* \"#utility.yul\":2826:3190   */\n    tag_176:\n        /* \"#utility.yul\":2914:2917   */\n      0x00\n        /* \"#utility.yul\":2942:2981   */\n      tag_178\n        /* \"#utility.yul\":2975:2980   */\n      dup3\n        /* \"#utility.yul\":2942:2981   */\n      tag_179\n      jump\t// in\n    tag_178:\n        /* \"#utility.yul\":2997:3068   */\n      tag_180\n        /* \"#utility.yul\":3061:3067   */\n      dup2\n        /* \"#utility.yul\":3056:3059   */\n      dup6\n        /* \"#utility.yul\":2997:3068   */\n      tag_181\n      jump\t// in\n    tag_180:\n        /* \"#utility.yul\":2990:3068   */\n      swap4\n      pop\n        /* \"#utility.yul\":3077:3129   */\n      tag_182\n        /* \"#utility.yul\":3122:3128   */\n      dup2\n        /* \"#utility.yul\":3117:3120   */\n      dup6\n        /* \"#utility.yul\":3110:3114   */\n      0x20\n        /* \"#utility.yul\":3103:3108   */\n      dup7\n        /* \"#utility.yul\":3099:3115   */\n      add\n        /* \"#utility.yul\":3077:3129   */\n      tag_183\n      jump\t// in\n    tag_182:\n        /* \"#utility.yul\":3154:3183   */\n      tag_184\n        /* \"#utility.yul\":3176:3182   */\n      dup2\n        /* \"#utility.yul\":3154:3183   */\n      tag_185\n      jump\t// in\n    tag_184:\n        /* \"#utility.yul\":3149:3152   */\n      dup5\n        /* \"#utility.yul\":3145:3184   */\n      add\n        /* \"#utility.yul\":3138:3184   */\n      swap2\n      pop\n        /* \"#utility.yul\":2918:3190   */\n      pop\n        /* \"#utility.yul\":2826:3190   */\n      swap3\n      swap2\n      pop\n      pop\n      jump\t// out\n        /* \"#utility.yul\":3196:3562   */\n    tag_186:\n        /* \"#utility.yul\":3338:3341   */\n      0x00\n        /* \"#utility.yul\":3359:3426   */\n      tag_188\n        /* \"#utility.yul\":3423:3425   */\n      0x1d\n        /* \"#utility.yul\":3418:3421   */\n      dup4\n        /* \"#utility.yul\":3359:3426   */\n      tag_181\n      jump\t// in\n    tag_188:\n        /* \"#utility.yul\":3352:3426   */\n      swap2\n      pop\n        /* \"#utility.yul\":3435:3528   */\n      tag_189\n        /* \"#utility.yul\":3524:3527   */\n      dup3\n        /* \"#utility.yul\":3435:3528   */\n      tag_190\n      jump\t// in\n    tag_189:\n        /* \"#utility.yul\":3553:3555   */\n      0x20\n        /* \"#utility.yul\":3548:3551   */\n      dup3\n        /* \"#utility.yul\":3544:3556   */\n      add\n        /* \"#utility.yul\":3537:3556   */\n      swap1\n      pop\n        /* \"#utility.yul\":3196:3562   */\n      swap2\n      swap1\n      pop\n      jump\t// out\n        /* \"#utility.yul\":3568:3686   */\n    tag_191:\n        /* \"#utility.yul\":3655:3679   */\n      tag_193\n        /* \"#utility.yul\":3673:3678   */\n      dup2\n        /* \"#utility.yul\":3655:3679   */\n      tag_194\n      jump\t// in\n    tag_193:\n        /* \"#utility.yul\":3650:3653   */\n      dup3\n        /* \"#utility.yul\":3643:3680   */\n      mstore\n        /* \"#utility.yul\":3568:3686   */\n      pop\n      pop\n      jump\t// out\n        /* \"#utility.yul\":3692:3914   */\n    tag_40:\n        /* \"#utility.yul\":3785:3789   */\n      0x00\n        /* \"#utility.yul\":3823:3825   */\n      0x20\n        /* \"#utility.yul\":3812:3821   */\n      dup3\n        /* \"#utility.yul\":3808:3826   */\n      add\n        /* \"#utility.yul\":3800:3826   */\n      swap1\n      pop\n        /* \"#utility.yul\":3836:3907   */\n      tag_196\n        /* \"#utility.yul\":3904:3905   */\n      0x00\n        /* \"#utility.yul\":3893:3902   */\n      dup4\n        /* \"#utility.yul\":3889:3906   */\n      add\n        /* \"#utility.yul\":3880:3886   */\n      dup5\n        /* \"#utility.yul\":3836:3907   */\n      tag_168\n      jump\t// in\n    tag_196:\n        /* \"#utility.yul\":3692:3914   */\n      swap3\n      swap2\n      pop\n      pop\n      jump\t// out\n        /* \"#utility.yul\":3920:4174   */\n    tag_28:\n        /* \"#utility.yul\":4029:4033   */\n      0x00\n        /* \"#utility.yul\":4067:4069   */\n      0x20\n        /* \"#utility.yul\":4056:4065   */\n      dup3\n        /* \"#utility.yul\":4052:4070   */\n      add\n        /* \"#utility.yul\":4044:4070   */\n      swap1\n      pop\n        /* \"#utility.yul\":4080:4167   */\n      tag_198\n        /* \"#utility.yul\":4164:4165   */\n      0x00\n        /* \"#utility.yul\":4153:4162   */\n      dup4\n        /* \"#utility.yul\":4149:4166   */\n      add\n        /* \"#utility.yul\":4140:4146   */\n      dup5\n        /* \"#utility.yul\":4080:4167   */\n      tag_164\n      jump\t// in\n    tag_198:\n        /* \"#utility.yul\":3920:4174   */\n      swap3\n      swap2\n      pop\n      pop\n      jump\t// out\n        /* \"#utility.yul\":4180:4424   */\n    tag_22:\n        /* \"#utility.yul\":4284:4288   */\n      0x00\n        /* \"#utility.yul\":4322:4324   */\n      0x20\n        /* \"#utility.yul\":4311:4320   */\n      dup3\n        /* \"#utility.yul\":4307:4325   */\n      add\n        /* \"#utility.yul\":4299:4325   */\n      swap1\n      pop\n        /* \"#utility.yul\":4335:4417   */\n      tag_200\n        /* \"#utility.yul\":4414:4415   */\n      0x00\n        /* \"#utility.yul\":4403:4412   */\n      dup4\n        /* \"#utility.yul\":4399:4416   */\n      add\n        /* \"#utility.yul\":4390:4396   */\n      dup5\n        /* \"#utility.yul\":4335:4417   */\n      tag_172\n      jump\t// in\n    tag_200:\n        /* \"#utility.yul\":4180:4424   */\n      swap3\n      swap2\n      pop\n      pop\n      jump\t// out\n        /* \"#utility.yul\":4430:5367   */\n    tag_52:\n        /* \"#utility.yul\":4695:4699   */\n      0x00\n        /* \"#utility.yul\":4733:4736   */\n      0xa0\n        /* \"#utility.yul\":4722:4731   */\n      dup3\n        /* \"#utility.yul\":4718:4737   */\n      add\n        /* \"#utility.yul\":4710:4737   */\n      swap1\n      pop\n        /* \"#utility.yul\":4783:4792   */\n      dup2\n        /* \"#utility.yul\":4777:4781   */\n      dup2\n        /* \"#utility.yul\":4773:4793   */\n      sub\n        /* \"#utility.yul\":4769:4770   */\n      0x00\n        /* \"#utility.yul\":4758:4767   */\n      dup4\n        /* \"#utility.yul\":4754:4771   */\n      add\n        /* \"#utility.yul\":4747:4794   */\n      mstore\n        /* \"#utility.yul\":4811:4889   */\n      tag_202\n        /* \"#utility.yul\":4884:4888   */\n      dup2\n        /* \"#utility.yul\":4875:4881   */\n      dup9\n        /* \"#utility.yul\":4811:4889   */\n      tag_176\n      jump\t// in\n    tag_202:\n        /* \"#utility.yul\":4803:4889   */\n      swap1\n      pop\n        /* \"#utility.yul\":4936:4945   */\n      dup2\n        /* \"#utility.yul\":4930:4934   */\n      dup2\n        /* \"#utility.yul\":4926:4946   */\n      sub\n        /* \"#utility.yul\":4921:4923   */\n      0x20\n        /* \"#utility.yul\":4910:4919   */\n      dup4\n        /* \"#utility.yul\":4906:4924   */\n      add\n        /* \"#utility.yul\":4899:4947   */\n      mstore\n        /* \"#utility.yul\":4964:5042   */\n      tag_203\n        /* \"#utility.yul\":5037:5041   */\n      dup2\n        /* \"#utility.yul\":5028:5034   */\n      dup8\n        /* \"#utility.yul\":4964:5042   */\n      tag_176\n      jump\t// in\n    tag_203:\n        /* \"#utility.yul\":4956:5042   */\n      swap1\n      pop\n        /* \"#utility.yul\":5052:5124   */\n      tag_204\n        /* \"#utility.yul\":5120:5122   */\n      0x40\n        /* \"#utility.yul\":5109:5118   */\n      dup4\n        /* \"#utility.yul\":5105:5123   */\n      add\n        /* \"#utility.yul\":5096:5102   */\n      dup7\n        /* \"#utility.yul\":5052:5124   */\n      tag_191\n      jump\t// in\n    tag_204:\n        /* \"#utility.yul\":5171:5180   */\n      dup2\n        /* \"#utility.yul\":5165:5169   */\n      dup2\n        /* \"#utility.yul\":5161:5181   */\n      sub\n        /* \"#utility.yul\":5156:5158   */\n      0x60\n        /* \"#utility.yul\":5145:5154   */\n      dup4\n        /* \"#utility.yul\":5141:5159   */\n      add\n        /* \"#utility.yul\":5134:5182   */\n      mstore\n        /* \"#utility.yul\":5199:5277   */\n      tag_205\n        /* \"#utility.yul\":5272:5276   */\n      dup2\n        /* \"#utility.yul\":5263:5269   */\n      dup6\n        /* \"#utility.yul\":5199:5277   */\n      tag_176\n      jump\t// in\n    tag_205:\n        /* \"#utility.yul\":5191:5277   */\n      swap1\n      pop\n        /* \"#utility.yul\":5287:5360   */\n      tag_206\n        /* \"#utility.yul\":5355:5358   */\n      0x80\n        /* \"#utility.yul\":5344:5353   */\n      dup4\n        /* \"#utility.yul\":5340:5359   */\n      add\n        /* \"#utility.yul\":5331:5337   */\n      dup5\n        /* \"#utility.yul\":5287:5360   */\n      tag_191\n      jump\t// in\n    tag_206:\n        /* \"#utility.yul\":4430:5367   */\n      swap7\n      swap6\n      pop\n      pop\n      pop\n      pop\n      pop\n      pop\n      jump\t// out\n        /* \"#utility.yul\":5373:5792   */\n    tag_56:\n        /* \"#utility.yul\":5539:5543   */\n      0x00\n        /* \"#utility.yul\":5577:5579   */\n      0x20\n        /* \"#utility.yul\":5566:5575   */\n      dup3\n        /* \"#utility.yul\":5562:5580   */\n      add\n        /* \"#utility.yul\":5554:5580   */\n      swap1\n      pop\n        /* \"#utility.yul\":5626:5635   */\n      dup2\n        /* \"#utility.yul\":5620:5624   */\n      dup2\n        /* \"#utility.yul\":5616:5636   */\n      sub\n        /* \"#utility.yul\":5612:5613   */\n      0x00\n        /* \"#utility.yul\":5601:5610   */\n      dup4\n        /* \"#utility.yul\":5597:5614   */\n      add\n        /* \"#utility.yul\":5590:5637   */\n      mstore\n        /* \"#utility.yul\":5654:5785   */\n      tag_208\n        /* \"#utility.yul\":5780:5784   */\n      dup2\n        /* \"#utility.yul\":5654:5785   */\n      tag_186\n      jump\t// in\n    tag_208:\n        /* \"#utility.yul\":5646:5785   */\n      swap1\n      pop\n        /* \"#utility.yul\":5373:5792   */\n      swap2\n      swap1\n      pop\n      jump\t// out\n        /* \"#utility.yul\":5798:6020   */\n    tag_32:\n        /* \"#utility.yul\":5891:5895   */\n      0x00\n        /* \"#utility.yul\":5929:5931   */\n      0x20\n        /* \"#utility.yul\":5918:5927   */\n      dup3\n        /* \"#utility.yul\":5914:5932   */\n      add\n        /* \"#utility.yul\":5906:5932   */\n      swap1\n      pop\n        /* \"#utility.yul\":5942:6013   */\n      tag_210\n        /* \"#utility.yul\":6010:6011   */\n      0x00\n        /* \"#utility.yul\":5999:6008   */\n      dup4\n        /* \"#utility.yul\":5995:6012   */\n      add\n        /* \"#utility.yul\":5986:5992   */\n      dup5\n        /* \"#utility.yul\":5942:6013   */\n      tag_191\n      jump\t// in\n    tag_210:\n        /* \"#utility.yul\":5798:6020   */\n      swap3\n      swap2\n      pop\n      pop\n      jump\t// out\n        /* \"#utility.yul\":6026:6468   */\n    tag_44:\n        /* \"#utility.yul\":6175:6179   */\n      0x00\n        /* \"#utility.yul\":6213:6215   */\n      0x60\n        /* \"#utility.yul\":6202:6211   */\n      dup3\n        /* \"#utility.yul\":6198:6216   */\n      add\n        /* \"#utility.yul\":6190:6216   */\n      swap1\n      pop\n        /* \"#utility.yul\":6226:6297   */\n      tag_212\n        /* \"#utility.yul\":6294:6295   */\n      0x00\n        /* \"#utility.yul\":6283:6292   */\n      dup4\n        /* \"#utility.yul\":6279:6296   */\n      add\n        /* \"#utility.yul\":6270:6276   */\n      dup7\n        /* \"#utility.yul\":6226:6297   */\n      tag_191\n      jump\t// in\n    tag_212:\n        /* \"#utility.yul\":6307:6379   */\n      tag_213\n        /* \"#utility.yul\":6375:6377   */\n      0x20\n        /* \"#utility.yul\":6364:6373   */\n      dup4\n        /* \"#utility.yul\":6360:6378   */\n      add\n        /* \"#utility.yul\":6351:6357   */\n      dup6\n        /* \"#utility.yul\":6307:6379   */\n      tag_191\n      jump\t// in\n    tag_213:\n        /* \"#utility.yul\":6389:6461   */\n      tag_214\n        /* \"#utility.yul\":6457:6459   */\n      0x40\n        /* \"#utility.yul\":6446:6455   */\n      dup4\n        /* \"#utility.yul\":6442:6460   */\n      add\n        /* \"#utility.yul\":6433:6439   */\n      dup5\n        /* \"#utility.yul\":6389:6461   */\n      tag_168\n      jump\t// in\n    tag_214:\n        /* \"#utility.yul\":6026:6468   */\n      swap5\n      swap4\n      pop\n      pop\n      pop\n      pop\n      jump\t// out\n        /* \"#utility.yul\":6474:6603   */\n    tag_128:\n        /* \"#utility.yul\":6508:6514   */\n      0x00\n        /* \"#utility.yul\":6535:6555   */\n      tag_216\n      tag_217\n      jump\t// in\n    tag_216:\n        /* \"#utility.yul\":6525:6555   */\n      swap1\n      pop\n        /* \"#utility.yul\":6564:6597   */\n      tag_218\n        /* \"#utility.yul\":6592:6596   */\n      dup3\n        /* \"#utility.yul\":6584:6590   */\n      dup3\n        /* \"#utility.yul\":6564:6597   */\n      tag_219\n      jump\t// in\n    tag_218:\n        /* \"#utility.yul\":6474:6603   */\n      swap2\n      swap1\n      pop\n      jump\t// out\n        /* \"#utility.yul\":6609:6684   */\n    tag_217:\n        /* \"#utility.yul\":6642:6648   */\n      0x00\n        /* \"#utility.yul\":6675:6677   */\n      0x40\n        /* \"#utility.yul\":6669:6678   */\n      mload\n        /* \"#utility.yul\":6659:6678   */\n      swap1\n      pop\n        /* \"#utility.yul\":6609:6684   */\n      swap1\n      jump\t// out\n        /* \"#utility.yul\":6690:6998   */\n    tag_127:\n        /* \"#utility.yul\":6752:6756   */\n      0x00\n        /* \"#utility.yul\":6842:6860   */\n      0xffffffffffffffff\n        /* \"#utility.yul\":6834:6840   */\n      dup3\n        /* \"#utility.yul\":6831:6861   */\n      gt\n        /* \"#utility.yul\":6828:6884   */\n      iszero\n      tag_222\n      jumpi\n        /* \"#utility.yul\":6864:6882   */\n      tag_223\n      tag_224\n      jump\t// in\n    tag_223:\n        /* \"#utility.yul\":6828:6884   */\n    tag_222:\n        /* \"#utility.yul\":6902:6931   */\n      tag_225\n        /* \"#utility.yul\":6924:6930   */\n      dup3\n        /* \"#utility.yul\":6902:6931   */\n      tag_185\n      jump\t// in\n    tag_225:\n        /* \"#utility.yul\":6894:6931   */\n      swap1\n      pop\n        /* \"#utility.yul\":6986:6990   */\n      0x20\n        /* \"#utility.yul\":6980:6984   */\n      dup2\n        /* \"#utility.yul\":6976:6991   */\n      add\n        /* \"#utility.yul\":6968:6991   */\n      swap1\n      pop\n        /* \"#utility.yul\":6690:6998   */\n      swap2\n      swap1\n      pop\n      jump\t// out\n        /* \"#utility.yul\":7004:7103   */\n    tag_179:\n        /* \"#utility.yul\":7056:7062   */\n      0x00\n        /* \"#utility.yul\":7090:7095   */\n      dup2\n        /* \"#utility.yul\":7084:7096   */\n      mload\n        /* \"#utility.yul\":7074:7096   */\n      swap1\n      pop\n        /* \"#utility.yul\":7004:7103   */\n      swap2\n      swap1\n      pop\n      jump\t// out\n        /* \"#utility.yul\":7109:7278   */\n    tag_181:\n        /* \"#utility.yul\":7193:7204   */\n      0x00\n        /* \"#utility.yul\":7227:7233   */\n      dup3\n        /* \"#utility.yul\":7222:7225   */\n      dup3\n        /* \"#utility.yul\":7215:7234   */\n      mstore\n        /* \"#utility.yul\":7267:7271   */\n      0x20\n        /* \"#utility.yul\":7262:7265   */\n      dup3\n        /* \"#utility.yul\":7258:7272   */\n      add\n        /* \"#utility.yul\":7243:7272   */\n      swap1\n      pop\n        /* \"#utility.yul\":7109:7278   */\n      swap3\n      swap2\n      pop\n      pop\n      jump\t// out\n        /* \"#utility.yul\":7284:7632   */\n    tag_79:\n        /* \"#utility.yul\":7324:7331   */\n      0x00\n        /* \"#utility.yul\":7347:7367   */\n      tag_229\n        /* \"#utility.yul\":7365:7366   */\n      dup3\n        /* \"#utility.yul\":7347:7367   */\n      tag_194\n      jump\t// in\n    tag_229:\n        /* \"#utility.yul\":7342:7367   */\n      swap2\n      pop\n        /* \"#utility.yul\":7381:7401   */\n      tag_230\n        /* \"#utility.yul\":7399:7400   */\n      dup4\n        /* \"#utility.yul\":7381:7401   */\n      tag_194\n      jump\t// in\n    tag_230:\n        /* \"#utility.yul\":7376:7401   */\n      swap3\n      pop\n        /* \"#utility.yul\":7569:7570   */\n      dup2\n        /* \"#utility.yul\":7501:7567   */\n      0xffffffffffffffffffffffffffffffffffffffffffffffffffffffffffffffff\n        /* \"#utility.yul\":7497:7571   */\n      div\n        /* \"#utility.yul\":7494:7495   */\n      dup4\n        /* \"#utility.yul\":7491:7572   */\n      gt\n        /* \"#utility.yul\":7486:7487   */\n      dup3\n        /* \"#utility.yul\":7479:7488   */\n      iszero\n        /* \"#utility.yul\":7472:7489   */\n      iszero\n        /* \"#utility.yul\":7468:7573   */\n      and\n        /* \"#utility.yul\":7465:7596   */\n      iszero\n      tag_231\n      jumpi\n        /* \"#utility.yul\":7576:7594   */\n      tag_232\n      tag_233\n      jump\t// in\n    tag_232:\n        /* \"#utility.yul\":7465:7596   */\n    tag_231:\n        /* \"#utility.yul\":7624:7625   */\n      dup3\n        /* \"#utility.yul\":7621:7622   */\n      dup3\n        /* \"#utility.yul\":7617:7626   */\n      mul\n        /* \"#utility.yul\":7606:7626   */\n      swap1\n      pop\n        /* \"#utility.yul\":7284:7632   */\n      swap3\n      swap2\n      pop\n      pop\n      jump\t// out\n        /* \"#utility.yul\":7638:7734   */\n    tag_171:\n        /* \"#utility.yul\":7675:7682   */\n      0x00\n        /* \"#utility.yul\":7704:7728   */\n      tag_235\n        /* \"#utility.yul\":7722:7727   */\n      dup3\n        /* \"#utility.yul\":7704:7728   */\n      tag_236\n      jump\t// in\n    tag_235:\n        /* \"#utility.yul\":7693:7728   */\n      swap1\n      pop\n        /* \"#utility.yul\":7638:7734   */\n      swap2\n      swap1\n      pop\n      jump\t// out\n        /* \"#utility.yul\":7740:7844   */\n    tag_167:\n        /* \"#utility.yul\":7785:7792   */\n      0x00\n        /* \"#utility.yul\":7814:7838   */\n      tag_238\n        /* \"#utility.yul\":7832:7837   */\n      dup3\n        /* \"#utility.yul\":7814:7838   */\n      tag_236\n      jump\t// in\n    tag_238:\n        /* \"#utility.yul\":7803:7838   */\n      swap1\n      pop\n        /* \"#utility.yul\":7740:7844   */\n      swap2\n      swap1\n      pop\n      jump\t// out\n        /* \"#utility.yul\":7850:7987   */\n    tag_239:\n        /* \"#utility.yul\":7900:7907   */\n      0x00\n        /* \"#utility.yul\":7929:7934   */\n      dup2\n        /* \"#utility.yul\":7918:7934   */\n      swap1\n      pop\n        /* \"#utility.yul\":7935:7981   */\n      tag_241\n        /* \"#utility.yul\":7975:7980   */\n      dup3\n        /* \"#utility.yul\":7935:7981   */\n      tag_242\n      jump\t// in\n    tag_241:\n        /* \"#utility.yul\":7850:7987   */\n      swap2\n      swap1\n      pop\n      jump\t// out\n        /* \"#utility.yul\":7993:8119   */\n    tag_236:\n        /* \"#utility.yul\":8030:8037   */\n      0x00\n        /* \"#utility.yul\":8070:8112   */\n      0xffffffffffffffffffffffffffffffffffffffff\n        /* \"#utility.yul\":8063:8068   */\n      dup3\n        /* \"#utility.yul\":8059:8113   */\n      and\n        /* \"#utility.yul\":8048:8113   */\n      swap1\n      pop\n        /* \"#utility.yul\":7993:8119   */\n      swap2\n      swap1\n      pop\n      jump\t// out\n        /* \"#utility.yul\":8125:8202   */\n    tag_194:\n        /* \"#utility.yul\":8162:8169   */\n      0x00\n        /* \"#utility.yul\":8191:8196   */\n      dup2\n        /* \"#utility.yul\":8180:8196   */\n      swap1\n      pop\n        /* \"#utility.yul\":8125:8202   */\n      swap2\n      swap1\n      pop\n      jump\t// out\n        /* \"#utility.yul\":8208:8345   */\n    tag_175:\n        /* \"#utility.yul\":8269:8278   */\n      0x00\n        /* \"#utility.yul\":8302:8339   */\n      tag_246\n        /* \"#utility.yul\":8333:8338   */\n      dup3\n        /* \"#utility.yul\":8302:8339   */\n      tag_239\n      jump\t// in\n    tag_246:\n        /* \"#utility.yul\":8289:8339   */\n      swap1\n      pop\n        /* \"#utility.yul\":8208:8345   */\n      swap2\n      swap1\n      pop\n      jump\t// out\n        /* \"#utility.yul\":8351:8505   */\n    tag_133:\n        /* \"#utility.yul\":8435:8441   */\n      dup3\n        /* \"#utility.yul\":8430:8433   */\n      dup2\n        /* \"#utility.yul\":8425:8428   */\n      dup4\n        /* \"#utility.yul\":8412:8442   */\n      calldatacopy\n        /* \"#utility.yul\":8497:8498   */\n      0x00\n        /* \"#utility.yul\":8488:8494   */\n      dup4\n        /* \"#utility.yul\":8483:8486   */\n      dup4\n        /* \"#utility.yul\":8479:8495   */\n      add\n        /* \"#utility.yul\":8472:8499   */\n      mstore\n        /* \"#utility.yul\":8351:8505   */\n      pop\n      pop\n      pop\n      jump\t// out\n        /* \"#utility.yul\":8511:8818   */\n    tag_183:\n        /* \"#utility.yul\":8579:8580   */\n      0x00\n        /* \"#utility.yul\":8589:8702   */\n    tag_249:\n        /* \"#utility.yul\":8603:8609   */\n      dup4\n        /* \"#utility.yul\":8600:8601   */\n      dup2\n        /* \"#utility.yul\":8597:8610   */\n      lt\n        /* \"#utility.yul\":8589:8702   */\n      iszero\n      tag_251\n      jumpi\n        /* \"#utility.yul\":8688:8689   */\n      dup1\n        /* \"#utility.yul\":8683:8686   */\n      dup3\n        /* \"#utility.yul\":8679:8690   */\n      add\n        /* \"#utility.yul\":8673:8691   */\n      mload\n        /* \"#utility.yul\":8669:8670   */\n      dup2\n        /* \"#utility.yul\":8664:8667   */\n      dup5\n        /* \"#utility.yul\":8660:8671   */\n      add\n        /* \"#utility.yul\":8653:8692   */\n      mstore\n        /* \"#utility.yul\":8625:8627   */\n      0x20\n        /* \"#utility.yul\":8622:8623   */\n      dup2\n        /* \"#utility.yul\":8618:8628   */\n      add\n        /* \"#utility.yul\":8613:8628   */\n      swap1\n      pop\n        /* \"#utility.yul\":8589:8702   */\n      jump(tag_249)\n    tag_251:\n        /* \"#utility.yul\":8720:8726   */\n      dup4\n        /* \"#utility.yul\":8717:8718   */\n      dup2\n        /* \"#utility.yul\":8714:8727   */\n      gt\n        /* \"#utility.yul\":8711:8812   */\n      iszero\n      tag_252\n      jumpi\n        /* \"#utility.yul\":8800:8801   */\n      0x00\n        /* \"#utility.yul\":8791:8797   */\n      dup5\n        /* \"#utility.yul\":8786:8789   */\n      dup5\n        /* \"#utility.yul\":8782:8798   */\n      add\n        /* \"#utility.yul\":8775:8802   */\n      mstore\n        /* \"#utility.yul\":8711:8812   */\n    tag_252:\n        /* \"#utility.yul\":8560:8818   */\n      pop\n        /* \"#utility.yul\":8511:8818   */\n      pop\n      pop\n      pop\n      jump\t// out\n        /* \"#utility.yul\":8824:9144   */\n    tag_58:\n        /* \"#utility.yul\":8868:8874   */\n      0x00\n        /* \"#utility.yul\":8905:8906   */\n      0x02\n        /* \"#utility.yul\":8899:8903   */\n      dup3\n        /* \"#utility.yul\":8895:8907   */\n      div\n        /* \"#utility.yul\":8885:8907   */\n      swap1\n      pop\n        /* \"#utility.yul\":8952:8953   */\n      0x01\n        /* \"#utility.yul\":8946:8950   */\n      dup3\n        /* \"#utility.yul\":8942:8954   */\n      and\n        /* \"#utility.yul\":8973:8991   */\n      dup1\n        /* \"#utility.yul\":8963:9044   */\n      tag_254\n      jumpi\n        /* \"#utility.yul\":9029:9033   */\n      0x7f\n        /* \"#utility.yul\":9021:9027   */\n      dup3\n        /* \"#utility.yul\":9017:9034   */\n      and\n        /* \"#utility.yul\":9007:9034   */\n      swap2\n      pop\n        /* \"#utility.yul\":8963:9044   */\n    tag_254:\n        /* \"#utility.yul\":9091:9093   */\n      0x20\n        /* \"#utility.yul\":9083:9089   */\n      dup3\n        /* \"#utility.yul\":9080:9094   */\n      lt\n        /* \"#utility.yul\":9060:9078   */\n      dup2\n        /* \"#utility.yul\":9057:9095   */\n      eq\n        /* \"#utility.yul\":9054:9138   */\n      iszero\n      tag_255\n      jumpi\n        /* \"#utility.yul\":9110:9128   */\n      tag_256\n      tag_257\n      jump\t// in\n    tag_256:\n        /* \"#utility.yul\":9054:9138   */\n    tag_255:\n        /* \"#utility.yul\":8875:9144   */\n      pop\n        /* \"#utility.yul\":8824:9144   */\n      swap2\n      swap1\n      pop\n      jump\t// out\n        /* \"#utility.yul\":9150:9431   */\n    tag_219:\n        /* \"#utility.yul\":9233:9260   */\n      tag_259\n        /* \"#utility.yul\":9255:9259   */\n      dup3\n        /* \"#utility.yul\":9233:9260   */\n      tag_185\n      jump\t// in\n    tag_259:\n        /* \"#utility.yul\":9225:9231   */\n      dup2\n        /* \"#utility.yul\":9221:9261   */\n      add\n        /* \"#utility.yul\":9363:9369   */\n      dup2\n        /* \"#utility.yul\":9351:9361   */\n      dup2\n        /* \"#utility.yul\":9348:9370   */\n      lt\n        /* \"#utility.yul\":9327:9345   */\n      0xffffffffffffffff\n        /* \"#utility.yul\":9315:9325   */\n      dup3\n        /* \"#utility.yul\":9312:9346   */\n      gt\n        /* \"#utility.yul\":9309:9371   */\n      or\n        /* \"#utility.yul\":9306:9394   */\n      iszero\n      tag_260\n      jumpi\n        /* \"#utility.yul\":9374:9392   */\n      tag_261\n      tag_224\n      jump\t// in\n    tag_261:\n        /* \"#utility.yul\":9306:9394   */\n    tag_260:\n        /* \"#utility.yul\":9414:9424   */\n      dup1\n        /* \"#utility.yul\":9410:9412   */\n      0x40\n        /* \"#utility.yul\":9403:9425   */\n      mstore\n        /* \"#utility.yul\":9193:9431   */\n      pop\n        /* \"#utility.yul\":9150:9431   */\n      pop\n      pop\n      jump\t// out\n        /* \"#utility.yul\":9437:9617   */\n    tag_233:\n        /* \"#utility.yul\":9485:9562   */\n      0x4e487b7100000000000000000000000000000000000000000000000000000000\n        /* \"#utility.yul\":9482:9483   */\n      0x00\n        /* \"#utility.yul\":9475:9563   */\n      mstore\n        /* \"#utility.yul\":9582:9586   */\n      0x11\n        /* \"#utility.yul\":9579:9580   */\n      0x04\n        /* \"#utility.yul\":9572:9587   */\n      mstore\n        /* \"#utility.yul\":9606:9610   */\n      0x24\n        /* \"#utility.yul\":9603:9604   */\n      0x00\n        /* \"#utility.yul\":9596:9611   */\n      revert\n        /* \"#utility.yul\":9623:9803   */\n    tag_73:\n        /* \"#utility.yul\":9671:9748   */\n      0x4e487b7100000000000000000000000000000000000000000000000000000000\n        /* \"#utility.yul\":9668:9669   */\n      0x00\n        /* \"#utility.yul\":9661:9749   */\n      mstore\n        /* \"#utility.yul\":9768:9772   */\n      0x21\n        /* \"#utility.yul\":9765:9766   */\n      0x04\n        /* \"#utility.yul\":9758:9773   */\n      mstore\n        /* \"#utility.yul\":9792:9796   */\n      0x24\n        /* \"#utility.yul\":9789:9790   */\n      0x00\n        /* \"#utility.yul\":9782:9797   */\n      revert\n        /* \"#utility.yul\":9809:9989   */\n    tag_257:\n        /* \"#utility.yul\":9857:9934   */\n      0x4e487b7100000000000000000000000000000000000000000000000000000000\n        /* \"#utility.yul\":9854:9855   */\n      0x00\n        /* \"#utility.yul\":9847:9935   */\n      mstore\n        /* \"#utility.yul\":9954:9958   */\n      0x22\n        /* \"#utility.yul\":9951:9952   */\n      0x04\n        /* \"#utility.yul\":9944:9959   */\n      mstore\n        /* \"#utility.yul\":9978:9982   */\n      0x24\n        /* \"#utility.yul\":9975:9976   */\n      0x00\n        /* \"#utility.yul\":9968:9983   */\n      revert\n        /* \"#utility.yul\":9995:10175   */\n    tag_224:\n        /* \"#utility.yul\":10043:10120   */\n      0x4e487b7100000000000000000000000000000000000000000000000000000000\n        /* \"#utility.yul\":10040:10041   */\n      0x00\n        /* \"#utility.yul\":10033:10121   */\n      mstore\n        /* \"#utility.yul\":10140:10144   */\n      0x41\n        /* \"#utility.yul\":10137:10138   */\n      0x04\n        /* \"#utility.yul\":10130:10145   */\n      mstore\n        /* \"#utility.yul\":10164:10168   */\n      0x24\n        /* \"#utility.yul\":10161:10162   */\n      0x00\n        /* \"#utility.yul\":10154:10169   */\n      revert\n        /* \"#utility.yul\":10181:10298   */\n    tag_142:\n        /* \"#utility.yul\":10290:10291   */\n      0x00\n        /* \"#utility.yul\":10287:10288   */\n      dup1\n        /* \"#utility.yul\":10280:10292   */\n      revert\n        /* \"#utility.yul\":10304:10421   */\n    tag_131:\n        /* \"#utility.yul\":10413:10414   */\n      0x00\n        /* \"#utility.yul\":10410:10411   */\n      dup1\n        /* \"#utility.yul\":10403:10415   */\n      revert\n        /* \"#utility.yul\":10427:10544   */\n    tag_158:\n        /* \"#utility.yul\":10536:10537   */\n      0x00\n        /* \"#utility.yul\":10533:10534   */\n      dup1\n        /* \"#utility.yul\":10526:10538   */\n      revert\n        /* \"#utility.yul\":10550:10667   */\n    tag_151:\n        /* \"#utility.yul\":10659:10660   */\n      0x00\n        /* \"#utility.yul\":10656:10657   */\n      dup1\n        /* \"#utility.yul\":10649:10661   */\n      revert\n        /* \"#utility.yul\":10673:10775   */\n    tag_185:\n        /* \"#utility.yul\":10714:10720   */\n      0x00\n        /* \"#utility.yul\":10765:10767   */\n      0x1f\n        /* \"#utility.yul\":10761:10768   */\n      not\n        /* \"#utility.yul\":10756:10758   */\n      0x1f\n        /* \"#utility.yul\":10749:10754   */\n      dup4\n        /* \"#utility.yul\":10745:10759   */\n      add\n        /* \"#utility.yul\":10741:10769   */\n      and\n        /* \"#utility.yul\":10731:10769   */\n      swap1\n      pop\n        /* \"#utility.yul\":10673:10775   */\n      swap2\n      swap1\n      pop\n      jump\t// out\n        /* \"#utility.yul\":10781:10960   */\n    tag_190:\n        /* \"#utility.yul\":10921:10952   */\n      0x706c656173652073656c6563742074686520636c617373206669727374000000\n        /* \"#utility.yul\":10917:10918   */\n      0x00\n        /* \"#utility.yul\":10909:10915   */\n      dup3\n        /* \"#utility.yul\":10905:10919   */\n      add\n        /* \"#utility.yul\":10898:10953   */\n      mstore\n        /* \"#utility.yul\":10781:10960   */\n      pop\n      jump\t// out\n        /* \"#utility.yul\":10966:11084   */\n    tag_242:\n        /* \"#utility.yul\":11052:11053   */\n      0x03\n        /* \"#utility.yul\":11045:11050   */\n      dup2\n        /* \"#utility.yul\":11042:11054   */\n      lt\n        /* \"#utility.yul\":11032:11078   */\n      tag_273\n      jumpi\n        /* \"#utility.yul\":11058:11076   */\n      tag_274\n      tag_73\n      jump\t// in\n    tag_274:\n        /* \"#utility.yul\":11032:11078   */\n    tag_273:\n        /* \"#utility.yul\":10966:11084   */\n      pop\n      jump\t// out\n        /* \"#utility.yul\":11090:11212   */\n    tag_137:\n        /* \"#utility.yul\":11163:11187   */\n      tag_276\n        /* \"#utility.yul\":11181:11186   */\n      dup2\n        /* \"#utility.yul\":11163:11187   */\n      tag_171\n      jump\t// in\n    tag_276:\n        /* \"#utility.yul\":11156:11161   */\n      dup2\n        /* \"#utility.yul\":11153:11188   */\n      eq\n        /* \"#utility.yul\":11143:11206   */\n      tag_277\n      jumpi\n        /* \"#utility.yul\":11202:11203   */\n      0x00\n        /* \"#utility.yul\":11199:11200   */\n      dup1\n        /* \"#utility.yul\":11192:11204   */\n      revert\n        /* \"#utility.yul\":11143:11206   */\n    tag_277:\n        /* \"#utility.yul\":11090:11212   */\n      pop\n      jump\t// out\n        /* \"#utility.yul\":11218:11340   */\n    tag_147:\n        /* \"#utility.yul\":11291:11315   */\n      tag_279\n        /* \"#utility.yul\":11309:11314   */\n      dup2\n        /* \"#utility.yul\":11291:11315   */\n      tag_194\n      jump\t// in\n    tag_279:\n        /* \"#utility.yul\":11284:11289   */\n      dup2\n        /* \"#utility.yul\":11281:11316   */\n      eq\n        /* \"#utility.yul\":11271:11334   */\n      tag_280\n      jumpi\n        /* \"#utility.yul\":11330:11331   */\n      0x00\n        /* \"#utility.yul\":11327:11328   */\n      dup1\n        /* \"#utility.yul\":11320:11332   */\n      revert\n        /* \"#utility.yul\":11271:11334   */\n    tag_280:\n        /* \"#utility.yul\":11218:11340   */\n      pop\n      jump\t// out\n\n    auxdata: 0xa2646970667358221220949dc1d9f985695d9f46a4218d865ea69f0efffb02f07af1b611f79a7c91b36b64736f6c63430008070033\n}\n",
				"bytecode": {
					"linkReferences": {},
					"object": "60806040526000600160146101000a81548160ff0219169083151502179055506040518060400160405280600d81526020017f45636f6e6f6d7920436c61737300000000000000000000000000000000000000815250600390805190602001906200006c92919062000149565b5060016005556001600760006101000a81548160ff021916908360028111156200009b576200009a6200022f565b5b0217905550348015620000ad57600080fd5b5073dd870fa1b7c4700f2bd7f44238821c26f73921486000806101000a81548173ffffffffffffffffffffffffffffffffffffffff021916908373ffffffffffffffffffffffffffffffffffffffff16021790555033600160006101000a81548173ffffffffffffffffffffffffffffffffffffffff021916908373ffffffffffffffffffffffffffffffffffffffff1602179055506200028d565b8280546200015790620001f9565b90600052602060002090601f0160209004810192826200017b5760008555620001c7565b82601f106200019657805160ff1916838001178555620001c7565b82800160010185558215620001c7579182015b82811115620001c6578251825591602001919060010190620001a9565b5b509050620001d69190620001da565b5090565b5b80821115620001f5576000816000905550600101620001db565b5090565b600060028204905060018216806200021257607f821691505b602082108114156200022957620002286200025e565b5b50919050565b7f4e487b7100000000000000000000000000000000000000000000000000000000600052602160045260246000fd5b7f4e487b7100000000000000000000000000000000000000000000000000000000600052602260045260246000fd5b610fe6806200029d6000396000f3fe608060405234801561001057600080fd5b50600436106100a95760003560e01c80635018350711610071578063501835071461012e5780637a1736d1146101385780638da5cb5b14610142578063993a04b714610160578063b24fa0e414610180578063b90d3d0c1461018a576100a9565b806317ae4589146100ae5780631aa35610146100ca57806342f6487a146100e85780634f8632ba146100f25780634fb2e0be14610110575b600080fd5b6100c860048036038101906100c39190610a32565b6101be565b005b6100d2610372565b6040516100df9190610b8b565b60405180910390f35b6100f0610385565b005b6100fa6103f2565b6040516101079190610b70565b60405180910390f35b610118610418565b6040516101259190610c2e565b60405180910390f35b61013661041e565b005b610140610500565b005b61014a6105e2565b6040516101579190610b55565b60405180910390f35b610168610606565b60405161017793929190610c49565b60405180910390f35b610188610619565b005b6101a4600480360381019061019f9190610a05565b6106fa565b6040516101b5959493929190610ba6565b60405180910390f35b600160149054906101000a900460ff1661020d576040517f08c379a000000000000000000000000000000000000000000000000000000000815260040161020490610c0e565b60405180910390fd5b6040518060a001604052808481526020018381526020018281526020016003805461023790610e01565b80601f016020809104026020016040519081016040528092919081815260200182805461026390610e01565b80156102b05780601f10610285576101008083540402835291602001916102b0565b820191906000526020600020905b81548152906001019060200180831161029357829003601f168201915b50505050508152602001600454815250600660003373ffffffffffffffffffffffffffffffffffffffff1673ffffffffffffffffffffffffffffffffffffffff168152602001908152602001600020600082015181600001908051906020019061031b9291906108c8565b5060208201518160010190805190602001906103389291906108c8565b5060408201518160020155606082015181600301908051906020019061035f9291906108c8565b5060808201518160040155905050505050565b600760009054906101000a900460ff1681565b600160009054906101000a900473ffffffffffffffffffffffffffffffffffffffff1673ffffffffffffffffffffffffffffffffffffffff166108fc6004549081150290604051600060405180830381858888f193505050501580156103ef573d6000803e3d6000fd5b50565b600160009054906101000a900473ffffffffffffffffffffffffffffffffffffffff1681565b60055481565b6000600760006101000a81548160ff0219169083600281111561044457610443610e93565b5b0217905550600760009054906101000a900460ff16600281111561046b5761046a610e93565b5b600281905550600060025414156104e4576040518060400160405280600b81526020017f466972737420436c617373000000000000000000000000000000000000000000815250600390805190602001906104c79291906108c8565b50662386f26fc100006005546104dd9190610cf2565b6004819055505b60018060146101000a81548160ff021916908315150217905550565b6001600760006101000a81548160ff0219169083600281111561052657610525610e93565b5b0217905550600760009054906101000a900460ff16600281111561054d5761054c610e93565b5b600281905550600160025414156105c6576040518060400160405280600d81526020017f45636f6e6f6d7920436c61737300000000000000000000000000000000000000815250600390805190602001906105a99291906108c8565b506611c37937e080006005546105bf9190610cf2565b6004819055505b60018060146101000a81548160ff021916908315150217905550565b60008054906101000a900473ffffffffffffffffffffffffffffffffffffffff1681565b6000806000434233925092509250909192565b6002600760006101000a81548160ff0219169083600281111561063f5761063e610e93565b5b0217905550600760009054906101000a900460ff16600281111561066657610665610e93565b5b6002819055506002805414156106de576040518060400160405280600d81526020017f4275736e69737320436c61737300000000000000000000000000000000000000815250600390805190602001906106c19291906108c8565b506618de76816d80006005546106d79190610cf2565b6004819055505b60018060146101000a81548160ff021916908315150217905550565b600660205280600052604060002060009150905080600001805461071d90610e01565b80601f016020809104026020016040519081016040528092919081815260200182805461074990610e01565b80156107965780601f1061076b57610100808354040283529160200191610796565b820191906000526020600020905b81548152906001019060200180831161077957829003601f168201915b5050505050908060010180546107ab90610e01565b80601f01602080910402602001604051908101604052809291908181526020018280546107d790610e01565b80156108245780601f106107f957610100808354040283529160200191610824565b820191906000526020600020905b81548152906001019060200180831161080757829003601f168201915b50505050509080600201549080600301805461083f90610e01565b80601f016020809104026020016040519081016040528092919081815260200182805461086b90610e01565b80156108b85780601f1061088d576101008083540402835291602001916108b8565b820191906000526020600020905b81548152906001019060200180831161089b57829003601f168201915b5050505050908060040154905085565b8280546108d490610e01565b90600052602060002090601f0160209004810192826108f6576000855561093d565b82601f1061090f57805160ff191683800117855561093d565b8280016001018555821561093d579182015b8281111561093c578251825591602001919060010190610921565b5b50905061094a919061094e565b5090565b5b8082111561096757600081600090555060010161094f565b5090565b600061097e61097984610ca5565b610c80565b90508281526020810184848401111561099a57610999610f25565b5b6109a5848285610dbf565b509392505050565b6000813590506109bc81610f82565b92915050565b600082601f8301126109d7576109d6610f20565b5b81356109e784826020860161096b565b91505092915050565b6000813590506109ff81610f99565b92915050565b600060208284031215610a1b57610a1a610f2f565b5b6000610a29848285016109ad565b91505092915050565b600080600060608486031215610a4b57610a4a610f2f565b5b600084013567ffffffffffffffff811115610a6957610a68610f2a565b5b610a75868287016109c2565b935050602084013567ffffffffffffffff811115610a9657610a95610f2a565b5b610aa2868287016109c2565b9250506040610ab3868287016109f0565b9150509250925092565b610ac681610d5e565b82525050565b610ad581610d4c565b82525050565b610ae481610dad565b82525050565b6000610af582610cd6565b610aff8185610ce1565b9350610b0f818560208601610dce565b610b1881610f34565b840191505092915050565b6000610b30601d83610ce1565b9150610b3b82610f45565b602082019050919050565b610b4f81610da3565b82525050565b6000602082019050610b6a6000830184610acc565b92915050565b6000602082019050610b856000830184610abd565b92915050565b6000602082019050610ba06000830184610adb565b92915050565b600060a0820190508181036000830152610bc08188610aea565b90508181036020830152610bd48187610aea565b9050610be36040830186610b46565b8181036060830152610bf58185610aea565b9050610c046080830184610b46565b9695505050505050565b60006020820190508181036000830152610c2781610b23565b9050919050565b6000602082019050610c436000830184610b46565b92915050565b6000606082019050610c5e6000830186610b46565b610c6b6020830185610b46565b610c786040830184610acc565b949350505050565b6000610c8a610c9b565b9050610c968282610e33565b919050565b6000604051905090565b600067ffffffffffffffff821115610cc057610cbf610ef1565b5b610cc982610f34565b9050602081019050919050565b600081519050919050565b600082825260208201905092915050565b6000610cfd82610da3565b9150610d0883610da3565b9250817fffffffffffffffffffffffffffffffffffffffffffffffffffffffffffffffff0483118215151615610d4157610d40610e64565b5b828202905092915050565b6000610d5782610d83565b9050919050565b6000610d6982610d83565b9050919050565b6000819050610d7e82610f6e565b919050565b600073ffffffffffffffffffffffffffffffffffffffff82169050919050565b6000819050919050565b6000610db882610d70565b9050919050565b82818337600083830152505050565b60005b83811015610dec578082015181840152602081019050610dd1565b83811115610dfb576000848401525b50505050565b60006002820490506001821680610e1957607f821691505b60208210811415610e2d57610e2c610ec2565b5b50919050565b610e3c82610f34565b810181811067ffffffffffffffff82111715610e5b57610e5a610ef1565b5b80604052505050565b7f4e487b7100000000000000000000000000000000000000000000000000000000600052601160045260246000fd5b7f4e487b7100000000000000000000000000000000000000000000000000000000600052602160045260246000fd5b7f4e487b7100000000000000000000000000000000000000000000000000000000600052602260045260246000fd5b7f4e487b7100000000000000000000000000000000000000000000000000000000600052604160045260246000fd5b600080fd5b600080fd5b600080fd5b600080fd5b6000601f19601f8301169050919050565b7f706c656173652073656c6563742074686520636c617373206669727374000000600082015250565b60038110610f7f57610f7e610e93565b5b50565b610f8b81610d4c565b8114610f9657600080fd5b50565b610fa281610da3565b8114610fad57600080fd5b5056fea2646970667358221220949dc1d9f985695d9f46a4218d865ea69f0efffb02f07af1b611f79a7c91b36b64736f6c63430008070033",
					"opcodes": "PUSH1 0x80 PUSH1 0x40 MSTORE PUSH1 0x0 PUSH1 0x1 PUSH1 0x14 PUSH2 0x100 EXP DUP2 SLOAD DUP2 PUSH1 0xFF MUL NOT AND SWAP1 DUP4 ISZERO ISZERO MUL OR SWAP1 SSTORE POP PUSH1 0x40 MLOAD DUP1 PUSH1 0x40 ADD PUSH1 0x40 MSTORE DUP1 PUSH1 0xD DUP2 MSTORE PUSH1 0x20 ADD PUSH32 0x45636F6E6F6D7920436C61737300000000000000000000000000000000000000 DUP2 MSTORE POP PUSH1 0x3 SWAP1 DUP1 MLOAD SWAP1 PUSH1 0x20 ADD SWAP1 PUSH3 0x6C SWAP3 SWAP2 SWAP1 PUSH3 0x149 JUMP JUMPDEST POP PUSH1 0x1 PUSH1 0x5 SSTORE PUSH1 0x1 PUSH1 0x7 PUSH1 0x0 PUSH2 0x100 EXP DUP2 SLOAD DUP2 PUSH1 0xFF MUL NOT AND SWAP1 DUP4 PUSH1 0x2 DUP2 GT ISZERO PUSH3 0x9B JUMPI PUSH3 0x9A PUSH3 0x22F JUMP JUMPDEST JUMPDEST MUL OR SWAP1 SSTORE POP CALLVALUE DUP1 ISZERO PUSH3 0xAD JUMPI PUSH1 0x0 DUP1 REVERT JUMPDEST POP PUSH20 0xDD870FA1B7C4700F2BD7F44238821C26F7392148 PUSH1 0x0 DUP1 PUSH2 0x100 EXP DUP2 SLOAD DUP2 PUSH20 0xFFFFFFFFFFFFFFFFFFFFFFFFFFFFFFFFFFFFFFFF MUL NOT AND SWAP1 DUP4 PUSH20 0xFFFFFFFFFFFFFFFFFFFFFFFFFFFFFFFFFFFFFFFF AND MUL OR SWAP1 SSTORE POP CALLER PUSH1 0x1 PUSH1 0x0 PUSH2 0x100 EXP DUP2 SLOAD DUP2 PUSH20 0xFFFFFFFFFFFFFFFFFFFFFFFFFFFFFFFFFFFFFFFF MUL NOT AND SWAP1 DUP4 PUSH20 0xFFFFFFFFFFFFFFFFFFFFFFFFFFFFFFFFFFFFFFFF AND MUL OR SWAP1 SSTORE POP PUSH3 0x28D JUMP JUMPDEST DUP3 DUP1 SLOAD PUSH3 0x157 SWAP1 PUSH3 0x1F9 JUMP JUMPDEST SWAP1 PUSH1 0x0 MSTORE PUSH1 0x20 PUSH1 0x0 KECCAK256 SWAP1 PUSH1 0x1F ADD PUSH1 0x20 SWAP1 DIV DUP2 ADD SWAP3 DUP3 PUSH3 0x17B JUMPI PUSH1 0x0 DUP6 SSTORE PUSH3 0x1C7 JUMP JUMPDEST DUP3 PUSH1 0x1F LT PUSH3 0x196 JUMPI DUP1 MLOAD PUSH1 0xFF NOT AND DUP4 DUP1 ADD OR DUP6 SSTORE PUSH3 0x1C7 JUMP JUMPDEST DUP3 DUP1 ADD PUSH1 0x1 ADD DUP6 SSTORE DUP3 ISZERO PUSH3 0x1C7 JUMPI SWAP2 DUP3 ADD JUMPDEST DUP3 DUP2 GT ISZERO PUSH3 0x1C6 JUMPI DUP3 MLOAD DUP3 SSTORE SWAP2 PUSH1 0x20 ADD SWAP2 SWAP1 PUSH1 0x1 ADD SWAP1 PUSH3 0x1A9 JUMP JUMPDEST JUMPDEST POP SWAP1 POP PUSH3 0x1D6 SWAP2 SWAP1 PUSH3 0x1DA JUMP JUMPDEST POP SWAP1 JUMP JUMPDEST JUMPDEST DUP1 DUP3 GT ISZERO PUSH3 0x1F5 JUMPI PUSH1 0x0 DUP2 PUSH1 0x0 SWAP1 SSTORE POP PUSH1 0x1 ADD PUSH3 0x1DB JUMP JUMPDEST POP SWAP1 JUMP JUMPDEST PUSH1 0x0 PUSH1 0x2 DUP3 DIV SWAP1 POP PUSH1 0x1 DUP3 AND DUP1 PUSH3 0x212 JUMPI PUSH1 0x7F DUP3 AND SWAP2 POP JUMPDEST PUSH1 0x20 DUP3 LT DUP2 EQ ISZERO PUSH3 0x229 JUMPI PUSH3 0x228 PUSH3 0x25E JUMP JUMPDEST JUMPDEST POP SWAP2 SWAP1 POP JUMP JUMPDEST PUSH32 0x4E487B7100000000000000000000000000000000000000000000000000000000 PUSH1 0x0 MSTORE PUSH1 0x21 PUSH1 0x4 MSTORE PUSH1 0x24 PUSH1 0x0 REVERT JUMPDEST PUSH32 0x4E487B7100000000000000000000000000000000000000000000000000000000 PUSH1 0x0 MSTORE PUSH1 0x22 PUSH1 0x4 MSTORE PUSH1 0x24 PUSH1 0x0 REVERT JUMPDEST PUSH2 0xFE6 DUP1 PUSH3 0x29D PUSH1 0x0 CODECOPY PUSH1 0x0 RETURN INVALID PUSH1 0x80 PUSH1 0x40 MSTORE CALLVALUE DUP1 ISZERO PUSH2 0x10 JUMPI PUSH1 0x0 DUP1 REVERT JUMPDEST POP PUSH1 0x4 CALLDATASIZE LT PUSH2 0xA9 JUMPI PUSH1 0x0 CALLDATALOAD PUSH1 0xE0 SHR DUP1 PUSH4 0x50183507 GT PUSH2 0x71 JUMPI DUP1 PUSH4 0x50183507 EQ PUSH2 0x12E JUMPI DUP1 PUSH4 0x7A1736D1 EQ PUSH2 0x138 JUMPI DUP1 PUSH4 0x8DA5CB5B EQ PUSH2 0x142 JUMPI DUP1 PUSH4 0x993A04B7 EQ PUSH2 0x160 JUMPI DUP1 PUSH4 0xB24FA0E4 EQ PUSH2 0x180 JUMPI DUP1 PUSH4 0xB90D3D0C EQ PUSH2 0x18A JUMPI PUSH2 0xA9 JUMP JUMPDEST DUP1 PUSH4 0x17AE4589 EQ PUSH2 0xAE JUMPI DUP1 PUSH4 0x1AA35610 EQ PUSH2 0xCA JUMPI DUP1 PUSH4 0x42F6487A EQ PUSH2 0xE8 JUMPI DUP1 PUSH4 0x4F8632BA EQ PUSH2 0xF2 JUMPI DUP1 PUSH4 0x4FB2E0BE EQ PUSH2 0x110 JUMPI JUMPDEST PUSH1 0x0 DUP1 REVERT JUMPDEST PUSH2 0xC8 PUSH1 0x4 DUP1 CALLDATASIZE SUB DUP2 ADD SWAP1 PUSH2 0xC3 SWAP2 SWAP1 PUSH2 0xA32 JUMP JUMPDEST PUSH2 0x1BE JUMP JUMPDEST STOP JUMPDEST PUSH2 0xD2 PUSH2 0x372 JUMP JUMPDEST PUSH1 0x40 MLOAD PUSH2 0xDF SWAP2 SWAP1 PUSH2 0xB8B JUMP JUMPDEST PUSH1 0x40 MLOAD DUP1 SWAP2 SUB SWAP1 RETURN JUMPDEST PUSH2 0xF0 PUSH2 0x385 JUMP JUMPDEST STOP JUMPDEST PUSH2 0xFA PUSH2 0x3F2 JUMP JUMPDEST PUSH1 0x40 MLOAD PUSH2 0x107 SWAP2 SWAP1 PUSH2 0xB70 JUMP JUMPDEST PUSH1 0x40 MLOAD DUP1 SWAP2 SUB SWAP1 RETURN JUMPDEST PUSH2 0x118 PUSH2 0x418 JUMP JUMPDEST PUSH1 0x40 MLOAD PUSH2 0x125 SWAP2 SWAP1 PUSH2 0xC2E JUMP JUMPDEST PUSH1 0x40 MLOAD DUP1 SWAP2 SUB SWAP1 RETURN JUMPDEST PUSH2 0x136 PUSH2 0x41E JUMP JUMPDEST STOP JUMPDEST PUSH2 0x140 PUSH2 0x500 JUMP JUMPDEST STOP JUMPDEST PUSH2 0x14A PUSH2 0x5E2 JUMP JUMPDEST PUSH1 0x40 MLOAD PUSH2 0x157 SWAP2 SWAP1 PUSH2 0xB55 JUMP JUMPDEST PUSH1 0x40 MLOAD DUP1 SWAP2 SUB SWAP1 RETURN JUMPDEST PUSH2 0x168 PUSH2 0x606 JUMP JUMPDEST PUSH1 0x40 MLOAD PUSH2 0x177 SWAP4 SWAP3 SWAP2 SWAP1 PUSH2 0xC49 JUMP JUMPDEST PUSH1 0x40 MLOAD DUP1 SWAP2 SUB SWAP1 RETURN JUMPDEST PUSH2 0x188 PUSH2 0x619 JUMP JUMPDEST STOP JUMPDEST PUSH2 0x1A4 PUSH1 0x4 DUP1 CALLDATASIZE SUB DUP2 ADD SWAP1 PUSH2 0x19F SWAP2 SWAP1 PUSH2 0xA05 JUMP JUMPDEST PUSH2 0x6FA JUMP JUMPDEST PUSH1 0x40 MLOAD PUSH2 0x1B5 SWAP6 SWAP5 SWAP4 SWAP3 SWAP2 SWAP1 PUSH2 0xBA6 JUMP JUMPDEST PUSH1 0x40 MLOAD DUP1 SWAP2 SUB SWAP1 RETURN JUMPDEST PUSH1 0x1 PUSH1 0x14 SWAP1 SLOAD SWAP1 PUSH2 0x100 EXP SWAP1 DIV PUSH1 0xFF AND PUSH2 0x20D JUMPI PUSH1 0x40 MLOAD PUSH32 0x8C379A000000000000000000000000000000000000000000000000000000000 DUP2 MSTORE PUSH1 0x4 ADD PUSH2 0x204 SWAP1 PUSH2 0xC0E JUMP JUMPDEST PUSH1 0x40 MLOAD DUP1 SWAP2 SUB SWAP1 REVERT JUMPDEST PUSH1 0x40 MLOAD DUP1 PUSH1 0xA0 ADD PUSH1 0x40 MSTORE DUP1 DUP5 DUP2 MSTORE PUSH1 0x20 ADD DUP4 DUP2 MSTORE PUSH1 0x20 ADD DUP3 DUP2 MSTORE PUSH1 0x20 ADD PUSH1 0x3 DUP1 SLOAD PUSH2 0x237 SWAP1 PUSH2 0xE01 JUMP JUMPDEST DUP1 PUSH1 0x1F ADD PUSH1 0x20 DUP1 SWAP2 DIV MUL PUSH1 0x20 ADD PUSH1 0x40 MLOAD SWAP1 DUP2 ADD PUSH1 0x40 MSTORE DUP1 SWAP3 SWAP2 SWAP1 DUP2 DUP2 MSTORE PUSH1 0x20 ADD DUP3 DUP1 SLOAD PUSH2 0x263 SWAP1 PUSH2 0xE01 JUMP JUMPDEST DUP1 ISZERO PUSH2 0x2B0 JUMPI DUP1 PUSH1 0x1F LT PUSH2 0x285 JUMPI PUSH2 0x100 DUP1 DUP4 SLOAD DIV MUL DUP4 MSTORE SWAP2 PUSH1 0x20 ADD SWAP2 PUSH2 0x2B0 JUMP JUMPDEST DUP3 ADD SWAP2 SWAP1 PUSH1 0x0 MSTORE PUSH1 0x20 PUSH1 0x0 KECCAK256 SWAP1 JUMPDEST DUP2 SLOAD DUP2 MSTORE SWAP1 PUSH1 0x1 ADD SWAP1 PUSH1 0x20 ADD DUP1 DUP4 GT PUSH2 0x293 JUMPI DUP3 SWAP1 SUB PUSH1 0x1F AND DUP3 ADD SWAP2 JUMPDEST POP POP POP POP POP DUP2 MSTORE PUSH1 0x20 ADD PUSH1 0x4 SLOAD DUP2 MSTORE POP PUSH1 0x6 PUSH1 0x0 CALLER PUSH20 0xFFFFFFFFFFFFFFFFFFFFFFFFFFFFFFFFFFFFFFFF AND PUSH20 0xFFFFFFFFFFFFFFFFFFFFFFFFFFFFFFFFFFFFFFFF AND DUP2 MSTORE PUSH1 0x20 ADD SWAP1 DUP2 MSTORE PUSH1 0x20 ADD PUSH1 0x0 KECCAK256 PUSH1 0x0 DUP3 ADD MLOAD DUP2 PUSH1 0x0 ADD SWAP1 DUP1 MLOAD SWAP1 PUSH1 0x20 ADD SWAP1 PUSH2 0x31B SWAP3 SWAP2 SWAP1 PUSH2 0x8C8 JUMP JUMPDEST POP PUSH1 0x20 DUP3 ADD MLOAD DUP2 PUSH1 0x1 ADD SWAP1 DUP1 MLOAD SWAP1 PUSH1 0x20 ADD SWAP1 PUSH2 0x338 SWAP3 SWAP2 SWAP1 PUSH2 0x8C8 JUMP JUMPDEST POP PUSH1 0x40 DUP3 ADD MLOAD DUP2 PUSH1 0x2 ADD SSTORE PUSH1 0x60 DUP3 ADD MLOAD DUP2 PUSH1 0x3 ADD SWAP1 DUP1 MLOAD SWAP1 PUSH1 0x20 ADD SWAP1 PUSH2 0x35F SWAP3 SWAP2 SWAP1 PUSH2 0x8C8 JUMP JUMPDEST POP PUSH1 0x80 DUP3 ADD MLOAD DUP2 PUSH1 0x4 ADD SSTORE SWAP1 POP POP POP POP POP JUMP JUMPDEST PUSH1 0x7 PUSH1 0x0 SWAP1 SLOAD SWAP1 PUSH2 0x100 EXP SWAP1 DIV PUSH1 0xFF AND DUP2 JUMP JUMPDEST PUSH1 0x1 PUSH1 0x0 SWAP1 SLOAD SWAP1 PUSH2 0x100 EXP SWAP1 DIV PUSH20 0xFFFFFFFFFFFFFFFFFFFFFFFFFFFFFFFFFFFFFFFF AND PUSH20 0xFFFFFFFFFFFFFFFFFFFFFFFFFFFFFFFFFFFFFFFF AND PUSH2 0x8FC PUSH1 0x4 SLOAD SWAP1 DUP2 ISZERO MUL SWAP1 PUSH1 0x40 MLOAD PUSH1 0x0 PUSH1 0x40 MLOAD DUP1 DUP4 SUB DUP2 DUP6 DUP9 DUP9 CALL SWAP4 POP POP POP POP ISZERO DUP1 ISZERO PUSH2 0x3EF JUMPI RETURNDATASIZE PUSH1 0x0 DUP1 RETURNDATACOPY RETURNDATASIZE PUSH1 0x0 REVERT JUMPDEST POP JUMP JUMPDEST PUSH1 0x1 PUSH1 0x0 SWAP1 SLOAD SWAP1 PUSH2 0x100 EXP SWAP1 DIV PUSH20 0xFFFFFFFFFFFFFFFFFFFFFFFFFFFFFFFFFFFFFFFF AND DUP2 JUMP JUMPDEST PUSH1 0x5 SLOAD DUP2 JUMP JUMPDEST PUSH1 0x0 PUSH1 0x7 PUSH1 0x0 PUSH2 0x100 EXP DUP2 SLOAD DUP2 PUSH1 0xFF MUL NOT AND SWAP1 DUP4 PUSH1 0x2 DUP2 GT ISZERO PUSH2 0x444 JUMPI PUSH2 0x443 PUSH2 0xE93 JUMP JUMPDEST JUMPDEST MUL OR SWAP1 SSTORE POP PUSH1 0x7 PUSH1 0x0 SWAP1 SLOAD SWAP1 PUSH2 0x100 EXP SWAP1 DIV PUSH1 0xFF AND PUSH1 0x2 DUP2 GT ISZERO PUSH2 0x46B JUMPI PUSH2 0x46A PUSH2 0xE93 JUMP JUMPDEST JUMPDEST PUSH1 0x2 DUP2 SWAP1 SSTORE POP PUSH1 0x0 PUSH1 0x2 SLOAD EQ ISZERO PUSH2 0x4E4 JUMPI PUSH1 0x40 MLOAD DUP1 PUSH1 0x40 ADD PUSH1 0x40 MSTORE DUP1 PUSH1 0xB DUP2 MSTORE PUSH1 0x20 ADD PUSH32 0x466972737420436C617373000000000000000000000000000000000000000000 DUP2 MSTORE POP PUSH1 0x3 SWAP1 DUP1 MLOAD SWAP1 PUSH1 0x20 ADD SWAP1 PUSH2 0x4C7 SWAP3 SWAP2 SWAP1 PUSH2 0x8C8 JUMP JUMPDEST POP PUSH7 0x2386F26FC10000 PUSH1 0x5 SLOAD PUSH2 0x4DD SWAP2 SWAP1 PUSH2 0xCF2 JUMP JUMPDEST PUSH1 0x4 DUP2 SWAP1 SSTORE POP JUMPDEST PUSH1 0x1 DUP1 PUSH1 0x14 PUSH2 0x100 EXP DUP2 SLOAD DUP2 PUSH1 0xFF MUL NOT AND SWAP1 DUP4 ISZERO ISZERO MUL OR SWAP1 SSTORE POP JUMP JUMPDEST PUSH1 0x1 PUSH1 0x7 PUSH1 0x0 PUSH2 0x100 EXP DUP2 SLOAD DUP2 PUSH1 0xFF MUL NOT AND SWAP1 DUP4 PUSH1 0x2 DUP2 GT ISZERO PUSH2 0x526 JUMPI PUSH2 0x525 PUSH2 0xE93 JUMP JUMPDEST JUMPDEST MUL OR SWAP1 SSTORE POP PUSH1 0x7 PUSH1 0x0 SWAP1 SLOAD SWAP1 PUSH2 0x100 EXP SWAP1 DIV PUSH1 0xFF AND PUSH1 0x2 DUP2 GT ISZERO PUSH2 0x54D JUMPI PUSH2 0x54C PUSH2 0xE93 JUMP JUMPDEST JUMPDEST PUSH1 0x2 DUP2 SWAP1 SSTORE POP PUSH1 0x1 PUSH1 0x2 SLOAD EQ ISZERO PUSH2 0x5C6 JUMPI PUSH1 0x40 MLOAD DUP1 PUSH1 0x40 ADD PUSH1 0x40 MSTORE DUP1 PUSH1 0xD DUP2 MSTORE PUSH1 0x20 ADD PUSH32 0x45636F6E6F6D7920436C61737300000000000000000000000000000000000000 DUP2 MSTORE POP PUSH1 0x3 SWAP1 DUP1 MLOAD SWAP1 PUSH1 0x20 ADD SWAP1 PUSH2 0x5A9 SWAP3 SWAP2 SWAP1 PUSH2 0x8C8 JUMP JUMPDEST POP PUSH7 0x11C37937E08000 PUSH1 0x5 SLOAD PUSH2 0x5BF SWAP2 SWAP1 PUSH2 0xCF2 JUMP JUMPDEST PUSH1 0x4 DUP2 SWAP1 SSTORE POP JUMPDEST PUSH1 0x1 DUP1 PUSH1 0x14 PUSH2 0x100 EXP DUP2 SLOAD DUP2 PUSH1 0xFF MUL NOT AND SWAP1 DUP4 ISZERO ISZERO MUL OR SWAP1 SSTORE POP JUMP JUMPDEST PUSH1 0x0 DUP1 SLOAD SWAP1 PUSH2 0x100 EXP SWAP1 DIV PUSH20 0xFFFFFFFFFFFFFFFFFFFFFFFFFFFFFFFFFFFFFFFF AND DUP2 JUMP JUMPDEST PUSH1 0x0 DUP1 PUSH1 0x0 NUMBER TIMESTAMP CALLER SWAP3 POP SWAP3 POP SWAP3 POP SWAP1 SWAP2 SWAP3 JUMP JUMPDEST PUSH1 0x2 PUSH1 0x7 PUSH1 0x0 PUSH2 0x100 EXP DUP2 SLOAD DUP2 PUSH1 0xFF MUL NOT AND SWAP1 DUP4 PUSH1 0x2 DUP2 GT ISZERO PUSH2 0x63F JUMPI PUSH2 0x63E PUSH2 0xE93 JUMP JUMPDEST JUMPDEST MUL OR SWAP1 SSTORE POP PUSH1 0x7 PUSH1 0x0 SWAP1 SLOAD SWAP1 PUSH2 0x100 EXP SWAP1 DIV PUSH1 0xFF AND PUSH1 0x2 DUP2 GT ISZERO PUSH2 0x666 JUMPI PUSH2 0x665 PUSH2 0xE93 JUMP JUMPDEST JUMPDEST PUSH1 0x2 DUP2 SWAP1 SSTORE POP PUSH1 0x2 DUP1 SLOAD EQ ISZERO PUSH2 0x6DE JUMPI PUSH1 0x40 MLOAD DUP1 PUSH1 0x40 ADD PUSH1 0x40 MSTORE DUP1 PUSH1 0xD DUP2 MSTORE PUSH1 0x20 ADD PUSH32 0x4275736E69737320436C61737300000000000000000000000000000000000000 DUP2 MSTORE POP PUSH1 0x3 SWAP1 DUP1 MLOAD SWAP1 PUSH1 0x20 ADD SWAP1 PUSH2 0x6C1 SWAP3 SWAP2 SWAP1 PUSH2 0x8C8 JUMP JUMPDEST POP PUSH7 0x18DE76816D8000 PUSH1 0x5 SLOAD PUSH2 0x6D7 SWAP2 SWAP1 PUSH2 0xCF2 JUMP JUMPDEST PUSH1 0x4 DUP2 SWAP1 SSTORE POP JUMPDEST PUSH1 0x1 DUP1 PUSH1 0x14 PUSH2 0x100 EXP DUP2 SLOAD DUP2 PUSH1 0xFF MUL NOT AND SWAP1 DUP4 ISZERO ISZERO MUL OR SWAP1 SSTORE POP JUMP JUMPDEST PUSH1 0x6 PUSH1 0x20 MSTORE DUP1 PUSH1 0x0 MSTORE PUSH1 0x40 PUSH1 0x0 KECCAK256 PUSH1 0x0 SWAP2 POP SWAP1 POP DUP1 PUSH1 0x0 ADD DUP1 SLOAD PUSH2 0x71D SWAP1 PUSH2 0xE01 JUMP JUMPDEST DUP1 PUSH1 0x1F ADD PUSH1 0x20 DUP1 SWAP2 DIV MUL PUSH1 0x20 ADD PUSH1 0x40 MLOAD SWAP1 DUP2 ADD PUSH1 0x40 MSTORE DUP1 SWAP3 SWAP2 SWAP1 DUP2 DUP2 MSTORE PUSH1 0x20 ADD DUP3 DUP1 SLOAD PUSH2 0x749 SWAP1 PUSH2 0xE01 JUMP JUMPDEST DUP1 ISZERO PUSH2 0x796 JUMPI DUP1 PUSH1 0x1F LT PUSH2 0x76B JUMPI PUSH2 0x100 DUP1 DUP4 SLOAD DIV MUL DUP4 MSTORE SWAP2 PUSH1 0x20 ADD SWAP2 PUSH2 0x796 JUMP JUMPDEST DUP3 ADD SWAP2 SWAP1 PUSH1 0x0 MSTORE PUSH1 0x20 PUSH1 0x0 KECCAK256 SWAP1 JUMPDEST DUP2 SLOAD DUP2 MSTORE SWAP1 PUSH1 0x1 ADD SWAP1 PUSH1 0x20 ADD DUP1 DUP4 GT PUSH2 0x779 JUMPI DUP3 SWAP1 SUB PUSH1 0x1F AND DUP3 ADD SWAP2 JUMPDEST POP POP POP POP POP SWAP1 DUP1 PUSH1 0x1 ADD DUP1 SLOAD PUSH2 0x7AB SWAP1 PUSH2 0xE01 JUMP JUMPDEST DUP1 PUSH1 0x1F ADD PUSH1 0x20 DUP1 SWAP2 DIV MUL PUSH1 0x20 ADD PUSH1 0x40 MLOAD SWAP1 DUP2 ADD PUSH1 0x40 MSTORE DUP1 SWAP3 SWAP2 SWAP1 DUP2 DUP2 MSTORE PUSH1 0x20 ADD DUP3 DUP1 SLOAD PUSH2 0x7D7 SWAP1 PUSH2 0xE01 JUMP JUMPDEST DUP1 ISZERO PUSH2 0x824 JUMPI DUP1 PUSH1 0x1F LT PUSH2 0x7F9 JUMPI PUSH2 0x100 DUP1 DUP4 SLOAD DIV MUL DUP4 MSTORE SWAP2 PUSH1 0x20 ADD SWAP2 PUSH2 0x824 JUMP JUMPDEST DUP3 ADD SWAP2 SWAP1 PUSH1 0x0 MSTORE PUSH1 0x20 PUSH1 0x0 KECCAK256 SWAP1 JUMPDEST DUP2 SLOAD DUP2 MSTORE SWAP1 PUSH1 0x1 ADD SWAP1 PUSH1 0x20 ADD DUP1 DUP4 GT PUSH2 0x807 JUMPI DUP3 SWAP1 SUB PUSH1 0x1F AND DUP3 ADD SWAP2 JUMPDEST POP POP POP POP POP SWAP1 DUP1 PUSH1 0x2 ADD SLOAD SWAP1 DUP1 PUSH1 0x3 ADD DUP1 SLOAD PUSH2 0x83F SWAP1 PUSH2 0xE01 JUMP JUMPDEST DUP1 PUSH1 0x1F ADD PUSH1 0x20 DUP1 SWAP2 DIV MUL PUSH1 0x20 ADD PUSH1 0x40 MLOAD SWAP1 DUP2 ADD PUSH1 0x40 MSTORE DUP1 SWAP3 SWAP2 SWAP1 DUP2 DUP2 MSTORE PUSH1 0x20 ADD DUP3 DUP1 SLOAD PUSH2 0x86B SWAP1 PUSH2 0xE01 JUMP JUMPDEST DUP1 ISZERO PUSH2 0x8B8 JUMPI DUP1 PUSH1 0x1F LT PUSH2 0x88D JUMPI PUSH2 0x100 DUP1 DUP4 SLOAD DIV MUL DUP4 MSTORE SWAP2 PUSH1 0x20 ADD SWAP2 PUSH2 0x8B8 JUMP JUMPDEST DUP3 ADD SWAP2 SWAP1 PUSH1 0x0 MSTORE PUSH1 0x20 PUSH1 0x0 KECCAK256 SWAP1 JUMPDEST DUP2 SLOAD DUP2 MSTORE SWAP1 PUSH1 0x1 ADD SWAP1 PUSH1 0x20 ADD DUP1 DUP4 GT PUSH2 0x89B JUMPI DUP3 SWAP1 SUB PUSH1 0x1F AND DUP3 ADD SWAP2 JUMPDEST POP POP POP POP POP SWAP1 DUP1 PUSH1 0x4 ADD SLOAD SWAP1 POP DUP6 JUMP JUMPDEST DUP3 DUP1 SLOAD PUSH2 0x8D4 SWAP1 PUSH2 0xE01 JUMP JUMPDEST SWAP1 PUSH1 0x0 MSTORE PUSH1 0x20 PUSH1 0x0 KECCAK256 SWAP1 PUSH1 0x1F ADD PUSH1 0x20 SWAP1 DIV DUP2 ADD SWAP3 DUP3 PUSH2 0x8F6 JUMPI PUSH1 0x0 DUP6 SSTORE PUSH2 0x93D JUMP JUMPDEST DUP3 PUSH1 0x1F LT PUSH2 0x90F JUMPI DUP1 MLOAD PUSH1 0xFF NOT AND DUP4 DUP1 ADD OR DUP6 SSTORE PUSH2 0x93D JUMP JUMPDEST DUP3 DUP1 ADD PUSH1 0x1 ADD DUP6 SSTORE DUP3 ISZERO PUSH2 0x93D JUMPI SWAP2 DUP3 ADD JUMPDEST DUP3 DUP2 GT ISZERO PUSH2 0x93C JUMPI DUP3 MLOAD DUP3 SSTORE SWAP2 PUSH1 0x20 ADD SWAP2 SWAP1 PUSH1 0x1 ADD SWAP1 PUSH2 0x921 JUMP JUMPDEST JUMPDEST POP SWAP1 POP PUSH2 0x94A SWAP2 SWAP1 PUSH2 0x94E JUMP JUMPDEST POP SWAP1 JUMP JUMPDEST JUMPDEST DUP1 DUP3 GT ISZERO PUSH2 0x967 JUMPI PUSH1 0x0 DUP2 PUSH1 0x0 SWAP1 SSTORE POP PUSH1 0x1 ADD PUSH2 0x94F JUMP JUMPDEST POP SWAP1 JUMP JUMPDEST PUSH1 0x0 PUSH2 0x97E PUSH2 0x979 DUP5 PUSH2 0xCA5 JUMP JUMPDEST PUSH2 0xC80 JUMP JUMPDEST SWAP1 POP DUP3 DUP2 MSTORE PUSH1 0x20 DUP2 ADD DUP5 DUP5 DUP5 ADD GT ISZERO PUSH2 0x99A JUMPI PUSH2 0x999 PUSH2 0xF25 JUMP JUMPDEST JUMPDEST PUSH2 0x9A5 DUP5 DUP3 DUP6 PUSH2 0xDBF JUMP JUMPDEST POP SWAP4 SWAP3 POP POP POP JUMP JUMPDEST PUSH1 0x0 DUP2 CALLDATALOAD SWAP1 POP PUSH2 0x9BC DUP2 PUSH2 0xF82 JUMP JUMPDEST SWAP3 SWAP2 POP POP JUMP JUMPDEST PUSH1 0x0 DUP3 PUSH1 0x1F DUP4 ADD SLT PUSH2 0x9D7 JUMPI PUSH2 0x9D6 PUSH2 0xF20 JUMP JUMPDEST JUMPDEST DUP2 CALLDATALOAD PUSH2 0x9E7 DUP5 DUP3 PUSH1 0x20 DUP7 ADD PUSH2 0x96B JUMP JUMPDEST SWAP2 POP POP SWAP3 SWAP2 POP POP JUMP JUMPDEST PUSH1 0x0 DUP2 CALLDATALOAD SWAP1 POP PUSH2 0x9FF DUP2 PUSH2 0xF99 JUMP JUMPDEST SWAP3 SWAP2 POP POP JUMP JUMPDEST PUSH1 0x0 PUSH1 0x20 DUP3 DUP5 SUB SLT ISZERO PUSH2 0xA1B JUMPI PUSH2 0xA1A PUSH2 0xF2F JUMP JUMPDEST JUMPDEST PUSH1 0x0 PUSH2 0xA29 DUP5 DUP3 DUP6 ADD PUSH2 0x9AD JUMP JUMPDEST SWAP2 POP POP SWAP3 SWAP2 POP POP JUMP JUMPDEST PUSH1 0x0 DUP1 PUSH1 0x0 PUSH1 0x60 DUP5 DUP7 SUB SLT ISZERO PUSH2 0xA4B JUMPI PUSH2 0xA4A PUSH2 0xF2F JUMP JUMPDEST JUMPDEST PUSH1 0x0 DUP5 ADD CALLDATALOAD PUSH8 0xFFFFFFFFFFFFFFFF DUP2 GT ISZERO PUSH2 0xA69 JUMPI PUSH2 0xA68 PUSH2 0xF2A JUMP JUMPDEST JUMPDEST PUSH2 0xA75 DUP7 DUP3 DUP8 ADD PUSH2 0x9C2 JUMP JUMPDEST SWAP4 POP POP PUSH1 0x20 DUP5 ADD CALLDATALOAD PUSH8 0xFFFFFFFFFFFFFFFF DUP2 GT ISZERO PUSH2 0xA96 JUMPI PUSH2 0xA95 PUSH2 0xF2A JUMP JUMPDEST JUMPDEST PUSH2 0xAA2 DUP7 DUP3 DUP8 ADD PUSH2 0x9C2 JUMP JUMPDEST SWAP3 POP POP PUSH1 0x40 PUSH2 0xAB3 DUP7 DUP3 DUP8 ADD PUSH2 0x9F0 JUMP JUMPDEST SWAP2 POP POP SWAP3 POP SWAP3 POP SWAP3 JUMP JUMPDEST PUSH2 0xAC6 DUP2 PUSH2 0xD5E JUMP JUMPDEST DUP3 MSTORE POP POP JUMP JUMPDEST PUSH2 0xAD5 DUP2 PUSH2 0xD4C JUMP JUMPDEST DUP3 MSTORE POP POP JUMP JUMPDEST PUSH2 0xAE4 DUP2 PUSH2 0xDAD JUMP JUMPDEST DUP3 MSTORE POP POP JUMP JUMPDEST PUSH1 0x0 PUSH2 0xAF5 DUP3 PUSH2 0xCD6 JUMP JUMPDEST PUSH2 0xAFF DUP2 DUP6 PUSH2 0xCE1 JUMP JUMPDEST SWAP4 POP PUSH2 0xB0F DUP2 DUP6 PUSH1 0x20 DUP7 ADD PUSH2 0xDCE JUMP JUMPDEST PUSH2 0xB18 DUP2 PUSH2 0xF34 JUMP JUMPDEST DUP5 ADD SWAP2 POP POP SWAP3 SWAP2 POP POP JUMP JUMPDEST PUSH1 0x0 PUSH2 0xB30 PUSH1 0x1D DUP4 PUSH2 0xCE1 JUMP JUMPDEST SWAP2 POP PUSH2 0xB3B DUP3 PUSH2 0xF45 JUMP JUMPDEST PUSH1 0x20 DUP3 ADD SWAP1 POP SWAP2 SWAP1 POP JUMP JUMPDEST PUSH2 0xB4F DUP2 PUSH2 0xDA3 JUMP JUMPDEST DUP3 MSTORE POP POP JUMP JUMPDEST PUSH1 0x0 PUSH1 0x20 DUP3 ADD SWAP1 POP PUSH2 0xB6A PUSH1 0x0 DUP4 ADD DUP5 PUSH2 0xACC JUMP JUMPDEST SWAP3 SWAP2 POP POP JUMP JUMPDEST PUSH1 0x0 PUSH1 0x20 DUP3 ADD SWAP1 POP PUSH2 0xB85 PUSH1 0x0 DUP4 ADD DUP5 PUSH2 0xABD JUMP JUMPDEST SWAP3 SWAP2 POP POP JUMP JUMPDEST PUSH1 0x0 PUSH1 0x20 DUP3 ADD SWAP1 POP PUSH2 0xBA0 PUSH1 0x0 DUP4 ADD DUP5 PUSH2 0xADB JUMP JUMPDEST SWAP3 SWAP2 POP POP JUMP JUMPDEST PUSH1 0x0 PUSH1 0xA0 DUP3 ADD SWAP1 POP DUP2 DUP2 SUB PUSH1 0x0 DUP4 ADD MSTORE PUSH2 0xBC0 DUP2 DUP9 PUSH2 0xAEA JUMP JUMPDEST SWAP1 POP DUP2 DUP2 SUB PUSH1 0x20 DUP4 ADD MSTORE PUSH2 0xBD4 DUP2 DUP8 PUSH2 0xAEA JUMP JUMPDEST SWAP1 POP PUSH2 0xBE3 PUSH1 0x40 DUP4 ADD DUP7 PUSH2 0xB46 JUMP JUMPDEST DUP2 DUP2 SUB PUSH1 0x60 DUP4 ADD MSTORE PUSH2 0xBF5 DUP2 DUP6 PUSH2 0xAEA JUMP JUMPDEST SWAP1 POP PUSH2 0xC04 PUSH1 0x80 DUP4 ADD DUP5 PUSH2 0xB46 JUMP JUMPDEST SWAP7 SWAP6 POP POP POP POP POP POP JUMP JUMPDEST PUSH1 0x0 PUSH1 0x20 DUP3 ADD SWAP1 POP DUP2 DUP2 SUB PUSH1 0x0 DUP4 ADD MSTORE PUSH2 0xC27 DUP2 PUSH2 0xB23 JUMP JUMPDEST SWAP1 POP SWAP2 SWAP1 POP JUMP JUMPDEST PUSH1 0x0 PUSH1 0x20 DUP3 ADD SWAP1 POP PUSH2 0xC43 PUSH1 0x0 DUP4 ADD DUP5 PUSH2 0xB46 JUMP JUMPDEST SWAP3 SWAP2 POP POP JUMP JUMPDEST PUSH1 0x0 PUSH1 0x60 DUP3 ADD SWAP1 POP PUSH2 0xC5E PUSH1 0x0 DUP4 ADD DUP7 PUSH2 0xB46 JUMP JUMPDEST PUSH2 0xC6B PUSH1 0x20 DUP4 ADD DUP6 PUSH2 0xB46 JUMP JUMPDEST PUSH2 0xC78 PUSH1 0x40 DUP4 ADD DUP5 PUSH2 0xACC JUMP JUMPDEST SWAP5 SWAP4 POP POP POP POP JUMP JUMPDEST PUSH1 0x0 PUSH2 0xC8A PUSH2 0xC9B JUMP JUMPDEST SWAP1 POP PUSH2 0xC96 DUP3 DUP3 PUSH2 0xE33 JUMP JUMPDEST SWAP2 SWAP1 POP JUMP JUMPDEST PUSH1 0x0 PUSH1 0x40 MLOAD SWAP1 POP SWAP1 JUMP JUMPDEST PUSH1 0x0 PUSH8 0xFFFFFFFFFFFFFFFF DUP3 GT ISZERO PUSH2 0xCC0 JUMPI PUSH2 0xCBF PUSH2 0xEF1 JUMP JUMPDEST JUMPDEST PUSH2 0xCC9 DUP3 PUSH2 0xF34 JUMP JUMPDEST SWAP1 POP PUSH1 0x20 DUP2 ADD SWAP1 POP SWAP2 SWAP1 POP JUMP JUMPDEST PUSH1 0x0 DUP2 MLOAD SWAP1 POP SWAP2 SWAP1 POP JUMP JUMPDEST PUSH1 0x0 DUP3 DUP3 MSTORE PUSH1 0x20 DUP3 ADD SWAP1 POP SWAP3 SWAP2 POP POP JUMP JUMPDEST PUSH1 0x0 PUSH2 0xCFD DUP3 PUSH2 0xDA3 JUMP JUMPDEST SWAP2 POP PUSH2 0xD08 DUP4 PUSH2 0xDA3 JUMP JUMPDEST SWAP3 POP DUP2 PUSH32 0xFFFFFFFFFFFFFFFFFFFFFFFFFFFFFFFFFFFFFFFFFFFFFFFFFFFFFFFFFFFFFFFF DIV DUP4 GT DUP3 ISZERO ISZERO AND ISZERO PUSH2 0xD41 JUMPI PUSH2 0xD40 PUSH2 0xE64 JUMP JUMPDEST JUMPDEST DUP3 DUP3 MUL SWAP1 POP SWAP3 SWAP2 POP POP JUMP JUMPDEST PUSH1 0x0 PUSH2 0xD57 DUP3 PUSH2 0xD83 JUMP JUMPDEST SWAP1 POP SWAP2 SWAP1 POP JUMP JUMPDEST PUSH1 0x0 PUSH2 0xD69 DUP3 PUSH2 0xD83 JUMP JUMPDEST SWAP1 POP SWAP2 SWAP1 POP JUMP JUMPDEST PUSH1 0x0 DUP2 SWAP1 POP PUSH2 0xD7E DUP3 PUSH2 0xF6E JUMP JUMPDEST SWAP2 SWAP1 POP JUMP JUMPDEST PUSH1 0x0 PUSH20 0xFFFFFFFFFFFFFFFFFFFFFFFFFFFFFFFFFFFFFFFF DUP3 AND SWAP1 POP SWAP2 SWAP1 POP JUMP JUMPDEST PUSH1 0x0 DUP2 SWAP1 POP SWAP2 SWAP1 POP JUMP JUMPDEST PUSH1 0x0 PUSH2 0xDB8 DUP3 PUSH2 0xD70 JUMP JUMPDEST SWAP1 POP SWAP2 SWAP1 POP JUMP JUMPDEST DUP3 DUP2 DUP4 CALLDATACOPY PUSH1 0x0 DUP4 DUP4 ADD MSTORE POP POP POP JUMP JUMPDEST PUSH1 0x0 JUMPDEST DUP4 DUP2 LT ISZERO PUSH2 0xDEC JUMPI DUP1 DUP3 ADD MLOAD DUP2 DUP5 ADD MSTORE PUSH1 0x20 DUP2 ADD SWAP1 POP PUSH2 0xDD1 JUMP JUMPDEST DUP4 DUP2 GT ISZERO PUSH2 0xDFB JUMPI PUSH1 0x0 DUP5 DUP5 ADD MSTORE JUMPDEST POP POP POP POP JUMP JUMPDEST PUSH1 0x0 PUSH1 0x2 DUP3 DIV SWAP1 POP PUSH1 0x1 DUP3 AND DUP1 PUSH2 0xE19 JUMPI PUSH1 0x7F DUP3 AND SWAP2 POP JUMPDEST PUSH1 0x20 DUP3 LT DUP2 EQ ISZERO PUSH2 0xE2D JUMPI PUSH2 0xE2C PUSH2 0xEC2 JUMP JUMPDEST JUMPDEST POP SWAP2 SWAP1 POP JUMP JUMPDEST PUSH2 0xE3C DUP3 PUSH2 0xF34 JUMP JUMPDEST DUP2 ADD DUP2 DUP2 LT PUSH8 0xFFFFFFFFFFFFFFFF DUP3 GT OR ISZERO PUSH2 0xE5B JUMPI PUSH2 0xE5A PUSH2 0xEF1 JUMP JUMPDEST JUMPDEST DUP1 PUSH1 0x40 MSTORE POP POP POP JUMP JUMPDEST PUSH32 0x4E487B7100000000000000000000000000000000000000000000000000000000 PUSH1 0x0 MSTORE PUSH1 0x11 PUSH1 0x4 MSTORE PUSH1 0x24 PUSH1 0x0 REVERT JUMPDEST PUSH32 0x4E487B7100000000000000000000000000000000000000000000000000000000 PUSH1 0x0 MSTORE PUSH1 0x21 PUSH1 0x4 MSTORE PUSH1 0x24 PUSH1 0x0 REVERT JUMPDEST PUSH32 0x4E487B7100000000000000000000000000000000000000000000000000000000 PUSH1 0x0 MSTORE PUSH1 0x22 PUSH1 0x4 MSTORE PUSH1 0x24 PUSH1 0x0 REVERT JUMPDEST PUSH32 0x4E487B7100000000000000000000000000000000000000000000000000000000 PUSH1 0x0 MSTORE PUSH1 0x41 PUSH1 0x4 MSTORE PUSH1 0x24 PUSH1 0x0 REVERT JUMPDEST PUSH1 0x0 DUP1 REVERT JUMPDEST PUSH1 0x0 DUP1 REVERT JUMPDEST PUSH1 0x0 DUP1 REVERT JUMPDEST PUSH1 0x0 DUP1 REVERT JUMPDEST PUSH1 0x0 PUSH1 0x1F NOT PUSH1 0x1F DUP4 ADD AND SWAP1 POP SWAP2 SWAP1 POP JUMP JUMPDEST PUSH32 0x706C656173652073656C6563742074686520636C617373206669727374000000 PUSH1 0x0 DUP3 ADD MSTORE POP JUMP JUMPDEST PUSH1 0x3 DUP2 LT PUSH2 0xF7F JUMPI PUSH2 0xF7E PUSH2 0xE93 JUMP JUMPDEST JUMPDEST POP JUMP JUMPDEST PUSH2 0xF8B DUP2 PUSH2 0xD4C JUMP JUMPDEST DUP2 EQ PUSH2 0xF96 JUMPI PUSH1 0x0 DUP1 REVERT JUMPDEST POP JUMP JUMPDEST PUSH2 0xFA2 DUP2 PUSH2 0xDA3 JUMP JUMPDEST DUP2 EQ PUSH2 0xFAD JUMPI PUSH1 0x0 DUP1 REVERT JUMPDEST POP JUMP INVALID LOG2 PUSH5 0x6970667358 0x22 SLT KECCAK256 SWAP5 SWAP14 0xC1 0xD9 0xF9 DUP6 PUSH10 0x5D9F46A4218D865EA69F 0xE SELFDESTRUCT 0xFB MUL CREATE PUSH27 0xF1B611F79A7C91B36B64736F6C6343000807003300000000000000 "
				},
				"gasEstimates": {
					"creation": {
						"codeDepositCost": "814000",
						"executionCost": "infinite",
						"totalCost": "infinite"
					},
					"external": {
						"busnissClass()": "infinite",
						"data(address)": "infinite",
						"economyClass()": "infinite",
						"firstClass()": "infinite",
						"getter()": "infinite",
						"oneWei()": "2518",
						"owner()": "2555",
						"payment()": "infinite",
						"setData(string,string,uint256)": "infinite",
						"u1()": "2583",
						"user()": "2581"
					}
				},
				"methodIdentifiers": {
					"busnissClass()": "b24fa0e4",
					"data(address)": "b90d3d0c",
					"economyClass()": "7a1736d1",
					"firstClass()": "50183507",
					"getter()": "993a04b7",
					"oneWei()": "4fb2e0be",
					"owner()": "8da5cb5b",
					"payment()": "42f6487a",
					"setData(string,string,uint256)": "17ae4589",
					"u1()": "1aa35610",
					"user()": "4f8632ba"
				}
			},
			"userdoc": {
				"kind": "user",
				"methods": {},
				"version": 1
			}
		}
	}
}