{
	"blockship.sol": {
		"AirlineTickets": {
			"abi": [
				{
					"inputs": [],
					"name": "busnissClass",
					"outputs": [],
					"stateMutability": "nonpayable",
					"type": "function"
				},
				{
					"inputs": [
						{
							"internalType": "address",
							"name": "",
							"type": "address"
						}
					],
					"name": "data",
					"outputs": [
						{
							"internalType": "string",
							"name": "name",
							"type": "string"
						},
						{
							"internalType": "string",
							"name": "des",
							"type": "string"
						},
						{
							"internalType": "uint256",
							"name": "pass_id",
							"type": "uint256"
						},
						{
							"internalType": "string",
							"name": "ticket",
							"type": "string"
						},
						{
							"internalType": "uint256",
							"name": "cost",
							"type": "uint256"
						}
					],
					"stateMutability": "view",
					"type": "function"
				},
				{
					"inputs": [],
					"name": "economyClass",
					"outputs": [],
					"stateMutability": "nonpayable",
					"type": "function"
				},
				{
					"inputs": [],
					"name": "firstClass",
					"outputs": [],
					"stateMutability": "nonpayable",
					"type": "function"
				},
				{
					"inputs": [],
					"name": "getter",
					"outputs": [
						{
							"internalType": "uint256",
							"name": "block_no",
							"type": "uint256"
						},
						{
							"internalType": "uint256",
							"name": "timestamp",
							"type": "uint256"
						},
						{
							"internalType": "address",
							"name": "msgSender",
							"type": "address"
						}
					],
					"stateMutability": "view",
					"type": "function"
				},
				{
					"inputs": [],
					"name": "oneWei",
					"outputs": [
						{
							"internalType": "uint256",
							"name": "",
							"type": "uint256"
						}
					],
					"stateMutability": "view",
					"type": "function"
				},
				{
					"inputs": [
						{
							"internalType": "string",
							"name": "_name",
							"type": "string"
						},
						{
							"internalType": "string",
							"name": "_des",
							"type": "string"
						},
						{
							"internalType": "uint256",
							"name": "_pass_id",
							"type": "uint256"
						}
					],
					"name": "setData",
					"outputs": [],
					"stateMutability": "nonpayable",
					"type": "function"
				},
				{
					"inputs": [],
					"name": "u1",
					"outputs": [
						{
							"internalType": "enum AirlineTickets.classTypes",
							"name": "",
							"type": "uint8"
						}
					],
					"stateMutability": "view",
					"type": "function"
				}
			],
			"devdoc": {
				"kind": "dev",
				"methods": {},
				"version": 1
			},
			"evm": {
				"assembly": "    /* \"blockship.sol\":74:1781  contract AirlineTickets {\r... */\n  mstore(0x40, 0x80)\n    /* \"blockship.sol\":265:270  false */\n  0x00\n    /* \"blockship.sol\":251:270  bool booked = false */\n  dup1\n  exp(0x0100, 0x00)\n  dup2\n  sload\n  dup2\n  0xff\n  mul\n  not\n  and\n  swap1\n  dup4\n  iszero\n  iszero\n  mul\n  or\n  swap1\n  sstore\n  pop\n    /* \"blockship.sol\":363:395  string realVal = \"Economy Class\" */\n  mload(0x40)\n  dup1\n  0x40\n  add\n  0x40\n  mstore\n  dup1\n  0x0d\n  dup2\n  mstore\n  0x20\n  add\n  0x45636f6e6f6d7920436c61737300000000000000000000000000000000000000\n  dup2\n  mstore\n  pop\n  0x02\n  swap1\n  dup1\n  mload\n  swap1\n  0x20\n  add\n  swap1\n  tag_1\n  swap3\n  swap2\n  swap1\n  tag_2\n  jump\t// in\ntag_1:\n  pop\n    /* \"blockship.sol\":458:463  1 wei */\n  0x01\n    /* \"blockship.sol\":437:463  uint public oneWei = 1 wei */\n  0x04\n  sstore\n    /* \"blockship.sol\":540:563  classTypes.economyClass */\n  0x01\n    /* \"blockship.sol\":518:563  classTypes public u1= classTypes.economyClass */\n  0x06\n  exp(0x0100, 0x00)\n  dup2\n  sload\n  dup2\n  0xff\n  mul\n  not\n  and\n  swap1\n  dup4\n  0x02\n  dup2\n  gt\n  iszero\n  tag_3\n  jumpi\n  tag_4\n  tag_5\n  jump\t// in\ntag_4:\ntag_3:\n  mul\n  or\n  swap1\n  sstore\n  pop\n    /* \"blockship.sol\":74:1781  contract AirlineTickets {\r... */\n  callvalue\n  dup1\n  iszero\n  tag_6\n  jumpi\n  0x00\n  dup1\n  revert\ntag_6:\n  pop\n  jump(tag_7)\ntag_2:\n  dup3\n  dup1\n  sload\n  tag_8\n  swap1\n  tag_9\n  jump\t// in\ntag_8:\n  swap1\n  0x00\n  mstore\n  keccak256(0x00, 0x20)\n  swap1\n  0x1f\n  add\n  0x20\n  swap1\n  div\n  dup2\n  add\n  swap3\n  dup3\n  tag_11\n  jumpi\n  0x00\n  dup6\n  sstore\n  jump(tag_10)\ntag_11:\n  dup3\n  0x1f\n  lt\n  tag_12\n  jumpi\n  dup1\n  mload\n  not(0xff)\n  and\n  dup4\n  dup1\n  add\n  or\n  dup6\n  sstore\n  jump(tag_10)\ntag_12:\n  dup3\n  dup1\n  add\n  0x01\n  add\n  dup6\n  sstore\n  dup3\n  iszero\n  tag_10\n  jumpi\n  swap2\n  dup3\n  add\ntag_13:\n  dup3\n  dup2\n  gt\n  iszero\n  tag_14\n  jumpi\n  dup3\n  mload\n  dup3\n  sstore\n  swap2\n  0x20\n  add\n  swap2\n  swap1\n  0x01\n  add\n  swap1\n  jump(tag_13)\ntag_14:\ntag_10:\n  pop\n  swap1\n  pop\n  tag_15\n  swap2\n  swap1\n  tag_16\n  jump\t// in\ntag_15:\n  pop\n  swap1\n  jump\t// out\ntag_16:\ntag_17:\n  dup1\n  dup3\n  gt\n  iszero\n  tag_18\n  jumpi\n  0x00\n  dup2\n  0x00\n  swap1\n  sstore\n  pop\n  0x01\n  add\n  jump(tag_17)\ntag_18:\n  pop\n  swap1\n  jump\t// out\n    /* \"#utility.yul\":7:327   */\ntag_9:\n    /* \"#utility.yul\":51:57   */\n  0x00\n    /* \"#utility.yul\":88:89   */\n  0x02\n    /* \"#utility.yul\":82:86   */\n  dup3\n    /* \"#utility.yul\":78:90   */\n  div\n    /* \"#utility.yul\":68:90   */\n  swap1\n  pop\n    /* \"#utility.yul\":135:136   */\n  0x01\n    /* \"#utility.yul\":129:133   */\n  dup3\n    /* \"#utility.yul\":125:137   */\n  and\n    /* \"#utility.yul\":156:174   */\n  dup1\n    /* \"#utility.yul\":146:227   */\n  tag_21\n  jumpi\n    /* \"#utility.yul\":212:216   */\n  0x7f\n    /* \"#utility.yul\":204:210   */\n  dup3\n    /* \"#utility.yul\":200:217   */\n  and\n    /* \"#utility.yul\":190:217   */\n  swap2\n  pop\n    /* \"#utility.yul\":146:227   */\ntag_21:\n    /* \"#utility.yul\":274:276   */\n  0x20\n    /* \"#utility.yul\":266:272   */\n  dup3\n    /* \"#utility.yul\":263:277   */\n  lt\n    /* \"#utility.yul\":243:261   */\n  dup2\n    /* \"#utility.yul\":240:278   */\n  eq\n    /* \"#utility.yul\":237:321   */\n  iszero\n  tag_22\n  jumpi\n    /* \"#utility.yul\":293:311   */\n  tag_23\n  tag_24\n  jump\t// in\ntag_23:\n    /* \"#utility.yul\":237:321   */\ntag_22:\n    /* \"#utility.yul\":58:327   */\n  pop\n    /* \"#utility.yul\":7:327   */\n  swap2\n  swap1\n  pop\n  jump\t// out\n    /* \"#utility.yul\":333:513   */\ntag_5:\n    /* \"#utility.yul\":381:458   */\n  0x4e487b7100000000000000000000000000000000000000000000000000000000\n    /* \"#utility.yul\":378:379   */\n  0x00\n    /* \"#utility.yul\":371:459   */\n  mstore\n    /* \"#utility.yul\":478:482   */\n  0x21\n    /* \"#utility.yul\":475:476   */\n  0x04\n    /* \"#utility.yul\":468:483   */\n  mstore\n    /* \"#utility.yul\":502:506   */\n  0x24\n    /* \"#utility.yul\":499:500   */\n  0x00\n    /* \"#utility.yul\":492:507   */\n  revert\n    /* \"#utility.yul\":519:699   */\ntag_24:\n    /* \"#utility.yul\":567:644   */\n  0x4e487b7100000000000000000000000000000000000000000000000000000000\n    /* \"#utility.yul\":564:565   */\n  0x00\n    /* \"#utility.yul\":557:645   */\n  mstore\n    /* \"#utility.yul\":664:668   */\n  0x22\n    /* \"#utility.yul\":661:662   */\n  0x04\n    /* \"#utility.yul\":654:669   */\n  mstore\n    /* \"#utility.yul\":688:692   */\n  0x24\n    /* \"#utility.yul\":685:686   */\n  0x00\n    /* \"#utility.yul\":678:693   */\n  revert\n    /* \"blockship.sol\":74:1781  contract AirlineTickets {\r... */\ntag_7:\n  dataSize(sub_0)\n  dup1\n  dataOffset(sub_0)\n  0x00\n  codecopy\n  0x00\n  return\nstop\n\nsub_0: assembly {\n        /* \"blockship.sol\":74:1781  contract AirlineTickets {\r... */\n      mstore(0x40, 0x80)\n      callvalue\n      dup1\n      iszero\n      tag_1\n      jumpi\n      0x00\n      dup1\n      revert\n    tag_1:\n      pop\n      jumpi(tag_2, lt(calldatasize, 0x04))\n      shr(0xe0, calldataload(0x00))\n      dup1\n      0x7a1736d1\n      gt\n      tag_11\n      jumpi\n      dup1\n      0x7a1736d1\n      eq\n      tag_7\n      jumpi\n      dup1\n      0x993a04b7\n      eq\n      tag_8\n      jumpi\n      dup1\n      0xb24fa0e4\n      eq\n      tag_9\n      jumpi\n      dup1\n      0xb90d3d0c\n      eq\n      tag_10\n      jumpi\n      jump(tag_2)\n    tag_11:\n      dup1\n      0x17ae4589\n      eq\n      tag_3\n      jumpi\n      dup1\n      0x1aa35610\n      eq\n      tag_4\n      jumpi\n      dup1\n      0x4fb2e0be\n      eq\n      tag_5\n      jumpi\n      dup1\n      0x50183507\n      eq\n      tag_6\n      jumpi\n    tag_2:\n      0x00\n      dup1\n      revert\n        /* \"blockship.sol\":1551:1772  function setData(string memory _name, string memory _des, uint _pass_id) public \r... */\n    tag_3:\n      tag_12\n      0x04\n      dup1\n      calldatasize\n      sub\n      dup2\n      add\n      swap1\n      tag_13\n      swap2\n      swap1\n      tag_14\n      jump\t// in\n    tag_13:\n      tag_15\n      jump\t// in\n    tag_12:\n      stop\n        /* \"blockship.sol\":518:563  classTypes public u1= classTypes.economyClass */\n    tag_4:\n      tag_16\n      tag_17\n      jump\t// in\n    tag_16:\n      mload(0x40)\n      tag_18\n      swap2\n      swap1\n      tag_19\n      jump\t// in\n    tag_18:\n      mload(0x40)\n      dup1\n      swap2\n      sub\n      swap1\n      return\n        /* \"blockship.sol\":437:463  uint public oneWei = 1 wei */\n    tag_5:\n      tag_20\n      tag_21\n      jump\t// in\n    tag_20:\n      mload(0x40)\n      tag_22\n      swap2\n      swap1\n      tag_23\n      jump\t// in\n    tag_22:\n      mload(0x40)\n      dup1\n      swap2\n      sub\n      swap1\n      return\n        /* \"blockship.sol\":1029:1280  function firstClass() public \r... */\n    tag_6:\n      tag_24\n      tag_25\n      jump\t// in\n    tag_24:\n      stop\n        /* \"blockship.sol\":760:1017  function economyClass() public \r... */\n    tag_7:\n      tag_26\n      tag_27\n      jump\t// in\n    tag_26:\n      stop\n        /* \"blockship.sol\":578:752  function getter() public view returns(uint block_no, uint timestamp, address msgSender)\r... */\n    tag_8:\n      tag_28\n      tag_29\n      jump\t// in\n    tag_28:\n      mload(0x40)\n      tag_30\n      swap4\n      swap3\n      swap2\n      swap1\n      tag_31\n      jump\t// in\n    tag_30:\n      mload(0x40)\n      dup1\n      swap2\n      sub\n      swap1\n      return\n        /* \"blockship.sol\":1288:1539  function busnissClass() public {\r... */\n    tag_9:\n      tag_32\n      tag_33\n      jump\t// in\n    tag_32:\n      stop\n        /* \"blockship.sol\":472:509  mapping (address => User) public data */\n    tag_10:\n      tag_34\n      0x04\n      dup1\n      calldatasize\n      sub\n      dup2\n      add\n      swap1\n      tag_35\n      swap2\n      swap1\n      tag_36\n      jump\t// in\n    tag_35:\n      tag_37\n      jump\t// in\n    tag_34:\n      mload(0x40)\n      tag_38\n      swap6\n      swap5\n      swap4\n      swap3\n      swap2\n      swap1\n      tag_39\n      jump\t// in\n    tag_38:\n      mload(0x40)\n      dup1\n      swap2\n      sub\n      swap1\n      return\n        /* \"blockship.sol\":1551:1772  function setData(string memory _name, string memory _des, uint _pass_id) public \r... */\n    tag_15:\n        /* \"blockship.sol\":1656:1662  booked */\n      0x00\n      dup1\n      sload\n      swap1\n      0x0100\n      exp\n      swap1\n      div\n      0xff\n      and\n        /* \"blockship.sol\":1648:1695  require(booked,\"please select the class first\") */\n      tag_41\n      jumpi\n      mload(0x40)\n      0x08c379a000000000000000000000000000000000000000000000000000000000\n      dup2\n      mstore\n      0x04\n      add\n      tag_42\n      swap1\n      tag_43\n      jump\t// in\n    tag_42:\n      mload(0x40)\n      dup1\n      swap2\n      sub\n      swap1\n      revert\n    tag_41:\n        /* \"blockship.sol\":1725:1764  User(_name,_des,_pass_id,realVal ,cost) */\n      mload(0x40)\n      dup1\n      0xa0\n      add\n      0x40\n      mstore\n      dup1\n        /* \"blockship.sol\":1730:1735  _name */\n      dup5\n        /* \"blockship.sol\":1725:1764  User(_name,_des,_pass_id,realVal ,cost) */\n      dup2\n      mstore\n      0x20\n      add\n        /* \"blockship.sol\":1736:1740  _des */\n      dup4\n        /* \"blockship.sol\":1725:1764  User(_name,_des,_pass_id,realVal ,cost) */\n      dup2\n      mstore\n      0x20\n      add\n        /* \"blockship.sol\":1741:1749  _pass_id */\n      dup3\n        /* \"blockship.sol\":1725:1764  User(_name,_des,_pass_id,realVal ,cost) */\n      dup2\n      mstore\n      0x20\n      add\n        /* \"blockship.sol\":1750:1757  realVal */\n      0x02\n        /* \"blockship.sol\":1725:1764  User(_name,_des,_pass_id,realVal ,cost) */\n      dup1\n      sload\n      tag_44\n      swap1\n      tag_45\n      jump\t// in\n    tag_44:\n      dup1\n      0x1f\n      add\n      0x20\n      dup1\n      swap2\n      div\n      mul\n      0x20\n      add\n      mload(0x40)\n      swap1\n      dup2\n      add\n      0x40\n      mstore\n      dup1\n      swap3\n      swap2\n      swap1\n      dup2\n      dup2\n      mstore\n      0x20\n      add\n      dup3\n      dup1\n      sload\n      tag_46\n      swap1\n      tag_45\n      jump\t// in\n    tag_46:\n      dup1\n      iszero\n      tag_47\n      jumpi\n      dup1\n      0x1f\n      lt\n      tag_48\n      jumpi\n      0x0100\n      dup1\n      dup4\n      sload\n      div\n      mul\n      dup4\n      mstore\n      swap2\n      0x20\n      add\n      swap2\n      jump(tag_47)\n    tag_48:\n      dup3\n      add\n      swap2\n      swap1\n      0x00\n      mstore\n      keccak256(0x00, 0x20)\n      swap1\n    tag_49:\n      dup2\n      sload\n      dup2\n      mstore\n      swap1\n      0x01\n      add\n      swap1\n      0x20\n      add\n      dup1\n      dup4\n      gt\n      tag_49\n      jumpi\n      dup3\n      swap1\n      sub\n      0x1f\n      and\n      dup3\n      add\n      swap2\n    tag_47:\n      pop\n      pop\n      pop\n      pop\n      pop\n      dup2\n      mstore\n      0x20\n      add\n        /* \"blockship.sol\":1759:1763  cost */\n      sload(0x03)\n        /* \"blockship.sol\":1725:1764  User(_name,_des,_pass_id,realVal ,cost) */\n      dup2\n      mstore\n      pop\n        /* \"blockship.sol\":1706:1710  data */\n      0x05\n        /* \"blockship.sol\":1706:1722  data[msg.sender] */\n      0x00\n        /* \"blockship.sol\":1711:1721  msg.sender */\n      caller\n        /* \"blockship.sol\":1706:1722  data[msg.sender] */\n      0xffffffffffffffffffffffffffffffffffffffff\n      and\n      0xffffffffffffffffffffffffffffffffffffffff\n      and\n      dup2\n      mstore\n      0x20\n      add\n      swap1\n      dup2\n      mstore\n      0x20\n      add\n      0x00\n      keccak256\n        /* \"blockship.sol\":1706:1764  data[msg.sender] = User(_name,_des,_pass_id,realVal ,cost) */\n      0x00\n      dup3\n      add\n      mload\n      dup2\n      0x00\n      add\n      swap1\n      dup1\n      mload\n      swap1\n      0x20\n      add\n      swap1\n      tag_50\n      swap3\n      swap2\n      swap1\n      tag_51\n      jump\t// in\n    tag_50:\n      pop\n      0x20\n      dup3\n      add\n      mload\n      dup2\n      0x01\n      add\n      swap1\n      dup1\n      mload\n      swap1\n      0x20\n      add\n      swap1\n      tag_52\n      swap3\n      swap2\n      swap1\n      tag_51\n      jump\t// in\n    tag_52:\n      pop\n      0x40\n      dup3\n      add\n      mload\n      dup2\n      0x02\n      add\n      sstore\n      0x60\n      dup3\n      add\n      mload\n      dup2\n      0x03\n      add\n      swap1\n      dup1\n      mload\n      swap1\n      0x20\n      add\n      swap1\n      tag_53\n      swap3\n      swap2\n      swap1\n      tag_51\n      jump\t// in\n    tag_53:\n      pop\n      0x80\n      dup3\n      add\n      mload\n      dup2\n      0x04\n      add\n      sstore\n      swap1\n      pop\n      pop\n        /* \"blockship.sol\":1551:1772  function setData(string memory _name, string memory _des, uint _pass_id) public \r... */\n      pop\n      pop\n      pop\n      jump\t// out\n        /* \"blockship.sol\":518:563  classTypes public u1= classTypes.economyClass */\n    tag_17:\n      0x06\n      0x00\n      swap1\n      sload\n      swap1\n      0x0100\n      exp\n      swap1\n      div\n      0xff\n      and\n      dup2\n      jump\t// out\n        /* \"blockship.sol\":437:463  uint public oneWei = 1 wei */\n    tag_21:\n      sload(0x04)\n      dup2\n      jump\t// out\n        /* \"blockship.sol\":1029:1280  function firstClass() public \r... */\n    tag_25:\n        /* \"blockship.sol\":1079:1100  classTypes.firstClass */\n      0x00\n        /* \"blockship.sol\":1075:1077  u1 */\n      0x06\n      0x00\n        /* \"blockship.sol\":1075:1100  u1= classTypes.firstClass */\n      0x0100\n      exp\n      dup2\n      sload\n      dup2\n      0xff\n      mul\n      not\n      and\n      swap1\n      dup4\n      0x02\n      dup2\n      gt\n      iszero\n      tag_55\n      jumpi\n      tag_56\n      tag_57\n      jump\t// in\n    tag_56:\n    tag_55:\n      mul\n      or\n      swap1\n      sstore\n      pop\n        /* \"blockship.sol\":1126:1128  u1 */\n      0x06\n      0x00\n      swap1\n      sload\n      swap1\n      0x0100\n      exp\n      swap1\n      div\n      0xff\n      and\n        /* \"blockship.sol\":1121:1129  uint(u1) */\n      0x02\n      dup2\n      gt\n      iszero\n      tag_58\n      jumpi\n      tag_59\n      tag_57\n      jump\t// in\n    tag_59:\n    tag_58:\n        /* \"blockship.sol\":1111:1118  convert */\n      0x01\n        /* \"blockship.sol\":1111:1129  convert = uint(u1) */\n      dup2\n      swap1\n      sstore\n      pop\n        /* \"blockship.sol\":1152:1153  0 */\n      0x00\n        /* \"blockship.sol\":1143:1150  convert */\n      sload(0x01)\n        /* \"blockship.sol\":1143:1153  convert==0 */\n      eq\n        /* \"blockship.sol\":1140:1249  if(convert==0)\r... */\n      iszero\n      tag_60\n      jumpi\n        /* \"blockship.sol\":1179:1202  realVal = \"First Class\" */\n      mload(0x40)\n      dup1\n      0x40\n      add\n      0x40\n      mstore\n      dup1\n      0x0b\n      dup2\n      mstore\n      0x20\n      add\n      0x466972737420436c617373000000000000000000000000000000000000000000\n      dup2\n      mstore\n      pop\n        /* \"blockship.sol\":1179:1186  realVal */\n      0x02\n        /* \"blockship.sol\":1179:1202  realVal = \"First Class\" */\n      swap1\n      dup1\n      mload\n      swap1\n      0x20\n      add\n      swap1\n      tag_61\n      swap3\n      swap2\n      swap1\n      tag_51\n      jump\t// in\n    tag_61:\n      pop\n        /* \"blockship.sol\":1233:1237  1e16 */\n      0x2386f26fc10000\n        /* \"blockship.sol\":1224:1230  oneWei */\n      sload(0x04)\n        /* \"blockship.sol\":1224:1237  oneWei * 1e16 */\n      tag_62\n      swap2\n      swap1\n      tag_63\n      jump\t// in\n    tag_62:\n        /* \"blockship.sol\":1217:1221  cost */\n      0x03\n        /* \"blockship.sol\":1217:1237  cost = oneWei * 1e16 */\n      dup2\n      swap1\n      sstore\n      pop\n        /* \"blockship.sol\":1140:1249  if(convert==0)\r... */\n    tag_60:\n        /* \"blockship.sol\":1268:1272  true */\n      0x01\n        /* \"blockship.sol\":1259:1265  booked */\n      0x00\n      dup1\n        /* \"blockship.sol\":1259:1272  booked = true */\n      0x0100\n      exp\n      dup2\n      sload\n      dup2\n      0xff\n      mul\n      not\n      and\n      swap1\n      dup4\n      iszero\n      iszero\n      mul\n      or\n      swap1\n      sstore\n      pop\n        /* \"blockship.sol\":1029:1280  function firstClass() public \r... */\n      jump\t// out\n        /* \"blockship.sol\":760:1017  function economyClass() public \r... */\n    tag_27:\n        /* \"blockship.sol\":812:835  classTypes.economyClass */\n      0x01\n        /* \"blockship.sol\":808:810  u1 */\n      0x06\n      0x00\n        /* \"blockship.sol\":808:835  u1= classTypes.economyClass */\n      0x0100\n      exp\n      dup2\n      sload\n      dup2\n      0xff\n      mul\n      not\n      and\n      swap1\n      dup4\n      0x02\n      dup2\n      gt\n      iszero\n      tag_65\n      jumpi\n      tag_66\n      tag_57\n      jump\t// in\n    tag_66:\n    tag_65:\n      mul\n      or\n      swap1\n      sstore\n      pop\n        /* \"blockship.sol\":861:863  u1 */\n      0x06\n      0x00\n      swap1\n      sload\n      swap1\n      0x0100\n      exp\n      swap1\n      div\n      0xff\n      and\n        /* \"blockship.sol\":856:864  uint(u1) */\n      0x02\n      dup2\n      gt\n      iszero\n      tag_67\n      jumpi\n      tag_68\n      tag_57\n      jump\t// in\n    tag_68:\n    tag_67:\n        /* \"blockship.sol\":846:853  convert */\n      0x01\n        /* \"blockship.sol\":846:864  convert = uint(u1) */\n      dup2\n      swap1\n      sstore\n      pop\n        /* \"blockship.sol\":887:888  1 */\n      0x01\n        /* \"blockship.sol\":878:885  convert */\n      dup1\n      sload\n        /* \"blockship.sol\":878:888  convert==1 */\n      eq\n        /* \"blockship.sol\":875:986  if(convert==1)\r... */\n      iszero\n      tag_69\n      jumpi\n        /* \"blockship.sol\":914:939  realVal = \"Economy Class\" */\n      mload(0x40)\n      dup1\n      0x40\n      add\n      0x40\n      mstore\n      dup1\n      0x0d\n      dup2\n      mstore\n      0x20\n      add\n      0x45636f6e6f6d7920436c61737300000000000000000000000000000000000000\n      dup2\n      mstore\n      pop\n        /* \"blockship.sol\":914:921  realVal */\n      0x02\n        /* \"blockship.sol\":914:939  realVal = \"Economy Class\" */\n      swap1\n      dup1\n      mload\n      swap1\n      0x20\n      add\n      swap1\n      tag_70\n      swap3\n      swap2\n      swap1\n      tag_51\n      jump\t// in\n    tag_70:\n      pop\n        /* \"blockship.sol\":970:974  5e15 */\n      0x11c37937e08000\n        /* \"blockship.sol\":961:967  oneWei */\n      sload(0x04)\n        /* \"blockship.sol\":961:974  oneWei * 5e15 */\n      tag_71\n      swap2\n      swap1\n      tag_63\n      jump\t// in\n    tag_71:\n        /* \"blockship.sol\":954:958  cost */\n      0x03\n        /* \"blockship.sol\":954:974  cost = oneWei * 5e15 */\n      dup2\n      swap1\n      sstore\n      pop\n        /* \"blockship.sol\":875:986  if(convert==1)\r... */\n    tag_69:\n        /* \"blockship.sol\":1005:1009  true */\n      0x01\n        /* \"blockship.sol\":996:1002  booked */\n      0x00\n      dup1\n        /* \"blockship.sol\":996:1009  booked = true */\n      0x0100\n      exp\n      dup2\n      sload\n      dup2\n      0xff\n      mul\n      not\n      and\n      swap1\n      dup4\n      iszero\n      iszero\n      mul\n      or\n      swap1\n      sstore\n      pop\n        /* \"blockship.sol\":760:1017  function economyClass() public \r... */\n      jump\t// out\n        /* \"blockship.sol\":578:752  function getter() public view returns(uint block_no, uint timestamp, address msgSender)\r... */\n    tag_29:\n        /* \"blockship.sol\":616:629  uint block_no */\n      0x00\n        /* \"blockship.sol\":631:645  uint timestamp */\n      dup1\n        /* \"blockship.sol\":647:664  address msgSender */\n      0x00\n        /* \"blockship.sol\":578:752  function getter() public view returns(uint block_no, uint timestamp, address msgSender)\r... */\n      swap1\n      swap2\n      swap3\n      jump\t// out\n        /* \"blockship.sol\":1288:1539  function busnissClass() public {\r... */\n    tag_33:\n        /* \"blockship.sol\":1334:1357  classTypes.busnissClass */\n      0x02\n        /* \"blockship.sol\":1330:1332  u1 */\n      0x06\n      0x00\n        /* \"blockship.sol\":1330:1357  u1= classTypes.busnissClass */\n      0x0100\n      exp\n      dup2\n      sload\n      dup2\n      0xff\n      mul\n      not\n      and\n      swap1\n      dup4\n      0x02\n      dup2\n      gt\n      iszero\n      tag_74\n      jumpi\n      tag_75\n      tag_57\n      jump\t// in\n    tag_75:\n    tag_74:\n      mul\n      or\n      swap1\n      sstore\n      pop\n        /* \"blockship.sol\":1383:1385  u1 */\n      0x06\n      0x00\n      swap1\n      sload\n      swap1\n      0x0100\n      exp\n      swap1\n      div\n      0xff\n      and\n        /* \"blockship.sol\":1378:1386  uint(u1) */\n      0x02\n      dup2\n      gt\n      iszero\n      tag_76\n      jumpi\n      tag_77\n      tag_57\n      jump\t// in\n    tag_77:\n    tag_76:\n        /* \"blockship.sol\":1368:1375  convert */\n      0x01\n        /* \"blockship.sol\":1368:1386  convert = uint(u1) */\n      dup2\n      swap1\n      sstore\n      pop\n        /* \"blockship.sol\":1409:1410  2 */\n      0x02\n        /* \"blockship.sol\":1400:1407  convert */\n      sload(0x01)\n        /* \"blockship.sol\":1400:1410  convert==2 */\n      eq\n        /* \"blockship.sol\":1397:1508  if(convert==2)\r... */\n      iszero\n      tag_78\n      jumpi\n        /* \"blockship.sol\":1436:1461  realVal = \"Busniss Class\" */\n      mload(0x40)\n      dup1\n      0x40\n      add\n      0x40\n      mstore\n      dup1\n      0x0d\n      dup2\n      mstore\n      0x20\n      add\n      0x4275736e69737320436c61737300000000000000000000000000000000000000\n      dup2\n      mstore\n      pop\n        /* \"blockship.sol\":1436:1443  realVal */\n      0x02\n        /* \"blockship.sol\":1436:1461  realVal = \"Busniss Class\" */\n      swap1\n      dup1\n      mload\n      swap1\n      0x20\n      add\n      swap1\n      tag_79\n      swap3\n      swap2\n      swap1\n      tag_51\n      jump\t// in\n    tag_79:\n      pop\n        /* \"blockship.sol\":1492:1496  7e15 */\n      0x18de76816d8000\n        /* \"blockship.sol\":1483:1489  oneWei */\n      sload(0x04)\n        /* \"blockship.sol\":1483:1496  oneWei * 7e15 */\n      tag_80\n      swap2\n      swap1\n      tag_63\n      jump\t// in\n    tag_80:\n        /* \"blockship.sol\":1476:1480  cost */\n      0x03\n        /* \"blockship.sol\":1476:1496  cost = oneWei * 7e15 */\n      dup2\n      swap1\n      sstore\n      pop\n        /* \"blockship.sol\":1397:1508  if(convert==2)\r... */\n    tag_78:\n        /* \"blockship.sol\":1527:1531  true */\n      0x01\n        /* \"blockship.sol\":1518:1524  booked */\n      0x00\n      dup1\n        /* \"blockship.sol\":1518:1531  booked = true */\n      0x0100\n      exp\n      dup2\n      sload\n      dup2\n      0xff\n      mul\n      not\n      and\n      swap1\n      dup4\n      iszero\n      iszero\n      mul\n      or\n      swap1\n      sstore\n      pop\n        /* \"blockship.sol\":1288:1539  function busnissClass() public {\r... */\n      jump\t// out\n        /* \"blockship.sol\":472:509  mapping (address => User) public data */\n    tag_37:\n      mstore(0x20, 0x05)\n      dup1\n      0x00\n      mstore\n      keccak256(0x00, 0x40)\n      0x00\n      swap2\n      pop\n      swap1\n      pop\n      dup1\n      0x00\n      add\n      dup1\n      sload\n      tag_81\n      swap1\n      tag_45\n      jump\t// in\n    tag_81:\n      dup1\n      0x1f\n      add\n      0x20\n      dup1\n      swap2\n      div\n      mul\n      0x20\n      add\n      mload(0x40)\n      swap1\n      dup2\n      add\n      0x40\n      mstore\n      dup1\n      swap3\n      swap2\n      swap1\n      dup2\n      dup2\n      mstore\n      0x20\n      add\n      dup3\n      dup1\n      sload\n      tag_82\n      swap1\n      tag_45\n      jump\t// in\n    tag_82:\n      dup1\n      iszero\n      tag_83\n      jumpi\n      dup1\n      0x1f\n      lt\n      tag_84\n      jumpi\n      0x0100\n      dup1\n      dup4\n      sload\n      div\n      mul\n      dup4\n      mstore\n      swap2\n      0x20\n      add\n      swap2\n      jump(tag_83)\n    tag_84:\n      dup3\n      add\n      swap2\n      swap1\n      0x00\n      mstore\n      keccak256(0x00, 0x20)\n      swap1\n    tag_85:\n      dup2\n      sload\n      dup2\n      mstore\n      swap1\n      0x01\n      add\n      swap1\n      0x20\n      add\n      dup1\n      dup4\n      gt\n      tag_85\n      jumpi\n      dup3\n      swap1\n      sub\n      0x1f\n      and\n      dup3\n      add\n      swap2\n    tag_83:\n      pop\n      pop\n      pop\n      pop\n      pop\n      swap1\n      dup1\n      0x01\n      add\n      dup1\n      sload\n      tag_86\n      swap1\n      tag_45\n      jump\t// in\n    tag_86:\n      dup1\n      0x1f\n      add\n      0x20\n      dup1\n      swap2\n      div\n      mul\n      0x20\n      add\n      mload(0x40)\n      swap1\n      dup2\n      add\n      0x40\n      mstore\n      dup1\n      swap3\n      swap2\n      swap1\n      dup2\n      dup2\n      mstore\n      0x20\n      add\n      dup3\n      dup1\n      sload\n      tag_87\n      swap1\n      tag_45\n      jump\t// in\n    tag_87:\n      dup1\n      iszero\n      tag_88\n      jumpi\n      dup1\n      0x1f\n      lt\n      tag_89\n      jumpi\n      0x0100\n      dup1\n      dup4\n      sload\n      div\n      mul\n      dup4\n      mstore\n      swap2\n      0x20\n      add\n      swap2\n      jump(tag_88)\n    tag_89:\n      dup3\n      add\n      swap2\n      swap1\n      0x00\n      mstore\n      keccak256(0x00, 0x20)\n      swap1\n    tag_90:\n      dup2\n      sload\n      dup2\n      mstore\n      swap1\n      0x01\n      add\n      swap1\n      0x20\n      add\n      dup1\n      dup4\n      gt\n      tag_90\n      jumpi\n      dup3\n      swap1\n      sub\n      0x1f\n      and\n      dup3\n      add\n      swap2\n    tag_88:\n      pop\n      pop\n      pop\n      pop\n      pop\n      swap1\n      dup1\n      0x02\n      add\n      sload\n      swap1\n      dup1\n      0x03\n      add\n      dup1\n      sload\n      tag_91\n      swap1\n      tag_45\n      jump\t// in\n    tag_91:\n      dup1\n      0x1f\n      add\n      0x20\n      dup1\n      swap2\n      div\n      mul\n      0x20\n      add\n      mload(0x40)\n      swap1\n      dup2\n      add\n      0x40\n      mstore\n      dup1\n      swap3\n      swap2\n      swap1\n      dup2\n      dup2\n      mstore\n      0x20\n      add\n      dup3\n      dup1\n      sload\n      tag_92\n      swap1\n      tag_45\n      jump\t// in\n    tag_92:\n      dup1\n      iszero\n      tag_93\n      jumpi\n      dup1\n      0x1f\n      lt\n      tag_94\n      jumpi\n      0x0100\n      dup1\n      dup4\n      sload\n      div\n      mul\n      dup4\n      mstore\n      swap2\n      0x20\n      add\n      swap2\n      jump(tag_93)\n    tag_94:\n      dup3\n      add\n      swap2\n      swap1\n      0x00\n      mstore\n      keccak256(0x00, 0x20)\n      swap1\n    tag_95:\n      dup2\n      sload\n      dup2\n      mstore\n      swap1\n      0x01\n      add\n      swap1\n      0x20\n      add\n      dup1\n      dup4\n      gt\n      tag_95\n      jumpi\n      dup3\n      swap1\n      sub\n      0x1f\n      and\n      dup3\n      add\n      swap2\n    tag_93:\n      pop\n      pop\n      pop\n      pop\n      pop\n      swap1\n      dup1\n      0x04\n      add\n      sload\n      swap1\n      pop\n      dup6\n      jump\t// out\n    tag_51:\n      dup3\n      dup1\n      sload\n      tag_96\n      swap1\n      tag_45\n      jump\t// in\n    tag_96:\n      swap1\n      0x00\n      mstore\n      keccak256(0x00, 0x20)\n      swap1\n      0x1f\n      add\n      0x20\n      swap1\n      div\n      dup2\n      add\n      swap3\n      dup3\n      tag_98\n      jumpi\n      0x00\n      dup6\n      sstore\n      jump(tag_97)\n    tag_98:\n      dup3\n      0x1f\n      lt\n      tag_99\n      jumpi\n      dup1\n      mload\n      not(0xff)\n      and\n      dup4\n      dup1\n      add\n      or\n      dup6\n      sstore\n      jump(tag_97)\n    tag_99:\n      dup3\n      dup1\n      add\n      0x01\n      add\n      dup6\n      sstore\n      dup3\n      iszero\n      tag_97\n      jumpi\n      swap2\n      dup3\n      add\n    tag_100:\n      dup3\n      dup2\n      gt\n      iszero\n      tag_101\n      jumpi\n      dup3\n      mload\n      dup3\n      sstore\n      swap2\n      0x20\n      add\n      swap2\n      swap1\n      0x01\n      add\n      swap1\n      jump(tag_100)\n    tag_101:\n    tag_97:\n      pop\n      swap1\n      pop\n      tag_102\n      swap2\n      swap1\n      tag_103\n      jump\t// in\n    tag_102:\n      pop\n      swap1\n      jump\t// out\n    tag_103:\n    tag_104:\n      dup1\n      dup3\n      gt\n      iszero\n      tag_105\n      jumpi\n      0x00\n      dup2\n      0x00\n      swap1\n      sstore\n      pop\n      0x01\n      add\n      jump(tag_104)\n    tag_105:\n      pop\n      swap1\n      jump\t// out\n        /* \"#utility.yul\":7:419   */\n    tag_107:\n        /* \"#utility.yul\":85:90   */\n      0x00\n        /* \"#utility.yul\":110:176   */\n      tag_109\n        /* \"#utility.yul\":126:175   */\n      tag_110\n        /* \"#utility.yul\":168:174   */\n      dup5\n        /* \"#utility.yul\":126:175   */\n      tag_111\n      jump\t// in\n    tag_110:\n        /* \"#utility.yul\":110:176   */\n      tag_112\n      jump\t// in\n    tag_109:\n        /* \"#utility.yul\":101:176   */\n      swap1\n      pop\n        /* \"#utility.yul\":199:205   */\n      dup3\n        /* \"#utility.yul\":192:197   */\n      dup2\n        /* \"#utility.yul\":185:206   */\n      mstore\n        /* \"#utility.yul\":237:241   */\n      0x20\n        /* \"#utility.yul\":230:235   */\n      dup2\n        /* \"#utility.yul\":226:242   */\n      add\n        /* \"#utility.yul\":275:278   */\n      dup5\n        /* \"#utility.yul\":266:272   */\n      dup5\n        /* \"#utility.yul\":261:264   */\n      dup5\n        /* \"#utility.yul\":257:273   */\n      add\n        /* \"#utility.yul\":254:279   */\n      gt\n        /* \"#utility.yul\":251:363   */\n      iszero\n      tag_113\n      jumpi\n        /* \"#utility.yul\":282:361   */\n      tag_114\n      tag_115\n      jump\t// in\n    tag_114:\n        /* \"#utility.yul\":251:363   */\n    tag_113:\n        /* \"#utility.yul\":372:413   */\n      tag_116\n        /* \"#utility.yul\":406:412   */\n      dup5\n        /* \"#utility.yul\":401:404   */\n      dup3\n        /* \"#utility.yul\":396:399   */\n      dup6\n        /* \"#utility.yul\":372:413   */\n      tag_117\n      jump\t// in\n    tag_116:\n        /* \"#utility.yul\":91:419   */\n      pop\n        /* \"#utility.yul\":7:419   */\n      swap4\n      swap3\n      pop\n      pop\n      pop\n      jump\t// out\n        /* \"#utility.yul\":425:564   */\n    tag_118:\n        /* \"#utility.yul\":471:476   */\n      0x00\n        /* \"#utility.yul\":509:515   */\n      dup2\n        /* \"#utility.yul\":496:516   */\n      calldataload\n        /* \"#utility.yul\":487:516   */\n      swap1\n      pop\n        /* \"#utility.yul\":525:558   */\n      tag_120\n        /* \"#utility.yul\":552:557   */\n      dup2\n        /* \"#utility.yul\":525:558   */\n      tag_121\n      jump\t// in\n    tag_120:\n        /* \"#utility.yul\":425:564   */\n      swap3\n      swap2\n      pop\n      pop\n      jump\t// out\n        /* \"#utility.yul\":584:924   */\n    tag_122:\n        /* \"#utility.yul\":640:645   */\n      0x00\n        /* \"#utility.yul\":689:692   */\n      dup3\n        /* \"#utility.yul\":682:686   */\n      0x1f\n        /* \"#utility.yul\":674:680   */\n      dup4\n        /* \"#utility.yul\":670:687   */\n      add\n        /* \"#utility.yul\":666:693   */\n      slt\n        /* \"#utility.yul\":656:778   */\n      tag_124\n      jumpi\n        /* \"#utility.yul\":697:776   */\n      tag_125\n      tag_126\n      jump\t// in\n    tag_125:\n        /* \"#utility.yul\":656:778   */\n    tag_124:\n        /* \"#utility.yul\":814:820   */\n      dup2\n        /* \"#utility.yul\":801:821   */\n      calldataload\n        /* \"#utility.yul\":839:918   */\n      tag_127\n        /* \"#utility.yul\":914:917   */\n      dup5\n        /* \"#utility.yul\":906:912   */\n      dup3\n        /* \"#utility.yul\":899:903   */\n      0x20\n        /* \"#utility.yul\":891:897   */\n      dup7\n        /* \"#utility.yul\":887:904   */\n      add\n        /* \"#utility.yul\":839:918   */\n      tag_107\n      jump\t// in\n    tag_127:\n        /* \"#utility.yul\":830:918   */\n      swap2\n      pop\n        /* \"#utility.yul\":646:924   */\n      pop\n        /* \"#utility.yul\":584:924   */\n      swap3\n      swap2\n      pop\n      pop\n      jump\t// out\n        /* \"#utility.yul\":930:1069   */\n    tag_128:\n        /* \"#utility.yul\":976:981   */\n      0x00\n        /* \"#utility.yul\":1014:1020   */\n      dup2\n        /* \"#utility.yul\":1001:1021   */\n      calldataload\n        /* \"#utility.yul\":992:1021   */\n      swap1\n      pop\n        /* \"#utility.yul\":1030:1063   */\n      tag_130\n        /* \"#utility.yul\":1057:1062   */\n      dup2\n        /* \"#utility.yul\":1030:1063   */\n      tag_131\n      jump\t// in\n    tag_130:\n        /* \"#utility.yul\":930:1069   */\n      swap3\n      swap2\n      pop\n      pop\n      jump\t// out\n        /* \"#utility.yul\":1075:1404   */\n    tag_36:\n        /* \"#utility.yul\":1134:1140   */\n      0x00\n        /* \"#utility.yul\":1183:1185   */\n      0x20\n        /* \"#utility.yul\":1171:1180   */\n      dup3\n        /* \"#utility.yul\":1162:1169   */\n      dup5\n        /* \"#utility.yul\":1158:1181   */\n      sub\n        /* \"#utility.yul\":1154:1186   */\n      slt\n        /* \"#utility.yul\":1151:1270   */\n      iszero\n      tag_133\n      jumpi\n        /* \"#utility.yul\":1189:1268   */\n      tag_134\n      tag_135\n      jump\t// in\n    tag_134:\n        /* \"#utility.yul\":1151:1270   */\n    tag_133:\n        /* \"#utility.yul\":1309:1310   */\n      0x00\n        /* \"#utility.yul\":1334:1387   */\n      tag_136\n        /* \"#utility.yul\":1379:1386   */\n      dup5\n        /* \"#utility.yul\":1370:1376   */\n      dup3\n        /* \"#utility.yul\":1359:1368   */\n      dup6\n        /* \"#utility.yul\":1355:1377   */\n      add\n        /* \"#utility.yul\":1334:1387   */\n      tag_118\n      jump\t// in\n    tag_136:\n        /* \"#utility.yul\":1324:1387   */\n      swap2\n      pop\n        /* \"#utility.yul\":1280:1397   */\n      pop\n        /* \"#utility.yul\":1075:1404   */\n      swap3\n      swap2\n      pop\n      pop\n      jump\t// out\n        /* \"#utility.yul\":1410:2389   */\n    tag_14:\n        /* \"#utility.yul\":1507:1513   */\n      0x00\n        /* \"#utility.yul\":1515:1521   */\n      dup1\n        /* \"#utility.yul\":1523:1529   */\n      0x00\n        /* \"#utility.yul\":1572:1574   */\n      0x60\n        /* \"#utility.yul\":1560:1569   */\n      dup5\n        /* \"#utility.yul\":1551:1558   */\n      dup7\n        /* \"#utility.yul\":1547:1570   */\n      sub\n        /* \"#utility.yul\":1543:1575   */\n      slt\n        /* \"#utility.yul\":1540:1659   */\n      iszero\n      tag_138\n      jumpi\n        /* \"#utility.yul\":1578:1657   */\n      tag_139\n      tag_135\n      jump\t// in\n    tag_139:\n        /* \"#utility.yul\":1540:1659   */\n    tag_138:\n        /* \"#utility.yul\":1726:1727   */\n      0x00\n        /* \"#utility.yul\":1715:1724   */\n      dup5\n        /* \"#utility.yul\":1711:1728   */\n      add\n        /* \"#utility.yul\":1698:1729   */\n      calldataload\n        /* \"#utility.yul\":1756:1774   */\n      0xffffffffffffffff\n        /* \"#utility.yul\":1748:1754   */\n      dup2\n        /* \"#utility.yul\":1745:1775   */\n      gt\n        /* \"#utility.yul\":1742:1859   */\n      iszero\n      tag_140\n      jumpi\n        /* \"#utility.yul\":1778:1857   */\n      tag_141\n      tag_142\n      jump\t// in\n    tag_141:\n        /* \"#utility.yul\":1742:1859   */\n    tag_140:\n        /* \"#utility.yul\":1883:1946   */\n      tag_143\n        /* \"#utility.yul\":1938:1945   */\n      dup7\n        /* \"#utility.yul\":1929:1935   */\n      dup3\n        /* \"#utility.yul\":1918:1927   */\n      dup8\n        /* \"#utility.yul\":1914:1936   */\n      add\n        /* \"#utility.yul\":1883:1946   */\n      tag_122\n      jump\t// in\n    tag_143:\n        /* \"#utility.yul\":1873:1946   */\n      swap4\n      pop\n        /* \"#utility.yul\":1669:1956   */\n      pop\n        /* \"#utility.yul\":2023:2025   */\n      0x20\n        /* \"#utility.yul\":2012:2021   */\n      dup5\n        /* \"#utility.yul\":2008:2026   */\n      add\n        /* \"#utility.yul\":1995:2027   */\n      calldataload\n        /* \"#utility.yul\":2054:2072   */\n      0xffffffffffffffff\n        /* \"#utility.yul\":2046:2052   */\n      dup2\n        /* \"#utility.yul\":2043:2073   */\n      gt\n        /* \"#utility.yul\":2040:2157   */\n      iszero\n      tag_144\n      jumpi\n        /* \"#utility.yul\":2076:2155   */\n      tag_145\n      tag_142\n      jump\t// in\n    tag_145:\n        /* \"#utility.yul\":2040:2157   */\n    tag_144:\n        /* \"#utility.yul\":2181:2244   */\n      tag_146\n        /* \"#utility.yul\":2236:2243   */\n      dup7\n        /* \"#utility.yul\":2227:2233   */\n      dup3\n        /* \"#utility.yul\":2216:2225   */\n      dup8\n        /* \"#utility.yul\":2212:2234   */\n      add\n        /* \"#utility.yul\":2181:2244   */\n      tag_122\n      jump\t// in\n    tag_146:\n        /* \"#utility.yul\":2171:2244   */\n      swap3\n      pop\n        /* \"#utility.yul\":1966:2254   */\n      pop\n        /* \"#utility.yul\":2293:2295   */\n      0x40\n        /* \"#utility.yul\":2319:2372   */\n      tag_147\n        /* \"#utility.yul\":2364:2371   */\n      dup7\n        /* \"#utility.yul\":2355:2361   */\n      dup3\n        /* \"#utility.yul\":2344:2353   */\n      dup8\n        /* \"#utility.yul\":2340:2362   */\n      add\n        /* \"#utility.yul\":2319:2372   */\n      tag_128\n      jump\t// in\n    tag_147:\n        /* \"#utility.yul\":2309:2372   */\n      swap2\n      pop\n        /* \"#utility.yul\":2264:2382   */\n      pop\n        /* \"#utility.yul\":1410:2389   */\n      swap3\n      pop\n      swap3\n      pop\n      swap3\n      jump\t// out\n        /* \"#utility.yul\":2395:2513   */\n    tag_148:\n        /* \"#utility.yul\":2482:2506   */\n      tag_150\n        /* \"#utility.yul\":2500:2505   */\n      dup2\n        /* \"#utility.yul\":2482:2506   */\n      tag_151\n      jump\t// in\n    tag_150:\n        /* \"#utility.yul\":2477:2480   */\n      dup3\n        /* \"#utility.yul\":2470:2507   */\n      mstore\n        /* \"#utility.yul\":2395:2513   */\n      pop\n      pop\n      jump\t// out\n        /* \"#utility.yul\":2519:2672   */\n    tag_152:\n        /* \"#utility.yul\":2617:2665   */\n      tag_154\n        /* \"#utility.yul\":2659:2664   */\n      dup2\n        /* \"#utility.yul\":2617:2665   */\n      tag_155\n      jump\t// in\n    tag_154:\n        /* \"#utility.yul\":2612:2615   */\n      dup3\n        /* \"#utility.yul\":2605:2666   */\n      mstore\n        /* \"#utility.yul\":2519:2672   */\n      pop\n      pop\n      jump\t// out\n        /* \"#utility.yul\":2678:3042   */\n    tag_156:\n        /* \"#utility.yul\":2766:2769   */\n      0x00\n        /* \"#utility.yul\":2794:2833   */\n      tag_158\n        /* \"#utility.yul\":2827:2832   */\n      dup3\n        /* \"#utility.yul\":2794:2833   */\n      tag_159\n      jump\t// in\n    tag_158:\n        /* \"#utility.yul\":2849:2920   */\n      tag_160\n        /* \"#utility.yul\":2913:2919   */\n      dup2\n        /* \"#utility.yul\":2908:2911   */\n      dup6\n        /* \"#utility.yul\":2849:2920   */\n      tag_161\n      jump\t// in\n    tag_160:\n        /* \"#utility.yul\":2842:2920   */\n      swap4\n      pop\n        /* \"#utility.yul\":2929:2981   */\n      tag_162\n        /* \"#utility.yul\":2974:2980   */\n      dup2\n        /* \"#utility.yul\":2969:2972   */\n      dup6\n        /* \"#utility.yul\":2962:2966   */\n      0x20\n        /* \"#utility.yul\":2955:2960   */\n      dup7\n        /* \"#utility.yul\":2951:2967   */\n      add\n        /* \"#utility.yul\":2929:2981   */\n      tag_163\n      jump\t// in\n    tag_162:\n        /* \"#utility.yul\":3006:3035   */\n      tag_164\n        /* \"#utility.yul\":3028:3034   */\n      dup2\n        /* \"#utility.yul\":3006:3035   */\n      tag_165\n      jump\t// in\n    tag_164:\n        /* \"#utility.yul\":3001:3004   */\n      dup5\n        /* \"#utility.yul\":2997:3036   */\n      add\n        /* \"#utility.yul\":2990:3036   */\n      swap2\n      pop\n        /* \"#utility.yul\":2770:3042   */\n      pop\n        /* \"#utility.yul\":2678:3042   */\n      swap3\n      swap2\n      pop\n      pop\n      jump\t// out\n        /* \"#utility.yul\":3048:3414   */\n    tag_166:\n        /* \"#utility.yul\":3190:3193   */\n      0x00\n        /* \"#utility.yul\":3211:3278   */\n      tag_168\n        /* \"#utility.yul\":3275:3277   */\n      0x1d\n        /* \"#utility.yul\":3270:3273   */\n      dup4\n        /* \"#utility.yul\":3211:3278   */\n      tag_161\n      jump\t// in\n    tag_168:\n        /* \"#utility.yul\":3204:3278   */\n      swap2\n      pop\n        /* \"#utility.yul\":3287:3380   */\n      tag_169\n        /* \"#utility.yul\":3376:3379   */\n      dup3\n        /* \"#utility.yul\":3287:3380   */\n      tag_170\n      jump\t// in\n    tag_169:\n        /* \"#utility.yul\":3405:3407   */\n      0x20\n        /* \"#utility.yul\":3400:3403   */\n      dup3\n        /* \"#utility.yul\":3396:3408   */\n      add\n        /* \"#utility.yul\":3389:3408   */\n      swap1\n      pop\n        /* \"#utility.yul\":3048:3414   */\n      swap2\n      swap1\n      pop\n      jump\t// out\n        /* \"#utility.yul\":3420:3538   */\n    tag_171:\n        /* \"#utility.yul\":3507:3531   */\n      tag_173\n        /* \"#utility.yul\":3525:3530   */\n      dup2\n        /* \"#utility.yul\":3507:3531   */\n      tag_174\n      jump\t// in\n    tag_173:\n        /* \"#utility.yul\":3502:3505   */\n      dup3\n        /* \"#utility.yul\":3495:3532   */\n      mstore\n        /* \"#utility.yul\":3420:3538   */\n      pop\n      pop\n      jump\t// out\n        /* \"#utility.yul\":3544:3788   */\n    tag_19:\n        /* \"#utility.yul\":3648:3652   */\n      0x00\n        /* \"#utility.yul\":3686:3688   */\n      0x20\n        /* \"#utility.yul\":3675:3684   */\n      dup3\n        /* \"#utility.yul\":3671:3689   */\n      add\n        /* \"#utility.yul\":3663:3689   */\n      swap1\n      pop\n        /* \"#utility.yul\":3699:3781   */\n      tag_176\n        /* \"#utility.yul\":3778:3779   */\n      0x00\n        /* \"#utility.yul\":3767:3776   */\n      dup4\n        /* \"#utility.yul\":3763:3780   */\n      add\n        /* \"#utility.yul\":3754:3760   */\n      dup5\n        /* \"#utility.yul\":3699:3781   */\n      tag_152\n      jump\t// in\n    tag_176:\n        /* \"#utility.yul\":3544:3788   */\n      swap3\n      swap2\n      pop\n      pop\n      jump\t// out\n        /* \"#utility.yul\":3794:4731   */\n    tag_39:\n        /* \"#utility.yul\":4059:4063   */\n      0x00\n        /* \"#utility.yul\":4097:4100   */\n      0xa0\n        /* \"#utility.yul\":4086:4095   */\n      dup3\n        /* \"#utility.yul\":4082:4101   */\n      add\n        /* \"#utility.yul\":4074:4101   */\n      swap1\n      pop\n        /* \"#utility.yul\":4147:4156   */\n      dup2\n        /* \"#utility.yul\":4141:4145   */\n      dup2\n        /* \"#utility.yul\":4137:4157   */\n      sub\n        /* \"#utility.yul\":4133:4134   */\n      0x00\n        /* \"#utility.yul\":4122:4131   */\n      dup4\n        /* \"#utility.yul\":4118:4135   */\n      add\n        /* \"#utility.yul\":4111:4158   */\n      mstore\n        /* \"#utility.yul\":4175:4253   */\n      tag_178\n        /* \"#utility.yul\":4248:4252   */\n      dup2\n        /* \"#utility.yul\":4239:4245   */\n      dup9\n        /* \"#utility.yul\":4175:4253   */\n      tag_156\n      jump\t// in\n    tag_178:\n        /* \"#utility.yul\":4167:4253   */\n      swap1\n      pop\n        /* \"#utility.yul\":4300:4309   */\n      dup2\n        /* \"#utility.yul\":4294:4298   */\n      dup2\n        /* \"#utility.yul\":4290:4310   */\n      sub\n        /* \"#utility.yul\":4285:4287   */\n      0x20\n        /* \"#utility.yul\":4274:4283   */\n      dup4\n        /* \"#utility.yul\":4270:4288   */\n      add\n        /* \"#utility.yul\":4263:4311   */\n      mstore\n        /* \"#utility.yul\":4328:4406   */\n      tag_179\n        /* \"#utility.yul\":4401:4405   */\n      dup2\n        /* \"#utility.yul\":4392:4398   */\n      dup8\n        /* \"#utility.yul\":4328:4406   */\n      tag_156\n      jump\t// in\n    tag_179:\n        /* \"#utility.yul\":4320:4406   */\n      swap1\n      pop\n        /* \"#utility.yul\":4416:4488   */\n      tag_180\n        /* \"#utility.yul\":4484:4486   */\n      0x40\n        /* \"#utility.yul\":4473:4482   */\n      dup4\n        /* \"#utility.yul\":4469:4487   */\n      add\n        /* \"#utility.yul\":4460:4466   */\n      dup7\n        /* \"#utility.yul\":4416:4488   */\n      tag_171\n      jump\t// in\n    tag_180:\n        /* \"#utility.yul\":4535:4544   */\n      dup2\n        /* \"#utility.yul\":4529:4533   */\n      dup2\n        /* \"#utility.yul\":4525:4545   */\n      sub\n        /* \"#utility.yul\":4520:4522   */\n      0x60\n        /* \"#utility.yul\":4509:4518   */\n      dup4\n        /* \"#utility.yul\":4505:4523   */\n      add\n        /* \"#utility.yul\":4498:4546   */\n      mstore\n        /* \"#utility.yul\":4563:4641   */\n      tag_181\n        /* \"#utility.yul\":4636:4640   */\n      dup2\n        /* \"#utility.yul\":4627:4633   */\n      dup6\n        /* \"#utility.yul\":4563:4641   */\n      tag_156\n      jump\t// in\n    tag_181:\n        /* \"#utility.yul\":4555:4641   */\n      swap1\n      pop\n        /* \"#utility.yul\":4651:4724   */\n      tag_182\n        /* \"#utility.yul\":4719:4722   */\n      0x80\n        /* \"#utility.yul\":4708:4717   */\n      dup4\n        /* \"#utility.yul\":4704:4723   */\n      add\n        /* \"#utility.yul\":4695:4701   */\n      dup5\n        /* \"#utility.yul\":4651:4724   */\n      tag_171\n      jump\t// in\n    tag_182:\n        /* \"#utility.yul\":3794:4731   */\n      swap7\n      swap6\n      pop\n      pop\n      pop\n      pop\n      pop\n      pop\n      jump\t// out\n        /* \"#utility.yul\":4737:5156   */\n    tag_43:\n        /* \"#utility.yul\":4903:4907   */\n      0x00\n        /* \"#utility.yul\":4941:4943   */\n      0x20\n        /* \"#utility.yul\":4930:4939   */\n      dup3\n        /* \"#utility.yul\":4926:4944   */\n      add\n        /* \"#utility.yul\":4918:4944   */\n      swap1\n      pop\n        /* \"#utility.yul\":4990:4999   */\n      dup2\n        /* \"#utility.yul\":4984:4988   */\n      dup2\n        /* \"#utility.yul\":4980:5000   */\n      sub\n        /* \"#utility.yul\":4976:4977   */\n      0x00\n        /* \"#utility.yul\":4965:4974   */\n      dup4\n        /* \"#utility.yul\":4961:4978   */\n      add\n        /* \"#utility.yul\":4954:5001   */\n      mstore\n        /* \"#utility.yul\":5018:5149   */\n      tag_184\n        /* \"#utility.yul\":5144:5148   */\n      dup2\n        /* \"#utility.yul\":5018:5149   */\n      tag_166\n      jump\t// in\n    tag_184:\n        /* \"#utility.yul\":5010:5149   */\n      swap1\n      pop\n        /* \"#utility.yul\":4737:5156   */\n      swap2\n      swap1\n      pop\n      jump\t// out\n        /* \"#utility.yul\":5162:5384   */\n    tag_23:\n        /* \"#utility.yul\":5255:5259   */\n      0x00\n        /* \"#utility.yul\":5293:5295   */\n      0x20\n        /* \"#utility.yul\":5282:5291   */\n      dup3\n        /* \"#utility.yul\":5278:5296   */\n      add\n        /* \"#utility.yul\":5270:5296   */\n      swap1\n      pop\n        /* \"#utility.yul\":5306:5377   */\n      tag_186\n        /* \"#utility.yul\":5374:5375   */\n      0x00\n        /* \"#utility.yul\":5363:5372   */\n      dup4\n        /* \"#utility.yul\":5359:5376   */\n      add\n        /* \"#utility.yul\":5350:5356   */\n      dup5\n        /* \"#utility.yul\":5306:5377   */\n      tag_171\n      jump\t// in\n    tag_186:\n        /* \"#utility.yul\":5162:5384   */\n      swap3\n      swap2\n      pop\n      pop\n      jump\t// out\n        /* \"#utility.yul\":5390:5832   */\n    tag_31:\n        /* \"#utility.yul\":5539:5543   */\n      0x00\n        /* \"#utility.yul\":5577:5579   */\n      0x60\n        /* \"#utility.yul\":5566:5575   */\n      dup3\n        /* \"#utility.yul\":5562:5580   */\n      add\n        /* \"#utility.yul\":5554:5580   */\n      swap1\n      pop\n        /* \"#utility.yul\":5590:5661   */\n      tag_188\n        /* \"#utility.yul\":5658:5659   */\n      0x00\n        /* \"#utility.yul\":5647:5656   */\n      dup4\n        /* \"#utility.yul\":5643:5660   */\n      add\n        /* \"#utility.yul\":5634:5640   */\n      dup7\n        /* \"#utility.yul\":5590:5661   */\n      tag_171\n      jump\t// in\n    tag_188:\n        /* \"#utility.yul\":5671:5743   */\n      tag_189\n        /* \"#utility.yul\":5739:5741   */\n      0x20\n        /* \"#utility.yul\":5728:5737   */\n      dup4\n        /* \"#utility.yul\":5724:5742   */\n      add\n        /* \"#utility.yul\":5715:5721   */\n      dup6\n        /* \"#utility.yul\":5671:5743   */\n      tag_171\n      jump\t// in\n    tag_189:\n        /* \"#utility.yul\":5753:5825   */\n      tag_190\n        /* \"#utility.yul\":5821:5823   */\n      0x40\n        /* \"#utility.yul\":5810:5819   */\n      dup4\n        /* \"#utility.yul\":5806:5824   */\n      add\n        /* \"#utility.yul\":5797:5803   */\n      dup5\n        /* \"#utility.yul\":5753:5825   */\n      tag_148\n      jump\t// in\n    tag_190:\n        /* \"#utility.yul\":5390:5832   */\n      swap5\n      swap4\n      pop\n      pop\n      pop\n      pop\n      jump\t// out\n        /* \"#utility.yul\":5838:5967   */\n    tag_112:\n        /* \"#utility.yul\":5872:5878   */\n      0x00\n        /* \"#utility.yul\":5899:5919   */\n      tag_192\n      tag_193\n      jump\t// in\n    tag_192:\n        /* \"#utility.yul\":5889:5919   */\n      swap1\n      pop\n        /* \"#utility.yul\":5928:5961   */\n      tag_194\n        /* \"#utility.yul\":5956:5960   */\n      dup3\n        /* \"#utility.yul\":5948:5954   */\n      dup3\n        /* \"#utility.yul\":5928:5961   */\n      tag_195\n      jump\t// in\n    tag_194:\n        /* \"#utility.yul\":5838:5967   */\n      swap2\n      swap1\n      pop\n      jump\t// out\n        /* \"#utility.yul\":5973:6048   */\n    tag_193:\n        /* \"#utility.yul\":6006:6012   */\n      0x00\n        /* \"#utility.yul\":6039:6041   */\n      0x40\n        /* \"#utility.yul\":6033:6042   */\n      mload\n        /* \"#utility.yul\":6023:6042   */\n      swap1\n      pop\n        /* \"#utility.yul\":5973:6048   */\n      swap1\n      jump\t// out\n        /* \"#utility.yul\":6054:6362   */\n    tag_111:\n        /* \"#utility.yul\":6116:6120   */\n      0x00\n        /* \"#utility.yul\":6206:6224   */\n      0xffffffffffffffff\n        /* \"#utility.yul\":6198:6204   */\n      dup3\n        /* \"#utility.yul\":6195:6225   */\n      gt\n        /* \"#utility.yul\":6192:6248   */\n      iszero\n      tag_198\n      jumpi\n        /* \"#utility.yul\":6228:6246   */\n      tag_199\n      tag_200\n      jump\t// in\n    tag_199:\n        /* \"#utility.yul\":6192:6248   */\n    tag_198:\n        /* \"#utility.yul\":6266:6295   */\n      tag_201\n        /* \"#utility.yul\":6288:6294   */\n      dup3\n        /* \"#utility.yul\":6266:6295   */\n      tag_165\n      jump\t// in\n    tag_201:\n        /* \"#utility.yul\":6258:6295   */\n      swap1\n      pop\n        /* \"#utility.yul\":6350:6354   */\n      0x20\n        /* \"#utility.yul\":6344:6348   */\n      dup2\n        /* \"#utility.yul\":6340:6355   */\n      add\n        /* \"#utility.yul\":6332:6355   */\n      swap1\n      pop\n        /* \"#utility.yul\":6054:6362   */\n      swap2\n      swap1\n      pop\n      jump\t// out\n        /* \"#utility.yul\":6368:6467   */\n    tag_159:\n        /* \"#utility.yul\":6420:6426   */\n      0x00\n        /* \"#utility.yul\":6454:6459   */\n      dup2\n        /* \"#utility.yul\":6448:6460   */\n      mload\n        /* \"#utility.yul\":6438:6460   */\n      swap1\n      pop\n        /* \"#utility.yul\":6368:6467   */\n      swap2\n      swap1\n      pop\n      jump\t// out\n        /* \"#utility.yul\":6473:6642   */\n    tag_161:\n        /* \"#utility.yul\":6557:6568   */\n      0x00\n        /* \"#utility.yul\":6591:6597   */\n      dup3\n        /* \"#utility.yul\":6586:6589   */\n      dup3\n        /* \"#utility.yul\":6579:6598   */\n      mstore\n        /* \"#utility.yul\":6631:6635   */\n      0x20\n        /* \"#utility.yul\":6626:6629   */\n      dup3\n        /* \"#utility.yul\":6622:6636   */\n      add\n        /* \"#utility.yul\":6607:6636   */\n      swap1\n      pop\n        /* \"#utility.yul\":6473:6642   */\n      swap3\n      swap2\n      pop\n      pop\n      jump\t// out\n        /* \"#utility.yul\":6648:6996   */\n    tag_63:\n        /* \"#utility.yul\":6688:6695   */\n      0x00\n        /* \"#utility.yul\":6711:6731   */\n      tag_205\n        /* \"#utility.yul\":6729:6730   */\n      dup3\n        /* \"#utility.yul\":6711:6731   */\n      tag_174\n      jump\t// in\n    tag_205:\n        /* \"#utility.yul\":6706:6731   */\n      swap2\n      pop\n        /* \"#utility.yul\":6745:6765   */\n      tag_206\n        /* \"#utility.yul\":6763:6764   */\n      dup4\n        /* \"#utility.yul\":6745:6765   */\n      tag_174\n      jump\t// in\n    tag_206:\n        /* \"#utility.yul\":6740:6765   */\n      swap3\n      pop\n        /* \"#utility.yul\":6933:6934   */\n      dup2\n        /* \"#utility.yul\":6865:6931   */\n      0xffffffffffffffffffffffffffffffffffffffffffffffffffffffffffffffff\n        /* \"#utility.yul\":6861:6935   */\n      div\n        /* \"#utility.yul\":6858:6859   */\n      dup4\n        /* \"#utility.yul\":6855:6936   */\n      gt\n        /* \"#utility.yul\":6850:6851   */\n      dup3\n        /* \"#utility.yul\":6843:6852   */\n      iszero\n        /* \"#utility.yul\":6836:6853   */\n      iszero\n        /* \"#utility.yul\":6832:6937   */\n      and\n        /* \"#utility.yul\":6829:6960   */\n      iszero\n      tag_207\n      jumpi\n        /* \"#utility.yul\":6940:6958   */\n      tag_208\n      tag_209\n      jump\t// in\n    tag_208:\n        /* \"#utility.yul\":6829:6960   */\n    tag_207:\n        /* \"#utility.yul\":6988:6989   */\n      dup3\n        /* \"#utility.yul\":6985:6986   */\n      dup3\n        /* \"#utility.yul\":6981:6990   */\n      mul\n        /* \"#utility.yul\":6970:6990   */\n      swap1\n      pop\n        /* \"#utility.yul\":6648:6996   */\n      swap3\n      swap2\n      pop\n      pop\n      jump\t// out\n        /* \"#utility.yul\":7002:7098   */\n    tag_151:\n        /* \"#utility.yul\":7039:7046   */\n      0x00\n        /* \"#utility.yul\":7068:7092   */\n      tag_211\n        /* \"#utility.yul\":7086:7091   */\n      dup3\n        /* \"#utility.yul\":7068:7092   */\n      tag_212\n      jump\t// in\n    tag_211:\n        /* \"#utility.yul\":7057:7092   */\n      swap1\n      pop\n        /* \"#utility.yul\":7002:7098   */\n      swap2\n      swap1\n      pop\n      jump\t// out\n        /* \"#utility.yul\":7104:7241   */\n    tag_213:\n        /* \"#utility.yul\":7154:7161   */\n      0x00\n        /* \"#utility.yul\":7183:7188   */\n      dup2\n        /* \"#utility.yul\":7172:7188   */\n      swap1\n      pop\n        /* \"#utility.yul\":7189:7235   */\n      tag_215\n        /* \"#utility.yul\":7229:7234   */\n      dup3\n        /* \"#utility.yul\":7189:7235   */\n      tag_216\n      jump\t// in\n    tag_215:\n        /* \"#utility.yul\":7104:7241   */\n      swap2\n      swap1\n      pop\n      jump\t// out\n        /* \"#utility.yul\":7247:7373   */\n    tag_212:\n        /* \"#utility.yul\":7284:7291   */\n      0x00\n        /* \"#utility.yul\":7324:7366   */\n      0xffffffffffffffffffffffffffffffffffffffff\n        /* \"#utility.yul\":7317:7322   */\n      dup3\n        /* \"#utility.yul\":7313:7367   */\n      and\n        /* \"#utility.yul\":7302:7367   */\n      swap1\n      pop\n        /* \"#utility.yul\":7247:7373   */\n      swap2\n      swap1\n      pop\n      jump\t// out\n        /* \"#utility.yul\":7379:7456   */\n    tag_174:\n        /* \"#utility.yul\":7416:7423   */\n      0x00\n        /* \"#utility.yul\":7445:7450   */\n      dup2\n        /* \"#utility.yul\":7434:7450   */\n      swap1\n      pop\n        /* \"#utility.yul\":7379:7456   */\n      swap2\n      swap1\n      pop\n      jump\t// out\n        /* \"#utility.yul\":7462:7599   */\n    tag_155:\n        /* \"#utility.yul\":7523:7532   */\n      0x00\n        /* \"#utility.yul\":7556:7593   */\n      tag_220\n        /* \"#utility.yul\":7587:7592   */\n      dup3\n        /* \"#utility.yul\":7556:7593   */\n      tag_213\n      jump\t// in\n    tag_220:\n        /* \"#utility.yul\":7543:7593   */\n      swap1\n      pop\n        /* \"#utility.yul\":7462:7599   */\n      swap2\n      swap1\n      pop\n      jump\t// out\n        /* \"#utility.yul\":7605:7759   */\n    tag_117:\n        /* \"#utility.yul\":7689:7695   */\n      dup3\n        /* \"#utility.yul\":7684:7687   */\n      dup2\n        /* \"#utility.yul\":7679:7682   */\n      dup4\n        /* \"#utility.yul\":7666:7696   */\n      calldatacopy\n        /* \"#utility.yul\":7751:7752   */\n      0x00\n        /* \"#utility.yul\":7742:7748   */\n      dup4\n        /* \"#utility.yul\":7737:7740   */\n      dup4\n        /* \"#utility.yul\":7733:7749   */\n      add\n        /* \"#utility.yul\":7726:7753   */\n      mstore\n        /* \"#utility.yul\":7605:7759   */\n      pop\n      pop\n      pop\n      jump\t// out\n        /* \"#utility.yul\":7765:8072   */\n    tag_163:\n        /* \"#utility.yul\":7833:7834   */\n      0x00\n        /* \"#utility.yul\":7843:7956   */\n    tag_223:\n        /* \"#utility.yul\":7857:7863   */\n      dup4\n        /* \"#utility.yul\":7854:7855   */\n      dup2\n        /* \"#utility.yul\":7851:7864   */\n      lt\n        /* \"#utility.yul\":7843:7956   */\n      iszero\n      tag_225\n      jumpi\n        /* \"#utility.yul\":7942:7943   */\n      dup1\n        /* \"#utility.yul\":7937:7940   */\n      dup3\n        /* \"#utility.yul\":7933:7944   */\n      add\n        /* \"#utility.yul\":7927:7945   */\n      mload\n        /* \"#utility.yul\":7923:7924   */\n      dup2\n        /* \"#utility.yul\":7918:7921   */\n      dup5\n        /* \"#utility.yul\":7914:7925   */\n      add\n        /* \"#utility.yul\":7907:7946   */\n      mstore\n        /* \"#utility.yul\":7879:7881   */\n      0x20\n        /* \"#utility.yul\":7876:7877   */\n      dup2\n        /* \"#utility.yul\":7872:7882   */\n      add\n        /* \"#utility.yul\":7867:7882   */\n      swap1\n      pop\n        /* \"#utility.yul\":7843:7956   */\n      jump(tag_223)\n    tag_225:\n        /* \"#utility.yul\":7974:7980   */\n      dup4\n        /* \"#utility.yul\":7971:7972   */\n      dup2\n        /* \"#utility.yul\":7968:7981   */\n      gt\n        /* \"#utility.yul\":7965:8066   */\n      iszero\n      tag_226\n      jumpi\n        /* \"#utility.yul\":8054:8055   */\n      0x00\n        /* \"#utility.yul\":8045:8051   */\n      dup5\n        /* \"#utility.yul\":8040:8043   */\n      dup5\n        /* \"#utility.yul\":8036:8052   */\n      add\n        /* \"#utility.yul\":8029:8056   */\n      mstore\n        /* \"#utility.yul\":7965:8066   */\n    tag_226:\n        /* \"#utility.yul\":7814:8072   */\n      pop\n        /* \"#utility.yul\":7765:8072   */\n      pop\n      pop\n      pop\n      jump\t// out\n        /* \"#utility.yul\":8078:8398   */\n    tag_45:\n        /* \"#utility.yul\":8122:8128   */\n      0x00\n        /* \"#utility.yul\":8159:8160   */\n      0x02\n        /* \"#utility.yul\":8153:8157   */\n      dup3\n        /* \"#utility.yul\":8149:8161   */\n      div\n        /* \"#utility.yul\":8139:8161   */\n      swap1\n      pop\n        /* \"#utility.yul\":8206:8207   */\n      0x01\n        /* \"#utility.yul\":8200:8204   */\n      dup3\n        /* \"#utility.yul\":8196:8208   */\n      and\n        /* \"#utility.yul\":8227:8245   */\n      dup1\n        /* \"#utility.yul\":8217:8298   */\n      tag_228\n      jumpi\n        /* \"#utility.yul\":8283:8287   */\n      0x7f\n        /* \"#utility.yul\":8275:8281   */\n      dup3\n        /* \"#utility.yul\":8271:8288   */\n      and\n        /* \"#utility.yul\":8261:8288   */\n      swap2\n      pop\n        /* \"#utility.yul\":8217:8298   */\n    tag_228:\n        /* \"#utility.yul\":8345:8347   */\n      0x20\n        /* \"#utility.yul\":8337:8343   */\n      dup3\n        /* \"#utility.yul\":8334:8348   */\n      lt\n        /* \"#utility.yul\":8314:8332   */\n      dup2\n        /* \"#utility.yul\":8311:8349   */\n      eq\n        /* \"#utility.yul\":8308:8392   */\n      iszero\n      tag_229\n      jumpi\n        /* \"#utility.yul\":8364:8382   */\n      tag_230\n      tag_231\n      jump\t// in\n    tag_230:\n        /* \"#utility.yul\":8308:8392   */\n    tag_229:\n        /* \"#utility.yul\":8129:8398   */\n      pop\n        /* \"#utility.yul\":8078:8398   */\n      swap2\n      swap1\n      pop\n      jump\t// out\n        /* \"#utility.yul\":8404:8685   */\n    tag_195:\n        /* \"#utility.yul\":8487:8514   */\n      tag_233\n        /* \"#utility.yul\":8509:8513   */\n      dup3\n        /* \"#utility.yul\":8487:8514   */\n      tag_165\n      jump\t// in\n    tag_233:\n        /* \"#utility.yul\":8479:8485   */\n      dup2\n        /* \"#utility.yul\":8475:8515   */\n      add\n        /* \"#utility.yul\":8617:8623   */\n      dup2\n        /* \"#utility.yul\":8605:8615   */\n      dup2\n        /* \"#utility.yul\":8602:8624   */\n      lt\n        /* \"#utility.yul\":8581:8599   */\n      0xffffffffffffffff\n        /* \"#utility.yul\":8569:8579   */\n      dup3\n        /* \"#utility.yul\":8566:8600   */\n      gt\n        /* \"#utility.yul\":8563:8625   */\n      or\n        /* \"#utility.yul\":8560:8648   */\n      iszero\n      tag_234\n      jumpi\n        /* \"#utility.yul\":8628:8646   */\n      tag_235\n      tag_200\n      jump\t// in\n    tag_235:\n        /* \"#utility.yul\":8560:8648   */\n    tag_234:\n        /* \"#utility.yul\":8668:8678   */\n      dup1\n        /* \"#utility.yul\":8664:8666   */\n      0x40\n        /* \"#utility.yul\":8657:8679   */\n      mstore\n        /* \"#utility.yul\":8447:8685   */\n      pop\n        /* \"#utility.yul\":8404:8685   */\n      pop\n      pop\n      jump\t// out\n        /* \"#utility.yul\":8691:8871   */\n    tag_209:\n        /* \"#utility.yul\":8739:8816   */\n      0x4e487b7100000000000000000000000000000000000000000000000000000000\n        /* \"#utility.yul\":8736:8737   */\n      0x00\n        /* \"#utility.yul\":8729:8817   */\n      mstore\n        /* \"#utility.yul\":8836:8840   */\n      0x11\n        /* \"#utility.yul\":8833:8834   */\n      0x04\n        /* \"#utility.yul\":8826:8841   */\n      mstore\n        /* \"#utility.yul\":8860:8864   */\n      0x24\n        /* \"#utility.yul\":8857:8858   */\n      0x00\n        /* \"#utility.yul\":8850:8865   */\n      revert\n        /* \"#utility.yul\":8877:9057   */\n    tag_57:\n        /* \"#utility.yul\":8925:9002   */\n      0x4e487b7100000000000000000000000000000000000000000000000000000000\n        /* \"#utility.yul\":8922:8923   */\n      0x00\n        /* \"#utility.yul\":8915:9003   */\n      mstore\n        /* \"#utility.yul\":9022:9026   */\n      0x21\n        /* \"#utility.yul\":9019:9020   */\n      0x04\n        /* \"#utility.yul\":9012:9027   */\n      mstore\n        /* \"#utility.yul\":9046:9050   */\n      0x24\n        /* \"#utility.yul\":9043:9044   */\n      0x00\n        /* \"#utility.yul\":9036:9051   */\n      revert\n        /* \"#utility.yul\":9063:9243   */\n    tag_231:\n        /* \"#utility.yul\":9111:9188   */\n      0x4e487b7100000000000000000000000000000000000000000000000000000000\n        /* \"#utility.yul\":9108:9109   */\n      0x00\n        /* \"#utility.yul\":9101:9189   */\n      mstore\n        /* \"#utility.yul\":9208:9212   */\n      0x22\n        /* \"#utility.yul\":9205:9206   */\n      0x04\n        /* \"#utility.yul\":9198:9213   */\n      mstore\n        /* \"#utility.yul\":9232:9236   */\n      0x24\n        /* \"#utility.yul\":9229:9230   */\n      0x00\n        /* \"#utility.yul\":9222:9237   */\n      revert\n        /* \"#utility.yul\":9249:9429   */\n    tag_200:\n        /* \"#utility.yul\":9297:9374   */\n      0x4e487b7100000000000000000000000000000000000000000000000000000000\n        /* \"#utility.yul\":9294:9295   */\n      0x00\n        /* \"#utility.yul\":9287:9375   */\n      mstore\n        /* \"#utility.yul\":9394:9398   */\n      0x41\n        /* \"#utility.yul\":9391:9392   */\n      0x04\n        /* \"#utility.yul\":9384:9399   */\n      mstore\n        /* \"#utility.yul\":9418:9422   */\n      0x24\n        /* \"#utility.yul\":9415:9416   */\n      0x00\n        /* \"#utility.yul\":9408:9423   */\n      revert\n        /* \"#utility.yul\":9435:9552   */\n    tag_126:\n        /* \"#utility.yul\":9544:9545   */\n      0x00\n        /* \"#utility.yul\":9541:9542   */\n      dup1\n        /* \"#utility.yul\":9534:9546   */\n      revert\n        /* \"#utility.yul\":9558:9675   */\n    tag_115:\n        /* \"#utility.yul\":9667:9668   */\n      0x00\n        /* \"#utility.yul\":9664:9665   */\n      dup1\n        /* \"#utility.yul\":9657:9669   */\n      revert\n        /* \"#utility.yul\":9681:9798   */\n    tag_142:\n        /* \"#utility.yul\":9790:9791   */\n      0x00\n        /* \"#utility.yul\":9787:9788   */\n      dup1\n        /* \"#utility.yul\":9780:9792   */\n      revert\n        /* \"#utility.yul\":9804:9921   */\n    tag_135:\n        /* \"#utility.yul\":9913:9914   */\n      0x00\n        /* \"#utility.yul\":9910:9911   */\n      dup1\n        /* \"#utility.yul\":9903:9915   */\n      revert\n        /* \"#utility.yul\":9927:10029   */\n    tag_165:\n        /* \"#utility.yul\":9968:9974   */\n      0x00\n        /* \"#utility.yul\":10019:10021   */\n      0x1f\n        /* \"#utility.yul\":10015:10022   */\n      not\n        /* \"#utility.yul\":10010:10012   */\n      0x1f\n        /* \"#utility.yul\":10003:10008   */\n      dup4\n        /* \"#utility.yul\":9999:10013   */\n      add\n        /* \"#utility.yul\":9995:10023   */\n      and\n        /* \"#utility.yul\":9985:10023   */\n      swap1\n      pop\n        /* \"#utility.yul\":9927:10029   */\n      swap2\n      swap1\n      pop\n      jump\t// out\n        /* \"#utility.yul\":10035:10214   */\n    tag_170:\n        /* \"#utility.yul\":10175:10206   */\n      0x706c656173652073656c6563742074686520636c617373206669727374000000\n        /* \"#utility.yul\":10171:10172   */\n      0x00\n        /* \"#utility.yul\":10163:10169   */\n      dup3\n        /* \"#utility.yul\":10159:10173   */\n      add\n        /* \"#utility.yul\":10152:10207   */\n      mstore\n        /* \"#utility.yul\":10035:10214   */\n      pop\n      jump\t// out\n        /* \"#utility.yul\":10220:10338   */\n    tag_216:\n        /* \"#utility.yul\":10306:10307   */\n      0x03\n        /* \"#utility.yul\":10299:10304   */\n      dup2\n        /* \"#utility.yul\":10296:10308   */\n      lt\n        /* \"#utility.yul\":10286:10332   */\n      tag_247\n      jumpi\n        /* \"#utility.yul\":10312:10330   */\n      tag_248\n      tag_57\n      jump\t// in\n    tag_248:\n        /* \"#utility.yul\":10286:10332   */\n    tag_247:\n        /* \"#utility.yul\":10220:10338   */\n      pop\n      jump\t// out\n        /* \"#utility.yul\":10344:10466   */\n    tag_121:\n        /* \"#utility.yul\":10417:10441   */\n      tag_250\n        /* \"#utility.yul\":10435:10440   */\n      dup2\n        /* \"#utility.yul\":10417:10441   */\n      tag_151\n      jump\t// in\n    tag_250:\n        /* \"#utility.yul\":10410:10415   */\n      dup2\n        /* \"#utility.yul\":10407:10442   */\n      eq\n        /* \"#utility.yul\":10397:10460   */\n      tag_251\n      jumpi\n        /* \"#utility.yul\":10456:10457   */\n      0x00\n        /* \"#utility.yul\":10453:10454   */\n      dup1\n        /* \"#utility.yul\":10446:10458   */\n      revert\n        /* \"#utility.yul\":10397:10460   */\n    tag_251:\n        /* \"#utility.yul\":10344:10466   */\n      pop\n      jump\t// out\n        /* \"#utility.yul\":10472:10594   */\n    tag_131:\n        /* \"#utility.yul\":10545:10569   */\n      tag_253\n        /* \"#utility.yul\":10563:10568   */\n      dup2\n        /* \"#utility.yul\":10545:10569   */\n      tag_174\n      jump\t// in\n    tag_253:\n        /* \"#utility.yul\":10538:10543   */\n      dup2\n        /* \"#utility.yul\":10535:10570   */\n      eq\n        /* \"#utility.yul\":10525:10588   */\n      tag_254\n      jumpi\n        /* \"#utility.yul\":10584:10585   */\n      0x00\n        /* \"#utility.yul\":10581:10582   */\n      dup1\n        /* \"#utility.yul\":10574:10586   */\n      revert\n        /* \"#utility.yul\":10525:10588   */\n    tag_254:\n        /* \"#utility.yul\":10472:10594   */\n      pop\n      jump\t// out\n\n    auxdata: 0xa264697066735822122070de7ffcc337cfbe12a4208c922e4ae0a72a9781e6fe3cf9d6836d005acafe3e64736f6c63430008070033\n}\n",
				"bytecode": {
					"linkReferences": {},
					"object": "608060405260008060006101000a81548160ff0219169083151502179055506040518060400160405280600d81526020017f45636f6e6f6d7920436c61737300000000000000000000000000000000000000815250600290805190602001906200006b929190620000b3565b5060016004556001600660006101000a81548160ff021916908360028111156200009a576200009962000199565b5b0217905550348015620000ac57600080fd5b50620001f7565b828054620000c19062000163565b90600052602060002090601f016020900481019282620000e5576000855562000131565b82601f106200010057805160ff191683800117855562000131565b8280016001018555821562000131579182015b828111156200013057825182559160200191906001019062000113565b5b50905062000140919062000144565b5090565b5b808211156200015f57600081600090555060010162000145565b5090565b600060028204905060018216806200017c57607f821691505b60208210811415620001935762000192620001c8565b5b50919050565b7f4e487b7100000000000000000000000000000000000000000000000000000000600052602160045260246000fd5b7f4e487b7100000000000000000000000000000000000000000000000000000000600052602260045260246000fd5b610e6680620002076000396000f3fe608060405234801561001057600080fd5b50600436106100885760003560e01c80637a1736d11161005b5780637a1736d1146100ef578063993a04b7146100f9578063b24fa0e414610119578063b90d3d0c1461012357610088565b806317ae45891461008d5780631aa35610146100a95780634fb2e0be146100c757806350183507146100e5575b600080fd5b6100a760048036038101906100a29190610909565b610157565b005b6100b1610309565b6040516100be9190610a1d565b60405180910390f35b6100cf61031c565b6040516100dc9190610ac0565b60405180910390f35b6100ed610322565b005b6100f7610404565b005b6101016104e5565b60405161011093929190610adb565b60405180910390f35b6101216104ef565b005b61013d600480360381019061013891906108dc565b6105d1565b60405161014e959493929190610a38565b60405180910390f35b60008054906101000a900460ff166101a4576040517f08c379a000000000000000000000000000000000000000000000000000000000815260040161019b90610aa0565b60405180910390fd5b6040518060a00160405280848152602001838152602001828152602001600280546101ce90610c81565b80601f01602080910402602001604051908101604052809291908181526020018280546101fa90610c81565b80156102475780601f1061021c57610100808354040283529160200191610247565b820191906000526020600020905b81548152906001019060200180831161022a57829003601f168201915b50505050508152602001600354815250600560003373ffffffffffffffffffffffffffffffffffffffff1673ffffffffffffffffffffffffffffffffffffffff16815260200190815260200160002060008201518160000190805190602001906102b292919061079f565b5060208201518160010190805190602001906102cf92919061079f565b506040820151816002015560608201518160030190805190602001906102f692919061079f565b5060808201518160040155905050505050565b600660009054906101000a900460ff1681565b60045481565b6000600660006101000a81548160ff0219169083600281111561034857610347610d13565b5b0217905550600660009054906101000a900460ff16600281111561036f5761036e610d13565b5b600181905550600060015414156103e8576040518060400160405280600b81526020017f466972737420436c617373000000000000000000000000000000000000000000815250600290805190602001906103cb92919061079f565b50662386f26fc100006004546103e19190610b84565b6003819055505b60016000806101000a81548160ff021916908315150217905550565b6001600660006101000a81548160ff0219169083600281111561042a57610429610d13565b5b0217905550600660009054906101000a900460ff16600281111561045157610450610d13565b5b6001819055506001805414156104c9576040518060400160405280600d81526020017f45636f6e6f6d7920436c61737300000000000000000000000000000000000000815250600290805190602001906104ac92919061079f565b506611c37937e080006004546104c29190610b84565b6003819055505b60016000806101000a81548160ff021916908315150217905550565b6000806000909192565b6002600660006101000a81548160ff0219169083600281111561051557610514610d13565b5b0217905550600660009054906101000a900460ff16600281111561053c5761053b610d13565b5b600181905550600260015414156105b5576040518060400160405280600d81526020017f4275736e69737320436c617373000000000000000000000000000000000000008152506002908051906020019061059892919061079f565b506618de76816d80006004546105ae9190610b84565b6003819055505b60016000806101000a81548160ff021916908315150217905550565b60056020528060005260406000206000915090508060000180546105f490610c81565b80601f016020809104026020016040519081016040528092919081815260200182805461062090610c81565b801561066d5780601f106106425761010080835404028352916020019161066d565b820191906000526020600020905b81548152906001019060200180831161065057829003601f168201915b50505050509080600101805461068290610c81565b80601f01602080910402602001604051908101604052809291908181526020018280546106ae90610c81565b80156106fb5780601f106106d0576101008083540402835291602001916106fb565b820191906000526020600020905b8154815290600101906020018083116106de57829003601f168201915b50505050509080600201549080600301805461071690610c81565b80601f016020809104026020016040519081016040528092919081815260200182805461074290610c81565b801561078f5780601f106107645761010080835404028352916020019161078f565b820191906000526020600020905b81548152906001019060200180831161077257829003601f168201915b5050505050908060040154905085565b8280546107ab90610c81565b90600052602060002090601f0160209004810192826107cd5760008555610814565b82601f106107e657805160ff1916838001178555610814565b82800160010185558215610814579182015b828111156108135782518255916020019190600101906107f8565b5b5090506108219190610825565b5090565b5b8082111561083e576000816000905550600101610826565b5090565b600061085561085084610b37565b610b12565b90508281526020810184848401111561087157610870610da5565b5b61087c848285610c3f565b509392505050565b60008135905061089381610e02565b92915050565b600082601f8301126108ae576108ad610da0565b5b81356108be848260208601610842565b91505092915050565b6000813590506108d681610e19565b92915050565b6000602082840312156108f2576108f1610daf565b5b600061090084828501610884565b91505092915050565b60008060006060848603121561092257610921610daf565b5b600084013567ffffffffffffffff8111156109405761093f610daa565b5b61094c86828701610899565b935050602084013567ffffffffffffffff81111561096d5761096c610daa565b5b61097986828701610899565b925050604061098a868287016108c7565b9150509250925092565b61099d81610bde565b82525050565b6109ac81610c2d565b82525050565b60006109bd82610b68565b6109c78185610b73565b93506109d7818560208601610c4e565b6109e081610db4565b840191505092915050565b60006109f8601d83610b73565b9150610a0382610dc5565b602082019050919050565b610a1781610c23565b82525050565b6000602082019050610a3260008301846109a3565b92915050565b600060a0820190508181036000830152610a5281886109b2565b90508181036020830152610a6681876109b2565b9050610a756040830186610a0e565b8181036060830152610a8781856109b2565b9050610a966080830184610a0e565b9695505050505050565b60006020820190508181036000830152610ab9816109eb565b9050919050565b6000602082019050610ad56000830184610a0e565b92915050565b6000606082019050610af06000830186610a0e565b610afd6020830185610a0e565b610b0a6040830184610994565b949350505050565b6000610b1c610b2d565b9050610b288282610cb3565b919050565b6000604051905090565b600067ffffffffffffffff821115610b5257610b51610d71565b5b610b5b82610db4565b9050602081019050919050565b600081519050919050565b600082825260208201905092915050565b6000610b8f82610c23565b9150610b9a83610c23565b9250817fffffffffffffffffffffffffffffffffffffffffffffffffffffffffffffffff0483118215151615610bd357610bd2610ce4565b5b828202905092915050565b6000610be982610c03565b9050919050565b6000819050610bfe82610dee565b919050565b600073ffffffffffffffffffffffffffffffffffffffff82169050919050565b6000819050919050565b6000610c3882610bf0565b9050919050565b82818337600083830152505050565b60005b83811015610c6c578082015181840152602081019050610c51565b83811115610c7b576000848401525b50505050565b60006002820490506001821680610c9957607f821691505b60208210811415610cad57610cac610d42565b5b50919050565b610cbc82610db4565b810181811067ffffffffffffffff82111715610cdb57610cda610d71565b5b80604052505050565b7f4e487b7100000000000000000000000000000000000000000000000000000000600052601160045260246000fd5b7f4e487b7100000000000000000000000000000000000000000000000000000000600052602160045260246000fd5b7f4e487b7100000000000000000000000000000000000000000000000000000000600052602260045260246000fd5b7f4e487b7100000000000000000000000000000000000000000000000000000000600052604160045260246000fd5b600080fd5b600080fd5b600080fd5b600080fd5b6000601f19601f8301169050919050565b7f706c656173652073656c6563742074686520636c617373206669727374000000600082015250565b60038110610dff57610dfe610d13565b5b50565b610e0b81610bde565b8114610e1657600080fd5b50565b610e2281610c23565b8114610e2d57600080fd5b5056fea264697066735822122070de7ffcc337cfbe12a4208c922e4ae0a72a9781e6fe3cf9d6836d005acafe3e64736f6c63430008070033",
					"opcodes": "PUSH1 0x80 PUSH1 0x40 MSTORE PUSH1 0x0 DUP1 PUSH1 0x0 PUSH2 0x100 EXP DUP2 SLOAD DUP2 PUSH1 0xFF MUL NOT AND SWAP1 DUP4 ISZERO ISZERO MUL OR SWAP1 SSTORE POP PUSH1 0x40 MLOAD DUP1 PUSH1 0x40 ADD PUSH1 0x40 MSTORE DUP1 PUSH1 0xD DUP2 MSTORE PUSH1 0x20 ADD PUSH32 0x45636F6E6F6D7920436C61737300000000000000000000000000000000000000 DUP2 MSTORE POP PUSH1 0x2 SWAP1 DUP1 MLOAD SWAP1 PUSH1 0x20 ADD SWAP1 PUSH3 0x6B SWAP3 SWAP2 SWAP1 PUSH3 0xB3 JUMP JUMPDEST POP PUSH1 0x1 PUSH1 0x4 SSTORE PUSH1 0x1 PUSH1 0x6 PUSH1 0x0 PUSH2 0x100 EXP DUP2 SLOAD DUP2 PUSH1 0xFF MUL NOT AND SWAP1 DUP4 PUSH1 0x2 DUP2 GT ISZERO PUSH3 0x9A JUMPI PUSH3 0x99 PUSH3 0x199 JUMP JUMPDEST JUMPDEST MUL OR SWAP1 SSTORE POP CALLVALUE DUP1 ISZERO PUSH3 0xAC JUMPI PUSH1 0x0 DUP1 REVERT JUMPDEST POP PUSH3 0x1F7 JUMP JUMPDEST DUP3 DUP1 SLOAD PUSH3 0xC1 SWAP1 PUSH3 0x163 JUMP JUMPDEST SWAP1 PUSH1 0x0 MSTORE PUSH1 0x20 PUSH1 0x0 KECCAK256 SWAP1 PUSH1 0x1F ADD PUSH1 0x20 SWAP1 DIV DUP2 ADD SWAP3 DUP3 PUSH3 0xE5 JUMPI PUSH1 0x0 DUP6 SSTORE PUSH3 0x131 JUMP JUMPDEST DUP3 PUSH1 0x1F LT PUSH3 0x100 JUMPI DUP1 MLOAD PUSH1 0xFF NOT AND DUP4 DUP1 ADD OR DUP6 SSTORE PUSH3 0x131 JUMP JUMPDEST DUP3 DUP1 ADD PUSH1 0x1 ADD DUP6 SSTORE DUP3 ISZERO PUSH3 0x131 JUMPI SWAP2 DUP3 ADD JUMPDEST DUP3 DUP2 GT ISZERO PUSH3 0x130 JUMPI DUP3 MLOAD DUP3 SSTORE SWAP2 PUSH1 0x20 ADD SWAP2 SWAP1 PUSH1 0x1 ADD SWAP1 PUSH3 0x113 JUMP JUMPDEST JUMPDEST POP SWAP1 POP PUSH3 0x140 SWAP2 SWAP1 PUSH3 0x144 JUMP JUMPDEST POP SWAP1 JUMP JUMPDEST JUMPDEST DUP1 DUP3 GT ISZERO PUSH3 0x15F JUMPI PUSH1 0x0 DUP2 PUSH1 0x0 SWAP1 SSTORE POP PUSH1 0x1 ADD PUSH3 0x145 JUMP JUMPDEST POP SWAP1 JUMP JUMPDEST PUSH1 0x0 PUSH1 0x2 DUP3 DIV SWAP1 POP PUSH1 0x1 DUP3 AND DUP1 PUSH3 0x17C JUMPI PUSH1 0x7F DUP3 AND SWAP2 POP JUMPDEST PUSH1 0x20 DUP3 LT DUP2 EQ ISZERO PUSH3 0x193 JUMPI PUSH3 0x192 PUSH3 0x1C8 JUMP JUMPDEST JUMPDEST POP SWAP2 SWAP1 POP JUMP JUMPDEST PUSH32 0x4E487B7100000000000000000000000000000000000000000000000000000000 PUSH1 0x0 MSTORE PUSH1 0x21 PUSH1 0x4 MSTORE PUSH1 0x24 PUSH1 0x0 REVERT JUMPDEST PUSH32 0x4E487B7100000000000000000000000000000000000000000000000000000000 PUSH1 0x0 MSTORE PUSH1 0x22 PUSH1 0x4 MSTORE PUSH1 0x24 PUSH1 0x0 REVERT JUMPDEST PUSH2 0xE66 DUP1 PUSH3 0x207 PUSH1 0x0 CODECOPY PUSH1 0x0 RETURN INVALID PUSH1 0x80 PUSH1 0x40 MSTORE CALLVALUE DUP1 ISZERO PUSH2 0x10 JUMPI PUSH1 0x0 DUP1 REVERT JUMPDEST POP PUSH1 0x4 CALLDATASIZE LT PUSH2 0x88 JUMPI PUSH1 0x0 CALLDATALOAD PUSH1 0xE0 SHR DUP1 PUSH4 0x7A1736D1 GT PUSH2 0x5B JUMPI DUP1 PUSH4 0x7A1736D1 EQ PUSH2 0xEF JUMPI DUP1 PUSH4 0x993A04B7 EQ PUSH2 0xF9 JUMPI DUP1 PUSH4 0xB24FA0E4 EQ PUSH2 0x119 JUMPI DUP1 PUSH4 0xB90D3D0C EQ PUSH2 0x123 JUMPI PUSH2 0x88 JUMP JUMPDEST DUP1 PUSH4 0x17AE4589 EQ PUSH2 0x8D JUMPI DUP1 PUSH4 0x1AA35610 EQ PUSH2 0xA9 JUMPI DUP1 PUSH4 0x4FB2E0BE EQ PUSH2 0xC7 JUMPI DUP1 PUSH4 0x50183507 EQ PUSH2 0xE5 JUMPI JUMPDEST PUSH1 0x0 DUP1 REVERT JUMPDEST PUSH2 0xA7 PUSH1 0x4 DUP1 CALLDATASIZE SUB DUP2 ADD SWAP1 PUSH2 0xA2 SWAP2 SWAP1 PUSH2 0x909 JUMP JUMPDEST PUSH2 0x157 JUMP JUMPDEST STOP JUMPDEST PUSH2 0xB1 PUSH2 0x309 JUMP JUMPDEST PUSH1 0x40 MLOAD PUSH2 0xBE SWAP2 SWAP1 PUSH2 0xA1D JUMP JUMPDEST PUSH1 0x40 MLOAD DUP1 SWAP2 SUB SWAP1 RETURN JUMPDEST PUSH2 0xCF PUSH2 0x31C JUMP JUMPDEST PUSH1 0x40 MLOAD PUSH2 0xDC SWAP2 SWAP1 PUSH2 0xAC0 JUMP JUMPDEST PUSH1 0x40 MLOAD DUP1 SWAP2 SUB SWAP1 RETURN JUMPDEST PUSH2 0xED PUSH2 0x322 JUMP JUMPDEST STOP JUMPDEST PUSH2 0xF7 PUSH2 0x404 JUMP JUMPDEST STOP JUMPDEST PUSH2 0x101 PUSH2 0x4E5 JUMP JUMPDEST PUSH1 0x40 MLOAD PUSH2 0x110 SWAP4 SWAP3 SWAP2 SWAP1 PUSH2 0xADB JUMP JUMPDEST PUSH1 0x40 MLOAD DUP1 SWAP2 SUB SWAP1 RETURN JUMPDEST PUSH2 0x121 PUSH2 0x4EF JUMP JUMPDEST STOP JUMPDEST PUSH2 0x13D PUSH1 0x4 DUP1 CALLDATASIZE SUB DUP2 ADD SWAP1 PUSH2 0x138 SWAP2 SWAP1 PUSH2 0x8DC JUMP JUMPDEST PUSH2 0x5D1 JUMP JUMPDEST PUSH1 0x40 MLOAD PUSH2 0x14E SWAP6 SWAP5 SWAP4 SWAP3 SWAP2 SWAP1 PUSH2 0xA38 JUMP JUMPDEST PUSH1 0x40 MLOAD DUP1 SWAP2 SUB SWAP1 RETURN JUMPDEST PUSH1 0x0 DUP1 SLOAD SWAP1 PUSH2 0x100 EXP SWAP1 DIV PUSH1 0xFF AND PUSH2 0x1A4 JUMPI PUSH1 0x40 MLOAD PUSH32 0x8C379A000000000000000000000000000000000000000000000000000000000 DUP2 MSTORE PUSH1 0x4 ADD PUSH2 0x19B SWAP1 PUSH2 0xAA0 JUMP JUMPDEST PUSH1 0x40 MLOAD DUP1 SWAP2 SUB SWAP1 REVERT JUMPDEST PUSH1 0x40 MLOAD DUP1 PUSH1 0xA0 ADD PUSH1 0x40 MSTORE DUP1 DUP5 DUP2 MSTORE PUSH1 0x20 ADD DUP4 DUP2 MSTORE PUSH1 0x20 ADD DUP3 DUP2 MSTORE PUSH1 0x20 ADD PUSH1 0x2 DUP1 SLOAD PUSH2 0x1CE SWAP1 PUSH2 0xC81 JUMP JUMPDEST DUP1 PUSH1 0x1F ADD PUSH1 0x20 DUP1 SWAP2 DIV MUL PUSH1 0x20 ADD PUSH1 0x40 MLOAD SWAP1 DUP2 ADD PUSH1 0x40 MSTORE DUP1 SWAP3 SWAP2 SWAP1 DUP2 DUP2 MSTORE PUSH1 0x20 ADD DUP3 DUP1 SLOAD PUSH2 0x1FA SWAP1 PUSH2 0xC81 JUMP JUMPDEST DUP1 ISZERO PUSH2 0x247 JUMPI DUP1 PUSH1 0x1F LT PUSH2 0x21C JUMPI PUSH2 0x100 DUP1 DUP4 SLOAD DIV MUL DUP4 MSTORE SWAP2 PUSH1 0x20 ADD SWAP2 PUSH2 0x247 JUMP JUMPDEST DUP3 ADD SWAP2 SWAP1 PUSH1 0x0 MSTORE PUSH1 0x20 PUSH1 0x0 KECCAK256 SWAP1 JUMPDEST DUP2 SLOAD DUP2 MSTORE SWAP1 PUSH1 0x1 ADD SWAP1 PUSH1 0x20 ADD DUP1 DUP4 GT PUSH2 0x22A JUMPI DUP3 SWAP1 SUB PUSH1 0x1F AND DUP3 ADD SWAP2 JUMPDEST POP POP POP POP POP DUP2 MSTORE PUSH1 0x20 ADD PUSH1 0x3 SLOAD DUP2 MSTORE POP PUSH1 0x5 PUSH1 0x0 CALLER PUSH20 0xFFFFFFFFFFFFFFFFFFFFFFFFFFFFFFFFFFFFFFFF AND PUSH20 0xFFFFFFFFFFFFFFFFFFFFFFFFFFFFFFFFFFFFFFFF AND DUP2 MSTORE PUSH1 0x20 ADD SWAP1 DUP2 MSTORE PUSH1 0x20 ADD PUSH1 0x0 KECCAK256 PUSH1 0x0 DUP3 ADD MLOAD DUP2 PUSH1 0x0 ADD SWAP1 DUP1 MLOAD SWAP1 PUSH1 0x20 ADD SWAP1 PUSH2 0x2B2 SWAP3 SWAP2 SWAP1 PUSH2 0x79F JUMP JUMPDEST POP PUSH1 0x20 DUP3 ADD MLOAD DUP2 PUSH1 0x1 ADD SWAP1 DUP1 MLOAD SWAP1 PUSH1 0x20 ADD SWAP1 PUSH2 0x2CF SWAP3 SWAP2 SWAP1 PUSH2 0x79F JUMP JUMPDEST POP PUSH1 0x40 DUP3 ADD MLOAD DUP2 PUSH1 0x2 ADD SSTORE PUSH1 0x60 DUP3 ADD MLOAD DUP2 PUSH1 0x3 ADD SWAP1 DUP1 MLOAD SWAP1 PUSH1 0x20 ADD SWAP1 PUSH2 0x2F6 SWAP3 SWAP2 SWAP1 PUSH2 0x79F JUMP JUMPDEST POP PUSH1 0x80 DUP3 ADD MLOAD DUP2 PUSH1 0x4 ADD SSTORE SWAP1 POP POP POP POP POP JUMP JUMPDEST PUSH1 0x6 PUSH1 0x0 SWAP1 SLOAD SWAP1 PUSH2 0x100 EXP SWAP1 DIV PUSH1 0xFF AND DUP2 JUMP JUMPDEST PUSH1 0x4 SLOAD DUP2 JUMP JUMPDEST PUSH1 0x0 PUSH1 0x6 PUSH1 0x0 PUSH2 0x100 EXP DUP2 SLOAD DUP2 PUSH1 0xFF MUL NOT AND SWAP1 DUP4 PUSH1 0x2 DUP2 GT ISZERO PUSH2 0x348 JUMPI PUSH2 0x347 PUSH2 0xD13 JUMP JUMPDEST JUMPDEST MUL OR SWAP1 SSTORE POP PUSH1 0x6 PUSH1 0x0 SWAP1 SLOAD SWAP1 PUSH2 0x100 EXP SWAP1 DIV PUSH1 0xFF AND PUSH1 0x2 DUP2 GT ISZERO PUSH2 0x36F JUMPI PUSH2 0x36E PUSH2 0xD13 JUMP JUMPDEST JUMPDEST PUSH1 0x1 DUP2 SWAP1 SSTORE POP PUSH1 0x0 PUSH1 0x1 SLOAD EQ ISZERO PUSH2 0x3E8 JUMPI PUSH1 0x40 MLOAD DUP1 PUSH1 0x40 ADD PUSH1 0x40 MSTORE DUP1 PUSH1 0xB DUP2 MSTORE PUSH1 0x20 ADD PUSH32 0x466972737420436C617373000000000000000000000000000000000000000000 DUP2 MSTORE POP PUSH1 0x2 SWAP1 DUP1 MLOAD SWAP1 PUSH1 0x20 ADD SWAP1 PUSH2 0x3CB SWAP3 SWAP2 SWAP1 PUSH2 0x79F JUMP JUMPDEST POP PUSH7 0x2386F26FC10000 PUSH1 0x4 SLOAD PUSH2 0x3E1 SWAP2 SWAP1 PUSH2 0xB84 JUMP JUMPDEST PUSH1 0x3 DUP2 SWAP1 SSTORE POP JUMPDEST PUSH1 0x1 PUSH1 0x0 DUP1 PUSH2 0x100 EXP DUP2 SLOAD DUP2 PUSH1 0xFF MUL NOT AND SWAP1 DUP4 ISZERO ISZERO MUL OR SWAP1 SSTORE POP JUMP JUMPDEST PUSH1 0x1 PUSH1 0x6 PUSH1 0x0 PUSH2 0x100 EXP DUP2 SLOAD DUP2 PUSH1 0xFF MUL NOT AND SWAP1 DUP4 PUSH1 0x2 DUP2 GT ISZERO PUSH2 0x42A JUMPI PUSH2 0x429 PUSH2 0xD13 JUMP JUMPDEST JUMPDEST MUL OR SWAP1 SSTORE POP PUSH1 0x6 PUSH1 0x0 SWAP1 SLOAD SWAP1 PUSH2 0x100 EXP SWAP1 DIV PUSH1 0xFF AND PUSH1 0x2 DUP2 GT ISZERO PUSH2 0x451 JUMPI PUSH2 0x450 PUSH2 0xD13 JUMP JUMPDEST JUMPDEST PUSH1 0x1 DUP2 SWAP1 SSTORE POP PUSH1 0x1 DUP1 SLOAD EQ ISZERO PUSH2 0x4C9 JUMPI PUSH1 0x40 MLOAD DUP1 PUSH1 0x40 ADD PUSH1 0x40 MSTORE DUP1 PUSH1 0xD DUP2 MSTORE PUSH1 0x20 ADD PUSH32 0x45636F6E6F6D7920436C61737300000000000000000000000000000000000000 DUP2 MSTORE POP PUSH1 0x2 SWAP1 DUP1 MLOAD SWAP1 PUSH1 0x20 ADD SWAP1 PUSH2 0x4AC SWAP3 SWAP2 SWAP1 PUSH2 0x79F JUMP JUMPDEST POP PUSH7 0x11C37937E08000 PUSH1 0x4 SLOAD PUSH2 0x4C2 SWAP2 SWAP1 PUSH2 0xB84 JUMP JUMPDEST PUSH1 0x3 DUP2 SWAP1 SSTORE POP JUMPDEST PUSH1 0x1 PUSH1 0x0 DUP1 PUSH2 0x100 EXP DUP2 SLOAD DUP2 PUSH1 0xFF MUL NOT AND SWAP1 DUP4 ISZERO ISZERO MUL OR SWAP1 SSTORE POP JUMP JUMPDEST PUSH1 0x0 DUP1 PUSH1 0x0 SWAP1 SWAP2 SWAP3 JUMP JUMPDEST PUSH1 0x2 PUSH1 0x6 PUSH1 0x0 PUSH2 0x100 EXP DUP2 SLOAD DUP2 PUSH1 0xFF MUL NOT AND SWAP1 DUP4 PUSH1 0x2 DUP2 GT ISZERO PUSH2 0x515 JUMPI PUSH2 0x514 PUSH2 0xD13 JUMP JUMPDEST JUMPDEST MUL OR SWAP1 SSTORE POP PUSH1 0x6 PUSH1 0x0 SWAP1 SLOAD SWAP1 PUSH2 0x100 EXP SWAP1 DIV PUSH1 0xFF AND PUSH1 0x2 DUP2 GT ISZERO PUSH2 0x53C JUMPI PUSH2 0x53B PUSH2 0xD13 JUMP JUMPDEST JUMPDEST PUSH1 0x1 DUP2 SWAP1 SSTORE POP PUSH1 0x2 PUSH1 0x1 SLOAD EQ ISZERO PUSH2 0x5B5 JUMPI PUSH1 0x40 MLOAD DUP1 PUSH1 0x40 ADD PUSH1 0x40 MSTORE DUP1 PUSH1 0xD DUP2 MSTORE PUSH1 0x20 ADD PUSH32 0x4275736E69737320436C61737300000000000000000000000000000000000000 DUP2 MSTORE POP PUSH1 0x2 SWAP1 DUP1 MLOAD SWAP1 PUSH1 0x20 ADD SWAP1 PUSH2 0x598 SWAP3 SWAP2 SWAP1 PUSH2 0x79F JUMP JUMPDEST POP PUSH7 0x18DE76816D8000 PUSH1 0x4 SLOAD PUSH2 0x5AE SWAP2 SWAP1 PUSH2 0xB84 JUMP JUMPDEST PUSH1 0x3 DUP2 SWAP1 SSTORE POP JUMPDEST PUSH1 0x1 PUSH1 0x0 DUP1 PUSH2 0x100 EXP DUP2 SLOAD DUP2 PUSH1 0xFF MUL NOT AND SWAP1 DUP4 ISZERO ISZERO MUL OR SWAP1 SSTORE POP JUMP JUMPDEST PUSH1 0x5 PUSH1 0x20 MSTORE DUP1 PUSH1 0x0 MSTORE PUSH1 0x40 PUSH1 0x0 KECCAK256 PUSH1 0x0 SWAP2 POP SWAP1 POP DUP1 PUSH1 0x0 ADD DUP1 SLOAD PUSH2 0x5F4 SWAP1 PUSH2 0xC81 JUMP JUMPDEST DUP1 PUSH1 0x1F ADD PUSH1 0x20 DUP1 SWAP2 DIV MUL PUSH1 0x20 ADD PUSH1 0x40 MLOAD SWAP1 DUP2 ADD PUSH1 0x40 MSTORE DUP1 SWAP3 SWAP2 SWAP1 DUP2 DUP2 MSTORE PUSH1 0x20 ADD DUP3 DUP1 SLOAD PUSH2 0x620 SWAP1 PUSH2 0xC81 JUMP JUMPDEST DUP1 ISZERO PUSH2 0x66D JUMPI DUP1 PUSH1 0x1F LT PUSH2 0x642 JUMPI PUSH2 0x100 DUP1 DUP4 SLOAD DIV MUL DUP4 MSTORE SWAP2 PUSH1 0x20 ADD SWAP2 PUSH2 0x66D JUMP JUMPDEST DUP3 ADD SWAP2 SWAP1 PUSH1 0x0 MSTORE PUSH1 0x20 PUSH1 0x0 KECCAK256 SWAP1 JUMPDEST DUP2 SLOAD DUP2 MSTORE SWAP1 PUSH1 0x1 ADD SWAP1 PUSH1 0x20 ADD DUP1 DUP4 GT PUSH2 0x650 JUMPI DUP3 SWAP1 SUB PUSH1 0x1F AND DUP3 ADD SWAP2 JUMPDEST POP POP POP POP POP SWAP1 DUP1 PUSH1 0x1 ADD DUP1 SLOAD PUSH2 0x682 SWAP1 PUSH2 0xC81 JUMP JUMPDEST DUP1 PUSH1 0x1F ADD PUSH1 0x20 DUP1 SWAP2 DIV MUL PUSH1 0x20 ADD PUSH1 0x40 MLOAD SWAP1 DUP2 ADD PUSH1 0x40 MSTORE DUP1 SWAP3 SWAP2 SWAP1 DUP2 DUP2 MSTORE PUSH1 0x20 ADD DUP3 DUP1 SLOAD PUSH2 0x6AE SWAP1 PUSH2 0xC81 JUMP JUMPDEST DUP1 ISZERO PUSH2 0x6FB JUMPI DUP1 PUSH1 0x1F LT PUSH2 0x6D0 JUMPI PUSH2 0x100 DUP1 DUP4 SLOAD DIV MUL DUP4 MSTORE SWAP2 PUSH1 0x20 ADD SWAP2 PUSH2 0x6FB JUMP JUMPDEST DUP3 ADD SWAP2 SWAP1 PUSH1 0x0 MSTORE PUSH1 0x20 PUSH1 0x0 KECCAK256 SWAP1 JUMPDEST DUP2 SLOAD DUP2 MSTORE SWAP1 PUSH1 0x1 ADD SWAP1 PUSH1 0x20 ADD DUP1 DUP4 GT PUSH2 0x6DE JUMPI DUP3 SWAP1 SUB PUSH1 0x1F AND DUP3 ADD SWAP2 JUMPDEST POP POP POP POP POP SWAP1 DUP1 PUSH1 0x2 ADD SLOAD SWAP1 DUP1 PUSH1 0x3 ADD DUP1 SLOAD PUSH2 0x716 SWAP1 PUSH2 0xC81 JUMP JUMPDEST DUP1 PUSH1 0x1F ADD PUSH1 0x20 DUP1 SWAP2 DIV MUL PUSH1 0x20 ADD PUSH1 0x40 MLOAD SWAP1 DUP2 ADD PUSH1 0x40 MSTORE DUP1 SWAP3 SWAP2 SWAP1 DUP2 DUP2 MSTORE PUSH1 0x20 ADD DUP3 DUP1 SLOAD PUSH2 0x742 SWAP1 PUSH2 0xC81 JUMP JUMPDEST DUP1 ISZERO PUSH2 0x78F JUMPI DUP1 PUSH1 0x1F LT PUSH2 0x764 JUMPI PUSH2 0x100 DUP1 DUP4 SLOAD DIV MUL DUP4 MSTORE SWAP2 PUSH1 0x20 ADD SWAP2 PUSH2 0x78F JUMP JUMPDEST DUP3 ADD SWAP2 SWAP1 PUSH1 0x0 MSTORE PUSH1 0x20 PUSH1 0x0 KECCAK256 SWAP1 JUMPDEST DUP2 SLOAD DUP2 MSTORE SWAP1 PUSH1 0x1 ADD SWAP1 PUSH1 0x20 ADD DUP1 DUP4 GT PUSH2 0x772 JUMPI DUP3 SWAP1 SUB PUSH1 0x1F AND DUP3 ADD SWAP2 JUMPDEST POP POP POP POP POP SWAP1 DUP1 PUSH1 0x4 ADD SLOAD SWAP1 POP DUP6 JUMP JUMPDEST DUP3 DUP1 SLOAD PUSH2 0x7AB SWAP1 PUSH2 0xC81 JUMP JUMPDEST SWAP1 PUSH1 0x0 MSTORE PUSH1 0x20 PUSH1 0x0 KECCAK256 SWAP1 PUSH1 0x1F ADD PUSH1 0x20 SWAP1 DIV DUP2 ADD SWAP3 DUP3 PUSH2 0x7CD JUMPI PUSH1 0x0 DUP6 SSTORE PUSH2 0x814 JUMP JUMPDEST DUP3 PUSH1 0x1F LT PUSH2 0x7E6 JUMPI DUP1 MLOAD PUSH1 0xFF NOT AND DUP4 DUP1 ADD OR DUP6 SSTORE PUSH2 0x814 JUMP JUMPDEST DUP3 DUP1 ADD PUSH1 0x1 ADD DUP6 SSTORE DUP3 ISZERO PUSH2 0x814 JUMPI SWAP2 DUP3 ADD JUMPDEST DUP3 DUP2 GT ISZERO PUSH2 0x813 JUMPI DUP3 MLOAD DUP3 SSTORE SWAP2 PUSH1 0x20 ADD SWAP2 SWAP1 PUSH1 0x1 ADD SWAP1 PUSH2 0x7F8 JUMP JUMPDEST JUMPDEST POP SWAP1 POP PUSH2 0x821 SWAP2 SWAP1 PUSH2 0x825 JUMP JUMPDEST POP SWAP1 JUMP JUMPDEST JUMPDEST DUP1 DUP3 GT ISZERO PUSH2 0x83E JUMPI PUSH1 0x0 DUP2 PUSH1 0x0 SWAP1 SSTORE POP PUSH1 0x1 ADD PUSH2 0x826 JUMP JUMPDEST POP SWAP1 JUMP JUMPDEST PUSH1 0x0 PUSH2 0x855 PUSH2 0x850 DUP5 PUSH2 0xB37 JUMP JUMPDEST PUSH2 0xB12 JUMP JUMPDEST SWAP1 POP DUP3 DUP2 MSTORE PUSH1 0x20 DUP2 ADD DUP5 DUP5 DUP5 ADD GT ISZERO PUSH2 0x871 JUMPI PUSH2 0x870 PUSH2 0xDA5 JUMP JUMPDEST JUMPDEST PUSH2 0x87C DUP5 DUP3 DUP6 PUSH2 0xC3F JUMP JUMPDEST POP SWAP4 SWAP3 POP POP POP JUMP JUMPDEST PUSH1 0x0 DUP2 CALLDATALOAD SWAP1 POP PUSH2 0x893 DUP2 PUSH2 0xE02 JUMP JUMPDEST SWAP3 SWAP2 POP POP JUMP JUMPDEST PUSH1 0x0 DUP3 PUSH1 0x1F DUP4 ADD SLT PUSH2 0x8AE JUMPI PUSH2 0x8AD PUSH2 0xDA0 JUMP JUMPDEST JUMPDEST DUP2 CALLDATALOAD PUSH2 0x8BE DUP5 DUP3 PUSH1 0x20 DUP7 ADD PUSH2 0x842 JUMP JUMPDEST SWAP2 POP POP SWAP3 SWAP2 POP POP JUMP JUMPDEST PUSH1 0x0 DUP2 CALLDATALOAD SWAP1 POP PUSH2 0x8D6 DUP2 PUSH2 0xE19 JUMP JUMPDEST SWAP3 SWAP2 POP POP JUMP JUMPDEST PUSH1 0x0 PUSH1 0x20 DUP3 DUP5 SUB SLT ISZERO PUSH2 0x8F2 JUMPI PUSH2 0x8F1 PUSH2 0xDAF JUMP JUMPDEST JUMPDEST PUSH1 0x0 PUSH2 0x900 DUP5 DUP3 DUP6 ADD PUSH2 0x884 JUMP JUMPDEST SWAP2 POP POP SWAP3 SWAP2 POP POP JUMP JUMPDEST PUSH1 0x0 DUP1 PUSH1 0x0 PUSH1 0x60 DUP5 DUP7 SUB SLT ISZERO PUSH2 0x922 JUMPI PUSH2 0x921 PUSH2 0xDAF JUMP JUMPDEST JUMPDEST PUSH1 0x0 DUP5 ADD CALLDATALOAD PUSH8 0xFFFFFFFFFFFFFFFF DUP2 GT ISZERO PUSH2 0x940 JUMPI PUSH2 0x93F PUSH2 0xDAA JUMP JUMPDEST JUMPDEST PUSH2 0x94C DUP7 DUP3 DUP8 ADD PUSH2 0x899 JUMP JUMPDEST SWAP4 POP POP PUSH1 0x20 DUP5 ADD CALLDATALOAD PUSH8 0xFFFFFFFFFFFFFFFF DUP2 GT ISZERO PUSH2 0x96D JUMPI PUSH2 0x96C PUSH2 0xDAA JUMP JUMPDEST JUMPDEST PUSH2 0x979 DUP7 DUP3 DUP8 ADD PUSH2 0x899 JUMP JUMPDEST SWAP3 POP POP PUSH1 0x40 PUSH2 0x98A DUP7 DUP3 DUP8 ADD PUSH2 0x8C7 JUMP JUMPDEST SWAP2 POP POP SWAP3 POP SWAP3 POP SWAP3 JUMP JUMPDEST PUSH2 0x99D DUP2 PUSH2 0xBDE JUMP JUMPDEST DUP3 MSTORE POP POP JUMP JUMPDEST PUSH2 0x9AC DUP2 PUSH2 0xC2D JUMP JUMPDEST DUP3 MSTORE POP POP JUMP JUMPDEST PUSH1 0x0 PUSH2 0x9BD DUP3 PUSH2 0xB68 JUMP JUMPDEST PUSH2 0x9C7 DUP2 DUP6 PUSH2 0xB73 JUMP JUMPDEST SWAP4 POP PUSH2 0x9D7 DUP2 DUP6 PUSH1 0x20 DUP7 ADD PUSH2 0xC4E JUMP JUMPDEST PUSH2 0x9E0 DUP2 PUSH2 0xDB4 JUMP JUMPDEST DUP5 ADD SWAP2 POP POP SWAP3 SWAP2 POP POP JUMP JUMPDEST PUSH1 0x0 PUSH2 0x9F8 PUSH1 0x1D DUP4 PUSH2 0xB73 JUMP JUMPDEST SWAP2 POP PUSH2 0xA03 DUP3 PUSH2 0xDC5 JUMP JUMPDEST PUSH1 0x20 DUP3 ADD SWAP1 POP SWAP2 SWAP1 POP JUMP JUMPDEST PUSH2 0xA17 DUP2 PUSH2 0xC23 JUMP JUMPDEST DUP3 MSTORE POP POP JUMP JUMPDEST PUSH1 0x0 PUSH1 0x20 DUP3 ADD SWAP1 POP PUSH2 0xA32 PUSH1 0x0 DUP4 ADD DUP5 PUSH2 0x9A3 JUMP JUMPDEST SWAP3 SWAP2 POP POP JUMP JUMPDEST PUSH1 0x0 PUSH1 0xA0 DUP3 ADD SWAP1 POP DUP2 DUP2 SUB PUSH1 0x0 DUP4 ADD MSTORE PUSH2 0xA52 DUP2 DUP9 PUSH2 0x9B2 JUMP JUMPDEST SWAP1 POP DUP2 DUP2 SUB PUSH1 0x20 DUP4 ADD MSTORE PUSH2 0xA66 DUP2 DUP8 PUSH2 0x9B2 JUMP JUMPDEST SWAP1 POP PUSH2 0xA75 PUSH1 0x40 DUP4 ADD DUP7 PUSH2 0xA0E JUMP JUMPDEST DUP2 DUP2 SUB PUSH1 0x60 DUP4 ADD MSTORE PUSH2 0xA87 DUP2 DUP6 PUSH2 0x9B2 JUMP JUMPDEST SWAP1 POP PUSH2 0xA96 PUSH1 0x80 DUP4 ADD DUP5 PUSH2 0xA0E JUMP JUMPDEST SWAP7 SWAP6 POP POP POP POP POP POP JUMP JUMPDEST PUSH1 0x0 PUSH1 0x20 DUP3 ADD SWAP1 POP DUP2 DUP2 SUB PUSH1 0x0 DUP4 ADD MSTORE PUSH2 0xAB9 DUP2 PUSH2 0x9EB JUMP JUMPDEST SWAP1 POP SWAP2 SWAP1 POP JUMP JUMPDEST PUSH1 0x0 PUSH1 0x20 DUP3 ADD SWAP1 POP PUSH2 0xAD5 PUSH1 0x0 DUP4 ADD DUP5 PUSH2 0xA0E JUMP JUMPDEST SWAP3 SWAP2 POP POP JUMP JUMPDEST PUSH1 0x0 PUSH1 0x60 DUP3 ADD SWAP1 POP PUSH2 0xAF0 PUSH1 0x0 DUP4 ADD DUP7 PUSH2 0xA0E JUMP JUMPDEST PUSH2 0xAFD PUSH1 0x20 DUP4 ADD DUP6 PUSH2 0xA0E JUMP JUMPDEST PUSH2 0xB0A PUSH1 0x40 DUP4 ADD DUP5 PUSH2 0x994 JUMP JUMPDEST SWAP5 SWAP4 POP POP POP POP JUMP JUMPDEST PUSH1 0x0 PUSH2 0xB1C PUSH2 0xB2D JUMP JUMPDEST SWAP1 POP PUSH2 0xB28 DUP3 DUP3 PUSH2 0xCB3 JUMP JUMPDEST SWAP2 SWAP1 POP JUMP JUMPDEST PUSH1 0x0 PUSH1 0x40 MLOAD SWAP1 POP SWAP1 JUMP JUMPDEST PUSH1 0x0 PUSH8 0xFFFFFFFFFFFFFFFF DUP3 GT ISZERO PUSH2 0xB52 JUMPI PUSH2 0xB51 PUSH2 0xD71 JUMP JUMPDEST JUMPDEST PUSH2 0xB5B DUP3 PUSH2 0xDB4 JUMP JUMPDEST SWAP1 POP PUSH1 0x20 DUP2 ADD SWAP1 POP SWAP2 SWAP1 POP JUMP JUMPDEST PUSH1 0x0 DUP2 MLOAD SWAP1 POP SWAP2 SWAP1 POP JUMP JUMPDEST PUSH1 0x0 DUP3 DUP3 MSTORE PUSH1 0x20 DUP3 ADD SWAP1 POP SWAP3 SWAP2 POP POP JUMP JUMPDEST PUSH1 0x0 PUSH2 0xB8F DUP3 PUSH2 0xC23 JUMP JUMPDEST SWAP2 POP PUSH2 0xB9A DUP4 PUSH2 0xC23 JUMP JUMPDEST SWAP3 POP DUP2 PUSH32 0xFFFFFFFFFFFFFFFFFFFFFFFFFFFFFFFFFFFFFFFFFFFFFFFFFFFFFFFFFFFFFFFF DIV DUP4 GT DUP3 ISZERO ISZERO AND ISZERO PUSH2 0xBD3 JUMPI PUSH2 0xBD2 PUSH2 0xCE4 JUMP JUMPDEST JUMPDEST DUP3 DUP3 MUL SWAP1 POP SWAP3 SWAP2 POP POP JUMP JUMPDEST PUSH1 0x0 PUSH2 0xBE9 DUP3 PUSH2 0xC03 JUMP JUMPDEST SWAP1 POP SWAP2 SWAP1 POP JUMP JUMPDEST PUSH1 0x0 DUP2 SWAP1 POP PUSH2 0xBFE DUP3 PUSH2 0xDEE JUMP JUMPDEST SWAP2 SWAP1 POP JUMP JUMPDEST PUSH1 0x0 PUSH20 0xFFFFFFFFFFFFFFFFFFFFFFFFFFFFFFFFFFFFFFFF DUP3 AND SWAP1 POP SWAP2 SWAP1 POP JUMP JUMPDEST PUSH1 0x0 DUP2 SWAP1 POP SWAP2 SWAP1 POP JUMP JUMPDEST PUSH1 0x0 PUSH2 0xC38 DUP3 PUSH2 0xBF0 JUMP JUMPDEST SWAP1 POP SWAP2 SWAP1 POP JUMP JUMPDEST DUP3 DUP2 DUP4 CALLDATACOPY PUSH1 0x0 DUP4 DUP4 ADD MSTORE POP POP POP JUMP JUMPDEST PUSH1 0x0 JUMPDEST DUP4 DUP2 LT ISZERO PUSH2 0xC6C JUMPI DUP1 DUP3 ADD MLOAD DUP2 DUP5 ADD MSTORE PUSH1 0x20 DUP2 ADD SWAP1 POP PUSH2 0xC51 JUMP JUMPDEST DUP4 DUP2 GT ISZERO PUSH2 0xC7B JUMPI PUSH1 0x0 DUP5 DUP5 ADD MSTORE JUMPDEST POP POP POP POP JUMP JUMPDEST PUSH1 0x0 PUSH1 0x2 DUP3 DIV SWAP1 POP PUSH1 0x1 DUP3 AND DUP1 PUSH2 0xC99 JUMPI PUSH1 0x7F DUP3 AND SWAP2 POP JUMPDEST PUSH1 0x20 DUP3 LT DUP2 EQ ISZERO PUSH2 0xCAD JUMPI PUSH2 0xCAC PUSH2 0xD42 JUMP JUMPDEST JUMPDEST POP SWAP2 SWAP1 POP JUMP JUMPDEST PUSH2 0xCBC DUP3 PUSH2 0xDB4 JUMP JUMPDEST DUP2 ADD DUP2 DUP2 LT PUSH8 0xFFFFFFFFFFFFFFFF DUP3 GT OR ISZERO PUSH2 0xCDB JUMPI PUSH2 0xCDA PUSH2 0xD71 JUMP JUMPDEST JUMPDEST DUP1 PUSH1 0x40 MSTORE POP POP POP JUMP JUMPDEST PUSH32 0x4E487B7100000000000000000000000000000000000000000000000000000000 PUSH1 0x0 MSTORE PUSH1 0x11 PUSH1 0x4 MSTORE PUSH1 0x24 PUSH1 0x0 REVERT JUMPDEST PUSH32 0x4E487B7100000000000000000000000000000000000000000000000000000000 PUSH1 0x0 MSTORE PUSH1 0x21 PUSH1 0x4 MSTORE PUSH1 0x24 PUSH1 0x0 REVERT JUMPDEST PUSH32 0x4E487B7100000000000000000000000000000000000000000000000000000000 PUSH1 0x0 MSTORE PUSH1 0x22 PUSH1 0x4 MSTORE PUSH1 0x24 PUSH1 0x0 REVERT JUMPDEST PUSH32 0x4E487B7100000000000000000000000000000000000000000000000000000000 PUSH1 0x0 MSTORE PUSH1 0x41 PUSH1 0x4 MSTORE PUSH1 0x24 PUSH1 0x0 REVERT JUMPDEST PUSH1 0x0 DUP1 REVERT JUMPDEST PUSH1 0x0 DUP1 REVERT JUMPDEST PUSH1 0x0 DUP1 REVERT JUMPDEST PUSH1 0x0 DUP1 REVERT JUMPDEST PUSH1 0x0 PUSH1 0x1F NOT PUSH1 0x1F DUP4 ADD AND SWAP1 POP SWAP2 SWAP1 POP JUMP JUMPDEST PUSH32 0x706C656173652073656C6563742074686520636C617373206669727374000000 PUSH1 0x0 DUP3 ADD MSTORE POP JUMP JUMPDEST PUSH1 0x3 DUP2 LT PUSH2 0xDFF JUMPI PUSH2 0xDFE PUSH2 0xD13 JUMP JUMPDEST JUMPDEST POP JUMP JUMPDEST PUSH2 0xE0B DUP2 PUSH2 0xBDE JUMP JUMPDEST DUP2 EQ PUSH2 0xE16 JUMPI PUSH1 0x0 DUP1 REVERT JUMPDEST POP JUMP JUMPDEST PUSH2 0xE22 DUP2 PUSH2 0xC23 JUMP JUMPDEST DUP2 EQ PUSH2 0xE2D JUMPI PUSH1 0x0 DUP1 REVERT JUMPDEST POP JUMP INVALID LOG2 PUSH5 0x6970667358 0x22 SLT KECCAK256 PUSH17 0xDE7FFCC337CFBE12A4208C922E4AE0A72A SWAP8 DUP2 0xE6 INVALID EXTCODECOPY 0xF9 0xD6 DUP4 PUSH14 0x5ACAFE3E64736F6C6343000807 STOP CALLER "
				},
				"gasEstimates": {
					"creation": {
						"codeDepositCost": "737200",
						"executionCost": "infinite",
						"totalCost": "infinite"
					},
					"external": {
						"busnissClass()": "infinite",
						"data(address)": "infinite",
						"economyClass()": "infinite",
						"firstClass()": "infinite",
						"getter()": "infinite",
						"oneWei()": "2474",
						"setData(string,string,uint256)": "infinite",
						"u1()": "2583"
					}
				},
				"methodIdentifiers": {
					"busnissClass()": "b24fa0e4",
					"data(address)": "b90d3d0c",
					"economyClass()": "7a1736d1",
					"firstClass()": "50183507",
					"getter()": "993a04b7",
					"oneWei()": "4fb2e0be",
					"setData(string,string,uint256)": "17ae4589",
					"u1()": "1aa35610"
				}
			},
			"userdoc": {
				"kind": "user",
				"methods": {},
				"version": 1
			}
		}
	}
}