{
	"finalBlockship.sol": {
		"AirlineTickets": {
			"abi": [
				{
					"inputs": [],
					"stateMutability": "nonpayable",
					"type": "constructor"
				},
				{
					"inputs": [],
					"name": "busnissClass",
					"outputs": [],
					"stateMutability": "nonpayable",
					"type": "function"
				},
				{
					"inputs": [
						{
							"internalType": "address",
							"name": "",
							"type": "address"
						}
					],
					"name": "data",
					"outputs": [
						{
							"internalType": "string",
							"name": "name",
							"type": "string"
						},
						{
							"internalType": "string",
							"name": "des",
							"type": "string"
						},
						{
							"internalType": "uint256",
							"name": "pass_id",
							"type": "uint256"
						},
						{
							"internalType": "string",
							"name": "ticket",
							"type": "string"
						},
						{
							"internalType": "uint256",
							"name": "cost",
							"type": "uint256"
						},
						{
							"internalType": "bool",
							"name": "booked",
							"type": "bool"
						},
						{
							"internalType": "bool",
							"name": "confrim",
							"type": "bool"
						}
					],
					"stateMutability": "view",
					"type": "function"
				},
				{
					"inputs": [],
					"name": "economyClass",
					"outputs": [],
					"stateMutability": "nonpayable",
					"type": "function"
				},
				{
					"inputs": [],
					"name": "firstClass",
					"outputs": [],
					"stateMutability": "nonpayable",
					"type": "function"
				},
				{
					"inputs": [],
					"name": "owner",
					"outputs": [
						{
							"internalType": "address",
							"name": "",
							"type": "address"
						}
					],
					"stateMutability": "view",
					"type": "function"
				},
				{
					"inputs": [],
					"name": "payment",
					"outputs": [],
					"stateMutability": "payable",
					"type": "function"
				},
				{
					"inputs": [],
					"name": "see",
					"outputs": [
						{
							"internalType": "bool",
							"name": "",
							"type": "bool"
						}
					],
					"stateMutability": "view",
					"type": "function"
				},
				{
					"inputs": [
						{
							"internalType": "string",
							"name": "_name",
							"type": "string"
						},
						{
							"internalType": "string",
							"name": "_des",
							"type": "string"
						},
						{
							"internalType": "uint256",
							"name": "_pass_id",
							"type": "uint256"
						}
					],
					"name": "setData",
					"outputs": [],
					"stateMutability": "nonpayable",
					"type": "function"
				}
			],
			"devdoc": {
				"kind": "dev",
				"methods": {},
				"version": 1
			},
			"evm": {
				"assembly": "    /* \"finalBlockship.sol\":70:2808  contract AirlineTickets {\r... */\n  mstore(0x40, 0x80)\n    /* \"finalBlockship.sol\":391:396  1 wei */\n  0x01\n    /* \"finalBlockship.sol\":377:396  uint oneWei = 1 wei */\n  dup1\n  sstore\n    /* \"finalBlockship.sol\":523:528  false */\n  0x00\n    /* \"finalBlockship.sol\":507:528  bool _confrim = false */\n  0x05\n  exp(0x0100, 0x14)\n  dup2\n  sload\n  dup2\n  0xff\n  mul\n  not\n  and\n  swap1\n  dup4\n  iszero\n  iszero\n  mul\n  or\n  swap1\n  sstore\n  pop\n    /* \"finalBlockship.sol\":554:559  false */\n  0x00\n    /* \"finalBlockship.sol\":539:559  bool _booked = false */\n  0x05\n  exp(0x0100, 0x15)\n  dup2\n  sload\n  dup2\n  0xff\n  mul\n  not\n  and\n  swap1\n  dup4\n  iszero\n  iszero\n  mul\n  or\n  swap1\n  sstore\n  pop\n    /* \"finalBlockship.sol\":622:665  constructor() {\r... */\n  callvalue\n  dup1\n  iszero\n  tag_1\n  jumpi\n  0x00\n  dup1\n  revert\ntag_1:\n  pop\n    /* \"finalBlockship.sol\":651:661  msg.sender */\n  caller\n    /* \"finalBlockship.sol\":643:648  owner */\n  0x05\n  0x00\n    /* \"finalBlockship.sol\":643:661  owner = msg.sender */\n  0x0100\n  exp\n  dup2\n  sload\n  dup2\n  0xffffffffffffffffffffffffffffffffffffffff\n  mul\n  not\n  and\n  swap1\n  dup4\n  0xffffffffffffffffffffffffffffffffffffffff\n  and\n  mul\n  or\n  swap1\n  sstore\n  pop\n    /* \"finalBlockship.sol\":70:2808  contract AirlineTickets {\r... */\n  dataSize(sub_0)\n  dup1\n  dataOffset(sub_0)\n  0x00\n  codecopy\n  0x00\n  return\nstop\n\nsub_0: assembly {\n        /* \"finalBlockship.sol\":70:2808  contract AirlineTickets {\r... */\n      mstore(0x40, 0x80)\n      jumpi(tag_1, lt(calldatasize, 0x04))\n      shr(0xe0, calldataload(0x00))\n      dup1\n      0x8da5cb5b\n      gt\n      tag_10\n      jumpi\n      dup1\n      0x8da5cb5b\n      eq\n      tag_6\n      jumpi\n      dup1\n      0x9ae5a2be\n      eq\n      tag_7\n      jumpi\n      dup1\n      0xb24fa0e4\n      eq\n      tag_8\n      jumpi\n      dup1\n      0xb90d3d0c\n      eq\n      tag_9\n      jumpi\n      jump(tag_1)\n    tag_10:\n      dup1\n      0x17ae4589\n      eq\n      tag_2\n      jumpi\n      dup1\n      0x42f6487a\n      eq\n      tag_3\n      jumpi\n      dup1\n      0x50183507\n      eq\n      tag_4\n      jumpi\n      dup1\n      0x7a1736d1\n      eq\n      tag_5\n      jumpi\n    tag_1:\n      0x00\n      dup1\n      revert\n        /* \"finalBlockship.sol\":2480:2805  function setData(string memory _name, string memory _des, uint _pass_id) public {\r... */\n    tag_2:\n      callvalue\n      dup1\n      iszero\n      tag_11\n      jumpi\n      0x00\n      dup1\n      revert\n    tag_11:\n      pop\n      tag_12\n      0x04\n      dup1\n      calldatasize\n      sub\n      dup2\n      add\n      swap1\n      tag_13\n      swap2\n      swap1\n      tag_14\n      jump\t// in\n    tag_13:\n      tag_15\n      jump\t// in\n    tag_12:\n      stop\n        /* \"finalBlockship.sol\":673:1073  function payment() public payable {\r... */\n    tag_3:\n      tag_16\n      tag_17\n      jump\t// in\n    tag_16:\n      stop\n        /* \"finalBlockship.sol\":1607:2024  function firstClass() public {\r... */\n    tag_4:\n      callvalue\n      dup1\n      iszero\n      tag_18\n      jumpi\n      0x00\n      dup1\n      revert\n    tag_18:\n      pop\n      tag_19\n      tag_20\n      jump\t// in\n    tag_19:\n      stop\n        /* \"finalBlockship.sol\":1173:1597  function economyClass() public {\r... */\n    tag_5:\n      callvalue\n      dup1\n      iszero\n      tag_21\n      jumpi\n      0x00\n      dup1\n      revert\n    tag_21:\n      pop\n      tag_22\n      tag_23\n      jump\t// in\n    tag_22:\n      stop\n        /* \"finalBlockship.sol\":476:496  address public owner */\n    tag_6:\n      callvalue\n      dup1\n      iszero\n      tag_24\n      jumpi\n      0x00\n      dup1\n      revert\n    tag_24:\n      pop\n      tag_25\n      tag_26\n      jump\t// in\n    tag_25:\n      mload(0x40)\n      tag_27\n      swap2\n      swap1\n      tag_28\n      jump\t// in\n    tag_27:\n      mload(0x40)\n      dup1\n      swap2\n      sub\n      swap1\n      return\n        /* \"finalBlockship.sol\":1079:1169  function see() public view returns(bool){\r... */\n    tag_7:\n      callvalue\n      dup1\n      iszero\n      tag_29\n      jumpi\n      0x00\n      dup1\n      revert\n    tag_29:\n      pop\n      tag_30\n      tag_31\n      jump\t// in\n    tag_30:\n      mload(0x40)\n      tag_32\n      swap2\n      swap1\n      tag_33\n      jump\t// in\n    tag_32:\n      mload(0x40)\n      dup1\n      swap2\n      sub\n      swap1\n      return\n        /* \"finalBlockship.sol\":2031:2468  function busnissClass() public {\r... */\n    tag_8:\n      callvalue\n      dup1\n      iszero\n      tag_34\n      jumpi\n      0x00\n      dup1\n      revert\n    tag_34:\n      pop\n      tag_35\n      tag_36\n      jump\t// in\n    tag_35:\n      stop\n        /* \"finalBlockship.sol\":580:617  mapping (address => User) public data */\n    tag_9:\n      callvalue\n      dup1\n      iszero\n      tag_37\n      jumpi\n      0x00\n      dup1\n      revert\n    tag_37:\n      pop\n      tag_38\n      0x04\n      dup1\n      calldatasize\n      sub\n      dup2\n      add\n      swap1\n      tag_39\n      swap2\n      swap1\n      tag_40\n      jump\t// in\n    tag_39:\n      tag_41\n      jump\t// in\n    tag_38:\n      mload(0x40)\n      tag_42\n      swap8\n      swap7\n      swap6\n      swap5\n      swap4\n      swap3\n      swap2\n      swap1\n      tag_43\n      jump\t// in\n    tag_42:\n      mload(0x40)\n      dup1\n      swap2\n      sub\n      swap1\n      return\n        /* \"finalBlockship.sol\":2480:2805  function setData(string memory _name, string memory _des, uint _pass_id) public {\r... */\n    tag_15:\n        /* \"finalBlockship.sol\":2590:2595  owner */\n      0x05\n      0x00\n      swap1\n      sload\n      swap1\n      0x0100\n      exp\n      swap1\n      div\n      0xffffffffffffffffffffffffffffffffffffffff\n      and\n        /* \"finalBlockship.sol\":2576:2595  msg.sender != owner */\n      0xffffffffffffffffffffffffffffffffffffffff\n      and\n        /* \"finalBlockship.sol\":2576:2586  msg.sender */\n      caller\n        /* \"finalBlockship.sol\":2576:2595  msg.sender != owner */\n      0xffffffffffffffffffffffffffffffffffffffff\n      and\n      eq\n      iszero\n        /* \"finalBlockship.sol\":2568:2637  require(msg.sender != owner, \"You are the owner you cant buy ticket\") */\n      tag_45\n      jumpi\n      mload(0x40)\n      0x08c379a000000000000000000000000000000000000000000000000000000000\n      dup2\n      mstore\n      0x04\n      add\n      tag_46\n      swap1\n      tag_47\n      jump\t// in\n    tag_46:\n      mload(0x40)\n      dup1\n      swap2\n      sub\n      swap1\n      revert\n    tag_45:\n        /* \"finalBlockship.sol\":2656:2660  data */\n      0x06\n        /* \"finalBlockship.sol\":2656:2672  data[msg.sender] */\n      0x00\n        /* \"finalBlockship.sol\":2661:2671  msg.sender */\n      caller\n        /* \"finalBlockship.sol\":2656:2672  data[msg.sender] */\n      0xffffffffffffffffffffffffffffffffffffffff\n      and\n      0xffffffffffffffffffffffffffffffffffffffff\n      and\n      dup2\n      mstore\n      0x20\n      add\n      swap1\n      dup2\n      mstore\n      0x20\n      add\n      0x00\n      keccak256\n        /* \"finalBlockship.sol\":2656:2679  data[msg.sender].booked */\n      0x05\n      add\n      0x00\n      swap1\n      sload\n      swap1\n      0x0100\n      exp\n      swap1\n      div\n      0xff\n      and\n        /* \"finalBlockship.sol\":2648:2712  require(data[msg.sender].booked,\"please select the class first\") */\n      tag_48\n      jumpi\n      mload(0x40)\n      0x08c379a000000000000000000000000000000000000000000000000000000000\n      dup2\n      mstore\n      0x04\n      add\n      tag_49\n      swap1\n      tag_50\n      jump\t// in\n    tag_49:\n      mload(0x40)\n      dup1\n      swap2\n      sub\n      swap1\n      revert\n    tag_48:\n        /* \"finalBlockship.sol\":2741:2797  User(_name,_des,_pass_id,realVal,_cost,_booked,_confrim) */\n      mload(0x40)\n      dup1\n      0xe0\n      add\n      0x40\n      mstore\n      dup1\n        /* \"finalBlockship.sol\":2746:2751  _name */\n      dup5\n        /* \"finalBlockship.sol\":2741:2797  User(_name,_des,_pass_id,realVal,_cost,_booked,_confrim) */\n      dup2\n      mstore\n      0x20\n      add\n        /* \"finalBlockship.sol\":2752:2756  _des */\n      dup4\n        /* \"finalBlockship.sol\":2741:2797  User(_name,_des,_pass_id,realVal,_cost,_booked,_confrim) */\n      dup2\n      mstore\n      0x20\n      add\n        /* \"finalBlockship.sol\":2757:2765  _pass_id */\n      dup3\n        /* \"finalBlockship.sol\":2741:2797  User(_name,_des,_pass_id,realVal,_cost,_booked,_confrim) */\n      dup2\n      mstore\n      0x20\n      add\n        /* \"finalBlockship.sol\":2766:2773  realVal */\n      0x03\n        /* \"finalBlockship.sol\":2741:2797  User(_name,_des,_pass_id,realVal,_cost,_booked,_confrim) */\n      dup1\n      sload\n      tag_51\n      swap1\n      tag_52\n      jump\t// in\n    tag_51:\n      dup1\n      0x1f\n      add\n      0x20\n      dup1\n      swap2\n      div\n      mul\n      0x20\n      add\n      mload(0x40)\n      swap1\n      dup2\n      add\n      0x40\n      mstore\n      dup1\n      swap3\n      swap2\n      swap1\n      dup2\n      dup2\n      mstore\n      0x20\n      add\n      dup3\n      dup1\n      sload\n      tag_53\n      swap1\n      tag_52\n      jump\t// in\n    tag_53:\n      dup1\n      iszero\n      tag_54\n      jumpi\n      dup1\n      0x1f\n      lt\n      tag_55\n      jumpi\n      0x0100\n      dup1\n      dup4\n      sload\n      div\n      mul\n      dup4\n      mstore\n      swap2\n      0x20\n      add\n      swap2\n      jump(tag_54)\n    tag_55:\n      dup3\n      add\n      swap2\n      swap1\n      0x00\n      mstore\n      keccak256(0x00, 0x20)\n      swap1\n    tag_56:\n      dup2\n      sload\n      dup2\n      mstore\n      swap1\n      0x01\n      add\n      swap1\n      0x20\n      add\n      dup1\n      dup4\n      gt\n      tag_56\n      jumpi\n      dup3\n      swap1\n      sub\n      0x1f\n      and\n      dup3\n      add\n      swap2\n    tag_54:\n      pop\n      pop\n      pop\n      pop\n      pop\n      dup2\n      mstore\n      0x20\n      add\n        /* \"finalBlockship.sol\":2774:2779  _cost */\n      sload(0x04)\n        /* \"finalBlockship.sol\":2741:2797  User(_name,_des,_pass_id,realVal,_cost,_booked,_confrim) */\n      dup2\n      mstore\n      0x20\n      add\n        /* \"finalBlockship.sol\":2780:2787  _booked */\n      0x05\n      0x15\n      swap1\n      sload\n      swap1\n      0x0100\n      exp\n      swap1\n      div\n      0xff\n      and\n        /* \"finalBlockship.sol\":2741:2797  User(_name,_des,_pass_id,realVal,_cost,_booked,_confrim) */\n      iszero\n      iszero\n      dup2\n      mstore\n      0x20\n      add\n        /* \"finalBlockship.sol\":2788:2796  _confrim */\n      0x05\n      0x14\n      swap1\n      sload\n      swap1\n      0x0100\n      exp\n      swap1\n      div\n      0xff\n      and\n        /* \"finalBlockship.sol\":2741:2797  User(_name,_des,_pass_id,realVal,_cost,_booked,_confrim) */\n      iszero\n      iszero\n      dup2\n      mstore\n      pop\n        /* \"finalBlockship.sol\":2722:2726  data */\n      0x06\n        /* \"finalBlockship.sol\":2722:2738  data[msg.sender] */\n      0x00\n        /* \"finalBlockship.sol\":2727:2737  msg.sender */\n      caller\n        /* \"finalBlockship.sol\":2722:2738  data[msg.sender] */\n      0xffffffffffffffffffffffffffffffffffffffff\n      and\n      0xffffffffffffffffffffffffffffffffffffffff\n      and\n      dup2\n      mstore\n      0x20\n      add\n      swap1\n      dup2\n      mstore\n      0x20\n      add\n      0x00\n      keccak256\n        /* \"finalBlockship.sol\":2722:2797  data[msg.sender] = User(_name,_des,_pass_id,realVal,_cost,_booked,_confrim) */\n      0x00\n      dup3\n      add\n      mload\n      dup2\n      0x00\n      add\n      swap1\n      dup1\n      mload\n      swap1\n      0x20\n      add\n      swap1\n      tag_57\n      swap3\n      swap2\n      swap1\n      tag_58\n      jump\t// in\n    tag_57:\n      pop\n      0x20\n      dup3\n      add\n      mload\n      dup2\n      0x01\n      add\n      swap1\n      dup1\n      mload\n      swap1\n      0x20\n      add\n      swap1\n      tag_59\n      swap3\n      swap2\n      swap1\n      tag_58\n      jump\t// in\n    tag_59:\n      pop\n      0x40\n      dup3\n      add\n      mload\n      dup2\n      0x02\n      add\n      sstore\n      0x60\n      dup3\n      add\n      mload\n      dup2\n      0x03\n      add\n      swap1\n      dup1\n      mload\n      swap1\n      0x20\n      add\n      swap1\n      tag_60\n      swap3\n      swap2\n      swap1\n      tag_58\n      jump\t// in\n    tag_60:\n      pop\n      0x80\n      dup3\n      add\n      mload\n      dup2\n      0x04\n      add\n      sstore\n      0xa0\n      dup3\n      add\n      mload\n      dup2\n      0x05\n      add\n      exp(0x0100, 0x00)\n      dup2\n      sload\n      dup2\n      0xff\n      mul\n      not\n      and\n      swap1\n      dup4\n      iszero\n      iszero\n      mul\n      or\n      swap1\n      sstore\n      pop\n      0xc0\n      dup3\n      add\n      mload\n      dup2\n      0x05\n      add\n      exp(0x0100, 0x01)\n      dup2\n      sload\n      dup2\n      0xff\n      mul\n      not\n      and\n      swap1\n      dup4\n      iszero\n      iszero\n      mul\n      or\n      swap1\n      sstore\n      pop\n      swap1\n      pop\n      pop\n        /* \"finalBlockship.sol\":2480:2805  function setData(string memory _name, string memory _des, uint _pass_id) public {\r... */\n      pop\n      pop\n      pop\n      jump\t// out\n        /* \"finalBlockship.sol\":673:1073  function payment() public payable {\r... */\n    tag_17:\n        /* \"finalBlockship.sol\":727:731  data */\n      0x06\n        /* \"finalBlockship.sol\":727:743  data[msg.sender] */\n      0x00\n        /* \"finalBlockship.sol\":732:742  msg.sender */\n      caller\n        /* \"finalBlockship.sol\":727:743  data[msg.sender] */\n      0xffffffffffffffffffffffffffffffffffffffff\n      and\n      0xffffffffffffffffffffffffffffffffffffffff\n      and\n      dup2\n      mstore\n      0x20\n      add\n      swap1\n      dup2\n      mstore\n      0x20\n      add\n      0x00\n      keccak256\n        /* \"finalBlockship.sol\":727:751  data[msg.sender].confrim */\n      0x05\n      add\n      0x01\n      swap1\n      sload\n      swap1\n      0x0100\n      exp\n      swap1\n      div\n      0xff\n      and\n        /* \"finalBlockship.sol\":726:751  !data[msg.sender].confrim */\n      iszero\n        /* \"finalBlockship.sol\":718:787  require(!data[msg.sender].confrim,\"You have already paid the amount\") */\n      tag_62\n      jumpi\n      mload(0x40)\n      0x08c379a000000000000000000000000000000000000000000000000000000000\n      dup2\n      mstore\n      0x04\n      add\n      tag_63\n      swap1\n      tag_64\n      jump\t// in\n    tag_63:\n      mload(0x40)\n      dup1\n      swap2\n      sub\n      swap1\n      revert\n    tag_62:\n        /* \"finalBlockship.sol\":819:823  data */\n      0x06\n        /* \"finalBlockship.sol\":819:835  data[msg.sender] */\n      0x00\n        /* \"finalBlockship.sol\":824:834  msg.sender */\n      caller\n        /* \"finalBlockship.sol\":819:835  data[msg.sender] */\n      0xffffffffffffffffffffffffffffffffffffffff\n      and\n      0xffffffffffffffffffffffffffffffffffffffff\n      and\n      dup2\n      mstore\n      0x20\n      add\n      swap1\n      dup2\n      mstore\n      0x20\n      add\n      0x00\n      keccak256\n        /* \"finalBlockship.sol\":819:840  data[msg.sender].cost */\n      0x04\n      add\n      sload\n        /* \"finalBlockship.sol\":806:815  msg.value */\n      callvalue\n        /* \"finalBlockship.sol\":806:840  msg.value >= data[msg.sender].cost */\n      lt\n      iszero\n        /* \"finalBlockship.sol\":798:841  require(msg.value >= data[msg.sender].cost) */\n      tag_65\n      jumpi\n      0x00\n      dup1\n      revert\n    tag_65:\n        /* \"finalBlockship.sol\":860:865  owner */\n      0x05\n      0x00\n      swap1\n      sload\n      swap1\n      0x0100\n      exp\n      swap1\n      div\n      0xffffffffffffffffffffffffffffffffffffffff\n      and\n        /* \"finalBlockship.sol\":852:875  payable(owner).transfer */\n      0xffffffffffffffffffffffffffffffffffffffff\n      and\n        /* \"finalBlockship.sol\":852:886  payable(owner).transfer(msg.value) */\n      0x08fc\n        /* \"finalBlockship.sol\":876:885  msg.value */\n      callvalue\n        /* \"finalBlockship.sol\":852:886  payable(owner).transfer(msg.value) */\n      swap1\n      dup2\n      iszero\n      mul\n      swap1\n      mload(0x40)\n      0x00\n      mload(0x40)\n      dup1\n      dup4\n      sub\n      dup2\n      dup6\n      dup9\n      dup9\n      call\n      swap4\n      pop\n      pop\n      pop\n      pop\n      iszero\n      dup1\n      iszero\n      tag_67\n      jumpi\n      returndatasize\n      0x00\n      dup1\n      returndatacopy\n      revert(0x00, returndatasize)\n    tag_67:\n      pop\n        /* \"finalBlockship.sol\":924:928  true */\n      0x01\n        /* \"finalBlockship.sol\":897:901  data */\n      0x06\n        /* \"finalBlockship.sol\":897:913  data[msg.sender] */\n      0x00\n        /* \"finalBlockship.sol\":902:912  msg.sender */\n      caller\n        /* \"finalBlockship.sol\":897:913  data[msg.sender] */\n      0xffffffffffffffffffffffffffffffffffffffff\n      and\n      0xffffffffffffffffffffffffffffffffffffffff\n      and\n      dup2\n      mstore\n      0x20\n      add\n      swap1\n      dup2\n      mstore\n      0x20\n      add\n      0x00\n      keccak256\n        /* \"finalBlockship.sol\":897:921  data[msg.sender].confrim */\n      0x05\n      add\n      0x01\n        /* \"finalBlockship.sol\":897:928  data[msg.sender].confrim = true */\n      0x0100\n      exp\n      dup2\n      sload\n      dup2\n      0xff\n      mul\n      not\n      and\n      swap1\n      dup4\n      iszero\n      iszero\n      mul\n      or\n      swap1\n      sstore\n      pop\n        /* \"finalBlockship.sol\":950:954  data */\n      0x06\n        /* \"finalBlockship.sol\":950:966  data[msg.sender] */\n      0x00\n        /* \"finalBlockship.sol\":955:965  msg.sender */\n      caller\n        /* \"finalBlockship.sol\":950:966  data[msg.sender] */\n      0xffffffffffffffffffffffffffffffffffffffff\n      and\n      0xffffffffffffffffffffffffffffffffffffffff\n      and\n      dup2\n      mstore\n      0x20\n      add\n      swap1\n      dup2\n      mstore\n      0x20\n      add\n      0x00\n      keccak256\n        /* \"finalBlockship.sol\":950:974  data[msg.sender].confrim */\n      0x05\n      add\n      0x01\n      swap1\n      sload\n      swap1\n      0x0100\n      exp\n      swap1\n      div\n      0xff\n      and\n        /* \"finalBlockship.sol\":939:947  _confrim */\n      0x05\n      0x14\n        /* \"finalBlockship.sol\":939:974  _confrim = data[msg.sender].confrim */\n      0x0100\n      exp\n      dup2\n      sload\n      dup2\n      0xff\n      mul\n      not\n      and\n      swap1\n      dup4\n      iszero\n      iszero\n      mul\n      or\n      swap1\n      sstore\n      pop\n        /* \"finalBlockship.sol\":988:992  data */\n      0x06\n        /* \"finalBlockship.sol\":988:1004  data[msg.sender] */\n      0x00\n        /* \"finalBlockship.sol\":993:1003  msg.sender */\n      caller\n        /* \"finalBlockship.sol\":988:1004  data[msg.sender] */\n      0xffffffffffffffffffffffffffffffffffffffff\n      and\n      0xffffffffffffffffffffffffffffffffffffffff\n      and\n      dup2\n      mstore\n      0x20\n      add\n      swap1\n      dup2\n      mstore\n      0x20\n      add\n      0x00\n      keccak256\n        /* \"finalBlockship.sol\":988:1012  data[msg.sender].confrim */\n      0x05\n      add\n      0x01\n      swap1\n      sload\n      swap1\n      0x0100\n      exp\n      swap1\n      div\n      0xff\n      and\n        /* \"finalBlockship.sol\":985:1064  if(data[msg.sender].confrim) {\r... */\n      iszero\n      tag_68\n      jumpi\n        /* \"finalBlockship.sol\":1036:1040  data */\n      0x06\n        /* \"finalBlockship.sol\":1036:1052  data[msg.sender] */\n      0x00\n        /* \"finalBlockship.sol\":1041:1051  msg.sender */\n      caller\n        /* \"finalBlockship.sol\":1036:1052  data[msg.sender] */\n      0xffffffffffffffffffffffffffffffffffffffff\n      and\n      0xffffffffffffffffffffffffffffffffffffffff\n      and\n      dup2\n      mstore\n      0x20\n      add\n      swap1\n      dup2\n      mstore\n      0x20\n      add\n      0x00\n      keccak256\n      0x00\n        /* \"finalBlockship.sol\":1029:1052  delete data[msg.sender] */\n      dup1\n      dup3\n      add\n      0x00\n      tag_69\n      swap2\n      swap1\n      tag_70\n      jump\t// in\n    tag_69:\n      0x01\n      dup3\n      add\n      0x00\n      tag_71\n      swap2\n      swap1\n      tag_70\n      jump\t// in\n    tag_71:\n      0x02\n      dup3\n      add\n      0x00\n      swap1\n      sstore\n      0x03\n      dup3\n      add\n      0x00\n      tag_72\n      swap2\n      swap1\n      tag_70\n      jump\t// in\n    tag_72:\n      0x04\n      dup3\n      add\n      0x00\n      swap1\n      sstore\n      0x05\n      dup3\n      add\n      exp(0x0100, 0x00)\n      dup2\n      sload\n      swap1\n      0xff\n      mul\n      not\n      and\n      swap1\n      sstore\n      0x05\n      dup3\n      add\n      exp(0x0100, 0x01)\n      dup2\n      sload\n      swap1\n      0xff\n      mul\n      not\n      and\n      swap1\n      sstore\n      pop\n      pop\n        /* \"finalBlockship.sol\":985:1064  if(data[msg.sender].confrim) {\r... */\n    tag_68:\n        /* \"finalBlockship.sol\":673:1073  function payment() public payable {\r... */\n      jump\t// out\n        /* \"finalBlockship.sol\":1607:2024  function firstClass() public {\r... */\n    tag_20:\n        /* \"finalBlockship.sol\":1656:1660  data */\n      0x06\n        /* \"finalBlockship.sol\":1656:1672  data[msg.sender] */\n      0x00\n        /* \"finalBlockship.sol\":1661:1671  msg.sender */\n      caller\n        /* \"finalBlockship.sol\":1656:1672  data[msg.sender] */\n      0xffffffffffffffffffffffffffffffffffffffff\n      and\n      0xffffffffffffffffffffffffffffffffffffffff\n      and\n      dup2\n      mstore\n      0x20\n      add\n      swap1\n      dup2\n      mstore\n      0x20\n      add\n      0x00\n      keccak256\n        /* \"finalBlockship.sol\":1656:1679  data[msg.sender].booked */\n      0x05\n      add\n      0x00\n      swap1\n      sload\n      swap1\n      0x0100\n      exp\n      swap1\n      div\n      0xff\n      and\n        /* \"finalBlockship.sol\":1655:1679  !data[msg.sender].booked */\n      iszero\n        /* \"finalBlockship.sol\":1647:1713  require(!data[msg.sender].booked, \"you have already book a class\") */\n      tag_74\n      jumpi\n      mload(0x40)\n      0x08c379a000000000000000000000000000000000000000000000000000000000\n      dup2\n      mstore\n      0x04\n      add\n      tag_75\n      swap1\n      tag_76\n      jump\t// in\n    tag_75:\n      mload(0x40)\n      dup1\n      swap2\n      sub\n      swap1\n      revert\n    tag_74:\n        /* \"finalBlockship.sol\":1729:1750  classTypes.firstClass */\n      0x00\n        /* \"finalBlockship.sol\":1725:1727  u1 */\n      dup1\n      0x00\n        /* \"finalBlockship.sol\":1725:1750  u1= classTypes.firstClass */\n      0x0100\n      exp\n      dup2\n      sload\n      dup2\n      0xff\n      mul\n      not\n      and\n      swap1\n      dup4\n      0x02\n      dup2\n      gt\n      iszero\n      tag_77\n      jumpi\n      tag_78\n      tag_79\n      jump\t// in\n    tag_78:\n    tag_77:\n      mul\n      or\n      swap1\n      sstore\n      pop\n        /* \"finalBlockship.sol\":1781:1783  u1 */\n      0x00\n      dup1\n      sload\n      swap1\n      0x0100\n      exp\n      swap1\n      div\n      0xff\n      and\n        /* \"finalBlockship.sol\":1776:1784  uint(u1) */\n      0x02\n      dup2\n      gt\n      iszero\n      tag_80\n      jumpi\n      tag_81\n      tag_79\n      jump\t// in\n    tag_81:\n    tag_80:\n        /* \"finalBlockship.sol\":1766:1773  convert */\n      0x02\n        /* \"finalBlockship.sol\":1766:1784  convert = uint(u1) */\n      dup2\n      swap1\n      sstore\n      pop\n        /* \"finalBlockship.sol\":1812:1813  0 */\n      0x00\n        /* \"finalBlockship.sol\":1803:1810  convert */\n      sload(0x02)\n        /* \"finalBlockship.sol\":1803:1813  convert==0 */\n      eq\n        /* \"finalBlockship.sol\":1800:2017  if(convert==0){\r... */\n      iszero\n      tag_82\n      jumpi\n        /* \"finalBlockship.sol\":1833:1856  realVal = \"First Class\" */\n      mload(0x40)\n      dup1\n      0x40\n      add\n      0x40\n      mstore\n      dup1\n      0x0b\n      dup2\n      mstore\n      0x20\n      add\n      0x466972737420436c617373000000000000000000000000000000000000000000\n      dup2\n      mstore\n      pop\n        /* \"finalBlockship.sol\":1833:1840  realVal */\n      0x03\n        /* \"finalBlockship.sol\":1833:1856  realVal = \"First Class\" */\n      swap1\n      dup1\n      mload\n      swap1\n      0x20\n      add\n      swap1\n      tag_83\n      swap3\n      swap2\n      swap1\n      tag_58\n      jump\t// in\n    tag_83:\n      pop\n        /* \"finalBlockship.sol\":1892:1896  1e16 */\n      0x2386f26fc10000\n        /* \"finalBlockship.sol\":1883:1889  oneWei */\n      sload(0x01)\n        /* \"finalBlockship.sol\":1883:1896  oneWei * 1e16 */\n      tag_84\n      swap2\n      swap1\n      tag_85\n      jump\t// in\n    tag_84:\n        /* \"finalBlockship.sol\":1875:1880  _cost */\n      0x04\n        /* \"finalBlockship.sol\":1875:1896  _cost = oneWei * 1e16 */\n      dup2\n      swap1\n      sstore\n      pop\n        /* \"finalBlockship.sol\":1942:1946  true */\n      0x01\n        /* \"finalBlockship.sol\":1916:1920  data */\n      0x06\n        /* \"finalBlockship.sol\":1916:1932  data[msg.sender] */\n      0x00\n        /* \"finalBlockship.sol\":1921:1931  msg.sender */\n      caller\n        /* \"finalBlockship.sol\":1916:1932  data[msg.sender] */\n      0xffffffffffffffffffffffffffffffffffffffff\n      and\n      0xffffffffffffffffffffffffffffffffffffffff\n      and\n      dup2\n      mstore\n      0x20\n      add\n      swap1\n      dup2\n      mstore\n      0x20\n      add\n      0x00\n      keccak256\n        /* \"finalBlockship.sol\":1916:1939  data[msg.sender].booked */\n      0x05\n      add\n      0x00\n        /* \"finalBlockship.sol\":1916:1946  data[msg.sender].booked = true */\n      0x0100\n      exp\n      dup2\n      sload\n      dup2\n      0xff\n      mul\n      not\n      and\n      swap1\n      dup4\n      iszero\n      iszero\n      mul\n      or\n      swap1\n      sstore\n      pop\n        /* \"finalBlockship.sol\":1977:1981  data */\n      0x06\n        /* \"finalBlockship.sol\":1977:1993  data[msg.sender] */\n      0x00\n        /* \"finalBlockship.sol\":1982:1992  msg.sender */\n      caller\n        /* \"finalBlockship.sol\":1977:1993  data[msg.sender] */\n      0xffffffffffffffffffffffffffffffffffffffff\n      and\n      0xffffffffffffffffffffffffffffffffffffffff\n      and\n      dup2\n      mstore\n      0x20\n      add\n      swap1\n      dup2\n      mstore\n      0x20\n      add\n      0x00\n      keccak256\n        /* \"finalBlockship.sol\":1977:2000  data[msg.sender].booked */\n      0x05\n      add\n      0x00\n      swap1\n      sload\n      swap1\n      0x0100\n      exp\n      swap1\n      div\n      0xff\n      and\n        /* \"finalBlockship.sol\":1966:1973  _booked */\n      0x05\n      0x15\n        /* \"finalBlockship.sol\":1966:2000  _booked =  data[msg.sender].booked */\n      0x0100\n      exp\n      dup2\n      sload\n      dup2\n      0xff\n      mul\n      not\n      and\n      swap1\n      dup4\n      iszero\n      iszero\n      mul\n      or\n      swap1\n      sstore\n      pop\n        /* \"finalBlockship.sol\":1800:2017  if(convert==0){\r... */\n    tag_82:\n        /* \"finalBlockship.sol\":1607:2024  function firstClass() public {\r... */\n      jump\t// out\n        /* \"finalBlockship.sol\":1173:1597  function economyClass() public {\r... */\n    tag_23:\n        /* \"finalBlockship.sol\":1224:1228  data */\n      0x06\n        /* \"finalBlockship.sol\":1224:1240  data[msg.sender] */\n      0x00\n        /* \"finalBlockship.sol\":1229:1239  msg.sender */\n      caller\n        /* \"finalBlockship.sol\":1224:1240  data[msg.sender] */\n      0xffffffffffffffffffffffffffffffffffffffff\n      and\n      0xffffffffffffffffffffffffffffffffffffffff\n      and\n      dup2\n      mstore\n      0x20\n      add\n      swap1\n      dup2\n      mstore\n      0x20\n      add\n      0x00\n      keccak256\n        /* \"finalBlockship.sol\":1224:1247  data[msg.sender].booked */\n      0x05\n      add\n      0x00\n      swap1\n      sload\n      swap1\n      0x0100\n      exp\n      swap1\n      div\n      0xff\n      and\n        /* \"finalBlockship.sol\":1223:1247  !data[msg.sender].booked */\n      iszero\n        /* \"finalBlockship.sol\":1215:1281  require(!data[msg.sender].booked, \"you have already book a class\") */\n      tag_87\n      jumpi\n      mload(0x40)\n      0x08c379a000000000000000000000000000000000000000000000000000000000\n      dup2\n      mstore\n      0x04\n      add\n      tag_88\n      swap1\n      tag_76\n      jump\t// in\n    tag_88:\n      mload(0x40)\n      dup1\n      swap2\n      sub\n      swap1\n      revert\n    tag_87:\n        /* \"finalBlockship.sol\":1297:1320  classTypes.economyClass */\n      0x01\n        /* \"finalBlockship.sol\":1293:1295  u1 */\n      0x00\n      dup1\n        /* \"finalBlockship.sol\":1293:1320  u1= classTypes.economyClass */\n      0x0100\n      exp\n      dup2\n      sload\n      dup2\n      0xff\n      mul\n      not\n      and\n      swap1\n      dup4\n      0x02\n      dup2\n      gt\n      iszero\n      tag_89\n      jumpi\n      tag_90\n      tag_79\n      jump\t// in\n    tag_90:\n    tag_89:\n      mul\n      or\n      swap1\n      sstore\n      pop\n        /* \"finalBlockship.sol\":1351:1353  u1 */\n      0x00\n      dup1\n      sload\n      swap1\n      0x0100\n      exp\n      swap1\n      div\n      0xff\n      and\n        /* \"finalBlockship.sol\":1346:1354  uint(u1) */\n      0x02\n      dup2\n      gt\n      iszero\n      tag_91\n      jumpi\n      tag_92\n      tag_79\n      jump\t// in\n    tag_92:\n    tag_91:\n        /* \"finalBlockship.sol\":1336:1343  convert */\n      0x02\n        /* \"finalBlockship.sol\":1336:1354  convert = uint(u1) */\n      dup2\n      swap1\n      sstore\n      pop\n        /* \"finalBlockship.sol\":1382:1383  1 */\n      0x01\n        /* \"finalBlockship.sol\":1373:1380  convert */\n      sload(0x02)\n        /* \"finalBlockship.sol\":1373:1383  convert==1 */\n      eq\n        /* \"finalBlockship.sol\":1370:1590  if(convert==1){\r... */\n      iszero\n      tag_93\n      jumpi\n        /* \"finalBlockship.sol\":1403:1428  realVal = \"Economy Class\" */\n      mload(0x40)\n      dup1\n      0x40\n      add\n      0x40\n      mstore\n      dup1\n      0x0d\n      dup2\n      mstore\n      0x20\n      add\n      0x45636f6e6f6d7920436c61737300000000000000000000000000000000000000\n      dup2\n      mstore\n      pop\n        /* \"finalBlockship.sol\":1403:1410  realVal */\n      0x03\n        /* \"finalBlockship.sol\":1403:1428  realVal = \"Economy Class\" */\n      swap1\n      dup1\n      mload\n      swap1\n      0x20\n      add\n      swap1\n      tag_94\n      swap3\n      swap2\n      swap1\n      tag_58\n      jump\t// in\n    tag_94:\n      pop\n        /* \"finalBlockship.sol\":1465:1469  5e15 */\n      0x11c37937e08000\n        /* \"finalBlockship.sol\":1456:1462  oneWei */\n      sload(0x01)\n        /* \"finalBlockship.sol\":1456:1469  oneWei * 5e15 */\n      tag_95\n      swap2\n      swap1\n      tag_85\n      jump\t// in\n    tag_95:\n        /* \"finalBlockship.sol\":1448:1453  _cost */\n      0x04\n        /* \"finalBlockship.sol\":1448:1469  _cost = oneWei * 5e15 */\n      dup2\n      swap1\n      sstore\n      pop\n        /* \"finalBlockship.sol\":1515:1519  true */\n      0x01\n        /* \"finalBlockship.sol\":1489:1493  data */\n      0x06\n        /* \"finalBlockship.sol\":1489:1505  data[msg.sender] */\n      0x00\n        /* \"finalBlockship.sol\":1494:1504  msg.sender */\n      caller\n        /* \"finalBlockship.sol\":1489:1505  data[msg.sender] */\n      0xffffffffffffffffffffffffffffffffffffffff\n      and\n      0xffffffffffffffffffffffffffffffffffffffff\n      and\n      dup2\n      mstore\n      0x20\n      add\n      swap1\n      dup2\n      mstore\n      0x20\n      add\n      0x00\n      keccak256\n        /* \"finalBlockship.sol\":1489:1512  data[msg.sender].booked */\n      0x05\n      add\n      0x00\n        /* \"finalBlockship.sol\":1489:1519  data[msg.sender].booked = true */\n      0x0100\n      exp\n      dup2\n      sload\n      dup2\n      0xff\n      mul\n      not\n      and\n      swap1\n      dup4\n      iszero\n      iszero\n      mul\n      or\n      swap1\n      sstore\n      pop\n        /* \"finalBlockship.sol\":1550:1554  data */\n      0x06\n        /* \"finalBlockship.sol\":1550:1566  data[msg.sender] */\n      0x00\n        /* \"finalBlockship.sol\":1555:1565  msg.sender */\n      caller\n        /* \"finalBlockship.sol\":1550:1566  data[msg.sender] */\n      0xffffffffffffffffffffffffffffffffffffffff\n      and\n      0xffffffffffffffffffffffffffffffffffffffff\n      and\n      dup2\n      mstore\n      0x20\n      add\n      swap1\n      dup2\n      mstore\n      0x20\n      add\n      0x00\n      keccak256\n        /* \"finalBlockship.sol\":1550:1573  data[msg.sender].booked */\n      0x05\n      add\n      0x00\n      swap1\n      sload\n      swap1\n      0x0100\n      exp\n      swap1\n      div\n      0xff\n      and\n        /* \"finalBlockship.sol\":1539:1546  _booked */\n      0x05\n      0x15\n        /* \"finalBlockship.sol\":1539:1573  _booked =  data[msg.sender].booked */\n      0x0100\n      exp\n      dup2\n      sload\n      dup2\n      0xff\n      mul\n      not\n      and\n      swap1\n      dup4\n      iszero\n      iszero\n      mul\n      or\n      swap1\n      sstore\n      pop\n        /* \"finalBlockship.sol\":1370:1590  if(convert==1){\r... */\n    tag_93:\n        /* \"finalBlockship.sol\":1173:1597  function economyClass() public {\r... */\n      jump\t// out\n        /* \"finalBlockship.sol\":476:496  address public owner */\n    tag_26:\n      0x05\n      0x00\n      swap1\n      sload\n      swap1\n      0x0100\n      exp\n      swap1\n      div\n      0xffffffffffffffffffffffffffffffffffffffff\n      and\n      dup2\n      jump\t// out\n        /* \"finalBlockship.sol\":1079:1169  function see() public view returns(bool){\r... */\n    tag_31:\n        /* \"finalBlockship.sol\":1114:1118  bool */\n      0x00\n        /* \"finalBlockship.sol\":1137:1141  data */\n      0x06\n        /* \"finalBlockship.sol\":1137:1153  data[msg.sender] */\n      0x00\n        /* \"finalBlockship.sol\":1142:1152  msg.sender */\n      caller\n        /* \"finalBlockship.sol\":1137:1153  data[msg.sender] */\n      0xffffffffffffffffffffffffffffffffffffffff\n      and\n      0xffffffffffffffffffffffffffffffffffffffff\n      and\n      dup2\n      mstore\n      0x20\n      add\n      swap1\n      dup2\n      mstore\n      0x20\n      add\n      0x00\n      keccak256\n        /* \"finalBlockship.sol\":1137:1161  data[msg.sender].confrim */\n      0x05\n      add\n      0x01\n      swap1\n      sload\n      swap1\n      0x0100\n      exp\n      swap1\n      div\n      0xff\n      and\n        /* \"finalBlockship.sol\":1130:1161  return data[msg.sender].confrim */\n      swap1\n      pop\n        /* \"finalBlockship.sol\":1079:1169  function see() public view returns(bool){\r... */\n      swap1\n      jump\t// out\n        /* \"finalBlockship.sol\":2031:2468  function busnissClass() public {\r... */\n    tag_36:\n        /* \"finalBlockship.sol\":2091:2095  data */\n      0x06\n        /* \"finalBlockship.sol\":2091:2107  data[msg.sender] */\n      0x00\n        /* \"finalBlockship.sol\":2096:2106  msg.sender */\n      caller\n        /* \"finalBlockship.sol\":2091:2107  data[msg.sender] */\n      0xffffffffffffffffffffffffffffffffffffffff\n      and\n      0xffffffffffffffffffffffffffffffffffffffff\n      and\n      dup2\n      mstore\n      0x20\n      add\n      swap1\n      dup2\n      mstore\n      0x20\n      add\n      0x00\n      keccak256\n        /* \"finalBlockship.sol\":2091:2114  data[msg.sender].booked */\n      0x05\n      add\n      0x00\n      swap1\n      sload\n      swap1\n      0x0100\n      exp\n      swap1\n      div\n      0xff\n      and\n        /* \"finalBlockship.sol\":2090:2114  !data[msg.sender].booked */\n      iszero\n        /* \"finalBlockship.sol\":2082:2148  require(!data[msg.sender].booked, \"you have already book a class\") */\n      tag_98\n      jumpi\n      mload(0x40)\n      0x08c379a000000000000000000000000000000000000000000000000000000000\n      dup2\n      mstore\n      0x04\n      add\n      tag_99\n      swap1\n      tag_76\n      jump\t// in\n    tag_99:\n      mload(0x40)\n      dup1\n      swap2\n      sub\n      swap1\n      revert\n    tag_98:\n        /* \"finalBlockship.sol\":2164:2187  classTypes.busnissClass */\n      0x02\n        /* \"finalBlockship.sol\":2160:2162  u1 */\n      0x00\n      dup1\n        /* \"finalBlockship.sol\":2160:2187  u1= classTypes.busnissClass */\n      0x0100\n      exp\n      dup2\n      sload\n      dup2\n      0xff\n      mul\n      not\n      and\n      swap1\n      dup4\n      0x02\n      dup2\n      gt\n      iszero\n      tag_100\n      jumpi\n      tag_101\n      tag_79\n      jump\t// in\n    tag_101:\n    tag_100:\n      mul\n      or\n      swap1\n      sstore\n      pop\n        /* \"finalBlockship.sol\":2218:2220  u1 */\n      0x00\n      dup1\n      sload\n      swap1\n      0x0100\n      exp\n      swap1\n      div\n      0xff\n      and\n        /* \"finalBlockship.sol\":2213:2221  uint(u1) */\n      0x02\n      dup2\n      gt\n      iszero\n      tag_102\n      jumpi\n      tag_103\n      tag_79\n      jump\t// in\n    tag_103:\n    tag_102:\n        /* \"finalBlockship.sol\":2203:2210  convert */\n      0x02\n        /* \"finalBlockship.sol\":2203:2221  convert = uint(u1) */\n      dup2\n      swap1\n      sstore\n      pop\n        /* \"finalBlockship.sol\":2249:2250  2 */\n      0x02\n        /* \"finalBlockship.sol\":2240:2247  convert */\n      dup1\n      sload\n        /* \"finalBlockship.sol\":2240:2250  convert==2 */\n      eq\n        /* \"finalBlockship.sol\":2237:2461  if(convert==2){\r... */\n      iszero\n      tag_104\n      jumpi\n        /* \"finalBlockship.sol\":2270:2296  realVal = \"Business Class\" */\n      mload(0x40)\n      dup1\n      0x40\n      add\n      0x40\n      mstore\n      dup1\n      0x0e\n      dup2\n      mstore\n      0x20\n      add\n      0x427573696e65737320436c617373000000000000000000000000000000000000\n      dup2\n      mstore\n      pop\n        /* \"finalBlockship.sol\":2270:2277  realVal */\n      0x03\n        /* \"finalBlockship.sol\":2270:2296  realVal = \"Business Class\" */\n      swap1\n      dup1\n      mload\n      swap1\n      0x20\n      add\n      swap1\n      tag_105\n      swap3\n      swap2\n      swap1\n      tag_58\n      jump\t// in\n    tag_105:\n      pop\n        /* \"finalBlockship.sol\":2332:2336  7e15 */\n      0x18de76816d8000\n        /* \"finalBlockship.sol\":2323:2329  oneWei */\n      sload(0x01)\n        /* \"finalBlockship.sol\":2323:2336  oneWei * 7e15 */\n      tag_106\n      swap2\n      swap1\n      tag_85\n      jump\t// in\n    tag_106:\n        /* \"finalBlockship.sol\":2315:2320  _cost */\n      0x04\n        /* \"finalBlockship.sol\":2315:2336  _cost = oneWei * 7e15 */\n      dup2\n      swap1\n      sstore\n      pop\n        /* \"finalBlockship.sol\":2384:2388  true */\n      0x01\n        /* \"finalBlockship.sol\":2358:2362  data */\n      0x06\n        /* \"finalBlockship.sol\":2358:2374  data[msg.sender] */\n      0x00\n        /* \"finalBlockship.sol\":2363:2373  msg.sender */\n      caller\n        /* \"finalBlockship.sol\":2358:2374  data[msg.sender] */\n      0xffffffffffffffffffffffffffffffffffffffff\n      and\n      0xffffffffffffffffffffffffffffffffffffffff\n      and\n      dup2\n      mstore\n      0x20\n      add\n      swap1\n      dup2\n      mstore\n      0x20\n      add\n      0x00\n      keccak256\n        /* \"finalBlockship.sol\":2358:2381  data[msg.sender].booked */\n      0x05\n      add\n      0x00\n        /* \"finalBlockship.sol\":2358:2388  data[msg.sender].booked = true */\n      0x0100\n      exp\n      dup2\n      sload\n      dup2\n      0xff\n      mul\n      not\n      and\n      swap1\n      dup4\n      iszero\n      iszero\n      mul\n      or\n      swap1\n      sstore\n      pop\n        /* \"finalBlockship.sol\":2421:2425  data */\n      0x06\n        /* \"finalBlockship.sol\":2421:2437  data[msg.sender] */\n      0x00\n        /* \"finalBlockship.sol\":2426:2436  msg.sender */\n      caller\n        /* \"finalBlockship.sol\":2421:2437  data[msg.sender] */\n      0xffffffffffffffffffffffffffffffffffffffff\n      and\n      0xffffffffffffffffffffffffffffffffffffffff\n      and\n      dup2\n      mstore\n      0x20\n      add\n      swap1\n      dup2\n      mstore\n      0x20\n      add\n      0x00\n      keccak256\n        /* \"finalBlockship.sol\":2421:2444  data[msg.sender].booked */\n      0x05\n      add\n      0x00\n      swap1\n      sload\n      swap1\n      0x0100\n      exp\n      swap1\n      div\n      0xff\n      and\n        /* \"finalBlockship.sol\":2410:2417  _booked */\n      0x05\n      0x15\n        /* \"finalBlockship.sol\":2410:2444  _booked =  data[msg.sender].booked */\n      0x0100\n      exp\n      dup2\n      sload\n      dup2\n      0xff\n      mul\n      not\n      and\n      swap1\n      dup4\n      iszero\n      iszero\n      mul\n      or\n      swap1\n      sstore\n      pop\n        /* \"finalBlockship.sol\":2237:2461  if(convert==2){\r... */\n    tag_104:\n        /* \"finalBlockship.sol\":2031:2468  function busnissClass() public {\r... */\n      jump\t// out\n        /* \"finalBlockship.sol\":580:617  mapping (address => User) public data */\n    tag_41:\n      mstore(0x20, 0x06)\n      dup1\n      0x00\n      mstore\n      keccak256(0x00, 0x40)\n      0x00\n      swap2\n      pop\n      swap1\n      pop\n      dup1\n      0x00\n      add\n      dup1\n      sload\n      tag_107\n      swap1\n      tag_52\n      jump\t// in\n    tag_107:\n      dup1\n      0x1f\n      add\n      0x20\n      dup1\n      swap2\n      div\n      mul\n      0x20\n      add\n      mload(0x40)\n      swap1\n      dup2\n      add\n      0x40\n      mstore\n      dup1\n      swap3\n      swap2\n      swap1\n      dup2\n      dup2\n      mstore\n      0x20\n      add\n      dup3\n      dup1\n      sload\n      tag_108\n      swap1\n      tag_52\n      jump\t// in\n    tag_108:\n      dup1\n      iszero\n      tag_109\n      jumpi\n      dup1\n      0x1f\n      lt\n      tag_110\n      jumpi\n      0x0100\n      dup1\n      dup4\n      sload\n      div\n      mul\n      dup4\n      mstore\n      swap2\n      0x20\n      add\n      swap2\n      jump(tag_109)\n    tag_110:\n      dup3\n      add\n      swap2\n      swap1\n      0x00\n      mstore\n      keccak256(0x00, 0x20)\n      swap1\n    tag_111:\n      dup2\n      sload\n      dup2\n      mstore\n      swap1\n      0x01\n      add\n      swap1\n      0x20\n      add\n      dup1\n      dup4\n      gt\n      tag_111\n      jumpi\n      dup3\n      swap1\n      sub\n      0x1f\n      and\n      dup3\n      add\n      swap2\n    tag_109:\n      pop\n      pop\n      pop\n      pop\n      pop\n      swap1\n      dup1\n      0x01\n      add\n      dup1\n      sload\n      tag_112\n      swap1\n      tag_52\n      jump\t// in\n    tag_112:\n      dup1\n      0x1f\n      add\n      0x20\n      dup1\n      swap2\n      div\n      mul\n      0x20\n      add\n      mload(0x40)\n      swap1\n      dup2\n      add\n      0x40\n      mstore\n      dup1\n      swap3\n      swap2\n      swap1\n      dup2\n      dup2\n      mstore\n      0x20\n      add\n      dup3\n      dup1\n      sload\n      tag_113\n      swap1\n      tag_52\n      jump\t// in\n    tag_113:\n      dup1\n      iszero\n      tag_114\n      jumpi\n      dup1\n      0x1f\n      lt\n      tag_115\n      jumpi\n      0x0100\n      dup1\n      dup4\n      sload\n      div\n      mul\n      dup4\n      mstore\n      swap2\n      0x20\n      add\n      swap2\n      jump(tag_114)\n    tag_115:\n      dup3\n      add\n      swap2\n      swap1\n      0x00\n      mstore\n      keccak256(0x00, 0x20)\n      swap1\n    tag_116:\n      dup2\n      sload\n      dup2\n      mstore\n      swap1\n      0x01\n      add\n      swap1\n      0x20\n      add\n      dup1\n      dup4\n      gt\n      tag_116\n      jumpi\n      dup3\n      swap1\n      sub\n      0x1f\n      and\n      dup3\n      add\n      swap2\n    tag_114:\n      pop\n      pop\n      pop\n      pop\n      pop\n      swap1\n      dup1\n      0x02\n      add\n      sload\n      swap1\n      dup1\n      0x03\n      add\n      dup1\n      sload\n      tag_117\n      swap1\n      tag_52\n      jump\t// in\n    tag_117:\n      dup1\n      0x1f\n      add\n      0x20\n      dup1\n      swap2\n      div\n      mul\n      0x20\n      add\n      mload(0x40)\n      swap1\n      dup2\n      add\n      0x40\n      mstore\n      dup1\n      swap3\n      swap2\n      swap1\n      dup2\n      dup2\n      mstore\n      0x20\n      add\n      dup3\n      dup1\n      sload\n      tag_118\n      swap1\n      tag_52\n      jump\t// in\n    tag_118:\n      dup1\n      iszero\n      tag_119\n      jumpi\n      dup1\n      0x1f\n      lt\n      tag_120\n      jumpi\n      0x0100\n      dup1\n      dup4\n      sload\n      div\n      mul\n      dup4\n      mstore\n      swap2\n      0x20\n      add\n      swap2\n      jump(tag_119)\n    tag_120:\n      dup3\n      add\n      swap2\n      swap1\n      0x00\n      mstore\n      keccak256(0x00, 0x20)\n      swap1\n    tag_121:\n      dup2\n      sload\n      dup2\n      mstore\n      swap1\n      0x01\n      add\n      swap1\n      0x20\n      add\n      dup1\n      dup4\n      gt\n      tag_121\n      jumpi\n      dup3\n      swap1\n      sub\n      0x1f\n      and\n      dup3\n      add\n      swap2\n    tag_119:\n      pop\n      pop\n      pop\n      pop\n      pop\n      swap1\n      dup1\n      0x04\n      add\n      sload\n      swap1\n      dup1\n      0x05\n      add\n      0x00\n      swap1\n      sload\n      swap1\n      0x0100\n      exp\n      swap1\n      div\n      0xff\n      and\n      swap1\n      dup1\n      0x05\n      add\n      0x01\n      swap1\n      sload\n      swap1\n      0x0100\n      exp\n      swap1\n      div\n      0xff\n      and\n      swap1\n      pop\n      dup8\n      jump\t// out\n    tag_58:\n      dup3\n      dup1\n      sload\n      tag_122\n      swap1\n      tag_52\n      jump\t// in\n    tag_122:\n      swap1\n      0x00\n      mstore\n      keccak256(0x00, 0x20)\n      swap1\n      0x1f\n      add\n      0x20\n      swap1\n      div\n      dup2\n      add\n      swap3\n      dup3\n      tag_124\n      jumpi\n      0x00\n      dup6\n      sstore\n      jump(tag_123)\n    tag_124:\n      dup3\n      0x1f\n      lt\n      tag_125\n      jumpi\n      dup1\n      mload\n      not(0xff)\n      and\n      dup4\n      dup1\n      add\n      or\n      dup6\n      sstore\n      jump(tag_123)\n    tag_125:\n      dup3\n      dup1\n      add\n      0x01\n      add\n      dup6\n      sstore\n      dup3\n      iszero\n      tag_123\n      jumpi\n      swap2\n      dup3\n      add\n    tag_126:\n      dup3\n      dup2\n      gt\n      iszero\n      tag_127\n      jumpi\n      dup3\n      mload\n      dup3\n      sstore\n      swap2\n      0x20\n      add\n      swap2\n      swap1\n      0x01\n      add\n      swap1\n      jump(tag_126)\n    tag_127:\n    tag_123:\n      pop\n      swap1\n      pop\n      tag_128\n      swap2\n      swap1\n      tag_129\n      jump\t// in\n    tag_128:\n      pop\n      swap1\n      jump\t// out\n    tag_70:\n      pop\n      dup1\n      sload\n      tag_130\n      swap1\n      tag_52\n      jump\t// in\n    tag_130:\n      0x00\n      dup3\n      sstore\n      dup1\n      0x1f\n      lt\n      tag_132\n      jumpi\n      pop\n      jump(tag_131)\n    tag_132:\n      0x1f\n      add\n      0x20\n      swap1\n      div\n      swap1\n      0x00\n      mstore\n      keccak256(0x00, 0x20)\n      swap1\n      dup2\n      add\n      swap1\n      tag_133\n      swap2\n      swap1\n      tag_129\n      jump\t// in\n    tag_133:\n    tag_131:\n      pop\n      jump\t// out\n    tag_129:\n    tag_134:\n      dup1\n      dup3\n      gt\n      iszero\n      tag_135\n      jumpi\n      0x00\n      dup2\n      0x00\n      swap1\n      sstore\n      pop\n      0x01\n      add\n      jump(tag_134)\n    tag_135:\n      pop\n      swap1\n      jump\t// out\n        /* \"#utility.yul\":7:419   */\n    tag_137:\n        /* \"#utility.yul\":85:90   */\n      0x00\n        /* \"#utility.yul\":110:176   */\n      tag_139\n        /* \"#utility.yul\":126:175   */\n      tag_140\n        /* \"#utility.yul\":168:174   */\n      dup5\n        /* \"#utility.yul\":126:175   */\n      tag_141\n      jump\t// in\n    tag_140:\n        /* \"#utility.yul\":110:176   */\n      tag_142\n      jump\t// in\n    tag_139:\n        /* \"#utility.yul\":101:176   */\n      swap1\n      pop\n        /* \"#utility.yul\":199:205   */\n      dup3\n        /* \"#utility.yul\":192:197   */\n      dup2\n        /* \"#utility.yul\":185:206   */\n      mstore\n        /* \"#utility.yul\":237:241   */\n      0x20\n        /* \"#utility.yul\":230:235   */\n      dup2\n        /* \"#utility.yul\":226:242   */\n      add\n        /* \"#utility.yul\":275:278   */\n      dup5\n        /* \"#utility.yul\":266:272   */\n      dup5\n        /* \"#utility.yul\":261:264   */\n      dup5\n        /* \"#utility.yul\":257:273   */\n      add\n        /* \"#utility.yul\":254:279   */\n      gt\n        /* \"#utility.yul\":251:363   */\n      iszero\n      tag_143\n      jumpi\n        /* \"#utility.yul\":282:361   */\n      tag_144\n      tag_145\n      jump\t// in\n    tag_144:\n        /* \"#utility.yul\":251:363   */\n    tag_143:\n        /* \"#utility.yul\":372:413   */\n      tag_146\n        /* \"#utility.yul\":406:412   */\n      dup5\n        /* \"#utility.yul\":401:404   */\n      dup3\n        /* \"#utility.yul\":396:399   */\n      dup6\n        /* \"#utility.yul\":372:413   */\n      tag_147\n      jump\t// in\n    tag_146:\n        /* \"#utility.yul\":91:419   */\n      pop\n        /* \"#utility.yul\":7:419   */\n      swap4\n      swap3\n      pop\n      pop\n      pop\n      jump\t// out\n        /* \"#utility.yul\":425:564   */\n    tag_148:\n        /* \"#utility.yul\":471:476   */\n      0x00\n        /* \"#utility.yul\":509:515   */\n      dup2\n        /* \"#utility.yul\":496:516   */\n      calldataload\n        /* \"#utility.yul\":487:516   */\n      swap1\n      pop\n        /* \"#utility.yul\":525:558   */\n      tag_150\n        /* \"#utility.yul\":552:557   */\n      dup2\n        /* \"#utility.yul\":525:558   */\n      tag_151\n      jump\t// in\n    tag_150:\n        /* \"#utility.yul\":425:564   */\n      swap3\n      swap2\n      pop\n      pop\n      jump\t// out\n        /* \"#utility.yul\":584:924   */\n    tag_152:\n        /* \"#utility.yul\":640:645   */\n      0x00\n        /* \"#utility.yul\":689:692   */\n      dup3\n        /* \"#utility.yul\":682:686   */\n      0x1f\n        /* \"#utility.yul\":674:680   */\n      dup4\n        /* \"#utility.yul\":670:687   */\n      add\n        /* \"#utility.yul\":666:693   */\n      slt\n        /* \"#utility.yul\":656:778   */\n      tag_154\n      jumpi\n        /* \"#utility.yul\":697:776   */\n      tag_155\n      tag_156\n      jump\t// in\n    tag_155:\n        /* \"#utility.yul\":656:778   */\n    tag_154:\n        /* \"#utility.yul\":814:820   */\n      dup2\n        /* \"#utility.yul\":801:821   */\n      calldataload\n        /* \"#utility.yul\":839:918   */\n      tag_157\n        /* \"#utility.yul\":914:917   */\n      dup5\n        /* \"#utility.yul\":906:912   */\n      dup3\n        /* \"#utility.yul\":899:903   */\n      0x20\n        /* \"#utility.yul\":891:897   */\n      dup7\n        /* \"#utility.yul\":887:904   */\n      add\n        /* \"#utility.yul\":839:918   */\n      tag_137\n      jump\t// in\n    tag_157:\n        /* \"#utility.yul\":830:918   */\n      swap2\n      pop\n        /* \"#utility.yul\":646:924   */\n      pop\n        /* \"#utility.yul\":584:924   */\n      swap3\n      swap2\n      pop\n      pop\n      jump\t// out\n        /* \"#utility.yul\":930:1069   */\n    tag_158:\n        /* \"#utility.yul\":976:981   */\n      0x00\n        /* \"#utility.yul\":1014:1020   */\n      dup2\n        /* \"#utility.yul\":1001:1021   */\n      calldataload\n        /* \"#utility.yul\":992:1021   */\n      swap1\n      pop\n        /* \"#utility.yul\":1030:1063   */\n      tag_160\n        /* \"#utility.yul\":1057:1062   */\n      dup2\n        /* \"#utility.yul\":1030:1063   */\n      tag_161\n      jump\t// in\n    tag_160:\n        /* \"#utility.yul\":930:1069   */\n      swap3\n      swap2\n      pop\n      pop\n      jump\t// out\n        /* \"#utility.yul\":1075:1404   */\n    tag_40:\n        /* \"#utility.yul\":1134:1140   */\n      0x00\n        /* \"#utility.yul\":1183:1185   */\n      0x20\n        /* \"#utility.yul\":1171:1180   */\n      dup3\n        /* \"#utility.yul\":1162:1169   */\n      dup5\n        /* \"#utility.yul\":1158:1181   */\n      sub\n        /* \"#utility.yul\":1154:1186   */\n      slt\n        /* \"#utility.yul\":1151:1270   */\n      iszero\n      tag_163\n      jumpi\n        /* \"#utility.yul\":1189:1268   */\n      tag_164\n      tag_165\n      jump\t// in\n    tag_164:\n        /* \"#utility.yul\":1151:1270   */\n    tag_163:\n        /* \"#utility.yul\":1309:1310   */\n      0x00\n        /* \"#utility.yul\":1334:1387   */\n      tag_166\n        /* \"#utility.yul\":1379:1386   */\n      dup5\n        /* \"#utility.yul\":1370:1376   */\n      dup3\n        /* \"#utility.yul\":1359:1368   */\n      dup6\n        /* \"#utility.yul\":1355:1377   */\n      add\n        /* \"#utility.yul\":1334:1387   */\n      tag_148\n      jump\t// in\n    tag_166:\n        /* \"#utility.yul\":1324:1387   */\n      swap2\n      pop\n        /* \"#utility.yul\":1280:1397   */\n      pop\n        /* \"#utility.yul\":1075:1404   */\n      swap3\n      swap2\n      pop\n      pop\n      jump\t// out\n        /* \"#utility.yul\":1410:2389   */\n    tag_14:\n        /* \"#utility.yul\":1507:1513   */\n      0x00\n        /* \"#utility.yul\":1515:1521   */\n      dup1\n        /* \"#utility.yul\":1523:1529   */\n      0x00\n        /* \"#utility.yul\":1572:1574   */\n      0x60\n        /* \"#utility.yul\":1560:1569   */\n      dup5\n        /* \"#utility.yul\":1551:1558   */\n      dup7\n        /* \"#utility.yul\":1547:1570   */\n      sub\n        /* \"#utility.yul\":1543:1575   */\n      slt\n        /* \"#utility.yul\":1540:1659   */\n      iszero\n      tag_168\n      jumpi\n        /* \"#utility.yul\":1578:1657   */\n      tag_169\n      tag_165\n      jump\t// in\n    tag_169:\n        /* \"#utility.yul\":1540:1659   */\n    tag_168:\n        /* \"#utility.yul\":1726:1727   */\n      0x00\n        /* \"#utility.yul\":1715:1724   */\n      dup5\n        /* \"#utility.yul\":1711:1728   */\n      add\n        /* \"#utility.yul\":1698:1729   */\n      calldataload\n        /* \"#utility.yul\":1756:1774   */\n      0xffffffffffffffff\n        /* \"#utility.yul\":1748:1754   */\n      dup2\n        /* \"#utility.yul\":1745:1775   */\n      gt\n        /* \"#utility.yul\":1742:1859   */\n      iszero\n      tag_170\n      jumpi\n        /* \"#utility.yul\":1778:1857   */\n      tag_171\n      tag_172\n      jump\t// in\n    tag_171:\n        /* \"#utility.yul\":1742:1859   */\n    tag_170:\n        /* \"#utility.yul\":1883:1946   */\n      tag_173\n        /* \"#utility.yul\":1938:1945   */\n      dup7\n        /* \"#utility.yul\":1929:1935   */\n      dup3\n        /* \"#utility.yul\":1918:1927   */\n      dup8\n        /* \"#utility.yul\":1914:1936   */\n      add\n        /* \"#utility.yul\":1883:1946   */\n      tag_152\n      jump\t// in\n    tag_173:\n        /* \"#utility.yul\":1873:1946   */\n      swap4\n      pop\n        /* \"#utility.yul\":1669:1956   */\n      pop\n        /* \"#utility.yul\":2023:2025   */\n      0x20\n        /* \"#utility.yul\":2012:2021   */\n      dup5\n        /* \"#utility.yul\":2008:2026   */\n      add\n        /* \"#utility.yul\":1995:2027   */\n      calldataload\n        /* \"#utility.yul\":2054:2072   */\n      0xffffffffffffffff\n        /* \"#utility.yul\":2046:2052   */\n      dup2\n        /* \"#utility.yul\":2043:2073   */\n      gt\n        /* \"#utility.yul\":2040:2157   */\n      iszero\n      tag_174\n      jumpi\n        /* \"#utility.yul\":2076:2155   */\n      tag_175\n      tag_172\n      jump\t// in\n    tag_175:\n        /* \"#utility.yul\":2040:2157   */\n    tag_174:\n        /* \"#utility.yul\":2181:2244   */\n      tag_176\n        /* \"#utility.yul\":2236:2243   */\n      dup7\n        /* \"#utility.yul\":2227:2233   */\n      dup3\n        /* \"#utility.yul\":2216:2225   */\n      dup8\n        /* \"#utility.yul\":2212:2234   */\n      add\n        /* \"#utility.yul\":2181:2244   */\n      tag_152\n      jump\t// in\n    tag_176:\n        /* \"#utility.yul\":2171:2244   */\n      swap3\n      pop\n        /* \"#utility.yul\":1966:2254   */\n      pop\n        /* \"#utility.yul\":2293:2295   */\n      0x40\n        /* \"#utility.yul\":2319:2372   */\n      tag_177\n        /* \"#utility.yul\":2364:2371   */\n      dup7\n        /* \"#utility.yul\":2355:2361   */\n      dup3\n        /* \"#utility.yul\":2344:2353   */\n      dup8\n        /* \"#utility.yul\":2340:2362   */\n      add\n        /* \"#utility.yul\":2319:2372   */\n      tag_158\n      jump\t// in\n    tag_177:\n        /* \"#utility.yul\":2309:2372   */\n      swap2\n      pop\n        /* \"#utility.yul\":2264:2382   */\n      pop\n        /* \"#utility.yul\":1410:2389   */\n      swap3\n      pop\n      swap3\n      pop\n      swap3\n      jump\t// out\n        /* \"#utility.yul\":2395:2513   */\n    tag_178:\n        /* \"#utility.yul\":2482:2506   */\n      tag_180\n        /* \"#utility.yul\":2500:2505   */\n      dup2\n        /* \"#utility.yul\":2482:2506   */\n      tag_181\n      jump\t// in\n    tag_180:\n        /* \"#utility.yul\":2477:2480   */\n      dup3\n        /* \"#utility.yul\":2470:2507   */\n      mstore\n        /* \"#utility.yul\":2395:2513   */\n      pop\n      pop\n      jump\t// out\n        /* \"#utility.yul\":2519:2628   */\n    tag_182:\n        /* \"#utility.yul\":2600:2621   */\n      tag_184\n        /* \"#utility.yul\":2615:2620   */\n      dup2\n        /* \"#utility.yul\":2600:2621   */\n      tag_185\n      jump\t// in\n    tag_184:\n        /* \"#utility.yul\":2595:2598   */\n      dup3\n        /* \"#utility.yul\":2588:2622   */\n      mstore\n        /* \"#utility.yul\":2519:2628   */\n      pop\n      pop\n      jump\t// out\n        /* \"#utility.yul\":2634:2998   */\n    tag_186:\n        /* \"#utility.yul\":2722:2725   */\n      0x00\n        /* \"#utility.yul\":2750:2789   */\n      tag_188\n        /* \"#utility.yul\":2783:2788   */\n      dup3\n        /* \"#utility.yul\":2750:2789   */\n      tag_189\n      jump\t// in\n    tag_188:\n        /* \"#utility.yul\":2805:2876   */\n      tag_190\n        /* \"#utility.yul\":2869:2875   */\n      dup2\n        /* \"#utility.yul\":2864:2867   */\n      dup6\n        /* \"#utility.yul\":2805:2876   */\n      tag_191\n      jump\t// in\n    tag_190:\n        /* \"#utility.yul\":2798:2876   */\n      swap4\n      pop\n        /* \"#utility.yul\":2885:2937   */\n      tag_192\n        /* \"#utility.yul\":2930:2936   */\n      dup2\n        /* \"#utility.yul\":2925:2928   */\n      dup6\n        /* \"#utility.yul\":2918:2922   */\n      0x20\n        /* \"#utility.yul\":2911:2916   */\n      dup7\n        /* \"#utility.yul\":2907:2923   */\n      add\n        /* \"#utility.yul\":2885:2937   */\n      tag_193\n      jump\t// in\n    tag_192:\n        /* \"#utility.yul\":2962:2991   */\n      tag_194\n        /* \"#utility.yul\":2984:2990   */\n      dup2\n        /* \"#utility.yul\":2962:2991   */\n      tag_195\n      jump\t// in\n    tag_194:\n        /* \"#utility.yul\":2957:2960   */\n      dup5\n        /* \"#utility.yul\":2953:2992   */\n      add\n        /* \"#utility.yul\":2946:2992   */\n      swap2\n      pop\n        /* \"#utility.yul\":2726:2998   */\n      pop\n        /* \"#utility.yul\":2634:2998   */\n      swap3\n      swap2\n      pop\n      pop\n      jump\t// out\n        /* \"#utility.yul\":3004:3370   */\n    tag_196:\n        /* \"#utility.yul\":3146:3149   */\n      0x00\n        /* \"#utility.yul\":3167:3234   */\n      tag_198\n        /* \"#utility.yul\":3231:3233   */\n      0x25\n        /* \"#utility.yul\":3226:3229   */\n      dup4\n        /* \"#utility.yul\":3167:3234   */\n      tag_191\n      jump\t// in\n    tag_198:\n        /* \"#utility.yul\":3160:3234   */\n      swap2\n      pop\n        /* \"#utility.yul\":3243:3336   */\n      tag_199\n        /* \"#utility.yul\":3332:3335   */\n      dup3\n        /* \"#utility.yul\":3243:3336   */\n      tag_200\n      jump\t// in\n    tag_199:\n        /* \"#utility.yul\":3361:3363   */\n      0x40\n        /* \"#utility.yul\":3356:3359   */\n      dup3\n        /* \"#utility.yul\":3352:3364   */\n      add\n        /* \"#utility.yul\":3345:3364   */\n      swap1\n      pop\n        /* \"#utility.yul\":3004:3370   */\n      swap2\n      swap1\n      pop\n      jump\t// out\n        /* \"#utility.yul\":3376:3742   */\n    tag_201:\n        /* \"#utility.yul\":3518:3521   */\n      0x00\n        /* \"#utility.yul\":3539:3606   */\n      tag_203\n        /* \"#utility.yul\":3603:3605   */\n      0x1d\n        /* \"#utility.yul\":3598:3601   */\n      dup4\n        /* \"#utility.yul\":3539:3606   */\n      tag_191\n      jump\t// in\n    tag_203:\n        /* \"#utility.yul\":3532:3606   */\n      swap2\n      pop\n        /* \"#utility.yul\":3615:3708   */\n      tag_204\n        /* \"#utility.yul\":3704:3707   */\n      dup3\n        /* \"#utility.yul\":3615:3708   */\n      tag_205\n      jump\t// in\n    tag_204:\n        /* \"#utility.yul\":3733:3735   */\n      0x20\n        /* \"#utility.yul\":3728:3731   */\n      dup3\n        /* \"#utility.yul\":3724:3736   */\n      add\n        /* \"#utility.yul\":3717:3736   */\n      swap1\n      pop\n        /* \"#utility.yul\":3376:3742   */\n      swap2\n      swap1\n      pop\n      jump\t// out\n        /* \"#utility.yul\":3748:4114   */\n    tag_206:\n        /* \"#utility.yul\":3890:3893   */\n      0x00\n        /* \"#utility.yul\":3911:3978   */\n      tag_208\n        /* \"#utility.yul\":3975:3977   */\n      0x1d\n        /* \"#utility.yul\":3970:3973   */\n      dup4\n        /* \"#utility.yul\":3911:3978   */\n      tag_191\n      jump\t// in\n    tag_208:\n        /* \"#utility.yul\":3904:3978   */\n      swap2\n      pop\n        /* \"#utility.yul\":3987:4080   */\n      tag_209\n        /* \"#utility.yul\":4076:4079   */\n      dup3\n        /* \"#utility.yul\":3987:4080   */\n      tag_210\n      jump\t// in\n    tag_209:\n        /* \"#utility.yul\":4105:4107   */\n      0x20\n        /* \"#utility.yul\":4100:4103   */\n      dup3\n        /* \"#utility.yul\":4096:4108   */\n      add\n        /* \"#utility.yul\":4089:4108   */\n      swap1\n      pop\n        /* \"#utility.yul\":3748:4114   */\n      swap2\n      swap1\n      pop\n      jump\t// out\n        /* \"#utility.yul\":4120:4486   */\n    tag_211:\n        /* \"#utility.yul\":4262:4265   */\n      0x00\n        /* \"#utility.yul\":4283:4350   */\n      tag_213\n        /* \"#utility.yul\":4347:4349   */\n      0x20\n        /* \"#utility.yul\":4342:4345   */\n      dup4\n        /* \"#utility.yul\":4283:4350   */\n      tag_191\n      jump\t// in\n    tag_213:\n        /* \"#utility.yul\":4276:4350   */\n      swap2\n      pop\n        /* \"#utility.yul\":4359:4452   */\n      tag_214\n        /* \"#utility.yul\":4448:4451   */\n      dup3\n        /* \"#utility.yul\":4359:4452   */\n      tag_215\n      jump\t// in\n    tag_214:\n        /* \"#utility.yul\":4477:4479   */\n      0x20\n        /* \"#utility.yul\":4472:4475   */\n      dup3\n        /* \"#utility.yul\":4468:4480   */\n      add\n        /* \"#utility.yul\":4461:4480   */\n      swap1\n      pop\n        /* \"#utility.yul\":4120:4486   */\n      swap2\n      swap1\n      pop\n      jump\t// out\n        /* \"#utility.yul\":4492:4610   */\n    tag_216:\n        /* \"#utility.yul\":4579:4603   */\n      tag_218\n        /* \"#utility.yul\":4597:4602   */\n      dup2\n        /* \"#utility.yul\":4579:4603   */\n      tag_219\n      jump\t// in\n    tag_218:\n        /* \"#utility.yul\":4574:4577   */\n      dup3\n        /* \"#utility.yul\":4567:4604   */\n      mstore\n        /* \"#utility.yul\":4492:4610   */\n      pop\n      pop\n      jump\t// out\n        /* \"#utility.yul\":4616:4838   */\n    tag_28:\n        /* \"#utility.yul\":4709:4713   */\n      0x00\n        /* \"#utility.yul\":4747:4749   */\n      0x20\n        /* \"#utility.yul\":4736:4745   */\n      dup3\n        /* \"#utility.yul\":4732:4750   */\n      add\n        /* \"#utility.yul\":4724:4750   */\n      swap1\n      pop\n        /* \"#utility.yul\":4760:4831   */\n      tag_221\n        /* \"#utility.yul\":4828:4829   */\n      0x00\n        /* \"#utility.yul\":4817:4826   */\n      dup4\n        /* \"#utility.yul\":4813:4830   */\n      add\n        /* \"#utility.yul\":4804:4810   */\n      dup5\n        /* \"#utility.yul\":4760:4831   */\n      tag_178\n      jump\t// in\n    tag_221:\n        /* \"#utility.yul\":4616:4838   */\n      swap3\n      swap2\n      pop\n      pop\n      jump\t// out\n        /* \"#utility.yul\":4844:5054   */\n    tag_33:\n        /* \"#utility.yul\":4931:4935   */\n      0x00\n        /* \"#utility.yul\":4969:4971   */\n      0x20\n        /* \"#utility.yul\":4958:4967   */\n      dup3\n        /* \"#utility.yul\":4954:4972   */\n      add\n        /* \"#utility.yul\":4946:4972   */\n      swap1\n      pop\n        /* \"#utility.yul\":4982:5047   */\n      tag_223\n        /* \"#utility.yul\":5044:5045   */\n      0x00\n        /* \"#utility.yul\":5033:5042   */\n      dup4\n        /* \"#utility.yul\":5029:5046   */\n      add\n        /* \"#utility.yul\":5020:5026   */\n      dup5\n        /* \"#utility.yul\":4982:5047   */\n      tag_182\n      jump\t// in\n    tag_223:\n        /* \"#utility.yul\":4844:5054   */\n      swap3\n      swap2\n      pop\n      pop\n      jump\t// out\n        /* \"#utility.yul\":5060:6195   */\n    tag_43:\n        /* \"#utility.yul\":5369:5373   */\n      0x00\n        /* \"#utility.yul\":5407:5410   */\n      0xe0\n        /* \"#utility.yul\":5396:5405   */\n      dup3\n        /* \"#utility.yul\":5392:5411   */\n      add\n        /* \"#utility.yul\":5384:5411   */\n      swap1\n      pop\n        /* \"#utility.yul\":5457:5466   */\n      dup2\n        /* \"#utility.yul\":5451:5455   */\n      dup2\n        /* \"#utility.yul\":5447:5467   */\n      sub\n        /* \"#utility.yul\":5443:5444   */\n      0x00\n        /* \"#utility.yul\":5432:5441   */\n      dup4\n        /* \"#utility.yul\":5428:5445   */\n      add\n        /* \"#utility.yul\":5421:5468   */\n      mstore\n        /* \"#utility.yul\":5485:5563   */\n      tag_225\n        /* \"#utility.yul\":5558:5562   */\n      dup2\n        /* \"#utility.yul\":5549:5555   */\n      dup11\n        /* \"#utility.yul\":5485:5563   */\n      tag_186\n      jump\t// in\n    tag_225:\n        /* \"#utility.yul\":5477:5563   */\n      swap1\n      pop\n        /* \"#utility.yul\":5610:5619   */\n      dup2\n        /* \"#utility.yul\":5604:5608   */\n      dup2\n        /* \"#utility.yul\":5600:5620   */\n      sub\n        /* \"#utility.yul\":5595:5597   */\n      0x20\n        /* \"#utility.yul\":5584:5593   */\n      dup4\n        /* \"#utility.yul\":5580:5598   */\n      add\n        /* \"#utility.yul\":5573:5621   */\n      mstore\n        /* \"#utility.yul\":5638:5716   */\n      tag_226\n        /* \"#utility.yul\":5711:5715   */\n      dup2\n        /* \"#utility.yul\":5702:5708   */\n      dup10\n        /* \"#utility.yul\":5638:5716   */\n      tag_186\n      jump\t// in\n    tag_226:\n        /* \"#utility.yul\":5630:5716   */\n      swap1\n      pop\n        /* \"#utility.yul\":5726:5798   */\n      tag_227\n        /* \"#utility.yul\":5794:5796   */\n      0x40\n        /* \"#utility.yul\":5783:5792   */\n      dup4\n        /* \"#utility.yul\":5779:5797   */\n      add\n        /* \"#utility.yul\":5770:5776   */\n      dup9\n        /* \"#utility.yul\":5726:5798   */\n      tag_216\n      jump\t// in\n    tag_227:\n        /* \"#utility.yul\":5845:5854   */\n      dup2\n        /* \"#utility.yul\":5839:5843   */\n      dup2\n        /* \"#utility.yul\":5835:5855   */\n      sub\n        /* \"#utility.yul\":5830:5832   */\n      0x60\n        /* \"#utility.yul\":5819:5828   */\n      dup4\n        /* \"#utility.yul\":5815:5833   */\n      add\n        /* \"#utility.yul\":5808:5856   */\n      mstore\n        /* \"#utility.yul\":5873:5951   */\n      tag_228\n        /* \"#utility.yul\":5946:5950   */\n      dup2\n        /* \"#utility.yul\":5937:5943   */\n      dup8\n        /* \"#utility.yul\":5873:5951   */\n      tag_186\n      jump\t// in\n    tag_228:\n        /* \"#utility.yul\":5865:5951   */\n      swap1\n      pop\n        /* \"#utility.yul\":5961:6034   */\n      tag_229\n        /* \"#utility.yul\":6029:6032   */\n      0x80\n        /* \"#utility.yul\":6018:6027   */\n      dup4\n        /* \"#utility.yul\":6014:6033   */\n      add\n        /* \"#utility.yul\":6005:6011   */\n      dup7\n        /* \"#utility.yul\":5961:6034   */\n      tag_216\n      jump\t// in\n    tag_229:\n        /* \"#utility.yul\":6044:6111   */\n      tag_230\n        /* \"#utility.yul\":6106:6109   */\n      0xa0\n        /* \"#utility.yul\":6095:6104   */\n      dup4\n        /* \"#utility.yul\":6091:6110   */\n      add\n        /* \"#utility.yul\":6082:6088   */\n      dup6\n        /* \"#utility.yul\":6044:6111   */\n      tag_182\n      jump\t// in\n    tag_230:\n        /* \"#utility.yul\":6121:6188   */\n      tag_231\n        /* \"#utility.yul\":6183:6186   */\n      0xc0\n        /* \"#utility.yul\":6172:6181   */\n      dup4\n        /* \"#utility.yul\":6168:6187   */\n      add\n        /* \"#utility.yul\":6159:6165   */\n      dup5\n        /* \"#utility.yul\":6121:6188   */\n      tag_182\n      jump\t// in\n    tag_231:\n        /* \"#utility.yul\":5060:6195   */\n      swap9\n      swap8\n      pop\n      pop\n      pop\n      pop\n      pop\n      pop\n      pop\n      pop\n      jump\t// out\n        /* \"#utility.yul\":6201:6620   */\n    tag_47:\n        /* \"#utility.yul\":6367:6371   */\n      0x00\n        /* \"#utility.yul\":6405:6407   */\n      0x20\n        /* \"#utility.yul\":6394:6403   */\n      dup3\n        /* \"#utility.yul\":6390:6408   */\n      add\n        /* \"#utility.yul\":6382:6408   */\n      swap1\n      pop\n        /* \"#utility.yul\":6454:6463   */\n      dup2\n        /* \"#utility.yul\":6448:6452   */\n      dup2\n        /* \"#utility.yul\":6444:6464   */\n      sub\n        /* \"#utility.yul\":6440:6441   */\n      0x00\n        /* \"#utility.yul\":6429:6438   */\n      dup4\n        /* \"#utility.yul\":6425:6442   */\n      add\n        /* \"#utility.yul\":6418:6465   */\n      mstore\n        /* \"#utility.yul\":6482:6613   */\n      tag_233\n        /* \"#utility.yul\":6608:6612   */\n      dup2\n        /* \"#utility.yul\":6482:6613   */\n      tag_196\n      jump\t// in\n    tag_233:\n        /* \"#utility.yul\":6474:6613   */\n      swap1\n      pop\n        /* \"#utility.yul\":6201:6620   */\n      swap2\n      swap1\n      pop\n      jump\t// out\n        /* \"#utility.yul\":6626:7045   */\n    tag_50:\n        /* \"#utility.yul\":6792:6796   */\n      0x00\n        /* \"#utility.yul\":6830:6832   */\n      0x20\n        /* \"#utility.yul\":6819:6828   */\n      dup3\n        /* \"#utility.yul\":6815:6833   */\n      add\n        /* \"#utility.yul\":6807:6833   */\n      swap1\n      pop\n        /* \"#utility.yul\":6879:6888   */\n      dup2\n        /* \"#utility.yul\":6873:6877   */\n      dup2\n        /* \"#utility.yul\":6869:6889   */\n      sub\n        /* \"#utility.yul\":6865:6866   */\n      0x00\n        /* \"#utility.yul\":6854:6863   */\n      dup4\n        /* \"#utility.yul\":6850:6867   */\n      add\n        /* \"#utility.yul\":6843:6890   */\n      mstore\n        /* \"#utility.yul\":6907:7038   */\n      tag_235\n        /* \"#utility.yul\":7033:7037   */\n      dup2\n        /* \"#utility.yul\":6907:7038   */\n      tag_201\n      jump\t// in\n    tag_235:\n        /* \"#utility.yul\":6899:7038   */\n      swap1\n      pop\n        /* \"#utility.yul\":6626:7045   */\n      swap2\n      swap1\n      pop\n      jump\t// out\n        /* \"#utility.yul\":7051:7470   */\n    tag_76:\n        /* \"#utility.yul\":7217:7221   */\n      0x00\n        /* \"#utility.yul\":7255:7257   */\n      0x20\n        /* \"#utility.yul\":7244:7253   */\n      dup3\n        /* \"#utility.yul\":7240:7258   */\n      add\n        /* \"#utility.yul\":7232:7258   */\n      swap1\n      pop\n        /* \"#utility.yul\":7304:7313   */\n      dup2\n        /* \"#utility.yul\":7298:7302   */\n      dup2\n        /* \"#utility.yul\":7294:7314   */\n      sub\n        /* \"#utility.yul\":7290:7291   */\n      0x00\n        /* \"#utility.yul\":7279:7288   */\n      dup4\n        /* \"#utility.yul\":7275:7292   */\n      add\n        /* \"#utility.yul\":7268:7315   */\n      mstore\n        /* \"#utility.yul\":7332:7463   */\n      tag_237\n        /* \"#utility.yul\":7458:7462   */\n      dup2\n        /* \"#utility.yul\":7332:7463   */\n      tag_206\n      jump\t// in\n    tag_237:\n        /* \"#utility.yul\":7324:7463   */\n      swap1\n      pop\n        /* \"#utility.yul\":7051:7470   */\n      swap2\n      swap1\n      pop\n      jump\t// out\n        /* \"#utility.yul\":7476:7895   */\n    tag_64:\n        /* \"#utility.yul\":7642:7646   */\n      0x00\n        /* \"#utility.yul\":7680:7682   */\n      0x20\n        /* \"#utility.yul\":7669:7678   */\n      dup3\n        /* \"#utility.yul\":7665:7683   */\n      add\n        /* \"#utility.yul\":7657:7683   */\n      swap1\n      pop\n        /* \"#utility.yul\":7729:7738   */\n      dup2\n        /* \"#utility.yul\":7723:7727   */\n      dup2\n        /* \"#utility.yul\":7719:7739   */\n      sub\n        /* \"#utility.yul\":7715:7716   */\n      0x00\n        /* \"#utility.yul\":7704:7713   */\n      dup4\n        /* \"#utility.yul\":7700:7717   */\n      add\n        /* \"#utility.yul\":7693:7740   */\n      mstore\n        /* \"#utility.yul\":7757:7888   */\n      tag_239\n        /* \"#utility.yul\":7883:7887   */\n      dup2\n        /* \"#utility.yul\":7757:7888   */\n      tag_211\n      jump\t// in\n    tag_239:\n        /* \"#utility.yul\":7749:7888   */\n      swap1\n      pop\n        /* \"#utility.yul\":7476:7895   */\n      swap2\n      swap1\n      pop\n      jump\t// out\n        /* \"#utility.yul\":7901:8030   */\n    tag_142:\n        /* \"#utility.yul\":7935:7941   */\n      0x00\n        /* \"#utility.yul\":7962:7982   */\n      tag_241\n      tag_242\n      jump\t// in\n    tag_241:\n        /* \"#utility.yul\":7952:7982   */\n      swap1\n      pop\n        /* \"#utility.yul\":7991:8024   */\n      tag_243\n        /* \"#utility.yul\":8019:8023   */\n      dup3\n        /* \"#utility.yul\":8011:8017   */\n      dup3\n        /* \"#utility.yul\":7991:8024   */\n      tag_244\n      jump\t// in\n    tag_243:\n        /* \"#utility.yul\":7901:8030   */\n      swap2\n      swap1\n      pop\n      jump\t// out\n        /* \"#utility.yul\":8036:8111   */\n    tag_242:\n        /* \"#utility.yul\":8069:8075   */\n      0x00\n        /* \"#utility.yul\":8102:8104   */\n      0x40\n        /* \"#utility.yul\":8096:8105   */\n      mload\n        /* \"#utility.yul\":8086:8105   */\n      swap1\n      pop\n        /* \"#utility.yul\":8036:8111   */\n      swap1\n      jump\t// out\n        /* \"#utility.yul\":8117:8425   */\n    tag_141:\n        /* \"#utility.yul\":8179:8183   */\n      0x00\n        /* \"#utility.yul\":8269:8287   */\n      0xffffffffffffffff\n        /* \"#utility.yul\":8261:8267   */\n      dup3\n        /* \"#utility.yul\":8258:8288   */\n      gt\n        /* \"#utility.yul\":8255:8311   */\n      iszero\n      tag_247\n      jumpi\n        /* \"#utility.yul\":8291:8309   */\n      tag_248\n      tag_249\n      jump\t// in\n    tag_248:\n        /* \"#utility.yul\":8255:8311   */\n    tag_247:\n        /* \"#utility.yul\":8329:8358   */\n      tag_250\n        /* \"#utility.yul\":8351:8357   */\n      dup3\n        /* \"#utility.yul\":8329:8358   */\n      tag_195\n      jump\t// in\n    tag_250:\n        /* \"#utility.yul\":8321:8358   */\n      swap1\n      pop\n        /* \"#utility.yul\":8413:8417   */\n      0x20\n        /* \"#utility.yul\":8407:8411   */\n      dup2\n        /* \"#utility.yul\":8403:8418   */\n      add\n        /* \"#utility.yul\":8395:8418   */\n      swap1\n      pop\n        /* \"#utility.yul\":8117:8425   */\n      swap2\n      swap1\n      pop\n      jump\t// out\n        /* \"#utility.yul\":8431:8530   */\n    tag_189:\n        /* \"#utility.yul\":8483:8489   */\n      0x00\n        /* \"#utility.yul\":8517:8522   */\n      dup2\n        /* \"#utility.yul\":8511:8523   */\n      mload\n        /* \"#utility.yul\":8501:8523   */\n      swap1\n      pop\n        /* \"#utility.yul\":8431:8530   */\n      swap2\n      swap1\n      pop\n      jump\t// out\n        /* \"#utility.yul\":8536:8705   */\n    tag_191:\n        /* \"#utility.yul\":8620:8631   */\n      0x00\n        /* \"#utility.yul\":8654:8660   */\n      dup3\n        /* \"#utility.yul\":8649:8652   */\n      dup3\n        /* \"#utility.yul\":8642:8661   */\n      mstore\n        /* \"#utility.yul\":8694:8698   */\n      0x20\n        /* \"#utility.yul\":8689:8692   */\n      dup3\n        /* \"#utility.yul\":8685:8699   */\n      add\n        /* \"#utility.yul\":8670:8699   */\n      swap1\n      pop\n        /* \"#utility.yul\":8536:8705   */\n      swap3\n      swap2\n      pop\n      pop\n      jump\t// out\n        /* \"#utility.yul\":8711:9059   */\n    tag_85:\n        /* \"#utility.yul\":8751:8758   */\n      0x00\n        /* \"#utility.yul\":8774:8794   */\n      tag_254\n        /* \"#utility.yul\":8792:8793   */\n      dup3\n        /* \"#utility.yul\":8774:8794   */\n      tag_219\n      jump\t// in\n    tag_254:\n        /* \"#utility.yul\":8769:8794   */\n      swap2\n      pop\n        /* \"#utility.yul\":8808:8828   */\n      tag_255\n        /* \"#utility.yul\":8826:8827   */\n      dup4\n        /* \"#utility.yul\":8808:8828   */\n      tag_219\n      jump\t// in\n    tag_255:\n        /* \"#utility.yul\":8803:8828   */\n      swap3\n      pop\n        /* \"#utility.yul\":8996:8997   */\n      dup2\n        /* \"#utility.yul\":8928:8994   */\n      0xffffffffffffffffffffffffffffffffffffffffffffffffffffffffffffffff\n        /* \"#utility.yul\":8924:8998   */\n      div\n        /* \"#utility.yul\":8921:8922   */\n      dup4\n        /* \"#utility.yul\":8918:8999   */\n      gt\n        /* \"#utility.yul\":8913:8914   */\n      dup3\n        /* \"#utility.yul\":8906:8915   */\n      iszero\n        /* \"#utility.yul\":8899:8916   */\n      iszero\n        /* \"#utility.yul\":8895:9000   */\n      and\n        /* \"#utility.yul\":8892:9023   */\n      iszero\n      tag_256\n      jumpi\n        /* \"#utility.yul\":9003:9021   */\n      tag_257\n      tag_258\n      jump\t// in\n    tag_257:\n        /* \"#utility.yul\":8892:9023   */\n    tag_256:\n        /* \"#utility.yul\":9051:9052   */\n      dup3\n        /* \"#utility.yul\":9048:9049   */\n      dup3\n        /* \"#utility.yul\":9044:9053   */\n      mul\n        /* \"#utility.yul\":9033:9053   */\n      swap1\n      pop\n        /* \"#utility.yul\":8711:9059   */\n      swap3\n      swap2\n      pop\n      pop\n      jump\t// out\n        /* \"#utility.yul\":9065:9161   */\n    tag_181:\n        /* \"#utility.yul\":9102:9109   */\n      0x00\n        /* \"#utility.yul\":9131:9155   */\n      tag_260\n        /* \"#utility.yul\":9149:9154   */\n      dup3\n        /* \"#utility.yul\":9131:9155   */\n      tag_261\n      jump\t// in\n    tag_260:\n        /* \"#utility.yul\":9120:9155   */\n      swap1\n      pop\n        /* \"#utility.yul\":9065:9161   */\n      swap2\n      swap1\n      pop\n      jump\t// out\n        /* \"#utility.yul\":9167:9257   */\n    tag_185:\n        /* \"#utility.yul\":9201:9208   */\n      0x00\n        /* \"#utility.yul\":9244:9249   */\n      dup2\n        /* \"#utility.yul\":9237:9250   */\n      iszero\n        /* \"#utility.yul\":9230:9251   */\n      iszero\n        /* \"#utility.yul\":9219:9251   */\n      swap1\n      pop\n        /* \"#utility.yul\":9167:9257   */\n      swap2\n      swap1\n      pop\n      jump\t// out\n        /* \"#utility.yul\":9263:9389   */\n    tag_261:\n        /* \"#utility.yul\":9300:9307   */\n      0x00\n        /* \"#utility.yul\":9340:9382   */\n      0xffffffffffffffffffffffffffffffffffffffff\n        /* \"#utility.yul\":9333:9338   */\n      dup3\n        /* \"#utility.yul\":9329:9383   */\n      and\n        /* \"#utility.yul\":9318:9383   */\n      swap1\n      pop\n        /* \"#utility.yul\":9263:9389   */\n      swap2\n      swap1\n      pop\n      jump\t// out\n        /* \"#utility.yul\":9395:9472   */\n    tag_219:\n        /* \"#utility.yul\":9432:9439   */\n      0x00\n        /* \"#utility.yul\":9461:9466   */\n      dup2\n        /* \"#utility.yul\":9450:9466   */\n      swap1\n      pop\n        /* \"#utility.yul\":9395:9472   */\n      swap2\n      swap1\n      pop\n      jump\t// out\n        /* \"#utility.yul\":9478:9632   */\n    tag_147:\n        /* \"#utility.yul\":9562:9568   */\n      dup3\n        /* \"#utility.yul\":9557:9560   */\n      dup2\n        /* \"#utility.yul\":9552:9555   */\n      dup4\n        /* \"#utility.yul\":9539:9569   */\n      calldatacopy\n        /* \"#utility.yul\":9624:9625   */\n      0x00\n        /* \"#utility.yul\":9615:9621   */\n      dup4\n        /* \"#utility.yul\":9610:9613   */\n      dup4\n        /* \"#utility.yul\":9606:9622   */\n      add\n        /* \"#utility.yul\":9599:9626   */\n      mstore\n        /* \"#utility.yul\":9478:9632   */\n      pop\n      pop\n      pop\n      jump\t// out\n        /* \"#utility.yul\":9638:9945   */\n    tag_193:\n        /* \"#utility.yul\":9706:9707   */\n      0x00\n        /* \"#utility.yul\":9716:9829   */\n    tag_267:\n        /* \"#utility.yul\":9730:9736   */\n      dup4\n        /* \"#utility.yul\":9727:9728   */\n      dup2\n        /* \"#utility.yul\":9724:9737   */\n      lt\n        /* \"#utility.yul\":9716:9829   */\n      iszero\n      tag_269\n      jumpi\n        /* \"#utility.yul\":9815:9816   */\n      dup1\n        /* \"#utility.yul\":9810:9813   */\n      dup3\n        /* \"#utility.yul\":9806:9817   */\n      add\n        /* \"#utility.yul\":9800:9818   */\n      mload\n        /* \"#utility.yul\":9796:9797   */\n      dup2\n        /* \"#utility.yul\":9791:9794   */\n      dup5\n        /* \"#utility.yul\":9787:9798   */\n      add\n        /* \"#utility.yul\":9780:9819   */\n      mstore\n        /* \"#utility.yul\":9752:9754   */\n      0x20\n        /* \"#utility.yul\":9749:9750   */\n      dup2\n        /* \"#utility.yul\":9745:9755   */\n      add\n        /* \"#utility.yul\":9740:9755   */\n      swap1\n      pop\n        /* \"#utility.yul\":9716:9829   */\n      jump(tag_267)\n    tag_269:\n        /* \"#utility.yul\":9847:9853   */\n      dup4\n        /* \"#utility.yul\":9844:9845   */\n      dup2\n        /* \"#utility.yul\":9841:9854   */\n      gt\n        /* \"#utility.yul\":9838:9939   */\n      iszero\n      tag_270\n      jumpi\n        /* \"#utility.yul\":9927:9928   */\n      0x00\n        /* \"#utility.yul\":9918:9924   */\n      dup5\n        /* \"#utility.yul\":9913:9916   */\n      dup5\n        /* \"#utility.yul\":9909:9925   */\n      add\n        /* \"#utility.yul\":9902:9929   */\n      mstore\n        /* \"#utility.yul\":9838:9939   */\n    tag_270:\n        /* \"#utility.yul\":9687:9945   */\n      pop\n        /* \"#utility.yul\":9638:9945   */\n      pop\n      pop\n      pop\n      jump\t// out\n        /* \"#utility.yul\":9951:10271   */\n    tag_52:\n        /* \"#utility.yul\":9995:10001   */\n      0x00\n        /* \"#utility.yul\":10032:10033   */\n      0x02\n        /* \"#utility.yul\":10026:10030   */\n      dup3\n        /* \"#utility.yul\":10022:10034   */\n      div\n        /* \"#utility.yul\":10012:10034   */\n      swap1\n      pop\n        /* \"#utility.yul\":10079:10080   */\n      0x01\n        /* \"#utility.yul\":10073:10077   */\n      dup3\n        /* \"#utility.yul\":10069:10081   */\n      and\n        /* \"#utility.yul\":10100:10118   */\n      dup1\n        /* \"#utility.yul\":10090:10171   */\n      tag_272\n      jumpi\n        /* \"#utility.yul\":10156:10160   */\n      0x7f\n        /* \"#utility.yul\":10148:10154   */\n      dup3\n        /* \"#utility.yul\":10144:10161   */\n      and\n        /* \"#utility.yul\":10134:10161   */\n      swap2\n      pop\n        /* \"#utility.yul\":10090:10171   */\n    tag_272:\n        /* \"#utility.yul\":10218:10220   */\n      0x20\n        /* \"#utility.yul\":10210:10216   */\n      dup3\n        /* \"#utility.yul\":10207:10221   */\n      lt\n        /* \"#utility.yul\":10187:10205   */\n      dup2\n        /* \"#utility.yul\":10184:10222   */\n      eq\n        /* \"#utility.yul\":10181:10265   */\n      iszero\n      tag_273\n      jumpi\n        /* \"#utility.yul\":10237:10255   */\n      tag_274\n      tag_275\n      jump\t// in\n    tag_274:\n        /* \"#utility.yul\":10181:10265   */\n    tag_273:\n        /* \"#utility.yul\":10002:10271   */\n      pop\n        /* \"#utility.yul\":9951:10271   */\n      swap2\n      swap1\n      pop\n      jump\t// out\n        /* \"#utility.yul\":10277:10558   */\n    tag_244:\n        /* \"#utility.yul\":10360:10387   */\n      tag_277\n        /* \"#utility.yul\":10382:10386   */\n      dup3\n        /* \"#utility.yul\":10360:10387   */\n      tag_195\n      jump\t// in\n    tag_277:\n        /* \"#utility.yul\":10352:10358   */\n      dup2\n        /* \"#utility.yul\":10348:10388   */\n      add\n        /* \"#utility.yul\":10490:10496   */\n      dup2\n        /* \"#utility.yul\":10478:10488   */\n      dup2\n        /* \"#utility.yul\":10475:10497   */\n      lt\n        /* \"#utility.yul\":10454:10472   */\n      0xffffffffffffffff\n        /* \"#utility.yul\":10442:10452   */\n      dup3\n        /* \"#utility.yul\":10439:10473   */\n      gt\n        /* \"#utility.yul\":10436:10498   */\n      or\n        /* \"#utility.yul\":10433:10521   */\n      iszero\n      tag_278\n      jumpi\n        /* \"#utility.yul\":10501:10519   */\n      tag_279\n      tag_249\n      jump\t// in\n    tag_279:\n        /* \"#utility.yul\":10433:10521   */\n    tag_278:\n        /* \"#utility.yul\":10541:10551   */\n      dup1\n        /* \"#utility.yul\":10537:10539   */\n      0x40\n        /* \"#utility.yul\":10530:10552   */\n      mstore\n        /* \"#utility.yul\":10320:10558   */\n      pop\n        /* \"#utility.yul\":10277:10558   */\n      pop\n      pop\n      jump\t// out\n        /* \"#utility.yul\":10564:10744   */\n    tag_258:\n        /* \"#utility.yul\":10612:10689   */\n      0x4e487b7100000000000000000000000000000000000000000000000000000000\n        /* \"#utility.yul\":10609:10610   */\n      0x00\n        /* \"#utility.yul\":10602:10690   */\n      mstore\n        /* \"#utility.yul\":10709:10713   */\n      0x11\n        /* \"#utility.yul\":10706:10707   */\n      0x04\n        /* \"#utility.yul\":10699:10714   */\n      mstore\n        /* \"#utility.yul\":10733:10737   */\n      0x24\n        /* \"#utility.yul\":10730:10731   */\n      0x00\n        /* \"#utility.yul\":10723:10738   */\n      revert\n        /* \"#utility.yul\":10750:10930   */\n    tag_79:\n        /* \"#utility.yul\":10798:10875   */\n      0x4e487b7100000000000000000000000000000000000000000000000000000000\n        /* \"#utility.yul\":10795:10796   */\n      0x00\n        /* \"#utility.yul\":10788:10876   */\n      mstore\n        /* \"#utility.yul\":10895:10899   */\n      0x21\n        /* \"#utility.yul\":10892:10893   */\n      0x04\n        /* \"#utility.yul\":10885:10900   */\n      mstore\n        /* \"#utility.yul\":10919:10923   */\n      0x24\n        /* \"#utility.yul\":10916:10917   */\n      0x00\n        /* \"#utility.yul\":10909:10924   */\n      revert\n        /* \"#utility.yul\":10936:11116   */\n    tag_275:\n        /* \"#utility.yul\":10984:11061   */\n      0x4e487b7100000000000000000000000000000000000000000000000000000000\n        /* \"#utility.yul\":10981:10982   */\n      0x00\n        /* \"#utility.yul\":10974:11062   */\n      mstore\n        /* \"#utility.yul\":11081:11085   */\n      0x22\n        /* \"#utility.yul\":11078:11079   */\n      0x04\n        /* \"#utility.yul\":11071:11086   */\n      mstore\n        /* \"#utility.yul\":11105:11109   */\n      0x24\n        /* \"#utility.yul\":11102:11103   */\n      0x00\n        /* \"#utility.yul\":11095:11110   */\n      revert\n        /* \"#utility.yul\":11122:11302   */\n    tag_249:\n        /* \"#utility.yul\":11170:11247   */\n      0x4e487b7100000000000000000000000000000000000000000000000000000000\n        /* \"#utility.yul\":11167:11168   */\n      0x00\n        /* \"#utility.yul\":11160:11248   */\n      mstore\n        /* \"#utility.yul\":11267:11271   */\n      0x41\n        /* \"#utility.yul\":11264:11265   */\n      0x04\n        /* \"#utility.yul\":11257:11272   */\n      mstore\n        /* \"#utility.yul\":11291:11295   */\n      0x24\n        /* \"#utility.yul\":11288:11289   */\n      0x00\n        /* \"#utility.yul\":11281:11296   */\n      revert\n        /* \"#utility.yul\":11308:11425   */\n    tag_156:\n        /* \"#utility.yul\":11417:11418   */\n      0x00\n        /* \"#utility.yul\":11414:11415   */\n      dup1\n        /* \"#utility.yul\":11407:11419   */\n      revert\n        /* \"#utility.yul\":11431:11548   */\n    tag_145:\n        /* \"#utility.yul\":11540:11541   */\n      0x00\n        /* \"#utility.yul\":11537:11538   */\n      dup1\n        /* \"#utility.yul\":11530:11542   */\n      revert\n        /* \"#utility.yul\":11554:11671   */\n    tag_172:\n        /* \"#utility.yul\":11663:11664   */\n      0x00\n        /* \"#utility.yul\":11660:11661   */\n      dup1\n        /* \"#utility.yul\":11653:11665   */\n      revert\n        /* \"#utility.yul\":11677:11794   */\n    tag_165:\n        /* \"#utility.yul\":11786:11787   */\n      0x00\n        /* \"#utility.yul\":11783:11784   */\n      dup1\n        /* \"#utility.yul\":11776:11788   */\n      revert\n        /* \"#utility.yul\":11800:11902   */\n    tag_195:\n        /* \"#utility.yul\":11841:11847   */\n      0x00\n        /* \"#utility.yul\":11892:11894   */\n      0x1f\n        /* \"#utility.yul\":11888:11895   */\n      not\n        /* \"#utility.yul\":11883:11885   */\n      0x1f\n        /* \"#utility.yul\":11876:11881   */\n      dup4\n        /* \"#utility.yul\":11872:11886   */\n      add\n        /* \"#utility.yul\":11868:11896   */\n      and\n        /* \"#utility.yul\":11858:11896   */\n      swap1\n      pop\n        /* \"#utility.yul\":11800:11902   */\n      swap2\n      swap1\n      pop\n      jump\t// out\n        /* \"#utility.yul\":11908:12132   */\n    tag_200:\n        /* \"#utility.yul\":12048:12082   */\n      0x596f752061726520746865206f776e657220796f752063616e74206275792074\n        /* \"#utility.yul\":12044:12045   */\n      0x00\n        /* \"#utility.yul\":12036:12042   */\n      dup3\n        /* \"#utility.yul\":12032:12046   */\n      add\n        /* \"#utility.yul\":12025:12083   */\n      mstore\n        /* \"#utility.yul\":12117:12124   */\n      0x69636b6574000000000000000000000000000000000000000000000000000000\n        /* \"#utility.yul\":12112:12114   */\n      0x20\n        /* \"#utility.yul\":12104:12110   */\n      dup3\n        /* \"#utility.yul\":12100:12115   */\n      add\n        /* \"#utility.yul\":12093:12125   */\n      mstore\n        /* \"#utility.yul\":11908:12132   */\n      pop\n      jump\t// out\n        /* \"#utility.yul\":12138:12317   */\n    tag_205:\n        /* \"#utility.yul\":12278:12309   */\n      0x706c656173652073656c6563742074686520636c617373206669727374000000\n        /* \"#utility.yul\":12274:12275   */\n      0x00\n        /* \"#utility.yul\":12266:12272   */\n      dup3\n        /* \"#utility.yul\":12262:12276   */\n      add\n        /* \"#utility.yul\":12255:12310   */\n      mstore\n        /* \"#utility.yul\":12138:12317   */\n      pop\n      jump\t// out\n        /* \"#utility.yul\":12323:12502   */\n    tag_210:\n        /* \"#utility.yul\":12463:12494   */\n      0x796f75206861766520616c726561647920626f6f6b206120636c617373000000\n        /* \"#utility.yul\":12459:12460   */\n      0x00\n        /* \"#utility.yul\":12451:12457   */\n      dup3\n        /* \"#utility.yul\":12447:12461   */\n      add\n        /* \"#utility.yul\":12440:12495   */\n      mstore\n        /* \"#utility.yul\":12323:12502   */\n      pop\n      jump\t// out\n        /* \"#utility.yul\":12508:12690   */\n    tag_215:\n        /* \"#utility.yul\":12648:12682   */\n      0x596f75206861766520616c726561647920706169642074686520616d6f756e74\n        /* \"#utility.yul\":12644:12645   */\n      0x00\n        /* \"#utility.yul\":12636:12642   */\n      dup3\n        /* \"#utility.yul\":12632:12646   */\n      add\n        /* \"#utility.yul\":12625:12683   */\n      mstore\n        /* \"#utility.yul\":12508:12690   */\n      pop\n      jump\t// out\n        /* \"#utility.yul\":12696:12818   */\n    tag_151:\n        /* \"#utility.yul\":12769:12793   */\n      tag_294\n        /* \"#utility.yul\":12787:12792   */\n      dup2\n        /* \"#utility.yul\":12769:12793   */\n      tag_181\n      jump\t// in\n    tag_294:\n        /* \"#utility.yul\":12762:12767   */\n      dup2\n        /* \"#utility.yul\":12759:12794   */\n      eq\n        /* \"#utility.yul\":12749:12812   */\n      tag_295\n      jumpi\n        /* \"#utility.yul\":12808:12809   */\n      0x00\n        /* \"#utility.yul\":12805:12806   */\n      dup1\n        /* \"#utility.yul\":12798:12810   */\n      revert\n        /* \"#utility.yul\":12749:12812   */\n    tag_295:\n        /* \"#utility.yul\":12696:12818   */\n      pop\n      jump\t// out\n        /* \"#utility.yul\":12824:12946   */\n    tag_161:\n        /* \"#utility.yul\":12897:12921   */\n      tag_297\n        /* \"#utility.yul\":12915:12920   */\n      dup2\n        /* \"#utility.yul\":12897:12921   */\n      tag_219\n      jump\t// in\n    tag_297:\n        /* \"#utility.yul\":12890:12895   */\n      dup2\n        /* \"#utility.yul\":12887:12922   */\n      eq\n        /* \"#utility.yul\":12877:12940   */\n      tag_298\n      jumpi\n        /* \"#utility.yul\":12936:12937   */\n      0x00\n        /* \"#utility.yul\":12933:12934   */\n      dup1\n        /* \"#utility.yul\":12926:12938   */\n      revert\n        /* \"#utility.yul\":12877:12940   */\n    tag_298:\n        /* \"#utility.yul\":12824:12946   */\n      pop\n      jump\t// out\n\n    auxdata: 0xa2646970667358221220c80a33aba5c3cac8ef919680f40c8b5d12f1c96b68fdecd0bcd4737e1c65927364736f6c63430008070033\n}\n",
				"bytecode": {
					"linkReferences": {},
					"object": "6080604052600180556000600560146101000a81548160ff0219169083151502179055506000600560156101000a81548160ff02191690831515021790555034801561004a57600080fd5b5033600560006101000a81548173ffffffffffffffffffffffffffffffffffffffff021916908373ffffffffffffffffffffffffffffffffffffffff1602179055506118768061009b6000396000f3fe60806040526004361061007b5760003560e01c80638da5cb5b1161004e5780638da5cb5b146100e15780639ae5a2be1461010c578063b24fa0e414610137578063b90d3d0c1461014e5761007b565b806317ae45891461008057806342f6487a146100a957806350183507146100b35780637a1736d1146100ca575b600080fd5b34801561008c57600080fd5b506100a760048036038101906100a291906111f7565b610191565b005b6100b1610484565b005b3480156100bf57600080fd5b506100c8610792565b005b3480156100d657600080fd5b506100df6109ab565b005b3480156100ed57600080fd5b506100f6610bc4565b6040516101039190611374565b60405180910390f35b34801561011857600080fd5b50610121610bea565b60405161012e919061138f565b60405180910390f35b34801561014357600080fd5b5061014c610c41565b005b34801561015a57600080fd5b50610175600480360381019061017091906111ca565b610e59565b60405161018897969594939291906113aa565b60405180910390f35b600560009054906101000a900473ffffffffffffffffffffffffffffffffffffffff1673ffffffffffffffffffffffffffffffffffffffff163373ffffffffffffffffffffffffffffffffffffffff161415610222576040517f08c379a00000000000000000000000000000000000000000000000000000000081526004016102199061142e565b60405180910390fd5b600660003373ffffffffffffffffffffffffffffffffffffffff1673ffffffffffffffffffffffffffffffffffffffff16815260200190815260200160002060050160009054906101000a900460ff166102b1576040517f08c379a00000000000000000000000000000000000000000000000000000000081526004016102a89061144e565b60405180910390fd5b6040518060e00160405280848152602001838152602001828152602001600380546102db90611604565b80601f016020809104026020016040519081016040528092919081815260200182805461030790611604565b80156103545780601f1061032957610100808354040283529160200191610354565b820191906000526020600020905b81548152906001019060200180831161033757829003601f168201915b505050505081526020016004548152602001600560159054906101000a900460ff1615158152602001600560149054906101000a900460ff161515815250600660003373ffffffffffffffffffffffffffffffffffffffff1673ffffffffffffffffffffffffffffffffffffffff16815260200190815260200160002060008201518160000190805190602001906103ed92919061104d565b50602082015181600101908051906020019061040a92919061104d565b5060408201518160020155606082015181600301908051906020019061043192919061104d565b506080820151816004015560a08201518160050160006101000a81548160ff02191690831515021790555060c08201518160050160016101000a81548160ff021916908315150217905550905050505050565b600660003373ffffffffffffffffffffffffffffffffffffffff1673ffffffffffffffffffffffffffffffffffffffff16815260200190815260200160002060050160019054906101000a900460ff1615610514576040517f08c379a000000000000000000000000000000000000000000000000000000000815260040161050b9061148e565b60405180910390fd5b600660003373ffffffffffffffffffffffffffffffffffffffff1673ffffffffffffffffffffffffffffffffffffffff1681526020019081526020016000206004015434101561056357600080fd5b600560009054906101000a900473ffffffffffffffffffffffffffffffffffffffff1673ffffffffffffffffffffffffffffffffffffffff166108fc349081150290604051600060405180830381858888f193505050501580156105cb573d6000803e3d6000fd5b506001600660003373ffffffffffffffffffffffffffffffffffffffff1673ffffffffffffffffffffffffffffffffffffffff16815260200190815260200160002060050160016101000a81548160ff021916908315150217905550600660003373ffffffffffffffffffffffffffffffffffffffff1673ffffffffffffffffffffffffffffffffffffffff16815260200190815260200160002060050160019054906101000a900460ff16600560146101000a81548160ff021916908315150217905550600660003373ffffffffffffffffffffffffffffffffffffffff1673ffffffffffffffffffffffffffffffffffffffff16815260200190815260200160002060050160019054906101000a900460ff161561079057600660003373ffffffffffffffffffffffffffffffffffffffff1673ffffffffffffffffffffffffffffffffffffffff1681526020019081526020016000206000808201600061073591906110d3565b60018201600061074591906110d3565b600282016000905560038201600061075d91906110d3565b60048201600090556005820160006101000a81549060ff02191690556005820160016101000a81549060ff021916905550505b565b600660003373ffffffffffffffffffffffffffffffffffffffff1673ffffffffffffffffffffffffffffffffffffffff16815260200190815260200160002060050160009054906101000a900460ff1615610822576040517f08c379a00000000000000000000000000000000000000000000000000000000081526004016108199061146e565b60405180910390fd5b60008060006101000a81548160ff0219169083600281111561084757610846611696565b5b021790555060008054906101000a900460ff16600281111561086c5761086b611696565b5b600281905550600060025414156109a9576040518060400160405280600b81526020017f466972737420436c617373000000000000000000000000000000000000000000815250600390805190602001906108c892919061104d565b50662386f26fc100006001546108de9190611520565b6004819055506001600660003373ffffffffffffffffffffffffffffffffffffffff1673ffffffffffffffffffffffffffffffffffffffff16815260200190815260200160002060050160006101000a81548160ff021916908315150217905550600660003373ffffffffffffffffffffffffffffffffffffffff1673ffffffffffffffffffffffffffffffffffffffff16815260200190815260200160002060050160009054906101000a900460ff16600560156101000a81548160ff0219169083151502179055505b565b600660003373ffffffffffffffffffffffffffffffffffffffff1673ffffffffffffffffffffffffffffffffffffffff16815260200190815260200160002060050160009054906101000a900460ff1615610a3b576040517f08c379a0000000000000000000000000000000000000000000000000000000008152600401610a329061146e565b60405180910390fd5b60016000806101000a81548160ff02191690836002811115610a6057610a5f611696565b5b021790555060008054906101000a900460ff166002811115610a8557610a84611696565b5b60028190555060016002541415610bc2576040518060400160405280600d81526020017f45636f6e6f6d7920436c6173730000000000000000000000000000000000000081525060039080519060200190610ae192919061104d565b506611c37937e08000600154610af79190611520565b6004819055506001600660003373ffffffffffffffffffffffffffffffffffffffff1673ffffffffffffffffffffffffffffffffffffffff16815260200190815260200160002060050160006101000a81548160ff021916908315150217905550600660003373ffffffffffffffffffffffffffffffffffffffff1673ffffffffffffffffffffffffffffffffffffffff16815260200190815260200160002060050160009054906101000a900460ff16600560156101000a81548160ff0219169083151502179055505b565b600560009054906101000a900473ffffffffffffffffffffffffffffffffffffffff1681565b6000600660003373ffffffffffffffffffffffffffffffffffffffff1673ffffffffffffffffffffffffffffffffffffffff16815260200190815260200160002060050160019054906101000a900460ff16905090565b600660003373ffffffffffffffffffffffffffffffffffffffff1673ffffffffffffffffffffffffffffffffffffffff16815260200190815260200160002060050160009054906101000a900460ff1615610cd1576040517f08c379a0000000000000000000000000000000000000000000000000000000008152600401610cc89061146e565b60405180910390fd5b60026000806101000a81548160ff02191690836002811115610cf657610cf5611696565b5b021790555060008054906101000a900460ff166002811115610d1b57610d1a611696565b5b600281905550600280541415610e57576040518060400160405280600e81526020017f427573696e65737320436c61737300000000000000000000000000000000000081525060039080519060200190610d7692919061104d565b506618de76816d8000600154610d8c9190611520565b6004819055506001600660003373ffffffffffffffffffffffffffffffffffffffff1673ffffffffffffffffffffffffffffffffffffffff16815260200190815260200160002060050160006101000a81548160ff021916908315150217905550600660003373ffffffffffffffffffffffffffffffffffffffff1673ffffffffffffffffffffffffffffffffffffffff16815260200190815260200160002060050160009054906101000a900460ff16600560156101000a81548160ff0219169083151502179055505b565b6006602052806000526040600020600091509050806000018054610e7c90611604565b80601f0160208091040260200160405190810160405280929190818152602001828054610ea890611604565b8015610ef55780601f10610eca57610100808354040283529160200191610ef5565b820191906000526020600020905b815481529060010190602001808311610ed857829003601f168201915b505050505090806001018054610f0a90611604565b80601f0160208091040260200160405190810160405280929190818152602001828054610f3690611604565b8015610f835780601f10610f5857610100808354040283529160200191610f83565b820191906000526020600020905b815481529060010190602001808311610f6657829003601f168201915b505050505090806002015490806003018054610f9e90611604565b80601f0160208091040260200160405190810160405280929190818152602001828054610fca90611604565b80156110175780601f10610fec57610100808354040283529160200191611017565b820191906000526020600020905b815481529060010190602001808311610ffa57829003601f168201915b5050505050908060040154908060050160009054906101000a900460ff16908060050160019054906101000a900460ff16905087565b82805461105990611604565b90600052602060002090601f01602090048101928261107b57600085556110c2565b82601f1061109457805160ff19168380011785556110c2565b828001600101855582156110c2579182015b828111156110c15782518255916020019190600101906110a6565b5b5090506110cf9190611113565b5090565b5080546110df90611604565b6000825580601f106110f15750611110565b601f01602090049060005260206000209081019061110f9190611113565b5b50565b5b8082111561112c576000816000905550600101611114565b5090565b600061114361113e846114d3565b6114ae565b90508281526020810184848401111561115f5761115e611728565b5b61116a8482856115c2565b509392505050565b60008135905061118181611812565b92915050565b600082601f83011261119c5761119b611723565b5b81356111ac848260208601611130565b91505092915050565b6000813590506111c481611829565b92915050565b6000602082840312156111e0576111df611732565b5b60006111ee84828501611172565b91505092915050565b6000806000606084860312156112105761120f611732565b5b600084013567ffffffffffffffff81111561122e5761122d61172d565b5b61123a86828701611187565b935050602084013567ffffffffffffffff81111561125b5761125a61172d565b5b61126786828701611187565b9250506040611278868287016111b5565b9150509250925092565b61128b8161157a565b82525050565b61129a8161158c565b82525050565b60006112ab82611504565b6112b5818561150f565b93506112c58185602086016115d1565b6112ce81611737565b840191505092915050565b60006112e660258361150f565b91506112f182611748565b604082019050919050565b6000611309601d8361150f565b915061131482611797565b602082019050919050565b600061132c601d8361150f565b9150611337826117c0565b602082019050919050565b600061134f60208361150f565b915061135a826117e9565b602082019050919050565b61136e816115b8565b82525050565b60006020820190506113896000830184611282565b92915050565b60006020820190506113a46000830184611291565b92915050565b600060e08201905081810360008301526113c4818a6112a0565b905081810360208301526113d881896112a0565b90506113e76040830188611365565b81810360608301526113f981876112a0565b90506114086080830186611365565b61141560a0830185611291565b61142260c0830184611291565b98975050505050505050565b60006020820190508181036000830152611447816112d9565b9050919050565b60006020820190508181036000830152611467816112fc565b9050919050565b600060208201905081810360008301526114878161131f565b9050919050565b600060208201905081810360008301526114a781611342565b9050919050565b60006114b86114c9565b90506114c48282611636565b919050565b6000604051905090565b600067ffffffffffffffff8211156114ee576114ed6116f4565b5b6114f782611737565b9050602081019050919050565b600081519050919050565b600082825260208201905092915050565b600061152b826115b8565b9150611536836115b8565b9250817fffffffffffffffffffffffffffffffffffffffffffffffffffffffffffffffff048311821515161561156f5761156e611667565b5b828202905092915050565b600061158582611598565b9050919050565b60008115159050919050565b600073ffffffffffffffffffffffffffffffffffffffff82169050919050565b6000819050919050565b82818337600083830152505050565b60005b838110156115ef5780820151818401526020810190506115d4565b838111156115fe576000848401525b50505050565b6000600282049050600182168061161c57607f821691505b602082108114156116305761162f6116c5565b5b50919050565b61163f82611737565b810181811067ffffffffffffffff8211171561165e5761165d6116f4565b5b80604052505050565b7f4e487b7100000000000000000000000000000000000000000000000000000000600052601160045260246000fd5b7f4e487b7100000000000000000000000000000000000000000000000000000000600052602160045260246000fd5b7f4e487b7100000000000000000000000000000000000000000000000000000000600052602260045260246000fd5b7f4e487b7100000000000000000000000000000000000000000000000000000000600052604160045260246000fd5b600080fd5b600080fd5b600080fd5b600080fd5b6000601f19601f8301169050919050565b7f596f752061726520746865206f776e657220796f752063616e7420627579207460008201527f69636b6574000000000000000000000000000000000000000000000000000000602082015250565b7f706c656173652073656c6563742074686520636c617373206669727374000000600082015250565b7f796f75206861766520616c726561647920626f6f6b206120636c617373000000600082015250565b7f596f75206861766520616c726561647920706169642074686520616d6f756e74600082015250565b61181b8161157a565b811461182657600080fd5b50565b611832816115b8565b811461183d57600080fd5b5056fea2646970667358221220c80a33aba5c3cac8ef919680f40c8b5d12f1c96b68fdecd0bcd4737e1c65927364736f6c63430008070033",
					"opcodes": "PUSH1 0x80 PUSH1 0x40 MSTORE PUSH1 0x1 DUP1 SSTORE PUSH1 0x0 PUSH1 0x5 PUSH1 0x14 PUSH2 0x100 EXP DUP2 SLOAD DUP2 PUSH1 0xFF MUL NOT AND SWAP1 DUP4 ISZERO ISZERO MUL OR SWAP1 SSTORE POP PUSH1 0x0 PUSH1 0x5 PUSH1 0x15 PUSH2 0x100 EXP DUP2 SLOAD DUP2 PUSH1 0xFF MUL NOT AND SWAP1 DUP4 ISZERO ISZERO MUL OR SWAP1 SSTORE POP CALLVALUE DUP1 ISZERO PUSH2 0x4A JUMPI PUSH1 0x0 DUP1 REVERT JUMPDEST POP CALLER PUSH1 0x5 PUSH1 0x0 PUSH2 0x100 EXP DUP2 SLOAD DUP2 PUSH20 0xFFFFFFFFFFFFFFFFFFFFFFFFFFFFFFFFFFFFFFFF MUL NOT AND SWAP1 DUP4 PUSH20 0xFFFFFFFFFFFFFFFFFFFFFFFFFFFFFFFFFFFFFFFF AND MUL OR SWAP1 SSTORE POP PUSH2 0x1876 DUP1 PUSH2 0x9B PUSH1 0x0 CODECOPY PUSH1 0x0 RETURN INVALID PUSH1 0x80 PUSH1 0x40 MSTORE PUSH1 0x4 CALLDATASIZE LT PUSH2 0x7B JUMPI PUSH1 0x0 CALLDATALOAD PUSH1 0xE0 SHR DUP1 PUSH4 0x8DA5CB5B GT PUSH2 0x4E JUMPI DUP1 PUSH4 0x8DA5CB5B EQ PUSH2 0xE1 JUMPI DUP1 PUSH4 0x9AE5A2BE EQ PUSH2 0x10C JUMPI DUP1 PUSH4 0xB24FA0E4 EQ PUSH2 0x137 JUMPI DUP1 PUSH4 0xB90D3D0C EQ PUSH2 0x14E JUMPI PUSH2 0x7B JUMP JUMPDEST DUP1 PUSH4 0x17AE4589 EQ PUSH2 0x80 JUMPI DUP1 PUSH4 0x42F6487A EQ PUSH2 0xA9 JUMPI DUP1 PUSH4 0x50183507 EQ PUSH2 0xB3 JUMPI DUP1 PUSH4 0x7A1736D1 EQ PUSH2 0xCA JUMPI JUMPDEST PUSH1 0x0 DUP1 REVERT JUMPDEST CALLVALUE DUP1 ISZERO PUSH2 0x8C JUMPI PUSH1 0x0 DUP1 REVERT JUMPDEST POP PUSH2 0xA7 PUSH1 0x4 DUP1 CALLDATASIZE SUB DUP2 ADD SWAP1 PUSH2 0xA2 SWAP2 SWAP1 PUSH2 0x11F7 JUMP JUMPDEST PUSH2 0x191 JUMP JUMPDEST STOP JUMPDEST PUSH2 0xB1 PUSH2 0x484 JUMP JUMPDEST STOP JUMPDEST CALLVALUE DUP1 ISZERO PUSH2 0xBF JUMPI PUSH1 0x0 DUP1 REVERT JUMPDEST POP PUSH2 0xC8 PUSH2 0x792 JUMP JUMPDEST STOP JUMPDEST CALLVALUE DUP1 ISZERO PUSH2 0xD6 JUMPI PUSH1 0x0 DUP1 REVERT JUMPDEST POP PUSH2 0xDF PUSH2 0x9AB JUMP JUMPDEST STOP JUMPDEST CALLVALUE DUP1 ISZERO PUSH2 0xED JUMPI PUSH1 0x0 DUP1 REVERT JUMPDEST POP PUSH2 0xF6 PUSH2 0xBC4 JUMP JUMPDEST PUSH1 0x40 MLOAD PUSH2 0x103 SWAP2 SWAP1 PUSH2 0x1374 JUMP JUMPDEST PUSH1 0x40 MLOAD DUP1 SWAP2 SUB SWAP1 RETURN JUMPDEST CALLVALUE DUP1 ISZERO PUSH2 0x118 JUMPI PUSH1 0x0 DUP1 REVERT JUMPDEST POP PUSH2 0x121 PUSH2 0xBEA JUMP JUMPDEST PUSH1 0x40 MLOAD PUSH2 0x12E SWAP2 SWAP1 PUSH2 0x138F JUMP JUMPDEST PUSH1 0x40 MLOAD DUP1 SWAP2 SUB SWAP1 RETURN JUMPDEST CALLVALUE DUP1 ISZERO PUSH2 0x143 JUMPI PUSH1 0x0 DUP1 REVERT JUMPDEST POP PUSH2 0x14C PUSH2 0xC41 JUMP JUMPDEST STOP JUMPDEST CALLVALUE DUP1 ISZERO PUSH2 0x15A JUMPI PUSH1 0x0 DUP1 REVERT JUMPDEST POP PUSH2 0x175 PUSH1 0x4 DUP1 CALLDATASIZE SUB DUP2 ADD SWAP1 PUSH2 0x170 SWAP2 SWAP1 PUSH2 0x11CA JUMP JUMPDEST PUSH2 0xE59 JUMP JUMPDEST PUSH1 0x40 MLOAD PUSH2 0x188 SWAP8 SWAP7 SWAP6 SWAP5 SWAP4 SWAP3 SWAP2 SWAP1 PUSH2 0x13AA JUMP JUMPDEST PUSH1 0x40 MLOAD DUP1 SWAP2 SUB SWAP1 RETURN JUMPDEST PUSH1 0x5 PUSH1 0x0 SWAP1 SLOAD SWAP1 PUSH2 0x100 EXP SWAP1 DIV PUSH20 0xFFFFFFFFFFFFFFFFFFFFFFFFFFFFFFFFFFFFFFFF AND PUSH20 0xFFFFFFFFFFFFFFFFFFFFFFFFFFFFFFFFFFFFFFFF AND CALLER PUSH20 0xFFFFFFFFFFFFFFFFFFFFFFFFFFFFFFFFFFFFFFFF AND EQ ISZERO PUSH2 0x222 JUMPI PUSH1 0x40 MLOAD PUSH32 0x8C379A000000000000000000000000000000000000000000000000000000000 DUP2 MSTORE PUSH1 0x4 ADD PUSH2 0x219 SWAP1 PUSH2 0x142E JUMP JUMPDEST PUSH1 0x40 MLOAD DUP1 SWAP2 SUB SWAP1 REVERT JUMPDEST PUSH1 0x6 PUSH1 0x0 CALLER PUSH20 0xFFFFFFFFFFFFFFFFFFFFFFFFFFFFFFFFFFFFFFFF AND PUSH20 0xFFFFFFFFFFFFFFFFFFFFFFFFFFFFFFFFFFFFFFFF AND DUP2 MSTORE PUSH1 0x20 ADD SWAP1 DUP2 MSTORE PUSH1 0x20 ADD PUSH1 0x0 KECCAK256 PUSH1 0x5 ADD PUSH1 0x0 SWAP1 SLOAD SWAP1 PUSH2 0x100 EXP SWAP1 DIV PUSH1 0xFF AND PUSH2 0x2B1 JUMPI PUSH1 0x40 MLOAD PUSH32 0x8C379A000000000000000000000000000000000000000000000000000000000 DUP2 MSTORE PUSH1 0x4 ADD PUSH2 0x2A8 SWAP1 PUSH2 0x144E JUMP JUMPDEST PUSH1 0x40 MLOAD DUP1 SWAP2 SUB SWAP1 REVERT JUMPDEST PUSH1 0x40 MLOAD DUP1 PUSH1 0xE0 ADD PUSH1 0x40 MSTORE DUP1 DUP5 DUP2 MSTORE PUSH1 0x20 ADD DUP4 DUP2 MSTORE PUSH1 0x20 ADD DUP3 DUP2 MSTORE PUSH1 0x20 ADD PUSH1 0x3 DUP1 SLOAD PUSH2 0x2DB SWAP1 PUSH2 0x1604 JUMP JUMPDEST DUP1 PUSH1 0x1F ADD PUSH1 0x20 DUP1 SWAP2 DIV MUL PUSH1 0x20 ADD PUSH1 0x40 MLOAD SWAP1 DUP2 ADD PUSH1 0x40 MSTORE DUP1 SWAP3 SWAP2 SWAP1 DUP2 DUP2 MSTORE PUSH1 0x20 ADD DUP3 DUP1 SLOAD PUSH2 0x307 SWAP1 PUSH2 0x1604 JUMP JUMPDEST DUP1 ISZERO PUSH2 0x354 JUMPI DUP1 PUSH1 0x1F LT PUSH2 0x329 JUMPI PUSH2 0x100 DUP1 DUP4 SLOAD DIV MUL DUP4 MSTORE SWAP2 PUSH1 0x20 ADD SWAP2 PUSH2 0x354 JUMP JUMPDEST DUP3 ADD SWAP2 SWAP1 PUSH1 0x0 MSTORE PUSH1 0x20 PUSH1 0x0 KECCAK256 SWAP1 JUMPDEST DUP2 SLOAD DUP2 MSTORE SWAP1 PUSH1 0x1 ADD SWAP1 PUSH1 0x20 ADD DUP1 DUP4 GT PUSH2 0x337 JUMPI DUP3 SWAP1 SUB PUSH1 0x1F AND DUP3 ADD SWAP2 JUMPDEST POP POP POP POP POP DUP2 MSTORE PUSH1 0x20 ADD PUSH1 0x4 SLOAD DUP2 MSTORE PUSH1 0x20 ADD PUSH1 0x5 PUSH1 0x15 SWAP1 SLOAD SWAP1 PUSH2 0x100 EXP SWAP1 DIV PUSH1 0xFF AND ISZERO ISZERO DUP2 MSTORE PUSH1 0x20 ADD PUSH1 0x5 PUSH1 0x14 SWAP1 SLOAD SWAP1 PUSH2 0x100 EXP SWAP1 DIV PUSH1 0xFF AND ISZERO ISZERO DUP2 MSTORE POP PUSH1 0x6 PUSH1 0x0 CALLER PUSH20 0xFFFFFFFFFFFFFFFFFFFFFFFFFFFFFFFFFFFFFFFF AND PUSH20 0xFFFFFFFFFFFFFFFFFFFFFFFFFFFFFFFFFFFFFFFF AND DUP2 MSTORE PUSH1 0x20 ADD SWAP1 DUP2 MSTORE PUSH1 0x20 ADD PUSH1 0x0 KECCAK256 PUSH1 0x0 DUP3 ADD MLOAD DUP2 PUSH1 0x0 ADD SWAP1 DUP1 MLOAD SWAP1 PUSH1 0x20 ADD SWAP1 PUSH2 0x3ED SWAP3 SWAP2 SWAP1 PUSH2 0x104D JUMP JUMPDEST POP PUSH1 0x20 DUP3 ADD MLOAD DUP2 PUSH1 0x1 ADD SWAP1 DUP1 MLOAD SWAP1 PUSH1 0x20 ADD SWAP1 PUSH2 0x40A SWAP3 SWAP2 SWAP1 PUSH2 0x104D JUMP JUMPDEST POP PUSH1 0x40 DUP3 ADD MLOAD DUP2 PUSH1 0x2 ADD SSTORE PUSH1 0x60 DUP3 ADD MLOAD DUP2 PUSH1 0x3 ADD SWAP1 DUP1 MLOAD SWAP1 PUSH1 0x20 ADD SWAP1 PUSH2 0x431 SWAP3 SWAP2 SWAP1 PUSH2 0x104D JUMP JUMPDEST POP PUSH1 0x80 DUP3 ADD MLOAD DUP2 PUSH1 0x4 ADD SSTORE PUSH1 0xA0 DUP3 ADD MLOAD DUP2 PUSH1 0x5 ADD PUSH1 0x0 PUSH2 0x100 EXP DUP2 SLOAD DUP2 PUSH1 0xFF MUL NOT AND SWAP1 DUP4 ISZERO ISZERO MUL OR SWAP1 SSTORE POP PUSH1 0xC0 DUP3 ADD MLOAD DUP2 PUSH1 0x5 ADD PUSH1 0x1 PUSH2 0x100 EXP DUP2 SLOAD DUP2 PUSH1 0xFF MUL NOT AND SWAP1 DUP4 ISZERO ISZERO MUL OR SWAP1 SSTORE POP SWAP1 POP POP POP POP POP JUMP JUMPDEST PUSH1 0x6 PUSH1 0x0 CALLER PUSH20 0xFFFFFFFFFFFFFFFFFFFFFFFFFFFFFFFFFFFFFFFF AND PUSH20 0xFFFFFFFFFFFFFFFFFFFFFFFFFFFFFFFFFFFFFFFF AND DUP2 MSTORE PUSH1 0x20 ADD SWAP1 DUP2 MSTORE PUSH1 0x20 ADD PUSH1 0x0 KECCAK256 PUSH1 0x5 ADD PUSH1 0x1 SWAP1 SLOAD SWAP1 PUSH2 0x100 EXP SWAP1 DIV PUSH1 0xFF AND ISZERO PUSH2 0x514 JUMPI PUSH1 0x40 MLOAD PUSH32 0x8C379A000000000000000000000000000000000000000000000000000000000 DUP2 MSTORE PUSH1 0x4 ADD PUSH2 0x50B SWAP1 PUSH2 0x148E JUMP JUMPDEST PUSH1 0x40 MLOAD DUP1 SWAP2 SUB SWAP1 REVERT JUMPDEST PUSH1 0x6 PUSH1 0x0 CALLER PUSH20 0xFFFFFFFFFFFFFFFFFFFFFFFFFFFFFFFFFFFFFFFF AND PUSH20 0xFFFFFFFFFFFFFFFFFFFFFFFFFFFFFFFFFFFFFFFF AND DUP2 MSTORE PUSH1 0x20 ADD SWAP1 DUP2 MSTORE PUSH1 0x20 ADD PUSH1 0x0 KECCAK256 PUSH1 0x4 ADD SLOAD CALLVALUE LT ISZERO PUSH2 0x563 JUMPI PUSH1 0x0 DUP1 REVERT JUMPDEST PUSH1 0x5 PUSH1 0x0 SWAP1 SLOAD SWAP1 PUSH2 0x100 EXP SWAP1 DIV PUSH20 0xFFFFFFFFFFFFFFFFFFFFFFFFFFFFFFFFFFFFFFFF AND PUSH20 0xFFFFFFFFFFFFFFFFFFFFFFFFFFFFFFFFFFFFFFFF AND PUSH2 0x8FC CALLVALUE SWAP1 DUP2 ISZERO MUL SWAP1 PUSH1 0x40 MLOAD PUSH1 0x0 PUSH1 0x40 MLOAD DUP1 DUP4 SUB DUP2 DUP6 DUP9 DUP9 CALL SWAP4 POP POP POP POP ISZERO DUP1 ISZERO PUSH2 0x5CB JUMPI RETURNDATASIZE PUSH1 0x0 DUP1 RETURNDATACOPY RETURNDATASIZE PUSH1 0x0 REVERT JUMPDEST POP PUSH1 0x1 PUSH1 0x6 PUSH1 0x0 CALLER PUSH20 0xFFFFFFFFFFFFFFFFFFFFFFFFFFFFFFFFFFFFFFFF AND PUSH20 0xFFFFFFFFFFFFFFFFFFFFFFFFFFFFFFFFFFFFFFFF AND DUP2 MSTORE PUSH1 0x20 ADD SWAP1 DUP2 MSTORE PUSH1 0x20 ADD PUSH1 0x0 KECCAK256 PUSH1 0x5 ADD PUSH1 0x1 PUSH2 0x100 EXP DUP2 SLOAD DUP2 PUSH1 0xFF MUL NOT AND SWAP1 DUP4 ISZERO ISZERO MUL OR SWAP1 SSTORE POP PUSH1 0x6 PUSH1 0x0 CALLER PUSH20 0xFFFFFFFFFFFFFFFFFFFFFFFFFFFFFFFFFFFFFFFF AND PUSH20 0xFFFFFFFFFFFFFFFFFFFFFFFFFFFFFFFFFFFFFFFF AND DUP2 MSTORE PUSH1 0x20 ADD SWAP1 DUP2 MSTORE PUSH1 0x20 ADD PUSH1 0x0 KECCAK256 PUSH1 0x5 ADD PUSH1 0x1 SWAP1 SLOAD SWAP1 PUSH2 0x100 EXP SWAP1 DIV PUSH1 0xFF AND PUSH1 0x5 PUSH1 0x14 PUSH2 0x100 EXP DUP2 SLOAD DUP2 PUSH1 0xFF MUL NOT AND SWAP1 DUP4 ISZERO ISZERO MUL OR SWAP1 SSTORE POP PUSH1 0x6 PUSH1 0x0 CALLER PUSH20 0xFFFFFFFFFFFFFFFFFFFFFFFFFFFFFFFFFFFFFFFF AND PUSH20 0xFFFFFFFFFFFFFFFFFFFFFFFFFFFFFFFFFFFFFFFF AND DUP2 MSTORE PUSH1 0x20 ADD SWAP1 DUP2 MSTORE PUSH1 0x20 ADD PUSH1 0x0 KECCAK256 PUSH1 0x5 ADD PUSH1 0x1 SWAP1 SLOAD SWAP1 PUSH2 0x100 EXP SWAP1 DIV PUSH1 0xFF AND ISZERO PUSH2 0x790 JUMPI PUSH1 0x6 PUSH1 0x0 CALLER PUSH20 0xFFFFFFFFFFFFFFFFFFFFFFFFFFFFFFFFFFFFFFFF AND PUSH20 0xFFFFFFFFFFFFFFFFFFFFFFFFFFFFFFFFFFFFFFFF AND DUP2 MSTORE PUSH1 0x20 ADD SWAP1 DUP2 MSTORE PUSH1 0x20 ADD PUSH1 0x0 KECCAK256 PUSH1 0x0 DUP1 DUP3 ADD PUSH1 0x0 PUSH2 0x735 SWAP2 SWAP1 PUSH2 0x10D3 JUMP JUMPDEST PUSH1 0x1 DUP3 ADD PUSH1 0x0 PUSH2 0x745 SWAP2 SWAP1 PUSH2 0x10D3 JUMP JUMPDEST PUSH1 0x2 DUP3 ADD PUSH1 0x0 SWAP1 SSTORE PUSH1 0x3 DUP3 ADD PUSH1 0x0 PUSH2 0x75D SWAP2 SWAP1 PUSH2 0x10D3 JUMP JUMPDEST PUSH1 0x4 DUP3 ADD PUSH1 0x0 SWAP1 SSTORE PUSH1 0x5 DUP3 ADD PUSH1 0x0 PUSH2 0x100 EXP DUP2 SLOAD SWAP1 PUSH1 0xFF MUL NOT AND SWAP1 SSTORE PUSH1 0x5 DUP3 ADD PUSH1 0x1 PUSH2 0x100 EXP DUP2 SLOAD SWAP1 PUSH1 0xFF MUL NOT AND SWAP1 SSTORE POP POP JUMPDEST JUMP JUMPDEST PUSH1 0x6 PUSH1 0x0 CALLER PUSH20 0xFFFFFFFFFFFFFFFFFFFFFFFFFFFFFFFFFFFFFFFF AND PUSH20 0xFFFFFFFFFFFFFFFFFFFFFFFFFFFFFFFFFFFFFFFF AND DUP2 MSTORE PUSH1 0x20 ADD SWAP1 DUP2 MSTORE PUSH1 0x20 ADD PUSH1 0x0 KECCAK256 PUSH1 0x5 ADD PUSH1 0x0 SWAP1 SLOAD SWAP1 PUSH2 0x100 EXP SWAP1 DIV PUSH1 0xFF AND ISZERO PUSH2 0x822 JUMPI PUSH1 0x40 MLOAD PUSH32 0x8C379A000000000000000000000000000000000000000000000000000000000 DUP2 MSTORE PUSH1 0x4 ADD PUSH2 0x819 SWAP1 PUSH2 0x146E JUMP JUMPDEST PUSH1 0x40 MLOAD DUP1 SWAP2 SUB SWAP1 REVERT JUMPDEST PUSH1 0x0 DUP1 PUSH1 0x0 PUSH2 0x100 EXP DUP2 SLOAD DUP2 PUSH1 0xFF MUL NOT AND SWAP1 DUP4 PUSH1 0x2 DUP2 GT ISZERO PUSH2 0x847 JUMPI PUSH2 0x846 PUSH2 0x1696 JUMP JUMPDEST JUMPDEST MUL OR SWAP1 SSTORE POP PUSH1 0x0 DUP1 SLOAD SWAP1 PUSH2 0x100 EXP SWAP1 DIV PUSH1 0xFF AND PUSH1 0x2 DUP2 GT ISZERO PUSH2 0x86C JUMPI PUSH2 0x86B PUSH2 0x1696 JUMP JUMPDEST JUMPDEST PUSH1 0x2 DUP2 SWAP1 SSTORE POP PUSH1 0x0 PUSH1 0x2 SLOAD EQ ISZERO PUSH2 0x9A9 JUMPI PUSH1 0x40 MLOAD DUP1 PUSH1 0x40 ADD PUSH1 0x40 MSTORE DUP1 PUSH1 0xB DUP2 MSTORE PUSH1 0x20 ADD PUSH32 0x466972737420436C617373000000000000000000000000000000000000000000 DUP2 MSTORE POP PUSH1 0x3 SWAP1 DUP1 MLOAD SWAP1 PUSH1 0x20 ADD SWAP1 PUSH2 0x8C8 SWAP3 SWAP2 SWAP1 PUSH2 0x104D JUMP JUMPDEST POP PUSH7 0x2386F26FC10000 PUSH1 0x1 SLOAD PUSH2 0x8DE SWAP2 SWAP1 PUSH2 0x1520 JUMP JUMPDEST PUSH1 0x4 DUP2 SWAP1 SSTORE POP PUSH1 0x1 PUSH1 0x6 PUSH1 0x0 CALLER PUSH20 0xFFFFFFFFFFFFFFFFFFFFFFFFFFFFFFFFFFFFFFFF AND PUSH20 0xFFFFFFFFFFFFFFFFFFFFFFFFFFFFFFFFFFFFFFFF AND DUP2 MSTORE PUSH1 0x20 ADD SWAP1 DUP2 MSTORE PUSH1 0x20 ADD PUSH1 0x0 KECCAK256 PUSH1 0x5 ADD PUSH1 0x0 PUSH2 0x100 EXP DUP2 SLOAD DUP2 PUSH1 0xFF MUL NOT AND SWAP1 DUP4 ISZERO ISZERO MUL OR SWAP1 SSTORE POP PUSH1 0x6 PUSH1 0x0 CALLER PUSH20 0xFFFFFFFFFFFFFFFFFFFFFFFFFFFFFFFFFFFFFFFF AND PUSH20 0xFFFFFFFFFFFFFFFFFFFFFFFFFFFFFFFFFFFFFFFF AND DUP2 MSTORE PUSH1 0x20 ADD SWAP1 DUP2 MSTORE PUSH1 0x20 ADD PUSH1 0x0 KECCAK256 PUSH1 0x5 ADD PUSH1 0x0 SWAP1 SLOAD SWAP1 PUSH2 0x100 EXP SWAP1 DIV PUSH1 0xFF AND PUSH1 0x5 PUSH1 0x15 PUSH2 0x100 EXP DUP2 SLOAD DUP2 PUSH1 0xFF MUL NOT AND SWAP1 DUP4 ISZERO ISZERO MUL OR SWAP1 SSTORE POP JUMPDEST JUMP JUMPDEST PUSH1 0x6 PUSH1 0x0 CALLER PUSH20 0xFFFFFFFFFFFFFFFFFFFFFFFFFFFFFFFFFFFFFFFF AND PUSH20 0xFFFFFFFFFFFFFFFFFFFFFFFFFFFFFFFFFFFFFFFF AND DUP2 MSTORE PUSH1 0x20 ADD SWAP1 DUP2 MSTORE PUSH1 0x20 ADD PUSH1 0x0 KECCAK256 PUSH1 0x5 ADD PUSH1 0x0 SWAP1 SLOAD SWAP1 PUSH2 0x100 EXP SWAP1 DIV PUSH1 0xFF AND ISZERO PUSH2 0xA3B JUMPI PUSH1 0x40 MLOAD PUSH32 0x8C379A000000000000000000000000000000000000000000000000000000000 DUP2 MSTORE PUSH1 0x4 ADD PUSH2 0xA32 SWAP1 PUSH2 0x146E JUMP JUMPDEST PUSH1 0x40 MLOAD DUP1 SWAP2 SUB SWAP1 REVERT JUMPDEST PUSH1 0x1 PUSH1 0x0 DUP1 PUSH2 0x100 EXP DUP2 SLOAD DUP2 PUSH1 0xFF MUL NOT AND SWAP1 DUP4 PUSH1 0x2 DUP2 GT ISZERO PUSH2 0xA60 JUMPI PUSH2 0xA5F PUSH2 0x1696 JUMP JUMPDEST JUMPDEST MUL OR SWAP1 SSTORE POP PUSH1 0x0 DUP1 SLOAD SWAP1 PUSH2 0x100 EXP SWAP1 DIV PUSH1 0xFF AND PUSH1 0x2 DUP2 GT ISZERO PUSH2 0xA85 JUMPI PUSH2 0xA84 PUSH2 0x1696 JUMP JUMPDEST JUMPDEST PUSH1 0x2 DUP2 SWAP1 SSTORE POP PUSH1 0x1 PUSH1 0x2 SLOAD EQ ISZERO PUSH2 0xBC2 JUMPI PUSH1 0x40 MLOAD DUP1 PUSH1 0x40 ADD PUSH1 0x40 MSTORE DUP1 PUSH1 0xD DUP2 MSTORE PUSH1 0x20 ADD PUSH32 0x45636F6E6F6D7920436C61737300000000000000000000000000000000000000 DUP2 MSTORE POP PUSH1 0x3 SWAP1 DUP1 MLOAD SWAP1 PUSH1 0x20 ADD SWAP1 PUSH2 0xAE1 SWAP3 SWAP2 SWAP1 PUSH2 0x104D JUMP JUMPDEST POP PUSH7 0x11C37937E08000 PUSH1 0x1 SLOAD PUSH2 0xAF7 SWAP2 SWAP1 PUSH2 0x1520 JUMP JUMPDEST PUSH1 0x4 DUP2 SWAP1 SSTORE POP PUSH1 0x1 PUSH1 0x6 PUSH1 0x0 CALLER PUSH20 0xFFFFFFFFFFFFFFFFFFFFFFFFFFFFFFFFFFFFFFFF AND PUSH20 0xFFFFFFFFFFFFFFFFFFFFFFFFFFFFFFFFFFFFFFFF AND DUP2 MSTORE PUSH1 0x20 ADD SWAP1 DUP2 MSTORE PUSH1 0x20 ADD PUSH1 0x0 KECCAK256 PUSH1 0x5 ADD PUSH1 0x0 PUSH2 0x100 EXP DUP2 SLOAD DUP2 PUSH1 0xFF MUL NOT AND SWAP1 DUP4 ISZERO ISZERO MUL OR SWAP1 SSTORE POP PUSH1 0x6 PUSH1 0x0 CALLER PUSH20 0xFFFFFFFFFFFFFFFFFFFFFFFFFFFFFFFFFFFFFFFF AND PUSH20 0xFFFFFFFFFFFFFFFFFFFFFFFFFFFFFFFFFFFFFFFF AND DUP2 MSTORE PUSH1 0x20 ADD SWAP1 DUP2 MSTORE PUSH1 0x20 ADD PUSH1 0x0 KECCAK256 PUSH1 0x5 ADD PUSH1 0x0 SWAP1 SLOAD SWAP1 PUSH2 0x100 EXP SWAP1 DIV PUSH1 0xFF AND PUSH1 0x5 PUSH1 0x15 PUSH2 0x100 EXP DUP2 SLOAD DUP2 PUSH1 0xFF MUL NOT AND SWAP1 DUP4 ISZERO ISZERO MUL OR SWAP1 SSTORE POP JUMPDEST JUMP JUMPDEST PUSH1 0x5 PUSH1 0x0 SWAP1 SLOAD SWAP1 PUSH2 0x100 EXP SWAP1 DIV PUSH20 0xFFFFFFFFFFFFFFFFFFFFFFFFFFFFFFFFFFFFFFFF AND DUP2 JUMP JUMPDEST PUSH1 0x0 PUSH1 0x6 PUSH1 0x0 CALLER PUSH20 0xFFFFFFFFFFFFFFFFFFFFFFFFFFFFFFFFFFFFFFFF AND PUSH20 0xFFFFFFFFFFFFFFFFFFFFFFFFFFFFFFFFFFFFFFFF AND DUP2 MSTORE PUSH1 0x20 ADD SWAP1 DUP2 MSTORE PUSH1 0x20 ADD PUSH1 0x0 KECCAK256 PUSH1 0x5 ADD PUSH1 0x1 SWAP1 SLOAD SWAP1 PUSH2 0x100 EXP SWAP1 DIV PUSH1 0xFF AND SWAP1 POP SWAP1 JUMP JUMPDEST PUSH1 0x6 PUSH1 0x0 CALLER PUSH20 0xFFFFFFFFFFFFFFFFFFFFFFFFFFFFFFFFFFFFFFFF AND PUSH20 0xFFFFFFFFFFFFFFFFFFFFFFFFFFFFFFFFFFFFFFFF AND DUP2 MSTORE PUSH1 0x20 ADD SWAP1 DUP2 MSTORE PUSH1 0x20 ADD PUSH1 0x0 KECCAK256 PUSH1 0x5 ADD PUSH1 0x0 SWAP1 SLOAD SWAP1 PUSH2 0x100 EXP SWAP1 DIV PUSH1 0xFF AND ISZERO PUSH2 0xCD1 JUMPI PUSH1 0x40 MLOAD PUSH32 0x8C379A000000000000000000000000000000000000000000000000000000000 DUP2 MSTORE PUSH1 0x4 ADD PUSH2 0xCC8 SWAP1 PUSH2 0x146E JUMP JUMPDEST PUSH1 0x40 MLOAD DUP1 SWAP2 SUB SWAP1 REVERT JUMPDEST PUSH1 0x2 PUSH1 0x0 DUP1 PUSH2 0x100 EXP DUP2 SLOAD DUP2 PUSH1 0xFF MUL NOT AND SWAP1 DUP4 PUSH1 0x2 DUP2 GT ISZERO PUSH2 0xCF6 JUMPI PUSH2 0xCF5 PUSH2 0x1696 JUMP JUMPDEST JUMPDEST MUL OR SWAP1 SSTORE POP PUSH1 0x0 DUP1 SLOAD SWAP1 PUSH2 0x100 EXP SWAP1 DIV PUSH1 0xFF AND PUSH1 0x2 DUP2 GT ISZERO PUSH2 0xD1B JUMPI PUSH2 0xD1A PUSH2 0x1696 JUMP JUMPDEST JUMPDEST PUSH1 0x2 DUP2 SWAP1 SSTORE POP PUSH1 0x2 DUP1 SLOAD EQ ISZERO PUSH2 0xE57 JUMPI PUSH1 0x40 MLOAD DUP1 PUSH1 0x40 ADD PUSH1 0x40 MSTORE DUP1 PUSH1 0xE DUP2 MSTORE PUSH1 0x20 ADD PUSH32 0x427573696E65737320436C617373000000000000000000000000000000000000 DUP2 MSTORE POP PUSH1 0x3 SWAP1 DUP1 MLOAD SWAP1 PUSH1 0x20 ADD SWAP1 PUSH2 0xD76 SWAP3 SWAP2 SWAP1 PUSH2 0x104D JUMP JUMPDEST POP PUSH7 0x18DE76816D8000 PUSH1 0x1 SLOAD PUSH2 0xD8C SWAP2 SWAP1 PUSH2 0x1520 JUMP JUMPDEST PUSH1 0x4 DUP2 SWAP1 SSTORE POP PUSH1 0x1 PUSH1 0x6 PUSH1 0x0 CALLER PUSH20 0xFFFFFFFFFFFFFFFFFFFFFFFFFFFFFFFFFFFFFFFF AND PUSH20 0xFFFFFFFFFFFFFFFFFFFFFFFFFFFFFFFFFFFFFFFF AND DUP2 MSTORE PUSH1 0x20 ADD SWAP1 DUP2 MSTORE PUSH1 0x20 ADD PUSH1 0x0 KECCAK256 PUSH1 0x5 ADD PUSH1 0x0 PUSH2 0x100 EXP DUP2 SLOAD DUP2 PUSH1 0xFF MUL NOT AND SWAP1 DUP4 ISZERO ISZERO MUL OR SWAP1 SSTORE POP PUSH1 0x6 PUSH1 0x0 CALLER PUSH20 0xFFFFFFFFFFFFFFFFFFFFFFFFFFFFFFFFFFFFFFFF AND PUSH20 0xFFFFFFFFFFFFFFFFFFFFFFFFFFFFFFFFFFFFFFFF AND DUP2 MSTORE PUSH1 0x20 ADD SWAP1 DUP2 MSTORE PUSH1 0x20 ADD PUSH1 0x0 KECCAK256 PUSH1 0x5 ADD PUSH1 0x0 SWAP1 SLOAD SWAP1 PUSH2 0x100 EXP SWAP1 DIV PUSH1 0xFF AND PUSH1 0x5 PUSH1 0x15 PUSH2 0x100 EXP DUP2 SLOAD DUP2 PUSH1 0xFF MUL NOT AND SWAP1 DUP4 ISZERO ISZERO MUL OR SWAP1 SSTORE POP JUMPDEST JUMP JUMPDEST PUSH1 0x6 PUSH1 0x20 MSTORE DUP1 PUSH1 0x0 MSTORE PUSH1 0x40 PUSH1 0x0 KECCAK256 PUSH1 0x0 SWAP2 POP SWAP1 POP DUP1 PUSH1 0x0 ADD DUP1 SLOAD PUSH2 0xE7C SWAP1 PUSH2 0x1604 JUMP JUMPDEST DUP1 PUSH1 0x1F ADD PUSH1 0x20 DUP1 SWAP2 DIV MUL PUSH1 0x20 ADD PUSH1 0x40 MLOAD SWAP1 DUP2 ADD PUSH1 0x40 MSTORE DUP1 SWAP3 SWAP2 SWAP1 DUP2 DUP2 MSTORE PUSH1 0x20 ADD DUP3 DUP1 SLOAD PUSH2 0xEA8 SWAP1 PUSH2 0x1604 JUMP JUMPDEST DUP1 ISZERO PUSH2 0xEF5 JUMPI DUP1 PUSH1 0x1F LT PUSH2 0xECA JUMPI PUSH2 0x100 DUP1 DUP4 SLOAD DIV MUL DUP4 MSTORE SWAP2 PUSH1 0x20 ADD SWAP2 PUSH2 0xEF5 JUMP JUMPDEST DUP3 ADD SWAP2 SWAP1 PUSH1 0x0 MSTORE PUSH1 0x20 PUSH1 0x0 KECCAK256 SWAP1 JUMPDEST DUP2 SLOAD DUP2 MSTORE SWAP1 PUSH1 0x1 ADD SWAP1 PUSH1 0x20 ADD DUP1 DUP4 GT PUSH2 0xED8 JUMPI DUP3 SWAP1 SUB PUSH1 0x1F AND DUP3 ADD SWAP2 JUMPDEST POP POP POP POP POP SWAP1 DUP1 PUSH1 0x1 ADD DUP1 SLOAD PUSH2 0xF0A SWAP1 PUSH2 0x1604 JUMP JUMPDEST DUP1 PUSH1 0x1F ADD PUSH1 0x20 DUP1 SWAP2 DIV MUL PUSH1 0x20 ADD PUSH1 0x40 MLOAD SWAP1 DUP2 ADD PUSH1 0x40 MSTORE DUP1 SWAP3 SWAP2 SWAP1 DUP2 DUP2 MSTORE PUSH1 0x20 ADD DUP3 DUP1 SLOAD PUSH2 0xF36 SWAP1 PUSH2 0x1604 JUMP JUMPDEST DUP1 ISZERO PUSH2 0xF83 JUMPI DUP1 PUSH1 0x1F LT PUSH2 0xF58 JUMPI PUSH2 0x100 DUP1 DUP4 SLOAD DIV MUL DUP4 MSTORE SWAP2 PUSH1 0x20 ADD SWAP2 PUSH2 0xF83 JUMP JUMPDEST DUP3 ADD SWAP2 SWAP1 PUSH1 0x0 MSTORE PUSH1 0x20 PUSH1 0x0 KECCAK256 SWAP1 JUMPDEST DUP2 SLOAD DUP2 MSTORE SWAP1 PUSH1 0x1 ADD SWAP1 PUSH1 0x20 ADD DUP1 DUP4 GT PUSH2 0xF66 JUMPI DUP3 SWAP1 SUB PUSH1 0x1F AND DUP3 ADD SWAP2 JUMPDEST POP POP POP POP POP SWAP1 DUP1 PUSH1 0x2 ADD SLOAD SWAP1 DUP1 PUSH1 0x3 ADD DUP1 SLOAD PUSH2 0xF9E SWAP1 PUSH2 0x1604 JUMP JUMPDEST DUP1 PUSH1 0x1F ADD PUSH1 0x20 DUP1 SWAP2 DIV MUL PUSH1 0x20 ADD PUSH1 0x40 MLOAD SWAP1 DUP2 ADD PUSH1 0x40 MSTORE DUP1 SWAP3 SWAP2 SWAP1 DUP2 DUP2 MSTORE PUSH1 0x20 ADD DUP3 DUP1 SLOAD PUSH2 0xFCA SWAP1 PUSH2 0x1604 JUMP JUMPDEST DUP1 ISZERO PUSH2 0x1017 JUMPI DUP1 PUSH1 0x1F LT PUSH2 0xFEC JUMPI PUSH2 0x100 DUP1 DUP4 SLOAD DIV MUL DUP4 MSTORE SWAP2 PUSH1 0x20 ADD SWAP2 PUSH2 0x1017 JUMP JUMPDEST DUP3 ADD SWAP2 SWAP1 PUSH1 0x0 MSTORE PUSH1 0x20 PUSH1 0x0 KECCAK256 SWAP1 JUMPDEST DUP2 SLOAD DUP2 MSTORE SWAP1 PUSH1 0x1 ADD SWAP1 PUSH1 0x20 ADD DUP1 DUP4 GT PUSH2 0xFFA JUMPI DUP3 SWAP1 SUB PUSH1 0x1F AND DUP3 ADD SWAP2 JUMPDEST POP POP POP POP POP SWAP1 DUP1 PUSH1 0x4 ADD SLOAD SWAP1 DUP1 PUSH1 0x5 ADD PUSH1 0x0 SWAP1 SLOAD SWAP1 PUSH2 0x100 EXP SWAP1 DIV PUSH1 0xFF AND SWAP1 DUP1 PUSH1 0x5 ADD PUSH1 0x1 SWAP1 SLOAD SWAP1 PUSH2 0x100 EXP SWAP1 DIV PUSH1 0xFF AND SWAP1 POP DUP8 JUMP JUMPDEST DUP3 DUP1 SLOAD PUSH2 0x1059 SWAP1 PUSH2 0x1604 JUMP JUMPDEST SWAP1 PUSH1 0x0 MSTORE PUSH1 0x20 PUSH1 0x0 KECCAK256 SWAP1 PUSH1 0x1F ADD PUSH1 0x20 SWAP1 DIV DUP2 ADD SWAP3 DUP3 PUSH2 0x107B JUMPI PUSH1 0x0 DUP6 SSTORE PUSH2 0x10C2 JUMP JUMPDEST DUP3 PUSH1 0x1F LT PUSH2 0x1094 JUMPI DUP1 MLOAD PUSH1 0xFF NOT AND DUP4 DUP1 ADD OR DUP6 SSTORE PUSH2 0x10C2 JUMP JUMPDEST DUP3 DUP1 ADD PUSH1 0x1 ADD DUP6 SSTORE DUP3 ISZERO PUSH2 0x10C2 JUMPI SWAP2 DUP3 ADD JUMPDEST DUP3 DUP2 GT ISZERO PUSH2 0x10C1 JUMPI DUP3 MLOAD DUP3 SSTORE SWAP2 PUSH1 0x20 ADD SWAP2 SWAP1 PUSH1 0x1 ADD SWAP1 PUSH2 0x10A6 JUMP JUMPDEST JUMPDEST POP SWAP1 POP PUSH2 0x10CF SWAP2 SWAP1 PUSH2 0x1113 JUMP JUMPDEST POP SWAP1 JUMP JUMPDEST POP DUP1 SLOAD PUSH2 0x10DF SWAP1 PUSH2 0x1604 JUMP JUMPDEST PUSH1 0x0 DUP3 SSTORE DUP1 PUSH1 0x1F LT PUSH2 0x10F1 JUMPI POP PUSH2 0x1110 JUMP JUMPDEST PUSH1 0x1F ADD PUSH1 0x20 SWAP1 DIV SWAP1 PUSH1 0x0 MSTORE PUSH1 0x20 PUSH1 0x0 KECCAK256 SWAP1 DUP2 ADD SWAP1 PUSH2 0x110F SWAP2 SWAP1 PUSH2 0x1113 JUMP JUMPDEST JUMPDEST POP JUMP JUMPDEST JUMPDEST DUP1 DUP3 GT ISZERO PUSH2 0x112C JUMPI PUSH1 0x0 DUP2 PUSH1 0x0 SWAP1 SSTORE POP PUSH1 0x1 ADD PUSH2 0x1114 JUMP JUMPDEST POP SWAP1 JUMP JUMPDEST PUSH1 0x0 PUSH2 0x1143 PUSH2 0x113E DUP5 PUSH2 0x14D3 JUMP JUMPDEST PUSH2 0x14AE JUMP JUMPDEST SWAP1 POP DUP3 DUP2 MSTORE PUSH1 0x20 DUP2 ADD DUP5 DUP5 DUP5 ADD GT ISZERO PUSH2 0x115F JUMPI PUSH2 0x115E PUSH2 0x1728 JUMP JUMPDEST JUMPDEST PUSH2 0x116A DUP5 DUP3 DUP6 PUSH2 0x15C2 JUMP JUMPDEST POP SWAP4 SWAP3 POP POP POP JUMP JUMPDEST PUSH1 0x0 DUP2 CALLDATALOAD SWAP1 POP PUSH2 0x1181 DUP2 PUSH2 0x1812 JUMP JUMPDEST SWAP3 SWAP2 POP POP JUMP JUMPDEST PUSH1 0x0 DUP3 PUSH1 0x1F DUP4 ADD SLT PUSH2 0x119C JUMPI PUSH2 0x119B PUSH2 0x1723 JUMP JUMPDEST JUMPDEST DUP2 CALLDATALOAD PUSH2 0x11AC DUP5 DUP3 PUSH1 0x20 DUP7 ADD PUSH2 0x1130 JUMP JUMPDEST SWAP2 POP POP SWAP3 SWAP2 POP POP JUMP JUMPDEST PUSH1 0x0 DUP2 CALLDATALOAD SWAP1 POP PUSH2 0x11C4 DUP2 PUSH2 0x1829 JUMP JUMPDEST SWAP3 SWAP2 POP POP JUMP JUMPDEST PUSH1 0x0 PUSH1 0x20 DUP3 DUP5 SUB SLT ISZERO PUSH2 0x11E0 JUMPI PUSH2 0x11DF PUSH2 0x1732 JUMP JUMPDEST JUMPDEST PUSH1 0x0 PUSH2 0x11EE DUP5 DUP3 DUP6 ADD PUSH2 0x1172 JUMP JUMPDEST SWAP2 POP POP SWAP3 SWAP2 POP POP JUMP JUMPDEST PUSH1 0x0 DUP1 PUSH1 0x0 PUSH1 0x60 DUP5 DUP7 SUB SLT ISZERO PUSH2 0x1210 JUMPI PUSH2 0x120F PUSH2 0x1732 JUMP JUMPDEST JUMPDEST PUSH1 0x0 DUP5 ADD CALLDATALOAD PUSH8 0xFFFFFFFFFFFFFFFF DUP2 GT ISZERO PUSH2 0x122E JUMPI PUSH2 0x122D PUSH2 0x172D JUMP JUMPDEST JUMPDEST PUSH2 0x123A DUP7 DUP3 DUP8 ADD PUSH2 0x1187 JUMP JUMPDEST SWAP4 POP POP PUSH1 0x20 DUP5 ADD CALLDATALOAD PUSH8 0xFFFFFFFFFFFFFFFF DUP2 GT ISZERO PUSH2 0x125B JUMPI PUSH2 0x125A PUSH2 0x172D JUMP JUMPDEST JUMPDEST PUSH2 0x1267 DUP7 DUP3 DUP8 ADD PUSH2 0x1187 JUMP JUMPDEST SWAP3 POP POP PUSH1 0x40 PUSH2 0x1278 DUP7 DUP3 DUP8 ADD PUSH2 0x11B5 JUMP JUMPDEST SWAP2 POP POP SWAP3 POP SWAP3 POP SWAP3 JUMP JUMPDEST PUSH2 0x128B DUP2 PUSH2 0x157A JUMP JUMPDEST DUP3 MSTORE POP POP JUMP JUMPDEST PUSH2 0x129A DUP2 PUSH2 0x158C JUMP JUMPDEST DUP3 MSTORE POP POP JUMP JUMPDEST PUSH1 0x0 PUSH2 0x12AB DUP3 PUSH2 0x1504 JUMP JUMPDEST PUSH2 0x12B5 DUP2 DUP6 PUSH2 0x150F JUMP JUMPDEST SWAP4 POP PUSH2 0x12C5 DUP2 DUP6 PUSH1 0x20 DUP7 ADD PUSH2 0x15D1 JUMP JUMPDEST PUSH2 0x12CE DUP2 PUSH2 0x1737 JUMP JUMPDEST DUP5 ADD SWAP2 POP POP SWAP3 SWAP2 POP POP JUMP JUMPDEST PUSH1 0x0 PUSH2 0x12E6 PUSH1 0x25 DUP4 PUSH2 0x150F JUMP JUMPDEST SWAP2 POP PUSH2 0x12F1 DUP3 PUSH2 0x1748 JUMP JUMPDEST PUSH1 0x40 DUP3 ADD SWAP1 POP SWAP2 SWAP1 POP JUMP JUMPDEST PUSH1 0x0 PUSH2 0x1309 PUSH1 0x1D DUP4 PUSH2 0x150F JUMP JUMPDEST SWAP2 POP PUSH2 0x1314 DUP3 PUSH2 0x1797 JUMP JUMPDEST PUSH1 0x20 DUP3 ADD SWAP1 POP SWAP2 SWAP1 POP JUMP JUMPDEST PUSH1 0x0 PUSH2 0x132C PUSH1 0x1D DUP4 PUSH2 0x150F JUMP JUMPDEST SWAP2 POP PUSH2 0x1337 DUP3 PUSH2 0x17C0 JUMP JUMPDEST PUSH1 0x20 DUP3 ADD SWAP1 POP SWAP2 SWAP1 POP JUMP JUMPDEST PUSH1 0x0 PUSH2 0x134F PUSH1 0x20 DUP4 PUSH2 0x150F JUMP JUMPDEST SWAP2 POP PUSH2 0x135A DUP3 PUSH2 0x17E9 JUMP JUMPDEST PUSH1 0x20 DUP3 ADD SWAP1 POP SWAP2 SWAP1 POP JUMP JUMPDEST PUSH2 0x136E DUP2 PUSH2 0x15B8 JUMP JUMPDEST DUP3 MSTORE POP POP JUMP JUMPDEST PUSH1 0x0 PUSH1 0x20 DUP3 ADD SWAP1 POP PUSH2 0x1389 PUSH1 0x0 DUP4 ADD DUP5 PUSH2 0x1282 JUMP JUMPDEST SWAP3 SWAP2 POP POP JUMP JUMPDEST PUSH1 0x0 PUSH1 0x20 DUP3 ADD SWAP1 POP PUSH2 0x13A4 PUSH1 0x0 DUP4 ADD DUP5 PUSH2 0x1291 JUMP JUMPDEST SWAP3 SWAP2 POP POP JUMP JUMPDEST PUSH1 0x0 PUSH1 0xE0 DUP3 ADD SWAP1 POP DUP2 DUP2 SUB PUSH1 0x0 DUP4 ADD MSTORE PUSH2 0x13C4 DUP2 DUP11 PUSH2 0x12A0 JUMP JUMPDEST SWAP1 POP DUP2 DUP2 SUB PUSH1 0x20 DUP4 ADD MSTORE PUSH2 0x13D8 DUP2 DUP10 PUSH2 0x12A0 JUMP JUMPDEST SWAP1 POP PUSH2 0x13E7 PUSH1 0x40 DUP4 ADD DUP9 PUSH2 0x1365 JUMP JUMPDEST DUP2 DUP2 SUB PUSH1 0x60 DUP4 ADD MSTORE PUSH2 0x13F9 DUP2 DUP8 PUSH2 0x12A0 JUMP JUMPDEST SWAP1 POP PUSH2 0x1408 PUSH1 0x80 DUP4 ADD DUP7 PUSH2 0x1365 JUMP JUMPDEST PUSH2 0x1415 PUSH1 0xA0 DUP4 ADD DUP6 PUSH2 0x1291 JUMP JUMPDEST PUSH2 0x1422 PUSH1 0xC0 DUP4 ADD DUP5 PUSH2 0x1291 JUMP JUMPDEST SWAP9 SWAP8 POP POP POP POP POP POP POP POP JUMP JUMPDEST PUSH1 0x0 PUSH1 0x20 DUP3 ADD SWAP1 POP DUP2 DUP2 SUB PUSH1 0x0 DUP4 ADD MSTORE PUSH2 0x1447 DUP2 PUSH2 0x12D9 JUMP JUMPDEST SWAP1 POP SWAP2 SWAP1 POP JUMP JUMPDEST PUSH1 0x0 PUSH1 0x20 DUP3 ADD SWAP1 POP DUP2 DUP2 SUB PUSH1 0x0 DUP4 ADD MSTORE PUSH2 0x1467 DUP2 PUSH2 0x12FC JUMP JUMPDEST SWAP1 POP SWAP2 SWAP1 POP JUMP JUMPDEST PUSH1 0x0 PUSH1 0x20 DUP3 ADD SWAP1 POP DUP2 DUP2 SUB PUSH1 0x0 DUP4 ADD MSTORE PUSH2 0x1487 DUP2 PUSH2 0x131F JUMP JUMPDEST SWAP1 POP SWAP2 SWAP1 POP JUMP JUMPDEST PUSH1 0x0 PUSH1 0x20 DUP3 ADD SWAP1 POP DUP2 DUP2 SUB PUSH1 0x0 DUP4 ADD MSTORE PUSH2 0x14A7 DUP2 PUSH2 0x1342 JUMP JUMPDEST SWAP1 POP SWAP2 SWAP1 POP JUMP JUMPDEST PUSH1 0x0 PUSH2 0x14B8 PUSH2 0x14C9 JUMP JUMPDEST SWAP1 POP PUSH2 0x14C4 DUP3 DUP3 PUSH2 0x1636 JUMP JUMPDEST SWAP2 SWAP1 POP JUMP JUMPDEST PUSH1 0x0 PUSH1 0x40 MLOAD SWAP1 POP SWAP1 JUMP JUMPDEST PUSH1 0x0 PUSH8 0xFFFFFFFFFFFFFFFF DUP3 GT ISZERO PUSH2 0x14EE JUMPI PUSH2 0x14ED PUSH2 0x16F4 JUMP JUMPDEST JUMPDEST PUSH2 0x14F7 DUP3 PUSH2 0x1737 JUMP JUMPDEST SWAP1 POP PUSH1 0x20 DUP2 ADD SWAP1 POP SWAP2 SWAP1 POP JUMP JUMPDEST PUSH1 0x0 DUP2 MLOAD SWAP1 POP SWAP2 SWAP1 POP JUMP JUMPDEST PUSH1 0x0 DUP3 DUP3 MSTORE PUSH1 0x20 DUP3 ADD SWAP1 POP SWAP3 SWAP2 POP POP JUMP JUMPDEST PUSH1 0x0 PUSH2 0x152B DUP3 PUSH2 0x15B8 JUMP JUMPDEST SWAP2 POP PUSH2 0x1536 DUP4 PUSH2 0x15B8 JUMP JUMPDEST SWAP3 POP DUP2 PUSH32 0xFFFFFFFFFFFFFFFFFFFFFFFFFFFFFFFFFFFFFFFFFFFFFFFFFFFFFFFFFFFFFFFF DIV DUP4 GT DUP3 ISZERO ISZERO AND ISZERO PUSH2 0x156F JUMPI PUSH2 0x156E PUSH2 0x1667 JUMP JUMPDEST JUMPDEST DUP3 DUP3 MUL SWAP1 POP SWAP3 SWAP2 POP POP JUMP JUMPDEST PUSH1 0x0 PUSH2 0x1585 DUP3 PUSH2 0x1598 JUMP JUMPDEST SWAP1 POP SWAP2 SWAP1 POP JUMP JUMPDEST PUSH1 0x0 DUP2 ISZERO ISZERO SWAP1 POP SWAP2 SWAP1 POP JUMP JUMPDEST PUSH1 0x0 PUSH20 0xFFFFFFFFFFFFFFFFFFFFFFFFFFFFFFFFFFFFFFFF DUP3 AND SWAP1 POP SWAP2 SWAP1 POP JUMP JUMPDEST PUSH1 0x0 DUP2 SWAP1 POP SWAP2 SWAP1 POP JUMP JUMPDEST DUP3 DUP2 DUP4 CALLDATACOPY PUSH1 0x0 DUP4 DUP4 ADD MSTORE POP POP POP JUMP JUMPDEST PUSH1 0x0 JUMPDEST DUP4 DUP2 LT ISZERO PUSH2 0x15EF JUMPI DUP1 DUP3 ADD MLOAD DUP2 DUP5 ADD MSTORE PUSH1 0x20 DUP2 ADD SWAP1 POP PUSH2 0x15D4 JUMP JUMPDEST DUP4 DUP2 GT ISZERO PUSH2 0x15FE JUMPI PUSH1 0x0 DUP5 DUP5 ADD MSTORE JUMPDEST POP POP POP POP JUMP JUMPDEST PUSH1 0x0 PUSH1 0x2 DUP3 DIV SWAP1 POP PUSH1 0x1 DUP3 AND DUP1 PUSH2 0x161C JUMPI PUSH1 0x7F DUP3 AND SWAP2 POP JUMPDEST PUSH1 0x20 DUP3 LT DUP2 EQ ISZERO PUSH2 0x1630 JUMPI PUSH2 0x162F PUSH2 0x16C5 JUMP JUMPDEST JUMPDEST POP SWAP2 SWAP1 POP JUMP JUMPDEST PUSH2 0x163F DUP3 PUSH2 0x1737 JUMP JUMPDEST DUP2 ADD DUP2 DUP2 LT PUSH8 0xFFFFFFFFFFFFFFFF DUP3 GT OR ISZERO PUSH2 0x165E JUMPI PUSH2 0x165D PUSH2 0x16F4 JUMP JUMPDEST JUMPDEST DUP1 PUSH1 0x40 MSTORE POP POP POP JUMP JUMPDEST PUSH32 0x4E487B7100000000000000000000000000000000000000000000000000000000 PUSH1 0x0 MSTORE PUSH1 0x11 PUSH1 0x4 MSTORE PUSH1 0x24 PUSH1 0x0 REVERT JUMPDEST PUSH32 0x4E487B7100000000000000000000000000000000000000000000000000000000 PUSH1 0x0 MSTORE PUSH1 0x21 PUSH1 0x4 MSTORE PUSH1 0x24 PUSH1 0x0 REVERT JUMPDEST PUSH32 0x4E487B7100000000000000000000000000000000000000000000000000000000 PUSH1 0x0 MSTORE PUSH1 0x22 PUSH1 0x4 MSTORE PUSH1 0x24 PUSH1 0x0 REVERT JUMPDEST PUSH32 0x4E487B7100000000000000000000000000000000000000000000000000000000 PUSH1 0x0 MSTORE PUSH1 0x41 PUSH1 0x4 MSTORE PUSH1 0x24 PUSH1 0x0 REVERT JUMPDEST PUSH1 0x0 DUP1 REVERT JUMPDEST PUSH1 0x0 DUP1 REVERT JUMPDEST PUSH1 0x0 DUP1 REVERT JUMPDEST PUSH1 0x0 DUP1 REVERT JUMPDEST PUSH1 0x0 PUSH1 0x1F NOT PUSH1 0x1F DUP4 ADD AND SWAP1 POP SWAP2 SWAP1 POP JUMP JUMPDEST PUSH32 0x596F752061726520746865206F776E657220796F752063616E74206275792074 PUSH1 0x0 DUP3 ADD MSTORE PUSH32 0x69636B6574000000000000000000000000000000000000000000000000000000 PUSH1 0x20 DUP3 ADD MSTORE POP JUMP JUMPDEST PUSH32 0x706C656173652073656C6563742074686520636C617373206669727374000000 PUSH1 0x0 DUP3 ADD MSTORE POP JUMP JUMPDEST PUSH32 0x796F75206861766520616C726561647920626F6F6B206120636C617373000000 PUSH1 0x0 DUP3 ADD MSTORE POP JUMP JUMPDEST PUSH32 0x596F75206861766520616C726561647920706169642074686520616D6F756E74 PUSH1 0x0 DUP3 ADD MSTORE POP JUMP JUMPDEST PUSH2 0x181B DUP2 PUSH2 0x157A JUMP JUMPDEST DUP2 EQ PUSH2 0x1826 JUMPI PUSH1 0x0 DUP1 REVERT JUMPDEST POP JUMP JUMPDEST PUSH2 0x1832 DUP2 PUSH2 0x15B8 JUMP JUMPDEST DUP2 EQ PUSH2 0x183D JUMPI PUSH1 0x0 DUP1 REVERT JUMPDEST POP JUMP INVALID LOG2 PUSH5 0x6970667358 0x22 SLT KECCAK256 0xC8 EXP CALLER 0xAB 0xA5 0xC3 0xCA 0xC8 0xEF SWAP2 SWAP7 DUP1 DELEGATECALL 0xC DUP12 0x5D SLT CALL 0xC9 PUSH12 0x68FDECD0BCD4737E1C659273 PUSH5 0x736F6C6343 STOP ADDMOD SMOD STOP CALLER "
				},
				"gasEstimates": {
					"creation": {
						"codeDepositCost": "1252400",
						"executionCost": "96308",
						"totalCost": "1348708"
					},
					"external": {
						"busnissClass()": "infinite",
						"data(address)": "infinite",
						"economyClass()": "infinite",
						"firstClass()": "infinite",
						"owner()": "2514",
						"payment()": "infinite",
						"see()": "2646",
						"setData(string,string,uint256)": "infinite"
					}
				},
				"methodIdentifiers": {
					"busnissClass()": "b24fa0e4",
					"data(address)": "b90d3d0c",
					"economyClass()": "7a1736d1",
					"firstClass()": "50183507",
					"owner()": "8da5cb5b",
					"payment()": "42f6487a",
					"see()": "9ae5a2be",
					"setData(string,string,uint256)": "17ae4589"
				}
			},
			"userdoc": {
				"kind": "user",
				"methods": {},
				"version": 1
			}
		}
	}
}