{
	"bootcampquiz.sol": {
		"AirlineTickets": {
			"abi": [
				{
					"inputs": [],
					"name": "busnissClass",
					"outputs": [],
					"stateMutability": "nonpayable",
					"type": "function"
				},
				{
					"inputs": [
						{
							"internalType": "address",
							"name": "",
							"type": "address"
						}
					],
					"name": "data",
					"outputs": [
						{
							"internalType": "string",
							"name": "name",
							"type": "string"
						},
						{
							"internalType": "string",
							"name": "des",
							"type": "string"
						},
						{
							"internalType": "uint256",
							"name": "pass_id",
							"type": "uint256"
						},
						{
							"internalType": "string",
							"name": "ticket",
							"type": "string"
						},
						{
							"internalType": "uint256",
							"name": "cost",
							"type": "uint256"
						}
					],
					"stateMutability": "view",
					"type": "function"
				},
				{
					"inputs": [],
					"name": "economyClass",
					"outputs": [],
					"stateMutability": "nonpayable",
					"type": "function"
				},
				{
					"inputs": [],
					"name": "firstClass",
					"outputs": [],
					"stateMutability": "nonpayable",
					"type": "function"
				},
				{
					"inputs": [
						{
							"internalType": "string",
							"name": "_name",
							"type": "string"
						},
						{
							"internalType": "string",
							"name": "_des",
							"type": "string"
						},
						{
							"internalType": "uint256",
							"name": "_pass_id",
							"type": "uint256"
						}
					],
					"name": "setData",
					"outputs": [],
					"stateMutability": "nonpayable",
					"type": "function"
				}
			],
			"devdoc": {
				"kind": "dev",
				"methods": {},
				"version": 1
			},
			"evm": {
				"assembly": "    /* \"bootcampquiz.sol\":72:1629  contract AirlineTickets {\r... */\n  mstore(0x40, 0x80)\n    /* \"bootcampquiz.sol\":259:264  false */\n  0x00\n    /* \"bootcampquiz.sol\":245:264  bool booked = false */\n  dup1\n  exp(0x0100, 0x00)\n  dup2\n  sload\n  dup2\n  0xff\n  mul\n  not\n  and\n  swap1\n  dup4\n  iszero\n  iszero\n  mul\n  or\n  swap1\n  sstore\n  pop\n    /* \"bootcampquiz.sol\":72:1629  contract AirlineTickets {\r... */\n  callvalue\n  dup1\n  iszero\n  tag_1\n  jumpi\n  0x00\n  dup1\n  revert\ntag_1:\n  pop\n  dataSize(sub_0)\n  dup1\n  dataOffset(sub_0)\n  0x00\n  codecopy\n  0x00\n  return\nstop\n\nsub_0: assembly {\n        /* \"bootcampquiz.sol\":72:1629  contract AirlineTickets {\r... */\n      mstore(0x40, 0x80)\n      callvalue\n      dup1\n      iszero\n      tag_1\n      jumpi\n      0x00\n      dup1\n      revert\n    tag_1:\n      pop\n      jumpi(tag_2, lt(calldatasize, 0x04))\n      shr(0xe0, calldataload(0x00))\n      dup1\n      0x17ae4589\n      eq\n      tag_3\n      jumpi\n      dup1\n      0x50183507\n      eq\n      tag_4\n      jumpi\n      dup1\n      0x7a1736d1\n      eq\n      tag_5\n      jumpi\n      dup1\n      0xb24fa0e4\n      eq\n      tag_6\n      jumpi\n      dup1\n      0xb90d3d0c\n      eq\n      tag_7\n      jumpi\n    tag_2:\n      0x00\n      dup1\n      revert\n        /* \"bootcampquiz.sol\":1398:1620  function setData(string memory _name, string memory _des, uint _pass_id) public \r... */\n    tag_3:\n      tag_8\n      0x04\n      dup1\n      calldatasize\n      sub\n      dup2\n      add\n      swap1\n      tag_9\n      swap2\n      swap1\n      tag_10\n      jump\t// in\n    tag_9:\n      tag_11\n      jump\t// in\n    tag_8:\n      stop\n        /* \"bootcampquiz.sol\":774:1076  function firstClass() public \r... */\n    tag_4:\n      tag_12\n      tag_13\n      jump\t// in\n    tag_12:\n      stop\n        /* \"bootcampquiz.sol\":456:764  function economyClass() public \r... */\n    tag_5:\n      tag_14\n      tag_15\n      jump\t// in\n    tag_14:\n      stop\n        /* \"bootcampquiz.sol\":1084:1386  function busnissClass() public {\r... */\n    tag_6:\n      tag_16\n      tag_17\n      jump\t// in\n    tag_16:\n      stop\n        /* \"bootcampquiz.sol\":412:449  mapping (address => User) public data */\n    tag_7:\n      tag_18\n      0x04\n      dup1\n      calldatasize\n      sub\n      dup2\n      add\n      swap1\n      tag_19\n      swap2\n      swap1\n      tag_20\n      jump\t// in\n    tag_19:\n      tag_21\n      jump\t// in\n    tag_18:\n      mload(0x40)\n      tag_22\n      swap6\n      swap5\n      swap4\n      swap3\n      swap2\n      swap1\n      tag_23\n      jump\t// in\n    tag_22:\n      mload(0x40)\n      dup1\n      swap2\n      sub\n      swap1\n      return\n        /* \"bootcampquiz.sol\":1398:1620  function setData(string memory _name, string memory _des, uint _pass_id) public \r... */\n    tag_11:\n        /* \"bootcampquiz.sol\":1504:1510  booked */\n      0x00\n      dup1\n      sload\n      swap1\n      0x0100\n      exp\n      swap1\n      div\n      0xff\n      and\n        /* \"bootcampquiz.sol\":1503:1510  !booked */\n      iszero\n        /* \"bootcampquiz.sol\":1495:1543  require(!booked,\"please select the class first\") */\n      tag_25\n      jumpi\n      mload(0x40)\n      0x08c379a000000000000000000000000000000000000000000000000000000000\n      dup2\n      mstore\n      0x04\n      add\n      tag_26\n      swap1\n      tag_27\n      jump\t// in\n    tag_26:\n      mload(0x40)\n      dup1\n      swap2\n      sub\n      swap1\n      revert\n    tag_25:\n        /* \"bootcampquiz.sol\":1573:1612  User(_name,_des,_pass_id,realVal ,cost) */\n      mload(0x40)\n      dup1\n      0xa0\n      add\n      0x40\n      mstore\n      dup1\n        /* \"bootcampquiz.sol\":1578:1583  _name */\n      dup5\n        /* \"bootcampquiz.sol\":1573:1612  User(_name,_des,_pass_id,realVal ,cost) */\n      dup2\n      mstore\n      0x20\n      add\n        /* \"bootcampquiz.sol\":1584:1588  _des */\n      dup4\n        /* \"bootcampquiz.sol\":1573:1612  User(_name,_des,_pass_id,realVal ,cost) */\n      dup2\n      mstore\n      0x20\n      add\n        /* \"bootcampquiz.sol\":1589:1597  _pass_id */\n      dup3\n        /* \"bootcampquiz.sol\":1573:1612  User(_name,_des,_pass_id,realVal ,cost) */\n      dup2\n      mstore\n      0x20\n      add\n        /* \"bootcampquiz.sol\":1598:1605  realVal */\n      0x02\n        /* \"bootcampquiz.sol\":1573:1612  User(_name,_des,_pass_id,realVal ,cost) */\n      dup1\n      sload\n      tag_28\n      swap1\n      tag_29\n      jump\t// in\n    tag_28:\n      dup1\n      0x1f\n      add\n      0x20\n      dup1\n      swap2\n      div\n      mul\n      0x20\n      add\n      mload(0x40)\n      swap1\n      dup2\n      add\n      0x40\n      mstore\n      dup1\n      swap3\n      swap2\n      swap1\n      dup2\n      dup2\n      mstore\n      0x20\n      add\n      dup3\n      dup1\n      sload\n      tag_30\n      swap1\n      tag_29\n      jump\t// in\n    tag_30:\n      dup1\n      iszero\n      tag_31\n      jumpi\n      dup1\n      0x1f\n      lt\n      tag_32\n      jumpi\n      0x0100\n      dup1\n      dup4\n      sload\n      div\n      mul\n      dup4\n      mstore\n      swap2\n      0x20\n      add\n      swap2\n      jump(tag_31)\n    tag_32:\n      dup3\n      add\n      swap2\n      swap1\n      0x00\n      mstore\n      keccak256(0x00, 0x20)\n      swap1\n    tag_33:\n      dup2\n      sload\n      dup2\n      mstore\n      swap1\n      0x01\n      add\n      swap1\n      0x20\n      add\n      dup1\n      dup4\n      gt\n      tag_33\n      jumpi\n      dup3\n      swap1\n      sub\n      0x1f\n      and\n      dup3\n      add\n      swap2\n    tag_31:\n      pop\n      pop\n      pop\n      pop\n      pop\n      dup2\n      mstore\n      0x20\n      add\n        /* \"bootcampquiz.sol\":1607:1611  cost */\n      sload(0x03)\n        /* \"bootcampquiz.sol\":1573:1612  User(_name,_des,_pass_id,realVal ,cost) */\n      dup2\n      mstore\n      pop\n        /* \"bootcampquiz.sol\":1554:1558  data */\n      0x04\n        /* \"bootcampquiz.sol\":1554:1570  data[msg.sender] */\n      0x00\n        /* \"bootcampquiz.sol\":1559:1569  msg.sender */\n      caller\n        /* \"bootcampquiz.sol\":1554:1570  data[msg.sender] */\n      0xffffffffffffffffffffffffffffffffffffffff\n      and\n      0xffffffffffffffffffffffffffffffffffffffff\n      and\n      dup2\n      mstore\n      0x20\n      add\n      swap1\n      dup2\n      mstore\n      0x20\n      add\n      0x00\n      keccak256\n        /* \"bootcampquiz.sol\":1554:1612  data[msg.sender] = User(_name,_des,_pass_id,realVal ,cost) */\n      0x00\n      dup3\n      add\n      mload\n      dup2\n      0x00\n      add\n      swap1\n      dup1\n      mload\n      swap1\n      0x20\n      add\n      swap1\n      tag_34\n      swap3\n      swap2\n      swap1\n      tag_35\n      jump\t// in\n    tag_34:\n      pop\n      0x20\n      dup3\n      add\n      mload\n      dup2\n      0x01\n      add\n      swap1\n      dup1\n      mload\n      swap1\n      0x20\n      add\n      swap1\n      tag_36\n      swap3\n      swap2\n      swap1\n      tag_35\n      jump\t// in\n    tag_36:\n      pop\n      0x40\n      dup3\n      add\n      mload\n      dup2\n      0x02\n      add\n      sstore\n      0x60\n      dup3\n      add\n      mload\n      dup2\n      0x03\n      add\n      swap1\n      dup1\n      mload\n      swap1\n      0x20\n      add\n      swap1\n      tag_37\n      swap3\n      swap2\n      swap1\n      tag_35\n      jump\t// in\n    tag_37:\n      pop\n      0x80\n      dup3\n      add\n      mload\n      dup2\n      0x04\n      add\n      sstore\n      swap1\n      pop\n      pop\n        /* \"bootcampquiz.sol\":1398:1620  function setData(string memory _name, string memory _des, uint _pass_id) public \r... */\n      pop\n      pop\n      pop\n      jump\t// out\n        /* \"bootcampquiz.sol\":774:1076  function firstClass() public \r... */\n    tag_13:\n        /* \"bootcampquiz.sol\":887:908  classTypes.firstClass */\n      0x00\n        /* \"bootcampquiz.sol\":883:885  u1 */\n      dup1\n      0x01\n        /* \"bootcampquiz.sol\":883:908  u1= classTypes.firstClass */\n      0x0100\n      exp\n      dup2\n      sload\n      dup2\n      0xff\n      mul\n      not\n      and\n      swap1\n      dup4\n      0x02\n      dup2\n      gt\n      iszero\n      tag_39\n      jumpi\n      tag_40\n      tag_41\n      jump\t// in\n    tag_40:\n    tag_39:\n      mul\n      or\n      swap1\n      sstore\n      pop\n        /* \"bootcampquiz.sol\":934:936  u1 */\n      0x00\n      0x01\n      swap1\n      sload\n      swap1\n      0x0100\n      exp\n      swap1\n      div\n      0xff\n      and\n        /* \"bootcampquiz.sol\":929:937  uint(u1) */\n      0x02\n      dup2\n      gt\n      iszero\n      tag_42\n      jumpi\n      tag_43\n      tag_41\n      jump\t// in\n    tag_43:\n    tag_42:\n        /* \"bootcampquiz.sol\":919:926  convert */\n      0x01\n        /* \"bootcampquiz.sol\":919:937  convert = uint(u1) */\n      dup2\n      swap1\n      sstore\n      pop\n        /* \"bootcampquiz.sol\":960:961  0 */\n      0x00\n        /* \"bootcampquiz.sol\":951:958  convert */\n      sload(0x01)\n        /* \"bootcampquiz.sol\":951:961  convert==0 */\n      eq\n        /* \"bootcampquiz.sol\":948:1045  if(convert==0)\r... */\n      iszero\n      tag_44\n      jumpi\n        /* \"bootcampquiz.sol\":987:1010  realVal = \"First Class\" */\n      mload(0x40)\n      dup1\n      0x40\n      add\n      0x40\n      mstore\n      dup1\n      0x0b\n      dup2\n      mstore\n      0x20\n      add\n      0x466972737420436c617373000000000000000000000000000000000000000000\n      dup2\n      mstore\n      pop\n        /* \"bootcampquiz.sol\":987:994  realVal */\n      0x02\n        /* \"bootcampquiz.sol\":987:1010  realVal = \"First Class\" */\n      swap1\n      dup1\n      mload\n      swap1\n      0x20\n      add\n      swap1\n      tag_45\n      swap3\n      swap2\n      swap1\n      tag_35\n      jump\t// in\n    tag_45:\n      pop\n        /* \"bootcampquiz.sol\":1032:1033  2 */\n      0x02\n        /* \"bootcampquiz.sol\":1025:1029  cost */\n      0x03\n        /* \"bootcampquiz.sol\":1025:1033  cost = 2 */\n      dup2\n      swap1\n      sstore\n      pop\n        /* \"bootcampquiz.sol\":948:1045  if(convert==0)\r... */\n    tag_44:\n        /* \"bootcampquiz.sol\":1064:1068  true */\n      0x01\n        /* \"bootcampquiz.sol\":1055:1061  booked */\n      0x00\n      dup1\n        /* \"bootcampquiz.sol\":1055:1068  booked = true */\n      0x0100\n      exp\n      dup2\n      sload\n      dup2\n      0xff\n      mul\n      not\n      and\n      swap1\n      dup4\n      iszero\n      iszero\n      mul\n      or\n      swap1\n      sstore\n      pop\n        /* \"bootcampquiz.sol\":774:1076  function firstClass() public \r... */\n      jump\t// out\n        /* \"bootcampquiz.sol\":456:764  function economyClass() public \r... */\n    tag_15:\n        /* \"bootcampquiz.sol\":571:594  classTypes.economyClass */\n      0x01\n        /* \"bootcampquiz.sol\":567:569  u1 */\n      0x00\n      0x01\n        /* \"bootcampquiz.sol\":567:594  u1= classTypes.economyClass */\n      0x0100\n      exp\n      dup2\n      sload\n      dup2\n      0xff\n      mul\n      not\n      and\n      swap1\n      dup4\n      0x02\n      dup2\n      gt\n      iszero\n      tag_47\n      jumpi\n      tag_48\n      tag_41\n      jump\t// in\n    tag_48:\n    tag_47:\n      mul\n      or\n      swap1\n      sstore\n      pop\n        /* \"bootcampquiz.sol\":620:622  u1 */\n      0x00\n      0x01\n      swap1\n      sload\n      swap1\n      0x0100\n      exp\n      swap1\n      div\n      0xff\n      and\n        /* \"bootcampquiz.sol\":615:623  uint(u1) */\n      0x02\n      dup2\n      gt\n      iszero\n      tag_49\n      jumpi\n      tag_50\n      tag_41\n      jump\t// in\n    tag_50:\n    tag_49:\n        /* \"bootcampquiz.sol\":605:612  convert */\n      0x01\n        /* \"bootcampquiz.sol\":605:623  convert = uint(u1) */\n      dup2\n      swap1\n      sstore\n      pop\n        /* \"bootcampquiz.sol\":646:647  1 */\n      0x01\n        /* \"bootcampquiz.sol\":637:644  convert */\n      dup1\n      sload\n        /* \"bootcampquiz.sol\":637:647  convert==1 */\n      eq\n        /* \"bootcampquiz.sol\":634:733  if(convert==1)\r... */\n      iszero\n      tag_51\n      jumpi\n        /* \"bootcampquiz.sol\":673:698  realVal = \"Economy Class\" */\n      mload(0x40)\n      dup1\n      0x40\n      add\n      0x40\n      mstore\n      dup1\n      0x0d\n      dup2\n      mstore\n      0x20\n      add\n      0x45636f6e6f6d7920436c61737300000000000000000000000000000000000000\n      dup2\n      mstore\n      pop\n        /* \"bootcampquiz.sol\":673:680  realVal */\n      0x02\n        /* \"bootcampquiz.sol\":673:698  realVal = \"Economy Class\" */\n      swap1\n      dup1\n      mload\n      swap1\n      0x20\n      add\n      swap1\n      tag_52\n      swap3\n      swap2\n      swap1\n      tag_35\n      jump\t// in\n    tag_52:\n      pop\n        /* \"bootcampquiz.sol\":720:721  1 */\n      0x01\n        /* \"bootcampquiz.sol\":713:717  cost */\n      0x03\n        /* \"bootcampquiz.sol\":713:721  cost = 1 */\n      dup2\n      swap1\n      sstore\n      pop\n        /* \"bootcampquiz.sol\":634:733  if(convert==1)\r... */\n    tag_51:\n        /* \"bootcampquiz.sol\":752:756  true */\n      0x01\n        /* \"bootcampquiz.sol\":743:749  booked */\n      0x00\n      dup1\n        /* \"bootcampquiz.sol\":743:756  booked = true */\n      0x0100\n      exp\n      dup2\n      sload\n      dup2\n      0xff\n      mul\n      not\n      and\n      swap1\n      dup4\n      iszero\n      iszero\n      mul\n      or\n      swap1\n      sstore\n      pop\n        /* \"bootcampquiz.sol\":456:764  function economyClass() public \r... */\n      jump\t// out\n        /* \"bootcampquiz.sol\":1084:1386  function busnissClass() public {\r... */\n    tag_17:\n        /* \"bootcampquiz.sol\":1193:1216  classTypes.busnissClass */\n      0x02\n        /* \"bootcampquiz.sol\":1189:1191  u1 */\n      0x00\n      0x01\n        /* \"bootcampquiz.sol\":1189:1216  u1= classTypes.busnissClass */\n      0x0100\n      exp\n      dup2\n      sload\n      dup2\n      0xff\n      mul\n      not\n      and\n      swap1\n      dup4\n      0x02\n      dup2\n      gt\n      iszero\n      tag_54\n      jumpi\n      tag_55\n      tag_41\n      jump\t// in\n    tag_55:\n    tag_54:\n      mul\n      or\n      swap1\n      sstore\n      pop\n        /* \"bootcampquiz.sol\":1242:1244  u1 */\n      0x00\n      0x01\n      swap1\n      sload\n      swap1\n      0x0100\n      exp\n      swap1\n      div\n      0xff\n      and\n        /* \"bootcampquiz.sol\":1237:1245  uint(u1) */\n      0x02\n      dup2\n      gt\n      iszero\n      tag_56\n      jumpi\n      tag_57\n      tag_41\n      jump\t// in\n    tag_57:\n    tag_56:\n        /* \"bootcampquiz.sol\":1227:1234  convert */\n      0x01\n        /* \"bootcampquiz.sol\":1227:1245  convert = uint(u1) */\n      dup2\n      swap1\n      sstore\n      pop\n        /* \"bootcampquiz.sol\":1268:1269  2 */\n      0x02\n        /* \"bootcampquiz.sol\":1259:1266  convert */\n      sload(0x01)\n        /* \"bootcampquiz.sol\":1259:1269  convert==2 */\n      eq\n        /* \"bootcampquiz.sol\":1256:1355  if(convert==2)\r... */\n      iszero\n      tag_58\n      jumpi\n        /* \"bootcampquiz.sol\":1295:1320  realVal = \"Busniss Class\" */\n      mload(0x40)\n      dup1\n      0x40\n      add\n      0x40\n      mstore\n      dup1\n      0x0d\n      dup2\n      mstore\n      0x20\n      add\n      0x4275736e69737320436c61737300000000000000000000000000000000000000\n      dup2\n      mstore\n      pop\n        /* \"bootcampquiz.sol\":1295:1302  realVal */\n      0x02\n        /* \"bootcampquiz.sol\":1295:1320  realVal = \"Busniss Class\" */\n      swap1\n      dup1\n      mload\n      swap1\n      0x20\n      add\n      swap1\n      tag_59\n      swap3\n      swap2\n      swap1\n      tag_35\n      jump\t// in\n    tag_59:\n      pop\n        /* \"bootcampquiz.sol\":1342:1343  3 */\n      0x03\n        /* \"bootcampquiz.sol\":1335:1339  cost */\n      dup1\n        /* \"bootcampquiz.sol\":1335:1343  cost = 3 */\n      dup2\n      swap1\n      sstore\n      pop\n        /* \"bootcampquiz.sol\":1256:1355  if(convert==2)\r... */\n    tag_58:\n        /* \"bootcampquiz.sol\":1374:1378  true */\n      0x01\n        /* \"bootcampquiz.sol\":1365:1371  booked */\n      0x00\n      dup1\n        /* \"bootcampquiz.sol\":1365:1378  booked = true */\n      0x0100\n      exp\n      dup2\n      sload\n      dup2\n      0xff\n      mul\n      not\n      and\n      swap1\n      dup4\n      iszero\n      iszero\n      mul\n      or\n      swap1\n      sstore\n      pop\n        /* \"bootcampquiz.sol\":1084:1386  function busnissClass() public {\r... */\n      jump\t// out\n        /* \"bootcampquiz.sol\":412:449  mapping (address => User) public data */\n    tag_21:\n      mstore(0x20, 0x04)\n      dup1\n      0x00\n      mstore\n      keccak256(0x00, 0x40)\n      0x00\n      swap2\n      pop\n      swap1\n      pop\n      dup1\n      0x00\n      add\n      dup1\n      sload\n      tag_60\n      swap1\n      tag_29\n      jump\t// in\n    tag_60:\n      dup1\n      0x1f\n      add\n      0x20\n      dup1\n      swap2\n      div\n      mul\n      0x20\n      add\n      mload(0x40)\n      swap1\n      dup2\n      add\n      0x40\n      mstore\n      dup1\n      swap3\n      swap2\n      swap1\n      dup2\n      dup2\n      mstore\n      0x20\n      add\n      dup3\n      dup1\n      sload\n      tag_61\n      swap1\n      tag_29\n      jump\t// in\n    tag_61:\n      dup1\n      iszero\n      tag_62\n      jumpi\n      dup1\n      0x1f\n      lt\n      tag_63\n      jumpi\n      0x0100\n      dup1\n      dup4\n      sload\n      div\n      mul\n      dup4\n      mstore\n      swap2\n      0x20\n      add\n      swap2\n      jump(tag_62)\n    tag_63:\n      dup3\n      add\n      swap2\n      swap1\n      0x00\n      mstore\n      keccak256(0x00, 0x20)\n      swap1\n    tag_64:\n      dup2\n      sload\n      dup2\n      mstore\n      swap1\n      0x01\n      add\n      swap1\n      0x20\n      add\n      dup1\n      dup4\n      gt\n      tag_64\n      jumpi\n      dup3\n      swap1\n      sub\n      0x1f\n      and\n      dup3\n      add\n      swap2\n    tag_62:\n      pop\n      pop\n      pop\n      pop\n      pop\n      swap1\n      dup1\n      0x01\n      add\n      dup1\n      sload\n      tag_65\n      swap1\n      tag_29\n      jump\t// in\n    tag_65:\n      dup1\n      0x1f\n      add\n      0x20\n      dup1\n      swap2\n      div\n      mul\n      0x20\n      add\n      mload(0x40)\n      swap1\n      dup2\n      add\n      0x40\n      mstore\n      dup1\n      swap3\n      swap2\n      swap1\n      dup2\n      dup2\n      mstore\n      0x20\n      add\n      dup3\n      dup1\n      sload\n      tag_66\n      swap1\n      tag_29\n      jump\t// in\n    tag_66:\n      dup1\n      iszero\n      tag_67\n      jumpi\n      dup1\n      0x1f\n      lt\n      tag_68\n      jumpi\n      0x0100\n      dup1\n      dup4\n      sload\n      div\n      mul\n      dup4\n      mstore\n      swap2\n      0x20\n      add\n      swap2\n      jump(tag_67)\n    tag_68:\n      dup3\n      add\n      swap2\n      swap1\n      0x00\n      mstore\n      keccak256(0x00, 0x20)\n      swap1\n    tag_69:\n      dup2\n      sload\n      dup2\n      mstore\n      swap1\n      0x01\n      add\n      swap1\n      0x20\n      add\n      dup1\n      dup4\n      gt\n      tag_69\n      jumpi\n      dup3\n      swap1\n      sub\n      0x1f\n      and\n      dup3\n      add\n      swap2\n    tag_67:\n      pop\n      pop\n      pop\n      pop\n      pop\n      swap1\n      dup1\n      0x02\n      add\n      sload\n      swap1\n      dup1\n      0x03\n      add\n      dup1\n      sload\n      tag_70\n      swap1\n      tag_29\n      jump\t// in\n    tag_70:\n      dup1\n      0x1f\n      add\n      0x20\n      dup1\n      swap2\n      div\n      mul\n      0x20\n      add\n      mload(0x40)\n      swap1\n      dup2\n      add\n      0x40\n      mstore\n      dup1\n      swap3\n      swap2\n      swap1\n      dup2\n      dup2\n      mstore\n      0x20\n      add\n      dup3\n      dup1\n      sload\n      tag_71\n      swap1\n      tag_29\n      jump\t// in\n    tag_71:\n      dup1\n      iszero\n      tag_72\n      jumpi\n      dup1\n      0x1f\n      lt\n      tag_73\n      jumpi\n      0x0100\n      dup1\n      dup4\n      sload\n      div\n      mul\n      dup4\n      mstore\n      swap2\n      0x20\n      add\n      swap2\n      jump(tag_72)\n    tag_73:\n      dup3\n      add\n      swap2\n      swap1\n      0x00\n      mstore\n      keccak256(0x00, 0x20)\n      swap1\n    tag_74:\n      dup2\n      sload\n      dup2\n      mstore\n      swap1\n      0x01\n      add\n      swap1\n      0x20\n      add\n      dup1\n      dup4\n      gt\n      tag_74\n      jumpi\n      dup3\n      swap1\n      sub\n      0x1f\n      and\n      dup3\n      add\n      swap2\n    tag_72:\n      pop\n      pop\n      pop\n      pop\n      pop\n      swap1\n      dup1\n      0x04\n      add\n      sload\n      swap1\n      pop\n      dup6\n      jump\t// out\n    tag_35:\n      dup3\n      dup1\n      sload\n      tag_75\n      swap1\n      tag_29\n      jump\t// in\n    tag_75:\n      swap1\n      0x00\n      mstore\n      keccak256(0x00, 0x20)\n      swap1\n      0x1f\n      add\n      0x20\n      swap1\n      div\n      dup2\n      add\n      swap3\n      dup3\n      tag_77\n      jumpi\n      0x00\n      dup6\n      sstore\n      jump(tag_76)\n    tag_77:\n      dup3\n      0x1f\n      lt\n      tag_78\n      jumpi\n      dup1\n      mload\n      not(0xff)\n      and\n      dup4\n      dup1\n      add\n      or\n      dup6\n      sstore\n      jump(tag_76)\n    tag_78:\n      dup3\n      dup1\n      add\n      0x01\n      add\n      dup6\n      sstore\n      dup3\n      iszero\n      tag_76\n      jumpi\n      swap2\n      dup3\n      add\n    tag_79:\n      dup3\n      dup2\n      gt\n      iszero\n      tag_80\n      jumpi\n      dup3\n      mload\n      dup3\n      sstore\n      swap2\n      0x20\n      add\n      swap2\n      swap1\n      0x01\n      add\n      swap1\n      jump(tag_79)\n    tag_80:\n    tag_76:\n      pop\n      swap1\n      pop\n      tag_81\n      swap2\n      swap1\n      tag_82\n      jump\t// in\n    tag_81:\n      pop\n      swap1\n      jump\t// out\n    tag_82:\n    tag_83:\n      dup1\n      dup3\n      gt\n      iszero\n      tag_84\n      jumpi\n      0x00\n      dup2\n      0x00\n      swap1\n      sstore\n      pop\n      0x01\n      add\n      jump(tag_83)\n    tag_84:\n      pop\n      swap1\n      jump\t// out\n        /* \"#utility.yul\":7:419   */\n    tag_86:\n        /* \"#utility.yul\":85:90   */\n      0x00\n        /* \"#utility.yul\":110:176   */\n      tag_88\n        /* \"#utility.yul\":126:175   */\n      tag_89\n        /* \"#utility.yul\":168:174   */\n      dup5\n        /* \"#utility.yul\":126:175   */\n      tag_90\n      jump\t// in\n    tag_89:\n        /* \"#utility.yul\":110:176   */\n      tag_91\n      jump\t// in\n    tag_88:\n        /* \"#utility.yul\":101:176   */\n      swap1\n      pop\n        /* \"#utility.yul\":199:205   */\n      dup3\n        /* \"#utility.yul\":192:197   */\n      dup2\n        /* \"#utility.yul\":185:206   */\n      mstore\n        /* \"#utility.yul\":237:241   */\n      0x20\n        /* \"#utility.yul\":230:235   */\n      dup2\n        /* \"#utility.yul\":226:242   */\n      add\n        /* \"#utility.yul\":275:278   */\n      dup5\n        /* \"#utility.yul\":266:272   */\n      dup5\n        /* \"#utility.yul\":261:264   */\n      dup5\n        /* \"#utility.yul\":257:273   */\n      add\n        /* \"#utility.yul\":254:279   */\n      gt\n        /* \"#utility.yul\":251:363   */\n      iszero\n      tag_92\n      jumpi\n        /* \"#utility.yul\":282:361   */\n      tag_93\n      tag_94\n      jump\t// in\n    tag_93:\n        /* \"#utility.yul\":251:363   */\n    tag_92:\n        /* \"#utility.yul\":372:413   */\n      tag_95\n        /* \"#utility.yul\":406:412   */\n      dup5\n        /* \"#utility.yul\":401:404   */\n      dup3\n        /* \"#utility.yul\":396:399   */\n      dup6\n        /* \"#utility.yul\":372:413   */\n      tag_96\n      jump\t// in\n    tag_95:\n        /* \"#utility.yul\":91:419   */\n      pop\n        /* \"#utility.yul\":7:419   */\n      swap4\n      swap3\n      pop\n      pop\n      pop\n      jump\t// out\n        /* \"#utility.yul\":425:564   */\n    tag_97:\n        /* \"#utility.yul\":471:476   */\n      0x00\n        /* \"#utility.yul\":509:515   */\n      dup2\n        /* \"#utility.yul\":496:516   */\n      calldataload\n        /* \"#utility.yul\":487:516   */\n      swap1\n      pop\n        /* \"#utility.yul\":525:558   */\n      tag_99\n        /* \"#utility.yul\":552:557   */\n      dup2\n        /* \"#utility.yul\":525:558   */\n      tag_100\n      jump\t// in\n    tag_99:\n        /* \"#utility.yul\":425:564   */\n      swap3\n      swap2\n      pop\n      pop\n      jump\t// out\n        /* \"#utility.yul\":584:924   */\n    tag_101:\n        /* \"#utility.yul\":640:645   */\n      0x00\n        /* \"#utility.yul\":689:692   */\n      dup3\n        /* \"#utility.yul\":682:686   */\n      0x1f\n        /* \"#utility.yul\":674:680   */\n      dup4\n        /* \"#utility.yul\":670:687   */\n      add\n        /* \"#utility.yul\":666:693   */\n      slt\n        /* \"#utility.yul\":656:778   */\n      tag_103\n      jumpi\n        /* \"#utility.yul\":697:776   */\n      tag_104\n      tag_105\n      jump\t// in\n    tag_104:\n        /* \"#utility.yul\":656:778   */\n    tag_103:\n        /* \"#utility.yul\":814:820   */\n      dup2\n        /* \"#utility.yul\":801:821   */\n      calldataload\n        /* \"#utility.yul\":839:918   */\n      tag_106\n        /* \"#utility.yul\":914:917   */\n      dup5\n        /* \"#utility.yul\":906:912   */\n      dup3\n        /* \"#utility.yul\":899:903   */\n      0x20\n        /* \"#utility.yul\":891:897   */\n      dup7\n        /* \"#utility.yul\":887:904   */\n      add\n        /* \"#utility.yul\":839:918   */\n      tag_86\n      jump\t// in\n    tag_106:\n        /* \"#utility.yul\":830:918   */\n      swap2\n      pop\n        /* \"#utility.yul\":646:924   */\n      pop\n        /* \"#utility.yul\":584:924   */\n      swap3\n      swap2\n      pop\n      pop\n      jump\t// out\n        /* \"#utility.yul\":930:1069   */\n    tag_107:\n        /* \"#utility.yul\":976:981   */\n      0x00\n        /* \"#utility.yul\":1014:1020   */\n      dup2\n        /* \"#utility.yul\":1001:1021   */\n      calldataload\n        /* \"#utility.yul\":992:1021   */\n      swap1\n      pop\n        /* \"#utility.yul\":1030:1063   */\n      tag_109\n        /* \"#utility.yul\":1057:1062   */\n      dup2\n        /* \"#utility.yul\":1030:1063   */\n      tag_110\n      jump\t// in\n    tag_109:\n        /* \"#utility.yul\":930:1069   */\n      swap3\n      swap2\n      pop\n      pop\n      jump\t// out\n        /* \"#utility.yul\":1075:1404   */\n    tag_20:\n        /* \"#utility.yul\":1134:1140   */\n      0x00\n        /* \"#utility.yul\":1183:1185   */\n      0x20\n        /* \"#utility.yul\":1171:1180   */\n      dup3\n        /* \"#utility.yul\":1162:1169   */\n      dup5\n        /* \"#utility.yul\":1158:1181   */\n      sub\n        /* \"#utility.yul\":1154:1186   */\n      slt\n        /* \"#utility.yul\":1151:1270   */\n      iszero\n      tag_112\n      jumpi\n        /* \"#utility.yul\":1189:1268   */\n      tag_113\n      tag_114\n      jump\t// in\n    tag_113:\n        /* \"#utility.yul\":1151:1270   */\n    tag_112:\n        /* \"#utility.yul\":1309:1310   */\n      0x00\n        /* \"#utility.yul\":1334:1387   */\n      tag_115\n        /* \"#utility.yul\":1379:1386   */\n      dup5\n        /* \"#utility.yul\":1370:1376   */\n      dup3\n        /* \"#utility.yul\":1359:1368   */\n      dup6\n        /* \"#utility.yul\":1355:1377   */\n      add\n        /* \"#utility.yul\":1334:1387   */\n      tag_97\n      jump\t// in\n    tag_115:\n        /* \"#utility.yul\":1324:1387   */\n      swap2\n      pop\n        /* \"#utility.yul\":1280:1397   */\n      pop\n        /* \"#utility.yul\":1075:1404   */\n      swap3\n      swap2\n      pop\n      pop\n      jump\t// out\n        /* \"#utility.yul\":1410:2389   */\n    tag_10:\n        /* \"#utility.yul\":1507:1513   */\n      0x00\n        /* \"#utility.yul\":1515:1521   */\n      dup1\n        /* \"#utility.yul\":1523:1529   */\n      0x00\n        /* \"#utility.yul\":1572:1574   */\n      0x60\n        /* \"#utility.yul\":1560:1569   */\n      dup5\n        /* \"#utility.yul\":1551:1558   */\n      dup7\n        /* \"#utility.yul\":1547:1570   */\n      sub\n        /* \"#utility.yul\":1543:1575   */\n      slt\n        /* \"#utility.yul\":1540:1659   */\n      iszero\n      tag_117\n      jumpi\n        /* \"#utility.yul\":1578:1657   */\n      tag_118\n      tag_114\n      jump\t// in\n    tag_118:\n        /* \"#utility.yul\":1540:1659   */\n    tag_117:\n        /* \"#utility.yul\":1726:1727   */\n      0x00\n        /* \"#utility.yul\":1715:1724   */\n      dup5\n        /* \"#utility.yul\":1711:1728   */\n      add\n        /* \"#utility.yul\":1698:1729   */\n      calldataload\n        /* \"#utility.yul\":1756:1774   */\n      0xffffffffffffffff\n        /* \"#utility.yul\":1748:1754   */\n      dup2\n        /* \"#utility.yul\":1745:1775   */\n      gt\n        /* \"#utility.yul\":1742:1859   */\n      iszero\n      tag_119\n      jumpi\n        /* \"#utility.yul\":1778:1857   */\n      tag_120\n      tag_121\n      jump\t// in\n    tag_120:\n        /* \"#utility.yul\":1742:1859   */\n    tag_119:\n        /* \"#utility.yul\":1883:1946   */\n      tag_122\n        /* \"#utility.yul\":1938:1945   */\n      dup7\n        /* \"#utility.yul\":1929:1935   */\n      dup3\n        /* \"#utility.yul\":1918:1927   */\n      dup8\n        /* \"#utility.yul\":1914:1936   */\n      add\n        /* \"#utility.yul\":1883:1946   */\n      tag_101\n      jump\t// in\n    tag_122:\n        /* \"#utility.yul\":1873:1946   */\n      swap4\n      pop\n        /* \"#utility.yul\":1669:1956   */\n      pop\n        /* \"#utility.yul\":2023:2025   */\n      0x20\n        /* \"#utility.yul\":2012:2021   */\n      dup5\n        /* \"#utility.yul\":2008:2026   */\n      add\n        /* \"#utility.yul\":1995:2027   */\n      calldataload\n        /* \"#utility.yul\":2054:2072   */\n      0xffffffffffffffff\n        /* \"#utility.yul\":2046:2052   */\n      dup2\n        /* \"#utility.yul\":2043:2073   */\n      gt\n        /* \"#utility.yul\":2040:2157   */\n      iszero\n      tag_123\n      jumpi\n        /* \"#utility.yul\":2076:2155   */\n      tag_124\n      tag_121\n      jump\t// in\n    tag_124:\n        /* \"#utility.yul\":2040:2157   */\n    tag_123:\n        /* \"#utility.yul\":2181:2244   */\n      tag_125\n        /* \"#utility.yul\":2236:2243   */\n      dup7\n        /* \"#utility.yul\":2227:2233   */\n      dup3\n        /* \"#utility.yul\":2216:2225   */\n      dup8\n        /* \"#utility.yul\":2212:2234   */\n      add\n        /* \"#utility.yul\":2181:2244   */\n      tag_101\n      jump\t// in\n    tag_125:\n        /* \"#utility.yul\":2171:2244   */\n      swap3\n      pop\n        /* \"#utility.yul\":1966:2254   */\n      pop\n        /* \"#utility.yul\":2293:2295   */\n      0x40\n        /* \"#utility.yul\":2319:2372   */\n      tag_126\n        /* \"#utility.yul\":2364:2371   */\n      dup7\n        /* \"#utility.yul\":2355:2361   */\n      dup3\n        /* \"#utility.yul\":2344:2353   */\n      dup8\n        /* \"#utility.yul\":2340:2362   */\n      add\n        /* \"#utility.yul\":2319:2372   */\n      tag_107\n      jump\t// in\n    tag_126:\n        /* \"#utility.yul\":2309:2372   */\n      swap2\n      pop\n        /* \"#utility.yul\":2264:2382   */\n      pop\n        /* \"#utility.yul\":1410:2389   */\n      swap3\n      pop\n      swap3\n      pop\n      swap3\n      jump\t// out\n        /* \"#utility.yul\":2395:2759   */\n    tag_127:\n        /* \"#utility.yul\":2483:2486   */\n      0x00\n        /* \"#utility.yul\":2511:2550   */\n      tag_129\n        /* \"#utility.yul\":2544:2549   */\n      dup3\n        /* \"#utility.yul\":2511:2550   */\n      tag_130\n      jump\t// in\n    tag_129:\n        /* \"#utility.yul\":2566:2637   */\n      tag_131\n        /* \"#utility.yul\":2630:2636   */\n      dup2\n        /* \"#utility.yul\":2625:2628   */\n      dup6\n        /* \"#utility.yul\":2566:2637   */\n      tag_132\n      jump\t// in\n    tag_131:\n        /* \"#utility.yul\":2559:2637   */\n      swap4\n      pop\n        /* \"#utility.yul\":2646:2698   */\n      tag_133\n        /* \"#utility.yul\":2691:2697   */\n      dup2\n        /* \"#utility.yul\":2686:2689   */\n      dup6\n        /* \"#utility.yul\":2679:2683   */\n      0x20\n        /* \"#utility.yul\":2672:2677   */\n      dup7\n        /* \"#utility.yul\":2668:2684   */\n      add\n        /* \"#utility.yul\":2646:2698   */\n      tag_134\n      jump\t// in\n    tag_133:\n        /* \"#utility.yul\":2723:2752   */\n      tag_135\n        /* \"#utility.yul\":2745:2751   */\n      dup2\n        /* \"#utility.yul\":2723:2752   */\n      tag_136\n      jump\t// in\n    tag_135:\n        /* \"#utility.yul\":2718:2721   */\n      dup5\n        /* \"#utility.yul\":2714:2753   */\n      add\n        /* \"#utility.yul\":2707:2753   */\n      swap2\n      pop\n        /* \"#utility.yul\":2487:2759   */\n      pop\n        /* \"#utility.yul\":2395:2759   */\n      swap3\n      swap2\n      pop\n      pop\n      jump\t// out\n        /* \"#utility.yul\":2765:3131   */\n    tag_137:\n        /* \"#utility.yul\":2907:2910   */\n      0x00\n        /* \"#utility.yul\":2928:2995   */\n      tag_139\n        /* \"#utility.yul\":2992:2994   */\n      0x1d\n        /* \"#utility.yul\":2987:2990   */\n      dup4\n        /* \"#utility.yul\":2928:2995   */\n      tag_132\n      jump\t// in\n    tag_139:\n        /* \"#utility.yul\":2921:2995   */\n      swap2\n      pop\n        /* \"#utility.yul\":3004:3097   */\n      tag_140\n        /* \"#utility.yul\":3093:3096   */\n      dup3\n        /* \"#utility.yul\":3004:3097   */\n      tag_141\n      jump\t// in\n    tag_140:\n        /* \"#utility.yul\":3122:3124   */\n      0x20\n        /* \"#utility.yul\":3117:3120   */\n      dup3\n        /* \"#utility.yul\":3113:3125   */\n      add\n        /* \"#utility.yul\":3106:3125   */\n      swap1\n      pop\n        /* \"#utility.yul\":2765:3131   */\n      swap2\n      swap1\n      pop\n      jump\t// out\n        /* \"#utility.yul\":3137:3255   */\n    tag_142:\n        /* \"#utility.yul\":3224:3248   */\n      tag_144\n        /* \"#utility.yul\":3242:3247   */\n      dup2\n        /* \"#utility.yul\":3224:3248   */\n      tag_145\n      jump\t// in\n    tag_144:\n        /* \"#utility.yul\":3219:3222   */\n      dup3\n        /* \"#utility.yul\":3212:3249   */\n      mstore\n        /* \"#utility.yul\":3137:3255   */\n      pop\n      pop\n      jump\t// out\n        /* \"#utility.yul\":3261:4198   */\n    tag_23:\n        /* \"#utility.yul\":3526:3530   */\n      0x00\n        /* \"#utility.yul\":3564:3567   */\n      0xa0\n        /* \"#utility.yul\":3553:3562   */\n      dup3\n        /* \"#utility.yul\":3549:3568   */\n      add\n        /* \"#utility.yul\":3541:3568   */\n      swap1\n      pop\n        /* \"#utility.yul\":3614:3623   */\n      dup2\n        /* \"#utility.yul\":3608:3612   */\n      dup2\n        /* \"#utility.yul\":3604:3624   */\n      sub\n        /* \"#utility.yul\":3600:3601   */\n      0x00\n        /* \"#utility.yul\":3589:3598   */\n      dup4\n        /* \"#utility.yul\":3585:3602   */\n      add\n        /* \"#utility.yul\":3578:3625   */\n      mstore\n        /* \"#utility.yul\":3642:3720   */\n      tag_147\n        /* \"#utility.yul\":3715:3719   */\n      dup2\n        /* \"#utility.yul\":3706:3712   */\n      dup9\n        /* \"#utility.yul\":3642:3720   */\n      tag_127\n      jump\t// in\n    tag_147:\n        /* \"#utility.yul\":3634:3720   */\n      swap1\n      pop\n        /* \"#utility.yul\":3767:3776   */\n      dup2\n        /* \"#utility.yul\":3761:3765   */\n      dup2\n        /* \"#utility.yul\":3757:3777   */\n      sub\n        /* \"#utility.yul\":3752:3754   */\n      0x20\n        /* \"#utility.yul\":3741:3750   */\n      dup4\n        /* \"#utility.yul\":3737:3755   */\n      add\n        /* \"#utility.yul\":3730:3778   */\n      mstore\n        /* \"#utility.yul\":3795:3873   */\n      tag_148\n        /* \"#utility.yul\":3868:3872   */\n      dup2\n        /* \"#utility.yul\":3859:3865   */\n      dup8\n        /* \"#utility.yul\":3795:3873   */\n      tag_127\n      jump\t// in\n    tag_148:\n        /* \"#utility.yul\":3787:3873   */\n      swap1\n      pop\n        /* \"#utility.yul\":3883:3955   */\n      tag_149\n        /* \"#utility.yul\":3951:3953   */\n      0x40\n        /* \"#utility.yul\":3940:3949   */\n      dup4\n        /* \"#utility.yul\":3936:3954   */\n      add\n        /* \"#utility.yul\":3927:3933   */\n      dup7\n        /* \"#utility.yul\":3883:3955   */\n      tag_142\n      jump\t// in\n    tag_149:\n        /* \"#utility.yul\":4002:4011   */\n      dup2\n        /* \"#utility.yul\":3996:4000   */\n      dup2\n        /* \"#utility.yul\":3992:4012   */\n      sub\n        /* \"#utility.yul\":3987:3989   */\n      0x60\n        /* \"#utility.yul\":3976:3985   */\n      dup4\n        /* \"#utility.yul\":3972:3990   */\n      add\n        /* \"#utility.yul\":3965:4013   */\n      mstore\n        /* \"#utility.yul\":4030:4108   */\n      tag_150\n        /* \"#utility.yul\":4103:4107   */\n      dup2\n        /* \"#utility.yul\":4094:4100   */\n      dup6\n        /* \"#utility.yul\":4030:4108   */\n      tag_127\n      jump\t// in\n    tag_150:\n        /* \"#utility.yul\":4022:4108   */\n      swap1\n      pop\n        /* \"#utility.yul\":4118:4191   */\n      tag_151\n        /* \"#utility.yul\":4186:4189   */\n      0x80\n        /* \"#utility.yul\":4175:4184   */\n      dup4\n        /* \"#utility.yul\":4171:4190   */\n      add\n        /* \"#utility.yul\":4162:4168   */\n      dup5\n        /* \"#utility.yul\":4118:4191   */\n      tag_142\n      jump\t// in\n    tag_151:\n        /* \"#utility.yul\":3261:4198   */\n      swap7\n      swap6\n      pop\n      pop\n      pop\n      pop\n      pop\n      pop\n      jump\t// out\n        /* \"#utility.yul\":4204:4623   */\n    tag_27:\n        /* \"#utility.yul\":4370:4374   */\n      0x00\n        /* \"#utility.yul\":4408:4410   */\n      0x20\n        /* \"#utility.yul\":4397:4406   */\n      dup3\n        /* \"#utility.yul\":4393:4411   */\n      add\n        /* \"#utility.yul\":4385:4411   */\n      swap1\n      pop\n        /* \"#utility.yul\":4457:4466   */\n      dup2\n        /* \"#utility.yul\":4451:4455   */\n      dup2\n        /* \"#utility.yul\":4447:4467   */\n      sub\n        /* \"#utility.yul\":4443:4444   */\n      0x00\n        /* \"#utility.yul\":4432:4441   */\n      dup4\n        /* \"#utility.yul\":4428:4445   */\n      add\n        /* \"#utility.yul\":4421:4468   */\n      mstore\n        /* \"#utility.yul\":4485:4616   */\n      tag_153\n        /* \"#utility.yul\":4611:4615   */\n      dup2\n        /* \"#utility.yul\":4485:4616   */\n      tag_137\n      jump\t// in\n    tag_153:\n        /* \"#utility.yul\":4477:4616   */\n      swap1\n      pop\n        /* \"#utility.yul\":4204:4623   */\n      swap2\n      swap1\n      pop\n      jump\t// out\n        /* \"#utility.yul\":4629:4758   */\n    tag_91:\n        /* \"#utility.yul\":4663:4669   */\n      0x00\n        /* \"#utility.yul\":4690:4710   */\n      tag_155\n      tag_156\n      jump\t// in\n    tag_155:\n        /* \"#utility.yul\":4680:4710   */\n      swap1\n      pop\n        /* \"#utility.yul\":4719:4752   */\n      tag_157\n        /* \"#utility.yul\":4747:4751   */\n      dup3\n        /* \"#utility.yul\":4739:4745   */\n      dup3\n        /* \"#utility.yul\":4719:4752   */\n      tag_158\n      jump\t// in\n    tag_157:\n        /* \"#utility.yul\":4629:4758   */\n      swap2\n      swap1\n      pop\n      jump\t// out\n        /* \"#utility.yul\":4764:4839   */\n    tag_156:\n        /* \"#utility.yul\":4797:4803   */\n      0x00\n        /* \"#utility.yul\":4830:4832   */\n      0x40\n        /* \"#utility.yul\":4824:4833   */\n      mload\n        /* \"#utility.yul\":4814:4833   */\n      swap1\n      pop\n        /* \"#utility.yul\":4764:4839   */\n      swap1\n      jump\t// out\n        /* \"#utility.yul\":4845:5153   */\n    tag_90:\n        /* \"#utility.yul\":4907:4911   */\n      0x00\n        /* \"#utility.yul\":4997:5015   */\n      0xffffffffffffffff\n        /* \"#utility.yul\":4989:4995   */\n      dup3\n        /* \"#utility.yul\":4986:5016   */\n      gt\n        /* \"#utility.yul\":4983:5039   */\n      iszero\n      tag_161\n      jumpi\n        /* \"#utility.yul\":5019:5037   */\n      tag_162\n      tag_163\n      jump\t// in\n    tag_162:\n        /* \"#utility.yul\":4983:5039   */\n    tag_161:\n        /* \"#utility.yul\":5057:5086   */\n      tag_164\n        /* \"#utility.yul\":5079:5085   */\n      dup3\n        /* \"#utility.yul\":5057:5086   */\n      tag_136\n      jump\t// in\n    tag_164:\n        /* \"#utility.yul\":5049:5086   */\n      swap1\n      pop\n        /* \"#utility.yul\":5141:5145   */\n      0x20\n        /* \"#utility.yul\":5135:5139   */\n      dup2\n        /* \"#utility.yul\":5131:5146   */\n      add\n        /* \"#utility.yul\":5123:5146   */\n      swap1\n      pop\n        /* \"#utility.yul\":4845:5153   */\n      swap2\n      swap1\n      pop\n      jump\t// out\n        /* \"#utility.yul\":5159:5258   */\n    tag_130:\n        /* \"#utility.yul\":5211:5217   */\n      0x00\n        /* \"#utility.yul\":5245:5250   */\n      dup2\n        /* \"#utility.yul\":5239:5251   */\n      mload\n        /* \"#utility.yul\":5229:5251   */\n      swap1\n      pop\n        /* \"#utility.yul\":5159:5258   */\n      swap2\n      swap1\n      pop\n      jump\t// out\n        /* \"#utility.yul\":5264:5433   */\n    tag_132:\n        /* \"#utility.yul\":5348:5359   */\n      0x00\n        /* \"#utility.yul\":5382:5388   */\n      dup3\n        /* \"#utility.yul\":5377:5380   */\n      dup3\n        /* \"#utility.yul\":5370:5389   */\n      mstore\n        /* \"#utility.yul\":5422:5426   */\n      0x20\n        /* \"#utility.yul\":5417:5420   */\n      dup3\n        /* \"#utility.yul\":5413:5427   */\n      add\n        /* \"#utility.yul\":5398:5427   */\n      swap1\n      pop\n        /* \"#utility.yul\":5264:5433   */\n      swap3\n      swap2\n      pop\n      pop\n      jump\t// out\n        /* \"#utility.yul\":5439:5535   */\n    tag_167:\n        /* \"#utility.yul\":5476:5483   */\n      0x00\n        /* \"#utility.yul\":5505:5529   */\n      tag_169\n        /* \"#utility.yul\":5523:5528   */\n      dup3\n        /* \"#utility.yul\":5505:5529   */\n      tag_170\n      jump\t// in\n    tag_169:\n        /* \"#utility.yul\":5494:5529   */\n      swap1\n      pop\n        /* \"#utility.yul\":5439:5535   */\n      swap2\n      swap1\n      pop\n      jump\t// out\n        /* \"#utility.yul\":5541:5667   */\n    tag_170:\n        /* \"#utility.yul\":5578:5585   */\n      0x00\n        /* \"#utility.yul\":5618:5660   */\n      0xffffffffffffffffffffffffffffffffffffffff\n        /* \"#utility.yul\":5611:5616   */\n      dup3\n        /* \"#utility.yul\":5607:5661   */\n      and\n        /* \"#utility.yul\":5596:5661   */\n      swap1\n      pop\n        /* \"#utility.yul\":5541:5667   */\n      swap2\n      swap1\n      pop\n      jump\t// out\n        /* \"#utility.yul\":5673:5750   */\n    tag_145:\n        /* \"#utility.yul\":5710:5717   */\n      0x00\n        /* \"#utility.yul\":5739:5744   */\n      dup2\n        /* \"#utility.yul\":5728:5744   */\n      swap1\n      pop\n        /* \"#utility.yul\":5673:5750   */\n      swap2\n      swap1\n      pop\n      jump\t// out\n        /* \"#utility.yul\":5756:5910   */\n    tag_96:\n        /* \"#utility.yul\":5840:5846   */\n      dup3\n        /* \"#utility.yul\":5835:5838   */\n      dup2\n        /* \"#utility.yul\":5830:5833   */\n      dup4\n        /* \"#utility.yul\":5817:5847   */\n      calldatacopy\n        /* \"#utility.yul\":5902:5903   */\n      0x00\n        /* \"#utility.yul\":5893:5899   */\n      dup4\n        /* \"#utility.yul\":5888:5891   */\n      dup4\n        /* \"#utility.yul\":5884:5900   */\n      add\n        /* \"#utility.yul\":5877:5904   */\n      mstore\n        /* \"#utility.yul\":5756:5910   */\n      pop\n      pop\n      pop\n      jump\t// out\n        /* \"#utility.yul\":5916:6223   */\n    tag_134:\n        /* \"#utility.yul\":5984:5985   */\n      0x00\n        /* \"#utility.yul\":5994:6107   */\n    tag_175:\n        /* \"#utility.yul\":6008:6014   */\n      dup4\n        /* \"#utility.yul\":6005:6006   */\n      dup2\n        /* \"#utility.yul\":6002:6015   */\n      lt\n        /* \"#utility.yul\":5994:6107   */\n      iszero\n      tag_177\n      jumpi\n        /* \"#utility.yul\":6093:6094   */\n      dup1\n        /* \"#utility.yul\":6088:6091   */\n      dup3\n        /* \"#utility.yul\":6084:6095   */\n      add\n        /* \"#utility.yul\":6078:6096   */\n      mload\n        /* \"#utility.yul\":6074:6075   */\n      dup2\n        /* \"#utility.yul\":6069:6072   */\n      dup5\n        /* \"#utility.yul\":6065:6076   */\n      add\n        /* \"#utility.yul\":6058:6097   */\n      mstore\n        /* \"#utility.yul\":6030:6032   */\n      0x20\n        /* \"#utility.yul\":6027:6028   */\n      dup2\n        /* \"#utility.yul\":6023:6033   */\n      add\n        /* \"#utility.yul\":6018:6033   */\n      swap1\n      pop\n        /* \"#utility.yul\":5994:6107   */\n      jump(tag_175)\n    tag_177:\n        /* \"#utility.yul\":6125:6131   */\n      dup4\n        /* \"#utility.yul\":6122:6123   */\n      dup2\n        /* \"#utility.yul\":6119:6132   */\n      gt\n        /* \"#utility.yul\":6116:6217   */\n      iszero\n      tag_178\n      jumpi\n        /* \"#utility.yul\":6205:6206   */\n      0x00\n        /* \"#utility.yul\":6196:6202   */\n      dup5\n        /* \"#utility.yul\":6191:6194   */\n      dup5\n        /* \"#utility.yul\":6187:6203   */\n      add\n        /* \"#utility.yul\":6180:6207   */\n      mstore\n        /* \"#utility.yul\":6116:6217   */\n    tag_178:\n        /* \"#utility.yul\":5965:6223   */\n      pop\n        /* \"#utility.yul\":5916:6223   */\n      pop\n      pop\n      pop\n      jump\t// out\n        /* \"#utility.yul\":6229:6549   */\n    tag_29:\n        /* \"#utility.yul\":6273:6279   */\n      0x00\n        /* \"#utility.yul\":6310:6311   */\n      0x02\n        /* \"#utility.yul\":6304:6308   */\n      dup3\n        /* \"#utility.yul\":6300:6312   */\n      div\n        /* \"#utility.yul\":6290:6312   */\n      swap1\n      pop\n        /* \"#utility.yul\":6357:6358   */\n      0x01\n        /* \"#utility.yul\":6351:6355   */\n      dup3\n        /* \"#utility.yul\":6347:6359   */\n      and\n        /* \"#utility.yul\":6378:6396   */\n      dup1\n        /* \"#utility.yul\":6368:6449   */\n      tag_180\n      jumpi\n        /* \"#utility.yul\":6434:6438   */\n      0x7f\n        /* \"#utility.yul\":6426:6432   */\n      dup3\n        /* \"#utility.yul\":6422:6439   */\n      and\n        /* \"#utility.yul\":6412:6439   */\n      swap2\n      pop\n        /* \"#utility.yul\":6368:6449   */\n    tag_180:\n        /* \"#utility.yul\":6496:6498   */\n      0x20\n        /* \"#utility.yul\":6488:6494   */\n      dup3\n        /* \"#utility.yul\":6485:6499   */\n      lt\n        /* \"#utility.yul\":6465:6483   */\n      dup2\n        /* \"#utility.yul\":6462:6500   */\n      eq\n        /* \"#utility.yul\":6459:6543   */\n      iszero\n      tag_181\n      jumpi\n        /* \"#utility.yul\":6515:6533   */\n      tag_182\n      tag_183\n      jump\t// in\n    tag_182:\n        /* \"#utility.yul\":6459:6543   */\n    tag_181:\n        /* \"#utility.yul\":6280:6549   */\n      pop\n        /* \"#utility.yul\":6229:6549   */\n      swap2\n      swap1\n      pop\n      jump\t// out\n        /* \"#utility.yul\":6555:6836   */\n    tag_158:\n        /* \"#utility.yul\":6638:6665   */\n      tag_185\n        /* \"#utility.yul\":6660:6664   */\n      dup3\n        /* \"#utility.yul\":6638:6665   */\n      tag_136\n      jump\t// in\n    tag_185:\n        /* \"#utility.yul\":6630:6636   */\n      dup2\n        /* \"#utility.yul\":6626:6666   */\n      add\n        /* \"#utility.yul\":6768:6774   */\n      dup2\n        /* \"#utility.yul\":6756:6766   */\n      dup2\n        /* \"#utility.yul\":6753:6775   */\n      lt\n        /* \"#utility.yul\":6732:6750   */\n      0xffffffffffffffff\n        /* \"#utility.yul\":6720:6730   */\n      dup3\n        /* \"#utility.yul\":6717:6751   */\n      gt\n        /* \"#utility.yul\":6714:6776   */\n      or\n        /* \"#utility.yul\":6711:6799   */\n      iszero\n      tag_186\n      jumpi\n        /* \"#utility.yul\":6779:6797   */\n      tag_187\n      tag_163\n      jump\t// in\n    tag_187:\n        /* \"#utility.yul\":6711:6799   */\n    tag_186:\n        /* \"#utility.yul\":6819:6829   */\n      dup1\n        /* \"#utility.yul\":6815:6817   */\n      0x40\n        /* \"#utility.yul\":6808:6830   */\n      mstore\n        /* \"#utility.yul\":6598:6836   */\n      pop\n        /* \"#utility.yul\":6555:6836   */\n      pop\n      pop\n      jump\t// out\n        /* \"#utility.yul\":6842:7022   */\n    tag_41:\n        /* \"#utility.yul\":6890:6967   */\n      0x4e487b7100000000000000000000000000000000000000000000000000000000\n        /* \"#utility.yul\":6887:6888   */\n      0x00\n        /* \"#utility.yul\":6880:6968   */\n      mstore\n        /* \"#utility.yul\":6987:6991   */\n      0x21\n        /* \"#utility.yul\":6984:6985   */\n      0x04\n        /* \"#utility.yul\":6977:6992   */\n      mstore\n        /* \"#utility.yul\":7011:7015   */\n      0x24\n        /* \"#utility.yul\":7008:7009   */\n      0x00\n        /* \"#utility.yul\":7001:7016   */\n      revert\n        /* \"#utility.yul\":7028:7208   */\n    tag_183:\n        /* \"#utility.yul\":7076:7153   */\n      0x4e487b7100000000000000000000000000000000000000000000000000000000\n        /* \"#utility.yul\":7073:7074   */\n      0x00\n        /* \"#utility.yul\":7066:7154   */\n      mstore\n        /* \"#utility.yul\":7173:7177   */\n      0x22\n        /* \"#utility.yul\":7170:7171   */\n      0x04\n        /* \"#utility.yul\":7163:7178   */\n      mstore\n        /* \"#utility.yul\":7197:7201   */\n      0x24\n        /* \"#utility.yul\":7194:7195   */\n      0x00\n        /* \"#utility.yul\":7187:7202   */\n      revert\n        /* \"#utility.yul\":7214:7394   */\n    tag_163:\n        /* \"#utility.yul\":7262:7339   */\n      0x4e487b7100000000000000000000000000000000000000000000000000000000\n        /* \"#utility.yul\":7259:7260   */\n      0x00\n        /* \"#utility.yul\":7252:7340   */\n      mstore\n        /* \"#utility.yul\":7359:7363   */\n      0x41\n        /* \"#utility.yul\":7356:7357   */\n      0x04\n        /* \"#utility.yul\":7349:7364   */\n      mstore\n        /* \"#utility.yul\":7383:7387   */\n      0x24\n        /* \"#utility.yul\":7380:7381   */\n      0x00\n        /* \"#utility.yul\":7373:7388   */\n      revert\n        /* \"#utility.yul\":7400:7517   */\n    tag_105:\n        /* \"#utility.yul\":7509:7510   */\n      0x00\n        /* \"#utility.yul\":7506:7507   */\n      dup1\n        /* \"#utility.yul\":7499:7511   */\n      revert\n        /* \"#utility.yul\":7523:7640   */\n    tag_94:\n        /* \"#utility.yul\":7632:7633   */\n      0x00\n        /* \"#utility.yul\":7629:7630   */\n      dup1\n        /* \"#utility.yul\":7622:7634   */\n      revert\n        /* \"#utility.yul\":7646:7763   */\n    tag_121:\n        /* \"#utility.yul\":7755:7756   */\n      0x00\n        /* \"#utility.yul\":7752:7753   */\n      dup1\n        /* \"#utility.yul\":7745:7757   */\n      revert\n        /* \"#utility.yul\":7769:7886   */\n    tag_114:\n        /* \"#utility.yul\":7878:7879   */\n      0x00\n        /* \"#utility.yul\":7875:7876   */\n      dup1\n        /* \"#utility.yul\":7868:7880   */\n      revert\n        /* \"#utility.yul\":7892:7994   */\n    tag_136:\n        /* \"#utility.yul\":7933:7939   */\n      0x00\n        /* \"#utility.yul\":7984:7986   */\n      0x1f\n        /* \"#utility.yul\":7980:7987   */\n      not\n        /* \"#utility.yul\":7975:7977   */\n      0x1f\n        /* \"#utility.yul\":7968:7973   */\n      dup4\n        /* \"#utility.yul\":7964:7978   */\n      add\n        /* \"#utility.yul\":7960:7988   */\n      and\n        /* \"#utility.yul\":7950:7988   */\n      swap1\n      pop\n        /* \"#utility.yul\":7892:7994   */\n      swap2\n      swap1\n      pop\n      jump\t// out\n        /* \"#utility.yul\":8000:8179   */\n    tag_141:\n        /* \"#utility.yul\":8140:8171   */\n      0x706c656173652073656c6563742074686520636c617373206669727374000000\n        /* \"#utility.yul\":8136:8137   */\n      0x00\n        /* \"#utility.yul\":8128:8134   */\n      dup3\n        /* \"#utility.yul\":8124:8138   */\n      add\n        /* \"#utility.yul\":8117:8172   */\n      mstore\n        /* \"#utility.yul\":8000:8179   */\n      pop\n      jump\t// out\n        /* \"#utility.yul\":8185:8307   */\n    tag_100:\n        /* \"#utility.yul\":8258:8282   */\n      tag_198\n        /* \"#utility.yul\":8276:8281   */\n      dup2\n        /* \"#utility.yul\":8258:8282   */\n      tag_167\n      jump\t// in\n    tag_198:\n        /* \"#utility.yul\":8251:8256   */\n      dup2\n        /* \"#utility.yul\":8248:8283   */\n      eq\n        /* \"#utility.yul\":8238:8301   */\n      tag_199\n      jumpi\n        /* \"#utility.yul\":8297:8298   */\n      0x00\n        /* \"#utility.yul\":8294:8295   */\n      dup1\n        /* \"#utility.yul\":8287:8299   */\n      revert\n        /* \"#utility.yul\":8238:8301   */\n    tag_199:\n        /* \"#utility.yul\":8185:8307   */\n      pop\n      jump\t// out\n        /* \"#utility.yul\":8313:8435   */\n    tag_110:\n        /* \"#utility.yul\":8386:8410   */\n      tag_201\n        /* \"#utility.yul\":8404:8409   */\n      dup2\n        /* \"#utility.yul\":8386:8410   */\n      tag_145\n      jump\t// in\n    tag_201:\n        /* \"#utility.yul\":8379:8384   */\n      dup2\n        /* \"#utility.yul\":8376:8411   */\n      eq\n        /* \"#utility.yul\":8366:8429   */\n      tag_202\n      jumpi\n        /* \"#utility.yul\":8425:8426   */\n      0x00\n        /* \"#utility.yul\":8422:8423   */\n      dup1\n        /* \"#utility.yul\":8415:8427   */\n      revert\n        /* \"#utility.yul\":8366:8429   */\n    tag_202:\n        /* \"#utility.yul\":8313:8435   */\n      pop\n      jump\t// out\n\n    auxdata: 0xa26469706673582212209e645df5efeb2f6a554f34d1d8c6045e9d1d8f50ac6673cc328116d7f9cc78a264736f6c63430008070033\n}\n",
				"bytecode": {
					"linkReferences": {},
					"object": "608060405260008060006101000a81548160ff02191690831515021790555034801561002a57600080fd5b50610c2f8061003a6000396000f3fe608060405234801561001057600080fd5b50600436106100575760003560e01c806317ae45891461005c57806350183507146100785780637a1736d114610082578063b24fa0e41461008c578063b90d3d0c14610096575b600080fd5b6100766004803603810190610071919061081f565b6100ca565b005b61008061027d565b005b61008a61034b565b005b610094610419565b005b6100b060048036038101906100ab91906107f2565b6104e7565b6040516100c1959493929190610915565b60405180910390f35b60008054906101000a900460ff1615610118576040517f08c379a000000000000000000000000000000000000000000000000000000000815260040161010f9061097d565b60405180910390fd5b6040518060a001604052808481526020018381526020018281526020016002805461014290610a8d565b80601f016020809104026020016040519081016040528092919081815260200182805461016e90610a8d565b80156101bb5780601f10610190576101008083540402835291602001916101bb565b820191906000526020600020905b81548152906001019060200180831161019e57829003601f168201915b50505050508152602001600354815250600460003373ffffffffffffffffffffffffffffffffffffffff1673ffffffffffffffffffffffffffffffffffffffff16815260200190815260200160002060008201518160000190805190602001906102269291906106b5565b5060208201518160010190805190602001906102439291906106b5565b5060408201518160020155606082015181600301908051906020019061026a9291906106b5565b5060808201518160040155905050505050565b60008060016101000a81548160ff021916908360028111156102a2576102a1610af0565b5b0217905550600060019054906101000a900460ff1660028111156102c9576102c8610af0565b5b6001819055506000600154141561032f576040518060400160405280600b81526020017f466972737420436c617373000000000000000000000000000000000000000000815250600290805190602001906103259291906106b5565b5060026003819055505b60016000806101000a81548160ff021916908315150217905550565b6001600060016101000a81548160ff0219169083600281111561037157610370610af0565b5b0217905550600060019054906101000a900460ff16600281111561039857610397610af0565b5b6001819055506001805414156103fd576040518060400160405280600d81526020017f45636f6e6f6d7920436c61737300000000000000000000000000000000000000815250600290805190602001906103f39291906106b5565b5060016003819055505b60016000806101000a81548160ff021916908315150217905550565b6002600060016101000a81548160ff0219169083600281111561043f5761043e610af0565b5b0217905550600060019054906101000a900460ff16600281111561046657610465610af0565b5b600181905550600260015414156104cb576040518060400160405280600d81526020017f4275736e69737320436c61737300000000000000000000000000000000000000815250600290805190602001906104c29291906106b5565b50600380819055505b60016000806101000a81548160ff021916908315150217905550565b600460205280600052604060002060009150905080600001805461050a90610a8d565b80601f016020809104026020016040519081016040528092919081815260200182805461053690610a8d565b80156105835780601f1061055857610100808354040283529160200191610583565b820191906000526020600020905b81548152906001019060200180831161056657829003601f168201915b50505050509080600101805461059890610a8d565b80601f01602080910402602001604051908101604052809291908181526020018280546105c490610a8d565b80156106115780601f106105e657610100808354040283529160200191610611565b820191906000526020600020905b8154815290600101906020018083116105f457829003601f168201915b50505050509080600201549080600301805461062c90610a8d565b80601f016020809104026020016040519081016040528092919081815260200182805461065890610a8d565b80156106a55780601f1061067a576101008083540402835291602001916106a5565b820191906000526020600020905b81548152906001019060200180831161068857829003601f168201915b5050505050908060040154905085565b8280546106c190610a8d565b90600052602060002090601f0160209004810192826106e3576000855561072a565b82601f106106fc57805160ff191683800117855561072a565b8280016001018555821561072a579182015b8281111561072957825182559160200191906001019061070e565b5b509050610737919061073b565b5090565b5b8082111561075457600081600090555060010161073c565b5090565b600061076b610766846109c2565b61099d565b90508281526020810184848401111561078757610786610b82565b5b610792848285610a4b565b509392505050565b6000813590506107a981610bcb565b92915050565b600082601f8301126107c4576107c3610b7d565b5b81356107d4848260208601610758565b91505092915050565b6000813590506107ec81610be2565b92915050565b60006020828403121561080857610807610b8c565b5b60006108168482850161079a565b91505092915050565b60008060006060848603121561083857610837610b8c565b5b600084013567ffffffffffffffff81111561085657610855610b87565b5b610862868287016107af565b935050602084013567ffffffffffffffff81111561088357610882610b87565b5b61088f868287016107af565b92505060406108a0868287016107dd565b9150509250925092565b60006108b5826109f3565b6108bf81856109fe565b93506108cf818560208601610a5a565b6108d881610b91565b840191505092915050565b60006108f0601d836109fe565b91506108fb82610ba2565b602082019050919050565b61090f81610a41565b82525050565b600060a082019050818103600083015261092f81886108aa565b9050818103602083015261094381876108aa565b90506109526040830186610906565b818103606083015261096481856108aa565b90506109736080830184610906565b9695505050505050565b60006020820190508181036000830152610996816108e3565b9050919050565b60006109a76109b8565b90506109b38282610abf565b919050565b6000604051905090565b600067ffffffffffffffff8211156109dd576109dc610b4e565b5b6109e682610b91565b9050602081019050919050565b600081519050919050565b600082825260208201905092915050565b6000610a1a82610a21565b9050919050565b600073ffffffffffffffffffffffffffffffffffffffff82169050919050565b6000819050919050565b82818337600083830152505050565b60005b83811015610a78578082015181840152602081019050610a5d565b83811115610a87576000848401525b50505050565b60006002820490506001821680610aa557607f821691505b60208210811415610ab957610ab8610b1f565b5b50919050565b610ac882610b91565b810181811067ffffffffffffffff82111715610ae757610ae6610b4e565b5b80604052505050565b7f4e487b7100000000000000000000000000000000000000000000000000000000600052602160045260246000fd5b7f4e487b7100000000000000000000000000000000000000000000000000000000600052602260045260246000fd5b7f4e487b7100000000000000000000000000000000000000000000000000000000600052604160045260246000fd5b600080fd5b600080fd5b600080fd5b600080fd5b6000601f19601f8301169050919050565b7f706c656173652073656c6563742074686520636c617373206669727374000000600082015250565b610bd481610a0f565b8114610bdf57600080fd5b50565b610beb81610a41565b8114610bf657600080fd5b5056fea26469706673582212209e645df5efeb2f6a554f34d1d8c6045e9d1d8f50ac6673cc328116d7f9cc78a264736f6c63430008070033",
					"opcodes": "PUSH1 0x80 PUSH1 0x40 MSTORE PUSH1 0x0 DUP1 PUSH1 0x0 PUSH2 0x100 EXP DUP2 SLOAD DUP2 PUSH1 0xFF MUL NOT AND SWAP1 DUP4 ISZERO ISZERO MUL OR SWAP1 SSTORE POP CALLVALUE DUP1 ISZERO PUSH2 0x2A JUMPI PUSH1 0x0 DUP1 REVERT JUMPDEST POP PUSH2 0xC2F DUP1 PUSH2 0x3A PUSH1 0x0 CODECOPY PUSH1 0x0 RETURN INVALID PUSH1 0x80 PUSH1 0x40 MSTORE CALLVALUE DUP1 ISZERO PUSH2 0x10 JUMPI PUSH1 0x0 DUP1 REVERT JUMPDEST POP PUSH1 0x4 CALLDATASIZE LT PUSH2 0x57 JUMPI PUSH1 0x0 CALLDATALOAD PUSH1 0xE0 SHR DUP1 PUSH4 0x17AE4589 EQ PUSH2 0x5C JUMPI DUP1 PUSH4 0x50183507 EQ PUSH2 0x78 JUMPI DUP1 PUSH4 0x7A1736D1 EQ PUSH2 0x82 JUMPI DUP1 PUSH4 0xB24FA0E4 EQ PUSH2 0x8C JUMPI DUP1 PUSH4 0xB90D3D0C EQ PUSH2 0x96 JUMPI JUMPDEST PUSH1 0x0 DUP1 REVERT JUMPDEST PUSH2 0x76 PUSH1 0x4 DUP1 CALLDATASIZE SUB DUP2 ADD SWAP1 PUSH2 0x71 SWAP2 SWAP1 PUSH2 0x81F JUMP JUMPDEST PUSH2 0xCA JUMP JUMPDEST STOP JUMPDEST PUSH2 0x80 PUSH2 0x27D JUMP JUMPDEST STOP JUMPDEST PUSH2 0x8A PUSH2 0x34B JUMP JUMPDEST STOP JUMPDEST PUSH2 0x94 PUSH2 0x419 JUMP JUMPDEST STOP JUMPDEST PUSH2 0xB0 PUSH1 0x4 DUP1 CALLDATASIZE SUB DUP2 ADD SWAP1 PUSH2 0xAB SWAP2 SWAP1 PUSH2 0x7F2 JUMP JUMPDEST PUSH2 0x4E7 JUMP JUMPDEST PUSH1 0x40 MLOAD PUSH2 0xC1 SWAP6 SWAP5 SWAP4 SWAP3 SWAP2 SWAP1 PUSH2 0x915 JUMP JUMPDEST PUSH1 0x40 MLOAD DUP1 SWAP2 SUB SWAP1 RETURN JUMPDEST PUSH1 0x0 DUP1 SLOAD SWAP1 PUSH2 0x100 EXP SWAP1 DIV PUSH1 0xFF AND ISZERO PUSH2 0x118 JUMPI PUSH1 0x40 MLOAD PUSH32 0x8C379A000000000000000000000000000000000000000000000000000000000 DUP2 MSTORE PUSH1 0x4 ADD PUSH2 0x10F SWAP1 PUSH2 0x97D JUMP JUMPDEST PUSH1 0x40 MLOAD DUP1 SWAP2 SUB SWAP1 REVERT JUMPDEST PUSH1 0x40 MLOAD DUP1 PUSH1 0xA0 ADD PUSH1 0x40 MSTORE DUP1 DUP5 DUP2 MSTORE PUSH1 0x20 ADD DUP4 DUP2 MSTORE PUSH1 0x20 ADD DUP3 DUP2 MSTORE PUSH1 0x20 ADD PUSH1 0x2 DUP1 SLOAD PUSH2 0x142 SWAP1 PUSH2 0xA8D JUMP JUMPDEST DUP1 PUSH1 0x1F ADD PUSH1 0x20 DUP1 SWAP2 DIV MUL PUSH1 0x20 ADD PUSH1 0x40 MLOAD SWAP1 DUP2 ADD PUSH1 0x40 MSTORE DUP1 SWAP3 SWAP2 SWAP1 DUP2 DUP2 MSTORE PUSH1 0x20 ADD DUP3 DUP1 SLOAD PUSH2 0x16E SWAP1 PUSH2 0xA8D JUMP JUMPDEST DUP1 ISZERO PUSH2 0x1BB JUMPI DUP1 PUSH1 0x1F LT PUSH2 0x190 JUMPI PUSH2 0x100 DUP1 DUP4 SLOAD DIV MUL DUP4 MSTORE SWAP2 PUSH1 0x20 ADD SWAP2 PUSH2 0x1BB JUMP JUMPDEST DUP3 ADD SWAP2 SWAP1 PUSH1 0x0 MSTORE PUSH1 0x20 PUSH1 0x0 KECCAK256 SWAP1 JUMPDEST DUP2 SLOAD DUP2 MSTORE SWAP1 PUSH1 0x1 ADD SWAP1 PUSH1 0x20 ADD DUP1 DUP4 GT PUSH2 0x19E JUMPI DUP3 SWAP1 SUB PUSH1 0x1F AND DUP3 ADD SWAP2 JUMPDEST POP POP POP POP POP DUP2 MSTORE PUSH1 0x20 ADD PUSH1 0x3 SLOAD DUP2 MSTORE POP PUSH1 0x4 PUSH1 0x0 CALLER PUSH20 0xFFFFFFFFFFFFFFFFFFFFFFFFFFFFFFFFFFFFFFFF AND PUSH20 0xFFFFFFFFFFFFFFFFFFFFFFFFFFFFFFFFFFFFFFFF AND DUP2 MSTORE PUSH1 0x20 ADD SWAP1 DUP2 MSTORE PUSH1 0x20 ADD PUSH1 0x0 KECCAK256 PUSH1 0x0 DUP3 ADD MLOAD DUP2 PUSH1 0x0 ADD SWAP1 DUP1 MLOAD SWAP1 PUSH1 0x20 ADD SWAP1 PUSH2 0x226 SWAP3 SWAP2 SWAP1 PUSH2 0x6B5 JUMP JUMPDEST POP PUSH1 0x20 DUP3 ADD MLOAD DUP2 PUSH1 0x1 ADD SWAP1 DUP1 MLOAD SWAP1 PUSH1 0x20 ADD SWAP1 PUSH2 0x243 SWAP3 SWAP2 SWAP1 PUSH2 0x6B5 JUMP JUMPDEST POP PUSH1 0x40 DUP3 ADD MLOAD DUP2 PUSH1 0x2 ADD SSTORE PUSH1 0x60 DUP3 ADD MLOAD DUP2 PUSH1 0x3 ADD SWAP1 DUP1 MLOAD SWAP1 PUSH1 0x20 ADD SWAP1 PUSH2 0x26A SWAP3 SWAP2 SWAP1 PUSH2 0x6B5 JUMP JUMPDEST POP PUSH1 0x80 DUP3 ADD MLOAD DUP2 PUSH1 0x4 ADD SSTORE SWAP1 POP POP POP POP POP JUMP JUMPDEST PUSH1 0x0 DUP1 PUSH1 0x1 PUSH2 0x100 EXP DUP2 SLOAD DUP2 PUSH1 0xFF MUL NOT AND SWAP1 DUP4 PUSH1 0x2 DUP2 GT ISZERO PUSH2 0x2A2 JUMPI PUSH2 0x2A1 PUSH2 0xAF0 JUMP JUMPDEST JUMPDEST MUL OR SWAP1 SSTORE POP PUSH1 0x0 PUSH1 0x1 SWAP1 SLOAD SWAP1 PUSH2 0x100 EXP SWAP1 DIV PUSH1 0xFF AND PUSH1 0x2 DUP2 GT ISZERO PUSH2 0x2C9 JUMPI PUSH2 0x2C8 PUSH2 0xAF0 JUMP JUMPDEST JUMPDEST PUSH1 0x1 DUP2 SWAP1 SSTORE POP PUSH1 0x0 PUSH1 0x1 SLOAD EQ ISZERO PUSH2 0x32F JUMPI PUSH1 0x40 MLOAD DUP1 PUSH1 0x40 ADD PUSH1 0x40 MSTORE DUP1 PUSH1 0xB DUP2 MSTORE PUSH1 0x20 ADD PUSH32 0x466972737420436C617373000000000000000000000000000000000000000000 DUP2 MSTORE POP PUSH1 0x2 SWAP1 DUP1 MLOAD SWAP1 PUSH1 0x20 ADD SWAP1 PUSH2 0x325 SWAP3 SWAP2 SWAP1 PUSH2 0x6B5 JUMP JUMPDEST POP PUSH1 0x2 PUSH1 0x3 DUP2 SWAP1 SSTORE POP JUMPDEST PUSH1 0x1 PUSH1 0x0 DUP1 PUSH2 0x100 EXP DUP2 SLOAD DUP2 PUSH1 0xFF MUL NOT AND SWAP1 DUP4 ISZERO ISZERO MUL OR SWAP1 SSTORE POP JUMP JUMPDEST PUSH1 0x1 PUSH1 0x0 PUSH1 0x1 PUSH2 0x100 EXP DUP2 SLOAD DUP2 PUSH1 0xFF MUL NOT AND SWAP1 DUP4 PUSH1 0x2 DUP2 GT ISZERO PUSH2 0x371 JUMPI PUSH2 0x370 PUSH2 0xAF0 JUMP JUMPDEST JUMPDEST MUL OR SWAP1 SSTORE POP PUSH1 0x0 PUSH1 0x1 SWAP1 SLOAD SWAP1 PUSH2 0x100 EXP SWAP1 DIV PUSH1 0xFF AND PUSH1 0x2 DUP2 GT ISZERO PUSH2 0x398 JUMPI PUSH2 0x397 PUSH2 0xAF0 JUMP JUMPDEST JUMPDEST PUSH1 0x1 DUP2 SWAP1 SSTORE POP PUSH1 0x1 DUP1 SLOAD EQ ISZERO PUSH2 0x3FD JUMPI PUSH1 0x40 MLOAD DUP1 PUSH1 0x40 ADD PUSH1 0x40 MSTORE DUP1 PUSH1 0xD DUP2 MSTORE PUSH1 0x20 ADD PUSH32 0x45636F6E6F6D7920436C61737300000000000000000000000000000000000000 DUP2 MSTORE POP PUSH1 0x2 SWAP1 DUP1 MLOAD SWAP1 PUSH1 0x20 ADD SWAP1 PUSH2 0x3F3 SWAP3 SWAP2 SWAP1 PUSH2 0x6B5 JUMP JUMPDEST POP PUSH1 0x1 PUSH1 0x3 DUP2 SWAP1 SSTORE POP JUMPDEST PUSH1 0x1 PUSH1 0x0 DUP1 PUSH2 0x100 EXP DUP2 SLOAD DUP2 PUSH1 0xFF MUL NOT AND SWAP1 DUP4 ISZERO ISZERO MUL OR SWAP1 SSTORE POP JUMP JUMPDEST PUSH1 0x2 PUSH1 0x0 PUSH1 0x1 PUSH2 0x100 EXP DUP2 SLOAD DUP2 PUSH1 0xFF MUL NOT AND SWAP1 DUP4 PUSH1 0x2 DUP2 GT ISZERO PUSH2 0x43F JUMPI PUSH2 0x43E PUSH2 0xAF0 JUMP JUMPDEST JUMPDEST MUL OR SWAP1 SSTORE POP PUSH1 0x0 PUSH1 0x1 SWAP1 SLOAD SWAP1 PUSH2 0x100 EXP SWAP1 DIV PUSH1 0xFF AND PUSH1 0x2 DUP2 GT ISZERO PUSH2 0x466 JUMPI PUSH2 0x465 PUSH2 0xAF0 JUMP JUMPDEST JUMPDEST PUSH1 0x1 DUP2 SWAP1 SSTORE POP PUSH1 0x2 PUSH1 0x1 SLOAD EQ ISZERO PUSH2 0x4CB JUMPI PUSH1 0x40 MLOAD DUP1 PUSH1 0x40 ADD PUSH1 0x40 MSTORE DUP1 PUSH1 0xD DUP2 MSTORE PUSH1 0x20 ADD PUSH32 0x4275736E69737320436C61737300000000000000000000000000000000000000 DUP2 MSTORE POP PUSH1 0x2 SWAP1 DUP1 MLOAD SWAP1 PUSH1 0x20 ADD SWAP1 PUSH2 0x4C2 SWAP3 SWAP2 SWAP1 PUSH2 0x6B5 JUMP JUMPDEST POP PUSH1 0x3 DUP1 DUP2 SWAP1 SSTORE POP JUMPDEST PUSH1 0x1 PUSH1 0x0 DUP1 PUSH2 0x100 EXP DUP2 SLOAD DUP2 PUSH1 0xFF MUL NOT AND SWAP1 DUP4 ISZERO ISZERO MUL OR SWAP1 SSTORE POP JUMP JUMPDEST PUSH1 0x4 PUSH1 0x20 MSTORE DUP1 PUSH1 0x0 MSTORE PUSH1 0x40 PUSH1 0x0 KECCAK256 PUSH1 0x0 SWAP2 POP SWAP1 POP DUP1 PUSH1 0x0 ADD DUP1 SLOAD PUSH2 0x50A SWAP1 PUSH2 0xA8D JUMP JUMPDEST DUP1 PUSH1 0x1F ADD PUSH1 0x20 DUP1 SWAP2 DIV MUL PUSH1 0x20 ADD PUSH1 0x40 MLOAD SWAP1 DUP2 ADD PUSH1 0x40 MSTORE DUP1 SWAP3 SWAP2 SWAP1 DUP2 DUP2 MSTORE PUSH1 0x20 ADD DUP3 DUP1 SLOAD PUSH2 0x536 SWAP1 PUSH2 0xA8D JUMP JUMPDEST DUP1 ISZERO PUSH2 0x583 JUMPI DUP1 PUSH1 0x1F LT PUSH2 0x558 JUMPI PUSH2 0x100 DUP1 DUP4 SLOAD DIV MUL DUP4 MSTORE SWAP2 PUSH1 0x20 ADD SWAP2 PUSH2 0x583 JUMP JUMPDEST DUP3 ADD SWAP2 SWAP1 PUSH1 0x0 MSTORE PUSH1 0x20 PUSH1 0x0 KECCAK256 SWAP1 JUMPDEST DUP2 SLOAD DUP2 MSTORE SWAP1 PUSH1 0x1 ADD SWAP1 PUSH1 0x20 ADD DUP1 DUP4 GT PUSH2 0x566 JUMPI DUP3 SWAP1 SUB PUSH1 0x1F AND DUP3 ADD SWAP2 JUMPDEST POP POP POP POP POP SWAP1 DUP1 PUSH1 0x1 ADD DUP1 SLOAD PUSH2 0x598 SWAP1 PUSH2 0xA8D JUMP JUMPDEST DUP1 PUSH1 0x1F ADD PUSH1 0x20 DUP1 SWAP2 DIV MUL PUSH1 0x20 ADD PUSH1 0x40 MLOAD SWAP1 DUP2 ADD PUSH1 0x40 MSTORE DUP1 SWAP3 SWAP2 SWAP1 DUP2 DUP2 MSTORE PUSH1 0x20 ADD DUP3 DUP1 SLOAD PUSH2 0x5C4 SWAP1 PUSH2 0xA8D JUMP JUMPDEST DUP1 ISZERO PUSH2 0x611 JUMPI DUP1 PUSH1 0x1F LT PUSH2 0x5E6 JUMPI PUSH2 0x100 DUP1 DUP4 SLOAD DIV MUL DUP4 MSTORE SWAP2 PUSH1 0x20 ADD SWAP2 PUSH2 0x611 JUMP JUMPDEST DUP3 ADD SWAP2 SWAP1 PUSH1 0x0 MSTORE PUSH1 0x20 PUSH1 0x0 KECCAK256 SWAP1 JUMPDEST DUP2 SLOAD DUP2 MSTORE SWAP1 PUSH1 0x1 ADD SWAP1 PUSH1 0x20 ADD DUP1 DUP4 GT PUSH2 0x5F4 JUMPI DUP3 SWAP1 SUB PUSH1 0x1F AND DUP3 ADD SWAP2 JUMPDEST POP POP POP POP POP SWAP1 DUP1 PUSH1 0x2 ADD SLOAD SWAP1 DUP1 PUSH1 0x3 ADD DUP1 SLOAD PUSH2 0x62C SWAP1 PUSH2 0xA8D JUMP JUMPDEST DUP1 PUSH1 0x1F ADD PUSH1 0x20 DUP1 SWAP2 DIV MUL PUSH1 0x20 ADD PUSH1 0x40 MLOAD SWAP1 DUP2 ADD PUSH1 0x40 MSTORE DUP1 SWAP3 SWAP2 SWAP1 DUP2 DUP2 MSTORE PUSH1 0x20 ADD DUP3 DUP1 SLOAD PUSH2 0x658 SWAP1 PUSH2 0xA8D JUMP JUMPDEST DUP1 ISZERO PUSH2 0x6A5 JUMPI DUP1 PUSH1 0x1F LT PUSH2 0x67A JUMPI PUSH2 0x100 DUP1 DUP4 SLOAD DIV MUL DUP4 MSTORE SWAP2 PUSH1 0x20 ADD SWAP2 PUSH2 0x6A5 JUMP JUMPDEST DUP3 ADD SWAP2 SWAP1 PUSH1 0x0 MSTORE PUSH1 0x20 PUSH1 0x0 KECCAK256 SWAP1 JUMPDEST DUP2 SLOAD DUP2 MSTORE SWAP1 PUSH1 0x1 ADD SWAP1 PUSH1 0x20 ADD DUP1 DUP4 GT PUSH2 0x688 JUMPI DUP3 SWAP1 SUB PUSH1 0x1F AND DUP3 ADD SWAP2 JUMPDEST POP POP POP POP POP SWAP1 DUP1 PUSH1 0x4 ADD SLOAD SWAP1 POP DUP6 JUMP JUMPDEST DUP3 DUP1 SLOAD PUSH2 0x6C1 SWAP1 PUSH2 0xA8D JUMP JUMPDEST SWAP1 PUSH1 0x0 MSTORE PUSH1 0x20 PUSH1 0x0 KECCAK256 SWAP1 PUSH1 0x1F ADD PUSH1 0x20 SWAP1 DIV DUP2 ADD SWAP3 DUP3 PUSH2 0x6E3 JUMPI PUSH1 0x0 DUP6 SSTORE PUSH2 0x72A JUMP JUMPDEST DUP3 PUSH1 0x1F LT PUSH2 0x6FC JUMPI DUP1 MLOAD PUSH1 0xFF NOT AND DUP4 DUP1 ADD OR DUP6 SSTORE PUSH2 0x72A JUMP JUMPDEST DUP3 DUP1 ADD PUSH1 0x1 ADD DUP6 SSTORE DUP3 ISZERO PUSH2 0x72A JUMPI SWAP2 DUP3 ADD JUMPDEST DUP3 DUP2 GT ISZERO PUSH2 0x729 JUMPI DUP3 MLOAD DUP3 SSTORE SWAP2 PUSH1 0x20 ADD SWAP2 SWAP1 PUSH1 0x1 ADD SWAP1 PUSH2 0x70E JUMP JUMPDEST JUMPDEST POP SWAP1 POP PUSH2 0x737 SWAP2 SWAP1 PUSH2 0x73B JUMP JUMPDEST POP SWAP1 JUMP JUMPDEST JUMPDEST DUP1 DUP3 GT ISZERO PUSH2 0x754 JUMPI PUSH1 0x0 DUP2 PUSH1 0x0 SWAP1 SSTORE POP PUSH1 0x1 ADD PUSH2 0x73C JUMP JUMPDEST POP SWAP1 JUMP JUMPDEST PUSH1 0x0 PUSH2 0x76B PUSH2 0x766 DUP5 PUSH2 0x9C2 JUMP JUMPDEST PUSH2 0x99D JUMP JUMPDEST SWAP1 POP DUP3 DUP2 MSTORE PUSH1 0x20 DUP2 ADD DUP5 DUP5 DUP5 ADD GT ISZERO PUSH2 0x787 JUMPI PUSH2 0x786 PUSH2 0xB82 JUMP JUMPDEST JUMPDEST PUSH2 0x792 DUP5 DUP3 DUP6 PUSH2 0xA4B JUMP JUMPDEST POP SWAP4 SWAP3 POP POP POP JUMP JUMPDEST PUSH1 0x0 DUP2 CALLDATALOAD SWAP1 POP PUSH2 0x7A9 DUP2 PUSH2 0xBCB JUMP JUMPDEST SWAP3 SWAP2 POP POP JUMP JUMPDEST PUSH1 0x0 DUP3 PUSH1 0x1F DUP4 ADD SLT PUSH2 0x7C4 JUMPI PUSH2 0x7C3 PUSH2 0xB7D JUMP JUMPDEST JUMPDEST DUP2 CALLDATALOAD PUSH2 0x7D4 DUP5 DUP3 PUSH1 0x20 DUP7 ADD PUSH2 0x758 JUMP JUMPDEST SWAP2 POP POP SWAP3 SWAP2 POP POP JUMP JUMPDEST PUSH1 0x0 DUP2 CALLDATALOAD SWAP1 POP PUSH2 0x7EC DUP2 PUSH2 0xBE2 JUMP JUMPDEST SWAP3 SWAP2 POP POP JUMP JUMPDEST PUSH1 0x0 PUSH1 0x20 DUP3 DUP5 SUB SLT ISZERO PUSH2 0x808 JUMPI PUSH2 0x807 PUSH2 0xB8C JUMP JUMPDEST JUMPDEST PUSH1 0x0 PUSH2 0x816 DUP5 DUP3 DUP6 ADD PUSH2 0x79A JUMP JUMPDEST SWAP2 POP POP SWAP3 SWAP2 POP POP JUMP JUMPDEST PUSH1 0x0 DUP1 PUSH1 0x0 PUSH1 0x60 DUP5 DUP7 SUB SLT ISZERO PUSH2 0x838 JUMPI PUSH2 0x837 PUSH2 0xB8C JUMP JUMPDEST JUMPDEST PUSH1 0x0 DUP5 ADD CALLDATALOAD PUSH8 0xFFFFFFFFFFFFFFFF DUP2 GT ISZERO PUSH2 0x856 JUMPI PUSH2 0x855 PUSH2 0xB87 JUMP JUMPDEST JUMPDEST PUSH2 0x862 DUP7 DUP3 DUP8 ADD PUSH2 0x7AF JUMP JUMPDEST SWAP4 POP POP PUSH1 0x20 DUP5 ADD CALLDATALOAD PUSH8 0xFFFFFFFFFFFFFFFF DUP2 GT ISZERO PUSH2 0x883 JUMPI PUSH2 0x882 PUSH2 0xB87 JUMP JUMPDEST JUMPDEST PUSH2 0x88F DUP7 DUP3 DUP8 ADD PUSH2 0x7AF JUMP JUMPDEST SWAP3 POP POP PUSH1 0x40 PUSH2 0x8A0 DUP7 DUP3 DUP8 ADD PUSH2 0x7DD JUMP JUMPDEST SWAP2 POP POP SWAP3 POP SWAP3 POP SWAP3 JUMP JUMPDEST PUSH1 0x0 PUSH2 0x8B5 DUP3 PUSH2 0x9F3 JUMP JUMPDEST PUSH2 0x8BF DUP2 DUP6 PUSH2 0x9FE JUMP JUMPDEST SWAP4 POP PUSH2 0x8CF DUP2 DUP6 PUSH1 0x20 DUP7 ADD PUSH2 0xA5A JUMP JUMPDEST PUSH2 0x8D8 DUP2 PUSH2 0xB91 JUMP JUMPDEST DUP5 ADD SWAP2 POP POP SWAP3 SWAP2 POP POP JUMP JUMPDEST PUSH1 0x0 PUSH2 0x8F0 PUSH1 0x1D DUP4 PUSH2 0x9FE JUMP JUMPDEST SWAP2 POP PUSH2 0x8FB DUP3 PUSH2 0xBA2 JUMP JUMPDEST PUSH1 0x20 DUP3 ADD SWAP1 POP SWAP2 SWAP1 POP JUMP JUMPDEST PUSH2 0x90F DUP2 PUSH2 0xA41 JUMP JUMPDEST DUP3 MSTORE POP POP JUMP JUMPDEST PUSH1 0x0 PUSH1 0xA0 DUP3 ADD SWAP1 POP DUP2 DUP2 SUB PUSH1 0x0 DUP4 ADD MSTORE PUSH2 0x92F DUP2 DUP9 PUSH2 0x8AA JUMP JUMPDEST SWAP1 POP DUP2 DUP2 SUB PUSH1 0x20 DUP4 ADD MSTORE PUSH2 0x943 DUP2 DUP8 PUSH2 0x8AA JUMP JUMPDEST SWAP1 POP PUSH2 0x952 PUSH1 0x40 DUP4 ADD DUP7 PUSH2 0x906 JUMP JUMPDEST DUP2 DUP2 SUB PUSH1 0x60 DUP4 ADD MSTORE PUSH2 0x964 DUP2 DUP6 PUSH2 0x8AA JUMP JUMPDEST SWAP1 POP PUSH2 0x973 PUSH1 0x80 DUP4 ADD DUP5 PUSH2 0x906 JUMP JUMPDEST SWAP7 SWAP6 POP POP POP POP POP POP JUMP JUMPDEST PUSH1 0x0 PUSH1 0x20 DUP3 ADD SWAP1 POP DUP2 DUP2 SUB PUSH1 0x0 DUP4 ADD MSTORE PUSH2 0x996 DUP2 PUSH2 0x8E3 JUMP JUMPDEST SWAP1 POP SWAP2 SWAP1 POP JUMP JUMPDEST PUSH1 0x0 PUSH2 0x9A7 PUSH2 0x9B8 JUMP JUMPDEST SWAP1 POP PUSH2 0x9B3 DUP3 DUP3 PUSH2 0xABF JUMP JUMPDEST SWAP2 SWAP1 POP JUMP JUMPDEST PUSH1 0x0 PUSH1 0x40 MLOAD SWAP1 POP SWAP1 JUMP JUMPDEST PUSH1 0x0 PUSH8 0xFFFFFFFFFFFFFFFF DUP3 GT ISZERO PUSH2 0x9DD JUMPI PUSH2 0x9DC PUSH2 0xB4E JUMP JUMPDEST JUMPDEST PUSH2 0x9E6 DUP3 PUSH2 0xB91 JUMP JUMPDEST SWAP1 POP PUSH1 0x20 DUP2 ADD SWAP1 POP SWAP2 SWAP1 POP JUMP JUMPDEST PUSH1 0x0 DUP2 MLOAD SWAP1 POP SWAP2 SWAP1 POP JUMP JUMPDEST PUSH1 0x0 DUP3 DUP3 MSTORE PUSH1 0x20 DUP3 ADD SWAP1 POP SWAP3 SWAP2 POP POP JUMP JUMPDEST PUSH1 0x0 PUSH2 0xA1A DUP3 PUSH2 0xA21 JUMP JUMPDEST SWAP1 POP SWAP2 SWAP1 POP JUMP JUMPDEST PUSH1 0x0 PUSH20 0xFFFFFFFFFFFFFFFFFFFFFFFFFFFFFFFFFFFFFFFF DUP3 AND SWAP1 POP SWAP2 SWAP1 POP JUMP JUMPDEST PUSH1 0x0 DUP2 SWAP1 POP SWAP2 SWAP1 POP JUMP JUMPDEST DUP3 DUP2 DUP4 CALLDATACOPY PUSH1 0x0 DUP4 DUP4 ADD MSTORE POP POP POP JUMP JUMPDEST PUSH1 0x0 JUMPDEST DUP4 DUP2 LT ISZERO PUSH2 0xA78 JUMPI DUP1 DUP3 ADD MLOAD DUP2 DUP5 ADD MSTORE PUSH1 0x20 DUP2 ADD SWAP1 POP PUSH2 0xA5D JUMP JUMPDEST DUP4 DUP2 GT ISZERO PUSH2 0xA87 JUMPI PUSH1 0x0 DUP5 DUP5 ADD MSTORE JUMPDEST POP POP POP POP JUMP JUMPDEST PUSH1 0x0 PUSH1 0x2 DUP3 DIV SWAP1 POP PUSH1 0x1 DUP3 AND DUP1 PUSH2 0xAA5 JUMPI PUSH1 0x7F DUP3 AND SWAP2 POP JUMPDEST PUSH1 0x20 DUP3 LT DUP2 EQ ISZERO PUSH2 0xAB9 JUMPI PUSH2 0xAB8 PUSH2 0xB1F JUMP JUMPDEST JUMPDEST POP SWAP2 SWAP1 POP JUMP JUMPDEST PUSH2 0xAC8 DUP3 PUSH2 0xB91 JUMP JUMPDEST DUP2 ADD DUP2 DUP2 LT PUSH8 0xFFFFFFFFFFFFFFFF DUP3 GT OR ISZERO PUSH2 0xAE7 JUMPI PUSH2 0xAE6 PUSH2 0xB4E JUMP JUMPDEST JUMPDEST DUP1 PUSH1 0x40 MSTORE POP POP POP JUMP JUMPDEST PUSH32 0x4E487B7100000000000000000000000000000000000000000000000000000000 PUSH1 0x0 MSTORE PUSH1 0x21 PUSH1 0x4 MSTORE PUSH1 0x24 PUSH1 0x0 REVERT JUMPDEST PUSH32 0x4E487B7100000000000000000000000000000000000000000000000000000000 PUSH1 0x0 MSTORE PUSH1 0x22 PUSH1 0x4 MSTORE PUSH1 0x24 PUSH1 0x0 REVERT JUMPDEST PUSH32 0x4E487B7100000000000000000000000000000000000000000000000000000000 PUSH1 0x0 MSTORE PUSH1 0x41 PUSH1 0x4 MSTORE PUSH1 0x24 PUSH1 0x0 REVERT JUMPDEST PUSH1 0x0 DUP1 REVERT JUMPDEST PUSH1 0x0 DUP1 REVERT JUMPDEST PUSH1 0x0 DUP1 REVERT JUMPDEST PUSH1 0x0 DUP1 REVERT JUMPDEST PUSH1 0x0 PUSH1 0x1F NOT PUSH1 0x1F DUP4 ADD AND SWAP1 POP SWAP2 SWAP1 POP JUMP JUMPDEST PUSH32 0x706C656173652073656C6563742074686520636C617373206669727374000000 PUSH1 0x0 DUP3 ADD MSTORE POP JUMP JUMPDEST PUSH2 0xBD4 DUP2 PUSH2 0xA0F JUMP JUMPDEST DUP2 EQ PUSH2 0xBDF JUMPI PUSH1 0x0 DUP1 REVERT JUMPDEST POP JUMP JUMPDEST PUSH2 0xBEB DUP2 PUSH2 0xA41 JUMP JUMPDEST DUP2 EQ PUSH2 0xBF6 JUMPI PUSH1 0x0 DUP1 REVERT JUMPDEST POP JUMP INVALID LOG2 PUSH5 0x6970667358 0x22 SLT KECCAK256 SWAP15 PUSH5 0x5DF5EFEB2F PUSH11 0x554F34D1D8C6045E9D1D8F POP 0xAC PUSH7 0x73CC328116D7F9 0xCC PUSH25 0xA264736F6C6343000807003300000000000000000000000000 "
				},
				"gasEstimates": {
					"creation": {
						"codeDepositCost": "623800",
						"executionCost": "24924",
						"totalCost": "648724"
					},
					"external": {
						"busnissClass()": "infinite",
						"data(address)": "infinite",
						"economyClass()": "infinite",
						"firstClass()": "infinite",
						"setData(string,string,uint256)": "infinite"
					}
				},
				"methodIdentifiers": {
					"busnissClass()": "b24fa0e4",
					"data(address)": "b90d3d0c",
					"economyClass()": "7a1736d1",
					"firstClass()": "50183507",
					"setData(string,string,uint256)": "17ae4589"
				}
			},
			"userdoc": {
				"kind": "user",
				"methods": {},
				"version": 1
			}
		}
	}
}