{
	"finalBlockship.sol": {
		"AirlineTickets": {
			"abi": [
				{
					"inputs": [],
					"stateMutability": "nonpayable",
					"type": "constructor"
				},
				{
					"inputs": [],
					"name": "busnissClass",
					"outputs": [],
					"stateMutability": "nonpayable",
					"type": "function"
				},
				{
					"inputs": [
						{
							"internalType": "address",
							"name": "",
							"type": "address"
						}
					],
					"name": "data",
					"outputs": [
						{
							"internalType": "string",
							"name": "name",
							"type": "string"
						},
						{
							"internalType": "string",
							"name": "des",
							"type": "string"
						},
						{
							"internalType": "uint256",
							"name": "pass_id",
							"type": "uint256"
						},
						{
							"internalType": "string",
							"name": "ticket",
							"type": "string"
						},
						{
							"internalType": "uint256",
							"name": "cost",
							"type": "uint256"
						},
						{
							"internalType": "bool",
							"name": "booked",
							"type": "bool"
						},
						{
							"internalType": "bool",
							"name": "confrim",
							"type": "bool"
						}
					],
					"stateMutability": "view",
					"type": "function"
				},
				{
					"inputs": [],
					"name": "economyClass",
					"outputs": [],
					"stateMutability": "nonpayable",
					"type": "function"
				},
				{
					"inputs": [],
					"name": "firstClass",
					"outputs": [],
					"stateMutability": "nonpayable",
					"type": "function"
				},
				{
					"inputs": [],
					"name": "owner",
					"outputs": [
						{
							"internalType": "address",
							"name": "",
							"type": "address"
						}
					],
					"stateMutability": "view",
					"type": "function"
				},
				{
					"inputs": [],
					"name": "payment",
					"outputs": [],
					"stateMutability": "payable",
					"type": "function"
				},
				{
					"inputs": [],
					"name": "see",
					"outputs": [
						{
							"internalType": "bool",
							"name": "",
							"type": "bool"
						}
					],
					"stateMutability": "view",
					"type": "function"
				},
				{
					"inputs": [
						{
							"internalType": "string",
							"name": "_name",
							"type": "string"
						},
						{
							"internalType": "string",
							"name": "_des",
							"type": "string"
						},
						{
							"internalType": "uint256",
							"name": "_pass_id",
							"type": "uint256"
						}
					],
					"name": "setData",
					"outputs": [],
					"stateMutability": "nonpayable",
					"type": "function"
				}
			],
			"devdoc": {
				"kind": "dev",
				"methods": {},
				"version": 1
			},
			"evm": {
				"assembly": "    /* \"finalBlockship.sol\":70:2815  contract AirlineTickets {\r... */\n  mstore(0x40, 0x80)\n    /* \"finalBlockship.sol\":387:392  1 wei */\n  0x01\n    /* \"finalBlockship.sol\":373:392  uint oneWei = 1 wei */\n  dup1\n  sstore\n    /* \"finalBlockship.sol\":519:524  false */\n  0x00\n    /* \"finalBlockship.sol\":503:524  bool _confrim = false */\n  0x05\n  exp(0x0100, 0x14)\n  dup2\n  sload\n  dup2\n  0xff\n  mul\n  not\n  and\n  swap1\n  dup4\n  iszero\n  iszero\n  mul\n  or\n  swap1\n  sstore\n  pop\n    /* \"finalBlockship.sol\":550:555  false */\n  0x00\n    /* \"finalBlockship.sol\":535:555  bool _booked = false */\n  0x05\n  exp(0x0100, 0x15)\n  dup2\n  sload\n  dup2\n  0xff\n  mul\n  not\n  and\n  swap1\n  dup4\n  iszero\n  iszero\n  mul\n  or\n  swap1\n  sstore\n  pop\n    /* \"finalBlockship.sol\":618:661  constructor() {\r... */\n  callvalue\n  dup1\n  iszero\n  tag_1\n  jumpi\n  0x00\n  dup1\n  revert\ntag_1:\n  pop\n    /* \"finalBlockship.sol\":647:657  msg.sender */\n  caller\n    /* \"finalBlockship.sol\":639:644  owner */\n  0x05\n  0x00\n    /* \"finalBlockship.sol\":639:657  owner = msg.sender */\n  0x0100\n  exp\n  dup2\n  sload\n  dup2\n  0xffffffffffffffffffffffffffffffffffffffff\n  mul\n  not\n  and\n  swap1\n  dup4\n  0xffffffffffffffffffffffffffffffffffffffff\n  and\n  mul\n  or\n  swap1\n  sstore\n  pop\n    /* \"finalBlockship.sol\":70:2815  contract AirlineTickets {\r... */\n  dataSize(sub_0)\n  dup1\n  dataOffset(sub_0)\n  0x00\n  codecopy\n  0x00\n  return\nstop\n\nsub_0: assembly {\n        /* \"finalBlockship.sol\":70:2815  contract AirlineTickets {\r... */\n      mstore(0x40, 0x80)\n      jumpi(tag_1, lt(calldatasize, 0x04))\n      shr(0xe0, calldataload(0x00))\n      dup1\n      0x8da5cb5b\n      gt\n      tag_10\n      jumpi\n      dup1\n      0x8da5cb5b\n      eq\n      tag_6\n      jumpi\n      dup1\n      0x9ae5a2be\n      eq\n      tag_7\n      jumpi\n      dup1\n      0xb24fa0e4\n      eq\n      tag_8\n      jumpi\n      dup1\n      0xb90d3d0c\n      eq\n      tag_9\n      jumpi\n      jump(tag_1)\n    tag_10:\n      dup1\n      0x17ae4589\n      eq\n      tag_2\n      jumpi\n      dup1\n      0x42f6487a\n      eq\n      tag_3\n      jumpi\n      dup1\n      0x50183507\n      eq\n      tag_4\n      jumpi\n      dup1\n      0x7a1736d1\n      eq\n      tag_5\n      jumpi\n    tag_1:\n      0x00\n      dup1\n      revert\n        /* \"finalBlockship.sol\":2484:2812  function setData(string memory _name, string memory _des, uint _pass_id) public {\r... */\n    tag_2:\n      callvalue\n      dup1\n      iszero\n      tag_11\n      jumpi\n      0x00\n      dup1\n      revert\n    tag_11:\n      pop\n      tag_12\n      0x04\n      dup1\n      calldatasize\n      sub\n      dup2\n      add\n      swap1\n      tag_13\n      swap2\n      swap1\n      tag_14\n      jump\t// in\n    tag_13:\n      tag_15\n      jump\t// in\n    tag_12:\n      stop\n        /* \"finalBlockship.sol\":669:1069  function payment() public payable {\r... */\n    tag_3:\n      tag_16\n      tag_17\n      jump\t// in\n    tag_16:\n      stop\n        /* \"finalBlockship.sol\":1611:2028  function firstClass() public {\r... */\n    tag_4:\n      callvalue\n      dup1\n      iszero\n      tag_18\n      jumpi\n      0x00\n      dup1\n      revert\n    tag_18:\n      pop\n      tag_19\n      tag_20\n      jump\t// in\n    tag_19:\n      stop\n        /* \"finalBlockship.sol\":1177:1601  function economyClass() public {\r... */\n    tag_5:\n      callvalue\n      dup1\n      iszero\n      tag_21\n      jumpi\n      0x00\n      dup1\n      revert\n    tag_21:\n      pop\n      tag_22\n      tag_23\n      jump\t// in\n    tag_22:\n      stop\n        /* \"finalBlockship.sol\":472:492  address public owner */\n    tag_6:\n      callvalue\n      dup1\n      iszero\n      tag_24\n      jumpi\n      0x00\n      dup1\n      revert\n    tag_24:\n      pop\n      tag_25\n      tag_26\n      jump\t// in\n    tag_25:\n      mload(0x40)\n      tag_27\n      swap2\n      swap1\n      tag_28\n      jump\t// in\n    tag_27:\n      mload(0x40)\n      dup1\n      swap2\n      sub\n      swap1\n      return\n        /* \"finalBlockship.sol\":1075:1165  function see() public view returns(bool){\r... */\n    tag_7:\n      callvalue\n      dup1\n      iszero\n      tag_29\n      jumpi\n      0x00\n      dup1\n      revert\n    tag_29:\n      pop\n      tag_30\n      tag_31\n      jump\t// in\n    tag_30:\n      mload(0x40)\n      tag_32\n      swap2\n      swap1\n      tag_33\n      jump\t// in\n    tag_32:\n      mload(0x40)\n      dup1\n      swap2\n      sub\n      swap1\n      return\n        /* \"finalBlockship.sol\":2035:2472  function busnissClass() public {\r... */\n    tag_8:\n      callvalue\n      dup1\n      iszero\n      tag_34\n      jumpi\n      0x00\n      dup1\n      revert\n    tag_34:\n      pop\n      tag_35\n      tag_36\n      jump\t// in\n    tag_35:\n      stop\n        /* \"finalBlockship.sol\":576:613  mapping (address => User) public data */\n    tag_9:\n      callvalue\n      dup1\n      iszero\n      tag_37\n      jumpi\n      0x00\n      dup1\n      revert\n    tag_37:\n      pop\n      tag_38\n      0x04\n      dup1\n      calldatasize\n      sub\n      dup2\n      add\n      swap1\n      tag_39\n      swap2\n      swap1\n      tag_40\n      jump\t// in\n    tag_39:\n      tag_41\n      jump\t// in\n    tag_38:\n      mload(0x40)\n      tag_42\n      swap8\n      swap7\n      swap6\n      swap5\n      swap4\n      swap3\n      swap2\n      swap1\n      tag_43\n      jump\t// in\n    tag_42:\n      mload(0x40)\n      dup1\n      swap2\n      sub\n      swap1\n      return\n        /* \"finalBlockship.sol\":2484:2812  function setData(string memory _name, string memory _des, uint _pass_id) public {\r... */\n    tag_15:\n        /* \"finalBlockship.sol\":2663:2667  data */\n      0x06\n        /* \"finalBlockship.sol\":2663:2679  data[msg.sender] */\n      0x00\n        /* \"finalBlockship.sol\":2668:2678  msg.sender */\n      caller\n        /* \"finalBlockship.sol\":2663:2679  data[msg.sender] */\n      0xffffffffffffffffffffffffffffffffffffffff\n      and\n      0xffffffffffffffffffffffffffffffffffffffff\n      and\n      dup2\n      mstore\n      0x20\n      add\n      swap1\n      dup2\n      mstore\n      0x20\n      add\n      0x00\n      keccak256\n        /* \"finalBlockship.sol\":2663:2686  data[msg.sender].booked */\n      0x05\n      add\n      0x00\n      swap1\n      sload\n      swap1\n      0x0100\n      exp\n      swap1\n      div\n      0xff\n      and\n        /* \"finalBlockship.sol\":2655:2719  require(data[msg.sender].booked,\"please select the class first\") */\n      tag_45\n      jumpi\n      mload(0x40)\n      0x08c379a000000000000000000000000000000000000000000000000000000000\n      dup2\n      mstore\n      0x04\n      add\n      tag_46\n      swap1\n      tag_47\n      jump\t// in\n    tag_46:\n      mload(0x40)\n      dup1\n      swap2\n      sub\n      swap1\n      revert\n    tag_45:\n        /* \"finalBlockship.sol\":2748:2804  User(_name,_des,_pass_id,realVal,_cost,_booked,_confrim) */\n      mload(0x40)\n      dup1\n      0xe0\n      add\n      0x40\n      mstore\n      dup1\n        /* \"finalBlockship.sol\":2753:2758  _name */\n      dup5\n        /* \"finalBlockship.sol\":2748:2804  User(_name,_des,_pass_id,realVal,_cost,_booked,_confrim) */\n      dup2\n      mstore\n      0x20\n      add\n        /* \"finalBlockship.sol\":2759:2763  _des */\n      dup4\n        /* \"finalBlockship.sol\":2748:2804  User(_name,_des,_pass_id,realVal,_cost,_booked,_confrim) */\n      dup2\n      mstore\n      0x20\n      add\n        /* \"finalBlockship.sol\":2764:2772  _pass_id */\n      dup3\n        /* \"finalBlockship.sol\":2748:2804  User(_name,_des,_pass_id,realVal,_cost,_booked,_confrim) */\n      dup2\n      mstore\n      0x20\n      add\n        /* \"finalBlockship.sol\":2773:2780  realVal */\n      0x03\n        /* \"finalBlockship.sol\":2748:2804  User(_name,_des,_pass_id,realVal,_cost,_booked,_confrim) */\n      dup1\n      sload\n      tag_48\n      swap1\n      tag_49\n      jump\t// in\n    tag_48:\n      dup1\n      0x1f\n      add\n      0x20\n      dup1\n      swap2\n      div\n      mul\n      0x20\n      add\n      mload(0x40)\n      swap1\n      dup2\n      add\n      0x40\n      mstore\n      dup1\n      swap3\n      swap2\n      swap1\n      dup2\n      dup2\n      mstore\n      0x20\n      add\n      dup3\n      dup1\n      sload\n      tag_50\n      swap1\n      tag_49\n      jump\t// in\n    tag_50:\n      dup1\n      iszero\n      tag_51\n      jumpi\n      dup1\n      0x1f\n      lt\n      tag_52\n      jumpi\n      0x0100\n      dup1\n      dup4\n      sload\n      div\n      mul\n      dup4\n      mstore\n      swap2\n      0x20\n      add\n      swap2\n      jump(tag_51)\n    tag_52:\n      dup3\n      add\n      swap2\n      swap1\n      0x00\n      mstore\n      keccak256(0x00, 0x20)\n      swap1\n    tag_53:\n      dup2\n      sload\n      dup2\n      mstore\n      swap1\n      0x01\n      add\n      swap1\n      0x20\n      add\n      dup1\n      dup4\n      gt\n      tag_53\n      jumpi\n      dup3\n      swap1\n      sub\n      0x1f\n      and\n      dup3\n      add\n      swap2\n    tag_51:\n      pop\n      pop\n      pop\n      pop\n      pop\n      dup2\n      mstore\n      0x20\n      add\n        /* \"finalBlockship.sol\":2781:2786  _cost */\n      sload(0x04)\n        /* \"finalBlockship.sol\":2748:2804  User(_name,_des,_pass_id,realVal,_cost,_booked,_confrim) */\n      dup2\n      mstore\n      0x20\n      add\n        /* \"finalBlockship.sol\":2787:2794  _booked */\n      0x05\n      0x15\n      swap1\n      sload\n      swap1\n      0x0100\n      exp\n      swap1\n      div\n      0xff\n      and\n        /* \"finalBlockship.sol\":2748:2804  User(_name,_des,_pass_id,realVal,_cost,_booked,_confrim) */\n      iszero\n      iszero\n      dup2\n      mstore\n      0x20\n      add\n        /* \"finalBlockship.sol\":2795:2803  _confrim */\n      0x05\n      0x14\n      swap1\n      sload\n      swap1\n      0x0100\n      exp\n      swap1\n      div\n      0xff\n      and\n        /* \"finalBlockship.sol\":2748:2804  User(_name,_des,_pass_id,realVal,_cost,_booked,_confrim) */\n      iszero\n      iszero\n      dup2\n      mstore\n      pop\n        /* \"finalBlockship.sol\":2729:2733  data */\n      0x06\n        /* \"finalBlockship.sol\":2729:2745  data[msg.sender] */\n      0x00\n        /* \"finalBlockship.sol\":2734:2744  msg.sender */\n      caller\n        /* \"finalBlockship.sol\":2729:2745  data[msg.sender] */\n      0xffffffffffffffffffffffffffffffffffffffff\n      and\n      0xffffffffffffffffffffffffffffffffffffffff\n      and\n      dup2\n      mstore\n      0x20\n      add\n      swap1\n      dup2\n      mstore\n      0x20\n      add\n      0x00\n      keccak256\n        /* \"finalBlockship.sol\":2729:2804  data[msg.sender] = User(_name,_des,_pass_id,realVal,_cost,_booked,_confrim) */\n      0x00\n      dup3\n      add\n      mload\n      dup2\n      0x00\n      add\n      swap1\n      dup1\n      mload\n      swap1\n      0x20\n      add\n      swap1\n      tag_54\n      swap3\n      swap2\n      swap1\n      tag_55\n      jump\t// in\n    tag_54:\n      pop\n      0x20\n      dup3\n      add\n      mload\n      dup2\n      0x01\n      add\n      swap1\n      dup1\n      mload\n      swap1\n      0x20\n      add\n      swap1\n      tag_56\n      swap3\n      swap2\n      swap1\n      tag_55\n      jump\t// in\n    tag_56:\n      pop\n      0x40\n      dup3\n      add\n      mload\n      dup2\n      0x02\n      add\n      sstore\n      0x60\n      dup3\n      add\n      mload\n      dup2\n      0x03\n      add\n      swap1\n      dup1\n      mload\n      swap1\n      0x20\n      add\n      swap1\n      tag_57\n      swap3\n      swap2\n      swap1\n      tag_55\n      jump\t// in\n    tag_57:\n      pop\n      0x80\n      dup3\n      add\n      mload\n      dup2\n      0x04\n      add\n      sstore\n      0xa0\n      dup3\n      add\n      mload\n      dup2\n      0x05\n      add\n      exp(0x0100, 0x00)\n      dup2\n      sload\n      dup2\n      0xff\n      mul\n      not\n      and\n      swap1\n      dup4\n      iszero\n      iszero\n      mul\n      or\n      swap1\n      sstore\n      pop\n      0xc0\n      dup3\n      add\n      mload\n      dup2\n      0x05\n      add\n      exp(0x0100, 0x01)\n      dup2\n      sload\n      dup2\n      0xff\n      mul\n      not\n      and\n      swap1\n      dup4\n      iszero\n      iszero\n      mul\n      or\n      swap1\n      sstore\n      pop\n      swap1\n      pop\n      pop\n        /* \"finalBlockship.sol\":2484:2812  function setData(string memory _name, string memory _des, uint _pass_id) public {\r... */\n      pop\n      pop\n      pop\n      jump\t// out\n        /* \"finalBlockship.sol\":669:1069  function payment() public payable {\r... */\n    tag_17:\n        /* \"finalBlockship.sol\":723:727  data */\n      0x06\n        /* \"finalBlockship.sol\":723:739  data[msg.sender] */\n      0x00\n        /* \"finalBlockship.sol\":728:738  msg.sender */\n      caller\n        /* \"finalBlockship.sol\":723:739  data[msg.sender] */\n      0xffffffffffffffffffffffffffffffffffffffff\n      and\n      0xffffffffffffffffffffffffffffffffffffffff\n      and\n      dup2\n      mstore\n      0x20\n      add\n      swap1\n      dup2\n      mstore\n      0x20\n      add\n      0x00\n      keccak256\n        /* \"finalBlockship.sol\":723:747  data[msg.sender].confrim */\n      0x05\n      add\n      0x01\n      swap1\n      sload\n      swap1\n      0x0100\n      exp\n      swap1\n      div\n      0xff\n      and\n        /* \"finalBlockship.sol\":722:747  !data[msg.sender].confrim */\n      iszero\n        /* \"finalBlockship.sol\":714:783  require(!data[msg.sender].confrim,\"You have already paid the amount\") */\n      tag_59\n      jumpi\n      mload(0x40)\n      0x08c379a000000000000000000000000000000000000000000000000000000000\n      dup2\n      mstore\n      0x04\n      add\n      tag_60\n      swap1\n      tag_61\n      jump\t// in\n    tag_60:\n      mload(0x40)\n      dup1\n      swap2\n      sub\n      swap1\n      revert\n    tag_59:\n        /* \"finalBlockship.sol\":815:819  data */\n      0x06\n        /* \"finalBlockship.sol\":815:831  data[msg.sender] */\n      0x00\n        /* \"finalBlockship.sol\":820:830  msg.sender */\n      caller\n        /* \"finalBlockship.sol\":815:831  data[msg.sender] */\n      0xffffffffffffffffffffffffffffffffffffffff\n      and\n      0xffffffffffffffffffffffffffffffffffffffff\n      and\n      dup2\n      mstore\n      0x20\n      add\n      swap1\n      dup2\n      mstore\n      0x20\n      add\n      0x00\n      keccak256\n        /* \"finalBlockship.sol\":815:836  data[msg.sender].cost */\n      0x04\n      add\n      sload\n        /* \"finalBlockship.sol\":802:811  msg.value */\n      callvalue\n        /* \"finalBlockship.sol\":802:836  msg.value >= data[msg.sender].cost */\n      lt\n      iszero\n        /* \"finalBlockship.sol\":794:837  require(msg.value >= data[msg.sender].cost) */\n      tag_62\n      jumpi\n      0x00\n      dup1\n      revert\n    tag_62:\n        /* \"finalBlockship.sol\":856:861  owner */\n      0x05\n      0x00\n      swap1\n      sload\n      swap1\n      0x0100\n      exp\n      swap1\n      div\n      0xffffffffffffffffffffffffffffffffffffffff\n      and\n        /* \"finalBlockship.sol\":848:871  payable(owner).transfer */\n      0xffffffffffffffffffffffffffffffffffffffff\n      and\n        /* \"finalBlockship.sol\":848:882  payable(owner).transfer(msg.value) */\n      0x08fc\n        /* \"finalBlockship.sol\":872:881  msg.value */\n      callvalue\n        /* \"finalBlockship.sol\":848:882  payable(owner).transfer(msg.value) */\n      swap1\n      dup2\n      iszero\n      mul\n      swap1\n      mload(0x40)\n      0x00\n      mload(0x40)\n      dup1\n      dup4\n      sub\n      dup2\n      dup6\n      dup9\n      dup9\n      call\n      swap4\n      pop\n      pop\n      pop\n      pop\n      iszero\n      dup1\n      iszero\n      tag_64\n      jumpi\n      returndatasize\n      0x00\n      dup1\n      returndatacopy\n      revert(0x00, returndatasize)\n    tag_64:\n      pop\n        /* \"finalBlockship.sol\":920:924  true */\n      0x01\n        /* \"finalBlockship.sol\":893:897  data */\n      0x06\n        /* \"finalBlockship.sol\":893:909  data[msg.sender] */\n      0x00\n        /* \"finalBlockship.sol\":898:908  msg.sender */\n      caller\n        /* \"finalBlockship.sol\":893:909  data[msg.sender] */\n      0xffffffffffffffffffffffffffffffffffffffff\n      and\n      0xffffffffffffffffffffffffffffffffffffffff\n      and\n      dup2\n      mstore\n      0x20\n      add\n      swap1\n      dup2\n      mstore\n      0x20\n      add\n      0x00\n      keccak256\n        /* \"finalBlockship.sol\":893:917  data[msg.sender].confrim */\n      0x05\n      add\n      0x01\n        /* \"finalBlockship.sol\":893:924  data[msg.sender].confrim = true */\n      0x0100\n      exp\n      dup2\n      sload\n      dup2\n      0xff\n      mul\n      not\n      and\n      swap1\n      dup4\n      iszero\n      iszero\n      mul\n      or\n      swap1\n      sstore\n      pop\n        /* \"finalBlockship.sol\":946:950  data */\n      0x06\n        /* \"finalBlockship.sol\":946:962  data[msg.sender] */\n      0x00\n        /* \"finalBlockship.sol\":951:961  msg.sender */\n      caller\n        /* \"finalBlockship.sol\":946:962  data[msg.sender] */\n      0xffffffffffffffffffffffffffffffffffffffff\n      and\n      0xffffffffffffffffffffffffffffffffffffffff\n      and\n      dup2\n      mstore\n      0x20\n      add\n      swap1\n      dup2\n      mstore\n      0x20\n      add\n      0x00\n      keccak256\n        /* \"finalBlockship.sol\":946:970  data[msg.sender].confrim */\n      0x05\n      add\n      0x01\n      swap1\n      sload\n      swap1\n      0x0100\n      exp\n      swap1\n      div\n      0xff\n      and\n        /* \"finalBlockship.sol\":935:943  _confrim */\n      0x05\n      0x14\n        /* \"finalBlockship.sol\":935:970  _confrim = data[msg.sender].confrim */\n      0x0100\n      exp\n      dup2\n      sload\n      dup2\n      0xff\n      mul\n      not\n      and\n      swap1\n      dup4\n      iszero\n      iszero\n      mul\n      or\n      swap1\n      sstore\n      pop\n        /* \"finalBlockship.sol\":984:988  data */\n      0x06\n        /* \"finalBlockship.sol\":984:1000  data[msg.sender] */\n      0x00\n        /* \"finalBlockship.sol\":989:999  msg.sender */\n      caller\n        /* \"finalBlockship.sol\":984:1000  data[msg.sender] */\n      0xffffffffffffffffffffffffffffffffffffffff\n      and\n      0xffffffffffffffffffffffffffffffffffffffff\n      and\n      dup2\n      mstore\n      0x20\n      add\n      swap1\n      dup2\n      mstore\n      0x20\n      add\n      0x00\n      keccak256\n        /* \"finalBlockship.sol\":984:1008  data[msg.sender].confrim */\n      0x05\n      add\n      0x01\n      swap1\n      sload\n      swap1\n      0x0100\n      exp\n      swap1\n      div\n      0xff\n      and\n        /* \"finalBlockship.sol\":981:1060  if(data[msg.sender].confrim) {\r... */\n      iszero\n      tag_65\n      jumpi\n        /* \"finalBlockship.sol\":1032:1036  data */\n      0x06\n        /* \"finalBlockship.sol\":1032:1048  data[msg.sender] */\n      0x00\n        /* \"finalBlockship.sol\":1037:1047  msg.sender */\n      caller\n        /* \"finalBlockship.sol\":1032:1048  data[msg.sender] */\n      0xffffffffffffffffffffffffffffffffffffffff\n      and\n      0xffffffffffffffffffffffffffffffffffffffff\n      and\n      dup2\n      mstore\n      0x20\n      add\n      swap1\n      dup2\n      mstore\n      0x20\n      add\n      0x00\n      keccak256\n      0x00\n        /* \"finalBlockship.sol\":1025:1048  delete data[msg.sender] */\n      dup1\n      dup3\n      add\n      0x00\n      tag_66\n      swap2\n      swap1\n      tag_67\n      jump\t// in\n    tag_66:\n      0x01\n      dup3\n      add\n      0x00\n      tag_68\n      swap2\n      swap1\n      tag_67\n      jump\t// in\n    tag_68:\n      0x02\n      dup3\n      add\n      0x00\n      swap1\n      sstore\n      0x03\n      dup3\n      add\n      0x00\n      tag_69\n      swap2\n      swap1\n      tag_67\n      jump\t// in\n    tag_69:\n      0x04\n      dup3\n      add\n      0x00\n      swap1\n      sstore\n      0x05\n      dup3\n      add\n      exp(0x0100, 0x00)\n      dup2\n      sload\n      swap1\n      0xff\n      mul\n      not\n      and\n      swap1\n      sstore\n      0x05\n      dup3\n      add\n      exp(0x0100, 0x01)\n      dup2\n      sload\n      swap1\n      0xff\n      mul\n      not\n      and\n      swap1\n      sstore\n      pop\n      pop\n        /* \"finalBlockship.sol\":981:1060  if(data[msg.sender].confrim) {\r... */\n    tag_65:\n        /* \"finalBlockship.sol\":669:1069  function payment() public payable {\r... */\n      jump\t// out\n        /* \"finalBlockship.sol\":1611:2028  function firstClass() public {\r... */\n    tag_20:\n        /* \"finalBlockship.sol\":1660:1664  data */\n      0x06\n        /* \"finalBlockship.sol\":1660:1676  data[msg.sender] */\n      0x00\n        /* \"finalBlockship.sol\":1665:1675  msg.sender */\n      caller\n        /* \"finalBlockship.sol\":1660:1676  data[msg.sender] */\n      0xffffffffffffffffffffffffffffffffffffffff\n      and\n      0xffffffffffffffffffffffffffffffffffffffff\n      and\n      dup2\n      mstore\n      0x20\n      add\n      swap1\n      dup2\n      mstore\n      0x20\n      add\n      0x00\n      keccak256\n        /* \"finalBlockship.sol\":1660:1683  data[msg.sender].booked */\n      0x05\n      add\n      0x00\n      swap1\n      sload\n      swap1\n      0x0100\n      exp\n      swap1\n      div\n      0xff\n      and\n        /* \"finalBlockship.sol\":1659:1683  !data[msg.sender].booked */\n      iszero\n        /* \"finalBlockship.sol\":1651:1717  require(!data[msg.sender].booked, \"you have already book a class\") */\n      tag_71\n      jumpi\n      mload(0x40)\n      0x08c379a000000000000000000000000000000000000000000000000000000000\n      dup2\n      mstore\n      0x04\n      add\n      tag_72\n      swap1\n      tag_73\n      jump\t// in\n    tag_72:\n      mload(0x40)\n      dup1\n      swap2\n      sub\n      swap1\n      revert\n    tag_71:\n        /* \"finalBlockship.sol\":1733:1754  classTypes.firstClass */\n      0x00\n        /* \"finalBlockship.sol\":1729:1731  u1 */\n      dup1\n      0x00\n        /* \"finalBlockship.sol\":1729:1754  u1= classTypes.firstClass */\n      0x0100\n      exp\n      dup2\n      sload\n      dup2\n      0xff\n      mul\n      not\n      and\n      swap1\n      dup4\n      0x02\n      dup2\n      gt\n      iszero\n      tag_74\n      jumpi\n      tag_75\n      tag_76\n      jump\t// in\n    tag_75:\n    tag_74:\n      mul\n      or\n      swap1\n      sstore\n      pop\n        /* \"finalBlockship.sol\":1785:1787  u1 */\n      0x00\n      dup1\n      sload\n      swap1\n      0x0100\n      exp\n      swap1\n      div\n      0xff\n      and\n        /* \"finalBlockship.sol\":1780:1788  uint(u1) */\n      0x02\n      dup2\n      gt\n      iszero\n      tag_77\n      jumpi\n      tag_78\n      tag_76\n      jump\t// in\n    tag_78:\n    tag_77:\n        /* \"finalBlockship.sol\":1770:1777  convert */\n      0x02\n        /* \"finalBlockship.sol\":1770:1788  convert = uint(u1) */\n      dup2\n      swap1\n      sstore\n      pop\n        /* \"finalBlockship.sol\":1816:1817  0 */\n      0x00\n        /* \"finalBlockship.sol\":1807:1814  convert */\n      sload(0x02)\n        /* \"finalBlockship.sol\":1807:1817  convert==0 */\n      eq\n        /* \"finalBlockship.sol\":1804:2021  if(convert==0){\r... */\n      iszero\n      tag_79\n      jumpi\n        /* \"finalBlockship.sol\":1837:1860  realVal = \"First Class\" */\n      mload(0x40)\n      dup1\n      0x40\n      add\n      0x40\n      mstore\n      dup1\n      0x0b\n      dup2\n      mstore\n      0x20\n      add\n      0x466972737420436c617373000000000000000000000000000000000000000000\n      dup2\n      mstore\n      pop\n        /* \"finalBlockship.sol\":1837:1844  realVal */\n      0x03\n        /* \"finalBlockship.sol\":1837:1860  realVal = \"First Class\" */\n      swap1\n      dup1\n      mload\n      swap1\n      0x20\n      add\n      swap1\n      tag_80\n      swap3\n      swap2\n      swap1\n      tag_55\n      jump\t// in\n    tag_80:\n      pop\n        /* \"finalBlockship.sol\":1896:1900  1e16 */\n      0x2386f26fc10000\n        /* \"finalBlockship.sol\":1887:1893  oneWei */\n      sload(0x01)\n        /* \"finalBlockship.sol\":1887:1900  oneWei * 1e16 */\n      tag_81\n      swap2\n      swap1\n      tag_82\n      jump\t// in\n    tag_81:\n        /* \"finalBlockship.sol\":1879:1884  _cost */\n      0x04\n        /* \"finalBlockship.sol\":1879:1900  _cost = oneWei * 1e16 */\n      dup2\n      swap1\n      sstore\n      pop\n        /* \"finalBlockship.sol\":1946:1950  true */\n      0x01\n        /* \"finalBlockship.sol\":1920:1924  data */\n      0x06\n        /* \"finalBlockship.sol\":1920:1936  data[msg.sender] */\n      0x00\n        /* \"finalBlockship.sol\":1925:1935  msg.sender */\n      caller\n        /* \"finalBlockship.sol\":1920:1936  data[msg.sender] */\n      0xffffffffffffffffffffffffffffffffffffffff\n      and\n      0xffffffffffffffffffffffffffffffffffffffff\n      and\n      dup2\n      mstore\n      0x20\n      add\n      swap1\n      dup2\n      mstore\n      0x20\n      add\n      0x00\n      keccak256\n        /* \"finalBlockship.sol\":1920:1943  data[msg.sender].booked */\n      0x05\n      add\n      0x00\n        /* \"finalBlockship.sol\":1920:1950  data[msg.sender].booked = true */\n      0x0100\n      exp\n      dup2\n      sload\n      dup2\n      0xff\n      mul\n      not\n      and\n      swap1\n      dup4\n      iszero\n      iszero\n      mul\n      or\n      swap1\n      sstore\n      pop\n        /* \"finalBlockship.sol\":1981:1985  data */\n      0x06\n        /* \"finalBlockship.sol\":1981:1997  data[msg.sender] */\n      0x00\n        /* \"finalBlockship.sol\":1986:1996  msg.sender */\n      caller\n        /* \"finalBlockship.sol\":1981:1997  data[msg.sender] */\n      0xffffffffffffffffffffffffffffffffffffffff\n      and\n      0xffffffffffffffffffffffffffffffffffffffff\n      and\n      dup2\n      mstore\n      0x20\n      add\n      swap1\n      dup2\n      mstore\n      0x20\n      add\n      0x00\n      keccak256\n        /* \"finalBlockship.sol\":1981:2004  data[msg.sender].booked */\n      0x05\n      add\n      0x00\n      swap1\n      sload\n      swap1\n      0x0100\n      exp\n      swap1\n      div\n      0xff\n      and\n        /* \"finalBlockship.sol\":1970:1977  _booked */\n      0x05\n      0x15\n        /* \"finalBlockship.sol\":1970:2004  _booked =  data[msg.sender].booked */\n      0x0100\n      exp\n      dup2\n      sload\n      dup2\n      0xff\n      mul\n      not\n      and\n      swap1\n      dup4\n      iszero\n      iszero\n      mul\n      or\n      swap1\n      sstore\n      pop\n        /* \"finalBlockship.sol\":1804:2021  if(convert==0){\r... */\n    tag_79:\n        /* \"finalBlockship.sol\":1611:2028  function firstClass() public {\r... */\n      jump\t// out\n        /* \"finalBlockship.sol\":1177:1601  function economyClass() public {\r... */\n    tag_23:\n        /* \"finalBlockship.sol\":1228:1232  data */\n      0x06\n        /* \"finalBlockship.sol\":1228:1244  data[msg.sender] */\n      0x00\n        /* \"finalBlockship.sol\":1233:1243  msg.sender */\n      caller\n        /* \"finalBlockship.sol\":1228:1244  data[msg.sender] */\n      0xffffffffffffffffffffffffffffffffffffffff\n      and\n      0xffffffffffffffffffffffffffffffffffffffff\n      and\n      dup2\n      mstore\n      0x20\n      add\n      swap1\n      dup2\n      mstore\n      0x20\n      add\n      0x00\n      keccak256\n        /* \"finalBlockship.sol\":1228:1251  data[msg.sender].booked */\n      0x05\n      add\n      0x00\n      swap1\n      sload\n      swap1\n      0x0100\n      exp\n      swap1\n      div\n      0xff\n      and\n        /* \"finalBlockship.sol\":1227:1251  !data[msg.sender].booked */\n      iszero\n        /* \"finalBlockship.sol\":1219:1285  require(!data[msg.sender].booked, \"you have already book a class\") */\n      tag_84\n      jumpi\n      mload(0x40)\n      0x08c379a000000000000000000000000000000000000000000000000000000000\n      dup2\n      mstore\n      0x04\n      add\n      tag_85\n      swap1\n      tag_73\n      jump\t// in\n    tag_85:\n      mload(0x40)\n      dup1\n      swap2\n      sub\n      swap1\n      revert\n    tag_84:\n        /* \"finalBlockship.sol\":1301:1324  classTypes.economyClass */\n      0x01\n        /* \"finalBlockship.sol\":1297:1299  u1 */\n      0x00\n      dup1\n        /* \"finalBlockship.sol\":1297:1324  u1= classTypes.economyClass */\n      0x0100\n      exp\n      dup2\n      sload\n      dup2\n      0xff\n      mul\n      not\n      and\n      swap1\n      dup4\n      0x02\n      dup2\n      gt\n      iszero\n      tag_86\n      jumpi\n      tag_87\n      tag_76\n      jump\t// in\n    tag_87:\n    tag_86:\n      mul\n      or\n      swap1\n      sstore\n      pop\n        /* \"finalBlockship.sol\":1355:1357  u1 */\n      0x00\n      dup1\n      sload\n      swap1\n      0x0100\n      exp\n      swap1\n      div\n      0xff\n      and\n        /* \"finalBlockship.sol\":1350:1358  uint(u1) */\n      0x02\n      dup2\n      gt\n      iszero\n      tag_88\n      jumpi\n      tag_89\n      tag_76\n      jump\t// in\n    tag_89:\n    tag_88:\n        /* \"finalBlockship.sol\":1340:1347  convert */\n      0x02\n        /* \"finalBlockship.sol\":1340:1358  convert = uint(u1) */\n      dup2\n      swap1\n      sstore\n      pop\n        /* \"finalBlockship.sol\":1386:1387  1 */\n      0x01\n        /* \"finalBlockship.sol\":1377:1384  convert */\n      sload(0x02)\n        /* \"finalBlockship.sol\":1377:1387  convert==1 */\n      eq\n        /* \"finalBlockship.sol\":1374:1594  if(convert==1){\r... */\n      iszero\n      tag_90\n      jumpi\n        /* \"finalBlockship.sol\":1407:1432  realVal = \"Economy Class\" */\n      mload(0x40)\n      dup1\n      0x40\n      add\n      0x40\n      mstore\n      dup1\n      0x0d\n      dup2\n      mstore\n      0x20\n      add\n      0x45636f6e6f6d7920436c61737300000000000000000000000000000000000000\n      dup2\n      mstore\n      pop\n        /* \"finalBlockship.sol\":1407:1414  realVal */\n      0x03\n        /* \"finalBlockship.sol\":1407:1432  realVal = \"Economy Class\" */\n      swap1\n      dup1\n      mload\n      swap1\n      0x20\n      add\n      swap1\n      tag_91\n      swap3\n      swap2\n      swap1\n      tag_55\n      jump\t// in\n    tag_91:\n      pop\n        /* \"finalBlockship.sol\":1469:1473  5e15 */\n      0x11c37937e08000\n        /* \"finalBlockship.sol\":1460:1466  oneWei */\n      sload(0x01)\n        /* \"finalBlockship.sol\":1460:1473  oneWei * 5e15 */\n      tag_92\n      swap2\n      swap1\n      tag_82\n      jump\t// in\n    tag_92:\n        /* \"finalBlockship.sol\":1452:1457  _cost */\n      0x04\n        /* \"finalBlockship.sol\":1452:1473  _cost = oneWei * 5e15 */\n      dup2\n      swap1\n      sstore\n      pop\n        /* \"finalBlockship.sol\":1519:1523  true */\n      0x01\n        /* \"finalBlockship.sol\":1493:1497  data */\n      0x06\n        /* \"finalBlockship.sol\":1493:1509  data[msg.sender] */\n      0x00\n        /* \"finalBlockship.sol\":1498:1508  msg.sender */\n      caller\n        /* \"finalBlockship.sol\":1493:1509  data[msg.sender] */\n      0xffffffffffffffffffffffffffffffffffffffff\n      and\n      0xffffffffffffffffffffffffffffffffffffffff\n      and\n      dup2\n      mstore\n      0x20\n      add\n      swap1\n      dup2\n      mstore\n      0x20\n      add\n      0x00\n      keccak256\n        /* \"finalBlockship.sol\":1493:1516  data[msg.sender].booked */\n      0x05\n      add\n      0x00\n        /* \"finalBlockship.sol\":1493:1523  data[msg.sender].booked = true */\n      0x0100\n      exp\n      dup2\n      sload\n      dup2\n      0xff\n      mul\n      not\n      and\n      swap1\n      dup4\n      iszero\n      iszero\n      mul\n      or\n      swap1\n      sstore\n      pop\n        /* \"finalBlockship.sol\":1554:1558  data */\n      0x06\n        /* \"finalBlockship.sol\":1554:1570  data[msg.sender] */\n      0x00\n        /* \"finalBlockship.sol\":1559:1569  msg.sender */\n      caller\n        /* \"finalBlockship.sol\":1554:1570  data[msg.sender] */\n      0xffffffffffffffffffffffffffffffffffffffff\n      and\n      0xffffffffffffffffffffffffffffffffffffffff\n      and\n      dup2\n      mstore\n      0x20\n      add\n      swap1\n      dup2\n      mstore\n      0x20\n      add\n      0x00\n      keccak256\n        /* \"finalBlockship.sol\":1554:1577  data[msg.sender].booked */\n      0x05\n      add\n      0x00\n      swap1\n      sload\n      swap1\n      0x0100\n      exp\n      swap1\n      div\n      0xff\n      and\n        /* \"finalBlockship.sol\":1543:1550  _booked */\n      0x05\n      0x15\n        /* \"finalBlockship.sol\":1543:1577  _booked =  data[msg.sender].booked */\n      0x0100\n      exp\n      dup2\n      sload\n      dup2\n      0xff\n      mul\n      not\n      and\n      swap1\n      dup4\n      iszero\n      iszero\n      mul\n      or\n      swap1\n      sstore\n      pop\n        /* \"finalBlockship.sol\":1374:1594  if(convert==1){\r... */\n    tag_90:\n        /* \"finalBlockship.sol\":1177:1601  function economyClass() public {\r... */\n      jump\t// out\n        /* \"finalBlockship.sol\":472:492  address public owner */\n    tag_26:\n      0x05\n      0x00\n      swap1\n      sload\n      swap1\n      0x0100\n      exp\n      swap1\n      div\n      0xffffffffffffffffffffffffffffffffffffffff\n      and\n      dup2\n      jump\t// out\n        /* \"finalBlockship.sol\":1075:1165  function see() public view returns(bool){\r... */\n    tag_31:\n        /* \"finalBlockship.sol\":1110:1114  bool */\n      0x00\n        /* \"finalBlockship.sol\":1133:1137  data */\n      0x06\n        /* \"finalBlockship.sol\":1133:1149  data[msg.sender] */\n      0x00\n        /* \"finalBlockship.sol\":1138:1148  msg.sender */\n      caller\n        /* \"finalBlockship.sol\":1133:1149  data[msg.sender] */\n      0xffffffffffffffffffffffffffffffffffffffff\n      and\n      0xffffffffffffffffffffffffffffffffffffffff\n      and\n      dup2\n      mstore\n      0x20\n      add\n      swap1\n      dup2\n      mstore\n      0x20\n      add\n      0x00\n      keccak256\n        /* \"finalBlockship.sol\":1133:1157  data[msg.sender].confrim */\n      0x05\n      add\n      0x01\n      swap1\n      sload\n      swap1\n      0x0100\n      exp\n      swap1\n      div\n      0xff\n      and\n        /* \"finalBlockship.sol\":1126:1157  return data[msg.sender].confrim */\n      swap1\n      pop\n        /* \"finalBlockship.sol\":1075:1165  function see() public view returns(bool){\r... */\n      swap1\n      jump\t// out\n        /* \"finalBlockship.sol\":2035:2472  function busnissClass() public {\r... */\n    tag_36:\n        /* \"finalBlockship.sol\":2095:2099  data */\n      0x06\n        /* \"finalBlockship.sol\":2095:2111  data[msg.sender] */\n      0x00\n        /* \"finalBlockship.sol\":2100:2110  msg.sender */\n      caller\n        /* \"finalBlockship.sol\":2095:2111  data[msg.sender] */\n      0xffffffffffffffffffffffffffffffffffffffff\n      and\n      0xffffffffffffffffffffffffffffffffffffffff\n      and\n      dup2\n      mstore\n      0x20\n      add\n      swap1\n      dup2\n      mstore\n      0x20\n      add\n      0x00\n      keccak256\n        /* \"finalBlockship.sol\":2095:2118  data[msg.sender].booked */\n      0x05\n      add\n      0x00\n      swap1\n      sload\n      swap1\n      0x0100\n      exp\n      swap1\n      div\n      0xff\n      and\n        /* \"finalBlockship.sol\":2094:2118  !data[msg.sender].booked */\n      iszero\n        /* \"finalBlockship.sol\":2086:2152  require(!data[msg.sender].booked, \"you have already book a class\") */\n      tag_95\n      jumpi\n      mload(0x40)\n      0x08c379a000000000000000000000000000000000000000000000000000000000\n      dup2\n      mstore\n      0x04\n      add\n      tag_96\n      swap1\n      tag_73\n      jump\t// in\n    tag_96:\n      mload(0x40)\n      dup1\n      swap2\n      sub\n      swap1\n      revert\n    tag_95:\n        /* \"finalBlockship.sol\":2168:2191  classTypes.busnissClass */\n      0x02\n        /* \"finalBlockship.sol\":2164:2166  u1 */\n      0x00\n      dup1\n        /* \"finalBlockship.sol\":2164:2191  u1= classTypes.busnissClass */\n      0x0100\n      exp\n      dup2\n      sload\n      dup2\n      0xff\n      mul\n      not\n      and\n      swap1\n      dup4\n      0x02\n      dup2\n      gt\n      iszero\n      tag_97\n      jumpi\n      tag_98\n      tag_76\n      jump\t// in\n    tag_98:\n    tag_97:\n      mul\n      or\n      swap1\n      sstore\n      pop\n        /* \"finalBlockship.sol\":2222:2224  u1 */\n      0x00\n      dup1\n      sload\n      swap1\n      0x0100\n      exp\n      swap1\n      div\n      0xff\n      and\n        /* \"finalBlockship.sol\":2217:2225  uint(u1) */\n      0x02\n      dup2\n      gt\n      iszero\n      tag_99\n      jumpi\n      tag_100\n      tag_76\n      jump\t// in\n    tag_100:\n    tag_99:\n        /* \"finalBlockship.sol\":2207:2214  convert */\n      0x02\n        /* \"finalBlockship.sol\":2207:2225  convert = uint(u1) */\n      dup2\n      swap1\n      sstore\n      pop\n        /* \"finalBlockship.sol\":2253:2254  2 */\n      0x02\n        /* \"finalBlockship.sol\":2244:2251  convert */\n      dup1\n      sload\n        /* \"finalBlockship.sol\":2244:2254  convert==2 */\n      eq\n        /* \"finalBlockship.sol\":2241:2465  if(convert==2){\r... */\n      iszero\n      tag_101\n      jumpi\n        /* \"finalBlockship.sol\":2274:2300  realVal = \"Business Class\" */\n      mload(0x40)\n      dup1\n      0x40\n      add\n      0x40\n      mstore\n      dup1\n      0x0e\n      dup2\n      mstore\n      0x20\n      add\n      0x427573696e65737320436c617373000000000000000000000000000000000000\n      dup2\n      mstore\n      pop\n        /* \"finalBlockship.sol\":2274:2281  realVal */\n      0x03\n        /* \"finalBlockship.sol\":2274:2300  realVal = \"Business Class\" */\n      swap1\n      dup1\n      mload\n      swap1\n      0x20\n      add\n      swap1\n      tag_102\n      swap3\n      swap2\n      swap1\n      tag_55\n      jump\t// in\n    tag_102:\n      pop\n        /* \"finalBlockship.sol\":2336:2340  7e15 */\n      0x18de76816d8000\n        /* \"finalBlockship.sol\":2327:2333  oneWei */\n      sload(0x01)\n        /* \"finalBlockship.sol\":2327:2340  oneWei * 7e15 */\n      tag_103\n      swap2\n      swap1\n      tag_82\n      jump\t// in\n    tag_103:\n        /* \"finalBlockship.sol\":2319:2324  _cost */\n      0x04\n        /* \"finalBlockship.sol\":2319:2340  _cost = oneWei * 7e15 */\n      dup2\n      swap1\n      sstore\n      pop\n        /* \"finalBlockship.sol\":2388:2392  true */\n      0x01\n        /* \"finalBlockship.sol\":2362:2366  data */\n      0x06\n        /* \"finalBlockship.sol\":2362:2378  data[msg.sender] */\n      0x00\n        /* \"finalBlockship.sol\":2367:2377  msg.sender */\n      caller\n        /* \"finalBlockship.sol\":2362:2378  data[msg.sender] */\n      0xffffffffffffffffffffffffffffffffffffffff\n      and\n      0xffffffffffffffffffffffffffffffffffffffff\n      and\n      dup2\n      mstore\n      0x20\n      add\n      swap1\n      dup2\n      mstore\n      0x20\n      add\n      0x00\n      keccak256\n        /* \"finalBlockship.sol\":2362:2385  data[msg.sender].booked */\n      0x05\n      add\n      0x00\n        /* \"finalBlockship.sol\":2362:2392  data[msg.sender].booked = true */\n      0x0100\n      exp\n      dup2\n      sload\n      dup2\n      0xff\n      mul\n      not\n      and\n      swap1\n      dup4\n      iszero\n      iszero\n      mul\n      or\n      swap1\n      sstore\n      pop\n        /* \"finalBlockship.sol\":2425:2429  data */\n      0x06\n        /* \"finalBlockship.sol\":2425:2441  data[msg.sender] */\n      0x00\n        /* \"finalBlockship.sol\":2430:2440  msg.sender */\n      caller\n        /* \"finalBlockship.sol\":2425:2441  data[msg.sender] */\n      0xffffffffffffffffffffffffffffffffffffffff\n      and\n      0xffffffffffffffffffffffffffffffffffffffff\n      and\n      dup2\n      mstore\n      0x20\n      add\n      swap1\n      dup2\n      mstore\n      0x20\n      add\n      0x00\n      keccak256\n        /* \"finalBlockship.sol\":2425:2448  data[msg.sender].booked */\n      0x05\n      add\n      0x00\n      swap1\n      sload\n      swap1\n      0x0100\n      exp\n      swap1\n      div\n      0xff\n      and\n        /* \"finalBlockship.sol\":2414:2421  _booked */\n      0x05\n      0x15\n        /* \"finalBlockship.sol\":2414:2448  _booked =  data[msg.sender].booked */\n      0x0100\n      exp\n      dup2\n      sload\n      dup2\n      0xff\n      mul\n      not\n      and\n      swap1\n      dup4\n      iszero\n      iszero\n      mul\n      or\n      swap1\n      sstore\n      pop\n        /* \"finalBlockship.sol\":2241:2465  if(convert==2){\r... */\n    tag_101:\n        /* \"finalBlockship.sol\":2035:2472  function busnissClass() public {\r... */\n      jump\t// out\n        /* \"finalBlockship.sol\":576:613  mapping (address => User) public data */\n    tag_41:\n      mstore(0x20, 0x06)\n      dup1\n      0x00\n      mstore\n      keccak256(0x00, 0x40)\n      0x00\n      swap2\n      pop\n      swap1\n      pop\n      dup1\n      0x00\n      add\n      dup1\n      sload\n      tag_104\n      swap1\n      tag_49\n      jump\t// in\n    tag_104:\n      dup1\n      0x1f\n      add\n      0x20\n      dup1\n      swap2\n      div\n      mul\n      0x20\n      add\n      mload(0x40)\n      swap1\n      dup2\n      add\n      0x40\n      mstore\n      dup1\n      swap3\n      swap2\n      swap1\n      dup2\n      dup2\n      mstore\n      0x20\n      add\n      dup3\n      dup1\n      sload\n      tag_105\n      swap1\n      tag_49\n      jump\t// in\n    tag_105:\n      dup1\n      iszero\n      tag_106\n      jumpi\n      dup1\n      0x1f\n      lt\n      tag_107\n      jumpi\n      0x0100\n      dup1\n      dup4\n      sload\n      div\n      mul\n      dup4\n      mstore\n      swap2\n      0x20\n      add\n      swap2\n      jump(tag_106)\n    tag_107:\n      dup3\n      add\n      swap2\n      swap1\n      0x00\n      mstore\n      keccak256(0x00, 0x20)\n      swap1\n    tag_108:\n      dup2\n      sload\n      dup2\n      mstore\n      swap1\n      0x01\n      add\n      swap1\n      0x20\n      add\n      dup1\n      dup4\n      gt\n      tag_108\n      jumpi\n      dup3\n      swap1\n      sub\n      0x1f\n      and\n      dup3\n      add\n      swap2\n    tag_106:\n      pop\n      pop\n      pop\n      pop\n      pop\n      swap1\n      dup1\n      0x01\n      add\n      dup1\n      sload\n      tag_109\n      swap1\n      tag_49\n      jump\t// in\n    tag_109:\n      dup1\n      0x1f\n      add\n      0x20\n      dup1\n      swap2\n      div\n      mul\n      0x20\n      add\n      mload(0x40)\n      swap1\n      dup2\n      add\n      0x40\n      mstore\n      dup1\n      swap3\n      swap2\n      swap1\n      dup2\n      dup2\n      mstore\n      0x20\n      add\n      dup3\n      dup1\n      sload\n      tag_110\n      swap1\n      tag_49\n      jump\t// in\n    tag_110:\n      dup1\n      iszero\n      tag_111\n      jumpi\n      dup1\n      0x1f\n      lt\n      tag_112\n      jumpi\n      0x0100\n      dup1\n      dup4\n      sload\n      div\n      mul\n      dup4\n      mstore\n      swap2\n      0x20\n      add\n      swap2\n      jump(tag_111)\n    tag_112:\n      dup3\n      add\n      swap2\n      swap1\n      0x00\n      mstore\n      keccak256(0x00, 0x20)\n      swap1\n    tag_113:\n      dup2\n      sload\n      dup2\n      mstore\n      swap1\n      0x01\n      add\n      swap1\n      0x20\n      add\n      dup1\n      dup4\n      gt\n      tag_113\n      jumpi\n      dup3\n      swap1\n      sub\n      0x1f\n      and\n      dup3\n      add\n      swap2\n    tag_111:\n      pop\n      pop\n      pop\n      pop\n      pop\n      swap1\n      dup1\n      0x02\n      add\n      sload\n      swap1\n      dup1\n      0x03\n      add\n      dup1\n      sload\n      tag_114\n      swap1\n      tag_49\n      jump\t// in\n    tag_114:\n      dup1\n      0x1f\n      add\n      0x20\n      dup1\n      swap2\n      div\n      mul\n      0x20\n      add\n      mload(0x40)\n      swap1\n      dup2\n      add\n      0x40\n      mstore\n      dup1\n      swap3\n      swap2\n      swap1\n      dup2\n      dup2\n      mstore\n      0x20\n      add\n      dup3\n      dup1\n      sload\n      tag_115\n      swap1\n      tag_49\n      jump\t// in\n    tag_115:\n      dup1\n      iszero\n      tag_116\n      jumpi\n      dup1\n      0x1f\n      lt\n      tag_117\n      jumpi\n      0x0100\n      dup1\n      dup4\n      sload\n      div\n      mul\n      dup4\n      mstore\n      swap2\n      0x20\n      add\n      swap2\n      jump(tag_116)\n    tag_117:\n      dup3\n      add\n      swap2\n      swap1\n      0x00\n      mstore\n      keccak256(0x00, 0x20)\n      swap1\n    tag_118:\n      dup2\n      sload\n      dup2\n      mstore\n      swap1\n      0x01\n      add\n      swap1\n      0x20\n      add\n      dup1\n      dup4\n      gt\n      tag_118\n      jumpi\n      dup3\n      swap1\n      sub\n      0x1f\n      and\n      dup3\n      add\n      swap2\n    tag_116:\n      pop\n      pop\n      pop\n      pop\n      pop\n      swap1\n      dup1\n      0x04\n      add\n      sload\n      swap1\n      dup1\n      0x05\n      add\n      0x00\n      swap1\n      sload\n      swap1\n      0x0100\n      exp\n      swap1\n      div\n      0xff\n      and\n      swap1\n      dup1\n      0x05\n      add\n      0x01\n      swap1\n      sload\n      swap1\n      0x0100\n      exp\n      swap1\n      div\n      0xff\n      and\n      swap1\n      pop\n      dup8\n      jump\t// out\n    tag_55:\n      dup3\n      dup1\n      sload\n      tag_119\n      swap1\n      tag_49\n      jump\t// in\n    tag_119:\n      swap1\n      0x00\n      mstore\n      keccak256(0x00, 0x20)\n      swap1\n      0x1f\n      add\n      0x20\n      swap1\n      div\n      dup2\n      add\n      swap3\n      dup3\n      tag_121\n      jumpi\n      0x00\n      dup6\n      sstore\n      jump(tag_120)\n    tag_121:\n      dup3\n      0x1f\n      lt\n      tag_122\n      jumpi\n      dup1\n      mload\n      not(0xff)\n      and\n      dup4\n      dup1\n      add\n      or\n      dup6\n      sstore\n      jump(tag_120)\n    tag_122:\n      dup3\n      dup1\n      add\n      0x01\n      add\n      dup6\n      sstore\n      dup3\n      iszero\n      tag_120\n      jumpi\n      swap2\n      dup3\n      add\n    tag_123:\n      dup3\n      dup2\n      gt\n      iszero\n      tag_124\n      jumpi\n      dup3\n      mload\n      dup3\n      sstore\n      swap2\n      0x20\n      add\n      swap2\n      swap1\n      0x01\n      add\n      swap1\n      jump(tag_123)\n    tag_124:\n    tag_120:\n      pop\n      swap1\n      pop\n      tag_125\n      swap2\n      swap1\n      tag_126\n      jump\t// in\n    tag_125:\n      pop\n      swap1\n      jump\t// out\n    tag_67:\n      pop\n      dup1\n      sload\n      tag_127\n      swap1\n      tag_49\n      jump\t// in\n    tag_127:\n      0x00\n      dup3\n      sstore\n      dup1\n      0x1f\n      lt\n      tag_129\n      jumpi\n      pop\n      jump(tag_128)\n    tag_129:\n      0x1f\n      add\n      0x20\n      swap1\n      div\n      swap1\n      0x00\n      mstore\n      keccak256(0x00, 0x20)\n      swap1\n      dup2\n      add\n      swap1\n      tag_130\n      swap2\n      swap1\n      tag_126\n      jump\t// in\n    tag_130:\n    tag_128:\n      pop\n      jump\t// out\n    tag_126:\n    tag_131:\n      dup1\n      dup3\n      gt\n      iszero\n      tag_132\n      jumpi\n      0x00\n      dup2\n      0x00\n      swap1\n      sstore\n      pop\n      0x01\n      add\n      jump(tag_131)\n    tag_132:\n      pop\n      swap1\n      jump\t// out\n        /* \"#utility.yul\":7:419   */\n    tag_134:\n        /* \"#utility.yul\":85:90   */\n      0x00\n        /* \"#utility.yul\":110:176   */\n      tag_136\n        /* \"#utility.yul\":126:175   */\n      tag_137\n        /* \"#utility.yul\":168:174   */\n      dup5\n        /* \"#utility.yul\":126:175   */\n      tag_138\n      jump\t// in\n    tag_137:\n        /* \"#utility.yul\":110:176   */\n      tag_139\n      jump\t// in\n    tag_136:\n        /* \"#utility.yul\":101:176   */\n      swap1\n      pop\n        /* \"#utility.yul\":199:205   */\n      dup3\n        /* \"#utility.yul\":192:197   */\n      dup2\n        /* \"#utility.yul\":185:206   */\n      mstore\n        /* \"#utility.yul\":237:241   */\n      0x20\n        /* \"#utility.yul\":230:235   */\n      dup2\n        /* \"#utility.yul\":226:242   */\n      add\n        /* \"#utility.yul\":275:278   */\n      dup5\n        /* \"#utility.yul\":266:272   */\n      dup5\n        /* \"#utility.yul\":261:264   */\n      dup5\n        /* \"#utility.yul\":257:273   */\n      add\n        /* \"#utility.yul\":254:279   */\n      gt\n        /* \"#utility.yul\":251:363   */\n      iszero\n      tag_140\n      jumpi\n        /* \"#utility.yul\":282:361   */\n      tag_141\n      tag_142\n      jump\t// in\n    tag_141:\n        /* \"#utility.yul\":251:363   */\n    tag_140:\n        /* \"#utility.yul\":372:413   */\n      tag_143\n        /* \"#utility.yul\":406:412   */\n      dup5\n        /* \"#utility.yul\":401:404   */\n      dup3\n        /* \"#utility.yul\":396:399   */\n      dup6\n        /* \"#utility.yul\":372:413   */\n      tag_144\n      jump\t// in\n    tag_143:\n        /* \"#utility.yul\":91:419   */\n      pop\n        /* \"#utility.yul\":7:419   */\n      swap4\n      swap3\n      pop\n      pop\n      pop\n      jump\t// out\n        /* \"#utility.yul\":425:564   */\n    tag_145:\n        /* \"#utility.yul\":471:476   */\n      0x00\n        /* \"#utility.yul\":509:515   */\n      dup2\n        /* \"#utility.yul\":496:516   */\n      calldataload\n        /* \"#utility.yul\":487:516   */\n      swap1\n      pop\n        /* \"#utility.yul\":525:558   */\n      tag_147\n        /* \"#utility.yul\":552:557   */\n      dup2\n        /* \"#utility.yul\":525:558   */\n      tag_148\n      jump\t// in\n    tag_147:\n        /* \"#utility.yul\":425:564   */\n      swap3\n      swap2\n      pop\n      pop\n      jump\t// out\n        /* \"#utility.yul\":584:924   */\n    tag_149:\n        /* \"#utility.yul\":640:645   */\n      0x00\n        /* \"#utility.yul\":689:692   */\n      dup3\n        /* \"#utility.yul\":682:686   */\n      0x1f\n        /* \"#utility.yul\":674:680   */\n      dup4\n        /* \"#utility.yul\":670:687   */\n      add\n        /* \"#utility.yul\":666:693   */\n      slt\n        /* \"#utility.yul\":656:778   */\n      tag_151\n      jumpi\n        /* \"#utility.yul\":697:776   */\n      tag_152\n      tag_153\n      jump\t// in\n    tag_152:\n        /* \"#utility.yul\":656:778   */\n    tag_151:\n        /* \"#utility.yul\":814:820   */\n      dup2\n        /* \"#utility.yul\":801:821   */\n      calldataload\n        /* \"#utility.yul\":839:918   */\n      tag_154\n        /* \"#utility.yul\":914:917   */\n      dup5\n        /* \"#utility.yul\":906:912   */\n      dup3\n        /* \"#utility.yul\":899:903   */\n      0x20\n        /* \"#utility.yul\":891:897   */\n      dup7\n        /* \"#utility.yul\":887:904   */\n      add\n        /* \"#utility.yul\":839:918   */\n      tag_134\n      jump\t// in\n    tag_154:\n        /* \"#utility.yul\":830:918   */\n      swap2\n      pop\n        /* \"#utility.yul\":646:924   */\n      pop\n        /* \"#utility.yul\":584:924   */\n      swap3\n      swap2\n      pop\n      pop\n      jump\t// out\n        /* \"#utility.yul\":930:1069   */\n    tag_155:\n        /* \"#utility.yul\":976:981   */\n      0x00\n        /* \"#utility.yul\":1014:1020   */\n      dup2\n        /* \"#utility.yul\":1001:1021   */\n      calldataload\n        /* \"#utility.yul\":992:1021   */\n      swap1\n      pop\n        /* \"#utility.yul\":1030:1063   */\n      tag_157\n        /* \"#utility.yul\":1057:1062   */\n      dup2\n        /* \"#utility.yul\":1030:1063   */\n      tag_158\n      jump\t// in\n    tag_157:\n        /* \"#utility.yul\":930:1069   */\n      swap3\n      swap2\n      pop\n      pop\n      jump\t// out\n        /* \"#utility.yul\":1075:1404   */\n    tag_40:\n        /* \"#utility.yul\":1134:1140   */\n      0x00\n        /* \"#utility.yul\":1183:1185   */\n      0x20\n        /* \"#utility.yul\":1171:1180   */\n      dup3\n        /* \"#utility.yul\":1162:1169   */\n      dup5\n        /* \"#utility.yul\":1158:1181   */\n      sub\n        /* \"#utility.yul\":1154:1186   */\n      slt\n        /* \"#utility.yul\":1151:1270   */\n      iszero\n      tag_160\n      jumpi\n        /* \"#utility.yul\":1189:1268   */\n      tag_161\n      tag_162\n      jump\t// in\n    tag_161:\n        /* \"#utility.yul\":1151:1270   */\n    tag_160:\n        /* \"#utility.yul\":1309:1310   */\n      0x00\n        /* \"#utility.yul\":1334:1387   */\n      tag_163\n        /* \"#utility.yul\":1379:1386   */\n      dup5\n        /* \"#utility.yul\":1370:1376   */\n      dup3\n        /* \"#utility.yul\":1359:1368   */\n      dup6\n        /* \"#utility.yul\":1355:1377   */\n      add\n        /* \"#utility.yul\":1334:1387   */\n      tag_145\n      jump\t// in\n    tag_163:\n        /* \"#utility.yul\":1324:1387   */\n      swap2\n      pop\n        /* \"#utility.yul\":1280:1397   */\n      pop\n        /* \"#utility.yul\":1075:1404   */\n      swap3\n      swap2\n      pop\n      pop\n      jump\t// out\n        /* \"#utility.yul\":1410:2389   */\n    tag_14:\n        /* \"#utility.yul\":1507:1513   */\n      0x00\n        /* \"#utility.yul\":1515:1521   */\n      dup1\n        /* \"#utility.yul\":1523:1529   */\n      0x00\n        /* \"#utility.yul\":1572:1574   */\n      0x60\n        /* \"#utility.yul\":1560:1569   */\n      dup5\n        /* \"#utility.yul\":1551:1558   */\n      dup7\n        /* \"#utility.yul\":1547:1570   */\n      sub\n        /* \"#utility.yul\":1543:1575   */\n      slt\n        /* \"#utility.yul\":1540:1659   */\n      iszero\n      tag_165\n      jumpi\n        /* \"#utility.yul\":1578:1657   */\n      tag_166\n      tag_162\n      jump\t// in\n    tag_166:\n        /* \"#utility.yul\":1540:1659   */\n    tag_165:\n        /* \"#utility.yul\":1726:1727   */\n      0x00\n        /* \"#utility.yul\":1715:1724   */\n      dup5\n        /* \"#utility.yul\":1711:1728   */\n      add\n        /* \"#utility.yul\":1698:1729   */\n      calldataload\n        /* \"#utility.yul\":1756:1774   */\n      0xffffffffffffffff\n        /* \"#utility.yul\":1748:1754   */\n      dup2\n        /* \"#utility.yul\":1745:1775   */\n      gt\n        /* \"#utility.yul\":1742:1859   */\n      iszero\n      tag_167\n      jumpi\n        /* \"#utility.yul\":1778:1857   */\n      tag_168\n      tag_169\n      jump\t// in\n    tag_168:\n        /* \"#utility.yul\":1742:1859   */\n    tag_167:\n        /* \"#utility.yul\":1883:1946   */\n      tag_170\n        /* \"#utility.yul\":1938:1945   */\n      dup7\n        /* \"#utility.yul\":1929:1935   */\n      dup3\n        /* \"#utility.yul\":1918:1927   */\n      dup8\n        /* \"#utility.yul\":1914:1936   */\n      add\n        /* \"#utility.yul\":1883:1946   */\n      tag_149\n      jump\t// in\n    tag_170:\n        /* \"#utility.yul\":1873:1946   */\n      swap4\n      pop\n        /* \"#utility.yul\":1669:1956   */\n      pop\n        /* \"#utility.yul\":2023:2025   */\n      0x20\n        /* \"#utility.yul\":2012:2021   */\n      dup5\n        /* \"#utility.yul\":2008:2026   */\n      add\n        /* \"#utility.yul\":1995:2027   */\n      calldataload\n        /* \"#utility.yul\":2054:2072   */\n      0xffffffffffffffff\n        /* \"#utility.yul\":2046:2052   */\n      dup2\n        /* \"#utility.yul\":2043:2073   */\n      gt\n        /* \"#utility.yul\":2040:2157   */\n      iszero\n      tag_171\n      jumpi\n        /* \"#utility.yul\":2076:2155   */\n      tag_172\n      tag_169\n      jump\t// in\n    tag_172:\n        /* \"#utility.yul\":2040:2157   */\n    tag_171:\n        /* \"#utility.yul\":2181:2244   */\n      tag_173\n        /* \"#utility.yul\":2236:2243   */\n      dup7\n        /* \"#utility.yul\":2227:2233   */\n      dup3\n        /* \"#utility.yul\":2216:2225   */\n      dup8\n        /* \"#utility.yul\":2212:2234   */\n      add\n        /* \"#utility.yul\":2181:2244   */\n      tag_149\n      jump\t// in\n    tag_173:\n        /* \"#utility.yul\":2171:2244   */\n      swap3\n      pop\n        /* \"#utility.yul\":1966:2254   */\n      pop\n        /* \"#utility.yul\":2293:2295   */\n      0x40\n        /* \"#utility.yul\":2319:2372   */\n      tag_174\n        /* \"#utility.yul\":2364:2371   */\n      dup7\n        /* \"#utility.yul\":2355:2361   */\n      dup3\n        /* \"#utility.yul\":2344:2353   */\n      dup8\n        /* \"#utility.yul\":2340:2362   */\n      add\n        /* \"#utility.yul\":2319:2372   */\n      tag_155\n      jump\t// in\n    tag_174:\n        /* \"#utility.yul\":2309:2372   */\n      swap2\n      pop\n        /* \"#utility.yul\":2264:2382   */\n      pop\n        /* \"#utility.yul\":1410:2389   */\n      swap3\n      pop\n      swap3\n      pop\n      swap3\n      jump\t// out\n        /* \"#utility.yul\":2395:2513   */\n    tag_175:\n        /* \"#utility.yul\":2482:2506   */\n      tag_177\n        /* \"#utility.yul\":2500:2505   */\n      dup2\n        /* \"#utility.yul\":2482:2506   */\n      tag_178\n      jump\t// in\n    tag_177:\n        /* \"#utility.yul\":2477:2480   */\n      dup3\n        /* \"#utility.yul\":2470:2507   */\n      mstore\n        /* \"#utility.yul\":2395:2513   */\n      pop\n      pop\n      jump\t// out\n        /* \"#utility.yul\":2519:2628   */\n    tag_179:\n        /* \"#utility.yul\":2600:2621   */\n      tag_181\n        /* \"#utility.yul\":2615:2620   */\n      dup2\n        /* \"#utility.yul\":2600:2621   */\n      tag_182\n      jump\t// in\n    tag_181:\n        /* \"#utility.yul\":2595:2598   */\n      dup3\n        /* \"#utility.yul\":2588:2622   */\n      mstore\n        /* \"#utility.yul\":2519:2628   */\n      pop\n      pop\n      jump\t// out\n        /* \"#utility.yul\":2634:2998   */\n    tag_183:\n        /* \"#utility.yul\":2722:2725   */\n      0x00\n        /* \"#utility.yul\":2750:2789   */\n      tag_185\n        /* \"#utility.yul\":2783:2788   */\n      dup3\n        /* \"#utility.yul\":2750:2789   */\n      tag_186\n      jump\t// in\n    tag_185:\n        /* \"#utility.yul\":2805:2876   */\n      tag_187\n        /* \"#utility.yul\":2869:2875   */\n      dup2\n        /* \"#utility.yul\":2864:2867   */\n      dup6\n        /* \"#utility.yul\":2805:2876   */\n      tag_188\n      jump\t// in\n    tag_187:\n        /* \"#utility.yul\":2798:2876   */\n      swap4\n      pop\n        /* \"#utility.yul\":2885:2937   */\n      tag_189\n        /* \"#utility.yul\":2930:2936   */\n      dup2\n        /* \"#utility.yul\":2925:2928   */\n      dup6\n        /* \"#utility.yul\":2918:2922   */\n      0x20\n        /* \"#utility.yul\":2911:2916   */\n      dup7\n        /* \"#utility.yul\":2907:2923   */\n      add\n        /* \"#utility.yul\":2885:2937   */\n      tag_190\n      jump\t// in\n    tag_189:\n        /* \"#utility.yul\":2962:2991   */\n      tag_191\n        /* \"#utility.yul\":2984:2990   */\n      dup2\n        /* \"#utility.yul\":2962:2991   */\n      tag_192\n      jump\t// in\n    tag_191:\n        /* \"#utility.yul\":2957:2960   */\n      dup5\n        /* \"#utility.yul\":2953:2992   */\n      add\n        /* \"#utility.yul\":2946:2992   */\n      swap2\n      pop\n        /* \"#utility.yul\":2726:2998   */\n      pop\n        /* \"#utility.yul\":2634:2998   */\n      swap3\n      swap2\n      pop\n      pop\n      jump\t// out\n        /* \"#utility.yul\":3004:3370   */\n    tag_193:\n        /* \"#utility.yul\":3146:3149   */\n      0x00\n        /* \"#utility.yul\":3167:3234   */\n      tag_195\n        /* \"#utility.yul\":3231:3233   */\n      0x1d\n        /* \"#utility.yul\":3226:3229   */\n      dup4\n        /* \"#utility.yul\":3167:3234   */\n      tag_188\n      jump\t// in\n    tag_195:\n        /* \"#utility.yul\":3160:3234   */\n      swap2\n      pop\n        /* \"#utility.yul\":3243:3336   */\n      tag_196\n        /* \"#utility.yul\":3332:3335   */\n      dup3\n        /* \"#utility.yul\":3243:3336   */\n      tag_197\n      jump\t// in\n    tag_196:\n        /* \"#utility.yul\":3361:3363   */\n      0x20\n        /* \"#utility.yul\":3356:3359   */\n      dup3\n        /* \"#utility.yul\":3352:3364   */\n      add\n        /* \"#utility.yul\":3345:3364   */\n      swap1\n      pop\n        /* \"#utility.yul\":3004:3370   */\n      swap2\n      swap1\n      pop\n      jump\t// out\n        /* \"#utility.yul\":3376:3742   */\n    tag_198:\n        /* \"#utility.yul\":3518:3521   */\n      0x00\n        /* \"#utility.yul\":3539:3606   */\n      tag_200\n        /* \"#utility.yul\":3603:3605   */\n      0x1d\n        /* \"#utility.yul\":3598:3601   */\n      dup4\n        /* \"#utility.yul\":3539:3606   */\n      tag_188\n      jump\t// in\n    tag_200:\n        /* \"#utility.yul\":3532:3606   */\n      swap2\n      pop\n        /* \"#utility.yul\":3615:3708   */\n      tag_201\n        /* \"#utility.yul\":3704:3707   */\n      dup3\n        /* \"#utility.yul\":3615:3708   */\n      tag_202\n      jump\t// in\n    tag_201:\n        /* \"#utility.yul\":3733:3735   */\n      0x20\n        /* \"#utility.yul\":3728:3731   */\n      dup3\n        /* \"#utility.yul\":3724:3736   */\n      add\n        /* \"#utility.yul\":3717:3736   */\n      swap1\n      pop\n        /* \"#utility.yul\":3376:3742   */\n      swap2\n      swap1\n      pop\n      jump\t// out\n        /* \"#utility.yul\":3748:4114   */\n    tag_203:\n        /* \"#utility.yul\":3890:3893   */\n      0x00\n        /* \"#utility.yul\":3911:3978   */\n      tag_205\n        /* \"#utility.yul\":3975:3977   */\n      0x20\n        /* \"#utility.yul\":3970:3973   */\n      dup4\n        /* \"#utility.yul\":3911:3978   */\n      tag_188\n      jump\t// in\n    tag_205:\n        /* \"#utility.yul\":3904:3978   */\n      swap2\n      pop\n        /* \"#utility.yul\":3987:4080   */\n      tag_206\n        /* \"#utility.yul\":4076:4079   */\n      dup3\n        /* \"#utility.yul\":3987:4080   */\n      tag_207\n      jump\t// in\n    tag_206:\n        /* \"#utility.yul\":4105:4107   */\n      0x20\n        /* \"#utility.yul\":4100:4103   */\n      dup3\n        /* \"#utility.yul\":4096:4108   */\n      add\n        /* \"#utility.yul\":4089:4108   */\n      swap1\n      pop\n        /* \"#utility.yul\":3748:4114   */\n      swap2\n      swap1\n      pop\n      jump\t// out\n        /* \"#utility.yul\":4120:4238   */\n    tag_208:\n        /* \"#utility.yul\":4207:4231   */\n      tag_210\n        /* \"#utility.yul\":4225:4230   */\n      dup2\n        /* \"#utility.yul\":4207:4231   */\n      tag_211\n      jump\t// in\n    tag_210:\n        /* \"#utility.yul\":4202:4205   */\n      dup3\n        /* \"#utility.yul\":4195:4232   */\n      mstore\n        /* \"#utility.yul\":4120:4238   */\n      pop\n      pop\n      jump\t// out\n        /* \"#utility.yul\":4244:4466   */\n    tag_28:\n        /* \"#utility.yul\":4337:4341   */\n      0x00\n        /* \"#utility.yul\":4375:4377   */\n      0x20\n        /* \"#utility.yul\":4364:4373   */\n      dup3\n        /* \"#utility.yul\":4360:4378   */\n      add\n        /* \"#utility.yul\":4352:4378   */\n      swap1\n      pop\n        /* \"#utility.yul\":4388:4459   */\n      tag_213\n        /* \"#utility.yul\":4456:4457   */\n      0x00\n        /* \"#utility.yul\":4445:4454   */\n      dup4\n        /* \"#utility.yul\":4441:4458   */\n      add\n        /* \"#utility.yul\":4432:4438   */\n      dup5\n        /* \"#utility.yul\":4388:4459   */\n      tag_175\n      jump\t// in\n    tag_213:\n        /* \"#utility.yul\":4244:4466   */\n      swap3\n      swap2\n      pop\n      pop\n      jump\t// out\n        /* \"#utility.yul\":4472:4682   */\n    tag_33:\n        /* \"#utility.yul\":4559:4563   */\n      0x00\n        /* \"#utility.yul\":4597:4599   */\n      0x20\n        /* \"#utility.yul\":4586:4595   */\n      dup3\n        /* \"#utility.yul\":4582:4600   */\n      add\n        /* \"#utility.yul\":4574:4600   */\n      swap1\n      pop\n        /* \"#utility.yul\":4610:4675   */\n      tag_215\n        /* \"#utility.yul\":4672:4673   */\n      0x00\n        /* \"#utility.yul\":4661:4670   */\n      dup4\n        /* \"#utility.yul\":4657:4674   */\n      add\n        /* \"#utility.yul\":4648:4654   */\n      dup5\n        /* \"#utility.yul\":4610:4675   */\n      tag_179\n      jump\t// in\n    tag_215:\n        /* \"#utility.yul\":4472:4682   */\n      swap3\n      swap2\n      pop\n      pop\n      jump\t// out\n        /* \"#utility.yul\":4688:5823   */\n    tag_43:\n        /* \"#utility.yul\":4997:5001   */\n      0x00\n        /* \"#utility.yul\":5035:5038   */\n      0xe0\n        /* \"#utility.yul\":5024:5033   */\n      dup3\n        /* \"#utility.yul\":5020:5039   */\n      add\n        /* \"#utility.yul\":5012:5039   */\n      swap1\n      pop\n        /* \"#utility.yul\":5085:5094   */\n      dup2\n        /* \"#utility.yul\":5079:5083   */\n      dup2\n        /* \"#utility.yul\":5075:5095   */\n      sub\n        /* \"#utility.yul\":5071:5072   */\n      0x00\n        /* \"#utility.yul\":5060:5069   */\n      dup4\n        /* \"#utility.yul\":5056:5073   */\n      add\n        /* \"#utility.yul\":5049:5096   */\n      mstore\n        /* \"#utility.yul\":5113:5191   */\n      tag_217\n        /* \"#utility.yul\":5186:5190   */\n      dup2\n        /* \"#utility.yul\":5177:5183   */\n      dup11\n        /* \"#utility.yul\":5113:5191   */\n      tag_183\n      jump\t// in\n    tag_217:\n        /* \"#utility.yul\":5105:5191   */\n      swap1\n      pop\n        /* \"#utility.yul\":5238:5247   */\n      dup2\n        /* \"#utility.yul\":5232:5236   */\n      dup2\n        /* \"#utility.yul\":5228:5248   */\n      sub\n        /* \"#utility.yul\":5223:5225   */\n      0x20\n        /* \"#utility.yul\":5212:5221   */\n      dup4\n        /* \"#utility.yul\":5208:5226   */\n      add\n        /* \"#utility.yul\":5201:5249   */\n      mstore\n        /* \"#utility.yul\":5266:5344   */\n      tag_218\n        /* \"#utility.yul\":5339:5343   */\n      dup2\n        /* \"#utility.yul\":5330:5336   */\n      dup10\n        /* \"#utility.yul\":5266:5344   */\n      tag_183\n      jump\t// in\n    tag_218:\n        /* \"#utility.yul\":5258:5344   */\n      swap1\n      pop\n        /* \"#utility.yul\":5354:5426   */\n      tag_219\n        /* \"#utility.yul\":5422:5424   */\n      0x40\n        /* \"#utility.yul\":5411:5420   */\n      dup4\n        /* \"#utility.yul\":5407:5425   */\n      add\n        /* \"#utility.yul\":5398:5404   */\n      dup9\n        /* \"#utility.yul\":5354:5426   */\n      tag_208\n      jump\t// in\n    tag_219:\n        /* \"#utility.yul\":5473:5482   */\n      dup2\n        /* \"#utility.yul\":5467:5471   */\n      dup2\n        /* \"#utility.yul\":5463:5483   */\n      sub\n        /* \"#utility.yul\":5458:5460   */\n      0x60\n        /* \"#utility.yul\":5447:5456   */\n      dup4\n        /* \"#utility.yul\":5443:5461   */\n      add\n        /* \"#utility.yul\":5436:5484   */\n      mstore\n        /* \"#utility.yul\":5501:5579   */\n      tag_220\n        /* \"#utility.yul\":5574:5578   */\n      dup2\n        /* \"#utility.yul\":5565:5571   */\n      dup8\n        /* \"#utility.yul\":5501:5579   */\n      tag_183\n      jump\t// in\n    tag_220:\n        /* \"#utility.yul\":5493:5579   */\n      swap1\n      pop\n        /* \"#utility.yul\":5589:5662   */\n      tag_221\n        /* \"#utility.yul\":5657:5660   */\n      0x80\n        /* \"#utility.yul\":5646:5655   */\n      dup4\n        /* \"#utility.yul\":5642:5661   */\n      add\n        /* \"#utility.yul\":5633:5639   */\n      dup7\n        /* \"#utility.yul\":5589:5662   */\n      tag_208\n      jump\t// in\n    tag_221:\n        /* \"#utility.yul\":5672:5739   */\n      tag_222\n        /* \"#utility.yul\":5734:5737   */\n      0xa0\n        /* \"#utility.yul\":5723:5732   */\n      dup4\n        /* \"#utility.yul\":5719:5738   */\n      add\n        /* \"#utility.yul\":5710:5716   */\n      dup6\n        /* \"#utility.yul\":5672:5739   */\n      tag_179\n      jump\t// in\n    tag_222:\n        /* \"#utility.yul\":5749:5816   */\n      tag_223\n        /* \"#utility.yul\":5811:5814   */\n      0xc0\n        /* \"#utility.yul\":5800:5809   */\n      dup4\n        /* \"#utility.yul\":5796:5815   */\n      add\n        /* \"#utility.yul\":5787:5793   */\n      dup5\n        /* \"#utility.yul\":5749:5816   */\n      tag_179\n      jump\t// in\n    tag_223:\n        /* \"#utility.yul\":4688:5823   */\n      swap9\n      swap8\n      pop\n      pop\n      pop\n      pop\n      pop\n      pop\n      pop\n      pop\n      jump\t// out\n        /* \"#utility.yul\":5829:6248   */\n    tag_47:\n        /* \"#utility.yul\":5995:5999   */\n      0x00\n        /* \"#utility.yul\":6033:6035   */\n      0x20\n        /* \"#utility.yul\":6022:6031   */\n      dup3\n        /* \"#utility.yul\":6018:6036   */\n      add\n        /* \"#utility.yul\":6010:6036   */\n      swap1\n      pop\n        /* \"#utility.yul\":6082:6091   */\n      dup2\n        /* \"#utility.yul\":6076:6080   */\n      dup2\n        /* \"#utility.yul\":6072:6092   */\n      sub\n        /* \"#utility.yul\":6068:6069   */\n      0x00\n        /* \"#utility.yul\":6057:6066   */\n      dup4\n        /* \"#utility.yul\":6053:6070   */\n      add\n        /* \"#utility.yul\":6046:6093   */\n      mstore\n        /* \"#utility.yul\":6110:6241   */\n      tag_225\n        /* \"#utility.yul\":6236:6240   */\n      dup2\n        /* \"#utility.yul\":6110:6241   */\n      tag_193\n      jump\t// in\n    tag_225:\n        /* \"#utility.yul\":6102:6241   */\n      swap1\n      pop\n        /* \"#utility.yul\":5829:6248   */\n      swap2\n      swap1\n      pop\n      jump\t// out\n        /* \"#utility.yul\":6254:6673   */\n    tag_73:\n        /* \"#utility.yul\":6420:6424   */\n      0x00\n        /* \"#utility.yul\":6458:6460   */\n      0x20\n        /* \"#utility.yul\":6447:6456   */\n      dup3\n        /* \"#utility.yul\":6443:6461   */\n      add\n        /* \"#utility.yul\":6435:6461   */\n      swap1\n      pop\n        /* \"#utility.yul\":6507:6516   */\n      dup2\n        /* \"#utility.yul\":6501:6505   */\n      dup2\n        /* \"#utility.yul\":6497:6517   */\n      sub\n        /* \"#utility.yul\":6493:6494   */\n      0x00\n        /* \"#utility.yul\":6482:6491   */\n      dup4\n        /* \"#utility.yul\":6478:6495   */\n      add\n        /* \"#utility.yul\":6471:6518   */\n      mstore\n        /* \"#utility.yul\":6535:6666   */\n      tag_227\n        /* \"#utility.yul\":6661:6665   */\n      dup2\n        /* \"#utility.yul\":6535:6666   */\n      tag_198\n      jump\t// in\n    tag_227:\n        /* \"#utility.yul\":6527:6666   */\n      swap1\n      pop\n        /* \"#utility.yul\":6254:6673   */\n      swap2\n      swap1\n      pop\n      jump\t// out\n        /* \"#utility.yul\":6679:7098   */\n    tag_61:\n        /* \"#utility.yul\":6845:6849   */\n      0x00\n        /* \"#utility.yul\":6883:6885   */\n      0x20\n        /* \"#utility.yul\":6872:6881   */\n      dup3\n        /* \"#utility.yul\":6868:6886   */\n      add\n        /* \"#utility.yul\":6860:6886   */\n      swap1\n      pop\n        /* \"#utility.yul\":6932:6941   */\n      dup2\n        /* \"#utility.yul\":6926:6930   */\n      dup2\n        /* \"#utility.yul\":6922:6942   */\n      sub\n        /* \"#utility.yul\":6918:6919   */\n      0x00\n        /* \"#utility.yul\":6907:6916   */\n      dup4\n        /* \"#utility.yul\":6903:6920   */\n      add\n        /* \"#utility.yul\":6896:6943   */\n      mstore\n        /* \"#utility.yul\":6960:7091   */\n      tag_229\n        /* \"#utility.yul\":7086:7090   */\n      dup2\n        /* \"#utility.yul\":6960:7091   */\n      tag_203\n      jump\t// in\n    tag_229:\n        /* \"#utility.yul\":6952:7091   */\n      swap1\n      pop\n        /* \"#utility.yul\":6679:7098   */\n      swap2\n      swap1\n      pop\n      jump\t// out\n        /* \"#utility.yul\":7104:7233   */\n    tag_139:\n        /* \"#utility.yul\":7138:7144   */\n      0x00\n        /* \"#utility.yul\":7165:7185   */\n      tag_231\n      tag_232\n      jump\t// in\n    tag_231:\n        /* \"#utility.yul\":7155:7185   */\n      swap1\n      pop\n        /* \"#utility.yul\":7194:7227   */\n      tag_233\n        /* \"#utility.yul\":7222:7226   */\n      dup3\n        /* \"#utility.yul\":7214:7220   */\n      dup3\n        /* \"#utility.yul\":7194:7227   */\n      tag_234\n      jump\t// in\n    tag_233:\n        /* \"#utility.yul\":7104:7233   */\n      swap2\n      swap1\n      pop\n      jump\t// out\n        /* \"#utility.yul\":7239:7314   */\n    tag_232:\n        /* \"#utility.yul\":7272:7278   */\n      0x00\n        /* \"#utility.yul\":7305:7307   */\n      0x40\n        /* \"#utility.yul\":7299:7308   */\n      mload\n        /* \"#utility.yul\":7289:7308   */\n      swap1\n      pop\n        /* \"#utility.yul\":7239:7314   */\n      swap1\n      jump\t// out\n        /* \"#utility.yul\":7320:7628   */\n    tag_138:\n        /* \"#utility.yul\":7382:7386   */\n      0x00\n        /* \"#utility.yul\":7472:7490   */\n      0xffffffffffffffff\n        /* \"#utility.yul\":7464:7470   */\n      dup3\n        /* \"#utility.yul\":7461:7491   */\n      gt\n        /* \"#utility.yul\":7458:7514   */\n      iszero\n      tag_237\n      jumpi\n        /* \"#utility.yul\":7494:7512   */\n      tag_238\n      tag_239\n      jump\t// in\n    tag_238:\n        /* \"#utility.yul\":7458:7514   */\n    tag_237:\n        /* \"#utility.yul\":7532:7561   */\n      tag_240\n        /* \"#utility.yul\":7554:7560   */\n      dup3\n        /* \"#utility.yul\":7532:7561   */\n      tag_192\n      jump\t// in\n    tag_240:\n        /* \"#utility.yul\":7524:7561   */\n      swap1\n      pop\n        /* \"#utility.yul\":7616:7620   */\n      0x20\n        /* \"#utility.yul\":7610:7614   */\n      dup2\n        /* \"#utility.yul\":7606:7621   */\n      add\n        /* \"#utility.yul\":7598:7621   */\n      swap1\n      pop\n        /* \"#utility.yul\":7320:7628   */\n      swap2\n      swap1\n      pop\n      jump\t// out\n        /* \"#utility.yul\":7634:7733   */\n    tag_186:\n        /* \"#utility.yul\":7686:7692   */\n      0x00\n        /* \"#utility.yul\":7720:7725   */\n      dup2\n        /* \"#utility.yul\":7714:7726   */\n      mload\n        /* \"#utility.yul\":7704:7726   */\n      swap1\n      pop\n        /* \"#utility.yul\":7634:7733   */\n      swap2\n      swap1\n      pop\n      jump\t// out\n        /* \"#utility.yul\":7739:7908   */\n    tag_188:\n        /* \"#utility.yul\":7823:7834   */\n      0x00\n        /* \"#utility.yul\":7857:7863   */\n      dup3\n        /* \"#utility.yul\":7852:7855   */\n      dup3\n        /* \"#utility.yul\":7845:7864   */\n      mstore\n        /* \"#utility.yul\":7897:7901   */\n      0x20\n        /* \"#utility.yul\":7892:7895   */\n      dup3\n        /* \"#utility.yul\":7888:7902   */\n      add\n        /* \"#utility.yul\":7873:7902   */\n      swap1\n      pop\n        /* \"#utility.yul\":7739:7908   */\n      swap3\n      swap2\n      pop\n      pop\n      jump\t// out\n        /* \"#utility.yul\":7914:8262   */\n    tag_82:\n        /* \"#utility.yul\":7954:7961   */\n      0x00\n        /* \"#utility.yul\":7977:7997   */\n      tag_244\n        /* \"#utility.yul\":7995:7996   */\n      dup3\n        /* \"#utility.yul\":7977:7997   */\n      tag_211\n      jump\t// in\n    tag_244:\n        /* \"#utility.yul\":7972:7997   */\n      swap2\n      pop\n        /* \"#utility.yul\":8011:8031   */\n      tag_245\n        /* \"#utility.yul\":8029:8030   */\n      dup4\n        /* \"#utility.yul\":8011:8031   */\n      tag_211\n      jump\t// in\n    tag_245:\n        /* \"#utility.yul\":8006:8031   */\n      swap3\n      pop\n        /* \"#utility.yul\":8199:8200   */\n      dup2\n        /* \"#utility.yul\":8131:8197   */\n      0xffffffffffffffffffffffffffffffffffffffffffffffffffffffffffffffff\n        /* \"#utility.yul\":8127:8201   */\n      div\n        /* \"#utility.yul\":8124:8125   */\n      dup4\n        /* \"#utility.yul\":8121:8202   */\n      gt\n        /* \"#utility.yul\":8116:8117   */\n      dup3\n        /* \"#utility.yul\":8109:8118   */\n      iszero\n        /* \"#utility.yul\":8102:8119   */\n      iszero\n        /* \"#utility.yul\":8098:8203   */\n      and\n        /* \"#utility.yul\":8095:8226   */\n      iszero\n      tag_246\n      jumpi\n        /* \"#utility.yul\":8206:8224   */\n      tag_247\n      tag_248\n      jump\t// in\n    tag_247:\n        /* \"#utility.yul\":8095:8226   */\n    tag_246:\n        /* \"#utility.yul\":8254:8255   */\n      dup3\n        /* \"#utility.yul\":8251:8252   */\n      dup3\n        /* \"#utility.yul\":8247:8256   */\n      mul\n        /* \"#utility.yul\":8236:8256   */\n      swap1\n      pop\n        /* \"#utility.yul\":7914:8262   */\n      swap3\n      swap2\n      pop\n      pop\n      jump\t// out\n        /* \"#utility.yul\":8268:8364   */\n    tag_178:\n        /* \"#utility.yul\":8305:8312   */\n      0x00\n        /* \"#utility.yul\":8334:8358   */\n      tag_250\n        /* \"#utility.yul\":8352:8357   */\n      dup3\n        /* \"#utility.yul\":8334:8358   */\n      tag_251\n      jump\t// in\n    tag_250:\n        /* \"#utility.yul\":8323:8358   */\n      swap1\n      pop\n        /* \"#utility.yul\":8268:8364   */\n      swap2\n      swap1\n      pop\n      jump\t// out\n        /* \"#utility.yul\":8370:8460   */\n    tag_182:\n        /* \"#utility.yul\":8404:8411   */\n      0x00\n        /* \"#utility.yul\":8447:8452   */\n      dup2\n        /* \"#utility.yul\":8440:8453   */\n      iszero\n        /* \"#utility.yul\":8433:8454   */\n      iszero\n        /* \"#utility.yul\":8422:8454   */\n      swap1\n      pop\n        /* \"#utility.yul\":8370:8460   */\n      swap2\n      swap1\n      pop\n      jump\t// out\n        /* \"#utility.yul\":8466:8592   */\n    tag_251:\n        /* \"#utility.yul\":8503:8510   */\n      0x00\n        /* \"#utility.yul\":8543:8585   */\n      0xffffffffffffffffffffffffffffffffffffffff\n        /* \"#utility.yul\":8536:8541   */\n      dup3\n        /* \"#utility.yul\":8532:8586   */\n      and\n        /* \"#utility.yul\":8521:8586   */\n      swap1\n      pop\n        /* \"#utility.yul\":8466:8592   */\n      swap2\n      swap1\n      pop\n      jump\t// out\n        /* \"#utility.yul\":8598:8675   */\n    tag_211:\n        /* \"#utility.yul\":8635:8642   */\n      0x00\n        /* \"#utility.yul\":8664:8669   */\n      dup2\n        /* \"#utility.yul\":8653:8669   */\n      swap1\n      pop\n        /* \"#utility.yul\":8598:8675   */\n      swap2\n      swap1\n      pop\n      jump\t// out\n        /* \"#utility.yul\":8681:8835   */\n    tag_144:\n        /* \"#utility.yul\":8765:8771   */\n      dup3\n        /* \"#utility.yul\":8760:8763   */\n      dup2\n        /* \"#utility.yul\":8755:8758   */\n      dup4\n        /* \"#utility.yul\":8742:8772   */\n      calldatacopy\n        /* \"#utility.yul\":8827:8828   */\n      0x00\n        /* \"#utility.yul\":8818:8824   */\n      dup4\n        /* \"#utility.yul\":8813:8816   */\n      dup4\n        /* \"#utility.yul\":8809:8825   */\n      add\n        /* \"#utility.yul\":8802:8829   */\n      mstore\n        /* \"#utility.yul\":8681:8835   */\n      pop\n      pop\n      pop\n      jump\t// out\n        /* \"#utility.yul\":8841:9148   */\n    tag_190:\n        /* \"#utility.yul\":8909:8910   */\n      0x00\n        /* \"#utility.yul\":8919:9032   */\n    tag_257:\n        /* \"#utility.yul\":8933:8939   */\n      dup4\n        /* \"#utility.yul\":8930:8931   */\n      dup2\n        /* \"#utility.yul\":8927:8940   */\n      lt\n        /* \"#utility.yul\":8919:9032   */\n      iszero\n      tag_259\n      jumpi\n        /* \"#utility.yul\":9018:9019   */\n      dup1\n        /* \"#utility.yul\":9013:9016   */\n      dup3\n        /* \"#utility.yul\":9009:9020   */\n      add\n        /* \"#utility.yul\":9003:9021   */\n      mload\n        /* \"#utility.yul\":8999:9000   */\n      dup2\n        /* \"#utility.yul\":8994:8997   */\n      dup5\n        /* \"#utility.yul\":8990:9001   */\n      add\n        /* \"#utility.yul\":8983:9022   */\n      mstore\n        /* \"#utility.yul\":8955:8957   */\n      0x20\n        /* \"#utility.yul\":8952:8953   */\n      dup2\n        /* \"#utility.yul\":8948:8958   */\n      add\n        /* \"#utility.yul\":8943:8958   */\n      swap1\n      pop\n        /* \"#utility.yul\":8919:9032   */\n      jump(tag_257)\n    tag_259:\n        /* \"#utility.yul\":9050:9056   */\n      dup4\n        /* \"#utility.yul\":9047:9048   */\n      dup2\n        /* \"#utility.yul\":9044:9057   */\n      gt\n        /* \"#utility.yul\":9041:9142   */\n      iszero\n      tag_260\n      jumpi\n        /* \"#utility.yul\":9130:9131   */\n      0x00\n        /* \"#utility.yul\":9121:9127   */\n      dup5\n        /* \"#utility.yul\":9116:9119   */\n      dup5\n        /* \"#utility.yul\":9112:9128   */\n      add\n        /* \"#utility.yul\":9105:9132   */\n      mstore\n        /* \"#utility.yul\":9041:9142   */\n    tag_260:\n        /* \"#utility.yul\":8890:9148   */\n      pop\n        /* \"#utility.yul\":8841:9148   */\n      pop\n      pop\n      pop\n      jump\t// out\n        /* \"#utility.yul\":9154:9474   */\n    tag_49:\n        /* \"#utility.yul\":9198:9204   */\n      0x00\n        /* \"#utility.yul\":9235:9236   */\n      0x02\n        /* \"#utility.yul\":9229:9233   */\n      dup3\n        /* \"#utility.yul\":9225:9237   */\n      div\n        /* \"#utility.yul\":9215:9237   */\n      swap1\n      pop\n        /* \"#utility.yul\":9282:9283   */\n      0x01\n        /* \"#utility.yul\":9276:9280   */\n      dup3\n        /* \"#utility.yul\":9272:9284   */\n      and\n        /* \"#utility.yul\":9303:9321   */\n      dup1\n        /* \"#utility.yul\":9293:9374   */\n      tag_262\n      jumpi\n        /* \"#utility.yul\":9359:9363   */\n      0x7f\n        /* \"#utility.yul\":9351:9357   */\n      dup3\n        /* \"#utility.yul\":9347:9364   */\n      and\n        /* \"#utility.yul\":9337:9364   */\n      swap2\n      pop\n        /* \"#utility.yul\":9293:9374   */\n    tag_262:\n        /* \"#utility.yul\":9421:9423   */\n      0x20\n        /* \"#utility.yul\":9413:9419   */\n      dup3\n        /* \"#utility.yul\":9410:9424   */\n      lt\n        /* \"#utility.yul\":9390:9408   */\n      dup2\n        /* \"#utility.yul\":9387:9425   */\n      eq\n        /* \"#utility.yul\":9384:9468   */\n      iszero\n      tag_263\n      jumpi\n        /* \"#utility.yul\":9440:9458   */\n      tag_264\n      tag_265\n      jump\t// in\n    tag_264:\n        /* \"#utility.yul\":9384:9468   */\n    tag_263:\n        /* \"#utility.yul\":9205:9474   */\n      pop\n        /* \"#utility.yul\":9154:9474   */\n      swap2\n      swap1\n      pop\n      jump\t// out\n        /* \"#utility.yul\":9480:9761   */\n    tag_234:\n        /* \"#utility.yul\":9563:9590   */\n      tag_267\n        /* \"#utility.yul\":9585:9589   */\n      dup3\n        /* \"#utility.yul\":9563:9590   */\n      tag_192\n      jump\t// in\n    tag_267:\n        /* \"#utility.yul\":9555:9561   */\n      dup2\n        /* \"#utility.yul\":9551:9591   */\n      add\n        /* \"#utility.yul\":9693:9699   */\n      dup2\n        /* \"#utility.yul\":9681:9691   */\n      dup2\n        /* \"#utility.yul\":9678:9700   */\n      lt\n        /* \"#utility.yul\":9657:9675   */\n      0xffffffffffffffff\n        /* \"#utility.yul\":9645:9655   */\n      dup3\n        /* \"#utility.yul\":9642:9676   */\n      gt\n        /* \"#utility.yul\":9639:9701   */\n      or\n        /* \"#utility.yul\":9636:9724   */\n      iszero\n      tag_268\n      jumpi\n        /* \"#utility.yul\":9704:9722   */\n      tag_269\n      tag_239\n      jump\t// in\n    tag_269:\n        /* \"#utility.yul\":9636:9724   */\n    tag_268:\n        /* \"#utility.yul\":9744:9754   */\n      dup1\n        /* \"#utility.yul\":9740:9742   */\n      0x40\n        /* \"#utility.yul\":9733:9755   */\n      mstore\n        /* \"#utility.yul\":9523:9761   */\n      pop\n        /* \"#utility.yul\":9480:9761   */\n      pop\n      pop\n      jump\t// out\n        /* \"#utility.yul\":9767:9947   */\n    tag_248:\n        /* \"#utility.yul\":9815:9892   */\n      0x4e487b7100000000000000000000000000000000000000000000000000000000\n        /* \"#utility.yul\":9812:9813   */\n      0x00\n        /* \"#utility.yul\":9805:9893   */\n      mstore\n        /* \"#utility.yul\":9912:9916   */\n      0x11\n        /* \"#utility.yul\":9909:9910   */\n      0x04\n        /* \"#utility.yul\":9902:9917   */\n      mstore\n        /* \"#utility.yul\":9936:9940   */\n      0x24\n        /* \"#utility.yul\":9933:9934   */\n      0x00\n        /* \"#utility.yul\":9926:9941   */\n      revert\n        /* \"#utility.yul\":9953:10133   */\n    tag_76:\n        /* \"#utility.yul\":10001:10078   */\n      0x4e487b7100000000000000000000000000000000000000000000000000000000\n        /* \"#utility.yul\":9998:9999   */\n      0x00\n        /* \"#utility.yul\":9991:10079   */\n      mstore\n        /* \"#utility.yul\":10098:10102   */\n      0x21\n        /* \"#utility.yul\":10095:10096   */\n      0x04\n        /* \"#utility.yul\":10088:10103   */\n      mstore\n        /* \"#utility.yul\":10122:10126   */\n      0x24\n        /* \"#utility.yul\":10119:10120   */\n      0x00\n        /* \"#utility.yul\":10112:10127   */\n      revert\n        /* \"#utility.yul\":10139:10319   */\n    tag_265:\n        /* \"#utility.yul\":10187:10264   */\n      0x4e487b7100000000000000000000000000000000000000000000000000000000\n        /* \"#utility.yul\":10184:10185   */\n      0x00\n        /* \"#utility.yul\":10177:10265   */\n      mstore\n        /* \"#utility.yul\":10284:10288   */\n      0x22\n        /* \"#utility.yul\":10281:10282   */\n      0x04\n        /* \"#utility.yul\":10274:10289   */\n      mstore\n        /* \"#utility.yul\":10308:10312   */\n      0x24\n        /* \"#utility.yul\":10305:10306   */\n      0x00\n        /* \"#utility.yul\":10298:10313   */\n      revert\n        /* \"#utility.yul\":10325:10505   */\n    tag_239:\n        /* \"#utility.yul\":10373:10450   */\n      0x4e487b7100000000000000000000000000000000000000000000000000000000\n        /* \"#utility.yul\":10370:10371   */\n      0x00\n        /* \"#utility.yul\":10363:10451   */\n      mstore\n        /* \"#utility.yul\":10470:10474   */\n      0x41\n        /* \"#utility.yul\":10467:10468   */\n      0x04\n        /* \"#utility.yul\":10460:10475   */\n      mstore\n        /* \"#utility.yul\":10494:10498   */\n      0x24\n        /* \"#utility.yul\":10491:10492   */\n      0x00\n        /* \"#utility.yul\":10484:10499   */\n      revert\n        /* \"#utility.yul\":10511:10628   */\n    tag_153:\n        /* \"#utility.yul\":10620:10621   */\n      0x00\n        /* \"#utility.yul\":10617:10618   */\n      dup1\n        /* \"#utility.yul\":10610:10622   */\n      revert\n        /* \"#utility.yul\":10634:10751   */\n    tag_142:\n        /* \"#utility.yul\":10743:10744   */\n      0x00\n        /* \"#utility.yul\":10740:10741   */\n      dup1\n        /* \"#utility.yul\":10733:10745   */\n      revert\n        /* \"#utility.yul\":10757:10874   */\n    tag_169:\n        /* \"#utility.yul\":10866:10867   */\n      0x00\n        /* \"#utility.yul\":10863:10864   */\n      dup1\n        /* \"#utility.yul\":10856:10868   */\n      revert\n        /* \"#utility.yul\":10880:10997   */\n    tag_162:\n        /* \"#utility.yul\":10989:10990   */\n      0x00\n        /* \"#utility.yul\":10986:10987   */\n      dup1\n        /* \"#utility.yul\":10979:10991   */\n      revert\n        /* \"#utility.yul\":11003:11105   */\n    tag_192:\n        /* \"#utility.yul\":11044:11050   */\n      0x00\n        /* \"#utility.yul\":11095:11097   */\n      0x1f\n        /* \"#utility.yul\":11091:11098   */\n      not\n        /* \"#utility.yul\":11086:11088   */\n      0x1f\n        /* \"#utility.yul\":11079:11084   */\n      dup4\n        /* \"#utility.yul\":11075:11089   */\n      add\n        /* \"#utility.yul\":11071:11099   */\n      and\n        /* \"#utility.yul\":11061:11099   */\n      swap1\n      pop\n        /* \"#utility.yul\":11003:11105   */\n      swap2\n      swap1\n      pop\n      jump\t// out\n        /* \"#utility.yul\":11111:11290   */\n    tag_197:\n        /* \"#utility.yul\":11251:11282   */\n      0x706c656173652073656c6563742074686520636c617373206669727374000000\n        /* \"#utility.yul\":11247:11248   */\n      0x00\n        /* \"#utility.yul\":11239:11245   */\n      dup3\n        /* \"#utility.yul\":11235:11249   */\n      add\n        /* \"#utility.yul\":11228:11283   */\n      mstore\n        /* \"#utility.yul\":11111:11290   */\n      pop\n      jump\t// out\n        /* \"#utility.yul\":11296:11475   */\n    tag_202:\n        /* \"#utility.yul\":11436:11467   */\n      0x796f75206861766520616c726561647920626f6f6b206120636c617373000000\n        /* \"#utility.yul\":11432:11433   */\n      0x00\n        /* \"#utility.yul\":11424:11430   */\n      dup3\n        /* \"#utility.yul\":11420:11434   */\n      add\n        /* \"#utility.yul\":11413:11468   */\n      mstore\n        /* \"#utility.yul\":11296:11475   */\n      pop\n      jump\t// out\n        /* \"#utility.yul\":11481:11663   */\n    tag_207:\n        /* \"#utility.yul\":11621:11655   */\n      0x596f75206861766520616c726561647920706169642074686520616d6f756e74\n        /* \"#utility.yul\":11617:11618   */\n      0x00\n        /* \"#utility.yul\":11609:11615   */\n      dup3\n        /* \"#utility.yul\":11605:11619   */\n      add\n        /* \"#utility.yul\":11598:11656   */\n      mstore\n        /* \"#utility.yul\":11481:11663   */\n      pop\n      jump\t// out\n        /* \"#utility.yul\":11669:11791   */\n    tag_148:\n        /* \"#utility.yul\":11742:11766   */\n      tag_283\n        /* \"#utility.yul\":11760:11765   */\n      dup2\n        /* \"#utility.yul\":11742:11766   */\n      tag_178\n      jump\t// in\n    tag_283:\n        /* \"#utility.yul\":11735:11740   */\n      dup2\n        /* \"#utility.yul\":11732:11767   */\n      eq\n        /* \"#utility.yul\":11722:11785   */\n      tag_284\n      jumpi\n        /* \"#utility.yul\":11781:11782   */\n      0x00\n        /* \"#utility.yul\":11778:11779   */\n      dup1\n        /* \"#utility.yul\":11771:11783   */\n      revert\n        /* \"#utility.yul\":11722:11785   */\n    tag_284:\n        /* \"#utility.yul\":11669:11791   */\n      pop\n      jump\t// out\n        /* \"#utility.yul\":11797:11919   */\n    tag_158:\n        /* \"#utility.yul\":11870:11894   */\n      tag_286\n        /* \"#utility.yul\":11888:11893   */\n      dup2\n        /* \"#utility.yul\":11870:11894   */\n      tag_211\n      jump\t// in\n    tag_286:\n        /* \"#utility.yul\":11863:11868   */\n      dup2\n        /* \"#utility.yul\":11860:11895   */\n      eq\n        /* \"#utility.yul\":11850:11913   */\n      tag_287\n      jumpi\n        /* \"#utility.yul\":11909:11910   */\n      0x00\n        /* \"#utility.yul\":11906:11907   */\n      dup1\n        /* \"#utility.yul\":11899:11911   */\n      revert\n        /* \"#utility.yul\":11850:11913   */\n    tag_287:\n        /* \"#utility.yul\":11797:11919   */\n      pop\n      jump\t// out\n\n    auxdata: 0xa264697066735822122032669c38dc0b0f9ec47c55485f843872a1511a453b1d3ff803b77b4fc47a667c64736f6c63430008070033\n}\n",
				"bytecode": {
					"linkReferences": {},
					"object": "6080604052600180556000600560146101000a81548160ff0219169083151502179055506000600560156101000a81548160ff02191690831515021790555034801561004a57600080fd5b5033600560006101000a81548173ffffffffffffffffffffffffffffffffffffffff021916908373ffffffffffffffffffffffffffffffffffffffff1602179055506117538061009b6000396000f3fe60806040526004361061007b5760003560e01c80638da5cb5b1161004e5780638da5cb5b146100e15780639ae5a2be1461010c578063b24fa0e414610137578063b90d3d0c1461014e5761007b565b806317ae45891461008057806342f6487a146100a957806350183507146100b35780637a1736d1146100ca575b600080fd5b34801561008c57600080fd5b506100a760048036038101906100a29190611166565b610191565b005b6100b16103f3565b005b3480156100bf57600080fd5b506100c8610701565b005b3480156100d657600080fd5b506100df61091a565b005b3480156100ed57600080fd5b506100f6610b33565b60405161010391906112c0565b60405180910390f35b34801561011857600080fd5b50610121610b59565b60405161012e91906112db565b60405180910390f35b34801561014357600080fd5b5061014c610bb0565b005b34801561015a57600080fd5b5061017560048036038101906101709190611139565b610dc8565b60405161018897969594939291906112f6565b60405180910390f35b600660003373ffffffffffffffffffffffffffffffffffffffff1673ffffffffffffffffffffffffffffffffffffffff16815260200190815260200160002060050160009054906101000a900460ff16610220576040517f08c379a00000000000000000000000000000000000000000000000000000000081526004016102179061137a565b60405180910390fd5b6040518060e001604052808481526020018381526020018281526020016003805461024a90611530565b80601f016020809104026020016040519081016040528092919081815260200182805461027690611530565b80156102c35780601f10610298576101008083540402835291602001916102c3565b820191906000526020600020905b8154815290600101906020018083116102a657829003601f168201915b505050505081526020016004548152602001600560159054906101000a900460ff1615158152602001600560149054906101000a900460ff161515815250600660003373ffffffffffffffffffffffffffffffffffffffff1673ffffffffffffffffffffffffffffffffffffffff168152602001908152602001600020600082015181600001908051906020019061035c929190610fbc565b506020820151816001019080519060200190610379929190610fbc565b506040820151816002015560608201518160030190805190602001906103a0929190610fbc565b506080820151816004015560a08201518160050160006101000a81548160ff02191690831515021790555060c08201518160050160016101000a81548160ff021916908315150217905550905050505050565b600660003373ffffffffffffffffffffffffffffffffffffffff1673ffffffffffffffffffffffffffffffffffffffff16815260200190815260200160002060050160019054906101000a900460ff1615610483576040517f08c379a000000000000000000000000000000000000000000000000000000000815260040161047a906113ba565b60405180910390fd5b600660003373ffffffffffffffffffffffffffffffffffffffff1673ffffffffffffffffffffffffffffffffffffffff168152602001908152602001600020600401543410156104d257600080fd5b600560009054906101000a900473ffffffffffffffffffffffffffffffffffffffff1673ffffffffffffffffffffffffffffffffffffffff166108fc349081150290604051600060405180830381858888f1935050505015801561053a573d6000803e3d6000fd5b506001600660003373ffffffffffffffffffffffffffffffffffffffff1673ffffffffffffffffffffffffffffffffffffffff16815260200190815260200160002060050160016101000a81548160ff021916908315150217905550600660003373ffffffffffffffffffffffffffffffffffffffff1673ffffffffffffffffffffffffffffffffffffffff16815260200190815260200160002060050160019054906101000a900460ff16600560146101000a81548160ff021916908315150217905550600660003373ffffffffffffffffffffffffffffffffffffffff1673ffffffffffffffffffffffffffffffffffffffff16815260200190815260200160002060050160019054906101000a900460ff16156106ff57600660003373ffffffffffffffffffffffffffffffffffffffff1673ffffffffffffffffffffffffffffffffffffffff168152602001908152602001600020600080820160006106a49190611042565b6001820160006106b49190611042565b60028201600090556003820160006106cc9190611042565b60048201600090556005820160006101000a81549060ff02191690556005820160016101000a81549060ff021916905550505b565b600660003373ffffffffffffffffffffffffffffffffffffffff1673ffffffffffffffffffffffffffffffffffffffff16815260200190815260200160002060050160009054906101000a900460ff1615610791576040517f08c379a00000000000000000000000000000000000000000000000000000000081526004016107889061139a565b60405180910390fd5b60008060006101000a81548160ff021916908360028111156107b6576107b56115c2565b5b021790555060008054906101000a900460ff1660028111156107db576107da6115c2565b5b60028190555060006002541415610918576040518060400160405280600b81526020017f466972737420436c61737300000000000000000000000000000000000000000081525060039080519060200190610837929190610fbc565b50662386f26fc1000060015461084d919061144c565b6004819055506001600660003373ffffffffffffffffffffffffffffffffffffffff1673ffffffffffffffffffffffffffffffffffffffff16815260200190815260200160002060050160006101000a81548160ff021916908315150217905550600660003373ffffffffffffffffffffffffffffffffffffffff1673ffffffffffffffffffffffffffffffffffffffff16815260200190815260200160002060050160009054906101000a900460ff16600560156101000a81548160ff0219169083151502179055505b565b600660003373ffffffffffffffffffffffffffffffffffffffff1673ffffffffffffffffffffffffffffffffffffffff16815260200190815260200160002060050160009054906101000a900460ff16156109aa576040517f08c379a00000000000000000000000000000000000000000000000000000000081526004016109a19061139a565b60405180910390fd5b60016000806101000a81548160ff021916908360028111156109cf576109ce6115c2565b5b021790555060008054906101000a900460ff1660028111156109f4576109f36115c2565b5b60028190555060016002541415610b31576040518060400160405280600d81526020017f45636f6e6f6d7920436c6173730000000000000000000000000000000000000081525060039080519060200190610a50929190610fbc565b506611c37937e08000600154610a66919061144c565b6004819055506001600660003373ffffffffffffffffffffffffffffffffffffffff1673ffffffffffffffffffffffffffffffffffffffff16815260200190815260200160002060050160006101000a81548160ff021916908315150217905550600660003373ffffffffffffffffffffffffffffffffffffffff1673ffffffffffffffffffffffffffffffffffffffff16815260200190815260200160002060050160009054906101000a900460ff16600560156101000a81548160ff0219169083151502179055505b565b600560009054906101000a900473ffffffffffffffffffffffffffffffffffffffff1681565b6000600660003373ffffffffffffffffffffffffffffffffffffffff1673ffffffffffffffffffffffffffffffffffffffff16815260200190815260200160002060050160019054906101000a900460ff16905090565b600660003373ffffffffffffffffffffffffffffffffffffffff1673ffffffffffffffffffffffffffffffffffffffff16815260200190815260200160002060050160009054906101000a900460ff1615610c40576040517f08c379a0000000000000000000000000000000000000000000000000000000008152600401610c379061139a565b60405180910390fd5b60026000806101000a81548160ff02191690836002811115610c6557610c646115c2565b5b021790555060008054906101000a900460ff166002811115610c8a57610c896115c2565b5b600281905550600280541415610dc6576040518060400160405280600e81526020017f427573696e65737320436c61737300000000000000000000000000000000000081525060039080519060200190610ce5929190610fbc565b506618de76816d8000600154610cfb919061144c565b6004819055506001600660003373ffffffffffffffffffffffffffffffffffffffff1673ffffffffffffffffffffffffffffffffffffffff16815260200190815260200160002060050160006101000a81548160ff021916908315150217905550600660003373ffffffffffffffffffffffffffffffffffffffff1673ffffffffffffffffffffffffffffffffffffffff16815260200190815260200160002060050160009054906101000a900460ff16600560156101000a81548160ff0219169083151502179055505b565b6006602052806000526040600020600091509050806000018054610deb90611530565b80601f0160208091040260200160405190810160405280929190818152602001828054610e1790611530565b8015610e645780601f10610e3957610100808354040283529160200191610e64565b820191906000526020600020905b815481529060010190602001808311610e4757829003601f168201915b505050505090806001018054610e7990611530565b80601f0160208091040260200160405190810160405280929190818152602001828054610ea590611530565b8015610ef25780601f10610ec757610100808354040283529160200191610ef2565b820191906000526020600020905b815481529060010190602001808311610ed557829003601f168201915b505050505090806002015490806003018054610f0d90611530565b80601f0160208091040260200160405190810160405280929190818152602001828054610f3990611530565b8015610f865780601f10610f5b57610100808354040283529160200191610f86565b820191906000526020600020905b815481529060010190602001808311610f6957829003601f168201915b5050505050908060040154908060050160009054906101000a900460ff16908060050160019054906101000a900460ff16905087565b828054610fc890611530565b90600052602060002090601f016020900481019282610fea5760008555611031565b82601f1061100357805160ff1916838001178555611031565b82800160010185558215611031579182015b82811115611030578251825591602001919060010190611015565b5b50905061103e9190611082565b5090565b50805461104e90611530565b6000825580601f10611060575061107f565b601f01602090049060005260206000209081019061107e9190611082565b5b50565b5b8082111561109b576000816000905550600101611083565b5090565b60006110b26110ad846113ff565b6113da565b9050828152602081018484840111156110ce576110cd611654565b5b6110d98482856114ee565b509392505050565b6000813590506110f0816116ef565b92915050565b600082601f83011261110b5761110a61164f565b5b813561111b84826020860161109f565b91505092915050565b60008135905061113381611706565b92915050565b60006020828403121561114f5761114e61165e565b5b600061115d848285016110e1565b91505092915050565b60008060006060848603121561117f5761117e61165e565b5b600084013567ffffffffffffffff81111561119d5761119c611659565b5b6111a9868287016110f6565b935050602084013567ffffffffffffffff8111156111ca576111c9611659565b5b6111d6868287016110f6565b92505060406111e786828701611124565b9150509250925092565b6111fa816114a6565b82525050565b611209816114b8565b82525050565b600061121a82611430565b611224818561143b565b93506112348185602086016114fd565b61123d81611663565b840191505092915050565b6000611255601d8361143b565b915061126082611674565b602082019050919050565b6000611278601d8361143b565b91506112838261169d565b602082019050919050565b600061129b60208361143b565b91506112a6826116c6565b602082019050919050565b6112ba816114e4565b82525050565b60006020820190506112d560008301846111f1565b92915050565b60006020820190506112f06000830184611200565b92915050565b600060e0820190508181036000830152611310818a61120f565b90508181036020830152611324818961120f565b905061133360408301886112b1565b8181036060830152611345818761120f565b905061135460808301866112b1565b61136160a0830185611200565b61136e60c0830184611200565b98975050505050505050565b6000602082019050818103600083015261139381611248565b9050919050565b600060208201905081810360008301526113b38161126b565b9050919050565b600060208201905081810360008301526113d38161128e565b9050919050565b60006113e46113f5565b90506113f08282611562565b919050565b6000604051905090565b600067ffffffffffffffff82111561141a57611419611620565b5b61142382611663565b9050602081019050919050565b600081519050919050565b600082825260208201905092915050565b6000611457826114e4565b9150611462836114e4565b9250817fffffffffffffffffffffffffffffffffffffffffffffffffffffffffffffffff048311821515161561149b5761149a611593565b5b828202905092915050565b60006114b1826114c4565b9050919050565b60008115159050919050565b600073ffffffffffffffffffffffffffffffffffffffff82169050919050565b6000819050919050565b82818337600083830152505050565b60005b8381101561151b578082015181840152602081019050611500565b8381111561152a576000848401525b50505050565b6000600282049050600182168061154857607f821691505b6020821081141561155c5761155b6115f1565b5b50919050565b61156b82611663565b810181811067ffffffffffffffff8211171561158a57611589611620565b5b80604052505050565b7f4e487b7100000000000000000000000000000000000000000000000000000000600052601160045260246000fd5b7f4e487b7100000000000000000000000000000000000000000000000000000000600052602160045260246000fd5b7f4e487b7100000000000000000000000000000000000000000000000000000000600052602260045260246000fd5b7f4e487b7100000000000000000000000000000000000000000000000000000000600052604160045260246000fd5b600080fd5b600080fd5b600080fd5b600080fd5b6000601f19601f8301169050919050565b7f706c656173652073656c6563742074686520636c617373206669727374000000600082015250565b7f796f75206861766520616c726561647920626f6f6b206120636c617373000000600082015250565b7f596f75206861766520616c726561647920706169642074686520616d6f756e74600082015250565b6116f8816114a6565b811461170357600080fd5b50565b61170f816114e4565b811461171a57600080fd5b5056fea264697066735822122032669c38dc0b0f9ec47c55485f843872a1511a453b1d3ff803b77b4fc47a667c64736f6c63430008070033",
					"opcodes": "PUSH1 0x80 PUSH1 0x40 MSTORE PUSH1 0x1 DUP1 SSTORE PUSH1 0x0 PUSH1 0x5 PUSH1 0x14 PUSH2 0x100 EXP DUP2 SLOAD DUP2 PUSH1 0xFF MUL NOT AND SWAP1 DUP4 ISZERO ISZERO MUL OR SWAP1 SSTORE POP PUSH1 0x0 PUSH1 0x5 PUSH1 0x15 PUSH2 0x100 EXP DUP2 SLOAD DUP2 PUSH1 0xFF MUL NOT AND SWAP1 DUP4 ISZERO ISZERO MUL OR SWAP1 SSTORE POP CALLVALUE DUP1 ISZERO PUSH2 0x4A JUMPI PUSH1 0x0 DUP1 REVERT JUMPDEST POP CALLER PUSH1 0x5 PUSH1 0x0 PUSH2 0x100 EXP DUP2 SLOAD DUP2 PUSH20 0xFFFFFFFFFFFFFFFFFFFFFFFFFFFFFFFFFFFFFFFF MUL NOT AND SWAP1 DUP4 PUSH20 0xFFFFFFFFFFFFFFFFFFFFFFFFFFFFFFFFFFFFFFFF AND MUL OR SWAP1 SSTORE POP PUSH2 0x1753 DUP1 PUSH2 0x9B PUSH1 0x0 CODECOPY PUSH1 0x0 RETURN INVALID PUSH1 0x80 PUSH1 0x40 MSTORE PUSH1 0x4 CALLDATASIZE LT PUSH2 0x7B JUMPI PUSH1 0x0 CALLDATALOAD PUSH1 0xE0 SHR DUP1 PUSH4 0x8DA5CB5B GT PUSH2 0x4E JUMPI DUP1 PUSH4 0x8DA5CB5B EQ PUSH2 0xE1 JUMPI DUP1 PUSH4 0x9AE5A2BE EQ PUSH2 0x10C JUMPI DUP1 PUSH4 0xB24FA0E4 EQ PUSH2 0x137 JUMPI DUP1 PUSH4 0xB90D3D0C EQ PUSH2 0x14E JUMPI PUSH2 0x7B JUMP JUMPDEST DUP1 PUSH4 0x17AE4589 EQ PUSH2 0x80 JUMPI DUP1 PUSH4 0x42F6487A EQ PUSH2 0xA9 JUMPI DUP1 PUSH4 0x50183507 EQ PUSH2 0xB3 JUMPI DUP1 PUSH4 0x7A1736D1 EQ PUSH2 0xCA JUMPI JUMPDEST PUSH1 0x0 DUP1 REVERT JUMPDEST CALLVALUE DUP1 ISZERO PUSH2 0x8C JUMPI PUSH1 0x0 DUP1 REVERT JUMPDEST POP PUSH2 0xA7 PUSH1 0x4 DUP1 CALLDATASIZE SUB DUP2 ADD SWAP1 PUSH2 0xA2 SWAP2 SWAP1 PUSH2 0x1166 JUMP JUMPDEST PUSH2 0x191 JUMP JUMPDEST STOP JUMPDEST PUSH2 0xB1 PUSH2 0x3F3 JUMP JUMPDEST STOP JUMPDEST CALLVALUE DUP1 ISZERO PUSH2 0xBF JUMPI PUSH1 0x0 DUP1 REVERT JUMPDEST POP PUSH2 0xC8 PUSH2 0x701 JUMP JUMPDEST STOP JUMPDEST CALLVALUE DUP1 ISZERO PUSH2 0xD6 JUMPI PUSH1 0x0 DUP1 REVERT JUMPDEST POP PUSH2 0xDF PUSH2 0x91A JUMP JUMPDEST STOP JUMPDEST CALLVALUE DUP1 ISZERO PUSH2 0xED JUMPI PUSH1 0x0 DUP1 REVERT JUMPDEST POP PUSH2 0xF6 PUSH2 0xB33 JUMP JUMPDEST PUSH1 0x40 MLOAD PUSH2 0x103 SWAP2 SWAP1 PUSH2 0x12C0 JUMP JUMPDEST PUSH1 0x40 MLOAD DUP1 SWAP2 SUB SWAP1 RETURN JUMPDEST CALLVALUE DUP1 ISZERO PUSH2 0x118 JUMPI PUSH1 0x0 DUP1 REVERT JUMPDEST POP PUSH2 0x121 PUSH2 0xB59 JUMP JUMPDEST PUSH1 0x40 MLOAD PUSH2 0x12E SWAP2 SWAP1 PUSH2 0x12DB JUMP JUMPDEST PUSH1 0x40 MLOAD DUP1 SWAP2 SUB SWAP1 RETURN JUMPDEST CALLVALUE DUP1 ISZERO PUSH2 0x143 JUMPI PUSH1 0x0 DUP1 REVERT JUMPDEST POP PUSH2 0x14C PUSH2 0xBB0 JUMP JUMPDEST STOP JUMPDEST CALLVALUE DUP1 ISZERO PUSH2 0x15A JUMPI PUSH1 0x0 DUP1 REVERT JUMPDEST POP PUSH2 0x175 PUSH1 0x4 DUP1 CALLDATASIZE SUB DUP2 ADD SWAP1 PUSH2 0x170 SWAP2 SWAP1 PUSH2 0x1139 JUMP JUMPDEST PUSH2 0xDC8 JUMP JUMPDEST PUSH1 0x40 MLOAD PUSH2 0x188 SWAP8 SWAP7 SWAP6 SWAP5 SWAP4 SWAP3 SWAP2 SWAP1 PUSH2 0x12F6 JUMP JUMPDEST PUSH1 0x40 MLOAD DUP1 SWAP2 SUB SWAP1 RETURN JUMPDEST PUSH1 0x6 PUSH1 0x0 CALLER PUSH20 0xFFFFFFFFFFFFFFFFFFFFFFFFFFFFFFFFFFFFFFFF AND PUSH20 0xFFFFFFFFFFFFFFFFFFFFFFFFFFFFFFFFFFFFFFFF AND DUP2 MSTORE PUSH1 0x20 ADD SWAP1 DUP2 MSTORE PUSH1 0x20 ADD PUSH1 0x0 KECCAK256 PUSH1 0x5 ADD PUSH1 0x0 SWAP1 SLOAD SWAP1 PUSH2 0x100 EXP SWAP1 DIV PUSH1 0xFF AND PUSH2 0x220 JUMPI PUSH1 0x40 MLOAD PUSH32 0x8C379A000000000000000000000000000000000000000000000000000000000 DUP2 MSTORE PUSH1 0x4 ADD PUSH2 0x217 SWAP1 PUSH2 0x137A JUMP JUMPDEST PUSH1 0x40 MLOAD DUP1 SWAP2 SUB SWAP1 REVERT JUMPDEST PUSH1 0x40 MLOAD DUP1 PUSH1 0xE0 ADD PUSH1 0x40 MSTORE DUP1 DUP5 DUP2 MSTORE PUSH1 0x20 ADD DUP4 DUP2 MSTORE PUSH1 0x20 ADD DUP3 DUP2 MSTORE PUSH1 0x20 ADD PUSH1 0x3 DUP1 SLOAD PUSH2 0x24A SWAP1 PUSH2 0x1530 JUMP JUMPDEST DUP1 PUSH1 0x1F ADD PUSH1 0x20 DUP1 SWAP2 DIV MUL PUSH1 0x20 ADD PUSH1 0x40 MLOAD SWAP1 DUP2 ADD PUSH1 0x40 MSTORE DUP1 SWAP3 SWAP2 SWAP1 DUP2 DUP2 MSTORE PUSH1 0x20 ADD DUP3 DUP1 SLOAD PUSH2 0x276 SWAP1 PUSH2 0x1530 JUMP JUMPDEST DUP1 ISZERO PUSH2 0x2C3 JUMPI DUP1 PUSH1 0x1F LT PUSH2 0x298 JUMPI PUSH2 0x100 DUP1 DUP4 SLOAD DIV MUL DUP4 MSTORE SWAP2 PUSH1 0x20 ADD SWAP2 PUSH2 0x2C3 JUMP JUMPDEST DUP3 ADD SWAP2 SWAP1 PUSH1 0x0 MSTORE PUSH1 0x20 PUSH1 0x0 KECCAK256 SWAP1 JUMPDEST DUP2 SLOAD DUP2 MSTORE SWAP1 PUSH1 0x1 ADD SWAP1 PUSH1 0x20 ADD DUP1 DUP4 GT PUSH2 0x2A6 JUMPI DUP3 SWAP1 SUB PUSH1 0x1F AND DUP3 ADD SWAP2 JUMPDEST POP POP POP POP POP DUP2 MSTORE PUSH1 0x20 ADD PUSH1 0x4 SLOAD DUP2 MSTORE PUSH1 0x20 ADD PUSH1 0x5 PUSH1 0x15 SWAP1 SLOAD SWAP1 PUSH2 0x100 EXP SWAP1 DIV PUSH1 0xFF AND ISZERO ISZERO DUP2 MSTORE PUSH1 0x20 ADD PUSH1 0x5 PUSH1 0x14 SWAP1 SLOAD SWAP1 PUSH2 0x100 EXP SWAP1 DIV PUSH1 0xFF AND ISZERO ISZERO DUP2 MSTORE POP PUSH1 0x6 PUSH1 0x0 CALLER PUSH20 0xFFFFFFFFFFFFFFFFFFFFFFFFFFFFFFFFFFFFFFFF AND PUSH20 0xFFFFFFFFFFFFFFFFFFFFFFFFFFFFFFFFFFFFFFFF AND DUP2 MSTORE PUSH1 0x20 ADD SWAP1 DUP2 MSTORE PUSH1 0x20 ADD PUSH1 0x0 KECCAK256 PUSH1 0x0 DUP3 ADD MLOAD DUP2 PUSH1 0x0 ADD SWAP1 DUP1 MLOAD SWAP1 PUSH1 0x20 ADD SWAP1 PUSH2 0x35C SWAP3 SWAP2 SWAP1 PUSH2 0xFBC JUMP JUMPDEST POP PUSH1 0x20 DUP3 ADD MLOAD DUP2 PUSH1 0x1 ADD SWAP1 DUP1 MLOAD SWAP1 PUSH1 0x20 ADD SWAP1 PUSH2 0x379 SWAP3 SWAP2 SWAP1 PUSH2 0xFBC JUMP JUMPDEST POP PUSH1 0x40 DUP3 ADD MLOAD DUP2 PUSH1 0x2 ADD SSTORE PUSH1 0x60 DUP3 ADD MLOAD DUP2 PUSH1 0x3 ADD SWAP1 DUP1 MLOAD SWAP1 PUSH1 0x20 ADD SWAP1 PUSH2 0x3A0 SWAP3 SWAP2 SWAP1 PUSH2 0xFBC JUMP JUMPDEST POP PUSH1 0x80 DUP3 ADD MLOAD DUP2 PUSH1 0x4 ADD SSTORE PUSH1 0xA0 DUP3 ADD MLOAD DUP2 PUSH1 0x5 ADD PUSH1 0x0 PUSH2 0x100 EXP DUP2 SLOAD DUP2 PUSH1 0xFF MUL NOT AND SWAP1 DUP4 ISZERO ISZERO MUL OR SWAP1 SSTORE POP PUSH1 0xC0 DUP3 ADD MLOAD DUP2 PUSH1 0x5 ADD PUSH1 0x1 PUSH2 0x100 EXP DUP2 SLOAD DUP2 PUSH1 0xFF MUL NOT AND SWAP1 DUP4 ISZERO ISZERO MUL OR SWAP1 SSTORE POP SWAP1 POP POP POP POP POP JUMP JUMPDEST PUSH1 0x6 PUSH1 0x0 CALLER PUSH20 0xFFFFFFFFFFFFFFFFFFFFFFFFFFFFFFFFFFFFFFFF AND PUSH20 0xFFFFFFFFFFFFFFFFFFFFFFFFFFFFFFFFFFFFFFFF AND DUP2 MSTORE PUSH1 0x20 ADD SWAP1 DUP2 MSTORE PUSH1 0x20 ADD PUSH1 0x0 KECCAK256 PUSH1 0x5 ADD PUSH1 0x1 SWAP1 SLOAD SWAP1 PUSH2 0x100 EXP SWAP1 DIV PUSH1 0xFF AND ISZERO PUSH2 0x483 JUMPI PUSH1 0x40 MLOAD PUSH32 0x8C379A000000000000000000000000000000000000000000000000000000000 DUP2 MSTORE PUSH1 0x4 ADD PUSH2 0x47A SWAP1 PUSH2 0x13BA JUMP JUMPDEST PUSH1 0x40 MLOAD DUP1 SWAP2 SUB SWAP1 REVERT JUMPDEST PUSH1 0x6 PUSH1 0x0 CALLER PUSH20 0xFFFFFFFFFFFFFFFFFFFFFFFFFFFFFFFFFFFFFFFF AND PUSH20 0xFFFFFFFFFFFFFFFFFFFFFFFFFFFFFFFFFFFFFFFF AND DUP2 MSTORE PUSH1 0x20 ADD SWAP1 DUP2 MSTORE PUSH1 0x20 ADD PUSH1 0x0 KECCAK256 PUSH1 0x4 ADD SLOAD CALLVALUE LT ISZERO PUSH2 0x4D2 JUMPI PUSH1 0x0 DUP1 REVERT JUMPDEST PUSH1 0x5 PUSH1 0x0 SWAP1 SLOAD SWAP1 PUSH2 0x100 EXP SWAP1 DIV PUSH20 0xFFFFFFFFFFFFFFFFFFFFFFFFFFFFFFFFFFFFFFFF AND PUSH20 0xFFFFFFFFFFFFFFFFFFFFFFFFFFFFFFFFFFFFFFFF AND PUSH2 0x8FC CALLVALUE SWAP1 DUP2 ISZERO MUL SWAP1 PUSH1 0x40 MLOAD PUSH1 0x0 PUSH1 0x40 MLOAD DUP1 DUP4 SUB DUP2 DUP6 DUP9 DUP9 CALL SWAP4 POP POP POP POP ISZERO DUP1 ISZERO PUSH2 0x53A JUMPI RETURNDATASIZE PUSH1 0x0 DUP1 RETURNDATACOPY RETURNDATASIZE PUSH1 0x0 REVERT JUMPDEST POP PUSH1 0x1 PUSH1 0x6 PUSH1 0x0 CALLER PUSH20 0xFFFFFFFFFFFFFFFFFFFFFFFFFFFFFFFFFFFFFFFF AND PUSH20 0xFFFFFFFFFFFFFFFFFFFFFFFFFFFFFFFFFFFFFFFF AND DUP2 MSTORE PUSH1 0x20 ADD SWAP1 DUP2 MSTORE PUSH1 0x20 ADD PUSH1 0x0 KECCAK256 PUSH1 0x5 ADD PUSH1 0x1 PUSH2 0x100 EXP DUP2 SLOAD DUP2 PUSH1 0xFF MUL NOT AND SWAP1 DUP4 ISZERO ISZERO MUL OR SWAP1 SSTORE POP PUSH1 0x6 PUSH1 0x0 CALLER PUSH20 0xFFFFFFFFFFFFFFFFFFFFFFFFFFFFFFFFFFFFFFFF AND PUSH20 0xFFFFFFFFFFFFFFFFFFFFFFFFFFFFFFFFFFFFFFFF AND DUP2 MSTORE PUSH1 0x20 ADD SWAP1 DUP2 MSTORE PUSH1 0x20 ADD PUSH1 0x0 KECCAK256 PUSH1 0x5 ADD PUSH1 0x1 SWAP1 SLOAD SWAP1 PUSH2 0x100 EXP SWAP1 DIV PUSH1 0xFF AND PUSH1 0x5 PUSH1 0x14 PUSH2 0x100 EXP DUP2 SLOAD DUP2 PUSH1 0xFF MUL NOT AND SWAP1 DUP4 ISZERO ISZERO MUL OR SWAP1 SSTORE POP PUSH1 0x6 PUSH1 0x0 CALLER PUSH20 0xFFFFFFFFFFFFFFFFFFFFFFFFFFFFFFFFFFFFFFFF AND PUSH20 0xFFFFFFFFFFFFFFFFFFFFFFFFFFFFFFFFFFFFFFFF AND DUP2 MSTORE PUSH1 0x20 ADD SWAP1 DUP2 MSTORE PUSH1 0x20 ADD PUSH1 0x0 KECCAK256 PUSH1 0x5 ADD PUSH1 0x1 SWAP1 SLOAD SWAP1 PUSH2 0x100 EXP SWAP1 DIV PUSH1 0xFF AND ISZERO PUSH2 0x6FF JUMPI PUSH1 0x6 PUSH1 0x0 CALLER PUSH20 0xFFFFFFFFFFFFFFFFFFFFFFFFFFFFFFFFFFFFFFFF AND PUSH20 0xFFFFFFFFFFFFFFFFFFFFFFFFFFFFFFFFFFFFFFFF AND DUP2 MSTORE PUSH1 0x20 ADD SWAP1 DUP2 MSTORE PUSH1 0x20 ADD PUSH1 0x0 KECCAK256 PUSH1 0x0 DUP1 DUP3 ADD PUSH1 0x0 PUSH2 0x6A4 SWAP2 SWAP1 PUSH2 0x1042 JUMP JUMPDEST PUSH1 0x1 DUP3 ADD PUSH1 0x0 PUSH2 0x6B4 SWAP2 SWAP1 PUSH2 0x1042 JUMP JUMPDEST PUSH1 0x2 DUP3 ADD PUSH1 0x0 SWAP1 SSTORE PUSH1 0x3 DUP3 ADD PUSH1 0x0 PUSH2 0x6CC SWAP2 SWAP1 PUSH2 0x1042 JUMP JUMPDEST PUSH1 0x4 DUP3 ADD PUSH1 0x0 SWAP1 SSTORE PUSH1 0x5 DUP3 ADD PUSH1 0x0 PUSH2 0x100 EXP DUP2 SLOAD SWAP1 PUSH1 0xFF MUL NOT AND SWAP1 SSTORE PUSH1 0x5 DUP3 ADD PUSH1 0x1 PUSH2 0x100 EXP DUP2 SLOAD SWAP1 PUSH1 0xFF MUL NOT AND SWAP1 SSTORE POP POP JUMPDEST JUMP JUMPDEST PUSH1 0x6 PUSH1 0x0 CALLER PUSH20 0xFFFFFFFFFFFFFFFFFFFFFFFFFFFFFFFFFFFFFFFF AND PUSH20 0xFFFFFFFFFFFFFFFFFFFFFFFFFFFFFFFFFFFFFFFF AND DUP2 MSTORE PUSH1 0x20 ADD SWAP1 DUP2 MSTORE PUSH1 0x20 ADD PUSH1 0x0 KECCAK256 PUSH1 0x5 ADD PUSH1 0x0 SWAP1 SLOAD SWAP1 PUSH2 0x100 EXP SWAP1 DIV PUSH1 0xFF AND ISZERO PUSH2 0x791 JUMPI PUSH1 0x40 MLOAD PUSH32 0x8C379A000000000000000000000000000000000000000000000000000000000 DUP2 MSTORE PUSH1 0x4 ADD PUSH2 0x788 SWAP1 PUSH2 0x139A JUMP JUMPDEST PUSH1 0x40 MLOAD DUP1 SWAP2 SUB SWAP1 REVERT JUMPDEST PUSH1 0x0 DUP1 PUSH1 0x0 PUSH2 0x100 EXP DUP2 SLOAD DUP2 PUSH1 0xFF MUL NOT AND SWAP1 DUP4 PUSH1 0x2 DUP2 GT ISZERO PUSH2 0x7B6 JUMPI PUSH2 0x7B5 PUSH2 0x15C2 JUMP JUMPDEST JUMPDEST MUL OR SWAP1 SSTORE POP PUSH1 0x0 DUP1 SLOAD SWAP1 PUSH2 0x100 EXP SWAP1 DIV PUSH1 0xFF AND PUSH1 0x2 DUP2 GT ISZERO PUSH2 0x7DB JUMPI PUSH2 0x7DA PUSH2 0x15C2 JUMP JUMPDEST JUMPDEST PUSH1 0x2 DUP2 SWAP1 SSTORE POP PUSH1 0x0 PUSH1 0x2 SLOAD EQ ISZERO PUSH2 0x918 JUMPI PUSH1 0x40 MLOAD DUP1 PUSH1 0x40 ADD PUSH1 0x40 MSTORE DUP1 PUSH1 0xB DUP2 MSTORE PUSH1 0x20 ADD PUSH32 0x466972737420436C617373000000000000000000000000000000000000000000 DUP2 MSTORE POP PUSH1 0x3 SWAP1 DUP1 MLOAD SWAP1 PUSH1 0x20 ADD SWAP1 PUSH2 0x837 SWAP3 SWAP2 SWAP1 PUSH2 0xFBC JUMP JUMPDEST POP PUSH7 0x2386F26FC10000 PUSH1 0x1 SLOAD PUSH2 0x84D SWAP2 SWAP1 PUSH2 0x144C JUMP JUMPDEST PUSH1 0x4 DUP2 SWAP1 SSTORE POP PUSH1 0x1 PUSH1 0x6 PUSH1 0x0 CALLER PUSH20 0xFFFFFFFFFFFFFFFFFFFFFFFFFFFFFFFFFFFFFFFF AND PUSH20 0xFFFFFFFFFFFFFFFFFFFFFFFFFFFFFFFFFFFFFFFF AND DUP2 MSTORE PUSH1 0x20 ADD SWAP1 DUP2 MSTORE PUSH1 0x20 ADD PUSH1 0x0 KECCAK256 PUSH1 0x5 ADD PUSH1 0x0 PUSH2 0x100 EXP DUP2 SLOAD DUP2 PUSH1 0xFF MUL NOT AND SWAP1 DUP4 ISZERO ISZERO MUL OR SWAP1 SSTORE POP PUSH1 0x6 PUSH1 0x0 CALLER PUSH20 0xFFFFFFFFFFFFFFFFFFFFFFFFFFFFFFFFFFFFFFFF AND PUSH20 0xFFFFFFFFFFFFFFFFFFFFFFFFFFFFFFFFFFFFFFFF AND DUP2 MSTORE PUSH1 0x20 ADD SWAP1 DUP2 MSTORE PUSH1 0x20 ADD PUSH1 0x0 KECCAK256 PUSH1 0x5 ADD PUSH1 0x0 SWAP1 SLOAD SWAP1 PUSH2 0x100 EXP SWAP1 DIV PUSH1 0xFF AND PUSH1 0x5 PUSH1 0x15 PUSH2 0x100 EXP DUP2 SLOAD DUP2 PUSH1 0xFF MUL NOT AND SWAP1 DUP4 ISZERO ISZERO MUL OR SWAP1 SSTORE POP JUMPDEST JUMP JUMPDEST PUSH1 0x6 PUSH1 0x0 CALLER PUSH20 0xFFFFFFFFFFFFFFFFFFFFFFFFFFFFFFFFFFFFFFFF AND PUSH20 0xFFFFFFFFFFFFFFFFFFFFFFFFFFFFFFFFFFFFFFFF AND DUP2 MSTORE PUSH1 0x20 ADD SWAP1 DUP2 MSTORE PUSH1 0x20 ADD PUSH1 0x0 KECCAK256 PUSH1 0x5 ADD PUSH1 0x0 SWAP1 SLOAD SWAP1 PUSH2 0x100 EXP SWAP1 DIV PUSH1 0xFF AND ISZERO PUSH2 0x9AA JUMPI PUSH1 0x40 MLOAD PUSH32 0x8C379A000000000000000000000000000000000000000000000000000000000 DUP2 MSTORE PUSH1 0x4 ADD PUSH2 0x9A1 SWAP1 PUSH2 0x139A JUMP JUMPDEST PUSH1 0x40 MLOAD DUP1 SWAP2 SUB SWAP1 REVERT JUMPDEST PUSH1 0x1 PUSH1 0x0 DUP1 PUSH2 0x100 EXP DUP2 SLOAD DUP2 PUSH1 0xFF MUL NOT AND SWAP1 DUP4 PUSH1 0x2 DUP2 GT ISZERO PUSH2 0x9CF JUMPI PUSH2 0x9CE PUSH2 0x15C2 JUMP JUMPDEST JUMPDEST MUL OR SWAP1 SSTORE POP PUSH1 0x0 DUP1 SLOAD SWAP1 PUSH2 0x100 EXP SWAP1 DIV PUSH1 0xFF AND PUSH1 0x2 DUP2 GT ISZERO PUSH2 0x9F4 JUMPI PUSH2 0x9F3 PUSH2 0x15C2 JUMP JUMPDEST JUMPDEST PUSH1 0x2 DUP2 SWAP1 SSTORE POP PUSH1 0x1 PUSH1 0x2 SLOAD EQ ISZERO PUSH2 0xB31 JUMPI PUSH1 0x40 MLOAD DUP1 PUSH1 0x40 ADD PUSH1 0x40 MSTORE DUP1 PUSH1 0xD DUP2 MSTORE PUSH1 0x20 ADD PUSH32 0x45636F6E6F6D7920436C61737300000000000000000000000000000000000000 DUP2 MSTORE POP PUSH1 0x3 SWAP1 DUP1 MLOAD SWAP1 PUSH1 0x20 ADD SWAP1 PUSH2 0xA50 SWAP3 SWAP2 SWAP1 PUSH2 0xFBC JUMP JUMPDEST POP PUSH7 0x11C37937E08000 PUSH1 0x1 SLOAD PUSH2 0xA66 SWAP2 SWAP1 PUSH2 0x144C JUMP JUMPDEST PUSH1 0x4 DUP2 SWAP1 SSTORE POP PUSH1 0x1 PUSH1 0x6 PUSH1 0x0 CALLER PUSH20 0xFFFFFFFFFFFFFFFFFFFFFFFFFFFFFFFFFFFFFFFF AND PUSH20 0xFFFFFFFFFFFFFFFFFFFFFFFFFFFFFFFFFFFFFFFF AND DUP2 MSTORE PUSH1 0x20 ADD SWAP1 DUP2 MSTORE PUSH1 0x20 ADD PUSH1 0x0 KECCAK256 PUSH1 0x5 ADD PUSH1 0x0 PUSH2 0x100 EXP DUP2 SLOAD DUP2 PUSH1 0xFF MUL NOT AND SWAP1 DUP4 ISZERO ISZERO MUL OR SWAP1 SSTORE POP PUSH1 0x6 PUSH1 0x0 CALLER PUSH20 0xFFFFFFFFFFFFFFFFFFFFFFFFFFFFFFFFFFFFFFFF AND PUSH20 0xFFFFFFFFFFFFFFFFFFFFFFFFFFFFFFFFFFFFFFFF AND DUP2 MSTORE PUSH1 0x20 ADD SWAP1 DUP2 MSTORE PUSH1 0x20 ADD PUSH1 0x0 KECCAK256 PUSH1 0x5 ADD PUSH1 0x0 SWAP1 SLOAD SWAP1 PUSH2 0x100 EXP SWAP1 DIV PUSH1 0xFF AND PUSH1 0x5 PUSH1 0x15 PUSH2 0x100 EXP DUP2 SLOAD DUP2 PUSH1 0xFF MUL NOT AND SWAP1 DUP4 ISZERO ISZERO MUL OR SWAP1 SSTORE POP JUMPDEST JUMP JUMPDEST PUSH1 0x5 PUSH1 0x0 SWAP1 SLOAD SWAP1 PUSH2 0x100 EXP SWAP1 DIV PUSH20 0xFFFFFFFFFFFFFFFFFFFFFFFFFFFFFFFFFFFFFFFF AND DUP2 JUMP JUMPDEST PUSH1 0x0 PUSH1 0x6 PUSH1 0x0 CALLER PUSH20 0xFFFFFFFFFFFFFFFFFFFFFFFFFFFFFFFFFFFFFFFF AND PUSH20 0xFFFFFFFFFFFFFFFFFFFFFFFFFFFFFFFFFFFFFFFF AND DUP2 MSTORE PUSH1 0x20 ADD SWAP1 DUP2 MSTORE PUSH1 0x20 ADD PUSH1 0x0 KECCAK256 PUSH1 0x5 ADD PUSH1 0x1 SWAP1 SLOAD SWAP1 PUSH2 0x100 EXP SWAP1 DIV PUSH1 0xFF AND SWAP1 POP SWAP1 JUMP JUMPDEST PUSH1 0x6 PUSH1 0x0 CALLER PUSH20 0xFFFFFFFFFFFFFFFFFFFFFFFFFFFFFFFFFFFFFFFF AND PUSH20 0xFFFFFFFFFFFFFFFFFFFFFFFFFFFFFFFFFFFFFFFF AND DUP2 MSTORE PUSH1 0x20 ADD SWAP1 DUP2 MSTORE PUSH1 0x20 ADD PUSH1 0x0 KECCAK256 PUSH1 0x5 ADD PUSH1 0x0 SWAP1 SLOAD SWAP1 PUSH2 0x100 EXP SWAP1 DIV PUSH1 0xFF AND ISZERO PUSH2 0xC40 JUMPI PUSH1 0x40 MLOAD PUSH32 0x8C379A000000000000000000000000000000000000000000000000000000000 DUP2 MSTORE PUSH1 0x4 ADD PUSH2 0xC37 SWAP1 PUSH2 0x139A JUMP JUMPDEST PUSH1 0x40 MLOAD DUP1 SWAP2 SUB SWAP1 REVERT JUMPDEST PUSH1 0x2 PUSH1 0x0 DUP1 PUSH2 0x100 EXP DUP2 SLOAD DUP2 PUSH1 0xFF MUL NOT AND SWAP1 DUP4 PUSH1 0x2 DUP2 GT ISZERO PUSH2 0xC65 JUMPI PUSH2 0xC64 PUSH2 0x15C2 JUMP JUMPDEST JUMPDEST MUL OR SWAP1 SSTORE POP PUSH1 0x0 DUP1 SLOAD SWAP1 PUSH2 0x100 EXP SWAP1 DIV PUSH1 0xFF AND PUSH1 0x2 DUP2 GT ISZERO PUSH2 0xC8A JUMPI PUSH2 0xC89 PUSH2 0x15C2 JUMP JUMPDEST JUMPDEST PUSH1 0x2 DUP2 SWAP1 SSTORE POP PUSH1 0x2 DUP1 SLOAD EQ ISZERO PUSH2 0xDC6 JUMPI PUSH1 0x40 MLOAD DUP1 PUSH1 0x40 ADD PUSH1 0x40 MSTORE DUP1 PUSH1 0xE DUP2 MSTORE PUSH1 0x20 ADD PUSH32 0x427573696E65737320436C617373000000000000000000000000000000000000 DUP2 MSTORE POP PUSH1 0x3 SWAP1 DUP1 MLOAD SWAP1 PUSH1 0x20 ADD SWAP1 PUSH2 0xCE5 SWAP3 SWAP2 SWAP1 PUSH2 0xFBC JUMP JUMPDEST POP PUSH7 0x18DE76816D8000 PUSH1 0x1 SLOAD PUSH2 0xCFB SWAP2 SWAP1 PUSH2 0x144C JUMP JUMPDEST PUSH1 0x4 DUP2 SWAP1 SSTORE POP PUSH1 0x1 PUSH1 0x6 PUSH1 0x0 CALLER PUSH20 0xFFFFFFFFFFFFFFFFFFFFFFFFFFFFFFFFFFFFFFFF AND PUSH20 0xFFFFFFFFFFFFFFFFFFFFFFFFFFFFFFFFFFFFFFFF AND DUP2 MSTORE PUSH1 0x20 ADD SWAP1 DUP2 MSTORE PUSH1 0x20 ADD PUSH1 0x0 KECCAK256 PUSH1 0x5 ADD PUSH1 0x0 PUSH2 0x100 EXP DUP2 SLOAD DUP2 PUSH1 0xFF MUL NOT AND SWAP1 DUP4 ISZERO ISZERO MUL OR SWAP1 SSTORE POP PUSH1 0x6 PUSH1 0x0 CALLER PUSH20 0xFFFFFFFFFFFFFFFFFFFFFFFFFFFFFFFFFFFFFFFF AND PUSH20 0xFFFFFFFFFFFFFFFFFFFFFFFFFFFFFFFFFFFFFFFF AND DUP2 MSTORE PUSH1 0x20 ADD SWAP1 DUP2 MSTORE PUSH1 0x20 ADD PUSH1 0x0 KECCAK256 PUSH1 0x5 ADD PUSH1 0x0 SWAP1 SLOAD SWAP1 PUSH2 0x100 EXP SWAP1 DIV PUSH1 0xFF AND PUSH1 0x5 PUSH1 0x15 PUSH2 0x100 EXP DUP2 SLOAD DUP2 PUSH1 0xFF MUL NOT AND SWAP1 DUP4 ISZERO ISZERO MUL OR SWAP1 SSTORE POP JUMPDEST JUMP JUMPDEST PUSH1 0x6 PUSH1 0x20 MSTORE DUP1 PUSH1 0x0 MSTORE PUSH1 0x40 PUSH1 0x0 KECCAK256 PUSH1 0x0 SWAP2 POP SWAP1 POP DUP1 PUSH1 0x0 ADD DUP1 SLOAD PUSH2 0xDEB SWAP1 PUSH2 0x1530 JUMP JUMPDEST DUP1 PUSH1 0x1F ADD PUSH1 0x20 DUP1 SWAP2 DIV MUL PUSH1 0x20 ADD PUSH1 0x40 MLOAD SWAP1 DUP2 ADD PUSH1 0x40 MSTORE DUP1 SWAP3 SWAP2 SWAP1 DUP2 DUP2 MSTORE PUSH1 0x20 ADD DUP3 DUP1 SLOAD PUSH2 0xE17 SWAP1 PUSH2 0x1530 JUMP JUMPDEST DUP1 ISZERO PUSH2 0xE64 JUMPI DUP1 PUSH1 0x1F LT PUSH2 0xE39 JUMPI PUSH2 0x100 DUP1 DUP4 SLOAD DIV MUL DUP4 MSTORE SWAP2 PUSH1 0x20 ADD SWAP2 PUSH2 0xE64 JUMP JUMPDEST DUP3 ADD SWAP2 SWAP1 PUSH1 0x0 MSTORE PUSH1 0x20 PUSH1 0x0 KECCAK256 SWAP1 JUMPDEST DUP2 SLOAD DUP2 MSTORE SWAP1 PUSH1 0x1 ADD SWAP1 PUSH1 0x20 ADD DUP1 DUP4 GT PUSH2 0xE47 JUMPI DUP3 SWAP1 SUB PUSH1 0x1F AND DUP3 ADD SWAP2 JUMPDEST POP POP POP POP POP SWAP1 DUP1 PUSH1 0x1 ADD DUP1 SLOAD PUSH2 0xE79 SWAP1 PUSH2 0x1530 JUMP JUMPDEST DUP1 PUSH1 0x1F ADD PUSH1 0x20 DUP1 SWAP2 DIV MUL PUSH1 0x20 ADD PUSH1 0x40 MLOAD SWAP1 DUP2 ADD PUSH1 0x40 MSTORE DUP1 SWAP3 SWAP2 SWAP1 DUP2 DUP2 MSTORE PUSH1 0x20 ADD DUP3 DUP1 SLOAD PUSH2 0xEA5 SWAP1 PUSH2 0x1530 JUMP JUMPDEST DUP1 ISZERO PUSH2 0xEF2 JUMPI DUP1 PUSH1 0x1F LT PUSH2 0xEC7 JUMPI PUSH2 0x100 DUP1 DUP4 SLOAD DIV MUL DUP4 MSTORE SWAP2 PUSH1 0x20 ADD SWAP2 PUSH2 0xEF2 JUMP JUMPDEST DUP3 ADD SWAP2 SWAP1 PUSH1 0x0 MSTORE PUSH1 0x20 PUSH1 0x0 KECCAK256 SWAP1 JUMPDEST DUP2 SLOAD DUP2 MSTORE SWAP1 PUSH1 0x1 ADD SWAP1 PUSH1 0x20 ADD DUP1 DUP4 GT PUSH2 0xED5 JUMPI DUP3 SWAP1 SUB PUSH1 0x1F AND DUP3 ADD SWAP2 JUMPDEST POP POP POP POP POP SWAP1 DUP1 PUSH1 0x2 ADD SLOAD SWAP1 DUP1 PUSH1 0x3 ADD DUP1 SLOAD PUSH2 0xF0D SWAP1 PUSH2 0x1530 JUMP JUMPDEST DUP1 PUSH1 0x1F ADD PUSH1 0x20 DUP1 SWAP2 DIV MUL PUSH1 0x20 ADD PUSH1 0x40 MLOAD SWAP1 DUP2 ADD PUSH1 0x40 MSTORE DUP1 SWAP3 SWAP2 SWAP1 DUP2 DUP2 MSTORE PUSH1 0x20 ADD DUP3 DUP1 SLOAD PUSH2 0xF39 SWAP1 PUSH2 0x1530 JUMP JUMPDEST DUP1 ISZERO PUSH2 0xF86 JUMPI DUP1 PUSH1 0x1F LT PUSH2 0xF5B JUMPI PUSH2 0x100 DUP1 DUP4 SLOAD DIV MUL DUP4 MSTORE SWAP2 PUSH1 0x20 ADD SWAP2 PUSH2 0xF86 JUMP JUMPDEST DUP3 ADD SWAP2 SWAP1 PUSH1 0x0 MSTORE PUSH1 0x20 PUSH1 0x0 KECCAK256 SWAP1 JUMPDEST DUP2 SLOAD DUP2 MSTORE SWAP1 PUSH1 0x1 ADD SWAP1 PUSH1 0x20 ADD DUP1 DUP4 GT PUSH2 0xF69 JUMPI DUP3 SWAP1 SUB PUSH1 0x1F AND DUP3 ADD SWAP2 JUMPDEST POP POP POP POP POP SWAP1 DUP1 PUSH1 0x4 ADD SLOAD SWAP1 DUP1 PUSH1 0x5 ADD PUSH1 0x0 SWAP1 SLOAD SWAP1 PUSH2 0x100 EXP SWAP1 DIV PUSH1 0xFF AND SWAP1 DUP1 PUSH1 0x5 ADD PUSH1 0x1 SWAP1 SLOAD SWAP1 PUSH2 0x100 EXP SWAP1 DIV PUSH1 0xFF AND SWAP1 POP DUP8 JUMP JUMPDEST DUP3 DUP1 SLOAD PUSH2 0xFC8 SWAP1 PUSH2 0x1530 JUMP JUMPDEST SWAP1 PUSH1 0x0 MSTORE PUSH1 0x20 PUSH1 0x0 KECCAK256 SWAP1 PUSH1 0x1F ADD PUSH1 0x20 SWAP1 DIV DUP2 ADD SWAP3 DUP3 PUSH2 0xFEA JUMPI PUSH1 0x0 DUP6 SSTORE PUSH2 0x1031 JUMP JUMPDEST DUP3 PUSH1 0x1F LT PUSH2 0x1003 JUMPI DUP1 MLOAD PUSH1 0xFF NOT AND DUP4 DUP1 ADD OR DUP6 SSTORE PUSH2 0x1031 JUMP JUMPDEST DUP3 DUP1 ADD PUSH1 0x1 ADD DUP6 SSTORE DUP3 ISZERO PUSH2 0x1031 JUMPI SWAP2 DUP3 ADD JUMPDEST DUP3 DUP2 GT ISZERO PUSH2 0x1030 JUMPI DUP3 MLOAD DUP3 SSTORE SWAP2 PUSH1 0x20 ADD SWAP2 SWAP1 PUSH1 0x1 ADD SWAP1 PUSH2 0x1015 JUMP JUMPDEST JUMPDEST POP SWAP1 POP PUSH2 0x103E SWAP2 SWAP1 PUSH2 0x1082 JUMP JUMPDEST POP SWAP1 JUMP JUMPDEST POP DUP1 SLOAD PUSH2 0x104E SWAP1 PUSH2 0x1530 JUMP JUMPDEST PUSH1 0x0 DUP3 SSTORE DUP1 PUSH1 0x1F LT PUSH2 0x1060 JUMPI POP PUSH2 0x107F JUMP JUMPDEST PUSH1 0x1F ADD PUSH1 0x20 SWAP1 DIV SWAP1 PUSH1 0x0 MSTORE PUSH1 0x20 PUSH1 0x0 KECCAK256 SWAP1 DUP2 ADD SWAP1 PUSH2 0x107E SWAP2 SWAP1 PUSH2 0x1082 JUMP JUMPDEST JUMPDEST POP JUMP JUMPDEST JUMPDEST DUP1 DUP3 GT ISZERO PUSH2 0x109B JUMPI PUSH1 0x0 DUP2 PUSH1 0x0 SWAP1 SSTORE POP PUSH1 0x1 ADD PUSH2 0x1083 JUMP JUMPDEST POP SWAP1 JUMP JUMPDEST PUSH1 0x0 PUSH2 0x10B2 PUSH2 0x10AD DUP5 PUSH2 0x13FF JUMP JUMPDEST PUSH2 0x13DA JUMP JUMPDEST SWAP1 POP DUP3 DUP2 MSTORE PUSH1 0x20 DUP2 ADD DUP5 DUP5 DUP5 ADD GT ISZERO PUSH2 0x10CE JUMPI PUSH2 0x10CD PUSH2 0x1654 JUMP JUMPDEST JUMPDEST PUSH2 0x10D9 DUP5 DUP3 DUP6 PUSH2 0x14EE JUMP JUMPDEST POP SWAP4 SWAP3 POP POP POP JUMP JUMPDEST PUSH1 0x0 DUP2 CALLDATALOAD SWAP1 POP PUSH2 0x10F0 DUP2 PUSH2 0x16EF JUMP JUMPDEST SWAP3 SWAP2 POP POP JUMP JUMPDEST PUSH1 0x0 DUP3 PUSH1 0x1F DUP4 ADD SLT PUSH2 0x110B JUMPI PUSH2 0x110A PUSH2 0x164F JUMP JUMPDEST JUMPDEST DUP2 CALLDATALOAD PUSH2 0x111B DUP5 DUP3 PUSH1 0x20 DUP7 ADD PUSH2 0x109F JUMP JUMPDEST SWAP2 POP POP SWAP3 SWAP2 POP POP JUMP JUMPDEST PUSH1 0x0 DUP2 CALLDATALOAD SWAP1 POP PUSH2 0x1133 DUP2 PUSH2 0x1706 JUMP JUMPDEST SWAP3 SWAP2 POP POP JUMP JUMPDEST PUSH1 0x0 PUSH1 0x20 DUP3 DUP5 SUB SLT ISZERO PUSH2 0x114F JUMPI PUSH2 0x114E PUSH2 0x165E JUMP JUMPDEST JUMPDEST PUSH1 0x0 PUSH2 0x115D DUP5 DUP3 DUP6 ADD PUSH2 0x10E1 JUMP JUMPDEST SWAP2 POP POP SWAP3 SWAP2 POP POP JUMP JUMPDEST PUSH1 0x0 DUP1 PUSH1 0x0 PUSH1 0x60 DUP5 DUP7 SUB SLT ISZERO PUSH2 0x117F JUMPI PUSH2 0x117E PUSH2 0x165E JUMP JUMPDEST JUMPDEST PUSH1 0x0 DUP5 ADD CALLDATALOAD PUSH8 0xFFFFFFFFFFFFFFFF DUP2 GT ISZERO PUSH2 0x119D JUMPI PUSH2 0x119C PUSH2 0x1659 JUMP JUMPDEST JUMPDEST PUSH2 0x11A9 DUP7 DUP3 DUP8 ADD PUSH2 0x10F6 JUMP JUMPDEST SWAP4 POP POP PUSH1 0x20 DUP5 ADD CALLDATALOAD PUSH8 0xFFFFFFFFFFFFFFFF DUP2 GT ISZERO PUSH2 0x11CA JUMPI PUSH2 0x11C9 PUSH2 0x1659 JUMP JUMPDEST JUMPDEST PUSH2 0x11D6 DUP7 DUP3 DUP8 ADD PUSH2 0x10F6 JUMP JUMPDEST SWAP3 POP POP PUSH1 0x40 PUSH2 0x11E7 DUP7 DUP3 DUP8 ADD PUSH2 0x1124 JUMP JUMPDEST SWAP2 POP POP SWAP3 POP SWAP3 POP SWAP3 JUMP JUMPDEST PUSH2 0x11FA DUP2 PUSH2 0x14A6 JUMP JUMPDEST DUP3 MSTORE POP POP JUMP JUMPDEST PUSH2 0x1209 DUP2 PUSH2 0x14B8 JUMP JUMPDEST DUP3 MSTORE POP POP JUMP JUMPDEST PUSH1 0x0 PUSH2 0x121A DUP3 PUSH2 0x1430 JUMP JUMPDEST PUSH2 0x1224 DUP2 DUP6 PUSH2 0x143B JUMP JUMPDEST SWAP4 POP PUSH2 0x1234 DUP2 DUP6 PUSH1 0x20 DUP7 ADD PUSH2 0x14FD JUMP JUMPDEST PUSH2 0x123D DUP2 PUSH2 0x1663 JUMP JUMPDEST DUP5 ADD SWAP2 POP POP SWAP3 SWAP2 POP POP JUMP JUMPDEST PUSH1 0x0 PUSH2 0x1255 PUSH1 0x1D DUP4 PUSH2 0x143B JUMP JUMPDEST SWAP2 POP PUSH2 0x1260 DUP3 PUSH2 0x1674 JUMP JUMPDEST PUSH1 0x20 DUP3 ADD SWAP1 POP SWAP2 SWAP1 POP JUMP JUMPDEST PUSH1 0x0 PUSH2 0x1278 PUSH1 0x1D DUP4 PUSH2 0x143B JUMP JUMPDEST SWAP2 POP PUSH2 0x1283 DUP3 PUSH2 0x169D JUMP JUMPDEST PUSH1 0x20 DUP3 ADD SWAP1 POP SWAP2 SWAP1 POP JUMP JUMPDEST PUSH1 0x0 PUSH2 0x129B PUSH1 0x20 DUP4 PUSH2 0x143B JUMP JUMPDEST SWAP2 POP PUSH2 0x12A6 DUP3 PUSH2 0x16C6 JUMP JUMPDEST PUSH1 0x20 DUP3 ADD SWAP1 POP SWAP2 SWAP1 POP JUMP JUMPDEST PUSH2 0x12BA DUP2 PUSH2 0x14E4 JUMP JUMPDEST DUP3 MSTORE POP POP JUMP JUMPDEST PUSH1 0x0 PUSH1 0x20 DUP3 ADD SWAP1 POP PUSH2 0x12D5 PUSH1 0x0 DUP4 ADD DUP5 PUSH2 0x11F1 JUMP JUMPDEST SWAP3 SWAP2 POP POP JUMP JUMPDEST PUSH1 0x0 PUSH1 0x20 DUP3 ADD SWAP1 POP PUSH2 0x12F0 PUSH1 0x0 DUP4 ADD DUP5 PUSH2 0x1200 JUMP JUMPDEST SWAP3 SWAP2 POP POP JUMP JUMPDEST PUSH1 0x0 PUSH1 0xE0 DUP3 ADD SWAP1 POP DUP2 DUP2 SUB PUSH1 0x0 DUP4 ADD MSTORE PUSH2 0x1310 DUP2 DUP11 PUSH2 0x120F JUMP JUMPDEST SWAP1 POP DUP2 DUP2 SUB PUSH1 0x20 DUP4 ADD MSTORE PUSH2 0x1324 DUP2 DUP10 PUSH2 0x120F JUMP JUMPDEST SWAP1 POP PUSH2 0x1333 PUSH1 0x40 DUP4 ADD DUP9 PUSH2 0x12B1 JUMP JUMPDEST DUP2 DUP2 SUB PUSH1 0x60 DUP4 ADD MSTORE PUSH2 0x1345 DUP2 DUP8 PUSH2 0x120F JUMP JUMPDEST SWAP1 POP PUSH2 0x1354 PUSH1 0x80 DUP4 ADD DUP7 PUSH2 0x12B1 JUMP JUMPDEST PUSH2 0x1361 PUSH1 0xA0 DUP4 ADD DUP6 PUSH2 0x1200 JUMP JUMPDEST PUSH2 0x136E PUSH1 0xC0 DUP4 ADD DUP5 PUSH2 0x1200 JUMP JUMPDEST SWAP9 SWAP8 POP POP POP POP POP POP POP POP JUMP JUMPDEST PUSH1 0x0 PUSH1 0x20 DUP3 ADD SWAP1 POP DUP2 DUP2 SUB PUSH1 0x0 DUP4 ADD MSTORE PUSH2 0x1393 DUP2 PUSH2 0x1248 JUMP JUMPDEST SWAP1 POP SWAP2 SWAP1 POP JUMP JUMPDEST PUSH1 0x0 PUSH1 0x20 DUP3 ADD SWAP1 POP DUP2 DUP2 SUB PUSH1 0x0 DUP4 ADD MSTORE PUSH2 0x13B3 DUP2 PUSH2 0x126B JUMP JUMPDEST SWAP1 POP SWAP2 SWAP1 POP JUMP JUMPDEST PUSH1 0x0 PUSH1 0x20 DUP3 ADD SWAP1 POP DUP2 DUP2 SUB PUSH1 0x0 DUP4 ADD MSTORE PUSH2 0x13D3 DUP2 PUSH2 0x128E JUMP JUMPDEST SWAP1 POP SWAP2 SWAP1 POP JUMP JUMPDEST PUSH1 0x0 PUSH2 0x13E4 PUSH2 0x13F5 JUMP JUMPDEST SWAP1 POP PUSH2 0x13F0 DUP3 DUP3 PUSH2 0x1562 JUMP JUMPDEST SWAP2 SWAP1 POP JUMP JUMPDEST PUSH1 0x0 PUSH1 0x40 MLOAD SWAP1 POP SWAP1 JUMP JUMPDEST PUSH1 0x0 PUSH8 0xFFFFFFFFFFFFFFFF DUP3 GT ISZERO PUSH2 0x141A JUMPI PUSH2 0x1419 PUSH2 0x1620 JUMP JUMPDEST JUMPDEST PUSH2 0x1423 DUP3 PUSH2 0x1663 JUMP JUMPDEST SWAP1 POP PUSH1 0x20 DUP2 ADD SWAP1 POP SWAP2 SWAP1 POP JUMP JUMPDEST PUSH1 0x0 DUP2 MLOAD SWAP1 POP SWAP2 SWAP1 POP JUMP JUMPDEST PUSH1 0x0 DUP3 DUP3 MSTORE PUSH1 0x20 DUP3 ADD SWAP1 POP SWAP3 SWAP2 POP POP JUMP JUMPDEST PUSH1 0x0 PUSH2 0x1457 DUP3 PUSH2 0x14E4 JUMP JUMPDEST SWAP2 POP PUSH2 0x1462 DUP4 PUSH2 0x14E4 JUMP JUMPDEST SWAP3 POP DUP2 PUSH32 0xFFFFFFFFFFFFFFFFFFFFFFFFFFFFFFFFFFFFFFFFFFFFFFFFFFFFFFFFFFFFFFFF DIV DUP4 GT DUP3 ISZERO ISZERO AND ISZERO PUSH2 0x149B JUMPI PUSH2 0x149A PUSH2 0x1593 JUMP JUMPDEST JUMPDEST DUP3 DUP3 MUL SWAP1 POP SWAP3 SWAP2 POP POP JUMP JUMPDEST PUSH1 0x0 PUSH2 0x14B1 DUP3 PUSH2 0x14C4 JUMP JUMPDEST SWAP1 POP SWAP2 SWAP1 POP JUMP JUMPDEST PUSH1 0x0 DUP2 ISZERO ISZERO SWAP1 POP SWAP2 SWAP1 POP JUMP JUMPDEST PUSH1 0x0 PUSH20 0xFFFFFFFFFFFFFFFFFFFFFFFFFFFFFFFFFFFFFFFF DUP3 AND SWAP1 POP SWAP2 SWAP1 POP JUMP JUMPDEST PUSH1 0x0 DUP2 SWAP1 POP SWAP2 SWAP1 POP JUMP JUMPDEST DUP3 DUP2 DUP4 CALLDATACOPY PUSH1 0x0 DUP4 DUP4 ADD MSTORE POP POP POP JUMP JUMPDEST PUSH1 0x0 JUMPDEST DUP4 DUP2 LT ISZERO PUSH2 0x151B JUMPI DUP1 DUP3 ADD MLOAD DUP2 DUP5 ADD MSTORE PUSH1 0x20 DUP2 ADD SWAP1 POP PUSH2 0x1500 JUMP JUMPDEST DUP4 DUP2 GT ISZERO PUSH2 0x152A JUMPI PUSH1 0x0 DUP5 DUP5 ADD MSTORE JUMPDEST POP POP POP POP JUMP JUMPDEST PUSH1 0x0 PUSH1 0x2 DUP3 DIV SWAP1 POP PUSH1 0x1 DUP3 AND DUP1 PUSH2 0x1548 JUMPI PUSH1 0x7F DUP3 AND SWAP2 POP JUMPDEST PUSH1 0x20 DUP3 LT DUP2 EQ ISZERO PUSH2 0x155C JUMPI PUSH2 0x155B PUSH2 0x15F1 JUMP JUMPDEST JUMPDEST POP SWAP2 SWAP1 POP JUMP JUMPDEST PUSH2 0x156B DUP3 PUSH2 0x1663 JUMP JUMPDEST DUP2 ADD DUP2 DUP2 LT PUSH8 0xFFFFFFFFFFFFFFFF DUP3 GT OR ISZERO PUSH2 0x158A JUMPI PUSH2 0x1589 PUSH2 0x1620 JUMP JUMPDEST JUMPDEST DUP1 PUSH1 0x40 MSTORE POP POP POP JUMP JUMPDEST PUSH32 0x4E487B7100000000000000000000000000000000000000000000000000000000 PUSH1 0x0 MSTORE PUSH1 0x11 PUSH1 0x4 MSTORE PUSH1 0x24 PUSH1 0x0 REVERT JUMPDEST PUSH32 0x4E487B7100000000000000000000000000000000000000000000000000000000 PUSH1 0x0 MSTORE PUSH1 0x21 PUSH1 0x4 MSTORE PUSH1 0x24 PUSH1 0x0 REVERT JUMPDEST PUSH32 0x4E487B7100000000000000000000000000000000000000000000000000000000 PUSH1 0x0 MSTORE PUSH1 0x22 PUSH1 0x4 MSTORE PUSH1 0x24 PUSH1 0x0 REVERT JUMPDEST PUSH32 0x4E487B7100000000000000000000000000000000000000000000000000000000 PUSH1 0x0 MSTORE PUSH1 0x41 PUSH1 0x4 MSTORE PUSH1 0x24 PUSH1 0x0 REVERT JUMPDEST PUSH1 0x0 DUP1 REVERT JUMPDEST PUSH1 0x0 DUP1 REVERT JUMPDEST PUSH1 0x0 DUP1 REVERT JUMPDEST PUSH1 0x0 DUP1 REVERT JUMPDEST PUSH1 0x0 PUSH1 0x1F NOT PUSH1 0x1F DUP4 ADD AND SWAP1 POP SWAP2 SWAP1 POP JUMP JUMPDEST PUSH32 0x706C656173652073656C6563742074686520636C617373206669727374000000 PUSH1 0x0 DUP3 ADD MSTORE POP JUMP JUMPDEST PUSH32 0x796F75206861766520616C726561647920626F6F6B206120636C617373000000 PUSH1 0x0 DUP3 ADD MSTORE POP JUMP JUMPDEST PUSH32 0x596F75206861766520616C726561647920706169642074686520616D6F756E74 PUSH1 0x0 DUP3 ADD MSTORE POP JUMP JUMPDEST PUSH2 0x16F8 DUP2 PUSH2 0x14A6 JUMP JUMPDEST DUP2 EQ PUSH2 0x1703 JUMPI PUSH1 0x0 DUP1 REVERT JUMPDEST POP JUMP JUMPDEST PUSH2 0x170F DUP2 PUSH2 0x14E4 JUMP JUMPDEST DUP2 EQ PUSH2 0x171A JUMPI PUSH1 0x0 DUP1 REVERT JUMPDEST POP JUMP INVALID LOG2 PUSH5 0x6970667358 0x22 SLT KECCAK256 ORIGIN PUSH7 0x9C38DC0B0F9EC4 PUSH29 0x55485F843872A1511A453B1D3FF803B77B4FC47A667C64736F6C634300 ADDMOD SMOD STOP CALLER "
				},
				"gasEstimates": {
					"creation": {
						"codeDepositCost": "1194200",
						"executionCost": "96247",
						"totalCost": "1290447"
					},
					"external": {
						"busnissClass()": "infinite",
						"data(address)": "infinite",
						"economyClass()": "infinite",
						"firstClass()": "infinite",
						"owner()": "2514",
						"payment()": "infinite",
						"see()": "2646",
						"setData(string,string,uint256)": "infinite"
					}
				},
				"methodIdentifiers": {
					"busnissClass()": "b24fa0e4",
					"data(address)": "b90d3d0c",
					"economyClass()": "7a1736d1",
					"firstClass()": "50183507",
					"owner()": "8da5cb5b",
					"payment()": "42f6487a",
					"see()": "9ae5a2be",
					"setData(string,string,uint256)": "17ae4589"
				}
			},
			"userdoc": {
				"kind": "user",
				"methods": {},
				"version": 1
			}
		}
	}
}