{
	"problem_2018.sol": {
		"problem": {
			"abi": [
				{
					"constant": false,
					"inputs": [],
					"name": "setter",
					"outputs": [],
					"payable": false,
					"stateMutability": "nonpayable",
					"type": "function"
				}
			],
			"devdoc": {
				"methods": {}
			},
			"evm": {
				"assembly": "    /* \"problem_2018.sol\":65:185  contract problem\r... */\n  mstore(0x40, 0x80)\n    /* \"problem_2018.sol\":103:106  255 */\n  0xff\n    /* \"problem_2018.sol\":90:106  uint money = 255 */\n  0x0\n  sstore\n    /* \"problem_2018.sol\":65:185  contract problem\r... */\n  callvalue\n    /* \"--CODEGEN--\":8:17   */\n  dup1\n    /* \"--CODEGEN--\":5:7   */\n  iszero\n  tag_1\n  jumpi\n    /* \"--CODEGEN--\":30:31   */\n  0x0\n    /* \"--CODEGEN--\":27:28   */\n  dup1\n    /* \"--CODEGEN--\":20:32   */\n  revert\n    /* \"--CODEGEN--\":5:7   */\ntag_1:\n    /* \"problem_2018.sol\":65:185  contract problem\r... */\n  pop\n  dataSize(sub_0)\n  dup1\n  dataOffset(sub_0)\n  0x0\n  codecopy\n  0x0\n  return\nstop\n\nsub_0: assembly {\n        /* \"problem_2018.sol\":65:185  contract problem\r... */\n      mstore(0x40, 0x80)\n      jumpi(tag_1, lt(calldatasize, 0x4))\n      calldataload(0x0)\n      0x100000000000000000000000000000000000000000000000000000000\n      swap1\n      div\n      0xffffffff\n      and\n      dup1\n      0x3f3108f7\n      eq\n      tag_2\n      jumpi\n    tag_1:\n      0x0\n      dup1\n      revert\n        /* \"problem_2018.sol\":116:182  function setter() public\r... */\n    tag_2:\n      callvalue\n        /* \"--CODEGEN--\":8:17   */\n      dup1\n        /* \"--CODEGEN--\":5:7   */\n      iszero\n      tag_3\n      jumpi\n        /* \"--CODEGEN--\":30:31   */\n      0x0\n        /* \"--CODEGEN--\":27:28   */\n      dup1\n        /* \"--CODEGEN--\":20:32   */\n      revert\n        /* \"--CODEGEN--\":5:7   */\n    tag_3:\n        /* \"problem_2018.sol\":116:182  function setter() public\r... */\n      pop\n      tag_4\n      jump(tag_5)\n    tag_4:\n      stop\n    tag_5:\n        /* \"problem_2018.sol\":173:174  1 */\n      0x1\n        /* \"problem_2018.sol\":165:170  money */\n      sload(0x0)\n        /* \"problem_2018.sol\":165:174  money + 1 */\n      add\n        /* \"problem_2018.sol\":157:162  money */\n      0x0\n        /* \"problem_2018.sol\":157:174  money = money + 1 */\n      dup2\n      swap1\n      sstore\n      pop\n        /* \"problem_2018.sol\":116:182  function setter() public\r... */\n      jump\t// out\n\n    auxdata: 0xa165627a7a723058205ef671b20c23c8be859a6e2fb31862e0827b8b00d00bd93b4dc7c5c590f8e37f0029\n}\n",
				"bytecode": {
					"linkReferences": {},
					"object": "608060405260ff600055348015601457600080fd5b506092806100236000396000f3fe608060405260043610603f576000357c0100000000000000000000000000000000000000000000000000000000900463ffffffff1680633f3108f7146044575b600080fd5b348015604f57600080fd5b5060566058565b005b60016000540160008190555056fea165627a7a723058205ef671b20c23c8be859a6e2fb31862e0827b8b00d00bd93b4dc7c5c590f8e37f0029",
					"opcodes": "PUSH1 0x80 PUSH1 0x40 MSTORE PUSH1 0xFF PUSH1 0x0 SSTORE CALLVALUE DUP1 ISZERO PUSH1 0x14 JUMPI PUSH1 0x0 DUP1 REVERT JUMPDEST POP PUSH1 0x92 DUP1 PUSH2 0x23 PUSH1 0x0 CODECOPY PUSH1 0x0 RETURN INVALID PUSH1 0x80 PUSH1 0x40 MSTORE PUSH1 0x4 CALLDATASIZE LT PUSH1 0x3F JUMPI PUSH1 0x0 CALLDATALOAD PUSH29 0x100000000000000000000000000000000000000000000000000000000 SWAP1 DIV PUSH4 0xFFFFFFFF AND DUP1 PUSH4 0x3F3108F7 EQ PUSH1 0x44 JUMPI JUMPDEST PUSH1 0x0 DUP1 REVERT JUMPDEST CALLVALUE DUP1 ISZERO PUSH1 0x4F JUMPI PUSH1 0x0 DUP1 REVERT JUMPDEST POP PUSH1 0x56 PUSH1 0x58 JUMP JUMPDEST STOP JUMPDEST PUSH1 0x1 PUSH1 0x0 SLOAD ADD PUSH1 0x0 DUP2 SWAP1 SSTORE POP JUMP INVALID LOG1 PUSH6 0x627A7A723058 KECCAK256 0x5e 0xf6 PUSH18 0xB20C23C8BE859A6E2FB31862E0827B8B00D0 SIGNEXTEND 0xd9 EXTCODESIZE 0x4d 0xc7 0xc5 0xc5 SWAP1 0xf8 0xe3 PUSH32 0x29000000000000000000000000000000000000000000000000000000000000 "
				},
				"gasEstimates": {
					"creation": {
						"codeDepositCost": "29200",
						"executionCost": "20087",
						"totalCost": "49287"
					},
					"external": {
						"setter()": "20353"
					}
				},
				"methodIdentifiers": {
					"setter()": "3f3108f7"
				}
			},
			"userdoc": {
				"methods": {}
			}
		}
	}
}