{
	"bootcampquiz.sol": {
		"AirlineTickets": {
			"abi": [
				{
					"inputs": [],
					"name": "busClassCost",
					"outputs": [
						{
							"internalType": "uint256",
							"name": "",
							"type": "uint256"
						}
					],
					"stateMutability": "view",
					"type": "function"
				},
				{
					"inputs": [],
					"name": "busnissClass",
					"outputs": [],
					"stateMutability": "nonpayable",
					"type": "function"
				},
				{
					"inputs": [
						{
							"internalType": "address",
							"name": "",
							"type": "address"
						}
					],
					"name": "data",
					"outputs": [
						{
							"internalType": "string",
							"name": "name",
							"type": "string"
						},
						{
							"internalType": "string",
							"name": "des",
							"type": "string"
						},
						{
							"internalType": "uint256",
							"name": "pass_id",
							"type": "uint256"
						},
						{
							"internalType": "string",
							"name": "ticket",
							"type": "string"
						},
						{
							"internalType": "uint256",
							"name": "cost",
							"type": "uint256"
						}
					],
					"stateMutability": "view",
					"type": "function"
				},
				{
					"inputs": [],
					"name": "ecoClassCost",
					"outputs": [
						{
							"internalType": "uint256",
							"name": "",
							"type": "uint256"
						}
					],
					"stateMutability": "view",
					"type": "function"
				},
				{
					"inputs": [],
					"name": "economyClass",
					"outputs": [],
					"stateMutability": "nonpayable",
					"type": "function"
				},
				{
					"inputs": [],
					"name": "firstClass",
					"outputs": [],
					"stateMutability": "nonpayable",
					"type": "function"
				},
				{
					"inputs": [],
					"name": "firstClassCost",
					"outputs": [
						{
							"internalType": "uint256",
							"name": "",
							"type": "uint256"
						}
					],
					"stateMutability": "view",
					"type": "function"
				},
				{
					"inputs": [],
					"name": "oneEth",
					"outputs": [
						{
							"internalType": "uint256",
							"name": "",
							"type": "uint256"
						}
					],
					"stateMutability": "view",
					"type": "function"
				},
				{
					"inputs": [],
					"name": "oneWei",
					"outputs": [
						{
							"internalType": "uint256",
							"name": "",
							"type": "uint256"
						}
					],
					"stateMutability": "view",
					"type": "function"
				},
				{
					"inputs": [
						{
							"internalType": "string",
							"name": "_name",
							"type": "string"
						},
						{
							"internalType": "string",
							"name": "_des",
							"type": "string"
						},
						{
							"internalType": "uint256",
							"name": "_pass_id",
							"type": "uint256"
						}
					],
					"name": "setData",
					"outputs": [],
					"stateMutability": "nonpayable",
					"type": "function"
				},
				{
					"inputs": [],
					"name": "u1",
					"outputs": [
						{
							"internalType": "enum AirlineTickets.classTypes",
							"name": "",
							"type": "uint8"
						}
					],
					"stateMutability": "view",
					"type": "function"
				}
			],
			"devdoc": {
				"kind": "dev",
				"methods": {},
				"version": 1
			},
			"evm": {
				"assembly": "    /* \"bootcampquiz.sol\":74:2013  contract AirlineTickets {\r... */\n  mstore(0x40, 0x80)\n    /* \"bootcampquiz.sol\":265:270  false */\n  0x00\n    /* \"bootcampquiz.sol\":251:270  bool booked = false */\n  dup1\n  exp(0x0100, 0x00)\n  dup2\n  sload\n  dup2\n  0xff\n  mul\n  not\n  and\n  swap1\n  dup4\n  iszero\n  iszero\n  mul\n  or\n  swap1\n  sstore\n  pop\n    /* \"bootcampquiz.sol\":363:395  string realVal = \"Economy Class\" */\n  mload(0x40)\n  dup1\n  0x40\n  add\n  0x40\n  mstore\n  dup1\n  0x0d\n  dup2\n  mstore\n  0x20\n  add\n  0x45636f6e6f6d7920436c61737300000000000000000000000000000000000000\n  dup2\n  mstore\n  pop\n  0x02\n  swap1\n  dup1\n  mload\n  swap1\n  0x20\n  add\n  swap1\n  tag_1\n  swap3\n  swap2\n  swap1\n  tag_2\n  jump\t// in\ntag_1:\n  pop\n    /* \"bootcampquiz.sol\":471:476  1 wei */\n  0x01\n    /* \"bootcampquiz.sol\":450:476  uint public oneWei = 1 wei */\n  0x05\n  sstore\n    /* \"bootcampquiz.sol\":519:523  5e15 */\n  0x11c37937e08000\n    /* \"bootcampquiz.sol\":510:516  oneWei */\n  sload(0x05)\n    /* \"bootcampquiz.sol\":510:523  oneWei * 5e15 */\n  tag_3\n  swap2\n  swap1\n  tag_4\n  jump\t// in\ntag_3:\n    /* \"bootcampquiz.sol\":483:523  uint public ecoClassCost = oneWei * 5e15 */\n  0x06\n  sstore\n    /* \"bootcampquiz.sol\":568:572  5e15 */\n  0x11c37937e08000\n    /* \"bootcampquiz.sol\":559:565  oneWei */\n  sload(0x05)\n    /* \"bootcampquiz.sol\":559:572  oneWei * 5e15 */\n  tag_5\n  swap2\n  swap1\n  tag_4\n  jump\t// in\ntag_5:\n    /* \"bootcampquiz.sol\":530:572  uint public firstClassCost = oneWei * 5e15 */\n  0x07\n  sstore\n    /* \"bootcampquiz.sol\":615:619  5e15 */\n  0x11c37937e08000\n    /* \"bootcampquiz.sol\":606:612  oneWei */\n  sload(0x05)\n    /* \"bootcampquiz.sol\":606:619  oneWei * 5e15 */\n  tag_6\n  swap2\n  swap1\n  tag_4\n  jump\t// in\ntag_6:\n    /* \"bootcampquiz.sol\":579:619  uint public busClassCost = oneWei * 5e15 */\n  0x08\n  sstore\n    /* \"bootcampquiz.sol\":654:664  1e18 ether */\n  0xc097ce7bc90715b34b9f1000000000\n    /* \"bootcampquiz.sol\":647:653  oneWei */\n  sload(0x05)\n    /* \"bootcampquiz.sol\":647:664  oneWei/1e18 ether */\n  tag_7\n  swap2\n  swap1\n  tag_8\n  jump\t// in\ntag_7:\n    /* \"bootcampquiz.sol\":626:664  uint public oneEth = oneWei/1e18 ether */\n  0x09\n  sstore\n    /* \"bootcampquiz.sol\":741:764  classTypes.economyClass */\n  0x01\n    /* \"bootcampquiz.sol\":719:764  classTypes public u1= classTypes.economyClass */\n  0x0b\n  exp(0x0100, 0x00)\n  dup2\n  sload\n  dup2\n  0xff\n  mul\n  not\n  and\n  swap1\n  dup4\n  0x02\n  dup2\n  gt\n  iszero\n  tag_9\n  jumpi\n  tag_10\n  tag_11\n  jump\t// in\ntag_10:\ntag_9:\n  mul\n  or\n  swap1\n  sstore\n  pop\n    /* \"bootcampquiz.sol\":74:2013  contract AirlineTickets {\r... */\n  callvalue\n  dup1\n  iszero\n  tag_12\n  jumpi\n  0x00\n  dup1\n  revert\ntag_12:\n  pop\n  jump(tag_13)\ntag_2:\n  dup3\n  dup1\n  sload\n  tag_14\n  swap1\n  tag_15\n  jump\t// in\ntag_14:\n  swap1\n  0x00\n  mstore\n  keccak256(0x00, 0x20)\n  swap1\n  0x1f\n  add\n  0x20\n  swap1\n  div\n  dup2\n  add\n  swap3\n  dup3\n  tag_17\n  jumpi\n  0x00\n  dup6\n  sstore\n  jump(tag_16)\ntag_17:\n  dup3\n  0x1f\n  lt\n  tag_18\n  jumpi\n  dup1\n  mload\n  not(0xff)\n  and\n  dup4\n  dup1\n  add\n  or\n  dup6\n  sstore\n  jump(tag_16)\ntag_18:\n  dup3\n  dup1\n  add\n  0x01\n  add\n  dup6\n  sstore\n  dup3\n  iszero\n  tag_16\n  jumpi\n  swap2\n  dup3\n  add\ntag_19:\n  dup3\n  dup2\n  gt\n  iszero\n  tag_20\n  jumpi\n  dup3\n  mload\n  dup3\n  sstore\n  swap2\n  0x20\n  add\n  swap2\n  swap1\n  0x01\n  add\n  swap1\n  jump(tag_19)\ntag_20:\ntag_16:\n  pop\n  swap1\n  pop\n  tag_21\n  swap2\n  swap1\n  tag_22\n  jump\t// in\ntag_21:\n  pop\n  swap1\n  jump\t// out\ntag_22:\ntag_23:\n  dup1\n  dup3\n  gt\n  iszero\n  tag_24\n  jumpi\n  0x00\n  dup2\n  0x00\n  swap1\n  sstore\n  pop\n  0x01\n  add\n  jump(tag_23)\ntag_24:\n  pop\n  swap1\n  jump\t// out\n    /* \"#utility.yul\":7:192   */\ntag_8:\n    /* \"#utility.yul\":47:48   */\n  0x00\n    /* \"#utility.yul\":64:84   */\n  tag_27\n    /* \"#utility.yul\":82:83   */\n  dup3\n    /* \"#utility.yul\":64:84   */\n  tag_28\n  jump\t// in\ntag_27:\n    /* \"#utility.yul\":59:84   */\n  swap2\n  pop\n    /* \"#utility.yul\":98:118   */\n  tag_29\n    /* \"#utility.yul\":116:117   */\n  dup4\n    /* \"#utility.yul\":98:118   */\n  tag_28\n  jump\t// in\ntag_29:\n    /* \"#utility.yul\":93:118   */\n  swap3\n  pop\n    /* \"#utility.yul\":137:138   */\n  dup3\n    /* \"#utility.yul\":127:162   */\n  tag_30\n  jumpi\n    /* \"#utility.yul\":142:160   */\n  tag_31\n  tag_32\n  jump\t// in\ntag_31:\n    /* \"#utility.yul\":127:162   */\ntag_30:\n    /* \"#utility.yul\":184:185   */\n  dup3\n    /* \"#utility.yul\":181:182   */\n  dup3\n    /* \"#utility.yul\":177:186   */\n  div\n    /* \"#utility.yul\":172:186   */\n  swap1\n  pop\n    /* \"#utility.yul\":7:192   */\n  swap3\n  swap2\n  pop\n  pop\n  jump\t// out\n    /* \"#utility.yul\":198:546   */\ntag_4:\n    /* \"#utility.yul\":238:245   */\n  0x00\n    /* \"#utility.yul\":261:281   */\n  tag_34\n    /* \"#utility.yul\":279:280   */\n  dup3\n    /* \"#utility.yul\":261:281   */\n  tag_28\n  jump\t// in\ntag_34:\n    /* \"#utility.yul\":256:281   */\n  swap2\n  pop\n    /* \"#utility.yul\":295:315   */\n  tag_35\n    /* \"#utility.yul\":313:314   */\n  dup4\n    /* \"#utility.yul\":295:315   */\n  tag_28\n  jump\t// in\ntag_35:\n    /* \"#utility.yul\":290:315   */\n  swap3\n  pop\n    /* \"#utility.yul\":483:484   */\n  dup2\n    /* \"#utility.yul\":415:481   */\n  0xffffffffffffffffffffffffffffffffffffffffffffffffffffffffffffffff\n    /* \"#utility.yul\":411:485   */\n  div\n    /* \"#utility.yul\":408:409   */\n  dup4\n    /* \"#utility.yul\":405:486   */\n  gt\n    /* \"#utility.yul\":400:401   */\n  dup3\n    /* \"#utility.yul\":393:402   */\n  iszero\n    /* \"#utility.yul\":386:403   */\n  iszero\n    /* \"#utility.yul\":382:487   */\n  and\n    /* \"#utility.yul\":379:510   */\n  iszero\n  tag_36\n  jumpi\n    /* \"#utility.yul\":490:508   */\n  tag_37\n  tag_38\n  jump\t// in\ntag_37:\n    /* \"#utility.yul\":379:510   */\ntag_36:\n    /* \"#utility.yul\":538:539   */\n  dup3\n    /* \"#utility.yul\":535:536   */\n  dup3\n    /* \"#utility.yul\":531:540   */\n  mul\n    /* \"#utility.yul\":520:540   */\n  swap1\n  pop\n    /* \"#utility.yul\":198:546   */\n  swap3\n  swap2\n  pop\n  pop\n  jump\t// out\n    /* \"#utility.yul\":552:629   */\ntag_28:\n    /* \"#utility.yul\":589:596   */\n  0x00\n    /* \"#utility.yul\":618:623   */\n  dup2\n    /* \"#utility.yul\":607:623   */\n  swap1\n  pop\n    /* \"#utility.yul\":552:629   */\n  swap2\n  swap1\n  pop\n  jump\t// out\n    /* \"#utility.yul\":635:955   */\ntag_15:\n    /* \"#utility.yul\":679:685   */\n  0x00\n    /* \"#utility.yul\":716:717   */\n  0x02\n    /* \"#utility.yul\":710:714   */\n  dup3\n    /* \"#utility.yul\":706:718   */\n  div\n    /* \"#utility.yul\":696:718   */\n  swap1\n  pop\n    /* \"#utility.yul\":763:764   */\n  0x01\n    /* \"#utility.yul\":757:761   */\n  dup3\n    /* \"#utility.yul\":753:765   */\n  and\n    /* \"#utility.yul\":784:802   */\n  dup1\n    /* \"#utility.yul\":774:855   */\n  tag_41\n  jumpi\n    /* \"#utility.yul\":840:844   */\n  0x7f\n    /* \"#utility.yul\":832:838   */\n  dup3\n    /* \"#utility.yul\":828:845   */\n  and\n    /* \"#utility.yul\":818:845   */\n  swap2\n  pop\n    /* \"#utility.yul\":774:855   */\ntag_41:\n    /* \"#utility.yul\":902:904   */\n  0x20\n    /* \"#utility.yul\":894:900   */\n  dup3\n    /* \"#utility.yul\":891:905   */\n  lt\n    /* \"#utility.yul\":871:889   */\n  dup2\n    /* \"#utility.yul\":868:906   */\n  eq\n    /* \"#utility.yul\":865:949   */\n  iszero\n  tag_42\n  jumpi\n    /* \"#utility.yul\":921:939   */\n  tag_43\n  tag_44\n  jump\t// in\ntag_43:\n    /* \"#utility.yul\":865:949   */\ntag_42:\n    /* \"#utility.yul\":686:955   */\n  pop\n    /* \"#utility.yul\":635:955   */\n  swap2\n  swap1\n  pop\n  jump\t// out\n    /* \"#utility.yul\":961:1141   */\ntag_38:\n    /* \"#utility.yul\":1009:1086   */\n  0x4e487b7100000000000000000000000000000000000000000000000000000000\n    /* \"#utility.yul\":1006:1007   */\n  0x00\n    /* \"#utility.yul\":999:1087   */\n  mstore\n    /* \"#utility.yul\":1106:1110   */\n  0x11\n    /* \"#utility.yul\":1103:1104   */\n  0x04\n    /* \"#utility.yul\":1096:1111   */\n  mstore\n    /* \"#utility.yul\":1130:1134   */\n  0x24\n    /* \"#utility.yul\":1127:1128   */\n  0x00\n    /* \"#utility.yul\":1120:1135   */\n  revert\n    /* \"#utility.yul\":1147:1327   */\ntag_32:\n    /* \"#utility.yul\":1195:1272   */\n  0x4e487b7100000000000000000000000000000000000000000000000000000000\n    /* \"#utility.yul\":1192:1193   */\n  0x00\n    /* \"#utility.yul\":1185:1273   */\n  mstore\n    /* \"#utility.yul\":1292:1296   */\n  0x12\n    /* \"#utility.yul\":1289:1290   */\n  0x04\n    /* \"#utility.yul\":1282:1297   */\n  mstore\n    /* \"#utility.yul\":1316:1320   */\n  0x24\n    /* \"#utility.yul\":1313:1314   */\n  0x00\n    /* \"#utility.yul\":1306:1321   */\n  revert\n    /* \"#utility.yul\":1333:1513   */\ntag_11:\n    /* \"#utility.yul\":1381:1458   */\n  0x4e487b7100000000000000000000000000000000000000000000000000000000\n    /* \"#utility.yul\":1378:1379   */\n  0x00\n    /* \"#utility.yul\":1371:1459   */\n  mstore\n    /* \"#utility.yul\":1478:1482   */\n  0x21\n    /* \"#utility.yul\":1475:1476   */\n  0x04\n    /* \"#utility.yul\":1468:1483   */\n  mstore\n    /* \"#utility.yul\":1502:1506   */\n  0x24\n    /* \"#utility.yul\":1499:1500   */\n  0x00\n    /* \"#utility.yul\":1492:1507   */\n  revert\n    /* \"#utility.yul\":1519:1699   */\ntag_44:\n    /* \"#utility.yul\":1567:1644   */\n  0x4e487b7100000000000000000000000000000000000000000000000000000000\n    /* \"#utility.yul\":1564:1565   */\n  0x00\n    /* \"#utility.yul\":1557:1645   */\n  mstore\n    /* \"#utility.yul\":1664:1668   */\n  0x22\n    /* \"#utility.yul\":1661:1662   */\n  0x04\n    /* \"#utility.yul\":1654:1669   */\n  mstore\n    /* \"#utility.yul\":1688:1692   */\n  0x24\n    /* \"#utility.yul\":1685:1686   */\n  0x00\n    /* \"#utility.yul\":1678:1693   */\n  revert\n    /* \"bootcampquiz.sol\":74:2013  contract AirlineTickets {\r... */\ntag_13:\n  dataSize(sub_0)\n  dup1\n  dataOffset(sub_0)\n  0x00\n  codecopy\n  0x00\n  return\nstop\n\nsub_0: assembly {\n        /* \"bootcampquiz.sol\":74:2013  contract AirlineTickets {\r... */\n      mstore(0x40, 0x80)\n      callvalue\n      dup1\n      iszero\n      tag_1\n      jumpi\n      0x00\n      dup1\n      revert\n    tag_1:\n      pop\n      jumpi(tag_2, lt(calldatasize, 0x04))\n      shr(0xe0, calldataload(0x00))\n      dup1\n      0x702b1c16\n      gt\n      tag_14\n      jumpi\n      dup1\n      0x702b1c16\n      eq\n      tag_8\n      jumpi\n      dup1\n      0x7a1736d1\n      eq\n      tag_9\n      jumpi\n      dup1\n      0xa5eba931\n      eq\n      tag_10\n      jumpi\n      dup1\n      0xb24fa0e4\n      eq\n      tag_11\n      jumpi\n      dup1\n      0xb90d3d0c\n      eq\n      tag_12\n      jumpi\n      dup1\n      0xfa883acd\n      eq\n      tag_13\n      jumpi\n      jump(tag_2)\n    tag_14:\n      dup1\n      0x09a8d3f5\n      eq\n      tag_3\n      jumpi\n      dup1\n      0x17ae4589\n      eq\n      tag_4\n      jumpi\n      dup1\n      0x1aa35610\n      eq\n      tag_5\n      jumpi\n      dup1\n      0x4fb2e0be\n      eq\n      tag_6\n      jumpi\n      dup1\n      0x50183507\n      eq\n      tag_7\n      jumpi\n    tag_2:\n      0x00\n      dup1\n      revert\n        /* \"bootcampquiz.sol\":626:664  uint public oneEth = oneWei/1e18 ether */\n    tag_3:\n      tag_15\n      tag_16\n      jump\t// in\n    tag_15:\n      mload(0x40)\n      tag_17\n      swap2\n      swap1\n      tag_18\n      jump\t// in\n    tag_17:\n      mload(0x40)\n      dup1\n      swap2\n      sub\n      swap1\n      return\n        /* \"bootcampquiz.sol\":1784:2004  function setData(string memory _name, string memory _des, uint _pass_id) public \r... */\n    tag_4:\n      tag_19\n      0x04\n      dup1\n      calldatasize\n      sub\n      dup2\n      add\n      swap1\n      tag_20\n      swap2\n      swap1\n      tag_21\n      jump\t// in\n    tag_20:\n      tag_22\n      jump\t// in\n    tag_19:\n      stop\n        /* \"bootcampquiz.sol\":719:764  classTypes public u1= classTypes.economyClass */\n    tag_5:\n      tag_23\n      tag_24\n      jump\t// in\n    tag_23:\n      mload(0x40)\n      tag_25\n      swap2\n      swap1\n      tag_26\n      jump\t// in\n    tag_25:\n      mload(0x40)\n      dup1\n      swap2\n      sub\n      swap1\n      return\n        /* \"bootcampquiz.sol\":450:476  uint public oneWei = 1 wei */\n    tag_6:\n      tag_27\n      tag_28\n      jump\t// in\n    tag_27:\n      mload(0x40)\n      tag_29\n      swap2\n      swap1\n      tag_18\n      jump\t// in\n    tag_29:\n      mload(0x40)\n      dup1\n      swap2\n      sub\n      swap1\n      return\n        /* \"bootcampquiz.sol\":1127:1428  function firstClass() public \r... */\n    tag_7:\n      tag_30\n      tag_31\n      jump\t// in\n    tag_30:\n      stop\n        /* \"bootcampquiz.sol\":483:523  uint public ecoClassCost = oneWei * 5e15 */\n    tag_8:\n      tag_32\n      tag_33\n      jump\t// in\n    tag_32:\n      mload(0x40)\n      tag_34\n      swap2\n      swap1\n      tag_18\n      jump\t// in\n    tag_34:\n      mload(0x40)\n      dup1\n      swap2\n      sub\n      swap1\n      return\n        /* \"bootcampquiz.sol\":773:1115  function economyClass() public \r... */\n    tag_9:\n      tag_35\n      tag_36\n      jump\t// in\n    tag_35:\n      stop\n        /* \"bootcampquiz.sol\":579:619  uint public busClassCost = oneWei * 5e15 */\n    tag_10:\n      tag_37\n      tag_38\n      jump\t// in\n    tag_37:\n      mload(0x40)\n      tag_39\n      swap2\n      swap1\n      tag_18\n      jump\t// in\n    tag_39:\n      mload(0x40)\n      dup1\n      swap2\n      sub\n      swap1\n      return\n        /* \"bootcampquiz.sol\":1436:1772  function busnissClass() public {\r... */\n    tag_11:\n      tag_40\n      tag_41\n      jump\t// in\n    tag_40:\n      stop\n        /* \"bootcampquiz.sol\":673:710  mapping (address => User) public data */\n    tag_12:\n      tag_42\n      0x04\n      dup1\n      calldatasize\n      sub\n      dup2\n      add\n      swap1\n      tag_43\n      swap2\n      swap1\n      tag_44\n      jump\t// in\n    tag_43:\n      tag_45\n      jump\t// in\n    tag_42:\n      mload(0x40)\n      tag_46\n      swap6\n      swap5\n      swap4\n      swap3\n      swap2\n      swap1\n      tag_47\n      jump\t// in\n    tag_46:\n      mload(0x40)\n      dup1\n      swap2\n      sub\n      swap1\n      return\n        /* \"bootcampquiz.sol\":530:572  uint public firstClassCost = oneWei * 5e15 */\n    tag_13:\n      tag_48\n      tag_49\n      jump\t// in\n    tag_48:\n      mload(0x40)\n      tag_50\n      swap2\n      swap1\n      tag_18\n      jump\t// in\n    tag_50:\n      mload(0x40)\n      dup1\n      swap2\n      sub\n      swap1\n      return\n        /* \"bootcampquiz.sol\":626:664  uint public oneEth = oneWei/1e18 ether */\n    tag_16:\n      sload(0x09)\n      dup2\n      jump\t// out\n        /* \"bootcampquiz.sol\":1784:2004  function setData(string memory _name, string memory _des, uint _pass_id) public \r... */\n    tag_22:\n        /* \"bootcampquiz.sol\":1889:1895  booked */\n      0x00\n      dup1\n      sload\n      swap1\n      0x0100\n      exp\n      swap1\n      div\n      0xff\n      and\n        /* \"bootcampquiz.sol\":1881:1928  require(booked,\"please select the class first\") */\n      tag_52\n      jumpi\n      mload(0x40)\n      0x08c379a000000000000000000000000000000000000000000000000000000000\n      dup2\n      mstore\n      0x04\n      add\n      tag_53\n      swap1\n      tag_54\n      jump\t// in\n    tag_53:\n      mload(0x40)\n      dup1\n      swap2\n      sub\n      swap1\n      revert\n    tag_52:\n        /* \"bootcampquiz.sol\":1958:1996  User(_name,_des,_pass_id,realVal ,eth) */\n      mload(0x40)\n      dup1\n      0xa0\n      add\n      0x40\n      mstore\n      dup1\n        /* \"bootcampquiz.sol\":1963:1968  _name */\n      dup5\n        /* \"bootcampquiz.sol\":1958:1996  User(_name,_des,_pass_id,realVal ,eth) */\n      dup2\n      mstore\n      0x20\n      add\n        /* \"bootcampquiz.sol\":1969:1973  _des */\n      dup4\n        /* \"bootcampquiz.sol\":1958:1996  User(_name,_des,_pass_id,realVal ,eth) */\n      dup2\n      mstore\n      0x20\n      add\n        /* \"bootcampquiz.sol\":1974:1982  _pass_id */\n      dup3\n        /* \"bootcampquiz.sol\":1958:1996  User(_name,_des,_pass_id,realVal ,eth) */\n      dup2\n      mstore\n      0x20\n      add\n        /* \"bootcampquiz.sol\":1983:1990  realVal */\n      0x02\n        /* \"bootcampquiz.sol\":1958:1996  User(_name,_des,_pass_id,realVal ,eth) */\n      dup1\n      sload\n      tag_55\n      swap1\n      tag_56\n      jump\t// in\n    tag_55:\n      dup1\n      0x1f\n      add\n      0x20\n      dup1\n      swap2\n      div\n      mul\n      0x20\n      add\n      mload(0x40)\n      swap1\n      dup2\n      add\n      0x40\n      mstore\n      dup1\n      swap3\n      swap2\n      swap1\n      dup2\n      dup2\n      mstore\n      0x20\n      add\n      dup3\n      dup1\n      sload\n      tag_57\n      swap1\n      tag_56\n      jump\t// in\n    tag_57:\n      dup1\n      iszero\n      tag_58\n      jumpi\n      dup1\n      0x1f\n      lt\n      tag_59\n      jumpi\n      0x0100\n      dup1\n      dup4\n      sload\n      div\n      mul\n      dup4\n      mstore\n      swap2\n      0x20\n      add\n      swap2\n      jump(tag_58)\n    tag_59:\n      dup3\n      add\n      swap2\n      swap1\n      0x00\n      mstore\n      keccak256(0x00, 0x20)\n      swap1\n    tag_60:\n      dup2\n      sload\n      dup2\n      mstore\n      swap1\n      0x01\n      add\n      swap1\n      0x20\n      add\n      dup1\n      dup4\n      gt\n      tag_60\n      jumpi\n      dup3\n      swap1\n      sub\n      0x1f\n      and\n      dup3\n      add\n      swap2\n    tag_58:\n      pop\n      pop\n      pop\n      pop\n      pop\n      dup2\n      mstore\n      0x20\n      add\n        /* \"bootcampquiz.sol\":1992:1995  eth */\n      sload(0x03)\n        /* \"bootcampquiz.sol\":1958:1996  User(_name,_des,_pass_id,realVal ,eth) */\n      dup2\n      mstore\n      pop\n        /* \"bootcampquiz.sol\":1939:1943  data */\n      0x0a\n        /* \"bootcampquiz.sol\":1939:1955  data[msg.sender] */\n      0x00\n        /* \"bootcampquiz.sol\":1944:1954  msg.sender */\n      caller\n        /* \"bootcampquiz.sol\":1939:1955  data[msg.sender] */\n      0xffffffffffffffffffffffffffffffffffffffff\n      and\n      0xffffffffffffffffffffffffffffffffffffffff\n      and\n      dup2\n      mstore\n      0x20\n      add\n      swap1\n      dup2\n      mstore\n      0x20\n      add\n      0x00\n      keccak256\n        /* \"bootcampquiz.sol\":1939:1996  data[msg.sender] = User(_name,_des,_pass_id,realVal ,eth) */\n      0x00\n      dup3\n      add\n      mload\n      dup2\n      0x00\n      add\n      swap1\n      dup1\n      mload\n      swap1\n      0x20\n      add\n      swap1\n      tag_61\n      swap3\n      swap2\n      swap1\n      tag_62\n      jump\t// in\n    tag_61:\n      pop\n      0x20\n      dup3\n      add\n      mload\n      dup2\n      0x01\n      add\n      swap1\n      dup1\n      mload\n      swap1\n      0x20\n      add\n      swap1\n      tag_63\n      swap3\n      swap2\n      swap1\n      tag_62\n      jump\t// in\n    tag_63:\n      pop\n      0x40\n      dup3\n      add\n      mload\n      dup2\n      0x02\n      add\n      sstore\n      0x60\n      dup3\n      add\n      mload\n      dup2\n      0x03\n      add\n      swap1\n      dup1\n      mload\n      swap1\n      0x20\n      add\n      swap1\n      tag_64\n      swap3\n      swap2\n      swap1\n      tag_62\n      jump\t// in\n    tag_64:\n      pop\n      0x80\n      dup3\n      add\n      mload\n      dup2\n      0x04\n      add\n      sstore\n      swap1\n      pop\n      pop\n        /* \"bootcampquiz.sol\":1784:2004  function setData(string memory _name, string memory _des, uint _pass_id) public \r... */\n      pop\n      pop\n      pop\n      jump\t// out\n        /* \"bootcampquiz.sol\":719:764  classTypes public u1= classTypes.economyClass */\n    tag_24:\n      0x0b\n      0x00\n      swap1\n      sload\n      swap1\n      0x0100\n      exp\n      swap1\n      div\n      0xff\n      and\n      dup2\n      jump\t// out\n        /* \"bootcampquiz.sol\":450:476  uint public oneWei = 1 wei */\n    tag_28:\n      sload(0x05)\n      dup2\n      jump\t// out\n        /* \"bootcampquiz.sol\":1127:1428  function firstClass() public \r... */\n    tag_31:\n        /* \"bootcampquiz.sol\":1240:1261  classTypes.firstClass */\n      0x00\n        /* \"bootcampquiz.sol\":1236:1238  u1 */\n      0x0b\n      0x00\n        /* \"bootcampquiz.sol\":1236:1261  u1= classTypes.firstClass */\n      0x0100\n      exp\n      dup2\n      sload\n      dup2\n      0xff\n      mul\n      not\n      and\n      swap1\n      dup4\n      0x02\n      dup2\n      gt\n      iszero\n      tag_66\n      jumpi\n      tag_67\n      tag_68\n      jump\t// in\n    tag_67:\n    tag_66:\n      mul\n      or\n      swap1\n      sstore\n      pop\n        /* \"bootcampquiz.sol\":1287:1289  u1 */\n      0x0b\n      0x00\n      swap1\n      sload\n      swap1\n      0x0100\n      exp\n      swap1\n      div\n      0xff\n      and\n        /* \"bootcampquiz.sol\":1282:1290  uint(u1) */\n      0x02\n      dup2\n      gt\n      iszero\n      tag_69\n      jumpi\n      tag_70\n      tag_68\n      jump\t// in\n    tag_70:\n    tag_69:\n        /* \"bootcampquiz.sol\":1272:1279  convert */\n      0x01\n        /* \"bootcampquiz.sol\":1272:1290  convert = uint(u1) */\n      dup2\n      swap1\n      sstore\n      pop\n        /* \"bootcampquiz.sol\":1313:1314  0 */\n      0x00\n        /* \"bootcampquiz.sol\":1304:1311  convert */\n      sload(0x01)\n        /* \"bootcampquiz.sol\":1304:1314  convert==0 */\n      eq\n        /* \"bootcampquiz.sol\":1301:1397  if(convert==0)\r... */\n      iszero\n      tag_71\n      jumpi\n        /* \"bootcampquiz.sol\":1340:1363  realVal = \"First Class\" */\n      mload(0x40)\n      dup1\n      0x40\n      add\n      0x40\n      mstore\n      dup1\n      0x0b\n      dup2\n      mstore\n      0x20\n      add\n      0x466972737420436c617373000000000000000000000000000000000000000000\n      dup2\n      mstore\n      pop\n        /* \"bootcampquiz.sol\":1340:1347  realVal */\n      0x02\n        /* \"bootcampquiz.sol\":1340:1363  realVal = \"First Class\" */\n      swap1\n      dup1\n      mload\n      swap1\n      0x20\n      add\n      swap1\n      tag_72\n      swap3\n      swap2\n      swap1\n      tag_62\n      jump\t// in\n    tag_72:\n      pop\n        /* \"bootcampquiz.sol\":1384:1385  2 */\n      0x02\n        /* \"bootcampquiz.sol\":1378:1381  eth */\n      0x03\n        /* \"bootcampquiz.sol\":1378:1385  eth = 2 */\n      dup2\n      swap1\n      sstore\n      pop\n        /* \"bootcampquiz.sol\":1301:1397  if(convert==0)\r... */\n    tag_71:\n        /* \"bootcampquiz.sol\":1416:1420  true */\n      0x01\n        /* \"bootcampquiz.sol\":1407:1413  booked */\n      0x00\n      dup1\n        /* \"bootcampquiz.sol\":1407:1420  booked = true */\n      0x0100\n      exp\n      dup2\n      sload\n      dup2\n      0xff\n      mul\n      not\n      and\n      swap1\n      dup4\n      iszero\n      iszero\n      mul\n      or\n      swap1\n      sstore\n      pop\n        /* \"bootcampquiz.sol\":1127:1428  function firstClass() public \r... */\n      jump\t// out\n        /* \"bootcampquiz.sol\":483:523  uint public ecoClassCost = oneWei * 5e15 */\n    tag_33:\n      sload(0x06)\n      dup2\n      jump\t// out\n        /* \"bootcampquiz.sol\":773:1115  function economyClass() public \r... */\n    tag_36:\n        /* \"bootcampquiz.sol\":888:911  classTypes.economyClass */\n      0x01\n        /* \"bootcampquiz.sol\":884:886  u1 */\n      0x0b\n      0x00\n        /* \"bootcampquiz.sol\":884:911  u1= classTypes.economyClass */\n      0x0100\n      exp\n      dup2\n      sload\n      dup2\n      0xff\n      mul\n      not\n      and\n      swap1\n      dup4\n      0x02\n      dup2\n      gt\n      iszero\n      tag_74\n      jumpi\n      tag_75\n      tag_68\n      jump\t// in\n    tag_75:\n    tag_74:\n      mul\n      or\n      swap1\n      sstore\n      pop\n        /* \"bootcampquiz.sol\":937:939  u1 */\n      0x0b\n      0x00\n      swap1\n      sload\n      swap1\n      0x0100\n      exp\n      swap1\n      div\n      0xff\n      and\n        /* \"bootcampquiz.sol\":932:940  uint(u1) */\n      0x02\n      dup2\n      gt\n      iszero\n      tag_76\n      jumpi\n      tag_77\n      tag_68\n      jump\t// in\n    tag_77:\n    tag_76:\n        /* \"bootcampquiz.sol\":922:929  convert */\n      0x01\n        /* \"bootcampquiz.sol\":922:940  convert = uint(u1) */\n      dup2\n      swap1\n      sstore\n      pop\n        /* \"bootcampquiz.sol\":963:964  1 */\n      0x01\n        /* \"bootcampquiz.sol\":954:961  convert */\n      dup1\n      sload\n        /* \"bootcampquiz.sol\":954:964  convert==1 */\n      eq\n        /* \"bootcampquiz.sol\":951:1084  if(convert==1)\r... */\n      iszero\n      tag_78\n      jumpi\n        /* \"bootcampquiz.sol\":990:1015  realVal = \"Economy Class\" */\n      mload(0x40)\n      dup1\n      0x40\n      add\n      0x40\n      mstore\n      dup1\n      0x0d\n      dup2\n      mstore\n      0x20\n      add\n      0x45636f6e6f6d7920436c61737300000000000000000000000000000000000000\n      dup2\n      mstore\n      pop\n        /* \"bootcampquiz.sol\":990:997  realVal */\n      0x02\n        /* \"bootcampquiz.sol\":990:1015  realVal = \"Economy Class\" */\n      swap1\n      dup1\n      mload\n      swap1\n      0x20\n      add\n      swap1\n      tag_79\n      swap3\n      swap2\n      swap1\n      tag_62\n      jump\t// in\n    tag_79:\n      pop\n        /* \"bootcampquiz.sol\":1046:1050  5e15 */\n      0x11c37937e08000\n        /* \"bootcampquiz.sol\":1037:1043  oneWei */\n      sload(0x05)\n        /* \"bootcampquiz.sol\":1037:1050  oneWei * 5e15 */\n      tag_80\n      swap2\n      swap1\n      tag_81\n      jump\t// in\n    tag_80:\n        /* \"bootcampquiz.sol\":1030:1034  cost */\n      0x04\n        /* \"bootcampquiz.sol\":1030:1050  cost = oneWei * 5e15 */\n      dup2\n      swap1\n      sstore\n      pop\n        /* \"bootcampquiz.sol\":1071:1072  1 */\n      0x01\n        /* \"bootcampquiz.sol\":1065:1068  eth */\n      0x03\n        /* \"bootcampquiz.sol\":1065:1072  eth = 1 */\n      dup2\n      swap1\n      sstore\n      pop\n        /* \"bootcampquiz.sol\":951:1084  if(convert==1)\r... */\n    tag_78:\n        /* \"bootcampquiz.sol\":1103:1107  true */\n      0x01\n        /* \"bootcampquiz.sol\":1094:1100  booked */\n      0x00\n      dup1\n        /* \"bootcampquiz.sol\":1094:1107  booked = true */\n      0x0100\n      exp\n      dup2\n      sload\n      dup2\n      0xff\n      mul\n      not\n      and\n      swap1\n      dup4\n      iszero\n      iszero\n      mul\n      or\n      swap1\n      sstore\n      pop\n        /* \"bootcampquiz.sol\":773:1115  function economyClass() public \r... */\n      jump\t// out\n        /* \"bootcampquiz.sol\":579:619  uint public busClassCost = oneWei * 5e15 */\n    tag_38:\n      sload(0x08)\n      dup2\n      jump\t// out\n        /* \"bootcampquiz.sol\":1436:1772  function busnissClass() public {\r... */\n    tag_41:\n        /* \"bootcampquiz.sol\":1545:1568  classTypes.busnissClass */\n      0x02\n        /* \"bootcampquiz.sol\":1541:1543  u1 */\n      0x0b\n      0x00\n        /* \"bootcampquiz.sol\":1541:1568  u1= classTypes.busnissClass */\n      0x0100\n      exp\n      dup2\n      sload\n      dup2\n      0xff\n      mul\n      not\n      and\n      swap1\n      dup4\n      0x02\n      dup2\n      gt\n      iszero\n      tag_83\n      jumpi\n      tag_84\n      tag_68\n      jump\t// in\n    tag_84:\n    tag_83:\n      mul\n      or\n      swap1\n      sstore\n      pop\n        /* \"bootcampquiz.sol\":1594:1596  u1 */\n      0x0b\n      0x00\n      swap1\n      sload\n      swap1\n      0x0100\n      exp\n      swap1\n      div\n      0xff\n      and\n        /* \"bootcampquiz.sol\":1589:1597  uint(u1) */\n      0x02\n      dup2\n      gt\n      iszero\n      tag_85\n      jumpi\n      tag_86\n      tag_68\n      jump\t// in\n    tag_86:\n    tag_85:\n        /* \"bootcampquiz.sol\":1579:1586  convert */\n      0x01\n        /* \"bootcampquiz.sol\":1579:1597  convert = uint(u1) */\n      dup2\n      swap1\n      sstore\n      pop\n        /* \"bootcampquiz.sol\":1620:1621  2 */\n      0x02\n        /* \"bootcampquiz.sol\":1611:1618  convert */\n      sload(0x01)\n        /* \"bootcampquiz.sol\":1611:1621  convert==2 */\n      eq\n        /* \"bootcampquiz.sol\":1608:1741  if(convert==2)\r... */\n      iszero\n      tag_87\n      jumpi\n        /* \"bootcampquiz.sol\":1647:1672  realVal = \"Busniss Class\" */\n      mload(0x40)\n      dup1\n      0x40\n      add\n      0x40\n      mstore\n      dup1\n      0x0d\n      dup2\n      mstore\n      0x20\n      add\n      0x4275736e69737320436c61737300000000000000000000000000000000000000\n      dup2\n      mstore\n      pop\n        /* \"bootcampquiz.sol\":1647:1654  realVal */\n      0x02\n        /* \"bootcampquiz.sol\":1647:1672  realVal = \"Busniss Class\" */\n      swap1\n      dup1\n      mload\n      swap1\n      0x20\n      add\n      swap1\n      tag_88\n      swap3\n      swap2\n      swap1\n      tag_62\n      jump\t// in\n    tag_88:\n      pop\n        /* \"bootcampquiz.sol\":1703:1707  5e15 */\n      0x11c37937e08000\n        /* \"bootcampquiz.sol\":1694:1700  oneWei */\n      sload(0x05)\n        /* \"bootcampquiz.sol\":1694:1707  oneWei * 5e15 */\n      tag_89\n      swap2\n      swap1\n      tag_81\n      jump\t// in\n    tag_89:\n        /* \"bootcampquiz.sol\":1687:1691  cost */\n      0x04\n        /* \"bootcampquiz.sol\":1687:1707  cost = oneWei * 5e15 */\n      dup2\n      swap1\n      sstore\n      pop\n        /* \"bootcampquiz.sol\":1728:1729  3 */\n      0x03\n        /* \"bootcampquiz.sol\":1722:1725  eth */\n      dup1\n        /* \"bootcampquiz.sol\":1722:1729  eth = 3 */\n      dup2\n      swap1\n      sstore\n      pop\n        /* \"bootcampquiz.sol\":1608:1741  if(convert==2)\r... */\n    tag_87:\n        /* \"bootcampquiz.sol\":1760:1764  true */\n      0x01\n        /* \"bootcampquiz.sol\":1751:1757  booked */\n      0x00\n      dup1\n        /* \"bootcampquiz.sol\":1751:1764  booked = true */\n      0x0100\n      exp\n      dup2\n      sload\n      dup2\n      0xff\n      mul\n      not\n      and\n      swap1\n      dup4\n      iszero\n      iszero\n      mul\n      or\n      swap1\n      sstore\n      pop\n        /* \"bootcampquiz.sol\":1436:1772  function busnissClass() public {\r... */\n      jump\t// out\n        /* \"bootcampquiz.sol\":673:710  mapping (address => User) public data */\n    tag_45:\n      mstore(0x20, 0x0a)\n      dup1\n      0x00\n      mstore\n      keccak256(0x00, 0x40)\n      0x00\n      swap2\n      pop\n      swap1\n      pop\n      dup1\n      0x00\n      add\n      dup1\n      sload\n      tag_90\n      swap1\n      tag_56\n      jump\t// in\n    tag_90:\n      dup1\n      0x1f\n      add\n      0x20\n      dup1\n      swap2\n      div\n      mul\n      0x20\n      add\n      mload(0x40)\n      swap1\n      dup2\n      add\n      0x40\n      mstore\n      dup1\n      swap3\n      swap2\n      swap1\n      dup2\n      dup2\n      mstore\n      0x20\n      add\n      dup3\n      dup1\n      sload\n      tag_91\n      swap1\n      tag_56\n      jump\t// in\n    tag_91:\n      dup1\n      iszero\n      tag_92\n      jumpi\n      dup1\n      0x1f\n      lt\n      tag_93\n      jumpi\n      0x0100\n      dup1\n      dup4\n      sload\n      div\n      mul\n      dup4\n      mstore\n      swap2\n      0x20\n      add\n      swap2\n      jump(tag_92)\n    tag_93:\n      dup3\n      add\n      swap2\n      swap1\n      0x00\n      mstore\n      keccak256(0x00, 0x20)\n      swap1\n    tag_94:\n      dup2\n      sload\n      dup2\n      mstore\n      swap1\n      0x01\n      add\n      swap1\n      0x20\n      add\n      dup1\n      dup4\n      gt\n      tag_94\n      jumpi\n      dup3\n      swap1\n      sub\n      0x1f\n      and\n      dup3\n      add\n      swap2\n    tag_92:\n      pop\n      pop\n      pop\n      pop\n      pop\n      swap1\n      dup1\n      0x01\n      add\n      dup1\n      sload\n      tag_95\n      swap1\n      tag_56\n      jump\t// in\n    tag_95:\n      dup1\n      0x1f\n      add\n      0x20\n      dup1\n      swap2\n      div\n      mul\n      0x20\n      add\n      mload(0x40)\n      swap1\n      dup2\n      add\n      0x40\n      mstore\n      dup1\n      swap3\n      swap2\n      swap1\n      dup2\n      dup2\n      mstore\n      0x20\n      add\n      dup3\n      dup1\n      sload\n      tag_96\n      swap1\n      tag_56\n      jump\t// in\n    tag_96:\n      dup1\n      iszero\n      tag_97\n      jumpi\n      dup1\n      0x1f\n      lt\n      tag_98\n      jumpi\n      0x0100\n      dup1\n      dup4\n      sload\n      div\n      mul\n      dup4\n      mstore\n      swap2\n      0x20\n      add\n      swap2\n      jump(tag_97)\n    tag_98:\n      dup3\n      add\n      swap2\n      swap1\n      0x00\n      mstore\n      keccak256(0x00, 0x20)\n      swap1\n    tag_99:\n      dup2\n      sload\n      dup2\n      mstore\n      swap1\n      0x01\n      add\n      swap1\n      0x20\n      add\n      dup1\n      dup4\n      gt\n      tag_99\n      jumpi\n      dup3\n      swap1\n      sub\n      0x1f\n      and\n      dup3\n      add\n      swap2\n    tag_97:\n      pop\n      pop\n      pop\n      pop\n      pop\n      swap1\n      dup1\n      0x02\n      add\n      sload\n      swap1\n      dup1\n      0x03\n      add\n      dup1\n      sload\n      tag_100\n      swap1\n      tag_56\n      jump\t// in\n    tag_100:\n      dup1\n      0x1f\n      add\n      0x20\n      dup1\n      swap2\n      div\n      mul\n      0x20\n      add\n      mload(0x40)\n      swap1\n      dup2\n      add\n      0x40\n      mstore\n      dup1\n      swap3\n      swap2\n      swap1\n      dup2\n      dup2\n      mstore\n      0x20\n      add\n      dup3\n      dup1\n      sload\n      tag_101\n      swap1\n      tag_56\n      jump\t// in\n    tag_101:\n      dup1\n      iszero\n      tag_102\n      jumpi\n      dup1\n      0x1f\n      lt\n      tag_103\n      jumpi\n      0x0100\n      dup1\n      dup4\n      sload\n      div\n      mul\n      dup4\n      mstore\n      swap2\n      0x20\n      add\n      swap2\n      jump(tag_102)\n    tag_103:\n      dup3\n      add\n      swap2\n      swap1\n      0x00\n      mstore\n      keccak256(0x00, 0x20)\n      swap1\n    tag_104:\n      dup2\n      sload\n      dup2\n      mstore\n      swap1\n      0x01\n      add\n      swap1\n      0x20\n      add\n      dup1\n      dup4\n      gt\n      tag_104\n      jumpi\n      dup3\n      swap1\n      sub\n      0x1f\n      and\n      dup3\n      add\n      swap2\n    tag_102:\n      pop\n      pop\n      pop\n      pop\n      pop\n      swap1\n      dup1\n      0x04\n      add\n      sload\n      swap1\n      pop\n      dup6\n      jump\t// out\n        /* \"bootcampquiz.sol\":530:572  uint public firstClassCost = oneWei * 5e15 */\n    tag_49:\n      sload(0x07)\n      dup2\n      jump\t// out\n    tag_62:\n      dup3\n      dup1\n      sload\n      tag_105\n      swap1\n      tag_56\n      jump\t// in\n    tag_105:\n      swap1\n      0x00\n      mstore\n      keccak256(0x00, 0x20)\n      swap1\n      0x1f\n      add\n      0x20\n      swap1\n      div\n      dup2\n      add\n      swap3\n      dup3\n      tag_107\n      jumpi\n      0x00\n      dup6\n      sstore\n      jump(tag_106)\n    tag_107:\n      dup3\n      0x1f\n      lt\n      tag_108\n      jumpi\n      dup1\n      mload\n      not(0xff)\n      and\n      dup4\n      dup1\n      add\n      or\n      dup6\n      sstore\n      jump(tag_106)\n    tag_108:\n      dup3\n      dup1\n      add\n      0x01\n      add\n      dup6\n      sstore\n      dup3\n      iszero\n      tag_106\n      jumpi\n      swap2\n      dup3\n      add\n    tag_109:\n      dup3\n      dup2\n      gt\n      iszero\n      tag_110\n      jumpi\n      dup3\n      mload\n      dup3\n      sstore\n      swap2\n      0x20\n      add\n      swap2\n      swap1\n      0x01\n      add\n      swap1\n      jump(tag_109)\n    tag_110:\n    tag_106:\n      pop\n      swap1\n      pop\n      tag_111\n      swap2\n      swap1\n      tag_112\n      jump\t// in\n    tag_111:\n      pop\n      swap1\n      jump\t// out\n    tag_112:\n    tag_113:\n      dup1\n      dup3\n      gt\n      iszero\n      tag_114\n      jumpi\n      0x00\n      dup2\n      0x00\n      swap1\n      sstore\n      pop\n      0x01\n      add\n      jump(tag_113)\n    tag_114:\n      pop\n      swap1\n      jump\t// out\n        /* \"#utility.yul\":7:419   */\n    tag_116:\n        /* \"#utility.yul\":85:90   */\n      0x00\n        /* \"#utility.yul\":110:176   */\n      tag_118\n        /* \"#utility.yul\":126:175   */\n      tag_119\n        /* \"#utility.yul\":168:174   */\n      dup5\n        /* \"#utility.yul\":126:175   */\n      tag_120\n      jump\t// in\n    tag_119:\n        /* \"#utility.yul\":110:176   */\n      tag_121\n      jump\t// in\n    tag_118:\n        /* \"#utility.yul\":101:176   */\n      swap1\n      pop\n        /* \"#utility.yul\":199:205   */\n      dup3\n        /* \"#utility.yul\":192:197   */\n      dup2\n        /* \"#utility.yul\":185:206   */\n      mstore\n        /* \"#utility.yul\":237:241   */\n      0x20\n        /* \"#utility.yul\":230:235   */\n      dup2\n        /* \"#utility.yul\":226:242   */\n      add\n        /* \"#utility.yul\":275:278   */\n      dup5\n        /* \"#utility.yul\":266:272   */\n      dup5\n        /* \"#utility.yul\":261:264   */\n      dup5\n        /* \"#utility.yul\":257:273   */\n      add\n        /* \"#utility.yul\":254:279   */\n      gt\n        /* \"#utility.yul\":251:363   */\n      iszero\n      tag_122\n      jumpi\n        /* \"#utility.yul\":282:361   */\n      tag_123\n      tag_124\n      jump\t// in\n    tag_123:\n        /* \"#utility.yul\":251:363   */\n    tag_122:\n        /* \"#utility.yul\":372:413   */\n      tag_125\n        /* \"#utility.yul\":406:412   */\n      dup5\n        /* \"#utility.yul\":401:404   */\n      dup3\n        /* \"#utility.yul\":396:399   */\n      dup6\n        /* \"#utility.yul\":372:413   */\n      tag_126\n      jump\t// in\n    tag_125:\n        /* \"#utility.yul\":91:419   */\n      pop\n        /* \"#utility.yul\":7:419   */\n      swap4\n      swap3\n      pop\n      pop\n      pop\n      jump\t// out\n        /* \"#utility.yul\":425:564   */\n    tag_127:\n        /* \"#utility.yul\":471:476   */\n      0x00\n        /* \"#utility.yul\":509:515   */\n      dup2\n        /* \"#utility.yul\":496:516   */\n      calldataload\n        /* \"#utility.yul\":487:516   */\n      swap1\n      pop\n        /* \"#utility.yul\":525:558   */\n      tag_129\n        /* \"#utility.yul\":552:557   */\n      dup2\n        /* \"#utility.yul\":525:558   */\n      tag_130\n      jump\t// in\n    tag_129:\n        /* \"#utility.yul\":425:564   */\n      swap3\n      swap2\n      pop\n      pop\n      jump\t// out\n        /* \"#utility.yul\":584:924   */\n    tag_131:\n        /* \"#utility.yul\":640:645   */\n      0x00\n        /* \"#utility.yul\":689:692   */\n      dup3\n        /* \"#utility.yul\":682:686   */\n      0x1f\n        /* \"#utility.yul\":674:680   */\n      dup4\n        /* \"#utility.yul\":670:687   */\n      add\n        /* \"#utility.yul\":666:693   */\n      slt\n        /* \"#utility.yul\":656:778   */\n      tag_133\n      jumpi\n        /* \"#utility.yul\":697:776   */\n      tag_134\n      tag_135\n      jump\t// in\n    tag_134:\n        /* \"#utility.yul\":656:778   */\n    tag_133:\n        /* \"#utility.yul\":814:820   */\n      dup2\n        /* \"#utility.yul\":801:821   */\n      calldataload\n        /* \"#utility.yul\":839:918   */\n      tag_136\n        /* \"#utility.yul\":914:917   */\n      dup5\n        /* \"#utility.yul\":906:912   */\n      dup3\n        /* \"#utility.yul\":899:903   */\n      0x20\n        /* \"#utility.yul\":891:897   */\n      dup7\n        /* \"#utility.yul\":887:904   */\n      add\n        /* \"#utility.yul\":839:918   */\n      tag_116\n      jump\t// in\n    tag_136:\n        /* \"#utility.yul\":830:918   */\n      swap2\n      pop\n        /* \"#utility.yul\":646:924   */\n      pop\n        /* \"#utility.yul\":584:924   */\n      swap3\n      swap2\n      pop\n      pop\n      jump\t// out\n        /* \"#utility.yul\":930:1069   */\n    tag_137:\n        /* \"#utility.yul\":976:981   */\n      0x00\n        /* \"#utility.yul\":1014:1020   */\n      dup2\n        /* \"#utility.yul\":1001:1021   */\n      calldataload\n        /* \"#utility.yul\":992:1021   */\n      swap1\n      pop\n        /* \"#utility.yul\":1030:1063   */\n      tag_139\n        /* \"#utility.yul\":1057:1062   */\n      dup2\n        /* \"#utility.yul\":1030:1063   */\n      tag_140\n      jump\t// in\n    tag_139:\n        /* \"#utility.yul\":930:1069   */\n      swap3\n      swap2\n      pop\n      pop\n      jump\t// out\n        /* \"#utility.yul\":1075:1404   */\n    tag_44:\n        /* \"#utility.yul\":1134:1140   */\n      0x00\n        /* \"#utility.yul\":1183:1185   */\n      0x20\n        /* \"#utility.yul\":1171:1180   */\n      dup3\n        /* \"#utility.yul\":1162:1169   */\n      dup5\n        /* \"#utility.yul\":1158:1181   */\n      sub\n        /* \"#utility.yul\":1154:1186   */\n      slt\n        /* \"#utility.yul\":1151:1270   */\n      iszero\n      tag_142\n      jumpi\n        /* \"#utility.yul\":1189:1268   */\n      tag_143\n      tag_144\n      jump\t// in\n    tag_143:\n        /* \"#utility.yul\":1151:1270   */\n    tag_142:\n        /* \"#utility.yul\":1309:1310   */\n      0x00\n        /* \"#utility.yul\":1334:1387   */\n      tag_145\n        /* \"#utility.yul\":1379:1386   */\n      dup5\n        /* \"#utility.yul\":1370:1376   */\n      dup3\n        /* \"#utility.yul\":1359:1368   */\n      dup6\n        /* \"#utility.yul\":1355:1377   */\n      add\n        /* \"#utility.yul\":1334:1387   */\n      tag_127\n      jump\t// in\n    tag_145:\n        /* \"#utility.yul\":1324:1387   */\n      swap2\n      pop\n        /* \"#utility.yul\":1280:1397   */\n      pop\n        /* \"#utility.yul\":1075:1404   */\n      swap3\n      swap2\n      pop\n      pop\n      jump\t// out\n        /* \"#utility.yul\":1410:2389   */\n    tag_21:\n        /* \"#utility.yul\":1507:1513   */\n      0x00\n        /* \"#utility.yul\":1515:1521   */\n      dup1\n        /* \"#utility.yul\":1523:1529   */\n      0x00\n        /* \"#utility.yul\":1572:1574   */\n      0x60\n        /* \"#utility.yul\":1560:1569   */\n      dup5\n        /* \"#utility.yul\":1551:1558   */\n      dup7\n        /* \"#utility.yul\":1547:1570   */\n      sub\n        /* \"#utility.yul\":1543:1575   */\n      slt\n        /* \"#utility.yul\":1540:1659   */\n      iszero\n      tag_147\n      jumpi\n        /* \"#utility.yul\":1578:1657   */\n      tag_148\n      tag_144\n      jump\t// in\n    tag_148:\n        /* \"#utility.yul\":1540:1659   */\n    tag_147:\n        /* \"#utility.yul\":1726:1727   */\n      0x00\n        /* \"#utility.yul\":1715:1724   */\n      dup5\n        /* \"#utility.yul\":1711:1728   */\n      add\n        /* \"#utility.yul\":1698:1729   */\n      calldataload\n        /* \"#utility.yul\":1756:1774   */\n      0xffffffffffffffff\n        /* \"#utility.yul\":1748:1754   */\n      dup2\n        /* \"#utility.yul\":1745:1775   */\n      gt\n        /* \"#utility.yul\":1742:1859   */\n      iszero\n      tag_149\n      jumpi\n        /* \"#utility.yul\":1778:1857   */\n      tag_150\n      tag_151\n      jump\t// in\n    tag_150:\n        /* \"#utility.yul\":1742:1859   */\n    tag_149:\n        /* \"#utility.yul\":1883:1946   */\n      tag_152\n        /* \"#utility.yul\":1938:1945   */\n      dup7\n        /* \"#utility.yul\":1929:1935   */\n      dup3\n        /* \"#utility.yul\":1918:1927   */\n      dup8\n        /* \"#utility.yul\":1914:1936   */\n      add\n        /* \"#utility.yul\":1883:1946   */\n      tag_131\n      jump\t// in\n    tag_152:\n        /* \"#utility.yul\":1873:1946   */\n      swap4\n      pop\n        /* \"#utility.yul\":1669:1956   */\n      pop\n        /* \"#utility.yul\":2023:2025   */\n      0x20\n        /* \"#utility.yul\":2012:2021   */\n      dup5\n        /* \"#utility.yul\":2008:2026   */\n      add\n        /* \"#utility.yul\":1995:2027   */\n      calldataload\n        /* \"#utility.yul\":2054:2072   */\n      0xffffffffffffffff\n        /* \"#utility.yul\":2046:2052   */\n      dup2\n        /* \"#utility.yul\":2043:2073   */\n      gt\n        /* \"#utility.yul\":2040:2157   */\n      iszero\n      tag_153\n      jumpi\n        /* \"#utility.yul\":2076:2155   */\n      tag_154\n      tag_151\n      jump\t// in\n    tag_154:\n        /* \"#utility.yul\":2040:2157   */\n    tag_153:\n        /* \"#utility.yul\":2181:2244   */\n      tag_155\n        /* \"#utility.yul\":2236:2243   */\n      dup7\n        /* \"#utility.yul\":2227:2233   */\n      dup3\n        /* \"#utility.yul\":2216:2225   */\n      dup8\n        /* \"#utility.yul\":2212:2234   */\n      add\n        /* \"#utility.yul\":2181:2244   */\n      tag_131\n      jump\t// in\n    tag_155:\n        /* \"#utility.yul\":2171:2244   */\n      swap3\n      pop\n        /* \"#utility.yul\":1966:2254   */\n      pop\n        /* \"#utility.yul\":2293:2295   */\n      0x40\n        /* \"#utility.yul\":2319:2372   */\n      tag_156\n        /* \"#utility.yul\":2364:2371   */\n      dup7\n        /* \"#utility.yul\":2355:2361   */\n      dup3\n        /* \"#utility.yul\":2344:2353   */\n      dup8\n        /* \"#utility.yul\":2340:2362   */\n      add\n        /* \"#utility.yul\":2319:2372   */\n      tag_137\n      jump\t// in\n    tag_156:\n        /* \"#utility.yul\":2309:2372   */\n      swap2\n      pop\n        /* \"#utility.yul\":2264:2382   */\n      pop\n        /* \"#utility.yul\":1410:2389   */\n      swap3\n      pop\n      swap3\n      pop\n      swap3\n      jump\t// out\n        /* \"#utility.yul\":2395:2548   */\n    tag_157:\n        /* \"#utility.yul\":2493:2541   */\n      tag_159\n        /* \"#utility.yul\":2535:2540   */\n      dup2\n        /* \"#utility.yul\":2493:2541   */\n      tag_160\n      jump\t// in\n    tag_159:\n        /* \"#utility.yul\":2488:2491   */\n      dup3\n        /* \"#utility.yul\":2481:2542   */\n      mstore\n        /* \"#utility.yul\":2395:2548   */\n      pop\n      pop\n      jump\t// out\n        /* \"#utility.yul\":2554:2918   */\n    tag_161:\n        /* \"#utility.yul\":2642:2645   */\n      0x00\n        /* \"#utility.yul\":2670:2709   */\n      tag_163\n        /* \"#utility.yul\":2703:2708   */\n      dup3\n        /* \"#utility.yul\":2670:2709   */\n      tag_164\n      jump\t// in\n    tag_163:\n        /* \"#utility.yul\":2725:2796   */\n      tag_165\n        /* \"#utility.yul\":2789:2795   */\n      dup2\n        /* \"#utility.yul\":2784:2787   */\n      dup6\n        /* \"#utility.yul\":2725:2796   */\n      tag_166\n      jump\t// in\n    tag_165:\n        /* \"#utility.yul\":2718:2796   */\n      swap4\n      pop\n        /* \"#utility.yul\":2805:2857   */\n      tag_167\n        /* \"#utility.yul\":2850:2856   */\n      dup2\n        /* \"#utility.yul\":2845:2848   */\n      dup6\n        /* \"#utility.yul\":2838:2842   */\n      0x20\n        /* \"#utility.yul\":2831:2836   */\n      dup7\n        /* \"#utility.yul\":2827:2843   */\n      add\n        /* \"#utility.yul\":2805:2857   */\n      tag_168\n      jump\t// in\n    tag_167:\n        /* \"#utility.yul\":2882:2911   */\n      tag_169\n        /* \"#utility.yul\":2904:2910   */\n      dup2\n        /* \"#utility.yul\":2882:2911   */\n      tag_170\n      jump\t// in\n    tag_169:\n        /* \"#utility.yul\":2877:2880   */\n      dup5\n        /* \"#utility.yul\":2873:2912   */\n      add\n        /* \"#utility.yul\":2866:2912   */\n      swap2\n      pop\n        /* \"#utility.yul\":2646:2918   */\n      pop\n        /* \"#utility.yul\":2554:2918   */\n      swap3\n      swap2\n      pop\n      pop\n      jump\t// out\n        /* \"#utility.yul\":2924:3290   */\n    tag_171:\n        /* \"#utility.yul\":3066:3069   */\n      0x00\n        /* \"#utility.yul\":3087:3154   */\n      tag_173\n        /* \"#utility.yul\":3151:3153   */\n      0x1d\n        /* \"#utility.yul\":3146:3149   */\n      dup4\n        /* \"#utility.yul\":3087:3154   */\n      tag_166\n      jump\t// in\n    tag_173:\n        /* \"#utility.yul\":3080:3154   */\n      swap2\n      pop\n        /* \"#utility.yul\":3163:3256   */\n      tag_174\n        /* \"#utility.yul\":3252:3255   */\n      dup3\n        /* \"#utility.yul\":3163:3256   */\n      tag_175\n      jump\t// in\n    tag_174:\n        /* \"#utility.yul\":3281:3283   */\n      0x20\n        /* \"#utility.yul\":3276:3279   */\n      dup3\n        /* \"#utility.yul\":3272:3284   */\n      add\n        /* \"#utility.yul\":3265:3284   */\n      swap1\n      pop\n        /* \"#utility.yul\":2924:3290   */\n      swap2\n      swap1\n      pop\n      jump\t// out\n        /* \"#utility.yul\":3296:3414   */\n    tag_176:\n        /* \"#utility.yul\":3383:3407   */\n      tag_178\n        /* \"#utility.yul\":3401:3406   */\n      dup2\n        /* \"#utility.yul\":3383:3407   */\n      tag_179\n      jump\t// in\n    tag_178:\n        /* \"#utility.yul\":3378:3381   */\n      dup3\n        /* \"#utility.yul\":3371:3408   */\n      mstore\n        /* \"#utility.yul\":3296:3414   */\n      pop\n      pop\n      jump\t// out\n        /* \"#utility.yul\":3420:3664   */\n    tag_26:\n        /* \"#utility.yul\":3524:3528   */\n      0x00\n        /* \"#utility.yul\":3562:3564   */\n      0x20\n        /* \"#utility.yul\":3551:3560   */\n      dup3\n        /* \"#utility.yul\":3547:3565   */\n      add\n        /* \"#utility.yul\":3539:3565   */\n      swap1\n      pop\n        /* \"#utility.yul\":3575:3657   */\n      tag_181\n        /* \"#utility.yul\":3654:3655   */\n      0x00\n        /* \"#utility.yul\":3643:3652   */\n      dup4\n        /* \"#utility.yul\":3639:3656   */\n      add\n        /* \"#utility.yul\":3630:3636   */\n      dup5\n        /* \"#utility.yul\":3575:3657   */\n      tag_157\n      jump\t// in\n    tag_181:\n        /* \"#utility.yul\":3420:3664   */\n      swap3\n      swap2\n      pop\n      pop\n      jump\t// out\n        /* \"#utility.yul\":3670:4607   */\n    tag_47:\n        /* \"#utility.yul\":3935:3939   */\n      0x00\n        /* \"#utility.yul\":3973:3976   */\n      0xa0\n        /* \"#utility.yul\":3962:3971   */\n      dup3\n        /* \"#utility.yul\":3958:3977   */\n      add\n        /* \"#utility.yul\":3950:3977   */\n      swap1\n      pop\n        /* \"#utility.yul\":4023:4032   */\n      dup2\n        /* \"#utility.yul\":4017:4021   */\n      dup2\n        /* \"#utility.yul\":4013:4033   */\n      sub\n        /* \"#utility.yul\":4009:4010   */\n      0x00\n        /* \"#utility.yul\":3998:4007   */\n      dup4\n        /* \"#utility.yul\":3994:4011   */\n      add\n        /* \"#utility.yul\":3987:4034   */\n      mstore\n        /* \"#utility.yul\":4051:4129   */\n      tag_183\n        /* \"#utility.yul\":4124:4128   */\n      dup2\n        /* \"#utility.yul\":4115:4121   */\n      dup9\n        /* \"#utility.yul\":4051:4129   */\n      tag_161\n      jump\t// in\n    tag_183:\n        /* \"#utility.yul\":4043:4129   */\n      swap1\n      pop\n        /* \"#utility.yul\":4176:4185   */\n      dup2\n        /* \"#utility.yul\":4170:4174   */\n      dup2\n        /* \"#utility.yul\":4166:4186   */\n      sub\n        /* \"#utility.yul\":4161:4163   */\n      0x20\n        /* \"#utility.yul\":4150:4159   */\n      dup4\n        /* \"#utility.yul\":4146:4164   */\n      add\n        /* \"#utility.yul\":4139:4187   */\n      mstore\n        /* \"#utility.yul\":4204:4282   */\n      tag_184\n        /* \"#utility.yul\":4277:4281   */\n      dup2\n        /* \"#utility.yul\":4268:4274   */\n      dup8\n        /* \"#utility.yul\":4204:4282   */\n      tag_161\n      jump\t// in\n    tag_184:\n        /* \"#utility.yul\":4196:4282   */\n      swap1\n      pop\n        /* \"#utility.yul\":4292:4364   */\n      tag_185\n        /* \"#utility.yul\":4360:4362   */\n      0x40\n        /* \"#utility.yul\":4349:4358   */\n      dup4\n        /* \"#utility.yul\":4345:4363   */\n      add\n        /* \"#utility.yul\":4336:4342   */\n      dup7\n        /* \"#utility.yul\":4292:4364   */\n      tag_176\n      jump\t// in\n    tag_185:\n        /* \"#utility.yul\":4411:4420   */\n      dup2\n        /* \"#utility.yul\":4405:4409   */\n      dup2\n        /* \"#utility.yul\":4401:4421   */\n      sub\n        /* \"#utility.yul\":4396:4398   */\n      0x60\n        /* \"#utility.yul\":4385:4394   */\n      dup4\n        /* \"#utility.yul\":4381:4399   */\n      add\n        /* \"#utility.yul\":4374:4422   */\n      mstore\n        /* \"#utility.yul\":4439:4517   */\n      tag_186\n        /* \"#utility.yul\":4512:4516   */\n      dup2\n        /* \"#utility.yul\":4503:4509   */\n      dup6\n        /* \"#utility.yul\":4439:4517   */\n      tag_161\n      jump\t// in\n    tag_186:\n        /* \"#utility.yul\":4431:4517   */\n      swap1\n      pop\n        /* \"#utility.yul\":4527:4600   */\n      tag_187\n        /* \"#utility.yul\":4595:4598   */\n      0x80\n        /* \"#utility.yul\":4584:4593   */\n      dup4\n        /* \"#utility.yul\":4580:4599   */\n      add\n        /* \"#utility.yul\":4571:4577   */\n      dup5\n        /* \"#utility.yul\":4527:4600   */\n      tag_176\n      jump\t// in\n    tag_187:\n        /* \"#utility.yul\":3670:4607   */\n      swap7\n      swap6\n      pop\n      pop\n      pop\n      pop\n      pop\n      pop\n      jump\t// out\n        /* \"#utility.yul\":4613:5032   */\n    tag_54:\n        /* \"#utility.yul\":4779:4783   */\n      0x00\n        /* \"#utility.yul\":4817:4819   */\n      0x20\n        /* \"#utility.yul\":4806:4815   */\n      dup3\n        /* \"#utility.yul\":4802:4820   */\n      add\n        /* \"#utility.yul\":4794:4820   */\n      swap1\n      pop\n        /* \"#utility.yul\":4866:4875   */\n      dup2\n        /* \"#utility.yul\":4860:4864   */\n      dup2\n        /* \"#utility.yul\":4856:4876   */\n      sub\n        /* \"#utility.yul\":4852:4853   */\n      0x00\n        /* \"#utility.yul\":4841:4850   */\n      dup4\n        /* \"#utility.yul\":4837:4854   */\n      add\n        /* \"#utility.yul\":4830:4877   */\n      mstore\n        /* \"#utility.yul\":4894:5025   */\n      tag_189\n        /* \"#utility.yul\":5020:5024   */\n      dup2\n        /* \"#utility.yul\":4894:5025   */\n      tag_171\n      jump\t// in\n    tag_189:\n        /* \"#utility.yul\":4886:5025   */\n      swap1\n      pop\n        /* \"#utility.yul\":4613:5032   */\n      swap2\n      swap1\n      pop\n      jump\t// out\n        /* \"#utility.yul\":5038:5260   */\n    tag_18:\n        /* \"#utility.yul\":5131:5135   */\n      0x00\n        /* \"#utility.yul\":5169:5171   */\n      0x20\n        /* \"#utility.yul\":5158:5167   */\n      dup3\n        /* \"#utility.yul\":5154:5172   */\n      add\n        /* \"#utility.yul\":5146:5172   */\n      swap1\n      pop\n        /* \"#utility.yul\":5182:5253   */\n      tag_191\n        /* \"#utility.yul\":5250:5251   */\n      0x00\n        /* \"#utility.yul\":5239:5248   */\n      dup4\n        /* \"#utility.yul\":5235:5252   */\n      add\n        /* \"#utility.yul\":5226:5232   */\n      dup5\n        /* \"#utility.yul\":5182:5253   */\n      tag_176\n      jump\t// in\n    tag_191:\n        /* \"#utility.yul\":5038:5260   */\n      swap3\n      swap2\n      pop\n      pop\n      jump\t// out\n        /* \"#utility.yul\":5266:5395   */\n    tag_121:\n        /* \"#utility.yul\":5300:5306   */\n      0x00\n        /* \"#utility.yul\":5327:5347   */\n      tag_193\n      tag_194\n      jump\t// in\n    tag_193:\n        /* \"#utility.yul\":5317:5347   */\n      swap1\n      pop\n        /* \"#utility.yul\":5356:5389   */\n      tag_195\n        /* \"#utility.yul\":5384:5388   */\n      dup3\n        /* \"#utility.yul\":5376:5382   */\n      dup3\n        /* \"#utility.yul\":5356:5389   */\n      tag_196\n      jump\t// in\n    tag_195:\n        /* \"#utility.yul\":5266:5395   */\n      swap2\n      swap1\n      pop\n      jump\t// out\n        /* \"#utility.yul\":5401:5476   */\n    tag_194:\n        /* \"#utility.yul\":5434:5440   */\n      0x00\n        /* \"#utility.yul\":5467:5469   */\n      0x40\n        /* \"#utility.yul\":5461:5470   */\n      mload\n        /* \"#utility.yul\":5451:5470   */\n      swap1\n      pop\n        /* \"#utility.yul\":5401:5476   */\n      swap1\n      jump\t// out\n        /* \"#utility.yul\":5482:5790   */\n    tag_120:\n        /* \"#utility.yul\":5544:5548   */\n      0x00\n        /* \"#utility.yul\":5634:5652   */\n      0xffffffffffffffff\n        /* \"#utility.yul\":5626:5632   */\n      dup3\n        /* \"#utility.yul\":5623:5653   */\n      gt\n        /* \"#utility.yul\":5620:5676   */\n      iszero\n      tag_199\n      jumpi\n        /* \"#utility.yul\":5656:5674   */\n      tag_200\n      tag_201\n      jump\t// in\n    tag_200:\n        /* \"#utility.yul\":5620:5676   */\n    tag_199:\n        /* \"#utility.yul\":5694:5723   */\n      tag_202\n        /* \"#utility.yul\":5716:5722   */\n      dup3\n        /* \"#utility.yul\":5694:5723   */\n      tag_170\n      jump\t// in\n    tag_202:\n        /* \"#utility.yul\":5686:5723   */\n      swap1\n      pop\n        /* \"#utility.yul\":5778:5782   */\n      0x20\n        /* \"#utility.yul\":5772:5776   */\n      dup2\n        /* \"#utility.yul\":5768:5783   */\n      add\n        /* \"#utility.yul\":5760:5783   */\n      swap1\n      pop\n        /* \"#utility.yul\":5482:5790   */\n      swap2\n      swap1\n      pop\n      jump\t// out\n        /* \"#utility.yul\":5796:5895   */\n    tag_164:\n        /* \"#utility.yul\":5848:5854   */\n      0x00\n        /* \"#utility.yul\":5882:5887   */\n      dup2\n        /* \"#utility.yul\":5876:5888   */\n      mload\n        /* \"#utility.yul\":5866:5888   */\n      swap1\n      pop\n        /* \"#utility.yul\":5796:5895   */\n      swap2\n      swap1\n      pop\n      jump\t// out\n        /* \"#utility.yul\":5901:6070   */\n    tag_166:\n        /* \"#utility.yul\":5985:5996   */\n      0x00\n        /* \"#utility.yul\":6019:6025   */\n      dup3\n        /* \"#utility.yul\":6014:6017   */\n      dup3\n        /* \"#utility.yul\":6007:6026   */\n      mstore\n        /* \"#utility.yul\":6059:6063   */\n      0x20\n        /* \"#utility.yul\":6054:6057   */\n      dup3\n        /* \"#utility.yul\":6050:6064   */\n      add\n        /* \"#utility.yul\":6035:6064   */\n      swap1\n      pop\n        /* \"#utility.yul\":5901:6070   */\n      swap3\n      swap2\n      pop\n      pop\n      jump\t// out\n        /* \"#utility.yul\":6076:6424   */\n    tag_81:\n        /* \"#utility.yul\":6116:6123   */\n      0x00\n        /* \"#utility.yul\":6139:6159   */\n      tag_206\n        /* \"#utility.yul\":6157:6158   */\n      dup3\n        /* \"#utility.yul\":6139:6159   */\n      tag_179\n      jump\t// in\n    tag_206:\n        /* \"#utility.yul\":6134:6159   */\n      swap2\n      pop\n        /* \"#utility.yul\":6173:6193   */\n      tag_207\n        /* \"#utility.yul\":6191:6192   */\n      dup4\n        /* \"#utility.yul\":6173:6193   */\n      tag_179\n      jump\t// in\n    tag_207:\n        /* \"#utility.yul\":6168:6193   */\n      swap3\n      pop\n        /* \"#utility.yul\":6361:6362   */\n      dup2\n        /* \"#utility.yul\":6293:6359   */\n      0xffffffffffffffffffffffffffffffffffffffffffffffffffffffffffffffff\n        /* \"#utility.yul\":6289:6363   */\n      div\n        /* \"#utility.yul\":6286:6287   */\n      dup4\n        /* \"#utility.yul\":6283:6364   */\n      gt\n        /* \"#utility.yul\":6278:6279   */\n      dup3\n        /* \"#utility.yul\":6271:6280   */\n      iszero\n        /* \"#utility.yul\":6264:6281   */\n      iszero\n        /* \"#utility.yul\":6260:6365   */\n      and\n        /* \"#utility.yul\":6257:6388   */\n      iszero\n      tag_208\n      jumpi\n        /* \"#utility.yul\":6368:6386   */\n      tag_209\n      tag_210\n      jump\t// in\n    tag_209:\n        /* \"#utility.yul\":6257:6388   */\n    tag_208:\n        /* \"#utility.yul\":6416:6417   */\n      dup3\n        /* \"#utility.yul\":6413:6414   */\n      dup3\n        /* \"#utility.yul\":6409:6418   */\n      mul\n        /* \"#utility.yul\":6398:6418   */\n      swap1\n      pop\n        /* \"#utility.yul\":6076:6424   */\n      swap3\n      swap2\n      pop\n      pop\n      jump\t// out\n        /* \"#utility.yul\":6430:6526   */\n    tag_211:\n        /* \"#utility.yul\":6467:6474   */\n      0x00\n        /* \"#utility.yul\":6496:6520   */\n      tag_213\n        /* \"#utility.yul\":6514:6519   */\n      dup3\n        /* \"#utility.yul\":6496:6520   */\n      tag_214\n      jump\t// in\n    tag_213:\n        /* \"#utility.yul\":6485:6520   */\n      swap1\n      pop\n        /* \"#utility.yul\":6430:6526   */\n      swap2\n      swap1\n      pop\n      jump\t// out\n        /* \"#utility.yul\":6532:6669   */\n    tag_215:\n        /* \"#utility.yul\":6582:6589   */\n      0x00\n        /* \"#utility.yul\":6611:6616   */\n      dup2\n        /* \"#utility.yul\":6600:6616   */\n      swap1\n      pop\n        /* \"#utility.yul\":6617:6663   */\n      tag_217\n        /* \"#utility.yul\":6657:6662   */\n      dup3\n        /* \"#utility.yul\":6617:6663   */\n      tag_218\n      jump\t// in\n    tag_217:\n        /* \"#utility.yul\":6532:6669   */\n      swap2\n      swap1\n      pop\n      jump\t// out\n        /* \"#utility.yul\":6675:6801   */\n    tag_214:\n        /* \"#utility.yul\":6712:6719   */\n      0x00\n        /* \"#utility.yul\":6752:6794   */\n      0xffffffffffffffffffffffffffffffffffffffff\n        /* \"#utility.yul\":6745:6750   */\n      dup3\n        /* \"#utility.yul\":6741:6795   */\n      and\n        /* \"#utility.yul\":6730:6795   */\n      swap1\n      pop\n        /* \"#utility.yul\":6675:6801   */\n      swap2\n      swap1\n      pop\n      jump\t// out\n        /* \"#utility.yul\":6807:6884   */\n    tag_179:\n        /* \"#utility.yul\":6844:6851   */\n      0x00\n        /* \"#utility.yul\":6873:6878   */\n      dup2\n        /* \"#utility.yul\":6862:6878   */\n      swap1\n      pop\n        /* \"#utility.yul\":6807:6884   */\n      swap2\n      swap1\n      pop\n      jump\t// out\n        /* \"#utility.yul\":6890:7027   */\n    tag_160:\n        /* \"#utility.yul\":6951:6960   */\n      0x00\n        /* \"#utility.yul\":6984:7021   */\n      tag_222\n        /* \"#utility.yul\":7015:7020   */\n      dup3\n        /* \"#utility.yul\":6984:7021   */\n      tag_215\n      jump\t// in\n    tag_222:\n        /* \"#utility.yul\":6971:7021   */\n      swap1\n      pop\n        /* \"#utility.yul\":6890:7027   */\n      swap2\n      swap1\n      pop\n      jump\t// out\n        /* \"#utility.yul\":7033:7187   */\n    tag_126:\n        /* \"#utility.yul\":7117:7123   */\n      dup3\n        /* \"#utility.yul\":7112:7115   */\n      dup2\n        /* \"#utility.yul\":7107:7110   */\n      dup4\n        /* \"#utility.yul\":7094:7124   */\n      calldatacopy\n        /* \"#utility.yul\":7179:7180   */\n      0x00\n        /* \"#utility.yul\":7170:7176   */\n      dup4\n        /* \"#utility.yul\":7165:7168   */\n      dup4\n        /* \"#utility.yul\":7161:7177   */\n      add\n        /* \"#utility.yul\":7154:7181   */\n      mstore\n        /* \"#utility.yul\":7033:7187   */\n      pop\n      pop\n      pop\n      jump\t// out\n        /* \"#utility.yul\":7193:7500   */\n    tag_168:\n        /* \"#utility.yul\":7261:7262   */\n      0x00\n        /* \"#utility.yul\":7271:7384   */\n    tag_225:\n        /* \"#utility.yul\":7285:7291   */\n      dup4\n        /* \"#utility.yul\":7282:7283   */\n      dup2\n        /* \"#utility.yul\":7279:7292   */\n      lt\n        /* \"#utility.yul\":7271:7384   */\n      iszero\n      tag_227\n      jumpi\n        /* \"#utility.yul\":7370:7371   */\n      dup1\n        /* \"#utility.yul\":7365:7368   */\n      dup3\n        /* \"#utility.yul\":7361:7372   */\n      add\n        /* \"#utility.yul\":7355:7373   */\n      mload\n        /* \"#utility.yul\":7351:7352   */\n      dup2\n        /* \"#utility.yul\":7346:7349   */\n      dup5\n        /* \"#utility.yul\":7342:7353   */\n      add\n        /* \"#utility.yul\":7335:7374   */\n      mstore\n        /* \"#utility.yul\":7307:7309   */\n      0x20\n        /* \"#utility.yul\":7304:7305   */\n      dup2\n        /* \"#utility.yul\":7300:7310   */\n      add\n        /* \"#utility.yul\":7295:7310   */\n      swap1\n      pop\n        /* \"#utility.yul\":7271:7384   */\n      jump(tag_225)\n    tag_227:\n        /* \"#utility.yul\":7402:7408   */\n      dup4\n        /* \"#utility.yul\":7399:7400   */\n      dup2\n        /* \"#utility.yul\":7396:7409   */\n      gt\n        /* \"#utility.yul\":7393:7494   */\n      iszero\n      tag_228\n      jumpi\n        /* \"#utility.yul\":7482:7483   */\n      0x00\n        /* \"#utility.yul\":7473:7479   */\n      dup5\n        /* \"#utility.yul\":7468:7471   */\n      dup5\n        /* \"#utility.yul\":7464:7480   */\n      add\n        /* \"#utility.yul\":7457:7484   */\n      mstore\n        /* \"#utility.yul\":7393:7494   */\n    tag_228:\n        /* \"#utility.yul\":7242:7500   */\n      pop\n        /* \"#utility.yul\":7193:7500   */\n      pop\n      pop\n      pop\n      jump\t// out\n        /* \"#utility.yul\":7506:7826   */\n    tag_56:\n        /* \"#utility.yul\":7550:7556   */\n      0x00\n        /* \"#utility.yul\":7587:7588   */\n      0x02\n        /* \"#utility.yul\":7581:7585   */\n      dup3\n        /* \"#utility.yul\":7577:7589   */\n      div\n        /* \"#utility.yul\":7567:7589   */\n      swap1\n      pop\n        /* \"#utility.yul\":7634:7635   */\n      0x01\n        /* \"#utility.yul\":7628:7632   */\n      dup3\n        /* \"#utility.yul\":7624:7636   */\n      and\n        /* \"#utility.yul\":7655:7673   */\n      dup1\n        /* \"#utility.yul\":7645:7726   */\n      tag_230\n      jumpi\n        /* \"#utility.yul\":7711:7715   */\n      0x7f\n        /* \"#utility.yul\":7703:7709   */\n      dup3\n        /* \"#utility.yul\":7699:7716   */\n      and\n        /* \"#utility.yul\":7689:7716   */\n      swap2\n      pop\n        /* \"#utility.yul\":7645:7726   */\n    tag_230:\n        /* \"#utility.yul\":7773:7775   */\n      0x20\n        /* \"#utility.yul\":7765:7771   */\n      dup3\n        /* \"#utility.yul\":7762:7776   */\n      lt\n        /* \"#utility.yul\":7742:7760   */\n      dup2\n        /* \"#utility.yul\":7739:7777   */\n      eq\n        /* \"#utility.yul\":7736:7820   */\n      iszero\n      tag_231\n      jumpi\n        /* \"#utility.yul\":7792:7810   */\n      tag_232\n      tag_233\n      jump\t// in\n    tag_232:\n        /* \"#utility.yul\":7736:7820   */\n    tag_231:\n        /* \"#utility.yul\":7557:7826   */\n      pop\n        /* \"#utility.yul\":7506:7826   */\n      swap2\n      swap1\n      pop\n      jump\t// out\n        /* \"#utility.yul\":7832:8113   */\n    tag_196:\n        /* \"#utility.yul\":7915:7942   */\n      tag_235\n        /* \"#utility.yul\":7937:7941   */\n      dup3\n        /* \"#utility.yul\":7915:7942   */\n      tag_170\n      jump\t// in\n    tag_235:\n        /* \"#utility.yul\":7907:7913   */\n      dup2\n        /* \"#utility.yul\":7903:7943   */\n      add\n        /* \"#utility.yul\":8045:8051   */\n      dup2\n        /* \"#utility.yul\":8033:8043   */\n      dup2\n        /* \"#utility.yul\":8030:8052   */\n      lt\n        /* \"#utility.yul\":8009:8027   */\n      0xffffffffffffffff\n        /* \"#utility.yul\":7997:8007   */\n      dup3\n        /* \"#utility.yul\":7994:8028   */\n      gt\n        /* \"#utility.yul\":7991:8053   */\n      or\n        /* \"#utility.yul\":7988:8076   */\n      iszero\n      tag_236\n      jumpi\n        /* \"#utility.yul\":8056:8074   */\n      tag_237\n      tag_201\n      jump\t// in\n    tag_237:\n        /* \"#utility.yul\":7988:8076   */\n    tag_236:\n        /* \"#utility.yul\":8096:8106   */\n      dup1\n        /* \"#utility.yul\":8092:8094   */\n      0x40\n        /* \"#utility.yul\":8085:8107   */\n      mstore\n        /* \"#utility.yul\":7875:8113   */\n      pop\n        /* \"#utility.yul\":7832:8113   */\n      pop\n      pop\n      jump\t// out\n        /* \"#utility.yul\":8119:8299   */\n    tag_210:\n        /* \"#utility.yul\":8167:8244   */\n      0x4e487b7100000000000000000000000000000000000000000000000000000000\n        /* \"#utility.yul\":8164:8165   */\n      0x00\n        /* \"#utility.yul\":8157:8245   */\n      mstore\n        /* \"#utility.yul\":8264:8268   */\n      0x11\n        /* \"#utility.yul\":8261:8262   */\n      0x04\n        /* \"#utility.yul\":8254:8269   */\n      mstore\n        /* \"#utility.yul\":8288:8292   */\n      0x24\n        /* \"#utility.yul\":8285:8286   */\n      0x00\n        /* \"#utility.yul\":8278:8293   */\n      revert\n        /* \"#utility.yul\":8305:8485   */\n    tag_68:\n        /* \"#utility.yul\":8353:8430   */\n      0x4e487b7100000000000000000000000000000000000000000000000000000000\n        /* \"#utility.yul\":8350:8351   */\n      0x00\n        /* \"#utility.yul\":8343:8431   */\n      mstore\n        /* \"#utility.yul\":8450:8454   */\n      0x21\n        /* \"#utility.yul\":8447:8448   */\n      0x04\n        /* \"#utility.yul\":8440:8455   */\n      mstore\n        /* \"#utility.yul\":8474:8478   */\n      0x24\n        /* \"#utility.yul\":8471:8472   */\n      0x00\n        /* \"#utility.yul\":8464:8479   */\n      revert\n        /* \"#utility.yul\":8491:8671   */\n    tag_233:\n        /* \"#utility.yul\":8539:8616   */\n      0x4e487b7100000000000000000000000000000000000000000000000000000000\n        /* \"#utility.yul\":8536:8537   */\n      0x00\n        /* \"#utility.yul\":8529:8617   */\n      mstore\n        /* \"#utility.yul\":8636:8640   */\n      0x22\n        /* \"#utility.yul\":8633:8634   */\n      0x04\n        /* \"#utility.yul\":8626:8641   */\n      mstore\n        /* \"#utility.yul\":8660:8664   */\n      0x24\n        /* \"#utility.yul\":8657:8658   */\n      0x00\n        /* \"#utility.yul\":8650:8665   */\n      revert\n        /* \"#utility.yul\":8677:8857   */\n    tag_201:\n        /* \"#utility.yul\":8725:8802   */\n      0x4e487b7100000000000000000000000000000000000000000000000000000000\n        /* \"#utility.yul\":8722:8723   */\n      0x00\n        /* \"#utility.yul\":8715:8803   */\n      mstore\n        /* \"#utility.yul\":8822:8826   */\n      0x41\n        /* \"#utility.yul\":8819:8820   */\n      0x04\n        /* \"#utility.yul\":8812:8827   */\n      mstore\n        /* \"#utility.yul\":8846:8850   */\n      0x24\n        /* \"#utility.yul\":8843:8844   */\n      0x00\n        /* \"#utility.yul\":8836:8851   */\n      revert\n        /* \"#utility.yul\":8863:8980   */\n    tag_135:\n        /* \"#utility.yul\":8972:8973   */\n      0x00\n        /* \"#utility.yul\":8969:8970   */\n      dup1\n        /* \"#utility.yul\":8962:8974   */\n      revert\n        /* \"#utility.yul\":8986:9103   */\n    tag_124:\n        /* \"#utility.yul\":9095:9096   */\n      0x00\n        /* \"#utility.yul\":9092:9093   */\n      dup1\n        /* \"#utility.yul\":9085:9097   */\n      revert\n        /* \"#utility.yul\":9109:9226   */\n    tag_151:\n        /* \"#utility.yul\":9218:9219   */\n      0x00\n        /* \"#utility.yul\":9215:9216   */\n      dup1\n        /* \"#utility.yul\":9208:9220   */\n      revert\n        /* \"#utility.yul\":9232:9349   */\n    tag_144:\n        /* \"#utility.yul\":9341:9342   */\n      0x00\n        /* \"#utility.yul\":9338:9339   */\n      dup1\n        /* \"#utility.yul\":9331:9343   */\n      revert\n        /* \"#utility.yul\":9355:9457   */\n    tag_170:\n        /* \"#utility.yul\":9396:9402   */\n      0x00\n        /* \"#utility.yul\":9447:9449   */\n      0x1f\n        /* \"#utility.yul\":9443:9450   */\n      not\n        /* \"#utility.yul\":9438:9440   */\n      0x1f\n        /* \"#utility.yul\":9431:9436   */\n      dup4\n        /* \"#utility.yul\":9427:9441   */\n      add\n        /* \"#utility.yul\":9423:9451   */\n      and\n        /* \"#utility.yul\":9413:9451   */\n      swap1\n      pop\n        /* \"#utility.yul\":9355:9457   */\n      swap2\n      swap1\n      pop\n      jump\t// out\n        /* \"#utility.yul\":9463:9642   */\n    tag_175:\n        /* \"#utility.yul\":9603:9634   */\n      0x706c656173652073656c6563742074686520636c617373206669727374000000\n        /* \"#utility.yul\":9599:9600   */\n      0x00\n        /* \"#utility.yul\":9591:9597   */\n      dup3\n        /* \"#utility.yul\":9587:9601   */\n      add\n        /* \"#utility.yul\":9580:9635   */\n      mstore\n        /* \"#utility.yul\":9463:9642   */\n      pop\n      jump\t// out\n        /* \"#utility.yul\":9648:9766   */\n    tag_218:\n        /* \"#utility.yul\":9734:9735   */\n      0x03\n        /* \"#utility.yul\":9727:9732   */\n      dup2\n        /* \"#utility.yul\":9724:9736   */\n      lt\n        /* \"#utility.yul\":9714:9760   */\n      tag_249\n      jumpi\n        /* \"#utility.yul\":9740:9758   */\n      tag_250\n      tag_68\n      jump\t// in\n    tag_250:\n        /* \"#utility.yul\":9714:9760   */\n    tag_249:\n        /* \"#utility.yul\":9648:9766   */\n      pop\n      jump\t// out\n        /* \"#utility.yul\":9772:9894   */\n    tag_130:\n        /* \"#utility.yul\":9845:9869   */\n      tag_252\n        /* \"#utility.yul\":9863:9868   */\n      dup2\n        /* \"#utility.yul\":9845:9869   */\n      tag_211\n      jump\t// in\n    tag_252:\n        /* \"#utility.yul\":9838:9843   */\n      dup2\n        /* \"#utility.yul\":9835:9870   */\n      eq\n        /* \"#utility.yul\":9825:9888   */\n      tag_253\n      jumpi\n        /* \"#utility.yul\":9884:9885   */\n      0x00\n        /* \"#utility.yul\":9881:9882   */\n      dup1\n        /* \"#utility.yul\":9874:9886   */\n      revert\n        /* \"#utility.yul\":9825:9888   */\n    tag_253:\n        /* \"#utility.yul\":9772:9894   */\n      pop\n      jump\t// out\n        /* \"#utility.yul\":9900:10022   */\n    tag_140:\n        /* \"#utility.yul\":9973:9997   */\n      tag_255\n        /* \"#utility.yul\":9991:9996   */\n      dup2\n        /* \"#utility.yul\":9973:9997   */\n      tag_179\n      jump\t// in\n    tag_255:\n        /* \"#utility.yul\":9966:9971   */\n      dup2\n        /* \"#utility.yul\":9963:9998   */\n      eq\n        /* \"#utility.yul\":9953:10016   */\n      tag_256\n      jumpi\n        /* \"#utility.yul\":10012:10013   */\n      0x00\n        /* \"#utility.yul\":10009:10010   */\n      dup1\n        /* \"#utility.yul\":10002:10014   */\n      revert\n        /* \"#utility.yul\":9953:10016   */\n    tag_256:\n        /* \"#utility.yul\":9900:10022   */\n      pop\n      jump\t// out\n\n    auxdata: 0xa2646970667358221220ad6528902f06981860ff73dfc8598c265788a791aaf3158785f581a3514c6c1164736f6c63430008070033\n}\n",
				"bytecode": {
					"linkReferences": {},
					"object": "608060405260008060006101000a81548160ff0219169083151502179055506040518060400160405280600d81526020017f45636f6e6f6d7920436c61737300000000000000000000000000000000000000815250600290805190602001906200006b92919062000123565b5060016005556611c37937e080006005546200008891906200020b565b6006556611c37937e08000600554620000a291906200020b565b6007556611c37937e08000600554620000bc91906200020b565b6008556ec097ce7bc90715b34b9f1000000000600554620000de9190620001d3565b6009556001600b60006101000a81548160ff021916908360028111156200010a57620001096200030a565b5b02179055503480156200011c57600080fd5b5062000368565b828054620001319062000276565b90600052602060002090601f016020900481019282620001555760008555620001a1565b82601f106200017057805160ff1916838001178555620001a1565b82800160010185558215620001a1579182015b82811115620001a057825182559160200191906001019062000183565b5b509050620001b09190620001b4565b5090565b5b80821115620001cf576000816000905550600101620001b5565b5090565b6000620001e0826200026c565b9150620001ed836200026c565b9250826200020057620001ff620002db565b5b828204905092915050565b600062000218826200026c565b915062000225836200026c565b9250817fffffffffffffffffffffffffffffffffffffffffffffffffffffffffffffffff0483118215151615620002615762000260620002ac565b5b828202905092915050565b6000819050919050565b600060028204905060018216806200028f57607f821691505b60208210811415620002a657620002a562000339565b5b50919050565b7f4e487b7100000000000000000000000000000000000000000000000000000000600052601160045260246000fd5b7f4e487b7100000000000000000000000000000000000000000000000000000000600052601260045260246000fd5b7f4e487b7100000000000000000000000000000000000000000000000000000000600052602160045260246000fd5b7f4e487b7100000000000000000000000000000000000000000000000000000000600052602260045260246000fd5b610ea380620003786000396000f3fe608060405234801561001057600080fd5b50600436106100a95760003560e01c8063702b1c1611610071578063702b1c161461012e5780637a1736d11461014c578063a5eba93114610156578063b24fa0e414610174578063b90d3d0c1461017e578063fa883acd146101b2576100a9565b806309a8d3f5146100ae57806317ae4589146100cc5780631aa35610146100e85780634fb2e0be146101065780635018350714610124575b600080fd5b6100b66101d0565b6040516100c39190610b34565b60405180910390f35b6100e660048036038101906100e1919061098c565b6101d6565b005b6100f0610388565b6040516100fd9190610a91565b60405180910390f35b61010e61039b565b60405161011b9190610b34565b60405180910390f35b61012c6103a1565b005b610136610470565b6040516101439190610b34565b60405180910390f35b610154610476565b005b61015e61055f565b60405161016b9190610b34565b60405180910390f35b61017c610565565b005b6101986004803603810190610193919061095f565b61064e565b6040516101a9959493929190610aac565b60405180910390f35b6101ba61081c565b6040516101c79190610b34565b60405180910390f35b60095481565b60008054906101000a900460ff16610223576040517f08c379a000000000000000000000000000000000000000000000000000000000815260040161021a90610b14565b60405180910390fd5b6040518060a001604052808481526020018381526020018281526020016002805461024d90610cbe565b80601f016020809104026020016040519081016040528092919081815260200182805461027990610cbe565b80156102c65780601f1061029b576101008083540402835291602001916102c6565b820191906000526020600020905b8154815290600101906020018083116102a957829003601f168201915b50505050508152602001600354815250600a60003373ffffffffffffffffffffffffffffffffffffffff1673ffffffffffffffffffffffffffffffffffffffff1681526020019081526020016000206000820151816000019080519060200190610331929190610822565b50602082015181600101908051906020019061034e929190610822565b50604082015181600201556060820151816003019080519060200190610375929190610822565b5060808201518160040155905050505050565b600b60009054906101000a900460ff1681565b60055481565b6000600b60006101000a81548160ff021916908360028111156103c7576103c6610d50565b5b0217905550600b60009054906101000a900460ff1660028111156103ee576103ed610d50565b5b60018190555060006001541415610454576040518060400160405280600b81526020017f466972737420436c6173730000000000000000000000000000000000000000008152506002908051906020019061044a929190610822565b5060026003819055505b60016000806101000a81548160ff021916908315150217905550565b60065481565b6001600b60006101000a81548160ff0219169083600281111561049c5761049b610d50565b5b0217905550600b60009054906101000a900460ff1660028111156104c3576104c2610d50565b5b600181905550600180541415610543576040518060400160405280600d81526020017f45636f6e6f6d7920436c617373000000000000000000000000000000000000008152506002908051906020019061051e929190610822565b506611c37937e080006005546105349190610bc1565b60048190555060016003819055505b60016000806101000a81548160ff021916908315150217905550565b60085481565b6002600b60006101000a81548160ff0219169083600281111561058b5761058a610d50565b5b0217905550600b60009054906101000a900460ff1660028111156105b2576105b1610d50565b5b60018190555060026001541415610632576040518060400160405280600d81526020017f4275736e69737320436c617373000000000000000000000000000000000000008152506002908051906020019061060e929190610822565b506611c37937e080006005546106249190610bc1565b600481905550600380819055505b60016000806101000a81548160ff021916908315150217905550565b600a60205280600052604060002060009150905080600001805461067190610cbe565b80601f016020809104026020016040519081016040528092919081815260200182805461069d90610cbe565b80156106ea5780601f106106bf576101008083540402835291602001916106ea565b820191906000526020600020905b8154815290600101906020018083116106cd57829003601f168201915b5050505050908060010180546106ff90610cbe565b80601f016020809104026020016040519081016040528092919081815260200182805461072b90610cbe565b80156107785780601f1061074d57610100808354040283529160200191610778565b820191906000526020600020905b81548152906001019060200180831161075b57829003601f168201915b50505050509080600201549080600301805461079390610cbe565b80601f01602080910402602001604051908101604052809291908181526020018280546107bf90610cbe565b801561080c5780601f106107e15761010080835404028352916020019161080c565b820191906000526020600020905b8154815290600101906020018083116107ef57829003601f168201915b5050505050908060040154905085565b60075481565b82805461082e90610cbe565b90600052602060002090601f0160209004810192826108505760008555610897565b82601f1061086957805160ff1916838001178555610897565b82800160010185558215610897579182015b8281111561089657825182559160200191906001019061087b565b5b5090506108a491906108a8565b5090565b5b808211156108c15760008160009055506001016108a9565b5090565b60006108d86108d384610b74565b610b4f565b9050828152602081018484840111156108f4576108f3610de2565b5b6108ff848285610c7c565b509392505050565b60008135905061091681610e3f565b92915050565b600082601f83011261093157610930610ddd565b5b81356109418482602086016108c5565b91505092915050565b60008135905061095981610e56565b92915050565b60006020828403121561097557610974610dec565b5b600061098384828501610907565b91505092915050565b6000806000606084860312156109a5576109a4610dec565b5b600084013567ffffffffffffffff8111156109c3576109c2610de7565b5b6109cf8682870161091c565b935050602084013567ffffffffffffffff8111156109f0576109ef610de7565b5b6109fc8682870161091c565b9250506040610a0d8682870161094a565b9150509250925092565b610a2081610c6a565b82525050565b6000610a3182610ba5565b610a3b8185610bb0565b9350610a4b818560208601610c8b565b610a5481610df1565b840191505092915050565b6000610a6c601d83610bb0565b9150610a7782610e02565b602082019050919050565b610a8b81610c60565b82525050565b6000602082019050610aa66000830184610a17565b92915050565b600060a0820190508181036000830152610ac68188610a26565b90508181036020830152610ada8187610a26565b9050610ae96040830186610a82565b8181036060830152610afb8185610a26565b9050610b0a6080830184610a82565b9695505050505050565b60006020820190508181036000830152610b2d81610a5f565b9050919050565b6000602082019050610b496000830184610a82565b92915050565b6000610b59610b6a565b9050610b658282610cf0565b919050565b6000604051905090565b600067ffffffffffffffff821115610b8f57610b8e610dae565b5b610b9882610df1565b9050602081019050919050565b600081519050919050565b600082825260208201905092915050565b6000610bcc82610c60565b9150610bd783610c60565b9250817fffffffffffffffffffffffffffffffffffffffffffffffffffffffffffffffff0483118215151615610c1057610c0f610d21565b5b828202905092915050565b6000610c2682610c40565b9050919050565b6000819050610c3b82610e2b565b919050565b600073ffffffffffffffffffffffffffffffffffffffff82169050919050565b6000819050919050565b6000610c7582610c2d565b9050919050565b82818337600083830152505050565b60005b83811015610ca9578082015181840152602081019050610c8e565b83811115610cb8576000848401525b50505050565b60006002820490506001821680610cd657607f821691505b60208210811415610cea57610ce9610d7f565b5b50919050565b610cf982610df1565b810181811067ffffffffffffffff82111715610d1857610d17610dae565b5b80604052505050565b7f4e487b7100000000000000000000000000000000000000000000000000000000600052601160045260246000fd5b7f4e487b7100000000000000000000000000000000000000000000000000000000600052602160045260246000fd5b7f4e487b7100000000000000000000000000000000000000000000000000000000600052602260045260246000fd5b7f4e487b7100000000000000000000000000000000000000000000000000000000600052604160045260246000fd5b600080fd5b600080fd5b600080fd5b600080fd5b6000601f19601f8301169050919050565b7f706c656173652073656c6563742074686520636c617373206669727374000000600082015250565b60038110610e3c57610e3b610d50565b5b50565b610e4881610c1b565b8114610e5357600080fd5b50565b610e5f81610c60565b8114610e6a57600080fd5b5056fea2646970667358221220ad6528902f06981860ff73dfc8598c265788a791aaf3158785f581a3514c6c1164736f6c63430008070033",
					"opcodes": "PUSH1 0x80 PUSH1 0x40 MSTORE PUSH1 0x0 DUP1 PUSH1 0x0 PUSH2 0x100 EXP DUP2 SLOAD DUP2 PUSH1 0xFF MUL NOT AND SWAP1 DUP4 ISZERO ISZERO MUL OR SWAP1 SSTORE POP PUSH1 0x40 MLOAD DUP1 PUSH1 0x40 ADD PUSH1 0x40 MSTORE DUP1 PUSH1 0xD DUP2 MSTORE PUSH1 0x20 ADD PUSH32 0x45636F6E6F6D7920436C61737300000000000000000000000000000000000000 DUP2 MSTORE POP PUSH1 0x2 SWAP1 DUP1 MLOAD SWAP1 PUSH1 0x20 ADD SWAP1 PUSH3 0x6B SWAP3 SWAP2 SWAP1 PUSH3 0x123 JUMP JUMPDEST POP PUSH1 0x1 PUSH1 0x5 SSTORE PUSH7 0x11C37937E08000 PUSH1 0x5 SLOAD PUSH3 0x88 SWAP2 SWAP1 PUSH3 0x20B JUMP JUMPDEST PUSH1 0x6 SSTORE PUSH7 0x11C37937E08000 PUSH1 0x5 SLOAD PUSH3 0xA2 SWAP2 SWAP1 PUSH3 0x20B JUMP JUMPDEST PUSH1 0x7 SSTORE PUSH7 0x11C37937E08000 PUSH1 0x5 SLOAD PUSH3 0xBC SWAP2 SWAP1 PUSH3 0x20B JUMP JUMPDEST PUSH1 0x8 SSTORE PUSH15 0xC097CE7BC90715B34B9F1000000000 PUSH1 0x5 SLOAD PUSH3 0xDE SWAP2 SWAP1 PUSH3 0x1D3 JUMP JUMPDEST PUSH1 0x9 SSTORE PUSH1 0x1 PUSH1 0xB PUSH1 0x0 PUSH2 0x100 EXP DUP2 SLOAD DUP2 PUSH1 0xFF MUL NOT AND SWAP1 DUP4 PUSH1 0x2 DUP2 GT ISZERO PUSH3 0x10A JUMPI PUSH3 0x109 PUSH3 0x30A JUMP JUMPDEST JUMPDEST MUL OR SWAP1 SSTORE POP CALLVALUE DUP1 ISZERO PUSH3 0x11C JUMPI PUSH1 0x0 DUP1 REVERT JUMPDEST POP PUSH3 0x368 JUMP JUMPDEST DUP3 DUP1 SLOAD PUSH3 0x131 SWAP1 PUSH3 0x276 JUMP JUMPDEST SWAP1 PUSH1 0x0 MSTORE PUSH1 0x20 PUSH1 0x0 KECCAK256 SWAP1 PUSH1 0x1F ADD PUSH1 0x20 SWAP1 DIV DUP2 ADD SWAP3 DUP3 PUSH3 0x155 JUMPI PUSH1 0x0 DUP6 SSTORE PUSH3 0x1A1 JUMP JUMPDEST DUP3 PUSH1 0x1F LT PUSH3 0x170 JUMPI DUP1 MLOAD PUSH1 0xFF NOT AND DUP4 DUP1 ADD OR DUP6 SSTORE PUSH3 0x1A1 JUMP JUMPDEST DUP3 DUP1 ADD PUSH1 0x1 ADD DUP6 SSTORE DUP3 ISZERO PUSH3 0x1A1 JUMPI SWAP2 DUP3 ADD JUMPDEST DUP3 DUP2 GT ISZERO PUSH3 0x1A0 JUMPI DUP3 MLOAD DUP3 SSTORE SWAP2 PUSH1 0x20 ADD SWAP2 SWAP1 PUSH1 0x1 ADD SWAP1 PUSH3 0x183 JUMP JUMPDEST JUMPDEST POP SWAP1 POP PUSH3 0x1B0 SWAP2 SWAP1 PUSH3 0x1B4 JUMP JUMPDEST POP SWAP1 JUMP JUMPDEST JUMPDEST DUP1 DUP3 GT ISZERO PUSH3 0x1CF JUMPI PUSH1 0x0 DUP2 PUSH1 0x0 SWAP1 SSTORE POP PUSH1 0x1 ADD PUSH3 0x1B5 JUMP JUMPDEST POP SWAP1 JUMP JUMPDEST PUSH1 0x0 PUSH3 0x1E0 DUP3 PUSH3 0x26C JUMP JUMPDEST SWAP2 POP PUSH3 0x1ED DUP4 PUSH3 0x26C JUMP JUMPDEST SWAP3 POP DUP3 PUSH3 0x200 JUMPI PUSH3 0x1FF PUSH3 0x2DB JUMP JUMPDEST JUMPDEST DUP3 DUP3 DIV SWAP1 POP SWAP3 SWAP2 POP POP JUMP JUMPDEST PUSH1 0x0 PUSH3 0x218 DUP3 PUSH3 0x26C JUMP JUMPDEST SWAP2 POP PUSH3 0x225 DUP4 PUSH3 0x26C JUMP JUMPDEST SWAP3 POP DUP2 PUSH32 0xFFFFFFFFFFFFFFFFFFFFFFFFFFFFFFFFFFFFFFFFFFFFFFFFFFFFFFFFFFFFFFFF DIV DUP4 GT DUP3 ISZERO ISZERO AND ISZERO PUSH3 0x261 JUMPI PUSH3 0x260 PUSH3 0x2AC JUMP JUMPDEST JUMPDEST DUP3 DUP3 MUL SWAP1 POP SWAP3 SWAP2 POP POP JUMP JUMPDEST PUSH1 0x0 DUP2 SWAP1 POP SWAP2 SWAP1 POP JUMP JUMPDEST PUSH1 0x0 PUSH1 0x2 DUP3 DIV SWAP1 POP PUSH1 0x1 DUP3 AND DUP1 PUSH3 0x28F JUMPI PUSH1 0x7F DUP3 AND SWAP2 POP JUMPDEST PUSH1 0x20 DUP3 LT DUP2 EQ ISZERO PUSH3 0x2A6 JUMPI PUSH3 0x2A5 PUSH3 0x339 JUMP JUMPDEST JUMPDEST POP SWAP2 SWAP1 POP JUMP JUMPDEST PUSH32 0x4E487B7100000000000000000000000000000000000000000000000000000000 PUSH1 0x0 MSTORE PUSH1 0x11 PUSH1 0x4 MSTORE PUSH1 0x24 PUSH1 0x0 REVERT JUMPDEST PUSH32 0x4E487B7100000000000000000000000000000000000000000000000000000000 PUSH1 0x0 MSTORE PUSH1 0x12 PUSH1 0x4 MSTORE PUSH1 0x24 PUSH1 0x0 REVERT JUMPDEST PUSH32 0x4E487B7100000000000000000000000000000000000000000000000000000000 PUSH1 0x0 MSTORE PUSH1 0x21 PUSH1 0x4 MSTORE PUSH1 0x24 PUSH1 0x0 REVERT JUMPDEST PUSH32 0x4E487B7100000000000000000000000000000000000000000000000000000000 PUSH1 0x0 MSTORE PUSH1 0x22 PUSH1 0x4 MSTORE PUSH1 0x24 PUSH1 0x0 REVERT JUMPDEST PUSH2 0xEA3 DUP1 PUSH3 0x378 PUSH1 0x0 CODECOPY PUSH1 0x0 RETURN INVALID PUSH1 0x80 PUSH1 0x40 MSTORE CALLVALUE DUP1 ISZERO PUSH2 0x10 JUMPI PUSH1 0x0 DUP1 REVERT JUMPDEST POP PUSH1 0x4 CALLDATASIZE LT PUSH2 0xA9 JUMPI PUSH1 0x0 CALLDATALOAD PUSH1 0xE0 SHR DUP1 PUSH4 0x702B1C16 GT PUSH2 0x71 JUMPI DUP1 PUSH4 0x702B1C16 EQ PUSH2 0x12E JUMPI DUP1 PUSH4 0x7A1736D1 EQ PUSH2 0x14C JUMPI DUP1 PUSH4 0xA5EBA931 EQ PUSH2 0x156 JUMPI DUP1 PUSH4 0xB24FA0E4 EQ PUSH2 0x174 JUMPI DUP1 PUSH4 0xB90D3D0C EQ PUSH2 0x17E JUMPI DUP1 PUSH4 0xFA883ACD EQ PUSH2 0x1B2 JUMPI PUSH2 0xA9 JUMP JUMPDEST DUP1 PUSH4 0x9A8D3F5 EQ PUSH2 0xAE JUMPI DUP1 PUSH4 0x17AE4589 EQ PUSH2 0xCC JUMPI DUP1 PUSH4 0x1AA35610 EQ PUSH2 0xE8 JUMPI DUP1 PUSH4 0x4FB2E0BE EQ PUSH2 0x106 JUMPI DUP1 PUSH4 0x50183507 EQ PUSH2 0x124 JUMPI JUMPDEST PUSH1 0x0 DUP1 REVERT JUMPDEST PUSH2 0xB6 PUSH2 0x1D0 JUMP JUMPDEST PUSH1 0x40 MLOAD PUSH2 0xC3 SWAP2 SWAP1 PUSH2 0xB34 JUMP JUMPDEST PUSH1 0x40 MLOAD DUP1 SWAP2 SUB SWAP1 RETURN JUMPDEST PUSH2 0xE6 PUSH1 0x4 DUP1 CALLDATASIZE SUB DUP2 ADD SWAP1 PUSH2 0xE1 SWAP2 SWAP1 PUSH2 0x98C JUMP JUMPDEST PUSH2 0x1D6 JUMP JUMPDEST STOP JUMPDEST PUSH2 0xF0 PUSH2 0x388 JUMP JUMPDEST PUSH1 0x40 MLOAD PUSH2 0xFD SWAP2 SWAP1 PUSH2 0xA91 JUMP JUMPDEST PUSH1 0x40 MLOAD DUP1 SWAP2 SUB SWAP1 RETURN JUMPDEST PUSH2 0x10E PUSH2 0x39B JUMP JUMPDEST PUSH1 0x40 MLOAD PUSH2 0x11B SWAP2 SWAP1 PUSH2 0xB34 JUMP JUMPDEST PUSH1 0x40 MLOAD DUP1 SWAP2 SUB SWAP1 RETURN JUMPDEST PUSH2 0x12C PUSH2 0x3A1 JUMP JUMPDEST STOP JUMPDEST PUSH2 0x136 PUSH2 0x470 JUMP JUMPDEST PUSH1 0x40 MLOAD PUSH2 0x143 SWAP2 SWAP1 PUSH2 0xB34 JUMP JUMPDEST PUSH1 0x40 MLOAD DUP1 SWAP2 SUB SWAP1 RETURN JUMPDEST PUSH2 0x154 PUSH2 0x476 JUMP JUMPDEST STOP JUMPDEST PUSH2 0x15E PUSH2 0x55F JUMP JUMPDEST PUSH1 0x40 MLOAD PUSH2 0x16B SWAP2 SWAP1 PUSH2 0xB34 JUMP JUMPDEST PUSH1 0x40 MLOAD DUP1 SWAP2 SUB SWAP1 RETURN JUMPDEST PUSH2 0x17C PUSH2 0x565 JUMP JUMPDEST STOP JUMPDEST PUSH2 0x198 PUSH1 0x4 DUP1 CALLDATASIZE SUB DUP2 ADD SWAP1 PUSH2 0x193 SWAP2 SWAP1 PUSH2 0x95F JUMP JUMPDEST PUSH2 0x64E JUMP JUMPDEST PUSH1 0x40 MLOAD PUSH2 0x1A9 SWAP6 SWAP5 SWAP4 SWAP3 SWAP2 SWAP1 PUSH2 0xAAC JUMP JUMPDEST PUSH1 0x40 MLOAD DUP1 SWAP2 SUB SWAP1 RETURN JUMPDEST PUSH2 0x1BA PUSH2 0x81C JUMP JUMPDEST PUSH1 0x40 MLOAD PUSH2 0x1C7 SWAP2 SWAP1 PUSH2 0xB34 JUMP JUMPDEST PUSH1 0x40 MLOAD DUP1 SWAP2 SUB SWAP1 RETURN JUMPDEST PUSH1 0x9 SLOAD DUP2 JUMP JUMPDEST PUSH1 0x0 DUP1 SLOAD SWAP1 PUSH2 0x100 EXP SWAP1 DIV PUSH1 0xFF AND PUSH2 0x223 JUMPI PUSH1 0x40 MLOAD PUSH32 0x8C379A000000000000000000000000000000000000000000000000000000000 DUP2 MSTORE PUSH1 0x4 ADD PUSH2 0x21A SWAP1 PUSH2 0xB14 JUMP JUMPDEST PUSH1 0x40 MLOAD DUP1 SWAP2 SUB SWAP1 REVERT JUMPDEST PUSH1 0x40 MLOAD DUP1 PUSH1 0xA0 ADD PUSH1 0x40 MSTORE DUP1 DUP5 DUP2 MSTORE PUSH1 0x20 ADD DUP4 DUP2 MSTORE PUSH1 0x20 ADD DUP3 DUP2 MSTORE PUSH1 0x20 ADD PUSH1 0x2 DUP1 SLOAD PUSH2 0x24D SWAP1 PUSH2 0xCBE JUMP JUMPDEST DUP1 PUSH1 0x1F ADD PUSH1 0x20 DUP1 SWAP2 DIV MUL PUSH1 0x20 ADD PUSH1 0x40 MLOAD SWAP1 DUP2 ADD PUSH1 0x40 MSTORE DUP1 SWAP3 SWAP2 SWAP1 DUP2 DUP2 MSTORE PUSH1 0x20 ADD DUP3 DUP1 SLOAD PUSH2 0x279 SWAP1 PUSH2 0xCBE JUMP JUMPDEST DUP1 ISZERO PUSH2 0x2C6 JUMPI DUP1 PUSH1 0x1F LT PUSH2 0x29B JUMPI PUSH2 0x100 DUP1 DUP4 SLOAD DIV MUL DUP4 MSTORE SWAP2 PUSH1 0x20 ADD SWAP2 PUSH2 0x2C6 JUMP JUMPDEST DUP3 ADD SWAP2 SWAP1 PUSH1 0x0 MSTORE PUSH1 0x20 PUSH1 0x0 KECCAK256 SWAP1 JUMPDEST DUP2 SLOAD DUP2 MSTORE SWAP1 PUSH1 0x1 ADD SWAP1 PUSH1 0x20 ADD DUP1 DUP4 GT PUSH2 0x2A9 JUMPI DUP3 SWAP1 SUB PUSH1 0x1F AND DUP3 ADD SWAP2 JUMPDEST POP POP POP POP POP DUP2 MSTORE PUSH1 0x20 ADD PUSH1 0x3 SLOAD DUP2 MSTORE POP PUSH1 0xA PUSH1 0x0 CALLER PUSH20 0xFFFFFFFFFFFFFFFFFFFFFFFFFFFFFFFFFFFFFFFF AND PUSH20 0xFFFFFFFFFFFFFFFFFFFFFFFFFFFFFFFFFFFFFFFF AND DUP2 MSTORE PUSH1 0x20 ADD SWAP1 DUP2 MSTORE PUSH1 0x20 ADD PUSH1 0x0 KECCAK256 PUSH1 0x0 DUP3 ADD MLOAD DUP2 PUSH1 0x0 ADD SWAP1 DUP1 MLOAD SWAP1 PUSH1 0x20 ADD SWAP1 PUSH2 0x331 SWAP3 SWAP2 SWAP1 PUSH2 0x822 JUMP JUMPDEST POP PUSH1 0x20 DUP3 ADD MLOAD DUP2 PUSH1 0x1 ADD SWAP1 DUP1 MLOAD SWAP1 PUSH1 0x20 ADD SWAP1 PUSH2 0x34E SWAP3 SWAP2 SWAP1 PUSH2 0x822 JUMP JUMPDEST POP PUSH1 0x40 DUP3 ADD MLOAD DUP2 PUSH1 0x2 ADD SSTORE PUSH1 0x60 DUP3 ADD MLOAD DUP2 PUSH1 0x3 ADD SWAP1 DUP1 MLOAD SWAP1 PUSH1 0x20 ADD SWAP1 PUSH2 0x375 SWAP3 SWAP2 SWAP1 PUSH2 0x822 JUMP JUMPDEST POP PUSH1 0x80 DUP3 ADD MLOAD DUP2 PUSH1 0x4 ADD SSTORE SWAP1 POP POP POP POP POP JUMP JUMPDEST PUSH1 0xB PUSH1 0x0 SWAP1 SLOAD SWAP1 PUSH2 0x100 EXP SWAP1 DIV PUSH1 0xFF AND DUP2 JUMP JUMPDEST PUSH1 0x5 SLOAD DUP2 JUMP JUMPDEST PUSH1 0x0 PUSH1 0xB PUSH1 0x0 PUSH2 0x100 EXP DUP2 SLOAD DUP2 PUSH1 0xFF MUL NOT AND SWAP1 DUP4 PUSH1 0x2 DUP2 GT ISZERO PUSH2 0x3C7 JUMPI PUSH2 0x3C6 PUSH2 0xD50 JUMP JUMPDEST JUMPDEST MUL OR SWAP1 SSTORE POP PUSH1 0xB PUSH1 0x0 SWAP1 SLOAD SWAP1 PUSH2 0x100 EXP SWAP1 DIV PUSH1 0xFF AND PUSH1 0x2 DUP2 GT ISZERO PUSH2 0x3EE JUMPI PUSH2 0x3ED PUSH2 0xD50 JUMP JUMPDEST JUMPDEST PUSH1 0x1 DUP2 SWAP1 SSTORE POP PUSH1 0x0 PUSH1 0x1 SLOAD EQ ISZERO PUSH2 0x454 JUMPI PUSH1 0x40 MLOAD DUP1 PUSH1 0x40 ADD PUSH1 0x40 MSTORE DUP1 PUSH1 0xB DUP2 MSTORE PUSH1 0x20 ADD PUSH32 0x466972737420436C617373000000000000000000000000000000000000000000 DUP2 MSTORE POP PUSH1 0x2 SWAP1 DUP1 MLOAD SWAP1 PUSH1 0x20 ADD SWAP1 PUSH2 0x44A SWAP3 SWAP2 SWAP1 PUSH2 0x822 JUMP JUMPDEST POP PUSH1 0x2 PUSH1 0x3 DUP2 SWAP1 SSTORE POP JUMPDEST PUSH1 0x1 PUSH1 0x0 DUP1 PUSH2 0x100 EXP DUP2 SLOAD DUP2 PUSH1 0xFF MUL NOT AND SWAP1 DUP4 ISZERO ISZERO MUL OR SWAP1 SSTORE POP JUMP JUMPDEST PUSH1 0x6 SLOAD DUP2 JUMP JUMPDEST PUSH1 0x1 PUSH1 0xB PUSH1 0x0 PUSH2 0x100 EXP DUP2 SLOAD DUP2 PUSH1 0xFF MUL NOT AND SWAP1 DUP4 PUSH1 0x2 DUP2 GT ISZERO PUSH2 0x49C JUMPI PUSH2 0x49B PUSH2 0xD50 JUMP JUMPDEST JUMPDEST MUL OR SWAP1 SSTORE POP PUSH1 0xB PUSH1 0x0 SWAP1 SLOAD SWAP1 PUSH2 0x100 EXP SWAP1 DIV PUSH1 0xFF AND PUSH1 0x2 DUP2 GT ISZERO PUSH2 0x4C3 JUMPI PUSH2 0x4C2 PUSH2 0xD50 JUMP JUMPDEST JUMPDEST PUSH1 0x1 DUP2 SWAP1 SSTORE POP PUSH1 0x1 DUP1 SLOAD EQ ISZERO PUSH2 0x543 JUMPI PUSH1 0x40 MLOAD DUP1 PUSH1 0x40 ADD PUSH1 0x40 MSTORE DUP1 PUSH1 0xD DUP2 MSTORE PUSH1 0x20 ADD PUSH32 0x45636F6E6F6D7920436C61737300000000000000000000000000000000000000 DUP2 MSTORE POP PUSH1 0x2 SWAP1 DUP1 MLOAD SWAP1 PUSH1 0x20 ADD SWAP1 PUSH2 0x51E SWAP3 SWAP2 SWAP1 PUSH2 0x822 JUMP JUMPDEST POP PUSH7 0x11C37937E08000 PUSH1 0x5 SLOAD PUSH2 0x534 SWAP2 SWAP1 PUSH2 0xBC1 JUMP JUMPDEST PUSH1 0x4 DUP2 SWAP1 SSTORE POP PUSH1 0x1 PUSH1 0x3 DUP2 SWAP1 SSTORE POP JUMPDEST PUSH1 0x1 PUSH1 0x0 DUP1 PUSH2 0x100 EXP DUP2 SLOAD DUP2 PUSH1 0xFF MUL NOT AND SWAP1 DUP4 ISZERO ISZERO MUL OR SWAP1 SSTORE POP JUMP JUMPDEST PUSH1 0x8 SLOAD DUP2 JUMP JUMPDEST PUSH1 0x2 PUSH1 0xB PUSH1 0x0 PUSH2 0x100 EXP DUP2 SLOAD DUP2 PUSH1 0xFF MUL NOT AND SWAP1 DUP4 PUSH1 0x2 DUP2 GT ISZERO PUSH2 0x58B JUMPI PUSH2 0x58A PUSH2 0xD50 JUMP JUMPDEST JUMPDEST MUL OR SWAP1 SSTORE POP PUSH1 0xB PUSH1 0x0 SWAP1 SLOAD SWAP1 PUSH2 0x100 EXP SWAP1 DIV PUSH1 0xFF AND PUSH1 0x2 DUP2 GT ISZERO PUSH2 0x5B2 JUMPI PUSH2 0x5B1 PUSH2 0xD50 JUMP JUMPDEST JUMPDEST PUSH1 0x1 DUP2 SWAP1 SSTORE POP PUSH1 0x2 PUSH1 0x1 SLOAD EQ ISZERO PUSH2 0x632 JUMPI PUSH1 0x40 MLOAD DUP1 PUSH1 0x40 ADD PUSH1 0x40 MSTORE DUP1 PUSH1 0xD DUP2 MSTORE PUSH1 0x20 ADD PUSH32 0x4275736E69737320436C61737300000000000000000000000000000000000000 DUP2 MSTORE POP PUSH1 0x2 SWAP1 DUP1 MLOAD SWAP1 PUSH1 0x20 ADD SWAP1 PUSH2 0x60E SWAP3 SWAP2 SWAP1 PUSH2 0x822 JUMP JUMPDEST POP PUSH7 0x11C37937E08000 PUSH1 0x5 SLOAD PUSH2 0x624 SWAP2 SWAP1 PUSH2 0xBC1 JUMP JUMPDEST PUSH1 0x4 DUP2 SWAP1 SSTORE POP PUSH1 0x3 DUP1 DUP2 SWAP1 SSTORE POP JUMPDEST PUSH1 0x1 PUSH1 0x0 DUP1 PUSH2 0x100 EXP DUP2 SLOAD DUP2 PUSH1 0xFF MUL NOT AND SWAP1 DUP4 ISZERO ISZERO MUL OR SWAP1 SSTORE POP JUMP JUMPDEST PUSH1 0xA PUSH1 0x20 MSTORE DUP1 PUSH1 0x0 MSTORE PUSH1 0x40 PUSH1 0x0 KECCAK256 PUSH1 0x0 SWAP2 POP SWAP1 POP DUP1 PUSH1 0x0 ADD DUP1 SLOAD PUSH2 0x671 SWAP1 PUSH2 0xCBE JUMP JUMPDEST DUP1 PUSH1 0x1F ADD PUSH1 0x20 DUP1 SWAP2 DIV MUL PUSH1 0x20 ADD PUSH1 0x40 MLOAD SWAP1 DUP2 ADD PUSH1 0x40 MSTORE DUP1 SWAP3 SWAP2 SWAP1 DUP2 DUP2 MSTORE PUSH1 0x20 ADD DUP3 DUP1 SLOAD PUSH2 0x69D SWAP1 PUSH2 0xCBE JUMP JUMPDEST DUP1 ISZERO PUSH2 0x6EA JUMPI DUP1 PUSH1 0x1F LT PUSH2 0x6BF JUMPI PUSH2 0x100 DUP1 DUP4 SLOAD DIV MUL DUP4 MSTORE SWAP2 PUSH1 0x20 ADD SWAP2 PUSH2 0x6EA JUMP JUMPDEST DUP3 ADD SWAP2 SWAP1 PUSH1 0x0 MSTORE PUSH1 0x20 PUSH1 0x0 KECCAK256 SWAP1 JUMPDEST DUP2 SLOAD DUP2 MSTORE SWAP1 PUSH1 0x1 ADD SWAP1 PUSH1 0x20 ADD DUP1 DUP4 GT PUSH2 0x6CD JUMPI DUP3 SWAP1 SUB PUSH1 0x1F AND DUP3 ADD SWAP2 JUMPDEST POP POP POP POP POP SWAP1 DUP1 PUSH1 0x1 ADD DUP1 SLOAD PUSH2 0x6FF SWAP1 PUSH2 0xCBE JUMP JUMPDEST DUP1 PUSH1 0x1F ADD PUSH1 0x20 DUP1 SWAP2 DIV MUL PUSH1 0x20 ADD PUSH1 0x40 MLOAD SWAP1 DUP2 ADD PUSH1 0x40 MSTORE DUP1 SWAP3 SWAP2 SWAP1 DUP2 DUP2 MSTORE PUSH1 0x20 ADD DUP3 DUP1 SLOAD PUSH2 0x72B SWAP1 PUSH2 0xCBE JUMP JUMPDEST DUP1 ISZERO PUSH2 0x778 JUMPI DUP1 PUSH1 0x1F LT PUSH2 0x74D JUMPI PUSH2 0x100 DUP1 DUP4 SLOAD DIV MUL DUP4 MSTORE SWAP2 PUSH1 0x20 ADD SWAP2 PUSH2 0x778 JUMP JUMPDEST DUP3 ADD SWAP2 SWAP1 PUSH1 0x0 MSTORE PUSH1 0x20 PUSH1 0x0 KECCAK256 SWAP1 JUMPDEST DUP2 SLOAD DUP2 MSTORE SWAP1 PUSH1 0x1 ADD SWAP1 PUSH1 0x20 ADD DUP1 DUP4 GT PUSH2 0x75B JUMPI DUP3 SWAP1 SUB PUSH1 0x1F AND DUP3 ADD SWAP2 JUMPDEST POP POP POP POP POP SWAP1 DUP1 PUSH1 0x2 ADD SLOAD SWAP1 DUP1 PUSH1 0x3 ADD DUP1 SLOAD PUSH2 0x793 SWAP1 PUSH2 0xCBE JUMP JUMPDEST DUP1 PUSH1 0x1F ADD PUSH1 0x20 DUP1 SWAP2 DIV MUL PUSH1 0x20 ADD PUSH1 0x40 MLOAD SWAP1 DUP2 ADD PUSH1 0x40 MSTORE DUP1 SWAP3 SWAP2 SWAP1 DUP2 DUP2 MSTORE PUSH1 0x20 ADD DUP3 DUP1 SLOAD PUSH2 0x7BF SWAP1 PUSH2 0xCBE JUMP JUMPDEST DUP1 ISZERO PUSH2 0x80C JUMPI DUP1 PUSH1 0x1F LT PUSH2 0x7E1 JUMPI PUSH2 0x100 DUP1 DUP4 SLOAD DIV MUL DUP4 MSTORE SWAP2 PUSH1 0x20 ADD SWAP2 PUSH2 0x80C JUMP JUMPDEST DUP3 ADD SWAP2 SWAP1 PUSH1 0x0 MSTORE PUSH1 0x20 PUSH1 0x0 KECCAK256 SWAP1 JUMPDEST DUP2 SLOAD DUP2 MSTORE SWAP1 PUSH1 0x1 ADD SWAP1 PUSH1 0x20 ADD DUP1 DUP4 GT PUSH2 0x7EF JUMPI DUP3 SWAP1 SUB PUSH1 0x1F AND DUP3 ADD SWAP2 JUMPDEST POP POP POP POP POP SWAP1 DUP1 PUSH1 0x4 ADD SLOAD SWAP1 POP DUP6 JUMP JUMPDEST PUSH1 0x7 SLOAD DUP2 JUMP JUMPDEST DUP3 DUP1 SLOAD PUSH2 0x82E SWAP1 PUSH2 0xCBE JUMP JUMPDEST SWAP1 PUSH1 0x0 MSTORE PUSH1 0x20 PUSH1 0x0 KECCAK256 SWAP1 PUSH1 0x1F ADD PUSH1 0x20 SWAP1 DIV DUP2 ADD SWAP3 DUP3 PUSH2 0x850 JUMPI PUSH1 0x0 DUP6 SSTORE PUSH2 0x897 JUMP JUMPDEST DUP3 PUSH1 0x1F LT PUSH2 0x869 JUMPI DUP1 MLOAD PUSH1 0xFF NOT AND DUP4 DUP1 ADD OR DUP6 SSTORE PUSH2 0x897 JUMP JUMPDEST DUP3 DUP1 ADD PUSH1 0x1 ADD DUP6 SSTORE DUP3 ISZERO PUSH2 0x897 JUMPI SWAP2 DUP3 ADD JUMPDEST DUP3 DUP2 GT ISZERO PUSH2 0x896 JUMPI DUP3 MLOAD DUP3 SSTORE SWAP2 PUSH1 0x20 ADD SWAP2 SWAP1 PUSH1 0x1 ADD SWAP1 PUSH2 0x87B JUMP JUMPDEST JUMPDEST POP SWAP1 POP PUSH2 0x8A4 SWAP2 SWAP1 PUSH2 0x8A8 JUMP JUMPDEST POP SWAP1 JUMP JUMPDEST JUMPDEST DUP1 DUP3 GT ISZERO PUSH2 0x8C1 JUMPI PUSH1 0x0 DUP2 PUSH1 0x0 SWAP1 SSTORE POP PUSH1 0x1 ADD PUSH2 0x8A9 JUMP JUMPDEST POP SWAP1 JUMP JUMPDEST PUSH1 0x0 PUSH2 0x8D8 PUSH2 0x8D3 DUP5 PUSH2 0xB74 JUMP JUMPDEST PUSH2 0xB4F JUMP JUMPDEST SWAP1 POP DUP3 DUP2 MSTORE PUSH1 0x20 DUP2 ADD DUP5 DUP5 DUP5 ADD GT ISZERO PUSH2 0x8F4 JUMPI PUSH2 0x8F3 PUSH2 0xDE2 JUMP JUMPDEST JUMPDEST PUSH2 0x8FF DUP5 DUP3 DUP6 PUSH2 0xC7C JUMP JUMPDEST POP SWAP4 SWAP3 POP POP POP JUMP JUMPDEST PUSH1 0x0 DUP2 CALLDATALOAD SWAP1 POP PUSH2 0x916 DUP2 PUSH2 0xE3F JUMP JUMPDEST SWAP3 SWAP2 POP POP JUMP JUMPDEST PUSH1 0x0 DUP3 PUSH1 0x1F DUP4 ADD SLT PUSH2 0x931 JUMPI PUSH2 0x930 PUSH2 0xDDD JUMP JUMPDEST JUMPDEST DUP2 CALLDATALOAD PUSH2 0x941 DUP5 DUP3 PUSH1 0x20 DUP7 ADD PUSH2 0x8C5 JUMP JUMPDEST SWAP2 POP POP SWAP3 SWAP2 POP POP JUMP JUMPDEST PUSH1 0x0 DUP2 CALLDATALOAD SWAP1 POP PUSH2 0x959 DUP2 PUSH2 0xE56 JUMP JUMPDEST SWAP3 SWAP2 POP POP JUMP JUMPDEST PUSH1 0x0 PUSH1 0x20 DUP3 DUP5 SUB SLT ISZERO PUSH2 0x975 JUMPI PUSH2 0x974 PUSH2 0xDEC JUMP JUMPDEST JUMPDEST PUSH1 0x0 PUSH2 0x983 DUP5 DUP3 DUP6 ADD PUSH2 0x907 JUMP JUMPDEST SWAP2 POP POP SWAP3 SWAP2 POP POP JUMP JUMPDEST PUSH1 0x0 DUP1 PUSH1 0x0 PUSH1 0x60 DUP5 DUP7 SUB SLT ISZERO PUSH2 0x9A5 JUMPI PUSH2 0x9A4 PUSH2 0xDEC JUMP JUMPDEST JUMPDEST PUSH1 0x0 DUP5 ADD CALLDATALOAD PUSH8 0xFFFFFFFFFFFFFFFF DUP2 GT ISZERO PUSH2 0x9C3 JUMPI PUSH2 0x9C2 PUSH2 0xDE7 JUMP JUMPDEST JUMPDEST PUSH2 0x9CF DUP7 DUP3 DUP8 ADD PUSH2 0x91C JUMP JUMPDEST SWAP4 POP POP PUSH1 0x20 DUP5 ADD CALLDATALOAD PUSH8 0xFFFFFFFFFFFFFFFF DUP2 GT ISZERO PUSH2 0x9F0 JUMPI PUSH2 0x9EF PUSH2 0xDE7 JUMP JUMPDEST JUMPDEST PUSH2 0x9FC DUP7 DUP3 DUP8 ADD PUSH2 0x91C JUMP JUMPDEST SWAP3 POP POP PUSH1 0x40 PUSH2 0xA0D DUP7 DUP3 DUP8 ADD PUSH2 0x94A JUMP JUMPDEST SWAP2 POP POP SWAP3 POP SWAP3 POP SWAP3 JUMP JUMPDEST PUSH2 0xA20 DUP2 PUSH2 0xC6A JUMP JUMPDEST DUP3 MSTORE POP POP JUMP JUMPDEST PUSH1 0x0 PUSH2 0xA31 DUP3 PUSH2 0xBA5 JUMP JUMPDEST PUSH2 0xA3B DUP2 DUP6 PUSH2 0xBB0 JUMP JUMPDEST SWAP4 POP PUSH2 0xA4B DUP2 DUP6 PUSH1 0x20 DUP7 ADD PUSH2 0xC8B JUMP JUMPDEST PUSH2 0xA54 DUP2 PUSH2 0xDF1 JUMP JUMPDEST DUP5 ADD SWAP2 POP POP SWAP3 SWAP2 POP POP JUMP JUMPDEST PUSH1 0x0 PUSH2 0xA6C PUSH1 0x1D DUP4 PUSH2 0xBB0 JUMP JUMPDEST SWAP2 POP PUSH2 0xA77 DUP3 PUSH2 0xE02 JUMP JUMPDEST PUSH1 0x20 DUP3 ADD SWAP1 POP SWAP2 SWAP1 POP JUMP JUMPDEST PUSH2 0xA8B DUP2 PUSH2 0xC60 JUMP JUMPDEST DUP3 MSTORE POP POP JUMP JUMPDEST PUSH1 0x0 PUSH1 0x20 DUP3 ADD SWAP1 POP PUSH2 0xAA6 PUSH1 0x0 DUP4 ADD DUP5 PUSH2 0xA17 JUMP JUMPDEST SWAP3 SWAP2 POP POP JUMP JUMPDEST PUSH1 0x0 PUSH1 0xA0 DUP3 ADD SWAP1 POP DUP2 DUP2 SUB PUSH1 0x0 DUP4 ADD MSTORE PUSH2 0xAC6 DUP2 DUP9 PUSH2 0xA26 JUMP JUMPDEST SWAP1 POP DUP2 DUP2 SUB PUSH1 0x20 DUP4 ADD MSTORE PUSH2 0xADA DUP2 DUP8 PUSH2 0xA26 JUMP JUMPDEST SWAP1 POP PUSH2 0xAE9 PUSH1 0x40 DUP4 ADD DUP7 PUSH2 0xA82 JUMP JUMPDEST DUP2 DUP2 SUB PUSH1 0x60 DUP4 ADD MSTORE PUSH2 0xAFB DUP2 DUP6 PUSH2 0xA26 JUMP JUMPDEST SWAP1 POP PUSH2 0xB0A PUSH1 0x80 DUP4 ADD DUP5 PUSH2 0xA82 JUMP JUMPDEST SWAP7 SWAP6 POP POP POP POP POP POP JUMP JUMPDEST PUSH1 0x0 PUSH1 0x20 DUP3 ADD SWAP1 POP DUP2 DUP2 SUB PUSH1 0x0 DUP4 ADD MSTORE PUSH2 0xB2D DUP2 PUSH2 0xA5F JUMP JUMPDEST SWAP1 POP SWAP2 SWAP1 POP JUMP JUMPDEST PUSH1 0x0 PUSH1 0x20 DUP3 ADD SWAP1 POP PUSH2 0xB49 PUSH1 0x0 DUP4 ADD DUP5 PUSH2 0xA82 JUMP JUMPDEST SWAP3 SWAP2 POP POP JUMP JUMPDEST PUSH1 0x0 PUSH2 0xB59 PUSH2 0xB6A JUMP JUMPDEST SWAP1 POP PUSH2 0xB65 DUP3 DUP3 PUSH2 0xCF0 JUMP JUMPDEST SWAP2 SWAP1 POP JUMP JUMPDEST PUSH1 0x0 PUSH1 0x40 MLOAD SWAP1 POP SWAP1 JUMP JUMPDEST PUSH1 0x0 PUSH8 0xFFFFFFFFFFFFFFFF DUP3 GT ISZERO PUSH2 0xB8F JUMPI PUSH2 0xB8E PUSH2 0xDAE JUMP JUMPDEST JUMPDEST PUSH2 0xB98 DUP3 PUSH2 0xDF1 JUMP JUMPDEST SWAP1 POP PUSH1 0x20 DUP2 ADD SWAP1 POP SWAP2 SWAP1 POP JUMP JUMPDEST PUSH1 0x0 DUP2 MLOAD SWAP1 POP SWAP2 SWAP1 POP JUMP JUMPDEST PUSH1 0x0 DUP3 DUP3 MSTORE PUSH1 0x20 DUP3 ADD SWAP1 POP SWAP3 SWAP2 POP POP JUMP JUMPDEST PUSH1 0x0 PUSH2 0xBCC DUP3 PUSH2 0xC60 JUMP JUMPDEST SWAP2 POP PUSH2 0xBD7 DUP4 PUSH2 0xC60 JUMP JUMPDEST SWAP3 POP DUP2 PUSH32 0xFFFFFFFFFFFFFFFFFFFFFFFFFFFFFFFFFFFFFFFFFFFFFFFFFFFFFFFFFFFFFFFF DIV DUP4 GT DUP3 ISZERO ISZERO AND ISZERO PUSH2 0xC10 JUMPI PUSH2 0xC0F PUSH2 0xD21 JUMP JUMPDEST JUMPDEST DUP3 DUP3 MUL SWAP1 POP SWAP3 SWAP2 POP POP JUMP JUMPDEST PUSH1 0x0 PUSH2 0xC26 DUP3 PUSH2 0xC40 JUMP JUMPDEST SWAP1 POP SWAP2 SWAP1 POP JUMP JUMPDEST PUSH1 0x0 DUP2 SWAP1 POP PUSH2 0xC3B DUP3 PUSH2 0xE2B JUMP JUMPDEST SWAP2 SWAP1 POP JUMP JUMPDEST PUSH1 0x0 PUSH20 0xFFFFFFFFFFFFFFFFFFFFFFFFFFFFFFFFFFFFFFFF DUP3 AND SWAP1 POP SWAP2 SWAP1 POP JUMP JUMPDEST PUSH1 0x0 DUP2 SWAP1 POP SWAP2 SWAP1 POP JUMP JUMPDEST PUSH1 0x0 PUSH2 0xC75 DUP3 PUSH2 0xC2D JUMP JUMPDEST SWAP1 POP SWAP2 SWAP1 POP JUMP JUMPDEST DUP3 DUP2 DUP4 CALLDATACOPY PUSH1 0x0 DUP4 DUP4 ADD MSTORE POP POP POP JUMP JUMPDEST PUSH1 0x0 JUMPDEST DUP4 DUP2 LT ISZERO PUSH2 0xCA9 JUMPI DUP1 DUP3 ADD MLOAD DUP2 DUP5 ADD MSTORE PUSH1 0x20 DUP2 ADD SWAP1 POP PUSH2 0xC8E JUMP JUMPDEST DUP4 DUP2 GT ISZERO PUSH2 0xCB8 JUMPI PUSH1 0x0 DUP5 DUP5 ADD MSTORE JUMPDEST POP POP POP POP JUMP JUMPDEST PUSH1 0x0 PUSH1 0x2 DUP3 DIV SWAP1 POP PUSH1 0x1 DUP3 AND DUP1 PUSH2 0xCD6 JUMPI PUSH1 0x7F DUP3 AND SWAP2 POP JUMPDEST PUSH1 0x20 DUP3 LT DUP2 EQ ISZERO PUSH2 0xCEA JUMPI PUSH2 0xCE9 PUSH2 0xD7F JUMP JUMPDEST JUMPDEST POP SWAP2 SWAP1 POP JUMP JUMPDEST PUSH2 0xCF9 DUP3 PUSH2 0xDF1 JUMP JUMPDEST DUP2 ADD DUP2 DUP2 LT PUSH8 0xFFFFFFFFFFFFFFFF DUP3 GT OR ISZERO PUSH2 0xD18 JUMPI PUSH2 0xD17 PUSH2 0xDAE JUMP JUMPDEST JUMPDEST DUP1 PUSH1 0x40 MSTORE POP POP POP JUMP JUMPDEST PUSH32 0x4E487B7100000000000000000000000000000000000000000000000000000000 PUSH1 0x0 MSTORE PUSH1 0x11 PUSH1 0x4 MSTORE PUSH1 0x24 PUSH1 0x0 REVERT JUMPDEST PUSH32 0x4E487B7100000000000000000000000000000000000000000000000000000000 PUSH1 0x0 MSTORE PUSH1 0x21 PUSH1 0x4 MSTORE PUSH1 0x24 PUSH1 0x0 REVERT JUMPDEST PUSH32 0x4E487B7100000000000000000000000000000000000000000000000000000000 PUSH1 0x0 MSTORE PUSH1 0x22 PUSH1 0x4 MSTORE PUSH1 0x24 PUSH1 0x0 REVERT JUMPDEST PUSH32 0x4E487B7100000000000000000000000000000000000000000000000000000000 PUSH1 0x0 MSTORE PUSH1 0x41 PUSH1 0x4 MSTORE PUSH1 0x24 PUSH1 0x0 REVERT JUMPDEST PUSH1 0x0 DUP1 REVERT JUMPDEST PUSH1 0x0 DUP1 REVERT JUMPDEST PUSH1 0x0 DUP1 REVERT JUMPDEST PUSH1 0x0 DUP1 REVERT JUMPDEST PUSH1 0x0 PUSH1 0x1F NOT PUSH1 0x1F DUP4 ADD AND SWAP1 POP SWAP2 SWAP1 POP JUMP JUMPDEST PUSH32 0x706C656173652073656C6563742074686520636C617373206669727374000000 PUSH1 0x0 DUP3 ADD MSTORE POP JUMP JUMPDEST PUSH1 0x3 DUP2 LT PUSH2 0xE3C JUMPI PUSH2 0xE3B PUSH2 0xD50 JUMP JUMPDEST JUMPDEST POP JUMP JUMPDEST PUSH2 0xE48 DUP2 PUSH2 0xC1B JUMP JUMPDEST DUP2 EQ PUSH2 0xE53 JUMPI PUSH1 0x0 DUP1 REVERT JUMPDEST POP JUMP JUMPDEST PUSH2 0xE5F DUP2 PUSH2 0xC60 JUMP JUMPDEST DUP2 EQ PUSH2 0xE6A JUMPI PUSH1 0x0 DUP1 REVERT JUMPDEST POP JUMP INVALID LOG2 PUSH5 0x6970667358 0x22 SLT KECCAK256 0xAD PUSH6 0x28902F069818 PUSH1 0xFF PUSH20 0xDFC8598C265788A791AAF3158785F581A3514C6C GT PUSH5 0x736F6C6343 STOP ADDMOD SMOD STOP CALLER "
				},
				"gasEstimates": {
					"creation": {
						"codeDepositCost": "749400",
						"executionCost": "infinite",
						"totalCost": "infinite"
					},
					"external": {
						"busClassCost()": "2473",
						"busnissClass()": "infinite",
						"data(address)": "infinite",
						"ecoClassCost()": "2429",
						"economyClass()": "infinite",
						"firstClass()": "infinite",
						"firstClassCost()": "2539",
						"oneEth()": "2430",
						"oneWei()": "2496",
						"setData(string,string,uint256)": "infinite",
						"u1()": "2605"
					}
				},
				"methodIdentifiers": {
					"busClassCost()": "a5eba931",
					"busnissClass()": "b24fa0e4",
					"data(address)": "b90d3d0c",
					"ecoClassCost()": "702b1c16",
					"economyClass()": "7a1736d1",
					"firstClass()": "50183507",
					"firstClassCost()": "fa883acd",
					"oneEth()": "09a8d3f5",
					"oneWei()": "4fb2e0be",
					"setData(string,string,uint256)": "17ae4589",
					"u1()": "1aa35610"
				}
			},
			"userdoc": {
				"kind": "user",
				"methods": {},
				"version": 1
			}
		}
	}
}